{"abi":[{"inputs":[{"internalType":"string","name":"destination","type":"string"},{"internalType":"uint256","name":"destinationPrice","type":"uint256"}],"stateMutability":"nonpayable","type":"constructor"},{"inputs":[{"internalType":"string","name":"destination","type":"string"},{"internalType":"uint256","name":"month","type":"uint256"},{"internalType":"uint256","name":"class","type":"uint256"},{"internalType":"bool","name":"way","type":"bool"}],"name":"bookFlight","outputs":[],"stateMutability":"payable","type":"function"},{"inputs":[],"name":"canPayout","outputs":[{"internalType":"bool","name":"","type":"bool"}],"stateMutability":"view","type":"function"},{"inputs":[],"name":"ceo","outputs":[{"internalType":"address","name":"","type":"address"}],"stateMutability":"view","type":"function"},{"inputs":[{"internalType":"uint256","name":"","type":"uint256"}],"name":"classMultiplier","outputs":[{"internalType":"uint256","name":"","type":"uint256"}],"stateMutability":"view","type":"function"},{"inputs":[],"name":"count","outputs":[{"internalType":"uint256","name":"","type":"uint256"}],"stateMutability":"view","type":"function"},{"inputs":[{"internalType":"address","name":"owner","type":"address"},{"internalType":"string","name":"destination","type":"string"},{"internalType":"uint256","name":"price","type":"uint256"}],"name":"create30Tickets","outputs":[],"stateMutability":"nonpayable","type":"function"},{"inputs":[{"internalType":"string","name":"destination","type":"string"},{"internalType":"uint256","name":"destinationPrice","type":"uint256"}],"name":"createDestination","outputs":[],"stateMutability":"nonpayable","type":"function"},{"inputs":[{"internalType":"uint256","name":"","type":"uint256"}],"name":"destinationPrices","outputs":[{"internalType":"uint256","name":"","type":"uint256"}],"stateMutability":"view","type":"function"},{"inputs":[{"internalType":"uint256","name":"","type":"uint256"}],"name":"destinations","outputs":[{"internalType":"string","name":"","type":"string"}],"stateMutability":"view","type":"function"},{"inputs":[{"internalType":"address","name":"user","type":"address"}],"name":"getBookedFlights","outputs":[{"components":[{"internalType":"address","name":"owner","type":"address"},{"internalType":"string","name":"destination","type":"string"},{"internalType":"uint256","name":"price","type":"uint256"},{"internalType":"uint256","name":"seat","type":"uint256"},{"internalType":"string","name":"class","type":"string"},{"internalType":"bool","name":"roundTrip","type":"bool"},{"internalType":"bool","name":"isAvailable","type":"bool"},{"internalType":"uint256","name":"month","type":"uint256"}],"internalType":"struct AirlineManagement.Ticket[]","name":"","type":"tuple[]"}],"stateMutability":"view","type":"function"},{"inputs":[{"internalType":"string","name":"destination","type":"string"},{"internalType":"uint256","name":"month","type":"uint256"},{"internalType":"uint256","name":"class","type":"uint256"},{"internalType":"bool","name":"way","type":"bool"}],"name":"getPrice","outputs":[{"internalType":"uint256","name":"","type":"uint256"}],"stateMutability":"view","type":"function"},{"inputs":[{"internalType":"string","name":"","type":"string"}],"name":"indexes","outputs":[{"internalType":"uint256","name":"","type":"uint256"}],"stateMutability":"view","type":"function"},{"inputs":[{"internalType":"address","name":"user","type":"address"}],"name":"isCeo","outputs":[{"internalType":"bool","name":"","type":"bool"}],"stateMutability":"view","type":"function"},{"inputs":[{"internalType":"uint256","name":"","type":"uint256"}],"name":"monthMultiplier","outputs":[{"internalType":"uint256","name":"","type":"uint256"}],"stateMutability":"view","type":"function"},{"inputs":[],"name":"nextTicketId","outputs":[{"internalType":"uint256","name":"","type":"uint256"}],"stateMutability":"view","type":"function"},{"inputs":[],"name":"payAmount","outputs":[{"internalType":"uint256","name":"","type":"uint256"}],"stateMutability":"view","type":"function"},{"inputs":[],"name":"payCEO","outputs":[],"stateMutability":"nonpayable","type":"function"},{"inputs":[{"internalType":"uint256","name":"","type":"uint256"}],"name":"seats","outputs":[{"internalType":"uint256","name":"","type":"uint256"}],"stateMutability":"view","type":"function"},{"inputs":[{"internalType":"uint256","name":"","type":"uint256"}],"name":"ticketDetails","outputs":[{"internalType":"address","name":"owner","type":"address"},{"internalType":"string","name":"destination","type":"string"},{"internalType":"uint256","name":"price","type":"uint256"},{"internalType":"uint256","name":"seat","type":"uint256"},{"internalType":"string","name":"class","type":"string"},{"internalType":"bool","name":"roundTrip","type":"bool"},{"internalType":"bool","name":"isAvailable","type":"bool"},{"internalType":"uint256","name":"month","type":"uint256"}],"stateMutability":"view","type":"function"}],"devdoc":{"kind":"dev","methods":{},"version":1},"evm":{"assembly":"    /* \"AirlineManagement.sol\":61:6506  contract AirlineManagement {... */\n  mstore(0x40, 0x80)\n    /* \"AirlineManagement.sol\":1249:2221  constructor(string memory destination, uint256 destinationPrice) {... */\n  callvalue\n  dup1\n  iszero\n  tag_1\n  jumpi\n  revert(0x00, 0x00)\ntag_1:\n  pop\n  mload(0x40)\n  sub(codesize, bytecodeSize)\n  dup1\n  bytecodeSize\n  dup4\n  codecopy\n  dup2\n  dup2\n  add\n  0x40\n  mstore\n  dup2\n  add\n  swap1\n  tag_2\n  swap2\n  swap1\n  tag_3\n  jump\t// in\ntag_2:\n    /* \"AirlineManagement.sol\":1330:1340  msg.sender */\n  caller\n    /* \"AirlineManagement.sol\":1324:1327  ceo */\n  0x00\n  0x00\n    /* \"AirlineManagement.sol\":1324:1340  ceo = msg.sender */\n  0x0100\n  exp\n  dup2\n  sload\n  dup2\n  0xffffffffffffffffffffffffffffffffffffffff\n  mul\n  not\n  and\n  swap1\n  dup4\n  0xffffffffffffffffffffffffffffffffffffffff\n  and\n  mul\n  or\n  swap1\n  sstore\n  pop\n    /* \"AirlineManagement.sol\":1362:1367  false */\n  0x00\n    /* \"AirlineManagement.sol\":1350:1359  canPayout */\n  0x15\n  0x00\n    /* \"AirlineManagement.sol\":1350:1367  canPayout = false */\n  0x0100\n  exp\n  dup2\n  sload\n  dup2\n  0xff\n  mul\n  not\n  and\n  swap1\n  dup4\n  iszero\n  iszero\n  mul\n  or\n  swap1\n  sstore\n  pop\n    /* \"AirlineManagement.sol\":1389:1390  0 */\n  0x00\n    /* \"AirlineManagement.sol\":1377:1386  payAmount */\n  0x16\n    /* \"AirlineManagement.sol\":1377:1390  payAmount = 0 */\n  dup2\n  swap1\n  sstore\n  pop\n    /* \"AirlineManagement.sol\":1408:1409  0 */\n  0x00\n    /* \"AirlineManagement.sol\":1400:1405  count */\n  0x14\n    /* \"AirlineManagement.sol\":1400:1409  count = 0 */\n  dup2\n  swap1\n  sstore\n  pop\n    /* \"AirlineManagement.sol\":1419:1431  destinations */\n  0x01\n    /* \"AirlineManagement.sol\":1437:1448  destination */\n  dup3\n    /* \"AirlineManagement.sol\":1419:1449  destinations.push(destination) */\n  swap1\n  dup1\n  0x01\n  dup2\n  sload\n  add\n  dup1\n  dup3\n  sstore\n  dup1\n  swap2\n  pop\n  pop\n  0x01\n  swap1\n  sub\n  swap1\n  0x00\n  mstore\n  keccak256(0x00, 0x20)\n  add\n  0x00\n  swap1\n  swap2\n  swap1\n  swap2\n  swap1\n  swap2\n  pop\n  swap1\n  dup2\n  tag_7\n  swap2\n  swap1\n  tag_8\n  jump\t// in\ntag_7:\n  pop\n    /* \"AirlineManagement.sol\":1459:1476  destinationPrices */\n  0x02\n    /* \"AirlineManagement.sol\":1482:1498  destinationPrice */\n  dup2\n    /* \"AirlineManagement.sol\":1459:1499  destinationPrices.push(destinationPrice) */\n  swap1\n  dup1\n  0x01\n  dup2\n  sload\n  add\n  dup1\n  dup3\n  sstore\n  dup1\n  swap2\n  pop\n  pop\n  0x01\n  swap1\n  sub\n  swap1\n  0x00\n  mstore\n  keccak256(0x00, 0x20)\n  add\n  0x00\n  swap1\n  swap2\n  swap1\n  swap2\n  swap1\n  swap2\n  pop\n  sstore\n    /* \"AirlineManagement.sol\":1509:1514  seats */\n  0x03\n    /* \"AirlineManagement.sol\":1520:1522  30 */\n  0x1e\n    /* \"AirlineManagement.sol\":1509:1523  seats.push(30) */\n  swap1\n  dup1\n  0x01\n  dup2\n  sload\n  add\n  dup1\n  dup3\n  sstore\n  dup1\n  swap2\n  pop\n  pop\n  0x01\n  swap1\n  sub\n  swap1\n  0x00\n  mstore\n  keccak256(0x00, 0x20)\n  add\n  0x00\n  swap1\n  swap2\n  swap1\n  swap2\n  swap1\n  swap2\n  pop\n  sstore\n    /* \"AirlineManagement.sol\":1556:1561  count */\n  sload(0x14)\n    /* \"AirlineManagement.sol\":1533:1540  indexes */\n  0x04\n    /* \"AirlineManagement.sol\":1541:1552  destination */\n  dup4\n    /* \"AirlineManagement.sol\":1533:1553  indexes[destination] */\n  mload(0x40)\n  tag_11\n  swap2\n  swap1\n  tag_12\n  jump\t// in\ntag_11:\n  swap1\n  dup2\n  mstore\n  0x20\n  add\n  mload(0x40)\n  dup1\n  swap2\n  sub\n  swap1\n  keccak256\n    /* \"AirlineManagement.sol\":1533:1561  indexes[destination] = count */\n  dup2\n  swap1\n  sstore\n  pop\n    /* \"AirlineManagement.sol\":1571:1629  create30Tickets(msg.sender, destination, destinationPrice) */\n  tag_13\n    /* \"AirlineManagement.sol\":1587:1597  msg.sender */\n  caller\n    /* \"AirlineManagement.sol\":1599:1610  destination */\n  dup4\n    /* \"AirlineManagement.sol\":1612:1628  destinationPrice */\n  dup4\n    /* \"AirlineManagement.sol\":1571:1586  create30Tickets */\n  shl(0x20, tag_14)\n    /* \"AirlineManagement.sol\":1571:1629  create30Tickets(msg.sender, destination, destinationPrice) */\n  0x20\n  shr\n  jump\t// in\ntag_13:\n    /* \"AirlineManagement.sol\":1699:1700  3 */\n  0x03\n    /* \"AirlineManagement.sol\":1678:1693  monthMultiplier */\n  0x05\n    /* \"AirlineManagement.sol\":1694:1695  0 */\n  0x00\n    /* \"AirlineManagement.sol\":1678:1696  monthMultiplier[0] */\n  0x0c\n  dup2\n  lt\n  tag_15\n  jumpi\n  tag_16\n  tag_17\n  jump\t// in\ntag_16:\ntag_15:\n  add\n    /* \"AirlineManagement.sol\":1678:1700  monthMultiplier[0] = 3 */\n  dup2\n  swap1\n  sstore\n  pop\n    /* \"AirlineManagement.sol\":1731:1732  2 */\n  0x02\n    /* \"AirlineManagement.sol\":1710:1725  monthMultiplier */\n  0x05\n    /* \"AirlineManagement.sol\":1726:1727  1 */\n  0x01\n    /* \"AirlineManagement.sol\":1710:1728  monthMultiplier[1] */\n  0x0c\n  dup2\n  lt\n  tag_19\n  jumpi\n  tag_20\n  tag_17\n  jump\t// in\ntag_20:\ntag_19:\n  add\n    /* \"AirlineManagement.sol\":1710:1732  monthMultiplier[1] = 2 */\n  dup2\n  swap1\n  sstore\n  pop\n    /* \"AirlineManagement.sol\":1763:1764  4 */\n  0x04\n    /* \"AirlineManagement.sol\":1742:1757  monthMultiplier */\n  0x05\n    /* \"AirlineManagement.sol\":1758:1759  2 */\n  0x02\n    /* \"AirlineManagement.sol\":1742:1760  monthMultiplier[2] */\n  0x0c\n  dup2\n  lt\n  tag_22\n  jumpi\n  tag_23\n  tag_17\n  jump\t// in\ntag_23:\ntag_22:\n  add\n    /* \"AirlineManagement.sol\":1742:1764  monthMultiplier[2] = 4 */\n  dup2\n  swap1\n  sstore\n  pop\n    /* \"AirlineManagement.sol\":1795:1796  5 */\n  0x05\n    /* \"AirlineManagement.sol\":1774:1789  monthMultiplier */\n  dup1\n    /* \"AirlineManagement.sol\":1790:1791  3 */\n  0x03\n    /* \"AirlineManagement.sol\":1774:1792  monthMultiplier[3] */\n  0x0c\n  dup2\n  lt\n  tag_25\n  jumpi\n  tag_26\n  tag_17\n  jump\t// in\ntag_26:\ntag_25:\n  add\n    /* \"AirlineManagement.sol\":1774:1796  monthMultiplier[3] = 5 */\n  dup2\n  swap1\n  sstore\n  pop\n    /* \"AirlineManagement.sol\":1827:1828  3 */\n  0x03\n    /* \"AirlineManagement.sol\":1806:1821  monthMultiplier */\n  0x05\n    /* \"AirlineManagement.sol\":1822:1823  4 */\n  0x04\n    /* \"AirlineManagement.sol\":1806:1824  monthMultiplier[4] */\n  0x0c\n  dup2\n  lt\n  tag_28\n  jumpi\n  tag_29\n  tag_17\n  jump\t// in\ntag_29:\ntag_28:\n  add\n    /* \"AirlineManagement.sol\":1806:1828  monthMultiplier[4] = 3 */\n  dup2\n  swap1\n  sstore\n  pop\n    /* \"AirlineManagement.sol\":1859:1861  12 */\n  0x0c\n    /* \"AirlineManagement.sol\":1838:1853  monthMultiplier */\n  0x05\n    /* \"AirlineManagement.sol\":1854:1855  5 */\n  dup1\n    /* \"AirlineManagement.sol\":1838:1856  monthMultiplier[5] */\n  0x0c\n  dup2\n  lt\n  tag_31\n  jumpi\n  tag_32\n  tag_17\n  jump\t// in\ntag_32:\ntag_31:\n  add\n    /* \"AirlineManagement.sol\":1838:1861  monthMultiplier[5] = 12 */\n  dup2\n  swap1\n  sstore\n  pop\n    /* \"AirlineManagement.sol\":1892:1894  11 */\n  0x0b\n    /* \"AirlineManagement.sol\":1871:1886  monthMultiplier */\n  0x05\n    /* \"AirlineManagement.sol\":1887:1888  6 */\n  0x06\n    /* \"AirlineManagement.sol\":1871:1889  monthMultiplier[6] */\n  0x0c\n  dup2\n  lt\n  tag_34\n  jumpi\n  tag_35\n  tag_17\n  jump\t// in\ntag_35:\ntag_34:\n  add\n    /* \"AirlineManagement.sol\":1871:1894  monthMultiplier[6] = 11 */\n  dup2\n  swap1\n  sstore\n  pop\n    /* \"AirlineManagement.sol\":1925:1927  12 */\n  0x0c\n    /* \"AirlineManagement.sol\":1904:1919  monthMultiplier */\n  0x05\n    /* \"AirlineManagement.sol\":1920:1921  7 */\n  0x07\n    /* \"AirlineManagement.sol\":1904:1922  monthMultiplier[7] */\n  0x0c\n  dup2\n  lt\n  tag_37\n  jumpi\n  tag_38\n  tag_17\n  jump\t// in\ntag_38:\ntag_37:\n  add\n    /* \"AirlineManagement.sol\":1904:1927  monthMultiplier[7] = 12 */\n  dup2\n  swap1\n  sstore\n  pop\n    /* \"AirlineManagement.sol\":1958:1960  15 */\n  0x0f\n    /* \"AirlineManagement.sol\":1937:1952  monthMultiplier */\n  0x05\n    /* \"AirlineManagement.sol\":1953:1954  8 */\n  0x08\n    /* \"AirlineManagement.sol\":1937:1955  monthMultiplier[8] */\n  0x0c\n  dup2\n  lt\n  tag_40\n  jumpi\n  tag_41\n  tag_17\n  jump\t// in\ntag_41:\ntag_40:\n  add\n    /* \"AirlineManagement.sol\":1937:1960  monthMultiplier[8] = 15 */\n  dup2\n  swap1\n  sstore\n  pop\n    /* \"AirlineManagement.sol\":1991:1993  14 */\n  0x0e\n    /* \"AirlineManagement.sol\":1970:1985  monthMultiplier */\n  0x05\n    /* \"AirlineManagement.sol\":1986:1987  9 */\n  0x09\n    /* \"AirlineManagement.sol\":1970:1988  monthMultiplier[9] */\n  0x0c\n  dup2\n  lt\n  tag_43\n  jumpi\n  tag_44\n  tag_17\n  jump\t// in\ntag_44:\ntag_43:\n  add\n    /* \"AirlineManagement.sol\":1970:1993  monthMultiplier[9] = 14 */\n  dup2\n  swap1\n  sstore\n  pop\n    /* \"AirlineManagement.sol\":2025:2027  11 */\n  0x0b\n    /* \"AirlineManagement.sol\":2003:2018  monthMultiplier */\n  0x05\n    /* \"AirlineManagement.sol\":2019:2021  10 */\n  0x0a\n    /* \"AirlineManagement.sol\":2003:2022  monthMultiplier[10] */\n  0x0c\n  dup2\n  lt\n  tag_46\n  jumpi\n  tag_47\n  tag_17\n  jump\t// in\ntag_47:\ntag_46:\n  add\n    /* \"AirlineManagement.sol\":2003:2027  monthMultiplier[10] = 11 */\n  dup2\n  swap1\n  sstore\n  pop\n    /* \"AirlineManagement.sol\":2059:2061  13 */\n  0x0d\n    /* \"AirlineManagement.sol\":2037:2052  monthMultiplier */\n  0x05\n    /* \"AirlineManagement.sol\":2053:2055  11 */\n  0x0b\n    /* \"AirlineManagement.sol\":2037:2056  monthMultiplier[11] */\n  0x0c\n  dup2\n  lt\n  tag_49\n  jumpi\n  tag_50\n  tag_17\n  jump\t// in\ntag_50:\ntag_49:\n  add\n    /* \"AirlineManagement.sol\":2037:2061  monthMultiplier[11] = 13 */\n  dup2\n  swap1\n  sstore\n  pop\n    /* \"AirlineManagement.sol\":2131:2132  1 */\n  0x01\n    /* \"AirlineManagement.sol\":2110:2125  classMultiplier */\n  0x11\n    /* \"AirlineManagement.sol\":2126:2127  0 */\n  0x00\n    /* \"AirlineManagement.sol\":2110:2128  classMultiplier[0] */\n  0x03\n  dup2\n  lt\n  tag_52\n  jumpi\n  tag_53\n  tag_17\n  jump\t// in\ntag_53:\ntag_52:\n  add\n    /* \"AirlineManagement.sol\":2110:2132  classMultiplier[0] = 1 */\n  dup2\n  swap1\n  sstore\n  pop\n    /* \"AirlineManagement.sol\":2163:2164  2 */\n  0x02\n    /* \"AirlineManagement.sol\":2142:2157  classMultiplier */\n  0x11\n    /* \"AirlineManagement.sol\":2158:2159  1 */\n  0x01\n    /* \"AirlineManagement.sol\":2142:2160  classMultiplier[1] */\n  0x03\n  dup2\n  lt\n  tag_55\n  jumpi\n  tag_56\n  tag_17\n  jump\t// in\ntag_56:\ntag_55:\n  add\n    /* \"AirlineManagement.sol\":2142:2164  classMultiplier[1] = 2 */\n  dup2\n  swap1\n  sstore\n  pop\n    /* \"AirlineManagement.sol\":2195:2196  3 */\n  0x03\n    /* \"AirlineManagement.sol\":2174:2189  classMultiplier */\n  0x11\n    /* \"AirlineManagement.sol\":2190:2191  2 */\n  0x02\n    /* \"AirlineManagement.sol\":2174:2192  classMultiplier[2] */\n  0x03\n  dup2\n  lt\n  tag_58\n  jumpi\n  tag_59\n  tag_17\n  jump\t// in\ntag_59:\ntag_58:\n  add\n    /* \"AirlineManagement.sol\":2174:2196  classMultiplier[2] = 3 */\n  dup2\n  swap1\n  sstore\n  pop\n    /* \"AirlineManagement.sol\":2207:2212  count */\n  0x14\n  0x00\n    /* \"AirlineManagement.sol\":2207:2214  count++ */\n  dup2\n  sload\n  dup1\n  swap3\n  swap2\n  swap1\n  tag_61\n  swap1\n  tag_62\n  jump\t// in\ntag_61:\n  swap2\n  swap1\n  pop\n  sstore\n  pop\n    /* \"AirlineManagement.sol\":1249:2221  constructor(string memory destination, uint256 destinationPrice) {... */\n  pop\n  pop\n    /* \"AirlineManagement.sol\":61:6506  contract AirlineManagement {... */\n  jump(tag_63)\n    /* \"AirlineManagement.sol\":2898:3237  function create30Tickets(address owner, string memory destination, uint256 price) public restricted {... */\ntag_14:\n    /* \"AirlineManagement.sol\":1186:1189  ceo */\n  0x00\n  0x00\n  swap1\n  sload\n  swap1\n  0x0100\n  exp\n  swap1\n  div\n  0xffffffffffffffffffffffffffffffffffffffff\n  and\n    /* \"AirlineManagement.sol\":1172:1189  msg.sender == ceo */\n  0xffffffffffffffffffffffffffffffffffffffff\n  and\n    /* \"AirlineManagement.sol\":1172:1182  msg.sender */\n  caller\n    /* \"AirlineManagement.sol\":1172:1189  msg.sender == ceo */\n  0xffffffffffffffffffffffffffffffffffffffff\n  and\n  eq\n    /* \"AirlineManagement.sol\":1164:1190  require(msg.sender == ceo) */\n  tag_65\n  jumpi\n  revert(0x00, 0x00)\ntag_65:\n    /* \"AirlineManagement.sol\":3013:3025  uint256 seat */\n  0x00\n    /* \"AirlineManagement.sol\":3028:3029  0 */\n  0x00\n    /* \"AirlineManagement.sol\":3013:3029  uint256 seat = 0 */\n  swap1\n  pop\n    /* \"AirlineManagement.sol\":3008:3231  for (uint256 seat = 0; seat < 30; seat++) {... */\ntag_67:\n    /* \"AirlineManagement.sol\":3038:3040  30 */\n  0x1e\n    /* \"AirlineManagement.sol\":3031:3035  seat */\n  dup2\n    /* \"AirlineManagement.sol\":3031:3040  seat < 30 */\n  lt\n    /* \"AirlineManagement.sol\":3008:3231  for (uint256 seat = 0; seat < 30; seat++) {... */\n  iszero\n  tag_68\n  jumpi\n    /* \"AirlineManagement.sol\":3064:3079  uint256 tokenId */\n  0x00\n    /* \"AirlineManagement.sol\":3082:3094  nextTicketId */\n  sload(0x18)\n    /* \"AirlineManagement.sol\":3064:3094  uint256 tokenId = nextTicketId */\n  swap1\n  pop\n    /* \"AirlineManagement.sol\":3133:3192  Ticket(owner, destination, price, seat, \"\", false, true, 0) */\n  mload(0x40)\n  dup1\n  0x0100\n  add\n  0x40\n  mstore\n  dup1\n    /* \"AirlineManagement.sol\":3140:3145  owner */\n  dup7\n    /* \"AirlineManagement.sol\":3133:3192  Ticket(owner, destination, price, seat, \"\", false, true, 0) */\n  0xffffffffffffffffffffffffffffffffffffffff\n  and\n  dup2\n  mstore\n  0x20\n  add\n    /* \"AirlineManagement.sol\":3147:3158  destination */\n  dup6\n    /* \"AirlineManagement.sol\":3133:3192  Ticket(owner, destination, price, seat, \"\", false, true, 0) */\n  dup2\n  mstore\n  0x20\n  add\n    /* \"AirlineManagement.sol\":3160:3165  price */\n  dup5\n    /* \"AirlineManagement.sol\":3133:3192  Ticket(owner, destination, price, seat, \"\", false, true, 0) */\n  dup2\n  mstore\n  0x20\n  add\n    /* \"AirlineManagement.sol\":3167:3171  seat */\n  dup4\n    /* \"AirlineManagement.sol\":3133:3192  Ticket(owner, destination, price, seat, \"\", false, true, 0) */\n  dup2\n  mstore\n  0x20\n  add\n  mload(0x40)\n  dup1\n  0x20\n  add\n  0x40\n  mstore\n  dup1\n  0x00\n  dup2\n  mstore\n  pop\n  dup2\n  mstore\n  0x20\n  add\n    /* \"AirlineManagement.sol\":3177:3182  false */\n  0x00\n    /* \"AirlineManagement.sol\":3133:3192  Ticket(owner, destination, price, seat, \"\", false, true, 0) */\n  iszero\n  iszero\n  dup2\n  mstore\n  0x20\n  add\n    /* \"AirlineManagement.sol\":3184:3188  true */\n  0x01\n    /* \"AirlineManagement.sol\":3133:3192  Ticket(owner, destination, price, seat, \"\", false, true, 0) */\n  iszero\n  iszero\n  dup2\n  mstore\n  0x20\n  add\n    /* \"AirlineManagement.sol\":3190:3191  0 */\n  0x00\n    /* \"AirlineManagement.sol\":3133:3192  Ticket(owner, destination, price, seat, \"\", false, true, 0) */\n  dup2\n  mstore\n  pop\n    /* \"AirlineManagement.sol\":3108:3121  ticketDetails */\n  0x17\n    /* \"AirlineManagement.sol\":3108:3130  ticketDetails[tokenId] */\n  0x00\n    /* \"AirlineManagement.sol\":3122:3129  tokenId */\n  dup4\n    /* \"AirlineManagement.sol\":3108:3130  ticketDetails[tokenId] */\n  dup2\n  mstore\n  0x20\n  add\n  swap1\n  dup2\n  mstore\n  0x20\n  add\n  0x00\n  keccak256\n    /* \"AirlineManagement.sol\":3108:3192  ticketDetails[tokenId] = Ticket(owner, destination, price, seat, \"\", false, true, 0) */\n  0x00\n  dup3\n  add\n  mload\n  dup2\n  0x00\n  add\n  exp(0x0100, 0x00)\n  dup2\n  sload\n  dup2\n  0xffffffffffffffffffffffffffffffffffffffff\n  mul\n  not\n  and\n  swap1\n  dup4\n  0xffffffffffffffffffffffffffffffffffffffff\n  and\n  mul\n  or\n  swap1\n  sstore\n  pop\n  0x20\n  dup3\n  add\n  mload\n  dup2\n  0x01\n  add\n  swap1\n  dup2\n  tag_70\n  swap2\n  swap1\n  tag_8\n  jump\t// in\ntag_70:\n  pop\n  0x40\n  dup3\n  add\n  mload\n  dup2\n  0x02\n  add\n  sstore\n  0x60\n  dup3\n  add\n  mload\n  dup2\n  0x03\n  add\n  sstore\n  0x80\n  dup3\n  add\n  mload\n  dup2\n  0x04\n  add\n  swap1\n  dup2\n  tag_71\n  swap2\n  swap1\n  tag_8\n  jump\t// in\ntag_71:\n  pop\n  0xa0\n  dup3\n  add\n  mload\n  dup2\n  0x05\n  add\n  exp(0x0100, 0x00)\n  dup2\n  sload\n  dup2\n  0xff\n  mul\n  not\n  and\n  swap1\n  dup4\n  iszero\n  iszero\n  mul\n  or\n  swap1\n  sstore\n  pop\n  0xc0\n  dup3\n  add\n  mload\n  dup2\n  0x05\n  add\n  exp(0x0100, 0x01)\n  dup2\n  sload\n  dup2\n  0xff\n  mul\n  not\n  and\n  swap1\n  dup4\n  iszero\n  iszero\n  mul\n  or\n  swap1\n  sstore\n  pop\n  0xe0\n  dup3\n  add\n  mload\n  dup2\n  0x06\n  add\n  sstore\n  swap1\n  pop\n  pop\n    /* \"AirlineManagement.sol\":3206:3218  nextTicketId */\n  0x18\n  0x00\n    /* \"AirlineManagement.sol\":3206:3220  nextTicketId++ */\n  dup2\n  sload\n  dup1\n  swap3\n  swap2\n  swap1\n  tag_72\n  swap1\n  tag_62\n  jump\t// in\ntag_72:\n  swap2\n  swap1\n  pop\n  sstore\n  pop\n    /* \"AirlineManagement.sol\":3050:3231  {... */\n  pop\n    /* \"AirlineManagement.sol\":3042:3048  seat++ */\n  dup1\n  dup1\n  0x01\n  add\n  swap2\n  pop\n  pop\n    /* \"AirlineManagement.sol\":3008:3231  for (uint256 seat = 0; seat < 30; seat++) {... */\n  jump(tag_67)\ntag_68:\n  pop\n    /* \"AirlineManagement.sol\":2898:3237  function create30Tickets(address owner, string memory destination, uint256 price) public restricted {... */\n  pop\n  pop\n  pop\n  jump\t// out\n    /* \"#utility.yul\":7:82   */\ntag_73:\n    /* \"#utility.yul\":40:46   */\n  0x00\n    /* \"#utility.yul\":73:75   */\n  0x40\n    /* \"#utility.yul\":67:76   */\n  mload\n    /* \"#utility.yul\":57:76   */\n  swap1\n  pop\n    /* \"#utility.yul\":7:82   */\n  swap1\n  jump\t// out\n    /* \"#utility.yul\":88:205   */\ntag_74:\n    /* \"#utility.yul\":197:198   */\n  0x00\n    /* \"#utility.yul\":194:195   */\n  0x00\n    /* \"#utility.yul\":187:199   */\n  revert\n    /* \"#utility.yul\":211:328   */\ntag_75:\n    /* \"#utility.yul\":320:321   */\n  0x00\n    /* \"#utility.yul\":317:318   */\n  0x00\n    /* \"#utility.yul\":310:322   */\n  revert\n    /* \"#utility.yul\":334:451   */\ntag_76:\n    /* \"#utility.yul\":443:444   */\n  0x00\n    /* \"#utility.yul\":440:441   */\n  0x00\n    /* \"#utility.yul\":433:445   */\n  revert\n    /* \"#utility.yul\":457:574   */\ntag_77:\n    /* \"#utility.yul\":566:567   */\n  0x00\n    /* \"#utility.yul\":563:564   */\n  0x00\n    /* \"#utility.yul\":556:568   */\n  revert\n    /* \"#utility.yul\":580:682   */\ntag_78:\n    /* \"#utility.yul\":621:627   */\n  0x00\n    /* \"#utility.yul\":672:674   */\n  0x1f\n    /* \"#utility.yul\":668:675   */\n  not\n    /* \"#utility.yul\":663:665   */\n  0x1f\n    /* \"#utility.yul\":656:661   */\n  dup4\n    /* \"#utility.yul\":652:666   */\n  add\n    /* \"#utility.yul\":648:676   */\n  and\n    /* \"#utility.yul\":638:676   */\n  swap1\n  pop\n    /* \"#utility.yul\":580:682   */\n  swap2\n  swap1\n  pop\n  jump\t// out\n    /* \"#utility.yul\":688:868   */\ntag_79:\n    /* \"#utility.yul\":736:813   */\n  0x4e487b7100000000000000000000000000000000000000000000000000000000\n    /* \"#utility.yul\":733:734   */\n  0x00\n    /* \"#utility.yul\":726:814   */\n  mstore\n    /* \"#utility.yul\":833:837   */\n  0x41\n    /* \"#utility.yul\":830:831   */\n  0x04\n    /* \"#utility.yul\":823:838   */\n  mstore\n    /* \"#utility.yul\":857:861   */\n  0x24\n    /* \"#utility.yul\":854:855   */\n  0x00\n    /* \"#utility.yul\":847:862   */\n  revert\n    /* \"#utility.yul\":874:1155   */\ntag_80:\n    /* \"#utility.yul\":957:984   */\n  tag_119\n    /* \"#utility.yul\":979:983   */\n  dup3\n    /* \"#utility.yul\":957:984   */\n  tag_78\n  jump\t// in\ntag_119:\n    /* \"#utility.yul\":949:955   */\n  dup2\n    /* \"#utility.yul\":945:985   */\n  add\n    /* \"#utility.yul\":1087:1093   */\n  dup2\n    /* \"#utility.yul\":1075:1085   */\n  dup2\n    /* \"#utility.yul\":1072:1094   */\n  lt\n    /* \"#utility.yul\":1051:1069   */\n  0xffffffffffffffff\n    /* \"#utility.yul\":1039:1049   */\n  dup3\n    /* \"#utility.yul\":1036:1070   */\n  gt\n    /* \"#utility.yul\":1033:1095   */\n  or\n    /* \"#utility.yul\":1030:1118   */\n  iszero\n  tag_120\n  jumpi\n    /* \"#utility.yul\":1098:1116   */\n  tag_121\n  tag_79\n  jump\t// in\ntag_121:\n    /* \"#utility.yul\":1030:1118   */\ntag_120:\n    /* \"#utility.yul\":1138:1148   */\n  dup1\n    /* \"#utility.yul\":1134:1136   */\n  0x40\n    /* \"#utility.yul\":1127:1149   */\n  mstore\n    /* \"#utility.yul\":917:1155   */\n  pop\n    /* \"#utility.yul\":874:1155   */\n  pop\n  pop\n  jump\t// out\n    /* \"#utility.yul\":1161:1290   */\ntag_81:\n    /* \"#utility.yul\":1195:1201   */\n  0x00\n    /* \"#utility.yul\":1222:1242   */\n  tag_123\n  tag_73\n  jump\t// in\ntag_123:\n    /* \"#utility.yul\":1212:1242   */\n  swap1\n  pop\n    /* \"#utility.yul\":1251:1284   */\n  tag_124\n    /* \"#utility.yul\":1279:1283   */\n  dup3\n    /* \"#utility.yul\":1271:1277   */\n  dup3\n    /* \"#utility.yul\":1251:1284   */\n  tag_80\n  jump\t// in\ntag_124:\n    /* \"#utility.yul\":1161:1290   */\n  swap2\n  swap1\n  pop\n  jump\t// out\n    /* \"#utility.yul\":1296:1604   */\ntag_82:\n    /* \"#utility.yul\":1358:1362   */\n  0x00\n    /* \"#utility.yul\":1448:1466   */\n  0xffffffffffffffff\n    /* \"#utility.yul\":1440:1446   */\n  dup3\n    /* \"#utility.yul\":1437:1467   */\n  gt\n    /* \"#utility.yul\":1434:1490   */\n  iszero\n  tag_126\n  jumpi\n    /* \"#utility.yul\":1470:1488   */\n  tag_127\n  tag_79\n  jump\t// in\ntag_127:\n    /* \"#utility.yul\":1434:1490   */\ntag_126:\n    /* \"#utility.yul\":1508:1537   */\n  tag_128\n    /* \"#utility.yul\":1530:1536   */\n  dup3\n    /* \"#utility.yul\":1508:1537   */\n  tag_78\n  jump\t// in\ntag_128:\n    /* \"#utility.yul\":1500:1537   */\n  swap1\n  pop\n    /* \"#utility.yul\":1592:1596   */\n  0x20\n    /* \"#utility.yul\":1586:1590   */\n  dup2\n    /* \"#utility.yul\":1582:1597   */\n  add\n    /* \"#utility.yul\":1574:1597   */\n  swap1\n  pop\n    /* \"#utility.yul\":1296:1604   */\n  swap2\n  swap1\n  pop\n  jump\t// out\n    /* \"#utility.yul\":1610:1749   */\ntag_83:\n    /* \"#utility.yul\":1699:1705   */\n  dup3\n    /* \"#utility.yul\":1694:1697   */\n  dup2\n    /* \"#utility.yul\":1689:1692   */\n  dup4\n    /* \"#utility.yul\":1683:1706   */\n  mcopy\n    /* \"#utility.yul\":1740:1741   */\n  0x00\n    /* \"#utility.yul\":1731:1737   */\n  dup4\n    /* \"#utility.yul\":1726:1729   */\n  dup4\n    /* \"#utility.yul\":1722:1738   */\n  add\n    /* \"#utility.yul\":1715:1742   */\n  mstore\n    /* \"#utility.yul\":1610:1749   */\n  pop\n  pop\n  pop\n  jump\t// out\n    /* \"#utility.yul\":1755:2189   */\ntag_84:\n    /* \"#utility.yul\":1844:1849   */\n  0x00\n    /* \"#utility.yul\":1869:1935   */\n  tag_131\n    /* \"#utility.yul\":1885:1934   */\n  tag_132\n    /* \"#utility.yul\":1927:1933   */\n  dup5\n    /* \"#utility.yul\":1885:1934   */\n  tag_82\n  jump\t// in\ntag_132:\n    /* \"#utility.yul\":1869:1935   */\n  tag_81\n  jump\t// in\ntag_131:\n    /* \"#utility.yul\":1860:1935   */\n  swap1\n  pop\n    /* \"#utility.yul\":1958:1964   */\n  dup3\n    /* \"#utility.yul\":1951:1956   */\n  dup2\n    /* \"#utility.yul\":1944:1965   */\n  mstore\n    /* \"#utility.yul\":1996:2000   */\n  0x20\n    /* \"#utility.yul\":1989:1994   */\n  dup2\n    /* \"#utility.yul\":1985:2001   */\n  add\n    /* \"#utility.yul\":2034:2037   */\n  dup5\n    /* \"#utility.yul\":2025:2031   */\n  dup5\n    /* \"#utility.yul\":2020:2023   */\n  dup5\n    /* \"#utility.yul\":2016:2032   */\n  add\n    /* \"#utility.yul\":2013:2038   */\n  gt\n    /* \"#utility.yul\":2010:2122   */\n  iszero\n  tag_133\n  jumpi\n    /* \"#utility.yul\":2041:2120   */\n  tag_134\n  tag_77\n  jump\t// in\ntag_134:\n    /* \"#utility.yul\":2010:2122   */\ntag_133:\n    /* \"#utility.yul\":2131:2183   */\n  tag_135\n    /* \"#utility.yul\":2176:2182   */\n  dup5\n    /* \"#utility.yul\":2171:2174   */\n  dup3\n    /* \"#utility.yul\":2166:2169   */\n  dup6\n    /* \"#utility.yul\":2131:2183   */\n  tag_83\n  jump\t// in\ntag_135:\n    /* \"#utility.yul\":1850:2189   */\n  pop\n    /* \"#utility.yul\":1755:2189   */\n  swap4\n  swap3\n  pop\n  pop\n  pop\n  jump\t// out\n    /* \"#utility.yul\":2209:2564   */\ntag_85:\n    /* \"#utility.yul\":2276:2281   */\n  0x00\n    /* \"#utility.yul\":2325:2328   */\n  dup3\n    /* \"#utility.yul\":2318:2322   */\n  0x1f\n    /* \"#utility.yul\":2310:2316   */\n  dup4\n    /* \"#utility.yul\":2306:2323   */\n  add\n    /* \"#utility.yul\":2302:2329   */\n  slt\n    /* \"#utility.yul\":2292:2414   */\n  tag_137\n  jumpi\n    /* \"#utility.yul\":2333:2412   */\n  tag_138\n  tag_76\n  jump\t// in\ntag_138:\n    /* \"#utility.yul\":2292:2414   */\ntag_137:\n    /* \"#utility.yul\":2443:2449   */\n  dup2\n    /* \"#utility.yul\":2437:2450   */\n  mload\n    /* \"#utility.yul\":2468:2558   */\n  tag_139\n    /* \"#utility.yul\":2554:2557   */\n  dup5\n    /* \"#utility.yul\":2546:2552   */\n  dup3\n    /* \"#utility.yul\":2539:2543   */\n  0x20\n    /* \"#utility.yul\":2531:2537   */\n  dup7\n    /* \"#utility.yul\":2527:2544   */\n  add\n    /* \"#utility.yul\":2468:2558   */\n  tag_84\n  jump\t// in\ntag_139:\n    /* \"#utility.yul\":2459:2558   */\n  swap2\n  pop\n    /* \"#utility.yul\":2282:2564   */\n  pop\n    /* \"#utility.yul\":2209:2564   */\n  swap3\n  swap2\n  pop\n  pop\n  jump\t// out\n    /* \"#utility.yul\":2570:2647   */\ntag_86:\n    /* \"#utility.yul\":2607:2614   */\n  0x00\n    /* \"#utility.yul\":2636:2641   */\n  dup2\n    /* \"#utility.yul\":2625:2641   */\n  swap1\n  pop\n    /* \"#utility.yul\":2570:2647   */\n  swap2\n  swap1\n  pop\n  jump\t// out\n    /* \"#utility.yul\":2653:2775   */\ntag_87:\n    /* \"#utility.yul\":2726:2750   */\n  tag_142\n    /* \"#utility.yul\":2744:2749   */\n  dup2\n    /* \"#utility.yul\":2726:2750   */\n  tag_86\n  jump\t// in\ntag_142:\n    /* \"#utility.yul\":2719:2724   */\n  dup2\n    /* \"#utility.yul\":2716:2751   */\n  eq\n    /* \"#utility.yul\":2706:2769   */\n  tag_143\n  jumpi\n    /* \"#utility.yul\":2765:2766   */\n  0x00\n    /* \"#utility.yul\":2762:2763   */\n  0x00\n    /* \"#utility.yul\":2755:2767   */\n  revert\n    /* \"#utility.yul\":2706:2769   */\ntag_143:\n    /* \"#utility.yul\":2653:2775   */\n  pop\n  jump\t// out\n    /* \"#utility.yul\":2781:2924   */\ntag_88:\n    /* \"#utility.yul\":2838:2843   */\n  0x00\n    /* \"#utility.yul\":2869:2875   */\n  dup2\n    /* \"#utility.yul\":2863:2876   */\n  mload\n    /* \"#utility.yul\":2854:2876   */\n  swap1\n  pop\n    /* \"#utility.yul\":2885:2918   */\n  tag_145\n    /* \"#utility.yul\":2912:2917   */\n  dup2\n    /* \"#utility.yul\":2885:2918   */\n  tag_87\n  jump\t// in\ntag_145:\n    /* \"#utility.yul\":2781:2924   */\n  swap3\n  swap2\n  pop\n  pop\n  jump\t// out\n    /* \"#utility.yul\":2930:3610   */\ntag_3:\n    /* \"#utility.yul\":3019:3025   */\n  0x00\n    /* \"#utility.yul\":3027:3033   */\n  0x00\n    /* \"#utility.yul\":3076:3078   */\n  0x40\n    /* \"#utility.yul\":3064:3073   */\n  dup4\n    /* \"#utility.yul\":3055:3062   */\n  dup6\n    /* \"#utility.yul\":3051:3074   */\n  sub\n    /* \"#utility.yul\":3047:3079   */\n  slt\n    /* \"#utility.yul\":3044:3163   */\n  iszero\n  tag_147\n  jumpi\n    /* \"#utility.yul\":3082:3161   */\n  tag_148\n  tag_74\n  jump\t// in\ntag_148:\n    /* \"#utility.yul\":3044:3163   */\ntag_147:\n    /* \"#utility.yul\":3223:3224   */\n  0x00\n    /* \"#utility.yul\":3212:3221   */\n  dup4\n    /* \"#utility.yul\":3208:3225   */\n  add\n    /* \"#utility.yul\":3202:3226   */\n  mload\n    /* \"#utility.yul\":3253:3271   */\n  0xffffffffffffffff\n    /* \"#utility.yul\":3245:3251   */\n  dup2\n    /* \"#utility.yul\":3242:3272   */\n  gt\n    /* \"#utility.yul\":3239:3356   */\n  iszero\n  tag_149\n  jumpi\n    /* \"#utility.yul\":3275:3354   */\n  tag_150\n  tag_75\n  jump\t// in\ntag_150:\n    /* \"#utility.yul\":3239:3356   */\ntag_149:\n    /* \"#utility.yul\":3380:3454   */\n  tag_151\n    /* \"#utility.yul\":3446:3453   */\n  dup6\n    /* \"#utility.yul\":3437:3443   */\n  dup3\n    /* \"#utility.yul\":3426:3435   */\n  dup7\n    /* \"#utility.yul\":3422:3444   */\n  add\n    /* \"#utility.yul\":3380:3454   */\n  tag_85\n  jump\t// in\ntag_151:\n    /* \"#utility.yul\":3370:3454   */\n  swap3\n  pop\n    /* \"#utility.yul\":3173:3464   */\n  pop\n    /* \"#utility.yul\":3503:3505   */\n  0x20\n    /* \"#utility.yul\":3529:3593   */\n  tag_152\n    /* \"#utility.yul\":3585:3592   */\n  dup6\n    /* \"#utility.yul\":3576:3582   */\n  dup3\n    /* \"#utility.yul\":3565:3574   */\n  dup7\n    /* \"#utility.yul\":3561:3583   */\n  add\n    /* \"#utility.yul\":3529:3593   */\n  tag_88\n  jump\t// in\ntag_152:\n    /* \"#utility.yul\":3519:3593   */\n  swap2\n  pop\n    /* \"#utility.yul\":3474:3603   */\n  pop\n    /* \"#utility.yul\":2930:3610   */\n  swap3\n  pop\n  swap3\n  swap1\n  pop\n  jump\t// out\n    /* \"#utility.yul\":3616:3715   */\ntag_89:\n    /* \"#utility.yul\":3668:3674   */\n  0x00\n    /* \"#utility.yul\":3702:3707   */\n  dup2\n    /* \"#utility.yul\":3696:3708   */\n  mload\n    /* \"#utility.yul\":3686:3708   */\n  swap1\n  pop\n    /* \"#utility.yul\":3616:3715   */\n  swap2\n  swap1\n  pop\n  jump\t// out\n    /* \"#utility.yul\":3721:3901   */\ntag_90:\n    /* \"#utility.yul\":3769:3846   */\n  0x4e487b7100000000000000000000000000000000000000000000000000000000\n    /* \"#utility.yul\":3766:3767   */\n  0x00\n    /* \"#utility.yul\":3759:3847   */\n  mstore\n    /* \"#utility.yul\":3866:3870   */\n  0x22\n    /* \"#utility.yul\":3863:3864   */\n  0x04\n    /* \"#utility.yul\":3856:3871   */\n  mstore\n    /* \"#utility.yul\":3890:3894   */\n  0x24\n    /* \"#utility.yul\":3887:3888   */\n  0x00\n    /* \"#utility.yul\":3880:3895   */\n  revert\n    /* \"#utility.yul\":3907:4227   */\ntag_91:\n    /* \"#utility.yul\":3951:3957   */\n  0x00\n    /* \"#utility.yul\":3988:3989   */\n  0x02\n    /* \"#utility.yul\":3982:3986   */\n  dup3\n    /* \"#utility.yul\":3978:3990   */\n  div\n    /* \"#utility.yul\":3968:3990   */\n  swap1\n  pop\n    /* \"#utility.yul\":4035:4036   */\n  0x01\n    /* \"#utility.yul\":4029:4033   */\n  dup3\n    /* \"#utility.yul\":4025:4037   */\n  and\n    /* \"#utility.yul\":4056:4074   */\n  dup1\n    /* \"#utility.yul\":4046:4127   */\n  tag_156\n  jumpi\n    /* \"#utility.yul\":4112:4116   */\n  0x7f\n    /* \"#utility.yul\":4104:4110   */\n  dup3\n    /* \"#utility.yul\":4100:4117   */\n  and\n    /* \"#utility.yul\":4090:4117   */\n  swap2\n  pop\n    /* \"#utility.yul\":4046:4127   */\ntag_156:\n    /* \"#utility.yul\":4174:4176   */\n  0x20\n    /* \"#utility.yul\":4166:4172   */\n  dup3\n    /* \"#utility.yul\":4163:4177   */\n  lt\n    /* \"#utility.yul\":4143:4161   */\n  dup2\n    /* \"#utility.yul\":4140:4178   */\n  sub\n    /* \"#utility.yul\":4137:4221   */\n  tag_157\n  jumpi\n    /* \"#utility.yul\":4193:4211   */\n  tag_158\n  tag_90\n  jump\t// in\ntag_158:\n    /* \"#utility.yul\":4137:4221   */\ntag_157:\n    /* \"#utility.yul\":3958:4227   */\n  pop\n    /* \"#utility.yul\":3907:4227   */\n  swap2\n  swap1\n  pop\n  jump\t// out\n    /* \"#utility.yul\":4233:4374   */\ntag_92:\n    /* \"#utility.yul\":4282:4286   */\n  0x00\n    /* \"#utility.yul\":4305:4308   */\n  dup2\n    /* \"#utility.yul\":4297:4308   */\n  swap1\n  pop\n    /* \"#utility.yul\":4328:4331   */\n  dup2\n    /* \"#utility.yul\":4325:4326   */\n  0x00\n    /* \"#utility.yul\":4318:4332   */\n  mstore\n    /* \"#utility.yul\":4362:4366   */\n  0x20\n    /* \"#utility.yul\":4359:4360   */\n  0x00\n    /* \"#utility.yul\":4349:4367   */\n  keccak256\n    /* \"#utility.yul\":4341:4367   */\n  swap1\n  pop\n    /* \"#utility.yul\":4233:4374   */\n  swap2\n  swap1\n  pop\n  jump\t// out\n    /* \"#utility.yul\":4380:4473   */\ntag_93:\n    /* \"#utility.yul\":4417:4423   */\n  0x00\n    /* \"#utility.yul\":4464:4466   */\n  0x20\n    /* \"#utility.yul\":4459:4461   */\n  0x1f\n    /* \"#utility.yul\":4452:4457   */\n  dup4\n    /* \"#utility.yul\":4448:4462   */\n  add\n    /* \"#utility.yul\":4444:4467   */\n  div\n    /* \"#utility.yul\":4434:4467   */\n  swap1\n  pop\n    /* \"#utility.yul\":4380:4473   */\n  swap2\n  swap1\n  pop\n  jump\t// out\n    /* \"#utility.yul\":4479:4586   */\ntag_94:\n    /* \"#utility.yul\":4523:4531   */\n  0x00\n    /* \"#utility.yul\":4573:4578   */\n  dup3\n    /* \"#utility.yul\":4567:4571   */\n  dup3\n    /* \"#utility.yul\":4563:4579   */\n  shl\n    /* \"#utility.yul\":4542:4579   */\n  swap1\n  pop\n    /* \"#utility.yul\":4479:4586   */\n  swap3\n  swap2\n  pop\n  pop\n  jump\t// out\n    /* \"#utility.yul\":4592:4985   */\ntag_95:\n    /* \"#utility.yul\":4661:4667   */\n  0x00\n    /* \"#utility.yul\":4711:4712   */\n  0x08\n    /* \"#utility.yul\":4699:4709   */\n  dup4\n    /* \"#utility.yul\":4695:4713   */\n  mul\n    /* \"#utility.yul\":4734:4831   */\n  tag_163\n    /* \"#utility.yul\":4764:4830   */\n  0xffffffffffffffffffffffffffffffffffffffffffffffffffffffffffffffff\n    /* \"#utility.yul\":4753:4762   */\n  dup3\n    /* \"#utility.yul\":4734:4831   */\n  tag_94\n  jump\t// in\ntag_163:\n    /* \"#utility.yul\":4852:4891   */\n  tag_164\n    /* \"#utility.yul\":4882:4890   */\n  dup7\n    /* \"#utility.yul\":4871:4880   */\n  dup4\n    /* \"#utility.yul\":4852:4891   */\n  tag_94\n  jump\t// in\ntag_164:\n    /* \"#utility.yul\":4840:4891   */\n  swap6\n  pop\n    /* \"#utility.yul\":4924:4928   */\n  dup1\n    /* \"#utility.yul\":4920:4929   */\n  not\n    /* \"#utility.yul\":4913:4918   */\n  dup5\n    /* \"#utility.yul\":4909:4930   */\n  and\n    /* \"#utility.yul\":4900:4930   */\n  swap4\n  pop\n    /* \"#utility.yul\":4973:4977   */\n  dup1\n    /* \"#utility.yul\":4963:4971   */\n  dup7\n    /* \"#utility.yul\":4959:4978   */\n  and\n    /* \"#utility.yul\":4952:4957   */\n  dup5\n    /* \"#utility.yul\":4949:4979   */\n  or\n    /* \"#utility.yul\":4939:4979   */\n  swap3\n  pop\n    /* \"#utility.yul\":4668:4985   */\n  pop\n  pop\n    /* \"#utility.yul\":4592:4985   */\n  swap4\n  swap3\n  pop\n  pop\n  pop\n  jump\t// out\n    /* \"#utility.yul\":4991:5051   */\ntag_96:\n    /* \"#utility.yul\":5019:5022   */\n  0x00\n    /* \"#utility.yul\":5040:5045   */\n  dup2\n    /* \"#utility.yul\":5033:5045   */\n  swap1\n  pop\n    /* \"#utility.yul\":4991:5051   */\n  swap2\n  swap1\n  pop\n  jump\t// out\n    /* \"#utility.yul\":5057:5199   */\ntag_97:\n    /* \"#utility.yul\":5107:5116   */\n  0x00\n    /* \"#utility.yul\":5140:5193   */\n  tag_167\n    /* \"#utility.yul\":5158:5192   */\n  tag_168\n    /* \"#utility.yul\":5167:5191   */\n  tag_169\n    /* \"#utility.yul\":5185:5190   */\n  dup5\n    /* \"#utility.yul\":5167:5191   */\n  tag_86\n  jump\t// in\ntag_169:\n    /* \"#utility.yul\":5158:5192   */\n  tag_96\n  jump\t// in\ntag_168:\n    /* \"#utility.yul\":5140:5193   */\n  tag_86\n  jump\t// in\ntag_167:\n    /* \"#utility.yul\":5127:5193   */\n  swap1\n  pop\n    /* \"#utility.yul\":5057:5199   */\n  swap2\n  swap1\n  pop\n  jump\t// out\n    /* \"#utility.yul\":5205:5280   */\ntag_98:\n    /* \"#utility.yul\":5248:5251   */\n  0x00\n    /* \"#utility.yul\":5269:5274   */\n  dup2\n    /* \"#utility.yul\":5262:5274   */\n  swap1\n  pop\n    /* \"#utility.yul\":5205:5280   */\n  swap2\n  swap1\n  pop\n  jump\t// out\n    /* \"#utility.yul\":5286:5555   */\ntag_99:\n    /* \"#utility.yul\":5396:5435   */\n  tag_172\n    /* \"#utility.yul\":5427:5434   */\n  dup4\n    /* \"#utility.yul\":5396:5435   */\n  tag_97\n  jump\t// in\ntag_172:\n    /* \"#utility.yul\":5457:5548   */\n  tag_173\n    /* \"#utility.yul\":5506:5547   */\n  tag_174\n    /* \"#utility.yul\":5530:5546   */\n  dup3\n    /* \"#utility.yul\":5506:5547   */\n  tag_98\n  jump\t// in\ntag_174:\n    /* \"#utility.yul\":5498:5504   */\n  dup5\n    /* \"#utility.yul\":5491:5495   */\n  dup5\n    /* \"#utility.yul\":5485:5496   */\n  sload\n    /* \"#utility.yul\":5457:5548   */\n  tag_95\n  jump\t// in\ntag_173:\n    /* \"#utility.yul\":5451:5455   */\n  dup3\n    /* \"#utility.yul\":5444:5549   */\n  sstore\n    /* \"#utility.yul\":5362:5555   */\n  pop\n    /* \"#utility.yul\":5286:5555   */\n  pop\n  pop\n  pop\n  jump\t// out\n    /* \"#utility.yul\":5561:5634   */\ntag_100:\n    /* \"#utility.yul\":5606:5609   */\n  0x00\n    /* \"#utility.yul\":5627:5628   */\n  0x00\n    /* \"#utility.yul\":5620:5628   */\n  swap1\n  pop\n    /* \"#utility.yul\":5561:5634   */\n  swap1\n  jump\t// out\n    /* \"#utility.yul\":5640:5829   */\ntag_101:\n    /* \"#utility.yul\":5717:5749   */\n  tag_177\n  tag_100\n  jump\t// in\ntag_177:\n    /* \"#utility.yul\":5758:5823   */\n  tag_178\n    /* \"#utility.yul\":5816:5822   */\n  dup2\n    /* \"#utility.yul\":5808:5814   */\n  dup5\n    /* \"#utility.yul\":5802:5806   */\n  dup5\n    /* \"#utility.yul\":5758:5823   */\n  tag_99\n  jump\t// in\ntag_178:\n    /* \"#utility.yul\":5693:5829   */\n  pop\n    /* \"#utility.yul\":5640:5829   */\n  pop\n  pop\n  jump\t// out\n    /* \"#utility.yul\":5835:6021   */\ntag_102:\n    /* \"#utility.yul\":5895:6015   */\ntag_180:\n    /* \"#utility.yul\":5912:5915   */\n  dup2\n    /* \"#utility.yul\":5905:5910   */\n  dup2\n    /* \"#utility.yul\":5902:5916   */\n  lt\n    /* \"#utility.yul\":5895:6015   */\n  iszero\n  tag_182\n  jumpi\n    /* \"#utility.yul\":5966:6005   */\n  tag_183\n    /* \"#utility.yul\":6003:6004   */\n  0x00\n    /* \"#utility.yul\":5996:6001   */\n  dup3\n    /* \"#utility.yul\":5966:6005   */\n  tag_101\n  jump\t// in\ntag_183:\n    /* \"#utility.yul\":5939:5940   */\n  0x01\n    /* \"#utility.yul\":5932:5937   */\n  dup2\n    /* \"#utility.yul\":5928:5941   */\n  add\n    /* \"#utility.yul\":5919:5941   */\n  swap1\n  pop\n    /* \"#utility.yul\":5895:6015   */\n  jump(tag_180)\ntag_182:\n    /* \"#utility.yul\":5835:6021   */\n  pop\n  pop\n  jump\t// out\n    /* \"#utility.yul\":6027:6570   */\ntag_103:\n    /* \"#utility.yul\":6128:6130   */\n  0x1f\n    /* \"#utility.yul\":6123:6126   */\n  dup3\n    /* \"#utility.yul\":6120:6131   */\n  gt\n    /* \"#utility.yul\":6117:6563   */\n  iszero\n  tag_185\n  jumpi\n    /* \"#utility.yul\":6162:6200   */\n  tag_186\n    /* \"#utility.yul\":6194:6199   */\n  dup2\n    /* \"#utility.yul\":6162:6200   */\n  tag_92\n  jump\t// in\ntag_186:\n    /* \"#utility.yul\":6246:6275   */\n  tag_187\n    /* \"#utility.yul\":6264:6274   */\n  dup5\n    /* \"#utility.yul\":6246:6275   */\n  tag_93\n  jump\t// in\ntag_187:\n    /* \"#utility.yul\":6236:6244   */\n  dup2\n    /* \"#utility.yul\":6232:6276   */\n  add\n    /* \"#utility.yul\":6429:6431   */\n  0x20\n    /* \"#utility.yul\":6417:6427   */\n  dup6\n    /* \"#utility.yul\":6414:6432   */\n  lt\n    /* \"#utility.yul\":6411:6460   */\n  iszero\n  tag_188\n  jumpi\n    /* \"#utility.yul\":6450:6458   */\n  dup2\n    /* \"#utility.yul\":6435:6458   */\n  swap1\n  pop\n    /* \"#utility.yul\":6411:6460   */\ntag_188:\n    /* \"#utility.yul\":6473:6553   */\n  tag_189\n    /* \"#utility.yul\":6529:6551   */\n  tag_190\n    /* \"#utility.yul\":6547:6550   */\n  dup6\n    /* \"#utility.yul\":6529:6551   */\n  tag_93\n  jump\t// in\ntag_190:\n    /* \"#utility.yul\":6519:6527   */\n  dup4\n    /* \"#utility.yul\":6515:6552   */\n  add\n    /* \"#utility.yul\":6502:6513   */\n  dup3\n    /* \"#utility.yul\":6473:6553   */\n  tag_102\n  jump\t// in\ntag_189:\n    /* \"#utility.yul\":6132:6563   */\n  pop\n  pop\n    /* \"#utility.yul\":6117:6563   */\ntag_185:\n    /* \"#utility.yul\":6027:6570   */\n  pop\n  pop\n  pop\n  jump\t// out\n    /* \"#utility.yul\":6576:6693   */\ntag_104:\n    /* \"#utility.yul\":6630:6638   */\n  0x00\n    /* \"#utility.yul\":6680:6685   */\n  dup3\n    /* \"#utility.yul\":6674:6678   */\n  dup3\n    /* \"#utility.yul\":6670:6686   */\n  shr\n    /* \"#utility.yul\":6649:6686   */\n  swap1\n  pop\n    /* \"#utility.yul\":6576:6693   */\n  swap3\n  swap2\n  pop\n  pop\n  jump\t// out\n    /* \"#utility.yul\":6699:6868   */\ntag_105:\n    /* \"#utility.yul\":6743:6749   */\n  0x00\n    /* \"#utility.yul\":6776:6827   */\n  tag_193\n    /* \"#utility.yul\":6824:6825   */\n  0x00\n    /* \"#utility.yul\":6820:6826   */\n  not\n    /* \"#utility.yul\":6812:6817   */\n  dup5\n    /* \"#utility.yul\":6809:6810   */\n  0x08\n    /* \"#utility.yul\":6805:6818   */\n  mul\n    /* \"#utility.yul\":6776:6827   */\n  tag_104\n  jump\t// in\ntag_193:\n    /* \"#utility.yul\":6772:6828   */\n  not\n    /* \"#utility.yul\":6857:6861   */\n  dup1\n    /* \"#utility.yul\":6851:6855   */\n  dup4\n    /* \"#utility.yul\":6847:6862   */\n  and\n    /* \"#utility.yul\":6837:6862   */\n  swap2\n  pop\n    /* \"#utility.yul\":6750:6868   */\n  pop\n    /* \"#utility.yul\":6699:6868   */\n  swap3\n  swap2\n  pop\n  pop\n  jump\t// out\n    /* \"#utility.yul\":6873:7168   */\ntag_106:\n    /* \"#utility.yul\":6949:6953   */\n  0x00\n    /* \"#utility.yul\":7095:7124   */\n  tag_195\n    /* \"#utility.yul\":7120:7123   */\n  dup4\n    /* \"#utility.yul\":7114:7118   */\n  dup4\n    /* \"#utility.yul\":7095:7124   */\n  tag_105\n  jump\t// in\ntag_195:\n    /* \"#utility.yul\":7087:7124   */\n  swap2\n  pop\n    /* \"#utility.yul\":7157:7160   */\n  dup3\n    /* \"#utility.yul\":7154:7155   */\n  0x02\n    /* \"#utility.yul\":7150:7161   */\n  mul\n    /* \"#utility.yul\":7144:7148   */\n  dup3\n    /* \"#utility.yul\":7141:7162   */\n  or\n    /* \"#utility.yul\":7133:7162   */\n  swap1\n  pop\n    /* \"#utility.yul\":6873:7168   */\n  swap3\n  swap2\n  pop\n  pop\n  jump\t// out\n    /* \"#utility.yul\":7173:8568   */\ntag_8:\n    /* \"#utility.yul\":7290:7327   */\n  tag_197\n    /* \"#utility.yul\":7323:7326   */\n  dup3\n    /* \"#utility.yul\":7290:7327   */\n  tag_89\n  jump\t// in\ntag_197:\n    /* \"#utility.yul\":7392:7410   */\n  0xffffffffffffffff\n    /* \"#utility.yul\":7384:7390   */\n  dup2\n    /* \"#utility.yul\":7381:7411   */\n  gt\n    /* \"#utility.yul\":7378:7434   */\n  iszero\n  tag_198\n  jumpi\n    /* \"#utility.yul\":7414:7432   */\n  tag_199\n  tag_79\n  jump\t// in\ntag_199:\n    /* \"#utility.yul\":7378:7434   */\ntag_198:\n    /* \"#utility.yul\":7458:7496   */\n  tag_200\n    /* \"#utility.yul\":7490:7494   */\n  dup3\n    /* \"#utility.yul\":7484:7495   */\n  sload\n    /* \"#utility.yul\":7458:7496   */\n  tag_91\n  jump\t// in\ntag_200:\n    /* \"#utility.yul\":7543:7610   */\n  tag_201\n    /* \"#utility.yul\":7603:7609   */\n  dup3\n    /* \"#utility.yul\":7595:7601   */\n  dup3\n    /* \"#utility.yul\":7589:7593   */\n  dup6\n    /* \"#utility.yul\":7543:7610   */\n  tag_103\n  jump\t// in\ntag_201:\n    /* \"#utility.yul\":7637:7638   */\n  0x00\n    /* \"#utility.yul\":7661:7665   */\n  0x20\n    /* \"#utility.yul\":7648:7665   */\n  swap1\n  pop\n    /* \"#utility.yul\":7693:7695   */\n  0x1f\n    /* \"#utility.yul\":7685:7691   */\n  dup4\n    /* \"#utility.yul\":7682:7696   */\n  gt\n    /* \"#utility.yul\":7710:7711   */\n  0x01\n    /* \"#utility.yul\":7705:8323   */\n  dup2\n  eq\n  tag_203\n  jumpi\n    /* \"#utility.yul\":8367:8368   */\n  0x00\n    /* \"#utility.yul\":8384:8390   */\n  dup5\n    /* \"#utility.yul\":8381:8458   */\n  iszero\n  tag_204\n  jumpi\n    /* \"#utility.yul\":8433:8442   */\n  dup3\n    /* \"#utility.yul\":8428:8431   */\n  dup8\n    /* \"#utility.yul\":8424:8443   */\n  add\n    /* \"#utility.yul\":8418:8444   */\n  mload\n    /* \"#utility.yul\":8409:8444   */\n  swap1\n  pop\n    /* \"#utility.yul\":8381:8458   */\ntag_204:\n    /* \"#utility.yul\":8484:8551   */\n  tag_205\n    /* \"#utility.yul\":8544:8550   */\n  dup6\n    /* \"#utility.yul\":8537:8542   */\n  dup3\n    /* \"#utility.yul\":8484:8551   */\n  tag_106\n  jump\t// in\ntag_205:\n    /* \"#utility.yul\":8478:8482   */\n  dup7\n    /* \"#utility.yul\":8471:8552   */\n  sstore\n    /* \"#utility.yul\":8340:8562   */\n  pop\n    /* \"#utility.yul\":7675:8562   */\n  jump(tag_202)\n    /* \"#utility.yul\":7705:8323   */\ntag_203:\n    /* \"#utility.yul\":7757:7761   */\n  0x1f\n    /* \"#utility.yul\":7753:7762   */\n  not\n    /* \"#utility.yul\":7745:7751   */\n  dup5\n    /* \"#utility.yul\":7741:7763   */\n  and\n    /* \"#utility.yul\":7791:7828   */\n  tag_206\n    /* \"#utility.yul\":7823:7827   */\n  dup7\n    /* \"#utility.yul\":7791:7828   */\n  tag_92\n  jump\t// in\ntag_206:\n    /* \"#utility.yul\":7850:7851   */\n  0x00\n    /* \"#utility.yul\":7864:8072   */\ntag_207:\n    /* \"#utility.yul\":7878:7885   */\n  dup3\n    /* \"#utility.yul\":7875:7876   */\n  dup2\n    /* \"#utility.yul\":7872:7886   */\n  lt\n    /* \"#utility.yul\":7864:8072   */\n  iszero\n  tag_209\n  jumpi\n    /* \"#utility.yul\":7957:7966   */\n  dup5\n    /* \"#utility.yul\":7952:7955   */\n  dup10\n    /* \"#utility.yul\":7948:7967   */\n  add\n    /* \"#utility.yul\":7942:7968   */\n  mload\n    /* \"#utility.yul\":7934:7940   */\n  dup3\n    /* \"#utility.yul\":7927:7969   */\n  sstore\n    /* \"#utility.yul\":8008:8009   */\n  0x01\n    /* \"#utility.yul\":8000:8006   */\n  dup3\n    /* \"#utility.yul\":7996:8010   */\n  add\n    /* \"#utility.yul\":7986:8010   */\n  swap2\n  pop\n    /* \"#utility.yul\":8055:8057   */\n  0x20\n    /* \"#utility.yul\":8044:8053   */\n  dup6\n    /* \"#utility.yul\":8040:8058   */\n  add\n    /* \"#utility.yul\":8027:8058   */\n  swap5\n  pop\n    /* \"#utility.yul\":7901:7905   */\n  0x20\n    /* \"#utility.yul\":7898:7899   */\n  dup2\n    /* \"#utility.yul\":7894:7906   */\n  add\n    /* \"#utility.yul\":7889:7906   */\n  swap1\n  pop\n    /* \"#utility.yul\":7864:8072   */\n  jump(tag_207)\ntag_209:\n    /* \"#utility.yul\":8100:8106   */\n  dup7\n    /* \"#utility.yul\":8091:8098   */\n  dup4\n    /* \"#utility.yul\":8088:8107   */\n  lt\n    /* \"#utility.yul\":8085:8264   */\n  iszero\n  tag_210\n  jumpi\n    /* \"#utility.yul\":8158:8167   */\n  dup5\n    /* \"#utility.yul\":8153:8156   */\n  dup10\n    /* \"#utility.yul\":8149:8168   */\n  add\n    /* \"#utility.yul\":8143:8169   */\n  mload\n    /* \"#utility.yul\":8201:8249   */\n  tag_211\n    /* \"#utility.yul\":8243:8247   */\n  0x1f\n    /* \"#utility.yul\":8235:8241   */\n  dup10\n    /* \"#utility.yul\":8231:8248   */\n  and\n    /* \"#utility.yul\":8220:8229   */\n  dup3\n    /* \"#utility.yul\":8201:8249   */\n  tag_105\n  jump\t// in\ntag_211:\n    /* \"#utility.yul\":8193:8199   */\n  dup4\n    /* \"#utility.yul\":8186:8250   */\n  sstore\n    /* \"#utility.yul\":8108:8264   */\n  pop\n    /* \"#utility.yul\":8085:8264   */\ntag_210:\n    /* \"#utility.yul\":8310:8311   */\n  0x01\n    /* \"#utility.yul\":8306:8307   */\n  0x02\n    /* \"#utility.yul\":8298:8304   */\n  dup9\n    /* \"#utility.yul\":8294:8308   */\n  mul\n    /* \"#utility.yul\":8290:8312   */\n  add\n    /* \"#utility.yul\":8284:8288   */\n  dup9\n    /* \"#utility.yul\":8277:8313   */\n  sstore\n    /* \"#utility.yul\":7712:8323   */\n  pop\n  pop\n  pop\n    /* \"#utility.yul\":7675:8562   */\ntag_202:\n  pop\n    /* \"#utility.yul\":7265:8568   */\n  pop\n  pop\n  pop\n    /* \"#utility.yul\":7173:8568   */\n  pop\n  pop\n  jump\t// out\n    /* \"#utility.yul\":8574:8722   */\ntag_107:\n    /* \"#utility.yul\":8676:8687   */\n  0x00\n    /* \"#utility.yul\":8713:8716   */\n  dup2\n    /* \"#utility.yul\":8698:8716   */\n  swap1\n  pop\n    /* \"#utility.yul\":8574:8722   */\n  swap3\n  swap2\n  pop\n  pop\n  jump\t// out\n    /* \"#utility.yul\":8728:9118   */\ntag_108:\n    /* \"#utility.yul\":8834:8837   */\n  0x00\n    /* \"#utility.yul\":8862:8901   */\n  tag_214\n    /* \"#utility.yul\":8895:8900   */\n  dup3\n    /* \"#utility.yul\":8862:8901   */\n  tag_89\n  jump\t// in\ntag_214:\n    /* \"#utility.yul\":8917:9006   */\n  tag_215\n    /* \"#utility.yul\":8999:9005   */\n  dup2\n    /* \"#utility.yul\":8994:8997   */\n  dup6\n    /* \"#utility.yul\":8917:9006   */\n  tag_107\n  jump\t// in\ntag_215:\n    /* \"#utility.yul\":8910:9006   */\n  swap4\n  pop\n    /* \"#utility.yul\":9015:9080   */\n  tag_216\n    /* \"#utility.yul\":9073:9079   */\n  dup2\n    /* \"#utility.yul\":9068:9071   */\n  dup6\n    /* \"#utility.yul\":9061:9065   */\n  0x20\n    /* \"#utility.yul\":9054:9059   */\n  dup7\n    /* \"#utility.yul\":9050:9066   */\n  add\n    /* \"#utility.yul\":9015:9080   */\n  tag_83\n  jump\t// in\ntag_216:\n    /* \"#utility.yul\":9105:9111   */\n  dup1\n    /* \"#utility.yul\":9100:9103   */\n  dup5\n    /* \"#utility.yul\":9096:9112   */\n  add\n    /* \"#utility.yul\":9089:9112   */\n  swap2\n  pop\n    /* \"#utility.yul\":8838:9118   */\n  pop\n    /* \"#utility.yul\":8728:9118   */\n  swap3\n  swap2\n  pop\n  pop\n  jump\t// out\n    /* \"#utility.yul\":9124:9399   */\ntag_12:\n    /* \"#utility.yul\":9256:9259   */\n  0x00\n    /* \"#utility.yul\":9278:9373   */\n  tag_218\n    /* \"#utility.yul\":9369:9372   */\n  dup3\n    /* \"#utility.yul\":9360:9366   */\n  dup5\n    /* \"#utility.yul\":9278:9373   */\n  tag_108\n  jump\t// in\ntag_218:\n    /* \"#utility.yul\":9271:9373   */\n  swap2\n  pop\n    /* \"#utility.yul\":9390:9393   */\n  dup2\n    /* \"#utility.yul\":9383:9393   */\n  swap1\n  pop\n    /* \"#utility.yul\":9124:9399   */\n  swap3\n  swap2\n  pop\n  pop\n  jump\t// out\n    /* \"#utility.yul\":9405:9585   */\ntag_17:\n    /* \"#utility.yul\":9453:9530   */\n  0x4e487b7100000000000000000000000000000000000000000000000000000000\n    /* \"#utility.yul\":9450:9451   */\n  0x00\n    /* \"#utility.yul\":9443:9531   */\n  mstore\n    /* \"#utility.yul\":9550:9554   */\n  0x32\n    /* \"#utility.yul\":9547:9548   */\n  0x04\n    /* \"#utility.yul\":9540:9555   */\n  mstore\n    /* \"#utility.yul\":9574:9578   */\n  0x24\n    /* \"#utility.yul\":9571:9572   */\n  0x00\n    /* \"#utility.yul\":9564:9579   */\n  revert\n    /* \"#utility.yul\":9591:9771   */\ntag_109:\n    /* \"#utility.yul\":9639:9716   */\n  0x4e487b7100000000000000000000000000000000000000000000000000000000\n    /* \"#utility.yul\":9636:9637   */\n  0x00\n    /* \"#utility.yul\":9629:9717   */\n  mstore\n    /* \"#utility.yul\":9736:9740   */\n  0x11\n    /* \"#utility.yul\":9733:9734   */\n  0x04\n    /* \"#utility.yul\":9726:9741   */\n  mstore\n    /* \"#utility.yul\":9760:9764   */\n  0x24\n    /* \"#utility.yul\":9757:9758   */\n  0x00\n    /* \"#utility.yul\":9750:9765   */\n  revert\n    /* \"#utility.yul\":9777:10010   */\ntag_62:\n    /* \"#utility.yul\":9816:9819   */\n  0x00\n    /* \"#utility.yul\":9839:9863   */\n  tag_222\n    /* \"#utility.yul\":9857:9862   */\n  dup3\n    /* \"#utility.yul\":9839:9863   */\n  tag_86\n  jump\t// in\ntag_222:\n    /* \"#utility.yul\":9830:9863   */\n  swap2\n  pop\n    /* \"#utility.yul\":9885:9951   */\n  0xffffffffffffffffffffffffffffffffffffffffffffffffffffffffffffffff\n    /* \"#utility.yul\":9878:9883   */\n  dup3\n    /* \"#utility.yul\":9875:9952   */\n  sub\n    /* \"#utility.yul\":9872:9975   */\n  tag_223\n  jumpi\n    /* \"#utility.yul\":9955:9973   */\n  tag_224\n  tag_109\n  jump\t// in\ntag_224:\n    /* \"#utility.yul\":9872:9975   */\ntag_223:\n    /* \"#utility.yul\":10002:10003   */\n  0x01\n    /* \"#utility.yul\":9995:10000   */\n  dup3\n    /* \"#utility.yul\":9991:10004   */\n  add\n    /* \"#utility.yul\":9984:10004   */\n  swap1\n  pop\n    /* \"#utility.yul\":9777:10010   */\n  swap2\n  swap1\n  pop\n  jump\t// out\n    /* \"AirlineManagement.sol\":61:6506  contract AirlineManagement {... */\ntag_63:\n  dataSize(sub_0)\n  dup1\n  dataOffset(sub_0)\n  0x00\n  codecopy\n  0x00\n  return\nstop\n\nsub_0: assembly {\n        /* \"AirlineManagement.sol\":61:6506  contract AirlineManagement {... */\n      mstore(0x40, 0x80)\n      jumpi(tag_1, lt(calldatasize, 0x04))\n      shr(0xe0, calldataload(0x00))\n      dup1\n      0x6031a52f\n      gt\n      tag_21\n      jumpi\n      dup1\n      0xad03fe70\n      gt\n      tag_22\n      jumpi\n      dup1\n      0xad03fe70\n      eq\n      tag_16\n      jumpi\n      dup1\n      0xc8705544\n      eq\n      tag_17\n      jumpi\n      dup1\n      0xcb2cc82a\n      eq\n      tag_18\n      jumpi\n      dup1\n      0xea6e358e\n      eq\n      tag_19\n      jumpi\n      dup1\n      0xff203bc0\n      eq\n      tag_20\n      jumpi\n      jump(tag_1)\n    tag_22:\n      dup1\n      0x6031a52f\n      eq\n      tag_11\n      jumpi\n      dup1\n      0x695dc67e\n      eq\n      tag_12\n      jumpi\n      dup1\n      0x8dd4ba2e\n      eq\n      tag_13\n      jumpi\n      dup1\n      0x908921fc\n      eq\n      tag_14\n      jumpi\n      dup1\n      0xaafc8d74\n      eq\n      tag_15\n      jumpi\n      jump(tag_1)\n    tag_21:\n      dup1\n      0x195c1445\n      gt\n      tag_23\n      jumpi\n      dup1\n      0x195c1445\n      eq\n      tag_6\n      jumpi\n      dup1\n      0x2427e59e\n      eq\n      tag_7\n      jumpi\n      dup1\n      0x3b33c702\n      eq\n      tag_8\n      jumpi\n      dup1\n      0x4afe9f7b\n      eq\n      tag_9\n      jumpi\n      dup1\n      0x5e583e37\n      eq\n      tag_10\n      jumpi\n      jump(tag_1)\n    tag_23:\n      dup1\n      0x033fab35\n      eq\n      tag_2\n      jumpi\n      dup1\n      0x06661abd\n      eq\n      tag_3\n      jumpi\n      dup1\n      0x07819bd6\n      eq\n      tag_4\n      jumpi\n      dup1\n      0x1165e6ab\n      eq\n      tag_5\n      jumpi\n    tag_1:\n      revert(0x00, 0x00)\n        /* \"AirlineManagement.sol\":1045:1092  mapping(uint256 => Ticket) public ticketDetails */\n    tag_2:\n      callvalue\n      dup1\n      iszero\n      tag_24\n      jumpi\n      revert(0x00, 0x00)\n    tag_24:\n      pop\n      tag_25\n      0x04\n      dup1\n      calldatasize\n      sub\n      dup2\n      add\n      swap1\n      tag_26\n      swap2\n      swap1\n      tag_27\n      jump\t// in\n    tag_26:\n      tag_28\n      jump\t// in\n    tag_25:\n      mload(0x40)\n      tag_29\n      swap9\n      swap8\n      swap7\n      swap6\n      swap5\n      swap4\n      swap3\n      swap2\n      swap1\n      tag_30\n      jump\t// in\n    tag_29:\n      mload(0x40)\n      dup1\n      swap2\n      sub\n      swap1\n      return\n        /* \"AirlineManagement.sol\":818:835  uint public count */\n    tag_3:\n      callvalue\n      dup1\n      iszero\n      tag_31\n      jumpi\n      revert(0x00, 0x00)\n    tag_31:\n      pop\n      tag_32\n      tag_33\n      jump\t// in\n    tag_32:\n      mload(0x40)\n      tag_34\n      swap2\n      swap1\n      tag_35\n      jump\t// in\n    tag_34:\n      mload(0x40)\n      dup1\n      swap2\n      sub\n      swap1\n      return\n        /* \"AirlineManagement.sol\":3243:3857  function getPrice (string memory destination, uint month, uint class, bool way) public view returns(uint) {... */\n    tag_4:\n      callvalue\n      dup1\n      iszero\n      tag_36\n      jumpi\n      revert(0x00, 0x00)\n    tag_36:\n      pop\n      tag_37\n      0x04\n      dup1\n      calldatasize\n      sub\n      dup2\n      add\n      swap1\n      tag_38\n      swap2\n      swap1\n      tag_39\n      jump\t// in\n    tag_38:\n      tag_40\n      jump\t// in\n    tag_37:\n      mload(0x40)\n      tag_41\n      swap2\n      swap1\n      tag_35\n      jump\t// in\n    tag_41:\n      mload(0x40)\n      dup1\n      swap2\n      sub\n      swap1\n      return\n        /* \"AirlineManagement.sol\":5284:5421  function isCeo(address user) public view returns(bool) {... */\n    tag_5:\n      callvalue\n      dup1\n      iszero\n      tag_42\n      jumpi\n      revert(0x00, 0x00)\n    tag_42:\n      pop\n      tag_43\n      0x04\n      dup1\n      calldatasize\n      sub\n      dup2\n      add\n      swap1\n      tag_44\n      swap2\n      swap1\n      tag_45\n      jump\t// in\n    tag_44:\n      tag_46\n      jump\t// in\n    tag_43:\n      mload(0x40)\n      tag_47\n      swap2\n      swap1\n      tag_48\n      jump\t// in\n    tag_47:\n      mload(0x40)\n      dup1\n      swap2\n      sub\n      swap1\n      return\n        /* \"AirlineManagement.sol\":431:462  uint[] public destinationPrices */\n    tag_6:\n      callvalue\n      dup1\n      iszero\n      tag_49\n      jumpi\n      revert(0x00, 0x00)\n    tag_49:\n      pop\n      tag_50\n      0x04\n      dup1\n      calldatasize\n      sub\n      dup2\n      add\n      swap1\n      tag_51\n      swap2\n      swap1\n      tag_27\n      jump\t// in\n    tag_51:\n      tag_52\n      jump\t// in\n    tag_50:\n      mload(0x40)\n      tag_53\n      swap2\n      swap1\n      tag_35\n      jump\t// in\n    tag_53:\n      mload(0x40)\n      dup1\n      swap2\n      sub\n      swap1\n      return\n        /* \"AirlineManagement.sol\":575:613  mapping(string => uint) public indexes */\n    tag_7:\n      callvalue\n      dup1\n      iszero\n      tag_54\n      jumpi\n      revert(0x00, 0x00)\n    tag_54:\n      pop\n      tag_55\n      0x04\n      dup1\n      calldatasize\n      sub\n      dup2\n      add\n      swap1\n      tag_56\n      swap2\n      swap1\n      tag_57\n      jump\t// in\n    tag_56:\n      tag_58\n      jump\t// in\n    tag_55:\n      mload(0x40)\n      tag_59\n      swap2\n      swap1\n      tag_35\n      jump\t// in\n    tag_59:\n      mload(0x40)\n      dup1\n      swap2\n      sub\n      swap1\n      return\n        /* \"AirlineManagement.sol\":511:530  uint[] public seats */\n    tag_8:\n      callvalue\n      dup1\n      iszero\n      tag_60\n      jumpi\n      revert(0x00, 0x00)\n    tag_60:\n      pop\n      tag_61\n      0x04\n      dup1\n      calldatasize\n      sub\n      dup2\n      add\n      swap1\n      tag_62\n      swap2\n      swap1\n      tag_27\n      jump\t// in\n    tag_62:\n      tag_63\n      jump\t// in\n    tag_61:\n      mload(0x40)\n      tag_64\n      swap2\n      swap1\n      tag_35\n      jump\t// in\n    tag_64:\n      mload(0x40)\n      dup1\n      swap2\n      sub\n      swap1\n      return\n        /* \"AirlineManagement.sol\":2898:3237  function create30Tickets(address owner, string memory destination, uint256 price) public restricted {... */\n    tag_9:\n      callvalue\n      dup1\n      iszero\n      tag_65\n      jumpi\n      revert(0x00, 0x00)\n    tag_65:\n      pop\n      tag_66\n      0x04\n      dup1\n      calldatasize\n      sub\n      dup2\n      add\n      swap1\n      tag_67\n      swap2\n      swap1\n      tag_68\n      jump\t// in\n    tag_67:\n      tag_69\n      jump\t// in\n    tag_66:\n      stop\n        /* \"AirlineManagement.sol\":2255:2849  function createDestination(string memory destination, uint destinationPrice) restricted public {... */\n    tag_10:\n      callvalue\n      dup1\n      iszero\n      tag_70\n      jumpi\n      revert(0x00, 0x00)\n    tag_70:\n      pop\n      tag_71\n      0x04\n      dup1\n      calldatasize\n      sub\n      dup2\n      add\n      swap1\n      tag_72\n      swap2\n      swap1\n      tag_73\n      jump\t// in\n    tag_72:\n      tag_74\n      jump\t// in\n    tag_71:\n      stop\n        /* \"AirlineManagement.sol\":1098:1125  uint256 public nextTicketId */\n    tag_11:\n      callvalue\n      dup1\n      iszero\n      tag_75\n      jumpi\n      revert(0x00, 0x00)\n    tag_75:\n      pop\n      tag_76\n      tag_77\n      jump\t// in\n    tag_76:\n      mload(0x40)\n      tag_78\n      swap2\n      swap1\n      tag_35\n      jump\t// in\n    tag_78:\n      mload(0x40)\n      dup1\n      swap2\n      sub\n      swap1\n      return\n        /* \"AirlineManagement.sol\":745:775  uint[3] public classMultiplier */\n    tag_12:\n      callvalue\n      dup1\n      iszero\n      tag_79\n      jumpi\n      revert(0x00, 0x00)\n    tag_79:\n      pop\n      tag_80\n      0x04\n      dup1\n      calldatasize\n      sub\n      dup2\n      add\n      swap1\n      tag_81\n      swap2\n      swap1\n      tag_27\n      jump\t// in\n    tag_81:\n      tag_82\n      jump\t// in\n    tag_80:\n      mload(0x40)\n      tag_83\n      swap2\n      swap1\n      tag_35\n      jump\t// in\n    tag_83:\n      mload(0x40)\n      dup1\n      swap2\n      sub\n      swap1\n      return\n        /* \"AirlineManagement.sol\":356:384  string[] public destinations */\n    tag_13:\n      callvalue\n      dup1\n      iszero\n      tag_84\n      jumpi\n      revert(0x00, 0x00)\n    tag_84:\n      pop\n      tag_85\n      0x04\n      dup1\n      calldatasize\n      sub\n      dup2\n      add\n      swap1\n      tag_86\n      swap2\n      swap1\n      tag_27\n      jump\t// in\n    tag_86:\n      tag_87\n      jump\t// in\n    tag_85:\n      mload(0x40)\n      tag_88\n      swap2\n      swap1\n      tag_89\n      jump\t// in\n    tag_88:\n      mload(0x40)\n      dup1\n      swap2\n      sub\n      swap1\n      return\n        /* \"AirlineManagement.sol\":306:324  address public ceo */\n    tag_14:\n      callvalue\n      dup1\n      iszero\n      tag_90\n      jumpi\n      revert(0x00, 0x00)\n    tag_90:\n      pop\n      tag_91\n      tag_92\n      jump\t// in\n    tag_91:\n      mload(0x40)\n      tag_93\n      swap2\n      swap1\n      tag_94\n      jump\t// in\n    tag_93:\n      mload(0x40)\n      dup1\n      swap2\n      sub\n      swap1\n      return\n        /* \"AirlineManagement.sol\":6360:6504  function payCEO() public restricted {... */\n    tag_15:\n      callvalue\n      dup1\n      iszero\n      tag_95\n      jumpi\n      revert(0x00, 0x00)\n    tag_95:\n      pop\n      tag_96\n      tag_97\n      jump\t// in\n    tag_96:\n      stop\n        /* \"AirlineManagement.sol\":5428:6350  function getBookedFlights(address user) public view returns (Ticket[] memory) {... */\n    tag_16:\n      callvalue\n      dup1\n      iszero\n      tag_98\n      jumpi\n      revert(0x00, 0x00)\n    tag_98:\n      pop\n      tag_99\n      0x04\n      dup1\n      calldatasize\n      sub\n      dup2\n      add\n      swap1\n      tag_100\n      swap2\n      swap1\n      tag_45\n      jump\t// in\n    tag_100:\n      tag_101\n      jump\t// in\n    tag_99:\n      mload(0x40)\n      tag_102\n      swap2\n      swap1\n      tag_103\n      jump\t// in\n    tag_102:\n      mload(0x40)\n      dup1\n      swap2\n      sub\n      swap1\n      return\n        /* \"AirlineManagement.sol\":938:959  uint public payAmount */\n    tag_17:\n      callvalue\n      dup1\n      iszero\n      tag_104\n      jumpi\n      revert(0x00, 0x00)\n    tag_104:\n      pop\n      tag_105\n      tag_106\n      jump\t// in\n    tag_105:\n      mload(0x40)\n      tag_107\n      swap2\n      swap1\n      tag_35\n      jump\t// in\n    tag_107:\n      mload(0x40)\n      dup1\n      swap2\n      sub\n      swap1\n      return\n        /* \"AirlineManagement.sol\":676:707  uint[12] public monthMultiplier */\n    tag_18:\n      callvalue\n      dup1\n      iszero\n      tag_108\n      jumpi\n      revert(0x00, 0x00)\n    tag_108:\n      pop\n      tag_109\n      0x04\n      dup1\n      calldatasize\n      sub\n      dup2\n      add\n      swap1\n      tag_110\n      swap2\n      swap1\n      tag_27\n      jump\t// in\n    tag_110:\n      tag_111\n      jump\t// in\n    tag_109:\n      mload(0x40)\n      tag_112\n      swap2\n      swap1\n      tag_35\n      jump\t// in\n    tag_112:\n      mload(0x40)\n      dup1\n      swap2\n      sub\n      swap1\n      return\n        /* \"AirlineManagement.sol\":3863:5278  function bookFlight(string memory destination, uint month, uint class, bool way) public payable{... */\n    tag_19:\n      tag_113\n      0x04\n      dup1\n      calldatasize\n      sub\n      dup2\n      add\n      swap1\n      tag_114\n      swap2\n      swap1\n      tag_39\n      jump\t// in\n    tag_114:\n      tag_115\n      jump\t// in\n    tag_113:\n      stop\n        /* \"AirlineManagement.sol\":880:901  bool public canPayout */\n    tag_20:\n      callvalue\n      dup1\n      iszero\n      tag_116\n      jumpi\n      revert(0x00, 0x00)\n    tag_116:\n      pop\n      tag_117\n      tag_118\n      jump\t// in\n    tag_117:\n      mload(0x40)\n      tag_119\n      swap2\n      swap1\n      tag_48\n      jump\t// in\n    tag_119:\n      mload(0x40)\n      dup1\n      swap2\n      sub\n      swap1\n      return\n        /* \"AirlineManagement.sol\":1045:1092  mapping(uint256 => Ticket) public ticketDetails */\n    tag_28:\n      mstore(0x20, 0x17)\n      dup1\n      0x00\n      mstore\n      keccak256(0x00, 0x40)\n      0x00\n      swap2\n      pop\n      swap1\n      pop\n      dup1\n      0x00\n      add\n      0x00\n      swap1\n      sload\n      swap1\n      0x0100\n      exp\n      swap1\n      div\n      0xffffffffffffffffffffffffffffffffffffffff\n      and\n      swap1\n      dup1\n      0x01\n      add\n      dup1\n      sload\n      tag_120\n      swap1\n      tag_121\n      jump\t// in\n    tag_120:\n      dup1\n      0x1f\n      add\n      0x20\n      dup1\n      swap2\n      div\n      mul\n      0x20\n      add\n      mload(0x40)\n      swap1\n      dup2\n      add\n      0x40\n      mstore\n      dup1\n      swap3\n      swap2\n      swap1\n      dup2\n      dup2\n      mstore\n      0x20\n      add\n      dup3\n      dup1\n      sload\n      tag_122\n      swap1\n      tag_121\n      jump\t// in\n    tag_122:\n      dup1\n      iszero\n      tag_123\n      jumpi\n      dup1\n      0x1f\n      lt\n      tag_124\n      jumpi\n      0x0100\n      dup1\n      dup4\n      sload\n      div\n      mul\n      dup4\n      mstore\n      swap2\n      0x20\n      add\n      swap2\n      jump(tag_123)\n    tag_124:\n      dup3\n      add\n      swap2\n      swap1\n      0x00\n      mstore\n      keccak256(0x00, 0x20)\n      swap1\n    tag_125:\n      dup2\n      sload\n      dup2\n      mstore\n      swap1\n      0x01\n      add\n      swap1\n      0x20\n      add\n      dup1\n      dup4\n      gt\n      tag_125\n      jumpi\n      dup3\n      swap1\n      sub\n      0x1f\n      and\n      dup3\n      add\n      swap2\n    tag_123:\n      pop\n      pop\n      pop\n      pop\n      pop\n      swap1\n      dup1\n      0x02\n      add\n      sload\n      swap1\n      dup1\n      0x03\n      add\n      sload\n      swap1\n      dup1\n      0x04\n      add\n      dup1\n      sload\n      tag_126\n      swap1\n      tag_121\n      jump\t// in\n    tag_126:\n      dup1\n      0x1f\n      add\n      0x20\n      dup1\n      swap2\n      div\n      mul\n      0x20\n      add\n      mload(0x40)\n      swap1\n      dup2\n      add\n      0x40\n      mstore\n      dup1\n      swap3\n      swap2\n      swap1\n      dup2\n      dup2\n      mstore\n      0x20\n      add\n      dup3\n      dup1\n      sload\n      tag_127\n      swap1\n      tag_121\n      jump\t// in\n    tag_127:\n      dup1\n      iszero\n      tag_128\n      jumpi\n      dup1\n      0x1f\n      lt\n      tag_129\n      jumpi\n      0x0100\n      dup1\n      dup4\n      sload\n      div\n      mul\n      dup4\n      mstore\n      swap2\n      0x20\n      add\n      swap2\n      jump(tag_128)\n    tag_129:\n      dup3\n      add\n      swap2\n      swap1\n      0x00\n      mstore\n      keccak256(0x00, 0x20)\n      swap1\n    tag_130:\n      dup2\n      sload\n      dup2\n      mstore\n      swap1\n      0x01\n      add\n      swap1\n      0x20\n      add\n      dup1\n      dup4\n      gt\n      tag_130\n      jumpi\n      dup3\n      swap1\n      sub\n      0x1f\n      and\n      dup3\n      add\n      swap2\n    tag_128:\n      pop\n      pop\n      pop\n      pop\n      pop\n      swap1\n      dup1\n      0x05\n      add\n      0x00\n      swap1\n      sload\n      swap1\n      0x0100\n      exp\n      swap1\n      div\n      0xff\n      and\n      swap1\n      dup1\n      0x05\n      add\n      0x01\n      swap1\n      sload\n      swap1\n      0x0100\n      exp\n      swap1\n      div\n      0xff\n      and\n      swap1\n      dup1\n      0x06\n      add\n      sload\n      swap1\n      pop\n      dup9\n      jump\t// out\n        /* \"AirlineManagement.sol\":818:835  uint public count */\n    tag_33:\n      sload(0x14)\n      dup2\n      jump\t// out\n        /* \"AirlineManagement.sol\":3243:3857  function getPrice (string memory destination, uint month, uint class, bool way) public view returns(uint) {... */\n    tag_40:\n        /* \"AirlineManagement.sol\":3343:3347  uint */\n      0x00\n        /* \"AirlineManagement.sol\":3461:3472  destination */\n      dup5\n        /* \"AirlineManagement.sol\":3444:3473  abi.encodePacked(destination) */\n      add(0x20, mload(0x40))\n      tag_132\n      swap2\n      swap1\n      tag_133\n      jump\t// in\n    tag_132:\n      mload(0x40)\n      0x20\n      dup2\n      dup4\n      sub\n      sub\n      dup2\n      mstore\n      swap1\n      0x40\n      mstore\n        /* \"AirlineManagement.sol\":3434:3474  keccak256(abi.encodePacked(destination)) */\n      dup1\n      mload\n      swap1\n      0x20\n      add\n      keccak256\n        /* \"AirlineManagement.sol\":3394:3406  destinations */\n      0x01\n        /* \"AirlineManagement.sol\":3407:3414  indexes */\n      0x04\n        /* \"AirlineManagement.sol\":3415:3426  destination */\n      dup8\n        /* \"AirlineManagement.sol\":3407:3427  indexes[destination] */\n      mload(0x40)\n      tag_134\n      swap2\n      swap1\n      tag_133\n      jump\t// in\n    tag_134:\n      swap1\n      dup2\n      mstore\n      0x20\n      add\n      mload(0x40)\n      dup1\n      swap2\n      sub\n      swap1\n      keccak256\n      sload\n        /* \"AirlineManagement.sol\":3394:3428  destinations[indexes[destination]] */\n      dup2\n      sload\n      dup2\n      lt\n      tag_135\n      jumpi\n      tag_136\n      tag_137\n      jump\t// in\n    tag_136:\n    tag_135:\n      swap1\n      0x00\n      mstore\n      keccak256(0x00, 0x20)\n      add\n        /* \"AirlineManagement.sol\":3377:3429  abi.encodePacked(destinations[indexes[destination]]) */\n      add(0x20, mload(0x40))\n      tag_139\n      swap2\n      swap1\n      tag_140\n      jump\t// in\n    tag_139:\n      mload(0x40)\n      0x20\n      dup2\n      dup4\n      sub\n      sub\n      dup2\n      mstore\n      swap1\n      0x40\n      mstore\n        /* \"AirlineManagement.sol\":3367:3430  keccak256(abi.encodePacked(destinations[indexes[destination]])) */\n      dup1\n      mload\n      swap1\n      0x20\n      add\n      keccak256\n        /* \"AirlineManagement.sol\":3367:3474  keccak256(abi.encodePacked(destinations[indexes[destination]])) == keccak256(abi.encodePacked(destination)) */\n      eq\n        /* \"AirlineManagement.sol\":3359:3517  require(keccak256(abi.encodePacked(destinations[indexes[destination]])) == keccak256(abi.encodePacked(destination)), \"Error: This destination doesn't exist!\") */\n      tag_141\n      jumpi\n      mload(0x40)\n      0x08c379a000000000000000000000000000000000000000000000000000000000\n      dup2\n      mstore\n      0x04\n      add\n      tag_142\n      swap1\n      tag_143\n      jump\t// in\n    tag_142:\n      mload(0x40)\n      dup1\n      swap2\n      sub\n      swap1\n      revert\n    tag_141:\n        /* \"AirlineManagement.sol\":3535:3542  uint cm */\n      0x00\n        /* \"AirlineManagement.sol\":3545:3560  classMultiplier */\n      0x11\n        /* \"AirlineManagement.sol\":3569:3570  1 */\n      0x01\n        /* \"AirlineManagement.sol\":3561:3566  class */\n      dup6\n        /* \"AirlineManagement.sol\":3561:3570  class - 1 */\n      tag_144\n      swap2\n      swap1\n      tag_145\n      jump\t// in\n    tag_144:\n        /* \"AirlineManagement.sol\":3545:3571  classMultiplier[class - 1] */\n      0x03\n      dup2\n      lt\n      tag_146\n      jumpi\n      tag_147\n      tag_137\n      jump\t// in\n    tag_147:\n    tag_146:\n      add\n      sload\n        /* \"AirlineManagement.sol\":3535:3571  uint cm = classMultiplier[class - 1] */\n      swap1\n      pop\n        /* \"AirlineManagement.sol\":3600:3607  uint mm */\n      0x00\n        /* \"AirlineManagement.sol\":3610:3625  monthMultiplier */\n      0x05\n        /* \"AirlineManagement.sol\":3634:3635  1 */\n      0x01\n        /* \"AirlineManagement.sol\":3626:3631  month */\n      dup8\n        /* \"AirlineManagement.sol\":3626:3635  month - 1 */\n      tag_149\n      swap2\n      swap1\n      tag_145\n      jump\t// in\n    tag_149:\n        /* \"AirlineManagement.sol\":3610:3636  monthMultiplier[month - 1] */\n      0x0c\n      dup2\n      lt\n      tag_150\n      jumpi\n      tag_151\n      tag_137\n      jump\t// in\n    tag_151:\n    tag_150:\n      add\n      sload\n        /* \"AirlineManagement.sol\":3600:3636  uint mm = monthMultiplier[month - 1] */\n      swap1\n      pop\n        /* \"AirlineManagement.sol\":3666:3676  uint price */\n      0x00\n        /* \"AirlineManagement.sol\":3721:3723  cm */\n      dup3\n        /* \"AirlineManagement.sol\":3679:3696  destinationPrices */\n      0x02\n        /* \"AirlineManagement.sol\":3697:3704  indexes */\n      0x04\n        /* \"AirlineManagement.sol\":3705:3716  destination */\n      dup11\n        /* \"AirlineManagement.sol\":3697:3717  indexes[destination] */\n      mload(0x40)\n      tag_153\n      swap2\n      swap1\n      tag_133\n      jump\t// in\n    tag_153:\n      swap1\n      dup2\n      mstore\n      0x20\n      add\n      mload(0x40)\n      dup1\n      swap2\n      sub\n      swap1\n      keccak256\n      sload\n        /* \"AirlineManagement.sol\":3679:3718  destinationPrices[indexes[destination]] */\n      dup2\n      sload\n      dup2\n      lt\n      tag_154\n      jumpi\n      tag_155\n      tag_137\n      jump\t// in\n    tag_155:\n    tag_154:\n      swap1\n      0x00\n      mstore\n      keccak256(0x00, 0x20)\n      add\n      sload\n        /* \"AirlineManagement.sol\":3679:3723  destinationPrices[indexes[destination]] * cm */\n      tag_157\n      swap2\n      swap1\n      tag_158\n      jump\t// in\n    tag_157:\n        /* \"AirlineManagement.sol\":3666:3723  uint price = destinationPrices[indexes[destination]] * cm */\n      swap1\n      pop\n        /* \"AirlineManagement.sol\":3737:3740  way */\n      dup5\n        /* \"AirlineManagement.sol\":3734:3764  if(way)... */\n      iszero\n      tag_159\n      jumpi\n        /* \"AirlineManagement.sol\":3763:3764  2 */\n      0x02\n        /* \"AirlineManagement.sol\":3754:3764  price *= 2 */\n      dup2\n      tag_160\n      swap2\n      swap1\n      tag_158\n      jump\t// in\n    tag_160:\n      swap1\n      pop\n        /* \"AirlineManagement.sol\":3734:3764  if(way)... */\n    tag_159:\n        /* \"AirlineManagement.sol\":3783:3785  mm */\n      dup2\n        /* \"AirlineManagement.sol\":3778:3780  10 */\n      0x0a\n        /* \"AirlineManagement.sol\":3778:3785  10 > mm */\n      gt\n        /* \"AirlineManagement.sol\":3775:3816  if(10 > mm)... */\n      iszero\n      tag_161\n      jumpi\n        /* \"AirlineManagement.sol\":3814:3816  mm */\n      dup2\n        /* \"AirlineManagement.sol\":3806:3811  price */\n      dup2\n        /* \"AirlineManagement.sol\":3806:3816  price / mm */\n      tag_162\n      swap2\n      swap1\n      tag_163\n      jump\t// in\n    tag_162:\n        /* \"AirlineManagement.sol\":3799:3816  return price / mm */\n      swap4\n      pop\n      pop\n      pop\n      pop\n      jump(tag_131)\n        /* \"AirlineManagement.sol\":3775:3816  if(10 > mm)... */\n    tag_161:\n        /* \"AirlineManagement.sol\":3847:3849  10 */\n      0x0a\n        /* \"AirlineManagement.sol\":3842:3844  mm */\n      dup3\n        /* \"AirlineManagement.sol\":3842:3849  mm - 10 */\n      tag_164\n      swap2\n      swap1\n      tag_145\n      jump\t// in\n    tag_164:\n        /* \"AirlineManagement.sol\":3833:3838  price */\n      dup2\n        /* \"AirlineManagement.sol\":3833:3850  price * (mm - 10) */\n      tag_165\n      swap2\n      swap1\n      tag_158\n      jump\t// in\n    tag_165:\n        /* \"AirlineManagement.sol\":3826:3850  return price * (mm - 10) */\n      swap4\n      pop\n      pop\n      pop\n      pop\n        /* \"AirlineManagement.sol\":3243:3857  function getPrice (string memory destination, uint month, uint class, bool way) public view returns(uint) {... */\n    tag_131:\n      swap5\n      swap4\n      pop\n      pop\n      pop\n      pop\n      jump\t// out\n        /* \"AirlineManagement.sol\":5284:5421  function isCeo(address user) public view returns(bool) {... */\n    tag_46:\n        /* \"AirlineManagement.sol\":5333:5337  bool */\n      0x00\n        /* \"AirlineManagement.sol\":5365:5368  ceo */\n      0x00\n      0x00\n      swap1\n      sload\n      swap1\n      0x0100\n      exp\n      swap1\n      div\n      0xffffffffffffffffffffffffffffffffffffffff\n      and\n        /* \"AirlineManagement.sol\":5357:5368  user == ceo */\n      0xffffffffffffffffffffffffffffffffffffffff\n      and\n        /* \"AirlineManagement.sol\":5357:5361  user */\n      dup3\n        /* \"AirlineManagement.sol\":5357:5368  user == ceo */\n      0xffffffffffffffffffffffffffffffffffffffff\n      and\n      eq\n        /* \"AirlineManagement.sol\":5349:5393  require(user == ceo, \"You are not the CEO!\") */\n      tag_167\n      jumpi\n      mload(0x40)\n      0x08c379a000000000000000000000000000000000000000000000000000000000\n      dup2\n      mstore\n      0x04\n      add\n      tag_168\n      swap1\n      tag_169\n      jump\t// in\n    tag_168:\n      mload(0x40)\n      dup1\n      swap2\n      sub\n      swap1\n      revert\n    tag_167:\n        /* \"AirlineManagement.sol\":5410:5414  true */\n      0x01\n        /* \"AirlineManagement.sol\":5403:5414  return true */\n      swap1\n      pop\n        /* \"AirlineManagement.sol\":5284:5421  function isCeo(address user) public view returns(bool) {... */\n      swap2\n      swap1\n      pop\n      jump\t// out\n        /* \"AirlineManagement.sol\":431:462  uint[] public destinationPrices */\n    tag_52:\n      0x02\n      dup2\n      dup2\n      sload\n      dup2\n      lt\n      tag_170\n      jumpi\n      0x00\n      dup1\n      revert\n    tag_170:\n      swap1\n      0x00\n      mstore\n      keccak256(0x00, 0x20)\n      add\n      0x00\n      swap2\n      pop\n      swap1\n      pop\n      sload\n      dup2\n      jump\t// out\n        /* \"AirlineManagement.sol\":575:613  mapping(string => uint) public indexes */\n    tag_58:\n      0x04\n      dup2\n      dup1\n      mload\n      0x20\n      dup2\n      add\n      dup3\n      add\n      dup1\n      mload\n      dup5\n      dup3\n      mstore\n      0x20\n      dup4\n      add\n      0x20\n      dup6\n      add\n      keccak256\n      dup2\n      dup4\n      mstore\n      dup1\n      swap6\n      pop\n      pop\n      pop\n      pop\n      pop\n      pop\n      0x00\n      swap2\n      pop\n      swap1\n      pop\n      sload\n      dup2\n      jump\t// out\n        /* \"AirlineManagement.sol\":511:530  uint[] public seats */\n    tag_63:\n      0x03\n      dup2\n      dup2\n      sload\n      dup2\n      lt\n      tag_172\n      jumpi\n      0x00\n      dup1\n      revert\n    tag_172:\n      swap1\n      0x00\n      mstore\n      keccak256(0x00, 0x20)\n      add\n      0x00\n      swap2\n      pop\n      swap1\n      pop\n      sload\n      dup2\n      jump\t// out\n        /* \"AirlineManagement.sol\":2898:3237  function create30Tickets(address owner, string memory destination, uint256 price) public restricted {... */\n    tag_69:\n        /* \"AirlineManagement.sol\":1186:1189  ceo */\n      0x00\n      0x00\n      swap1\n      sload\n      swap1\n      0x0100\n      exp\n      swap1\n      div\n      0xffffffffffffffffffffffffffffffffffffffff\n      and\n        /* \"AirlineManagement.sol\":1172:1189  msg.sender == ceo */\n      0xffffffffffffffffffffffffffffffffffffffff\n      and\n        /* \"AirlineManagement.sol\":1172:1182  msg.sender */\n      caller\n        /* \"AirlineManagement.sol\":1172:1189  msg.sender == ceo */\n      0xffffffffffffffffffffffffffffffffffffffff\n      and\n      eq\n        /* \"AirlineManagement.sol\":1164:1190  require(msg.sender == ceo) */\n      tag_175\n      jumpi\n      revert(0x00, 0x00)\n    tag_175:\n        /* \"AirlineManagement.sol\":3013:3025  uint256 seat */\n      0x00\n        /* \"AirlineManagement.sol\":3028:3029  0 */\n      0x00\n        /* \"AirlineManagement.sol\":3013:3029  uint256 seat = 0 */\n      swap1\n      pop\n        /* \"AirlineManagement.sol\":3008:3231  for (uint256 seat = 0; seat < 30; seat++) {... */\n    tag_177:\n        /* \"AirlineManagement.sol\":3038:3040  30 */\n      0x1e\n        /* \"AirlineManagement.sol\":3031:3035  seat */\n      dup2\n        /* \"AirlineManagement.sol\":3031:3040  seat < 30 */\n      lt\n        /* \"AirlineManagement.sol\":3008:3231  for (uint256 seat = 0; seat < 30; seat++) {... */\n      iszero\n      tag_178\n      jumpi\n        /* \"AirlineManagement.sol\":3064:3079  uint256 tokenId */\n      0x00\n        /* \"AirlineManagement.sol\":3082:3094  nextTicketId */\n      sload(0x18)\n        /* \"AirlineManagement.sol\":3064:3094  uint256 tokenId = nextTicketId */\n      swap1\n      pop\n        /* \"AirlineManagement.sol\":3133:3192  Ticket(owner, destination, price, seat, \"\", false, true, 0) */\n      mload(0x40)\n      dup1\n      0x0100\n      add\n      0x40\n      mstore\n      dup1\n        /* \"AirlineManagement.sol\":3140:3145  owner */\n      dup7\n        /* \"AirlineManagement.sol\":3133:3192  Ticket(owner, destination, price, seat, \"\", false, true, 0) */\n      0xffffffffffffffffffffffffffffffffffffffff\n      and\n      dup2\n      mstore\n      0x20\n      add\n        /* \"AirlineManagement.sol\":3147:3158  destination */\n      dup6\n        /* \"AirlineManagement.sol\":3133:3192  Ticket(owner, destination, price, seat, \"\", false, true, 0) */\n      dup2\n      mstore\n      0x20\n      add\n        /* \"AirlineManagement.sol\":3160:3165  price */\n      dup5\n        /* \"AirlineManagement.sol\":3133:3192  Ticket(owner, destination, price, seat, \"\", false, true, 0) */\n      dup2\n      mstore\n      0x20\n      add\n        /* \"AirlineManagement.sol\":3167:3171  seat */\n      dup4\n        /* \"AirlineManagement.sol\":3133:3192  Ticket(owner, destination, price, seat, \"\", false, true, 0) */\n      dup2\n      mstore\n      0x20\n      add\n      mload(0x40)\n      dup1\n      0x20\n      add\n      0x40\n      mstore\n      dup1\n      0x00\n      dup2\n      mstore\n      pop\n      dup2\n      mstore\n      0x20\n      add\n        /* \"AirlineManagement.sol\":3177:3182  false */\n      0x00\n        /* \"AirlineManagement.sol\":3133:3192  Ticket(owner, destination, price, seat, \"\", false, true, 0) */\n      iszero\n      iszero\n      dup2\n      mstore\n      0x20\n      add\n        /* \"AirlineManagement.sol\":3184:3188  true */\n      0x01\n        /* \"AirlineManagement.sol\":3133:3192  Ticket(owner, destination, price, seat, \"\", false, true, 0) */\n      iszero\n      iszero\n      dup2\n      mstore\n      0x20\n      add\n        /* \"AirlineManagement.sol\":3190:3191  0 */\n      0x00\n        /* \"AirlineManagement.sol\":3133:3192  Ticket(owner, destination, price, seat, \"\", false, true, 0) */\n      dup2\n      mstore\n      pop\n        /* \"AirlineManagement.sol\":3108:3121  ticketDetails */\n      0x17\n        /* \"AirlineManagement.sol\":3108:3130  ticketDetails[tokenId] */\n      0x00\n        /* \"AirlineManagement.sol\":3122:3129  tokenId */\n      dup4\n        /* \"AirlineManagement.sol\":3108:3130  ticketDetails[tokenId] */\n      dup2\n      mstore\n      0x20\n      add\n      swap1\n      dup2\n      mstore\n      0x20\n      add\n      0x00\n      keccak256\n        /* \"AirlineManagement.sol\":3108:3192  ticketDetails[tokenId] = Ticket(owner, destination, price, seat, \"\", false, true, 0) */\n      0x00\n      dup3\n      add\n      mload\n      dup2\n      0x00\n      add\n      exp(0x0100, 0x00)\n      dup2\n      sload\n      dup2\n      0xffffffffffffffffffffffffffffffffffffffff\n      mul\n      not\n      and\n      swap1\n      dup4\n      0xffffffffffffffffffffffffffffffffffffffff\n      and\n      mul\n      or\n      swap1\n      sstore\n      pop\n      0x20\n      dup3\n      add\n      mload\n      dup2\n      0x01\n      add\n      swap1\n      dup2\n      tag_180\n      swap2\n      swap1\n      tag_181\n      jump\t// in\n    tag_180:\n      pop\n      0x40\n      dup3\n      add\n      mload\n      dup2\n      0x02\n      add\n      sstore\n      0x60\n      dup3\n      add\n      mload\n      dup2\n      0x03\n      add\n      sstore\n      0x80\n      dup3\n      add\n      mload\n      dup2\n      0x04\n      add\n      swap1\n      dup2\n      tag_182\n      swap2\n      swap1\n      tag_181\n      jump\t// in\n    tag_182:\n      pop\n      0xa0\n      dup3\n      add\n      mload\n      dup2\n      0x05\n      add\n      exp(0x0100, 0x00)\n      dup2\n      sload\n      dup2\n      0xff\n      mul\n      not\n      and\n      swap1\n      dup4\n      iszero\n      iszero\n      mul\n      or\n      swap1\n      sstore\n      pop\n      0xc0\n      dup3\n      add\n      mload\n      dup2\n      0x05\n      add\n      exp(0x0100, 0x01)\n      dup2\n      sload\n      dup2\n      0xff\n      mul\n      not\n      and\n      swap1\n      dup4\n      iszero\n      iszero\n      mul\n      or\n      swap1\n      sstore\n      pop\n      0xe0\n      dup3\n      add\n      mload\n      dup2\n      0x06\n      add\n      sstore\n      swap1\n      pop\n      pop\n        /* \"AirlineManagement.sol\":3206:3218  nextTicketId */\n      0x18\n      0x00\n        /* \"AirlineManagement.sol\":3206:3220  nextTicketId++ */\n      dup2\n      sload\n      dup1\n      swap3\n      swap2\n      swap1\n      tag_183\n      swap1\n      tag_184\n      jump\t// in\n    tag_183:\n      swap2\n      swap1\n      pop\n      sstore\n      pop\n        /* \"AirlineManagement.sol\":3050:3231  {... */\n      pop\n        /* \"AirlineManagement.sol\":3042:3048  seat++ */\n      dup1\n      dup1\n      0x01\n      add\n      swap2\n      pop\n      pop\n        /* \"AirlineManagement.sol\":3008:3231  for (uint256 seat = 0; seat < 30; seat++) {... */\n      jump(tag_177)\n    tag_178:\n      pop\n        /* \"AirlineManagement.sol\":2898:3237  function create30Tickets(address owner, string memory destination, uint256 price) public restricted {... */\n      pop\n      pop\n      pop\n      jump\t// out\n        /* \"AirlineManagement.sol\":2255:2849  function createDestination(string memory destination, uint destinationPrice) restricted public {... */\n    tag_74:\n        /* \"AirlineManagement.sol\":1186:1189  ceo */\n      0x00\n      0x00\n      swap1\n      sload\n      swap1\n      0x0100\n      exp\n      swap1\n      div\n      0xffffffffffffffffffffffffffffffffffffffff\n      and\n        /* \"AirlineManagement.sol\":1172:1189  msg.sender == ceo */\n      0xffffffffffffffffffffffffffffffffffffffff\n      and\n        /* \"AirlineManagement.sol\":1172:1182  msg.sender */\n      caller\n        /* \"AirlineManagement.sol\":1172:1189  msg.sender == ceo */\n      0xffffffffffffffffffffffffffffffffffffffff\n      and\n      eq\n        /* \"AirlineManagement.sol\":1164:1190  require(msg.sender == ceo) */\n      tag_186\n      jumpi\n      revert(0x00, 0x00)\n    tag_186:\n        /* \"AirlineManagement.sol\":2462:2473  destination */\n      dup2\n        /* \"AirlineManagement.sol\":2445:2474  abi.encodePacked(destination) */\n      add(0x20, mload(0x40))\n      tag_188\n      swap2\n      swap1\n      tag_133\n      jump\t// in\n    tag_188:\n      mload(0x40)\n      0x20\n      dup2\n      dup4\n      sub\n      sub\n      dup2\n      mstore\n      swap1\n      0x40\n      mstore\n        /* \"AirlineManagement.sol\":2435:2475  keccak256(abi.encodePacked(destination)) */\n      dup1\n      mload\n      swap1\n      0x20\n      add\n      keccak256\n        /* \"AirlineManagement.sol\":2395:2407  destinations */\n      0x01\n        /* \"AirlineManagement.sol\":2408:2415  indexes */\n      0x04\n        /* \"AirlineManagement.sol\":2416:2427  destination */\n      dup5\n        /* \"AirlineManagement.sol\":2408:2428  indexes[destination] */\n      mload(0x40)\n      tag_189\n      swap2\n      swap1\n      tag_133\n      jump\t// in\n    tag_189:\n      swap1\n      dup2\n      mstore\n      0x20\n      add\n      mload(0x40)\n      dup1\n      swap2\n      sub\n      swap1\n      keccak256\n      sload\n        /* \"AirlineManagement.sol\":2395:2429  destinations[indexes[destination]] */\n      dup2\n      sload\n      dup2\n      lt\n      tag_190\n      jumpi\n      tag_191\n      tag_137\n      jump\t// in\n    tag_191:\n    tag_190:\n      swap1\n      0x00\n      mstore\n      keccak256(0x00, 0x20)\n      add\n        /* \"AirlineManagement.sol\":2378:2430  abi.encodePacked(destinations[indexes[destination]]) */\n      add(0x20, mload(0x40))\n      tag_193\n      swap2\n      swap1\n      tag_140\n      jump\t// in\n    tag_193:\n      mload(0x40)\n      0x20\n      dup2\n      dup4\n      sub\n      sub\n      dup2\n      mstore\n      swap1\n      0x40\n      mstore\n        /* \"AirlineManagement.sol\":2368:2431  keccak256(abi.encodePacked(destinations[indexes[destination]])) */\n      dup1\n      mload\n      swap1\n      0x20\n      add\n      keccak256\n        /* \"AirlineManagement.sol\":2368:2475  keccak256(abi.encodePacked(destinations[indexes[destination]])) != keccak256(abi.encodePacked(destination)) */\n      sub\n        /* \"AirlineManagement.sol\":2360:2519  require(keccak256(abi.encodePacked(destinations[indexes[destination]])) != keccak256(abi.encodePacked(destination)), \"Error: This destination already exists!\") */\n      tag_194\n      jumpi\n      mload(0x40)\n      0x08c379a000000000000000000000000000000000000000000000000000000000\n      dup2\n      mstore\n      0x04\n      add\n      tag_195\n      swap1\n      tag_196\n      jump\t// in\n    tag_195:\n      mload(0x40)\n      dup1\n      swap2\n      sub\n      swap1\n      revert\n    tag_194:\n        /* \"AirlineManagement.sol\":2556:2558  30 */\n      0x1e\n        /* \"AirlineManagement.sol\":2537:2553  destinationPrice */\n      dup2\n        /* \"AirlineManagement.sol\":2537:2558  destinationPrice > 30 */\n      gt\n        /* \"AirlineManagement.sol\":2529:2604  require(destinationPrice > 30, \"Error: Base price cannot be below 30 Wei!\") */\n      tag_197\n      jumpi\n      mload(0x40)\n      0x08c379a000000000000000000000000000000000000000000000000000000000\n      dup2\n      mstore\n      0x04\n      add\n      tag_198\n      swap1\n      tag_199\n      jump\t// in\n    tag_198:\n      mload(0x40)\n      dup1\n      swap2\n      sub\n      swap1\n      revert\n    tag_197:\n        /* \"AirlineManagement.sol\":2614:2672  create30Tickets(msg.sender, destination, destinationPrice) */\n      tag_200\n        /* \"AirlineManagement.sol\":2630:2640  msg.sender */\n      caller\n        /* \"AirlineManagement.sol\":2642:2653  destination */\n      dup4\n        /* \"AirlineManagement.sol\":2655:2671  destinationPrice */\n      dup4\n        /* \"AirlineManagement.sol\":2614:2629  create30Tickets */\n      tag_69\n        /* \"AirlineManagement.sol\":2614:2672  create30Tickets(msg.sender, destination, destinationPrice) */\n      jump\t// in\n    tag_200:\n        /* \"AirlineManagement.sol\":2683:2695  destinations */\n      0x01\n        /* \"AirlineManagement.sol\":2701:2712  destination */\n      dup3\n        /* \"AirlineManagement.sol\":2683:2713  destinations.push(destination) */\n      swap1\n      dup1\n      0x01\n      dup2\n      sload\n      add\n      dup1\n      dup3\n      sstore\n      dup1\n      swap2\n      pop\n      pop\n      0x01\n      swap1\n      sub\n      swap1\n      0x00\n      mstore\n      keccak256(0x00, 0x20)\n      add\n      0x00\n      swap1\n      swap2\n      swap1\n      swap2\n      swap1\n      swap2\n      pop\n      swap1\n      dup2\n      tag_202\n      swap2\n      swap1\n      tag_181\n      jump\t// in\n    tag_202:\n      pop\n        /* \"AirlineManagement.sol\":2723:2740  destinationPrices */\n      0x02\n        /* \"AirlineManagement.sol\":2746:2762  destinationPrice */\n      dup2\n        /* \"AirlineManagement.sol\":2723:2763  destinationPrices.push(destinationPrice) */\n      swap1\n      dup1\n      0x01\n      dup2\n      sload\n      add\n      dup1\n      dup3\n      sstore\n      dup1\n      swap2\n      pop\n      pop\n      0x01\n      swap1\n      sub\n      swap1\n      0x00\n      mstore\n      keccak256(0x00, 0x20)\n      add\n      0x00\n      swap1\n      swap2\n      swap1\n      swap2\n      swap1\n      swap2\n      pop\n      sstore\n        /* \"AirlineManagement.sol\":2796:2801  count */\n      sload(0x14)\n        /* \"AirlineManagement.sol\":2773:2780  indexes */\n      0x04\n        /* \"AirlineManagement.sol\":2781:2792  destination */\n      dup4\n        /* \"AirlineManagement.sol\":2773:2793  indexes[destination] */\n      mload(0x40)\n      tag_204\n      swap2\n      swap1\n      tag_133\n      jump\t// in\n    tag_204:\n      swap1\n      dup2\n      mstore\n      0x20\n      add\n      mload(0x40)\n      dup1\n      swap2\n      sub\n      swap1\n      keccak256\n        /* \"AirlineManagement.sol\":2773:2801  indexes[destination] = count */\n      dup2\n      swap1\n      sstore\n      pop\n        /* \"AirlineManagement.sol\":2811:2816  seats */\n      0x03\n        /* \"AirlineManagement.sol\":2822:2824  30 */\n      0x1e\n        /* \"AirlineManagement.sol\":2811:2825  seats.push(30) */\n      swap1\n      dup1\n      0x01\n      dup2\n      sload\n      add\n      dup1\n      dup3\n      sstore\n      dup1\n      swap2\n      pop\n      pop\n      0x01\n      swap1\n      sub\n      swap1\n      0x00\n      mstore\n      keccak256(0x00, 0x20)\n      add\n      0x00\n      swap1\n      swap2\n      swap1\n      swap2\n      swap1\n      swap2\n      pop\n      sstore\n        /* \"AirlineManagement.sol\":2835:2840  count */\n      0x14\n      0x00\n        /* \"AirlineManagement.sol\":2835:2842  count++ */\n      dup2\n      sload\n      dup1\n      swap3\n      swap2\n      swap1\n      tag_206\n      swap1\n      tag_184\n      jump\t// in\n    tag_206:\n      swap2\n      swap1\n      pop\n      sstore\n      pop\n        /* \"AirlineManagement.sol\":2255:2849  function createDestination(string memory destination, uint destinationPrice) restricted public {... */\n      pop\n      pop\n      jump\t// out\n        /* \"AirlineManagement.sol\":1098:1125  uint256 public nextTicketId */\n    tag_77:\n      sload(0x18)\n      dup2\n      jump\t// out\n        /* \"AirlineManagement.sol\":745:775  uint[3] public classMultiplier */\n    tag_82:\n      0x11\n      dup2\n      0x03\n      dup2\n      lt\n      tag_207\n      jumpi\n      0x00\n      dup1\n      revert\n    tag_207:\n      add\n      0x00\n      swap2\n      pop\n      swap1\n      pop\n      sload\n      dup2\n      jump\t// out\n        /* \"AirlineManagement.sol\":356:384  string[] public destinations */\n    tag_87:\n      0x01\n      dup2\n      dup2\n      sload\n      dup2\n      lt\n      tag_209\n      jumpi\n      0x00\n      dup1\n      revert\n    tag_209:\n      swap1\n      0x00\n      mstore\n      keccak256(0x00, 0x20)\n      add\n      0x00\n      swap2\n      pop\n      swap1\n      pop\n      dup1\n      sload\n      tag_211\n      swap1\n      tag_121\n      jump\t// in\n    tag_211:\n      dup1\n      0x1f\n      add\n      0x20\n      dup1\n      swap2\n      div\n      mul\n      0x20\n      add\n      mload(0x40)\n      swap1\n      dup2\n      add\n      0x40\n      mstore\n      dup1\n      swap3\n      swap2\n      swap1\n      dup2\n      dup2\n      mstore\n      0x20\n      add\n      dup3\n      dup1\n      sload\n      tag_212\n      swap1\n      tag_121\n      jump\t// in\n    tag_212:\n      dup1\n      iszero\n      tag_213\n      jumpi\n      dup1\n      0x1f\n      lt\n      tag_214\n      jumpi\n      0x0100\n      dup1\n      dup4\n      sload\n      div\n      mul\n      dup4\n      mstore\n      swap2\n      0x20\n      add\n      swap2\n      jump(tag_213)\n    tag_214:\n      dup3\n      add\n      swap2\n      swap1\n      0x00\n      mstore\n      keccak256(0x00, 0x20)\n      swap1\n    tag_215:\n      dup2\n      sload\n      dup2\n      mstore\n      swap1\n      0x01\n      add\n      swap1\n      0x20\n      add\n      dup1\n      dup4\n      gt\n      tag_215\n      jumpi\n      dup3\n      swap1\n      sub\n      0x1f\n      and\n      dup3\n      add\n      swap2\n    tag_213:\n      pop\n      pop\n      pop\n      pop\n      pop\n      dup2\n      jump\t// out\n        /* \"AirlineManagement.sol\":306:324  address public ceo */\n    tag_92:\n      0x00\n      0x00\n      swap1\n      sload\n      swap1\n      0x0100\n      exp\n      swap1\n      div\n      0xffffffffffffffffffffffffffffffffffffffff\n      and\n      dup2\n      jump\t// out\n        /* \"AirlineManagement.sol\":6360:6504  function payCEO() public restricted {... */\n    tag_97:\n        /* \"AirlineManagement.sol\":1186:1189  ceo */\n      0x00\n      0x00\n      swap1\n      sload\n      swap1\n      0x0100\n      exp\n      swap1\n      div\n      0xffffffffffffffffffffffffffffffffffffffff\n      and\n        /* \"AirlineManagement.sol\":1172:1189  msg.sender == ceo */\n      0xffffffffffffffffffffffffffffffffffffffff\n      and\n        /* \"AirlineManagement.sol\":1172:1182  msg.sender */\n      caller\n        /* \"AirlineManagement.sol\":1172:1189  msg.sender == ceo */\n      0xffffffffffffffffffffffffffffffffffffffff\n      and\n      eq\n        /* \"AirlineManagement.sol\":1164:1190  require(msg.sender == ceo) */\n      tag_217\n      jumpi\n      revert(0x00, 0x00)\n    tag_217:\n        /* \"AirlineManagement.sol\":6414:6417  ceo */\n      0x00\n      0x00\n      swap1\n      sload\n      swap1\n      0x0100\n      exp\n      swap1\n      div\n      0xffffffffffffffffffffffffffffffffffffffff\n      and\n        /* \"AirlineManagement.sol\":6406:6427  payable(ceo).transfer */\n      0xffffffffffffffffffffffffffffffffffffffff\n      and\n        /* \"AirlineManagement.sol\":6406:6447  payable(ceo).transfer(payAmount * 9 / 10) */\n      0x08fc\n        /* \"AirlineManagement.sol\":6444:6446  10 */\n      0x0a\n        /* \"AirlineManagement.sol\":6440:6441  9 */\n      0x09\n        /* \"AirlineManagement.sol\":6428:6437  payAmount */\n      sload(0x16)\n        /* \"AirlineManagement.sol\":6428:6441  payAmount * 9 */\n      tag_219\n      swap2\n      swap1\n      tag_158\n      jump\t// in\n    tag_219:\n        /* \"AirlineManagement.sol\":6428:6446  payAmount * 9 / 10 */\n      tag_220\n      swap2\n      swap1\n      tag_163\n      jump\t// in\n    tag_220:\n        /* \"AirlineManagement.sol\":6406:6447  payable(ceo).transfer(payAmount * 9 / 10) */\n      swap1\n      dup2\n      iszero\n      mul\n      swap1\n      mload(0x40)\n      0x00\n      mload(0x40)\n      dup1\n      dup4\n      sub\n      dup2\n      dup6\n      dup9\n      dup9\n      call\n      swap4\n      pop\n      pop\n      pop\n      pop\n      iszero\n      dup1\n      iszero\n      tag_222\n      jumpi\n      returndatacopy(0x00, 0x00, returndatasize)\n      revert(0x00, returndatasize)\n    tag_222:\n      pop\n        /* \"AirlineManagement.sol\":6469:6474  false */\n      0x00\n        /* \"AirlineManagement.sol\":6457:6466  canPayout */\n      0x15\n      0x00\n        /* \"AirlineManagement.sol\":6457:6474  canPayout = false */\n      0x0100\n      exp\n      dup2\n      sload\n      dup2\n      0xff\n      mul\n      not\n      and\n      swap1\n      dup4\n      iszero\n      iszero\n      mul\n      or\n      swap1\n      sstore\n      pop\n        /* \"AirlineManagement.sol\":6496:6497  0 */\n      0x00\n        /* \"AirlineManagement.sol\":6484:6493  payAmount */\n      0x16\n        /* \"AirlineManagement.sol\":6484:6497  payAmount = 0 */\n      dup2\n      swap1\n      sstore\n      pop\n        /* \"AirlineManagement.sol\":6360:6504  function payCEO() public restricted {... */\n      jump\t// out\n        /* \"AirlineManagement.sol\":5428:6350  function getBookedFlights(address user) public view returns (Ticket[] memory) {... */\n    tag_101:\n        /* \"AirlineManagement.sol\":5489:5504  Ticket[] memory */\n      0x60\n        /* \"AirlineManagement.sol\":5516:5532  uint bookedCount */\n      0x00\n        /* \"AirlineManagement.sol\":5535:5536  0 */\n      0x00\n        /* \"AirlineManagement.sol\":5516:5536  uint bookedCount = 0 */\n      swap1\n      pop\n        /* \"AirlineManagement.sol\":5639:5651  uint tokenId */\n      0x00\n        /* \"AirlineManagement.sol\":5654:5655  0 */\n      0x00\n        /* \"AirlineManagement.sol\":5639:5655  uint tokenId = 0 */\n      swap1\n      pop\n        /* \"AirlineManagement.sol\":5634:5843  for (uint tokenId = 0; tokenId < nextTicketId; tokenId++) {... */\n    tag_224:\n        /* \"AirlineManagement.sol\":5667:5679  nextTicketId */\n      sload(0x18)\n        /* \"AirlineManagement.sol\":5657:5664  tokenId */\n      dup2\n        /* \"AirlineManagement.sol\":5657:5679  tokenId < nextTicketId */\n      lt\n        /* \"AirlineManagement.sol\":5634:5843  for (uint tokenId = 0; tokenId < nextTicketId; tokenId++) {... */\n      iszero\n      tag_225\n      jumpi\n        /* \"AirlineManagement.sol\":5742:5746  user */\n      dup4\n        /* \"AirlineManagement.sol\":5710:5746  ticketDetails[tokenId].owner == user */\n      0xffffffffffffffffffffffffffffffffffffffff\n      and\n        /* \"AirlineManagement.sol\":5710:5723  ticketDetails */\n      0x17\n        /* \"AirlineManagement.sol\":5710:5732  ticketDetails[tokenId] */\n      0x00\n        /* \"AirlineManagement.sol\":5724:5731  tokenId */\n      dup4\n        /* \"AirlineManagement.sol\":5710:5732  ticketDetails[tokenId] */\n      dup2\n      mstore\n      0x20\n      add\n      swap1\n      dup2\n      mstore\n      0x20\n      add\n      0x00\n      keccak256\n        /* \"AirlineManagement.sol\":5710:5738  ticketDetails[tokenId].owner */\n      0x00\n      add\n      0x00\n      swap1\n      sload\n      swap1\n      0x0100\n      exp\n      swap1\n      div\n      0xffffffffffffffffffffffffffffffffffffffff\n      and\n        /* \"AirlineManagement.sol\":5710:5746  ticketDetails[tokenId].owner == user */\n      0xffffffffffffffffffffffffffffffffffffffff\n      and\n      eq\n        /* \"AirlineManagement.sol\":5710:5785  ticketDetails[tokenId].owner == user && !ticketDetails[tokenId].isAvailable */\n      dup1\n      iszero\n      tag_227\n      jumpi\n      pop\n        /* \"AirlineManagement.sol\":5751:5764  ticketDetails */\n      0x17\n        /* \"AirlineManagement.sol\":5751:5773  ticketDetails[tokenId] */\n      0x00\n        /* \"AirlineManagement.sol\":5765:5772  tokenId */\n      dup3\n        /* \"AirlineManagement.sol\":5751:5773  ticketDetails[tokenId] */\n      dup2\n      mstore\n      0x20\n      add\n      swap1\n      dup2\n      mstore\n      0x20\n      add\n      0x00\n      keccak256\n        /* \"AirlineManagement.sol\":5751:5785  ticketDetails[tokenId].isAvailable */\n      0x05\n      add\n      0x01\n      swap1\n      sload\n      swap1\n      0x0100\n      exp\n      swap1\n      div\n      0xff\n      and\n        /* \"AirlineManagement.sol\":5750:5785  !ticketDetails[tokenId].isAvailable */\n      iszero\n        /* \"AirlineManagement.sol\":5710:5785  ticketDetails[tokenId].owner == user && !ticketDetails[tokenId].isAvailable */\n    tag_227:\n        /* \"AirlineManagement.sol\":5706:5833  if (ticketDetails[tokenId].owner == user && !ticketDetails[tokenId].isAvailable) {... */\n      iszero\n      tag_228\n      jumpi\n        /* \"AirlineManagement.sol\":5805:5818  bookedCount++ */\n      dup2\n      dup1\n      tag_229\n      swap1\n      tag_184\n      jump\t// in\n    tag_229:\n      swap3\n      pop\n      pop\n        /* \"AirlineManagement.sol\":5706:5833  if (ticketDetails[tokenId].owner == user && !ticketDetails[tokenId].isAvailable) {... */\n    tag_228:\n        /* \"AirlineManagement.sol\":5681:5690  tokenId++ */\n      dup1\n      dup1\n      0x01\n      add\n      swap2\n      pop\n      pop\n        /* \"AirlineManagement.sol\":5634:5843  for (uint tokenId = 0; tokenId < nextTicketId; tokenId++) {... */\n      jump(tag_224)\n    tag_225:\n      pop\n        /* \"AirlineManagement.sol\":5914:5943  Ticket[] memory bookedTickets */\n      0x00\n        /* \"AirlineManagement.sol\":5959:5970  bookedCount */\n      dup2\n        /* \"AirlineManagement.sol\":5946:5971  new Ticket[](bookedCount) */\n      0xffffffffffffffff\n      dup2\n      gt\n      iszero\n      tag_230\n      jumpi\n      tag_231\n      tag_232\n      jump\t// in\n    tag_231:\n    tag_230:\n      mload(0x40)\n      swap1\n      dup1\n      dup3\n      mstore\n      dup1\n      0x20\n      mul\n      0x20\n      add\n      dup3\n      add\n      0x40\n      mstore\n      dup1\n      iszero\n      tag_233\n      jumpi\n      dup2\n      0x20\n      add\n    tag_234:\n      tag_235\n      tag_236\n      jump\t// in\n    tag_235:\n      dup2\n      mstore\n      0x20\n      add\n      swap1\n      0x01\n      swap1\n      sub\n      swap1\n      dup2\n      tag_234\n      jumpi\n      swap1\n      pop\n    tag_233:\n      pop\n        /* \"AirlineManagement.sol\":5914:5971  Ticket[] memory bookedTickets = new Ticket[](bookedCount) */\n      swap1\n      pop\n        /* \"AirlineManagement.sol\":5981:5991  uint index */\n      0x00\n        /* \"AirlineManagement.sol\":5994:5995  0 */\n      0x00\n        /* \"AirlineManagement.sol\":5981:5995  uint index = 0 */\n      swap1\n      pop\n        /* \"AirlineManagement.sol\":6052:6064  uint tokenId */\n      0x00\n        /* \"AirlineManagement.sol\":6067:6068  0 */\n      0x00\n        /* \"AirlineManagement.sol\":6052:6068  uint tokenId = 0 */\n      swap1\n      pop\n        /* \"AirlineManagement.sol\":6047:6313  for (uint tokenId = 0; tokenId < nextTicketId; tokenId++) {... */\n    tag_237:\n        /* \"AirlineManagement.sol\":6080:6092  nextTicketId */\n      sload(0x18)\n        /* \"AirlineManagement.sol\":6070:6077  tokenId */\n      dup2\n        /* \"AirlineManagement.sol\":6070:6092  tokenId < nextTicketId */\n      lt\n        /* \"AirlineManagement.sol\":6047:6313  for (uint tokenId = 0; tokenId < nextTicketId; tokenId++) {... */\n      iszero\n      tag_238\n      jumpi\n        /* \"AirlineManagement.sol\":6155:6159  user */\n      dup6\n        /* \"AirlineManagement.sol\":6123:6159  ticketDetails[tokenId].owner == user */\n      0xffffffffffffffffffffffffffffffffffffffff\n      and\n        /* \"AirlineManagement.sol\":6123:6136  ticketDetails */\n      0x17\n        /* \"AirlineManagement.sol\":6123:6145  ticketDetails[tokenId] */\n      0x00\n        /* \"AirlineManagement.sol\":6137:6144  tokenId */\n      dup4\n        /* \"AirlineManagement.sol\":6123:6145  ticketDetails[tokenId] */\n      dup2\n      mstore\n      0x20\n      add\n      swap1\n      dup2\n      mstore\n      0x20\n      add\n      0x00\n      keccak256\n        /* \"AirlineManagement.sol\":6123:6151  ticketDetails[tokenId].owner */\n      0x00\n      add\n      0x00\n      swap1\n      sload\n      swap1\n      0x0100\n      exp\n      swap1\n      div\n      0xffffffffffffffffffffffffffffffffffffffff\n      and\n        /* \"AirlineManagement.sol\":6123:6159  ticketDetails[tokenId].owner == user */\n      0xffffffffffffffffffffffffffffffffffffffff\n      and\n      eq\n        /* \"AirlineManagement.sol\":6123:6198  ticketDetails[tokenId].owner == user && !ticketDetails[tokenId].isAvailable */\n      dup1\n      iszero\n      tag_240\n      jumpi\n      pop\n        /* \"AirlineManagement.sol\":6164:6177  ticketDetails */\n      0x17\n        /* \"AirlineManagement.sol\":6164:6186  ticketDetails[tokenId] */\n      0x00\n        /* \"AirlineManagement.sol\":6178:6185  tokenId */\n      dup3\n        /* \"AirlineManagement.sol\":6164:6186  ticketDetails[tokenId] */\n      dup2\n      mstore\n      0x20\n      add\n      swap1\n      dup2\n      mstore\n      0x20\n      add\n      0x00\n      keccak256\n        /* \"AirlineManagement.sol\":6164:6198  ticketDetails[tokenId].isAvailable */\n      0x05\n      add\n      0x01\n      swap1\n      sload\n      swap1\n      0x0100\n      exp\n      swap1\n      div\n      0xff\n      and\n        /* \"AirlineManagement.sol\":6163:6198  !ticketDetails[tokenId].isAvailable */\n      iszero\n        /* \"AirlineManagement.sol\":6123:6198  ticketDetails[tokenId].owner == user && !ticketDetails[tokenId].isAvailable */\n    tag_240:\n        /* \"AirlineManagement.sol\":6119:6303  if (ticketDetails[tokenId].owner == user && !ticketDetails[tokenId].isAvailable) {... */\n      iszero\n      tag_241\n      jumpi\n        /* \"AirlineManagement.sol\":6241:6254  ticketDetails */\n      0x17\n        /* \"AirlineManagement.sol\":6241:6263  ticketDetails[tokenId] */\n      0x00\n        /* \"AirlineManagement.sol\":6255:6262  tokenId */\n      dup3\n        /* \"AirlineManagement.sol\":6241:6263  ticketDetails[tokenId] */\n      dup2\n      mstore\n      0x20\n      add\n      swap1\n      dup2\n      mstore\n      0x20\n      add\n      0x00\n      keccak256\n        /* \"AirlineManagement.sol\":6218:6263  bookedTickets[index] = ticketDetails[tokenId] */\n      mload(0x40)\n      dup1\n      0x0100\n      add\n      0x40\n      mstore\n      swap1\n      dup2\n      0x00\n      dup3\n      add\n      0x00\n      swap1\n      sload\n      swap1\n      0x0100\n      exp\n      swap1\n      div\n      0xffffffffffffffffffffffffffffffffffffffff\n      and\n      0xffffffffffffffffffffffffffffffffffffffff\n      and\n      0xffffffffffffffffffffffffffffffffffffffff\n      and\n      dup2\n      mstore\n      0x20\n      add\n      0x01\n      dup3\n      add\n      dup1\n      sload\n      tag_242\n      swap1\n      tag_121\n      jump\t// in\n    tag_242:\n      dup1\n      0x1f\n      add\n      0x20\n      dup1\n      swap2\n      div\n      mul\n      0x20\n      add\n      mload(0x40)\n      swap1\n      dup2\n      add\n      0x40\n      mstore\n      dup1\n      swap3\n      swap2\n      swap1\n      dup2\n      dup2\n      mstore\n      0x20\n      add\n      dup3\n      dup1\n      sload\n      tag_243\n      swap1\n      tag_121\n      jump\t// in\n    tag_243:\n      dup1\n      iszero\n      tag_244\n      jumpi\n      dup1\n      0x1f\n      lt\n      tag_245\n      jumpi\n      0x0100\n      dup1\n      dup4\n      sload\n      div\n      mul\n      dup4\n      mstore\n      swap2\n      0x20\n      add\n      swap2\n      jump(tag_244)\n    tag_245:\n      dup3\n      add\n      swap2\n      swap1\n      0x00\n      mstore\n      keccak256(0x00, 0x20)\n      swap1\n    tag_246:\n      dup2\n      sload\n      dup2\n      mstore\n      swap1\n      0x01\n      add\n      swap1\n      0x20\n      add\n      dup1\n      dup4\n      gt\n      tag_246\n      jumpi\n      dup3\n      swap1\n      sub\n      0x1f\n      and\n      dup3\n      add\n      swap2\n    tag_244:\n      pop\n      pop\n      pop\n      pop\n      pop\n      dup2\n      mstore\n      0x20\n      add\n      0x02\n      dup3\n      add\n      sload\n      dup2\n      mstore\n      0x20\n      add\n      0x03\n      dup3\n      add\n      sload\n      dup2\n      mstore\n      0x20\n      add\n      0x04\n      dup3\n      add\n      dup1\n      sload\n      tag_247\n      swap1\n      tag_121\n      jump\t// in\n    tag_247:\n      dup1\n      0x1f\n      add\n      0x20\n      dup1\n      swap2\n      div\n      mul\n      0x20\n      add\n      mload(0x40)\n      swap1\n      dup2\n      add\n      0x40\n      mstore\n      dup1\n      swap3\n      swap2\n      swap1\n      dup2\n      dup2\n      mstore\n      0x20\n      add\n      dup3\n      dup1\n      sload\n      tag_248\n      swap1\n      tag_121\n      jump\t// in\n    tag_248:\n      dup1\n      iszero\n      tag_249\n      jumpi\n      dup1\n      0x1f\n      lt\n      tag_250\n      jumpi\n      0x0100\n      dup1\n      dup4\n      sload\n      div\n      mul\n      dup4\n      mstore\n      swap2\n      0x20\n      add\n      swap2\n      jump(tag_249)\n    tag_250:\n      dup3\n      add\n      swap2\n      swap1\n      0x00\n      mstore\n      keccak256(0x00, 0x20)\n      swap1\n    tag_251:\n      dup2\n      sload\n      dup2\n      mstore\n      swap1\n      0x01\n      add\n      swap1\n      0x20\n      add\n      dup1\n      dup4\n      gt\n      tag_251\n      jumpi\n      dup3\n      swap1\n      sub\n      0x1f\n      and\n      dup3\n      add\n      swap2\n    tag_249:\n      pop\n      pop\n      pop\n      pop\n      pop\n      dup2\n      mstore\n      0x20\n      add\n      0x05\n      dup3\n      add\n      0x00\n      swap1\n      sload\n      swap1\n      0x0100\n      exp\n      swap1\n      div\n      0xff\n      and\n      iszero\n      iszero\n      iszero\n      iszero\n      dup2\n      mstore\n      0x20\n      add\n      0x05\n      dup3\n      add\n      0x01\n      swap1\n      sload\n      swap1\n      0x0100\n      exp\n      swap1\n      div\n      0xff\n      and\n      iszero\n      iszero\n      iszero\n      iszero\n      dup2\n      mstore\n      0x20\n      add\n      0x06\n      dup3\n      add\n      sload\n      dup2\n      mstore\n      pop\n      pop\n        /* \"AirlineManagement.sol\":6218:6231  bookedTickets */\n      dup4\n        /* \"AirlineManagement.sol\":6232:6237  index */\n      dup4\n        /* \"AirlineManagement.sol\":6218:6238  bookedTickets[index] */\n      dup2\n      mload\n      dup2\n      lt\n      tag_252\n      jumpi\n      tag_253\n      tag_137\n      jump\t// in\n    tag_253:\n    tag_252:\n      0x20\n      mul\n      0x20\n      add\n      add\n        /* \"AirlineManagement.sol\":6218:6263  bookedTickets[index] = ticketDetails[tokenId] */\n      dup2\n      swap1\n      mstore\n      pop\n        /* \"AirlineManagement.sol\":6281:6288  index++ */\n      dup2\n      dup1\n      tag_254\n      swap1\n      tag_184\n      jump\t// in\n    tag_254:\n      swap3\n      pop\n      pop\n        /* \"AirlineManagement.sol\":6119:6303  if (ticketDetails[tokenId].owner == user && !ticketDetails[tokenId].isAvailable) {... */\n    tag_241:\n        /* \"AirlineManagement.sol\":6094:6103  tokenId++ */\n      dup1\n      dup1\n      0x01\n      add\n      swap2\n      pop\n      pop\n        /* \"AirlineManagement.sol\":6047:6313  for (uint tokenId = 0; tokenId < nextTicketId; tokenId++) {... */\n      jump(tag_237)\n    tag_238:\n      pop\n        /* \"AirlineManagement.sol\":6330:6343  bookedTickets */\n      dup2\n        /* \"AirlineManagement.sol\":6323:6343  return bookedTickets */\n      swap4\n      pop\n      pop\n      pop\n      pop\n        /* \"AirlineManagement.sol\":5428:6350  function getBookedFlights(address user) public view returns (Ticket[] memory) {... */\n      swap2\n      swap1\n      pop\n      jump\t// out\n        /* \"AirlineManagement.sol\":938:959  uint public payAmount */\n    tag_106:\n      sload(0x16)\n      dup2\n      jump\t// out\n        /* \"AirlineManagement.sol\":676:707  uint[12] public monthMultiplier */\n    tag_111:\n      0x05\n      dup2\n      0x0c\n      dup2\n      lt\n      tag_255\n      jumpi\n      0x00\n      dup1\n      revert\n    tag_255:\n      add\n      0x00\n      swap2\n      pop\n      swap1\n      pop\n      sload\n      dup2\n      jump\t// out\n        /* \"AirlineManagement.sol\":3863:5278  function bookFlight(string memory destination, uint month, uint class, bool way) public payable{... */\n    tag_115:\n        /* \"AirlineManagement.sol\":3989:4029  getPrice(destination, month, class, way) */\n      tag_258\n        /* \"AirlineManagement.sol\":3998:4009  destination */\n      dup5\n        /* \"AirlineManagement.sol\":4011:4016  month */\n      dup5\n        /* \"AirlineManagement.sol\":4018:4023  class */\n      dup5\n        /* \"AirlineManagement.sol\":4025:4028  way */\n      dup5\n        /* \"AirlineManagement.sol\":3989:3997  getPrice */\n      tag_40\n        /* \"AirlineManagement.sol\":3989:4029  getPrice(destination, month, class, way) */\n      jump\t// in\n    tag_258:\n        /* \"AirlineManagement.sol\":3976:3985  msg.value */\n      callvalue\n        /* \"AirlineManagement.sol\":3976:4029  msg.value == getPrice(destination, month, class, way) */\n      eq\n        /* \"AirlineManagement.sol\":3968:4030  require(msg.value == getPrice(destination, month, class, way)) */\n      tag_259\n      jumpi\n      revert(0x00, 0x00)\n    tag_259:\n        /* \"AirlineManagement.sol\":4142:4153  destination */\n      dup4\n        /* \"AirlineManagement.sol\":4125:4154  abi.encodePacked(destination) */\n      add(0x20, mload(0x40))\n      tag_260\n      swap2\n      swap1\n      tag_133\n      jump\t// in\n    tag_260:\n      mload(0x40)\n      0x20\n      dup2\n      dup4\n      sub\n      sub\n      dup2\n      mstore\n      swap1\n      0x40\n      mstore\n        /* \"AirlineManagement.sol\":4115:4155  keccak256(abi.encodePacked(destination)) */\n      dup1\n      mload\n      swap1\n      0x20\n      add\n      keccak256\n        /* \"AirlineManagement.sol\":4075:4087  destinations */\n      0x01\n        /* \"AirlineManagement.sol\":4088:4095  indexes */\n      0x04\n        /* \"AirlineManagement.sol\":4096:4107  destination */\n      dup7\n        /* \"AirlineManagement.sol\":4088:4108  indexes[destination] */\n      mload(0x40)\n      tag_261\n      swap2\n      swap1\n      tag_133\n      jump\t// in\n    tag_261:\n      swap1\n      dup2\n      mstore\n      0x20\n      add\n      mload(0x40)\n      dup1\n      swap2\n      sub\n      swap1\n      keccak256\n      sload\n        /* \"AirlineManagement.sol\":4075:4109  destinations[indexes[destination]] */\n      dup2\n      sload\n      dup2\n      lt\n      tag_262\n      jumpi\n      tag_263\n      tag_137\n      jump\t// in\n    tag_263:\n    tag_262:\n      swap1\n      0x00\n      mstore\n      keccak256(0x00, 0x20)\n      add\n        /* \"AirlineManagement.sol\":4058:4110  abi.encodePacked(destinations[indexes[destination]]) */\n      add(0x20, mload(0x40))\n      tag_265\n      swap2\n      swap1\n      tag_140\n      jump\t// in\n    tag_265:\n      mload(0x40)\n      0x20\n      dup2\n      dup4\n      sub\n      sub\n      dup2\n      mstore\n      swap1\n      0x40\n      mstore\n        /* \"AirlineManagement.sol\":4048:4111  keccak256(abi.encodePacked(destinations[indexes[destination]])) */\n      dup1\n      mload\n      swap1\n      0x20\n      add\n      keccak256\n        /* \"AirlineManagement.sol\":4048:4155  keccak256(abi.encodePacked(destinations[indexes[destination]])) == keccak256(abi.encodePacked(destination)) */\n      eq\n        /* \"AirlineManagement.sol\":4040:4198  require(keccak256(abi.encodePacked(destinations[indexes[destination]])) == keccak256(abi.encodePacked(destination)), \"Error: This destination doesn't exist!\") */\n      tag_266\n      jumpi\n      mload(0x40)\n      0x08c379a000000000000000000000000000000000000000000000000000000000\n      dup2\n      mstore\n      0x04\n      add\n      tag_267\n      swap1\n      tag_143\n      jump\t// in\n    tag_267:\n      mload(0x40)\n      dup1\n      swap2\n      sub\n      swap1\n      revert\n    tag_266:\n        /* \"AirlineManagement.sol\":4266:4277  bool booked */\n      0x00\n        /* \"AirlineManagement.sol\":4280:4285  false */\n      0x00\n        /* \"AirlineManagement.sol\":4266:4285  bool booked = false */\n      swap1\n      pop\n        /* \"AirlineManagement.sol\":4300:4312  uint tokenId */\n      0x00\n        /* \"AirlineManagement.sol\":4315:4316  0 */\n      0x00\n        /* \"AirlineManagement.sol\":4300:4316  uint tokenId = 0 */\n      swap1\n      pop\n        /* \"AirlineManagement.sol\":4295:5051  for (uint tokenId = 0; tokenId < nextTicketId; tokenId++) {... */\n    tag_268:\n        /* \"AirlineManagement.sol\":4328:4340  nextTicketId */\n      sload(0x18)\n        /* \"AirlineManagement.sol\":4318:4325  tokenId */\n      dup2\n        /* \"AirlineManagement.sol\":4318:4340  tokenId < nextTicketId */\n      lt\n        /* \"AirlineManagement.sol\":4295:5051  for (uint tokenId = 0; tokenId < nextTicketId; tokenId++) {... */\n      iszero\n      tag_269\n      jumpi\n        /* \"AirlineManagement.sol\":4367:4388  Ticket storage ticket */\n      0x00\n        /* \"AirlineManagement.sol\":4391:4404  ticketDetails */\n      0x17\n        /* \"AirlineManagement.sol\":4391:4413  ticketDetails[tokenId] */\n      0x00\n        /* \"AirlineManagement.sol\":4405:4412  tokenId */\n      dup4\n        /* \"AirlineManagement.sol\":4391:4413  ticketDetails[tokenId] */\n      dup2\n      mstore\n      0x20\n      add\n      swap1\n      dup2\n      mstore\n      0x20\n      add\n      0x00\n      keccak256\n        /* \"AirlineManagement.sol\":4367:4413  Ticket storage ticket = ticketDetails[tokenId] */\n      swap1\n      pop\n        /* \"AirlineManagement.sol\":4573:4584  destination */\n      dup7\n        /* \"AirlineManagement.sol\":4556:4585  abi.encodePacked(destination) */\n      add(0x20, mload(0x40))\n      tag_271\n      swap2\n      swap1\n      tag_133\n      jump\t// in\n    tag_271:\n      mload(0x40)\n      0x20\n      dup2\n      dup4\n      sub\n      sub\n      dup2\n      mstore\n      swap1\n      0x40\n      mstore\n        /* \"AirlineManagement.sol\":4546:4586  keccak256(abi.encodePacked(destination)) */\n      dup1\n      mload\n      swap1\n      0x20\n      add\n      keccak256\n        /* \"AirlineManagement.sol\":4522:4528  ticket */\n      dup2\n        /* \"AirlineManagement.sol\":4522:4540  ticket.destination */\n      0x01\n      add\n        /* \"AirlineManagement.sol\":4505:4541  abi.encodePacked(ticket.destination) */\n      add(0x20, mload(0x40))\n      tag_272\n      swap2\n      swap1\n      tag_140\n      jump\t// in\n    tag_272:\n      mload(0x40)\n      0x20\n      dup2\n      dup4\n      sub\n      sub\n      dup2\n      mstore\n      swap1\n      0x40\n      mstore\n        /* \"AirlineManagement.sol\":4495:4542  keccak256(abi.encodePacked(ticket.destination)) */\n      dup1\n      mload\n      swap1\n      0x20\n      add\n      keccak256\n        /* \"AirlineManagement.sol\":4495:4586  keccak256(abi.encodePacked(ticket.destination)) == keccak256(abi.encodePacked(destination)) */\n      eq\n        /* \"AirlineManagement.sol\":4495:4608  keccak256(abi.encodePacked(ticket.destination)) == keccak256(abi.encodePacked(destination)) && ticket.isAvailable */\n      dup1\n      iszero\n      tag_273\n      jumpi\n      pop\n        /* \"AirlineManagement.sol\":4590:4596  ticket */\n      dup1\n        /* \"AirlineManagement.sol\":4590:4608  ticket.isAvailable */\n      0x05\n      add\n      0x01\n      swap1\n      sload\n      swap1\n      0x0100\n      exp\n      swap1\n      div\n      0xff\n      and\n        /* \"AirlineManagement.sol\":4495:4608  keccak256(abi.encodePacked(ticket.destination)) == keccak256(abi.encodePacked(destination)) && ticket.isAvailable */\n    tag_273:\n        /* \"AirlineManagement.sol\":4491:5041  if (keccak256(abi.encodePacked(ticket.destination)) == keccak256(abi.encodePacked(destination)) && ticket.isAvailable) {... */\n      iszero\n      tag_274\n      jumpi\n        /* \"AirlineManagement.sol\":4706:4716  msg.sender */\n      caller\n        /* \"AirlineManagement.sol\":4691:4697  ticket */\n      dup2\n        /* \"AirlineManagement.sol\":4691:4703  ticket.owner */\n      0x00\n      add\n      0x00\n        /* \"AirlineManagement.sol\":4691:4716  ticket.owner = msg.sender */\n      0x0100\n      exp\n      dup2\n      sload\n      dup2\n      0xffffffffffffffffffffffffffffffffffffffff\n      mul\n      not\n      and\n      swap1\n      dup4\n      0xffffffffffffffffffffffffffffffffffffffff\n      and\n      mul\n      or\n      swap1\n      sstore\n      pop\n        /* \"AirlineManagement.sol\":4758:4759  1 */\n      0x01\n        /* \"AirlineManagement.sol\":4749:4754  class */\n      dup6\n        /* \"AirlineManagement.sol\":4749:4759  class == 1 */\n      eq\n        /* \"AirlineManagement.sol\":4749:4807  class == 1 ? \"Economy\" : class == 2 ? \"Business\" : \"First\" */\n      tag_275\n      jumpi\n        /* \"AirlineManagement.sol\":4783:4784  2 */\n      0x02\n        /* \"AirlineManagement.sol\":4774:4779  class */\n      dup6\n        /* \"AirlineManagement.sol\":4774:4784  class == 2 */\n      eq\n        /* \"AirlineManagement.sol\":4774:4807  class == 2 ? \"Business\" : \"First\" */\n      tag_276\n      jumpi\n      mload(0x40)\n      dup1\n      0x40\n      add\n      0x40\n      mstore\n      dup1\n      0x05\n      dup2\n      mstore\n      0x20\n      add\n      0x4669727374000000000000000000000000000000000000000000000000000000\n      dup2\n      mstore\n      pop\n      jump(tag_277)\n    tag_276:\n      mload(0x40)\n      dup1\n      0x40\n      add\n      0x40\n      mstore\n      dup1\n      0x08\n      dup2\n      mstore\n      0x20\n      add\n      0x427573696e657373000000000000000000000000000000000000000000000000\n      dup2\n      mstore\n      pop\n    tag_277:\n        /* \"AirlineManagement.sol\":4749:4807  class == 1 ? \"Economy\" : class == 2 ? \"Business\" : \"First\" */\n      jump(tag_278)\n    tag_275:\n      mload(0x40)\n      dup1\n      0x40\n      add\n      0x40\n      mstore\n      dup1\n      0x07\n      dup2\n      mstore\n      0x20\n      add\n      0x45636f6e6f6d7900000000000000000000000000000000000000000000000000\n      dup2\n      mstore\n      pop\n    tag_278:\n        /* \"AirlineManagement.sol\":4734:4740  ticket */\n      dup2\n        /* \"AirlineManagement.sol\":4734:4746  ticket.class */\n      0x04\n      add\n        /* \"AirlineManagement.sol\":4734:4807  ticket.class = class == 1 ? \"Economy\" : class == 2 ? \"Business\" : \"First\" */\n      swap1\n      dup2\n      tag_279\n      swap2\n      swap1\n      tag_181\n      jump\t// in\n    tag_279:\n      pop\n        /* \"AirlineManagement.sol\":4844:4847  way */\n      dup4\n        /* \"AirlineManagement.sol\":4825:4831  ticket */\n      dup2\n        /* \"AirlineManagement.sol\":4825:4841  ticket.roundTrip */\n      0x05\n      add\n      0x00\n        /* \"AirlineManagement.sol\":4825:4847  ticket.roundTrip = way */\n      0x0100\n      exp\n      dup2\n      sload\n      dup2\n      0xff\n      mul\n      not\n      and\n      swap1\n      dup4\n      iszero\n      iszero\n      mul\n      or\n      swap1\n      sstore\n      pop\n        /* \"AirlineManagement.sol\":4886:4891  false */\n      0x00\n        /* \"AirlineManagement.sol\":4865:4871  ticket */\n      dup2\n        /* \"AirlineManagement.sol\":4865:4883  ticket.isAvailable */\n      0x05\n      add\n      0x01\n        /* \"AirlineManagement.sol\":4865:4891  ticket.isAvailable = false */\n      0x0100\n      exp\n      dup2\n      sload\n      dup2\n      0xff\n      mul\n      not\n      and\n      swap1\n      dup4\n      iszero\n      iszero\n      mul\n      or\n      swap1\n      sstore\n      pop\n        /* \"AirlineManagement.sol\":4924:4929  month */\n      dup6\n        /* \"AirlineManagement.sol\":4909:4915  ticket */\n      dup2\n        /* \"AirlineManagement.sol\":4909:4921  ticket.month */\n      0x06\n      add\n        /* \"AirlineManagement.sol\":4909:4929  ticket.month = month */\n      dup2\n      swap1\n      sstore\n      pop\n        /* \"AirlineManagement.sol\":4962:4971  msg.value */\n      callvalue\n        /* \"AirlineManagement.sol\":4947:4953  ticket */\n      dup2\n        /* \"AirlineManagement.sol\":4947:4959  ticket.price */\n      0x02\n      add\n        /* \"AirlineManagement.sol\":4947:4971  ticket.price = msg.value */\n      dup2\n      swap1\n      sstore\n      pop\n        /* \"AirlineManagement.sol\":4999:5003  true */\n      0x01\n        /* \"AirlineManagement.sol\":4990:5003  booked = true */\n      swap3\n      pop\n        /* \"AirlineManagement.sol\":5021:5026  break */\n      pop\n      jump(tag_269)\n        /* \"AirlineManagement.sol\":4491:5041  if (keccak256(abi.encodePacked(ticket.destination)) == keccak256(abi.encodePacked(destination)) && ticket.isAvailable) {... */\n    tag_274:\n        /* \"AirlineManagement.sol\":4353:5051  {... */\n      pop\n        /* \"AirlineManagement.sol\":4342:4351  tokenId++ */\n      dup1\n      dup1\n      0x01\n      add\n      swap2\n      pop\n      pop\n        /* \"AirlineManagement.sol\":4295:5051  for (uint tokenId = 0; tokenId < nextTicketId; tokenId++) {... */\n      jump(tag_268)\n    tag_269:\n      pop\n        /* \"AirlineManagement.sol\":5110:5116  booked */\n      dup1\n        /* \"AirlineManagement.sol\":5102:5171  require(booked, \"No available tickets for the specified destination\") */\n      tag_280\n      jumpi\n      mload(0x40)\n      0x08c379a000000000000000000000000000000000000000000000000000000000\n      dup2\n      mstore\n      0x04\n      add\n      tag_281\n      swap1\n      tag_282\n      jump\t// in\n    tag_281:\n      mload(0x40)\n      dup1\n      swap2\n      sub\n      swap1\n      revert\n    tag_280:\n        /* \"AirlineManagement.sol\":5181:5186  seats */\n      0x03\n        /* \"AirlineManagement.sol\":5187:5194  indexes */\n      0x04\n        /* \"AirlineManagement.sol\":5195:5206  destination */\n      dup7\n        /* \"AirlineManagement.sol\":5187:5207  indexes[destination] */\n      mload(0x40)\n      tag_283\n      swap2\n      swap1\n      tag_133\n      jump\t// in\n    tag_283:\n      swap1\n      dup2\n      mstore\n      0x20\n      add\n      mload(0x40)\n      dup1\n      swap2\n      sub\n      swap1\n      keccak256\n      sload\n        /* \"AirlineManagement.sol\":5181:5208  seats[indexes[destination]] */\n      dup2\n      sload\n      dup2\n      lt\n      tag_284\n      jumpi\n      tag_285\n      tag_137\n      jump\t// in\n    tag_285:\n    tag_284:\n      swap1\n      0x00\n      mstore\n      keccak256(0x00, 0x20)\n      add\n      0x00\n        /* \"AirlineManagement.sol\":5181:5210  seats[indexes[destination]]-- */\n      dup2\n      sload\n      dup1\n      swap3\n      swap2\n      swap1\n      tag_287\n      swap1\n      tag_288\n      jump\t// in\n    tag_287:\n      swap2\n      swap1\n      pop\n      sstore\n      pop\n        /* \"AirlineManagement.sol\":5235:5244  msg.value */\n      callvalue\n        /* \"AirlineManagement.sol\":5221:5230  payAmount */\n      0x16\n      0x00\n        /* \"AirlineManagement.sol\":5221:5245  payAmount += (msg.value) */\n      dup3\n      dup3\n      sload\n      tag_289\n      swap2\n      swap1\n      tag_290\n      jump\t// in\n    tag_289:\n      swap3\n      pop\n      pop\n      dup2\n      swap1\n      sstore\n      pop\n        /* \"AirlineManagement.sol\":5267:5271  true */\n      0x01\n        /* \"AirlineManagement.sol\":5255:5264  canPayout */\n      0x15\n      0x00\n        /* \"AirlineManagement.sol\":5255:5271  canPayout = true */\n      0x0100\n      exp\n      dup2\n      sload\n      dup2\n      0xff\n      mul\n      not\n      and\n      swap1\n      dup4\n      iszero\n      iszero\n      mul\n      or\n      swap1\n      sstore\n      pop\n        /* \"AirlineManagement.sol\":3958:5278  {... */\n      pop\n        /* \"AirlineManagement.sol\":3863:5278  function bookFlight(string memory destination, uint month, uint class, bool way) public payable{... */\n      pop\n      pop\n      pop\n      pop\n      jump\t// out\n        /* \"AirlineManagement.sol\":880:901  bool public canPayout */\n    tag_118:\n      0x15\n      0x00\n      swap1\n      sload\n      swap1\n      0x0100\n      exp\n      swap1\n      div\n      0xff\n      and\n      dup2\n      jump\t// out\n    tag_236:\n      mload(0x40)\n      dup1\n      0x0100\n      add\n      0x40\n      mstore\n      dup1\n      and(0xffffffffffffffffffffffffffffffffffffffff, 0x00)\n      dup2\n      mstore\n      0x20\n      add\n      0x60\n      dup2\n      mstore\n      0x20\n      add\n      0x00\n      dup2\n      mstore\n      0x20\n      add\n      0x00\n      dup2\n      mstore\n      0x20\n      add\n      0x60\n      dup2\n      mstore\n      0x20\n      add\n      iszero(iszero(0x00))\n      dup2\n      mstore\n      0x20\n      add\n      iszero(iszero(0x00))\n      dup2\n      mstore\n      0x20\n      add\n      0x00\n      dup2\n      mstore\n      pop\n      swap1\n      jump\t// out\n        /* \"#utility.yul\":7:82   */\n    tag_291:\n        /* \"#utility.yul\":40:46   */\n      0x00\n        /* \"#utility.yul\":73:75   */\n      0x40\n        /* \"#utility.yul\":67:76   */\n      mload\n        /* \"#utility.yul\":57:76   */\n      swap1\n      pop\n        /* \"#utility.yul\":7:82   */\n      swap1\n      jump\t// out\n        /* \"#utility.yul\":88:205   */\n    tag_292:\n        /* \"#utility.yul\":197:198   */\n      0x00\n        /* \"#utility.yul\":194:195   */\n      0x00\n        /* \"#utility.yul\":187:199   */\n      revert\n        /* \"#utility.yul\":211:328   */\n    tag_293:\n        /* \"#utility.yul\":320:321   */\n      0x00\n        /* \"#utility.yul\":317:318   */\n      0x00\n        /* \"#utility.yul\":310:322   */\n      revert\n        /* \"#utility.yul\":334:411   */\n    tag_294:\n        /* \"#utility.yul\":371:378   */\n      0x00\n        /* \"#utility.yul\":400:405   */\n      dup2\n        /* \"#utility.yul\":389:405   */\n      swap1\n      pop\n        /* \"#utility.yul\":334:411   */\n      swap2\n      swap1\n      pop\n      jump\t// out\n        /* \"#utility.yul\":417:539   */\n    tag_295:\n        /* \"#utility.yul\":490:514   */\n      tag_369\n        /* \"#utility.yul\":508:513   */\n      dup2\n        /* \"#utility.yul\":490:514   */\n      tag_294\n      jump\t// in\n    tag_369:\n        /* \"#utility.yul\":483:488   */\n      dup2\n        /* \"#utility.yul\":480:515   */\n      eq\n        /* \"#utility.yul\":470:533   */\n      tag_370\n      jumpi\n        /* \"#utility.yul\":529:530   */\n      0x00\n        /* \"#utility.yul\":526:527   */\n      0x00\n        /* \"#utility.yul\":519:531   */\n      revert\n        /* \"#utility.yul\":470:533   */\n    tag_370:\n        /* \"#utility.yul\":417:539   */\n      pop\n      jump\t// out\n        /* \"#utility.yul\":545:684   */\n    tag_296:\n        /* \"#utility.yul\":591:596   */\n      0x00\n        /* \"#utility.yul\":629:635   */\n      dup2\n        /* \"#utility.yul\":616:636   */\n      calldataload\n        /* \"#utility.yul\":607:636   */\n      swap1\n      pop\n        /* \"#utility.yul\":645:678   */\n      tag_372\n        /* \"#utility.yul\":672:677   */\n      dup2\n        /* \"#utility.yul\":645:678   */\n      tag_295\n      jump\t// in\n    tag_372:\n        /* \"#utility.yul\":545:684   */\n      swap3\n      swap2\n      pop\n      pop\n      jump\t// out\n        /* \"#utility.yul\":690:1019   */\n    tag_27:\n        /* \"#utility.yul\":749:755   */\n      0x00\n        /* \"#utility.yul\":798:800   */\n      0x20\n        /* \"#utility.yul\":786:795   */\n      dup3\n        /* \"#utility.yul\":777:784   */\n      dup5\n        /* \"#utility.yul\":773:796   */\n      sub\n        /* \"#utility.yul\":769:801   */\n      slt\n        /* \"#utility.yul\":766:885   */\n      iszero\n      tag_374\n      jumpi\n        /* \"#utility.yul\":804:883   */\n      tag_375\n      tag_292\n      jump\t// in\n    tag_375:\n        /* \"#utility.yul\":766:885   */\n    tag_374:\n        /* \"#utility.yul\":924:925   */\n      0x00\n        /* \"#utility.yul\":949:1002   */\n      tag_376\n        /* \"#utility.yul\":994:1001   */\n      dup5\n        /* \"#utility.yul\":985:991   */\n      dup3\n        /* \"#utility.yul\":974:983   */\n      dup6\n        /* \"#utility.yul\":970:992   */\n      add\n        /* \"#utility.yul\":949:1002   */\n      tag_296\n      jump\t// in\n    tag_376:\n        /* \"#utility.yul\":939:1002   */\n      swap2\n      pop\n        /* \"#utility.yul\":895:1012   */\n      pop\n        /* \"#utility.yul\":690:1019   */\n      swap3\n      swap2\n      pop\n      pop\n      jump\t// out\n        /* \"#utility.yul\":1025:1151   */\n    tag_297:\n        /* \"#utility.yul\":1062:1069   */\n      0x00\n        /* \"#utility.yul\":1102:1144   */\n      0xffffffffffffffffffffffffffffffffffffffff\n        /* \"#utility.yul\":1095:1100   */\n      dup3\n        /* \"#utility.yul\":1091:1145   */\n      and\n        /* \"#utility.yul\":1080:1145   */\n      swap1\n      pop\n        /* \"#utility.yul\":1025:1151   */\n      swap2\n      swap1\n      pop\n      jump\t// out\n        /* \"#utility.yul\":1157:1253   */\n    tag_298:\n        /* \"#utility.yul\":1194:1201   */\n      0x00\n        /* \"#utility.yul\":1223:1247   */\n      tag_379\n        /* \"#utility.yul\":1241:1246   */\n      dup3\n        /* \"#utility.yul\":1223:1247   */\n      tag_297\n      jump\t// in\n    tag_379:\n        /* \"#utility.yul\":1212:1247   */\n      swap1\n      pop\n        /* \"#utility.yul\":1157:1253   */\n      swap2\n      swap1\n      pop\n      jump\t// out\n        /* \"#utility.yul\":1259:1377   */\n    tag_299:\n        /* \"#utility.yul\":1346:1370   */\n      tag_381\n        /* \"#utility.yul\":1364:1369   */\n      dup2\n        /* \"#utility.yul\":1346:1370   */\n      tag_298\n      jump\t// in\n    tag_381:\n        /* \"#utility.yul\":1341:1344   */\n      dup3\n        /* \"#utility.yul\":1334:1371   */\n      mstore\n        /* \"#utility.yul\":1259:1377   */\n      pop\n      pop\n      jump\t// out\n        /* \"#utility.yul\":1383:1482   */\n    tag_300:\n        /* \"#utility.yul\":1435:1441   */\n      0x00\n        /* \"#utility.yul\":1469:1474   */\n      dup2\n        /* \"#utility.yul\":1463:1475   */\n      mload\n        /* \"#utility.yul\":1453:1475   */\n      swap1\n      pop\n        /* \"#utility.yul\":1383:1482   */\n      swap2\n      swap1\n      pop\n      jump\t// out\n        /* \"#utility.yul\":1488:1657   */\n    tag_301:\n        /* \"#utility.yul\":1572:1583   */\n      0x00\n        /* \"#utility.yul\":1606:1612   */\n      dup3\n        /* \"#utility.yul\":1601:1604   */\n      dup3\n        /* \"#utility.yul\":1594:1613   */\n      mstore\n        /* \"#utility.yul\":1646:1650   */\n      0x20\n        /* \"#utility.yul\":1641:1644   */\n      dup3\n        /* \"#utility.yul\":1637:1651   */\n      add\n        /* \"#utility.yul\":1622:1651   */\n      swap1\n      pop\n        /* \"#utility.yul\":1488:1657   */\n      swap3\n      swap2\n      pop\n      pop\n      jump\t// out\n        /* \"#utility.yul\":1663:1802   */\n    tag_302:\n        /* \"#utility.yul\":1752:1758   */\n      dup3\n        /* \"#utility.yul\":1747:1750   */\n      dup2\n        /* \"#utility.yul\":1742:1745   */\n      dup4\n        /* \"#utility.yul\":1736:1759   */\n      mcopy\n        /* \"#utility.yul\":1793:1794   */\n      0x00\n        /* \"#utility.yul\":1784:1790   */\n      dup4\n        /* \"#utility.yul\":1779:1782   */\n      dup4\n        /* \"#utility.yul\":1775:1791   */\n      add\n        /* \"#utility.yul\":1768:1795   */\n      mstore\n        /* \"#utility.yul\":1663:1802   */\n      pop\n      pop\n      pop\n      jump\t// out\n        /* \"#utility.yul\":1808:1910   */\n    tag_303:\n        /* \"#utility.yul\":1849:1855   */\n      0x00\n        /* \"#utility.yul\":1900:1902   */\n      0x1f\n        /* \"#utility.yul\":1896:1903   */\n      not\n        /* \"#utility.yul\":1891:1893   */\n      0x1f\n        /* \"#utility.yul\":1884:1889   */\n      dup4\n        /* \"#utility.yul\":1880:1894   */\n      add\n        /* \"#utility.yul\":1876:1904   */\n      and\n        /* \"#utility.yul\":1866:1904   */\n      swap1\n      pop\n        /* \"#utility.yul\":1808:1910   */\n      swap2\n      swap1\n      pop\n      jump\t// out\n        /* \"#utility.yul\":1916:2293   */\n    tag_304:\n        /* \"#utility.yul\":2004:2007   */\n      0x00\n        /* \"#utility.yul\":2032:2071   */\n      tag_387\n        /* \"#utility.yul\":2065:2070   */\n      dup3\n        /* \"#utility.yul\":2032:2071   */\n      tag_300\n      jump\t// in\n    tag_387:\n        /* \"#utility.yul\":2087:2158   */\n      tag_388\n        /* \"#utility.yul\":2151:2157   */\n      dup2\n        /* \"#utility.yul\":2146:2149   */\n      dup6\n        /* \"#utility.yul\":2087:2158   */\n      tag_301\n      jump\t// in\n    tag_388:\n        /* \"#utility.yul\":2080:2158   */\n      swap4\n      pop\n        /* \"#utility.yul\":2167:2232   */\n      tag_389\n        /* \"#utility.yul\":2225:2231   */\n      dup2\n        /* \"#utility.yul\":2220:2223   */\n      dup6\n        /* \"#utility.yul\":2213:2217   */\n      0x20\n        /* \"#utility.yul\":2206:2211   */\n      dup7\n        /* \"#utility.yul\":2202:2218   */\n      add\n        /* \"#utility.yul\":2167:2232   */\n      tag_302\n      jump\t// in\n    tag_389:\n        /* \"#utility.yul\":2257:2286   */\n      tag_390\n        /* \"#utility.yul\":2279:2285   */\n      dup2\n        /* \"#utility.yul\":2257:2286   */\n      tag_303\n      jump\t// in\n    tag_390:\n        /* \"#utility.yul\":2252:2255   */\n      dup5\n        /* \"#utility.yul\":2248:2287   */\n      add\n        /* \"#utility.yul\":2241:2287   */\n      swap2\n      pop\n        /* \"#utility.yul\":2008:2293   */\n      pop\n        /* \"#utility.yul\":1916:2293   */\n      swap3\n      swap2\n      pop\n      pop\n      jump\t// out\n        /* \"#utility.yul\":2299:2417   */\n    tag_305:\n        /* \"#utility.yul\":2386:2410   */\n      tag_392\n        /* \"#utility.yul\":2404:2409   */\n      dup2\n        /* \"#utility.yul\":2386:2410   */\n      tag_294\n      jump\t// in\n    tag_392:\n        /* \"#utility.yul\":2381:2384   */\n      dup3\n        /* \"#utility.yul\":2374:2411   */\n      mstore\n        /* \"#utility.yul\":2299:2417   */\n      pop\n      pop\n      jump\t// out\n        /* \"#utility.yul\":2423:2513   */\n    tag_306:\n        /* \"#utility.yul\":2457:2464   */\n      0x00\n        /* \"#utility.yul\":2500:2505   */\n      dup2\n        /* \"#utility.yul\":2493:2506   */\n      iszero\n        /* \"#utility.yul\":2486:2507   */\n      iszero\n        /* \"#utility.yul\":2475:2507   */\n      swap1\n      pop\n        /* \"#utility.yul\":2423:2513   */\n      swap2\n      swap1\n      pop\n      jump\t// out\n        /* \"#utility.yul\":2519:2628   */\n    tag_307:\n        /* \"#utility.yul\":2600:2621   */\n      tag_395\n        /* \"#utility.yul\":2615:2620   */\n      dup2\n        /* \"#utility.yul\":2600:2621   */\n      tag_306\n      jump\t// in\n    tag_395:\n        /* \"#utility.yul\":2595:2598   */\n      dup3\n        /* \"#utility.yul\":2588:2622   */\n      mstore\n        /* \"#utility.yul\":2519:2628   */\n      pop\n      pop\n      jump\t// out\n        /* \"#utility.yul\":2634:3789   */\n    tag_30:\n        /* \"#utility.yul\":2951:2955   */\n      0x00\n        /* \"#utility.yul\":2989:2992   */\n      0x0100\n        /* \"#utility.yul\":2978:2987   */\n      dup3\n        /* \"#utility.yul\":2974:2993   */\n      add\n        /* \"#utility.yul\":2966:2993   */\n      swap1\n      pop\n        /* \"#utility.yul\":3003:3074   */\n      tag_397\n        /* \"#utility.yul\":3071:3072   */\n      0x00\n        /* \"#utility.yul\":3060:3069   */\n      dup4\n        /* \"#utility.yul\":3056:3073   */\n      add\n        /* \"#utility.yul\":3047:3053   */\n      dup12\n        /* \"#utility.yul\":3003:3074   */\n      tag_299\n      jump\t// in\n    tag_397:\n        /* \"#utility.yul\":3121:3130   */\n      dup2\n        /* \"#utility.yul\":3115:3119   */\n      dup2\n        /* \"#utility.yul\":3111:3131   */\n      sub\n        /* \"#utility.yul\":3106:3108   */\n      0x20\n        /* \"#utility.yul\":3095:3104   */\n      dup4\n        /* \"#utility.yul\":3091:3109   */\n      add\n        /* \"#utility.yul\":3084:3132   */\n      mstore\n        /* \"#utility.yul\":3149:3227   */\n      tag_398\n        /* \"#utility.yul\":3222:3226   */\n      dup2\n        /* \"#utility.yul\":3213:3219   */\n      dup11\n        /* \"#utility.yul\":3149:3227   */\n      tag_304\n      jump\t// in\n    tag_398:\n        /* \"#utility.yul\":3141:3227   */\n      swap1\n      pop\n        /* \"#utility.yul\":3237:3309   */\n      tag_399\n        /* \"#utility.yul\":3305:3307   */\n      0x40\n        /* \"#utility.yul\":3294:3303   */\n      dup4\n        /* \"#utility.yul\":3290:3308   */\n      add\n        /* \"#utility.yul\":3281:3287   */\n      dup10\n        /* \"#utility.yul\":3237:3309   */\n      tag_305\n      jump\t// in\n    tag_399:\n        /* \"#utility.yul\":3319:3391   */\n      tag_400\n        /* \"#utility.yul\":3387:3389   */\n      0x60\n        /* \"#utility.yul\":3376:3385   */\n      dup4\n        /* \"#utility.yul\":3372:3390   */\n      add\n        /* \"#utility.yul\":3363:3369   */\n      dup9\n        /* \"#utility.yul\":3319:3391   */\n      tag_305\n      jump\t// in\n    tag_400:\n        /* \"#utility.yul\":3439:3448   */\n      dup2\n        /* \"#utility.yul\":3433:3437   */\n      dup2\n        /* \"#utility.yul\":3429:3449   */\n      sub\n        /* \"#utility.yul\":3423:3426   */\n      0x80\n        /* \"#utility.yul\":3412:3421   */\n      dup4\n        /* \"#utility.yul\":3408:3427   */\n      add\n        /* \"#utility.yul\":3401:3450   */\n      mstore\n        /* \"#utility.yul\":3467:3545   */\n      tag_401\n        /* \"#utility.yul\":3540:3544   */\n      dup2\n        /* \"#utility.yul\":3531:3537   */\n      dup8\n        /* \"#utility.yul\":3467:3545   */\n      tag_304\n      jump\t// in\n    tag_401:\n        /* \"#utility.yul\":3459:3545   */\n      swap1\n      pop\n        /* \"#utility.yul\":3555:3622   */\n      tag_402\n        /* \"#utility.yul\":3617:3620   */\n      0xa0\n        /* \"#utility.yul\":3606:3615   */\n      dup4\n        /* \"#utility.yul\":3602:3621   */\n      add\n        /* \"#utility.yul\":3593:3599   */\n      dup7\n        /* \"#utility.yul\":3555:3622   */\n      tag_307\n      jump\t// in\n    tag_402:\n        /* \"#utility.yul\":3632:3699   */\n      tag_403\n        /* \"#utility.yul\":3694:3697   */\n      0xc0\n        /* \"#utility.yul\":3683:3692   */\n      dup4\n        /* \"#utility.yul\":3679:3698   */\n      add\n        /* \"#utility.yul\":3670:3676   */\n      dup6\n        /* \"#utility.yul\":3632:3699   */\n      tag_307\n      jump\t// in\n    tag_403:\n        /* \"#utility.yul\":3709:3782   */\n      tag_404\n        /* \"#utility.yul\":3777:3780   */\n      0xe0\n        /* \"#utility.yul\":3766:3775   */\n      dup4\n        /* \"#utility.yul\":3762:3781   */\n      add\n        /* \"#utility.yul\":3753:3759   */\n      dup5\n        /* \"#utility.yul\":3709:3782   */\n      tag_305\n      jump\t// in\n    tag_404:\n        /* \"#utility.yul\":2634:3789   */\n      swap10\n      swap9\n      pop\n      pop\n      pop\n      pop\n      pop\n      pop\n      pop\n      pop\n      pop\n      jump\t// out\n        /* \"#utility.yul\":3795:4017   */\n    tag_35:\n        /* \"#utility.yul\":3888:3892   */\n      0x00\n        /* \"#utility.yul\":3926:3928   */\n      0x20\n        /* \"#utility.yul\":3915:3924   */\n      dup3\n        /* \"#utility.yul\":3911:3929   */\n      add\n        /* \"#utility.yul\":3903:3929   */\n      swap1\n      pop\n        /* \"#utility.yul\":3939:4010   */\n      tag_406\n        /* \"#utility.yul\":4007:4008   */\n      0x00\n        /* \"#utility.yul\":3996:4005   */\n      dup4\n        /* \"#utility.yul\":3992:4009   */\n      add\n        /* \"#utility.yul\":3983:3989   */\n      dup5\n        /* \"#utility.yul\":3939:4010   */\n      tag_305\n      jump\t// in\n    tag_406:\n        /* \"#utility.yul\":3795:4017   */\n      swap3\n      swap2\n      pop\n      pop\n      jump\t// out\n        /* \"#utility.yul\":4023:4140   */\n    tag_308:\n        /* \"#utility.yul\":4132:4133   */\n      0x00\n        /* \"#utility.yul\":4129:4130   */\n      0x00\n        /* \"#utility.yul\":4122:4134   */\n      revert\n        /* \"#utility.yul\":4146:4263   */\n    tag_309:\n        /* \"#utility.yul\":4255:4256   */\n      0x00\n        /* \"#utility.yul\":4252:4253   */\n      0x00\n        /* \"#utility.yul\":4245:4257   */\n      revert\n        /* \"#utility.yul\":4269:4449   */\n    tag_232:\n        /* \"#utility.yul\":4317:4394   */\n      0x4e487b7100000000000000000000000000000000000000000000000000000000\n        /* \"#utility.yul\":4314:4315   */\n      0x00\n        /* \"#utility.yul\":4307:4395   */\n      mstore\n        /* \"#utility.yul\":4414:4418   */\n      0x41\n        /* \"#utility.yul\":4411:4412   */\n      0x04\n        /* \"#utility.yul\":4404:4419   */\n      mstore\n        /* \"#utility.yul\":4438:4442   */\n      0x24\n        /* \"#utility.yul\":4435:4436   */\n      0x00\n        /* \"#utility.yul\":4428:4443   */\n      revert\n        /* \"#utility.yul\":4455:4736   */\n    tag_310:\n        /* \"#utility.yul\":4538:4565   */\n      tag_411\n        /* \"#utility.yul\":4560:4564   */\n      dup3\n        /* \"#utility.yul\":4538:4565   */\n      tag_303\n      jump\t// in\n    tag_411:\n        /* \"#utility.yul\":4530:4536   */\n      dup2\n        /* \"#utility.yul\":4526:4566   */\n      add\n        /* \"#utility.yul\":4668:4674   */\n      dup2\n        /* \"#utility.yul\":4656:4666   */\n      dup2\n        /* \"#utility.yul\":4653:4675   */\n      lt\n        /* \"#utility.yul\":4632:4650   */\n      0xffffffffffffffff\n        /* \"#utility.yul\":4620:4630   */\n      dup3\n        /* \"#utility.yul\":4617:4651   */\n      gt\n        /* \"#utility.yul\":4614:4676   */\n      or\n        /* \"#utility.yul\":4611:4699   */\n      iszero\n      tag_412\n      jumpi\n        /* \"#utility.yul\":4679:4697   */\n      tag_413\n      tag_232\n      jump\t// in\n    tag_413:\n        /* \"#utility.yul\":4611:4699   */\n    tag_412:\n        /* \"#utility.yul\":4719:4729   */\n      dup1\n        /* \"#utility.yul\":4715:4717   */\n      0x40\n        /* \"#utility.yul\":4708:4730   */\n      mstore\n        /* \"#utility.yul\":4498:4736   */\n      pop\n        /* \"#utility.yul\":4455:4736   */\n      pop\n      pop\n      jump\t// out\n        /* \"#utility.yul\":4742:4871   */\n    tag_311:\n        /* \"#utility.yul\":4776:4782   */\n      0x00\n        /* \"#utility.yul\":4803:4823   */\n      tag_415\n      tag_291\n      jump\t// in\n    tag_415:\n        /* \"#utility.yul\":4793:4823   */\n      swap1\n      pop\n        /* \"#utility.yul\":4832:4865   */\n      tag_416\n        /* \"#utility.yul\":4860:4864   */\n      dup3\n        /* \"#utility.yul\":4852:4858   */\n      dup3\n        /* \"#utility.yul\":4832:4865   */\n      tag_310\n      jump\t// in\n    tag_416:\n        /* \"#utility.yul\":4742:4871   */\n      swap2\n      swap1\n      pop\n      jump\t// out\n        /* \"#utility.yul\":4877:5185   */\n    tag_312:\n        /* \"#utility.yul\":4939:4943   */\n      0x00\n        /* \"#utility.yul\":5029:5047   */\n      0xffffffffffffffff\n        /* \"#utility.yul\":5021:5027   */\n      dup3\n        /* \"#utility.yul\":5018:5048   */\n      gt\n        /* \"#utility.yul\":5015:5071   */\n      iszero\n      tag_418\n      jumpi\n        /* \"#utility.yul\":5051:5069   */\n      tag_419\n      tag_232\n      jump\t// in\n    tag_419:\n        /* \"#utility.yul\":5015:5071   */\n    tag_418:\n        /* \"#utility.yul\":5089:5118   */\n      tag_420\n        /* \"#utility.yul\":5111:5117   */\n      dup3\n        /* \"#utility.yul\":5089:5118   */\n      tag_303\n      jump\t// in\n    tag_420:\n        /* \"#utility.yul\":5081:5118   */\n      swap1\n      pop\n        /* \"#utility.yul\":5173:5177   */\n      0x20\n        /* \"#utility.yul\":5167:5171   */\n      dup2\n        /* \"#utility.yul\":5163:5178   */\n      add\n        /* \"#utility.yul\":5155:5178   */\n      swap1\n      pop\n        /* \"#utility.yul\":4877:5185   */\n      swap2\n      swap1\n      pop\n      jump\t// out\n        /* \"#utility.yul\":5191:5339   */\n    tag_313:\n        /* \"#utility.yul\":5289:5295   */\n      dup3\n        /* \"#utility.yul\":5284:5287   */\n      dup2\n        /* \"#utility.yul\":5279:5282   */\n      dup4\n        /* \"#utility.yul\":5266:5296   */\n      calldatacopy\n        /* \"#utility.yul\":5330:5331   */\n      0x00\n        /* \"#utility.yul\":5321:5327   */\n      dup4\n        /* \"#utility.yul\":5316:5319   */\n      dup4\n        /* \"#utility.yul\":5312:5328   */\n      add\n        /* \"#utility.yul\":5305:5332   */\n      mstore\n        /* \"#utility.yul\":5191:5339   */\n      pop\n      pop\n      pop\n      jump\t// out\n        /* \"#utility.yul\":5345:5770   */\n    tag_314:\n        /* \"#utility.yul\":5423:5428   */\n      0x00\n        /* \"#utility.yul\":5448:5514   */\n      tag_423\n        /* \"#utility.yul\":5464:5513   */\n      tag_424\n        /* \"#utility.yul\":5506:5512   */\n      dup5\n        /* \"#utility.yul\":5464:5513   */\n      tag_312\n      jump\t// in\n    tag_424:\n        /* \"#utility.yul\":5448:5514   */\n      tag_311\n      jump\t// in\n    tag_423:\n        /* \"#utility.yul\":5439:5514   */\n      swap1\n      pop\n        /* \"#utility.yul\":5537:5543   */\n      dup3\n        /* \"#utility.yul\":5530:5535   */\n      dup2\n        /* \"#utility.yul\":5523:5544   */\n      mstore\n        /* \"#utility.yul\":5575:5579   */\n      0x20\n        /* \"#utility.yul\":5568:5573   */\n      dup2\n        /* \"#utility.yul\":5564:5580   */\n      add\n        /* \"#utility.yul\":5613:5616   */\n      dup5\n        /* \"#utility.yul\":5604:5610   */\n      dup5\n        /* \"#utility.yul\":5599:5602   */\n      dup5\n        /* \"#utility.yul\":5595:5611   */\n      add\n        /* \"#utility.yul\":5592:5617   */\n      gt\n        /* \"#utility.yul\":5589:5701   */\n      iszero\n      tag_425\n      jumpi\n        /* \"#utility.yul\":5620:5699   */\n      tag_426\n      tag_309\n      jump\t// in\n    tag_426:\n        /* \"#utility.yul\":5589:5701   */\n    tag_425:\n        /* \"#utility.yul\":5710:5764   */\n      tag_427\n        /* \"#utility.yul\":5757:5763   */\n      dup5\n        /* \"#utility.yul\":5752:5755   */\n      dup3\n        /* \"#utility.yul\":5747:5750   */\n      dup6\n        /* \"#utility.yul\":5710:5764   */\n      tag_313\n      jump\t// in\n    tag_427:\n        /* \"#utility.yul\":5429:5770   */\n      pop\n        /* \"#utility.yul\":5345:5770   */\n      swap4\n      swap3\n      pop\n      pop\n      pop\n      jump\t// out\n        /* \"#utility.yul\":5790:6130   */\n    tag_315:\n        /* \"#utility.yul\":5846:5851   */\n      0x00\n        /* \"#utility.yul\":5895:5898   */\n      dup3\n        /* \"#utility.yul\":5888:5892   */\n      0x1f\n        /* \"#utility.yul\":5880:5886   */\n      dup4\n        /* \"#utility.yul\":5876:5893   */\n      add\n        /* \"#utility.yul\":5872:5899   */\n      slt\n        /* \"#utility.yul\":5862:5984   */\n      tag_429\n      jumpi\n        /* \"#utility.yul\":5903:5982   */\n      tag_430\n      tag_308\n      jump\t// in\n    tag_430:\n        /* \"#utility.yul\":5862:5984   */\n    tag_429:\n        /* \"#utility.yul\":6020:6026   */\n      dup2\n        /* \"#utility.yul\":6007:6027   */\n      calldataload\n        /* \"#utility.yul\":6045:6124   */\n      tag_431\n        /* \"#utility.yul\":6120:6123   */\n      dup5\n        /* \"#utility.yul\":6112:6118   */\n      dup3\n        /* \"#utility.yul\":6105:6109   */\n      0x20\n        /* \"#utility.yul\":6097:6103   */\n      dup7\n        /* \"#utility.yul\":6093:6110   */\n      add\n        /* \"#utility.yul\":6045:6124   */\n      tag_314\n      jump\t// in\n    tag_431:\n        /* \"#utility.yul\":6036:6124   */\n      swap2\n      pop\n        /* \"#utility.yul\":5852:6130   */\n      pop\n        /* \"#utility.yul\":5790:6130   */\n      swap3\n      swap2\n      pop\n      pop\n      jump\t// out\n        /* \"#utility.yul\":6136:6252   */\n    tag_316:\n        /* \"#utility.yul\":6206:6227   */\n      tag_433\n        /* \"#utility.yul\":6221:6226   */\n      dup2\n        /* \"#utility.yul\":6206:6227   */\n      tag_306\n      jump\t// in\n    tag_433:\n        /* \"#utility.yul\":6199:6204   */\n      dup2\n        /* \"#utility.yul\":6196:6228   */\n      eq\n        /* \"#utility.yul\":6186:6246   */\n      tag_434\n      jumpi\n        /* \"#utility.yul\":6242:6243   */\n      0x00\n        /* \"#utility.yul\":6239:6240   */\n      0x00\n        /* \"#utility.yul\":6232:6244   */\n      revert\n        /* \"#utility.yul\":6186:6246   */\n    tag_434:\n        /* \"#utility.yul\":6136:6252   */\n      pop\n      jump\t// out\n        /* \"#utility.yul\":6258:6391   */\n    tag_317:\n        /* \"#utility.yul\":6301:6306   */\n      0x00\n        /* \"#utility.yul\":6339:6345   */\n      dup2\n        /* \"#utility.yul\":6326:6346   */\n      calldataload\n        /* \"#utility.yul\":6317:6346   */\n      swap1\n      pop\n        /* \"#utility.yul\":6355:6385   */\n      tag_436\n        /* \"#utility.yul\":6379:6384   */\n      dup2\n        /* \"#utility.yul\":6355:6385   */\n      tag_316\n      jump\t// in\n    tag_436:\n        /* \"#utility.yul\":6258:6391   */\n      swap3\n      swap2\n      pop\n      pop\n      jump\t// out\n        /* \"#utility.yul\":6397:7336   */\n    tag_39:\n        /* \"#utility.yul\":6490:6496   */\n      0x00\n        /* \"#utility.yul\":6498:6504   */\n      0x00\n        /* \"#utility.yul\":6506:6512   */\n      0x00\n        /* \"#utility.yul\":6514:6520   */\n      0x00\n        /* \"#utility.yul\":6563:6566   */\n      0x80\n        /* \"#utility.yul\":6551:6560   */\n      dup6\n        /* \"#utility.yul\":6542:6549   */\n      dup8\n        /* \"#utility.yul\":6538:6561   */\n      sub\n        /* \"#utility.yul\":6534:6567   */\n      slt\n        /* \"#utility.yul\":6531:6651   */\n      iszero\n      tag_438\n      jumpi\n        /* \"#utility.yul\":6570:6649   */\n      tag_439\n      tag_292\n      jump\t// in\n    tag_439:\n        /* \"#utility.yul\":6531:6651   */\n    tag_438:\n        /* \"#utility.yul\":6718:6719   */\n      0x00\n        /* \"#utility.yul\":6707:6716   */\n      dup6\n        /* \"#utility.yul\":6703:6720   */\n      add\n        /* \"#utility.yul\":6690:6721   */\n      calldataload\n        /* \"#utility.yul\":6748:6766   */\n      0xffffffffffffffff\n        /* \"#utility.yul\":6740:6746   */\n      dup2\n        /* \"#utility.yul\":6737:6767   */\n      gt\n        /* \"#utility.yul\":6734:6851   */\n      iszero\n      tag_440\n      jumpi\n        /* \"#utility.yul\":6770:6849   */\n      tag_441\n      tag_293\n      jump\t// in\n    tag_441:\n        /* \"#utility.yul\":6734:6851   */\n    tag_440:\n        /* \"#utility.yul\":6875:6938   */\n      tag_442\n        /* \"#utility.yul\":6930:6937   */\n      dup8\n        /* \"#utility.yul\":6921:6927   */\n      dup3\n        /* \"#utility.yul\":6910:6919   */\n      dup9\n        /* \"#utility.yul\":6906:6928   */\n      add\n        /* \"#utility.yul\":6875:6938   */\n      tag_315\n      jump\t// in\n    tag_442:\n        /* \"#utility.yul\":6865:6938   */\n      swap5\n      pop\n        /* \"#utility.yul\":6661:6948   */\n      pop\n        /* \"#utility.yul\":6987:6989   */\n      0x20\n        /* \"#utility.yul\":7013:7066   */\n      tag_443\n        /* \"#utility.yul\":7058:7065   */\n      dup8\n        /* \"#utility.yul\":7049:7055   */\n      dup3\n        /* \"#utility.yul\":7038:7047   */\n      dup9\n        /* \"#utility.yul\":7034:7056   */\n      add\n        /* \"#utility.yul\":7013:7066   */\n      tag_296\n      jump\t// in\n    tag_443:\n        /* \"#utility.yul\":7003:7066   */\n      swap4\n      pop\n        /* \"#utility.yul\":6958:7076   */\n      pop\n        /* \"#utility.yul\":7115:7117   */\n      0x40\n        /* \"#utility.yul\":7141:7194   */\n      tag_444\n        /* \"#utility.yul\":7186:7193   */\n      dup8\n        /* \"#utility.yul\":7177:7183   */\n      dup3\n        /* \"#utility.yul\":7166:7175   */\n      dup9\n        /* \"#utility.yul\":7162:7184   */\n      add\n        /* \"#utility.yul\":7141:7194   */\n      tag_296\n      jump\t// in\n    tag_444:\n        /* \"#utility.yul\":7131:7194   */\n      swap3\n      pop\n        /* \"#utility.yul\":7086:7204   */\n      pop\n        /* \"#utility.yul\":7243:7245   */\n      0x60\n        /* \"#utility.yul\":7269:7319   */\n      tag_445\n        /* \"#utility.yul\":7311:7318   */\n      dup8\n        /* \"#utility.yul\":7302:7308   */\n      dup3\n        /* \"#utility.yul\":7291:7300   */\n      dup9\n        /* \"#utility.yul\":7287:7309   */\n      add\n        /* \"#utility.yul\":7269:7319   */\n      tag_317\n      jump\t// in\n    tag_445:\n        /* \"#utility.yul\":7259:7319   */\n      swap2\n      pop\n        /* \"#utility.yul\":7214:7329   */\n      pop\n        /* \"#utility.yul\":6397:7336   */\n      swap3\n      swap6\n      swap2\n      swap5\n      pop\n      swap3\n      pop\n      jump\t// out\n        /* \"#utility.yul\":7342:7464   */\n    tag_318:\n        /* \"#utility.yul\":7415:7439   */\n      tag_447\n        /* \"#utility.yul\":7433:7438   */\n      dup2\n        /* \"#utility.yul\":7415:7439   */\n      tag_298\n      jump\t// in\n    tag_447:\n        /* \"#utility.yul\":7408:7413   */\n      dup2\n        /* \"#utility.yul\":7405:7440   */\n      eq\n        /* \"#utility.yul\":7395:7458   */\n      tag_448\n      jumpi\n        /* \"#utility.yul\":7454:7455   */\n      0x00\n        /* \"#utility.yul\":7451:7452   */\n      0x00\n        /* \"#utility.yul\":7444:7456   */\n      revert\n        /* \"#utility.yul\":7395:7458   */\n    tag_448:\n        /* \"#utility.yul\":7342:7464   */\n      pop\n      jump\t// out\n        /* \"#utility.yul\":7470:7609   */\n    tag_319:\n        /* \"#utility.yul\":7516:7521   */\n      0x00\n        /* \"#utility.yul\":7554:7560   */\n      dup2\n        /* \"#utility.yul\":7541:7561   */\n      calldataload\n        /* \"#utility.yul\":7532:7561   */\n      swap1\n      pop\n        /* \"#utility.yul\":7570:7603   */\n      tag_450\n        /* \"#utility.yul\":7597:7602   */\n      dup2\n        /* \"#utility.yul\":7570:7603   */\n      tag_318\n      jump\t// in\n    tag_450:\n        /* \"#utility.yul\":7470:7609   */\n      swap3\n      swap2\n      pop\n      pop\n      jump\t// out\n        /* \"#utility.yul\":7615:7944   */\n    tag_45:\n        /* \"#utility.yul\":7674:7680   */\n      0x00\n        /* \"#utility.yul\":7723:7725   */\n      0x20\n        /* \"#utility.yul\":7711:7720   */\n      dup3\n        /* \"#utility.yul\":7702:7709   */\n      dup5\n        /* \"#utility.yul\":7698:7721   */\n      sub\n        /* \"#utility.yul\":7694:7726   */\n      slt\n        /* \"#utility.yul\":7691:7810   */\n      iszero\n      tag_452\n      jumpi\n        /* \"#utility.yul\":7729:7808   */\n      tag_453\n      tag_292\n      jump\t// in\n    tag_453:\n        /* \"#utility.yul\":7691:7810   */\n    tag_452:\n        /* \"#utility.yul\":7849:7850   */\n      0x00\n        /* \"#utility.yul\":7874:7927   */\n      tag_454\n        /* \"#utility.yul\":7919:7926   */\n      dup5\n        /* \"#utility.yul\":7910:7916   */\n      dup3\n        /* \"#utility.yul\":7899:7908   */\n      dup6\n        /* \"#utility.yul\":7895:7917   */\n      add\n        /* \"#utility.yul\":7874:7927   */\n      tag_319\n      jump\t// in\n    tag_454:\n        /* \"#utility.yul\":7864:7927   */\n      swap2\n      pop\n        /* \"#utility.yul\":7820:7937   */\n      pop\n        /* \"#utility.yul\":7615:7944   */\n      swap3\n      swap2\n      pop\n      pop\n      jump\t// out\n        /* \"#utility.yul\":7950:8160   */\n    tag_48:\n        /* \"#utility.yul\":8037:8041   */\n      0x00\n        /* \"#utility.yul\":8075:8077   */\n      0x20\n        /* \"#utility.yul\":8064:8073   */\n      dup3\n        /* \"#utility.yul\":8060:8078   */\n      add\n        /* \"#utility.yul\":8052:8078   */\n      swap1\n      pop\n        /* \"#utility.yul\":8088:8153   */\n      tag_456\n        /* \"#utility.yul\":8150:8151   */\n      0x00\n        /* \"#utility.yul\":8139:8148   */\n      dup4\n        /* \"#utility.yul\":8135:8152   */\n      add\n        /* \"#utility.yul\":8126:8132   */\n      dup5\n        /* \"#utility.yul\":8088:8153   */\n      tag_307\n      jump\t// in\n    tag_456:\n        /* \"#utility.yul\":7950:8160   */\n      swap3\n      swap2\n      pop\n      pop\n      jump\t// out\n        /* \"#utility.yul\":8166:8675   */\n    tag_57:\n        /* \"#utility.yul\":8235:8241   */\n      0x00\n        /* \"#utility.yul\":8284:8286   */\n      0x20\n        /* \"#utility.yul\":8272:8281   */\n      dup3\n        /* \"#utility.yul\":8263:8270   */\n      dup5\n        /* \"#utility.yul\":8259:8282   */\n      sub\n        /* \"#utility.yul\":8255:8287   */\n      slt\n        /* \"#utility.yul\":8252:8371   */\n      iszero\n      tag_458\n      jumpi\n        /* \"#utility.yul\":8290:8369   */\n      tag_459\n      tag_292\n      jump\t// in\n    tag_459:\n        /* \"#utility.yul\":8252:8371   */\n    tag_458:\n        /* \"#utility.yul\":8438:8439   */\n      0x00\n        /* \"#utility.yul\":8427:8436   */\n      dup3\n        /* \"#utility.yul\":8423:8440   */\n      add\n        /* \"#utility.yul\":8410:8441   */\n      calldataload\n        /* \"#utility.yul\":8468:8486   */\n      0xffffffffffffffff\n        /* \"#utility.yul\":8460:8466   */\n      dup2\n        /* \"#utility.yul\":8457:8487   */\n      gt\n        /* \"#utility.yul\":8454:8571   */\n      iszero\n      tag_460\n      jumpi\n        /* \"#utility.yul\":8490:8569   */\n      tag_461\n      tag_293\n      jump\t// in\n    tag_461:\n        /* \"#utility.yul\":8454:8571   */\n    tag_460:\n        /* \"#utility.yul\":8595:8658   */\n      tag_462\n        /* \"#utility.yul\":8650:8657   */\n      dup5\n        /* \"#utility.yul\":8641:8647   */\n      dup3\n        /* \"#utility.yul\":8630:8639   */\n      dup6\n        /* \"#utility.yul\":8626:8648   */\n      add\n        /* \"#utility.yul\":8595:8658   */\n      tag_315\n      jump\t// in\n    tag_462:\n        /* \"#utility.yul\":8585:8658   */\n      swap2\n      pop\n        /* \"#utility.yul\":8381:8668   */\n      pop\n        /* \"#utility.yul\":8166:8675   */\n      swap3\n      swap2\n      pop\n      pop\n      jump\t// out\n        /* \"#utility.yul\":8681:9480   */\n    tag_68:\n        /* \"#utility.yul\":8768:8774   */\n      0x00\n        /* \"#utility.yul\":8776:8782   */\n      0x00\n        /* \"#utility.yul\":8784:8790   */\n      0x00\n        /* \"#utility.yul\":8833:8835   */\n      0x60\n        /* \"#utility.yul\":8821:8830   */\n      dup5\n        /* \"#utility.yul\":8812:8819   */\n      dup7\n        /* \"#utility.yul\":8808:8831   */\n      sub\n        /* \"#utility.yul\":8804:8836   */\n      slt\n        /* \"#utility.yul\":8801:8920   */\n      iszero\n      tag_464\n      jumpi\n        /* \"#utility.yul\":8839:8918   */\n      tag_465\n      tag_292\n      jump\t// in\n    tag_465:\n        /* \"#utility.yul\":8801:8920   */\n    tag_464:\n        /* \"#utility.yul\":8959:8960   */\n      0x00\n        /* \"#utility.yul\":8984:9037   */\n      tag_466\n        /* \"#utility.yul\":9029:9036   */\n      dup7\n        /* \"#utility.yul\":9020:9026   */\n      dup3\n        /* \"#utility.yul\":9009:9018   */\n      dup8\n        /* \"#utility.yul\":9005:9027   */\n      add\n        /* \"#utility.yul\":8984:9037   */\n      tag_319\n      jump\t// in\n    tag_466:\n        /* \"#utility.yul\":8974:9037   */\n      swap4\n      pop\n        /* \"#utility.yul\":8930:9047   */\n      pop\n        /* \"#utility.yul\":9114:9116   */\n      0x20\n        /* \"#utility.yul\":9103:9112   */\n      dup5\n        /* \"#utility.yul\":9099:9117   */\n      add\n        /* \"#utility.yul\":9086:9118   */\n      calldataload\n        /* \"#utility.yul\":9145:9163   */\n      0xffffffffffffffff\n        /* \"#utility.yul\":9137:9143   */\n      dup2\n        /* \"#utility.yul\":9134:9164   */\n      gt\n        /* \"#utility.yul\":9131:9248   */\n      iszero\n      tag_467\n      jumpi\n        /* \"#utility.yul\":9167:9246   */\n      tag_468\n      tag_293\n      jump\t// in\n    tag_468:\n        /* \"#utility.yul\":9131:9248   */\n    tag_467:\n        /* \"#utility.yul\":9272:9335   */\n      tag_469\n        /* \"#utility.yul\":9327:9334   */\n      dup7\n        /* \"#utility.yul\":9318:9324   */\n      dup3\n        /* \"#utility.yul\":9307:9316   */\n      dup8\n        /* \"#utility.yul\":9303:9325   */\n      add\n        /* \"#utility.yul\":9272:9335   */\n      tag_315\n      jump\t// in\n    tag_469:\n        /* \"#utility.yul\":9262:9335   */\n      swap3\n      pop\n        /* \"#utility.yul\":9057:9345   */\n      pop\n        /* \"#utility.yul\":9384:9386   */\n      0x40\n        /* \"#utility.yul\":9410:9463   */\n      tag_470\n        /* \"#utility.yul\":9455:9462   */\n      dup7\n        /* \"#utility.yul\":9446:9452   */\n      dup3\n        /* \"#utility.yul\":9435:9444   */\n      dup8\n        /* \"#utility.yul\":9431:9453   */\n      add\n        /* \"#utility.yul\":9410:9463   */\n      tag_296\n      jump\t// in\n    tag_470:\n        /* \"#utility.yul\":9400:9463   */\n      swap2\n      pop\n        /* \"#utility.yul\":9355:9473   */\n      pop\n        /* \"#utility.yul\":8681:9480   */\n      swap3\n      pop\n      swap3\n      pop\n      swap3\n      jump\t// out\n        /* \"#utility.yul\":9486:10140   */\n    tag_73:\n        /* \"#utility.yul\":9564:9570   */\n      0x00\n        /* \"#utility.yul\":9572:9578   */\n      0x00\n        /* \"#utility.yul\":9621:9623   */\n      0x40\n        /* \"#utility.yul\":9609:9618   */\n      dup4\n        /* \"#utility.yul\":9600:9607   */\n      dup6\n        /* \"#utility.yul\":9596:9619   */\n      sub\n        /* \"#utility.yul\":9592:9624   */\n      slt\n        /* \"#utility.yul\":9589:9708   */\n      iszero\n      tag_472\n      jumpi\n        /* \"#utility.yul\":9627:9706   */\n      tag_473\n      tag_292\n      jump\t// in\n    tag_473:\n        /* \"#utility.yul\":9589:9708   */\n    tag_472:\n        /* \"#utility.yul\":9775:9776   */\n      0x00\n        /* \"#utility.yul\":9764:9773   */\n      dup4\n        /* \"#utility.yul\":9760:9777   */\n      add\n        /* \"#utility.yul\":9747:9778   */\n      calldataload\n        /* \"#utility.yul\":9805:9823   */\n      0xffffffffffffffff\n        /* \"#utility.yul\":9797:9803   */\n      dup2\n        /* \"#utility.yul\":9794:9824   */\n      gt\n        /* \"#utility.yul\":9791:9908   */\n      iszero\n      tag_474\n      jumpi\n        /* \"#utility.yul\":9827:9906   */\n      tag_475\n      tag_293\n      jump\t// in\n    tag_475:\n        /* \"#utility.yul\":9791:9908   */\n    tag_474:\n        /* \"#utility.yul\":9932:9995   */\n      tag_476\n        /* \"#utility.yul\":9987:9994   */\n      dup6\n        /* \"#utility.yul\":9978:9984   */\n      dup3\n        /* \"#utility.yul\":9967:9976   */\n      dup7\n        /* \"#utility.yul\":9963:9985   */\n      add\n        /* \"#utility.yul\":9932:9995   */\n      tag_315\n      jump\t// in\n    tag_476:\n        /* \"#utility.yul\":9922:9995   */\n      swap3\n      pop\n        /* \"#utility.yul\":9718:10005   */\n      pop\n        /* \"#utility.yul\":10044:10046   */\n      0x20\n        /* \"#utility.yul\":10070:10123   */\n      tag_477\n        /* \"#utility.yul\":10115:10122   */\n      dup6\n        /* \"#utility.yul\":10106:10112   */\n      dup3\n        /* \"#utility.yul\":10095:10104   */\n      dup7\n        /* \"#utility.yul\":10091:10113   */\n      add\n        /* \"#utility.yul\":10070:10123   */\n      tag_296\n      jump\t// in\n    tag_477:\n        /* \"#utility.yul\":10060:10123   */\n      swap2\n      pop\n        /* \"#utility.yul\":10015:10133   */\n      pop\n        /* \"#utility.yul\":9486:10140   */\n      swap3\n      pop\n      swap3\n      swap1\n      pop\n      jump\t// out\n        /* \"#utility.yul\":10146:10459   */\n    tag_89:\n        /* \"#utility.yul\":10259:10263   */\n      0x00\n        /* \"#utility.yul\":10297:10299   */\n      0x20\n        /* \"#utility.yul\":10286:10295   */\n      dup3\n        /* \"#utility.yul\":10282:10300   */\n      add\n        /* \"#utility.yul\":10274:10300   */\n      swap1\n      pop\n        /* \"#utility.yul\":10346:10355   */\n      dup2\n        /* \"#utility.yul\":10340:10344   */\n      dup2\n        /* \"#utility.yul\":10336:10356   */\n      sub\n        /* \"#utility.yul\":10332:10333   */\n      0x00\n        /* \"#utility.yul\":10321:10330   */\n      dup4\n        /* \"#utility.yul\":10317:10334   */\n      add\n        /* \"#utility.yul\":10310:10357   */\n      mstore\n        /* \"#utility.yul\":10374:10452   */\n      tag_479\n        /* \"#utility.yul\":10447:10451   */\n      dup2\n        /* \"#utility.yul\":10438:10444   */\n      dup5\n        /* \"#utility.yul\":10374:10452   */\n      tag_304\n      jump\t// in\n    tag_479:\n        /* \"#utility.yul\":10366:10452   */\n      swap1\n      pop\n        /* \"#utility.yul\":10146:10459   */\n      swap3\n      swap2\n      pop\n      pop\n      jump\t// out\n        /* \"#utility.yul\":10465:10687   */\n    tag_94:\n        /* \"#utility.yul\":10558:10562   */\n      0x00\n        /* \"#utility.yul\":10596:10598   */\n      0x20\n        /* \"#utility.yul\":10585:10594   */\n      dup3\n        /* \"#utility.yul\":10581:10599   */\n      add\n        /* \"#utility.yul\":10573:10599   */\n      swap1\n      pop\n        /* \"#utility.yul\":10609:10680   */\n      tag_481\n        /* \"#utility.yul\":10677:10678   */\n      0x00\n        /* \"#utility.yul\":10666:10675   */\n      dup4\n        /* \"#utility.yul\":10662:10679   */\n      add\n        /* \"#utility.yul\":10653:10659   */\n      dup5\n        /* \"#utility.yul\":10609:10680   */\n      tag_299\n      jump\t// in\n    tag_481:\n        /* \"#utility.yul\":10465:10687   */\n      swap3\n      swap2\n      pop\n      pop\n      jump\t// out\n        /* \"#utility.yul\":10693:10829   */\n    tag_320:\n        /* \"#utility.yul\":10782:10788   */\n      0x00\n        /* \"#utility.yul\":10816:10821   */\n      dup2\n        /* \"#utility.yul\":10810:10822   */\n      mload\n        /* \"#utility.yul\":10800:10822   */\n      swap1\n      pop\n        /* \"#utility.yul\":10693:10829   */\n      swap2\n      swap1\n      pop\n      jump\t// out\n        /* \"#utility.yul\":10835:11041   */\n    tag_321:\n        /* \"#utility.yul\":10956:10967   */\n      0x00\n        /* \"#utility.yul\":10990:10996   */\n      dup3\n        /* \"#utility.yul\":10985:10988   */\n      dup3\n        /* \"#utility.yul\":10978:10997   */\n      mstore\n        /* \"#utility.yul\":11030:11034   */\n      0x20\n        /* \"#utility.yul\":11025:11028   */\n      dup3\n        /* \"#utility.yul\":11021:11035   */\n      add\n        /* \"#utility.yul\":11006:11035   */\n      swap1\n      pop\n        /* \"#utility.yul\":10835:11041   */\n      swap3\n      swap2\n      pop\n      pop\n      jump\t// out\n        /* \"#utility.yul\":11047:11201   */\n    tag_322:\n        /* \"#utility.yul\":11136:11140   */\n      0x00\n        /* \"#utility.yul\":11159:11162   */\n      dup2\n        /* \"#utility.yul\":11151:11162   */\n      swap1\n      pop\n        /* \"#utility.yul\":11189:11193   */\n      0x20\n        /* \"#utility.yul\":11184:11187   */\n      dup3\n        /* \"#utility.yul\":11180:11194   */\n      add\n        /* \"#utility.yul\":11172:11194   */\n      swap1\n      pop\n        /* \"#utility.yul\":11047:11201   */\n      swap2\n      swap1\n      pop\n      jump\t// out\n        /* \"#utility.yul\":11207:11315   */\n    tag_323:\n        /* \"#utility.yul\":11284:11308   */\n      tag_486\n        /* \"#utility.yul\":11302:11307   */\n      dup2\n        /* \"#utility.yul\":11284:11308   */\n      tag_298\n      jump\t// in\n    tag_486:\n        /* \"#utility.yul\":11279:11282   */\n      dup3\n        /* \"#utility.yul\":11272:11309   */\n      mstore\n        /* \"#utility.yul\":11207:11315   */\n      pop\n      pop\n      jump\t// out\n        /* \"#utility.yul\":11321:11480   */\n    tag_324:\n        /* \"#utility.yul\":11395:11406   */\n      0x00\n        /* \"#utility.yul\":11429:11435   */\n      dup3\n        /* \"#utility.yul\":11424:11427   */\n      dup3\n        /* \"#utility.yul\":11417:11436   */\n      mstore\n        /* \"#utility.yul\":11469:11473   */\n      0x20\n        /* \"#utility.yul\":11464:11467   */\n      dup3\n        /* \"#utility.yul\":11460:11474   */\n      add\n        /* \"#utility.yul\":11445:11474   */\n      swap1\n      pop\n        /* \"#utility.yul\":11321:11480   */\n      swap3\n      swap2\n      pop\n      pop\n      jump\t// out\n        /* \"#utility.yul\":11486:11843   */\n    tag_325:\n        /* \"#utility.yul\":11564:11567   */\n      0x00\n        /* \"#utility.yul\":11592:11631   */\n      tag_489\n        /* \"#utility.yul\":11625:11630   */\n      dup3\n        /* \"#utility.yul\":11592:11631   */\n      tag_300\n      jump\t// in\n    tag_489:\n        /* \"#utility.yul\":11647:11708   */\n      tag_490\n        /* \"#utility.yul\":11701:11707   */\n      dup2\n        /* \"#utility.yul\":11696:11699   */\n      dup6\n        /* \"#utility.yul\":11647:11708   */\n      tag_324\n      jump\t// in\n    tag_490:\n        /* \"#utility.yul\":11640:11708   */\n      swap4\n      pop\n        /* \"#utility.yul\":11717:11782   */\n      tag_491\n        /* \"#utility.yul\":11775:11781   */\n      dup2\n        /* \"#utility.yul\":11770:11773   */\n      dup6\n        /* \"#utility.yul\":11763:11767   */\n      0x20\n        /* \"#utility.yul\":11756:11761   */\n      dup7\n        /* \"#utility.yul\":11752:11768   */\n      add\n        /* \"#utility.yul\":11717:11782   */\n      tag_302\n      jump\t// in\n    tag_491:\n        /* \"#utility.yul\":11807:11836   */\n      tag_492\n        /* \"#utility.yul\":11829:11835   */\n      dup2\n        /* \"#utility.yul\":11807:11836   */\n      tag_303\n      jump\t// in\n    tag_492:\n        /* \"#utility.yul\":11802:11805   */\n      dup5\n        /* \"#utility.yul\":11798:11837   */\n      add\n        /* \"#utility.yul\":11791:11837   */\n      swap2\n      pop\n        /* \"#utility.yul\":11568:11843   */\n      pop\n        /* \"#utility.yul\":11486:11843   */\n      swap3\n      swap2\n      pop\n      pop\n      jump\t// out\n        /* \"#utility.yul\":11849:11957   */\n    tag_326:\n        /* \"#utility.yul\":11926:11950   */\n      tag_494\n        /* \"#utility.yul\":11944:11949   */\n      dup2\n        /* \"#utility.yul\":11926:11950   */\n      tag_294\n      jump\t// in\n    tag_494:\n        /* \"#utility.yul\":11921:11924   */\n      dup3\n        /* \"#utility.yul\":11914:11951   */\n      mstore\n        /* \"#utility.yul\":11849:11957   */\n      pop\n      pop\n      jump\t// out\n        /* \"#utility.yul\":11963:12062   */\n    tag_327:\n        /* \"#utility.yul\":12034:12055   */\n      tag_496\n        /* \"#utility.yul\":12049:12054   */\n      dup2\n        /* \"#utility.yul\":12034:12055   */\n      tag_306\n      jump\t// in\n    tag_496:\n        /* \"#utility.yul\":12029:12032   */\n      dup3\n        /* \"#utility.yul\":12022:12056   */\n      mstore\n        /* \"#utility.yul\":11963:12062   */\n      pop\n      pop\n      jump\t// out\n        /* \"#utility.yul\":12142:13860   */\n    tag_328:\n        /* \"#utility.yul\":12245:12248   */\n      0x00\n        /* \"#utility.yul\":12281:12287   */\n      0x0100\n        /* \"#utility.yul\":12276:12279   */\n      dup4\n        /* \"#utility.yul\":12272:12288   */\n      add\n        /* \"#utility.yul\":12371:12375   */\n      0x00\n        /* \"#utility.yul\":12364:12369   */\n      dup4\n        /* \"#utility.yul\":12360:12376   */\n      add\n        /* \"#utility.yul\":12354:12377   */\n      mload\n        /* \"#utility.yul\":12390:12453   */\n      tag_498\n        /* \"#utility.yul\":12447:12451   */\n      0x00\n        /* \"#utility.yul\":12442:12445   */\n      dup7\n        /* \"#utility.yul\":12438:12452   */\n      add\n        /* \"#utility.yul\":12424:12436   */\n      dup3\n        /* \"#utility.yul\":12390:12453   */\n      tag_323\n      jump\t// in\n    tag_498:\n        /* \"#utility.yul\":12298:12463   */\n      pop\n        /* \"#utility.yul\":12552:12556   */\n      0x20\n        /* \"#utility.yul\":12545:12550   */\n      dup4\n        /* \"#utility.yul\":12541:12557   */\n      add\n        /* \"#utility.yul\":12535:12558   */\n      mload\n        /* \"#utility.yul\":12605:12608   */\n      dup5\n        /* \"#utility.yul\":12599:12603   */\n      dup3\n        /* \"#utility.yul\":12595:12609   */\n      sub\n        /* \"#utility.yul\":12588:12592   */\n      0x20\n        /* \"#utility.yul\":12583:12586   */\n      dup7\n        /* \"#utility.yul\":12579:12593   */\n      add\n        /* \"#utility.yul\":12572:12610   */\n      mstore\n        /* \"#utility.yul\":12631:12704   */\n      tag_499\n        /* \"#utility.yul\":12699:12703   */\n      dup3\n        /* \"#utility.yul\":12685:12697   */\n      dup3\n        /* \"#utility.yul\":12631:12704   */\n      tag_325\n      jump\t// in\n    tag_499:\n        /* \"#utility.yul\":12623:12704   */\n      swap2\n      pop\n        /* \"#utility.yul\":12473:12715   */\n      pop\n        /* \"#utility.yul\":12798:12802   */\n      0x40\n        /* \"#utility.yul\":12791:12796   */\n      dup4\n        /* \"#utility.yul\":12787:12803   */\n      add\n        /* \"#utility.yul\":12781:12804   */\n      mload\n        /* \"#utility.yul\":12817:12880   */\n      tag_500\n        /* \"#utility.yul\":12874:12878   */\n      0x40\n        /* \"#utility.yul\":12869:12872   */\n      dup7\n        /* \"#utility.yul\":12865:12879   */\n      add\n        /* \"#utility.yul\":12851:12863   */\n      dup3\n        /* \"#utility.yul\":12817:12880   */\n      tag_326\n      jump\t// in\n    tag_500:\n        /* \"#utility.yul\":12725:12890   */\n      pop\n        /* \"#utility.yul\":12972:12976   */\n      0x60\n        /* \"#utility.yul\":12965:12970   */\n      dup4\n        /* \"#utility.yul\":12961:12977   */\n      add\n        /* \"#utility.yul\":12955:12978   */\n      mload\n        /* \"#utility.yul\":12991:13054   */\n      tag_501\n        /* \"#utility.yul\":13048:13052   */\n      0x60\n        /* \"#utility.yul\":13043:13046   */\n      dup7\n        /* \"#utility.yul\":13039:13053   */\n      add\n        /* \"#utility.yul\":13025:13037   */\n      dup3\n        /* \"#utility.yul\":12991:13054   */\n      tag_326\n      jump\t// in\n    tag_501:\n        /* \"#utility.yul\":12900:13064   */\n      pop\n        /* \"#utility.yul\":13147:13151   */\n      0x80\n        /* \"#utility.yul\":13140:13145   */\n      dup4\n        /* \"#utility.yul\":13136:13152   */\n      add\n        /* \"#utility.yul\":13130:13153   */\n      mload\n        /* \"#utility.yul\":13200:13203   */\n      dup5\n        /* \"#utility.yul\":13194:13198   */\n      dup3\n        /* \"#utility.yul\":13190:13204   */\n      sub\n        /* \"#utility.yul\":13183:13187   */\n      0x80\n        /* \"#utility.yul\":13178:13181   */\n      dup7\n        /* \"#utility.yul\":13174:13188   */\n      add\n        /* \"#utility.yul\":13167:13205   */\n      mstore\n        /* \"#utility.yul\":13226:13299   */\n      tag_502\n        /* \"#utility.yul\":13294:13298   */\n      dup3\n        /* \"#utility.yul\":13280:13292   */\n      dup3\n        /* \"#utility.yul\":13226:13299   */\n      tag_325\n      jump\t// in\n    tag_502:\n        /* \"#utility.yul\":13218:13299   */\n      swap2\n      pop\n        /* \"#utility.yul\":13074:13310   */\n      pop\n        /* \"#utility.yul\":13397:13401   */\n      0xa0\n        /* \"#utility.yul\":13390:13395   */\n      dup4\n        /* \"#utility.yul\":13386:13402   */\n      add\n        /* \"#utility.yul\":13380:13403   */\n      mload\n        /* \"#utility.yul\":13416:13473   */\n      tag_503\n        /* \"#utility.yul\":13467:13471   */\n      0xa0\n        /* \"#utility.yul\":13462:13465   */\n      dup7\n        /* \"#utility.yul\":13458:13472   */\n      add\n        /* \"#utility.yul\":13444:13456   */\n      dup3\n        /* \"#utility.yul\":13416:13473   */\n      tag_327\n      jump\t// in\n    tag_503:\n        /* \"#utility.yul\":13320:13483   */\n      pop\n        /* \"#utility.yul\":13572:13576   */\n      0xc0\n        /* \"#utility.yul\":13565:13570   */\n      dup4\n        /* \"#utility.yul\":13561:13577   */\n      add\n        /* \"#utility.yul\":13555:13578   */\n      mload\n        /* \"#utility.yul\":13591:13648   */\n      tag_504\n        /* \"#utility.yul\":13642:13646   */\n      0xc0\n        /* \"#utility.yul\":13637:13640   */\n      dup7\n        /* \"#utility.yul\":13633:13647   */\n      add\n        /* \"#utility.yul\":13619:13631   */\n      dup3\n        /* \"#utility.yul\":13591:13648   */\n      tag_327\n      jump\t// in\n    tag_504:\n        /* \"#utility.yul\":13493:13658   */\n      pop\n        /* \"#utility.yul\":13741:13745   */\n      0xe0\n        /* \"#utility.yul\":13734:13739   */\n      dup4\n        /* \"#utility.yul\":13730:13746   */\n      add\n        /* \"#utility.yul\":13724:13747   */\n      mload\n        /* \"#utility.yul\":13760:13823   */\n      tag_505\n        /* \"#utility.yul\":13817:13821   */\n      0xe0\n        /* \"#utility.yul\":13812:13815   */\n      dup7\n        /* \"#utility.yul\":13808:13822   */\n      add\n        /* \"#utility.yul\":13794:13806   */\n      dup3\n        /* \"#utility.yul\":13760:13823   */\n      tag_326\n      jump\t// in\n    tag_505:\n        /* \"#utility.yul\":13668:13833   */\n      pop\n        /* \"#utility.yul\":13850:13854   */\n      dup1\n        /* \"#utility.yul\":13843:13854   */\n      swap2\n      pop\n        /* \"#utility.yul\":12250:13860   */\n      pop\n        /* \"#utility.yul\":12142:13860   */\n      swap3\n      swap2\n      pop\n      pop\n      jump\t// out\n        /* \"#utility.yul\":13866:14110   */\n    tag_329:\n        /* \"#utility.yul\":13979:13989   */\n      0x00\n        /* \"#utility.yul\":14014:14104   */\n      tag_507\n        /* \"#utility.yul\":14100:14103   */\n      dup4\n        /* \"#utility.yul\":14092:14098   */\n      dup4\n        /* \"#utility.yul\":14014:14104   */\n      tag_328\n      jump\t// in\n    tag_507:\n        /* \"#utility.yul\":14000:14104   */\n      swap1\n      pop\n        /* \"#utility.yul\":13866:14110   */\n      swap3\n      swap2\n      pop\n      pop\n      jump\t// out\n        /* \"#utility.yul\":14116:14251   */\n    tag_330:\n        /* \"#utility.yul\":14208:14212   */\n      0x00\n        /* \"#utility.yul\":14240:14244   */\n      0x20\n        /* \"#utility.yul\":14235:14238   */\n      dup3\n        /* \"#utility.yul\":14231:14245   */\n      add\n        /* \"#utility.yul\":14223:14245   */\n      swap1\n      pop\n        /* \"#utility.yul\":14116:14251   */\n      swap2\n      swap1\n      pop\n      jump\t// out\n        /* \"#utility.yul\":14335:15422   */\n    tag_331:\n        /* \"#utility.yul\":14498:14501   */\n      0x00\n        /* \"#utility.yul\":14527:14603   */\n      tag_510\n        /* \"#utility.yul\":14597:14602   */\n      dup3\n        /* \"#utility.yul\":14527:14603   */\n      tag_320\n      jump\t// in\n    tag_510:\n        /* \"#utility.yul\":14619:14727   */\n      tag_511\n        /* \"#utility.yul\":14720:14726   */\n      dup2\n        /* \"#utility.yul\":14715:14718   */\n      dup6\n        /* \"#utility.yul\":14619:14727   */\n      tag_321\n      jump\t// in\n    tag_511:\n        /* \"#utility.yul\":14612:14727   */\n      swap4\n      pop\n        /* \"#utility.yul\":14753:14756   */\n      dup4\n        /* \"#utility.yul\":14798:14802   */\n      0x20\n        /* \"#utility.yul\":14790:14796   */\n      dup3\n        /* \"#utility.yul\":14786:14803   */\n      mul\n        /* \"#utility.yul\":14781:14784   */\n      dup6\n        /* \"#utility.yul\":14777:14804   */\n      add\n        /* \"#utility.yul\":14828:14906   */\n      tag_512\n        /* \"#utility.yul\":14900:14905   */\n      dup6\n        /* \"#utility.yul\":14828:14906   */\n      tag_322\n      jump\t// in\n    tag_512:\n        /* \"#utility.yul\":14929:14936   */\n      dup1\n        /* \"#utility.yul\":14960:14961   */\n      0x00\n        /* \"#utility.yul\":14945:15377   */\n    tag_513:\n        /* \"#utility.yul\":14970:14976   */\n      dup6\n        /* \"#utility.yul\":14967:14968   */\n      dup2\n        /* \"#utility.yul\":14964:14977   */\n      lt\n        /* \"#utility.yul\":14945:15377   */\n      iszero\n      tag_515\n      jumpi\n        /* \"#utility.yul\":15041:15050   */\n      dup5\n        /* \"#utility.yul\":15035:15039   */\n      dup5\n        /* \"#utility.yul\":15031:15051   */\n      sub\n        /* \"#utility.yul\":15026:15029   */\n      dup10\n        /* \"#utility.yul\":15019:15052   */\n      mstore\n        /* \"#utility.yul\":15092:15098   */\n      dup2\n        /* \"#utility.yul\":15086:15099   */\n      mload\n        /* \"#utility.yul\":15120:15228   */\n      tag_516\n        /* \"#utility.yul\":15223:15227   */\n      dup6\n        /* \"#utility.yul\":15208:15221   */\n      dup3\n        /* \"#utility.yul\":15120:15228   */\n      tag_329\n      jump\t// in\n    tag_516:\n        /* \"#utility.yul\":15112:15228   */\n      swap5\n      pop\n        /* \"#utility.yul\":15251:15333   */\n      tag_517\n        /* \"#utility.yul\":15326:15332   */\n      dup4\n        /* \"#utility.yul\":15251:15333   */\n      tag_330\n      jump\t// in\n    tag_517:\n        /* \"#utility.yul\":15241:15333   */\n      swap3\n      pop\n        /* \"#utility.yul\":15362:15366   */\n      0x20\n        /* \"#utility.yul\":15357:15360   */\n      dup11\n        /* \"#utility.yul\":15353:15367   */\n      add\n        /* \"#utility.yul\":15346:15367   */\n      swap10\n      pop\n        /* \"#utility.yul\":15005:15377   */\n      pop\n        /* \"#utility.yul\":14992:14993   */\n      0x01\n        /* \"#utility.yul\":14989:14990   */\n      dup2\n        /* \"#utility.yul\":14985:14994   */\n      add\n        /* \"#utility.yul\":14980:14994   */\n      swap1\n      pop\n        /* \"#utility.yul\":14945:15377   */\n      jump(tag_513)\n    tag_515:\n        /* \"#utility.yul\":14949:14963   */\n      pop\n        /* \"#utility.yul\":15393:15397   */\n      dup3\n        /* \"#utility.yul\":15386:15397   */\n      swap8\n      pop\n        /* \"#utility.yul\":15413:15416   */\n      dup8\n        /* \"#utility.yul\":15406:15416   */\n      swap6\n      pop\n        /* \"#utility.yul\":14503:15422   */\n      pop\n      pop\n      pop\n      pop\n      pop\n        /* \"#utility.yul\":14335:15422   */\n      swap3\n      swap2\n      pop\n      pop\n      jump\t// out\n        /* \"#utility.yul\":15428:15889   */\n    tag_103:\n        /* \"#utility.yul\":15615:15619   */\n      0x00\n        /* \"#utility.yul\":15653:15655   */\n      0x20\n        /* \"#utility.yul\":15642:15651   */\n      dup3\n        /* \"#utility.yul\":15638:15656   */\n      add\n        /* \"#utility.yul\":15630:15656   */\n      swap1\n      pop\n        /* \"#utility.yul\":15702:15711   */\n      dup2\n        /* \"#utility.yul\":15696:15700   */\n      dup2\n        /* \"#utility.yul\":15692:15712   */\n      sub\n        /* \"#utility.yul\":15688:15689   */\n      0x00\n        /* \"#utility.yul\":15677:15686   */\n      dup4\n        /* \"#utility.yul\":15673:15690   */\n      add\n        /* \"#utility.yul\":15666:15713   */\n      mstore\n        /* \"#utility.yul\":15730:15882   */\n      tag_519\n        /* \"#utility.yul\":15877:15881   */\n      dup2\n        /* \"#utility.yul\":15868:15874   */\n      dup5\n        /* \"#utility.yul\":15730:15882   */\n      tag_331\n      jump\t// in\n    tag_519:\n        /* \"#utility.yul\":15722:15882   */\n      swap1\n      pop\n        /* \"#utility.yul\":15428:15889   */\n      swap3\n      swap2\n      pop\n      pop\n      jump\t// out\n        /* \"#utility.yul\":15895:16075   */\n    tag_332:\n        /* \"#utility.yul\":15943:16020   */\n      0x4e487b7100000000000000000000000000000000000000000000000000000000\n        /* \"#utility.yul\":15940:15941   */\n      0x00\n        /* \"#utility.yul\":15933:16021   */\n      mstore\n        /* \"#utility.yul\":16040:16044   */\n      0x22\n        /* \"#utility.yul\":16037:16038   */\n      0x04\n        /* \"#utility.yul\":16030:16045   */\n      mstore\n        /* \"#utility.yul\":16064:16068   */\n      0x24\n        /* \"#utility.yul\":16061:16062   */\n      0x00\n        /* \"#utility.yul\":16054:16069   */\n      revert\n        /* \"#utility.yul\":16081:16401   */\n    tag_121:\n        /* \"#utility.yul\":16125:16131   */\n      0x00\n        /* \"#utility.yul\":16162:16163   */\n      0x02\n        /* \"#utility.yul\":16156:16160   */\n      dup3\n        /* \"#utility.yul\":16152:16164   */\n      div\n        /* \"#utility.yul\":16142:16164   */\n      swap1\n      pop\n        /* \"#utility.yul\":16209:16210   */\n      0x01\n        /* \"#utility.yul\":16203:16207   */\n      dup3\n        /* \"#utility.yul\":16199:16211   */\n      and\n        /* \"#utility.yul\":16230:16248   */\n      dup1\n        /* \"#utility.yul\":16220:16301   */\n      tag_522\n      jumpi\n        /* \"#utility.yul\":16286:16290   */\n      0x7f\n        /* \"#utility.yul\":16278:16284   */\n      dup3\n        /* \"#utility.yul\":16274:16291   */\n      and\n        /* \"#utility.yul\":16264:16291   */\n      swap2\n      pop\n        /* \"#utility.yul\":16220:16301   */\n    tag_522:\n        /* \"#utility.yul\":16348:16350   */\n      0x20\n        /* \"#utility.yul\":16340:16346   */\n      dup3\n        /* \"#utility.yul\":16337:16351   */\n      lt\n        /* \"#utility.yul\":16317:16335   */\n      dup2\n        /* \"#utility.yul\":16314:16352   */\n      sub\n        /* \"#utility.yul\":16311:16395   */\n      tag_523\n      jumpi\n        /* \"#utility.yul\":16367:16385   */\n      tag_524\n      tag_332\n      jump\t// in\n    tag_524:\n        /* \"#utility.yul\":16311:16395   */\n    tag_523:\n        /* \"#utility.yul\":16132:16401   */\n      pop\n        /* \"#utility.yul\":16081:16401   */\n      swap2\n      swap1\n      pop\n      jump\t// out\n        /* \"#utility.yul\":16407:16555   */\n    tag_333:\n        /* \"#utility.yul\":16509:16520   */\n      0x00\n        /* \"#utility.yul\":16546:16549   */\n      dup2\n        /* \"#utility.yul\":16531:16549   */\n      swap1\n      pop\n        /* \"#utility.yul\":16407:16555   */\n      swap3\n      swap2\n      pop\n      pop\n      jump\t// out\n        /* \"#utility.yul\":16561:16951   */\n    tag_334:\n        /* \"#utility.yul\":16667:16670   */\n      0x00\n        /* \"#utility.yul\":16695:16734   */\n      tag_527\n        /* \"#utility.yul\":16728:16733   */\n      dup3\n        /* \"#utility.yul\":16695:16734   */\n      tag_300\n      jump\t// in\n    tag_527:\n        /* \"#utility.yul\":16750:16839   */\n      tag_528\n        /* \"#utility.yul\":16832:16838   */\n      dup2\n        /* \"#utility.yul\":16827:16830   */\n      dup6\n        /* \"#utility.yul\":16750:16839   */\n      tag_333\n      jump\t// in\n    tag_528:\n        /* \"#utility.yul\":16743:16839   */\n      swap4\n      pop\n        /* \"#utility.yul\":16848:16913   */\n      tag_529\n        /* \"#utility.yul\":16906:16912   */\n      dup2\n        /* \"#utility.yul\":16901:16904   */\n      dup6\n        /* \"#utility.yul\":16894:16898   */\n      0x20\n        /* \"#utility.yul\":16887:16892   */\n      dup7\n        /* \"#utility.yul\":16883:16899   */\n      add\n        /* \"#utility.yul\":16848:16913   */\n      tag_302\n      jump\t// in\n    tag_529:\n        /* \"#utility.yul\":16938:16944   */\n      dup1\n        /* \"#utility.yul\":16933:16936   */\n      dup5\n        /* \"#utility.yul\":16929:16945   */\n      add\n        /* \"#utility.yul\":16922:16945   */\n      swap2\n      pop\n        /* \"#utility.yul\":16671:16951   */\n      pop\n        /* \"#utility.yul\":16561:16951   */\n      swap3\n      swap2\n      pop\n      pop\n      jump\t// out\n        /* \"#utility.yul\":16957:17232   */\n    tag_133:\n        /* \"#utility.yul\":17089:17092   */\n      0x00\n        /* \"#utility.yul\":17111:17206   */\n      tag_531\n        /* \"#utility.yul\":17202:17205   */\n      dup3\n        /* \"#utility.yul\":17193:17199   */\n      dup5\n        /* \"#utility.yul\":17111:17206   */\n      tag_334\n      jump\t// in\n    tag_531:\n        /* \"#utility.yul\":17104:17206   */\n      swap2\n      pop\n        /* \"#utility.yul\":17223:17226   */\n      dup2\n        /* \"#utility.yul\":17216:17226   */\n      swap1\n      pop\n        /* \"#utility.yul\":16957:17232   */\n      swap3\n      swap2\n      pop\n      pop\n      jump\t// out\n        /* \"#utility.yul\":17238:17418   */\n    tag_137:\n        /* \"#utility.yul\":17286:17363   */\n      0x4e487b7100000000000000000000000000000000000000000000000000000000\n        /* \"#utility.yul\":17283:17284   */\n      0x00\n        /* \"#utility.yul\":17276:17364   */\n      mstore\n        /* \"#utility.yul\":17383:17387   */\n      0x32\n        /* \"#utility.yul\":17380:17381   */\n      0x04\n        /* \"#utility.yul\":17373:17388   */\n      mstore\n        /* \"#utility.yul\":17407:17411   */\n      0x24\n        /* \"#utility.yul\":17404:17405   */\n      0x00\n        /* \"#utility.yul\":17397:17412   */\n      revert\n        /* \"#utility.yul\":17424:17565   */\n    tag_335:\n        /* \"#utility.yul\":17473:17477   */\n      0x00\n        /* \"#utility.yul\":17496:17499   */\n      dup2\n        /* \"#utility.yul\":17488:17499   */\n      swap1\n      pop\n        /* \"#utility.yul\":17519:17522   */\n      dup2\n        /* \"#utility.yul\":17516:17517   */\n      0x00\n        /* \"#utility.yul\":17509:17523   */\n      mstore\n        /* \"#utility.yul\":17553:17557   */\n      0x20\n        /* \"#utility.yul\":17550:17551   */\n      0x00\n        /* \"#utility.yul\":17540:17558   */\n      keccak256\n        /* \"#utility.yul\":17532:17558   */\n      swap1\n      pop\n        /* \"#utility.yul\":17424:17565   */\n      swap2\n      swap1\n      pop\n      jump\t// out\n        /* \"#utility.yul\":17595:18469   */\n    tag_336:\n        /* \"#utility.yul\":17698:17701   */\n      0x00\n        /* \"#utility.yul\":17735:17740   */\n      dup2\n        /* \"#utility.yul\":17729:17741   */\n      sload\n        /* \"#utility.yul\":17764:17800   */\n      tag_535\n        /* \"#utility.yul\":17790:17799   */\n      dup2\n        /* \"#utility.yul\":17764:17800   */\n      tag_121\n      jump\t// in\n    tag_535:\n        /* \"#utility.yul\":17816:17905   */\n      tag_536\n        /* \"#utility.yul\":17898:17904   */\n      dup2\n        /* \"#utility.yul\":17893:17896   */\n      dup7\n        /* \"#utility.yul\":17816:17905   */\n      tag_333\n      jump\t// in\n    tag_536:\n        /* \"#utility.yul\":17809:17905   */\n      swap5\n      pop\n        /* \"#utility.yul\":17936:17937   */\n      0x01\n        /* \"#utility.yul\":17925:17934   */\n      dup3\n        /* \"#utility.yul\":17921:17938   */\n      and\n        /* \"#utility.yul\":17952:17953   */\n      0x00\n        /* \"#utility.yul\":17947:18113   */\n      dup2\n      eq\n      tag_538\n      jumpi\n        /* \"#utility.yul\":18127:18128   */\n      0x01\n        /* \"#utility.yul\":18122:18463   */\n      dup2\n      eq\n      tag_539\n      jumpi\n        /* \"#utility.yul\":17914:18463   */\n      jump(tag_537)\n        /* \"#utility.yul\":17947:18113   */\n    tag_538:\n        /* \"#utility.yul\":18031:18035   */\n      0xff\n        /* \"#utility.yul\":18027:18036   */\n      not\n        /* \"#utility.yul\":18016:18025   */\n      dup4\n        /* \"#utility.yul\":18012:18037   */\n      and\n        /* \"#utility.yul\":18007:18010   */\n      dup7\n        /* \"#utility.yul\":18000:18038   */\n      mstore\n        /* \"#utility.yul\":18093:18099   */\n      dup2\n        /* \"#utility.yul\":18086:18100   */\n      iszero\n        /* \"#utility.yul\":18079:18101   */\n      iszero\n        /* \"#utility.yul\":18071:18077   */\n      dup3\n        /* \"#utility.yul\":18067:18102   */\n      mul\n        /* \"#utility.yul\":18062:18065   */\n      dup7\n        /* \"#utility.yul\":18058:18103   */\n      add\n        /* \"#utility.yul\":18051:18103   */\n      swap4\n      pop\n        /* \"#utility.yul\":17947:18113   */\n      jump(tag_537)\n        /* \"#utility.yul\":18122:18463   */\n    tag_539:\n        /* \"#utility.yul\":18189:18227   */\n      tag_540\n        /* \"#utility.yul\":18221:18226   */\n      dup6\n        /* \"#utility.yul\":18189:18227   */\n      tag_335\n      jump\t// in\n    tag_540:\n        /* \"#utility.yul\":18249:18250   */\n      0x00\n        /* \"#utility.yul\":18263:18417   */\n    tag_541:\n        /* \"#utility.yul\":18277:18283   */\n      dup4\n        /* \"#utility.yul\":18274:18275   */\n      dup2\n        /* \"#utility.yul\":18271:18284   */\n      lt\n        /* \"#utility.yul\":18263:18417   */\n      iszero\n      tag_543\n      jumpi\n        /* \"#utility.yul\":18351:18358   */\n      dup2\n        /* \"#utility.yul\":18345:18359   */\n      sload\n        /* \"#utility.yul\":18341:18342   */\n      dup2\n        /* \"#utility.yul\":18336:18339   */\n      dup10\n        /* \"#utility.yul\":18332:18343   */\n      add\n        /* \"#utility.yul\":18325:18360   */\n      mstore\n        /* \"#utility.yul\":18401:18402   */\n      0x01\n        /* \"#utility.yul\":18392:18399   */\n      dup3\n        /* \"#utility.yul\":18388:18403   */\n      add\n        /* \"#utility.yul\":18377:18403   */\n      swap2\n      pop\n        /* \"#utility.yul\":18299:18303   */\n      0x20\n        /* \"#utility.yul\":18296:18297   */\n      dup2\n        /* \"#utility.yul\":18292:18304   */\n      add\n        /* \"#utility.yul\":18287:18304   */\n      swap1\n      pop\n        /* \"#utility.yul\":18263:18417   */\n      jump(tag_541)\n    tag_543:\n        /* \"#utility.yul\":18446:18452   */\n      dup4\n        /* \"#utility.yul\":18441:18444   */\n      dup9\n        /* \"#utility.yul\":18437:18453   */\n      add\n        /* \"#utility.yul\":18430:18453   */\n      swap6\n      pop\n        /* \"#utility.yul\":18129:18463   */\n      pop\n      pop\n        /* \"#utility.yul\":17914:18463   */\n    tag_537:\n      pop\n        /* \"#utility.yul\":17702:18469   */\n      pop\n      pop\n        /* \"#utility.yul\":17595:18469   */\n      swap3\n      swap2\n      pop\n      pop\n      jump\t// out\n        /* \"#utility.yul\":18475:18744   */\n    tag_140:\n        /* \"#utility.yul\":18604:18607   */\n      0x00\n        /* \"#utility.yul\":18626:18718   */\n      tag_545\n        /* \"#utility.yul\":18714:18717   */\n      dup3\n        /* \"#utility.yul\":18705:18711   */\n      dup5\n        /* \"#utility.yul\":18626:18718   */\n      tag_336\n      jump\t// in\n    tag_545:\n        /* \"#utility.yul\":18619:18718   */\n      swap2\n      pop\n        /* \"#utility.yul\":18735:18738   */\n      dup2\n        /* \"#utility.yul\":18728:18738   */\n      swap1\n      pop\n        /* \"#utility.yul\":18475:18744   */\n      swap3\n      swap2\n      pop\n      pop\n      jump\t// out\n        /* \"#utility.yul\":18750:18975   */\n    tag_337:\n        /* \"#utility.yul\":18890:18924   */\n      0x4572726f723a20546869732064657374696e6174696f6e20646f65736e277420\n        /* \"#utility.yul\":18886:18887   */\n      0x00\n        /* \"#utility.yul\":18878:18884   */\n      dup3\n        /* \"#utility.yul\":18874:18888   */\n      add\n        /* \"#utility.yul\":18867:18925   */\n      mstore\n        /* \"#utility.yul\":18959:18967   */\n      0x6578697374210000000000000000000000000000000000000000000000000000\n        /* \"#utility.yul\":18954:18956   */\n      0x20\n        /* \"#utility.yul\":18946:18952   */\n      dup3\n        /* \"#utility.yul\":18942:18957   */\n      add\n        /* \"#utility.yul\":18935:18968   */\n      mstore\n        /* \"#utility.yul\":18750:18975   */\n      pop\n      jump\t// out\n        /* \"#utility.yul\":18981:19347   */\n    tag_338:\n        /* \"#utility.yul\":19123:19126   */\n      0x00\n        /* \"#utility.yul\":19144:19211   */\n      tag_548\n        /* \"#utility.yul\":19208:19210   */\n      0x26\n        /* \"#utility.yul\":19203:19206   */\n      dup4\n        /* \"#utility.yul\":19144:19211   */\n      tag_301\n      jump\t// in\n    tag_548:\n        /* \"#utility.yul\":19137:19211   */\n      swap2\n      pop\n        /* \"#utility.yul\":19220:19313   */\n      tag_549\n        /* \"#utility.yul\":19309:19312   */\n      dup3\n        /* \"#utility.yul\":19220:19313   */\n      tag_337\n      jump\t// in\n    tag_549:\n        /* \"#utility.yul\":19338:19340   */\n      0x40\n        /* \"#utility.yul\":19333:19336   */\n      dup3\n        /* \"#utility.yul\":19329:19341   */\n      add\n        /* \"#utility.yul\":19322:19341   */\n      swap1\n      pop\n        /* \"#utility.yul\":18981:19347   */\n      swap2\n      swap1\n      pop\n      jump\t// out\n        /* \"#utility.yul\":19353:19772   */\n    tag_143:\n        /* \"#utility.yul\":19519:19523   */\n      0x00\n        /* \"#utility.yul\":19557:19559   */\n      0x20\n        /* \"#utility.yul\":19546:19555   */\n      dup3\n        /* \"#utility.yul\":19542:19560   */\n      add\n        /* \"#utility.yul\":19534:19560   */\n      swap1\n      pop\n        /* \"#utility.yul\":19606:19615   */\n      dup2\n        /* \"#utility.yul\":19600:19604   */\n      dup2\n        /* \"#utility.yul\":19596:19616   */\n      sub\n        /* \"#utility.yul\":19592:19593   */\n      0x00\n        /* \"#utility.yul\":19581:19590   */\n      dup4\n        /* \"#utility.yul\":19577:19594   */\n      add\n        /* \"#utility.yul\":19570:19617   */\n      mstore\n        /* \"#utility.yul\":19634:19765   */\n      tag_551\n        /* \"#utility.yul\":19760:19764   */\n      dup2\n        /* \"#utility.yul\":19634:19765   */\n      tag_338\n      jump\t// in\n    tag_551:\n        /* \"#utility.yul\":19626:19765   */\n      swap1\n      pop\n        /* \"#utility.yul\":19353:19772   */\n      swap2\n      swap1\n      pop\n      jump\t// out\n        /* \"#utility.yul\":19778:19958   */\n    tag_339:\n        /* \"#utility.yul\":19826:19903   */\n      0x4e487b7100000000000000000000000000000000000000000000000000000000\n        /* \"#utility.yul\":19823:19824   */\n      0x00\n        /* \"#utility.yul\":19816:19904   */\n      mstore\n        /* \"#utility.yul\":19923:19927   */\n      0x11\n        /* \"#utility.yul\":19920:19921   */\n      0x04\n        /* \"#utility.yul\":19913:19928   */\n      mstore\n        /* \"#utility.yul\":19947:19951   */\n      0x24\n        /* \"#utility.yul\":19944:19945   */\n      0x00\n        /* \"#utility.yul\":19937:19952   */\n      revert\n        /* \"#utility.yul\":19964:20158   */\n    tag_145:\n        /* \"#utility.yul\":20004:20008   */\n      0x00\n        /* \"#utility.yul\":20024:20044   */\n      tag_554\n        /* \"#utility.yul\":20042:20043   */\n      dup3\n        /* \"#utility.yul\":20024:20044   */\n      tag_294\n      jump\t// in\n    tag_554:\n        /* \"#utility.yul\":20019:20044   */\n      swap2\n      pop\n        /* \"#utility.yul\":20058:20078   */\n      tag_555\n        /* \"#utility.yul\":20076:20077   */\n      dup4\n        /* \"#utility.yul\":20058:20078   */\n      tag_294\n      jump\t// in\n    tag_555:\n        /* \"#utility.yul\":20053:20078   */\n      swap3\n      pop\n        /* \"#utility.yul\":20102:20103   */\n      dup3\n        /* \"#utility.yul\":20099:20100   */\n      dup3\n        /* \"#utility.yul\":20095:20104   */\n      sub\n        /* \"#utility.yul\":20087:20104   */\n      swap1\n      pop\n        /* \"#utility.yul\":20126:20127   */\n      dup2\n        /* \"#utility.yul\":20120:20124   */\n      dup2\n        /* \"#utility.yul\":20117:20128   */\n      gt\n        /* \"#utility.yul\":20114:20151   */\n      iszero\n      tag_556\n      jumpi\n        /* \"#utility.yul\":20131:20149   */\n      tag_557\n      tag_339\n      jump\t// in\n    tag_557:\n        /* \"#utility.yul\":20114:20151   */\n    tag_556:\n        /* \"#utility.yul\":19964:20158   */\n      swap3\n      swap2\n      pop\n      pop\n      jump\t// out\n        /* \"#utility.yul\":20164:20574   */\n    tag_158:\n        /* \"#utility.yul\":20204:20211   */\n      0x00\n        /* \"#utility.yul\":20227:20247   */\n      tag_559\n        /* \"#utility.yul\":20245:20246   */\n      dup3\n        /* \"#utility.yul\":20227:20247   */\n      tag_294\n      jump\t// in\n    tag_559:\n        /* \"#utility.yul\":20222:20247   */\n      swap2\n      pop\n        /* \"#utility.yul\":20261:20281   */\n      tag_560\n        /* \"#utility.yul\":20279:20280   */\n      dup4\n        /* \"#utility.yul\":20261:20281   */\n      tag_294\n      jump\t// in\n    tag_560:\n        /* \"#utility.yul\":20256:20281   */\n      swap3\n      pop\n        /* \"#utility.yul\":20316:20317   */\n      dup3\n        /* \"#utility.yul\":20313:20314   */\n      dup3\n        /* \"#utility.yul\":20309:20318   */\n      mul\n        /* \"#utility.yul\":20338:20368   */\n      tag_561\n        /* \"#utility.yul\":20356:20367   */\n      dup2\n        /* \"#utility.yul\":20338:20368   */\n      tag_294\n      jump\t// in\n    tag_561:\n        /* \"#utility.yul\":20327:20368   */\n      swap2\n      pop\n        /* \"#utility.yul\":20517:20518   */\n      dup3\n        /* \"#utility.yul\":20508:20515   */\n      dup3\n        /* \"#utility.yul\":20504:20519   */\n      div\n        /* \"#utility.yul\":20501:20502   */\n      dup5\n        /* \"#utility.yul\":20498:20520   */\n      eq\n        /* \"#utility.yul\":20478:20479   */\n      dup4\n        /* \"#utility.yul\":20471:20480   */\n      iszero\n        /* \"#utility.yul\":20451:20534   */\n      or\n        /* \"#utility.yul\":20428:20567   */\n      tag_562\n      jumpi\n        /* \"#utility.yul\":20547:20565   */\n      tag_563\n      tag_339\n      jump\t// in\n    tag_563:\n        /* \"#utility.yul\":20428:20567   */\n    tag_562:\n        /* \"#utility.yul\":20212:20574   */\n      pop\n        /* \"#utility.yul\":20164:20574   */\n      swap3\n      swap2\n      pop\n      pop\n      jump\t// out\n        /* \"#utility.yul\":20580:20760   */\n    tag_340:\n        /* \"#utility.yul\":20628:20705   */\n      0x4e487b7100000000000000000000000000000000000000000000000000000000\n        /* \"#utility.yul\":20625:20626   */\n      0x00\n        /* \"#utility.yul\":20618:20706   */\n      mstore\n        /* \"#utility.yul\":20725:20729   */\n      0x12\n        /* \"#utility.yul\":20722:20723   */\n      0x04\n        /* \"#utility.yul\":20715:20730   */\n      mstore\n        /* \"#utility.yul\":20749:20753   */\n      0x24\n        /* \"#utility.yul\":20746:20747   */\n      0x00\n        /* \"#utility.yul\":20739:20754   */\n      revert\n        /* \"#utility.yul\":20766:20951   */\n    tag_163:\n        /* \"#utility.yul\":20806:20807   */\n      0x00\n        /* \"#utility.yul\":20823:20843   */\n      tag_566\n        /* \"#utility.yul\":20841:20842   */\n      dup3\n        /* \"#utility.yul\":20823:20843   */\n      tag_294\n      jump\t// in\n    tag_566:\n        /* \"#utility.yul\":20818:20843   */\n      swap2\n      pop\n        /* \"#utility.yul\":20857:20877   */\n      tag_567\n        /* \"#utility.yul\":20875:20876   */\n      dup4\n        /* \"#utility.yul\":20857:20877   */\n      tag_294\n      jump\t// in\n    tag_567:\n        /* \"#utility.yul\":20852:20877   */\n      swap3\n      pop\n        /* \"#utility.yul\":20896:20897   */\n      dup3\n        /* \"#utility.yul\":20886:20921   */\n      tag_568\n      jumpi\n        /* \"#utility.yul\":20901:20919   */\n      tag_569\n      tag_340\n      jump\t// in\n    tag_569:\n        /* \"#utility.yul\":20886:20921   */\n    tag_568:\n        /* \"#utility.yul\":20943:20944   */\n      dup3\n        /* \"#utility.yul\":20940:20941   */\n      dup3\n        /* \"#utility.yul\":20936:20945   */\n      div\n        /* \"#utility.yul\":20931:20945   */\n      swap1\n      pop\n        /* \"#utility.yul\":20766:20951   */\n      swap3\n      swap2\n      pop\n      pop\n      jump\t// out\n        /* \"#utility.yul\":20957:21127   */\n    tag_341:\n        /* \"#utility.yul\":21097:21119   */\n      0x596f7520617265206e6f74207468652043454f21000000000000000000000000\n        /* \"#utility.yul\":21093:21094   */\n      0x00\n        /* \"#utility.yul\":21085:21091   */\n      dup3\n        /* \"#utility.yul\":21081:21095   */\n      add\n        /* \"#utility.yul\":21074:21120   */\n      mstore\n        /* \"#utility.yul\":20957:21127   */\n      pop\n      jump\t// out\n        /* \"#utility.yul\":21133:21499   */\n    tag_342:\n        /* \"#utility.yul\":21275:21278   */\n      0x00\n        /* \"#utility.yul\":21296:21363   */\n      tag_572\n        /* \"#utility.yul\":21360:21362   */\n      0x14\n        /* \"#utility.yul\":21355:21358   */\n      dup4\n        /* \"#utility.yul\":21296:21363   */\n      tag_301\n      jump\t// in\n    tag_572:\n        /* \"#utility.yul\":21289:21363   */\n      swap2\n      pop\n        /* \"#utility.yul\":21372:21465   */\n      tag_573\n        /* \"#utility.yul\":21461:21464   */\n      dup3\n        /* \"#utility.yul\":21372:21465   */\n      tag_341\n      jump\t// in\n    tag_573:\n        /* \"#utility.yul\":21490:21492   */\n      0x20\n        /* \"#utility.yul\":21485:21488   */\n      dup3\n        /* \"#utility.yul\":21481:21493   */\n      add\n        /* \"#utility.yul\":21474:21493   */\n      swap1\n      pop\n        /* \"#utility.yul\":21133:21499   */\n      swap2\n      swap1\n      pop\n      jump\t// out\n        /* \"#utility.yul\":21505:21924   */\n    tag_169:\n        /* \"#utility.yul\":21671:21675   */\n      0x00\n        /* \"#utility.yul\":21709:21711   */\n      0x20\n        /* \"#utility.yul\":21698:21707   */\n      dup3\n        /* \"#utility.yul\":21694:21712   */\n      add\n        /* \"#utility.yul\":21686:21712   */\n      swap1\n      pop\n        /* \"#utility.yul\":21758:21767   */\n      dup2\n        /* \"#utility.yul\":21752:21756   */\n      dup2\n        /* \"#utility.yul\":21748:21768   */\n      sub\n        /* \"#utility.yul\":21744:21745   */\n      0x00\n        /* \"#utility.yul\":21733:21742   */\n      dup4\n        /* \"#utility.yul\":21729:21746   */\n      add\n        /* \"#utility.yul\":21722:21769   */\n      mstore\n        /* \"#utility.yul\":21786:21917   */\n      tag_575\n        /* \"#utility.yul\":21912:21916   */\n      dup2\n        /* \"#utility.yul\":21786:21917   */\n      tag_342\n      jump\t// in\n    tag_575:\n        /* \"#utility.yul\":21778:21917   */\n      swap1\n      pop\n        /* \"#utility.yul\":21505:21924   */\n      swap2\n      swap1\n      pop\n      jump\t// out\n        /* \"#utility.yul\":21930:22023   */\n    tag_343:\n        /* \"#utility.yul\":21967:21973   */\n      0x00\n        /* \"#utility.yul\":22014:22016   */\n      0x20\n        /* \"#utility.yul\":22009:22011   */\n      0x1f\n        /* \"#utility.yul\":22002:22007   */\n      dup4\n        /* \"#utility.yul\":21998:22012   */\n      add\n        /* \"#utility.yul\":21994:22017   */\n      div\n        /* \"#utility.yul\":21984:22017   */\n      swap1\n      pop\n        /* \"#utility.yul\":21930:22023   */\n      swap2\n      swap1\n      pop\n      jump\t// out\n        /* \"#utility.yul\":22029:22136   */\n    tag_344:\n        /* \"#utility.yul\":22073:22081   */\n      0x00\n        /* \"#utility.yul\":22123:22128   */\n      dup3\n        /* \"#utility.yul\":22117:22121   */\n      dup3\n        /* \"#utility.yul\":22113:22129   */\n      shl\n        /* \"#utility.yul\":22092:22129   */\n      swap1\n      pop\n        /* \"#utility.yul\":22029:22136   */\n      swap3\n      swap2\n      pop\n      pop\n      jump\t// out\n        /* \"#utility.yul\":22142:22535   */\n    tag_345:\n        /* \"#utility.yul\":22211:22217   */\n      0x00\n        /* \"#utility.yul\":22261:22262   */\n      0x08\n        /* \"#utility.yul\":22249:22259   */\n      dup4\n        /* \"#utility.yul\":22245:22263   */\n      mul\n        /* \"#utility.yul\":22284:22381   */\n      tag_579\n        /* \"#utility.yul\":22314:22380   */\n      0xffffffffffffffffffffffffffffffffffffffffffffffffffffffffffffffff\n        /* \"#utility.yul\":22303:22312   */\n      dup3\n        /* \"#utility.yul\":22284:22381   */\n      tag_344\n      jump\t// in\n    tag_579:\n        /* \"#utility.yul\":22402:22441   */\n      tag_580\n        /* \"#utility.yul\":22432:22440   */\n      dup7\n        /* \"#utility.yul\":22421:22430   */\n      dup4\n        /* \"#utility.yul\":22402:22441   */\n      tag_344\n      jump\t// in\n    tag_580:\n        /* \"#utility.yul\":22390:22441   */\n      swap6\n      pop\n        /* \"#utility.yul\":22474:22478   */\n      dup1\n        /* \"#utility.yul\":22470:22479   */\n      not\n        /* \"#utility.yul\":22463:22468   */\n      dup5\n        /* \"#utility.yul\":22459:22480   */\n      and\n        /* \"#utility.yul\":22450:22480   */\n      swap4\n      pop\n        /* \"#utility.yul\":22523:22527   */\n      dup1\n        /* \"#utility.yul\":22513:22521   */\n      dup7\n        /* \"#utility.yul\":22509:22528   */\n      and\n        /* \"#utility.yul\":22502:22507   */\n      dup5\n        /* \"#utility.yul\":22499:22529   */\n      or\n        /* \"#utility.yul\":22489:22529   */\n      swap3\n      pop\n        /* \"#utility.yul\":22218:22535   */\n      pop\n      pop\n        /* \"#utility.yul\":22142:22535   */\n      swap4\n      swap3\n      pop\n      pop\n      pop\n      jump\t// out\n        /* \"#utility.yul\":22541:22601   */\n    tag_346:\n        /* \"#utility.yul\":22569:22572   */\n      0x00\n        /* \"#utility.yul\":22590:22595   */\n      dup2\n        /* \"#utility.yul\":22583:22595   */\n      swap1\n      pop\n        /* \"#utility.yul\":22541:22601   */\n      swap2\n      swap1\n      pop\n      jump\t// out\n        /* \"#utility.yul\":22607:22749   */\n    tag_347:\n        /* \"#utility.yul\":22657:22666   */\n      0x00\n        /* \"#utility.yul\":22690:22743   */\n      tag_583\n        /* \"#utility.yul\":22708:22742   */\n      tag_584\n        /* \"#utility.yul\":22717:22741   */\n      tag_585\n        /* \"#utility.yul\":22735:22740   */\n      dup5\n        /* \"#utility.yul\":22717:22741   */\n      tag_294\n      jump\t// in\n    tag_585:\n        /* \"#utility.yul\":22708:22742   */\n      tag_346\n      jump\t// in\n    tag_584:\n        /* \"#utility.yul\":22690:22743   */\n      tag_294\n      jump\t// in\n    tag_583:\n        /* \"#utility.yul\":22677:22743   */\n      swap1\n      pop\n        /* \"#utility.yul\":22607:22749   */\n      swap2\n      swap1\n      pop\n      jump\t// out\n        /* \"#utility.yul\":22755:22830   */\n    tag_348:\n        /* \"#utility.yul\":22798:22801   */\n      0x00\n        /* \"#utility.yul\":22819:22824   */\n      dup2\n        /* \"#utility.yul\":22812:22824   */\n      swap1\n      pop\n        /* \"#utility.yul\":22755:22830   */\n      swap2\n      swap1\n      pop\n      jump\t// out\n        /* \"#utility.yul\":22836:23105   */\n    tag_349:\n        /* \"#utility.yul\":22946:22985   */\n      tag_588\n        /* \"#utility.yul\":22977:22984   */\n      dup4\n        /* \"#utility.yul\":22946:22985   */\n      tag_347\n      jump\t// in\n    tag_588:\n        /* \"#utility.yul\":23007:23098   */\n      tag_589\n        /* \"#utility.yul\":23056:23097   */\n      tag_590\n        /* \"#utility.yul\":23080:23096   */\n      dup3\n        /* \"#utility.yul\":23056:23097   */\n      tag_348\n      jump\t// in\n    tag_590:\n        /* \"#utility.yul\":23048:23054   */\n      dup5\n        /* \"#utility.yul\":23041:23045   */\n      dup5\n        /* \"#utility.yul\":23035:23046   */\n      sload\n        /* \"#utility.yul\":23007:23098   */\n      tag_345\n      jump\t// in\n    tag_589:\n        /* \"#utility.yul\":23001:23005   */\n      dup3\n        /* \"#utility.yul\":22994:23099   */\n      sstore\n        /* \"#utility.yul\":22912:23105   */\n      pop\n        /* \"#utility.yul\":22836:23105   */\n      pop\n      pop\n      pop\n      jump\t// out\n        /* \"#utility.yul\":23111:23184   */\n    tag_350:\n        /* \"#utility.yul\":23156:23159   */\n      0x00\n        /* \"#utility.yul\":23177:23178   */\n      0x00\n        /* \"#utility.yul\":23170:23178   */\n      swap1\n      pop\n        /* \"#utility.yul\":23111:23184   */\n      swap1\n      jump\t// out\n        /* \"#utility.yul\":23190:23379   */\n    tag_351:\n        /* \"#utility.yul\":23267:23299   */\n      tag_593\n      tag_350\n      jump\t// in\n    tag_593:\n        /* \"#utility.yul\":23308:23373   */\n      tag_594\n        /* \"#utility.yul\":23366:23372   */\n      dup2\n        /* \"#utility.yul\":23358:23364   */\n      dup5\n        /* \"#utility.yul\":23352:23356   */\n      dup5\n        /* \"#utility.yul\":23308:23373   */\n      tag_349\n      jump\t// in\n    tag_594:\n        /* \"#utility.yul\":23243:23379   */\n      pop\n        /* \"#utility.yul\":23190:23379   */\n      pop\n      pop\n      jump\t// out\n        /* \"#utility.yul\":23385:23571   */\n    tag_352:\n        /* \"#utility.yul\":23445:23565   */\n    tag_596:\n        /* \"#utility.yul\":23462:23465   */\n      dup2\n        /* \"#utility.yul\":23455:23460   */\n      dup2\n        /* \"#utility.yul\":23452:23466   */\n      lt\n        /* \"#utility.yul\":23445:23565   */\n      iszero\n      tag_598\n      jumpi\n        /* \"#utility.yul\":23516:23555   */\n      tag_599\n        /* \"#utility.yul\":23553:23554   */\n      0x00\n        /* \"#utility.yul\":23546:23551   */\n      dup3\n        /* \"#utility.yul\":23516:23555   */\n      tag_351\n      jump\t// in\n    tag_599:\n        /* \"#utility.yul\":23489:23490   */\n      0x01\n        /* \"#utility.yul\":23482:23487   */\n      dup2\n        /* \"#utility.yul\":23478:23491   */\n      add\n        /* \"#utility.yul\":23469:23491   */\n      swap1\n      pop\n        /* \"#utility.yul\":23445:23565   */\n      jump(tag_596)\n    tag_598:\n        /* \"#utility.yul\":23385:23571   */\n      pop\n      pop\n      jump\t// out\n        /* \"#utility.yul\":23577:24120   */\n    tag_353:\n        /* \"#utility.yul\":23678:23680   */\n      0x1f\n        /* \"#utility.yul\":23673:23676   */\n      dup3\n        /* \"#utility.yul\":23670:23681   */\n      gt\n        /* \"#utility.yul\":23667:24113   */\n      iszero\n      tag_601\n      jumpi\n        /* \"#utility.yul\":23712:23750   */\n      tag_602\n        /* \"#utility.yul\":23744:23749   */\n      dup2\n        /* \"#utility.yul\":23712:23750   */\n      tag_335\n      jump\t// in\n    tag_602:\n        /* \"#utility.yul\":23796:23825   */\n      tag_603\n        /* \"#utility.yul\":23814:23824   */\n      dup5\n        /* \"#utility.yul\":23796:23825   */\n      tag_343\n      jump\t// in\n    tag_603:\n        /* \"#utility.yul\":23786:23794   */\n      dup2\n        /* \"#utility.yul\":23782:23826   */\n      add\n        /* \"#utility.yul\":23979:23981   */\n      0x20\n        /* \"#utility.yul\":23967:23977   */\n      dup6\n        /* \"#utility.yul\":23964:23982   */\n      lt\n        /* \"#utility.yul\":23961:24010   */\n      iszero\n      tag_604\n      jumpi\n        /* \"#utility.yul\":24000:24008   */\n      dup2\n        /* \"#utility.yul\":23985:24008   */\n      swap1\n      pop\n        /* \"#utility.yul\":23961:24010   */\n    tag_604:\n        /* \"#utility.yul\":24023:24103   */\n      tag_605\n        /* \"#utility.yul\":24079:24101   */\n      tag_606\n        /* \"#utility.yul\":24097:24100   */\n      dup6\n        /* \"#utility.yul\":24079:24101   */\n      tag_343\n      jump\t// in\n    tag_606:\n        /* \"#utility.yul\":24069:24077   */\n      dup4\n        /* \"#utility.yul\":24065:24102   */\n      add\n        /* \"#utility.yul\":24052:24063   */\n      dup3\n        /* \"#utility.yul\":24023:24103   */\n      tag_352\n      jump\t// in\n    tag_605:\n        /* \"#utility.yul\":23682:24113   */\n      pop\n      pop\n        /* \"#utility.yul\":23667:24113   */\n    tag_601:\n        /* \"#utility.yul\":23577:24120   */\n      pop\n      pop\n      pop\n      jump\t// out\n        /* \"#utility.yul\":24126:24243   */\n    tag_354:\n        /* \"#utility.yul\":24180:24188   */\n      0x00\n        /* \"#utility.yul\":24230:24235   */\n      dup3\n        /* \"#utility.yul\":24224:24228   */\n      dup3\n        /* \"#utility.yul\":24220:24236   */\n      shr\n        /* \"#utility.yul\":24199:24236   */\n      swap1\n      pop\n        /* \"#utility.yul\":24126:24243   */\n      swap3\n      swap2\n      pop\n      pop\n      jump\t// out\n        /* \"#utility.yul\":24249:24418   */\n    tag_355:\n        /* \"#utility.yul\":24293:24299   */\n      0x00\n        /* \"#utility.yul\":24326:24377   */\n      tag_609\n        /* \"#utility.yul\":24374:24375   */\n      0x00\n        /* \"#utility.yul\":24370:24376   */\n      not\n        /* \"#utility.yul\":24362:24367   */\n      dup5\n        /* \"#utility.yul\":24359:24360   */\n      0x08\n        /* \"#utility.yul\":24355:24368   */\n      mul\n        /* \"#utility.yul\":24326:24377   */\n      tag_354\n      jump\t// in\n    tag_609:\n        /* \"#utility.yul\":24322:24378   */\n      not\n        /* \"#utility.yul\":24407:24411   */\n      dup1\n        /* \"#utility.yul\":24401:24405   */\n      dup4\n        /* \"#utility.yul\":24397:24412   */\n      and\n        /* \"#utility.yul\":24387:24412   */\n      swap2\n      pop\n        /* \"#utility.yul\":24300:24418   */\n      pop\n        /* \"#utility.yul\":24249:24418   */\n      swap3\n      swap2\n      pop\n      pop\n      jump\t// out\n        /* \"#utility.yul\":24423:24718   */\n    tag_356:\n        /* \"#utility.yul\":24499:24503   */\n      0x00\n        /* \"#utility.yul\":24645:24674   */\n      tag_611\n        /* \"#utility.yul\":24670:24673   */\n      dup4\n        /* \"#utility.yul\":24664:24668   */\n      dup4\n        /* \"#utility.yul\":24645:24674   */\n      tag_355\n      jump\t// in\n    tag_611:\n        /* \"#utility.yul\":24637:24674   */\n      swap2\n      pop\n        /* \"#utility.yul\":24707:24710   */\n      dup3\n        /* \"#utility.yul\":24704:24705   */\n      0x02\n        /* \"#utility.yul\":24700:24711   */\n      mul\n        /* \"#utility.yul\":24694:24698   */\n      dup3\n        /* \"#utility.yul\":24691:24712   */\n      or\n        /* \"#utility.yul\":24683:24712   */\n      swap1\n      pop\n        /* \"#utility.yul\":24423:24718   */\n      swap3\n      swap2\n      pop\n      pop\n      jump\t// out\n        /* \"#utility.yul\":24723:26118   */\n    tag_181:\n        /* \"#utility.yul\":24840:24877   */\n      tag_613\n        /* \"#utility.yul\":24873:24876   */\n      dup3\n        /* \"#utility.yul\":24840:24877   */\n      tag_300\n      jump\t// in\n    tag_613:\n        /* \"#utility.yul\":24942:24960   */\n      0xffffffffffffffff\n        /* \"#utility.yul\":24934:24940   */\n      dup2\n        /* \"#utility.yul\":24931:24961   */\n      gt\n        /* \"#utility.yul\":24928:24984   */\n      iszero\n      tag_614\n      jumpi\n        /* \"#utility.yul\":24964:24982   */\n      tag_615\n      tag_232\n      jump\t// in\n    tag_615:\n        /* \"#utility.yul\":24928:24984   */\n    tag_614:\n        /* \"#utility.yul\":25008:25046   */\n      tag_616\n        /* \"#utility.yul\":25040:25044   */\n      dup3\n        /* \"#utility.yul\":25034:25045   */\n      sload\n        /* \"#utility.yul\":25008:25046   */\n      tag_121\n      jump\t// in\n    tag_616:\n        /* \"#utility.yul\":25093:25160   */\n      tag_617\n        /* \"#utility.yul\":25153:25159   */\n      dup3\n        /* \"#utility.yul\":25145:25151   */\n      dup3\n        /* \"#utility.yul\":25139:25143   */\n      dup6\n        /* \"#utility.yul\":25093:25160   */\n      tag_353\n      jump\t// in\n    tag_617:\n        /* \"#utility.yul\":25187:25188   */\n      0x00\n        /* \"#utility.yul\":25211:25215   */\n      0x20\n        /* \"#utility.yul\":25198:25215   */\n      swap1\n      pop\n        /* \"#utility.yul\":25243:25245   */\n      0x1f\n        /* \"#utility.yul\":25235:25241   */\n      dup4\n        /* \"#utility.yul\":25232:25246   */\n      gt\n        /* \"#utility.yul\":25260:25261   */\n      0x01\n        /* \"#utility.yul\":25255:25873   */\n      dup2\n      eq\n      tag_619\n      jumpi\n        /* \"#utility.yul\":25917:25918   */\n      0x00\n        /* \"#utility.yul\":25934:25940   */\n      dup5\n        /* \"#utility.yul\":25931:26008   */\n      iszero\n      tag_620\n      jumpi\n        /* \"#utility.yul\":25983:25992   */\n      dup3\n        /* \"#utility.yul\":25978:25981   */\n      dup8\n        /* \"#utility.yul\":25974:25993   */\n      add\n        /* \"#utility.yul\":25968:25994   */\n      mload\n        /* \"#utility.yul\":25959:25994   */\n      swap1\n      pop\n        /* \"#utility.yul\":25931:26008   */\n    tag_620:\n        /* \"#utility.yul\":26034:26101   */\n      tag_621\n        /* \"#utility.yul\":26094:26100   */\n      dup6\n        /* \"#utility.yul\":26087:26092   */\n      dup3\n        /* \"#utility.yul\":26034:26101   */\n      tag_356\n      jump\t// in\n    tag_621:\n        /* \"#utility.yul\":26028:26032   */\n      dup7\n        /* \"#utility.yul\":26021:26102   */\n      sstore\n        /* \"#utility.yul\":25890:26112   */\n      pop\n        /* \"#utility.yul\":25225:26112   */\n      jump(tag_618)\n        /* \"#utility.yul\":25255:25873   */\n    tag_619:\n        /* \"#utility.yul\":25307:25311   */\n      0x1f\n        /* \"#utility.yul\":25303:25312   */\n      not\n        /* \"#utility.yul\":25295:25301   */\n      dup5\n        /* \"#utility.yul\":25291:25313   */\n      and\n        /* \"#utility.yul\":25341:25378   */\n      tag_622\n        /* \"#utility.yul\":25373:25377   */\n      dup7\n        /* \"#utility.yul\":25341:25378   */\n      tag_335\n      jump\t// in\n    tag_622:\n        /* \"#utility.yul\":25400:25401   */\n      0x00\n        /* \"#utility.yul\":25414:25622   */\n    tag_623:\n        /* \"#utility.yul\":25428:25435   */\n      dup3\n        /* \"#utility.yul\":25425:25426   */\n      dup2\n        /* \"#utility.yul\":25422:25436   */\n      lt\n        /* \"#utility.yul\":25414:25622   */\n      iszero\n      tag_625\n      jumpi\n        /* \"#utility.yul\":25507:25516   */\n      dup5\n        /* \"#utility.yul\":25502:25505   */\n      dup10\n        /* \"#utility.yul\":25498:25517   */\n      add\n        /* \"#utility.yul\":25492:25518   */\n      mload\n        /* \"#utility.yul\":25484:25490   */\n      dup3\n        /* \"#utility.yul\":25477:25519   */\n      sstore\n        /* \"#utility.yul\":25558:25559   */\n      0x01\n        /* \"#utility.yul\":25550:25556   */\n      dup3\n        /* \"#utility.yul\":25546:25560   */\n      add\n        /* \"#utility.yul\":25536:25560   */\n      swap2\n      pop\n        /* \"#utility.yul\":25605:25607   */\n      0x20\n        /* \"#utility.yul\":25594:25603   */\n      dup6\n        /* \"#utility.yul\":25590:25608   */\n      add\n        /* \"#utility.yul\":25577:25608   */\n      swap5\n      pop\n        /* \"#utility.yul\":25451:25455   */\n      0x20\n        /* \"#utility.yul\":25448:25449   */\n      dup2\n        /* \"#utility.yul\":25444:25456   */\n      add\n        /* \"#utility.yul\":25439:25456   */\n      swap1\n      pop\n        /* \"#utility.yul\":25414:25622   */\n      jump(tag_623)\n    tag_625:\n        /* \"#utility.yul\":25650:25656   */\n      dup7\n        /* \"#utility.yul\":25641:25648   */\n      dup4\n        /* \"#utility.yul\":25638:25657   */\n      lt\n        /* \"#utility.yul\":25635:25814   */\n      iszero\n      tag_626\n      jumpi\n        /* \"#utility.yul\":25708:25717   */\n      dup5\n        /* \"#utility.yul\":25703:25706   */\n      dup10\n        /* \"#utility.yul\":25699:25718   */\n      add\n        /* \"#utility.yul\":25693:25719   */\n      mload\n        /* \"#utility.yul\":25751:25799   */\n      tag_627\n        /* \"#utility.yul\":25793:25797   */\n      0x1f\n        /* \"#utility.yul\":25785:25791   */\n      dup10\n        /* \"#utility.yul\":25781:25798   */\n      and\n        /* \"#utility.yul\":25770:25779   */\n      dup3\n        /* \"#utility.yul\":25751:25799   */\n      tag_355\n      jump\t// in\n    tag_627:\n        /* \"#utility.yul\":25743:25749   */\n      dup4\n        /* \"#utility.yul\":25736:25800   */\n      sstore\n        /* \"#utility.yul\":25658:25814   */\n      pop\n        /* \"#utility.yul\":25635:25814   */\n    tag_626:\n        /* \"#utility.yul\":25860:25861   */\n      0x01\n        /* \"#utility.yul\":25856:25857   */\n      0x02\n        /* \"#utility.yul\":25848:25854   */\n      dup9\n        /* \"#utility.yul\":25844:25858   */\n      mul\n        /* \"#utility.yul\":25840:25862   */\n      add\n        /* \"#utility.yul\":25834:25838   */\n      dup9\n        /* \"#utility.yul\":25827:25863   */\n      sstore\n        /* \"#utility.yul\":25262:25873   */\n      pop\n      pop\n      pop\n        /* \"#utility.yul\":25225:26112   */\n    tag_618:\n      pop\n        /* \"#utility.yul\":24815:26118   */\n      pop\n      pop\n      pop\n        /* \"#utility.yul\":24723:26118   */\n      pop\n      pop\n      jump\t// out\n        /* \"#utility.yul\":26124:26357   */\n    tag_184:\n        /* \"#utility.yul\":26163:26166   */\n      0x00\n        /* \"#utility.yul\":26186:26210   */\n      tag_629\n        /* \"#utility.yul\":26204:26209   */\n      dup3\n        /* \"#utility.yul\":26186:26210   */\n      tag_294\n      jump\t// in\n    tag_629:\n        /* \"#utility.yul\":26177:26210   */\n      swap2\n      pop\n        /* \"#utility.yul\":26232:26298   */\n      0xffffffffffffffffffffffffffffffffffffffffffffffffffffffffffffffff\n        /* \"#utility.yul\":26225:26230   */\n      dup3\n        /* \"#utility.yul\":26222:26299   */\n      sub\n        /* \"#utility.yul\":26219:26322   */\n      tag_630\n      jumpi\n        /* \"#utility.yul\":26302:26320   */\n      tag_631\n      tag_339\n      jump\t// in\n    tag_631:\n        /* \"#utility.yul\":26219:26322   */\n    tag_630:\n        /* \"#utility.yul\":26349:26350   */\n      0x01\n        /* \"#utility.yul\":26342:26347   */\n      dup3\n        /* \"#utility.yul\":26338:26351   */\n      add\n        /* \"#utility.yul\":26331:26351   */\n      swap1\n      pop\n        /* \"#utility.yul\":26124:26357   */\n      swap2\n      swap1\n      pop\n      jump\t// out\n        /* \"#utility.yul\":26363:26589   */\n    tag_357:\n        /* \"#utility.yul\":26503:26537   */\n      0x4572726f723a20546869732064657374696e6174696f6e20616c726561647920\n        /* \"#utility.yul\":26499:26500   */\n      0x00\n        /* \"#utility.yul\":26491:26497   */\n      dup3\n        /* \"#utility.yul\":26487:26501   */\n      add\n        /* \"#utility.yul\":26480:26538   */\n      mstore\n        /* \"#utility.yul\":26572:26581   */\n      0x6578697374732100000000000000000000000000000000000000000000000000\n        /* \"#utility.yul\":26567:26569   */\n      0x20\n        /* \"#utility.yul\":26559:26565   */\n      dup3\n        /* \"#utility.yul\":26555:26570   */\n      add\n        /* \"#utility.yul\":26548:26582   */\n      mstore\n        /* \"#utility.yul\":26363:26589   */\n      pop\n      jump\t// out\n        /* \"#utility.yul\":26595:26961   */\n    tag_358:\n        /* \"#utility.yul\":26737:26740   */\n      0x00\n        /* \"#utility.yul\":26758:26825   */\n      tag_634\n        /* \"#utility.yul\":26822:26824   */\n      0x27\n        /* \"#utility.yul\":26817:26820   */\n      dup4\n        /* \"#utility.yul\":26758:26825   */\n      tag_301\n      jump\t// in\n    tag_634:\n        /* \"#utility.yul\":26751:26825   */\n      swap2\n      pop\n        /* \"#utility.yul\":26834:26927   */\n      tag_635\n        /* \"#utility.yul\":26923:26926   */\n      dup3\n        /* \"#utility.yul\":26834:26927   */\n      tag_357\n      jump\t// in\n    tag_635:\n        /* \"#utility.yul\":26952:26954   */\n      0x40\n        /* \"#utility.yul\":26947:26950   */\n      dup3\n        /* \"#utility.yul\":26943:26955   */\n      add\n        /* \"#utility.yul\":26936:26955   */\n      swap1\n      pop\n        /* \"#utility.yul\":26595:26961   */\n      swap2\n      swap1\n      pop\n      jump\t// out\n        /* \"#utility.yul\":26967:27386   */\n    tag_196:\n        /* \"#utility.yul\":27133:27137   */\n      0x00\n        /* \"#utility.yul\":27171:27173   */\n      0x20\n        /* \"#utility.yul\":27160:27169   */\n      dup3\n        /* \"#utility.yul\":27156:27174   */\n      add\n        /* \"#utility.yul\":27148:27174   */\n      swap1\n      pop\n        /* \"#utility.yul\":27220:27229   */\n      dup2\n        /* \"#utility.yul\":27214:27218   */\n      dup2\n        /* \"#utility.yul\":27210:27230   */\n      sub\n        /* \"#utility.yul\":27206:27207   */\n      0x00\n        /* \"#utility.yul\":27195:27204   */\n      dup4\n        /* \"#utility.yul\":27191:27208   */\n      add\n        /* \"#utility.yul\":27184:27231   */\n      mstore\n        /* \"#utility.yul\":27248:27379   */\n      tag_637\n        /* \"#utility.yul\":27374:27378   */\n      dup2\n        /* \"#utility.yul\":27248:27379   */\n      tag_358\n      jump\t// in\n    tag_637:\n        /* \"#utility.yul\":27240:27379   */\n      swap1\n      pop\n        /* \"#utility.yul\":26967:27386   */\n      swap2\n      swap1\n      pop\n      jump\t// out\n        /* \"#utility.yul\":27392:27620   */\n    tag_359:\n        /* \"#utility.yul\":27532:27566   */\n      0x4572726f723a20426173652070726963652063616e6e6f742062652062656c6f\n        /* \"#utility.yul\":27528:27529   */\n      0x00\n        /* \"#utility.yul\":27520:27526   */\n      dup3\n        /* \"#utility.yul\":27516:27530   */\n      add\n        /* \"#utility.yul\":27509:27567   */\n      mstore\n        /* \"#utility.yul\":27601:27612   */\n      0x7720333020576569210000000000000000000000000000000000000000000000\n        /* \"#utility.yul\":27596:27598   */\n      0x20\n        /* \"#utility.yul\":27588:27594   */\n      dup3\n        /* \"#utility.yul\":27584:27599   */\n      add\n        /* \"#utility.yul\":27577:27613   */\n      mstore\n        /* \"#utility.yul\":27392:27620   */\n      pop\n      jump\t// out\n        /* \"#utility.yul\":27626:27992   */\n    tag_360:\n        /* \"#utility.yul\":27768:27771   */\n      0x00\n        /* \"#utility.yul\":27789:27856   */\n      tag_640\n        /* \"#utility.yul\":27853:27855   */\n      0x29\n        /* \"#utility.yul\":27848:27851   */\n      dup4\n        /* \"#utility.yul\":27789:27856   */\n      tag_301\n      jump\t// in\n    tag_640:\n        /* \"#utility.yul\":27782:27856   */\n      swap2\n      pop\n        /* \"#utility.yul\":27865:27958   */\n      tag_641\n        /* \"#utility.yul\":27954:27957   */\n      dup3\n        /* \"#utility.yul\":27865:27958   */\n      tag_359\n      jump\t// in\n    tag_641:\n        /* \"#utility.yul\":27983:27985   */\n      0x40\n        /* \"#utility.yul\":27978:27981   */\n      dup3\n        /* \"#utility.yul\":27974:27986   */\n      add\n        /* \"#utility.yul\":27967:27986   */\n      swap1\n      pop\n        /* \"#utility.yul\":27626:27992   */\n      swap2\n      swap1\n      pop\n      jump\t// out\n        /* \"#utility.yul\":27998:28417   */\n    tag_199:\n        /* \"#utility.yul\":28164:28168   */\n      0x00\n        /* \"#utility.yul\":28202:28204   */\n      0x20\n        /* \"#utility.yul\":28191:28200   */\n      dup3\n        /* \"#utility.yul\":28187:28205   */\n      add\n        /* \"#utility.yul\":28179:28205   */\n      swap1\n      pop\n        /* \"#utility.yul\":28251:28260   */\n      dup2\n        /* \"#utility.yul\":28245:28249   */\n      dup2\n        /* \"#utility.yul\":28241:28261   */\n      sub\n        /* \"#utility.yul\":28237:28238   */\n      0x00\n        /* \"#utility.yul\":28226:28235   */\n      dup4\n        /* \"#utility.yul\":28222:28239   */\n      add\n        /* \"#utility.yul\":28215:28262   */\n      mstore\n        /* \"#utility.yul\":28279:28410   */\n      tag_643\n        /* \"#utility.yul\":28405:28409   */\n      dup2\n        /* \"#utility.yul\":28279:28410   */\n      tag_360\n      jump\t// in\n    tag_643:\n        /* \"#utility.yul\":28271:28410   */\n      swap1\n      pop\n        /* \"#utility.yul\":27998:28417   */\n      swap2\n      swap1\n      pop\n      jump\t// out\n        /* \"#utility.yul\":28423:28660   */\n    tag_361:\n        /* \"#utility.yul\":28563:28597   */\n      0x4e6f20617661696c61626c65207469636b65747320666f722074686520737065\n        /* \"#utility.yul\":28559:28560   */\n      0x00\n        /* \"#utility.yul\":28551:28557   */\n      dup3\n        /* \"#utility.yul\":28547:28561   */\n      add\n        /* \"#utility.yul\":28540:28598   */\n      mstore\n        /* \"#utility.yul\":28632:28652   */\n      0x6369666965642064657374696e6174696f6e0000000000000000000000000000\n        /* \"#utility.yul\":28627:28629   */\n      0x20\n        /* \"#utility.yul\":28619:28625   */\n      dup3\n        /* \"#utility.yul\":28615:28630   */\n      add\n        /* \"#utility.yul\":28608:28653   */\n      mstore\n        /* \"#utility.yul\":28423:28660   */\n      pop\n      jump\t// out\n        /* \"#utility.yul\":28666:29032   */\n    tag_362:\n        /* \"#utility.yul\":28808:28811   */\n      0x00\n        /* \"#utility.yul\":28829:28896   */\n      tag_646\n        /* \"#utility.yul\":28893:28895   */\n      0x32\n        /* \"#utility.yul\":28888:28891   */\n      dup4\n        /* \"#utility.yul\":28829:28896   */\n      tag_301\n      jump\t// in\n    tag_646:\n        /* \"#utility.yul\":28822:28896   */\n      swap2\n      pop\n        /* \"#utility.yul\":28905:28998   */\n      tag_647\n        /* \"#utility.yul\":28994:28997   */\n      dup3\n        /* \"#utility.yul\":28905:28998   */\n      tag_361\n      jump\t// in\n    tag_647:\n        /* \"#utility.yul\":29023:29025   */\n      0x40\n        /* \"#utility.yul\":29018:29021   */\n      dup3\n        /* \"#utility.yul\":29014:29026   */\n      add\n        /* \"#utility.yul\":29007:29026   */\n      swap1\n      pop\n        /* \"#utility.yul\":28666:29032   */\n      swap2\n      swap1\n      pop\n      jump\t// out\n        /* \"#utility.yul\":29038:29457   */\n    tag_282:\n        /* \"#utility.yul\":29204:29208   */\n      0x00\n        /* \"#utility.yul\":29242:29244   */\n      0x20\n        /* \"#utility.yul\":29231:29240   */\n      dup3\n        /* \"#utility.yul\":29227:29245   */\n      add\n        /* \"#utility.yul\":29219:29245   */\n      swap1\n      pop\n        /* \"#utility.yul\":29291:29300   */\n      dup2\n        /* \"#utility.yul\":29285:29289   */\n      dup2\n        /* \"#utility.yul\":29281:29301   */\n      sub\n        /* \"#utility.yul\":29277:29278   */\n      0x00\n        /* \"#utility.yul\":29266:29275   */\n      dup4\n        /* \"#utility.yul\":29262:29279   */\n      add\n        /* \"#utility.yul\":29255:29302   */\n      mstore\n        /* \"#utility.yul\":29319:29450   */\n      tag_649\n        /* \"#utility.yul\":29445:29449   */\n      dup2\n        /* \"#utility.yul\":29319:29450   */\n      tag_362\n      jump\t// in\n    tag_649:\n        /* \"#utility.yul\":29311:29450   */\n      swap1\n      pop\n        /* \"#utility.yul\":29038:29457   */\n      swap2\n      swap1\n      pop\n      jump\t// out\n        /* \"#utility.yul\":29463:29634   */\n    tag_288:\n        /* \"#utility.yul\":29502:29505   */\n      0x00\n        /* \"#utility.yul\":29525:29549   */\n      tag_651\n        /* \"#utility.yul\":29543:29548   */\n      dup3\n        /* \"#utility.yul\":29525:29549   */\n      tag_294\n      jump\t// in\n    tag_651:\n        /* \"#utility.yul\":29516:29549   */\n      swap2\n      pop\n        /* \"#utility.yul\":29571:29575   */\n      0x00\n        /* \"#utility.yul\":29564:29569   */\n      dup3\n        /* \"#utility.yul\":29561:29576   */\n      sub\n        /* \"#utility.yul\":29558:29599   */\n      tag_652\n      jumpi\n        /* \"#utility.yul\":29579:29597   */\n      tag_653\n      tag_339\n      jump\t// in\n    tag_653:\n        /* \"#utility.yul\":29558:29599   */\n    tag_652:\n        /* \"#utility.yul\":29626:29627   */\n      0x01\n        /* \"#utility.yul\":29619:29624   */\n      dup3\n        /* \"#utility.yul\":29615:29628   */\n      sub\n        /* \"#utility.yul\":29608:29628   */\n      swap1\n      pop\n        /* \"#utility.yul\":29463:29634   */\n      swap2\n      swap1\n      pop\n      jump\t// out\n        /* \"#utility.yul\":29640:29831   */\n    tag_290:\n        /* \"#utility.yul\":29680:29683   */\n      0x00\n        /* \"#utility.yul\":29699:29719   */\n      tag_655\n        /* \"#utility.yul\":29717:29718   */\n      dup3\n        /* \"#utility.yul\":29699:29719   */\n      tag_294\n      jump\t// in\n    tag_655:\n        /* \"#utility.yul\":29694:29719   */\n      swap2\n      pop\n        /* \"#utility.yul\":29733:29753   */\n      tag_656\n        /* \"#utility.yul\":29751:29752   */\n      dup4\n        /* \"#utility.yul\":29733:29753   */\n      tag_294\n      jump\t// in\n    tag_656:\n        /* \"#utility.yul\":29728:29753   */\n      swap3\n      pop\n        /* \"#utility.yul\":29776:29777   */\n      dup3\n        /* \"#utility.yul\":29773:29774   */\n      dup3\n        /* \"#utility.yul\":29769:29778   */\n      add\n        /* \"#utility.yul\":29762:29778   */\n      swap1\n      pop\n        /* \"#utility.yul\":29797:29800   */\n      dup1\n        /* \"#utility.yul\":29794:29795   */\n      dup3\n        /* \"#utility.yul\":29791:29801   */\n      gt\n        /* \"#utility.yul\":29788:29824   */\n      iszero\n      tag_657\n      jumpi\n        /* \"#utility.yul\":29804:29822   */\n      tag_658\n      tag_339\n      jump\t// in\n    tag_658:\n        /* \"#utility.yul\":29788:29824   */\n    tag_657:\n        /* \"#utility.yul\":29640:29831   */\n      swap3\n      swap2\n      pop\n      pop\n      jump\t// out\n\n    auxdata: 0xa26469706673582212204a9e260a725ca4fdde8247a9ae6287d505518f7f3044b997a60510e5f6c3644264736f6c634300081c0033\n}\n","bytecode":{"linkReferences":{},"object":"608060405234801561000f575f5ffd5b5060405161317738038061317783398181016040528101906100319190610664565b335f5f6101000a81548173ffffffffffffffffffffffffffffffffffffffff021916908373ffffffffffffffffffffffffffffffffffffffff1602179055505f60155f6101000a81548160ff0219169083151502179055505f6016819055505f601481905550600182908060018154018082558091505060019003905f5260205f20015f9091909190915090816100c891906108c5565b50600281908060018154018082558091505060019003905f5260205f20015f90919091909150556003601e908060018154018082558091505060019003905f5260205f20015f909190919091505560145460048360405161012991906109ce565b90815260200160405180910390208190555061014c33838361030a60201b60201c565b600360055f600c8110610162576101616109e4565b5b0181905550600260056001600c811061017e5761017d6109e4565b5b0181905550600460056002600c811061019a576101996109e4565b5b01819055506005806003600c81106101b5576101b46109e4565b5b0181905550600360056004600c81106101d1576101d06109e4565b5b0181905550600c600580600c81106101ec576101eb6109e4565b5b0181905550600b60056006600c8110610208576102076109e4565b5b0181905550600c60056007600c8110610224576102236109e4565b5b0181905550600f60056008600c81106102405761023f6109e4565b5b0181905550600e60056009600c811061025c5761025b6109e4565b5b0181905550600b6005600a600c8110610278576102776109e4565b5b0181905550600d6005600b600c8110610294576102936109e4565b5b0181905550600160115f600381106102af576102ae6109e4565b5b0181905550600260116001600381106102cb576102ca6109e4565b5b0181905550600360116002600381106102e7576102e66109e4565b5b018190555060145f8154809291906102fe90610a3e565b91905055505050610a85565b5f5f9054906101000a900473ffffffffffffffffffffffffffffffffffffffff1673ffffffffffffffffffffffffffffffffffffffff163373ffffffffffffffffffffffffffffffffffffffff1614610361575f5ffd5b5f5f90505b601e8110156104de575f60185490506040518061010001604052808673ffffffffffffffffffffffffffffffffffffffff16815260200185815260200184815260200183815260200160405180602001604052805f81525081526020015f151581526020016001151581526020015f81525060175f8381526020019081526020015f205f820151815f015f6101000a81548173ffffffffffffffffffffffffffffffffffffffff021916908373ffffffffffffffffffffffffffffffffffffffff160217905550602082015181600101908161044291906108c5565b506040820151816002015560608201518160030155608082015181600401908161046c91906108c5565b5060a0820151816005015f6101000a81548160ff02191690831515021790555060c08201518160050160016101000a81548160ff02191690831515021790555060e0820151816006015590505060185f8154809291906104cb90610a3e565b9190505550508080600101915050610366565b50505050565b5f604051905090565b5f5ffd5b5f5ffd5b5f5ffd5b5f5ffd5b5f601f19601f8301169050919050565b7f4e487b71000000000000000000000000000000000000000000000000000000005f52604160045260245ffd5b610543826104fd565b810181811067ffffffffffffffff821117156105625761056161050d565b5b80604052505050565b5f6105746104e4565b9050610580828261053a565b919050565b5f67ffffffffffffffff82111561059f5761059e61050d565b5b6105a8826104fd565b9050602081019050919050565b8281835e5f83830152505050565b5f6105d56105d084610585565b61056b565b9050828152602081018484840111156105f1576105f06104f9565b5b6105fc8482856105b5565b509392505050565b5f82601f830112610618576106176104f5565b5b81516106288482602086016105c3565b91505092915050565b5f819050919050565b61064381610631565b811461064d575f5ffd5b50565b5f8151905061065e8161063a565b92915050565b5f5f6040838503121561067a576106796104ed565b5b5f83015167ffffffffffffffff811115610697576106966104f1565b5b6106a385828601610604565b92505060206106b485828601610650565b9150509250929050565b5f81519050919050565b7f4e487b71000000000000000000000000000000000000000000000000000000005f52602260045260245ffd5b5f600282049050600182168061070c57607f821691505b60208210810361071f5761071e6106c8565b5b50919050565b5f819050815f5260205f209050919050565b5f6020601f8301049050919050565b5f82821b905092915050565b5f600883026107817fffffffffffffffffffffffffffffffffffffffffffffffffffffffffffffffff82610746565b61078b8683610746565b95508019841693508086168417925050509392505050565b5f819050919050565b5f6107c66107c16107bc84610631565b6107a3565b610631565b9050919050565b5f819050919050565b6107df836107ac565b6107f36107eb826107cd565b848454610752565b825550505050565b5f5f905090565b61080a6107fb565b6108158184846107d6565b505050565b5b818110156108385761082d5f82610802565b60018101905061081b565b5050565b601f82111561087d5761084e81610725565b61085784610737565b81016020851015610866578190505b61087a61087285610737565b83018261081a565b50505b505050565b5f82821c905092915050565b5f61089d5f1984600802610882565b1980831691505092915050565b5f6108b5838361088e565b9150826002028217905092915050565b6108ce826106be565b67ffffffffffffffff8111156108e7576108e661050d565b5b6108f182546106f5565b6108fc82828561083c565b5f60209050601f83116001811461092d575f841561091b578287015190505b61092585826108aa565b86555061098c565b601f19841661093b86610725565b5f5b828110156109625784890151825560018201915060208501945060208101905061093d565b8683101561097f578489015161097b601f89168261088e565b8355505b6001600288020188555050505b505050505050565b5f81905092915050565b5f6109a8826106be565b6109b28185610994565b93506109c28185602086016105b5565b80840191505092915050565b5f6109d9828461099e565b915081905092915050565b7f4e487b71000000000000000000000000000000000000000000000000000000005f52603260045260245ffd5b7f4e487b71000000000000000000000000000000000000000000000000000000005f52601160045260245ffd5b5f610a4882610631565b91507fffffffffffffffffffffffffffffffffffffffffffffffffffffffffffffffff8203610a7a57610a79610a11565b5b600182019050919050565b6126e580610a925f395ff3fe608060405260043610610113575f3560e01c80636031a52f1161009f578063ad03fe7011610063578063ad03fe70146103e2578063c87055441461041e578063cb2cc82a14610448578063ea6e358e14610484578063ff203bc0146104a057610113565b80636031a52f14610300578063695dc67e1461032a5780638dd4ba2e14610366578063908921fc146103a2578063aafc8d74146103cc57610113565b8063195c1445116100e6578063195c1445146101fc5780632427e59e146102385780633b33c702146102745780634afe9f7b146102b05780635e583e37146102d857610113565b8063033fab351461011757806306661abd1461015a57806307819bd6146101845780631165e6ab146101c0575b5f5ffd5b348015610122575f5ffd5b5061013d6004803603810190610138919061175d565b6104ca565b604051610151989796959493929190611860565b60405180910390f35b348015610165575f5ffd5b5061016e610652565b60405161017b91906118ea565b60405180910390f35b34801561018f575f5ffd5b506101aa60048036038101906101a59190611a59565b610658565b6040516101b791906118ea565b60405180910390f35b3480156101cb575f5ffd5b506101e660048036038101906101e19190611b03565b61080e565b6040516101f39190611b2e565b60405180910390f35b348015610207575f5ffd5b50610222600480360381019061021d919061175d565b6108a6565b60405161022f91906118ea565b60405180910390f35b348015610243575f5ffd5b5061025e60048036038101906102599190611b47565b6108c6565b60405161026b91906118ea565b60405180910390f35b34801561027f575f5ffd5b5061029a6004803603810190610295919061175d565b6108f3565b6040516102a791906118ea565b60405180910390f35b3480156102bb575f5ffd5b506102d660048036038101906102d19190611b8e565b610913565b005b3480156102e3575f5ffd5b506102fe60048036038101906102f99190611bfa565b610aed565b005b34801561030b575f5ffd5b50610314610d18565b60405161032191906118ea565b60405180910390f35b348015610335575f5ffd5b50610350600480360381019061034b919061175d565b610d1e565b60405161035d91906118ea565b60405180910390f35b348015610371575f5ffd5b5061038c6004803603810190610387919061175d565b610d37565b6040516103999190611c54565b60405180910390f35b3480156103ad575f5ffd5b506103b6610ddd565b6040516103c39190611c74565b60405180910390f35b3480156103d7575f5ffd5b506103e0610e01565b005b3480156103ed575f5ffd5b5061040860048036038101906104039190611b03565b610ef8565b6040516104159190611e71565b60405180910390f35b348015610429575f5ffd5b506104326112e0565b60405161043f91906118ea565b60405180910390f35b348015610453575f5ffd5b5061046e6004803603810190610469919061175d565b6112e6565b60405161047b91906118ea565b60405180910390f35b61049e60048036038101906104999190611a59565b6112ff565b005b3480156104ab575f5ffd5b506104b46116ae565b6040516104c19190611b2e565b60405180910390f35b6017602052805f5260405f205f91509050805f015f9054906101000a900473ffffffffffffffffffffffffffffffffffffffff169080600101805461050e90611ebe565b80601f016020809104026020016040519081016040528092919081815260200182805461053a90611ebe565b80156105855780601f1061055c57610100808354040283529160200191610585565b820191905f5260205f20905b81548152906001019060200180831161056857829003601f168201915b5050505050908060020154908060030154908060040180546105a690611ebe565b80601f01602080910402602001604051908101604052809291908181526020018280546105d290611ebe565b801561061d5780601f106105f45761010080835404028352916020019161061d565b820191905f5260205f20905b81548152906001019060200180831161060057829003601f168201915b505050505090806005015f9054906101000a900460ff16908060050160019054906101000a900460ff16908060060154905088565b60145481565b5f8460405160200161066a9190611f28565b6040516020818303038152906040528051906020012060016004876040516106929190611f28565b908152602001604051809103902054815481106106b2576106b1611f3e565b5b905f5260205f20016040516020016106ca9190611ffd565b6040516020818303038152906040528051906020012014610720576040517f08c379a000000000000000000000000000000000000000000000000000000000815260040161071790612083565b60405180910390fd5b5f601160018561073091906120ce565b6003811061074157610740611f3e565b5b015490505f600560018761075591906120ce565b600c811061076657610765611f3e565b5b015490505f82600260048a60405161077e9190611f28565b9081526020016040518091039020548154811061079e5761079d611f3e565b5b905f5260205f2001546107b19190612101565b905084156107c9576002816107c69190612101565b90505b81600a11156107e85781816107de919061216f565b9350505050610806565b600a826107f591906120ce565b816108009190612101565b93505050505b949350505050565b5f5f5f9054906101000a900473ffffffffffffffffffffffffffffffffffffffff1673ffffffffffffffffffffffffffffffffffffffff168273ffffffffffffffffffffffffffffffffffffffff161461089d576040517f08c379a0000000000000000000000000000000000000000000000000000000008152600401610894906121e9565b60405180910390fd5b60019050919050565b600281815481106108b5575f80fd5b905f5260205f20015f915090505481565b6004818051602081018201805184825260208301602085012081835280955050505050505f915090505481565b60038181548110610902575f80fd5b905f5260205f20015f915090505481565b5f5f9054906101000a900473ffffffffffffffffffffffffffffffffffffffff1673ffffffffffffffffffffffffffffffffffffffff163373ffffffffffffffffffffffffffffffffffffffff161461096a575f5ffd5b5f5f90505b601e811015610ae7575f60185490506040518061010001604052808673ffffffffffffffffffffffffffffffffffffffff16815260200185815260200184815260200183815260200160405180602001604052805f81525081526020015f151581526020016001151581526020015f81525060175f8381526020019081526020015f205f820151815f015f6101000a81548173ffffffffffffffffffffffffffffffffffffffff021916908373ffffffffffffffffffffffffffffffffffffffff1602179055506020820151816001019081610a4b9190612395565b5060408201518160020155606082015181600301556080820151816004019081610a759190612395565b5060a0820151816005015f6101000a81548160ff02191690831515021790555060c08201518160050160016101000a81548160ff02191690831515021790555060e0820151816006015590505060185f815480929190610ad490612464565b919050555050808060010191505061096f565b50505050565b5f5f9054906101000a900473ffffffffffffffffffffffffffffffffffffffff1673ffffffffffffffffffffffffffffffffffffffff163373ffffffffffffffffffffffffffffffffffffffff1614610b44575f5ffd5b81604051602001610b559190611f28565b604051602081830303815290604052805190602001206001600484604051610b7d9190611f28565b90815260200160405180910390205481548110610b9d57610b9c611f3e565b5b905f5260205f2001604051602001610bb59190611ffd565b6040516020818303038152906040528051906020012003610c0b576040517f08c379a0000000000000000000000000000000000000000000000000000000008152600401610c029061251b565b60405180910390fd5b601e8111610c4e576040517f08c379a0000000000000000000000000000000000000000000000000000000008152600401610c45906125a9565b60405180910390fd5b610c59338383610913565b600182908060018154018082558091505060019003905f5260205f20015f909190919091509081610c8a9190612395565b50600281908060018154018082558091505060019003905f5260205f20015f9091909190915055601454600483604051610cc49190611f28565b9081526020016040518091039020819055506003601e908060018154018082558091505060019003905f5260205f20015f909190919091505560145f815480929190610d0f90612464565b91905055505050565b60185481565b60118160038110610d2d575f80fd5b015f915090505481565b60018181548110610d46575f80fd5b905f5260205f20015f915090508054610d5e90611ebe565b80601f0160208091040260200160405190810160405280929190818152602001828054610d8a90611ebe565b8015610dd55780601f10610dac57610100808354040283529160200191610dd5565b820191905f5260205f20905b815481529060010190602001808311610db857829003601f168201915b505050505081565b5f5f9054906101000a900473ffffffffffffffffffffffffffffffffffffffff1681565b5f5f9054906101000a900473ffffffffffffffffffffffffffffffffffffffff1673ffffffffffffffffffffffffffffffffffffffff163373ffffffffffffffffffffffffffffffffffffffff1614610e58575f5ffd5b5f5f9054906101000a900473ffffffffffffffffffffffffffffffffffffffff1673ffffffffffffffffffffffffffffffffffffffff166108fc600a6009601654610ea39190612101565b610ead919061216f565b90811502906040515f60405180830381858888f19350505050158015610ed5573d5f5f3e3d5ffd5b505f60155f6101000a81548160ff0219169083151502179055505f601681905550565b60605f5f90505f5f90505b601854811015610fba578373ffffffffffffffffffffffffffffffffffffffff1660175f8381526020019081526020015f205f015f9054906101000a900473ffffffffffffffffffffffffffffffffffffffff1673ffffffffffffffffffffffffffffffffffffffff16148015610f99575060175f8281526020019081526020015f2060050160019054906101000a900460ff16155b15610fad578180610fa990612464565b9250505b8080600101915050610f03565b505f8167ffffffffffffffff811115610fd657610fd561190b565b5b60405190808252806020026020018201604052801561100f57816020015b610ffc6116c0565b815260200190600190039081610ff45790505b5090505f5f90505f5f90505b6018548110156112d4578573ffffffffffffffffffffffffffffffffffffffff1660175f8381526020019081526020015f205f015f9054906101000a900473ffffffffffffffffffffffffffffffffffffffff1673ffffffffffffffffffffffffffffffffffffffff161480156110b1575060175f8281526020019081526020015f2060050160019054906101000a900460ff16155b156112c75760175f8281526020019081526020015f20604051806101000160405290815f82015f9054906101000a900473ffffffffffffffffffffffffffffffffffffffff1673ffffffffffffffffffffffffffffffffffffffff1673ffffffffffffffffffffffffffffffffffffffff16815260200160018201805461113790611ebe565b80601f016020809104026020016040519081016040528092919081815260200182805461116390611ebe565b80156111ae5780601f10611185576101008083540402835291602001916111ae565b820191905f5260205f20905b81548152906001019060200180831161119157829003601f168201915b5050505050815260200160028201548152602001600382015481526020016004820180546111db90611ebe565b80601f016020809104026020016040519081016040528092919081815260200182805461120790611ebe565b80156112525780601f1061122957610100808354040283529160200191611252565b820191905f5260205f20905b81548152906001019060200180831161123557829003601f168201915b50505050508152602001600582015f9054906101000a900460ff161515151581526020016005820160019054906101000a900460ff161515151581526020016006820154815250508383815181106112ad576112ac611f3e565b5b602002602001018190525081806112c390612464565b9250505b808060010191505061101b565b50819350505050919050565b60165481565b600581600c81106112f5575f80fd5b015f915090505481565b61130b84848484610658565b3414611315575f5ffd5b836040516020016113269190611f28565b60405160208183030381529060405280519060200120600160048660405161134e9190611f28565b9081526020016040518091039020548154811061136e5761136d611f3e565b5b905f5260205f20016040516020016113869190611ffd565b60405160208183030381529060405280519060200120146113dc576040517f08c379a00000000000000000000000000000000000000000000000000000000081526004016113d390612083565b60405180910390fd5b5f5f90505f5f90505b6018548110156115e5575f60175f8381526020019081526020015f209050866040516020016114149190611f28565b604051602081830303815290604052805190602001208160010160405160200161143e9190611ffd565b6040516020818303038152906040528051906020012014801561146f57508060050160019054906101000a900460ff165b156115d75733815f015f6101000a81548173ffffffffffffffffffffffffffffffffffffffff021916908373ffffffffffffffffffffffffffffffffffffffff1602179055506001851461153c5760028514611500576040518060400160405280600581526020017f4669727374000000000000000000000000000000000000000000000000000000815250611537565b6040518060400160405280600881526020017f427573696e6573730000000000000000000000000000000000000000000000008152505b611573565b6040518060400160405280600781526020017f45636f6e6f6d79000000000000000000000000000000000000000000000000008152505b8160040190816115839190612395565b5083816005015f6101000a81548160ff0219169083151502179055505f8160050160016101000a81548160ff02191690831515021790555085816006018190555034816002018190555060019250506115e5565b5080806001019150506113e5565b5080611626576040517f08c379a000000000000000000000000000000000000000000000000000000000815260040161161d90612637565b60405180910390fd5b60036004866040516116389190611f28565b9081526020016040518091039020548154811061165857611657611f3e565b5b905f5260205f20015f81548092919061167090612655565b91905055503460165f828254611686919061267c565b92505081905550600160155f6101000a81548160ff0219169083151502179055505050505050565b60155f9054906101000a900460ff1681565b6040518061010001604052805f73ffffffffffffffffffffffffffffffffffffffff168152602001606081526020015f81526020015f8152602001606081526020015f151581526020015f151581526020015f81525090565b5f604051905090565b5f5ffd5b5f5ffd5b5f819050919050565b61173c8161172a565b8114611746575f5ffd5b50565b5f8135905061175781611733565b92915050565b5f6020828403121561177257611771611722565b5b5f61177f84828501611749565b91505092915050565b5f73ffffffffffffffffffffffffffffffffffffffff82169050919050565b5f6117b182611788565b9050919050565b6117c1816117a7565b82525050565b5f81519050919050565b5f82825260208201905092915050565b8281835e5f83830152505050565b5f601f19601f8301169050919050565b5f611809826117c7565b61181381856117d1565b93506118238185602086016117e1565b61182c816117ef565b840191505092915050565b6118408161172a565b82525050565b5f8115159050919050565b61185a81611846565b82525050565b5f610100820190506118745f83018b6117b8565b8181036020830152611886818a6117ff565b90506118956040830189611837565b6118a26060830188611837565b81810360808301526118b481876117ff565b90506118c360a0830186611851565b6118d060c0830185611851565b6118dd60e0830184611837565b9998505050505050505050565b5f6020820190506118fd5f830184611837565b92915050565b5f5ffd5b5f5ffd5b7f4e487b71000000000000000000000000000000000000000000000000000000005f52604160045260245ffd5b611941826117ef565b810181811067ffffffffffffffff821117156119605761195f61190b565b5b80604052505050565b5f611972611719565b905061197e8282611938565b919050565b5f67ffffffffffffffff82111561199d5761199c61190b565b5b6119a6826117ef565b9050602081019050919050565b828183375f83830152505050565b5f6119d36119ce84611983565b611969565b9050828152602081018484840111156119ef576119ee611907565b5b6119fa8482856119b3565b509392505050565b5f82601f830112611a1657611a15611903565b5b8135611a268482602086016119c1565b91505092915050565b611a3881611846565b8114611a42575f5ffd5b50565b5f81359050611a5381611a2f565b92915050565b5f5f5f5f60808587031215611a7157611a70611722565b5b5f85013567ffffffffffffffff811115611a8e57611a8d611726565b5b611a9a87828801611a02565b9450506020611aab87828801611749565b9350506040611abc87828801611749565b9250506060611acd87828801611a45565b91505092959194509250565b611ae2816117a7565b8114611aec575f5ffd5b50565b5f81359050611afd81611ad9565b92915050565b5f60208284031215611b1857611b17611722565b5b5f611b2584828501611aef565b91505092915050565b5f602082019050611b415f830184611851565b92915050565b5f60208284031215611b5c57611b5b611722565b5b5f82013567ffffffffffffffff811115611b7957611b78611726565b5b611b8584828501611a02565b91505092915050565b5f5f5f60608486031215611ba557611ba4611722565b5b5f611bb286828701611aef565b935050602084013567ffffffffffffffff811115611bd357611bd2611726565b5b611bdf86828701611a02565b9250506040611bf086828701611749565b9150509250925092565b5f5f60408385031215611c1057611c0f611722565b5b5f83013567ffffffffffffffff811115611c2d57611c2c611726565b5b611c3985828601611a02565b9250506020611c4a85828601611749565b9150509250929050565b5f6020820190508181035f830152611c6c81846117ff565b905092915050565b5f602082019050611c875f8301846117b8565b92915050565b5f81519050919050565b5f82825260208201905092915050565b5f819050602082019050919050565b611cbf816117a7565b82525050565b5f82825260208201905092915050565b5f611cdf826117c7565b611ce98185611cc5565b9350611cf98185602086016117e1565b611d02816117ef565b840191505092915050565b611d168161172a565b82525050565b611d2581611846565b82525050565b5f61010083015f830151611d415f860182611cb6565b5060208301518482036020860152611d598282611cd5565b9150506040830151611d6e6040860182611d0d565b506060830151611d816060860182611d0d565b5060808301518482036080860152611d998282611cd5565b91505060a0830151611dae60a0860182611d1c565b5060c0830151611dc160c0860182611d1c565b5060e0830151611dd460e0860182611d0d565b508091505092915050565b5f611dea8383611d2b565b905092915050565b5f602082019050919050565b5f611e0882611c8d565b611e128185611c97565b935083602082028501611e2485611ca7565b805f5b85811015611e5f5784840389528151611e408582611ddf565b9450611e4b83611df2565b925060208a01995050600181019050611e27565b50829750879550505050505092915050565b5f6020820190508181035f830152611e898184611dfe565b905092915050565b7f4e487b71000000000000000000000000000000000000000000000000000000005f52602260045260245ffd5b5f6002820490506001821680611ed557607f821691505b602082108103611ee857611ee7611e91565b5b50919050565b5f81905092915050565b5f611f02826117c7565b611f0c8185611eee565b9350611f1c8185602086016117e1565b80840191505092915050565b5f611f338284611ef8565b915081905092915050565b7f4e487b71000000000000000000000000000000000000000000000000000000005f52603260045260245ffd5b5f819050815f5260205f209050919050565b5f8154611f8981611ebe565b611f938186611eee565b9450600182165f8114611fad5760018114611fc257611ff4565b60ff1983168652811515820286019350611ff4565b611fcb85611f6b565b5f5b83811015611fec57815481890152600182019150602081019050611fcd565b838801955050505b50505092915050565b5f6120088284611f7d565b915081905092915050565b7f4572726f723a20546869732064657374696e6174696f6e20646f65736e2774205f8201527f6578697374210000000000000000000000000000000000000000000000000000602082015250565b5f61206d6026836117d1565b915061207882612013565b604082019050919050565b5f6020820190508181035f83015261209a81612061565b9050919050565b7f4e487b71000000000000000000000000000000000000000000000000000000005f52601160045260245ffd5b5f6120d88261172a565b91506120e38361172a565b92508282039050818111156120fb576120fa6120a1565b5b92915050565b5f61210b8261172a565b91506121168361172a565b92508282026121248161172a565b9150828204841483151761213b5761213a6120a1565b5b5092915050565b7f4e487b71000000000000000000000000000000000000000000000000000000005f52601260045260245ffd5b5f6121798261172a565b91506121848361172a565b92508261219457612193612142565b5b828204905092915050565b7f596f7520617265206e6f74207468652043454f210000000000000000000000005f82015250565b5f6121d36014836117d1565b91506121de8261219f565b602082019050919050565b5f6020820190508181035f830152612200816121c7565b9050919050565b5f6020601f8301049050919050565b5f82821b905092915050565b5f600883026122517fffffffffffffffffffffffffffffffffffffffffffffffffffffffffffffffff82612216565b61225b8683612216565b95508019841693508086168417925050509392505050565b5f819050919050565b5f61229661229161228c8461172a565b612273565b61172a565b9050919050565b5f819050919050565b6122af8361227c565b6122c36122bb8261229d565b848454612222565b825550505050565b5f5f905090565b6122da6122cb565b6122e58184846122a6565b505050565b5b81811015612308576122fd5f826122d2565b6001810190506122eb565b5050565b601f82111561234d5761231e81611f6b565b61232784612207565b81016020851015612336578190505b61234a61234285612207565b8301826122ea565b50505b505050565b5f82821c905092915050565b5f61236d5f1984600802612352565b1980831691505092915050565b5f612385838361235e565b9150826002028217905092915050565b61239e826117c7565b67ffffffffffffffff8111156123b7576123b661190b565b5b6123c18254611ebe565b6123cc82828561230c565b5f60209050601f8311600181146123fd575f84156123eb578287015190505b6123f5858261237a565b86555061245c565b601f19841661240b86611f6b565b5f5b828110156124325784890151825560018201915060208501945060208101905061240d565b8683101561244f578489015161244b601f89168261235e565b8355505b6001600288020188555050505b505050505050565b5f61246e8261172a565b91507fffffffffffffffffffffffffffffffffffffffffffffffffffffffffffffffff82036124a05761249f6120a1565b5b600182019050919050565b7f4572726f723a20546869732064657374696e6174696f6e20616c7265616479205f8201527f6578697374732100000000000000000000000000000000000000000000000000602082015250565b5f6125056027836117d1565b9150612510826124ab565b604082019050919050565b5f6020820190508181035f830152612532816124f9565b9050919050565b7f4572726f723a20426173652070726963652063616e6e6f742062652062656c6f5f8201527f7720333020576569210000000000000000000000000000000000000000000000602082015250565b5f6125936029836117d1565b915061259e82612539565b604082019050919050565b5f6020820190508181035f8301526125c081612587565b9050919050565b7f4e6f20617661696c61626c65207469636b65747320666f7220746865207370655f8201527f6369666965642064657374696e6174696f6e0000000000000000000000000000602082015250565b5f6126216032836117d1565b915061262c826125c7565b604082019050919050565b5f6020820190508181035f83015261264e81612615565b9050919050565b5f61265f8261172a565b91505f8203612671576126706120a1565b5b600182039050919050565b5f6126868261172a565b91506126918361172a565b92508282019050808211156126a9576126a86120a1565b5b9291505056fea26469706673582212204a9e260a725ca4fdde8247a9ae6287d505518f7f3044b997a60510e5f6c3644264736f6c634300081c0033","opcodes":"PUSH1 0x80 PUSH1 0x40 MSTORE CALLVALUE DUP1 ISZERO PUSH2 0xF JUMPI PUSH0 PUSH0 REVERT JUMPDEST POP PUSH1 0x40 MLOAD PUSH2 0x3177 CODESIZE SUB DUP1 PUSH2 0x3177 DUP4 CODECOPY DUP2 DUP2 ADD PUSH1 0x40 MSTORE DUP2 ADD SWAP1 PUSH2 0x31 SWAP2 SWAP1 PUSH2 0x664 JUMP JUMPDEST CALLER PUSH0 PUSH0 PUSH2 0x100 EXP DUP2 SLOAD DUP2 PUSH20 0xFFFFFFFFFFFFFFFFFFFFFFFFFFFFFFFFFFFFFFFF MUL NOT AND SWAP1 DUP4 PUSH20 0xFFFFFFFFFFFFFFFFFFFFFFFFFFFFFFFFFFFFFFFF AND MUL OR SWAP1 SSTORE POP PUSH0 PUSH1 0x15 PUSH0 PUSH2 0x100 EXP DUP2 SLOAD DUP2 PUSH1 0xFF MUL NOT AND SWAP1 DUP4 ISZERO ISZERO MUL OR SWAP1 SSTORE POP PUSH0 PUSH1 0x16 DUP2 SWAP1 SSTORE POP PUSH0 PUSH1 0x14 DUP2 SWAP1 SSTORE POP PUSH1 0x1 DUP3 SWAP1 DUP1 PUSH1 0x1 DUP2 SLOAD ADD DUP1 DUP3 SSTORE DUP1 SWAP2 POP POP PUSH1 0x1 SWAP1 SUB SWAP1 PUSH0 MSTORE PUSH1 0x20 PUSH0 KECCAK256 ADD PUSH0 SWAP1 SWAP2 SWAP1 SWAP2 SWAP1 SWAP2 POP SWAP1 DUP2 PUSH2 0xC8 SWAP2 SWAP1 PUSH2 0x8C5 JUMP JUMPDEST POP PUSH1 0x2 DUP2 SWAP1 DUP1 PUSH1 0x1 DUP2 SLOAD ADD DUP1 DUP3 SSTORE DUP1 SWAP2 POP POP PUSH1 0x1 SWAP1 SUB SWAP1 PUSH0 MSTORE PUSH1 0x20 PUSH0 KECCAK256 ADD PUSH0 SWAP1 SWAP2 SWAP1 SWAP2 SWAP1 SWAP2 POP SSTORE PUSH1 0x3 PUSH1 0x1E SWAP1 DUP1 PUSH1 0x1 DUP2 SLOAD ADD DUP1 DUP3 SSTORE DUP1 SWAP2 POP POP PUSH1 0x1 SWAP1 SUB SWAP1 PUSH0 MSTORE PUSH1 0x20 PUSH0 KECCAK256 ADD PUSH0 SWAP1 SWAP2 SWAP1 SWAP2 SWAP1 SWAP2 POP SSTORE PUSH1 0x14 SLOAD PUSH1 0x4 DUP4 PUSH1 0x40 MLOAD PUSH2 0x129 SWAP2 SWAP1 PUSH2 0x9CE JUMP JUMPDEST SWAP1 DUP2 MSTORE PUSH1 0x20 ADD PUSH1 0x40 MLOAD DUP1 SWAP2 SUB SWAP1 KECCAK256 DUP2 SWAP1 SSTORE POP PUSH2 0x14C CALLER DUP4 DUP4 PUSH2 0x30A PUSH1 0x20 SHL PUSH1 0x20 SHR JUMP JUMPDEST PUSH1 0x3 PUSH1 0x5 PUSH0 PUSH1 0xC DUP2 LT PUSH2 0x162 JUMPI PUSH2 0x161 PUSH2 0x9E4 JUMP JUMPDEST JUMPDEST ADD DUP2 SWAP1 SSTORE POP PUSH1 0x2 PUSH1 0x5 PUSH1 0x1 PUSH1 0xC DUP2 LT PUSH2 0x17E JUMPI PUSH2 0x17D PUSH2 0x9E4 JUMP JUMPDEST JUMPDEST ADD DUP2 SWAP1 SSTORE POP PUSH1 0x4 PUSH1 0x5 PUSH1 0x2 PUSH1 0xC DUP2 LT PUSH2 0x19A JUMPI PUSH2 0x199 PUSH2 0x9E4 JUMP JUMPDEST JUMPDEST ADD DUP2 SWAP1 SSTORE POP PUSH1 0x5 DUP1 PUSH1 0x3 PUSH1 0xC DUP2 LT PUSH2 0x1B5 JUMPI PUSH2 0x1B4 PUSH2 0x9E4 JUMP JUMPDEST JUMPDEST ADD DUP2 SWAP1 SSTORE POP PUSH1 0x3 PUSH1 0x5 PUSH1 0x4 PUSH1 0xC DUP2 LT PUSH2 0x1D1 JUMPI PUSH2 0x1D0 PUSH2 0x9E4 JUMP JUMPDEST JUMPDEST ADD DUP2 SWAP1 SSTORE POP PUSH1 0xC PUSH1 0x5 DUP1 PUSH1 0xC DUP2 LT PUSH2 0x1EC JUMPI PUSH2 0x1EB PUSH2 0x9E4 JUMP JUMPDEST JUMPDEST ADD DUP2 SWAP1 SSTORE POP PUSH1 0xB PUSH1 0x5 PUSH1 0x6 PUSH1 0xC DUP2 LT PUSH2 0x208 JUMPI PUSH2 0x207 PUSH2 0x9E4 JUMP JUMPDEST JUMPDEST ADD DUP2 SWAP1 SSTORE POP PUSH1 0xC PUSH1 0x5 PUSH1 0x7 PUSH1 0xC DUP2 LT PUSH2 0x224 JUMPI PUSH2 0x223 PUSH2 0x9E4 JUMP JUMPDEST JUMPDEST ADD DUP2 SWAP1 SSTORE POP PUSH1 0xF PUSH1 0x5 PUSH1 0x8 PUSH1 0xC DUP2 LT PUSH2 0x240 JUMPI PUSH2 0x23F PUSH2 0x9E4 JUMP JUMPDEST JUMPDEST ADD DUP2 SWAP1 SSTORE POP PUSH1 0xE PUSH1 0x5 PUSH1 0x9 PUSH1 0xC DUP2 LT PUSH2 0x25C JUMPI PUSH2 0x25B PUSH2 0x9E4 JUMP JUMPDEST JUMPDEST ADD DUP2 SWAP1 SSTORE POP PUSH1 0xB PUSH1 0x5 PUSH1 0xA PUSH1 0xC DUP2 LT PUSH2 0x278 JUMPI PUSH2 0x277 PUSH2 0x9E4 JUMP JUMPDEST JUMPDEST ADD DUP2 SWAP1 SSTORE POP PUSH1 0xD PUSH1 0x5 PUSH1 0xB PUSH1 0xC DUP2 LT PUSH2 0x294 JUMPI PUSH2 0x293 PUSH2 0x9E4 JUMP JUMPDEST JUMPDEST ADD DUP2 SWAP1 SSTORE POP PUSH1 0x1 PUSH1 0x11 PUSH0 PUSH1 0x3 DUP2 LT PUSH2 0x2AF JUMPI PUSH2 0x2AE PUSH2 0x9E4 JUMP JUMPDEST JUMPDEST ADD DUP2 SWAP1 SSTORE POP PUSH1 0x2 PUSH1 0x11 PUSH1 0x1 PUSH1 0x3 DUP2 LT PUSH2 0x2CB JUMPI PUSH2 0x2CA PUSH2 0x9E4 JUMP JUMPDEST JUMPDEST ADD DUP2 SWAP1 SSTORE POP PUSH1 0x3 PUSH1 0x11 PUSH1 0x2 PUSH1 0x3 DUP2 LT PUSH2 0x2E7 JUMPI PUSH2 0x2E6 PUSH2 0x9E4 JUMP JUMPDEST JUMPDEST ADD DUP2 SWAP1 SSTORE POP PUSH1 0x14 PUSH0 DUP2 SLOAD DUP1 SWAP3 SWAP2 SWAP1 PUSH2 0x2FE SWAP1 PUSH2 0xA3E JUMP JUMPDEST SWAP2 SWAP1 POP SSTORE POP POP POP PUSH2 0xA85 JUMP JUMPDEST PUSH0 PUSH0 SWAP1 SLOAD SWAP1 PUSH2 0x100 EXP SWAP1 DIV PUSH20 0xFFFFFFFFFFFFFFFFFFFFFFFFFFFFFFFFFFFFFFFF AND PUSH20 0xFFFFFFFFFFFFFFFFFFFFFFFFFFFFFFFFFFFFFFFF AND CALLER PUSH20 0xFFFFFFFFFFFFFFFFFFFFFFFFFFFFFFFFFFFFFFFF AND EQ PUSH2 0x361 JUMPI PUSH0 PUSH0 REVERT JUMPDEST PUSH0 PUSH0 SWAP1 POP JUMPDEST PUSH1 0x1E DUP2 LT ISZERO PUSH2 0x4DE JUMPI PUSH0 PUSH1 0x18 SLOAD SWAP1 POP PUSH1 0x40 MLOAD DUP1 PUSH2 0x100 ADD PUSH1 0x40 MSTORE DUP1 DUP7 PUSH20 0xFFFFFFFFFFFFFFFFFFFFFFFFFFFFFFFFFFFFFFFF AND DUP2 MSTORE PUSH1 0x20 ADD DUP6 DUP2 MSTORE PUSH1 0x20 ADD DUP5 DUP2 MSTORE PUSH1 0x20 ADD DUP4 DUP2 MSTORE PUSH1 0x20 ADD PUSH1 0x40 MLOAD DUP1 PUSH1 0x20 ADD PUSH1 0x40 MSTORE DUP1 PUSH0 DUP2 MSTORE POP DUP2 MSTORE PUSH1 0x20 ADD PUSH0 ISZERO ISZERO DUP2 MSTORE PUSH1 0x20 ADD PUSH1 0x1 ISZERO ISZERO DUP2 MSTORE PUSH1 0x20 ADD PUSH0 DUP2 MSTORE POP PUSH1 0x17 PUSH0 DUP4 DUP2 MSTORE PUSH1 0x20 ADD SWAP1 DUP2 MSTORE PUSH1 0x20 ADD PUSH0 KECCAK256 PUSH0 DUP3 ADD MLOAD DUP2 PUSH0 ADD PUSH0 PUSH2 0x100 EXP DUP2 SLOAD DUP2 PUSH20 0xFFFFFFFFFFFFFFFFFFFFFFFFFFFFFFFFFFFFFFFF MUL NOT AND SWAP1 DUP4 PUSH20 0xFFFFFFFFFFFFFFFFFFFFFFFFFFFFFFFFFFFFFFFF AND MUL OR SWAP1 SSTORE POP PUSH1 0x20 DUP3 ADD MLOAD DUP2 PUSH1 0x1 ADD SWAP1 DUP2 PUSH2 0x442 SWAP2 SWAP1 PUSH2 0x8C5 JUMP JUMPDEST POP PUSH1 0x40 DUP3 ADD MLOAD DUP2 PUSH1 0x2 ADD SSTORE PUSH1 0x60 DUP3 ADD MLOAD DUP2 PUSH1 0x3 ADD SSTORE PUSH1 0x80 DUP3 ADD MLOAD DUP2 PUSH1 0x4 ADD SWAP1 DUP2 PUSH2 0x46C SWAP2 SWAP1 PUSH2 0x8C5 JUMP JUMPDEST POP PUSH1 0xA0 DUP3 ADD MLOAD DUP2 PUSH1 0x5 ADD PUSH0 PUSH2 0x100 EXP DUP2 SLOAD DUP2 PUSH1 0xFF MUL NOT AND SWAP1 DUP4 ISZERO ISZERO MUL OR SWAP1 SSTORE POP PUSH1 0xC0 DUP3 ADD MLOAD DUP2 PUSH1 0x5 ADD PUSH1 0x1 PUSH2 0x100 EXP DUP2 SLOAD DUP2 PUSH1 0xFF MUL NOT AND SWAP1 DUP4 ISZERO ISZERO MUL OR SWAP1 SSTORE POP PUSH1 0xE0 DUP3 ADD MLOAD DUP2 PUSH1 0x6 ADD SSTORE SWAP1 POP POP PUSH1 0x18 PUSH0 DUP2 SLOAD DUP1 SWAP3 SWAP2 SWAP1 PUSH2 0x4CB SWAP1 PUSH2 0xA3E JUMP JUMPDEST SWAP2 SWAP1 POP SSTORE POP POP DUP1 DUP1 PUSH1 0x1 ADD SWAP2 POP POP PUSH2 0x366 JUMP JUMPDEST POP POP POP POP JUMP JUMPDEST PUSH0 PUSH1 0x40 MLOAD SWAP1 POP SWAP1 JUMP JUMPDEST PUSH0 PUSH0 REVERT JUMPDEST PUSH0 PUSH0 REVERT JUMPDEST PUSH0 PUSH0 REVERT JUMPDEST PUSH0 PUSH0 REVERT JUMPDEST PUSH0 PUSH1 0x1F NOT PUSH1 0x1F DUP4 ADD AND SWAP1 POP SWAP2 SWAP1 POP JUMP JUMPDEST PUSH32 0x4E487B7100000000000000000000000000000000000000000000000000000000 PUSH0 MSTORE PUSH1 0x41 PUSH1 0x4 MSTORE PUSH1 0x24 PUSH0 REVERT JUMPDEST PUSH2 0x543 DUP3 PUSH2 0x4FD JUMP JUMPDEST DUP2 ADD DUP2 DUP2 LT PUSH8 0xFFFFFFFFFFFFFFFF DUP3 GT OR ISZERO PUSH2 0x562 JUMPI PUSH2 0x561 PUSH2 0x50D JUMP JUMPDEST JUMPDEST DUP1 PUSH1 0x40 MSTORE POP POP POP JUMP JUMPDEST PUSH0 PUSH2 0x574 PUSH2 0x4E4 JUMP JUMPDEST SWAP1 POP PUSH2 0x580 DUP3 DUP3 PUSH2 0x53A JUMP JUMPDEST SWAP2 SWAP1 POP JUMP JUMPDEST PUSH0 PUSH8 0xFFFFFFFFFFFFFFFF DUP3 GT ISZERO PUSH2 0x59F JUMPI PUSH2 0x59E PUSH2 0x50D JUMP JUMPDEST JUMPDEST PUSH2 0x5A8 DUP3 PUSH2 0x4FD JUMP JUMPDEST SWAP1 POP PUSH1 0x20 DUP2 ADD SWAP1 POP SWAP2 SWAP1 POP JUMP JUMPDEST DUP3 DUP2 DUP4 MCOPY PUSH0 DUP4 DUP4 ADD MSTORE POP POP POP JUMP JUMPDEST PUSH0 PUSH2 0x5D5 PUSH2 0x5D0 DUP5 PUSH2 0x585 JUMP JUMPDEST PUSH2 0x56B JUMP JUMPDEST SWAP1 POP DUP3 DUP2 MSTORE PUSH1 0x20 DUP2 ADD DUP5 DUP5 DUP5 ADD GT ISZERO PUSH2 0x5F1 JUMPI PUSH2 0x5F0 PUSH2 0x4F9 JUMP JUMPDEST JUMPDEST PUSH2 0x5FC DUP5 DUP3 DUP6 PUSH2 0x5B5 JUMP JUMPDEST POP SWAP4 SWAP3 POP POP POP JUMP JUMPDEST PUSH0 DUP3 PUSH1 0x1F DUP4 ADD SLT PUSH2 0x618 JUMPI PUSH2 0x617 PUSH2 0x4F5 JUMP JUMPDEST JUMPDEST DUP2 MLOAD PUSH2 0x628 DUP5 DUP3 PUSH1 0x20 DUP7 ADD PUSH2 0x5C3 JUMP JUMPDEST SWAP2 POP POP SWAP3 SWAP2 POP POP JUMP JUMPDEST PUSH0 DUP2 SWAP1 POP SWAP2 SWAP1 POP JUMP JUMPDEST PUSH2 0x643 DUP2 PUSH2 0x631 JUMP JUMPDEST DUP2 EQ PUSH2 0x64D JUMPI PUSH0 PUSH0 REVERT JUMPDEST POP JUMP JUMPDEST PUSH0 DUP2 MLOAD SWAP1 POP PUSH2 0x65E DUP2 PUSH2 0x63A JUMP JUMPDEST SWAP3 SWAP2 POP POP JUMP JUMPDEST PUSH0 PUSH0 PUSH1 0x40 DUP4 DUP6 SUB SLT ISZERO PUSH2 0x67A JUMPI PUSH2 0x679 PUSH2 0x4ED JUMP JUMPDEST JUMPDEST PUSH0 DUP4 ADD MLOAD PUSH8 0xFFFFFFFFFFFFFFFF DUP2 GT ISZERO PUSH2 0x697 JUMPI PUSH2 0x696 PUSH2 0x4F1 JUMP JUMPDEST JUMPDEST PUSH2 0x6A3 DUP6 DUP3 DUP7 ADD PUSH2 0x604 JUMP JUMPDEST SWAP3 POP POP PUSH1 0x20 PUSH2 0x6B4 DUP6 DUP3 DUP7 ADD PUSH2 0x650 JUMP JUMPDEST SWAP2 POP POP SWAP3 POP SWAP3 SWAP1 POP JUMP JUMPDEST PUSH0 DUP2 MLOAD SWAP1 POP SWAP2 SWAP1 POP JUMP JUMPDEST PUSH32 0x4E487B7100000000000000000000000000000000000000000000000000000000 PUSH0 MSTORE PUSH1 0x22 PUSH1 0x4 MSTORE PUSH1 0x24 PUSH0 REVERT JUMPDEST PUSH0 PUSH1 0x2 DUP3 DIV SWAP1 POP PUSH1 0x1 DUP3 AND DUP1 PUSH2 0x70C JUMPI PUSH1 0x7F DUP3 AND SWAP2 POP JUMPDEST PUSH1 0x20 DUP3 LT DUP2 SUB PUSH2 0x71F JUMPI PUSH2 0x71E PUSH2 0x6C8 JUMP JUMPDEST JUMPDEST POP SWAP2 SWAP1 POP JUMP JUMPDEST PUSH0 DUP2 SWAP1 POP DUP2 PUSH0 MSTORE PUSH1 0x20 PUSH0 KECCAK256 SWAP1 POP SWAP2 SWAP1 POP JUMP JUMPDEST PUSH0 PUSH1 0x20 PUSH1 0x1F DUP4 ADD DIV SWAP1 POP SWAP2 SWAP1 POP JUMP JUMPDEST PUSH0 DUP3 DUP3 SHL SWAP1 POP SWAP3 SWAP2 POP POP JUMP JUMPDEST PUSH0 PUSH1 0x8 DUP4 MUL PUSH2 0x781 PUSH32 0xFFFFFFFFFFFFFFFFFFFFFFFFFFFFFFFFFFFFFFFFFFFFFFFFFFFFFFFFFFFFFFFF DUP3 PUSH2 0x746 JUMP JUMPDEST PUSH2 0x78B DUP7 DUP4 PUSH2 0x746 JUMP JUMPDEST SWAP6 POP DUP1 NOT DUP5 AND SWAP4 POP DUP1 DUP7 AND DUP5 OR SWAP3 POP POP POP SWAP4 SWAP3 POP POP POP JUMP JUMPDEST PUSH0 DUP2 SWAP1 POP SWAP2 SWAP1 POP JUMP JUMPDEST PUSH0 PUSH2 0x7C6 PUSH2 0x7C1 PUSH2 0x7BC DUP5 PUSH2 0x631 JUMP JUMPDEST PUSH2 0x7A3 JUMP JUMPDEST PUSH2 0x631 JUMP JUMPDEST SWAP1 POP SWAP2 SWAP1 POP JUMP JUMPDEST PUSH0 DUP2 SWAP1 POP SWAP2 SWAP1 POP JUMP JUMPDEST PUSH2 0x7DF DUP4 PUSH2 0x7AC JUMP JUMPDEST PUSH2 0x7F3 PUSH2 0x7EB DUP3 PUSH2 0x7CD JUMP JUMPDEST DUP5 DUP5 SLOAD PUSH2 0x752 JUMP JUMPDEST DUP3 SSTORE POP POP POP POP JUMP JUMPDEST PUSH0 PUSH0 SWAP1 POP SWAP1 JUMP JUMPDEST PUSH2 0x80A PUSH2 0x7FB JUMP JUMPDEST PUSH2 0x815 DUP2 DUP5 DUP5 PUSH2 0x7D6 JUMP JUMPDEST POP POP POP JUMP JUMPDEST JUMPDEST DUP2 DUP2 LT ISZERO PUSH2 0x838 JUMPI PUSH2 0x82D PUSH0 DUP3 PUSH2 0x802 JUMP JUMPDEST PUSH1 0x1 DUP2 ADD SWAP1 POP PUSH2 0x81B JUMP JUMPDEST POP POP JUMP JUMPDEST PUSH1 0x1F DUP3 GT ISZERO PUSH2 0x87D JUMPI PUSH2 0x84E DUP2 PUSH2 0x725 JUMP JUMPDEST PUSH2 0x857 DUP5 PUSH2 0x737 JUMP JUMPDEST DUP2 ADD PUSH1 0x20 DUP6 LT ISZERO PUSH2 0x866 JUMPI DUP2 SWAP1 POP JUMPDEST PUSH2 0x87A PUSH2 0x872 DUP6 PUSH2 0x737 JUMP JUMPDEST DUP4 ADD DUP3 PUSH2 0x81A JUMP JUMPDEST POP POP JUMPDEST POP POP POP JUMP JUMPDEST PUSH0 DUP3 DUP3 SHR SWAP1 POP SWAP3 SWAP2 POP POP JUMP JUMPDEST PUSH0 PUSH2 0x89D PUSH0 NOT DUP5 PUSH1 0x8 MUL PUSH2 0x882 JUMP JUMPDEST NOT DUP1 DUP4 AND SWAP2 POP POP SWAP3 SWAP2 POP POP JUMP JUMPDEST PUSH0 PUSH2 0x8B5 DUP4 DUP4 PUSH2 0x88E JUMP JUMPDEST SWAP2 POP DUP3 PUSH1 0x2 MUL DUP3 OR SWAP1 POP SWAP3 SWAP2 POP POP JUMP JUMPDEST PUSH2 0x8CE DUP3 PUSH2 0x6BE JUMP JUMPDEST PUSH8 0xFFFFFFFFFFFFFFFF DUP2 GT ISZERO PUSH2 0x8E7 JUMPI PUSH2 0x8E6 PUSH2 0x50D JUMP JUMPDEST JUMPDEST PUSH2 0x8F1 DUP3 SLOAD PUSH2 0x6F5 JUMP JUMPDEST PUSH2 0x8FC DUP3 DUP3 DUP6 PUSH2 0x83C JUMP JUMPDEST PUSH0 PUSH1 0x20 SWAP1 POP PUSH1 0x1F DUP4 GT PUSH1 0x1 DUP2 EQ PUSH2 0x92D JUMPI PUSH0 DUP5 ISZERO PUSH2 0x91B JUMPI DUP3 DUP8 ADD MLOAD SWAP1 POP JUMPDEST PUSH2 0x925 DUP6 DUP3 PUSH2 0x8AA JUMP JUMPDEST DUP7 SSTORE POP PUSH2 0x98C JUMP JUMPDEST PUSH1 0x1F NOT DUP5 AND PUSH2 0x93B DUP7 PUSH2 0x725 JUMP JUMPDEST PUSH0 JUMPDEST DUP3 DUP2 LT ISZERO PUSH2 0x962 JUMPI DUP5 DUP10 ADD MLOAD DUP3 SSTORE PUSH1 0x1 DUP3 ADD SWAP2 POP PUSH1 0x20 DUP6 ADD SWAP5 POP PUSH1 0x20 DUP2 ADD SWAP1 POP PUSH2 0x93D JUMP JUMPDEST DUP7 DUP4 LT ISZERO PUSH2 0x97F JUMPI DUP5 DUP10 ADD MLOAD PUSH2 0x97B PUSH1 0x1F DUP10 AND DUP3 PUSH2 0x88E JUMP JUMPDEST DUP4 SSTORE POP JUMPDEST PUSH1 0x1 PUSH1 0x2 DUP9 MUL ADD DUP9 SSTORE POP POP POP JUMPDEST POP POP POP POP POP POP JUMP JUMPDEST PUSH0 DUP2 SWAP1 POP SWAP3 SWAP2 POP POP JUMP JUMPDEST PUSH0 PUSH2 0x9A8 DUP3 PUSH2 0x6BE JUMP JUMPDEST PUSH2 0x9B2 DUP2 DUP6 PUSH2 0x994 JUMP JUMPDEST SWAP4 POP PUSH2 0x9C2 DUP2 DUP6 PUSH1 0x20 DUP7 ADD PUSH2 0x5B5 JUMP JUMPDEST DUP1 DUP5 ADD SWAP2 POP POP SWAP3 SWAP2 POP POP JUMP JUMPDEST PUSH0 PUSH2 0x9D9 DUP3 DUP5 PUSH2 0x99E JUMP JUMPDEST SWAP2 POP DUP2 SWAP1 POP SWAP3 SWAP2 POP POP JUMP JUMPDEST PUSH32 0x4E487B7100000000000000000000000000000000000000000000000000000000 PUSH0 MSTORE PUSH1 0x32 PUSH1 0x4 MSTORE PUSH1 0x24 PUSH0 REVERT JUMPDEST PUSH32 0x4E487B7100000000000000000000000000000000000000000000000000000000 PUSH0 MSTORE PUSH1 0x11 PUSH1 0x4 MSTORE PUSH1 0x24 PUSH0 REVERT JUMPDEST PUSH0 PUSH2 0xA48 DUP3 PUSH2 0x631 JUMP JUMPDEST SWAP2 POP PUSH32 0xFFFFFFFFFFFFFFFFFFFFFFFFFFFFFFFFFFFFFFFFFFFFFFFFFFFFFFFFFFFFFFFF DUP3 SUB PUSH2 0xA7A JUMPI PUSH2 0xA79 PUSH2 0xA11 JUMP JUMPDEST JUMPDEST PUSH1 0x1 DUP3 ADD SWAP1 POP SWAP2 SWAP1 POP JUMP JUMPDEST PUSH2 0x26E5 DUP1 PUSH2 0xA92 PUSH0 CODECOPY PUSH0 RETURN INVALID PUSH1 0x80 PUSH1 0x40 MSTORE PUSH1 0x4 CALLDATASIZE LT PUSH2 0x113 JUMPI PUSH0 CALLDATALOAD PUSH1 0xE0 SHR DUP1 PUSH4 0x6031A52F GT PUSH2 0x9F JUMPI DUP1 PUSH4 0xAD03FE70 GT PUSH2 0x63 JUMPI DUP1 PUSH4 0xAD03FE70 EQ PUSH2 0x3E2 JUMPI DUP1 PUSH4 0xC8705544 EQ PUSH2 0x41E JUMPI DUP1 PUSH4 0xCB2CC82A EQ PUSH2 0x448 JUMPI DUP1 PUSH4 0xEA6E358E EQ PUSH2 0x484 JUMPI DUP1 PUSH4 0xFF203BC0 EQ PUSH2 0x4A0 JUMPI PUSH2 0x113 JUMP JUMPDEST DUP1 PUSH4 0x6031A52F EQ PUSH2 0x300 JUMPI DUP1 PUSH4 0x695DC67E EQ PUSH2 0x32A JUMPI DUP1 PUSH4 0x8DD4BA2E EQ PUSH2 0x366 JUMPI DUP1 PUSH4 0x908921FC EQ PUSH2 0x3A2 JUMPI DUP1 PUSH4 0xAAFC8D74 EQ PUSH2 0x3CC JUMPI PUSH2 0x113 JUMP JUMPDEST DUP1 PUSH4 0x195C1445 GT PUSH2 0xE6 JUMPI DUP1 PUSH4 0x195C1445 EQ PUSH2 0x1FC JUMPI DUP1 PUSH4 0x2427E59E EQ PUSH2 0x238 JUMPI DUP1 PUSH4 0x3B33C702 EQ PUSH2 0x274 JUMPI DUP1 PUSH4 0x4AFE9F7B EQ PUSH2 0x2B0 JUMPI DUP1 PUSH4 0x5E583E37 EQ PUSH2 0x2D8 JUMPI PUSH2 0x113 JUMP JUMPDEST DUP1 PUSH4 0x33FAB35 EQ PUSH2 0x117 JUMPI DUP1 PUSH4 0x6661ABD EQ PUSH2 0x15A JUMPI DUP1 PUSH4 0x7819BD6 EQ PUSH2 0x184 JUMPI DUP1 PUSH4 0x1165E6AB EQ PUSH2 0x1C0 JUMPI JUMPDEST PUSH0 PUSH0 REVERT JUMPDEST CALLVALUE DUP1 ISZERO PUSH2 0x122 JUMPI PUSH0 PUSH0 REVERT JUMPDEST POP PUSH2 0x13D PUSH1 0x4 DUP1 CALLDATASIZE SUB DUP2 ADD SWAP1 PUSH2 0x138 SWAP2 SWAP1 PUSH2 0x175D JUMP JUMPDEST PUSH2 0x4CA JUMP JUMPDEST PUSH1 0x40 MLOAD PUSH2 0x151 SWAP9 SWAP8 SWAP7 SWAP6 SWAP5 SWAP4 SWAP3 SWAP2 SWAP1 PUSH2 0x1860 JUMP JUMPDEST PUSH1 0x40 MLOAD DUP1 SWAP2 SUB SWAP1 RETURN JUMPDEST CALLVALUE DUP1 ISZERO PUSH2 0x165 JUMPI PUSH0 PUSH0 REVERT JUMPDEST POP PUSH2 0x16E PUSH2 0x652 JUMP JUMPDEST PUSH1 0x40 MLOAD PUSH2 0x17B SWAP2 SWAP1 PUSH2 0x18EA JUMP JUMPDEST PUSH1 0x40 MLOAD DUP1 SWAP2 SUB SWAP1 RETURN JUMPDEST CALLVALUE DUP1 ISZERO PUSH2 0x18F JUMPI PUSH0 PUSH0 REVERT JUMPDEST POP PUSH2 0x1AA PUSH1 0x4 DUP1 CALLDATASIZE SUB DUP2 ADD SWAP1 PUSH2 0x1A5 SWAP2 SWAP1 PUSH2 0x1A59 JUMP JUMPDEST PUSH2 0x658 JUMP JUMPDEST PUSH1 0x40 MLOAD PUSH2 0x1B7 SWAP2 SWAP1 PUSH2 0x18EA JUMP JUMPDEST PUSH1 0x40 MLOAD DUP1 SWAP2 SUB SWAP1 RETURN JUMPDEST CALLVALUE DUP1 ISZERO PUSH2 0x1CB JUMPI PUSH0 PUSH0 REVERT JUMPDEST POP PUSH2 0x1E6 PUSH1 0x4 DUP1 CALLDATASIZE SUB DUP2 ADD SWAP1 PUSH2 0x1E1 SWAP2 SWAP1 PUSH2 0x1B03 JUMP JUMPDEST PUSH2 0x80E JUMP JUMPDEST PUSH1 0x40 MLOAD PUSH2 0x1F3 SWAP2 SWAP1 PUSH2 0x1B2E JUMP JUMPDEST PUSH1 0x40 MLOAD DUP1 SWAP2 SUB SWAP1 RETURN JUMPDEST CALLVALUE DUP1 ISZERO PUSH2 0x207 JUMPI PUSH0 PUSH0 REVERT JUMPDEST POP PUSH2 0x222 PUSH1 0x4 DUP1 CALLDATASIZE SUB DUP2 ADD SWAP1 PUSH2 0x21D SWAP2 SWAP1 PUSH2 0x175D JUMP JUMPDEST PUSH2 0x8A6 JUMP JUMPDEST PUSH1 0x40 MLOAD PUSH2 0x22F SWAP2 SWAP1 PUSH2 0x18EA JUMP JUMPDEST PUSH1 0x40 MLOAD DUP1 SWAP2 SUB SWAP1 RETURN JUMPDEST CALLVALUE DUP1 ISZERO PUSH2 0x243 JUMPI PUSH0 PUSH0 REVERT JUMPDEST POP PUSH2 0x25E PUSH1 0x4 DUP1 CALLDATASIZE SUB DUP2 ADD SWAP1 PUSH2 0x259 SWAP2 SWAP1 PUSH2 0x1B47 JUMP JUMPDEST PUSH2 0x8C6 JUMP JUMPDEST PUSH1 0x40 MLOAD PUSH2 0x26B SWAP2 SWAP1 PUSH2 0x18EA JUMP JUMPDEST PUSH1 0x40 MLOAD DUP1 SWAP2 SUB SWAP1 RETURN JUMPDEST CALLVALUE DUP1 ISZERO PUSH2 0x27F JUMPI PUSH0 PUSH0 REVERT JUMPDEST POP PUSH2 0x29A PUSH1 0x4 DUP1 CALLDATASIZE SUB DUP2 ADD SWAP1 PUSH2 0x295 SWAP2 SWAP1 PUSH2 0x175D JUMP JUMPDEST PUSH2 0x8F3 JUMP JUMPDEST PUSH1 0x40 MLOAD PUSH2 0x2A7 SWAP2 SWAP1 PUSH2 0x18EA JUMP JUMPDEST PUSH1 0x40 MLOAD DUP1 SWAP2 SUB SWAP1 RETURN JUMPDEST CALLVALUE DUP1 ISZERO PUSH2 0x2BB JUMPI PUSH0 PUSH0 REVERT JUMPDEST POP PUSH2 0x2D6 PUSH1 0x4 DUP1 CALLDATASIZE SUB DUP2 ADD SWAP1 PUSH2 0x2D1 SWAP2 SWAP1 PUSH2 0x1B8E JUMP JUMPDEST PUSH2 0x913 JUMP JUMPDEST STOP JUMPDEST CALLVALUE DUP1 ISZERO PUSH2 0x2E3 JUMPI PUSH0 PUSH0 REVERT JUMPDEST POP PUSH2 0x2FE PUSH1 0x4 DUP1 CALLDATASIZE SUB DUP2 ADD SWAP1 PUSH2 0x2F9 SWAP2 SWAP1 PUSH2 0x1BFA JUMP JUMPDEST PUSH2 0xAED JUMP JUMPDEST STOP JUMPDEST CALLVALUE DUP1 ISZERO PUSH2 0x30B JUMPI PUSH0 PUSH0 REVERT JUMPDEST POP PUSH2 0x314 PUSH2 0xD18 JUMP JUMPDEST PUSH1 0x40 MLOAD PUSH2 0x321 SWAP2 SWAP1 PUSH2 0x18EA JUMP JUMPDEST PUSH1 0x40 MLOAD DUP1 SWAP2 SUB SWAP1 RETURN JUMPDEST CALLVALUE DUP1 ISZERO PUSH2 0x335 JUMPI PUSH0 PUSH0 REVERT JUMPDEST POP PUSH2 0x350 PUSH1 0x4 DUP1 CALLDATASIZE SUB DUP2 ADD SWAP1 PUSH2 0x34B SWAP2 SWAP1 PUSH2 0x175D JUMP JUMPDEST PUSH2 0xD1E JUMP JUMPDEST PUSH1 0x40 MLOAD PUSH2 0x35D SWAP2 SWAP1 PUSH2 0x18EA JUMP JUMPDEST PUSH1 0x40 MLOAD DUP1 SWAP2 SUB SWAP1 RETURN JUMPDEST CALLVALUE DUP1 ISZERO PUSH2 0x371 JUMPI PUSH0 PUSH0 REVERT JUMPDEST POP PUSH2 0x38C PUSH1 0x4 DUP1 CALLDATASIZE SUB DUP2 ADD SWAP1 PUSH2 0x387 SWAP2 SWAP1 PUSH2 0x175D JUMP JUMPDEST PUSH2 0xD37 JUMP JUMPDEST PUSH1 0x40 MLOAD PUSH2 0x399 SWAP2 SWAP1 PUSH2 0x1C54 JUMP JUMPDEST PUSH1 0x40 MLOAD DUP1 SWAP2 SUB SWAP1 RETURN JUMPDEST CALLVALUE DUP1 ISZERO PUSH2 0x3AD JUMPI PUSH0 PUSH0 REVERT JUMPDEST POP PUSH2 0x3B6 PUSH2 0xDDD JUMP JUMPDEST PUSH1 0x40 MLOAD PUSH2 0x3C3 SWAP2 SWAP1 PUSH2 0x1C74 JUMP JUMPDEST PUSH1 0x40 MLOAD DUP1 SWAP2 SUB SWAP1 RETURN JUMPDEST CALLVALUE DUP1 ISZERO PUSH2 0x3D7 JUMPI PUSH0 PUSH0 REVERT JUMPDEST POP PUSH2 0x3E0 PUSH2 0xE01 JUMP JUMPDEST STOP JUMPDEST CALLVALUE DUP1 ISZERO PUSH2 0x3ED JUMPI PUSH0 PUSH0 REVERT JUMPDEST POP PUSH2 0x408 PUSH1 0x4 DUP1 CALLDATASIZE SUB DUP2 ADD SWAP1 PUSH2 0x403 SWAP2 SWAP1 PUSH2 0x1B03 JUMP JUMPDEST PUSH2 0xEF8 JUMP JUMPDEST PUSH1 0x40 MLOAD PUSH2 0x415 SWAP2 SWAP1 PUSH2 0x1E71 JUMP JUMPDEST PUSH1 0x40 MLOAD DUP1 SWAP2 SUB SWAP1 RETURN JUMPDEST CALLVALUE DUP1 ISZERO PUSH2 0x429 JUMPI PUSH0 PUSH0 REVERT JUMPDEST POP PUSH2 0x432 PUSH2 0x12E0 JUMP JUMPDEST PUSH1 0x40 MLOAD PUSH2 0x43F SWAP2 SWAP1 PUSH2 0x18EA JUMP JUMPDEST PUSH1 0x40 MLOAD DUP1 SWAP2 SUB SWAP1 RETURN JUMPDEST CALLVALUE DUP1 ISZERO PUSH2 0x453 JUMPI PUSH0 PUSH0 REVERT JUMPDEST POP PUSH2 0x46E PUSH1 0x4 DUP1 CALLDATASIZE SUB DUP2 ADD SWAP1 PUSH2 0x469 SWAP2 SWAP1 PUSH2 0x175D JUMP JUMPDEST PUSH2 0x12E6 JUMP JUMPDEST PUSH1 0x40 MLOAD PUSH2 0x47B SWAP2 SWAP1 PUSH2 0x18EA JUMP JUMPDEST PUSH1 0x40 MLOAD DUP1 SWAP2 SUB SWAP1 RETURN JUMPDEST PUSH2 0x49E PUSH1 0x4 DUP1 CALLDATASIZE SUB DUP2 ADD SWAP1 PUSH2 0x499 SWAP2 SWAP1 PUSH2 0x1A59 JUMP JUMPDEST PUSH2 0x12FF JUMP JUMPDEST STOP JUMPDEST CALLVALUE DUP1 ISZERO PUSH2 0x4AB JUMPI PUSH0 PUSH0 REVERT JUMPDEST POP PUSH2 0x4B4 PUSH2 0x16AE JUMP JUMPDEST PUSH1 0x40 MLOAD PUSH2 0x4C1 SWAP2 SWAP1 PUSH2 0x1B2E JUMP JUMPDEST PUSH1 0x40 MLOAD DUP1 SWAP2 SUB SWAP1 RETURN JUMPDEST PUSH1 0x17 PUSH1 0x20 MSTORE DUP1 PUSH0 MSTORE PUSH1 0x40 PUSH0 KECCAK256 PUSH0 SWAP2 POP SWAP1 POP DUP1 PUSH0 ADD PUSH0 SWAP1 SLOAD SWAP1 PUSH2 0x100 EXP SWAP1 DIV PUSH20 0xFFFFFFFFFFFFFFFFFFFFFFFFFFFFFFFFFFFFFFFF AND SWAP1 DUP1 PUSH1 0x1 ADD DUP1 SLOAD PUSH2 0x50E SWAP1 PUSH2 0x1EBE JUMP JUMPDEST DUP1 PUSH1 0x1F ADD PUSH1 0x20 DUP1 SWAP2 DIV MUL PUSH1 0x20 ADD PUSH1 0x40 MLOAD SWAP1 DUP2 ADD PUSH1 0x40 MSTORE DUP1 SWAP3 SWAP2 SWAP1 DUP2 DUP2 MSTORE PUSH1 0x20 ADD DUP3 DUP1 SLOAD PUSH2 0x53A SWAP1 PUSH2 0x1EBE JUMP JUMPDEST DUP1 ISZERO PUSH2 0x585 JUMPI DUP1 PUSH1 0x1F LT PUSH2 0x55C JUMPI PUSH2 0x100 DUP1 DUP4 SLOAD DIV MUL DUP4 MSTORE SWAP2 PUSH1 0x20 ADD SWAP2 PUSH2 0x585 JUMP JUMPDEST DUP3 ADD SWAP2 SWAP1 PUSH0 MSTORE PUSH1 0x20 PUSH0 KECCAK256 SWAP1 JUMPDEST DUP2 SLOAD DUP2 MSTORE SWAP1 PUSH1 0x1 ADD SWAP1 PUSH1 0x20 ADD DUP1 DUP4 GT PUSH2 0x568 JUMPI DUP3 SWAP1 SUB PUSH1 0x1F AND DUP3 ADD SWAP2 JUMPDEST POP POP POP POP POP SWAP1 DUP1 PUSH1 0x2 ADD SLOAD SWAP1 DUP1 PUSH1 0x3 ADD SLOAD SWAP1 DUP1 PUSH1 0x4 ADD DUP1 SLOAD PUSH2 0x5A6 SWAP1 PUSH2 0x1EBE JUMP JUMPDEST DUP1 PUSH1 0x1F ADD PUSH1 0x20 DUP1 SWAP2 DIV MUL PUSH1 0x20 ADD PUSH1 0x40 MLOAD SWAP1 DUP2 ADD PUSH1 0x40 MSTORE DUP1 SWAP3 SWAP2 SWAP1 DUP2 DUP2 MSTORE PUSH1 0x20 ADD DUP3 DUP1 SLOAD PUSH2 0x5D2 SWAP1 PUSH2 0x1EBE JUMP JUMPDEST DUP1 ISZERO PUSH2 0x61D JUMPI DUP1 PUSH1 0x1F LT PUSH2 0x5F4 JUMPI PUSH2 0x100 DUP1 DUP4 SLOAD DIV MUL DUP4 MSTORE SWAP2 PUSH1 0x20 ADD SWAP2 PUSH2 0x61D JUMP JUMPDEST DUP3 ADD SWAP2 SWAP1 PUSH0 MSTORE PUSH1 0x20 PUSH0 KECCAK256 SWAP1 JUMPDEST DUP2 SLOAD DUP2 MSTORE SWAP1 PUSH1 0x1 ADD SWAP1 PUSH1 0x20 ADD DUP1 DUP4 GT PUSH2 0x600 JUMPI DUP3 SWAP1 SUB PUSH1 0x1F AND DUP3 ADD SWAP2 JUMPDEST POP POP POP POP POP SWAP1 DUP1 PUSH1 0x5 ADD PUSH0 SWAP1 SLOAD SWAP1 PUSH2 0x100 EXP SWAP1 DIV PUSH1 0xFF AND SWAP1 DUP1 PUSH1 0x5 ADD PUSH1 0x1 SWAP1 SLOAD SWAP1 PUSH2 0x100 EXP SWAP1 DIV PUSH1 0xFF AND SWAP1 DUP1 PUSH1 0x6 ADD SLOAD SWAP1 POP DUP9 JUMP JUMPDEST PUSH1 0x14 SLOAD DUP2 JUMP JUMPDEST PUSH0 DUP5 PUSH1 0x40 MLOAD PUSH1 0x20 ADD PUSH2 0x66A SWAP2 SWAP1 PUSH2 0x1F28 JUMP JUMPDEST PUSH1 0x40 MLOAD PUSH1 0x20 DUP2 DUP4 SUB SUB DUP2 MSTORE SWAP1 PUSH1 0x40 MSTORE DUP1 MLOAD SWAP1 PUSH1 0x20 ADD KECCAK256 PUSH1 0x1 PUSH1 0x4 DUP8 PUSH1 0x40 MLOAD PUSH2 0x692 SWAP2 SWAP1 PUSH2 0x1F28 JUMP JUMPDEST SWAP1 DUP2 MSTORE PUSH1 0x20 ADD PUSH1 0x40 MLOAD DUP1 SWAP2 SUB SWAP1 KECCAK256 SLOAD DUP2 SLOAD DUP2 LT PUSH2 0x6B2 JUMPI PUSH2 0x6B1 PUSH2 0x1F3E JUMP JUMPDEST JUMPDEST SWAP1 PUSH0 MSTORE PUSH1 0x20 PUSH0 KECCAK256 ADD PUSH1 0x40 MLOAD PUSH1 0x20 ADD PUSH2 0x6CA SWAP2 SWAP1 PUSH2 0x1FFD JUMP JUMPDEST PUSH1 0x40 MLOAD PUSH1 0x20 DUP2 DUP4 SUB SUB DUP2 MSTORE SWAP1 PUSH1 0x40 MSTORE DUP1 MLOAD SWAP1 PUSH1 0x20 ADD KECCAK256 EQ PUSH2 0x720 JUMPI PUSH1 0x40 MLOAD PUSH32 0x8C379A000000000000000000000000000000000000000000000000000000000 DUP2 MSTORE PUSH1 0x4 ADD PUSH2 0x717 SWAP1 PUSH2 0x2083 JUMP JUMPDEST PUSH1 0x40 MLOAD DUP1 SWAP2 SUB SWAP1 REVERT JUMPDEST PUSH0 PUSH1 0x11 PUSH1 0x1 DUP6 PUSH2 0x730 SWAP2 SWAP1 PUSH2 0x20CE JUMP JUMPDEST PUSH1 0x3 DUP2 LT PUSH2 0x741 JUMPI PUSH2 0x740 PUSH2 0x1F3E JUMP JUMPDEST JUMPDEST ADD SLOAD SWAP1 POP PUSH0 PUSH1 0x5 PUSH1 0x1 DUP8 PUSH2 0x755 SWAP2 SWAP1 PUSH2 0x20CE JUMP JUMPDEST PUSH1 0xC DUP2 LT PUSH2 0x766 JUMPI PUSH2 0x765 PUSH2 0x1F3E JUMP JUMPDEST JUMPDEST ADD SLOAD SWAP1 POP PUSH0 DUP3 PUSH1 0x2 PUSH1 0x4 DUP11 PUSH1 0x40 MLOAD PUSH2 0x77E SWAP2 SWAP1 PUSH2 0x1F28 JUMP JUMPDEST SWAP1 DUP2 MSTORE PUSH1 0x20 ADD PUSH1 0x40 MLOAD DUP1 SWAP2 SUB SWAP1 KECCAK256 SLOAD DUP2 SLOAD DUP2 LT PUSH2 0x79E JUMPI PUSH2 0x79D PUSH2 0x1F3E JUMP JUMPDEST JUMPDEST SWAP1 PUSH0 MSTORE PUSH1 0x20 PUSH0 KECCAK256 ADD SLOAD PUSH2 0x7B1 SWAP2 SWAP1 PUSH2 0x2101 JUMP JUMPDEST SWAP1 POP DUP5 ISZERO PUSH2 0x7C9 JUMPI PUSH1 0x2 DUP2 PUSH2 0x7C6 SWAP2 SWAP1 PUSH2 0x2101 JUMP JUMPDEST SWAP1 POP JUMPDEST DUP2 PUSH1 0xA GT ISZERO PUSH2 0x7E8 JUMPI DUP2 DUP2 PUSH2 0x7DE SWAP2 SWAP1 PUSH2 0x216F JUMP JUMPDEST SWAP4 POP POP POP POP PUSH2 0x806 JUMP JUMPDEST PUSH1 0xA DUP3 PUSH2 0x7F5 SWAP2 SWAP1 PUSH2 0x20CE JUMP JUMPDEST DUP2 PUSH2 0x800 SWAP2 SWAP1 PUSH2 0x2101 JUMP JUMPDEST SWAP4 POP POP POP POP JUMPDEST SWAP5 SWAP4 POP POP POP POP JUMP JUMPDEST PUSH0 PUSH0 PUSH0 SWAP1 SLOAD SWAP1 PUSH2 0x100 EXP SWAP1 DIV PUSH20 0xFFFFFFFFFFFFFFFFFFFFFFFFFFFFFFFFFFFFFFFF AND PUSH20 0xFFFFFFFFFFFFFFFFFFFFFFFFFFFFFFFFFFFFFFFF AND DUP3 PUSH20 0xFFFFFFFFFFFFFFFFFFFFFFFFFFFFFFFFFFFFFFFF AND EQ PUSH2 0x89D JUMPI PUSH1 0x40 MLOAD PUSH32 0x8C379A000000000000000000000000000000000000000000000000000000000 DUP2 MSTORE PUSH1 0x4 ADD PUSH2 0x894 SWAP1 PUSH2 0x21E9 JUMP JUMPDEST PUSH1 0x40 MLOAD DUP1 SWAP2 SUB SWAP1 REVERT JUMPDEST PUSH1 0x1 SWAP1 POP SWAP2 SWAP1 POP JUMP JUMPDEST PUSH1 0x2 DUP2 DUP2 SLOAD DUP2 LT PUSH2 0x8B5 JUMPI PUSH0 DUP1 REVERT JUMPDEST SWAP1 PUSH0 MSTORE PUSH1 0x20 PUSH0 KECCAK256 ADD PUSH0 SWAP2 POP SWAP1 POP SLOAD DUP2 JUMP JUMPDEST PUSH1 0x4 DUP2 DUP1 MLOAD PUSH1 0x20 DUP2 ADD DUP3 ADD DUP1 MLOAD DUP5 DUP3 MSTORE PUSH1 0x20 DUP4 ADD PUSH1 0x20 DUP6 ADD KECCAK256 DUP2 DUP4 MSTORE DUP1 SWAP6 POP POP POP POP POP POP PUSH0 SWAP2 POP SWAP1 POP SLOAD DUP2 JUMP JUMPDEST PUSH1 0x3 DUP2 DUP2 SLOAD DUP2 LT PUSH2 0x902 JUMPI PUSH0 DUP1 REVERT JUMPDEST SWAP1 PUSH0 MSTORE PUSH1 0x20 PUSH0 KECCAK256 ADD PUSH0 SWAP2 POP SWAP1 POP SLOAD DUP2 JUMP JUMPDEST PUSH0 PUSH0 SWAP1 SLOAD SWAP1 PUSH2 0x100 EXP SWAP1 DIV PUSH20 0xFFFFFFFFFFFFFFFFFFFFFFFFFFFFFFFFFFFFFFFF AND PUSH20 0xFFFFFFFFFFFFFFFFFFFFFFFFFFFFFFFFFFFFFFFF AND CALLER PUSH20 0xFFFFFFFFFFFFFFFFFFFFFFFFFFFFFFFFFFFFFFFF AND EQ PUSH2 0x96A JUMPI PUSH0 PUSH0 REVERT JUMPDEST PUSH0 PUSH0 SWAP1 POP JUMPDEST PUSH1 0x1E DUP2 LT ISZERO PUSH2 0xAE7 JUMPI PUSH0 PUSH1 0x18 SLOAD SWAP1 POP PUSH1 0x40 MLOAD DUP1 PUSH2 0x100 ADD PUSH1 0x40 MSTORE DUP1 DUP7 PUSH20 0xFFFFFFFFFFFFFFFFFFFFFFFFFFFFFFFFFFFFFFFF AND DUP2 MSTORE PUSH1 0x20 ADD DUP6 DUP2 MSTORE PUSH1 0x20 ADD DUP5 DUP2 MSTORE PUSH1 0x20 ADD DUP4 DUP2 MSTORE PUSH1 0x20 ADD PUSH1 0x40 MLOAD DUP1 PUSH1 0x20 ADD PUSH1 0x40 MSTORE DUP1 PUSH0 DUP2 MSTORE POP DUP2 MSTORE PUSH1 0x20 ADD PUSH0 ISZERO ISZERO DUP2 MSTORE PUSH1 0x20 ADD PUSH1 0x1 ISZERO ISZERO DUP2 MSTORE PUSH1 0x20 ADD PUSH0 DUP2 MSTORE POP PUSH1 0x17 PUSH0 DUP4 DUP2 MSTORE PUSH1 0x20 ADD SWAP1 DUP2 MSTORE PUSH1 0x20 ADD PUSH0 KECCAK256 PUSH0 DUP3 ADD MLOAD DUP2 PUSH0 ADD PUSH0 PUSH2 0x100 EXP DUP2 SLOAD DUP2 PUSH20 0xFFFFFFFFFFFFFFFFFFFFFFFFFFFFFFFFFFFFFFFF MUL NOT AND SWAP1 DUP4 PUSH20 0xFFFFFFFFFFFFFFFFFFFFFFFFFFFFFFFFFFFFFFFF AND MUL OR SWAP1 SSTORE POP PUSH1 0x20 DUP3 ADD MLOAD DUP2 PUSH1 0x1 ADD SWAP1 DUP2 PUSH2 0xA4B SWAP2 SWAP1 PUSH2 0x2395 JUMP JUMPDEST POP PUSH1 0x40 DUP3 ADD MLOAD DUP2 PUSH1 0x2 ADD SSTORE PUSH1 0x60 DUP3 ADD MLOAD DUP2 PUSH1 0x3 ADD SSTORE PUSH1 0x80 DUP3 ADD MLOAD DUP2 PUSH1 0x4 ADD SWAP1 DUP2 PUSH2 0xA75 SWAP2 SWAP1 PUSH2 0x2395 JUMP JUMPDEST POP PUSH1 0xA0 DUP3 ADD MLOAD DUP2 PUSH1 0x5 ADD PUSH0 PUSH2 0x100 EXP DUP2 SLOAD DUP2 PUSH1 0xFF MUL NOT AND SWAP1 DUP4 ISZERO ISZERO MUL OR SWAP1 SSTORE POP PUSH1 0xC0 DUP3 ADD MLOAD DUP2 PUSH1 0x5 ADD PUSH1 0x1 PUSH2 0x100 EXP DUP2 SLOAD DUP2 PUSH1 0xFF MUL NOT AND SWAP1 DUP4 ISZERO ISZERO MUL OR SWAP1 SSTORE POP PUSH1 0xE0 DUP3 ADD MLOAD DUP2 PUSH1 0x6 ADD SSTORE SWAP1 POP POP PUSH1 0x18 PUSH0 DUP2 SLOAD DUP1 SWAP3 SWAP2 SWAP1 PUSH2 0xAD4 SWAP1 PUSH2 0x2464 JUMP JUMPDEST SWAP2 SWAP1 POP SSTORE POP POP DUP1 DUP1 PUSH1 0x1 ADD SWAP2 POP POP PUSH2 0x96F JUMP JUMPDEST POP POP POP POP JUMP JUMPDEST PUSH0 PUSH0 SWAP1 SLOAD SWAP1 PUSH2 0x100 EXP SWAP1 DIV PUSH20 0xFFFFFFFFFFFFFFFFFFFFFFFFFFFFFFFFFFFFFFFF AND PUSH20 0xFFFFFFFFFFFFFFFFFFFFFFFFFFFFFFFFFFFFFFFF AND CALLER PUSH20 0xFFFFFFFFFFFFFFFFFFFFFFFFFFFFFFFFFFFFFFFF AND EQ PUSH2 0xB44 JUMPI PUSH0 PUSH0 REVERT JUMPDEST DUP2 PUSH1 0x40 MLOAD PUSH1 0x20 ADD PUSH2 0xB55 SWAP2 SWAP1 PUSH2 0x1F28 JUMP JUMPDEST PUSH1 0x40 MLOAD PUSH1 0x20 DUP2 DUP4 SUB SUB DUP2 MSTORE SWAP1 PUSH1 0x40 MSTORE DUP1 MLOAD SWAP1 PUSH1 0x20 ADD KECCAK256 PUSH1 0x1 PUSH1 0x4 DUP5 PUSH1 0x40 MLOAD PUSH2 0xB7D SWAP2 SWAP1 PUSH2 0x1F28 JUMP JUMPDEST SWAP1 DUP2 MSTORE PUSH1 0x20 ADD PUSH1 0x40 MLOAD DUP1 SWAP2 SUB SWAP1 KECCAK256 SLOAD DUP2 SLOAD DUP2 LT PUSH2 0xB9D JUMPI PUSH2 0xB9C PUSH2 0x1F3E JUMP JUMPDEST JUMPDEST SWAP1 PUSH0 MSTORE PUSH1 0x20 PUSH0 KECCAK256 ADD PUSH1 0x40 MLOAD PUSH1 0x20 ADD PUSH2 0xBB5 SWAP2 SWAP1 PUSH2 0x1FFD JUMP JUMPDEST PUSH1 0x40 MLOAD PUSH1 0x20 DUP2 DUP4 SUB SUB DUP2 MSTORE SWAP1 PUSH1 0x40 MSTORE DUP1 MLOAD SWAP1 PUSH1 0x20 ADD KECCAK256 SUB PUSH2 0xC0B JUMPI PUSH1 0x40 MLOAD PUSH32 0x8C379A000000000000000000000000000000000000000000000000000000000 DUP2 MSTORE PUSH1 0x4 ADD PUSH2 0xC02 SWAP1 PUSH2 0x251B JUMP JUMPDEST PUSH1 0x40 MLOAD DUP1 SWAP2 SUB SWAP1 REVERT JUMPDEST PUSH1 0x1E DUP2 GT PUSH2 0xC4E JUMPI PUSH1 0x40 MLOAD PUSH32 0x8C379A000000000000000000000000000000000000000000000000000000000 DUP2 MSTORE PUSH1 0x4 ADD PUSH2 0xC45 SWAP1 PUSH2 0x25A9 JUMP JUMPDEST PUSH1 0x40 MLOAD DUP1 SWAP2 SUB SWAP1 REVERT JUMPDEST PUSH2 0xC59 CALLER DUP4 DUP4 PUSH2 0x913 JUMP JUMPDEST PUSH1 0x1 DUP3 SWAP1 DUP1 PUSH1 0x1 DUP2 SLOAD ADD DUP1 DUP3 SSTORE DUP1 SWAP2 POP POP PUSH1 0x1 SWAP1 SUB SWAP1 PUSH0 MSTORE PUSH1 0x20 PUSH0 KECCAK256 ADD PUSH0 SWAP1 SWAP2 SWAP1 SWAP2 SWAP1 SWAP2 POP SWAP1 DUP2 PUSH2 0xC8A SWAP2 SWAP1 PUSH2 0x2395 JUMP JUMPDEST POP PUSH1 0x2 DUP2 SWAP1 DUP1 PUSH1 0x1 DUP2 SLOAD ADD DUP1 DUP3 SSTORE DUP1 SWAP2 POP POP PUSH1 0x1 SWAP1 SUB SWAP1 PUSH0 MSTORE PUSH1 0x20 PUSH0 KECCAK256 ADD PUSH0 SWAP1 SWAP2 SWAP1 SWAP2 SWAP1 SWAP2 POP SSTORE PUSH1 0x14 SLOAD PUSH1 0x4 DUP4 PUSH1 0x40 MLOAD PUSH2 0xCC4 SWAP2 SWAP1 PUSH2 0x1F28 JUMP JUMPDEST SWAP1 DUP2 MSTORE PUSH1 0x20 ADD PUSH1 0x40 MLOAD DUP1 SWAP2 SUB SWAP1 KECCAK256 DUP2 SWAP1 SSTORE POP PUSH1 0x3 PUSH1 0x1E SWAP1 DUP1 PUSH1 0x1 DUP2 SLOAD ADD DUP1 DUP3 SSTORE DUP1 SWAP2 POP POP PUSH1 0x1 SWAP1 SUB SWAP1 PUSH0 MSTORE PUSH1 0x20 PUSH0 KECCAK256 ADD PUSH0 SWAP1 SWAP2 SWAP1 SWAP2 SWAP1 SWAP2 POP SSTORE PUSH1 0x14 PUSH0 DUP2 SLOAD DUP1 SWAP3 SWAP2 SWAP1 PUSH2 0xD0F SWAP1 PUSH2 0x2464 JUMP JUMPDEST SWAP2 SWAP1 POP SSTORE POP POP POP JUMP JUMPDEST PUSH1 0x18 SLOAD DUP2 JUMP JUMPDEST PUSH1 0x11 DUP2 PUSH1 0x3 DUP2 LT PUSH2 0xD2D JUMPI PUSH0 DUP1 REVERT JUMPDEST ADD PUSH0 SWAP2 POP SWAP1 POP SLOAD DUP2 JUMP JUMPDEST PUSH1 0x1 DUP2 DUP2 SLOAD DUP2 LT PUSH2 0xD46 JUMPI PUSH0 DUP1 REVERT JUMPDEST SWAP1 PUSH0 MSTORE PUSH1 0x20 PUSH0 KECCAK256 ADD PUSH0 SWAP2 POP SWAP1 POP DUP1 SLOAD PUSH2 0xD5E SWAP1 PUSH2 0x1EBE JUMP JUMPDEST DUP1 PUSH1 0x1F ADD PUSH1 0x20 DUP1 SWAP2 DIV MUL PUSH1 0x20 ADD PUSH1 0x40 MLOAD SWAP1 DUP2 ADD PUSH1 0x40 MSTORE DUP1 SWAP3 SWAP2 SWAP1 DUP2 DUP2 MSTORE PUSH1 0x20 ADD DUP3 DUP1 SLOAD PUSH2 0xD8A SWAP1 PUSH2 0x1EBE JUMP JUMPDEST DUP1 ISZERO PUSH2 0xDD5 JUMPI DUP1 PUSH1 0x1F LT PUSH2 0xDAC JUMPI PUSH2 0x100 DUP1 DUP4 SLOAD DIV MUL DUP4 MSTORE SWAP2 PUSH1 0x20 ADD SWAP2 PUSH2 0xDD5 JUMP JUMPDEST DUP3 ADD SWAP2 SWAP1 PUSH0 MSTORE PUSH1 0x20 PUSH0 KECCAK256 SWAP1 JUMPDEST DUP2 SLOAD DUP2 MSTORE SWAP1 PUSH1 0x1 ADD SWAP1 PUSH1 0x20 ADD DUP1 DUP4 GT PUSH2 0xDB8 JUMPI DUP3 SWAP1 SUB PUSH1 0x1F AND DUP3 ADD SWAP2 JUMPDEST POP POP POP POP POP DUP2 JUMP JUMPDEST PUSH0 PUSH0 SWAP1 SLOAD SWAP1 PUSH2 0x100 EXP SWAP1 DIV PUSH20 0xFFFFFFFFFFFFFFFFFFFFFFFFFFFFFFFFFFFFFFFF AND DUP2 JUMP JUMPDEST PUSH0 PUSH0 SWAP1 SLOAD SWAP1 PUSH2 0x100 EXP SWAP1 DIV PUSH20 0xFFFFFFFFFFFFFFFFFFFFFFFFFFFFFFFFFFFFFFFF AND PUSH20 0xFFFFFFFFFFFFFFFFFFFFFFFFFFFFFFFFFFFFFFFF AND CALLER PUSH20 0xFFFFFFFFFFFFFFFFFFFFFFFFFFFFFFFFFFFFFFFF AND EQ PUSH2 0xE58 JUMPI PUSH0 PUSH0 REVERT JUMPDEST PUSH0 PUSH0 SWAP1 SLOAD SWAP1 PUSH2 0x100 EXP SWAP1 DIV PUSH20 0xFFFFFFFFFFFFFFFFFFFFFFFFFFFFFFFFFFFFFFFF AND PUSH20 0xFFFFFFFFFFFFFFFFFFFFFFFFFFFFFFFFFFFFFFFF AND PUSH2 0x8FC PUSH1 0xA PUSH1 0x9 PUSH1 0x16 SLOAD PUSH2 0xEA3 SWAP2 SWAP1 PUSH2 0x2101 JUMP JUMPDEST PUSH2 0xEAD SWAP2 SWAP1 PUSH2 0x216F JUMP JUMPDEST SWAP1 DUP2 ISZERO MUL SWAP1 PUSH1 0x40 MLOAD PUSH0 PUSH1 0x40 MLOAD DUP1 DUP4 SUB DUP2 DUP6 DUP9 DUP9 CALL SWAP4 POP POP POP POP ISZERO DUP1 ISZERO PUSH2 0xED5 JUMPI RETURNDATASIZE PUSH0 PUSH0 RETURNDATACOPY RETURNDATASIZE PUSH0 REVERT JUMPDEST POP PUSH0 PUSH1 0x15 PUSH0 PUSH2 0x100 EXP DUP2 SLOAD DUP2 PUSH1 0xFF MUL NOT AND SWAP1 DUP4 ISZERO ISZERO MUL OR SWAP1 SSTORE POP PUSH0 PUSH1 0x16 DUP2 SWAP1 SSTORE POP JUMP JUMPDEST PUSH1 0x60 PUSH0 PUSH0 SWAP1 POP PUSH0 PUSH0 SWAP1 POP JUMPDEST PUSH1 0x18 SLOAD DUP2 LT ISZERO PUSH2 0xFBA JUMPI DUP4 PUSH20 0xFFFFFFFFFFFFFFFFFFFFFFFFFFFFFFFFFFFFFFFF AND PUSH1 0x17 PUSH0 DUP4 DUP2 MSTORE PUSH1 0x20 ADD SWAP1 DUP2 MSTORE PUSH1 0x20 ADD PUSH0 KECCAK256 PUSH0 ADD PUSH0 SWAP1 SLOAD SWAP1 PUSH2 0x100 EXP SWAP1 DIV PUSH20 0xFFFFFFFFFFFFFFFFFFFFFFFFFFFFFFFFFFFFFFFF AND PUSH20 0xFFFFFFFFFFFFFFFFFFFFFFFFFFFFFFFFFFFFFFFF AND EQ DUP1 ISZERO PUSH2 0xF99 JUMPI POP PUSH1 0x17 PUSH0 DUP3 DUP2 MSTORE PUSH1 0x20 ADD SWAP1 DUP2 MSTORE PUSH1 0x20 ADD PUSH0 KECCAK256 PUSH1 0x5 ADD PUSH1 0x1 SWAP1 SLOAD SWAP1 PUSH2 0x100 EXP SWAP1 DIV PUSH1 0xFF AND ISZERO JUMPDEST ISZERO PUSH2 0xFAD JUMPI DUP2 DUP1 PUSH2 0xFA9 SWAP1 PUSH2 0x2464 JUMP JUMPDEST SWAP3 POP POP JUMPDEST DUP1 DUP1 PUSH1 0x1 ADD SWAP2 POP POP PUSH2 0xF03 JUMP JUMPDEST POP PUSH0 DUP2 PUSH8 0xFFFFFFFFFFFFFFFF DUP2 GT ISZERO PUSH2 0xFD6 JUMPI PUSH2 0xFD5 PUSH2 0x190B JUMP JUMPDEST JUMPDEST PUSH1 0x40 MLOAD SWAP1 DUP1 DUP3 MSTORE DUP1 PUSH1 0x20 MUL PUSH1 0x20 ADD DUP3 ADD PUSH1 0x40 MSTORE DUP1 ISZERO PUSH2 0x100F JUMPI DUP2 PUSH1 0x20 ADD JUMPDEST PUSH2 0xFFC PUSH2 0x16C0 JUMP JUMPDEST DUP2 MSTORE PUSH1 0x20 ADD SWAP1 PUSH1 0x1 SWAP1 SUB SWAP1 DUP2 PUSH2 0xFF4 JUMPI SWAP1 POP JUMPDEST POP SWAP1 POP PUSH0 PUSH0 SWAP1 POP PUSH0 PUSH0 SWAP1 POP JUMPDEST PUSH1 0x18 SLOAD DUP2 LT ISZERO PUSH2 0x12D4 JUMPI DUP6 PUSH20 0xFFFFFFFFFFFFFFFFFFFFFFFFFFFFFFFFFFFFFFFF AND PUSH1 0x17 PUSH0 DUP4 DUP2 MSTORE PUSH1 0x20 ADD SWAP1 DUP2 MSTORE PUSH1 0x20 ADD PUSH0 KECCAK256 PUSH0 ADD PUSH0 SWAP1 SLOAD SWAP1 PUSH2 0x100 EXP SWAP1 DIV PUSH20 0xFFFFFFFFFFFFFFFFFFFFFFFFFFFFFFFFFFFFFFFF AND PUSH20 0xFFFFFFFFFFFFFFFFFFFFFFFFFFFFFFFFFFFFFFFF AND EQ DUP1 ISZERO PUSH2 0x10B1 JUMPI POP PUSH1 0x17 PUSH0 DUP3 DUP2 MSTORE PUSH1 0x20 ADD SWAP1 DUP2 MSTORE PUSH1 0x20 ADD PUSH0 KECCAK256 PUSH1 0x5 ADD PUSH1 0x1 SWAP1 SLOAD SWAP1 PUSH2 0x100 EXP SWAP1 DIV PUSH1 0xFF AND ISZERO JUMPDEST ISZERO PUSH2 0x12C7 JUMPI PUSH1 0x17 PUSH0 DUP3 DUP2 MSTORE PUSH1 0x20 ADD SWAP1 DUP2 MSTORE PUSH1 0x20 ADD PUSH0 KECCAK256 PUSH1 0x40 MLOAD DUP1 PUSH2 0x100 ADD PUSH1 0x40 MSTORE SWAP1 DUP2 PUSH0 DUP3 ADD PUSH0 SWAP1 SLOAD SWAP1 PUSH2 0x100 EXP SWAP1 DIV PUSH20 0xFFFFFFFFFFFFFFFFFFFFFFFFFFFFFFFFFFFFFFFF AND PUSH20 0xFFFFFFFFFFFFFFFFFFFFFFFFFFFFFFFFFFFFFFFF AND PUSH20 0xFFFFFFFFFFFFFFFFFFFFFFFFFFFFFFFFFFFFFFFF AND DUP2 MSTORE PUSH1 0x20 ADD PUSH1 0x1 DUP3 ADD DUP1 SLOAD PUSH2 0x1137 SWAP1 PUSH2 0x1EBE JUMP JUMPDEST DUP1 PUSH1 0x1F ADD PUSH1 0x20 DUP1 SWAP2 DIV MUL PUSH1 0x20 ADD PUSH1 0x40 MLOAD SWAP1 DUP2 ADD PUSH1 0x40 MSTORE DUP1 SWAP3 SWAP2 SWAP1 DUP2 DUP2 MSTORE PUSH1 0x20 ADD DUP3 DUP1 SLOAD PUSH2 0x1163 SWAP1 PUSH2 0x1EBE JUMP JUMPDEST DUP1 ISZERO PUSH2 0x11AE JUMPI DUP1 PUSH1 0x1F LT PUSH2 0x1185 JUMPI PUSH2 0x100 DUP1 DUP4 SLOAD DIV MUL DUP4 MSTORE SWAP2 PUSH1 0x20 ADD SWAP2 PUSH2 0x11AE JUMP JUMPDEST DUP3 ADD SWAP2 SWAP1 PUSH0 MSTORE PUSH1 0x20 PUSH0 KECCAK256 SWAP1 JUMPDEST DUP2 SLOAD DUP2 MSTORE SWAP1 PUSH1 0x1 ADD SWAP1 PUSH1 0x20 ADD DUP1 DUP4 GT PUSH2 0x1191 JUMPI DUP3 SWAP1 SUB PUSH1 0x1F AND DUP3 ADD SWAP2 JUMPDEST POP POP POP POP POP DUP2 MSTORE PUSH1 0x20 ADD PUSH1 0x2 DUP3 ADD SLOAD DUP2 MSTORE PUSH1 0x20 ADD PUSH1 0x3 DUP3 ADD SLOAD DUP2 MSTORE PUSH1 0x20 ADD PUSH1 0x4 DUP3 ADD DUP1 SLOAD PUSH2 0x11DB SWAP1 PUSH2 0x1EBE JUMP JUMPDEST DUP1 PUSH1 0x1F ADD PUSH1 0x20 DUP1 SWAP2 DIV MUL PUSH1 0x20 ADD PUSH1 0x40 MLOAD SWAP1 DUP2 ADD PUSH1 0x40 MSTORE DUP1 SWAP3 SWAP2 SWAP1 DUP2 DUP2 MSTORE PUSH1 0x20 ADD DUP3 DUP1 SLOAD PUSH2 0x1207 SWAP1 PUSH2 0x1EBE JUMP JUMPDEST DUP1 ISZERO PUSH2 0x1252 JUMPI DUP1 PUSH1 0x1F LT PUSH2 0x1229 JUMPI PUSH2 0x100 DUP1 DUP4 SLOAD DIV MUL DUP4 MSTORE SWAP2 PUSH1 0x20 ADD SWAP2 PUSH2 0x1252 JUMP JUMPDEST DUP3 ADD SWAP2 SWAP1 PUSH0 MSTORE PUSH1 0x20 PUSH0 KECCAK256 SWAP1 JUMPDEST DUP2 SLOAD DUP2 MSTORE SWAP1 PUSH1 0x1 ADD SWAP1 PUSH1 0x20 ADD DUP1 DUP4 GT PUSH2 0x1235 JUMPI DUP3 SWAP1 SUB PUSH1 0x1F AND DUP3 ADD SWAP2 JUMPDEST POP POP POP POP POP DUP2 MSTORE PUSH1 0x20 ADD PUSH1 0x5 DUP3 ADD PUSH0 SWAP1 SLOAD SWAP1 PUSH2 0x100 EXP SWAP1 DIV PUSH1 0xFF AND ISZERO ISZERO ISZERO ISZERO DUP2 MSTORE PUSH1 0x20 ADD PUSH1 0x5 DUP3 ADD PUSH1 0x1 SWAP1 SLOAD SWAP1 PUSH2 0x100 EXP SWAP1 DIV PUSH1 0xFF AND ISZERO ISZERO ISZERO ISZERO DUP2 MSTORE PUSH1 0x20 ADD PUSH1 0x6 DUP3 ADD SLOAD DUP2 MSTORE POP POP DUP4 DUP4 DUP2 MLOAD DUP2 LT PUSH2 0x12AD JUMPI PUSH2 0x12AC PUSH2 0x1F3E JUMP JUMPDEST JUMPDEST PUSH1 0x20 MUL PUSH1 0x20 ADD ADD DUP2 SWAP1 MSTORE POP DUP2 DUP1 PUSH2 0x12C3 SWAP1 PUSH2 0x2464 JUMP JUMPDEST SWAP3 POP POP JUMPDEST DUP1 DUP1 PUSH1 0x1 ADD SWAP2 POP POP PUSH2 0x101B JUMP JUMPDEST POP DUP2 SWAP4 POP POP POP POP SWAP2 SWAP1 POP JUMP JUMPDEST PUSH1 0x16 SLOAD DUP2 JUMP JUMPDEST PUSH1 0x5 DUP2 PUSH1 0xC DUP2 LT PUSH2 0x12F5 JUMPI PUSH0 DUP1 REVERT JUMPDEST ADD PUSH0 SWAP2 POP SWAP1 POP SLOAD DUP2 JUMP JUMPDEST PUSH2 0x130B DUP5 DUP5 DUP5 DUP5 PUSH2 0x658 JUMP JUMPDEST CALLVALUE EQ PUSH2 0x1315 JUMPI PUSH0 PUSH0 REVERT JUMPDEST DUP4 PUSH1 0x40 MLOAD PUSH1 0x20 ADD PUSH2 0x1326 SWAP2 SWAP1 PUSH2 0x1F28 JUMP JUMPDEST PUSH1 0x40 MLOAD PUSH1 0x20 DUP2 DUP4 SUB SUB DUP2 MSTORE SWAP1 PUSH1 0x40 MSTORE DUP1 MLOAD SWAP1 PUSH1 0x20 ADD KECCAK256 PUSH1 0x1 PUSH1 0x4 DUP7 PUSH1 0x40 MLOAD PUSH2 0x134E SWAP2 SWAP1 PUSH2 0x1F28 JUMP JUMPDEST SWAP1 DUP2 MSTORE PUSH1 0x20 ADD PUSH1 0x40 MLOAD DUP1 SWAP2 SUB SWAP1 KECCAK256 SLOAD DUP2 SLOAD DUP2 LT PUSH2 0x136E JUMPI PUSH2 0x136D PUSH2 0x1F3E JUMP JUMPDEST JUMPDEST SWAP1 PUSH0 MSTORE PUSH1 0x20 PUSH0 KECCAK256 ADD PUSH1 0x40 MLOAD PUSH1 0x20 ADD PUSH2 0x1386 SWAP2 SWAP1 PUSH2 0x1FFD JUMP JUMPDEST PUSH1 0x40 MLOAD PUSH1 0x20 DUP2 DUP4 SUB SUB DUP2 MSTORE SWAP1 PUSH1 0x40 MSTORE DUP1 MLOAD SWAP1 PUSH1 0x20 ADD KECCAK256 EQ PUSH2 0x13DC JUMPI PUSH1 0x40 MLOAD PUSH32 0x8C379A000000000000000000000000000000000000000000000000000000000 DUP2 MSTORE PUSH1 0x4 ADD PUSH2 0x13D3 SWAP1 PUSH2 0x2083 JUMP JUMPDEST PUSH1 0x40 MLOAD DUP1 SWAP2 SUB SWAP1 REVERT JUMPDEST PUSH0 PUSH0 SWAP1 POP PUSH0 PUSH0 SWAP1 POP JUMPDEST PUSH1 0x18 SLOAD DUP2 LT ISZERO PUSH2 0x15E5 JUMPI PUSH0 PUSH1 0x17 PUSH0 DUP4 DUP2 MSTORE PUSH1 0x20 ADD SWAP1 DUP2 MSTORE PUSH1 0x20 ADD PUSH0 KECCAK256 SWAP1 POP DUP7 PUSH1 0x40 MLOAD PUSH1 0x20 ADD PUSH2 0x1414 SWAP2 SWAP1 PUSH2 0x1F28 JUMP JUMPDEST PUSH1 0x40 MLOAD PUSH1 0x20 DUP2 DUP4 SUB SUB DUP2 MSTORE SWAP1 PUSH1 0x40 MSTORE DUP1 MLOAD SWAP1 PUSH1 0x20 ADD KECCAK256 DUP2 PUSH1 0x1 ADD PUSH1 0x40 MLOAD PUSH1 0x20 ADD PUSH2 0x143E SWAP2 SWAP1 PUSH2 0x1FFD JUMP JUMPDEST PUSH1 0x40 MLOAD PUSH1 0x20 DUP2 DUP4 SUB SUB DUP2 MSTORE SWAP1 PUSH1 0x40 MSTORE DUP1 MLOAD SWAP1 PUSH1 0x20 ADD KECCAK256 EQ DUP1 ISZERO PUSH2 0x146F JUMPI POP DUP1 PUSH1 0x5 ADD PUSH1 0x1 SWAP1 SLOAD SWAP1 PUSH2 0x100 EXP SWAP1 DIV PUSH1 0xFF AND JUMPDEST ISZERO PUSH2 0x15D7 JUMPI CALLER DUP2 PUSH0 ADD PUSH0 PUSH2 0x100 EXP DUP2 SLOAD DUP2 PUSH20 0xFFFFFFFFFFFFFFFFFFFFFFFFFFFFFFFFFFFFFFFF MUL NOT AND SWAP1 DUP4 PUSH20 0xFFFFFFFFFFFFFFFFFFFFFFFFFFFFFFFFFFFFFFFF AND MUL OR SWAP1 SSTORE POP PUSH1 0x1 DUP6 EQ PUSH2 0x153C JUMPI PUSH1 0x2 DUP6 EQ PUSH2 0x1500 JUMPI PUSH1 0x40 MLOAD DUP1 PUSH1 0x40 ADD PUSH1 0x40 MSTORE DUP1 PUSH1 0x5 DUP2 MSTORE PUSH1 0x20 ADD PUSH32 0x4669727374000000000000000000000000000000000000000000000000000000 DUP2 MSTORE POP PUSH2 0x1537 JUMP JUMPDEST PUSH1 0x40 MLOAD DUP1 PUSH1 0x40 ADD PUSH1 0x40 MSTORE DUP1 PUSH1 0x8 DUP2 MSTORE PUSH1 0x20 ADD PUSH32 0x427573696E657373000000000000000000000000000000000000000000000000 DUP2 MSTORE POP JUMPDEST PUSH2 0x1573 JUMP JUMPDEST PUSH1 0x40 MLOAD DUP1 PUSH1 0x40 ADD PUSH1 0x40 MSTORE DUP1 PUSH1 0x7 DUP2 MSTORE PUSH1 0x20 ADD PUSH32 0x45636F6E6F6D7900000000000000000000000000000000000000000000000000 DUP2 MSTORE POP JUMPDEST DUP2 PUSH1 0x4 ADD SWAP1 DUP2 PUSH2 0x1583 SWAP2 SWAP1 PUSH2 0x2395 JUMP JUMPDEST POP DUP4 DUP2 PUSH1 0x5 ADD PUSH0 PUSH2 0x100 EXP DUP2 SLOAD DUP2 PUSH1 0xFF MUL NOT AND SWAP1 DUP4 ISZERO ISZERO MUL OR SWAP1 SSTORE POP PUSH0 DUP2 PUSH1 0x5 ADD PUSH1 0x1 PUSH2 0x100 EXP DUP2 SLOAD DUP2 PUSH1 0xFF MUL NOT AND SWAP1 DUP4 ISZERO ISZERO MUL OR SWAP1 SSTORE POP DUP6 DUP2 PUSH1 0x6 ADD DUP2 SWAP1 SSTORE POP CALLVALUE DUP2 PUSH1 0x2 ADD DUP2 SWAP1 SSTORE POP PUSH1 0x1 SWAP3 POP POP PUSH2 0x15E5 JUMP JUMPDEST POP DUP1 DUP1 PUSH1 0x1 ADD SWAP2 POP POP PUSH2 0x13E5 JUMP JUMPDEST POP DUP1 PUSH2 0x1626 JUMPI PUSH1 0x40 MLOAD PUSH32 0x8C379A000000000000000000000000000000000000000000000000000000000 DUP2 MSTORE PUSH1 0x4 ADD PUSH2 0x161D SWAP1 PUSH2 0x2637 JUMP JUMPDEST PUSH1 0x40 MLOAD DUP1 SWAP2 SUB SWAP1 REVERT JUMPDEST PUSH1 0x3 PUSH1 0x4 DUP7 PUSH1 0x40 MLOAD PUSH2 0x1638 SWAP2 SWAP1 PUSH2 0x1F28 JUMP JUMPDEST SWAP1 DUP2 MSTORE PUSH1 0x20 ADD PUSH1 0x40 MLOAD DUP1 SWAP2 SUB SWAP1 KECCAK256 SLOAD DUP2 SLOAD DUP2 LT PUSH2 0x1658 JUMPI PUSH2 0x1657 PUSH2 0x1F3E JUMP JUMPDEST JUMPDEST SWAP1 PUSH0 MSTORE PUSH1 0x20 PUSH0 KECCAK256 ADD PUSH0 DUP2 SLOAD DUP1 SWAP3 SWAP2 SWAP1 PUSH2 0x1670 SWAP1 PUSH2 0x2655 JUMP JUMPDEST SWAP2 SWAP1 POP SSTORE POP CALLVALUE PUSH1 0x16 PUSH0 DUP3 DUP3 SLOAD PUSH2 0x1686 SWAP2 SWAP1 PUSH2 0x267C JUMP JUMPDEST SWAP3 POP POP DUP2 SWAP1 SSTORE POP PUSH1 0x1 PUSH1 0x15 PUSH0 PUSH2 0x100 EXP DUP2 SLOAD DUP2 PUSH1 0xFF MUL NOT AND SWAP1 DUP4 ISZERO ISZERO MUL OR SWAP1 SSTORE POP POP POP POP POP POP JUMP JUMPDEST PUSH1 0x15 PUSH0 SWAP1 SLOAD SWAP1 PUSH2 0x100 EXP SWAP1 DIV PUSH1 0xFF AND DUP2 JUMP JUMPDEST PUSH1 0x40 MLOAD DUP1 PUSH2 0x100 ADD PUSH1 0x40 MSTORE DUP1 PUSH0 PUSH20 0xFFFFFFFFFFFFFFFFFFFFFFFFFFFFFFFFFFFFFFFF AND DUP2 MSTORE PUSH1 0x20 ADD PUSH1 0x60 DUP2 MSTORE PUSH1 0x20 ADD PUSH0 DUP2 MSTORE PUSH1 0x20 ADD PUSH0 DUP2 MSTORE PUSH1 0x20 ADD PUSH1 0x60 DUP2 MSTORE PUSH1 0x20 ADD PUSH0 ISZERO ISZERO DUP2 MSTORE PUSH1 0x20 ADD PUSH0 ISZERO ISZERO DUP2 MSTORE PUSH1 0x20 ADD PUSH0 DUP2 MSTORE POP SWAP1 JUMP JUMPDEST PUSH0 PUSH1 0x40 MLOAD SWAP1 POP SWAP1 JUMP JUMPDEST PUSH0 PUSH0 REVERT JUMPDEST PUSH0 PUSH0 REVERT JUMPDEST PUSH0 DUP2 SWAP1 POP SWAP2 SWAP1 POP JUMP JUMPDEST PUSH2 0x173C DUP2 PUSH2 0x172A JUMP JUMPDEST DUP2 EQ PUSH2 0x1746 JUMPI PUSH0 PUSH0 REVERT JUMPDEST POP JUMP JUMPDEST PUSH0 DUP2 CALLDATALOAD SWAP1 POP PUSH2 0x1757 DUP2 PUSH2 0x1733 JUMP JUMPDEST SWAP3 SWAP2 POP POP JUMP JUMPDEST PUSH0 PUSH1 0x20 DUP3 DUP5 SUB SLT ISZERO PUSH2 0x1772 JUMPI PUSH2 0x1771 PUSH2 0x1722 JUMP JUMPDEST JUMPDEST PUSH0 PUSH2 0x177F DUP5 DUP3 DUP6 ADD PUSH2 0x1749 JUMP JUMPDEST SWAP2 POP POP SWAP3 SWAP2 POP POP JUMP JUMPDEST PUSH0 PUSH20 0xFFFFFFFFFFFFFFFFFFFFFFFFFFFFFFFFFFFFFFFF DUP3 AND SWAP1 POP SWAP2 SWAP1 POP JUMP JUMPDEST PUSH0 PUSH2 0x17B1 DUP3 PUSH2 0x1788 JUMP JUMPDEST SWAP1 POP SWAP2 SWAP1 POP JUMP JUMPDEST PUSH2 0x17C1 DUP2 PUSH2 0x17A7 JUMP JUMPDEST DUP3 MSTORE POP POP JUMP JUMPDEST PUSH0 DUP2 MLOAD SWAP1 POP SWAP2 SWAP1 POP JUMP JUMPDEST PUSH0 DUP3 DUP3 MSTORE PUSH1 0x20 DUP3 ADD SWAP1 POP SWAP3 SWAP2 POP POP JUMP JUMPDEST DUP3 DUP2 DUP4 MCOPY PUSH0 DUP4 DUP4 ADD MSTORE POP POP POP JUMP JUMPDEST PUSH0 PUSH1 0x1F NOT PUSH1 0x1F DUP4 ADD AND SWAP1 POP SWAP2 SWAP1 POP JUMP JUMPDEST PUSH0 PUSH2 0x1809 DUP3 PUSH2 0x17C7 JUMP JUMPDEST PUSH2 0x1813 DUP2 DUP6 PUSH2 0x17D1 JUMP JUMPDEST SWAP4 POP PUSH2 0x1823 DUP2 DUP6 PUSH1 0x20 DUP7 ADD PUSH2 0x17E1 JUMP JUMPDEST PUSH2 0x182C DUP2 PUSH2 0x17EF JUMP JUMPDEST DUP5 ADD SWAP2 POP POP SWAP3 SWAP2 POP POP JUMP JUMPDEST PUSH2 0x1840 DUP2 PUSH2 0x172A JUMP JUMPDEST DUP3 MSTORE POP POP JUMP JUMPDEST PUSH0 DUP2 ISZERO ISZERO SWAP1 POP SWAP2 SWAP1 POP JUMP JUMPDEST PUSH2 0x185A DUP2 PUSH2 0x1846 JUMP JUMPDEST DUP3 MSTORE POP POP JUMP JUMPDEST PUSH0 PUSH2 0x100 DUP3 ADD SWAP1 POP PUSH2 0x1874 PUSH0 DUP4 ADD DUP12 PUSH2 0x17B8 JUMP JUMPDEST DUP2 DUP2 SUB PUSH1 0x20 DUP4 ADD MSTORE PUSH2 0x1886 DUP2 DUP11 PUSH2 0x17FF JUMP JUMPDEST SWAP1 POP PUSH2 0x1895 PUSH1 0x40 DUP4 ADD DUP10 PUSH2 0x1837 JUMP JUMPDEST PUSH2 0x18A2 PUSH1 0x60 DUP4 ADD DUP9 PUSH2 0x1837 JUMP JUMPDEST DUP2 DUP2 SUB PUSH1 0x80 DUP4 ADD MSTORE PUSH2 0x18B4 DUP2 DUP8 PUSH2 0x17FF JUMP JUMPDEST SWAP1 POP PUSH2 0x18C3 PUSH1 0xA0 DUP4 ADD DUP7 PUSH2 0x1851 JUMP JUMPDEST PUSH2 0x18D0 PUSH1 0xC0 DUP4 ADD DUP6 PUSH2 0x1851 JUMP JUMPDEST PUSH2 0x18DD PUSH1 0xE0 DUP4 ADD DUP5 PUSH2 0x1837 JUMP JUMPDEST SWAP10 SWAP9 POP POP POP POP POP POP POP POP POP JUMP JUMPDEST PUSH0 PUSH1 0x20 DUP3 ADD SWAP1 POP PUSH2 0x18FD PUSH0 DUP4 ADD DUP5 PUSH2 0x1837 JUMP JUMPDEST SWAP3 SWAP2 POP POP JUMP JUMPDEST PUSH0 PUSH0 REVERT JUMPDEST PUSH0 PUSH0 REVERT JUMPDEST PUSH32 0x4E487B7100000000000000000000000000000000000000000000000000000000 PUSH0 MSTORE PUSH1 0x41 PUSH1 0x4 MSTORE PUSH1 0x24 PUSH0 REVERT JUMPDEST PUSH2 0x1941 DUP3 PUSH2 0x17EF JUMP JUMPDEST DUP2 ADD DUP2 DUP2 LT PUSH8 0xFFFFFFFFFFFFFFFF DUP3 GT OR ISZERO PUSH2 0x1960 JUMPI PUSH2 0x195F PUSH2 0x190B JUMP JUMPDEST JUMPDEST DUP1 PUSH1 0x40 MSTORE POP POP POP JUMP JUMPDEST PUSH0 PUSH2 0x1972 PUSH2 0x1719 JUMP JUMPDEST SWAP1 POP PUSH2 0x197E DUP3 DUP3 PUSH2 0x1938 JUMP JUMPDEST SWAP2 SWAP1 POP JUMP JUMPDEST PUSH0 PUSH8 0xFFFFFFFFFFFFFFFF DUP3 GT ISZERO PUSH2 0x199D JUMPI PUSH2 0x199C PUSH2 0x190B JUMP JUMPDEST JUMPDEST PUSH2 0x19A6 DUP3 PUSH2 0x17EF JUMP JUMPDEST SWAP1 POP PUSH1 0x20 DUP2 ADD SWAP1 POP SWAP2 SWAP1 POP JUMP JUMPDEST DUP3 DUP2 DUP4 CALLDATACOPY PUSH0 DUP4 DUP4 ADD MSTORE POP POP POP JUMP JUMPDEST PUSH0 PUSH2 0x19D3 PUSH2 0x19CE DUP5 PUSH2 0x1983 JUMP JUMPDEST PUSH2 0x1969 JUMP JUMPDEST SWAP1 POP DUP3 DUP2 MSTORE PUSH1 0x20 DUP2 ADD DUP5 DUP5 DUP5 ADD GT ISZERO PUSH2 0x19EF JUMPI PUSH2 0x19EE PUSH2 0x1907 JUMP JUMPDEST JUMPDEST PUSH2 0x19FA DUP5 DUP3 DUP6 PUSH2 0x19B3 JUMP JUMPDEST POP SWAP4 SWAP3 POP POP POP JUMP JUMPDEST PUSH0 DUP3 PUSH1 0x1F DUP4 ADD SLT PUSH2 0x1A16 JUMPI PUSH2 0x1A15 PUSH2 0x1903 JUMP JUMPDEST JUMPDEST DUP2 CALLDATALOAD PUSH2 0x1A26 DUP5 DUP3 PUSH1 0x20 DUP7 ADD PUSH2 0x19C1 JUMP JUMPDEST SWAP2 POP POP SWAP3 SWAP2 POP POP JUMP JUMPDEST PUSH2 0x1A38 DUP2 PUSH2 0x1846 JUMP JUMPDEST DUP2 EQ PUSH2 0x1A42 JUMPI PUSH0 PUSH0 REVERT JUMPDEST POP JUMP JUMPDEST PUSH0 DUP2 CALLDATALOAD SWAP1 POP PUSH2 0x1A53 DUP2 PUSH2 0x1A2F JUMP JUMPDEST SWAP3 SWAP2 POP POP JUMP JUMPDEST PUSH0 PUSH0 PUSH0 PUSH0 PUSH1 0x80 DUP6 DUP8 SUB SLT ISZERO PUSH2 0x1A71 JUMPI PUSH2 0x1A70 PUSH2 0x1722 JUMP JUMPDEST JUMPDEST PUSH0 DUP6 ADD CALLDATALOAD PUSH8 0xFFFFFFFFFFFFFFFF DUP2 GT ISZERO PUSH2 0x1A8E JUMPI PUSH2 0x1A8D PUSH2 0x1726 JUMP JUMPDEST JUMPDEST PUSH2 0x1A9A DUP8 DUP3 DUP9 ADD PUSH2 0x1A02 JUMP JUMPDEST SWAP5 POP POP PUSH1 0x20 PUSH2 0x1AAB DUP8 DUP3 DUP9 ADD PUSH2 0x1749 JUMP JUMPDEST SWAP4 POP POP PUSH1 0x40 PUSH2 0x1ABC DUP8 DUP3 DUP9 ADD PUSH2 0x1749 JUMP JUMPDEST SWAP3 POP POP PUSH1 0x60 PUSH2 0x1ACD DUP8 DUP3 DUP9 ADD PUSH2 0x1A45 JUMP JUMPDEST SWAP2 POP POP SWAP3 SWAP6 SWAP2 SWAP5 POP SWAP3 POP JUMP JUMPDEST PUSH2 0x1AE2 DUP2 PUSH2 0x17A7 JUMP JUMPDEST DUP2 EQ PUSH2 0x1AEC JUMPI PUSH0 PUSH0 REVERT JUMPDEST POP JUMP JUMPDEST PUSH0 DUP2 CALLDATALOAD SWAP1 POP PUSH2 0x1AFD DUP2 PUSH2 0x1AD9 JUMP JUMPDEST SWAP3 SWAP2 POP POP JUMP JUMPDEST PUSH0 PUSH1 0x20 DUP3 DUP5 SUB SLT ISZERO PUSH2 0x1B18 JUMPI PUSH2 0x1B17 PUSH2 0x1722 JUMP JUMPDEST JUMPDEST PUSH0 PUSH2 0x1B25 DUP5 DUP3 DUP6 ADD PUSH2 0x1AEF JUMP JUMPDEST SWAP2 POP POP SWAP3 SWAP2 POP POP JUMP JUMPDEST PUSH0 PUSH1 0x20 DUP3 ADD SWAP1 POP PUSH2 0x1B41 PUSH0 DUP4 ADD DUP5 PUSH2 0x1851 JUMP JUMPDEST SWAP3 SWAP2 POP POP JUMP JUMPDEST PUSH0 PUSH1 0x20 DUP3 DUP5 SUB SLT ISZERO PUSH2 0x1B5C JUMPI PUSH2 0x1B5B PUSH2 0x1722 JUMP JUMPDEST JUMPDEST PUSH0 DUP3 ADD CALLDATALOAD PUSH8 0xFFFFFFFFFFFFFFFF DUP2 GT ISZERO PUSH2 0x1B79 JUMPI PUSH2 0x1B78 PUSH2 0x1726 JUMP JUMPDEST JUMPDEST PUSH2 0x1B85 DUP5 DUP3 DUP6 ADD PUSH2 0x1A02 JUMP JUMPDEST SWAP2 POP POP SWAP3 SWAP2 POP POP JUMP JUMPDEST PUSH0 PUSH0 PUSH0 PUSH1 0x60 DUP5 DUP7 SUB SLT ISZERO PUSH2 0x1BA5 JUMPI PUSH2 0x1BA4 PUSH2 0x1722 JUMP JUMPDEST JUMPDEST PUSH0 PUSH2 0x1BB2 DUP7 DUP3 DUP8 ADD PUSH2 0x1AEF JUMP JUMPDEST SWAP4 POP POP PUSH1 0x20 DUP5 ADD CALLDATALOAD PUSH8 0xFFFFFFFFFFFFFFFF DUP2 GT ISZERO PUSH2 0x1BD3 JUMPI PUSH2 0x1BD2 PUSH2 0x1726 JUMP JUMPDEST JUMPDEST PUSH2 0x1BDF DUP7 DUP3 DUP8 ADD PUSH2 0x1A02 JUMP JUMPDEST SWAP3 POP POP PUSH1 0x40 PUSH2 0x1BF0 DUP7 DUP3 DUP8 ADD PUSH2 0x1749 JUMP JUMPDEST SWAP2 POP POP SWAP3 POP SWAP3 POP SWAP3 JUMP JUMPDEST PUSH0 PUSH0 PUSH1 0x40 DUP4 DUP6 SUB SLT ISZERO PUSH2 0x1C10 JUMPI PUSH2 0x1C0F PUSH2 0x1722 JUMP JUMPDEST JUMPDEST PUSH0 DUP4 ADD CALLDATALOAD PUSH8 0xFFFFFFFFFFFFFFFF DUP2 GT ISZERO PUSH2 0x1C2D JUMPI PUSH2 0x1C2C PUSH2 0x1726 JUMP JUMPDEST JUMPDEST PUSH2 0x1C39 DUP6 DUP3 DUP7 ADD PUSH2 0x1A02 JUMP JUMPDEST SWAP3 POP POP PUSH1 0x20 PUSH2 0x1C4A DUP6 DUP3 DUP7 ADD PUSH2 0x1749 JUMP JUMPDEST SWAP2 POP POP SWAP3 POP SWAP3 SWAP1 POP JUMP JUMPDEST PUSH0 PUSH1 0x20 DUP3 ADD SWAP1 POP DUP2 DUP2 SUB PUSH0 DUP4 ADD MSTORE PUSH2 0x1C6C DUP2 DUP5 PUSH2 0x17FF JUMP JUMPDEST SWAP1 POP SWAP3 SWAP2 POP POP JUMP JUMPDEST PUSH0 PUSH1 0x20 DUP3 ADD SWAP1 POP PUSH2 0x1C87 PUSH0 DUP4 ADD DUP5 PUSH2 0x17B8 JUMP JUMPDEST SWAP3 SWAP2 POP POP JUMP JUMPDEST PUSH0 DUP2 MLOAD SWAP1 POP SWAP2 SWAP1 POP JUMP JUMPDEST PUSH0 DUP3 DUP3 MSTORE PUSH1 0x20 DUP3 ADD SWAP1 POP SWAP3 SWAP2 POP POP JUMP JUMPDEST PUSH0 DUP2 SWAP1 POP PUSH1 0x20 DUP3 ADD SWAP1 POP SWAP2 SWAP1 POP JUMP JUMPDEST PUSH2 0x1CBF DUP2 PUSH2 0x17A7 JUMP JUMPDEST DUP3 MSTORE POP POP JUMP JUMPDEST PUSH0 DUP3 DUP3 MSTORE PUSH1 0x20 DUP3 ADD SWAP1 POP SWAP3 SWAP2 POP POP JUMP JUMPDEST PUSH0 PUSH2 0x1CDF DUP3 PUSH2 0x17C7 JUMP JUMPDEST PUSH2 0x1CE9 DUP2 DUP6 PUSH2 0x1CC5 JUMP JUMPDEST SWAP4 POP PUSH2 0x1CF9 DUP2 DUP6 PUSH1 0x20 DUP7 ADD PUSH2 0x17E1 JUMP JUMPDEST PUSH2 0x1D02 DUP2 PUSH2 0x17EF JUMP JUMPDEST DUP5 ADD SWAP2 POP POP SWAP3 SWAP2 POP POP JUMP JUMPDEST PUSH2 0x1D16 DUP2 PUSH2 0x172A JUMP JUMPDEST DUP3 MSTORE POP POP JUMP JUMPDEST PUSH2 0x1D25 DUP2 PUSH2 0x1846 JUMP JUMPDEST DUP3 MSTORE POP POP JUMP JUMPDEST PUSH0 PUSH2 0x100 DUP4 ADD PUSH0 DUP4 ADD MLOAD PUSH2 0x1D41 PUSH0 DUP7 ADD DUP3 PUSH2 0x1CB6 JUMP JUMPDEST POP PUSH1 0x20 DUP4 ADD MLOAD DUP5 DUP3 SUB PUSH1 0x20 DUP7 ADD MSTORE PUSH2 0x1D59 DUP3 DUP3 PUSH2 0x1CD5 JUMP JUMPDEST SWAP2 POP POP PUSH1 0x40 DUP4 ADD MLOAD PUSH2 0x1D6E PUSH1 0x40 DUP7 ADD DUP3 PUSH2 0x1D0D JUMP JUMPDEST POP PUSH1 0x60 DUP4 ADD MLOAD PUSH2 0x1D81 PUSH1 0x60 DUP7 ADD DUP3 PUSH2 0x1D0D JUMP JUMPDEST POP PUSH1 0x80 DUP4 ADD MLOAD DUP5 DUP3 SUB PUSH1 0x80 DUP7 ADD MSTORE PUSH2 0x1D99 DUP3 DUP3 PUSH2 0x1CD5 JUMP JUMPDEST SWAP2 POP POP PUSH1 0xA0 DUP4 ADD MLOAD PUSH2 0x1DAE PUSH1 0xA0 DUP7 ADD DUP3 PUSH2 0x1D1C JUMP JUMPDEST POP PUSH1 0xC0 DUP4 ADD MLOAD PUSH2 0x1DC1 PUSH1 0xC0 DUP7 ADD DUP3 PUSH2 0x1D1C JUMP JUMPDEST POP PUSH1 0xE0 DUP4 ADD MLOAD PUSH2 0x1DD4 PUSH1 0xE0 DUP7 ADD DUP3 PUSH2 0x1D0D JUMP JUMPDEST POP DUP1 SWAP2 POP POP SWAP3 SWAP2 POP POP JUMP JUMPDEST PUSH0 PUSH2 0x1DEA DUP4 DUP4 PUSH2 0x1D2B JUMP JUMPDEST SWAP1 POP SWAP3 SWAP2 POP POP JUMP JUMPDEST PUSH0 PUSH1 0x20 DUP3 ADD SWAP1 POP SWAP2 SWAP1 POP JUMP JUMPDEST PUSH0 PUSH2 0x1E08 DUP3 PUSH2 0x1C8D JUMP JUMPDEST PUSH2 0x1E12 DUP2 DUP6 PUSH2 0x1C97 JUMP JUMPDEST SWAP4 POP DUP4 PUSH1 0x20 DUP3 MUL DUP6 ADD PUSH2 0x1E24 DUP6 PUSH2 0x1CA7 JUMP JUMPDEST DUP1 PUSH0 JUMPDEST DUP6 DUP2 LT ISZERO PUSH2 0x1E5F JUMPI DUP5 DUP5 SUB DUP10 MSTORE DUP2 MLOAD PUSH2 0x1E40 DUP6 DUP3 PUSH2 0x1DDF JUMP JUMPDEST SWAP5 POP PUSH2 0x1E4B DUP4 PUSH2 0x1DF2 JUMP JUMPDEST SWAP3 POP PUSH1 0x20 DUP11 ADD SWAP10 POP POP PUSH1 0x1 DUP2 ADD SWAP1 POP PUSH2 0x1E27 JUMP JUMPDEST POP DUP3 SWAP8 POP DUP8 SWAP6 POP POP POP POP POP POP SWAP3 SWAP2 POP POP JUMP JUMPDEST PUSH0 PUSH1 0x20 DUP3 ADD SWAP1 POP DUP2 DUP2 SUB PUSH0 DUP4 ADD MSTORE PUSH2 0x1E89 DUP2 DUP5 PUSH2 0x1DFE JUMP JUMPDEST SWAP1 POP SWAP3 SWAP2 POP POP JUMP JUMPDEST PUSH32 0x4E487B7100000000000000000000000000000000000000000000000000000000 PUSH0 MSTORE PUSH1 0x22 PUSH1 0x4 MSTORE PUSH1 0x24 PUSH0 REVERT JUMPDEST PUSH0 PUSH1 0x2 DUP3 DIV SWAP1 POP PUSH1 0x1 DUP3 AND DUP1 PUSH2 0x1ED5 JUMPI PUSH1 0x7F DUP3 AND SWAP2 POP JUMPDEST PUSH1 0x20 DUP3 LT DUP2 SUB PUSH2 0x1EE8 JUMPI PUSH2 0x1EE7 PUSH2 0x1E91 JUMP JUMPDEST JUMPDEST POP SWAP2 SWAP1 POP JUMP JUMPDEST PUSH0 DUP2 SWAP1 POP SWAP3 SWAP2 POP POP JUMP JUMPDEST PUSH0 PUSH2 0x1F02 DUP3 PUSH2 0x17C7 JUMP JUMPDEST PUSH2 0x1F0C DUP2 DUP6 PUSH2 0x1EEE JUMP JUMPDEST SWAP4 POP PUSH2 0x1F1C DUP2 DUP6 PUSH1 0x20 DUP7 ADD PUSH2 0x17E1 JUMP JUMPDEST DUP1 DUP5 ADD SWAP2 POP POP SWAP3 SWAP2 POP POP JUMP JUMPDEST PUSH0 PUSH2 0x1F33 DUP3 DUP5 PUSH2 0x1EF8 JUMP JUMPDEST SWAP2 POP DUP2 SWAP1 POP SWAP3 SWAP2 POP POP JUMP JUMPDEST PUSH32 0x4E487B7100000000000000000000000000000000000000000000000000000000 PUSH0 MSTORE PUSH1 0x32 PUSH1 0x4 MSTORE PUSH1 0x24 PUSH0 REVERT JUMPDEST PUSH0 DUP2 SWAP1 POP DUP2 PUSH0 MSTORE PUSH1 0x20 PUSH0 KECCAK256 SWAP1 POP SWAP2 SWAP1 POP JUMP JUMPDEST PUSH0 DUP2 SLOAD PUSH2 0x1F89 DUP2 PUSH2 0x1EBE JUMP JUMPDEST PUSH2 0x1F93 DUP2 DUP7 PUSH2 0x1EEE JUMP JUMPDEST SWAP5 POP PUSH1 0x1 DUP3 AND PUSH0 DUP2 EQ PUSH2 0x1FAD JUMPI PUSH1 0x1 DUP2 EQ PUSH2 0x1FC2 JUMPI PUSH2 0x1FF4 JUMP JUMPDEST PUSH1 0xFF NOT DUP4 AND DUP7 MSTORE DUP2 ISZERO ISZERO DUP3 MUL DUP7 ADD SWAP4 POP PUSH2 0x1FF4 JUMP JUMPDEST PUSH2 0x1FCB DUP6 PUSH2 0x1F6B JUMP JUMPDEST PUSH0 JUMPDEST DUP4 DUP2 LT ISZERO PUSH2 0x1FEC JUMPI DUP2 SLOAD DUP2 DUP10 ADD MSTORE PUSH1 0x1 DUP3 ADD SWAP2 POP PUSH1 0x20 DUP2 ADD SWAP1 POP PUSH2 0x1FCD JUMP JUMPDEST DUP4 DUP9 ADD SWAP6 POP POP POP JUMPDEST POP POP POP SWAP3 SWAP2 POP POP JUMP JUMPDEST PUSH0 PUSH2 0x2008 DUP3 DUP5 PUSH2 0x1F7D JUMP JUMPDEST SWAP2 POP DUP2 SWAP1 POP SWAP3 SWAP2 POP POP JUMP JUMPDEST PUSH32 0x4572726F723A20546869732064657374696E6174696F6E20646F65736E277420 PUSH0 DUP3 ADD MSTORE PUSH32 0x6578697374210000000000000000000000000000000000000000000000000000 PUSH1 0x20 DUP3 ADD MSTORE POP JUMP JUMPDEST PUSH0 PUSH2 0x206D PUSH1 0x26 DUP4 PUSH2 0x17D1 JUMP JUMPDEST SWAP2 POP PUSH2 0x2078 DUP3 PUSH2 0x2013 JUMP JUMPDEST PUSH1 0x40 DUP3 ADD SWAP1 POP SWAP2 SWAP1 POP JUMP JUMPDEST PUSH0 PUSH1 0x20 DUP3 ADD SWAP1 POP DUP2 DUP2 SUB PUSH0 DUP4 ADD MSTORE PUSH2 0x209A DUP2 PUSH2 0x2061 JUMP JUMPDEST SWAP1 POP SWAP2 SWAP1 POP JUMP JUMPDEST PUSH32 0x4E487B7100000000000000000000000000000000000000000000000000000000 PUSH0 MSTORE PUSH1 0x11 PUSH1 0x4 MSTORE PUSH1 0x24 PUSH0 REVERT JUMPDEST PUSH0 PUSH2 0x20D8 DUP3 PUSH2 0x172A JUMP JUMPDEST SWAP2 POP PUSH2 0x20E3 DUP4 PUSH2 0x172A JUMP JUMPDEST SWAP3 POP DUP3 DUP3 SUB SWAP1 POP DUP2 DUP2 GT ISZERO PUSH2 0x20FB JUMPI PUSH2 0x20FA PUSH2 0x20A1 JUMP JUMPDEST JUMPDEST SWAP3 SWAP2 POP POP JUMP JUMPDEST PUSH0 PUSH2 0x210B DUP3 PUSH2 0x172A JUMP JUMPDEST SWAP2 POP PUSH2 0x2116 DUP4 PUSH2 0x172A JUMP JUMPDEST SWAP3 POP DUP3 DUP3 MUL PUSH2 0x2124 DUP2 PUSH2 0x172A JUMP JUMPDEST SWAP2 POP DUP3 DUP3 DIV DUP5 EQ DUP4 ISZERO OR PUSH2 0x213B JUMPI PUSH2 0x213A PUSH2 0x20A1 JUMP JUMPDEST JUMPDEST POP SWAP3 SWAP2 POP POP JUMP JUMPDEST PUSH32 0x4E487B7100000000000000000000000000000000000000000000000000000000 PUSH0 MSTORE PUSH1 0x12 PUSH1 0x4 MSTORE PUSH1 0x24 PUSH0 REVERT JUMPDEST PUSH0 PUSH2 0x2179 DUP3 PUSH2 0x172A JUMP JUMPDEST SWAP2 POP PUSH2 0x2184 DUP4 PUSH2 0x172A JUMP JUMPDEST SWAP3 POP DUP3 PUSH2 0x2194 JUMPI PUSH2 0x2193 PUSH2 0x2142 JUMP JUMPDEST JUMPDEST DUP3 DUP3 DIV SWAP1 POP SWAP3 SWAP2 POP POP JUMP JUMPDEST PUSH32 0x596F7520617265206E6F74207468652043454F21000000000000000000000000 PUSH0 DUP3 ADD MSTORE POP JUMP JUMPDEST PUSH0 PUSH2 0x21D3 PUSH1 0x14 DUP4 PUSH2 0x17D1 JUMP JUMPDEST SWAP2 POP PUSH2 0x21DE DUP3 PUSH2 0x219F JUMP JUMPDEST PUSH1 0x20 DUP3 ADD SWAP1 POP SWAP2 SWAP1 POP JUMP JUMPDEST PUSH0 PUSH1 0x20 DUP3 ADD SWAP1 POP DUP2 DUP2 SUB PUSH0 DUP4 ADD MSTORE PUSH2 0x2200 DUP2 PUSH2 0x21C7 JUMP JUMPDEST SWAP1 POP SWAP2 SWAP1 POP JUMP JUMPDEST PUSH0 PUSH1 0x20 PUSH1 0x1F DUP4 ADD DIV SWAP1 POP SWAP2 SWAP1 POP JUMP JUMPDEST PUSH0 DUP3 DUP3 SHL SWAP1 POP SWAP3 SWAP2 POP POP JUMP JUMPDEST PUSH0 PUSH1 0x8 DUP4 MUL PUSH2 0x2251 PUSH32 0xFFFFFFFFFFFFFFFFFFFFFFFFFFFFFFFFFFFFFFFFFFFFFFFFFFFFFFFFFFFFFFFF DUP3 PUSH2 0x2216 JUMP JUMPDEST PUSH2 0x225B DUP7 DUP4 PUSH2 0x2216 JUMP JUMPDEST SWAP6 POP DUP1 NOT DUP5 AND SWAP4 POP DUP1 DUP7 AND DUP5 OR SWAP3 POP POP POP SWAP4 SWAP3 POP POP POP JUMP JUMPDEST PUSH0 DUP2 SWAP1 POP SWAP2 SWAP1 POP JUMP JUMPDEST PUSH0 PUSH2 0x2296 PUSH2 0x2291 PUSH2 0x228C DUP5 PUSH2 0x172A JUMP JUMPDEST PUSH2 0x2273 JUMP JUMPDEST PUSH2 0x172A JUMP JUMPDEST SWAP1 POP SWAP2 SWAP1 POP JUMP JUMPDEST PUSH0 DUP2 SWAP1 POP SWAP2 SWAP1 POP JUMP JUMPDEST PUSH2 0x22AF DUP4 PUSH2 0x227C JUMP JUMPDEST PUSH2 0x22C3 PUSH2 0x22BB DUP3 PUSH2 0x229D JUMP JUMPDEST DUP5 DUP5 SLOAD PUSH2 0x2222 JUMP JUMPDEST DUP3 SSTORE POP POP POP POP JUMP JUMPDEST PUSH0 PUSH0 SWAP1 POP SWAP1 JUMP JUMPDEST PUSH2 0x22DA PUSH2 0x22CB JUMP JUMPDEST PUSH2 0x22E5 DUP2 DUP5 DUP5 PUSH2 0x22A6 JUMP JUMPDEST POP POP POP JUMP JUMPDEST JUMPDEST DUP2 DUP2 LT ISZERO PUSH2 0x2308 JUMPI PUSH2 0x22FD PUSH0 DUP3 PUSH2 0x22D2 JUMP JUMPDEST PUSH1 0x1 DUP2 ADD SWAP1 POP PUSH2 0x22EB JUMP JUMPDEST POP POP JUMP JUMPDEST PUSH1 0x1F DUP3 GT ISZERO PUSH2 0x234D JUMPI PUSH2 0x231E DUP2 PUSH2 0x1F6B JUMP JUMPDEST PUSH2 0x2327 DUP5 PUSH2 0x2207 JUMP JUMPDEST DUP2 ADD PUSH1 0x20 DUP6 LT ISZERO PUSH2 0x2336 JUMPI DUP2 SWAP1 POP JUMPDEST PUSH2 0x234A PUSH2 0x2342 DUP6 PUSH2 0x2207 JUMP JUMPDEST DUP4 ADD DUP3 PUSH2 0x22EA JUMP JUMPDEST POP POP JUMPDEST POP POP POP JUMP JUMPDEST PUSH0 DUP3 DUP3 SHR SWAP1 POP SWAP3 SWAP2 POP POP JUMP JUMPDEST PUSH0 PUSH2 0x236D PUSH0 NOT DUP5 PUSH1 0x8 MUL PUSH2 0x2352 JUMP JUMPDEST NOT DUP1 DUP4 AND SWAP2 POP POP SWAP3 SWAP2 POP POP JUMP JUMPDEST PUSH0 PUSH2 0x2385 DUP4 DUP4 PUSH2 0x235E JUMP JUMPDEST SWAP2 POP DUP3 PUSH1 0x2 MUL DUP3 OR SWAP1 POP SWAP3 SWAP2 POP POP JUMP JUMPDEST PUSH2 0x239E DUP3 PUSH2 0x17C7 JUMP JUMPDEST PUSH8 0xFFFFFFFFFFFFFFFF DUP2 GT ISZERO PUSH2 0x23B7 JUMPI PUSH2 0x23B6 PUSH2 0x190B JUMP JUMPDEST JUMPDEST PUSH2 0x23C1 DUP3 SLOAD PUSH2 0x1EBE JUMP JUMPDEST PUSH2 0x23CC DUP3 DUP3 DUP6 PUSH2 0x230C JUMP JUMPDEST PUSH0 PUSH1 0x20 SWAP1 POP PUSH1 0x1F DUP4 GT PUSH1 0x1 DUP2 EQ PUSH2 0x23FD JUMPI PUSH0 DUP5 ISZERO PUSH2 0x23EB JUMPI DUP3 DUP8 ADD MLOAD SWAP1 POP JUMPDEST PUSH2 0x23F5 DUP6 DUP3 PUSH2 0x237A JUMP JUMPDEST DUP7 SSTORE POP PUSH2 0x245C JUMP JUMPDEST PUSH1 0x1F NOT DUP5 AND PUSH2 0x240B DUP7 PUSH2 0x1F6B JUMP JUMPDEST PUSH0 JUMPDEST DUP3 DUP2 LT ISZERO PUSH2 0x2432 JUMPI DUP5 DUP10 ADD MLOAD DUP3 SSTORE PUSH1 0x1 DUP3 ADD SWAP2 POP PUSH1 0x20 DUP6 ADD SWAP5 POP PUSH1 0x20 DUP2 ADD SWAP1 POP PUSH2 0x240D JUMP JUMPDEST DUP7 DUP4 LT ISZERO PUSH2 0x244F JUMPI DUP5 DUP10 ADD MLOAD PUSH2 0x244B PUSH1 0x1F DUP10 AND DUP3 PUSH2 0x235E JUMP JUMPDEST DUP4 SSTORE POP JUMPDEST PUSH1 0x1 PUSH1 0x2 DUP9 MUL ADD DUP9 SSTORE POP POP POP JUMPDEST POP POP POP POP POP POP JUMP JUMPDEST PUSH0 PUSH2 0x246E DUP3 PUSH2 0x172A JUMP JUMPDEST SWAP2 POP PUSH32 0xFFFFFFFFFFFFFFFFFFFFFFFFFFFFFFFFFFFFFFFFFFFFFFFFFFFFFFFFFFFFFFFF DUP3 SUB PUSH2 0x24A0 JUMPI PUSH2 0x249F PUSH2 0x20A1 JUMP JUMPDEST JUMPDEST PUSH1 0x1 DUP3 ADD SWAP1 POP SWAP2 SWAP1 POP JUMP JUMPDEST PUSH32 0x4572726F723A20546869732064657374696E6174696F6E20616C726561647920 PUSH0 DUP3 ADD MSTORE PUSH32 0x6578697374732100000000000000000000000000000000000000000000000000 PUSH1 0x20 DUP3 ADD MSTORE POP JUMP JUMPDEST PUSH0 PUSH2 0x2505 PUSH1 0x27 DUP4 PUSH2 0x17D1 JUMP JUMPDEST SWAP2 POP PUSH2 0x2510 DUP3 PUSH2 0x24AB JUMP JUMPDEST PUSH1 0x40 DUP3 ADD SWAP1 POP SWAP2 SWAP1 POP JUMP JUMPDEST PUSH0 PUSH1 0x20 DUP3 ADD SWAP1 POP DUP2 DUP2 SUB PUSH0 DUP4 ADD MSTORE PUSH2 0x2532 DUP2 PUSH2 0x24F9 JUMP JUMPDEST SWAP1 POP SWAP2 SWAP1 POP JUMP JUMPDEST PUSH32 0x4572726F723A20426173652070726963652063616E6E6F742062652062656C6F PUSH0 DUP3 ADD MSTORE PUSH32 0x7720333020576569210000000000000000000000000000000000000000000000 PUSH1 0x20 DUP3 ADD MSTORE POP JUMP JUMPDEST PUSH0 PUSH2 0x2593 PUSH1 0x29 DUP4 PUSH2 0x17D1 JUMP JUMPDEST SWAP2 POP PUSH2 0x259E DUP3 PUSH2 0x2539 JUMP JUMPDEST PUSH1 0x40 DUP3 ADD SWAP1 POP SWAP2 SWAP1 POP JUMP JUMPDEST PUSH0 PUSH1 0x20 DUP3 ADD SWAP1 POP DUP2 DUP2 SUB PUSH0 DUP4 ADD MSTORE PUSH2 0x25C0 DUP2 PUSH2 0x2587 JUMP JUMPDEST SWAP1 POP SWAP2 SWAP1 POP JUMP JUMPDEST PUSH32 0x4E6F20617661696C61626C65207469636B65747320666F722074686520737065 PUSH0 DUP3 ADD MSTORE PUSH32 0x6369666965642064657374696E6174696F6E0000000000000000000000000000 PUSH1 0x20 DUP3 ADD MSTORE POP JUMP JUMPDEST PUSH0 PUSH2 0x2621 PUSH1 0x32 DUP4 PUSH2 0x17D1 JUMP JUMPDEST SWAP2 POP PUSH2 0x262C DUP3 PUSH2 0x25C7 JUMP JUMPDEST PUSH1 0x40 DUP3 ADD SWAP1 POP SWAP2 SWAP1 POP JUMP JUMPDEST PUSH0 PUSH1 0x20 DUP3 ADD SWAP1 POP DUP2 DUP2 SUB PUSH0 DUP4 ADD MSTORE PUSH2 0x264E DUP2 PUSH2 0x2615 JUMP JUMPDEST SWAP1 POP SWAP2 SWAP1 POP JUMP JUMPDEST PUSH0 PUSH2 0x265F DUP3 PUSH2 0x172A JUMP JUMPDEST SWAP2 POP PUSH0 DUP3 SUB PUSH2 0x2671 JUMPI PUSH2 0x2670 PUSH2 0x20A1 JUMP JUMPDEST JUMPDEST PUSH1 0x1 DUP3 SUB SWAP1 POP SWAP2 SWAP1 POP JUMP JUMPDEST PUSH0 PUSH2 0x2686 DUP3 PUSH2 0x172A JUMP JUMPDEST SWAP2 POP PUSH2 0x2691 DUP4 PUSH2 0x172A JUMP JUMPDEST SWAP3 POP DUP3 DUP3 ADD SWAP1 POP DUP1 DUP3 GT ISZERO PUSH2 0x26A9 JUMPI PUSH2 0x26A8 PUSH2 0x20A1 JUMP JUMPDEST JUMPDEST SWAP3 SWAP2 POP POP JUMP INVALID LOG2 PUSH5 0x6970667358 0x22 SLT KECCAK256 BLOBBASEFEE SWAP15 0x26 EXP PUSH19 0x5CA4FDDE8247A9AE6287D505518F7F3044B997 0xA6 SDIV LT 0xE5 0xF6 0xC3 PUSH5 0x4264736F6C PUSH4 0x4300081C STOP CALLER "},"gasEstimates":{"creation":{"codeDepositCost":"1991400","executionCost":"infinite","totalCost":"infinite"},"external":{"bookFlight(string,uint256,uint256,bool)":"infinite","canPayout()":"2576","ceo()":"2596","classMultiplier(uint256)":"infinite","count()":"2471","create30Tickets(address,string,uint256)":"infinite","createDestination(string,uint256)":"infinite","destinationPrices(uint256)":"infinite","destinations(uint256)":"infinite","getBookedFlights(address)":"infinite","getPrice(string,uint256,uint256,bool)":"infinite","indexes(string)":"infinite","isCeo(address)":"2992","monthMultiplier(uint256)":"infinite","nextTicketId()":"2448","payAmount()":"2469","payCEO()":"infinite","seats(uint256)":"infinite","ticketDetails(uint256)":"infinite"}},"methodIdentifiers":{"bookFlight(string,uint256,uint256,bool)":"ea6e358e","canPayout()":"ff203bc0","ceo()":"908921fc","classMultiplier(uint256)":"695dc67e","count()":"06661abd","create30Tickets(address,string,uint256)":"4afe9f7b","createDestination(string,uint256)":"5e583e37","destinationPrices(uint256)":"195c1445","destinations(uint256)":"8dd4ba2e","getBookedFlights(address)":"ad03fe70","getPrice(string,uint256,uint256,bool)":"07819bd6","indexes(string)":"2427e59e","isCeo(address)":"1165e6ab","monthMultiplier(uint256)":"cb2cc82a","nextTicketId()":"6031a52f","payAmount()":"c8705544","payCEO()":"aafc8d74","seats(uint256)":"3b33c702","ticketDetails(uint256)":"033fab35"}},"storageLayout":{"storage":[{"astId":20,"contract":"AirlineManagement.sol:AirlineManagement","label":"ceo","offset":0,"slot":"0","type":"t_address"},{"astId":23,"contract":"AirlineManagement.sol:AirlineManagement","label":"destinations","offset":0,"slot":"1","type":"t_array(t_string_storage)dyn_storage"},{"astId":26,"contract":"AirlineManagement.sol:AirlineManagement","label":"destinationPrices","offset":0,"slot":"2","type":"t_array(t_uint256)dyn_storage"},{"astId":29,"contract":"AirlineManagement.sol:AirlineManagement","label":"seats","offset":0,"slot":"3","type":"t_array(t_uint256)dyn_storage"},{"astId":33,"contract":"AirlineManagement.sol:AirlineManagement","label":"indexes","offset":0,"slot":"4","type":"t_mapping(t_string_memory_ptr,t_uint256)"},{"astId":37,"contract":"AirlineManagement.sol:AirlineManagement","label":"monthMultiplier","offset":0,"slot":"5","type":"t_array(t_uint256)12_storage"},{"astId":41,"contract":"AirlineManagement.sol:AirlineManagement","label":"classMultiplier","offset":0,"slot":"17","type":"t_array(t_uint256)3_storage"},{"astId":43,"contract":"AirlineManagement.sol:AirlineManagement","label":"count","offset":0,"slot":"20","type":"t_uint256"},{"astId":45,"contract":"AirlineManagement.sol:AirlineManagement","label":"canPayout","offset":0,"slot":"21","type":"t_bool"},{"astId":47,"contract":"AirlineManagement.sol:AirlineManagement","label":"payAmount","offset":0,"slot":"22","type":"t_uint256"},{"astId":52,"contract":"AirlineManagement.sol:AirlineManagement","label":"ticketDetails","offset":0,"slot":"23","type":"t_mapping(t_uint256,t_struct(Ticket)18_storage)"},{"astId":54,"contract":"AirlineManagement.sol:AirlineManagement","label":"nextTicketId","offset":0,"slot":"24","type":"t_uint256"}],"types":{"t_address":{"encoding":"inplace","label":"address","numberOfBytes":"20"},"t_array(t_string_storage)dyn_storage":{"base":"t_string_storage","encoding":"dynamic_array","label":"string[]","numberOfBytes":"32"},"t_array(t_uint256)12_storage":{"base":"t_uint256","encoding":"inplace","label":"uint256[12]","numberOfBytes":"384"},"t_array(t_uint256)3_storage":{"base":"t_uint256","encoding":"inplace","label":"uint256[3]","numberOfBytes":"96"},"t_array(t_uint256)dyn_storage":{"base":"t_uint256","encoding":"dynamic_array","label":"uint256[]","numberOfBytes":"32"},"t_bool":{"encoding":"inplace","label":"bool","numberOfBytes":"1"},"t_mapping(t_string_memory_ptr,t_uint256)":{"encoding":"mapping","key":"t_string_memory_ptr","label":"mapping(string => uint256)","numberOfBytes":"32","value":"t_uint256"},"t_mapping(t_uint256,t_struct(Ticket)18_storage)":{"encoding":"mapping","key":"t_uint256","label":"mapping(uint256 => struct AirlineManagement.Ticket)","numberOfBytes":"32","value":"t_struct(Ticket)18_storage"},"t_string_memory_ptr":{"encoding":"bytes","label":"string","numberOfBytes":"32"},"t_string_storage":{"encoding":"bytes","label":"string","numberOfBytes":"32"},"t_struct(Ticket)18_storage":{"encoding":"inplace","label":"struct AirlineManagement.Ticket","members":[{"astId":3,"contract":"AirlineManagement.sol:AirlineManagement","label":"owner","offset":0,"slot":"0","type":"t_address"},{"astId":5,"contract":"AirlineManagement.sol:AirlineManagement","label":"destination","offset":0,"slot":"1","type":"t_string_storage"},{"astId":7,"contract":"AirlineManagement.sol:AirlineManagement","label":"price","offset":0,"slot":"2","type":"t_uint256"},{"astId":9,"contract":"AirlineManagement.sol:AirlineManagement","label":"seat","offset":0,"slot":"3","type":"t_uint256"},{"astId":11,"contract":"AirlineManagement.sol:AirlineManagement","label":"class","offset":0,"slot":"4","type":"t_string_storage"},{"astId":13,"contract":"AirlineManagement.sol:AirlineManagement","label":"roundTrip","offset":0,"slot":"5","type":"t_bool"},{"astId":15,"contract":"AirlineManagement.sol:AirlineManagement","label":"isAvailable","offset":1,"slot":"5","type":"t_bool"},{"astId":17,"contract":"AirlineManagement.sol:AirlineManagement","label":"month","offset":0,"slot":"6","type":"t_uint256"}],"numberOfBytes":"224"},"t_uint256":{"encoding":"inplace","label":"uint256","numberOfBytes":"32"}}},"transientStorageLayout":{"storage":[],"types":null},"userdoc":{"kind":"user","methods":{},"version":1}}