{"abi":[{"inputs":[{"internalType":"string","name":"destination","type":"string"},{"internalType":"uint256","name":"destinationPrice","type":"uint256"}],"stateMutability":"nonpayable","type":"constructor"},{"inputs":[{"internalType":"string","name":"destination","type":"string"},{"internalType":"uint256","name":"month","type":"uint256"},{"internalType":"uint256","name":"class","type":"uint256"},{"internalType":"bool","name":"way","type":"bool"}],"name":"bookFlight","outputs":[],"stateMutability":"payable","type":"function"},{"inputs":[],"name":"ceo","outputs":[{"internalType":"address","name":"","type":"address"}],"stateMutability":"view","type":"function"},{"inputs":[{"internalType":"uint256","name":"","type":"uint256"}],"name":"classMultiplier","outputs":[{"internalType":"uint256","name":"","type":"uint256"}],"stateMutability":"view","type":"function"},{"inputs":[{"internalType":"address","name":"owner","type":"address"},{"internalType":"string","name":"destination","type":"string"},{"internalType":"uint256","name":"price","type":"uint256"}],"name":"create30Tickets","outputs":[],"stateMutability":"nonpayable","type":"function"},{"inputs":[{"internalType":"string","name":"destination","type":"string"},{"internalType":"uint256","name":"destinationPrice","type":"uint256"}],"name":"createDestination","outputs":[],"stateMutability":"nonpayable","type":"function"},{"inputs":[{"internalType":"uint256","name":"","type":"uint256"}],"name":"destinationPrices","outputs":[{"internalType":"uint256","name":"","type":"uint256"}],"stateMutability":"view","type":"function"},{"inputs":[{"internalType":"uint256","name":"","type":"uint256"}],"name":"destinations","outputs":[{"internalType":"string","name":"","type":"string"}],"stateMutability":"view","type":"function"},{"inputs":[{"internalType":"address","name":"user","type":"address"}],"name":"getBookedFlights","outputs":[{"components":[{"internalType":"address","name":"owner","type":"address"},{"internalType":"string","name":"destination","type":"string"},{"internalType":"uint256","name":"price","type":"uint256"},{"internalType":"uint256","name":"seat","type":"uint256"},{"internalType":"string","name":"class","type":"string"},{"internalType":"bool","name":"roundTrip","type":"bool"},{"internalType":"bool","name":"isAvailable","type":"bool"}],"internalType":"struct AirlineManagement.Ticket[]","name":"","type":"tuple[]"}],"stateMutability":"view","type":"function"},{"inputs":[{"internalType":"string","name":"destination","type":"string"},{"internalType":"uint256","name":"month","type":"uint256"},{"internalType":"uint256","name":"class","type":"uint256"},{"internalType":"bool","name":"way","type":"bool"}],"name":"getPrice","outputs":[{"internalType":"uint256","name":"","type":"uint256"}],"stateMutability":"view","type":"function"},{"inputs":[{"internalType":"address","name":"user","type":"address"}],"name":"isCeo","outputs":[{"internalType":"bool","name":"","type":"bool"}],"stateMutability":"view","type":"function"},{"inputs":[{"internalType":"uint256","name":"","type":"uint256"}],"name":"monthMultiplier","outputs":[{"internalType":"uint256","name":"","type":"uint256"}],"stateMutability":"view","type":"function"},{"inputs":[],"name":"nextTicketId","outputs":[{"internalType":"uint256","name":"","type":"uint256"}],"stateMutability":"view","type":"function"},{"inputs":[{"internalType":"uint256","name":"","type":"uint256"}],"name":"ticketDetails","outputs":[{"internalType":"address","name":"owner","type":"address"},{"internalType":"string","name":"destination","type":"string"},{"internalType":"uint256","name":"price","type":"uint256"},{"internalType":"uint256","name":"seat","type":"uint256"},{"internalType":"string","name":"class","type":"string"},{"internalType":"bool","name":"roundTrip","type":"bool"},{"internalType":"bool","name":"isAvailable","type":"bool"}],"stateMutability":"view","type":"function"}],"devdoc":{"kind":"dev","methods":{},"version":1},"evm":{"assembly":"    /* \"AirlineManagement.sol\":66:5334  contract AirlineManagement {... */\n  mstore(0x40, 0x80)\n    /* \"AirlineManagement.sol\":1061:1967  constructor(string memory destination, uint256 destinationPrice) {... */\n  callvalue\n  dup1\n  iszero\n  tag_1\n  jumpi\n  revert(0x00, 0x00)\ntag_1:\n  pop\n  mload(0x40)\n  sub(codesize, bytecodeSize)\n  dup1\n  bytecodeSize\n  dup4\n  codecopy\n  dup2\n  dup2\n  add\n  0x40\n  mstore\n  dup2\n  add\n  swap1\n  tag_2\n  swap2\n  swap1\n  tag_3\n  jump\t// in\ntag_2:\n    /* \"AirlineManagement.sol\":1143:1153  msg.sender */\n  caller\n    /* \"AirlineManagement.sol\":1137:1140  ceo */\n  0x00\n  0x00\n    /* \"AirlineManagement.sol\":1137:1153  ceo = msg.sender */\n  0x0100\n  exp\n  dup2\n  sload\n  dup2\n  0xffffffffffffffffffffffffffffffffffffffff\n  mul\n  not\n  and\n  swap1\n  dup4\n  0xffffffffffffffffffffffffffffffffffffffff\n  and\n  mul\n  or\n  swap1\n  sstore\n  pop\n    /* \"AirlineManagement.sol\":1172:1173  0 */\n  0x00\n    /* \"AirlineManagement.sol\":1164:1169  count */\n  0x13\n    /* \"AirlineManagement.sol\":1164:1173  count = 0 */\n  dup2\n  swap1\n  sstore\n  pop\n    /* \"AirlineManagement.sol\":1184:1196  destinations */\n  0x01\n    /* \"AirlineManagement.sol\":1202:1213  destination */\n  dup3\n    /* \"AirlineManagement.sol\":1184:1214  destinations.push(destination) */\n  swap1\n  dup1\n  0x01\n  dup2\n  sload\n  add\n  dup1\n  dup3\n  sstore\n  dup1\n  swap2\n  pop\n  pop\n  0x01\n  swap1\n  sub\n  swap1\n  0x00\n  mstore\n  keccak256(0x00, 0x20)\n  add\n  0x00\n  swap1\n  swap2\n  swap1\n  swap2\n  swap1\n  swap2\n  pop\n  swap1\n  dup2\n  tag_7\n  swap2\n  swap1\n  tag_8\n  jump\t// in\ntag_7:\n  pop\n    /* \"AirlineManagement.sol\":1225:1242  destinationPrices */\n  0x02\n    /* \"AirlineManagement.sol\":1248:1264  destinationPrice */\n  dup2\n    /* \"AirlineManagement.sol\":1225:1265  destinationPrices.push(destinationPrice) */\n  swap1\n  dup1\n  0x01\n  dup2\n  sload\n  add\n  dup1\n  dup3\n  sstore\n  dup1\n  swap2\n  pop\n  pop\n  0x01\n  swap1\n  sub\n  swap1\n  0x00\n  mstore\n  keccak256(0x00, 0x20)\n  add\n  0x00\n  swap1\n  swap2\n  swap1\n  swap2\n  swap1\n  swap2\n  pop\n  sstore\n    /* \"AirlineManagement.sol\":1299:1304  count */\n  sload(0x13)\n    /* \"AirlineManagement.sol\":1276:1283  indexes */\n  0x03\n    /* \"AirlineManagement.sol\":1284:1295  destination */\n  dup4\n    /* \"AirlineManagement.sol\":1276:1296  indexes[destination] */\n  mload(0x40)\n  tag_10\n  swap2\n  swap1\n  tag_11\n  jump\t// in\ntag_10:\n  swap1\n  dup2\n  mstore\n  0x20\n  add\n  mload(0x40)\n  dup1\n  swap2\n  sub\n  swap1\n  keccak256\n    /* \"AirlineManagement.sol\":1276:1304  indexes[destination] = count */\n  dup2\n  swap1\n  sstore\n  pop\n    /* \"AirlineManagement.sol\":1315:1373  create30Tickets(msg.sender, destination, destinationPrice) */\n  tag_12\n    /* \"AirlineManagement.sol\":1331:1341  msg.sender */\n  caller\n    /* \"AirlineManagement.sol\":1343:1354  destination */\n  dup4\n    /* \"AirlineManagement.sol\":1356:1372  destinationPrice */\n  dup4\n    /* \"AirlineManagement.sol\":1315:1330  create30Tickets */\n  shl(0x20, tag_13)\n    /* \"AirlineManagement.sol\":1315:1373  create30Tickets(msg.sender, destination, destinationPrice) */\n  0x20\n  shr\n  jump\t// in\ntag_12:\n    /* \"AirlineManagement.sol\":1446:1447  3 */\n  0x03\n    /* \"AirlineManagement.sol\":1425:1440  monthMultiplier */\n  0x04\n    /* \"AirlineManagement.sol\":1441:1442  0 */\n  0x00\n    /* \"AirlineManagement.sol\":1425:1443  monthMultiplier[0] */\n  0x0c\n  dup2\n  lt\n  tag_14\n  jumpi\n  tag_15\n  tag_16\n  jump\t// in\ntag_15:\ntag_14:\n  add\n    /* \"AirlineManagement.sol\":1425:1447  monthMultiplier[0] = 3 */\n  dup2\n  swap1\n  sstore\n  pop\n    /* \"AirlineManagement.sol\":1479:1480  2 */\n  0x02\n    /* \"AirlineManagement.sol\":1458:1473  monthMultiplier */\n  0x04\n    /* \"AirlineManagement.sol\":1474:1475  1 */\n  0x01\n    /* \"AirlineManagement.sol\":1458:1476  monthMultiplier[1] */\n  0x0c\n  dup2\n  lt\n  tag_18\n  jumpi\n  tag_19\n  tag_16\n  jump\t// in\ntag_19:\ntag_18:\n  add\n    /* \"AirlineManagement.sol\":1458:1480  monthMultiplier[1] = 2 */\n  dup2\n  swap1\n  sstore\n  pop\n    /* \"AirlineManagement.sol\":1512:1513  4 */\n  0x04\n    /* \"AirlineManagement.sol\":1491:1506  monthMultiplier */\n  dup1\n    /* \"AirlineManagement.sol\":1507:1508  2 */\n  0x02\n    /* \"AirlineManagement.sol\":1491:1509  monthMultiplier[2] */\n  0x0c\n  dup2\n  lt\n  tag_21\n  jumpi\n  tag_22\n  tag_16\n  jump\t// in\ntag_22:\ntag_21:\n  add\n    /* \"AirlineManagement.sol\":1491:1513  monthMultiplier[2] = 4 */\n  dup2\n  swap1\n  sstore\n  pop\n    /* \"AirlineManagement.sol\":1545:1546  5 */\n  0x05\n    /* \"AirlineManagement.sol\":1524:1539  monthMultiplier */\n  0x04\n    /* \"AirlineManagement.sol\":1540:1541  3 */\n  0x03\n    /* \"AirlineManagement.sol\":1524:1542  monthMultiplier[3] */\n  0x0c\n  dup2\n  lt\n  tag_24\n  jumpi\n  tag_25\n  tag_16\n  jump\t// in\ntag_25:\ntag_24:\n  add\n    /* \"AirlineManagement.sol\":1524:1546  monthMultiplier[3] = 5 */\n  dup2\n  swap1\n  sstore\n  pop\n    /* \"AirlineManagement.sol\":1578:1579  3 */\n  0x03\n    /* \"AirlineManagement.sol\":1557:1572  monthMultiplier */\n  0x04\n    /* \"AirlineManagement.sol\":1573:1574  4 */\n  dup1\n    /* \"AirlineManagement.sol\":1557:1575  monthMultiplier[4] */\n  0x0c\n  dup2\n  lt\n  tag_27\n  jumpi\n  tag_28\n  tag_16\n  jump\t// in\ntag_28:\ntag_27:\n  add\n    /* \"AirlineManagement.sol\":1557:1579  monthMultiplier[4] = 3 */\n  dup2\n  swap1\n  sstore\n  pop\n    /* \"AirlineManagement.sol\":1611:1613  12 */\n  0x0c\n    /* \"AirlineManagement.sol\":1590:1605  monthMultiplier */\n  0x04\n    /* \"AirlineManagement.sol\":1606:1607  5 */\n  0x05\n    /* \"AirlineManagement.sol\":1590:1608  monthMultiplier[5] */\n  0x0c\n  dup2\n  lt\n  tag_30\n  jumpi\n  tag_31\n  tag_16\n  jump\t// in\ntag_31:\ntag_30:\n  add\n    /* \"AirlineManagement.sol\":1590:1613  monthMultiplier[5] = 12 */\n  dup2\n  swap1\n  sstore\n  pop\n    /* \"AirlineManagement.sol\":1645:1647  11 */\n  0x0b\n    /* \"AirlineManagement.sol\":1624:1639  monthMultiplier */\n  0x04\n    /* \"AirlineManagement.sol\":1640:1641  6 */\n  0x06\n    /* \"AirlineManagement.sol\":1624:1642  monthMultiplier[6] */\n  0x0c\n  dup2\n  lt\n  tag_33\n  jumpi\n  tag_34\n  tag_16\n  jump\t// in\ntag_34:\ntag_33:\n  add\n    /* \"AirlineManagement.sol\":1624:1647  monthMultiplier[6] = 11 */\n  dup2\n  swap1\n  sstore\n  pop\n    /* \"AirlineManagement.sol\":1679:1681  12 */\n  0x0c\n    /* \"AirlineManagement.sol\":1658:1673  monthMultiplier */\n  0x04\n    /* \"AirlineManagement.sol\":1674:1675  7 */\n  0x07\n    /* \"AirlineManagement.sol\":1658:1676  monthMultiplier[7] */\n  0x0c\n  dup2\n  lt\n  tag_36\n  jumpi\n  tag_37\n  tag_16\n  jump\t// in\ntag_37:\ntag_36:\n  add\n    /* \"AirlineManagement.sol\":1658:1681  monthMultiplier[7] = 12 */\n  dup2\n  swap1\n  sstore\n  pop\n    /* \"AirlineManagement.sol\":1713:1715  15 */\n  0x0f\n    /* \"AirlineManagement.sol\":1692:1707  monthMultiplier */\n  0x04\n    /* \"AirlineManagement.sol\":1708:1709  8 */\n  0x08\n    /* \"AirlineManagement.sol\":1692:1710  monthMultiplier[8] */\n  0x0c\n  dup2\n  lt\n  tag_39\n  jumpi\n  tag_40\n  tag_16\n  jump\t// in\ntag_40:\ntag_39:\n  add\n    /* \"AirlineManagement.sol\":1692:1715  monthMultiplier[8] = 15 */\n  dup2\n  swap1\n  sstore\n  pop\n    /* \"AirlineManagement.sol\":1747:1749  14 */\n  0x0e\n    /* \"AirlineManagement.sol\":1726:1741  monthMultiplier */\n  0x04\n    /* \"AirlineManagement.sol\":1742:1743  9 */\n  0x09\n    /* \"AirlineManagement.sol\":1726:1744  monthMultiplier[9] */\n  0x0c\n  dup2\n  lt\n  tag_42\n  jumpi\n  tag_43\n  tag_16\n  jump\t// in\ntag_43:\ntag_42:\n  add\n    /* \"AirlineManagement.sol\":1726:1749  monthMultiplier[9] = 14 */\n  dup2\n  swap1\n  sstore\n  pop\n    /* \"AirlineManagement.sol\":1782:1784  11 */\n  0x0b\n    /* \"AirlineManagement.sol\":1760:1775  monthMultiplier */\n  0x04\n    /* \"AirlineManagement.sol\":1776:1778  10 */\n  0x0a\n    /* \"AirlineManagement.sol\":1760:1779  monthMultiplier[10] */\n  0x0c\n  dup2\n  lt\n  tag_45\n  jumpi\n  tag_46\n  tag_16\n  jump\t// in\ntag_46:\ntag_45:\n  add\n    /* \"AirlineManagement.sol\":1760:1784  monthMultiplier[10] = 11 */\n  dup2\n  swap1\n  sstore\n  pop\n    /* \"AirlineManagement.sol\":1817:1819  13 */\n  0x0d\n    /* \"AirlineManagement.sol\":1795:1810  monthMultiplier */\n  0x04\n    /* \"AirlineManagement.sol\":1811:1813  11 */\n  0x0b\n    /* \"AirlineManagement.sol\":1795:1814  monthMultiplier[11] */\n  0x0c\n  dup2\n  lt\n  tag_48\n  jumpi\n  tag_49\n  tag_16\n  jump\t// in\ntag_49:\ntag_48:\n  add\n    /* \"AirlineManagement.sol\":1795:1819  monthMultiplier[11] = 13 */\n  dup2\n  swap1\n  sstore\n  pop\n    /* \"AirlineManagement.sol\":1892:1893  1 */\n  0x01\n    /* \"AirlineManagement.sol\":1871:1886  classMultiplier */\n  0x10\n    /* \"AirlineManagement.sol\":1887:1888  0 */\n  0x00\n    /* \"AirlineManagement.sol\":1871:1889  classMultiplier[0] */\n  0x03\n  dup2\n  lt\n  tag_51\n  jumpi\n  tag_52\n  tag_16\n  jump\t// in\ntag_52:\ntag_51:\n  add\n    /* \"AirlineManagement.sol\":1871:1893  classMultiplier[0] = 1 */\n  dup2\n  swap1\n  sstore\n  pop\n    /* \"AirlineManagement.sol\":1925:1926  2 */\n  0x02\n    /* \"AirlineManagement.sol\":1904:1919  classMultiplier */\n  0x10\n    /* \"AirlineManagement.sol\":1920:1921  1 */\n  0x01\n    /* \"AirlineManagement.sol\":1904:1922  classMultiplier[1] */\n  0x03\n  dup2\n  lt\n  tag_54\n  jumpi\n  tag_55\n  tag_16\n  jump\t// in\ntag_55:\ntag_54:\n  add\n    /* \"AirlineManagement.sol\":1904:1926  classMultiplier[1] = 2 */\n  dup2\n  swap1\n  sstore\n  pop\n    /* \"AirlineManagement.sol\":1958:1959  3 */\n  0x03\n    /* \"AirlineManagement.sol\":1937:1952  classMultiplier */\n  0x10\n    /* \"AirlineManagement.sol\":1953:1954  2 */\n  0x02\n    /* \"AirlineManagement.sol\":1937:1955  classMultiplier[2] */\n  0x03\n  dup2\n  lt\n  tag_57\n  jumpi\n  tag_58\n  tag_16\n  jump\t// in\ntag_58:\ntag_57:\n  add\n    /* \"AirlineManagement.sol\":1937:1959  classMultiplier[2] = 3 */\n  dup2\n  swap1\n  sstore\n  pop\n    /* \"AirlineManagement.sol\":1061:1967  constructor(string memory destination, uint256 destinationPrice) {... */\n  pop\n  pop\n    /* \"AirlineManagement.sol\":66:5334  contract AirlineManagement {... */\n  jump(tag_60)\n    /* \"AirlineManagement.sol\":2359:2701  function create30Tickets(address owner, string memory destination, uint256 price) public restricted {... */\ntag_13:\n    /* \"AirlineManagement.sol\":993:996  ceo */\n  0x00\n  0x00\n  swap1\n  sload\n  swap1\n  0x0100\n  exp\n  swap1\n  div\n  0xffffffffffffffffffffffffffffffffffffffff\n  and\n    /* \"AirlineManagement.sol\":979:996  msg.sender == ceo */\n  0xffffffffffffffffffffffffffffffffffffffff\n  and\n    /* \"AirlineManagement.sol\":979:989  msg.sender */\n  caller\n    /* \"AirlineManagement.sol\":979:996  msg.sender == ceo */\n  0xffffffffffffffffffffffffffffffffffffffff\n  and\n  eq\n    /* \"AirlineManagement.sol\":971:997  require(msg.sender == ceo) */\n  tag_62\n  jumpi\n  revert(0x00, 0x00)\ntag_62:\n    /* \"AirlineManagement.sol\":2475:2487  uint256 seat */\n  0x00\n    /* \"AirlineManagement.sol\":2490:2491  0 */\n  0x00\n    /* \"AirlineManagement.sol\":2475:2491  uint256 seat = 0 */\n  swap1\n  pop\n    /* \"AirlineManagement.sol\":2470:2694  for (uint256 seat = 0; seat < 30; seat++) {... */\ntag_64:\n    /* \"AirlineManagement.sol\":2500:2502  30 */\n  0x1e\n    /* \"AirlineManagement.sol\":2493:2497  seat */\n  dup2\n    /* \"AirlineManagement.sol\":2493:2502  seat < 30 */\n  lt\n    /* \"AirlineManagement.sol\":2470:2694  for (uint256 seat = 0; seat < 30; seat++) {... */\n  iszero\n  tag_65\n  jumpi\n    /* \"AirlineManagement.sol\":2527:2542  uint256 tokenId */\n  0x00\n    /* \"AirlineManagement.sol\":2545:2557  nextTicketId */\n  sload(0x15)\n    /* \"AirlineManagement.sol\":2527:2557  uint256 tokenId = nextTicketId */\n  swap1\n  pop\n    /* \"AirlineManagement.sol\":2597:2653  Ticket(owner, destination, price, seat, \"\", false, true) */\n  mload(0x40)\n  dup1\n  0xe0\n  add\n  0x40\n  mstore\n  dup1\n    /* \"AirlineManagement.sol\":2604:2609  owner */\n  dup7\n    /* \"AirlineManagement.sol\":2597:2653  Ticket(owner, destination, price, seat, \"\", false, true) */\n  0xffffffffffffffffffffffffffffffffffffffff\n  and\n  dup2\n  mstore\n  0x20\n  add\n    /* \"AirlineManagement.sol\":2611:2622  destination */\n  dup6\n    /* \"AirlineManagement.sol\":2597:2653  Ticket(owner, destination, price, seat, \"\", false, true) */\n  dup2\n  mstore\n  0x20\n  add\n    /* \"AirlineManagement.sol\":2624:2629  price */\n  dup5\n    /* \"AirlineManagement.sol\":2597:2653  Ticket(owner, destination, price, seat, \"\", false, true) */\n  dup2\n  mstore\n  0x20\n  add\n    /* \"AirlineManagement.sol\":2631:2635  seat */\n  dup4\n    /* \"AirlineManagement.sol\":2597:2653  Ticket(owner, destination, price, seat, \"\", false, true) */\n  dup2\n  mstore\n  0x20\n  add\n  mload(0x40)\n  dup1\n  0x20\n  add\n  0x40\n  mstore\n  dup1\n  0x00\n  dup2\n  mstore\n  pop\n  dup2\n  mstore\n  0x20\n  add\n    /* \"AirlineManagement.sol\":2641:2646  false */\n  0x00\n    /* \"AirlineManagement.sol\":2597:2653  Ticket(owner, destination, price, seat, \"\", false, true) */\n  iszero\n  iszero\n  dup2\n  mstore\n  0x20\n  add\n    /* \"AirlineManagement.sol\":2648:2652  true */\n  0x01\n    /* \"AirlineManagement.sol\":2597:2653  Ticket(owner, destination, price, seat, \"\", false, true) */\n  iszero\n  iszero\n  dup2\n  mstore\n  pop\n    /* \"AirlineManagement.sol\":2572:2585  ticketDetails */\n  0x14\n    /* \"AirlineManagement.sol\":2572:2594  ticketDetails[tokenId] */\n  0x00\n    /* \"AirlineManagement.sol\":2586:2593  tokenId */\n  dup4\n    /* \"AirlineManagement.sol\":2572:2594  ticketDetails[tokenId] */\n  dup2\n  mstore\n  0x20\n  add\n  swap1\n  dup2\n  mstore\n  0x20\n  add\n  0x00\n  keccak256\n    /* \"AirlineManagement.sol\":2572:2653  ticketDetails[tokenId] = Ticket(owner, destination, price, seat, \"\", false, true) */\n  0x00\n  dup3\n  add\n  mload\n  dup2\n  0x00\n  add\n  exp(0x0100, 0x00)\n  dup2\n  sload\n  dup2\n  0xffffffffffffffffffffffffffffffffffffffff\n  mul\n  not\n  and\n  swap1\n  dup4\n  0xffffffffffffffffffffffffffffffffffffffff\n  and\n  mul\n  or\n  swap1\n  sstore\n  pop\n  0x20\n  dup3\n  add\n  mload\n  dup2\n  0x01\n  add\n  swap1\n  dup2\n  tag_67\n  swap2\n  swap1\n  tag_8\n  jump\t// in\ntag_67:\n  pop\n  0x40\n  dup3\n  add\n  mload\n  dup2\n  0x02\n  add\n  sstore\n  0x60\n  dup3\n  add\n  mload\n  dup2\n  0x03\n  add\n  sstore\n  0x80\n  dup3\n  add\n  mload\n  dup2\n  0x04\n  add\n  swap1\n  dup2\n  tag_68\n  swap2\n  swap1\n  tag_8\n  jump\t// in\ntag_68:\n  pop\n  0xa0\n  dup3\n  add\n  mload\n  dup2\n  0x05\n  add\n  exp(0x0100, 0x00)\n  dup2\n  sload\n  dup2\n  0xff\n  mul\n  not\n  and\n  swap1\n  dup4\n  iszero\n  iszero\n  mul\n  or\n  swap1\n  sstore\n  pop\n  0xc0\n  dup3\n  add\n  mload\n  dup2\n  0x05\n  add\n  exp(0x0100, 0x01)\n  dup2\n  sload\n  dup2\n  0xff\n  mul\n  not\n  and\n  swap1\n  dup4\n  iszero\n  iszero\n  mul\n  or\n  swap1\n  sstore\n  pop\n  swap1\n  pop\n  pop\n    /* \"AirlineManagement.sol\":2668:2680  nextTicketId */\n  0x15\n  0x00\n    /* \"AirlineManagement.sol\":2668:2682  nextTicketId++ */\n  dup2\n  sload\n  dup1\n  swap3\n  swap2\n  swap1\n  tag_69\n  swap1\n  tag_70\n  jump\t// in\ntag_69:\n  swap2\n  swap1\n  pop\n  sstore\n  pop\n    /* \"AirlineManagement.sol\":2512:2694  {... */\n  pop\n    /* \"AirlineManagement.sol\":2504:2510  seat++ */\n  dup1\n  dup1\n  0x01\n  add\n  swap2\n  pop\n  pop\n    /* \"AirlineManagement.sol\":2470:2694  for (uint256 seat = 0; seat < 30; seat++) {... */\n  jump(tag_64)\ntag_65:\n  pop\n    /* \"AirlineManagement.sol\":2359:2701  function create30Tickets(address owner, string memory destination, uint256 price) public restricted {... */\n  pop\n  pop\n  pop\n  jump\t// out\n    /* \"#utility.yul\":7:82   */\ntag_71:\n    /* \"#utility.yul\":40:46   */\n  0x00\n    /* \"#utility.yul\":73:75   */\n  0x40\n    /* \"#utility.yul\":67:76   */\n  mload\n    /* \"#utility.yul\":57:76   */\n  swap1\n  pop\n    /* \"#utility.yul\":7:82   */\n  swap1\n  jump\t// out\n    /* \"#utility.yul\":88:205   */\ntag_72:\n    /* \"#utility.yul\":197:198   */\n  0x00\n    /* \"#utility.yul\":194:195   */\n  0x00\n    /* \"#utility.yul\":187:199   */\n  revert\n    /* \"#utility.yul\":211:328   */\ntag_73:\n    /* \"#utility.yul\":320:321   */\n  0x00\n    /* \"#utility.yul\":317:318   */\n  0x00\n    /* \"#utility.yul\":310:322   */\n  revert\n    /* \"#utility.yul\":334:451   */\ntag_74:\n    /* \"#utility.yul\":443:444   */\n  0x00\n    /* \"#utility.yul\":440:441   */\n  0x00\n    /* \"#utility.yul\":433:445   */\n  revert\n    /* \"#utility.yul\":457:574   */\ntag_75:\n    /* \"#utility.yul\":566:567   */\n  0x00\n    /* \"#utility.yul\":563:564   */\n  0x00\n    /* \"#utility.yul\":556:568   */\n  revert\n    /* \"#utility.yul\":580:682   */\ntag_76:\n    /* \"#utility.yul\":621:627   */\n  0x00\n    /* \"#utility.yul\":672:674   */\n  0x1f\n    /* \"#utility.yul\":668:675   */\n  not\n    /* \"#utility.yul\":663:665   */\n  0x1f\n    /* \"#utility.yul\":656:661   */\n  dup4\n    /* \"#utility.yul\":652:666   */\n  add\n    /* \"#utility.yul\":648:676   */\n  and\n    /* \"#utility.yul\":638:676   */\n  swap1\n  pop\n    /* \"#utility.yul\":580:682   */\n  swap2\n  swap1\n  pop\n  jump\t// out\n    /* \"#utility.yul\":688:868   */\ntag_77:\n    /* \"#utility.yul\":736:813   */\n  0x4e487b7100000000000000000000000000000000000000000000000000000000\n    /* \"#utility.yul\":733:734   */\n  0x00\n    /* \"#utility.yul\":726:814   */\n  mstore\n    /* \"#utility.yul\":833:837   */\n  0x41\n    /* \"#utility.yul\":830:831   */\n  0x04\n    /* \"#utility.yul\":823:838   */\n  mstore\n    /* \"#utility.yul\":857:861   */\n  0x24\n    /* \"#utility.yul\":854:855   */\n  0x00\n    /* \"#utility.yul\":847:862   */\n  revert\n    /* \"#utility.yul\":874:1155   */\ntag_78:\n    /* \"#utility.yul\":957:984   */\n  tag_117\n    /* \"#utility.yul\":979:983   */\n  dup3\n    /* \"#utility.yul\":957:984   */\n  tag_76\n  jump\t// in\ntag_117:\n    /* \"#utility.yul\":949:955   */\n  dup2\n    /* \"#utility.yul\":945:985   */\n  add\n    /* \"#utility.yul\":1087:1093   */\n  dup2\n    /* \"#utility.yul\":1075:1085   */\n  dup2\n    /* \"#utility.yul\":1072:1094   */\n  lt\n    /* \"#utility.yul\":1051:1069   */\n  0xffffffffffffffff\n    /* \"#utility.yul\":1039:1049   */\n  dup3\n    /* \"#utility.yul\":1036:1070   */\n  gt\n    /* \"#utility.yul\":1033:1095   */\n  or\n    /* \"#utility.yul\":1030:1118   */\n  iszero\n  tag_118\n  jumpi\n    /* \"#utility.yul\":1098:1116   */\n  tag_119\n  tag_77\n  jump\t// in\ntag_119:\n    /* \"#utility.yul\":1030:1118   */\ntag_118:\n    /* \"#utility.yul\":1138:1148   */\n  dup1\n    /* \"#utility.yul\":1134:1136   */\n  0x40\n    /* \"#utility.yul\":1127:1149   */\n  mstore\n    /* \"#utility.yul\":917:1155   */\n  pop\n    /* \"#utility.yul\":874:1155   */\n  pop\n  pop\n  jump\t// out\n    /* \"#utility.yul\":1161:1290   */\ntag_79:\n    /* \"#utility.yul\":1195:1201   */\n  0x00\n    /* \"#utility.yul\":1222:1242   */\n  tag_121\n  tag_71\n  jump\t// in\ntag_121:\n    /* \"#utility.yul\":1212:1242   */\n  swap1\n  pop\n    /* \"#utility.yul\":1251:1284   */\n  tag_122\n    /* \"#utility.yul\":1279:1283   */\n  dup3\n    /* \"#utility.yul\":1271:1277   */\n  dup3\n    /* \"#utility.yul\":1251:1284   */\n  tag_78\n  jump\t// in\ntag_122:\n    /* \"#utility.yul\":1161:1290   */\n  swap2\n  swap1\n  pop\n  jump\t// out\n    /* \"#utility.yul\":1296:1604   */\ntag_80:\n    /* \"#utility.yul\":1358:1362   */\n  0x00\n    /* \"#utility.yul\":1448:1466   */\n  0xffffffffffffffff\n    /* \"#utility.yul\":1440:1446   */\n  dup3\n    /* \"#utility.yul\":1437:1467   */\n  gt\n    /* \"#utility.yul\":1434:1490   */\n  iszero\n  tag_124\n  jumpi\n    /* \"#utility.yul\":1470:1488   */\n  tag_125\n  tag_77\n  jump\t// in\ntag_125:\n    /* \"#utility.yul\":1434:1490   */\ntag_124:\n    /* \"#utility.yul\":1508:1537   */\n  tag_126\n    /* \"#utility.yul\":1530:1536   */\n  dup3\n    /* \"#utility.yul\":1508:1537   */\n  tag_76\n  jump\t// in\ntag_126:\n    /* \"#utility.yul\":1500:1537   */\n  swap1\n  pop\n    /* \"#utility.yul\":1592:1596   */\n  0x20\n    /* \"#utility.yul\":1586:1590   */\n  dup2\n    /* \"#utility.yul\":1582:1597   */\n  add\n    /* \"#utility.yul\":1574:1597   */\n  swap1\n  pop\n    /* \"#utility.yul\":1296:1604   */\n  swap2\n  swap1\n  pop\n  jump\t// out\n    /* \"#utility.yul\":1610:1749   */\ntag_81:\n    /* \"#utility.yul\":1699:1705   */\n  dup3\n    /* \"#utility.yul\":1694:1697   */\n  dup2\n    /* \"#utility.yul\":1689:1692   */\n  dup4\n    /* \"#utility.yul\":1683:1706   */\n  mcopy\n    /* \"#utility.yul\":1740:1741   */\n  0x00\n    /* \"#utility.yul\":1731:1737   */\n  dup4\n    /* \"#utility.yul\":1726:1729   */\n  dup4\n    /* \"#utility.yul\":1722:1738   */\n  add\n    /* \"#utility.yul\":1715:1742   */\n  mstore\n    /* \"#utility.yul\":1610:1749   */\n  pop\n  pop\n  pop\n  jump\t// out\n    /* \"#utility.yul\":1755:2189   */\ntag_82:\n    /* \"#utility.yul\":1844:1849   */\n  0x00\n    /* \"#utility.yul\":1869:1935   */\n  tag_129\n    /* \"#utility.yul\":1885:1934   */\n  tag_130\n    /* \"#utility.yul\":1927:1933   */\n  dup5\n    /* \"#utility.yul\":1885:1934   */\n  tag_80\n  jump\t// in\ntag_130:\n    /* \"#utility.yul\":1869:1935   */\n  tag_79\n  jump\t// in\ntag_129:\n    /* \"#utility.yul\":1860:1935   */\n  swap1\n  pop\n    /* \"#utility.yul\":1958:1964   */\n  dup3\n    /* \"#utility.yul\":1951:1956   */\n  dup2\n    /* \"#utility.yul\":1944:1965   */\n  mstore\n    /* \"#utility.yul\":1996:2000   */\n  0x20\n    /* \"#utility.yul\":1989:1994   */\n  dup2\n    /* \"#utility.yul\":1985:2001   */\n  add\n    /* \"#utility.yul\":2034:2037   */\n  dup5\n    /* \"#utility.yul\":2025:2031   */\n  dup5\n    /* \"#utility.yul\":2020:2023   */\n  dup5\n    /* \"#utility.yul\":2016:2032   */\n  add\n    /* \"#utility.yul\":2013:2038   */\n  gt\n    /* \"#utility.yul\":2010:2122   */\n  iszero\n  tag_131\n  jumpi\n    /* \"#utility.yul\":2041:2120   */\n  tag_132\n  tag_75\n  jump\t// in\ntag_132:\n    /* \"#utility.yul\":2010:2122   */\ntag_131:\n    /* \"#utility.yul\":2131:2183   */\n  tag_133\n    /* \"#utility.yul\":2176:2182   */\n  dup5\n    /* \"#utility.yul\":2171:2174   */\n  dup3\n    /* \"#utility.yul\":2166:2169   */\n  dup6\n    /* \"#utility.yul\":2131:2183   */\n  tag_81\n  jump\t// in\ntag_133:\n    /* \"#utility.yul\":1850:2189   */\n  pop\n    /* \"#utility.yul\":1755:2189   */\n  swap4\n  swap3\n  pop\n  pop\n  pop\n  jump\t// out\n    /* \"#utility.yul\":2209:2564   */\ntag_83:\n    /* \"#utility.yul\":2276:2281   */\n  0x00\n    /* \"#utility.yul\":2325:2328   */\n  dup3\n    /* \"#utility.yul\":2318:2322   */\n  0x1f\n    /* \"#utility.yul\":2310:2316   */\n  dup4\n    /* \"#utility.yul\":2306:2323   */\n  add\n    /* \"#utility.yul\":2302:2329   */\n  slt\n    /* \"#utility.yul\":2292:2414   */\n  tag_135\n  jumpi\n    /* \"#utility.yul\":2333:2412   */\n  tag_136\n  tag_74\n  jump\t// in\ntag_136:\n    /* \"#utility.yul\":2292:2414   */\ntag_135:\n    /* \"#utility.yul\":2443:2449   */\n  dup2\n    /* \"#utility.yul\":2437:2450   */\n  mload\n    /* \"#utility.yul\":2468:2558   */\n  tag_137\n    /* \"#utility.yul\":2554:2557   */\n  dup5\n    /* \"#utility.yul\":2546:2552   */\n  dup3\n    /* \"#utility.yul\":2539:2543   */\n  0x20\n    /* \"#utility.yul\":2531:2537   */\n  dup7\n    /* \"#utility.yul\":2527:2544   */\n  add\n    /* \"#utility.yul\":2468:2558   */\n  tag_82\n  jump\t// in\ntag_137:\n    /* \"#utility.yul\":2459:2558   */\n  swap2\n  pop\n    /* \"#utility.yul\":2282:2564   */\n  pop\n    /* \"#utility.yul\":2209:2564   */\n  swap3\n  swap2\n  pop\n  pop\n  jump\t// out\n    /* \"#utility.yul\":2570:2647   */\ntag_84:\n    /* \"#utility.yul\":2607:2614   */\n  0x00\n    /* \"#utility.yul\":2636:2641   */\n  dup2\n    /* \"#utility.yul\":2625:2641   */\n  swap1\n  pop\n    /* \"#utility.yul\":2570:2647   */\n  swap2\n  swap1\n  pop\n  jump\t// out\n    /* \"#utility.yul\":2653:2775   */\ntag_85:\n    /* \"#utility.yul\":2726:2750   */\n  tag_140\n    /* \"#utility.yul\":2744:2749   */\n  dup2\n    /* \"#utility.yul\":2726:2750   */\n  tag_84\n  jump\t// in\ntag_140:\n    /* \"#utility.yul\":2719:2724   */\n  dup2\n    /* \"#utility.yul\":2716:2751   */\n  eq\n    /* \"#utility.yul\":2706:2769   */\n  tag_141\n  jumpi\n    /* \"#utility.yul\":2765:2766   */\n  0x00\n    /* \"#utility.yul\":2762:2763   */\n  0x00\n    /* \"#utility.yul\":2755:2767   */\n  revert\n    /* \"#utility.yul\":2706:2769   */\ntag_141:\n    /* \"#utility.yul\":2653:2775   */\n  pop\n  jump\t// out\n    /* \"#utility.yul\":2781:2924   */\ntag_86:\n    /* \"#utility.yul\":2838:2843   */\n  0x00\n    /* \"#utility.yul\":2869:2875   */\n  dup2\n    /* \"#utility.yul\":2863:2876   */\n  mload\n    /* \"#utility.yul\":2854:2876   */\n  swap1\n  pop\n    /* \"#utility.yul\":2885:2918   */\n  tag_143\n    /* \"#utility.yul\":2912:2917   */\n  dup2\n    /* \"#utility.yul\":2885:2918   */\n  tag_85\n  jump\t// in\ntag_143:\n    /* \"#utility.yul\":2781:2924   */\n  swap3\n  swap2\n  pop\n  pop\n  jump\t// out\n    /* \"#utility.yul\":2930:3610   */\ntag_3:\n    /* \"#utility.yul\":3019:3025   */\n  0x00\n    /* \"#utility.yul\":3027:3033   */\n  0x00\n    /* \"#utility.yul\":3076:3078   */\n  0x40\n    /* \"#utility.yul\":3064:3073   */\n  dup4\n    /* \"#utility.yul\":3055:3062   */\n  dup6\n    /* \"#utility.yul\":3051:3074   */\n  sub\n    /* \"#utility.yul\":3047:3079   */\n  slt\n    /* \"#utility.yul\":3044:3163   */\n  iszero\n  tag_145\n  jumpi\n    /* \"#utility.yul\":3082:3161   */\n  tag_146\n  tag_72\n  jump\t// in\ntag_146:\n    /* \"#utility.yul\":3044:3163   */\ntag_145:\n    /* \"#utility.yul\":3223:3224   */\n  0x00\n    /* \"#utility.yul\":3212:3221   */\n  dup4\n    /* \"#utility.yul\":3208:3225   */\n  add\n    /* \"#utility.yul\":3202:3226   */\n  mload\n    /* \"#utility.yul\":3253:3271   */\n  0xffffffffffffffff\n    /* \"#utility.yul\":3245:3251   */\n  dup2\n    /* \"#utility.yul\":3242:3272   */\n  gt\n    /* \"#utility.yul\":3239:3356   */\n  iszero\n  tag_147\n  jumpi\n    /* \"#utility.yul\":3275:3354   */\n  tag_148\n  tag_73\n  jump\t// in\ntag_148:\n    /* \"#utility.yul\":3239:3356   */\ntag_147:\n    /* \"#utility.yul\":3380:3454   */\n  tag_149\n    /* \"#utility.yul\":3446:3453   */\n  dup6\n    /* \"#utility.yul\":3437:3443   */\n  dup3\n    /* \"#utility.yul\":3426:3435   */\n  dup7\n    /* \"#utility.yul\":3422:3444   */\n  add\n    /* \"#utility.yul\":3380:3454   */\n  tag_83\n  jump\t// in\ntag_149:\n    /* \"#utility.yul\":3370:3454   */\n  swap3\n  pop\n    /* \"#utility.yul\":3173:3464   */\n  pop\n    /* \"#utility.yul\":3503:3505   */\n  0x20\n    /* \"#utility.yul\":3529:3593   */\n  tag_150\n    /* \"#utility.yul\":3585:3592   */\n  dup6\n    /* \"#utility.yul\":3576:3582   */\n  dup3\n    /* \"#utility.yul\":3565:3574   */\n  dup7\n    /* \"#utility.yul\":3561:3583   */\n  add\n    /* \"#utility.yul\":3529:3593   */\n  tag_86\n  jump\t// in\ntag_150:\n    /* \"#utility.yul\":3519:3593   */\n  swap2\n  pop\n    /* \"#utility.yul\":3474:3603   */\n  pop\n    /* \"#utility.yul\":2930:3610   */\n  swap3\n  pop\n  swap3\n  swap1\n  pop\n  jump\t// out\n    /* \"#utility.yul\":3616:3715   */\ntag_87:\n    /* \"#utility.yul\":3668:3674   */\n  0x00\n    /* \"#utility.yul\":3702:3707   */\n  dup2\n    /* \"#utility.yul\":3696:3708   */\n  mload\n    /* \"#utility.yul\":3686:3708   */\n  swap1\n  pop\n    /* \"#utility.yul\":3616:3715   */\n  swap2\n  swap1\n  pop\n  jump\t// out\n    /* \"#utility.yul\":3721:3901   */\ntag_88:\n    /* \"#utility.yul\":3769:3846   */\n  0x4e487b7100000000000000000000000000000000000000000000000000000000\n    /* \"#utility.yul\":3766:3767   */\n  0x00\n    /* \"#utility.yul\":3759:3847   */\n  mstore\n    /* \"#utility.yul\":3866:3870   */\n  0x22\n    /* \"#utility.yul\":3863:3864   */\n  0x04\n    /* \"#utility.yul\":3856:3871   */\n  mstore\n    /* \"#utility.yul\":3890:3894   */\n  0x24\n    /* \"#utility.yul\":3887:3888   */\n  0x00\n    /* \"#utility.yul\":3880:3895   */\n  revert\n    /* \"#utility.yul\":3907:4227   */\ntag_89:\n    /* \"#utility.yul\":3951:3957   */\n  0x00\n    /* \"#utility.yul\":3988:3989   */\n  0x02\n    /* \"#utility.yul\":3982:3986   */\n  dup3\n    /* \"#utility.yul\":3978:3990   */\n  div\n    /* \"#utility.yul\":3968:3990   */\n  swap1\n  pop\n    /* \"#utility.yul\":4035:4036   */\n  0x01\n    /* \"#utility.yul\":4029:4033   */\n  dup3\n    /* \"#utility.yul\":4025:4037   */\n  and\n    /* \"#utility.yul\":4056:4074   */\n  dup1\n    /* \"#utility.yul\":4046:4127   */\n  tag_154\n  jumpi\n    /* \"#utility.yul\":4112:4116   */\n  0x7f\n    /* \"#utility.yul\":4104:4110   */\n  dup3\n    /* \"#utility.yul\":4100:4117   */\n  and\n    /* \"#utility.yul\":4090:4117   */\n  swap2\n  pop\n    /* \"#utility.yul\":4046:4127   */\ntag_154:\n    /* \"#utility.yul\":4174:4176   */\n  0x20\n    /* \"#utility.yul\":4166:4172   */\n  dup3\n    /* \"#utility.yul\":4163:4177   */\n  lt\n    /* \"#utility.yul\":4143:4161   */\n  dup2\n    /* \"#utility.yul\":4140:4178   */\n  sub\n    /* \"#utility.yul\":4137:4221   */\n  tag_155\n  jumpi\n    /* \"#utility.yul\":4193:4211   */\n  tag_156\n  tag_88\n  jump\t// in\ntag_156:\n    /* \"#utility.yul\":4137:4221   */\ntag_155:\n    /* \"#utility.yul\":3958:4227   */\n  pop\n    /* \"#utility.yul\":3907:4227   */\n  swap2\n  swap1\n  pop\n  jump\t// out\n    /* \"#utility.yul\":4233:4374   */\ntag_90:\n    /* \"#utility.yul\":4282:4286   */\n  0x00\n    /* \"#utility.yul\":4305:4308   */\n  dup2\n    /* \"#utility.yul\":4297:4308   */\n  swap1\n  pop\n    /* \"#utility.yul\":4328:4331   */\n  dup2\n    /* \"#utility.yul\":4325:4326   */\n  0x00\n    /* \"#utility.yul\":4318:4332   */\n  mstore\n    /* \"#utility.yul\":4362:4366   */\n  0x20\n    /* \"#utility.yul\":4359:4360   */\n  0x00\n    /* \"#utility.yul\":4349:4367   */\n  keccak256\n    /* \"#utility.yul\":4341:4367   */\n  swap1\n  pop\n    /* \"#utility.yul\":4233:4374   */\n  swap2\n  swap1\n  pop\n  jump\t// out\n    /* \"#utility.yul\":4380:4473   */\ntag_91:\n    /* \"#utility.yul\":4417:4423   */\n  0x00\n    /* \"#utility.yul\":4464:4466   */\n  0x20\n    /* \"#utility.yul\":4459:4461   */\n  0x1f\n    /* \"#utility.yul\":4452:4457   */\n  dup4\n    /* \"#utility.yul\":4448:4462   */\n  add\n    /* \"#utility.yul\":4444:4467   */\n  div\n    /* \"#utility.yul\":4434:4467   */\n  swap1\n  pop\n    /* \"#utility.yul\":4380:4473   */\n  swap2\n  swap1\n  pop\n  jump\t// out\n    /* \"#utility.yul\":4479:4586   */\ntag_92:\n    /* \"#utility.yul\":4523:4531   */\n  0x00\n    /* \"#utility.yul\":4573:4578   */\n  dup3\n    /* \"#utility.yul\":4567:4571   */\n  dup3\n    /* \"#utility.yul\":4563:4579   */\n  shl\n    /* \"#utility.yul\":4542:4579   */\n  swap1\n  pop\n    /* \"#utility.yul\":4479:4586   */\n  swap3\n  swap2\n  pop\n  pop\n  jump\t// out\n    /* \"#utility.yul\":4592:4985   */\ntag_93:\n    /* \"#utility.yul\":4661:4667   */\n  0x00\n    /* \"#utility.yul\":4711:4712   */\n  0x08\n    /* \"#utility.yul\":4699:4709   */\n  dup4\n    /* \"#utility.yul\":4695:4713   */\n  mul\n    /* \"#utility.yul\":4734:4831   */\n  tag_161\n    /* \"#utility.yul\":4764:4830   */\n  0xffffffffffffffffffffffffffffffffffffffffffffffffffffffffffffffff\n    /* \"#utility.yul\":4753:4762   */\n  dup3\n    /* \"#utility.yul\":4734:4831   */\n  tag_92\n  jump\t// in\ntag_161:\n    /* \"#utility.yul\":4852:4891   */\n  tag_162\n    /* \"#utility.yul\":4882:4890   */\n  dup7\n    /* \"#utility.yul\":4871:4880   */\n  dup4\n    /* \"#utility.yul\":4852:4891   */\n  tag_92\n  jump\t// in\ntag_162:\n    /* \"#utility.yul\":4840:4891   */\n  swap6\n  pop\n    /* \"#utility.yul\":4924:4928   */\n  dup1\n    /* \"#utility.yul\":4920:4929   */\n  not\n    /* \"#utility.yul\":4913:4918   */\n  dup5\n    /* \"#utility.yul\":4909:4930   */\n  and\n    /* \"#utility.yul\":4900:4930   */\n  swap4\n  pop\n    /* \"#utility.yul\":4973:4977   */\n  dup1\n    /* \"#utility.yul\":4963:4971   */\n  dup7\n    /* \"#utility.yul\":4959:4978   */\n  and\n    /* \"#utility.yul\":4952:4957   */\n  dup5\n    /* \"#utility.yul\":4949:4979   */\n  or\n    /* \"#utility.yul\":4939:4979   */\n  swap3\n  pop\n    /* \"#utility.yul\":4668:4985   */\n  pop\n  pop\n    /* \"#utility.yul\":4592:4985   */\n  swap4\n  swap3\n  pop\n  pop\n  pop\n  jump\t// out\n    /* \"#utility.yul\":4991:5051   */\ntag_94:\n    /* \"#utility.yul\":5019:5022   */\n  0x00\n    /* \"#utility.yul\":5040:5045   */\n  dup2\n    /* \"#utility.yul\":5033:5045   */\n  swap1\n  pop\n    /* \"#utility.yul\":4991:5051   */\n  swap2\n  swap1\n  pop\n  jump\t// out\n    /* \"#utility.yul\":5057:5199   */\ntag_95:\n    /* \"#utility.yul\":5107:5116   */\n  0x00\n    /* \"#utility.yul\":5140:5193   */\n  tag_165\n    /* \"#utility.yul\":5158:5192   */\n  tag_166\n    /* \"#utility.yul\":5167:5191   */\n  tag_167\n    /* \"#utility.yul\":5185:5190   */\n  dup5\n    /* \"#utility.yul\":5167:5191   */\n  tag_84\n  jump\t// in\ntag_167:\n    /* \"#utility.yul\":5158:5192   */\n  tag_94\n  jump\t// in\ntag_166:\n    /* \"#utility.yul\":5140:5193   */\n  tag_84\n  jump\t// in\ntag_165:\n    /* \"#utility.yul\":5127:5193   */\n  swap1\n  pop\n    /* \"#utility.yul\":5057:5199   */\n  swap2\n  swap1\n  pop\n  jump\t// out\n    /* \"#utility.yul\":5205:5280   */\ntag_96:\n    /* \"#utility.yul\":5248:5251   */\n  0x00\n    /* \"#utility.yul\":5269:5274   */\n  dup2\n    /* \"#utility.yul\":5262:5274   */\n  swap1\n  pop\n    /* \"#utility.yul\":5205:5280   */\n  swap2\n  swap1\n  pop\n  jump\t// out\n    /* \"#utility.yul\":5286:5555   */\ntag_97:\n    /* \"#utility.yul\":5396:5435   */\n  tag_170\n    /* \"#utility.yul\":5427:5434   */\n  dup4\n    /* \"#utility.yul\":5396:5435   */\n  tag_95\n  jump\t// in\ntag_170:\n    /* \"#utility.yul\":5457:5548   */\n  tag_171\n    /* \"#utility.yul\":5506:5547   */\n  tag_172\n    /* \"#utility.yul\":5530:5546   */\n  dup3\n    /* \"#utility.yul\":5506:5547   */\n  tag_96\n  jump\t// in\ntag_172:\n    /* \"#utility.yul\":5498:5504   */\n  dup5\n    /* \"#utility.yul\":5491:5495   */\n  dup5\n    /* \"#utility.yul\":5485:5496   */\n  sload\n    /* \"#utility.yul\":5457:5548   */\n  tag_93\n  jump\t// in\ntag_171:\n    /* \"#utility.yul\":5451:5455   */\n  dup3\n    /* \"#utility.yul\":5444:5549   */\n  sstore\n    /* \"#utility.yul\":5362:5555   */\n  pop\n    /* \"#utility.yul\":5286:5555   */\n  pop\n  pop\n  pop\n  jump\t// out\n    /* \"#utility.yul\":5561:5634   */\ntag_98:\n    /* \"#utility.yul\":5606:5609   */\n  0x00\n    /* \"#utility.yul\":5627:5628   */\n  0x00\n    /* \"#utility.yul\":5620:5628   */\n  swap1\n  pop\n    /* \"#utility.yul\":5561:5634   */\n  swap1\n  jump\t// out\n    /* \"#utility.yul\":5640:5829   */\ntag_99:\n    /* \"#utility.yul\":5717:5749   */\n  tag_175\n  tag_98\n  jump\t// in\ntag_175:\n    /* \"#utility.yul\":5758:5823   */\n  tag_176\n    /* \"#utility.yul\":5816:5822   */\n  dup2\n    /* \"#utility.yul\":5808:5814   */\n  dup5\n    /* \"#utility.yul\":5802:5806   */\n  dup5\n    /* \"#utility.yul\":5758:5823   */\n  tag_97\n  jump\t// in\ntag_176:\n    /* \"#utility.yul\":5693:5829   */\n  pop\n    /* \"#utility.yul\":5640:5829   */\n  pop\n  pop\n  jump\t// out\n    /* \"#utility.yul\":5835:6021   */\ntag_100:\n    /* \"#utility.yul\":5895:6015   */\ntag_178:\n    /* \"#utility.yul\":5912:5915   */\n  dup2\n    /* \"#utility.yul\":5905:5910   */\n  dup2\n    /* \"#utility.yul\":5902:5916   */\n  lt\n    /* \"#utility.yul\":5895:6015   */\n  iszero\n  tag_180\n  jumpi\n    /* \"#utility.yul\":5966:6005   */\n  tag_181\n    /* \"#utility.yul\":6003:6004   */\n  0x00\n    /* \"#utility.yul\":5996:6001   */\n  dup3\n    /* \"#utility.yul\":5966:6005   */\n  tag_99\n  jump\t// in\ntag_181:\n    /* \"#utility.yul\":5939:5940   */\n  0x01\n    /* \"#utility.yul\":5932:5937   */\n  dup2\n    /* \"#utility.yul\":5928:5941   */\n  add\n    /* \"#utility.yul\":5919:5941   */\n  swap1\n  pop\n    /* \"#utility.yul\":5895:6015   */\n  jump(tag_178)\ntag_180:\n    /* \"#utility.yul\":5835:6021   */\n  pop\n  pop\n  jump\t// out\n    /* \"#utility.yul\":6027:6570   */\ntag_101:\n    /* \"#utility.yul\":6128:6130   */\n  0x1f\n    /* \"#utility.yul\":6123:6126   */\n  dup3\n    /* \"#utility.yul\":6120:6131   */\n  gt\n    /* \"#utility.yul\":6117:6563   */\n  iszero\n  tag_183\n  jumpi\n    /* \"#utility.yul\":6162:6200   */\n  tag_184\n    /* \"#utility.yul\":6194:6199   */\n  dup2\n    /* \"#utility.yul\":6162:6200   */\n  tag_90\n  jump\t// in\ntag_184:\n    /* \"#utility.yul\":6246:6275   */\n  tag_185\n    /* \"#utility.yul\":6264:6274   */\n  dup5\n    /* \"#utility.yul\":6246:6275   */\n  tag_91\n  jump\t// in\ntag_185:\n    /* \"#utility.yul\":6236:6244   */\n  dup2\n    /* \"#utility.yul\":6232:6276   */\n  add\n    /* \"#utility.yul\":6429:6431   */\n  0x20\n    /* \"#utility.yul\":6417:6427   */\n  dup6\n    /* \"#utility.yul\":6414:6432   */\n  lt\n    /* \"#utility.yul\":6411:6460   */\n  iszero\n  tag_186\n  jumpi\n    /* \"#utility.yul\":6450:6458   */\n  dup2\n    /* \"#utility.yul\":6435:6458   */\n  swap1\n  pop\n    /* \"#utility.yul\":6411:6460   */\ntag_186:\n    /* \"#utility.yul\":6473:6553   */\n  tag_187\n    /* \"#utility.yul\":6529:6551   */\n  tag_188\n    /* \"#utility.yul\":6547:6550   */\n  dup6\n    /* \"#utility.yul\":6529:6551   */\n  tag_91\n  jump\t// in\ntag_188:\n    /* \"#utility.yul\":6519:6527   */\n  dup4\n    /* \"#utility.yul\":6515:6552   */\n  add\n    /* \"#utility.yul\":6502:6513   */\n  dup3\n    /* \"#utility.yul\":6473:6553   */\n  tag_100\n  jump\t// in\ntag_187:\n    /* \"#utility.yul\":6132:6563   */\n  pop\n  pop\n    /* \"#utility.yul\":6117:6563   */\ntag_183:\n    /* \"#utility.yul\":6027:6570   */\n  pop\n  pop\n  pop\n  jump\t// out\n    /* \"#utility.yul\":6576:6693   */\ntag_102:\n    /* \"#utility.yul\":6630:6638   */\n  0x00\n    /* \"#utility.yul\":6680:6685   */\n  dup3\n    /* \"#utility.yul\":6674:6678   */\n  dup3\n    /* \"#utility.yul\":6670:6686   */\n  shr\n    /* \"#utility.yul\":6649:6686   */\n  swap1\n  pop\n    /* \"#utility.yul\":6576:6693   */\n  swap3\n  swap2\n  pop\n  pop\n  jump\t// out\n    /* \"#utility.yul\":6699:6868   */\ntag_103:\n    /* \"#utility.yul\":6743:6749   */\n  0x00\n    /* \"#utility.yul\":6776:6827   */\n  tag_191\n    /* \"#utility.yul\":6824:6825   */\n  0x00\n    /* \"#utility.yul\":6820:6826   */\n  not\n    /* \"#utility.yul\":6812:6817   */\n  dup5\n    /* \"#utility.yul\":6809:6810   */\n  0x08\n    /* \"#utility.yul\":6805:6818   */\n  mul\n    /* \"#utility.yul\":6776:6827   */\n  tag_102\n  jump\t// in\ntag_191:\n    /* \"#utility.yul\":6772:6828   */\n  not\n    /* \"#utility.yul\":6857:6861   */\n  dup1\n    /* \"#utility.yul\":6851:6855   */\n  dup4\n    /* \"#utility.yul\":6847:6862   */\n  and\n    /* \"#utility.yul\":6837:6862   */\n  swap2\n  pop\n    /* \"#utility.yul\":6750:6868   */\n  pop\n    /* \"#utility.yul\":6699:6868   */\n  swap3\n  swap2\n  pop\n  pop\n  jump\t// out\n    /* \"#utility.yul\":6873:7168   */\ntag_104:\n    /* \"#utility.yul\":6949:6953   */\n  0x00\n    /* \"#utility.yul\":7095:7124   */\n  tag_193\n    /* \"#utility.yul\":7120:7123   */\n  dup4\n    /* \"#utility.yul\":7114:7118   */\n  dup4\n    /* \"#utility.yul\":7095:7124   */\n  tag_103\n  jump\t// in\ntag_193:\n    /* \"#utility.yul\":7087:7124   */\n  swap2\n  pop\n    /* \"#utility.yul\":7157:7160   */\n  dup3\n    /* \"#utility.yul\":7154:7155   */\n  0x02\n    /* \"#utility.yul\":7150:7161   */\n  mul\n    /* \"#utility.yul\":7144:7148   */\n  dup3\n    /* \"#utility.yul\":7141:7162   */\n  or\n    /* \"#utility.yul\":7133:7162   */\n  swap1\n  pop\n    /* \"#utility.yul\":6873:7168   */\n  swap3\n  swap2\n  pop\n  pop\n  jump\t// out\n    /* \"#utility.yul\":7173:8568   */\ntag_8:\n    /* \"#utility.yul\":7290:7327   */\n  tag_195\n    /* \"#utility.yul\":7323:7326   */\n  dup3\n    /* \"#utility.yul\":7290:7327   */\n  tag_87\n  jump\t// in\ntag_195:\n    /* \"#utility.yul\":7392:7410   */\n  0xffffffffffffffff\n    /* \"#utility.yul\":7384:7390   */\n  dup2\n    /* \"#utility.yul\":7381:7411   */\n  gt\n    /* \"#utility.yul\":7378:7434   */\n  iszero\n  tag_196\n  jumpi\n    /* \"#utility.yul\":7414:7432   */\n  tag_197\n  tag_77\n  jump\t// in\ntag_197:\n    /* \"#utility.yul\":7378:7434   */\ntag_196:\n    /* \"#utility.yul\":7458:7496   */\n  tag_198\n    /* \"#utility.yul\":7490:7494   */\n  dup3\n    /* \"#utility.yul\":7484:7495   */\n  sload\n    /* \"#utility.yul\":7458:7496   */\n  tag_89\n  jump\t// in\ntag_198:\n    /* \"#utility.yul\":7543:7610   */\n  tag_199\n    /* \"#utility.yul\":7603:7609   */\n  dup3\n    /* \"#utility.yul\":7595:7601   */\n  dup3\n    /* \"#utility.yul\":7589:7593   */\n  dup6\n    /* \"#utility.yul\":7543:7610   */\n  tag_101\n  jump\t// in\ntag_199:\n    /* \"#utility.yul\":7637:7638   */\n  0x00\n    /* \"#utility.yul\":7661:7665   */\n  0x20\n    /* \"#utility.yul\":7648:7665   */\n  swap1\n  pop\n    /* \"#utility.yul\":7693:7695   */\n  0x1f\n    /* \"#utility.yul\":7685:7691   */\n  dup4\n    /* \"#utility.yul\":7682:7696   */\n  gt\n    /* \"#utility.yul\":7710:7711   */\n  0x01\n    /* \"#utility.yul\":7705:8323   */\n  dup2\n  eq\n  tag_201\n  jumpi\n    /* \"#utility.yul\":8367:8368   */\n  0x00\n    /* \"#utility.yul\":8384:8390   */\n  dup5\n    /* \"#utility.yul\":8381:8458   */\n  iszero\n  tag_202\n  jumpi\n    /* \"#utility.yul\":8433:8442   */\n  dup3\n    /* \"#utility.yul\":8428:8431   */\n  dup8\n    /* \"#utility.yul\":8424:8443   */\n  add\n    /* \"#utility.yul\":8418:8444   */\n  mload\n    /* \"#utility.yul\":8409:8444   */\n  swap1\n  pop\n    /* \"#utility.yul\":8381:8458   */\ntag_202:\n    /* \"#utility.yul\":8484:8551   */\n  tag_203\n    /* \"#utility.yul\":8544:8550   */\n  dup6\n    /* \"#utility.yul\":8537:8542   */\n  dup3\n    /* \"#utility.yul\":8484:8551   */\n  tag_104\n  jump\t// in\ntag_203:\n    /* \"#utility.yul\":8478:8482   */\n  dup7\n    /* \"#utility.yul\":8471:8552   */\n  sstore\n    /* \"#utility.yul\":8340:8562   */\n  pop\n    /* \"#utility.yul\":7675:8562   */\n  jump(tag_200)\n    /* \"#utility.yul\":7705:8323   */\ntag_201:\n    /* \"#utility.yul\":7757:7761   */\n  0x1f\n    /* \"#utility.yul\":7753:7762   */\n  not\n    /* \"#utility.yul\":7745:7751   */\n  dup5\n    /* \"#utility.yul\":7741:7763   */\n  and\n    /* \"#utility.yul\":7791:7828   */\n  tag_204\n    /* \"#utility.yul\":7823:7827   */\n  dup7\n    /* \"#utility.yul\":7791:7828   */\n  tag_90\n  jump\t// in\ntag_204:\n    /* \"#utility.yul\":7850:7851   */\n  0x00\n    /* \"#utility.yul\":7864:8072   */\ntag_205:\n    /* \"#utility.yul\":7878:7885   */\n  dup3\n    /* \"#utility.yul\":7875:7876   */\n  dup2\n    /* \"#utility.yul\":7872:7886   */\n  lt\n    /* \"#utility.yul\":7864:8072   */\n  iszero\n  tag_207\n  jumpi\n    /* \"#utility.yul\":7957:7966   */\n  dup5\n    /* \"#utility.yul\":7952:7955   */\n  dup10\n    /* \"#utility.yul\":7948:7967   */\n  add\n    /* \"#utility.yul\":7942:7968   */\n  mload\n    /* \"#utility.yul\":7934:7940   */\n  dup3\n    /* \"#utility.yul\":7927:7969   */\n  sstore\n    /* \"#utility.yul\":8008:8009   */\n  0x01\n    /* \"#utility.yul\":8000:8006   */\n  dup3\n    /* \"#utility.yul\":7996:8010   */\n  add\n    /* \"#utility.yul\":7986:8010   */\n  swap2\n  pop\n    /* \"#utility.yul\":8055:8057   */\n  0x20\n    /* \"#utility.yul\":8044:8053   */\n  dup6\n    /* \"#utility.yul\":8040:8058   */\n  add\n    /* \"#utility.yul\":8027:8058   */\n  swap5\n  pop\n    /* \"#utility.yul\":7901:7905   */\n  0x20\n    /* \"#utility.yul\":7898:7899   */\n  dup2\n    /* \"#utility.yul\":7894:7906   */\n  add\n    /* \"#utility.yul\":7889:7906   */\n  swap1\n  pop\n    /* \"#utility.yul\":7864:8072   */\n  jump(tag_205)\ntag_207:\n    /* \"#utility.yul\":8100:8106   */\n  dup7\n    /* \"#utility.yul\":8091:8098   */\n  dup4\n    /* \"#utility.yul\":8088:8107   */\n  lt\n    /* \"#utility.yul\":8085:8264   */\n  iszero\n  tag_208\n  jumpi\n    /* \"#utility.yul\":8158:8167   */\n  dup5\n    /* \"#utility.yul\":8153:8156   */\n  dup10\n    /* \"#utility.yul\":8149:8168   */\n  add\n    /* \"#utility.yul\":8143:8169   */\n  mload\n    /* \"#utility.yul\":8201:8249   */\n  tag_209\n    /* \"#utility.yul\":8243:8247   */\n  0x1f\n    /* \"#utility.yul\":8235:8241   */\n  dup10\n    /* \"#utility.yul\":8231:8248   */\n  and\n    /* \"#utility.yul\":8220:8229   */\n  dup3\n    /* \"#utility.yul\":8201:8249   */\n  tag_103\n  jump\t// in\ntag_209:\n    /* \"#utility.yul\":8193:8199   */\n  dup4\n    /* \"#utility.yul\":8186:8250   */\n  sstore\n    /* \"#utility.yul\":8108:8264   */\n  pop\n    /* \"#utility.yul\":8085:8264   */\ntag_208:\n    /* \"#utility.yul\":8310:8311   */\n  0x01\n    /* \"#utility.yul\":8306:8307   */\n  0x02\n    /* \"#utility.yul\":8298:8304   */\n  dup9\n    /* \"#utility.yul\":8294:8308   */\n  mul\n    /* \"#utility.yul\":8290:8312   */\n  add\n    /* \"#utility.yul\":8284:8288   */\n  dup9\n    /* \"#utility.yul\":8277:8313   */\n  sstore\n    /* \"#utility.yul\":7712:8323   */\n  pop\n  pop\n  pop\n    /* \"#utility.yul\":7675:8562   */\ntag_200:\n  pop\n    /* \"#utility.yul\":7265:8568   */\n  pop\n  pop\n  pop\n    /* \"#utility.yul\":7173:8568   */\n  pop\n  pop\n  jump\t// out\n    /* \"#utility.yul\":8574:8722   */\ntag_105:\n    /* \"#utility.yul\":8676:8687   */\n  0x00\n    /* \"#utility.yul\":8713:8716   */\n  dup2\n    /* \"#utility.yul\":8698:8716   */\n  swap1\n  pop\n    /* \"#utility.yul\":8574:8722   */\n  swap3\n  swap2\n  pop\n  pop\n  jump\t// out\n    /* \"#utility.yul\":8728:9118   */\ntag_106:\n    /* \"#utility.yul\":8834:8837   */\n  0x00\n    /* \"#utility.yul\":8862:8901   */\n  tag_212\n    /* \"#utility.yul\":8895:8900   */\n  dup3\n    /* \"#utility.yul\":8862:8901   */\n  tag_87\n  jump\t// in\ntag_212:\n    /* \"#utility.yul\":8917:9006   */\n  tag_213\n    /* \"#utility.yul\":8999:9005   */\n  dup2\n    /* \"#utility.yul\":8994:8997   */\n  dup6\n    /* \"#utility.yul\":8917:9006   */\n  tag_105\n  jump\t// in\ntag_213:\n    /* \"#utility.yul\":8910:9006   */\n  swap4\n  pop\n    /* \"#utility.yul\":9015:9080   */\n  tag_214\n    /* \"#utility.yul\":9073:9079   */\n  dup2\n    /* \"#utility.yul\":9068:9071   */\n  dup6\n    /* \"#utility.yul\":9061:9065   */\n  0x20\n    /* \"#utility.yul\":9054:9059   */\n  dup7\n    /* \"#utility.yul\":9050:9066   */\n  add\n    /* \"#utility.yul\":9015:9080   */\n  tag_81\n  jump\t// in\ntag_214:\n    /* \"#utility.yul\":9105:9111   */\n  dup1\n    /* \"#utility.yul\":9100:9103   */\n  dup5\n    /* \"#utility.yul\":9096:9112   */\n  add\n    /* \"#utility.yul\":9089:9112   */\n  swap2\n  pop\n    /* \"#utility.yul\":8838:9118   */\n  pop\n    /* \"#utility.yul\":8728:9118   */\n  swap3\n  swap2\n  pop\n  pop\n  jump\t// out\n    /* \"#utility.yul\":9124:9399   */\ntag_11:\n    /* \"#utility.yul\":9256:9259   */\n  0x00\n    /* \"#utility.yul\":9278:9373   */\n  tag_216\n    /* \"#utility.yul\":9369:9372   */\n  dup3\n    /* \"#utility.yul\":9360:9366   */\n  dup5\n    /* \"#utility.yul\":9278:9373   */\n  tag_106\n  jump\t// in\ntag_216:\n    /* \"#utility.yul\":9271:9373   */\n  swap2\n  pop\n    /* \"#utility.yul\":9390:9393   */\n  dup2\n    /* \"#utility.yul\":9383:9393   */\n  swap1\n  pop\n    /* \"#utility.yul\":9124:9399   */\n  swap3\n  swap2\n  pop\n  pop\n  jump\t// out\n    /* \"#utility.yul\":9405:9585   */\ntag_16:\n    /* \"#utility.yul\":9453:9530   */\n  0x4e487b7100000000000000000000000000000000000000000000000000000000\n    /* \"#utility.yul\":9450:9451   */\n  0x00\n    /* \"#utility.yul\":9443:9531   */\n  mstore\n    /* \"#utility.yul\":9550:9554   */\n  0x32\n    /* \"#utility.yul\":9547:9548   */\n  0x04\n    /* \"#utility.yul\":9540:9555   */\n  mstore\n    /* \"#utility.yul\":9574:9578   */\n  0x24\n    /* \"#utility.yul\":9571:9572   */\n  0x00\n    /* \"#utility.yul\":9564:9579   */\n  revert\n    /* \"#utility.yul\":9591:9771   */\ntag_107:\n    /* \"#utility.yul\":9639:9716   */\n  0x4e487b7100000000000000000000000000000000000000000000000000000000\n    /* \"#utility.yul\":9636:9637   */\n  0x00\n    /* \"#utility.yul\":9629:9717   */\n  mstore\n    /* \"#utility.yul\":9736:9740   */\n  0x11\n    /* \"#utility.yul\":9733:9734   */\n  0x04\n    /* \"#utility.yul\":9726:9741   */\n  mstore\n    /* \"#utility.yul\":9760:9764   */\n  0x24\n    /* \"#utility.yul\":9757:9758   */\n  0x00\n    /* \"#utility.yul\":9750:9765   */\n  revert\n    /* \"#utility.yul\":9777:10010   */\ntag_70:\n    /* \"#utility.yul\":9816:9819   */\n  0x00\n    /* \"#utility.yul\":9839:9863   */\n  tag_220\n    /* \"#utility.yul\":9857:9862   */\n  dup3\n    /* \"#utility.yul\":9839:9863   */\n  tag_84\n  jump\t// in\ntag_220:\n    /* \"#utility.yul\":9830:9863   */\n  swap2\n  pop\n    /* \"#utility.yul\":9885:9951   */\n  0xffffffffffffffffffffffffffffffffffffffffffffffffffffffffffffffff\n    /* \"#utility.yul\":9878:9883   */\n  dup3\n    /* \"#utility.yul\":9875:9952   */\n  sub\n    /* \"#utility.yul\":9872:9975   */\n  tag_221\n  jumpi\n    /* \"#utility.yul\":9955:9973   */\n  tag_222\n  tag_107\n  jump\t// in\ntag_222:\n    /* \"#utility.yul\":9872:9975   */\ntag_221:\n    /* \"#utility.yul\":10002:10003   */\n  0x01\n    /* \"#utility.yul\":9995:10000   */\n  dup3\n    /* \"#utility.yul\":9991:10004   */\n  add\n    /* \"#utility.yul\":9984:10004   */\n  swap1\n  pop\n    /* \"#utility.yul\":9777:10010   */\n  swap2\n  swap1\n  pop\n  jump\t// out\n    /* \"AirlineManagement.sol\":66:5334  contract AirlineManagement {... */\ntag_60:\n  dataSize(sub_0)\n  dup1\n  dataOffset(sub_0)\n  0x00\n  codecopy\n  0x00\n  return\nstop\n\nsub_0: assembly {\n        /* \"AirlineManagement.sol\":66:5334  contract AirlineManagement {... */\n      mstore(0x40, 0x80)\n      jumpi(tag_1, lt(calldatasize, 0x04))\n      shr(0xe0, calldataload(0x00))\n      dup1\n      0x6031a52f\n      gt\n      tag_15\n      jumpi\n      dup1\n      0x908921fc\n      gt\n      tag_16\n      jumpi\n      dup1\n      0x908921fc\n      eq\n      tag_11\n      jumpi\n      dup1\n      0xad03fe70\n      eq\n      tag_12\n      jumpi\n      dup1\n      0xcb2cc82a\n      eq\n      tag_13\n      jumpi\n      dup1\n      0xea6e358e\n      eq\n      tag_14\n      jumpi\n      jump(tag_1)\n    tag_16:\n      dup1\n      0x6031a52f\n      eq\n      tag_8\n      jumpi\n      dup1\n      0x695dc67e\n      eq\n      tag_9\n      jumpi\n      dup1\n      0x8dd4ba2e\n      eq\n      tag_10\n      jumpi\n      jump(tag_1)\n    tag_15:\n      dup1\n      0x033fab35\n      eq\n      tag_2\n      jumpi\n      dup1\n      0x07819bd6\n      eq\n      tag_3\n      jumpi\n      dup1\n      0x1165e6ab\n      eq\n      tag_4\n      jumpi\n      dup1\n      0x195c1445\n      eq\n      tag_5\n      jumpi\n      dup1\n      0x4afe9f7b\n      eq\n      tag_6\n      jumpi\n      dup1\n      0x5e583e37\n      eq\n      tag_7\n      jumpi\n    tag_1:\n      revert(0x00, 0x00)\n        /* \"AirlineManagement.sol\":848:895  mapping(uint256 => Ticket) public ticketDetails */\n    tag_2:\n      callvalue\n      dup1\n      iszero\n      tag_17\n      jumpi\n      revert(0x00, 0x00)\n    tag_17:\n      pop\n      tag_18\n      0x04\n      dup1\n      calldatasize\n      sub\n      dup2\n      add\n      swap1\n      tag_19\n      swap2\n      swap1\n      tag_20\n      jump\t// in\n    tag_19:\n      tag_21\n      jump\t// in\n    tag_18:\n      mload(0x40)\n      tag_22\n      swap8\n      swap7\n      swap6\n      swap5\n      swap4\n      swap3\n      swap2\n      swap1\n      tag_23\n      jump\t// in\n    tag_22:\n      mload(0x40)\n      dup1\n      swap2\n      sub\n      swap1\n      return\n        /* \"AirlineManagement.sol\":2709:3161  function getPrice (string memory destination, uint month, uint class, bool way) public view returns(uint) {... */\n    tag_3:\n      callvalue\n      dup1\n      iszero\n      tag_24\n      jumpi\n      revert(0x00, 0x00)\n    tag_24:\n      pop\n      tag_25\n      0x04\n      dup1\n      calldatasize\n      sub\n      dup2\n      add\n      swap1\n      tag_26\n      swap2\n      swap1\n      tag_27\n      jump\t// in\n    tag_26:\n      tag_28\n      jump\t// in\n    tag_25:\n      mload(0x40)\n      tag_29\n      swap2\n      swap1\n      tag_30\n      jump\t// in\n    tag_29:\n      mload(0x40)\n      dup1\n      swap2\n      sub\n      swap1\n      return\n        /* \"AirlineManagement.sol\":4268:4360  function isCeo(address user) public view returns(bool) {... */\n    tag_4:\n      callvalue\n      dup1\n      iszero\n      tag_31\n      jumpi\n      revert(0x00, 0x00)\n    tag_31:\n      pop\n      tag_32\n      0x04\n      dup1\n      calldatasize\n      sub\n      dup2\n      add\n      swap1\n      tag_33\n      swap2\n      swap1\n      tag_34\n      jump\t// in\n    tag_33:\n      tag_35\n      jump\t// in\n    tag_32:\n      mload(0x40)\n      tag_36\n      swap2\n      swap1\n      tag_37\n      jump\t// in\n    tag_36:\n      mload(0x40)\n      dup1\n      swap2\n      sub\n      swap1\n      return\n        /* \"AirlineManagement.sol\":429:460  uint[] public destinationPrices */\n    tag_5:\n      callvalue\n      dup1\n      iszero\n      tag_38\n      jumpi\n      revert(0x00, 0x00)\n    tag_38:\n      pop\n      tag_39\n      0x04\n      dup1\n      calldatasize\n      sub\n      dup2\n      add\n      swap1\n      tag_40\n      swap2\n      swap1\n      tag_20\n      jump\t// in\n    tag_40:\n      tag_41\n      jump\t// in\n    tag_39:\n      mload(0x40)\n      tag_42\n      swap2\n      swap1\n      tag_30\n      jump\t// in\n    tag_42:\n      mload(0x40)\n      dup1\n      swap2\n      sub\n      swap1\n      return\n        /* \"AirlineManagement.sol\":2359:2701  function create30Tickets(address owner, string memory destination, uint256 price) public restricted {... */\n    tag_6:\n      callvalue\n      dup1\n      iszero\n      tag_43\n      jumpi\n      revert(0x00, 0x00)\n    tag_43:\n      pop\n      tag_44\n      0x04\n      dup1\n      calldatasize\n      sub\n      dup2\n      add\n      swap1\n      tag_45\n      swap2\n      swap1\n      tag_46\n      jump\t// in\n    tag_45:\n      tag_47\n      jump\t// in\n    tag_44:\n      stop\n        /* \"AirlineManagement.sol\":2004:2307  function createDestination(string memory destination, uint destinationPrice) restricted public {... */\n    tag_7:\n      callvalue\n      dup1\n      iszero\n      tag_48\n      jumpi\n      revert(0x00, 0x00)\n    tag_48:\n      pop\n      tag_49\n      0x04\n      dup1\n      calldatasize\n      sub\n      dup2\n      add\n      swap1\n      tag_50\n      swap2\n      swap1\n      tag_51\n      jump\t// in\n    tag_50:\n      tag_52\n      jump\t// in\n    tag_49:\n      stop\n        /* \"AirlineManagement.sol\":902:929  uint256 public nextTicketId */\n    tag_8:\n      callvalue\n      dup1\n      iszero\n      tag_53\n      jumpi\n      revert(0x00, 0x00)\n    tag_53:\n      pop\n      tag_54\n      tag_55\n      jump\t// in\n    tag_54:\n      mload(0x40)\n      tag_56\n      swap2\n      swap1\n      tag_30\n      jump\t// in\n    tag_56:\n      mload(0x40)\n      dup1\n      swap2\n      sub\n      swap1\n      return\n        /* \"AirlineManagement.sol\":675:705  uint[3] public classMultiplier */\n    tag_9:\n      callvalue\n      dup1\n      iszero\n      tag_57\n      jumpi\n      revert(0x00, 0x00)\n    tag_57:\n      pop\n      tag_58\n      0x04\n      dup1\n      calldatasize\n      sub\n      dup2\n      add\n      swap1\n      tag_59\n      swap2\n      swap1\n      tag_20\n      jump\t// in\n    tag_59:\n      tag_60\n      jump\t// in\n    tag_58:\n      mload(0x40)\n      tag_61\n      swap2\n      swap1\n      tag_30\n      jump\t// in\n    tag_61:\n      mload(0x40)\n      dup1\n      swap2\n      sub\n      swap1\n      return\n        /* \"AirlineManagement.sol\":353:381  string[] public destinations */\n    tag_10:\n      callvalue\n      dup1\n      iszero\n      tag_62\n      jumpi\n      revert(0x00, 0x00)\n    tag_62:\n      pop\n      tag_63\n      0x04\n      dup1\n      calldatasize\n      sub\n      dup2\n      add\n      swap1\n      tag_64\n      swap2\n      swap1\n      tag_20\n      jump\t// in\n    tag_64:\n      tag_65\n      jump\t// in\n    tag_63:\n      mload(0x40)\n      tag_66\n      swap2\n      swap1\n      tag_67\n      jump\t// in\n    tag_66:\n      mload(0x40)\n      dup1\n      swap2\n      sub\n      swap1\n      return\n        /* \"AirlineManagement.sol\":302:320  address public ceo */\n    tag_11:\n      callvalue\n      dup1\n      iszero\n      tag_68\n      jumpi\n      revert(0x00, 0x00)\n    tag_68:\n      pop\n      tag_69\n      tag_70\n      jump\t// in\n    tag_69:\n      mload(0x40)\n      tag_71\n      swap2\n      swap1\n      tag_72\n      jump\t// in\n    tag_71:\n      mload(0x40)\n      dup1\n      swap2\n      sub\n      swap1\n      return\n        /* \"AirlineManagement.sol\":4369:5327  function getBookedFlights(address user) public view returns (Ticket[] memory) {... */\n    tag_12:\n      callvalue\n      dup1\n      iszero\n      tag_73\n      jumpi\n      revert(0x00, 0x00)\n    tag_73:\n      pop\n      tag_74\n      0x04\n      dup1\n      calldatasize\n      sub\n      dup2\n      add\n      swap1\n      tag_75\n      swap2\n      swap1\n      tag_34\n      jump\t// in\n    tag_75:\n      tag_76\n      jump\t// in\n    tag_74:\n      mload(0x40)\n      tag_77\n      swap2\n      swap1\n      tag_78\n      jump\t// in\n    tag_77:\n      mload(0x40)\n      dup1\n      swap2\n      sub\n      swap1\n      return\n        /* \"AirlineManagement.sol\":605:636  uint[12] public monthMultiplier */\n    tag_13:\n      callvalue\n      dup1\n      iszero\n      tag_79\n      jumpi\n      revert(0x00, 0x00)\n    tag_79:\n      pop\n      tag_80\n      0x04\n      dup1\n      calldatasize\n      sub\n      dup2\n      add\n      swap1\n      tag_81\n      swap2\n      swap1\n      tag_20\n      jump\t// in\n    tag_81:\n      tag_82\n      jump\t// in\n    tag_80:\n      mload(0x40)\n      tag_83\n      swap2\n      swap1\n      tag_30\n      jump\t// in\n    tag_83:\n      mload(0x40)\n      dup1\n      swap2\n      sub\n      swap1\n      return\n        /* \"AirlineManagement.sol\":3169:4260  function bookFlight(string memory destination, uint month, uint class, bool way) public payable{... */\n    tag_14:\n      tag_84\n      0x04\n      dup1\n      calldatasize\n      sub\n      dup2\n      add\n      swap1\n      tag_85\n      swap2\n      swap1\n      tag_27\n      jump\t// in\n    tag_85:\n      tag_86\n      jump\t// in\n    tag_84:\n      stop\n        /* \"AirlineManagement.sol\":848:895  mapping(uint256 => Ticket) public ticketDetails */\n    tag_21:\n      mstore(0x20, 0x14)\n      dup1\n      0x00\n      mstore\n      keccak256(0x00, 0x40)\n      0x00\n      swap2\n      pop\n      swap1\n      pop\n      dup1\n      0x00\n      add\n      0x00\n      swap1\n      sload\n      swap1\n      0x0100\n      exp\n      swap1\n      div\n      0xffffffffffffffffffffffffffffffffffffffff\n      and\n      swap1\n      dup1\n      0x01\n      add\n      dup1\n      sload\n      tag_87\n      swap1\n      tag_88\n      jump\t// in\n    tag_87:\n      dup1\n      0x1f\n      add\n      0x20\n      dup1\n      swap2\n      div\n      mul\n      0x20\n      add\n      mload(0x40)\n      swap1\n      dup2\n      add\n      0x40\n      mstore\n      dup1\n      swap3\n      swap2\n      swap1\n      dup2\n      dup2\n      mstore\n      0x20\n      add\n      dup3\n      dup1\n      sload\n      tag_89\n      swap1\n      tag_88\n      jump\t// in\n    tag_89:\n      dup1\n      iszero\n      tag_90\n      jumpi\n      dup1\n      0x1f\n      lt\n      tag_91\n      jumpi\n      0x0100\n      dup1\n      dup4\n      sload\n      div\n      mul\n      dup4\n      mstore\n      swap2\n      0x20\n      add\n      swap2\n      jump(tag_90)\n    tag_91:\n      dup3\n      add\n      swap2\n      swap1\n      0x00\n      mstore\n      keccak256(0x00, 0x20)\n      swap1\n    tag_92:\n      dup2\n      sload\n      dup2\n      mstore\n      swap1\n      0x01\n      add\n      swap1\n      0x20\n      add\n      dup1\n      dup4\n      gt\n      tag_92\n      jumpi\n      dup3\n      swap1\n      sub\n      0x1f\n      and\n      dup3\n      add\n      swap2\n    tag_90:\n      pop\n      pop\n      pop\n      pop\n      pop\n      swap1\n      dup1\n      0x02\n      add\n      sload\n      swap1\n      dup1\n      0x03\n      add\n      sload\n      swap1\n      dup1\n      0x04\n      add\n      dup1\n      sload\n      tag_93\n      swap1\n      tag_88\n      jump\t// in\n    tag_93:\n      dup1\n      0x1f\n      add\n      0x20\n      dup1\n      swap2\n      div\n      mul\n      0x20\n      add\n      mload(0x40)\n      swap1\n      dup2\n      add\n      0x40\n      mstore\n      dup1\n      swap3\n      swap2\n      swap1\n      dup2\n      dup2\n      mstore\n      0x20\n      add\n      dup3\n      dup1\n      sload\n      tag_94\n      swap1\n      tag_88\n      jump\t// in\n    tag_94:\n      dup1\n      iszero\n      tag_95\n      jumpi\n      dup1\n      0x1f\n      lt\n      tag_96\n      jumpi\n      0x0100\n      dup1\n      dup4\n      sload\n      div\n      mul\n      dup4\n      mstore\n      swap2\n      0x20\n      add\n      swap2\n      jump(tag_95)\n    tag_96:\n      dup3\n      add\n      swap2\n      swap1\n      0x00\n      mstore\n      keccak256(0x00, 0x20)\n      swap1\n    tag_97:\n      dup2\n      sload\n      dup2\n      mstore\n      swap1\n      0x01\n      add\n      swap1\n      0x20\n      add\n      dup1\n      dup4\n      gt\n      tag_97\n      jumpi\n      dup3\n      swap1\n      sub\n      0x1f\n      and\n      dup3\n      add\n      swap2\n    tag_95:\n      pop\n      pop\n      pop\n      pop\n      pop\n      swap1\n      dup1\n      0x05\n      add\n      0x00\n      swap1\n      sload\n      swap1\n      0x0100\n      exp\n      swap1\n      div\n      0xff\n      and\n      swap1\n      dup1\n      0x05\n      add\n      0x01\n      swap1\n      sload\n      swap1\n      0x0100\n      exp\n      swap1\n      div\n      0xff\n      and\n      swap1\n      pop\n      dup8\n      jump\t// out\n        /* \"AirlineManagement.sol\":2709:3161  function getPrice (string memory destination, uint month, uint class, bool way) public view returns(uint) {... */\n    tag_28:\n        /* \"AirlineManagement.sol\":2809:2813  uint */\n      0x00\n        /* \"AirlineManagement.sol\":2826:2833  uint cm */\n      0x00\n        /* \"AirlineManagement.sol\":2836:2851  classMultiplier */\n      0x10\n        /* \"AirlineManagement.sol\":2860:2861  1 */\n      0x01\n        /* \"AirlineManagement.sol\":2852:2857  class */\n      dup6\n        /* \"AirlineManagement.sol\":2852:2861  class - 1 */\n      tag_99\n      swap2\n      swap1\n      tag_100\n      jump\t// in\n    tag_99:\n        /* \"AirlineManagement.sol\":2836:2862  classMultiplier[class - 1] */\n      0x03\n      dup2\n      lt\n      tag_101\n      jumpi\n      tag_102\n      tag_103\n      jump\t// in\n    tag_102:\n    tag_101:\n      add\n      sload\n        /* \"AirlineManagement.sol\":2826:2862  uint cm = classMultiplier[class - 1] */\n      swap1\n      pop\n        /* \"AirlineManagement.sol\":2892:2899  uint mm */\n      0x00\n        /* \"AirlineManagement.sol\":2902:2917  monthMultiplier */\n      0x04\n        /* \"AirlineManagement.sol\":2926:2927  1 */\n      0x01\n        /* \"AirlineManagement.sol\":2918:2923  month */\n      dup8\n        /* \"AirlineManagement.sol\":2918:2927  month - 1 */\n      tag_105\n      swap2\n      swap1\n      tag_100\n      jump\t// in\n    tag_105:\n        /* \"AirlineManagement.sol\":2902:2928  monthMultiplier[month - 1] */\n      0x0c\n      dup2\n      lt\n      tag_106\n      jumpi\n      tag_107\n      tag_103\n      jump\t// in\n    tag_107:\n    tag_106:\n      add\n      sload\n        /* \"AirlineManagement.sol\":2892:2928  uint mm = monthMultiplier[month - 1] */\n      swap1\n      pop\n        /* \"AirlineManagement.sol\":2960:2970  uint price */\n      0x00\n        /* \"AirlineManagement.sol\":3015:3017  cm */\n      dup3\n        /* \"AirlineManagement.sol\":2973:2990  destinationPrices */\n      0x02\n        /* \"AirlineManagement.sol\":2991:2998  indexes */\n      0x03\n        /* \"AirlineManagement.sol\":2999:3010  destination */\n      dup11\n        /* \"AirlineManagement.sol\":2991:3011  indexes[destination] */\n      mload(0x40)\n      tag_109\n      swap2\n      swap1\n      tag_110\n      jump\t// in\n    tag_109:\n      swap1\n      dup2\n      mstore\n      0x20\n      add\n      mload(0x40)\n      dup1\n      swap2\n      sub\n      swap1\n      keccak256\n      sload\n        /* \"AirlineManagement.sol\":2973:3012  destinationPrices[indexes[destination]] */\n      dup2\n      sload\n      dup2\n      lt\n      tag_111\n      jumpi\n      tag_112\n      tag_103\n      jump\t// in\n    tag_112:\n    tag_111:\n      swap1\n      0x00\n      mstore\n      keccak256(0x00, 0x20)\n      add\n      sload\n        /* \"AirlineManagement.sol\":2973:3017  destinationPrices[indexes[destination]] * cm */\n      tag_114\n      swap2\n      swap1\n      tag_115\n      jump\t// in\n    tag_114:\n        /* \"AirlineManagement.sol\":2960:3017  uint price = destinationPrices[indexes[destination]] * cm */\n      swap1\n      pop\n        /* \"AirlineManagement.sol\":3033:3036  way */\n      dup5\n        /* \"AirlineManagement.sol\":3030:3061  if(way)... */\n      iszero\n      tag_116\n      jumpi\n        /* \"AirlineManagement.sol\":3060:3061  2 */\n      0x02\n        /* \"AirlineManagement.sol\":3051:3061  price *= 2 */\n      dup2\n      tag_117\n      swap2\n      swap1\n      tag_115\n      jump\t// in\n    tag_117:\n      swap1\n      pop\n        /* \"AirlineManagement.sol\":3030:3061  if(way)... */\n    tag_116:\n        /* \"AirlineManagement.sol\":3082:3084  mm */\n      dup2\n        /* \"AirlineManagement.sol\":3077:3079  10 */\n      0x0a\n        /* \"AirlineManagement.sol\":3077:3084  10 > mm */\n      gt\n        /* \"AirlineManagement.sol\":3074:3116  if(10 > mm)... */\n      iszero\n      tag_118\n      jumpi\n        /* \"AirlineManagement.sol\":3114:3116  mm */\n      dup2\n        /* \"AirlineManagement.sol\":3106:3111  price */\n      dup2\n        /* \"AirlineManagement.sol\":3106:3116  price / mm */\n      tag_119\n      swap2\n      swap1\n      tag_120\n      jump\t// in\n    tag_119:\n        /* \"AirlineManagement.sol\":3099:3116  return price / mm */\n      swap4\n      pop\n      pop\n      pop\n      pop\n      jump(tag_98)\n        /* \"AirlineManagement.sol\":3074:3116  if(10 > mm)... */\n    tag_118:\n        /* \"AirlineManagement.sol\":3148:3150  10 */\n      0x0a\n        /* \"AirlineManagement.sol\":3143:3145  mm */\n      dup3\n        /* \"AirlineManagement.sol\":3143:3150  mm - 10 */\n      tag_121\n      swap2\n      swap1\n      tag_100\n      jump\t// in\n    tag_121:\n        /* \"AirlineManagement.sol\":3134:3139  price */\n      dup2\n        /* \"AirlineManagement.sol\":3134:3151  price * (mm - 10) */\n      tag_122\n      swap2\n      swap1\n      tag_115\n      jump\t// in\n    tag_122:\n        /* \"AirlineManagement.sol\":3127:3151  return price * (mm - 10) */\n      swap4\n      pop\n      pop\n      pop\n      pop\n        /* \"AirlineManagement.sol\":2709:3161  function getPrice (string memory destination, uint month, uint class, bool way) public view returns(uint) {... */\n    tag_98:\n      swap5\n      swap4\n      pop\n      pop\n      pop\n      pop\n      jump\t// out\n        /* \"AirlineManagement.sol\":4268:4360  function isCeo(address user) public view returns(bool) {... */\n    tag_35:\n        /* \"AirlineManagement.sol\":4317:4321  bool */\n      0x00\n        /* \"AirlineManagement.sol\":4349:4352  ceo */\n      0x00\n      0x00\n      swap1\n      sload\n      swap1\n      0x0100\n      exp\n      swap1\n      div\n      0xffffffffffffffffffffffffffffffffffffffff\n      and\n        /* \"AirlineManagement.sol\":4341:4352  user == ceo */\n      0xffffffffffffffffffffffffffffffffffffffff\n      and\n        /* \"AirlineManagement.sol\":4341:4345  user */\n      dup3\n        /* \"AirlineManagement.sol\":4341:4352  user == ceo */\n      0xffffffffffffffffffffffffffffffffffffffff\n      and\n      eq\n        /* \"AirlineManagement.sol\":4334:4352  return user == ceo */\n      swap1\n      pop\n        /* \"AirlineManagement.sol\":4268:4360  function isCeo(address user) public view returns(bool) {... */\n      swap2\n      swap1\n      pop\n      jump\t// out\n        /* \"AirlineManagement.sol\":429:460  uint[] public destinationPrices */\n    tag_41:\n      0x02\n      dup2\n      dup2\n      sload\n      dup2\n      lt\n      tag_124\n      jumpi\n      0x00\n      dup1\n      revert\n    tag_124:\n      swap1\n      0x00\n      mstore\n      keccak256(0x00, 0x20)\n      add\n      0x00\n      swap2\n      pop\n      swap1\n      pop\n      sload\n      dup2\n      jump\t// out\n        /* \"AirlineManagement.sol\":2359:2701  function create30Tickets(address owner, string memory destination, uint256 price) public restricted {... */\n    tag_47:\n        /* \"AirlineManagement.sol\":993:996  ceo */\n      0x00\n      0x00\n      swap1\n      sload\n      swap1\n      0x0100\n      exp\n      swap1\n      div\n      0xffffffffffffffffffffffffffffffffffffffff\n      and\n        /* \"AirlineManagement.sol\":979:996  msg.sender == ceo */\n      0xffffffffffffffffffffffffffffffffffffffff\n      and\n        /* \"AirlineManagement.sol\":979:989  msg.sender */\n      caller\n        /* \"AirlineManagement.sol\":979:996  msg.sender == ceo */\n      0xffffffffffffffffffffffffffffffffffffffff\n      and\n      eq\n        /* \"AirlineManagement.sol\":971:997  require(msg.sender == ceo) */\n      tag_127\n      jumpi\n      revert(0x00, 0x00)\n    tag_127:\n        /* \"AirlineManagement.sol\":2475:2487  uint256 seat */\n      0x00\n        /* \"AirlineManagement.sol\":2490:2491  0 */\n      0x00\n        /* \"AirlineManagement.sol\":2475:2491  uint256 seat = 0 */\n      swap1\n      pop\n        /* \"AirlineManagement.sol\":2470:2694  for (uint256 seat = 0; seat < 30; seat++) {... */\n    tag_129:\n        /* \"AirlineManagement.sol\":2500:2502  30 */\n      0x1e\n        /* \"AirlineManagement.sol\":2493:2497  seat */\n      dup2\n        /* \"AirlineManagement.sol\":2493:2502  seat < 30 */\n      lt\n        /* \"AirlineManagement.sol\":2470:2694  for (uint256 seat = 0; seat < 30; seat++) {... */\n      iszero\n      tag_130\n      jumpi\n        /* \"AirlineManagement.sol\":2527:2542  uint256 tokenId */\n      0x00\n        /* \"AirlineManagement.sol\":2545:2557  nextTicketId */\n      sload(0x15)\n        /* \"AirlineManagement.sol\":2527:2557  uint256 tokenId = nextTicketId */\n      swap1\n      pop\n        /* \"AirlineManagement.sol\":2597:2653  Ticket(owner, destination, price, seat, \"\", false, true) */\n      mload(0x40)\n      dup1\n      0xe0\n      add\n      0x40\n      mstore\n      dup1\n        /* \"AirlineManagement.sol\":2604:2609  owner */\n      dup7\n        /* \"AirlineManagement.sol\":2597:2653  Ticket(owner, destination, price, seat, \"\", false, true) */\n      0xffffffffffffffffffffffffffffffffffffffff\n      and\n      dup2\n      mstore\n      0x20\n      add\n        /* \"AirlineManagement.sol\":2611:2622  destination */\n      dup6\n        /* \"AirlineManagement.sol\":2597:2653  Ticket(owner, destination, price, seat, \"\", false, true) */\n      dup2\n      mstore\n      0x20\n      add\n        /* \"AirlineManagement.sol\":2624:2629  price */\n      dup5\n        /* \"AirlineManagement.sol\":2597:2653  Ticket(owner, destination, price, seat, \"\", false, true) */\n      dup2\n      mstore\n      0x20\n      add\n        /* \"AirlineManagement.sol\":2631:2635  seat */\n      dup4\n        /* \"AirlineManagement.sol\":2597:2653  Ticket(owner, destination, price, seat, \"\", false, true) */\n      dup2\n      mstore\n      0x20\n      add\n      mload(0x40)\n      dup1\n      0x20\n      add\n      0x40\n      mstore\n      dup1\n      0x00\n      dup2\n      mstore\n      pop\n      dup2\n      mstore\n      0x20\n      add\n        /* \"AirlineManagement.sol\":2641:2646  false */\n      0x00\n        /* \"AirlineManagement.sol\":2597:2653  Ticket(owner, destination, price, seat, \"\", false, true) */\n      iszero\n      iszero\n      dup2\n      mstore\n      0x20\n      add\n        /* \"AirlineManagement.sol\":2648:2652  true */\n      0x01\n        /* \"AirlineManagement.sol\":2597:2653  Ticket(owner, destination, price, seat, \"\", false, true) */\n      iszero\n      iszero\n      dup2\n      mstore\n      pop\n        /* \"AirlineManagement.sol\":2572:2585  ticketDetails */\n      0x14\n        /* \"AirlineManagement.sol\":2572:2594  ticketDetails[tokenId] */\n      0x00\n        /* \"AirlineManagement.sol\":2586:2593  tokenId */\n      dup4\n        /* \"AirlineManagement.sol\":2572:2594  ticketDetails[tokenId] */\n      dup2\n      mstore\n      0x20\n      add\n      swap1\n      dup2\n      mstore\n      0x20\n      add\n      0x00\n      keccak256\n        /* \"AirlineManagement.sol\":2572:2653  ticketDetails[tokenId] = Ticket(owner, destination, price, seat, \"\", false, true) */\n      0x00\n      dup3\n      add\n      mload\n      dup2\n      0x00\n      add\n      exp(0x0100, 0x00)\n      dup2\n      sload\n      dup2\n      0xffffffffffffffffffffffffffffffffffffffff\n      mul\n      not\n      and\n      swap1\n      dup4\n      0xffffffffffffffffffffffffffffffffffffffff\n      and\n      mul\n      or\n      swap1\n      sstore\n      pop\n      0x20\n      dup3\n      add\n      mload\n      dup2\n      0x01\n      add\n      swap1\n      dup2\n      tag_132\n      swap2\n      swap1\n      tag_133\n      jump\t// in\n    tag_132:\n      pop\n      0x40\n      dup3\n      add\n      mload\n      dup2\n      0x02\n      add\n      sstore\n      0x60\n      dup3\n      add\n      mload\n      dup2\n      0x03\n      add\n      sstore\n      0x80\n      dup3\n      add\n      mload\n      dup2\n      0x04\n      add\n      swap1\n      dup2\n      tag_134\n      swap2\n      swap1\n      tag_133\n      jump\t// in\n    tag_134:\n      pop\n      0xa0\n      dup3\n      add\n      mload\n      dup2\n      0x05\n      add\n      exp(0x0100, 0x00)\n      dup2\n      sload\n      dup2\n      0xff\n      mul\n      not\n      and\n      swap1\n      dup4\n      iszero\n      iszero\n      mul\n      or\n      swap1\n      sstore\n      pop\n      0xc0\n      dup3\n      add\n      mload\n      dup2\n      0x05\n      add\n      exp(0x0100, 0x01)\n      dup2\n      sload\n      dup2\n      0xff\n      mul\n      not\n      and\n      swap1\n      dup4\n      iszero\n      iszero\n      mul\n      or\n      swap1\n      sstore\n      pop\n      swap1\n      pop\n      pop\n        /* \"AirlineManagement.sol\":2668:2680  nextTicketId */\n      0x15\n      0x00\n        /* \"AirlineManagement.sol\":2668:2682  nextTicketId++ */\n      dup2\n      sload\n      dup1\n      swap3\n      swap2\n      swap1\n      tag_135\n      swap1\n      tag_136\n      jump\t// in\n    tag_135:\n      swap2\n      swap1\n      pop\n      sstore\n      pop\n        /* \"AirlineManagement.sol\":2512:2694  {... */\n      pop\n        /* \"AirlineManagement.sol\":2504:2510  seat++ */\n      dup1\n      dup1\n      0x01\n      add\n      swap2\n      pop\n      pop\n        /* \"AirlineManagement.sol\":2470:2694  for (uint256 seat = 0; seat < 30; seat++) {... */\n      jump(tag_129)\n    tag_130:\n      pop\n        /* \"AirlineManagement.sol\":2359:2701  function create30Tickets(address owner, string memory destination, uint256 price) public restricted {... */\n      pop\n      pop\n      pop\n      jump\t// out\n        /* \"AirlineManagement.sol\":2004:2307  function createDestination(string memory destination, uint destinationPrice) restricted public {... */\n    tag_52:\n        /* \"AirlineManagement.sol\":993:996  ceo */\n      0x00\n      0x00\n      swap1\n      sload\n      swap1\n      0x0100\n      exp\n      swap1\n      div\n      0xffffffffffffffffffffffffffffffffffffffff\n      and\n        /* \"AirlineManagement.sol\":979:996  msg.sender == ceo */\n      0xffffffffffffffffffffffffffffffffffffffff\n      and\n        /* \"AirlineManagement.sol\":979:989  msg.sender */\n      caller\n        /* \"AirlineManagement.sol\":979:996  msg.sender == ceo */\n      0xffffffffffffffffffffffffffffffffffffffff\n      and\n      eq\n        /* \"AirlineManagement.sol\":971:997  require(msg.sender == ceo) */\n      tag_138\n      jumpi\n      revert(0x00, 0x00)\n    tag_138:\n        /* \"AirlineManagement.sol\":2212:2223  destination */\n      dup2\n        /* \"AirlineManagement.sol\":2195:2224  abi.encodePacked(destination) */\n      add(0x20, mload(0x40))\n      tag_140\n      swap2\n      swap1\n      tag_110\n      jump\t// in\n    tag_140:\n      mload(0x40)\n      0x20\n      dup2\n      dup4\n      sub\n      sub\n      dup2\n      mstore\n      swap1\n      0x40\n      mstore\n        /* \"AirlineManagement.sol\":2185:2225  keccak256(abi.encodePacked(destination)) */\n      dup1\n      mload\n      swap1\n      0x20\n      add\n      keccak256\n        /* \"AirlineManagement.sol\":2145:2157  destinations */\n      0x01\n        /* \"AirlineManagement.sol\":2158:2165  indexes */\n      0x03\n        /* \"AirlineManagement.sol\":2166:2177  destination */\n      dup5\n        /* \"AirlineManagement.sol\":2158:2178  indexes[destination] */\n      mload(0x40)\n      tag_141\n      swap2\n      swap1\n      tag_110\n      jump\t// in\n    tag_141:\n      swap1\n      dup2\n      mstore\n      0x20\n      add\n      mload(0x40)\n      dup1\n      swap2\n      sub\n      swap1\n      keccak256\n      sload\n        /* \"AirlineManagement.sol\":2145:2179  destinations[indexes[destination]] */\n      dup2\n      sload\n      dup2\n      lt\n      tag_142\n      jumpi\n      tag_143\n      tag_103\n      jump\t// in\n    tag_143:\n    tag_142:\n      swap1\n      0x00\n      mstore\n      keccak256(0x00, 0x20)\n      add\n        /* \"AirlineManagement.sol\":2128:2180  abi.encodePacked(destinations[indexes[destination]]) */\n      add(0x20, mload(0x40))\n      tag_145\n      swap2\n      swap1\n      tag_146\n      jump\t// in\n    tag_145:\n      mload(0x40)\n      0x20\n      dup2\n      dup4\n      sub\n      sub\n      dup2\n      mstore\n      swap1\n      0x40\n      mstore\n        /* \"AirlineManagement.sol\":2118:2181  keccak256(abi.encodePacked(destinations[indexes[destination]])) */\n      dup1\n      mload\n      swap1\n      0x20\n      add\n      keccak256\n        /* \"AirlineManagement.sol\":2118:2225  keccak256(abi.encodePacked(destinations[indexes[destination]])) != keccak256(abi.encodePacked(destination)) */\n      sub\n        /* \"AirlineManagement.sol\":2110:2226  require(keccak256(abi.encodePacked(destinations[indexes[destination]])) != keccak256(abi.encodePacked(destination))) */\n      tag_147\n      jumpi\n      revert(0x00, 0x00)\n    tag_147:\n        /* \"AirlineManagement.sol\":2237:2295  create30Tickets(msg.sender, destination, destinationPrice) */\n      tag_148\n        /* \"AirlineManagement.sol\":2253:2263  msg.sender */\n      caller\n        /* \"AirlineManagement.sol\":2265:2276  destination */\n      dup4\n        /* \"AirlineManagement.sol\":2278:2294  destinationPrice */\n      dup4\n        /* \"AirlineManagement.sol\":2237:2252  create30Tickets */\n      tag_47\n        /* \"AirlineManagement.sol\":2237:2295  create30Tickets(msg.sender, destination, destinationPrice) */\n      jump\t// in\n    tag_148:\n        /* \"AirlineManagement.sol\":2004:2307  function createDestination(string memory destination, uint destinationPrice) restricted public {... */\n      pop\n      pop\n      jump\t// out\n        /* \"AirlineManagement.sol\":902:929  uint256 public nextTicketId */\n    tag_55:\n      sload(0x15)\n      dup2\n      jump\t// out\n        /* \"AirlineManagement.sol\":675:705  uint[3] public classMultiplier */\n    tag_60:\n      0x10\n      dup2\n      0x03\n      dup2\n      lt\n      tag_149\n      jumpi\n      0x00\n      dup1\n      revert\n    tag_149:\n      add\n      0x00\n      swap2\n      pop\n      swap1\n      pop\n      sload\n      dup2\n      jump\t// out\n        /* \"AirlineManagement.sol\":353:381  string[] public destinations */\n    tag_65:\n      0x01\n      dup2\n      dup2\n      sload\n      dup2\n      lt\n      tag_151\n      jumpi\n      0x00\n      dup1\n      revert\n    tag_151:\n      swap1\n      0x00\n      mstore\n      keccak256(0x00, 0x20)\n      add\n      0x00\n      swap2\n      pop\n      swap1\n      pop\n      dup1\n      sload\n      tag_153\n      swap1\n      tag_88\n      jump\t// in\n    tag_153:\n      dup1\n      0x1f\n      add\n      0x20\n      dup1\n      swap2\n      div\n      mul\n      0x20\n      add\n      mload(0x40)\n      swap1\n      dup2\n      add\n      0x40\n      mstore\n      dup1\n      swap3\n      swap2\n      swap1\n      dup2\n      dup2\n      mstore\n      0x20\n      add\n      dup3\n      dup1\n      sload\n      tag_154\n      swap1\n      tag_88\n      jump\t// in\n    tag_154:\n      dup1\n      iszero\n      tag_155\n      jumpi\n      dup1\n      0x1f\n      lt\n      tag_156\n      jumpi\n      0x0100\n      dup1\n      dup4\n      sload\n      div\n      mul\n      dup4\n      mstore\n      swap2\n      0x20\n      add\n      swap2\n      jump(tag_155)\n    tag_156:\n      dup3\n      add\n      swap2\n      swap1\n      0x00\n      mstore\n      keccak256(0x00, 0x20)\n      swap1\n    tag_157:\n      dup2\n      sload\n      dup2\n      mstore\n      swap1\n      0x01\n      add\n      swap1\n      0x20\n      add\n      dup1\n      dup4\n      gt\n      tag_157\n      jumpi\n      dup3\n      swap1\n      sub\n      0x1f\n      and\n      dup3\n      add\n      swap2\n    tag_155:\n      pop\n      pop\n      pop\n      pop\n      pop\n      dup2\n      jump\t// out\n        /* \"AirlineManagement.sol\":302:320  address public ceo */\n    tag_70:\n      0x00\n      0x00\n      swap1\n      sload\n      swap1\n      0x0100\n      exp\n      swap1\n      div\n      0xffffffffffffffffffffffffffffffffffffffff\n      and\n      dup2\n      jump\t// out\n        /* \"AirlineManagement.sol\":4369:5327  function getBookedFlights(address user) public view returns (Ticket[] memory) {... */\n    tag_76:\n        /* \"AirlineManagement.sol\":4430:4445  Ticket[] memory */\n      0x60\n        /* \"AirlineManagement.sol\":4458:4474  uint bookedCount */\n      0x00\n        /* \"AirlineManagement.sol\":4477:4478  0 */\n      0x00\n        /* \"AirlineManagement.sol\":4458:4478  uint bookedCount = 0 */\n      swap1\n      pop\n        /* \"AirlineManagement.sol\":4584:4596  uint tokenId */\n      0x00\n        /* \"AirlineManagement.sol\":4599:4600  0 */\n      0x00\n        /* \"AirlineManagement.sol\":4584:4600  uint tokenId = 0 */\n      swap1\n      pop\n        /* \"AirlineManagement.sol\":4579:4792  for (uint tokenId = 0; tokenId < nextTicketId; tokenId++) {... */\n    tag_159:\n        /* \"AirlineManagement.sol\":4612:4624  nextTicketId */\n      sload(0x15)\n        /* \"AirlineManagement.sol\":4602:4609  tokenId */\n      dup2\n        /* \"AirlineManagement.sol\":4602:4624  tokenId < nextTicketId */\n      lt\n        /* \"AirlineManagement.sol\":4579:4792  for (uint tokenId = 0; tokenId < nextTicketId; tokenId++) {... */\n      iszero\n      tag_160\n      jumpi\n        /* \"AirlineManagement.sol\":4688:4692  user */\n      dup4\n        /* \"AirlineManagement.sol\":4656:4692  ticketDetails[tokenId].owner == user */\n      0xffffffffffffffffffffffffffffffffffffffff\n      and\n        /* \"AirlineManagement.sol\":4656:4669  ticketDetails */\n      0x14\n        /* \"AirlineManagement.sol\":4656:4678  ticketDetails[tokenId] */\n      0x00\n        /* \"AirlineManagement.sol\":4670:4677  tokenId */\n      dup4\n        /* \"AirlineManagement.sol\":4656:4678  ticketDetails[tokenId] */\n      dup2\n      mstore\n      0x20\n      add\n      swap1\n      dup2\n      mstore\n      0x20\n      add\n      0x00\n      keccak256\n        /* \"AirlineManagement.sol\":4656:4684  ticketDetails[tokenId].owner */\n      0x00\n      add\n      0x00\n      swap1\n      sload\n      swap1\n      0x0100\n      exp\n      swap1\n      div\n      0xffffffffffffffffffffffffffffffffffffffff\n      and\n        /* \"AirlineManagement.sol\":4656:4692  ticketDetails[tokenId].owner == user */\n      0xffffffffffffffffffffffffffffffffffffffff\n      and\n      eq\n        /* \"AirlineManagement.sol\":4656:4731  ticketDetails[tokenId].owner == user && !ticketDetails[tokenId].isAvailable */\n      dup1\n      iszero\n      tag_162\n      jumpi\n      pop\n        /* \"AirlineManagement.sol\":4697:4710  ticketDetails */\n      0x14\n        /* \"AirlineManagement.sol\":4697:4719  ticketDetails[tokenId] */\n      0x00\n        /* \"AirlineManagement.sol\":4711:4718  tokenId */\n      dup3\n        /* \"AirlineManagement.sol\":4697:4719  ticketDetails[tokenId] */\n      dup2\n      mstore\n      0x20\n      add\n      swap1\n      dup2\n      mstore\n      0x20\n      add\n      0x00\n      keccak256\n        /* \"AirlineManagement.sol\":4697:4731  ticketDetails[tokenId].isAvailable */\n      0x05\n      add\n      0x01\n      swap1\n      sload\n      swap1\n      0x0100\n      exp\n      swap1\n      div\n      0xff\n      and\n        /* \"AirlineManagement.sol\":4696:4731  !ticketDetails[tokenId].isAvailable */\n      iszero\n        /* \"AirlineManagement.sol\":4656:4731  ticketDetails[tokenId].owner == user && !ticketDetails[tokenId].isAvailable */\n    tag_162:\n        /* \"AirlineManagement.sol\":4652:4781  if (ticketDetails[tokenId].owner == user && !ticketDetails[tokenId].isAvailable) {... */\n      iszero\n      tag_163\n      jumpi\n        /* \"AirlineManagement.sol\":4752:4765  bookedCount++ */\n      dup2\n      dup1\n      tag_164\n      swap1\n      tag_136\n      jump\t// in\n    tag_164:\n      swap3\n      pop\n      pop\n        /* \"AirlineManagement.sol\":4652:4781  if (ticketDetails[tokenId].owner == user && !ticketDetails[tokenId].isAvailable) {... */\n    tag_163:\n        /* \"AirlineManagement.sol\":4626:4635  tokenId++ */\n      dup1\n      dup1\n      0x01\n      add\n      swap2\n      pop\n      pop\n        /* \"AirlineManagement.sol\":4579:4792  for (uint tokenId = 0; tokenId < nextTicketId; tokenId++) {... */\n      jump(tag_159)\n    tag_160:\n      pop\n        /* \"AirlineManagement.sol\":4866:4895  Ticket[] memory bookedTickets */\n      0x00\n        /* \"AirlineManagement.sol\":4911:4922  bookedCount */\n      dup2\n        /* \"AirlineManagement.sol\":4898:4923  new Ticket[](bookedCount) */\n      0xffffffffffffffff\n      dup2\n      gt\n      iszero\n      tag_165\n      jumpi\n      tag_166\n      tag_167\n      jump\t// in\n    tag_166:\n    tag_165:\n      mload(0x40)\n      swap1\n      dup1\n      dup3\n      mstore\n      dup1\n      0x20\n      mul\n      0x20\n      add\n      dup3\n      add\n      0x40\n      mstore\n      dup1\n      iszero\n      tag_168\n      jumpi\n      dup2\n      0x20\n      add\n    tag_169:\n      tag_170\n      tag_171\n      jump\t// in\n    tag_170:\n      dup2\n      mstore\n      0x20\n      add\n      swap1\n      0x01\n      swap1\n      sub\n      swap1\n      dup2\n      tag_169\n      jumpi\n      swap1\n      pop\n    tag_168:\n      pop\n        /* \"AirlineManagement.sol\":4866:4923  Ticket[] memory bookedTickets = new Ticket[](bookedCount) */\n      swap1\n      pop\n        /* \"AirlineManagement.sol\":4934:4944  uint index */\n      0x00\n        /* \"AirlineManagement.sol\":4947:4948  0 */\n      0x00\n        /* \"AirlineManagement.sol\":4934:4948  uint index = 0 */\n      swap1\n      pop\n        /* \"AirlineManagement.sol\":5021:5033  uint tokenId */\n      0x00\n        /* \"AirlineManagement.sol\":5036:5037  0 */\n      0x00\n        /* \"AirlineManagement.sol\":5021:5037  uint tokenId = 0 */\n      swap1\n      pop\n        /* \"AirlineManagement.sol\":5016:5287  for (uint tokenId = 0; tokenId < nextTicketId; tokenId++) {... */\n    tag_172:\n        /* \"AirlineManagement.sol\":5049:5061  nextTicketId */\n      sload(0x15)\n        /* \"AirlineManagement.sol\":5039:5046  tokenId */\n      dup2\n        /* \"AirlineManagement.sol\":5039:5061  tokenId < nextTicketId */\n      lt\n        /* \"AirlineManagement.sol\":5016:5287  for (uint tokenId = 0; tokenId < nextTicketId; tokenId++) {... */\n      iszero\n      tag_173\n      jumpi\n        /* \"AirlineManagement.sol\":5125:5129  user */\n      dup6\n        /* \"AirlineManagement.sol\":5093:5129  ticketDetails[tokenId].owner == user */\n      0xffffffffffffffffffffffffffffffffffffffff\n      and\n        /* \"AirlineManagement.sol\":5093:5106  ticketDetails */\n      0x14\n        /* \"AirlineManagement.sol\":5093:5115  ticketDetails[tokenId] */\n      0x00\n        /* \"AirlineManagement.sol\":5107:5114  tokenId */\n      dup4\n        /* \"AirlineManagement.sol\":5093:5115  ticketDetails[tokenId] */\n      dup2\n      mstore\n      0x20\n      add\n      swap1\n      dup2\n      mstore\n      0x20\n      add\n      0x00\n      keccak256\n        /* \"AirlineManagement.sol\":5093:5121  ticketDetails[tokenId].owner */\n      0x00\n      add\n      0x00\n      swap1\n      sload\n      swap1\n      0x0100\n      exp\n      swap1\n      div\n      0xffffffffffffffffffffffffffffffffffffffff\n      and\n        /* \"AirlineManagement.sol\":5093:5129  ticketDetails[tokenId].owner == user */\n      0xffffffffffffffffffffffffffffffffffffffff\n      and\n      eq\n        /* \"AirlineManagement.sol\":5093:5168  ticketDetails[tokenId].owner == user && !ticketDetails[tokenId].isAvailable */\n      dup1\n      iszero\n      tag_175\n      jumpi\n      pop\n        /* \"AirlineManagement.sol\":5134:5147  ticketDetails */\n      0x14\n        /* \"AirlineManagement.sol\":5134:5156  ticketDetails[tokenId] */\n      0x00\n        /* \"AirlineManagement.sol\":5148:5155  tokenId */\n      dup3\n        /* \"AirlineManagement.sol\":5134:5156  ticketDetails[tokenId] */\n      dup2\n      mstore\n      0x20\n      add\n      swap1\n      dup2\n      mstore\n      0x20\n      add\n      0x00\n      keccak256\n        /* \"AirlineManagement.sol\":5134:5168  ticketDetails[tokenId].isAvailable */\n      0x05\n      add\n      0x01\n      swap1\n      sload\n      swap1\n      0x0100\n      exp\n      swap1\n      div\n      0xff\n      and\n        /* \"AirlineManagement.sol\":5133:5168  !ticketDetails[tokenId].isAvailable */\n      iszero\n        /* \"AirlineManagement.sol\":5093:5168  ticketDetails[tokenId].owner == user && !ticketDetails[tokenId].isAvailable */\n    tag_175:\n        /* \"AirlineManagement.sol\":5089:5276  if (ticketDetails[tokenId].owner == user && !ticketDetails[tokenId].isAvailable) {... */\n      iszero\n      tag_176\n      jumpi\n        /* \"AirlineManagement.sol\":5212:5225  ticketDetails */\n      0x14\n        /* \"AirlineManagement.sol\":5212:5234  ticketDetails[tokenId] */\n      0x00\n        /* \"AirlineManagement.sol\":5226:5233  tokenId */\n      dup3\n        /* \"AirlineManagement.sol\":5212:5234  ticketDetails[tokenId] */\n      dup2\n      mstore\n      0x20\n      add\n      swap1\n      dup2\n      mstore\n      0x20\n      add\n      0x00\n      keccak256\n        /* \"AirlineManagement.sol\":5189:5234  bookedTickets[index] = ticketDetails[tokenId] */\n      mload(0x40)\n      dup1\n      0xe0\n      add\n      0x40\n      mstore\n      swap1\n      dup2\n      0x00\n      dup3\n      add\n      0x00\n      swap1\n      sload\n      swap1\n      0x0100\n      exp\n      swap1\n      div\n      0xffffffffffffffffffffffffffffffffffffffff\n      and\n      0xffffffffffffffffffffffffffffffffffffffff\n      and\n      0xffffffffffffffffffffffffffffffffffffffff\n      and\n      dup2\n      mstore\n      0x20\n      add\n      0x01\n      dup3\n      add\n      dup1\n      sload\n      tag_177\n      swap1\n      tag_88\n      jump\t// in\n    tag_177:\n      dup1\n      0x1f\n      add\n      0x20\n      dup1\n      swap2\n      div\n      mul\n      0x20\n      add\n      mload(0x40)\n      swap1\n      dup2\n      add\n      0x40\n      mstore\n      dup1\n      swap3\n      swap2\n      swap1\n      dup2\n      dup2\n      mstore\n      0x20\n      add\n      dup3\n      dup1\n      sload\n      tag_178\n      swap1\n      tag_88\n      jump\t// in\n    tag_178:\n      dup1\n      iszero\n      tag_179\n      jumpi\n      dup1\n      0x1f\n      lt\n      tag_180\n      jumpi\n      0x0100\n      dup1\n      dup4\n      sload\n      div\n      mul\n      dup4\n      mstore\n      swap2\n      0x20\n      add\n      swap2\n      jump(tag_179)\n    tag_180:\n      dup3\n      add\n      swap2\n      swap1\n      0x00\n      mstore\n      keccak256(0x00, 0x20)\n      swap1\n    tag_181:\n      dup2\n      sload\n      dup2\n      mstore\n      swap1\n      0x01\n      add\n      swap1\n      0x20\n      add\n      dup1\n      dup4\n      gt\n      tag_181\n      jumpi\n      dup3\n      swap1\n      sub\n      0x1f\n      and\n      dup3\n      add\n      swap2\n    tag_179:\n      pop\n      pop\n      pop\n      pop\n      pop\n      dup2\n      mstore\n      0x20\n      add\n      0x02\n      dup3\n      add\n      sload\n      dup2\n      mstore\n      0x20\n      add\n      0x03\n      dup3\n      add\n      sload\n      dup2\n      mstore\n      0x20\n      add\n      0x04\n      dup3\n      add\n      dup1\n      sload\n      tag_182\n      swap1\n      tag_88\n      jump\t// in\n    tag_182:\n      dup1\n      0x1f\n      add\n      0x20\n      dup1\n      swap2\n      div\n      mul\n      0x20\n      add\n      mload(0x40)\n      swap1\n      dup2\n      add\n      0x40\n      mstore\n      dup1\n      swap3\n      swap2\n      swap1\n      dup2\n      dup2\n      mstore\n      0x20\n      add\n      dup3\n      dup1\n      sload\n      tag_183\n      swap1\n      tag_88\n      jump\t// in\n    tag_183:\n      dup1\n      iszero\n      tag_184\n      jumpi\n      dup1\n      0x1f\n      lt\n      tag_185\n      jumpi\n      0x0100\n      dup1\n      dup4\n      sload\n      div\n      mul\n      dup4\n      mstore\n      swap2\n      0x20\n      add\n      swap2\n      jump(tag_184)\n    tag_185:\n      dup3\n      add\n      swap2\n      swap1\n      0x00\n      mstore\n      keccak256(0x00, 0x20)\n      swap1\n    tag_186:\n      dup2\n      sload\n      dup2\n      mstore\n      swap1\n      0x01\n      add\n      swap1\n      0x20\n      add\n      dup1\n      dup4\n      gt\n      tag_186\n      jumpi\n      dup3\n      swap1\n      sub\n      0x1f\n      and\n      dup3\n      add\n      swap2\n    tag_184:\n      pop\n      pop\n      pop\n      pop\n      pop\n      dup2\n      mstore\n      0x20\n      add\n      0x05\n      dup3\n      add\n      0x00\n      swap1\n      sload\n      swap1\n      0x0100\n      exp\n      swap1\n      div\n      0xff\n      and\n      iszero\n      iszero\n      iszero\n      iszero\n      dup2\n      mstore\n      0x20\n      add\n      0x05\n      dup3\n      add\n      0x01\n      swap1\n      sload\n      swap1\n      0x0100\n      exp\n      swap1\n      div\n      0xff\n      and\n      iszero\n      iszero\n      iszero\n      iszero\n      dup2\n      mstore\n      pop\n      pop\n        /* \"AirlineManagement.sol\":5189:5202  bookedTickets */\n      dup4\n        /* \"AirlineManagement.sol\":5203:5208  index */\n      dup4\n        /* \"AirlineManagement.sol\":5189:5209  bookedTickets[index] */\n      dup2\n      mload\n      dup2\n      lt\n      tag_187\n      jumpi\n      tag_188\n      tag_103\n      jump\t// in\n    tag_188:\n    tag_187:\n      0x20\n      mul\n      0x20\n      add\n      add\n        /* \"AirlineManagement.sol\":5189:5234  bookedTickets[index] = ticketDetails[tokenId] */\n      dup2\n      swap1\n      mstore\n      pop\n        /* \"AirlineManagement.sol\":5253:5260  index++ */\n      dup2\n      dup1\n      tag_189\n      swap1\n      tag_136\n      jump\t// in\n    tag_189:\n      swap3\n      pop\n      pop\n        /* \"AirlineManagement.sol\":5089:5276  if (ticketDetails[tokenId].owner == user && !ticketDetails[tokenId].isAvailable) {... */\n    tag_176:\n        /* \"AirlineManagement.sol\":5063:5072  tokenId++ */\n      dup1\n      dup1\n      0x01\n      add\n      swap2\n      pop\n      pop\n        /* \"AirlineManagement.sol\":5016:5287  for (uint tokenId = 0; tokenId < nextTicketId; tokenId++) {... */\n      jump(tag_172)\n    tag_173:\n      pop\n        /* \"AirlineManagement.sol\":5306:5319  bookedTickets */\n      dup2\n        /* \"AirlineManagement.sol\":5299:5319  return bookedTickets */\n      swap4\n      pop\n      pop\n      pop\n      pop\n        /* \"AirlineManagement.sol\":4369:5327  function getBookedFlights(address user) public view returns (Ticket[] memory) {... */\n      swap2\n      swap1\n      pop\n      jump\t// out\n        /* \"AirlineManagement.sol\":605:636  uint[12] public monthMultiplier */\n    tag_82:\n      0x04\n      dup2\n      0x0c\n      dup2\n      lt\n      tag_190\n      jumpi\n      0x00\n      dup1\n      revert\n    tag_190:\n      add\n      0x00\n      swap2\n      pop\n      swap1\n      pop\n      sload\n      dup2\n      jump\t// out\n        /* \"AirlineManagement.sol\":3169:4260  function bookFlight(string memory destination, uint month, uint class, bool way) public payable{... */\n    tag_86:\n        /* \"AirlineManagement.sol\":3296:3336  getPrice(destination, month, class, way) */\n      tag_193\n        /* \"AirlineManagement.sol\":3305:3316  destination */\n      dup5\n        /* \"AirlineManagement.sol\":3318:3323  month */\n      dup5\n        /* \"AirlineManagement.sol\":3325:3330  class */\n      dup5\n        /* \"AirlineManagement.sol\":3332:3335  way */\n      dup5\n        /* \"AirlineManagement.sol\":3296:3304  getPrice */\n      tag_28\n        /* \"AirlineManagement.sol\":3296:3336  getPrice(destination, month, class, way) */\n      jump\t// in\n    tag_193:\n        /* \"AirlineManagement.sol\":3283:3292  msg.value */\n      callvalue\n        /* \"AirlineManagement.sol\":3283:3336  msg.value == getPrice(destination, month, class, way) */\n      eq\n        /* \"AirlineManagement.sol\":3275:3337  require(msg.value == getPrice(destination, month, class, way)) */\n      tag_194\n      jumpi\n      revert(0x00, 0x00)\n    tag_194:\n        /* \"AirlineManagement.sol\":3408:3419  bool booked */\n      0x00\n        /* \"AirlineManagement.sol\":3422:3427  false */\n      0x00\n        /* \"AirlineManagement.sol\":3408:3427  bool booked = false */\n      swap1\n      pop\n        /* \"AirlineManagement.sol\":3443:3455  uint tokenId */\n      0x00\n        /* \"AirlineManagement.sol\":3458:3459  0 */\n      0x00\n        /* \"AirlineManagement.sol\":3443:3459  uint tokenId = 0 */\n      swap1\n      pop\n        /* \"AirlineManagement.sol\":3438:4129  for (uint tokenId = 0; tokenId < nextTicketId; tokenId++) {... */\n    tag_195:\n        /* \"AirlineManagement.sol\":3471:3483  nextTicketId */\n      sload(0x15)\n        /* \"AirlineManagement.sol\":3461:3468  tokenId */\n      dup2\n        /* \"AirlineManagement.sol\":3461:3483  tokenId < nextTicketId */\n      lt\n        /* \"AirlineManagement.sol\":3438:4129  for (uint tokenId = 0; tokenId < nextTicketId; tokenId++) {... */\n      iszero\n      tag_196\n      jumpi\n        /* \"AirlineManagement.sol\":3511:3532  Ticket storage ticket */\n      0x00\n        /* \"AirlineManagement.sol\":3535:3548  ticketDetails */\n      0x14\n        /* \"AirlineManagement.sol\":3535:3557  ticketDetails[tokenId] */\n      0x00\n        /* \"AirlineManagement.sol\":3549:3556  tokenId */\n      dup4\n        /* \"AirlineManagement.sol\":3535:3557  ticketDetails[tokenId] */\n      dup2\n      mstore\n      0x20\n      add\n      swap1\n      dup2\n      mstore\n      0x20\n      add\n      0x00\n      keccak256\n        /* \"AirlineManagement.sol\":3511:3557  Ticket storage ticket = ticketDetails[tokenId] */\n      swap1\n      pop\n        /* \"AirlineManagement.sol\":3720:3731  destination */\n      dup7\n        /* \"AirlineManagement.sol\":3703:3732  abi.encodePacked(destination) */\n      add(0x20, mload(0x40))\n      tag_198\n      swap2\n      swap1\n      tag_110\n      jump\t// in\n    tag_198:\n      mload(0x40)\n      0x20\n      dup2\n      dup4\n      sub\n      sub\n      dup2\n      mstore\n      swap1\n      0x40\n      mstore\n        /* \"AirlineManagement.sol\":3693:3733  keccak256(abi.encodePacked(destination)) */\n      dup1\n      mload\n      swap1\n      0x20\n      add\n      keccak256\n        /* \"AirlineManagement.sol\":3669:3675  ticket */\n      dup2\n        /* \"AirlineManagement.sol\":3669:3687  ticket.destination */\n      0x01\n      add\n        /* \"AirlineManagement.sol\":3652:3688  abi.encodePacked(ticket.destination) */\n      add(0x20, mload(0x40))\n      tag_199\n      swap2\n      swap1\n      tag_146\n      jump\t// in\n    tag_199:\n      mload(0x40)\n      0x20\n      dup2\n      dup4\n      sub\n      sub\n      dup2\n      mstore\n      swap1\n      0x40\n      mstore\n        /* \"AirlineManagement.sol\":3642:3689  keccak256(abi.encodePacked(ticket.destination)) */\n      dup1\n      mload\n      swap1\n      0x20\n      add\n      keccak256\n        /* \"AirlineManagement.sol\":3642:3733  keccak256(abi.encodePacked(ticket.destination)) == keccak256(abi.encodePacked(destination)) */\n      eq\n        /* \"AirlineManagement.sol\":3642:3755  keccak256(abi.encodePacked(ticket.destination)) == keccak256(abi.encodePacked(destination)) && ticket.isAvailable */\n      dup1\n      iszero\n      tag_200\n      jumpi\n      pop\n        /* \"AirlineManagement.sol\":3737:3743  ticket */\n      dup1\n        /* \"AirlineManagement.sol\":3737:3755  ticket.isAvailable */\n      0x05\n      add\n      0x01\n      swap1\n      sload\n      swap1\n      0x0100\n      exp\n      swap1\n      div\n      0xff\n      and\n        /* \"AirlineManagement.sol\":3642:3755  keccak256(abi.encodePacked(ticket.destination)) == keccak256(abi.encodePacked(destination)) && ticket.isAvailable */\n    tag_200:\n        /* \"AirlineManagement.sol\":3638:4118  if (keccak256(abi.encodePacked(ticket.destination)) == keccak256(abi.encodePacked(destination)) && ticket.isAvailable) {... */\n      iszero\n      tag_201\n      jumpi\n        /* \"AirlineManagement.sol\":3856:3866  msg.sender */\n      caller\n        /* \"AirlineManagement.sol\":3841:3847  ticket */\n      dup2\n        /* \"AirlineManagement.sol\":3841:3853  ticket.owner */\n      0x00\n      add\n      0x00\n        /* \"AirlineManagement.sol\":3841:3866  ticket.owner = msg.sender */\n      0x0100\n      exp\n      dup2\n      sload\n      dup2\n      0xffffffffffffffffffffffffffffffffffffffff\n      mul\n      not\n      and\n      swap1\n      dup4\n      0xffffffffffffffffffffffffffffffffffffffff\n      and\n      mul\n      or\n      swap1\n      sstore\n      pop\n        /* \"AirlineManagement.sol\":3909:3910  1 */\n      0x01\n        /* \"AirlineManagement.sol\":3900:3905  class */\n      dup6\n        /* \"AirlineManagement.sol\":3900:3910  class == 1 */\n      eq\n        /* \"AirlineManagement.sol\":3900:3958  class == 1 ? \"Economy\" : class == 2 ? \"Business\" : \"First\" */\n      tag_202\n      jumpi\n        /* \"AirlineManagement.sol\":3934:3935  2 */\n      0x02\n        /* \"AirlineManagement.sol\":3925:3930  class */\n      dup6\n        /* \"AirlineManagement.sol\":3925:3935  class == 2 */\n      eq\n        /* \"AirlineManagement.sol\":3925:3958  class == 2 ? \"Business\" : \"First\" */\n      tag_203\n      jumpi\n      mload(0x40)\n      dup1\n      0x40\n      add\n      0x40\n      mstore\n      dup1\n      0x05\n      dup2\n      mstore\n      0x20\n      add\n      0x4669727374000000000000000000000000000000000000000000000000000000\n      dup2\n      mstore\n      pop\n      jump(tag_204)\n    tag_203:\n      mload(0x40)\n      dup1\n      0x40\n      add\n      0x40\n      mstore\n      dup1\n      0x08\n      dup2\n      mstore\n      0x20\n      add\n      0x427573696e657373000000000000000000000000000000000000000000000000\n      dup2\n      mstore\n      pop\n    tag_204:\n        /* \"AirlineManagement.sol\":3900:3958  class == 1 ? \"Economy\" : class == 2 ? \"Business\" : \"First\" */\n      jump(tag_205)\n    tag_202:\n      mload(0x40)\n      dup1\n      0x40\n      add\n      0x40\n      mstore\n      dup1\n      0x07\n      dup2\n      mstore\n      0x20\n      add\n      0x45636f6e6f6d7900000000000000000000000000000000000000000000000000\n      dup2\n      mstore\n      pop\n    tag_205:\n        /* \"AirlineManagement.sol\":3885:3891  ticket */\n      dup2\n        /* \"AirlineManagement.sol\":3885:3897  ticket.class */\n      0x04\n      add\n        /* \"AirlineManagement.sol\":3885:3958  ticket.class = class == 1 ? \"Economy\" : class == 2 ? \"Business\" : \"First\" */\n      swap1\n      dup2\n      tag_206\n      swap2\n      swap1\n      tag_133\n      jump\t// in\n    tag_206:\n      pop\n        /* \"AirlineManagement.sol\":3996:3999  way */\n      dup4\n        /* \"AirlineManagement.sol\":3977:3983  ticket */\n      dup2\n        /* \"AirlineManagement.sol\":3977:3993  ticket.roundTrip */\n      0x05\n      add\n      0x00\n        /* \"AirlineManagement.sol\":3977:3999  ticket.roundTrip = way */\n      0x0100\n      exp\n      dup2\n      sload\n      dup2\n      0xff\n      mul\n      not\n      and\n      swap1\n      dup4\n      iszero\n      iszero\n      mul\n      or\n      swap1\n      sstore\n      pop\n        /* \"AirlineManagement.sol\":4039:4044  false */\n      0x00\n        /* \"AirlineManagement.sol\":4018:4024  ticket */\n      dup2\n        /* \"AirlineManagement.sol\":4018:4036  ticket.isAvailable */\n      0x05\n      add\n      0x01\n        /* \"AirlineManagement.sol\":4018:4044  ticket.isAvailable = false */\n      0x0100\n      exp\n      dup2\n      sload\n      dup2\n      0xff\n      mul\n      not\n      and\n      swap1\n      dup4\n      iszero\n      iszero\n      mul\n      or\n      swap1\n      sstore\n      pop\n        /* \"AirlineManagement.sol\":4074:4078  true */\n      0x01\n        /* \"AirlineManagement.sol\":4065:4078  booked = true */\n      swap3\n      pop\n        /* \"AirlineManagement.sol\":4097:4102  break */\n      pop\n      jump(tag_196)\n        /* \"AirlineManagement.sol\":3638:4118  if (keccak256(abi.encodePacked(ticket.destination)) == keccak256(abi.encodePacked(destination)) && ticket.isAvailable) {... */\n    tag_201:\n        /* \"AirlineManagement.sol\":3496:4129  {... */\n      pop\n        /* \"AirlineManagement.sol\":3485:3494  tokenId++ */\n      dup1\n      dup1\n      0x01\n      add\n      swap2\n      pop\n      pop\n        /* \"AirlineManagement.sol\":3438:4129  for (uint tokenId = 0; tokenId < nextTicketId; tokenId++) {... */\n      jump(tag_195)\n    tag_196:\n      pop\n        /* \"AirlineManagement.sol\":4191:4197  booked */\n      dup1\n        /* \"AirlineManagement.sol\":4183:4252  require(booked, \"No available tickets for the specified destination\") */\n      tag_207\n      jumpi\n      mload(0x40)\n      0x08c379a000000000000000000000000000000000000000000000000000000000\n      dup2\n      mstore\n      0x04\n      add\n      tag_208\n      swap1\n      tag_209\n      jump\t// in\n    tag_208:\n      mload(0x40)\n      dup1\n      swap2\n      sub\n      swap1\n      revert\n    tag_207:\n        /* \"AirlineManagement.sol\":3264:4260  {... */\n      pop\n        /* \"AirlineManagement.sol\":3169:4260  function bookFlight(string memory destination, uint month, uint class, bool way) public payable{... */\n      pop\n      pop\n      pop\n      pop\n      jump\t// out\n    tag_171:\n      mload(0x40)\n      dup1\n      0xe0\n      add\n      0x40\n      mstore\n      dup1\n      and(0xffffffffffffffffffffffffffffffffffffffff, 0x00)\n      dup2\n      mstore\n      0x20\n      add\n      0x60\n      dup2\n      mstore\n      0x20\n      add\n      0x00\n      dup2\n      mstore\n      0x20\n      add\n      0x00\n      dup2\n      mstore\n      0x20\n      add\n      0x60\n      dup2\n      mstore\n      0x20\n      add\n      iszero(iszero(0x00))\n      dup2\n      mstore\n      0x20\n      add\n      iszero(iszero(0x00))\n      dup2\n      mstore\n      pop\n      swap1\n      jump\t// out\n        /* \"#utility.yul\":7:82   */\n    tag_210:\n        /* \"#utility.yul\":40:46   */\n      0x00\n        /* \"#utility.yul\":73:75   */\n      0x40\n        /* \"#utility.yul\":67:76   */\n      mload\n        /* \"#utility.yul\":57:76   */\n      swap1\n      pop\n        /* \"#utility.yul\":7:82   */\n      swap1\n      jump\t// out\n        /* \"#utility.yul\":88:205   */\n    tag_211:\n        /* \"#utility.yul\":197:198   */\n      0x00\n        /* \"#utility.yul\":194:195   */\n      0x00\n        /* \"#utility.yul\":187:199   */\n      revert\n        /* \"#utility.yul\":211:328   */\n    tag_212:\n        /* \"#utility.yul\":320:321   */\n      0x00\n        /* \"#utility.yul\":317:318   */\n      0x00\n        /* \"#utility.yul\":310:322   */\n      revert\n        /* \"#utility.yul\":334:411   */\n    tag_213:\n        /* \"#utility.yul\":371:378   */\n      0x00\n        /* \"#utility.yul\":400:405   */\n      dup2\n        /* \"#utility.yul\":389:405   */\n      swap1\n      pop\n        /* \"#utility.yul\":334:411   */\n      swap2\n      swap1\n      pop\n      jump\t// out\n        /* \"#utility.yul\":417:539   */\n    tag_214:\n        /* \"#utility.yul\":490:514   */\n      tag_280\n        /* \"#utility.yul\":508:513   */\n      dup2\n        /* \"#utility.yul\":490:514   */\n      tag_213\n      jump\t// in\n    tag_280:\n        /* \"#utility.yul\":483:488   */\n      dup2\n        /* \"#utility.yul\":480:515   */\n      eq\n        /* \"#utility.yul\":470:533   */\n      tag_281\n      jumpi\n        /* \"#utility.yul\":529:530   */\n      0x00\n        /* \"#utility.yul\":526:527   */\n      0x00\n        /* \"#utility.yul\":519:531   */\n      revert\n        /* \"#utility.yul\":470:533   */\n    tag_281:\n        /* \"#utility.yul\":417:539   */\n      pop\n      jump\t// out\n        /* \"#utility.yul\":545:684   */\n    tag_215:\n        /* \"#utility.yul\":591:596   */\n      0x00\n        /* \"#utility.yul\":629:635   */\n      dup2\n        /* \"#utility.yul\":616:636   */\n      calldataload\n        /* \"#utility.yul\":607:636   */\n      swap1\n      pop\n        /* \"#utility.yul\":645:678   */\n      tag_283\n        /* \"#utility.yul\":672:677   */\n      dup2\n        /* \"#utility.yul\":645:678   */\n      tag_214\n      jump\t// in\n    tag_283:\n        /* \"#utility.yul\":545:684   */\n      swap3\n      swap2\n      pop\n      pop\n      jump\t// out\n        /* \"#utility.yul\":690:1019   */\n    tag_20:\n        /* \"#utility.yul\":749:755   */\n      0x00\n        /* \"#utility.yul\":798:800   */\n      0x20\n        /* \"#utility.yul\":786:795   */\n      dup3\n        /* \"#utility.yul\":777:784   */\n      dup5\n        /* \"#utility.yul\":773:796   */\n      sub\n        /* \"#utility.yul\":769:801   */\n      slt\n        /* \"#utility.yul\":766:885   */\n      iszero\n      tag_285\n      jumpi\n        /* \"#utility.yul\":804:883   */\n      tag_286\n      tag_211\n      jump\t// in\n    tag_286:\n        /* \"#utility.yul\":766:885   */\n    tag_285:\n        /* \"#utility.yul\":924:925   */\n      0x00\n        /* \"#utility.yul\":949:1002   */\n      tag_287\n        /* \"#utility.yul\":994:1001   */\n      dup5\n        /* \"#utility.yul\":985:991   */\n      dup3\n        /* \"#utility.yul\":974:983   */\n      dup6\n        /* \"#utility.yul\":970:992   */\n      add\n        /* \"#utility.yul\":949:1002   */\n      tag_215\n      jump\t// in\n    tag_287:\n        /* \"#utility.yul\":939:1002   */\n      swap2\n      pop\n        /* \"#utility.yul\":895:1012   */\n      pop\n        /* \"#utility.yul\":690:1019   */\n      swap3\n      swap2\n      pop\n      pop\n      jump\t// out\n        /* \"#utility.yul\":1025:1151   */\n    tag_216:\n        /* \"#utility.yul\":1062:1069   */\n      0x00\n        /* \"#utility.yul\":1102:1144   */\n      0xffffffffffffffffffffffffffffffffffffffff\n        /* \"#utility.yul\":1095:1100   */\n      dup3\n        /* \"#utility.yul\":1091:1145   */\n      and\n        /* \"#utility.yul\":1080:1145   */\n      swap1\n      pop\n        /* \"#utility.yul\":1025:1151   */\n      swap2\n      swap1\n      pop\n      jump\t// out\n        /* \"#utility.yul\":1157:1253   */\n    tag_217:\n        /* \"#utility.yul\":1194:1201   */\n      0x00\n        /* \"#utility.yul\":1223:1247   */\n      tag_290\n        /* \"#utility.yul\":1241:1246   */\n      dup3\n        /* \"#utility.yul\":1223:1247   */\n      tag_216\n      jump\t// in\n    tag_290:\n        /* \"#utility.yul\":1212:1247   */\n      swap1\n      pop\n        /* \"#utility.yul\":1157:1253   */\n      swap2\n      swap1\n      pop\n      jump\t// out\n        /* \"#utility.yul\":1259:1377   */\n    tag_218:\n        /* \"#utility.yul\":1346:1370   */\n      tag_292\n        /* \"#utility.yul\":1364:1369   */\n      dup2\n        /* \"#utility.yul\":1346:1370   */\n      tag_217\n      jump\t// in\n    tag_292:\n        /* \"#utility.yul\":1341:1344   */\n      dup3\n        /* \"#utility.yul\":1334:1371   */\n      mstore\n        /* \"#utility.yul\":1259:1377   */\n      pop\n      pop\n      jump\t// out\n        /* \"#utility.yul\":1383:1482   */\n    tag_219:\n        /* \"#utility.yul\":1435:1441   */\n      0x00\n        /* \"#utility.yul\":1469:1474   */\n      dup2\n        /* \"#utility.yul\":1463:1475   */\n      mload\n        /* \"#utility.yul\":1453:1475   */\n      swap1\n      pop\n        /* \"#utility.yul\":1383:1482   */\n      swap2\n      swap1\n      pop\n      jump\t// out\n        /* \"#utility.yul\":1488:1657   */\n    tag_220:\n        /* \"#utility.yul\":1572:1583   */\n      0x00\n        /* \"#utility.yul\":1606:1612   */\n      dup3\n        /* \"#utility.yul\":1601:1604   */\n      dup3\n        /* \"#utility.yul\":1594:1613   */\n      mstore\n        /* \"#utility.yul\":1646:1650   */\n      0x20\n        /* \"#utility.yul\":1641:1644   */\n      dup3\n        /* \"#utility.yul\":1637:1651   */\n      add\n        /* \"#utility.yul\":1622:1651   */\n      swap1\n      pop\n        /* \"#utility.yul\":1488:1657   */\n      swap3\n      swap2\n      pop\n      pop\n      jump\t// out\n        /* \"#utility.yul\":1663:1802   */\n    tag_221:\n        /* \"#utility.yul\":1752:1758   */\n      dup3\n        /* \"#utility.yul\":1747:1750   */\n      dup2\n        /* \"#utility.yul\":1742:1745   */\n      dup4\n        /* \"#utility.yul\":1736:1759   */\n      mcopy\n        /* \"#utility.yul\":1793:1794   */\n      0x00\n        /* \"#utility.yul\":1784:1790   */\n      dup4\n        /* \"#utility.yul\":1779:1782   */\n      dup4\n        /* \"#utility.yul\":1775:1791   */\n      add\n        /* \"#utility.yul\":1768:1795   */\n      mstore\n        /* \"#utility.yul\":1663:1802   */\n      pop\n      pop\n      pop\n      jump\t// out\n        /* \"#utility.yul\":1808:1910   */\n    tag_222:\n        /* \"#utility.yul\":1849:1855   */\n      0x00\n        /* \"#utility.yul\":1900:1902   */\n      0x1f\n        /* \"#utility.yul\":1896:1903   */\n      not\n        /* \"#utility.yul\":1891:1893   */\n      0x1f\n        /* \"#utility.yul\":1884:1889   */\n      dup4\n        /* \"#utility.yul\":1880:1894   */\n      add\n        /* \"#utility.yul\":1876:1904   */\n      and\n        /* \"#utility.yul\":1866:1904   */\n      swap1\n      pop\n        /* \"#utility.yul\":1808:1910   */\n      swap2\n      swap1\n      pop\n      jump\t// out\n        /* \"#utility.yul\":1916:2293   */\n    tag_223:\n        /* \"#utility.yul\":2004:2007   */\n      0x00\n        /* \"#utility.yul\":2032:2071   */\n      tag_298\n        /* \"#utility.yul\":2065:2070   */\n      dup3\n        /* \"#utility.yul\":2032:2071   */\n      tag_219\n      jump\t// in\n    tag_298:\n        /* \"#utility.yul\":2087:2158   */\n      tag_299\n        /* \"#utility.yul\":2151:2157   */\n      dup2\n        /* \"#utility.yul\":2146:2149   */\n      dup6\n        /* \"#utility.yul\":2087:2158   */\n      tag_220\n      jump\t// in\n    tag_299:\n        /* \"#utility.yul\":2080:2158   */\n      swap4\n      pop\n        /* \"#utility.yul\":2167:2232   */\n      tag_300\n        /* \"#utility.yul\":2225:2231   */\n      dup2\n        /* \"#utility.yul\":2220:2223   */\n      dup6\n        /* \"#utility.yul\":2213:2217   */\n      0x20\n        /* \"#utility.yul\":2206:2211   */\n      dup7\n        /* \"#utility.yul\":2202:2218   */\n      add\n        /* \"#utility.yul\":2167:2232   */\n      tag_221\n      jump\t// in\n    tag_300:\n        /* \"#utility.yul\":2257:2286   */\n      tag_301\n        /* \"#utility.yul\":2279:2285   */\n      dup2\n        /* \"#utility.yul\":2257:2286   */\n      tag_222\n      jump\t// in\n    tag_301:\n        /* \"#utility.yul\":2252:2255   */\n      dup5\n        /* \"#utility.yul\":2248:2287   */\n      add\n        /* \"#utility.yul\":2241:2287   */\n      swap2\n      pop\n        /* \"#utility.yul\":2008:2293   */\n      pop\n        /* \"#utility.yul\":1916:2293   */\n      swap3\n      swap2\n      pop\n      pop\n      jump\t// out\n        /* \"#utility.yul\":2299:2417   */\n    tag_224:\n        /* \"#utility.yul\":2386:2410   */\n      tag_303\n        /* \"#utility.yul\":2404:2409   */\n      dup2\n        /* \"#utility.yul\":2386:2410   */\n      tag_213\n      jump\t// in\n    tag_303:\n        /* \"#utility.yul\":2381:2384   */\n      dup3\n        /* \"#utility.yul\":2374:2411   */\n      mstore\n        /* \"#utility.yul\":2299:2417   */\n      pop\n      pop\n      jump\t// out\n        /* \"#utility.yul\":2423:2513   */\n    tag_225:\n        /* \"#utility.yul\":2457:2464   */\n      0x00\n        /* \"#utility.yul\":2500:2505   */\n      dup2\n        /* \"#utility.yul\":2493:2506   */\n      iszero\n        /* \"#utility.yul\":2486:2507   */\n      iszero\n        /* \"#utility.yul\":2475:2507   */\n      swap1\n      pop\n        /* \"#utility.yul\":2423:2513   */\n      swap2\n      swap1\n      pop\n      jump\t// out\n        /* \"#utility.yul\":2519:2628   */\n    tag_226:\n        /* \"#utility.yul\":2600:2621   */\n      tag_306\n        /* \"#utility.yul\":2615:2620   */\n      dup2\n        /* \"#utility.yul\":2600:2621   */\n      tag_225\n      jump\t// in\n    tag_306:\n        /* \"#utility.yul\":2595:2598   */\n      dup3\n        /* \"#utility.yul\":2588:2622   */\n      mstore\n        /* \"#utility.yul\":2519:2628   */\n      pop\n      pop\n      jump\t// out\n        /* \"#utility.yul\":2634:3678   */\n    tag_23:\n        /* \"#utility.yul\":2923:2927   */\n      0x00\n        /* \"#utility.yul\":2961:2964   */\n      0xe0\n        /* \"#utility.yul\":2950:2959   */\n      dup3\n        /* \"#utility.yul\":2946:2965   */\n      add\n        /* \"#utility.yul\":2938:2965   */\n      swap1\n      pop\n        /* \"#utility.yul\":2975:3046   */\n      tag_308\n        /* \"#utility.yul\":3043:3044   */\n      0x00\n        /* \"#utility.yul\":3032:3041   */\n      dup4\n        /* \"#utility.yul\":3028:3045   */\n      add\n        /* \"#utility.yul\":3019:3025   */\n      dup11\n        /* \"#utility.yul\":2975:3046   */\n      tag_218\n      jump\t// in\n    tag_308:\n        /* \"#utility.yul\":3093:3102   */\n      dup2\n        /* \"#utility.yul\":3087:3091   */\n      dup2\n        /* \"#utility.yul\":3083:3103   */\n      sub\n        /* \"#utility.yul\":3078:3080   */\n      0x20\n        /* \"#utility.yul\":3067:3076   */\n      dup4\n        /* \"#utility.yul\":3063:3081   */\n      add\n        /* \"#utility.yul\":3056:3104   */\n      mstore\n        /* \"#utility.yul\":3121:3199   */\n      tag_309\n        /* \"#utility.yul\":3194:3198   */\n      dup2\n        /* \"#utility.yul\":3185:3191   */\n      dup10\n        /* \"#utility.yul\":3121:3199   */\n      tag_223\n      jump\t// in\n    tag_309:\n        /* \"#utility.yul\":3113:3199   */\n      swap1\n      pop\n        /* \"#utility.yul\":3209:3281   */\n      tag_310\n        /* \"#utility.yul\":3277:3279   */\n      0x40\n        /* \"#utility.yul\":3266:3275   */\n      dup4\n        /* \"#utility.yul\":3262:3280   */\n      add\n        /* \"#utility.yul\":3253:3259   */\n      dup9\n        /* \"#utility.yul\":3209:3281   */\n      tag_224\n      jump\t// in\n    tag_310:\n        /* \"#utility.yul\":3291:3363   */\n      tag_311\n        /* \"#utility.yul\":3359:3361   */\n      0x60\n        /* \"#utility.yul\":3348:3357   */\n      dup4\n        /* \"#utility.yul\":3344:3362   */\n      add\n        /* \"#utility.yul\":3335:3341   */\n      dup8\n        /* \"#utility.yul\":3291:3363   */\n      tag_224\n      jump\t// in\n    tag_311:\n        /* \"#utility.yul\":3411:3420   */\n      dup2\n        /* \"#utility.yul\":3405:3409   */\n      dup2\n        /* \"#utility.yul\":3401:3421   */\n      sub\n        /* \"#utility.yul\":3395:3398   */\n      0x80\n        /* \"#utility.yul\":3384:3393   */\n      dup4\n        /* \"#utility.yul\":3380:3399   */\n      add\n        /* \"#utility.yul\":3373:3422   */\n      mstore\n        /* \"#utility.yul\":3439:3517   */\n      tag_312\n        /* \"#utility.yul\":3512:3516   */\n      dup2\n        /* \"#utility.yul\":3503:3509   */\n      dup7\n        /* \"#utility.yul\":3439:3517   */\n      tag_223\n      jump\t// in\n    tag_312:\n        /* \"#utility.yul\":3431:3517   */\n      swap1\n      pop\n        /* \"#utility.yul\":3527:3594   */\n      tag_313\n        /* \"#utility.yul\":3589:3592   */\n      0xa0\n        /* \"#utility.yul\":3578:3587   */\n      dup4\n        /* \"#utility.yul\":3574:3593   */\n      add\n        /* \"#utility.yul\":3565:3571   */\n      dup6\n        /* \"#utility.yul\":3527:3594   */\n      tag_226\n      jump\t// in\n    tag_313:\n        /* \"#utility.yul\":3604:3671   */\n      tag_314\n        /* \"#utility.yul\":3666:3669   */\n      0xc0\n        /* \"#utility.yul\":3655:3664   */\n      dup4\n        /* \"#utility.yul\":3651:3670   */\n      add\n        /* \"#utility.yul\":3642:3648   */\n      dup5\n        /* \"#utility.yul\":3604:3671   */\n      tag_226\n      jump\t// in\n    tag_314:\n        /* \"#utility.yul\":2634:3678   */\n      swap9\n      swap8\n      pop\n      pop\n      pop\n      pop\n      pop\n      pop\n      pop\n      pop\n      jump\t// out\n        /* \"#utility.yul\":3684:3801   */\n    tag_227:\n        /* \"#utility.yul\":3793:3794   */\n      0x00\n        /* \"#utility.yul\":3790:3791   */\n      0x00\n        /* \"#utility.yul\":3783:3795   */\n      revert\n        /* \"#utility.yul\":3807:3924   */\n    tag_228:\n        /* \"#utility.yul\":3916:3917   */\n      0x00\n        /* \"#utility.yul\":3913:3914   */\n      0x00\n        /* \"#utility.yul\":3906:3918   */\n      revert\n        /* \"#utility.yul\":3930:4110   */\n    tag_167:\n        /* \"#utility.yul\":3978:4055   */\n      0x4e487b7100000000000000000000000000000000000000000000000000000000\n        /* \"#utility.yul\":3975:3976   */\n      0x00\n        /* \"#utility.yul\":3968:4056   */\n      mstore\n        /* \"#utility.yul\":4075:4079   */\n      0x41\n        /* \"#utility.yul\":4072:4073   */\n      0x04\n        /* \"#utility.yul\":4065:4080   */\n      mstore\n        /* \"#utility.yul\":4099:4103   */\n      0x24\n        /* \"#utility.yul\":4096:4097   */\n      0x00\n        /* \"#utility.yul\":4089:4104   */\n      revert\n        /* \"#utility.yul\":4116:4397   */\n    tag_229:\n        /* \"#utility.yul\":4199:4226   */\n      tag_319\n        /* \"#utility.yul\":4221:4225   */\n      dup3\n        /* \"#utility.yul\":4199:4226   */\n      tag_222\n      jump\t// in\n    tag_319:\n        /* \"#utility.yul\":4191:4197   */\n      dup2\n        /* \"#utility.yul\":4187:4227   */\n      add\n        /* \"#utility.yul\":4329:4335   */\n      dup2\n        /* \"#utility.yul\":4317:4327   */\n      dup2\n        /* \"#utility.yul\":4314:4336   */\n      lt\n        /* \"#utility.yul\":4293:4311   */\n      0xffffffffffffffff\n        /* \"#utility.yul\":4281:4291   */\n      dup3\n        /* \"#utility.yul\":4278:4312   */\n      gt\n        /* \"#utility.yul\":4275:4337   */\n      or\n        /* \"#utility.yul\":4272:4360   */\n      iszero\n      tag_320\n      jumpi\n        /* \"#utility.yul\":4340:4358   */\n      tag_321\n      tag_167\n      jump\t// in\n    tag_321:\n        /* \"#utility.yul\":4272:4360   */\n    tag_320:\n        /* \"#utility.yul\":4380:4390   */\n      dup1\n        /* \"#utility.yul\":4376:4378   */\n      0x40\n        /* \"#utility.yul\":4369:4391   */\n      mstore\n        /* \"#utility.yul\":4159:4397   */\n      pop\n        /* \"#utility.yul\":4116:4397   */\n      pop\n      pop\n      jump\t// out\n        /* \"#utility.yul\":4403:4532   */\n    tag_230:\n        /* \"#utility.yul\":4437:4443   */\n      0x00\n        /* \"#utility.yul\":4464:4484   */\n      tag_323\n      tag_210\n      jump\t// in\n    tag_323:\n        /* \"#utility.yul\":4454:4484   */\n      swap1\n      pop\n        /* \"#utility.yul\":4493:4526   */\n      tag_324\n        /* \"#utility.yul\":4521:4525   */\n      dup3\n        /* \"#utility.yul\":4513:4519   */\n      dup3\n        /* \"#utility.yul\":4493:4526   */\n      tag_229\n      jump\t// in\n    tag_324:\n        /* \"#utility.yul\":4403:4532   */\n      swap2\n      swap1\n      pop\n      jump\t// out\n        /* \"#utility.yul\":4538:4846   */\n    tag_231:\n        /* \"#utility.yul\":4600:4604   */\n      0x00\n        /* \"#utility.yul\":4690:4708   */\n      0xffffffffffffffff\n        /* \"#utility.yul\":4682:4688   */\n      dup3\n        /* \"#utility.yul\":4679:4709   */\n      gt\n        /* \"#utility.yul\":4676:4732   */\n      iszero\n      tag_326\n      jumpi\n        /* \"#utility.yul\":4712:4730   */\n      tag_327\n      tag_167\n      jump\t// in\n    tag_327:\n        /* \"#utility.yul\":4676:4732   */\n    tag_326:\n        /* \"#utility.yul\":4750:4779   */\n      tag_328\n        /* \"#utility.yul\":4772:4778   */\n      dup3\n        /* \"#utility.yul\":4750:4779   */\n      tag_222\n      jump\t// in\n    tag_328:\n        /* \"#utility.yul\":4742:4779   */\n      swap1\n      pop\n        /* \"#utility.yul\":4834:4838   */\n      0x20\n        /* \"#utility.yul\":4828:4832   */\n      dup2\n        /* \"#utility.yul\":4824:4839   */\n      add\n        /* \"#utility.yul\":4816:4839   */\n      swap1\n      pop\n        /* \"#utility.yul\":4538:4846   */\n      swap2\n      swap1\n      pop\n      jump\t// out\n        /* \"#utility.yul\":4852:5000   */\n    tag_232:\n        /* \"#utility.yul\":4950:4956   */\n      dup3\n        /* \"#utility.yul\":4945:4948   */\n      dup2\n        /* \"#utility.yul\":4940:4943   */\n      dup4\n        /* \"#utility.yul\":4927:4957   */\n      calldatacopy\n        /* \"#utility.yul\":4991:4992   */\n      0x00\n        /* \"#utility.yul\":4982:4988   */\n      dup4\n        /* \"#utility.yul\":4977:4980   */\n      dup4\n        /* \"#utility.yul\":4973:4989   */\n      add\n        /* \"#utility.yul\":4966:4993   */\n      mstore\n        /* \"#utility.yul\":4852:5000   */\n      pop\n      pop\n      pop\n      jump\t// out\n        /* \"#utility.yul\":5006:5431   */\n    tag_233:\n        /* \"#utility.yul\":5084:5089   */\n      0x00\n        /* \"#utility.yul\":5109:5175   */\n      tag_331\n        /* \"#utility.yul\":5125:5174   */\n      tag_332\n        /* \"#utility.yul\":5167:5173   */\n      dup5\n        /* \"#utility.yul\":5125:5174   */\n      tag_231\n      jump\t// in\n    tag_332:\n        /* \"#utility.yul\":5109:5175   */\n      tag_230\n      jump\t// in\n    tag_331:\n        /* \"#utility.yul\":5100:5175   */\n      swap1\n      pop\n        /* \"#utility.yul\":5198:5204   */\n      dup3\n        /* \"#utility.yul\":5191:5196   */\n      dup2\n        /* \"#utility.yul\":5184:5205   */\n      mstore\n        /* \"#utility.yul\":5236:5240   */\n      0x20\n        /* \"#utility.yul\":5229:5234   */\n      dup2\n        /* \"#utility.yul\":5225:5241   */\n      add\n        /* \"#utility.yul\":5274:5277   */\n      dup5\n        /* \"#utility.yul\":5265:5271   */\n      dup5\n        /* \"#utility.yul\":5260:5263   */\n      dup5\n        /* \"#utility.yul\":5256:5272   */\n      add\n        /* \"#utility.yul\":5253:5278   */\n      gt\n        /* \"#utility.yul\":5250:5362   */\n      iszero\n      tag_333\n      jumpi\n        /* \"#utility.yul\":5281:5360   */\n      tag_334\n      tag_228\n      jump\t// in\n    tag_334:\n        /* \"#utility.yul\":5250:5362   */\n    tag_333:\n        /* \"#utility.yul\":5371:5425   */\n      tag_335\n        /* \"#utility.yul\":5418:5424   */\n      dup5\n        /* \"#utility.yul\":5413:5416   */\n      dup3\n        /* \"#utility.yul\":5408:5411   */\n      dup6\n        /* \"#utility.yul\":5371:5425   */\n      tag_232\n      jump\t// in\n    tag_335:\n        /* \"#utility.yul\":5090:5431   */\n      pop\n        /* \"#utility.yul\":5006:5431   */\n      swap4\n      swap3\n      pop\n      pop\n      pop\n      jump\t// out\n        /* \"#utility.yul\":5451:5791   */\n    tag_234:\n        /* \"#utility.yul\":5507:5512   */\n      0x00\n        /* \"#utility.yul\":5556:5559   */\n      dup3\n        /* \"#utility.yul\":5549:5553   */\n      0x1f\n        /* \"#utility.yul\":5541:5547   */\n      dup4\n        /* \"#utility.yul\":5537:5554   */\n      add\n        /* \"#utility.yul\":5533:5560   */\n      slt\n        /* \"#utility.yul\":5523:5645   */\n      tag_337\n      jumpi\n        /* \"#utility.yul\":5564:5643   */\n      tag_338\n      tag_227\n      jump\t// in\n    tag_338:\n        /* \"#utility.yul\":5523:5645   */\n    tag_337:\n        /* \"#utility.yul\":5681:5687   */\n      dup2\n        /* \"#utility.yul\":5668:5688   */\n      calldataload\n        /* \"#utility.yul\":5706:5785   */\n      tag_339\n        /* \"#utility.yul\":5781:5784   */\n      dup5\n        /* \"#utility.yul\":5773:5779   */\n      dup3\n        /* \"#utility.yul\":5766:5770   */\n      0x20\n        /* \"#utility.yul\":5758:5764   */\n      dup7\n        /* \"#utility.yul\":5754:5771   */\n      add\n        /* \"#utility.yul\":5706:5785   */\n      tag_233\n      jump\t// in\n    tag_339:\n        /* \"#utility.yul\":5697:5785   */\n      swap2\n      pop\n        /* \"#utility.yul\":5513:5791   */\n      pop\n        /* \"#utility.yul\":5451:5791   */\n      swap3\n      swap2\n      pop\n      pop\n      jump\t// out\n        /* \"#utility.yul\":5797:5913   */\n    tag_235:\n        /* \"#utility.yul\":5867:5888   */\n      tag_341\n        /* \"#utility.yul\":5882:5887   */\n      dup2\n        /* \"#utility.yul\":5867:5888   */\n      tag_225\n      jump\t// in\n    tag_341:\n        /* \"#utility.yul\":5860:5865   */\n      dup2\n        /* \"#utility.yul\":5857:5889   */\n      eq\n        /* \"#utility.yul\":5847:5907   */\n      tag_342\n      jumpi\n        /* \"#utility.yul\":5903:5904   */\n      0x00\n        /* \"#utility.yul\":5900:5901   */\n      0x00\n        /* \"#utility.yul\":5893:5905   */\n      revert\n        /* \"#utility.yul\":5847:5907   */\n    tag_342:\n        /* \"#utility.yul\":5797:5913   */\n      pop\n      jump\t// out\n        /* \"#utility.yul\":5919:6052   */\n    tag_236:\n        /* \"#utility.yul\":5962:5967   */\n      0x00\n        /* \"#utility.yul\":6000:6006   */\n      dup2\n        /* \"#utility.yul\":5987:6007   */\n      calldataload\n        /* \"#utility.yul\":5978:6007   */\n      swap1\n      pop\n        /* \"#utility.yul\":6016:6046   */\n      tag_344\n        /* \"#utility.yul\":6040:6045   */\n      dup2\n        /* \"#utility.yul\":6016:6046   */\n      tag_235\n      jump\t// in\n    tag_344:\n        /* \"#utility.yul\":5919:6052   */\n      swap3\n      swap2\n      pop\n      pop\n      jump\t// out\n        /* \"#utility.yul\":6058:6997   */\n    tag_27:\n        /* \"#utility.yul\":6151:6157   */\n      0x00\n        /* \"#utility.yul\":6159:6165   */\n      0x00\n        /* \"#utility.yul\":6167:6173   */\n      0x00\n        /* \"#utility.yul\":6175:6181   */\n      0x00\n        /* \"#utility.yul\":6224:6227   */\n      0x80\n        /* \"#utility.yul\":6212:6221   */\n      dup6\n        /* \"#utility.yul\":6203:6210   */\n      dup8\n        /* \"#utility.yul\":6199:6222   */\n      sub\n        /* \"#utility.yul\":6195:6228   */\n      slt\n        /* \"#utility.yul\":6192:6312   */\n      iszero\n      tag_346\n      jumpi\n        /* \"#utility.yul\":6231:6310   */\n      tag_347\n      tag_211\n      jump\t// in\n    tag_347:\n        /* \"#utility.yul\":6192:6312   */\n    tag_346:\n        /* \"#utility.yul\":6379:6380   */\n      0x00\n        /* \"#utility.yul\":6368:6377   */\n      dup6\n        /* \"#utility.yul\":6364:6381   */\n      add\n        /* \"#utility.yul\":6351:6382   */\n      calldataload\n        /* \"#utility.yul\":6409:6427   */\n      0xffffffffffffffff\n        /* \"#utility.yul\":6401:6407   */\n      dup2\n        /* \"#utility.yul\":6398:6428   */\n      gt\n        /* \"#utility.yul\":6395:6512   */\n      iszero\n      tag_348\n      jumpi\n        /* \"#utility.yul\":6431:6510   */\n      tag_349\n      tag_212\n      jump\t// in\n    tag_349:\n        /* \"#utility.yul\":6395:6512   */\n    tag_348:\n        /* \"#utility.yul\":6536:6599   */\n      tag_350\n        /* \"#utility.yul\":6591:6598   */\n      dup8\n        /* \"#utility.yul\":6582:6588   */\n      dup3\n        /* \"#utility.yul\":6571:6580   */\n      dup9\n        /* \"#utility.yul\":6567:6589   */\n      add\n        /* \"#utility.yul\":6536:6599   */\n      tag_234\n      jump\t// in\n    tag_350:\n        /* \"#utility.yul\":6526:6599   */\n      swap5\n      pop\n        /* \"#utility.yul\":6322:6609   */\n      pop\n        /* \"#utility.yul\":6648:6650   */\n      0x20\n        /* \"#utility.yul\":6674:6727   */\n      tag_351\n        /* \"#utility.yul\":6719:6726   */\n      dup8\n        /* \"#utility.yul\":6710:6716   */\n      dup3\n        /* \"#utility.yul\":6699:6708   */\n      dup9\n        /* \"#utility.yul\":6695:6717   */\n      add\n        /* \"#utility.yul\":6674:6727   */\n      tag_215\n      jump\t// in\n    tag_351:\n        /* \"#utility.yul\":6664:6727   */\n      swap4\n      pop\n        /* \"#utility.yul\":6619:6737   */\n      pop\n        /* \"#utility.yul\":6776:6778   */\n      0x40\n        /* \"#utility.yul\":6802:6855   */\n      tag_352\n        /* \"#utility.yul\":6847:6854   */\n      dup8\n        /* \"#utility.yul\":6838:6844   */\n      dup3\n        /* \"#utility.yul\":6827:6836   */\n      dup9\n        /* \"#utility.yul\":6823:6845   */\n      add\n        /* \"#utility.yul\":6802:6855   */\n      tag_215\n      jump\t// in\n    tag_352:\n        /* \"#utility.yul\":6792:6855   */\n      swap3\n      pop\n        /* \"#utility.yul\":6747:6865   */\n      pop\n        /* \"#utility.yul\":6904:6906   */\n      0x60\n        /* \"#utility.yul\":6930:6980   */\n      tag_353\n        /* \"#utility.yul\":6972:6979   */\n      dup8\n        /* \"#utility.yul\":6963:6969   */\n      dup3\n        /* \"#utility.yul\":6952:6961   */\n      dup9\n        /* \"#utility.yul\":6948:6970   */\n      add\n        /* \"#utility.yul\":6930:6980   */\n      tag_236\n      jump\t// in\n    tag_353:\n        /* \"#utility.yul\":6920:6980   */\n      swap2\n      pop\n        /* \"#utility.yul\":6875:6990   */\n      pop\n        /* \"#utility.yul\":6058:6997   */\n      swap3\n      swap6\n      swap2\n      swap5\n      pop\n      swap3\n      pop\n      jump\t// out\n        /* \"#utility.yul\":7003:7225   */\n    tag_30:\n        /* \"#utility.yul\":7096:7100   */\n      0x00\n        /* \"#utility.yul\":7134:7136   */\n      0x20\n        /* \"#utility.yul\":7123:7132   */\n      dup3\n        /* \"#utility.yul\":7119:7137   */\n      add\n        /* \"#utility.yul\":7111:7137   */\n      swap1\n      pop\n        /* \"#utility.yul\":7147:7218   */\n      tag_355\n        /* \"#utility.yul\":7215:7216   */\n      0x00\n        /* \"#utility.yul\":7204:7213   */\n      dup4\n        /* \"#utility.yul\":7200:7217   */\n      add\n        /* \"#utility.yul\":7191:7197   */\n      dup5\n        /* \"#utility.yul\":7147:7218   */\n      tag_224\n      jump\t// in\n    tag_355:\n        /* \"#utility.yul\":7003:7225   */\n      swap3\n      swap2\n      pop\n      pop\n      jump\t// out\n        /* \"#utility.yul\":7231:7353   */\n    tag_237:\n        /* \"#utility.yul\":7304:7328   */\n      tag_357\n        /* \"#utility.yul\":7322:7327   */\n      dup2\n        /* \"#utility.yul\":7304:7328   */\n      tag_217\n      jump\t// in\n    tag_357:\n        /* \"#utility.yul\":7297:7302   */\n      dup2\n        /* \"#utility.yul\":7294:7329   */\n      eq\n        /* \"#utility.yul\":7284:7347   */\n      tag_358\n      jumpi\n        /* \"#utility.yul\":7343:7344   */\n      0x00\n        /* \"#utility.yul\":7340:7341   */\n      0x00\n        /* \"#utility.yul\":7333:7345   */\n      revert\n        /* \"#utility.yul\":7284:7347   */\n    tag_358:\n        /* \"#utility.yul\":7231:7353   */\n      pop\n      jump\t// out\n        /* \"#utility.yul\":7359:7498   */\n    tag_238:\n        /* \"#utility.yul\":7405:7410   */\n      0x00\n        /* \"#utility.yul\":7443:7449   */\n      dup2\n        /* \"#utility.yul\":7430:7450   */\n      calldataload\n        /* \"#utility.yul\":7421:7450   */\n      swap1\n      pop\n        /* \"#utility.yul\":7459:7492   */\n      tag_360\n        /* \"#utility.yul\":7486:7491   */\n      dup2\n        /* \"#utility.yul\":7459:7492   */\n      tag_237\n      jump\t// in\n    tag_360:\n        /* \"#utility.yul\":7359:7498   */\n      swap3\n      swap2\n      pop\n      pop\n      jump\t// out\n        /* \"#utility.yul\":7504:7833   */\n    tag_34:\n        /* \"#utility.yul\":7563:7569   */\n      0x00\n        /* \"#utility.yul\":7612:7614   */\n      0x20\n        /* \"#utility.yul\":7600:7609   */\n      dup3\n        /* \"#utility.yul\":7591:7598   */\n      dup5\n        /* \"#utility.yul\":7587:7610   */\n      sub\n        /* \"#utility.yul\":7583:7615   */\n      slt\n        /* \"#utility.yul\":7580:7699   */\n      iszero\n      tag_362\n      jumpi\n        /* \"#utility.yul\":7618:7697   */\n      tag_363\n      tag_211\n      jump\t// in\n    tag_363:\n        /* \"#utility.yul\":7580:7699   */\n    tag_362:\n        /* \"#utility.yul\":7738:7739   */\n      0x00\n        /* \"#utility.yul\":7763:7816   */\n      tag_364\n        /* \"#utility.yul\":7808:7815   */\n      dup5\n        /* \"#utility.yul\":7799:7805   */\n      dup3\n        /* \"#utility.yul\":7788:7797   */\n      dup6\n        /* \"#utility.yul\":7784:7806   */\n      add\n        /* \"#utility.yul\":7763:7816   */\n      tag_238\n      jump\t// in\n    tag_364:\n        /* \"#utility.yul\":7753:7816   */\n      swap2\n      pop\n        /* \"#utility.yul\":7709:7826   */\n      pop\n        /* \"#utility.yul\":7504:7833   */\n      swap3\n      swap2\n      pop\n      pop\n      jump\t// out\n        /* \"#utility.yul\":7839:8049   */\n    tag_37:\n        /* \"#utility.yul\":7926:7930   */\n      0x00\n        /* \"#utility.yul\":7964:7966   */\n      0x20\n        /* \"#utility.yul\":7953:7962   */\n      dup3\n        /* \"#utility.yul\":7949:7967   */\n      add\n        /* \"#utility.yul\":7941:7967   */\n      swap1\n      pop\n        /* \"#utility.yul\":7977:8042   */\n      tag_366\n        /* \"#utility.yul\":8039:8040   */\n      0x00\n        /* \"#utility.yul\":8028:8037   */\n      dup4\n        /* \"#utility.yul\":8024:8041   */\n      add\n        /* \"#utility.yul\":8015:8021   */\n      dup5\n        /* \"#utility.yul\":7977:8042   */\n      tag_226\n      jump\t// in\n    tag_366:\n        /* \"#utility.yul\":7839:8049   */\n      swap3\n      swap2\n      pop\n      pop\n      jump\t// out\n        /* \"#utility.yul\":8055:8854   */\n    tag_46:\n        /* \"#utility.yul\":8142:8148   */\n      0x00\n        /* \"#utility.yul\":8150:8156   */\n      0x00\n        /* \"#utility.yul\":8158:8164   */\n      0x00\n        /* \"#utility.yul\":8207:8209   */\n      0x60\n        /* \"#utility.yul\":8195:8204   */\n      dup5\n        /* \"#utility.yul\":8186:8193   */\n      dup7\n        /* \"#utility.yul\":8182:8205   */\n      sub\n        /* \"#utility.yul\":8178:8210   */\n      slt\n        /* \"#utility.yul\":8175:8294   */\n      iszero\n      tag_368\n      jumpi\n        /* \"#utility.yul\":8213:8292   */\n      tag_369\n      tag_211\n      jump\t// in\n    tag_369:\n        /* \"#utility.yul\":8175:8294   */\n    tag_368:\n        /* \"#utility.yul\":8333:8334   */\n      0x00\n        /* \"#utility.yul\":8358:8411   */\n      tag_370\n        /* \"#utility.yul\":8403:8410   */\n      dup7\n        /* \"#utility.yul\":8394:8400   */\n      dup3\n        /* \"#utility.yul\":8383:8392   */\n      dup8\n        /* \"#utility.yul\":8379:8401   */\n      add\n        /* \"#utility.yul\":8358:8411   */\n      tag_238\n      jump\t// in\n    tag_370:\n        /* \"#utility.yul\":8348:8411   */\n      swap4\n      pop\n        /* \"#utility.yul\":8304:8421   */\n      pop\n        /* \"#utility.yul\":8488:8490   */\n      0x20\n        /* \"#utility.yul\":8477:8486   */\n      dup5\n        /* \"#utility.yul\":8473:8491   */\n      add\n        /* \"#utility.yul\":8460:8492   */\n      calldataload\n        /* \"#utility.yul\":8519:8537   */\n      0xffffffffffffffff\n        /* \"#utility.yul\":8511:8517   */\n      dup2\n        /* \"#utility.yul\":8508:8538   */\n      gt\n        /* \"#utility.yul\":8505:8622   */\n      iszero\n      tag_371\n      jumpi\n        /* \"#utility.yul\":8541:8620   */\n      tag_372\n      tag_212\n      jump\t// in\n    tag_372:\n        /* \"#utility.yul\":8505:8622   */\n    tag_371:\n        /* \"#utility.yul\":8646:8709   */\n      tag_373\n        /* \"#utility.yul\":8701:8708   */\n      dup7\n        /* \"#utility.yul\":8692:8698   */\n      dup3\n        /* \"#utility.yul\":8681:8690   */\n      dup8\n        /* \"#utility.yul\":8677:8699   */\n      add\n        /* \"#utility.yul\":8646:8709   */\n      tag_234\n      jump\t// in\n    tag_373:\n        /* \"#utility.yul\":8636:8709   */\n      swap3\n      pop\n        /* \"#utility.yul\":8431:8719   */\n      pop\n        /* \"#utility.yul\":8758:8760   */\n      0x40\n        /* \"#utility.yul\":8784:8837   */\n      tag_374\n        /* \"#utility.yul\":8829:8836   */\n      dup7\n        /* \"#utility.yul\":8820:8826   */\n      dup3\n        /* \"#utility.yul\":8809:8818   */\n      dup8\n        /* \"#utility.yul\":8805:8827   */\n      add\n        /* \"#utility.yul\":8784:8837   */\n      tag_215\n      jump\t// in\n    tag_374:\n        /* \"#utility.yul\":8774:8837   */\n      swap2\n      pop\n        /* \"#utility.yul\":8729:8847   */\n      pop\n        /* \"#utility.yul\":8055:8854   */\n      swap3\n      pop\n      swap3\n      pop\n      swap3\n      jump\t// out\n        /* \"#utility.yul\":8860:9514   */\n    tag_51:\n        /* \"#utility.yul\":8938:8944   */\n      0x00\n        /* \"#utility.yul\":8946:8952   */\n      0x00\n        /* \"#utility.yul\":8995:8997   */\n      0x40\n        /* \"#utility.yul\":8983:8992   */\n      dup4\n        /* \"#utility.yul\":8974:8981   */\n      dup6\n        /* \"#utility.yul\":8970:8993   */\n      sub\n        /* \"#utility.yul\":8966:8998   */\n      slt\n        /* \"#utility.yul\":8963:9082   */\n      iszero\n      tag_376\n      jumpi\n        /* \"#utility.yul\":9001:9080   */\n      tag_377\n      tag_211\n      jump\t// in\n    tag_377:\n        /* \"#utility.yul\":8963:9082   */\n    tag_376:\n        /* \"#utility.yul\":9149:9150   */\n      0x00\n        /* \"#utility.yul\":9138:9147   */\n      dup4\n        /* \"#utility.yul\":9134:9151   */\n      add\n        /* \"#utility.yul\":9121:9152   */\n      calldataload\n        /* \"#utility.yul\":9179:9197   */\n      0xffffffffffffffff\n        /* \"#utility.yul\":9171:9177   */\n      dup2\n        /* \"#utility.yul\":9168:9198   */\n      gt\n        /* \"#utility.yul\":9165:9282   */\n      iszero\n      tag_378\n      jumpi\n        /* \"#utility.yul\":9201:9280   */\n      tag_379\n      tag_212\n      jump\t// in\n    tag_379:\n        /* \"#utility.yul\":9165:9282   */\n    tag_378:\n        /* \"#utility.yul\":9306:9369   */\n      tag_380\n        /* \"#utility.yul\":9361:9368   */\n      dup6\n        /* \"#utility.yul\":9352:9358   */\n      dup3\n        /* \"#utility.yul\":9341:9350   */\n      dup7\n        /* \"#utility.yul\":9337:9359   */\n      add\n        /* \"#utility.yul\":9306:9369   */\n      tag_234\n      jump\t// in\n    tag_380:\n        /* \"#utility.yul\":9296:9369   */\n      swap3\n      pop\n        /* \"#utility.yul\":9092:9379   */\n      pop\n        /* \"#utility.yul\":9418:9420   */\n      0x20\n        /* \"#utility.yul\":9444:9497   */\n      tag_381\n        /* \"#utility.yul\":9489:9496   */\n      dup6\n        /* \"#utility.yul\":9480:9486   */\n      dup3\n        /* \"#utility.yul\":9469:9478   */\n      dup7\n        /* \"#utility.yul\":9465:9487   */\n      add\n        /* \"#utility.yul\":9444:9497   */\n      tag_215\n      jump\t// in\n    tag_381:\n        /* \"#utility.yul\":9434:9497   */\n      swap2\n      pop\n        /* \"#utility.yul\":9389:9507   */\n      pop\n        /* \"#utility.yul\":8860:9514   */\n      swap3\n      pop\n      swap3\n      swap1\n      pop\n      jump\t// out\n        /* \"#utility.yul\":9520:9833   */\n    tag_67:\n        /* \"#utility.yul\":9633:9637   */\n      0x00\n        /* \"#utility.yul\":9671:9673   */\n      0x20\n        /* \"#utility.yul\":9660:9669   */\n      dup3\n        /* \"#utility.yul\":9656:9674   */\n      add\n        /* \"#utility.yul\":9648:9674   */\n      swap1\n      pop\n        /* \"#utility.yul\":9720:9729   */\n      dup2\n        /* \"#utility.yul\":9714:9718   */\n      dup2\n        /* \"#utility.yul\":9710:9730   */\n      sub\n        /* \"#utility.yul\":9706:9707   */\n      0x00\n        /* \"#utility.yul\":9695:9704   */\n      dup4\n        /* \"#utility.yul\":9691:9708   */\n      add\n        /* \"#utility.yul\":9684:9731   */\n      mstore\n        /* \"#utility.yul\":9748:9826   */\n      tag_383\n        /* \"#utility.yul\":9821:9825   */\n      dup2\n        /* \"#utility.yul\":9812:9818   */\n      dup5\n        /* \"#utility.yul\":9748:9826   */\n      tag_223\n      jump\t// in\n    tag_383:\n        /* \"#utility.yul\":9740:9826   */\n      swap1\n      pop\n        /* \"#utility.yul\":9520:9833   */\n      swap3\n      swap2\n      pop\n      pop\n      jump\t// out\n        /* \"#utility.yul\":9839:10061   */\n    tag_72:\n        /* \"#utility.yul\":9932:9936   */\n      0x00\n        /* \"#utility.yul\":9970:9972   */\n      0x20\n        /* \"#utility.yul\":9959:9968   */\n      dup3\n        /* \"#utility.yul\":9955:9973   */\n      add\n        /* \"#utility.yul\":9947:9973   */\n      swap1\n      pop\n        /* \"#utility.yul\":9983:10054   */\n      tag_385\n        /* \"#utility.yul\":10051:10052   */\n      0x00\n        /* \"#utility.yul\":10040:10049   */\n      dup4\n        /* \"#utility.yul\":10036:10053   */\n      add\n        /* \"#utility.yul\":10027:10033   */\n      dup5\n        /* \"#utility.yul\":9983:10054   */\n      tag_218\n      jump\t// in\n    tag_385:\n        /* \"#utility.yul\":9839:10061   */\n      swap3\n      swap2\n      pop\n      pop\n      jump\t// out\n        /* \"#utility.yul\":10067:10203   */\n    tag_239:\n        /* \"#utility.yul\":10156:10162   */\n      0x00\n        /* \"#utility.yul\":10190:10195   */\n      dup2\n        /* \"#utility.yul\":10184:10196   */\n      mload\n        /* \"#utility.yul\":10174:10196   */\n      swap1\n      pop\n        /* \"#utility.yul\":10067:10203   */\n      swap2\n      swap1\n      pop\n      jump\t// out\n        /* \"#utility.yul\":10209:10415   */\n    tag_240:\n        /* \"#utility.yul\":10330:10341   */\n      0x00\n        /* \"#utility.yul\":10364:10370   */\n      dup3\n        /* \"#utility.yul\":10359:10362   */\n      dup3\n        /* \"#utility.yul\":10352:10371   */\n      mstore\n        /* \"#utility.yul\":10404:10408   */\n      0x20\n        /* \"#utility.yul\":10399:10402   */\n      dup3\n        /* \"#utility.yul\":10395:10409   */\n      add\n        /* \"#utility.yul\":10380:10409   */\n      swap1\n      pop\n        /* \"#utility.yul\":10209:10415   */\n      swap3\n      swap2\n      pop\n      pop\n      jump\t// out\n        /* \"#utility.yul\":10421:10575   */\n    tag_241:\n        /* \"#utility.yul\":10510:10514   */\n      0x00\n        /* \"#utility.yul\":10533:10536   */\n      dup2\n        /* \"#utility.yul\":10525:10536   */\n      swap1\n      pop\n        /* \"#utility.yul\":10563:10567   */\n      0x20\n        /* \"#utility.yul\":10558:10561   */\n      dup3\n        /* \"#utility.yul\":10554:10568   */\n      add\n        /* \"#utility.yul\":10546:10568   */\n      swap1\n      pop\n        /* \"#utility.yul\":10421:10575   */\n      swap2\n      swap1\n      pop\n      jump\t// out\n        /* \"#utility.yul\":10581:10689   */\n    tag_242:\n        /* \"#utility.yul\":10658:10682   */\n      tag_390\n        /* \"#utility.yul\":10676:10681   */\n      dup2\n        /* \"#utility.yul\":10658:10682   */\n      tag_217\n      jump\t// in\n    tag_390:\n        /* \"#utility.yul\":10653:10656   */\n      dup3\n        /* \"#utility.yul\":10646:10683   */\n      mstore\n        /* \"#utility.yul\":10581:10689   */\n      pop\n      pop\n      jump\t// out\n        /* \"#utility.yul\":10695:10854   */\n    tag_243:\n        /* \"#utility.yul\":10769:10780   */\n      0x00\n        /* \"#utility.yul\":10803:10809   */\n      dup3\n        /* \"#utility.yul\":10798:10801   */\n      dup3\n        /* \"#utility.yul\":10791:10810   */\n      mstore\n        /* \"#utility.yul\":10843:10847   */\n      0x20\n        /* \"#utility.yul\":10838:10841   */\n      dup3\n        /* \"#utility.yul\":10834:10848   */\n      add\n        /* \"#utility.yul\":10819:10848   */\n      swap1\n      pop\n        /* \"#utility.yul\":10695:10854   */\n      swap3\n      swap2\n      pop\n      pop\n      jump\t// out\n        /* \"#utility.yul\":10860:11217   */\n    tag_244:\n        /* \"#utility.yul\":10938:10941   */\n      0x00\n        /* \"#utility.yul\":10966:11005   */\n      tag_393\n        /* \"#utility.yul\":10999:11004   */\n      dup3\n        /* \"#utility.yul\":10966:11005   */\n      tag_219\n      jump\t// in\n    tag_393:\n        /* \"#utility.yul\":11021:11082   */\n      tag_394\n        /* \"#utility.yul\":11075:11081   */\n      dup2\n        /* \"#utility.yul\":11070:11073   */\n      dup6\n        /* \"#utility.yul\":11021:11082   */\n      tag_243\n      jump\t// in\n    tag_394:\n        /* \"#utility.yul\":11014:11082   */\n      swap4\n      pop\n        /* \"#utility.yul\":11091:11156   */\n      tag_395\n        /* \"#utility.yul\":11149:11155   */\n      dup2\n        /* \"#utility.yul\":11144:11147   */\n      dup6\n        /* \"#utility.yul\":11137:11141   */\n      0x20\n        /* \"#utility.yul\":11130:11135   */\n      dup7\n        /* \"#utility.yul\":11126:11142   */\n      add\n        /* \"#utility.yul\":11091:11156   */\n      tag_221\n      jump\t// in\n    tag_395:\n        /* \"#utility.yul\":11181:11210   */\n      tag_396\n        /* \"#utility.yul\":11203:11209   */\n      dup2\n        /* \"#utility.yul\":11181:11210   */\n      tag_222\n      jump\t// in\n    tag_396:\n        /* \"#utility.yul\":11176:11179   */\n      dup5\n        /* \"#utility.yul\":11172:11211   */\n      add\n        /* \"#utility.yul\":11165:11211   */\n      swap2\n      pop\n        /* \"#utility.yul\":10942:11217   */\n      pop\n        /* \"#utility.yul\":10860:11217   */\n      swap3\n      swap2\n      pop\n      pop\n      jump\t// out\n        /* \"#utility.yul\":11223:11331   */\n    tag_245:\n        /* \"#utility.yul\":11300:11324   */\n      tag_398\n        /* \"#utility.yul\":11318:11323   */\n      dup2\n        /* \"#utility.yul\":11300:11324   */\n      tag_213\n      jump\t// in\n    tag_398:\n        /* \"#utility.yul\":11295:11298   */\n      dup3\n        /* \"#utility.yul\":11288:11325   */\n      mstore\n        /* \"#utility.yul\":11223:11331   */\n      pop\n      pop\n      jump\t// out\n        /* \"#utility.yul\":11337:11436   */\n    tag_246:\n        /* \"#utility.yul\":11408:11429   */\n      tag_400\n        /* \"#utility.yul\":11423:11428   */\n      dup2\n        /* \"#utility.yul\":11408:11429   */\n      tag_225\n      jump\t// in\n    tag_400:\n        /* \"#utility.yul\":11403:11406   */\n      dup3\n        /* \"#utility.yul\":11396:11430   */\n      mstore\n        /* \"#utility.yul\":11337:11436   */\n      pop\n      pop\n      jump\t// out\n        /* \"#utility.yul\":11516:13057   */\n    tag_247:\n        /* \"#utility.yul\":11619:11622   */\n      0x00\n        /* \"#utility.yul\":11655:11659   */\n      0xe0\n        /* \"#utility.yul\":11650:11653   */\n      dup4\n        /* \"#utility.yul\":11646:11660   */\n      add\n        /* \"#utility.yul\":11743:11747   */\n      0x00\n        /* \"#utility.yul\":11736:11741   */\n      dup4\n        /* \"#utility.yul\":11732:11748   */\n      add\n        /* \"#utility.yul\":11726:11749   */\n      mload\n        /* \"#utility.yul\":11762:11825   */\n      tag_402\n        /* \"#utility.yul\":11819:11823   */\n      0x00\n        /* \"#utility.yul\":11814:11817   */\n      dup7\n        /* \"#utility.yul\":11810:11824   */\n      add\n        /* \"#utility.yul\":11796:11808   */\n      dup3\n        /* \"#utility.yul\":11762:11825   */\n      tag_242\n      jump\t// in\n    tag_402:\n        /* \"#utility.yul\":11670:11835   */\n      pop\n        /* \"#utility.yul\":11924:11928   */\n      0x20\n        /* \"#utility.yul\":11917:11922   */\n      dup4\n        /* \"#utility.yul\":11913:11929   */\n      add\n        /* \"#utility.yul\":11907:11930   */\n      mload\n        /* \"#utility.yul\":11977:11980   */\n      dup5\n        /* \"#utility.yul\":11971:11975   */\n      dup3\n        /* \"#utility.yul\":11967:11981   */\n      sub\n        /* \"#utility.yul\":11960:11964   */\n      0x20\n        /* \"#utility.yul\":11955:11958   */\n      dup7\n        /* \"#utility.yul\":11951:11965   */\n      add\n        /* \"#utility.yul\":11944:11982   */\n      mstore\n        /* \"#utility.yul\":12003:12076   */\n      tag_403\n        /* \"#utility.yul\":12071:12075   */\n      dup3\n        /* \"#utility.yul\":12057:12069   */\n      dup3\n        /* \"#utility.yul\":12003:12076   */\n      tag_244\n      jump\t// in\n    tag_403:\n        /* \"#utility.yul\":11995:12076   */\n      swap2\n      pop\n        /* \"#utility.yul\":11845:12087   */\n      pop\n        /* \"#utility.yul\":12170:12174   */\n      0x40\n        /* \"#utility.yul\":12163:12168   */\n      dup4\n        /* \"#utility.yul\":12159:12175   */\n      add\n        /* \"#utility.yul\":12153:12176   */\n      mload\n        /* \"#utility.yul\":12189:12252   */\n      tag_404\n        /* \"#utility.yul\":12246:12250   */\n      0x40\n        /* \"#utility.yul\":12241:12244   */\n      dup7\n        /* \"#utility.yul\":12237:12251   */\n      add\n        /* \"#utility.yul\":12223:12235   */\n      dup3\n        /* \"#utility.yul\":12189:12252   */\n      tag_245\n      jump\t// in\n    tag_404:\n        /* \"#utility.yul\":12097:12262   */\n      pop\n        /* \"#utility.yul\":12344:12348   */\n      0x60\n        /* \"#utility.yul\":12337:12342   */\n      dup4\n        /* \"#utility.yul\":12333:12349   */\n      add\n        /* \"#utility.yul\":12327:12350   */\n      mload\n        /* \"#utility.yul\":12363:12426   */\n      tag_405\n        /* \"#utility.yul\":12420:12424   */\n      0x60\n        /* \"#utility.yul\":12415:12418   */\n      dup7\n        /* \"#utility.yul\":12411:12425   */\n      add\n        /* \"#utility.yul\":12397:12409   */\n      dup3\n        /* \"#utility.yul\":12363:12426   */\n      tag_245\n      jump\t// in\n    tag_405:\n        /* \"#utility.yul\":12272:12436   */\n      pop\n        /* \"#utility.yul\":12519:12523   */\n      0x80\n        /* \"#utility.yul\":12512:12517   */\n      dup4\n        /* \"#utility.yul\":12508:12524   */\n      add\n        /* \"#utility.yul\":12502:12525   */\n      mload\n        /* \"#utility.yul\":12572:12575   */\n      dup5\n        /* \"#utility.yul\":12566:12570   */\n      dup3\n        /* \"#utility.yul\":12562:12576   */\n      sub\n        /* \"#utility.yul\":12555:12559   */\n      0x80\n        /* \"#utility.yul\":12550:12553   */\n      dup7\n        /* \"#utility.yul\":12546:12560   */\n      add\n        /* \"#utility.yul\":12539:12577   */\n      mstore\n        /* \"#utility.yul\":12598:12671   */\n      tag_406\n        /* \"#utility.yul\":12666:12670   */\n      dup3\n        /* \"#utility.yul\":12652:12664   */\n      dup3\n        /* \"#utility.yul\":12598:12671   */\n      tag_244\n      jump\t// in\n    tag_406:\n        /* \"#utility.yul\":12590:12671   */\n      swap2\n      pop\n        /* \"#utility.yul\":12446:12682   */\n      pop\n        /* \"#utility.yul\":12769:12773   */\n      0xa0\n        /* \"#utility.yul\":12762:12767   */\n      dup4\n        /* \"#utility.yul\":12758:12774   */\n      add\n        /* \"#utility.yul\":12752:12775   */\n      mload\n        /* \"#utility.yul\":12788:12845   */\n      tag_407\n        /* \"#utility.yul\":12839:12843   */\n      0xa0\n        /* \"#utility.yul\":12834:12837   */\n      dup7\n        /* \"#utility.yul\":12830:12844   */\n      add\n        /* \"#utility.yul\":12816:12828   */\n      dup3\n        /* \"#utility.yul\":12788:12845   */\n      tag_246\n      jump\t// in\n    tag_407:\n        /* \"#utility.yul\":12692:12855   */\n      pop\n        /* \"#utility.yul\":12944:12948   */\n      0xc0\n        /* \"#utility.yul\":12937:12942   */\n      dup4\n        /* \"#utility.yul\":12933:12949   */\n      add\n        /* \"#utility.yul\":12927:12950   */\n      mload\n        /* \"#utility.yul\":12963:13020   */\n      tag_408\n        /* \"#utility.yul\":13014:13018   */\n      0xc0\n        /* \"#utility.yul\":13009:13012   */\n      dup7\n        /* \"#utility.yul\":13005:13019   */\n      add\n        /* \"#utility.yul\":12991:13003   */\n      dup3\n        /* \"#utility.yul\":12963:13020   */\n      tag_246\n      jump\t// in\n    tag_408:\n        /* \"#utility.yul\":12865:13030   */\n      pop\n        /* \"#utility.yul\":13047:13051   */\n      dup1\n        /* \"#utility.yul\":13040:13051   */\n      swap2\n      pop\n        /* \"#utility.yul\":11624:13057   */\n      pop\n        /* \"#utility.yul\":11516:13057   */\n      swap3\n      swap2\n      pop\n      pop\n      jump\t// out\n        /* \"#utility.yul\":13063:13307   */\n    tag_248:\n        /* \"#utility.yul\":13176:13186   */\n      0x00\n        /* \"#utility.yul\":13211:13301   */\n      tag_410\n        /* \"#utility.yul\":13297:13300   */\n      dup4\n        /* \"#utility.yul\":13289:13295   */\n      dup4\n        /* \"#utility.yul\":13211:13301   */\n      tag_247\n      jump\t// in\n    tag_410:\n        /* \"#utility.yul\":13197:13301   */\n      swap1\n      pop\n        /* \"#utility.yul\":13063:13307   */\n      swap3\n      swap2\n      pop\n      pop\n      jump\t// out\n        /* \"#utility.yul\":13313:13448   */\n    tag_249:\n        /* \"#utility.yul\":13405:13409   */\n      0x00\n        /* \"#utility.yul\":13437:13441   */\n      0x20\n        /* \"#utility.yul\":13432:13435   */\n      dup3\n        /* \"#utility.yul\":13428:13442   */\n      add\n        /* \"#utility.yul\":13420:13442   */\n      swap1\n      pop\n        /* \"#utility.yul\":13313:13448   */\n      swap2\n      swap1\n      pop\n      jump\t// out\n        /* \"#utility.yul\":13532:14619   */\n    tag_250:\n        /* \"#utility.yul\":13695:13698   */\n      0x00\n        /* \"#utility.yul\":13724:13800   */\n      tag_413\n        /* \"#utility.yul\":13794:13799   */\n      dup3\n        /* \"#utility.yul\":13724:13800   */\n      tag_239\n      jump\t// in\n    tag_413:\n        /* \"#utility.yul\":13816:13924   */\n      tag_414\n        /* \"#utility.yul\":13917:13923   */\n      dup2\n        /* \"#utility.yul\":13912:13915   */\n      dup6\n        /* \"#utility.yul\":13816:13924   */\n      tag_240\n      jump\t// in\n    tag_414:\n        /* \"#utility.yul\":13809:13924   */\n      swap4\n      pop\n        /* \"#utility.yul\":13950:13953   */\n      dup4\n        /* \"#utility.yul\":13995:13999   */\n      0x20\n        /* \"#utility.yul\":13987:13993   */\n      dup3\n        /* \"#utility.yul\":13983:14000   */\n      mul\n        /* \"#utility.yul\":13978:13981   */\n      dup6\n        /* \"#utility.yul\":13974:14001   */\n      add\n        /* \"#utility.yul\":14025:14103   */\n      tag_415\n        /* \"#utility.yul\":14097:14102   */\n      dup6\n        /* \"#utility.yul\":14025:14103   */\n      tag_241\n      jump\t// in\n    tag_415:\n        /* \"#utility.yul\":14126:14133   */\n      dup1\n        /* \"#utility.yul\":14157:14158   */\n      0x00\n        /* \"#utility.yul\":14142:14574   */\n    tag_416:\n        /* \"#utility.yul\":14167:14173   */\n      dup6\n        /* \"#utility.yul\":14164:14165   */\n      dup2\n        /* \"#utility.yul\":14161:14174   */\n      lt\n        /* \"#utility.yul\":14142:14574   */\n      iszero\n      tag_418\n      jumpi\n        /* \"#utility.yul\":14238:14247   */\n      dup5\n        /* \"#utility.yul\":14232:14236   */\n      dup5\n        /* \"#utility.yul\":14228:14248   */\n      sub\n        /* \"#utility.yul\":14223:14226   */\n      dup10\n        /* \"#utility.yul\":14216:14249   */\n      mstore\n        /* \"#utility.yul\":14289:14295   */\n      dup2\n        /* \"#utility.yul\":14283:14296   */\n      mload\n        /* \"#utility.yul\":14317:14425   */\n      tag_419\n        /* \"#utility.yul\":14420:14424   */\n      dup6\n        /* \"#utility.yul\":14405:14418   */\n      dup3\n        /* \"#utility.yul\":14317:14425   */\n      tag_248\n      jump\t// in\n    tag_419:\n        /* \"#utility.yul\":14309:14425   */\n      swap5\n      pop\n        /* \"#utility.yul\":14448:14530   */\n      tag_420\n        /* \"#utility.yul\":14523:14529   */\n      dup4\n        /* \"#utility.yul\":14448:14530   */\n      tag_249\n      jump\t// in\n    tag_420:\n        /* \"#utility.yul\":14438:14530   */\n      swap3\n      pop\n        /* \"#utility.yul\":14559:14563   */\n      0x20\n        /* \"#utility.yul\":14554:14557   */\n      dup11\n        /* \"#utility.yul\":14550:14564   */\n      add\n        /* \"#utility.yul\":14543:14564   */\n      swap10\n      pop\n        /* \"#utility.yul\":14202:14574   */\n      pop\n        /* \"#utility.yul\":14189:14190   */\n      0x01\n        /* \"#utility.yul\":14186:14187   */\n      dup2\n        /* \"#utility.yul\":14182:14191   */\n      add\n        /* \"#utility.yul\":14177:14191   */\n      swap1\n      pop\n        /* \"#utility.yul\":14142:14574   */\n      jump(tag_416)\n    tag_418:\n        /* \"#utility.yul\":14146:14160   */\n      pop\n        /* \"#utility.yul\":14590:14594   */\n      dup3\n        /* \"#utility.yul\":14583:14594   */\n      swap8\n      pop\n        /* \"#utility.yul\":14610:14613   */\n      dup8\n        /* \"#utility.yul\":14603:14613   */\n      swap6\n      pop\n        /* \"#utility.yul\":13700:14619   */\n      pop\n      pop\n      pop\n      pop\n      pop\n        /* \"#utility.yul\":13532:14619   */\n      swap3\n      swap2\n      pop\n      pop\n      jump\t// out\n        /* \"#utility.yul\":14625:15086   */\n    tag_78:\n        /* \"#utility.yul\":14812:14816   */\n      0x00\n        /* \"#utility.yul\":14850:14852   */\n      0x20\n        /* \"#utility.yul\":14839:14848   */\n      dup3\n        /* \"#utility.yul\":14835:14853   */\n      add\n        /* \"#utility.yul\":14827:14853   */\n      swap1\n      pop\n        /* \"#utility.yul\":14899:14908   */\n      dup2\n        /* \"#utility.yul\":14893:14897   */\n      dup2\n        /* \"#utility.yul\":14889:14909   */\n      sub\n        /* \"#utility.yul\":14885:14886   */\n      0x00\n        /* \"#utility.yul\":14874:14883   */\n      dup4\n        /* \"#utility.yul\":14870:14887   */\n      add\n        /* \"#utility.yul\":14863:14910   */\n      mstore\n        /* \"#utility.yul\":14927:15079   */\n      tag_422\n        /* \"#utility.yul\":15074:15078   */\n      dup2\n        /* \"#utility.yul\":15065:15071   */\n      dup5\n        /* \"#utility.yul\":14927:15079   */\n      tag_250\n      jump\t// in\n    tag_422:\n        /* \"#utility.yul\":14919:15079   */\n      swap1\n      pop\n        /* \"#utility.yul\":14625:15086   */\n      swap3\n      swap2\n      pop\n      pop\n      jump\t// out\n        /* \"#utility.yul\":15092:15272   */\n    tag_251:\n        /* \"#utility.yul\":15140:15217   */\n      0x4e487b7100000000000000000000000000000000000000000000000000000000\n        /* \"#utility.yul\":15137:15138   */\n      0x00\n        /* \"#utility.yul\":15130:15218   */\n      mstore\n        /* \"#utility.yul\":15237:15241   */\n      0x22\n        /* \"#utility.yul\":15234:15235   */\n      0x04\n        /* \"#utility.yul\":15227:15242   */\n      mstore\n        /* \"#utility.yul\":15261:15265   */\n      0x24\n        /* \"#utility.yul\":15258:15259   */\n      0x00\n        /* \"#utility.yul\":15251:15266   */\n      revert\n        /* \"#utility.yul\":15278:15598   */\n    tag_88:\n        /* \"#utility.yul\":15322:15328   */\n      0x00\n        /* \"#utility.yul\":15359:15360   */\n      0x02\n        /* \"#utility.yul\":15353:15357   */\n      dup3\n        /* \"#utility.yul\":15349:15361   */\n      div\n        /* \"#utility.yul\":15339:15361   */\n      swap1\n      pop\n        /* \"#utility.yul\":15406:15407   */\n      0x01\n        /* \"#utility.yul\":15400:15404   */\n      dup3\n        /* \"#utility.yul\":15396:15408   */\n      and\n        /* \"#utility.yul\":15427:15445   */\n      dup1\n        /* \"#utility.yul\":15417:15498   */\n      tag_425\n      jumpi\n        /* \"#utility.yul\":15483:15487   */\n      0x7f\n        /* \"#utility.yul\":15475:15481   */\n      dup3\n        /* \"#utility.yul\":15471:15488   */\n      and\n        /* \"#utility.yul\":15461:15488   */\n      swap2\n      pop\n        /* \"#utility.yul\":15417:15498   */\n    tag_425:\n        /* \"#utility.yul\":15545:15547   */\n      0x20\n        /* \"#utility.yul\":15537:15543   */\n      dup3\n        /* \"#utility.yul\":15534:15548   */\n      lt\n        /* \"#utility.yul\":15514:15532   */\n      dup2\n        /* \"#utility.yul\":15511:15549   */\n      sub\n        /* \"#utility.yul\":15508:15592   */\n      tag_426\n      jumpi\n        /* \"#utility.yul\":15564:15582   */\n      tag_427\n      tag_251\n      jump\t// in\n    tag_427:\n        /* \"#utility.yul\":15508:15592   */\n    tag_426:\n        /* \"#utility.yul\":15329:15598   */\n      pop\n        /* \"#utility.yul\":15278:15598   */\n      swap2\n      swap1\n      pop\n      jump\t// out\n        /* \"#utility.yul\":15604:15784   */\n    tag_252:\n        /* \"#utility.yul\":15652:15729   */\n      0x4e487b7100000000000000000000000000000000000000000000000000000000\n        /* \"#utility.yul\":15649:15650   */\n      0x00\n        /* \"#utility.yul\":15642:15730   */\n      mstore\n        /* \"#utility.yul\":15749:15753   */\n      0x11\n        /* \"#utility.yul\":15746:15747   */\n      0x04\n        /* \"#utility.yul\":15739:15754   */\n      mstore\n        /* \"#utility.yul\":15773:15777   */\n      0x24\n        /* \"#utility.yul\":15770:15771   */\n      0x00\n        /* \"#utility.yul\":15763:15778   */\n      revert\n        /* \"#utility.yul\":15790:15984   */\n    tag_100:\n        /* \"#utility.yul\":15830:15834   */\n      0x00\n        /* \"#utility.yul\":15850:15870   */\n      tag_430\n        /* \"#utility.yul\":15868:15869   */\n      dup3\n        /* \"#utility.yul\":15850:15870   */\n      tag_213\n      jump\t// in\n    tag_430:\n        /* \"#utility.yul\":15845:15870   */\n      swap2\n      pop\n        /* \"#utility.yul\":15884:15904   */\n      tag_431\n        /* \"#utility.yul\":15902:15903   */\n      dup4\n        /* \"#utility.yul\":15884:15904   */\n      tag_213\n      jump\t// in\n    tag_431:\n        /* \"#utility.yul\":15879:15904   */\n      swap3\n      pop\n        /* \"#utility.yul\":15928:15929   */\n      dup3\n        /* \"#utility.yul\":15925:15926   */\n      dup3\n        /* \"#utility.yul\":15921:15930   */\n      sub\n        /* \"#utility.yul\":15913:15930   */\n      swap1\n      pop\n        /* \"#utility.yul\":15952:15953   */\n      dup2\n        /* \"#utility.yul\":15946:15950   */\n      dup2\n        /* \"#utility.yul\":15943:15954   */\n      gt\n        /* \"#utility.yul\":15940:15977   */\n      iszero\n      tag_432\n      jumpi\n        /* \"#utility.yul\":15957:15975   */\n      tag_433\n      tag_252\n      jump\t// in\n    tag_433:\n        /* \"#utility.yul\":15940:15977   */\n    tag_432:\n        /* \"#utility.yul\":15790:15984   */\n      swap3\n      swap2\n      pop\n      pop\n      jump\t// out\n        /* \"#utility.yul\":15990:16170   */\n    tag_103:\n        /* \"#utility.yul\":16038:16115   */\n      0x4e487b7100000000000000000000000000000000000000000000000000000000\n        /* \"#utility.yul\":16035:16036   */\n      0x00\n        /* \"#utility.yul\":16028:16116   */\n      mstore\n        /* \"#utility.yul\":16135:16139   */\n      0x32\n        /* \"#utility.yul\":16132:16133   */\n      0x04\n        /* \"#utility.yul\":16125:16140   */\n      mstore\n        /* \"#utility.yul\":16159:16163   */\n      0x24\n        /* \"#utility.yul\":16156:16157   */\n      0x00\n        /* \"#utility.yul\":16149:16164   */\n      revert\n        /* \"#utility.yul\":16176:16324   */\n    tag_253:\n        /* \"#utility.yul\":16278:16289   */\n      0x00\n        /* \"#utility.yul\":16315:16318   */\n      dup2\n        /* \"#utility.yul\":16300:16318   */\n      swap1\n      pop\n        /* \"#utility.yul\":16176:16324   */\n      swap3\n      swap2\n      pop\n      pop\n      jump\t// out\n        /* \"#utility.yul\":16330:16720   */\n    tag_254:\n        /* \"#utility.yul\":16436:16439   */\n      0x00\n        /* \"#utility.yul\":16464:16503   */\n      tag_437\n        /* \"#utility.yul\":16497:16502   */\n      dup3\n        /* \"#utility.yul\":16464:16503   */\n      tag_219\n      jump\t// in\n    tag_437:\n        /* \"#utility.yul\":16519:16608   */\n      tag_438\n        /* \"#utility.yul\":16601:16607   */\n      dup2\n        /* \"#utility.yul\":16596:16599   */\n      dup6\n        /* \"#utility.yul\":16519:16608   */\n      tag_253\n      jump\t// in\n    tag_438:\n        /* \"#utility.yul\":16512:16608   */\n      swap4\n      pop\n        /* \"#utility.yul\":16617:16682   */\n      tag_439\n        /* \"#utility.yul\":16675:16681   */\n      dup2\n        /* \"#utility.yul\":16670:16673   */\n      dup6\n        /* \"#utility.yul\":16663:16667   */\n      0x20\n        /* \"#utility.yul\":16656:16661   */\n      dup7\n        /* \"#utility.yul\":16652:16668   */\n      add\n        /* \"#utility.yul\":16617:16682   */\n      tag_221\n      jump\t// in\n    tag_439:\n        /* \"#utility.yul\":16707:16713   */\n      dup1\n        /* \"#utility.yul\":16702:16705   */\n      dup5\n        /* \"#utility.yul\":16698:16714   */\n      add\n        /* \"#utility.yul\":16691:16714   */\n      swap2\n      pop\n        /* \"#utility.yul\":16440:16720   */\n      pop\n        /* \"#utility.yul\":16330:16720   */\n      swap3\n      swap2\n      pop\n      pop\n      jump\t// out\n        /* \"#utility.yul\":16726:17001   */\n    tag_110:\n        /* \"#utility.yul\":16858:16861   */\n      0x00\n        /* \"#utility.yul\":16880:16975   */\n      tag_441\n        /* \"#utility.yul\":16971:16974   */\n      dup3\n        /* \"#utility.yul\":16962:16968   */\n      dup5\n        /* \"#utility.yul\":16880:16975   */\n      tag_254\n      jump\t// in\n    tag_441:\n        /* \"#utility.yul\":16873:16975   */\n      swap2\n      pop\n        /* \"#utility.yul\":16992:16995   */\n      dup2\n        /* \"#utility.yul\":16985:16995   */\n      swap1\n      pop\n        /* \"#utility.yul\":16726:17001   */\n      swap3\n      swap2\n      pop\n      pop\n      jump\t// out\n        /* \"#utility.yul\":17007:17417   */\n    tag_115:\n        /* \"#utility.yul\":17047:17054   */\n      0x00\n        /* \"#utility.yul\":17070:17090   */\n      tag_443\n        /* \"#utility.yul\":17088:17089   */\n      dup3\n        /* \"#utility.yul\":17070:17090   */\n      tag_213\n      jump\t// in\n    tag_443:\n        /* \"#utility.yul\":17065:17090   */\n      swap2\n      pop\n        /* \"#utility.yul\":17104:17124   */\n      tag_444\n        /* \"#utility.yul\":17122:17123   */\n      dup4\n        /* \"#utility.yul\":17104:17124   */\n      tag_213\n      jump\t// in\n    tag_444:\n        /* \"#utility.yul\":17099:17124   */\n      swap3\n      pop\n        /* \"#utility.yul\":17159:17160   */\n      dup3\n        /* \"#utility.yul\":17156:17157   */\n      dup3\n        /* \"#utility.yul\":17152:17161   */\n      mul\n        /* \"#utility.yul\":17181:17211   */\n      tag_445\n        /* \"#utility.yul\":17199:17210   */\n      dup2\n        /* \"#utility.yul\":17181:17211   */\n      tag_213\n      jump\t// in\n    tag_445:\n        /* \"#utility.yul\":17170:17211   */\n      swap2\n      pop\n        /* \"#utility.yul\":17360:17361   */\n      dup3\n        /* \"#utility.yul\":17351:17358   */\n      dup3\n        /* \"#utility.yul\":17347:17362   */\n      div\n        /* \"#utility.yul\":17344:17345   */\n      dup5\n        /* \"#utility.yul\":17341:17363   */\n      eq\n        /* \"#utility.yul\":17321:17322   */\n      dup4\n        /* \"#utility.yul\":17314:17323   */\n      iszero\n        /* \"#utility.yul\":17294:17377   */\n      or\n        /* \"#utility.yul\":17271:17410   */\n      tag_446\n      jumpi\n        /* \"#utility.yul\":17390:17408   */\n      tag_447\n      tag_252\n      jump\t// in\n    tag_447:\n        /* \"#utility.yul\":17271:17410   */\n    tag_446:\n        /* \"#utility.yul\":17055:17417   */\n      pop\n        /* \"#utility.yul\":17007:17417   */\n      swap3\n      swap2\n      pop\n      pop\n      jump\t// out\n        /* \"#utility.yul\":17423:17603   */\n    tag_255:\n        /* \"#utility.yul\":17471:17548   */\n      0x4e487b7100000000000000000000000000000000000000000000000000000000\n        /* \"#utility.yul\":17468:17469   */\n      0x00\n        /* \"#utility.yul\":17461:17549   */\n      mstore\n        /* \"#utility.yul\":17568:17572   */\n      0x12\n        /* \"#utility.yul\":17565:17566   */\n      0x04\n        /* \"#utility.yul\":17558:17573   */\n      mstore\n        /* \"#utility.yul\":17592:17596   */\n      0x24\n        /* \"#utility.yul\":17589:17590   */\n      0x00\n        /* \"#utility.yul\":17582:17597   */\n      revert\n        /* \"#utility.yul\":17609:17794   */\n    tag_120:\n        /* \"#utility.yul\":17649:17650   */\n      0x00\n        /* \"#utility.yul\":17666:17686   */\n      tag_450\n        /* \"#utility.yul\":17684:17685   */\n      dup3\n        /* \"#utility.yul\":17666:17686   */\n      tag_213\n      jump\t// in\n    tag_450:\n        /* \"#utility.yul\":17661:17686   */\n      swap2\n      pop\n        /* \"#utility.yul\":17700:17720   */\n      tag_451\n        /* \"#utility.yul\":17718:17719   */\n      dup4\n        /* \"#utility.yul\":17700:17720   */\n      tag_213\n      jump\t// in\n    tag_451:\n        /* \"#utility.yul\":17695:17720   */\n      swap3\n      pop\n        /* \"#utility.yul\":17739:17740   */\n      dup3\n        /* \"#utility.yul\":17729:17764   */\n      tag_452\n      jumpi\n        /* \"#utility.yul\":17744:17762   */\n      tag_453\n      tag_255\n      jump\t// in\n    tag_453:\n        /* \"#utility.yul\":17729:17764   */\n    tag_452:\n        /* \"#utility.yul\":17786:17787   */\n      dup3\n        /* \"#utility.yul\":17783:17784   */\n      dup3\n        /* \"#utility.yul\":17779:17788   */\n      div\n        /* \"#utility.yul\":17774:17788   */\n      swap1\n      pop\n        /* \"#utility.yul\":17609:17794   */\n      swap3\n      swap2\n      pop\n      pop\n      jump\t// out\n        /* \"#utility.yul\":17800:17941   */\n    tag_256:\n        /* \"#utility.yul\":17849:17853   */\n      0x00\n        /* \"#utility.yul\":17872:17875   */\n      dup2\n        /* \"#utility.yul\":17864:17875   */\n      swap1\n      pop\n        /* \"#utility.yul\":17895:17898   */\n      dup2\n        /* \"#utility.yul\":17892:17893   */\n      0x00\n        /* \"#utility.yul\":17885:17899   */\n      mstore\n        /* \"#utility.yul\":17929:17933   */\n      0x20\n        /* \"#utility.yul\":17926:17927   */\n      0x00\n        /* \"#utility.yul\":17916:17934   */\n      keccak256\n        /* \"#utility.yul\":17908:17934   */\n      swap1\n      pop\n        /* \"#utility.yul\":17800:17941   */\n      swap2\n      swap1\n      pop\n      jump\t// out\n        /* \"#utility.yul\":17947:18040   */\n    tag_257:\n        /* \"#utility.yul\":17984:17990   */\n      0x00\n        /* \"#utility.yul\":18031:18033   */\n      0x20\n        /* \"#utility.yul\":18026:18028   */\n      0x1f\n        /* \"#utility.yul\":18019:18024   */\n      dup4\n        /* \"#utility.yul\":18015:18029   */\n      add\n        /* \"#utility.yul\":18011:18034   */\n      div\n        /* \"#utility.yul\":18001:18034   */\n      swap1\n      pop\n        /* \"#utility.yul\":17947:18040   */\n      swap2\n      swap1\n      pop\n      jump\t// out\n        /* \"#utility.yul\":18046:18153   */\n    tag_258:\n        /* \"#utility.yul\":18090:18098   */\n      0x00\n        /* \"#utility.yul\":18140:18145   */\n      dup3\n        /* \"#utility.yul\":18134:18138   */\n      dup3\n        /* \"#utility.yul\":18130:18146   */\n      shl\n        /* \"#utility.yul\":18109:18146   */\n      swap1\n      pop\n        /* \"#utility.yul\":18046:18153   */\n      swap3\n      swap2\n      pop\n      pop\n      jump\t// out\n        /* \"#utility.yul\":18159:18552   */\n    tag_259:\n        /* \"#utility.yul\":18228:18234   */\n      0x00\n        /* \"#utility.yul\":18278:18279   */\n      0x08\n        /* \"#utility.yul\":18266:18276   */\n      dup4\n        /* \"#utility.yul\":18262:18280   */\n      mul\n        /* \"#utility.yul\":18301:18398   */\n      tag_458\n        /* \"#utility.yul\":18331:18397   */\n      0xffffffffffffffffffffffffffffffffffffffffffffffffffffffffffffffff\n        /* \"#utility.yul\":18320:18329   */\n      dup3\n        /* \"#utility.yul\":18301:18398   */\n      tag_258\n      jump\t// in\n    tag_458:\n        /* \"#utility.yul\":18419:18458   */\n      tag_459\n        /* \"#utility.yul\":18449:18457   */\n      dup7\n        /* \"#utility.yul\":18438:18447   */\n      dup4\n        /* \"#utility.yul\":18419:18458   */\n      tag_258\n      jump\t// in\n    tag_459:\n        /* \"#utility.yul\":18407:18458   */\n      swap6\n      pop\n        /* \"#utility.yul\":18491:18495   */\n      dup1\n        /* \"#utility.yul\":18487:18496   */\n      not\n        /* \"#utility.yul\":18480:18485   */\n      dup5\n        /* \"#utility.yul\":18476:18497   */\n      and\n        /* \"#utility.yul\":18467:18497   */\n      swap4\n      pop\n        /* \"#utility.yul\":18540:18544   */\n      dup1\n        /* \"#utility.yul\":18530:18538   */\n      dup7\n        /* \"#utility.yul\":18526:18545   */\n      and\n        /* \"#utility.yul\":18519:18524   */\n      dup5\n        /* \"#utility.yul\":18516:18546   */\n      or\n        /* \"#utility.yul\":18506:18546   */\n      swap3\n      pop\n        /* \"#utility.yul\":18235:18552   */\n      pop\n      pop\n        /* \"#utility.yul\":18159:18552   */\n      swap4\n      swap3\n      pop\n      pop\n      pop\n      jump\t// out\n        /* \"#utility.yul\":18558:18618   */\n    tag_260:\n        /* \"#utility.yul\":18586:18589   */\n      0x00\n        /* \"#utility.yul\":18607:18612   */\n      dup2\n        /* \"#utility.yul\":18600:18612   */\n      swap1\n      pop\n        /* \"#utility.yul\":18558:18618   */\n      swap2\n      swap1\n      pop\n      jump\t// out\n        /* \"#utility.yul\":18624:18766   */\n    tag_261:\n        /* \"#utility.yul\":18674:18683   */\n      0x00\n        /* \"#utility.yul\":18707:18760   */\n      tag_462\n        /* \"#utility.yul\":18725:18759   */\n      tag_463\n        /* \"#utility.yul\":18734:18758   */\n      tag_464\n        /* \"#utility.yul\":18752:18757   */\n      dup5\n        /* \"#utility.yul\":18734:18758   */\n      tag_213\n      jump\t// in\n    tag_464:\n        /* \"#utility.yul\":18725:18759   */\n      tag_260\n      jump\t// in\n    tag_463:\n        /* \"#utility.yul\":18707:18760   */\n      tag_213\n      jump\t// in\n    tag_462:\n        /* \"#utility.yul\":18694:18760   */\n      swap1\n      pop\n        /* \"#utility.yul\":18624:18766   */\n      swap2\n      swap1\n      pop\n      jump\t// out\n        /* \"#utility.yul\":18772:18847   */\n    tag_262:\n        /* \"#utility.yul\":18815:18818   */\n      0x00\n        /* \"#utility.yul\":18836:18841   */\n      dup2\n        /* \"#utility.yul\":18829:18841   */\n      swap1\n      pop\n        /* \"#utility.yul\":18772:18847   */\n      swap2\n      swap1\n      pop\n      jump\t// out\n        /* \"#utility.yul\":18853:19122   */\n    tag_263:\n        /* \"#utility.yul\":18963:19002   */\n      tag_467\n        /* \"#utility.yul\":18994:19001   */\n      dup4\n        /* \"#utility.yul\":18963:19002   */\n      tag_261\n      jump\t// in\n    tag_467:\n        /* \"#utility.yul\":19024:19115   */\n      tag_468\n        /* \"#utility.yul\":19073:19114   */\n      tag_469\n        /* \"#utility.yul\":19097:19113   */\n      dup3\n        /* \"#utility.yul\":19073:19114   */\n      tag_262\n      jump\t// in\n    tag_469:\n        /* \"#utility.yul\":19065:19071   */\n      dup5\n        /* \"#utility.yul\":19058:19062   */\n      dup5\n        /* \"#utility.yul\":19052:19063   */\n      sload\n        /* \"#utility.yul\":19024:19115   */\n      tag_259\n      jump\t// in\n    tag_468:\n        /* \"#utility.yul\":19018:19022   */\n      dup3\n        /* \"#utility.yul\":19011:19116   */\n      sstore\n        /* \"#utility.yul\":18929:19122   */\n      pop\n        /* \"#utility.yul\":18853:19122   */\n      pop\n      pop\n      pop\n      jump\t// out\n        /* \"#utility.yul\":19128:19201   */\n    tag_264:\n        /* \"#utility.yul\":19173:19176   */\n      0x00\n        /* \"#utility.yul\":19194:19195   */\n      0x00\n        /* \"#utility.yul\":19187:19195   */\n      swap1\n      pop\n        /* \"#utility.yul\":19128:19201   */\n      swap1\n      jump\t// out\n        /* \"#utility.yul\":19207:19396   */\n    tag_265:\n        /* \"#utility.yul\":19284:19316   */\n      tag_472\n      tag_264\n      jump\t// in\n    tag_472:\n        /* \"#utility.yul\":19325:19390   */\n      tag_473\n        /* \"#utility.yul\":19383:19389   */\n      dup2\n        /* \"#utility.yul\":19375:19381   */\n      dup5\n        /* \"#utility.yul\":19369:19373   */\n      dup5\n        /* \"#utility.yul\":19325:19390   */\n      tag_263\n      jump\t// in\n    tag_473:\n        /* \"#utility.yul\":19260:19396   */\n      pop\n        /* \"#utility.yul\":19207:19396   */\n      pop\n      pop\n      jump\t// out\n        /* \"#utility.yul\":19402:19588   */\n    tag_266:\n        /* \"#utility.yul\":19462:19582   */\n    tag_475:\n        /* \"#utility.yul\":19479:19482   */\n      dup2\n        /* \"#utility.yul\":19472:19477   */\n      dup2\n        /* \"#utility.yul\":19469:19483   */\n      lt\n        /* \"#utility.yul\":19462:19582   */\n      iszero\n      tag_477\n      jumpi\n        /* \"#utility.yul\":19533:19572   */\n      tag_478\n        /* \"#utility.yul\":19570:19571   */\n      0x00\n        /* \"#utility.yul\":19563:19568   */\n      dup3\n        /* \"#utility.yul\":19533:19572   */\n      tag_265\n      jump\t// in\n    tag_478:\n        /* \"#utility.yul\":19506:19507   */\n      0x01\n        /* \"#utility.yul\":19499:19504   */\n      dup2\n        /* \"#utility.yul\":19495:19508   */\n      add\n        /* \"#utility.yul\":19486:19508   */\n      swap1\n      pop\n        /* \"#utility.yul\":19462:19582   */\n      jump(tag_475)\n    tag_477:\n        /* \"#utility.yul\":19402:19588   */\n      pop\n      pop\n      jump\t// out\n        /* \"#utility.yul\":19594:20137   */\n    tag_267:\n        /* \"#utility.yul\":19695:19697   */\n      0x1f\n        /* \"#utility.yul\":19690:19693   */\n      dup3\n        /* \"#utility.yul\":19687:19698   */\n      gt\n        /* \"#utility.yul\":19684:20130   */\n      iszero\n      tag_480\n      jumpi\n        /* \"#utility.yul\":19729:19767   */\n      tag_481\n        /* \"#utility.yul\":19761:19766   */\n      dup2\n        /* \"#utility.yul\":19729:19767   */\n      tag_256\n      jump\t// in\n    tag_481:\n        /* \"#utility.yul\":19813:19842   */\n      tag_482\n        /* \"#utility.yul\":19831:19841   */\n      dup5\n        /* \"#utility.yul\":19813:19842   */\n      tag_257\n      jump\t// in\n    tag_482:\n        /* \"#utility.yul\":19803:19811   */\n      dup2\n        /* \"#utility.yul\":19799:19843   */\n      add\n        /* \"#utility.yul\":19996:19998   */\n      0x20\n        /* \"#utility.yul\":19984:19994   */\n      dup6\n        /* \"#utility.yul\":19981:19999   */\n      lt\n        /* \"#utility.yul\":19978:20027   */\n      iszero\n      tag_483\n      jumpi\n        /* \"#utility.yul\":20017:20025   */\n      dup2\n        /* \"#utility.yul\":20002:20025   */\n      swap1\n      pop\n        /* \"#utility.yul\":19978:20027   */\n    tag_483:\n        /* \"#utility.yul\":20040:20120   */\n      tag_484\n        /* \"#utility.yul\":20096:20118   */\n      tag_485\n        /* \"#utility.yul\":20114:20117   */\n      dup6\n        /* \"#utility.yul\":20096:20118   */\n      tag_257\n      jump\t// in\n    tag_485:\n        /* \"#utility.yul\":20086:20094   */\n      dup4\n        /* \"#utility.yul\":20082:20119   */\n      add\n        /* \"#utility.yul\":20069:20080   */\n      dup3\n        /* \"#utility.yul\":20040:20120   */\n      tag_266\n      jump\t// in\n    tag_484:\n        /* \"#utility.yul\":19699:20130   */\n      pop\n      pop\n        /* \"#utility.yul\":19684:20130   */\n    tag_480:\n        /* \"#utility.yul\":19594:20137   */\n      pop\n      pop\n      pop\n      jump\t// out\n        /* \"#utility.yul\":20143:20260   */\n    tag_268:\n        /* \"#utility.yul\":20197:20205   */\n      0x00\n        /* \"#utility.yul\":20247:20252   */\n      dup3\n        /* \"#utility.yul\":20241:20245   */\n      dup3\n        /* \"#utility.yul\":20237:20253   */\n      shr\n        /* \"#utility.yul\":20216:20253   */\n      swap1\n      pop\n        /* \"#utility.yul\":20143:20260   */\n      swap3\n      swap2\n      pop\n      pop\n      jump\t// out\n        /* \"#utility.yul\":20266:20435   */\n    tag_269:\n        /* \"#utility.yul\":20310:20316   */\n      0x00\n        /* \"#utility.yul\":20343:20394   */\n      tag_488\n        /* \"#utility.yul\":20391:20392   */\n      0x00\n        /* \"#utility.yul\":20387:20393   */\n      not\n        /* \"#utility.yul\":20379:20384   */\n      dup5\n        /* \"#utility.yul\":20376:20377   */\n      0x08\n        /* \"#utility.yul\":20372:20385   */\n      mul\n        /* \"#utility.yul\":20343:20394   */\n      tag_268\n      jump\t// in\n    tag_488:\n        /* \"#utility.yul\":20339:20395   */\n      not\n        /* \"#utility.yul\":20424:20428   */\n      dup1\n        /* \"#utility.yul\":20418:20422   */\n      dup4\n        /* \"#utility.yul\":20414:20429   */\n      and\n        /* \"#utility.yul\":20404:20429   */\n      swap2\n      pop\n        /* \"#utility.yul\":20317:20435   */\n      pop\n        /* \"#utility.yul\":20266:20435   */\n      swap3\n      swap2\n      pop\n      pop\n      jump\t// out\n        /* \"#utility.yul\":20440:20735   */\n    tag_270:\n        /* \"#utility.yul\":20516:20520   */\n      0x00\n        /* \"#utility.yul\":20662:20691   */\n      tag_490\n        /* \"#utility.yul\":20687:20690   */\n      dup4\n        /* \"#utility.yul\":20681:20685   */\n      dup4\n        /* \"#utility.yul\":20662:20691   */\n      tag_269\n      jump\t// in\n    tag_490:\n        /* \"#utility.yul\":20654:20691   */\n      swap2\n      pop\n        /* \"#utility.yul\":20724:20727   */\n      dup3\n        /* \"#utility.yul\":20721:20722   */\n      0x02\n        /* \"#utility.yul\":20717:20728   */\n      mul\n        /* \"#utility.yul\":20711:20715   */\n      dup3\n        /* \"#utility.yul\":20708:20729   */\n      or\n        /* \"#utility.yul\":20700:20729   */\n      swap1\n      pop\n        /* \"#utility.yul\":20440:20735   */\n      swap3\n      swap2\n      pop\n      pop\n      jump\t// out\n        /* \"#utility.yul\":20740:22135   */\n    tag_133:\n        /* \"#utility.yul\":20857:20894   */\n      tag_492\n        /* \"#utility.yul\":20890:20893   */\n      dup3\n        /* \"#utility.yul\":20857:20894   */\n      tag_219\n      jump\t// in\n    tag_492:\n        /* \"#utility.yul\":20959:20977   */\n      0xffffffffffffffff\n        /* \"#utility.yul\":20951:20957   */\n      dup2\n        /* \"#utility.yul\":20948:20978   */\n      gt\n        /* \"#utility.yul\":20945:21001   */\n      iszero\n      tag_493\n      jumpi\n        /* \"#utility.yul\":20981:20999   */\n      tag_494\n      tag_167\n      jump\t// in\n    tag_494:\n        /* \"#utility.yul\":20945:21001   */\n    tag_493:\n        /* \"#utility.yul\":21025:21063   */\n      tag_495\n        /* \"#utility.yul\":21057:21061   */\n      dup3\n        /* \"#utility.yul\":21051:21062   */\n      sload\n        /* \"#utility.yul\":21025:21063   */\n      tag_88\n      jump\t// in\n    tag_495:\n        /* \"#utility.yul\":21110:21177   */\n      tag_496\n        /* \"#utility.yul\":21170:21176   */\n      dup3\n        /* \"#utility.yul\":21162:21168   */\n      dup3\n        /* \"#utility.yul\":21156:21160   */\n      dup6\n        /* \"#utility.yul\":21110:21177   */\n      tag_267\n      jump\t// in\n    tag_496:\n        /* \"#utility.yul\":21204:21205   */\n      0x00\n        /* \"#utility.yul\":21228:21232   */\n      0x20\n        /* \"#utility.yul\":21215:21232   */\n      swap1\n      pop\n        /* \"#utility.yul\":21260:21262   */\n      0x1f\n        /* \"#utility.yul\":21252:21258   */\n      dup4\n        /* \"#utility.yul\":21249:21263   */\n      gt\n        /* \"#utility.yul\":21277:21278   */\n      0x01\n        /* \"#utility.yul\":21272:21890   */\n      dup2\n      eq\n      tag_498\n      jumpi\n        /* \"#utility.yul\":21934:21935   */\n      0x00\n        /* \"#utility.yul\":21951:21957   */\n      dup5\n        /* \"#utility.yul\":21948:22025   */\n      iszero\n      tag_499\n      jumpi\n        /* \"#utility.yul\":22000:22009   */\n      dup3\n        /* \"#utility.yul\":21995:21998   */\n      dup8\n        /* \"#utility.yul\":21991:22010   */\n      add\n        /* \"#utility.yul\":21985:22011   */\n      mload\n        /* \"#utility.yul\":21976:22011   */\n      swap1\n      pop\n        /* \"#utility.yul\":21948:22025   */\n    tag_499:\n        /* \"#utility.yul\":22051:22118   */\n      tag_500\n        /* \"#utility.yul\":22111:22117   */\n      dup6\n        /* \"#utility.yul\":22104:22109   */\n      dup3\n        /* \"#utility.yul\":22051:22118   */\n      tag_270\n      jump\t// in\n    tag_500:\n        /* \"#utility.yul\":22045:22049   */\n      dup7\n        /* \"#utility.yul\":22038:22119   */\n      sstore\n        /* \"#utility.yul\":21907:22129   */\n      pop\n        /* \"#utility.yul\":21242:22129   */\n      jump(tag_497)\n        /* \"#utility.yul\":21272:21890   */\n    tag_498:\n        /* \"#utility.yul\":21324:21328   */\n      0x1f\n        /* \"#utility.yul\":21320:21329   */\n      not\n        /* \"#utility.yul\":21312:21318   */\n      dup5\n        /* \"#utility.yul\":21308:21330   */\n      and\n        /* \"#utility.yul\":21358:21395   */\n      tag_501\n        /* \"#utility.yul\":21390:21394   */\n      dup7\n        /* \"#utility.yul\":21358:21395   */\n      tag_256\n      jump\t// in\n    tag_501:\n        /* \"#utility.yul\":21417:21418   */\n      0x00\n        /* \"#utility.yul\":21431:21639   */\n    tag_502:\n        /* \"#utility.yul\":21445:21452   */\n      dup3\n        /* \"#utility.yul\":21442:21443   */\n      dup2\n        /* \"#utility.yul\":21439:21453   */\n      lt\n        /* \"#utility.yul\":21431:21639   */\n      iszero\n      tag_504\n      jumpi\n        /* \"#utility.yul\":21524:21533   */\n      dup5\n        /* \"#utility.yul\":21519:21522   */\n      dup10\n        /* \"#utility.yul\":21515:21534   */\n      add\n        /* \"#utility.yul\":21509:21535   */\n      mload\n        /* \"#utility.yul\":21501:21507   */\n      dup3\n        /* \"#utility.yul\":21494:21536   */\n      sstore\n        /* \"#utility.yul\":21575:21576   */\n      0x01\n        /* \"#utility.yul\":21567:21573   */\n      dup3\n        /* \"#utility.yul\":21563:21577   */\n      add\n        /* \"#utility.yul\":21553:21577   */\n      swap2\n      pop\n        /* \"#utility.yul\":21622:21624   */\n      0x20\n        /* \"#utility.yul\":21611:21620   */\n      dup6\n        /* \"#utility.yul\":21607:21625   */\n      add\n        /* \"#utility.yul\":21594:21625   */\n      swap5\n      pop\n        /* \"#utility.yul\":21468:21472   */\n      0x20\n        /* \"#utility.yul\":21465:21466   */\n      dup2\n        /* \"#utility.yul\":21461:21473   */\n      add\n        /* \"#utility.yul\":21456:21473   */\n      swap1\n      pop\n        /* \"#utility.yul\":21431:21639   */\n      jump(tag_502)\n    tag_504:\n        /* \"#utility.yul\":21667:21673   */\n      dup7\n        /* \"#utility.yul\":21658:21665   */\n      dup4\n        /* \"#utility.yul\":21655:21674   */\n      lt\n        /* \"#utility.yul\":21652:21831   */\n      iszero\n      tag_505\n      jumpi\n        /* \"#utility.yul\":21725:21734   */\n      dup5\n        /* \"#utility.yul\":21720:21723   */\n      dup10\n        /* \"#utility.yul\":21716:21735   */\n      add\n        /* \"#utility.yul\":21710:21736   */\n      mload\n        /* \"#utility.yul\":21768:21816   */\n      tag_506\n        /* \"#utility.yul\":21810:21814   */\n      0x1f\n        /* \"#utility.yul\":21802:21808   */\n      dup10\n        /* \"#utility.yul\":21798:21815   */\n      and\n        /* \"#utility.yul\":21787:21796   */\n      dup3\n        /* \"#utility.yul\":21768:21816   */\n      tag_269\n      jump\t// in\n    tag_506:\n        /* \"#utility.yul\":21760:21766   */\n      dup4\n        /* \"#utility.yul\":21753:21817   */\n      sstore\n        /* \"#utility.yul\":21675:21831   */\n      pop\n        /* \"#utility.yul\":21652:21831   */\n    tag_505:\n        /* \"#utility.yul\":21877:21878   */\n      0x01\n        /* \"#utility.yul\":21873:21874   */\n      0x02\n        /* \"#utility.yul\":21865:21871   */\n      dup9\n        /* \"#utility.yul\":21861:21875   */\n      mul\n        /* \"#utility.yul\":21857:21879   */\n      add\n        /* \"#utility.yul\":21851:21855   */\n      dup9\n        /* \"#utility.yul\":21844:21880   */\n      sstore\n        /* \"#utility.yul\":21279:21890   */\n      pop\n      pop\n      pop\n        /* \"#utility.yul\":21242:22129   */\n    tag_497:\n      pop\n        /* \"#utility.yul\":20832:22135   */\n      pop\n      pop\n      pop\n        /* \"#utility.yul\":20740:22135   */\n      pop\n      pop\n      jump\t// out\n        /* \"#utility.yul\":22141:22374   */\n    tag_136:\n        /* \"#utility.yul\":22180:22183   */\n      0x00\n        /* \"#utility.yul\":22203:22227   */\n      tag_508\n        /* \"#utility.yul\":22221:22226   */\n      dup3\n        /* \"#utility.yul\":22203:22227   */\n      tag_213\n      jump\t// in\n    tag_508:\n        /* \"#utility.yul\":22194:22227   */\n      swap2\n      pop\n        /* \"#utility.yul\":22249:22315   */\n      0xffffffffffffffffffffffffffffffffffffffffffffffffffffffffffffffff\n        /* \"#utility.yul\":22242:22247   */\n      dup3\n        /* \"#utility.yul\":22239:22316   */\n      sub\n        /* \"#utility.yul\":22236:22339   */\n      tag_509\n      jumpi\n        /* \"#utility.yul\":22319:22337   */\n      tag_510\n      tag_252\n      jump\t// in\n    tag_510:\n        /* \"#utility.yul\":22236:22339   */\n    tag_509:\n        /* \"#utility.yul\":22366:22367   */\n      0x01\n        /* \"#utility.yul\":22359:22364   */\n      dup3\n        /* \"#utility.yul\":22355:22368   */\n      add\n        /* \"#utility.yul\":22348:22368   */\n      swap1\n      pop\n        /* \"#utility.yul\":22141:22374   */\n      swap2\n      swap1\n      pop\n      jump\t// out\n        /* \"#utility.yul\":22404:23278   */\n    tag_271:\n        /* \"#utility.yul\":22507:22510   */\n      0x00\n        /* \"#utility.yul\":22544:22549   */\n      dup2\n        /* \"#utility.yul\":22538:22550   */\n      sload\n        /* \"#utility.yul\":22573:22609   */\n      tag_512\n        /* \"#utility.yul\":22599:22608   */\n      dup2\n        /* \"#utility.yul\":22573:22609   */\n      tag_88\n      jump\t// in\n    tag_512:\n        /* \"#utility.yul\":22625:22714   */\n      tag_513\n        /* \"#utility.yul\":22707:22713   */\n      dup2\n        /* \"#utility.yul\":22702:22705   */\n      dup7\n        /* \"#utility.yul\":22625:22714   */\n      tag_253\n      jump\t// in\n    tag_513:\n        /* \"#utility.yul\":22618:22714   */\n      swap5\n      pop\n        /* \"#utility.yul\":22745:22746   */\n      0x01\n        /* \"#utility.yul\":22734:22743   */\n      dup3\n        /* \"#utility.yul\":22730:22747   */\n      and\n        /* \"#utility.yul\":22761:22762   */\n      0x00\n        /* \"#utility.yul\":22756:22922   */\n      dup2\n      eq\n      tag_515\n      jumpi\n        /* \"#utility.yul\":22936:22937   */\n      0x01\n        /* \"#utility.yul\":22931:23272   */\n      dup2\n      eq\n      tag_516\n      jumpi\n        /* \"#utility.yul\":22723:23272   */\n      jump(tag_514)\n        /* \"#utility.yul\":22756:22922   */\n    tag_515:\n        /* \"#utility.yul\":22840:22844   */\n      0xff\n        /* \"#utility.yul\":22836:22845   */\n      not\n        /* \"#utility.yul\":22825:22834   */\n      dup4\n        /* \"#utility.yul\":22821:22846   */\n      and\n        /* \"#utility.yul\":22816:22819   */\n      dup7\n        /* \"#utility.yul\":22809:22847   */\n      mstore\n        /* \"#utility.yul\":22902:22908   */\n      dup2\n        /* \"#utility.yul\":22895:22909   */\n      iszero\n        /* \"#utility.yul\":22888:22910   */\n      iszero\n        /* \"#utility.yul\":22880:22886   */\n      dup3\n        /* \"#utility.yul\":22876:22911   */\n      mul\n        /* \"#utility.yul\":22871:22874   */\n      dup7\n        /* \"#utility.yul\":22867:22912   */\n      add\n        /* \"#utility.yul\":22860:22912   */\n      swap4\n      pop\n        /* \"#utility.yul\":22756:22922   */\n      jump(tag_514)\n        /* \"#utility.yul\":22931:23272   */\n    tag_516:\n        /* \"#utility.yul\":22998:23036   */\n      tag_517\n        /* \"#utility.yul\":23030:23035   */\n      dup6\n        /* \"#utility.yul\":22998:23036   */\n      tag_256\n      jump\t// in\n    tag_517:\n        /* \"#utility.yul\":23058:23059   */\n      0x00\n        /* \"#utility.yul\":23072:23226   */\n    tag_518:\n        /* \"#utility.yul\":23086:23092   */\n      dup4\n        /* \"#utility.yul\":23083:23084   */\n      dup2\n        /* \"#utility.yul\":23080:23093   */\n      lt\n        /* \"#utility.yul\":23072:23226   */\n      iszero\n      tag_520\n      jumpi\n        /* \"#utility.yul\":23160:23167   */\n      dup2\n        /* \"#utility.yul\":23154:23168   */\n      sload\n        /* \"#utility.yul\":23150:23151   */\n      dup2\n        /* \"#utility.yul\":23145:23148   */\n      dup10\n        /* \"#utility.yul\":23141:23152   */\n      add\n        /* \"#utility.yul\":23134:23169   */\n      mstore\n        /* \"#utility.yul\":23210:23211   */\n      0x01\n        /* \"#utility.yul\":23201:23208   */\n      dup3\n        /* \"#utility.yul\":23197:23212   */\n      add\n        /* \"#utility.yul\":23186:23212   */\n      swap2\n      pop\n        /* \"#utility.yul\":23108:23112   */\n      0x20\n        /* \"#utility.yul\":23105:23106   */\n      dup2\n        /* \"#utility.yul\":23101:23113   */\n      add\n        /* \"#utility.yul\":23096:23113   */\n      swap1\n      pop\n        /* \"#utility.yul\":23072:23226   */\n      jump(tag_518)\n    tag_520:\n        /* \"#utility.yul\":23255:23261   */\n      dup4\n        /* \"#utility.yul\":23250:23253   */\n      dup9\n        /* \"#utility.yul\":23246:23262   */\n      add\n        /* \"#utility.yul\":23239:23262   */\n      swap6\n      pop\n        /* \"#utility.yul\":22938:23272   */\n      pop\n      pop\n        /* \"#utility.yul\":22723:23272   */\n    tag_514:\n      pop\n        /* \"#utility.yul\":22511:23278   */\n      pop\n      pop\n        /* \"#utility.yul\":22404:23278   */\n      swap3\n      swap2\n      pop\n      pop\n      jump\t// out\n        /* \"#utility.yul\":23284:23553   */\n    tag_146:\n        /* \"#utility.yul\":23413:23416   */\n      0x00\n        /* \"#utility.yul\":23435:23527   */\n      tag_522\n        /* \"#utility.yul\":23523:23526   */\n      dup3\n        /* \"#utility.yul\":23514:23520   */\n      dup5\n        /* \"#utility.yul\":23435:23527   */\n      tag_271\n      jump\t// in\n    tag_522:\n        /* \"#utility.yul\":23428:23527   */\n      swap2\n      pop\n        /* \"#utility.yul\":23544:23547   */\n      dup2\n        /* \"#utility.yul\":23537:23547   */\n      swap1\n      pop\n        /* \"#utility.yul\":23284:23553   */\n      swap3\n      swap2\n      pop\n      pop\n      jump\t// out\n        /* \"#utility.yul\":23559:23796   */\n    tag_272:\n        /* \"#utility.yul\":23699:23733   */\n      0x4e6f20617661696c61626c65207469636b65747320666f722074686520737065\n        /* \"#utility.yul\":23695:23696   */\n      0x00\n        /* \"#utility.yul\":23687:23693   */\n      dup3\n        /* \"#utility.yul\":23683:23697   */\n      add\n        /* \"#utility.yul\":23676:23734   */\n      mstore\n        /* \"#utility.yul\":23768:23788   */\n      0x6369666965642064657374696e6174696f6e0000000000000000000000000000\n        /* \"#utility.yul\":23763:23765   */\n      0x20\n        /* \"#utility.yul\":23755:23761   */\n      dup3\n        /* \"#utility.yul\":23751:23766   */\n      add\n        /* \"#utility.yul\":23744:23789   */\n      mstore\n        /* \"#utility.yul\":23559:23796   */\n      pop\n      jump\t// out\n        /* \"#utility.yul\":23802:24168   */\n    tag_273:\n        /* \"#utility.yul\":23944:23947   */\n      0x00\n        /* \"#utility.yul\":23965:24032   */\n      tag_525\n        /* \"#utility.yul\":24029:24031   */\n      0x32\n        /* \"#utility.yul\":24024:24027   */\n      dup4\n        /* \"#utility.yul\":23965:24032   */\n      tag_220\n      jump\t// in\n    tag_525:\n        /* \"#utility.yul\":23958:24032   */\n      swap2\n      pop\n        /* \"#utility.yul\":24041:24134   */\n      tag_526\n        /* \"#utility.yul\":24130:24133   */\n      dup3\n        /* \"#utility.yul\":24041:24134   */\n      tag_272\n      jump\t// in\n    tag_526:\n        /* \"#utility.yul\":24159:24161   */\n      0x40\n        /* \"#utility.yul\":24154:24157   */\n      dup3\n        /* \"#utility.yul\":24150:24162   */\n      add\n        /* \"#utility.yul\":24143:24162   */\n      swap1\n      pop\n        /* \"#utility.yul\":23802:24168   */\n      swap2\n      swap1\n      pop\n      jump\t// out\n        /* \"#utility.yul\":24174:24593   */\n    tag_209:\n        /* \"#utility.yul\":24340:24344   */\n      0x00\n        /* \"#utility.yul\":24378:24380   */\n      0x20\n        /* \"#utility.yul\":24367:24376   */\n      dup3\n        /* \"#utility.yul\":24363:24381   */\n      add\n        /* \"#utility.yul\":24355:24381   */\n      swap1\n      pop\n        /* \"#utility.yul\":24427:24436   */\n      dup2\n        /* \"#utility.yul\":24421:24425   */\n      dup2\n        /* \"#utility.yul\":24417:24437   */\n      sub\n        /* \"#utility.yul\":24413:24414   */\n      0x00\n        /* \"#utility.yul\":24402:24411   */\n      dup4\n        /* \"#utility.yul\":24398:24415   */\n      add\n        /* \"#utility.yul\":24391:24438   */\n      mstore\n        /* \"#utility.yul\":24455:24586   */\n      tag_528\n        /* \"#utility.yul\":24581:24585   */\n      dup2\n        /* \"#utility.yul\":24455:24586   */\n      tag_273\n      jump\t// in\n    tag_528:\n        /* \"#utility.yul\":24447:24586   */\n      swap1\n      pop\n        /* \"#utility.yul\":24174:24593   */\n      swap2\n      swap1\n      pop\n      jump\t// out\n\n    auxdata: 0xa26469706673582212205c03ddafee56d0b8dea905ec45642726f6271c5d1c4b073d29bda0247f4f38f564736f6c634300081c0033\n}\n","bytecode":{"linkReferences":{},"object":"608060405234801561000f575f5ffd5b506040516127b13803806127b1833981810160405281019061003191906105f5565b335f5f6101000a81548173ffffffffffffffffffffffffffffffffffffffff021916908373ffffffffffffffffffffffffffffffffffffffff1602179055505f601381905550600182908060018154018082558091505060019003905f5260205f20015f9091909190915090816100a89190610856565b50600281908060018154018082558091505060019003905f5260205f20015f90919091909150556013546003836040516100e2919061095f565b9081526020016040518091039020819055506101053383836102ac60201b60201c565b600360045f600c811061011b5761011a610975565b5b0181905550600260046001600c811061013757610136610975565b5b01819055506004806002600c811061015257610151610975565b5b0181905550600560046003600c811061016e5761016d610975565b5b01819055506003600480600c811061018957610188610975565b5b0181905550600c60046005600c81106101a5576101a4610975565b5b0181905550600b60046006600c81106101c1576101c0610975565b5b0181905550600c60046007600c81106101dd576101dc610975565b5b0181905550600f60046008600c81106101f9576101f8610975565b5b0181905550600e60046009600c811061021557610214610975565b5b0181905550600b6004600a600c811061023157610230610975565b5b0181905550600d6004600b600c811061024d5761024c610975565b5b0181905550600160105f6003811061026857610267610975565b5b01819055506002601060016003811061028457610283610975565b5b0181905550600360106002600381106102a05761029f610975565b5b01819055505050610a16565b5f5f9054906101000a900473ffffffffffffffffffffffffffffffffffffffff1673ffffffffffffffffffffffffffffffffffffffff163373ffffffffffffffffffffffffffffffffffffffff1614610303575f5ffd5b5f5f90505b601e81101561046f575f60155490506040518060e001604052808673ffffffffffffffffffffffffffffffffffffffff16815260200185815260200184815260200183815260200160405180602001604052805f81525081526020015f151581526020016001151581525060145f8381526020019081526020015f205f820151815f015f6101000a81548173ffffffffffffffffffffffffffffffffffffffff021916908373ffffffffffffffffffffffffffffffffffffffff16021790555060208201518160010190816103dd9190610856565b50604082015181600201556060820151816003015560808201518160040190816104079190610856565b5060a0820151816005015f6101000a81548160ff02191690831515021790555060c08201518160050160016101000a81548160ff02191690831515021790555090505060155f81548092919061045c906109cf565b9190505550508080600101915050610308565b50505050565b5f604051905090565b5f5ffd5b5f5ffd5b5f5ffd5b5f5ffd5b5f601f19601f8301169050919050565b7f4e487b71000000000000000000000000000000000000000000000000000000005f52604160045260245ffd5b6104d48261048e565b810181811067ffffffffffffffff821117156104f3576104f261049e565b5b80604052505050565b5f610505610475565b905061051182826104cb565b919050565b5f67ffffffffffffffff8211156105305761052f61049e565b5b6105398261048e565b9050602081019050919050565b8281835e5f83830152505050565b5f61056661056184610516565b6104fc565b9050828152602081018484840111156105825761058161048a565b5b61058d848285610546565b509392505050565b5f82601f8301126105a9576105a8610486565b5b81516105b9848260208601610554565b91505092915050565b5f819050919050565b6105d4816105c2565b81146105de575f5ffd5b50565b5f815190506105ef816105cb565b92915050565b5f5f6040838503121561060b5761060a61047e565b5b5f83015167ffffffffffffffff81111561062857610627610482565b5b61063485828601610595565b9250506020610645858286016105e1565b9150509250929050565b5f81519050919050565b7f4e487b71000000000000000000000000000000000000000000000000000000005f52602260045260245ffd5b5f600282049050600182168061069d57607f821691505b6020821081036106b0576106af610659565b5b50919050565b5f819050815f5260205f209050919050565b5f6020601f8301049050919050565b5f82821b905092915050565b5f600883026107127fffffffffffffffffffffffffffffffffffffffffffffffffffffffffffffffff826106d7565b61071c86836106d7565b95508019841693508086168417925050509392505050565b5f819050919050565b5f61075761075261074d846105c2565b610734565b6105c2565b9050919050565b5f819050919050565b6107708361073d565b61078461077c8261075e565b8484546106e3565b825550505050565b5f5f905090565b61079b61078c565b6107a6818484610767565b505050565b5b818110156107c9576107be5f82610793565b6001810190506107ac565b5050565b601f82111561080e576107df816106b6565b6107e8846106c8565b810160208510156107f7578190505b61080b610803856106c8565b8301826107ab565b50505b505050565b5f82821c905092915050565b5f61082e5f1984600802610813565b1980831691505092915050565b5f610846838361081f565b9150826002028217905092915050565b61085f8261064f565b67ffffffffffffffff8111156108785761087761049e565b5b6108828254610686565b61088d8282856107cd565b5f60209050601f8311600181146108be575f84156108ac578287015190505b6108b6858261083b565b86555061091d565b601f1984166108cc866106b6565b5f5b828110156108f3578489015182556001820191506020850194506020810190506108ce565b86831015610910578489015161090c601f89168261081f565b8355505b6001600288020188555050505b505050505050565b5f81905092915050565b5f6109398261064f565b6109438185610925565b9350610953818560208601610546565b80840191505092915050565b5f61096a828461092f565b915081905092915050565b7f4e487b71000000000000000000000000000000000000000000000000000000005f52603260045260245ffd5b7f4e487b71000000000000000000000000000000000000000000000000000000005f52601160045260245ffd5b5f6109d9826105c2565b91507fffffffffffffffffffffffffffffffffffffffffffffffffffffffffffffffff8203610a0b57610a0a6109a2565b5b600182019050919050565b611d8e80610a235f395ff3fe6080604052600436106100c1575f3560e01c80636031a52f1161007e578063908921fc11610058578063908921fc146102ad578063ad03fe70146102d7578063cb2cc82a14610313578063ea6e358e1461034f576100c1565b80636031a52f1461020b578063695dc67e146102355780638dd4ba2e14610271576100c1565b8063033fab35146100c557806307819bd6146101075780631165e6ab14610143578063195c14451461017f5780634afe9f7b146101bb5780635e583e37146101e3575b5f5ffd5b3480156100d0575f5ffd5b506100eb60048036038101906100e691906110dc565b61036b565b6040516100fe97969594939291906111df565b60405180910390f35b348015610112575f5ffd5b5061012d600480360381019061012891906113b0565b6104ed565b60405161013a9190611430565b60405180910390f35b34801561014e575f5ffd5b5061016960048036038101906101649190611473565b6105dc565b604051610176919061149e565b60405180910390f35b34801561018a575f5ffd5b506101a560048036038101906101a091906110dc565b610633565b6040516101b29190611430565b60405180910390f35b3480156101c6575f5ffd5b506101e160048036038101906101dc91906114b7565b610653565b005b3480156101ee575f5ffd5b5061020960048036038101906102049190611523565b61081c565b005b348015610216575f5ffd5b5061021f610912565b60405161022c9190611430565b60405180910390f35b348015610240575f5ffd5b5061025b600480360381019061025691906110dc565b610918565b6040516102689190611430565b60405180910390f35b34801561027c575f5ffd5b50610297600480360381019061029291906110dc565b610931565b6040516102a4919061157d565b60405180910390f35b3480156102b8575f5ffd5b506102c16109d7565b6040516102ce919061159d565b60405180910390f35b3480156102e2575f5ffd5b506102fd60048036038101906102f89190611473565b6109fb565b60405161030a9190611786565b60405180910390f35b34801561031e575f5ffd5b50610339600480360381019061033491906110dc565b610dd8565b6040516103469190611430565b60405180910390f35b610369600480360381019061036491906113b0565b610df1565b005b6014602052805f5260405f205f91509050805f015f9054906101000a900473ffffffffffffffffffffffffffffffffffffffff16908060010180546103af906117d3565b80601f01602080910402602001604051908101604052809291908181526020018280546103db906117d3565b80156104265780601f106103fd57610100808354040283529160200191610426565b820191905f5260205f20905b81548152906001019060200180831161040957829003601f168201915b505050505090806002015490806003015490806004018054610447906117d3565b80601f0160208091040260200160405190810160405280929190818152602001828054610473906117d3565b80156104be5780601f10610495576101008083540402835291602001916104be565b820191905f5260205f20905b8154815290600101906020018083116104a157829003601f168201915b505050505090806005015f9054906101000a900460ff16908060050160019054906101000a900460ff16905087565b5f5f60106001856104fe9190611830565b6003811061050f5761050e611863565b5b015490505f60046001876105239190611830565b600c811061053457610533611863565b5b015490505f82600260038a60405161054c91906118ca565b9081526020016040518091039020548154811061056c5761056b611863565b5b905f5260205f20015461057f91906118e0565b905084156105975760028161059491906118e0565b90505b81600a11156105b65781816105ac919061194e565b93505050506105d4565b600a826105c39190611830565b816105ce91906118e0565b93505050505b949350505050565b5f5f5f9054906101000a900473ffffffffffffffffffffffffffffffffffffffff1673ffffffffffffffffffffffffffffffffffffffff168273ffffffffffffffffffffffffffffffffffffffff16149050919050565b60028181548110610642575f80fd5b905f5260205f20015f915090505481565b5f5f9054906101000a900473ffffffffffffffffffffffffffffffffffffffff1673ffffffffffffffffffffffffffffffffffffffff163373ffffffffffffffffffffffffffffffffffffffff16146106aa575f5ffd5b5f5f90505b601e811015610816575f60155490506040518060e001604052808673ffffffffffffffffffffffffffffffffffffffff16815260200185815260200184815260200183815260200160405180602001604052805f81525081526020015f151581526020016001151581525060145f8381526020019081526020015f205f820151815f015f6101000a81548173ffffffffffffffffffffffffffffffffffffffff021916908373ffffffffffffffffffffffffffffffffffffffff16021790555060208201518160010190816107849190611b1e565b50604082015181600201556060820151816003015560808201518160040190816107ae9190611b1e565b5060a0820151816005015f6101000a81548160ff02191690831515021790555060c08201518160050160016101000a81548160ff02191690831515021790555090505060155f81548092919061080390611bed565b91905055505080806001019150506106af565b50505050565b5f5f9054906101000a900473ffffffffffffffffffffffffffffffffffffffff1673ffffffffffffffffffffffffffffffffffffffff163373ffffffffffffffffffffffffffffffffffffffff1614610873575f5ffd5b8160405160200161088491906118ca565b6040516020818303038152906040528051906020012060016003846040516108ac91906118ca565b908152602001604051809103902054815481106108cc576108cb611863565b5b905f5260205f20016040516020016108e49190611cb4565b6040516020818303038152906040528051906020012003610903575f5ffd5b61090e338383610653565b5050565b60155481565b60108160038110610927575f80fd5b015f915090505481565b60018181548110610940575f80fd5b905f5260205f20015f915090508054610958906117d3565b80601f0160208091040260200160405190810160405280929190818152602001828054610984906117d3565b80156109cf5780601f106109a6576101008083540402835291602001916109cf565b820191905f5260205f20905b8154815290600101906020018083116109b257829003601f168201915b505050505081565b5f5f9054906101000a900473ffffffffffffffffffffffffffffffffffffffff1681565b60605f5f90505f5f90505b601554811015610abd578373ffffffffffffffffffffffffffffffffffffffff1660145f8381526020019081526020015f205f015f9054906101000a900473ffffffffffffffffffffffffffffffffffffffff1673ffffffffffffffffffffffffffffffffffffffff16148015610a9c575060145f8281526020019081526020015f2060050160019054906101000a900460ff16155b15610ab0578180610aac90611bed565b9250505b8080600101915050610a06565b505f8167ffffffffffffffff811115610ad957610ad8611262565b5b604051908082528060200260200182016040528015610b1257816020015b610aff611046565b815260200190600190039081610af75790505b5090505f5f90505f5f90505b601554811015610dcc578573ffffffffffffffffffffffffffffffffffffffff1660145f8381526020019081526020015f205f015f9054906101000a900473ffffffffffffffffffffffffffffffffffffffff1673ffffffffffffffffffffffffffffffffffffffff16148015610bb4575060145f8281526020019081526020015f2060050160019054906101000a900460ff16155b15610dbf5760145f8281526020019081526020015f206040518060e00160405290815f82015f9054906101000a900473ffffffffffffffffffffffffffffffffffffffff1673ffffffffffffffffffffffffffffffffffffffff1673ffffffffffffffffffffffffffffffffffffffff168152602001600182018054610c39906117d3565b80601f0160208091040260200160405190810160405280929190818152602001828054610c65906117d3565b8015610cb05780601f10610c8757610100808354040283529160200191610cb0565b820191905f5260205f20905b815481529060010190602001808311610c9357829003601f168201915b505050505081526020016002820154815260200160038201548152602001600482018054610cdd906117d3565b80601f0160208091040260200160405190810160405280929190818152602001828054610d09906117d3565b8015610d545780601f10610d2b57610100808354040283529160200191610d54565b820191905f5260205f20905b815481529060010190602001808311610d3757829003601f168201915b50505050508152602001600582015f9054906101000a900460ff161515151581526020016005820160019054906101000a900460ff161515151581525050838381518110610da557610da4611863565b5b60200260200101819052508180610dbb90611bed565b9250505b8080600101915050610b1e565b50819350505050919050565b600481600c8110610de7575f80fd5b015f915090505481565b610dfd848484846104ed565b3414610e07575f5ffd5b5f5f90505f5f90505b601554811015610ffe575f60145f8381526020019081526020015f20905086604051602001610e3f91906118ca565b6040516020818303038152906040528051906020012081600101604051602001610e699190611cb4565b60405160208183030381529060405280519060200120148015610e9a57508060050160019054906101000a900460ff165b15610ff05733815f015f6101000a81548173ffffffffffffffffffffffffffffffffffffffff021916908373ffffffffffffffffffffffffffffffffffffffff16021790555060018514610f675760028514610f2b576040518060400160405280600581526020017f4669727374000000000000000000000000000000000000000000000000000000815250610f62565b6040518060400160405280600881526020017f427573696e6573730000000000000000000000000000000000000000000000008152505b610f9e565b6040518060400160405280600781526020017f45636f6e6f6d79000000000000000000000000000000000000000000000000008152505b816004019081610fae9190611b1e565b5083816005015f6101000a81548160ff0219169083151502179055505f8160050160016101000a81548160ff0219169083151502179055506001925050610ffe565b508080600101915050610e10565b508061103f576040517f08c379a000000000000000000000000000000000000000000000000000000000815260040161103690611d3a565b60405180910390fd5b5050505050565b6040518060e001604052805f73ffffffffffffffffffffffffffffffffffffffff168152602001606081526020015f81526020015f8152602001606081526020015f151581526020015f151581525090565b5f604051905090565b5f5ffd5b5f5ffd5b5f819050919050565b6110bb816110a9565b81146110c5575f5ffd5b50565b5f813590506110d6816110b2565b92915050565b5f602082840312156110f1576110f06110a1565b5b5f6110fe848285016110c8565b91505092915050565b5f73ffffffffffffffffffffffffffffffffffffffff82169050919050565b5f61113082611107565b9050919050565b61114081611126565b82525050565b5f81519050919050565b5f82825260208201905092915050565b8281835e5f83830152505050565b5f601f19601f8301169050919050565b5f61118882611146565b6111928185611150565b93506111a2818560208601611160565b6111ab8161116e565b840191505092915050565b6111bf816110a9565b82525050565b5f8115159050919050565b6111d9816111c5565b82525050565b5f60e0820190506111f25f83018a611137565b8181036020830152611204818961117e565b905061121360408301886111b6565b61122060608301876111b6565b8181036080830152611232818661117e565b905061124160a08301856111d0565b61124e60c08301846111d0565b98975050505050505050565b5f5ffd5b5f5ffd5b7f4e487b71000000000000000000000000000000000000000000000000000000005f52604160045260245ffd5b6112988261116e565b810181811067ffffffffffffffff821117156112b7576112b6611262565b5b80604052505050565b5f6112c9611098565b90506112d5828261128f565b919050565b5f67ffffffffffffffff8211156112f4576112f3611262565b5b6112fd8261116e565b9050602081019050919050565b828183375f83830152505050565b5f61132a611325846112da565b6112c0565b9050828152602081018484840111156113465761134561125e565b5b61135184828561130a565b509392505050565b5f82601f83011261136d5761136c61125a565b5b813561137d848260208601611318565b91505092915050565b61138f816111c5565b8114611399575f5ffd5b50565b5f813590506113aa81611386565b92915050565b5f5f5f5f608085870312156113c8576113c76110a1565b5b5f85013567ffffffffffffffff8111156113e5576113e46110a5565b5b6113f187828801611359565b9450506020611402878288016110c8565b9350506040611413878288016110c8565b92505060606114248782880161139c565b91505092959194509250565b5f6020820190506114435f8301846111b6565b92915050565b61145281611126565b811461145c575f5ffd5b50565b5f8135905061146d81611449565b92915050565b5f60208284031215611488576114876110a1565b5b5f6114958482850161145f565b91505092915050565b5f6020820190506114b15f8301846111d0565b92915050565b5f5f5f606084860312156114ce576114cd6110a1565b5b5f6114db8682870161145f565b935050602084013567ffffffffffffffff8111156114fc576114fb6110a5565b5b61150886828701611359565b9250506040611519868287016110c8565b9150509250925092565b5f5f60408385031215611539576115386110a1565b5b5f83013567ffffffffffffffff811115611556576115556110a5565b5b61156285828601611359565b9250506020611573858286016110c8565b9150509250929050565b5f6020820190508181035f830152611595818461117e565b905092915050565b5f6020820190506115b05f830184611137565b92915050565b5f81519050919050565b5f82825260208201905092915050565b5f819050602082019050919050565b6115e881611126565b82525050565b5f82825260208201905092915050565b5f61160882611146565b61161281856115ee565b9350611622818560208601611160565b61162b8161116e565b840191505092915050565b61163f816110a9565b82525050565b61164e816111c5565b82525050565b5f60e083015f8301516116695f8601826115df565b506020830151848203602086015261168182826115fe565b91505060408301516116966040860182611636565b5060608301516116a96060860182611636565b50608083015184820360808601526116c182826115fe565b91505060a08301516116d660a0860182611645565b5060c08301516116e960c0860182611645565b508091505092915050565b5f6116ff8383611654565b905092915050565b5f602082019050919050565b5f61171d826115b6565b61172781856115c0565b935083602082028501611739856115d0565b805f5b85811015611774578484038952815161175585826116f4565b945061176083611707565b925060208a0199505060018101905061173c565b50829750879550505050505092915050565b5f6020820190508181035f83015261179e8184611713565b905092915050565b7f4e487b71000000000000000000000000000000000000000000000000000000005f52602260045260245ffd5b5f60028204905060018216806117ea57607f821691505b6020821081036117fd576117fc6117a6565b5b50919050565b7f4e487b71000000000000000000000000000000000000000000000000000000005f52601160045260245ffd5b5f61183a826110a9565b9150611845836110a9565b925082820390508181111561185d5761185c611803565b5b92915050565b7f4e487b71000000000000000000000000000000000000000000000000000000005f52603260045260245ffd5b5f81905092915050565b5f6118a482611146565b6118ae8185611890565b93506118be818560208601611160565b80840191505092915050565b5f6118d5828461189a565b915081905092915050565b5f6118ea826110a9565b91506118f5836110a9565b9250828202611903816110a9565b9150828204841483151761191a57611919611803565b5b5092915050565b7f4e487b71000000000000000000000000000000000000000000000000000000005f52601260045260245ffd5b5f611958826110a9565b9150611963836110a9565b92508261197357611972611921565b5b828204905092915050565b5f819050815f5260205f209050919050565b5f6020601f8301049050919050565b5f82821b905092915050565b5f600883026119da7fffffffffffffffffffffffffffffffffffffffffffffffffffffffffffffffff8261199f565b6119e4868361199f565b95508019841693508086168417925050509392505050565b5f819050919050565b5f611a1f611a1a611a15846110a9565b6119fc565b6110a9565b9050919050565b5f819050919050565b611a3883611a05565b611a4c611a4482611a26565b8484546119ab565b825550505050565b5f5f905090565b611a63611a54565b611a6e818484611a2f565b505050565b5b81811015611a9157611a865f82611a5b565b600181019050611a74565b5050565b601f821115611ad657611aa78161197e565b611ab084611990565b81016020851015611abf578190505b611ad3611acb85611990565b830182611a73565b50505b505050565b5f82821c905092915050565b5f611af65f1984600802611adb565b1980831691505092915050565b5f611b0e8383611ae7565b9150826002028217905092915050565b611b2782611146565b67ffffffffffffffff811115611b4057611b3f611262565b5b611b4a82546117d3565b611b55828285611a95565b5f60209050601f831160018114611b86575f8415611b74578287015190505b611b7e8582611b03565b865550611be5565b601f198416611b948661197e565b5f5b82811015611bbb57848901518255600182019150602085019450602081019050611b96565b86831015611bd85784890151611bd4601f891682611ae7565b8355505b6001600288020188555050505b505050505050565b5f611bf7826110a9565b91507fffffffffffffffffffffffffffffffffffffffffffffffffffffffffffffffff8203611c2957611c28611803565b5b600182019050919050565b5f8154611c40816117d3565b611c4a8186611890565b9450600182165f8114611c645760018114611c7957611cab565b60ff1983168652811515820286019350611cab565b611c828561197e565b5f5b83811015611ca357815481890152600182019150602081019050611c84565b838801955050505b50505092915050565b5f611cbf8284611c34565b915081905092915050565b7f4e6f20617661696c61626c65207469636b65747320666f7220746865207370655f8201527f6369666965642064657374696e6174696f6e0000000000000000000000000000602082015250565b5f611d24603283611150565b9150611d2f82611cca565b604082019050919050565b5f6020820190508181035f830152611d5181611d18565b905091905056fea26469706673582212205c03ddafee56d0b8dea905ec45642726f6271c5d1c4b073d29bda0247f4f38f564736f6c634300081c0033","opcodes":"PUSH1 0x80 PUSH1 0x40 MSTORE CALLVALUE DUP1 ISZERO PUSH2 0xF JUMPI PUSH0 PUSH0 REVERT JUMPDEST POP PUSH1 0x40 MLOAD PUSH2 0x27B1 CODESIZE SUB DUP1 PUSH2 0x27B1 DUP4 CODECOPY DUP2 DUP2 ADD PUSH1 0x40 MSTORE DUP2 ADD SWAP1 PUSH2 0x31 SWAP2 SWAP1 PUSH2 0x5F5 JUMP JUMPDEST CALLER PUSH0 PUSH0 PUSH2 0x100 EXP DUP2 SLOAD DUP2 PUSH20 0xFFFFFFFFFFFFFFFFFFFFFFFFFFFFFFFFFFFFFFFF MUL NOT AND SWAP1 DUP4 PUSH20 0xFFFFFFFFFFFFFFFFFFFFFFFFFFFFFFFFFFFFFFFF AND MUL OR SWAP1 SSTORE POP PUSH0 PUSH1 0x13 DUP2 SWAP1 SSTORE POP PUSH1 0x1 DUP3 SWAP1 DUP1 PUSH1 0x1 DUP2 SLOAD ADD DUP1 DUP3 SSTORE DUP1 SWAP2 POP POP PUSH1 0x1 SWAP1 SUB SWAP1 PUSH0 MSTORE PUSH1 0x20 PUSH0 KECCAK256 ADD PUSH0 SWAP1 SWAP2 SWAP1 SWAP2 SWAP1 SWAP2 POP SWAP1 DUP2 PUSH2 0xA8 SWAP2 SWAP1 PUSH2 0x856 JUMP JUMPDEST POP PUSH1 0x2 DUP2 SWAP1 DUP1 PUSH1 0x1 DUP2 SLOAD ADD DUP1 DUP3 SSTORE DUP1 SWAP2 POP POP PUSH1 0x1 SWAP1 SUB SWAP1 PUSH0 MSTORE PUSH1 0x20 PUSH0 KECCAK256 ADD PUSH0 SWAP1 SWAP2 SWAP1 SWAP2 SWAP1 SWAP2 POP SSTORE PUSH1 0x13 SLOAD PUSH1 0x3 DUP4 PUSH1 0x40 MLOAD PUSH2 0xE2 SWAP2 SWAP1 PUSH2 0x95F JUMP JUMPDEST SWAP1 DUP2 MSTORE PUSH1 0x20 ADD PUSH1 0x40 MLOAD DUP1 SWAP2 SUB SWAP1 KECCAK256 DUP2 SWAP1 SSTORE POP PUSH2 0x105 CALLER DUP4 DUP4 PUSH2 0x2AC PUSH1 0x20 SHL PUSH1 0x20 SHR JUMP JUMPDEST PUSH1 0x3 PUSH1 0x4 PUSH0 PUSH1 0xC DUP2 LT PUSH2 0x11B JUMPI PUSH2 0x11A PUSH2 0x975 JUMP JUMPDEST JUMPDEST ADD DUP2 SWAP1 SSTORE POP PUSH1 0x2 PUSH1 0x4 PUSH1 0x1 PUSH1 0xC DUP2 LT PUSH2 0x137 JUMPI PUSH2 0x136 PUSH2 0x975 JUMP JUMPDEST JUMPDEST ADD DUP2 SWAP1 SSTORE POP PUSH1 0x4 DUP1 PUSH1 0x2 PUSH1 0xC DUP2 LT PUSH2 0x152 JUMPI PUSH2 0x151 PUSH2 0x975 JUMP JUMPDEST JUMPDEST ADD DUP2 SWAP1 SSTORE POP PUSH1 0x5 PUSH1 0x4 PUSH1 0x3 PUSH1 0xC DUP2 LT PUSH2 0x16E JUMPI PUSH2 0x16D PUSH2 0x975 JUMP JUMPDEST JUMPDEST ADD DUP2 SWAP1 SSTORE POP PUSH1 0x3 PUSH1 0x4 DUP1 PUSH1 0xC DUP2 LT PUSH2 0x189 JUMPI PUSH2 0x188 PUSH2 0x975 JUMP JUMPDEST JUMPDEST ADD DUP2 SWAP1 SSTORE POP PUSH1 0xC PUSH1 0x4 PUSH1 0x5 PUSH1 0xC DUP2 LT PUSH2 0x1A5 JUMPI PUSH2 0x1A4 PUSH2 0x975 JUMP JUMPDEST JUMPDEST ADD DUP2 SWAP1 SSTORE POP PUSH1 0xB PUSH1 0x4 PUSH1 0x6 PUSH1 0xC DUP2 LT PUSH2 0x1C1 JUMPI PUSH2 0x1C0 PUSH2 0x975 JUMP JUMPDEST JUMPDEST ADD DUP2 SWAP1 SSTORE POP PUSH1 0xC PUSH1 0x4 PUSH1 0x7 PUSH1 0xC DUP2 LT PUSH2 0x1DD JUMPI PUSH2 0x1DC PUSH2 0x975 JUMP JUMPDEST JUMPDEST ADD DUP2 SWAP1 SSTORE POP PUSH1 0xF PUSH1 0x4 PUSH1 0x8 PUSH1 0xC DUP2 LT PUSH2 0x1F9 JUMPI PUSH2 0x1F8 PUSH2 0x975 JUMP JUMPDEST JUMPDEST ADD DUP2 SWAP1 SSTORE POP PUSH1 0xE PUSH1 0x4 PUSH1 0x9 PUSH1 0xC DUP2 LT PUSH2 0x215 JUMPI PUSH2 0x214 PUSH2 0x975 JUMP JUMPDEST JUMPDEST ADD DUP2 SWAP1 SSTORE POP PUSH1 0xB PUSH1 0x4 PUSH1 0xA PUSH1 0xC DUP2 LT PUSH2 0x231 JUMPI PUSH2 0x230 PUSH2 0x975 JUMP JUMPDEST JUMPDEST ADD DUP2 SWAP1 SSTORE POP PUSH1 0xD PUSH1 0x4 PUSH1 0xB PUSH1 0xC DUP2 LT PUSH2 0x24D JUMPI PUSH2 0x24C PUSH2 0x975 JUMP JUMPDEST JUMPDEST ADD DUP2 SWAP1 SSTORE POP PUSH1 0x1 PUSH1 0x10 PUSH0 PUSH1 0x3 DUP2 LT PUSH2 0x268 JUMPI PUSH2 0x267 PUSH2 0x975 JUMP JUMPDEST JUMPDEST ADD DUP2 SWAP1 SSTORE POP PUSH1 0x2 PUSH1 0x10 PUSH1 0x1 PUSH1 0x3 DUP2 LT PUSH2 0x284 JUMPI PUSH2 0x283 PUSH2 0x975 JUMP JUMPDEST JUMPDEST ADD DUP2 SWAP1 SSTORE POP PUSH1 0x3 PUSH1 0x10 PUSH1 0x2 PUSH1 0x3 DUP2 LT PUSH2 0x2A0 JUMPI PUSH2 0x29F PUSH2 0x975 JUMP JUMPDEST JUMPDEST ADD DUP2 SWAP1 SSTORE POP POP POP PUSH2 0xA16 JUMP JUMPDEST PUSH0 PUSH0 SWAP1 SLOAD SWAP1 PUSH2 0x100 EXP SWAP1 DIV PUSH20 0xFFFFFFFFFFFFFFFFFFFFFFFFFFFFFFFFFFFFFFFF AND PUSH20 0xFFFFFFFFFFFFFFFFFFFFFFFFFFFFFFFFFFFFFFFF AND CALLER PUSH20 0xFFFFFFFFFFFFFFFFFFFFFFFFFFFFFFFFFFFFFFFF AND EQ PUSH2 0x303 JUMPI PUSH0 PUSH0 REVERT JUMPDEST PUSH0 PUSH0 SWAP1 POP JUMPDEST PUSH1 0x1E DUP2 LT ISZERO PUSH2 0x46F JUMPI PUSH0 PUSH1 0x15 SLOAD SWAP1 POP PUSH1 0x40 MLOAD DUP1 PUSH1 0xE0 ADD PUSH1 0x40 MSTORE DUP1 DUP7 PUSH20 0xFFFFFFFFFFFFFFFFFFFFFFFFFFFFFFFFFFFFFFFF AND DUP2 MSTORE PUSH1 0x20 ADD DUP6 DUP2 MSTORE PUSH1 0x20 ADD DUP5 DUP2 MSTORE PUSH1 0x20 ADD DUP4 DUP2 MSTORE PUSH1 0x20 ADD PUSH1 0x40 MLOAD DUP1 PUSH1 0x20 ADD PUSH1 0x40 MSTORE DUP1 PUSH0 DUP2 MSTORE POP DUP2 MSTORE PUSH1 0x20 ADD PUSH0 ISZERO ISZERO DUP2 MSTORE PUSH1 0x20 ADD PUSH1 0x1 ISZERO ISZERO DUP2 MSTORE POP PUSH1 0x14 PUSH0 DUP4 DUP2 MSTORE PUSH1 0x20 ADD SWAP1 DUP2 MSTORE PUSH1 0x20 ADD PUSH0 KECCAK256 PUSH0 DUP3 ADD MLOAD DUP2 PUSH0 ADD PUSH0 PUSH2 0x100 EXP DUP2 SLOAD DUP2 PUSH20 0xFFFFFFFFFFFFFFFFFFFFFFFFFFFFFFFFFFFFFFFF MUL NOT AND SWAP1 DUP4 PUSH20 0xFFFFFFFFFFFFFFFFFFFFFFFFFFFFFFFFFFFFFFFF AND MUL OR SWAP1 SSTORE POP PUSH1 0x20 DUP3 ADD MLOAD DUP2 PUSH1 0x1 ADD SWAP1 DUP2 PUSH2 0x3DD SWAP2 SWAP1 PUSH2 0x856 JUMP JUMPDEST POP PUSH1 0x40 DUP3 ADD MLOAD DUP2 PUSH1 0x2 ADD SSTORE PUSH1 0x60 DUP3 ADD MLOAD DUP2 PUSH1 0x3 ADD SSTORE PUSH1 0x80 DUP3 ADD MLOAD DUP2 PUSH1 0x4 ADD SWAP1 DUP2 PUSH2 0x407 SWAP2 SWAP1 PUSH2 0x856 JUMP JUMPDEST POP PUSH1 0xA0 DUP3 ADD MLOAD DUP2 PUSH1 0x5 ADD PUSH0 PUSH2 0x100 EXP DUP2 SLOAD DUP2 PUSH1 0xFF MUL NOT AND SWAP1 DUP4 ISZERO ISZERO MUL OR SWAP1 SSTORE POP PUSH1 0xC0 DUP3 ADD MLOAD DUP2 PUSH1 0x5 ADD PUSH1 0x1 PUSH2 0x100 EXP DUP2 SLOAD DUP2 PUSH1 0xFF MUL NOT AND SWAP1 DUP4 ISZERO ISZERO MUL OR SWAP1 SSTORE POP SWAP1 POP POP PUSH1 0x15 PUSH0 DUP2 SLOAD DUP1 SWAP3 SWAP2 SWAP1 PUSH2 0x45C SWAP1 PUSH2 0x9CF JUMP JUMPDEST SWAP2 SWAP1 POP SSTORE POP POP DUP1 DUP1 PUSH1 0x1 ADD SWAP2 POP POP PUSH2 0x308 JUMP JUMPDEST POP POP POP POP JUMP JUMPDEST PUSH0 PUSH1 0x40 MLOAD SWAP1 POP SWAP1 JUMP JUMPDEST PUSH0 PUSH0 REVERT JUMPDEST PUSH0 PUSH0 REVERT JUMPDEST PUSH0 PUSH0 REVERT JUMPDEST PUSH0 PUSH0 REVERT JUMPDEST PUSH0 PUSH1 0x1F NOT PUSH1 0x1F DUP4 ADD AND SWAP1 POP SWAP2 SWAP1 POP JUMP JUMPDEST PUSH32 0x4E487B7100000000000000000000000000000000000000000000000000000000 PUSH0 MSTORE PUSH1 0x41 PUSH1 0x4 MSTORE PUSH1 0x24 PUSH0 REVERT JUMPDEST PUSH2 0x4D4 DUP3 PUSH2 0x48E JUMP JUMPDEST DUP2 ADD DUP2 DUP2 LT PUSH8 0xFFFFFFFFFFFFFFFF DUP3 GT OR ISZERO PUSH2 0x4F3 JUMPI PUSH2 0x4F2 PUSH2 0x49E JUMP JUMPDEST JUMPDEST DUP1 PUSH1 0x40 MSTORE POP POP POP JUMP JUMPDEST PUSH0 PUSH2 0x505 PUSH2 0x475 JUMP JUMPDEST SWAP1 POP PUSH2 0x511 DUP3 DUP3 PUSH2 0x4CB JUMP JUMPDEST SWAP2 SWAP1 POP JUMP JUMPDEST PUSH0 PUSH8 0xFFFFFFFFFFFFFFFF DUP3 GT ISZERO PUSH2 0x530 JUMPI PUSH2 0x52F PUSH2 0x49E JUMP JUMPDEST JUMPDEST PUSH2 0x539 DUP3 PUSH2 0x48E JUMP JUMPDEST SWAP1 POP PUSH1 0x20 DUP2 ADD SWAP1 POP SWAP2 SWAP1 POP JUMP JUMPDEST DUP3 DUP2 DUP4 MCOPY PUSH0 DUP4 DUP4 ADD MSTORE POP POP POP JUMP JUMPDEST PUSH0 PUSH2 0x566 PUSH2 0x561 DUP5 PUSH2 0x516 JUMP JUMPDEST PUSH2 0x4FC JUMP JUMPDEST SWAP1 POP DUP3 DUP2 MSTORE PUSH1 0x20 DUP2 ADD DUP5 DUP5 DUP5 ADD GT ISZERO PUSH2 0x582 JUMPI PUSH2 0x581 PUSH2 0x48A JUMP JUMPDEST JUMPDEST PUSH2 0x58D DUP5 DUP3 DUP6 PUSH2 0x546 JUMP JUMPDEST POP SWAP4 SWAP3 POP POP POP JUMP JUMPDEST PUSH0 DUP3 PUSH1 0x1F DUP4 ADD SLT PUSH2 0x5A9 JUMPI PUSH2 0x5A8 PUSH2 0x486 JUMP JUMPDEST JUMPDEST DUP2 MLOAD PUSH2 0x5B9 DUP5 DUP3 PUSH1 0x20 DUP7 ADD PUSH2 0x554 JUMP JUMPDEST SWAP2 POP POP SWAP3 SWAP2 POP POP JUMP JUMPDEST PUSH0 DUP2 SWAP1 POP SWAP2 SWAP1 POP JUMP JUMPDEST PUSH2 0x5D4 DUP2 PUSH2 0x5C2 JUMP JUMPDEST DUP2 EQ PUSH2 0x5DE JUMPI PUSH0 PUSH0 REVERT JUMPDEST POP JUMP JUMPDEST PUSH0 DUP2 MLOAD SWAP1 POP PUSH2 0x5EF DUP2 PUSH2 0x5CB JUMP JUMPDEST SWAP3 SWAP2 POP POP JUMP JUMPDEST PUSH0 PUSH0 PUSH1 0x40 DUP4 DUP6 SUB SLT ISZERO PUSH2 0x60B JUMPI PUSH2 0x60A PUSH2 0x47E JUMP JUMPDEST JUMPDEST PUSH0 DUP4 ADD MLOAD PUSH8 0xFFFFFFFFFFFFFFFF DUP2 GT ISZERO PUSH2 0x628 JUMPI PUSH2 0x627 PUSH2 0x482 JUMP JUMPDEST JUMPDEST PUSH2 0x634 DUP6 DUP3 DUP7 ADD PUSH2 0x595 JUMP JUMPDEST SWAP3 POP POP PUSH1 0x20 PUSH2 0x645 DUP6 DUP3 DUP7 ADD PUSH2 0x5E1 JUMP JUMPDEST SWAP2 POP POP SWAP3 POP SWAP3 SWAP1 POP JUMP JUMPDEST PUSH0 DUP2 MLOAD SWAP1 POP SWAP2 SWAP1 POP JUMP JUMPDEST PUSH32 0x4E487B7100000000000000000000000000000000000000000000000000000000 PUSH0 MSTORE PUSH1 0x22 PUSH1 0x4 MSTORE PUSH1 0x24 PUSH0 REVERT JUMPDEST PUSH0 PUSH1 0x2 DUP3 DIV SWAP1 POP PUSH1 0x1 DUP3 AND DUP1 PUSH2 0x69D JUMPI PUSH1 0x7F DUP3 AND SWAP2 POP JUMPDEST PUSH1 0x20 DUP3 LT DUP2 SUB PUSH2 0x6B0 JUMPI PUSH2 0x6AF PUSH2 0x659 JUMP JUMPDEST JUMPDEST POP SWAP2 SWAP1 POP JUMP JUMPDEST PUSH0 DUP2 SWAP1 POP DUP2 PUSH0 MSTORE PUSH1 0x20 PUSH0 KECCAK256 SWAP1 POP SWAP2 SWAP1 POP JUMP JUMPDEST PUSH0 PUSH1 0x20 PUSH1 0x1F DUP4 ADD DIV SWAP1 POP SWAP2 SWAP1 POP JUMP JUMPDEST PUSH0 DUP3 DUP3 SHL SWAP1 POP SWAP3 SWAP2 POP POP JUMP JUMPDEST PUSH0 PUSH1 0x8 DUP4 MUL PUSH2 0x712 PUSH32 0xFFFFFFFFFFFFFFFFFFFFFFFFFFFFFFFFFFFFFFFFFFFFFFFFFFFFFFFFFFFFFFFF DUP3 PUSH2 0x6D7 JUMP JUMPDEST PUSH2 0x71C DUP7 DUP4 PUSH2 0x6D7 JUMP JUMPDEST SWAP6 POP DUP1 NOT DUP5 AND SWAP4 POP DUP1 DUP7 AND DUP5 OR SWAP3 POP POP POP SWAP4 SWAP3 POP POP POP JUMP JUMPDEST PUSH0 DUP2 SWAP1 POP SWAP2 SWAP1 POP JUMP JUMPDEST PUSH0 PUSH2 0x757 PUSH2 0x752 PUSH2 0x74D DUP5 PUSH2 0x5C2 JUMP JUMPDEST PUSH2 0x734 JUMP JUMPDEST PUSH2 0x5C2 JUMP JUMPDEST SWAP1 POP SWAP2 SWAP1 POP JUMP JUMPDEST PUSH0 DUP2 SWAP1 POP SWAP2 SWAP1 POP JUMP JUMPDEST PUSH2 0x770 DUP4 PUSH2 0x73D JUMP JUMPDEST PUSH2 0x784 PUSH2 0x77C DUP3 PUSH2 0x75E JUMP JUMPDEST DUP5 DUP5 SLOAD PUSH2 0x6E3 JUMP JUMPDEST DUP3 SSTORE POP POP POP POP JUMP JUMPDEST PUSH0 PUSH0 SWAP1 POP SWAP1 JUMP JUMPDEST PUSH2 0x79B PUSH2 0x78C JUMP JUMPDEST PUSH2 0x7A6 DUP2 DUP5 DUP5 PUSH2 0x767 JUMP JUMPDEST POP POP POP JUMP JUMPDEST JUMPDEST DUP2 DUP2 LT ISZERO PUSH2 0x7C9 JUMPI PUSH2 0x7BE PUSH0 DUP3 PUSH2 0x793 JUMP JUMPDEST PUSH1 0x1 DUP2 ADD SWAP1 POP PUSH2 0x7AC JUMP JUMPDEST POP POP JUMP JUMPDEST PUSH1 0x1F DUP3 GT ISZERO PUSH2 0x80E JUMPI PUSH2 0x7DF DUP2 PUSH2 0x6B6 JUMP JUMPDEST PUSH2 0x7E8 DUP5 PUSH2 0x6C8 JUMP JUMPDEST DUP2 ADD PUSH1 0x20 DUP6 LT ISZERO PUSH2 0x7F7 JUMPI DUP2 SWAP1 POP JUMPDEST PUSH2 0x80B PUSH2 0x803 DUP6 PUSH2 0x6C8 JUMP JUMPDEST DUP4 ADD DUP3 PUSH2 0x7AB JUMP JUMPDEST POP POP JUMPDEST POP POP POP JUMP JUMPDEST PUSH0 DUP3 DUP3 SHR SWAP1 POP SWAP3 SWAP2 POP POP JUMP JUMPDEST PUSH0 PUSH2 0x82E PUSH0 NOT DUP5 PUSH1 0x8 MUL PUSH2 0x813 JUMP JUMPDEST NOT DUP1 DUP4 AND SWAP2 POP POP SWAP3 SWAP2 POP POP JUMP JUMPDEST PUSH0 PUSH2 0x846 DUP4 DUP4 PUSH2 0x81F JUMP JUMPDEST SWAP2 POP DUP3 PUSH1 0x2 MUL DUP3 OR SWAP1 POP SWAP3 SWAP2 POP POP JUMP JUMPDEST PUSH2 0x85F DUP3 PUSH2 0x64F JUMP JUMPDEST PUSH8 0xFFFFFFFFFFFFFFFF DUP2 GT ISZERO PUSH2 0x878 JUMPI PUSH2 0x877 PUSH2 0x49E JUMP JUMPDEST JUMPDEST PUSH2 0x882 DUP3 SLOAD PUSH2 0x686 JUMP JUMPDEST PUSH2 0x88D DUP3 DUP3 DUP6 PUSH2 0x7CD JUMP JUMPDEST PUSH0 PUSH1 0x20 SWAP1 POP PUSH1 0x1F DUP4 GT PUSH1 0x1 DUP2 EQ PUSH2 0x8BE JUMPI PUSH0 DUP5 ISZERO PUSH2 0x8AC JUMPI DUP3 DUP8 ADD MLOAD SWAP1 POP JUMPDEST PUSH2 0x8B6 DUP6 DUP3 PUSH2 0x83B JUMP JUMPDEST DUP7 SSTORE POP PUSH2 0x91D JUMP JUMPDEST PUSH1 0x1F NOT DUP5 AND PUSH2 0x8CC DUP7 PUSH2 0x6B6 JUMP JUMPDEST PUSH0 JUMPDEST DUP3 DUP2 LT ISZERO PUSH2 0x8F3 JUMPI DUP5 DUP10 ADD MLOAD DUP3 SSTORE PUSH1 0x1 DUP3 ADD SWAP2 POP PUSH1 0x20 DUP6 ADD SWAP5 POP PUSH1 0x20 DUP2 ADD SWAP1 POP PUSH2 0x8CE JUMP JUMPDEST DUP7 DUP4 LT ISZERO PUSH2 0x910 JUMPI DUP5 DUP10 ADD MLOAD PUSH2 0x90C PUSH1 0x1F DUP10 AND DUP3 PUSH2 0x81F JUMP JUMPDEST DUP4 SSTORE POP JUMPDEST PUSH1 0x1 PUSH1 0x2 DUP9 MUL ADD DUP9 SSTORE POP POP POP JUMPDEST POP POP POP POP POP POP JUMP JUMPDEST PUSH0 DUP2 SWAP1 POP SWAP3 SWAP2 POP POP JUMP JUMPDEST PUSH0 PUSH2 0x939 DUP3 PUSH2 0x64F JUMP JUMPDEST PUSH2 0x943 DUP2 DUP6 PUSH2 0x925 JUMP JUMPDEST SWAP4 POP PUSH2 0x953 DUP2 DUP6 PUSH1 0x20 DUP7 ADD PUSH2 0x546 JUMP JUMPDEST DUP1 DUP5 ADD SWAP2 POP POP SWAP3 SWAP2 POP POP JUMP JUMPDEST PUSH0 PUSH2 0x96A DUP3 DUP5 PUSH2 0x92F JUMP JUMPDEST SWAP2 POP DUP2 SWAP1 POP SWAP3 SWAP2 POP POP JUMP JUMPDEST PUSH32 0x4E487B7100000000000000000000000000000000000000000000000000000000 PUSH0 MSTORE PUSH1 0x32 PUSH1 0x4 MSTORE PUSH1 0x24 PUSH0 REVERT JUMPDEST PUSH32 0x4E487B7100000000000000000000000000000000000000000000000000000000 PUSH0 MSTORE PUSH1 0x11 PUSH1 0x4 MSTORE PUSH1 0x24 PUSH0 REVERT JUMPDEST PUSH0 PUSH2 0x9D9 DUP3 PUSH2 0x5C2 JUMP JUMPDEST SWAP2 POP PUSH32 0xFFFFFFFFFFFFFFFFFFFFFFFFFFFFFFFFFFFFFFFFFFFFFFFFFFFFFFFFFFFFFFFF DUP3 SUB PUSH2 0xA0B JUMPI PUSH2 0xA0A PUSH2 0x9A2 JUMP JUMPDEST JUMPDEST PUSH1 0x1 DUP3 ADD SWAP1 POP SWAP2 SWAP1 POP JUMP JUMPDEST PUSH2 0x1D8E DUP1 PUSH2 0xA23 PUSH0 CODECOPY PUSH0 RETURN INVALID PUSH1 0x80 PUSH1 0x40 MSTORE PUSH1 0x4 CALLDATASIZE LT PUSH2 0xC1 JUMPI PUSH0 CALLDATALOAD PUSH1 0xE0 SHR DUP1 PUSH4 0x6031A52F GT PUSH2 0x7E JUMPI DUP1 PUSH4 0x908921FC GT PUSH2 0x58 JUMPI DUP1 PUSH4 0x908921FC EQ PUSH2 0x2AD JUMPI DUP1 PUSH4 0xAD03FE70 EQ PUSH2 0x2D7 JUMPI DUP1 PUSH4 0xCB2CC82A EQ PUSH2 0x313 JUMPI DUP1 PUSH4 0xEA6E358E EQ PUSH2 0x34F JUMPI PUSH2 0xC1 JUMP JUMPDEST DUP1 PUSH4 0x6031A52F EQ PUSH2 0x20B JUMPI DUP1 PUSH4 0x695DC67E EQ PUSH2 0x235 JUMPI DUP1 PUSH4 0x8DD4BA2E EQ PUSH2 0x271 JUMPI PUSH2 0xC1 JUMP JUMPDEST DUP1 PUSH4 0x33FAB35 EQ PUSH2 0xC5 JUMPI DUP1 PUSH4 0x7819BD6 EQ PUSH2 0x107 JUMPI DUP1 PUSH4 0x1165E6AB EQ PUSH2 0x143 JUMPI DUP1 PUSH4 0x195C1445 EQ PUSH2 0x17F JUMPI DUP1 PUSH4 0x4AFE9F7B EQ PUSH2 0x1BB JUMPI DUP1 PUSH4 0x5E583E37 EQ PUSH2 0x1E3 JUMPI JUMPDEST PUSH0 PUSH0 REVERT JUMPDEST CALLVALUE DUP1 ISZERO PUSH2 0xD0 JUMPI PUSH0 PUSH0 REVERT JUMPDEST POP PUSH2 0xEB PUSH1 0x4 DUP1 CALLDATASIZE SUB DUP2 ADD SWAP1 PUSH2 0xE6 SWAP2 SWAP1 PUSH2 0x10DC JUMP JUMPDEST PUSH2 0x36B JUMP JUMPDEST PUSH1 0x40 MLOAD PUSH2 0xFE SWAP8 SWAP7 SWAP6 SWAP5 SWAP4 SWAP3 SWAP2 SWAP1 PUSH2 0x11DF JUMP JUMPDEST PUSH1 0x40 MLOAD DUP1 SWAP2 SUB SWAP1 RETURN JUMPDEST CALLVALUE DUP1 ISZERO PUSH2 0x112 JUMPI PUSH0 PUSH0 REVERT JUMPDEST POP PUSH2 0x12D PUSH1 0x4 DUP1 CALLDATASIZE SUB DUP2 ADD SWAP1 PUSH2 0x128 SWAP2 SWAP1 PUSH2 0x13B0 JUMP JUMPDEST PUSH2 0x4ED JUMP JUMPDEST PUSH1 0x40 MLOAD PUSH2 0x13A SWAP2 SWAP1 PUSH2 0x1430 JUMP JUMPDEST PUSH1 0x40 MLOAD DUP1 SWAP2 SUB SWAP1 RETURN JUMPDEST CALLVALUE DUP1 ISZERO PUSH2 0x14E JUMPI PUSH0 PUSH0 REVERT JUMPDEST POP PUSH2 0x169 PUSH1 0x4 DUP1 CALLDATASIZE SUB DUP2 ADD SWAP1 PUSH2 0x164 SWAP2 SWAP1 PUSH2 0x1473 JUMP JUMPDEST PUSH2 0x5DC JUMP JUMPDEST PUSH1 0x40 MLOAD PUSH2 0x176 SWAP2 SWAP1 PUSH2 0x149E JUMP JUMPDEST PUSH1 0x40 MLOAD DUP1 SWAP2 SUB SWAP1 RETURN JUMPDEST CALLVALUE DUP1 ISZERO PUSH2 0x18A JUMPI PUSH0 PUSH0 REVERT JUMPDEST POP PUSH2 0x1A5 PUSH1 0x4 DUP1 CALLDATASIZE SUB DUP2 ADD SWAP1 PUSH2 0x1A0 SWAP2 SWAP1 PUSH2 0x10DC JUMP JUMPDEST PUSH2 0x633 JUMP JUMPDEST PUSH1 0x40 MLOAD PUSH2 0x1B2 SWAP2 SWAP1 PUSH2 0x1430 JUMP JUMPDEST PUSH1 0x40 MLOAD DUP1 SWAP2 SUB SWAP1 RETURN JUMPDEST CALLVALUE DUP1 ISZERO PUSH2 0x1C6 JUMPI PUSH0 PUSH0 REVERT JUMPDEST POP PUSH2 0x1E1 PUSH1 0x4 DUP1 CALLDATASIZE SUB DUP2 ADD SWAP1 PUSH2 0x1DC SWAP2 SWAP1 PUSH2 0x14B7 JUMP JUMPDEST PUSH2 0x653 JUMP JUMPDEST STOP JUMPDEST CALLVALUE DUP1 ISZERO PUSH2 0x1EE JUMPI PUSH0 PUSH0 REVERT JUMPDEST POP PUSH2 0x209 PUSH1 0x4 DUP1 CALLDATASIZE SUB DUP2 ADD SWAP1 PUSH2 0x204 SWAP2 SWAP1 PUSH2 0x1523 JUMP JUMPDEST PUSH2 0x81C JUMP JUMPDEST STOP JUMPDEST CALLVALUE DUP1 ISZERO PUSH2 0x216 JUMPI PUSH0 PUSH0 REVERT JUMPDEST POP PUSH2 0x21F PUSH2 0x912 JUMP JUMPDEST PUSH1 0x40 MLOAD PUSH2 0x22C SWAP2 SWAP1 PUSH2 0x1430 JUMP JUMPDEST PUSH1 0x40 MLOAD DUP1 SWAP2 SUB SWAP1 RETURN JUMPDEST CALLVALUE DUP1 ISZERO PUSH2 0x240 JUMPI PUSH0 PUSH0 REVERT JUMPDEST POP PUSH2 0x25B PUSH1 0x4 DUP1 CALLDATASIZE SUB DUP2 ADD SWAP1 PUSH2 0x256 SWAP2 SWAP1 PUSH2 0x10DC JUMP JUMPDEST PUSH2 0x918 JUMP JUMPDEST PUSH1 0x40 MLOAD PUSH2 0x268 SWAP2 SWAP1 PUSH2 0x1430 JUMP JUMPDEST PUSH1 0x40 MLOAD DUP1 SWAP2 SUB SWAP1 RETURN JUMPDEST CALLVALUE DUP1 ISZERO PUSH2 0x27C JUMPI PUSH0 PUSH0 REVERT JUMPDEST POP PUSH2 0x297 PUSH1 0x4 DUP1 CALLDATASIZE SUB DUP2 ADD SWAP1 PUSH2 0x292 SWAP2 SWAP1 PUSH2 0x10DC JUMP JUMPDEST PUSH2 0x931 JUMP JUMPDEST PUSH1 0x40 MLOAD PUSH2 0x2A4 SWAP2 SWAP1 PUSH2 0x157D JUMP JUMPDEST PUSH1 0x40 MLOAD DUP1 SWAP2 SUB SWAP1 RETURN JUMPDEST CALLVALUE DUP1 ISZERO PUSH2 0x2B8 JUMPI PUSH0 PUSH0 REVERT JUMPDEST POP PUSH2 0x2C1 PUSH2 0x9D7 JUMP JUMPDEST PUSH1 0x40 MLOAD PUSH2 0x2CE SWAP2 SWAP1 PUSH2 0x159D JUMP JUMPDEST PUSH1 0x40 MLOAD DUP1 SWAP2 SUB SWAP1 RETURN JUMPDEST CALLVALUE DUP1 ISZERO PUSH2 0x2E2 JUMPI PUSH0 PUSH0 REVERT JUMPDEST POP PUSH2 0x2FD PUSH1 0x4 DUP1 CALLDATASIZE SUB DUP2 ADD SWAP1 PUSH2 0x2F8 SWAP2 SWAP1 PUSH2 0x1473 JUMP JUMPDEST PUSH2 0x9FB JUMP JUMPDEST PUSH1 0x40 MLOAD PUSH2 0x30A SWAP2 SWAP1 PUSH2 0x1786 JUMP JUMPDEST PUSH1 0x40 MLOAD DUP1 SWAP2 SUB SWAP1 RETURN JUMPDEST CALLVALUE DUP1 ISZERO PUSH2 0x31E JUMPI PUSH0 PUSH0 REVERT JUMPDEST POP PUSH2 0x339 PUSH1 0x4 DUP1 CALLDATASIZE SUB DUP2 ADD SWAP1 PUSH2 0x334 SWAP2 SWAP1 PUSH2 0x10DC JUMP JUMPDEST PUSH2 0xDD8 JUMP JUMPDEST PUSH1 0x40 MLOAD PUSH2 0x346 SWAP2 SWAP1 PUSH2 0x1430 JUMP JUMPDEST PUSH1 0x40 MLOAD DUP1 SWAP2 SUB SWAP1 RETURN JUMPDEST PUSH2 0x369 PUSH1 0x4 DUP1 CALLDATASIZE SUB DUP2 ADD SWAP1 PUSH2 0x364 SWAP2 SWAP1 PUSH2 0x13B0 JUMP JUMPDEST PUSH2 0xDF1 JUMP JUMPDEST STOP JUMPDEST PUSH1 0x14 PUSH1 0x20 MSTORE DUP1 PUSH0 MSTORE PUSH1 0x40 PUSH0 KECCAK256 PUSH0 SWAP2 POP SWAP1 POP DUP1 PUSH0 ADD PUSH0 SWAP1 SLOAD SWAP1 PUSH2 0x100 EXP SWAP1 DIV PUSH20 0xFFFFFFFFFFFFFFFFFFFFFFFFFFFFFFFFFFFFFFFF AND SWAP1 DUP1 PUSH1 0x1 ADD DUP1 SLOAD PUSH2 0x3AF SWAP1 PUSH2 0x17D3 JUMP JUMPDEST DUP1 PUSH1 0x1F ADD PUSH1 0x20 DUP1 SWAP2 DIV MUL PUSH1 0x20 ADD PUSH1 0x40 MLOAD SWAP1 DUP2 ADD PUSH1 0x40 MSTORE DUP1 SWAP3 SWAP2 SWAP1 DUP2 DUP2 MSTORE PUSH1 0x20 ADD DUP3 DUP1 SLOAD PUSH2 0x3DB SWAP1 PUSH2 0x17D3 JUMP JUMPDEST DUP1 ISZERO PUSH2 0x426 JUMPI DUP1 PUSH1 0x1F LT PUSH2 0x3FD JUMPI PUSH2 0x100 DUP1 DUP4 SLOAD DIV MUL DUP4 MSTORE SWAP2 PUSH1 0x20 ADD SWAP2 PUSH2 0x426 JUMP JUMPDEST DUP3 ADD SWAP2 SWAP1 PUSH0 MSTORE PUSH1 0x20 PUSH0 KECCAK256 SWAP1 JUMPDEST DUP2 SLOAD DUP2 MSTORE SWAP1 PUSH1 0x1 ADD SWAP1 PUSH1 0x20 ADD DUP1 DUP4 GT PUSH2 0x409 JUMPI DUP3 SWAP1 SUB PUSH1 0x1F AND DUP3 ADD SWAP2 JUMPDEST POP POP POP POP POP SWAP1 DUP1 PUSH1 0x2 ADD SLOAD SWAP1 DUP1 PUSH1 0x3 ADD SLOAD SWAP1 DUP1 PUSH1 0x4 ADD DUP1 SLOAD PUSH2 0x447 SWAP1 PUSH2 0x17D3 JUMP JUMPDEST DUP1 PUSH1 0x1F ADD PUSH1 0x20 DUP1 SWAP2 DIV MUL PUSH1 0x20 ADD PUSH1 0x40 MLOAD SWAP1 DUP2 ADD PUSH1 0x40 MSTORE DUP1 SWAP3 SWAP2 SWAP1 DUP2 DUP2 MSTORE PUSH1 0x20 ADD DUP3 DUP1 SLOAD PUSH2 0x473 SWAP1 PUSH2 0x17D3 JUMP JUMPDEST DUP1 ISZERO PUSH2 0x4BE JUMPI DUP1 PUSH1 0x1F LT PUSH2 0x495 JUMPI PUSH2 0x100 DUP1 DUP4 SLOAD DIV MUL DUP4 MSTORE SWAP2 PUSH1 0x20 ADD SWAP2 PUSH2 0x4BE JUMP JUMPDEST DUP3 ADD SWAP2 SWAP1 PUSH0 MSTORE PUSH1 0x20 PUSH0 KECCAK256 SWAP1 JUMPDEST DUP2 SLOAD DUP2 MSTORE SWAP1 PUSH1 0x1 ADD SWAP1 PUSH1 0x20 ADD DUP1 DUP4 GT PUSH2 0x4A1 JUMPI DUP3 SWAP1 SUB PUSH1 0x1F AND DUP3 ADD SWAP2 JUMPDEST POP POP POP POP POP SWAP1 DUP1 PUSH1 0x5 ADD PUSH0 SWAP1 SLOAD SWAP1 PUSH2 0x100 EXP SWAP1 DIV PUSH1 0xFF AND SWAP1 DUP1 PUSH1 0x5 ADD PUSH1 0x1 SWAP1 SLOAD SWAP1 PUSH2 0x100 EXP SWAP1 DIV PUSH1 0xFF AND SWAP1 POP DUP8 JUMP JUMPDEST PUSH0 PUSH0 PUSH1 0x10 PUSH1 0x1 DUP6 PUSH2 0x4FE SWAP2 SWAP1 PUSH2 0x1830 JUMP JUMPDEST PUSH1 0x3 DUP2 LT PUSH2 0x50F JUMPI PUSH2 0x50E PUSH2 0x1863 JUMP JUMPDEST JUMPDEST ADD SLOAD SWAP1 POP PUSH0 PUSH1 0x4 PUSH1 0x1 DUP8 PUSH2 0x523 SWAP2 SWAP1 PUSH2 0x1830 JUMP JUMPDEST PUSH1 0xC DUP2 LT PUSH2 0x534 JUMPI PUSH2 0x533 PUSH2 0x1863 JUMP JUMPDEST JUMPDEST ADD SLOAD SWAP1 POP PUSH0 DUP3 PUSH1 0x2 PUSH1 0x3 DUP11 PUSH1 0x40 MLOAD PUSH2 0x54C SWAP2 SWAP1 PUSH2 0x18CA JUMP JUMPDEST SWAP1 DUP2 MSTORE PUSH1 0x20 ADD PUSH1 0x40 MLOAD DUP1 SWAP2 SUB SWAP1 KECCAK256 SLOAD DUP2 SLOAD DUP2 LT PUSH2 0x56C JUMPI PUSH2 0x56B PUSH2 0x1863 JUMP JUMPDEST JUMPDEST SWAP1 PUSH0 MSTORE PUSH1 0x20 PUSH0 KECCAK256 ADD SLOAD PUSH2 0x57F SWAP2 SWAP1 PUSH2 0x18E0 JUMP JUMPDEST SWAP1 POP DUP5 ISZERO PUSH2 0x597 JUMPI PUSH1 0x2 DUP2 PUSH2 0x594 SWAP2 SWAP1 PUSH2 0x18E0 JUMP JUMPDEST SWAP1 POP JUMPDEST DUP2 PUSH1 0xA GT ISZERO PUSH2 0x5B6 JUMPI DUP2 DUP2 PUSH2 0x5AC SWAP2 SWAP1 PUSH2 0x194E JUMP JUMPDEST SWAP4 POP POP POP POP PUSH2 0x5D4 JUMP JUMPDEST PUSH1 0xA DUP3 PUSH2 0x5C3 SWAP2 SWAP1 PUSH2 0x1830 JUMP JUMPDEST DUP2 PUSH2 0x5CE SWAP2 SWAP1 PUSH2 0x18E0 JUMP JUMPDEST SWAP4 POP POP POP POP JUMPDEST SWAP5 SWAP4 POP POP POP POP JUMP JUMPDEST PUSH0 PUSH0 PUSH0 SWAP1 SLOAD SWAP1 PUSH2 0x100 EXP SWAP1 DIV PUSH20 0xFFFFFFFFFFFFFFFFFFFFFFFFFFFFFFFFFFFFFFFF AND PUSH20 0xFFFFFFFFFFFFFFFFFFFFFFFFFFFFFFFFFFFFFFFF AND DUP3 PUSH20 0xFFFFFFFFFFFFFFFFFFFFFFFFFFFFFFFFFFFFFFFF AND EQ SWAP1 POP SWAP2 SWAP1 POP JUMP JUMPDEST PUSH1 0x2 DUP2 DUP2 SLOAD DUP2 LT PUSH2 0x642 JUMPI PUSH0 DUP1 REVERT JUMPDEST SWAP1 PUSH0 MSTORE PUSH1 0x20 PUSH0 KECCAK256 ADD PUSH0 SWAP2 POP SWAP1 POP SLOAD DUP2 JUMP JUMPDEST PUSH0 PUSH0 SWAP1 SLOAD SWAP1 PUSH2 0x100 EXP SWAP1 DIV PUSH20 0xFFFFFFFFFFFFFFFFFFFFFFFFFFFFFFFFFFFFFFFF AND PUSH20 0xFFFFFFFFFFFFFFFFFFFFFFFFFFFFFFFFFFFFFFFF AND CALLER PUSH20 0xFFFFFFFFFFFFFFFFFFFFFFFFFFFFFFFFFFFFFFFF AND EQ PUSH2 0x6AA JUMPI PUSH0 PUSH0 REVERT JUMPDEST PUSH0 PUSH0 SWAP1 POP JUMPDEST PUSH1 0x1E DUP2 LT ISZERO PUSH2 0x816 JUMPI PUSH0 PUSH1 0x15 SLOAD SWAP1 POP PUSH1 0x40 MLOAD DUP1 PUSH1 0xE0 ADD PUSH1 0x40 MSTORE DUP1 DUP7 PUSH20 0xFFFFFFFFFFFFFFFFFFFFFFFFFFFFFFFFFFFFFFFF AND DUP2 MSTORE PUSH1 0x20 ADD DUP6 DUP2 MSTORE PUSH1 0x20 ADD DUP5 DUP2 MSTORE PUSH1 0x20 ADD DUP4 DUP2 MSTORE PUSH1 0x20 ADD PUSH1 0x40 MLOAD DUP1 PUSH1 0x20 ADD PUSH1 0x40 MSTORE DUP1 PUSH0 DUP2 MSTORE POP DUP2 MSTORE PUSH1 0x20 ADD PUSH0 ISZERO ISZERO DUP2 MSTORE PUSH1 0x20 ADD PUSH1 0x1 ISZERO ISZERO DUP2 MSTORE POP PUSH1 0x14 PUSH0 DUP4 DUP2 MSTORE PUSH1 0x20 ADD SWAP1 DUP2 MSTORE PUSH1 0x20 ADD PUSH0 KECCAK256 PUSH0 DUP3 ADD MLOAD DUP2 PUSH0 ADD PUSH0 PUSH2 0x100 EXP DUP2 SLOAD DUP2 PUSH20 0xFFFFFFFFFFFFFFFFFFFFFFFFFFFFFFFFFFFFFFFF MUL NOT AND SWAP1 DUP4 PUSH20 0xFFFFFFFFFFFFFFFFFFFFFFFFFFFFFFFFFFFFFFFF AND MUL OR SWAP1 SSTORE POP PUSH1 0x20 DUP3 ADD MLOAD DUP2 PUSH1 0x1 ADD SWAP1 DUP2 PUSH2 0x784 SWAP2 SWAP1 PUSH2 0x1B1E JUMP JUMPDEST POP PUSH1 0x40 DUP3 ADD MLOAD DUP2 PUSH1 0x2 ADD SSTORE PUSH1 0x60 DUP3 ADD MLOAD DUP2 PUSH1 0x3 ADD SSTORE PUSH1 0x80 DUP3 ADD MLOAD DUP2 PUSH1 0x4 ADD SWAP1 DUP2 PUSH2 0x7AE SWAP2 SWAP1 PUSH2 0x1B1E JUMP JUMPDEST POP PUSH1 0xA0 DUP3 ADD MLOAD DUP2 PUSH1 0x5 ADD PUSH0 PUSH2 0x100 EXP DUP2 SLOAD DUP2 PUSH1 0xFF MUL NOT AND SWAP1 DUP4 ISZERO ISZERO MUL OR SWAP1 SSTORE POP PUSH1 0xC0 DUP3 ADD MLOAD DUP2 PUSH1 0x5 ADD PUSH1 0x1 PUSH2 0x100 EXP DUP2 SLOAD DUP2 PUSH1 0xFF MUL NOT AND SWAP1 DUP4 ISZERO ISZERO MUL OR SWAP1 SSTORE POP SWAP1 POP POP PUSH1 0x15 PUSH0 DUP2 SLOAD DUP1 SWAP3 SWAP2 SWAP1 PUSH2 0x803 SWAP1 PUSH2 0x1BED JUMP JUMPDEST SWAP2 SWAP1 POP SSTORE POP POP DUP1 DUP1 PUSH1 0x1 ADD SWAP2 POP POP PUSH2 0x6AF JUMP JUMPDEST POP POP POP POP JUMP JUMPDEST PUSH0 PUSH0 SWAP1 SLOAD SWAP1 PUSH2 0x100 EXP SWAP1 DIV PUSH20 0xFFFFFFFFFFFFFFFFFFFFFFFFFFFFFFFFFFFFFFFF AND PUSH20 0xFFFFFFFFFFFFFFFFFFFFFFFFFFFFFFFFFFFFFFFF AND CALLER PUSH20 0xFFFFFFFFFFFFFFFFFFFFFFFFFFFFFFFFFFFFFFFF AND EQ PUSH2 0x873 JUMPI PUSH0 PUSH0 REVERT JUMPDEST DUP2 PUSH1 0x40 MLOAD PUSH1 0x20 ADD PUSH2 0x884 SWAP2 SWAP1 PUSH2 0x18CA JUMP JUMPDEST PUSH1 0x40 MLOAD PUSH1 0x20 DUP2 DUP4 SUB SUB DUP2 MSTORE SWAP1 PUSH1 0x40 MSTORE DUP1 MLOAD SWAP1 PUSH1 0x20 ADD KECCAK256 PUSH1 0x1 PUSH1 0x3 DUP5 PUSH1 0x40 MLOAD PUSH2 0x8AC SWAP2 SWAP1 PUSH2 0x18CA JUMP JUMPDEST SWAP1 DUP2 MSTORE PUSH1 0x20 ADD PUSH1 0x40 MLOAD DUP1 SWAP2 SUB SWAP1 KECCAK256 SLOAD DUP2 SLOAD DUP2 LT PUSH2 0x8CC JUMPI PUSH2 0x8CB PUSH2 0x1863 JUMP JUMPDEST JUMPDEST SWAP1 PUSH0 MSTORE PUSH1 0x20 PUSH0 KECCAK256 ADD PUSH1 0x40 MLOAD PUSH1 0x20 ADD PUSH2 0x8E4 SWAP2 SWAP1 PUSH2 0x1CB4 JUMP JUMPDEST PUSH1 0x40 MLOAD PUSH1 0x20 DUP2 DUP4 SUB SUB DUP2 MSTORE SWAP1 PUSH1 0x40 MSTORE DUP1 MLOAD SWAP1 PUSH1 0x20 ADD KECCAK256 SUB PUSH2 0x903 JUMPI PUSH0 PUSH0 REVERT JUMPDEST PUSH2 0x90E CALLER DUP4 DUP4 PUSH2 0x653 JUMP JUMPDEST POP POP JUMP JUMPDEST PUSH1 0x15 SLOAD DUP2 JUMP JUMPDEST PUSH1 0x10 DUP2 PUSH1 0x3 DUP2 LT PUSH2 0x927 JUMPI PUSH0 DUP1 REVERT JUMPDEST ADD PUSH0 SWAP2 POP SWAP1 POP SLOAD DUP2 JUMP JUMPDEST PUSH1 0x1 DUP2 DUP2 SLOAD DUP2 LT PUSH2 0x940 JUMPI PUSH0 DUP1 REVERT JUMPDEST SWAP1 PUSH0 MSTORE PUSH1 0x20 PUSH0 KECCAK256 ADD PUSH0 SWAP2 POP SWAP1 POP DUP1 SLOAD PUSH2 0x958 SWAP1 PUSH2 0x17D3 JUMP JUMPDEST DUP1 PUSH1 0x1F ADD PUSH1 0x20 DUP1 SWAP2 DIV MUL PUSH1 0x20 ADD PUSH1 0x40 MLOAD SWAP1 DUP2 ADD PUSH1 0x40 MSTORE DUP1 SWAP3 SWAP2 SWAP1 DUP2 DUP2 MSTORE PUSH1 0x20 ADD DUP3 DUP1 SLOAD PUSH2 0x984 SWAP1 PUSH2 0x17D3 JUMP JUMPDEST DUP1 ISZERO PUSH2 0x9CF JUMPI DUP1 PUSH1 0x1F LT PUSH2 0x9A6 JUMPI PUSH2 0x100 DUP1 DUP4 SLOAD DIV MUL DUP4 MSTORE SWAP2 PUSH1 0x20 ADD SWAP2 PUSH2 0x9CF JUMP JUMPDEST DUP3 ADD SWAP2 SWAP1 PUSH0 MSTORE PUSH1 0x20 PUSH0 KECCAK256 SWAP1 JUMPDEST DUP2 SLOAD DUP2 MSTORE SWAP1 PUSH1 0x1 ADD SWAP1 PUSH1 0x20 ADD DUP1 DUP4 GT PUSH2 0x9B2 JUMPI DUP3 SWAP1 SUB PUSH1 0x1F AND DUP3 ADD SWAP2 JUMPDEST POP POP POP POP POP DUP2 JUMP JUMPDEST PUSH0 PUSH0 SWAP1 SLOAD SWAP1 PUSH2 0x100 EXP SWAP1 DIV PUSH20 0xFFFFFFFFFFFFFFFFFFFFFFFFFFFFFFFFFFFFFFFF AND DUP2 JUMP JUMPDEST PUSH1 0x60 PUSH0 PUSH0 SWAP1 POP PUSH0 PUSH0 SWAP1 POP JUMPDEST PUSH1 0x15 SLOAD DUP2 LT ISZERO PUSH2 0xABD JUMPI DUP4 PUSH20 0xFFFFFFFFFFFFFFFFFFFFFFFFFFFFFFFFFFFFFFFF AND PUSH1 0x14 PUSH0 DUP4 DUP2 MSTORE PUSH1 0x20 ADD SWAP1 DUP2 MSTORE PUSH1 0x20 ADD PUSH0 KECCAK256 PUSH0 ADD PUSH0 SWAP1 SLOAD SWAP1 PUSH2 0x100 EXP SWAP1 DIV PUSH20 0xFFFFFFFFFFFFFFFFFFFFFFFFFFFFFFFFFFFFFFFF AND PUSH20 0xFFFFFFFFFFFFFFFFFFFFFFFFFFFFFFFFFFFFFFFF AND EQ DUP1 ISZERO PUSH2 0xA9C JUMPI POP PUSH1 0x14 PUSH0 DUP3 DUP2 MSTORE PUSH1 0x20 ADD SWAP1 DUP2 MSTORE PUSH1 0x20 ADD PUSH0 KECCAK256 PUSH1 0x5 ADD PUSH1 0x1 SWAP1 SLOAD SWAP1 PUSH2 0x100 EXP SWAP1 DIV PUSH1 0xFF AND ISZERO JUMPDEST ISZERO PUSH2 0xAB0 JUMPI DUP2 DUP1 PUSH2 0xAAC SWAP1 PUSH2 0x1BED JUMP JUMPDEST SWAP3 POP POP JUMPDEST DUP1 DUP1 PUSH1 0x1 ADD SWAP2 POP POP PUSH2 0xA06 JUMP JUMPDEST POP PUSH0 DUP2 PUSH8 0xFFFFFFFFFFFFFFFF DUP2 GT ISZERO PUSH2 0xAD9 JUMPI PUSH2 0xAD8 PUSH2 0x1262 JUMP JUMPDEST JUMPDEST PUSH1 0x40 MLOAD SWAP1 DUP1 DUP3 MSTORE DUP1 PUSH1 0x20 MUL PUSH1 0x20 ADD DUP3 ADD PUSH1 0x40 MSTORE DUP1 ISZERO PUSH2 0xB12 JUMPI DUP2 PUSH1 0x20 ADD JUMPDEST PUSH2 0xAFF PUSH2 0x1046 JUMP JUMPDEST DUP2 MSTORE PUSH1 0x20 ADD SWAP1 PUSH1 0x1 SWAP1 SUB SWAP1 DUP2 PUSH2 0xAF7 JUMPI SWAP1 POP JUMPDEST POP SWAP1 POP PUSH0 PUSH0 SWAP1 POP PUSH0 PUSH0 SWAP1 POP JUMPDEST PUSH1 0x15 SLOAD DUP2 LT ISZERO PUSH2 0xDCC JUMPI DUP6 PUSH20 0xFFFFFFFFFFFFFFFFFFFFFFFFFFFFFFFFFFFFFFFF AND PUSH1 0x14 PUSH0 DUP4 DUP2 MSTORE PUSH1 0x20 ADD SWAP1 DUP2 MSTORE PUSH1 0x20 ADD PUSH0 KECCAK256 PUSH0 ADD PUSH0 SWAP1 SLOAD SWAP1 PUSH2 0x100 EXP SWAP1 DIV PUSH20 0xFFFFFFFFFFFFFFFFFFFFFFFFFFFFFFFFFFFFFFFF AND PUSH20 0xFFFFFFFFFFFFFFFFFFFFFFFFFFFFFFFFFFFFFFFF AND EQ DUP1 ISZERO PUSH2 0xBB4 JUMPI POP PUSH1 0x14 PUSH0 DUP3 DUP2 MSTORE PUSH1 0x20 ADD SWAP1 DUP2 MSTORE PUSH1 0x20 ADD PUSH0 KECCAK256 PUSH1 0x5 ADD PUSH1 0x1 SWAP1 SLOAD SWAP1 PUSH2 0x100 EXP SWAP1 DIV PUSH1 0xFF AND ISZERO JUMPDEST ISZERO PUSH2 0xDBF JUMPI PUSH1 0x14 PUSH0 DUP3 DUP2 MSTORE PUSH1 0x20 ADD SWAP1 DUP2 MSTORE PUSH1 0x20 ADD PUSH0 KECCAK256 PUSH1 0x40 MLOAD DUP1 PUSH1 0xE0 ADD PUSH1 0x40 MSTORE SWAP1 DUP2 PUSH0 DUP3 ADD PUSH0 SWAP1 SLOAD SWAP1 PUSH2 0x100 EXP SWAP1 DIV PUSH20 0xFFFFFFFFFFFFFFFFFFFFFFFFFFFFFFFFFFFFFFFF AND PUSH20 0xFFFFFFFFFFFFFFFFFFFFFFFFFFFFFFFFFFFFFFFF AND PUSH20 0xFFFFFFFFFFFFFFFFFFFFFFFFFFFFFFFFFFFFFFFF AND DUP2 MSTORE PUSH1 0x20 ADD PUSH1 0x1 DUP3 ADD DUP1 SLOAD PUSH2 0xC39 SWAP1 PUSH2 0x17D3 JUMP JUMPDEST DUP1 PUSH1 0x1F ADD PUSH1 0x20 DUP1 SWAP2 DIV MUL PUSH1 0x20 ADD PUSH1 0x40 MLOAD SWAP1 DUP2 ADD PUSH1 0x40 MSTORE DUP1 SWAP3 SWAP2 SWAP1 DUP2 DUP2 MSTORE PUSH1 0x20 ADD DUP3 DUP1 SLOAD PUSH2 0xC65 SWAP1 PUSH2 0x17D3 JUMP JUMPDEST DUP1 ISZERO PUSH2 0xCB0 JUMPI DUP1 PUSH1 0x1F LT PUSH2 0xC87 JUMPI PUSH2 0x100 DUP1 DUP4 SLOAD DIV MUL DUP4 MSTORE SWAP2 PUSH1 0x20 ADD SWAP2 PUSH2 0xCB0 JUMP JUMPDEST DUP3 ADD SWAP2 SWAP1 PUSH0 MSTORE PUSH1 0x20 PUSH0 KECCAK256 SWAP1 JUMPDEST DUP2 SLOAD DUP2 MSTORE SWAP1 PUSH1 0x1 ADD SWAP1 PUSH1 0x20 ADD DUP1 DUP4 GT PUSH2 0xC93 JUMPI DUP3 SWAP1 SUB PUSH1 0x1F AND DUP3 ADD SWAP2 JUMPDEST POP POP POP POP POP DUP2 MSTORE PUSH1 0x20 ADD PUSH1 0x2 DUP3 ADD SLOAD DUP2 MSTORE PUSH1 0x20 ADD PUSH1 0x3 DUP3 ADD SLOAD DUP2 MSTORE PUSH1 0x20 ADD PUSH1 0x4 DUP3 ADD DUP1 SLOAD PUSH2 0xCDD SWAP1 PUSH2 0x17D3 JUMP JUMPDEST DUP1 PUSH1 0x1F ADD PUSH1 0x20 DUP1 SWAP2 DIV MUL PUSH1 0x20 ADD PUSH1 0x40 MLOAD SWAP1 DUP2 ADD PUSH1 0x40 MSTORE DUP1 SWAP3 SWAP2 SWAP1 DUP2 DUP2 MSTORE PUSH1 0x20 ADD DUP3 DUP1 SLOAD PUSH2 0xD09 SWAP1 PUSH2 0x17D3 JUMP JUMPDEST DUP1 ISZERO PUSH2 0xD54 JUMPI DUP1 PUSH1 0x1F LT PUSH2 0xD2B JUMPI PUSH2 0x100 DUP1 DUP4 SLOAD DIV MUL DUP4 MSTORE SWAP2 PUSH1 0x20 ADD SWAP2 PUSH2 0xD54 JUMP JUMPDEST DUP3 ADD SWAP2 SWAP1 PUSH0 MSTORE PUSH1 0x20 PUSH0 KECCAK256 SWAP1 JUMPDEST DUP2 SLOAD DUP2 MSTORE SWAP1 PUSH1 0x1 ADD SWAP1 PUSH1 0x20 ADD DUP1 DUP4 GT PUSH2 0xD37 JUMPI DUP3 SWAP1 SUB PUSH1 0x1F AND DUP3 ADD SWAP2 JUMPDEST POP POP POP POP POP DUP2 MSTORE PUSH1 0x20 ADD PUSH1 0x5 DUP3 ADD PUSH0 SWAP1 SLOAD SWAP1 PUSH2 0x100 EXP SWAP1 DIV PUSH1 0xFF AND ISZERO ISZERO ISZERO ISZERO DUP2 MSTORE PUSH1 0x20 ADD PUSH1 0x5 DUP3 ADD PUSH1 0x1 SWAP1 SLOAD SWAP1 PUSH2 0x100 EXP SWAP1 DIV PUSH1 0xFF AND ISZERO ISZERO ISZERO ISZERO DUP2 MSTORE POP POP DUP4 DUP4 DUP2 MLOAD DUP2 LT PUSH2 0xDA5 JUMPI PUSH2 0xDA4 PUSH2 0x1863 JUMP JUMPDEST JUMPDEST PUSH1 0x20 MUL PUSH1 0x20 ADD ADD DUP2 SWAP1 MSTORE POP DUP2 DUP1 PUSH2 0xDBB SWAP1 PUSH2 0x1BED JUMP JUMPDEST SWAP3 POP POP JUMPDEST DUP1 DUP1 PUSH1 0x1 ADD SWAP2 POP POP PUSH2 0xB1E JUMP JUMPDEST POP DUP2 SWAP4 POP POP POP POP SWAP2 SWAP1 POP JUMP JUMPDEST PUSH1 0x4 DUP2 PUSH1 0xC DUP2 LT PUSH2 0xDE7 JUMPI PUSH0 DUP1 REVERT JUMPDEST ADD PUSH0 SWAP2 POP SWAP1 POP SLOAD DUP2 JUMP JUMPDEST PUSH2 0xDFD DUP5 DUP5 DUP5 DUP5 PUSH2 0x4ED JUMP JUMPDEST CALLVALUE EQ PUSH2 0xE07 JUMPI PUSH0 PUSH0 REVERT JUMPDEST PUSH0 PUSH0 SWAP1 POP PUSH0 PUSH0 SWAP1 POP JUMPDEST PUSH1 0x15 SLOAD DUP2 LT ISZERO PUSH2 0xFFE JUMPI PUSH0 PUSH1 0x14 PUSH0 DUP4 DUP2 MSTORE PUSH1 0x20 ADD SWAP1 DUP2 MSTORE PUSH1 0x20 ADD PUSH0 KECCAK256 SWAP1 POP DUP7 PUSH1 0x40 MLOAD PUSH1 0x20 ADD PUSH2 0xE3F SWAP2 SWAP1 PUSH2 0x18CA JUMP JUMPDEST PUSH1 0x40 MLOAD PUSH1 0x20 DUP2 DUP4 SUB SUB DUP2 MSTORE SWAP1 PUSH1 0x40 MSTORE DUP1 MLOAD SWAP1 PUSH1 0x20 ADD KECCAK256 DUP2 PUSH1 0x1 ADD PUSH1 0x40 MLOAD PUSH1 0x20 ADD PUSH2 0xE69 SWAP2 SWAP1 PUSH2 0x1CB4 JUMP JUMPDEST PUSH1 0x40 MLOAD PUSH1 0x20 DUP2 DUP4 SUB SUB DUP2 MSTORE SWAP1 PUSH1 0x40 MSTORE DUP1 MLOAD SWAP1 PUSH1 0x20 ADD KECCAK256 EQ DUP1 ISZERO PUSH2 0xE9A JUMPI POP DUP1 PUSH1 0x5 ADD PUSH1 0x1 SWAP1 SLOAD SWAP1 PUSH2 0x100 EXP SWAP1 DIV PUSH1 0xFF AND JUMPDEST ISZERO PUSH2 0xFF0 JUMPI CALLER DUP2 PUSH0 ADD PUSH0 PUSH2 0x100 EXP DUP2 SLOAD DUP2 PUSH20 0xFFFFFFFFFFFFFFFFFFFFFFFFFFFFFFFFFFFFFFFF MUL NOT AND SWAP1 DUP4 PUSH20 0xFFFFFFFFFFFFFFFFFFFFFFFFFFFFFFFFFFFFFFFF AND MUL OR SWAP1 SSTORE POP PUSH1 0x1 DUP6 EQ PUSH2 0xF67 JUMPI PUSH1 0x2 DUP6 EQ PUSH2 0xF2B JUMPI PUSH1 0x40 MLOAD DUP1 PUSH1 0x40 ADD PUSH1 0x40 MSTORE DUP1 PUSH1 0x5 DUP2 MSTORE PUSH1 0x20 ADD PUSH32 0x4669727374000000000000000000000000000000000000000000000000000000 DUP2 MSTORE POP PUSH2 0xF62 JUMP JUMPDEST PUSH1 0x40 MLOAD DUP1 PUSH1 0x40 ADD PUSH1 0x40 MSTORE DUP1 PUSH1 0x8 DUP2 MSTORE PUSH1 0x20 ADD PUSH32 0x427573696E657373000000000000000000000000000000000000000000000000 DUP2 MSTORE POP JUMPDEST PUSH2 0xF9E JUMP JUMPDEST PUSH1 0x40 MLOAD DUP1 PUSH1 0x40 ADD PUSH1 0x40 MSTORE DUP1 PUSH1 0x7 DUP2 MSTORE PUSH1 0x20 ADD PUSH32 0x45636F6E6F6D7900000000000000000000000000000000000000000000000000 DUP2 MSTORE POP JUMPDEST DUP2 PUSH1 0x4 ADD SWAP1 DUP2 PUSH2 0xFAE SWAP2 SWAP1 PUSH2 0x1B1E JUMP JUMPDEST POP DUP4 DUP2 PUSH1 0x5 ADD PUSH0 PUSH2 0x100 EXP DUP2 SLOAD DUP2 PUSH1 0xFF MUL NOT AND SWAP1 DUP4 ISZERO ISZERO MUL OR SWAP1 SSTORE POP PUSH0 DUP2 PUSH1 0x5 ADD PUSH1 0x1 PUSH2 0x100 EXP DUP2 SLOAD DUP2 PUSH1 0xFF MUL NOT AND SWAP1 DUP4 ISZERO ISZERO MUL OR SWAP1 SSTORE POP PUSH1 0x1 SWAP3 POP POP PUSH2 0xFFE JUMP JUMPDEST POP DUP1 DUP1 PUSH1 0x1 ADD SWAP2 POP POP PUSH2 0xE10 JUMP JUMPDEST POP DUP1 PUSH2 0x103F JUMPI PUSH1 0x40 MLOAD PUSH32 0x8C379A000000000000000000000000000000000000000000000000000000000 DUP2 MSTORE PUSH1 0x4 ADD PUSH2 0x1036 SWAP1 PUSH2 0x1D3A JUMP JUMPDEST PUSH1 0x40 MLOAD DUP1 SWAP2 SUB SWAP1 REVERT JUMPDEST POP POP POP POP POP JUMP JUMPDEST PUSH1 0x40 MLOAD DUP1 PUSH1 0xE0 ADD PUSH1 0x40 MSTORE DUP1 PUSH0 PUSH20 0xFFFFFFFFFFFFFFFFFFFFFFFFFFFFFFFFFFFFFFFF AND DUP2 MSTORE PUSH1 0x20 ADD PUSH1 0x60 DUP2 MSTORE PUSH1 0x20 ADD PUSH0 DUP2 MSTORE PUSH1 0x20 ADD PUSH0 DUP2 MSTORE PUSH1 0x20 ADD PUSH1 0x60 DUP2 MSTORE PUSH1 0x20 ADD PUSH0 ISZERO ISZERO DUP2 MSTORE PUSH1 0x20 ADD PUSH0 ISZERO ISZERO DUP2 MSTORE POP SWAP1 JUMP JUMPDEST PUSH0 PUSH1 0x40 MLOAD SWAP1 POP SWAP1 JUMP JUMPDEST PUSH0 PUSH0 REVERT JUMPDEST PUSH0 PUSH0 REVERT JUMPDEST PUSH0 DUP2 SWAP1 POP SWAP2 SWAP1 POP JUMP JUMPDEST PUSH2 0x10BB DUP2 PUSH2 0x10A9 JUMP JUMPDEST DUP2 EQ PUSH2 0x10C5 JUMPI PUSH0 PUSH0 REVERT JUMPDEST POP JUMP JUMPDEST PUSH0 DUP2 CALLDATALOAD SWAP1 POP PUSH2 0x10D6 DUP2 PUSH2 0x10B2 JUMP JUMPDEST SWAP3 SWAP2 POP POP JUMP JUMPDEST PUSH0 PUSH1 0x20 DUP3 DUP5 SUB SLT ISZERO PUSH2 0x10F1 JUMPI PUSH2 0x10F0 PUSH2 0x10A1 JUMP JUMPDEST JUMPDEST PUSH0 PUSH2 0x10FE DUP5 DUP3 DUP6 ADD PUSH2 0x10C8 JUMP JUMPDEST SWAP2 POP POP SWAP3 SWAP2 POP POP JUMP JUMPDEST PUSH0 PUSH20 0xFFFFFFFFFFFFFFFFFFFFFFFFFFFFFFFFFFFFFFFF DUP3 AND SWAP1 POP SWAP2 SWAP1 POP JUMP JUMPDEST PUSH0 PUSH2 0x1130 DUP3 PUSH2 0x1107 JUMP JUMPDEST SWAP1 POP SWAP2 SWAP1 POP JUMP JUMPDEST PUSH2 0x1140 DUP2 PUSH2 0x1126 JUMP JUMPDEST DUP3 MSTORE POP POP JUMP JUMPDEST PUSH0 DUP2 MLOAD SWAP1 POP SWAP2 SWAP1 POP JUMP JUMPDEST PUSH0 DUP3 DUP3 MSTORE PUSH1 0x20 DUP3 ADD SWAP1 POP SWAP3 SWAP2 POP POP JUMP JUMPDEST DUP3 DUP2 DUP4 MCOPY PUSH0 DUP4 DUP4 ADD MSTORE POP POP POP JUMP JUMPDEST PUSH0 PUSH1 0x1F NOT PUSH1 0x1F DUP4 ADD AND SWAP1 POP SWAP2 SWAP1 POP JUMP JUMPDEST PUSH0 PUSH2 0x1188 DUP3 PUSH2 0x1146 JUMP JUMPDEST PUSH2 0x1192 DUP2 DUP6 PUSH2 0x1150 JUMP JUMPDEST SWAP4 POP PUSH2 0x11A2 DUP2 DUP6 PUSH1 0x20 DUP7 ADD PUSH2 0x1160 JUMP JUMPDEST PUSH2 0x11AB DUP2 PUSH2 0x116E JUMP JUMPDEST DUP5 ADD SWAP2 POP POP SWAP3 SWAP2 POP POP JUMP JUMPDEST PUSH2 0x11BF DUP2 PUSH2 0x10A9 JUMP JUMPDEST DUP3 MSTORE POP POP JUMP JUMPDEST PUSH0 DUP2 ISZERO ISZERO SWAP1 POP SWAP2 SWAP1 POP JUMP JUMPDEST PUSH2 0x11D9 DUP2 PUSH2 0x11C5 JUMP JUMPDEST DUP3 MSTORE POP POP JUMP JUMPDEST PUSH0 PUSH1 0xE0 DUP3 ADD SWAP1 POP PUSH2 0x11F2 PUSH0 DUP4 ADD DUP11 PUSH2 0x1137 JUMP JUMPDEST DUP2 DUP2 SUB PUSH1 0x20 DUP4 ADD MSTORE PUSH2 0x1204 DUP2 DUP10 PUSH2 0x117E JUMP JUMPDEST SWAP1 POP PUSH2 0x1213 PUSH1 0x40 DUP4 ADD DUP9 PUSH2 0x11B6 JUMP JUMPDEST PUSH2 0x1220 PUSH1 0x60 DUP4 ADD DUP8 PUSH2 0x11B6 JUMP JUMPDEST DUP2 DUP2 SUB PUSH1 0x80 DUP4 ADD MSTORE PUSH2 0x1232 DUP2 DUP7 PUSH2 0x117E JUMP JUMPDEST SWAP1 POP PUSH2 0x1241 PUSH1 0xA0 DUP4 ADD DUP6 PUSH2 0x11D0 JUMP JUMPDEST PUSH2 0x124E PUSH1 0xC0 DUP4 ADD DUP5 PUSH2 0x11D0 JUMP JUMPDEST SWAP9 SWAP8 POP POP POP POP POP POP POP POP JUMP JUMPDEST PUSH0 PUSH0 REVERT JUMPDEST PUSH0 PUSH0 REVERT JUMPDEST PUSH32 0x4E487B7100000000000000000000000000000000000000000000000000000000 PUSH0 MSTORE PUSH1 0x41 PUSH1 0x4 MSTORE PUSH1 0x24 PUSH0 REVERT JUMPDEST PUSH2 0x1298 DUP3 PUSH2 0x116E JUMP JUMPDEST DUP2 ADD DUP2 DUP2 LT PUSH8 0xFFFFFFFFFFFFFFFF DUP3 GT OR ISZERO PUSH2 0x12B7 JUMPI PUSH2 0x12B6 PUSH2 0x1262 JUMP JUMPDEST JUMPDEST DUP1 PUSH1 0x40 MSTORE POP POP POP JUMP JUMPDEST PUSH0 PUSH2 0x12C9 PUSH2 0x1098 JUMP JUMPDEST SWAP1 POP PUSH2 0x12D5 DUP3 DUP3 PUSH2 0x128F JUMP JUMPDEST SWAP2 SWAP1 POP JUMP JUMPDEST PUSH0 PUSH8 0xFFFFFFFFFFFFFFFF DUP3 GT ISZERO PUSH2 0x12F4 JUMPI PUSH2 0x12F3 PUSH2 0x1262 JUMP JUMPDEST JUMPDEST PUSH2 0x12FD DUP3 PUSH2 0x116E JUMP JUMPDEST SWAP1 POP PUSH1 0x20 DUP2 ADD SWAP1 POP SWAP2 SWAP1 POP JUMP JUMPDEST DUP3 DUP2 DUP4 CALLDATACOPY PUSH0 DUP4 DUP4 ADD MSTORE POP POP POP JUMP JUMPDEST PUSH0 PUSH2 0x132A PUSH2 0x1325 DUP5 PUSH2 0x12DA JUMP JUMPDEST PUSH2 0x12C0 JUMP JUMPDEST SWAP1 POP DUP3 DUP2 MSTORE PUSH1 0x20 DUP2 ADD DUP5 DUP5 DUP5 ADD GT ISZERO PUSH2 0x1346 JUMPI PUSH2 0x1345 PUSH2 0x125E JUMP JUMPDEST JUMPDEST PUSH2 0x1351 DUP5 DUP3 DUP6 PUSH2 0x130A JUMP JUMPDEST POP SWAP4 SWAP3 POP POP POP JUMP JUMPDEST PUSH0 DUP3 PUSH1 0x1F DUP4 ADD SLT PUSH2 0x136D JUMPI PUSH2 0x136C PUSH2 0x125A JUMP JUMPDEST JUMPDEST DUP2 CALLDATALOAD PUSH2 0x137D DUP5 DUP3 PUSH1 0x20 DUP7 ADD PUSH2 0x1318 JUMP JUMPDEST SWAP2 POP POP SWAP3 SWAP2 POP POP JUMP JUMPDEST PUSH2 0x138F DUP2 PUSH2 0x11C5 JUMP JUMPDEST DUP2 EQ PUSH2 0x1399 JUMPI PUSH0 PUSH0 REVERT JUMPDEST POP JUMP JUMPDEST PUSH0 DUP2 CALLDATALOAD SWAP1 POP PUSH2 0x13AA DUP2 PUSH2 0x1386 JUMP JUMPDEST SWAP3 SWAP2 POP POP JUMP JUMPDEST PUSH0 PUSH0 PUSH0 PUSH0 PUSH1 0x80 DUP6 DUP8 SUB SLT ISZERO PUSH2 0x13C8 JUMPI PUSH2 0x13C7 PUSH2 0x10A1 JUMP JUMPDEST JUMPDEST PUSH0 DUP6 ADD CALLDATALOAD PUSH8 0xFFFFFFFFFFFFFFFF DUP2 GT ISZERO PUSH2 0x13E5 JUMPI PUSH2 0x13E4 PUSH2 0x10A5 JUMP JUMPDEST JUMPDEST PUSH2 0x13F1 DUP8 DUP3 DUP9 ADD PUSH2 0x1359 JUMP JUMPDEST SWAP5 POP POP PUSH1 0x20 PUSH2 0x1402 DUP8 DUP3 DUP9 ADD PUSH2 0x10C8 JUMP JUMPDEST SWAP4 POP POP PUSH1 0x40 PUSH2 0x1413 DUP8 DUP3 DUP9 ADD PUSH2 0x10C8 JUMP JUMPDEST SWAP3 POP POP PUSH1 0x60 PUSH2 0x1424 DUP8 DUP3 DUP9 ADD PUSH2 0x139C JUMP JUMPDEST SWAP2 POP POP SWAP3 SWAP6 SWAP2 SWAP5 POP SWAP3 POP JUMP JUMPDEST PUSH0 PUSH1 0x20 DUP3 ADD SWAP1 POP PUSH2 0x1443 PUSH0 DUP4 ADD DUP5 PUSH2 0x11B6 JUMP JUMPDEST SWAP3 SWAP2 POP POP JUMP JUMPDEST PUSH2 0x1452 DUP2 PUSH2 0x1126 JUMP JUMPDEST DUP2 EQ PUSH2 0x145C JUMPI PUSH0 PUSH0 REVERT JUMPDEST POP JUMP JUMPDEST PUSH0 DUP2 CALLDATALOAD SWAP1 POP PUSH2 0x146D DUP2 PUSH2 0x1449 JUMP JUMPDEST SWAP3 SWAP2 POP POP JUMP JUMPDEST PUSH0 PUSH1 0x20 DUP3 DUP5 SUB SLT ISZERO PUSH2 0x1488 JUMPI PUSH2 0x1487 PUSH2 0x10A1 JUMP JUMPDEST JUMPDEST PUSH0 PUSH2 0x1495 DUP5 DUP3 DUP6 ADD PUSH2 0x145F JUMP JUMPDEST SWAP2 POP POP SWAP3 SWAP2 POP POP JUMP JUMPDEST PUSH0 PUSH1 0x20 DUP3 ADD SWAP1 POP PUSH2 0x14B1 PUSH0 DUP4 ADD DUP5 PUSH2 0x11D0 JUMP JUMPDEST SWAP3 SWAP2 POP POP JUMP JUMPDEST PUSH0 PUSH0 PUSH0 PUSH1 0x60 DUP5 DUP7 SUB SLT ISZERO PUSH2 0x14CE JUMPI PUSH2 0x14CD PUSH2 0x10A1 JUMP JUMPDEST JUMPDEST PUSH0 PUSH2 0x14DB DUP7 DUP3 DUP8 ADD PUSH2 0x145F JUMP JUMPDEST SWAP4 POP POP PUSH1 0x20 DUP5 ADD CALLDATALOAD PUSH8 0xFFFFFFFFFFFFFFFF DUP2 GT ISZERO PUSH2 0x14FC JUMPI PUSH2 0x14FB PUSH2 0x10A5 JUMP JUMPDEST JUMPDEST PUSH2 0x1508 DUP7 DUP3 DUP8 ADD PUSH2 0x1359 JUMP JUMPDEST SWAP3 POP POP PUSH1 0x40 PUSH2 0x1519 DUP7 DUP3 DUP8 ADD PUSH2 0x10C8 JUMP JUMPDEST SWAP2 POP POP SWAP3 POP SWAP3 POP SWAP3 JUMP JUMPDEST PUSH0 PUSH0 PUSH1 0x40 DUP4 DUP6 SUB SLT ISZERO PUSH2 0x1539 JUMPI PUSH2 0x1538 PUSH2 0x10A1 JUMP JUMPDEST JUMPDEST PUSH0 DUP4 ADD CALLDATALOAD PUSH8 0xFFFFFFFFFFFFFFFF DUP2 GT ISZERO PUSH2 0x1556 JUMPI PUSH2 0x1555 PUSH2 0x10A5 JUMP JUMPDEST JUMPDEST PUSH2 0x1562 DUP6 DUP3 DUP7 ADD PUSH2 0x1359 JUMP JUMPDEST SWAP3 POP POP PUSH1 0x20 PUSH2 0x1573 DUP6 DUP3 DUP7 ADD PUSH2 0x10C8 JUMP JUMPDEST SWAP2 POP POP SWAP3 POP SWAP3 SWAP1 POP JUMP JUMPDEST PUSH0 PUSH1 0x20 DUP3 ADD SWAP1 POP DUP2 DUP2 SUB PUSH0 DUP4 ADD MSTORE PUSH2 0x1595 DUP2 DUP5 PUSH2 0x117E JUMP JUMPDEST SWAP1 POP SWAP3 SWAP2 POP POP JUMP JUMPDEST PUSH0 PUSH1 0x20 DUP3 ADD SWAP1 POP PUSH2 0x15B0 PUSH0 DUP4 ADD DUP5 PUSH2 0x1137 JUMP JUMPDEST SWAP3 SWAP2 POP POP JUMP JUMPDEST PUSH0 DUP2 MLOAD SWAP1 POP SWAP2 SWAP1 POP JUMP JUMPDEST PUSH0 DUP3 DUP3 MSTORE PUSH1 0x20 DUP3 ADD SWAP1 POP SWAP3 SWAP2 POP POP JUMP JUMPDEST PUSH0 DUP2 SWAP1 POP PUSH1 0x20 DUP3 ADD SWAP1 POP SWAP2 SWAP1 POP JUMP JUMPDEST PUSH2 0x15E8 DUP2 PUSH2 0x1126 JUMP JUMPDEST DUP3 MSTORE POP POP JUMP JUMPDEST PUSH0 DUP3 DUP3 MSTORE PUSH1 0x20 DUP3 ADD SWAP1 POP SWAP3 SWAP2 POP POP JUMP JUMPDEST PUSH0 PUSH2 0x1608 DUP3 PUSH2 0x1146 JUMP JUMPDEST PUSH2 0x1612 DUP2 DUP6 PUSH2 0x15EE JUMP JUMPDEST SWAP4 POP PUSH2 0x1622 DUP2 DUP6 PUSH1 0x20 DUP7 ADD PUSH2 0x1160 JUMP JUMPDEST PUSH2 0x162B DUP2 PUSH2 0x116E JUMP JUMPDEST DUP5 ADD SWAP2 POP POP SWAP3 SWAP2 POP POP JUMP JUMPDEST PUSH2 0x163F DUP2 PUSH2 0x10A9 JUMP JUMPDEST DUP3 MSTORE POP POP JUMP JUMPDEST PUSH2 0x164E DUP2 PUSH2 0x11C5 JUMP JUMPDEST DUP3 MSTORE POP POP JUMP JUMPDEST PUSH0 PUSH1 0xE0 DUP4 ADD PUSH0 DUP4 ADD MLOAD PUSH2 0x1669 PUSH0 DUP7 ADD DUP3 PUSH2 0x15DF JUMP JUMPDEST POP PUSH1 0x20 DUP4 ADD MLOAD DUP5 DUP3 SUB PUSH1 0x20 DUP7 ADD MSTORE PUSH2 0x1681 DUP3 DUP3 PUSH2 0x15FE JUMP JUMPDEST SWAP2 POP POP PUSH1 0x40 DUP4 ADD MLOAD PUSH2 0x1696 PUSH1 0x40 DUP7 ADD DUP3 PUSH2 0x1636 JUMP JUMPDEST POP PUSH1 0x60 DUP4 ADD MLOAD PUSH2 0x16A9 PUSH1 0x60 DUP7 ADD DUP3 PUSH2 0x1636 JUMP JUMPDEST POP PUSH1 0x80 DUP4 ADD MLOAD DUP5 DUP3 SUB PUSH1 0x80 DUP7 ADD MSTORE PUSH2 0x16C1 DUP3 DUP3 PUSH2 0x15FE JUMP JUMPDEST SWAP2 POP POP PUSH1 0xA0 DUP4 ADD MLOAD PUSH2 0x16D6 PUSH1 0xA0 DUP7 ADD DUP3 PUSH2 0x1645 JUMP JUMPDEST POP PUSH1 0xC0 DUP4 ADD MLOAD PUSH2 0x16E9 PUSH1 0xC0 DUP7 ADD DUP3 PUSH2 0x1645 JUMP JUMPDEST POP DUP1 SWAP2 POP POP SWAP3 SWAP2 POP POP JUMP JUMPDEST PUSH0 PUSH2 0x16FF DUP4 DUP4 PUSH2 0x1654 JUMP JUMPDEST SWAP1 POP SWAP3 SWAP2 POP POP JUMP JUMPDEST PUSH0 PUSH1 0x20 DUP3 ADD SWAP1 POP SWAP2 SWAP1 POP JUMP JUMPDEST PUSH0 PUSH2 0x171D DUP3 PUSH2 0x15B6 JUMP JUMPDEST PUSH2 0x1727 DUP2 DUP6 PUSH2 0x15C0 JUMP JUMPDEST SWAP4 POP DUP4 PUSH1 0x20 DUP3 MUL DUP6 ADD PUSH2 0x1739 DUP6 PUSH2 0x15D0 JUMP JUMPDEST DUP1 PUSH0 JUMPDEST DUP6 DUP2 LT ISZERO PUSH2 0x1774 JUMPI DUP5 DUP5 SUB DUP10 MSTORE DUP2 MLOAD PUSH2 0x1755 DUP6 DUP3 PUSH2 0x16F4 JUMP JUMPDEST SWAP5 POP PUSH2 0x1760 DUP4 PUSH2 0x1707 JUMP JUMPDEST SWAP3 POP PUSH1 0x20 DUP11 ADD SWAP10 POP POP PUSH1 0x1 DUP2 ADD SWAP1 POP PUSH2 0x173C JUMP JUMPDEST POP DUP3 SWAP8 POP DUP8 SWAP6 POP POP POP POP POP POP SWAP3 SWAP2 POP POP JUMP JUMPDEST PUSH0 PUSH1 0x20 DUP3 ADD SWAP1 POP DUP2 DUP2 SUB PUSH0 DUP4 ADD MSTORE PUSH2 0x179E DUP2 DUP5 PUSH2 0x1713 JUMP JUMPDEST SWAP1 POP SWAP3 SWAP2 POP POP JUMP JUMPDEST PUSH32 0x4E487B7100000000000000000000000000000000000000000000000000000000 PUSH0 MSTORE PUSH1 0x22 PUSH1 0x4 MSTORE PUSH1 0x24 PUSH0 REVERT JUMPDEST PUSH0 PUSH1 0x2 DUP3 DIV SWAP1 POP PUSH1 0x1 DUP3 AND DUP1 PUSH2 0x17EA JUMPI PUSH1 0x7F DUP3 AND SWAP2 POP JUMPDEST PUSH1 0x20 DUP3 LT DUP2 SUB PUSH2 0x17FD JUMPI PUSH2 0x17FC PUSH2 0x17A6 JUMP JUMPDEST JUMPDEST POP SWAP2 SWAP1 POP JUMP JUMPDEST PUSH32 0x4E487B7100000000000000000000000000000000000000000000000000000000 PUSH0 MSTORE PUSH1 0x11 PUSH1 0x4 MSTORE PUSH1 0x24 PUSH0 REVERT JUMPDEST PUSH0 PUSH2 0x183A DUP3 PUSH2 0x10A9 JUMP JUMPDEST SWAP2 POP PUSH2 0x1845 DUP4 PUSH2 0x10A9 JUMP JUMPDEST SWAP3 POP DUP3 DUP3 SUB SWAP1 POP DUP2 DUP2 GT ISZERO PUSH2 0x185D JUMPI PUSH2 0x185C PUSH2 0x1803 JUMP JUMPDEST JUMPDEST SWAP3 SWAP2 POP POP JUMP JUMPDEST PUSH32 0x4E487B7100000000000000000000000000000000000000000000000000000000 PUSH0 MSTORE PUSH1 0x32 PUSH1 0x4 MSTORE PUSH1 0x24 PUSH0 REVERT JUMPDEST PUSH0 DUP2 SWAP1 POP SWAP3 SWAP2 POP POP JUMP JUMPDEST PUSH0 PUSH2 0x18A4 DUP3 PUSH2 0x1146 JUMP JUMPDEST PUSH2 0x18AE DUP2 DUP6 PUSH2 0x1890 JUMP JUMPDEST SWAP4 POP PUSH2 0x18BE DUP2 DUP6 PUSH1 0x20 DUP7 ADD PUSH2 0x1160 JUMP JUMPDEST DUP1 DUP5 ADD SWAP2 POP POP SWAP3 SWAP2 POP POP JUMP JUMPDEST PUSH0 PUSH2 0x18D5 DUP3 DUP5 PUSH2 0x189A JUMP JUMPDEST SWAP2 POP DUP2 SWAP1 POP SWAP3 SWAP2 POP POP JUMP JUMPDEST PUSH0 PUSH2 0x18EA DUP3 PUSH2 0x10A9 JUMP JUMPDEST SWAP2 POP PUSH2 0x18F5 DUP4 PUSH2 0x10A9 JUMP JUMPDEST SWAP3 POP DUP3 DUP3 MUL PUSH2 0x1903 DUP2 PUSH2 0x10A9 JUMP JUMPDEST SWAP2 POP DUP3 DUP3 DIV DUP5 EQ DUP4 ISZERO OR PUSH2 0x191A JUMPI PUSH2 0x1919 PUSH2 0x1803 JUMP JUMPDEST JUMPDEST POP SWAP3 SWAP2 POP POP JUMP JUMPDEST PUSH32 0x4E487B7100000000000000000000000000000000000000000000000000000000 PUSH0 MSTORE PUSH1 0x12 PUSH1 0x4 MSTORE PUSH1 0x24 PUSH0 REVERT JUMPDEST PUSH0 PUSH2 0x1958 DUP3 PUSH2 0x10A9 JUMP JUMPDEST SWAP2 POP PUSH2 0x1963 DUP4 PUSH2 0x10A9 JUMP JUMPDEST SWAP3 POP DUP3 PUSH2 0x1973 JUMPI PUSH2 0x1972 PUSH2 0x1921 JUMP JUMPDEST JUMPDEST DUP3 DUP3 DIV SWAP1 POP SWAP3 SWAP2 POP POP JUMP JUMPDEST PUSH0 DUP2 SWAP1 POP DUP2 PUSH0 MSTORE PUSH1 0x20 PUSH0 KECCAK256 SWAP1 POP SWAP2 SWAP1 POP JUMP JUMPDEST PUSH0 PUSH1 0x20 PUSH1 0x1F DUP4 ADD DIV SWAP1 POP SWAP2 SWAP1 POP JUMP JUMPDEST PUSH0 DUP3 DUP3 SHL SWAP1 POP SWAP3 SWAP2 POP POP JUMP JUMPDEST PUSH0 PUSH1 0x8 DUP4 MUL PUSH2 0x19DA PUSH32 0xFFFFFFFFFFFFFFFFFFFFFFFFFFFFFFFFFFFFFFFFFFFFFFFFFFFFFFFFFFFFFFFF DUP3 PUSH2 0x199F JUMP JUMPDEST PUSH2 0x19E4 DUP7 DUP4 PUSH2 0x199F JUMP JUMPDEST SWAP6 POP DUP1 NOT DUP5 AND SWAP4 POP DUP1 DUP7 AND DUP5 OR SWAP3 POP POP POP SWAP4 SWAP3 POP POP POP JUMP JUMPDEST PUSH0 DUP2 SWAP1 POP SWAP2 SWAP1 POP JUMP JUMPDEST PUSH0 PUSH2 0x1A1F PUSH2 0x1A1A PUSH2 0x1A15 DUP5 PUSH2 0x10A9 JUMP JUMPDEST PUSH2 0x19FC JUMP JUMPDEST PUSH2 0x10A9 JUMP JUMPDEST SWAP1 POP SWAP2 SWAP1 POP JUMP JUMPDEST PUSH0 DUP2 SWAP1 POP SWAP2 SWAP1 POP JUMP JUMPDEST PUSH2 0x1A38 DUP4 PUSH2 0x1A05 JUMP JUMPDEST PUSH2 0x1A4C PUSH2 0x1A44 DUP3 PUSH2 0x1A26 JUMP JUMPDEST DUP5 DUP5 SLOAD PUSH2 0x19AB JUMP JUMPDEST DUP3 SSTORE POP POP POP POP JUMP JUMPDEST PUSH0 PUSH0 SWAP1 POP SWAP1 JUMP JUMPDEST PUSH2 0x1A63 PUSH2 0x1A54 JUMP JUMPDEST PUSH2 0x1A6E DUP2 DUP5 DUP5 PUSH2 0x1A2F JUMP JUMPDEST POP POP POP JUMP JUMPDEST JUMPDEST DUP2 DUP2 LT ISZERO PUSH2 0x1A91 JUMPI PUSH2 0x1A86 PUSH0 DUP3 PUSH2 0x1A5B JUMP JUMPDEST PUSH1 0x1 DUP2 ADD SWAP1 POP PUSH2 0x1A74 JUMP JUMPDEST POP POP JUMP JUMPDEST PUSH1 0x1F DUP3 GT ISZERO PUSH2 0x1AD6 JUMPI PUSH2 0x1AA7 DUP2 PUSH2 0x197E JUMP JUMPDEST PUSH2 0x1AB0 DUP5 PUSH2 0x1990 JUMP JUMPDEST DUP2 ADD PUSH1 0x20 DUP6 LT ISZERO PUSH2 0x1ABF JUMPI DUP2 SWAP1 POP JUMPDEST PUSH2 0x1AD3 PUSH2 0x1ACB DUP6 PUSH2 0x1990 JUMP JUMPDEST DUP4 ADD DUP3 PUSH2 0x1A73 JUMP JUMPDEST POP POP JUMPDEST POP POP POP JUMP JUMPDEST PUSH0 DUP3 DUP3 SHR SWAP1 POP SWAP3 SWAP2 POP POP JUMP JUMPDEST PUSH0 PUSH2 0x1AF6 PUSH0 NOT DUP5 PUSH1 0x8 MUL PUSH2 0x1ADB JUMP JUMPDEST NOT DUP1 DUP4 AND SWAP2 POP POP SWAP3 SWAP2 POP POP JUMP JUMPDEST PUSH0 PUSH2 0x1B0E DUP4 DUP4 PUSH2 0x1AE7 JUMP JUMPDEST SWAP2 POP DUP3 PUSH1 0x2 MUL DUP3 OR SWAP1 POP SWAP3 SWAP2 POP POP JUMP JUMPDEST PUSH2 0x1B27 DUP3 PUSH2 0x1146 JUMP JUMPDEST PUSH8 0xFFFFFFFFFFFFFFFF DUP2 GT ISZERO PUSH2 0x1B40 JUMPI PUSH2 0x1B3F PUSH2 0x1262 JUMP JUMPDEST JUMPDEST PUSH2 0x1B4A DUP3 SLOAD PUSH2 0x17D3 JUMP JUMPDEST PUSH2 0x1B55 DUP3 DUP3 DUP6 PUSH2 0x1A95 JUMP JUMPDEST PUSH0 PUSH1 0x20 SWAP1 POP PUSH1 0x1F DUP4 GT PUSH1 0x1 DUP2 EQ PUSH2 0x1B86 JUMPI PUSH0 DUP5 ISZERO PUSH2 0x1B74 JUMPI DUP3 DUP8 ADD MLOAD SWAP1 POP JUMPDEST PUSH2 0x1B7E DUP6 DUP3 PUSH2 0x1B03 JUMP JUMPDEST DUP7 SSTORE POP PUSH2 0x1BE5 JUMP JUMPDEST PUSH1 0x1F NOT DUP5 AND PUSH2 0x1B94 DUP7 PUSH2 0x197E JUMP JUMPDEST PUSH0 JUMPDEST DUP3 DUP2 LT ISZERO PUSH2 0x1BBB JUMPI DUP5 DUP10 ADD MLOAD DUP3 SSTORE PUSH1 0x1 DUP3 ADD SWAP2 POP PUSH1 0x20 DUP6 ADD SWAP5 POP PUSH1 0x20 DUP2 ADD SWAP1 POP PUSH2 0x1B96 JUMP JUMPDEST DUP7 DUP4 LT ISZERO PUSH2 0x1BD8 JUMPI DUP5 DUP10 ADD MLOAD PUSH2 0x1BD4 PUSH1 0x1F DUP10 AND DUP3 PUSH2 0x1AE7 JUMP JUMPDEST DUP4 SSTORE POP JUMPDEST PUSH1 0x1 PUSH1 0x2 DUP9 MUL ADD DUP9 SSTORE POP POP POP JUMPDEST POP POP POP POP POP POP JUMP JUMPDEST PUSH0 PUSH2 0x1BF7 DUP3 PUSH2 0x10A9 JUMP JUMPDEST SWAP2 POP PUSH32 0xFFFFFFFFFFFFFFFFFFFFFFFFFFFFFFFFFFFFFFFFFFFFFFFFFFFFFFFFFFFFFFFF DUP3 SUB PUSH2 0x1C29 JUMPI PUSH2 0x1C28 PUSH2 0x1803 JUMP JUMPDEST JUMPDEST PUSH1 0x1 DUP3 ADD SWAP1 POP SWAP2 SWAP1 POP JUMP JUMPDEST PUSH0 DUP2 SLOAD PUSH2 0x1C40 DUP2 PUSH2 0x17D3 JUMP JUMPDEST PUSH2 0x1C4A DUP2 DUP7 PUSH2 0x1890 JUMP JUMPDEST SWAP5 POP PUSH1 0x1 DUP3 AND PUSH0 DUP2 EQ PUSH2 0x1C64 JUMPI PUSH1 0x1 DUP2 EQ PUSH2 0x1C79 JUMPI PUSH2 0x1CAB JUMP JUMPDEST PUSH1 0xFF NOT DUP4 AND DUP7 MSTORE DUP2 ISZERO ISZERO DUP3 MUL DUP7 ADD SWAP4 POP PUSH2 0x1CAB JUMP JUMPDEST PUSH2 0x1C82 DUP6 PUSH2 0x197E JUMP JUMPDEST PUSH0 JUMPDEST DUP4 DUP2 LT ISZERO PUSH2 0x1CA3 JUMPI DUP2 SLOAD DUP2 DUP10 ADD MSTORE PUSH1 0x1 DUP3 ADD SWAP2 POP PUSH1 0x20 DUP2 ADD SWAP1 POP PUSH2 0x1C84 JUMP JUMPDEST DUP4 DUP9 ADD SWAP6 POP POP POP JUMPDEST POP POP POP SWAP3 SWAP2 POP POP JUMP JUMPDEST PUSH0 PUSH2 0x1CBF DUP3 DUP5 PUSH2 0x1C34 JUMP JUMPDEST SWAP2 POP DUP2 SWAP1 POP SWAP3 SWAP2 POP POP JUMP JUMPDEST PUSH32 0x4E6F20617661696C61626C65207469636B65747320666F722074686520737065 PUSH0 DUP3 ADD MSTORE PUSH32 0x6369666965642064657374696E6174696F6E0000000000000000000000000000 PUSH1 0x20 DUP3 ADD MSTORE POP JUMP JUMPDEST PUSH0 PUSH2 0x1D24 PUSH1 0x32 DUP4 PUSH2 0x1150 JUMP JUMPDEST SWAP2 POP PUSH2 0x1D2F DUP3 PUSH2 0x1CCA JUMP JUMPDEST PUSH1 0x40 DUP3 ADD SWAP1 POP SWAP2 SWAP1 POP JUMP JUMPDEST PUSH0 PUSH1 0x20 DUP3 ADD SWAP1 POP DUP2 DUP2 SUB PUSH0 DUP4 ADD MSTORE PUSH2 0x1D51 DUP2 PUSH2 0x1D18 JUMP JUMPDEST SWAP1 POP SWAP2 SWAP1 POP JUMP INVALID LOG2 PUSH5 0x6970667358 0x22 SLT KECCAK256 TLOAD SUB 0xDD 0xAF 0xEE JUMP 0xD0 0xB8 0xDE 0xA9 SDIV 0xEC GASLIMIT PUSH5 0x2726F6271C TSTORE SHR 0x4B SMOD RETURNDATASIZE 0x29 0xBD LOG0 0x24 PUSH32 0x4F38F564736F6C634300081C0033000000000000000000000000000000000000 "},"gasEstimates":{"creation":{"codeDepositCost":"1513200","executionCost":"infinite","totalCost":"infinite"},"external":{"bookFlight(string,uint256,uint256,bool)":"infinite","ceo()":"2529","classMultiplier(uint256)":"infinite","create30Tickets(address,string,uint256)":"infinite","createDestination(string,uint256)":"infinite","destinationPrices(uint256)":"infinite","destinations(uint256)":"infinite","getBookedFlights(address)":"infinite","getPrice(string,uint256,uint256,bool)":"infinite","isCeo(address)":"2844","monthMultiplier(uint256)":"infinite","nextTicketId()":"2448","ticketDetails(uint256)":"infinite"}},"methodIdentifiers":{"bookFlight(string,uint256,uint256,bool)":"ea6e358e","ceo()":"908921fc","classMultiplier(uint256)":"695dc67e","create30Tickets(address,string,uint256)":"4afe9f7b","createDestination(string,uint256)":"5e583e37","destinationPrices(uint256)":"195c1445","destinations(uint256)":"8dd4ba2e","getBookedFlights(address)":"ad03fe70","getPrice(string,uint256,uint256,bool)":"07819bd6","isCeo(address)":"1165e6ab","monthMultiplier(uint256)":"cb2cc82a","nextTicketId()":"6031a52f","ticketDetails(uint256)":"033fab35"}},"storageLayout":{"storage":[{"astId":18,"contract":"AirlineManagement.sol:AirlineManagement","label":"ceo","offset":0,"slot":"0","type":"t_address"},{"astId":21,"contract":"AirlineManagement.sol:AirlineManagement","label":"destinations","offset":0,"slot":"1","type":"t_array(t_string_storage)dyn_storage"},{"astId":24,"contract":"AirlineManagement.sol:AirlineManagement","label":"destinationPrices","offset":0,"slot":"2","type":"t_array(t_uint256)dyn_storage"},{"astId":28,"contract":"AirlineManagement.sol:AirlineManagement","label":"indexes","offset":0,"slot":"3","type":"t_mapping(t_string_memory_ptr,t_uint256)"},{"astId":32,"contract":"AirlineManagement.sol:AirlineManagement","label":"monthMultiplier","offset":0,"slot":"4","type":"t_array(t_uint256)12_storage"},{"astId":36,"contract":"AirlineManagement.sol:AirlineManagement","label":"classMultiplier","offset":0,"slot":"16","type":"t_array(t_uint256)3_storage"},{"astId":38,"contract":"AirlineManagement.sol:AirlineManagement","label":"count","offset":0,"slot":"19","type":"t_uint256"},{"astId":43,"contract":"AirlineManagement.sol:AirlineManagement","label":"ticketDetails","offset":0,"slot":"20","type":"t_mapping(t_uint256,t_struct(Ticket)16_storage)"},{"astId":45,"contract":"AirlineManagement.sol:AirlineManagement","label":"nextTicketId","offset":0,"slot":"21","type":"t_uint256"}],"types":{"t_address":{"encoding":"inplace","label":"address","numberOfBytes":"20"},"t_array(t_string_storage)dyn_storage":{"base":"t_string_storage","encoding":"dynamic_array","label":"string[]","numberOfBytes":"32"},"t_array(t_uint256)12_storage":{"base":"t_uint256","encoding":"inplace","label":"uint256[12]","numberOfBytes":"384"},"t_array(t_uint256)3_storage":{"base":"t_uint256","encoding":"inplace","label":"uint256[3]","numberOfBytes":"96"},"t_array(t_uint256)dyn_storage":{"base":"t_uint256","encoding":"dynamic_array","label":"uint256[]","numberOfBytes":"32"},"t_bool":{"encoding":"inplace","label":"bool","numberOfBytes":"1"},"t_mapping(t_string_memory_ptr,t_uint256)":{"encoding":"mapping","key":"t_string_memory_ptr","label":"mapping(string => uint256)","numberOfBytes":"32","value":"t_uint256"},"t_mapping(t_uint256,t_struct(Ticket)16_storage)":{"encoding":"mapping","key":"t_uint256","label":"mapping(uint256 => struct AirlineManagement.Ticket)","numberOfBytes":"32","value":"t_struct(Ticket)16_storage"},"t_string_memory_ptr":{"encoding":"bytes","label":"string","numberOfBytes":"32"},"t_string_storage":{"encoding":"bytes","label":"string","numberOfBytes":"32"},"t_struct(Ticket)16_storage":{"encoding":"inplace","label":"struct AirlineManagement.Ticket","members":[{"astId":3,"contract":"AirlineManagement.sol:AirlineManagement","label":"owner","offset":0,"slot":"0","type":"t_address"},{"astId":5,"contract":"AirlineManagement.sol:AirlineManagement","label":"destination","offset":0,"slot":"1","type":"t_string_storage"},{"astId":7,"contract":"AirlineManagement.sol:AirlineManagement","label":"price","offset":0,"slot":"2","type":"t_uint256"},{"astId":9,"contract":"AirlineManagement.sol:AirlineManagement","label":"seat","offset":0,"slot":"3","type":"t_uint256"},{"astId":11,"contract":"AirlineManagement.sol:AirlineManagement","label":"class","offset":0,"slot":"4","type":"t_string_storage"},{"astId":13,"contract":"AirlineManagement.sol:AirlineManagement","label":"roundTrip","offset":0,"slot":"5","type":"t_bool"},{"astId":15,"contract":"AirlineManagement.sol:AirlineManagement","label":"isAvailable","offset":1,"slot":"5","type":"t_bool"}],"numberOfBytes":"192"},"t_uint256":{"encoding":"inplace","label":"uint256","numberOfBytes":"32"}}},"transientStorageLayout":{"storage":[],"types":null},"userdoc":{"kind":"user","methods":{},"version":1}}