{"abi":[{"inputs":[{"internalType":"string","name":"destination","type":"string"},{"internalType":"uint256","name":"destinationPrice","type":"uint256"}],"stateMutability":"nonpayable","type":"constructor"},{"inputs":[{"internalType":"string","name":"destination","type":"string"},{"internalType":"uint256","name":"month","type":"uint256"},{"internalType":"uint256","name":"class","type":"uint256"},{"internalType":"bool","name":"way","type":"bool"}],"name":"bookFlight","outputs":[],"stateMutability":"payable","type":"function"},{"inputs":[],"name":"ceo","outputs":[{"internalType":"address","name":"","type":"address"}],"stateMutability":"view","type":"function"},{"inputs":[{"internalType":"uint256","name":"","type":"uint256"}],"name":"classMultiplier","outputs":[{"internalType":"uint256","name":"","type":"uint256"}],"stateMutability":"view","type":"function"},{"inputs":[{"internalType":"address","name":"owner","type":"address"},{"internalType":"string","name":"destination","type":"string"},{"internalType":"uint256","name":"price","type":"uint256"}],"name":"create30Tickets","outputs":[],"stateMutability":"nonpayable","type":"function"},{"inputs":[{"internalType":"string","name":"destination","type":"string"},{"internalType":"uint256","name":"destinationPrice","type":"uint256"}],"name":"createDestination","outputs":[],"stateMutability":"nonpayable","type":"function"},{"inputs":[{"internalType":"uint256","name":"","type":"uint256"}],"name":"destinationPrices","outputs":[{"internalType":"uint256","name":"","type":"uint256"}],"stateMutability":"view","type":"function"},{"inputs":[{"internalType":"uint256","name":"","type":"uint256"}],"name":"destinations","outputs":[{"internalType":"string","name":"","type":"string"}],"stateMutability":"view","type":"function"},{"inputs":[{"internalType":"address","name":"user","type":"address"}],"name":"getBookedFlights","outputs":[{"components":[{"internalType":"address","name":"owner","type":"address"},{"internalType":"string","name":"destination","type":"string"},{"internalType":"uint256","name":"price","type":"uint256"},{"internalType":"uint256","name":"seat","type":"uint256"},{"internalType":"string","name":"class","type":"string"},{"internalType":"bool","name":"roundTrip","type":"bool"},{"internalType":"bool","name":"isAvailable","type":"bool"}],"internalType":"struct AirlineManagement.Ticket[]","name":"","type":"tuple[]"}],"stateMutability":"view","type":"function"},{"inputs":[{"internalType":"string","name":"destination","type":"string"},{"internalType":"uint256","name":"month","type":"uint256"},{"internalType":"uint256","name":"class","type":"uint256"},{"internalType":"bool","name":"way","type":"bool"}],"name":"getPrice","outputs":[{"internalType":"uint256","name":"","type":"uint256"}],"stateMutability":"view","type":"function"},{"inputs":[{"internalType":"address","name":"user","type":"address"}],"name":"isCeo","outputs":[{"internalType":"bool","name":"","type":"bool"}],"stateMutability":"view","type":"function"},{"inputs":[{"internalType":"uint256","name":"","type":"uint256"}],"name":"monthMultiplier","outputs":[{"internalType":"uint256","name":"","type":"uint256"}],"stateMutability":"view","type":"function"},{"inputs":[],"name":"nextTicketId","outputs":[{"internalType":"uint256","name":"","type":"uint256"}],"stateMutability":"view","type":"function"},{"inputs":[{"internalType":"uint256","name":"","type":"uint256"}],"name":"ticketDetails","outputs":[{"internalType":"address","name":"owner","type":"address"},{"internalType":"string","name":"destination","type":"string"},{"internalType":"uint256","name":"price","type":"uint256"},{"internalType":"uint256","name":"seat","type":"uint256"},{"internalType":"string","name":"class","type":"string"},{"internalType":"bool","name":"roundTrip","type":"bool"},{"internalType":"bool","name":"isAvailable","type":"bool"}],"stateMutability":"view","type":"function"}],"devdoc":{"kind":"dev","methods":{},"version":1},"evm":{"assembly":"    /* \"AirlineManagement.sol\":62:5068  contract AirlineManagement {... */\n  mstore(0x40, 0x80)\n    /* \"AirlineManagement.sol\":1028:1901  constructor(string memory destination, uint256 destinationPrice) {... */\n  callvalue\n  dup1\n  iszero\n  tag_1\n  jumpi\n  revert(0x00, 0x00)\ntag_1:\n  pop\n  mload(0x40)\n  sub(codesize, bytecodeSize)\n  dup1\n  bytecodeSize\n  dup4\n  codecopy\n  dup2\n  dup2\n  add\n  0x40\n  mstore\n  dup2\n  add\n  swap1\n  tag_2\n  swap2\n  swap1\n  tag_3\n  jump\t// in\ntag_2:\n    /* \"AirlineManagement.sol\":1109:1119  msg.sender */\n  caller\n    /* \"AirlineManagement.sol\":1103:1106  ceo */\n  0x00\n  0x00\n    /* \"AirlineManagement.sol\":1103:1119  ceo = msg.sender */\n  0x0100\n  exp\n  dup2\n  sload\n  dup2\n  0xffffffffffffffffffffffffffffffffffffffff\n  mul\n  not\n  and\n  swap1\n  dup4\n  0xffffffffffffffffffffffffffffffffffffffff\n  and\n  mul\n  or\n  swap1\n  sstore\n  pop\n    /* \"AirlineManagement.sol\":1137:1138  0 */\n  0x00\n    /* \"AirlineManagement.sol\":1129:1134  count */\n  0x13\n    /* \"AirlineManagement.sol\":1129:1138  count = 0 */\n  dup2\n  swap1\n  sstore\n  pop\n    /* \"AirlineManagement.sol\":1148:1160  destinations */\n  0x01\n    /* \"AirlineManagement.sol\":1166:1177  destination */\n  dup3\n    /* \"AirlineManagement.sol\":1148:1178  destinations.push(destination) */\n  swap1\n  dup1\n  0x01\n  dup2\n  sload\n  add\n  dup1\n  dup3\n  sstore\n  dup1\n  swap2\n  pop\n  pop\n  0x01\n  swap1\n  sub\n  swap1\n  0x00\n  mstore\n  keccak256(0x00, 0x20)\n  add\n  0x00\n  swap1\n  swap2\n  swap1\n  swap2\n  swap1\n  swap2\n  pop\n  swap1\n  dup2\n  tag_7\n  swap2\n  swap1\n  tag_8\n  jump\t// in\ntag_7:\n  pop\n    /* \"AirlineManagement.sol\":1188:1205  destinationPrices */\n  0x02\n    /* \"AirlineManagement.sol\":1211:1227  destinationPrice */\n  dup2\n    /* \"AirlineManagement.sol\":1188:1228  destinationPrices.push(destinationPrice) */\n  swap1\n  dup1\n  0x01\n  dup2\n  sload\n  add\n  dup1\n  dup3\n  sstore\n  dup1\n  swap2\n  pop\n  pop\n  0x01\n  swap1\n  sub\n  swap1\n  0x00\n  mstore\n  keccak256(0x00, 0x20)\n  add\n  0x00\n  swap1\n  swap2\n  swap1\n  swap2\n  swap1\n  swap2\n  pop\n  sstore\n    /* \"AirlineManagement.sol\":1261:1266  count */\n  sload(0x13)\n    /* \"AirlineManagement.sol\":1238:1245  indexes */\n  0x03\n    /* \"AirlineManagement.sol\":1246:1257  destination */\n  dup4\n    /* \"AirlineManagement.sol\":1238:1258  indexes[destination] */\n  mload(0x40)\n  tag_10\n  swap2\n  swap1\n  tag_11\n  jump\t// in\ntag_10:\n  swap1\n  dup2\n  mstore\n  0x20\n  add\n  mload(0x40)\n  dup1\n  swap2\n  sub\n  swap1\n  keccak256\n    /* \"AirlineManagement.sol\":1238:1266  indexes[destination] = count */\n  dup2\n  swap1\n  sstore\n  pop\n    /* \"AirlineManagement.sol\":1276:1334  create30Tickets(msg.sender, destination, destinationPrice) */\n  tag_12\n    /* \"AirlineManagement.sol\":1292:1302  msg.sender */\n  caller\n    /* \"AirlineManagement.sol\":1304:1315  destination */\n  dup4\n    /* \"AirlineManagement.sol\":1317:1333  destinationPrice */\n  dup4\n    /* \"AirlineManagement.sol\":1276:1291  create30Tickets */\n  shl(0x20, tag_13)\n    /* \"AirlineManagement.sol\":1276:1334  create30Tickets(msg.sender, destination, destinationPrice) */\n  0x20\n  shr\n  jump\t// in\ntag_12:\n    /* \"AirlineManagement.sol\":1404:1405  1 */\n  0x01\n    /* \"AirlineManagement.sol\":1383:1398  monthMultiplier */\n  0x04\n    /* \"AirlineManagement.sol\":1399:1400  0 */\n  0x00\n    /* \"AirlineManagement.sol\":1383:1401  monthMultiplier[0] */\n  0x0c\n  dup2\n  lt\n  tag_14\n  jumpi\n  tag_15\n  tag_16\n  jump\t// in\ntag_15:\ntag_14:\n  add\n    /* \"AirlineManagement.sol\":1383:1405  monthMultiplier[0] = 1 */\n  dup2\n  swap1\n  sstore\n  pop\n    /* \"AirlineManagement.sol\":1436:1437  1 */\n  0x01\n    /* \"AirlineManagement.sol\":1415:1430  monthMultiplier */\n  0x04\n    /* \"AirlineManagement.sol\":1431:1432  1 */\n  0x01\n    /* \"AirlineManagement.sol\":1415:1433  monthMultiplier[1] */\n  0x0c\n  dup2\n  lt\n  tag_18\n  jumpi\n  tag_19\n  tag_16\n  jump\t// in\ntag_19:\ntag_18:\n  add\n    /* \"AirlineManagement.sol\":1415:1437  monthMultiplier[1] = 1 */\n  dup2\n  swap1\n  sstore\n  pop\n    /* \"AirlineManagement.sol\":1468:1469  1 */\n  0x01\n    /* \"AirlineManagement.sol\":1447:1462  monthMultiplier */\n  0x04\n    /* \"AirlineManagement.sol\":1463:1464  2 */\n  0x02\n    /* \"AirlineManagement.sol\":1447:1465  monthMultiplier[2] */\n  0x0c\n  dup2\n  lt\n  tag_21\n  jumpi\n  tag_22\n  tag_16\n  jump\t// in\ntag_22:\ntag_21:\n  add\n    /* \"AirlineManagement.sol\":1447:1469  monthMultiplier[2] = 1 */\n  dup2\n  swap1\n  sstore\n  pop\n    /* \"AirlineManagement.sol\":1500:1501  1 */\n  0x01\n    /* \"AirlineManagement.sol\":1479:1494  monthMultiplier */\n  0x04\n    /* \"AirlineManagement.sol\":1495:1496  3 */\n  0x03\n    /* \"AirlineManagement.sol\":1479:1497  monthMultiplier[3] */\n  0x0c\n  dup2\n  lt\n  tag_24\n  jumpi\n  tag_25\n  tag_16\n  jump\t// in\ntag_25:\ntag_24:\n  add\n    /* \"AirlineManagement.sol\":1479:1501  monthMultiplier[3] = 1 */\n  dup2\n  swap1\n  sstore\n  pop\n    /* \"AirlineManagement.sol\":1532:1533  1 */\n  0x01\n    /* \"AirlineManagement.sol\":1511:1526  monthMultiplier */\n  0x04\n    /* \"AirlineManagement.sol\":1527:1528  4 */\n  dup1\n    /* \"AirlineManagement.sol\":1511:1529  monthMultiplier[4] */\n  0x0c\n  dup2\n  lt\n  tag_27\n  jumpi\n  tag_28\n  tag_16\n  jump\t// in\ntag_28:\ntag_27:\n  add\n    /* \"AirlineManagement.sol\":1511:1533  monthMultiplier[4] = 1 */\n  dup2\n  swap1\n  sstore\n  pop\n    /* \"AirlineManagement.sol\":1564:1565  1 */\n  0x01\n    /* \"AirlineManagement.sol\":1543:1558  monthMultiplier */\n  0x04\n    /* \"AirlineManagement.sol\":1559:1560  5 */\n  0x05\n    /* \"AirlineManagement.sol\":1543:1561  monthMultiplier[5] */\n  0x0c\n  dup2\n  lt\n  tag_30\n  jumpi\n  tag_31\n  tag_16\n  jump\t// in\ntag_31:\ntag_30:\n  add\n    /* \"AirlineManagement.sol\":1543:1565  monthMultiplier[5] = 1 */\n  dup2\n  swap1\n  sstore\n  pop\n    /* \"AirlineManagement.sol\":1596:1597  1 */\n  0x01\n    /* \"AirlineManagement.sol\":1575:1590  monthMultiplier */\n  0x04\n    /* \"AirlineManagement.sol\":1591:1592  6 */\n  0x06\n    /* \"AirlineManagement.sol\":1575:1593  monthMultiplier[6] */\n  0x0c\n  dup2\n  lt\n  tag_33\n  jumpi\n  tag_34\n  tag_16\n  jump\t// in\ntag_34:\ntag_33:\n  add\n    /* \"AirlineManagement.sol\":1575:1597  monthMultiplier[6] = 1 */\n  dup2\n  swap1\n  sstore\n  pop\n    /* \"AirlineManagement.sol\":1628:1629  1 */\n  0x01\n    /* \"AirlineManagement.sol\":1607:1622  monthMultiplier */\n  0x04\n    /* \"AirlineManagement.sol\":1623:1624  7 */\n  0x07\n    /* \"AirlineManagement.sol\":1607:1625  monthMultiplier[7] */\n  0x0c\n  dup2\n  lt\n  tag_36\n  jumpi\n  tag_37\n  tag_16\n  jump\t// in\ntag_37:\ntag_36:\n  add\n    /* \"AirlineManagement.sol\":1607:1629  monthMultiplier[7] = 1 */\n  dup2\n  swap1\n  sstore\n  pop\n    /* \"AirlineManagement.sol\":1660:1661  1 */\n  0x01\n    /* \"AirlineManagement.sol\":1639:1654  monthMultiplier */\n  0x04\n    /* \"AirlineManagement.sol\":1655:1656  8 */\n  0x08\n    /* \"AirlineManagement.sol\":1639:1657  monthMultiplier[8] */\n  0x0c\n  dup2\n  lt\n  tag_39\n  jumpi\n  tag_40\n  tag_16\n  jump\t// in\ntag_40:\ntag_39:\n  add\n    /* \"AirlineManagement.sol\":1639:1661  monthMultiplier[8] = 1 */\n  dup2\n  swap1\n  sstore\n  pop\n    /* \"AirlineManagement.sol\":1692:1693  1 */\n  0x01\n    /* \"AirlineManagement.sol\":1671:1686  monthMultiplier */\n  0x04\n    /* \"AirlineManagement.sol\":1687:1688  9 */\n  0x09\n    /* \"AirlineManagement.sol\":1671:1689  monthMultiplier[9] */\n  0x0c\n  dup2\n  lt\n  tag_42\n  jumpi\n  tag_43\n  tag_16\n  jump\t// in\ntag_43:\ntag_42:\n  add\n    /* \"AirlineManagement.sol\":1671:1693  monthMultiplier[9] = 1 */\n  dup2\n  swap1\n  sstore\n  pop\n    /* \"AirlineManagement.sol\":1725:1726  1 */\n  0x01\n    /* \"AirlineManagement.sol\":1703:1718  monthMultiplier */\n  0x04\n    /* \"AirlineManagement.sol\":1719:1721  10 */\n  0x0a\n    /* \"AirlineManagement.sol\":1703:1722  monthMultiplier[10] */\n  0x0c\n  dup2\n  lt\n  tag_45\n  jumpi\n  tag_46\n  tag_16\n  jump\t// in\ntag_46:\ntag_45:\n  add\n    /* \"AirlineManagement.sol\":1703:1726  monthMultiplier[10] = 1 */\n  dup2\n  swap1\n  sstore\n  pop\n    /* \"AirlineManagement.sol\":1758:1759  1 */\n  0x01\n    /* \"AirlineManagement.sol\":1736:1751  monthMultiplier */\n  0x04\n    /* \"AirlineManagement.sol\":1752:1754  11 */\n  0x0b\n    /* \"AirlineManagement.sol\":1736:1755  monthMultiplier[11] */\n  0x0c\n  dup2\n  lt\n  tag_48\n  jumpi\n  tag_49\n  tag_16\n  jump\t// in\ntag_49:\ntag_48:\n  add\n    /* \"AirlineManagement.sol\":1736:1759  monthMultiplier[11] = 1 */\n  dup2\n  swap1\n  sstore\n  pop\n    /* \"AirlineManagement.sol\":1829:1830  1 */\n  0x01\n    /* \"AirlineManagement.sol\":1808:1823  classMultiplier */\n  0x10\n    /* \"AirlineManagement.sol\":1824:1825  0 */\n  0x00\n    /* \"AirlineManagement.sol\":1808:1826  classMultiplier[0] */\n  0x03\n  dup2\n  lt\n  tag_51\n  jumpi\n  tag_52\n  tag_16\n  jump\t// in\ntag_52:\ntag_51:\n  add\n    /* \"AirlineManagement.sol\":1808:1830  classMultiplier[0] = 1 */\n  dup2\n  swap1\n  sstore\n  pop\n    /* \"AirlineManagement.sol\":1861:1862  1 */\n  0x01\n    /* \"AirlineManagement.sol\":1840:1855  classMultiplier */\n  0x10\n    /* \"AirlineManagement.sol\":1856:1857  1 */\n  0x01\n    /* \"AirlineManagement.sol\":1840:1858  classMultiplier[1] */\n  0x03\n  dup2\n  lt\n  tag_54\n  jumpi\n  tag_55\n  tag_16\n  jump\t// in\ntag_55:\ntag_54:\n  add\n    /* \"AirlineManagement.sol\":1840:1862  classMultiplier[1] = 1 */\n  dup2\n  swap1\n  sstore\n  pop\n    /* \"AirlineManagement.sol\":1893:1894  1 */\n  0x01\n    /* \"AirlineManagement.sol\":1872:1887  classMultiplier */\n  0x10\n    /* \"AirlineManagement.sol\":1888:1889  2 */\n  0x02\n    /* \"AirlineManagement.sol\":1872:1890  classMultiplier[2] */\n  0x03\n  dup2\n  lt\n  tag_57\n  jumpi\n  tag_58\n  tag_16\n  jump\t// in\ntag_58:\ntag_57:\n  add\n    /* \"AirlineManagement.sol\":1872:1894  classMultiplier[2] = 1 */\n  dup2\n  swap1\n  sstore\n  pop\n    /* \"AirlineManagement.sol\":1028:1901  constructor(string memory destination, uint256 destinationPrice) {... */\n  pop\n  pop\n    /* \"AirlineManagement.sol\":62:5068  contract AirlineManagement {... */\n  jump(tag_60)\n    /* \"AirlineManagement.sol\":2284:2620  function create30Tickets(address owner, string memory destination, uint256 price) public restricted {... */\ntag_13:\n    /* \"AirlineManagement.sol\":965:968  ceo */\n  0x00\n  0x00\n  swap1\n  sload\n  swap1\n  0x0100\n  exp\n  swap1\n  div\n  0xffffffffffffffffffffffffffffffffffffffff\n  and\n    /* \"AirlineManagement.sol\":951:968  msg.sender == ceo */\n  0xffffffffffffffffffffffffffffffffffffffff\n  and\n    /* \"AirlineManagement.sol\":951:961  msg.sender */\n  caller\n    /* \"AirlineManagement.sol\":951:968  msg.sender == ceo */\n  0xffffffffffffffffffffffffffffffffffffffff\n  and\n  eq\n    /* \"AirlineManagement.sol\":943:969  require(msg.sender == ceo) */\n  tag_62\n  jumpi\n  revert(0x00, 0x00)\ntag_62:\n    /* \"AirlineManagement.sol\":2399:2411  uint256 seat */\n  0x00\n    /* \"AirlineManagement.sol\":2414:2415  0 */\n  0x00\n    /* \"AirlineManagement.sol\":2399:2415  uint256 seat = 0 */\n  swap1\n  pop\n    /* \"AirlineManagement.sol\":2394:2614  for (uint256 seat = 0; seat < 30; seat++) {... */\ntag_64:\n    /* \"AirlineManagement.sol\":2424:2426  30 */\n  0x1e\n    /* \"AirlineManagement.sol\":2417:2421  seat */\n  dup2\n    /* \"AirlineManagement.sol\":2417:2426  seat < 30 */\n  lt\n    /* \"AirlineManagement.sol\":2394:2614  for (uint256 seat = 0; seat < 30; seat++) {... */\n  iszero\n  tag_65\n  jumpi\n    /* \"AirlineManagement.sol\":2450:2465  uint256 tokenId */\n  0x00\n    /* \"AirlineManagement.sol\":2468:2480  nextTicketId */\n  sload(0x15)\n    /* \"AirlineManagement.sol\":2450:2480  uint256 tokenId = nextTicketId */\n  swap1\n  pop\n    /* \"AirlineManagement.sol\":2519:2575  Ticket(owner, destination, price, seat, \"\", false, true) */\n  mload(0x40)\n  dup1\n  0xe0\n  add\n  0x40\n  mstore\n  dup1\n    /* \"AirlineManagement.sol\":2526:2531  owner */\n  dup7\n    /* \"AirlineManagement.sol\":2519:2575  Ticket(owner, destination, price, seat, \"\", false, true) */\n  0xffffffffffffffffffffffffffffffffffffffff\n  and\n  dup2\n  mstore\n  0x20\n  add\n    /* \"AirlineManagement.sol\":2533:2544  destination */\n  dup6\n    /* \"AirlineManagement.sol\":2519:2575  Ticket(owner, destination, price, seat, \"\", false, true) */\n  dup2\n  mstore\n  0x20\n  add\n    /* \"AirlineManagement.sol\":2546:2551  price */\n  dup5\n    /* \"AirlineManagement.sol\":2519:2575  Ticket(owner, destination, price, seat, \"\", false, true) */\n  dup2\n  mstore\n  0x20\n  add\n    /* \"AirlineManagement.sol\":2553:2557  seat */\n  dup4\n    /* \"AirlineManagement.sol\":2519:2575  Ticket(owner, destination, price, seat, \"\", false, true) */\n  dup2\n  mstore\n  0x20\n  add\n  mload(0x40)\n  dup1\n  0x20\n  add\n  0x40\n  mstore\n  dup1\n  0x00\n  dup2\n  mstore\n  pop\n  dup2\n  mstore\n  0x20\n  add\n    /* \"AirlineManagement.sol\":2563:2568  false */\n  0x00\n    /* \"AirlineManagement.sol\":2519:2575  Ticket(owner, destination, price, seat, \"\", false, true) */\n  iszero\n  iszero\n  dup2\n  mstore\n  0x20\n  add\n    /* \"AirlineManagement.sol\":2570:2574  true */\n  0x01\n    /* \"AirlineManagement.sol\":2519:2575  Ticket(owner, destination, price, seat, \"\", false, true) */\n  iszero\n  iszero\n  dup2\n  mstore\n  pop\n    /* \"AirlineManagement.sol\":2494:2507  ticketDetails */\n  0x14\n    /* \"AirlineManagement.sol\":2494:2516  ticketDetails[tokenId] */\n  0x00\n    /* \"AirlineManagement.sol\":2508:2515  tokenId */\n  dup4\n    /* \"AirlineManagement.sol\":2494:2516  ticketDetails[tokenId] */\n  dup2\n  mstore\n  0x20\n  add\n  swap1\n  dup2\n  mstore\n  0x20\n  add\n  0x00\n  keccak256\n    /* \"AirlineManagement.sol\":2494:2575  ticketDetails[tokenId] = Ticket(owner, destination, price, seat, \"\", false, true) */\n  0x00\n  dup3\n  add\n  mload\n  dup2\n  0x00\n  add\n  exp(0x0100, 0x00)\n  dup2\n  sload\n  dup2\n  0xffffffffffffffffffffffffffffffffffffffff\n  mul\n  not\n  and\n  swap1\n  dup4\n  0xffffffffffffffffffffffffffffffffffffffff\n  and\n  mul\n  or\n  swap1\n  sstore\n  pop\n  0x20\n  dup3\n  add\n  mload\n  dup2\n  0x01\n  add\n  swap1\n  dup2\n  tag_67\n  swap2\n  swap1\n  tag_8\n  jump\t// in\ntag_67:\n  pop\n  0x40\n  dup3\n  add\n  mload\n  dup2\n  0x02\n  add\n  sstore\n  0x60\n  dup3\n  add\n  mload\n  dup2\n  0x03\n  add\n  sstore\n  0x80\n  dup3\n  add\n  mload\n  dup2\n  0x04\n  add\n  swap1\n  dup2\n  tag_68\n  swap2\n  swap1\n  tag_8\n  jump\t// in\ntag_68:\n  pop\n  0xa0\n  dup3\n  add\n  mload\n  dup2\n  0x05\n  add\n  exp(0x0100, 0x00)\n  dup2\n  sload\n  dup2\n  0xff\n  mul\n  not\n  and\n  swap1\n  dup4\n  iszero\n  iszero\n  mul\n  or\n  swap1\n  sstore\n  pop\n  0xc0\n  dup3\n  add\n  mload\n  dup2\n  0x05\n  add\n  exp(0x0100, 0x01)\n  dup2\n  sload\n  dup2\n  0xff\n  mul\n  not\n  and\n  swap1\n  dup4\n  iszero\n  iszero\n  mul\n  or\n  swap1\n  sstore\n  pop\n  swap1\n  pop\n  pop\n    /* \"AirlineManagement.sol\":2589:2601  nextTicketId */\n  0x15\n  0x00\n    /* \"AirlineManagement.sol\":2589:2603  nextTicketId++ */\n  dup2\n  sload\n  dup1\n  swap3\n  swap2\n  swap1\n  tag_69\n  swap1\n  tag_70\n  jump\t// in\ntag_69:\n  swap2\n  swap1\n  pop\n  sstore\n  pop\n    /* \"AirlineManagement.sol\":2436:2614  {... */\n  pop\n    /* \"AirlineManagement.sol\":2428:2434  seat++ */\n  dup1\n  dup1\n  0x01\n  add\n  swap2\n  pop\n  pop\n    /* \"AirlineManagement.sol\":2394:2614  for (uint256 seat = 0; seat < 30; seat++) {... */\n  jump(tag_64)\ntag_65:\n  pop\n    /* \"AirlineManagement.sol\":2284:2620  function create30Tickets(address owner, string memory destination, uint256 price) public restricted {... */\n  pop\n  pop\n  pop\n  jump\t// out\n    /* \"#utility.yul\":7:82   */\ntag_71:\n    /* \"#utility.yul\":40:46   */\n  0x00\n    /* \"#utility.yul\":73:75   */\n  0x40\n    /* \"#utility.yul\":67:76   */\n  mload\n    /* \"#utility.yul\":57:76   */\n  swap1\n  pop\n    /* \"#utility.yul\":7:82   */\n  swap1\n  jump\t// out\n    /* \"#utility.yul\":88:205   */\ntag_72:\n    /* \"#utility.yul\":197:198   */\n  0x00\n    /* \"#utility.yul\":194:195   */\n  0x00\n    /* \"#utility.yul\":187:199   */\n  revert\n    /* \"#utility.yul\":211:328   */\ntag_73:\n    /* \"#utility.yul\":320:321   */\n  0x00\n    /* \"#utility.yul\":317:318   */\n  0x00\n    /* \"#utility.yul\":310:322   */\n  revert\n    /* \"#utility.yul\":334:451   */\ntag_74:\n    /* \"#utility.yul\":443:444   */\n  0x00\n    /* \"#utility.yul\":440:441   */\n  0x00\n    /* \"#utility.yul\":433:445   */\n  revert\n    /* \"#utility.yul\":457:574   */\ntag_75:\n    /* \"#utility.yul\":566:567   */\n  0x00\n    /* \"#utility.yul\":563:564   */\n  0x00\n    /* \"#utility.yul\":556:568   */\n  revert\n    /* \"#utility.yul\":580:682   */\ntag_76:\n    /* \"#utility.yul\":621:627   */\n  0x00\n    /* \"#utility.yul\":672:674   */\n  0x1f\n    /* \"#utility.yul\":668:675   */\n  not\n    /* \"#utility.yul\":663:665   */\n  0x1f\n    /* \"#utility.yul\":656:661   */\n  dup4\n    /* \"#utility.yul\":652:666   */\n  add\n    /* \"#utility.yul\":648:676   */\n  and\n    /* \"#utility.yul\":638:676   */\n  swap1\n  pop\n    /* \"#utility.yul\":580:682   */\n  swap2\n  swap1\n  pop\n  jump\t// out\n    /* \"#utility.yul\":688:868   */\ntag_77:\n    /* \"#utility.yul\":736:813   */\n  0x4e487b7100000000000000000000000000000000000000000000000000000000\n    /* \"#utility.yul\":733:734   */\n  0x00\n    /* \"#utility.yul\":726:814   */\n  mstore\n    /* \"#utility.yul\":833:837   */\n  0x41\n    /* \"#utility.yul\":830:831   */\n  0x04\n    /* \"#utility.yul\":823:838   */\n  mstore\n    /* \"#utility.yul\":857:861   */\n  0x24\n    /* \"#utility.yul\":854:855   */\n  0x00\n    /* \"#utility.yul\":847:862   */\n  revert\n    /* \"#utility.yul\":874:1155   */\ntag_78:\n    /* \"#utility.yul\":957:984   */\n  tag_117\n    /* \"#utility.yul\":979:983   */\n  dup3\n    /* \"#utility.yul\":957:984   */\n  tag_76\n  jump\t// in\ntag_117:\n    /* \"#utility.yul\":949:955   */\n  dup2\n    /* \"#utility.yul\":945:985   */\n  add\n    /* \"#utility.yul\":1087:1093   */\n  dup2\n    /* \"#utility.yul\":1075:1085   */\n  dup2\n    /* \"#utility.yul\":1072:1094   */\n  lt\n    /* \"#utility.yul\":1051:1069   */\n  0xffffffffffffffff\n    /* \"#utility.yul\":1039:1049   */\n  dup3\n    /* \"#utility.yul\":1036:1070   */\n  gt\n    /* \"#utility.yul\":1033:1095   */\n  or\n    /* \"#utility.yul\":1030:1118   */\n  iszero\n  tag_118\n  jumpi\n    /* \"#utility.yul\":1098:1116   */\n  tag_119\n  tag_77\n  jump\t// in\ntag_119:\n    /* \"#utility.yul\":1030:1118   */\ntag_118:\n    /* \"#utility.yul\":1138:1148   */\n  dup1\n    /* \"#utility.yul\":1134:1136   */\n  0x40\n    /* \"#utility.yul\":1127:1149   */\n  mstore\n    /* \"#utility.yul\":917:1155   */\n  pop\n    /* \"#utility.yul\":874:1155   */\n  pop\n  pop\n  jump\t// out\n    /* \"#utility.yul\":1161:1290   */\ntag_79:\n    /* \"#utility.yul\":1195:1201   */\n  0x00\n    /* \"#utility.yul\":1222:1242   */\n  tag_121\n  tag_71\n  jump\t// in\ntag_121:\n    /* \"#utility.yul\":1212:1242   */\n  swap1\n  pop\n    /* \"#utility.yul\":1251:1284   */\n  tag_122\n    /* \"#utility.yul\":1279:1283   */\n  dup3\n    /* \"#utility.yul\":1271:1277   */\n  dup3\n    /* \"#utility.yul\":1251:1284   */\n  tag_78\n  jump\t// in\ntag_122:\n    /* \"#utility.yul\":1161:1290   */\n  swap2\n  swap1\n  pop\n  jump\t// out\n    /* \"#utility.yul\":1296:1604   */\ntag_80:\n    /* \"#utility.yul\":1358:1362   */\n  0x00\n    /* \"#utility.yul\":1448:1466   */\n  0xffffffffffffffff\n    /* \"#utility.yul\":1440:1446   */\n  dup3\n    /* \"#utility.yul\":1437:1467   */\n  gt\n    /* \"#utility.yul\":1434:1490   */\n  iszero\n  tag_124\n  jumpi\n    /* \"#utility.yul\":1470:1488   */\n  tag_125\n  tag_77\n  jump\t// in\ntag_125:\n    /* \"#utility.yul\":1434:1490   */\ntag_124:\n    /* \"#utility.yul\":1508:1537   */\n  tag_126\n    /* \"#utility.yul\":1530:1536   */\n  dup3\n    /* \"#utility.yul\":1508:1537   */\n  tag_76\n  jump\t// in\ntag_126:\n    /* \"#utility.yul\":1500:1537   */\n  swap1\n  pop\n    /* \"#utility.yul\":1592:1596   */\n  0x20\n    /* \"#utility.yul\":1586:1590   */\n  dup2\n    /* \"#utility.yul\":1582:1597   */\n  add\n    /* \"#utility.yul\":1574:1597   */\n  swap1\n  pop\n    /* \"#utility.yul\":1296:1604   */\n  swap2\n  swap1\n  pop\n  jump\t// out\n    /* \"#utility.yul\":1610:1749   */\ntag_81:\n    /* \"#utility.yul\":1699:1705   */\n  dup3\n    /* \"#utility.yul\":1694:1697   */\n  dup2\n    /* \"#utility.yul\":1689:1692   */\n  dup4\n    /* \"#utility.yul\":1683:1706   */\n  mcopy\n    /* \"#utility.yul\":1740:1741   */\n  0x00\n    /* \"#utility.yul\":1731:1737   */\n  dup4\n    /* \"#utility.yul\":1726:1729   */\n  dup4\n    /* \"#utility.yul\":1722:1738   */\n  add\n    /* \"#utility.yul\":1715:1742   */\n  mstore\n    /* \"#utility.yul\":1610:1749   */\n  pop\n  pop\n  pop\n  jump\t// out\n    /* \"#utility.yul\":1755:2189   */\ntag_82:\n    /* \"#utility.yul\":1844:1849   */\n  0x00\n    /* \"#utility.yul\":1869:1935   */\n  tag_129\n    /* \"#utility.yul\":1885:1934   */\n  tag_130\n    /* \"#utility.yul\":1927:1933   */\n  dup5\n    /* \"#utility.yul\":1885:1934   */\n  tag_80\n  jump\t// in\ntag_130:\n    /* \"#utility.yul\":1869:1935   */\n  tag_79\n  jump\t// in\ntag_129:\n    /* \"#utility.yul\":1860:1935   */\n  swap1\n  pop\n    /* \"#utility.yul\":1958:1964   */\n  dup3\n    /* \"#utility.yul\":1951:1956   */\n  dup2\n    /* \"#utility.yul\":1944:1965   */\n  mstore\n    /* \"#utility.yul\":1996:2000   */\n  0x20\n    /* \"#utility.yul\":1989:1994   */\n  dup2\n    /* \"#utility.yul\":1985:2001   */\n  add\n    /* \"#utility.yul\":2034:2037   */\n  dup5\n    /* \"#utility.yul\":2025:2031   */\n  dup5\n    /* \"#utility.yul\":2020:2023   */\n  dup5\n    /* \"#utility.yul\":2016:2032   */\n  add\n    /* \"#utility.yul\":2013:2038   */\n  gt\n    /* \"#utility.yul\":2010:2122   */\n  iszero\n  tag_131\n  jumpi\n    /* \"#utility.yul\":2041:2120   */\n  tag_132\n  tag_75\n  jump\t// in\ntag_132:\n    /* \"#utility.yul\":2010:2122   */\ntag_131:\n    /* \"#utility.yul\":2131:2183   */\n  tag_133\n    /* \"#utility.yul\":2176:2182   */\n  dup5\n    /* \"#utility.yul\":2171:2174   */\n  dup3\n    /* \"#utility.yul\":2166:2169   */\n  dup6\n    /* \"#utility.yul\":2131:2183   */\n  tag_81\n  jump\t// in\ntag_133:\n    /* \"#utility.yul\":1850:2189   */\n  pop\n    /* \"#utility.yul\":1755:2189   */\n  swap4\n  swap3\n  pop\n  pop\n  pop\n  jump\t// out\n    /* \"#utility.yul\":2209:2564   */\ntag_83:\n    /* \"#utility.yul\":2276:2281   */\n  0x00\n    /* \"#utility.yul\":2325:2328   */\n  dup3\n    /* \"#utility.yul\":2318:2322   */\n  0x1f\n    /* \"#utility.yul\":2310:2316   */\n  dup4\n    /* \"#utility.yul\":2306:2323   */\n  add\n    /* \"#utility.yul\":2302:2329   */\n  slt\n    /* \"#utility.yul\":2292:2414   */\n  tag_135\n  jumpi\n    /* \"#utility.yul\":2333:2412   */\n  tag_136\n  tag_74\n  jump\t// in\ntag_136:\n    /* \"#utility.yul\":2292:2414   */\ntag_135:\n    /* \"#utility.yul\":2443:2449   */\n  dup2\n    /* \"#utility.yul\":2437:2450   */\n  mload\n    /* \"#utility.yul\":2468:2558   */\n  tag_137\n    /* \"#utility.yul\":2554:2557   */\n  dup5\n    /* \"#utility.yul\":2546:2552   */\n  dup3\n    /* \"#utility.yul\":2539:2543   */\n  0x20\n    /* \"#utility.yul\":2531:2537   */\n  dup7\n    /* \"#utility.yul\":2527:2544   */\n  add\n    /* \"#utility.yul\":2468:2558   */\n  tag_82\n  jump\t// in\ntag_137:\n    /* \"#utility.yul\":2459:2558   */\n  swap2\n  pop\n    /* \"#utility.yul\":2282:2564   */\n  pop\n    /* \"#utility.yul\":2209:2564   */\n  swap3\n  swap2\n  pop\n  pop\n  jump\t// out\n    /* \"#utility.yul\":2570:2647   */\ntag_84:\n    /* \"#utility.yul\":2607:2614   */\n  0x00\n    /* \"#utility.yul\":2636:2641   */\n  dup2\n    /* \"#utility.yul\":2625:2641   */\n  swap1\n  pop\n    /* \"#utility.yul\":2570:2647   */\n  swap2\n  swap1\n  pop\n  jump\t// out\n    /* \"#utility.yul\":2653:2775   */\ntag_85:\n    /* \"#utility.yul\":2726:2750   */\n  tag_140\n    /* \"#utility.yul\":2744:2749   */\n  dup2\n    /* \"#utility.yul\":2726:2750   */\n  tag_84\n  jump\t// in\ntag_140:\n    /* \"#utility.yul\":2719:2724   */\n  dup2\n    /* \"#utility.yul\":2716:2751   */\n  eq\n    /* \"#utility.yul\":2706:2769   */\n  tag_141\n  jumpi\n    /* \"#utility.yul\":2765:2766   */\n  0x00\n    /* \"#utility.yul\":2762:2763   */\n  0x00\n    /* \"#utility.yul\":2755:2767   */\n  revert\n    /* \"#utility.yul\":2706:2769   */\ntag_141:\n    /* \"#utility.yul\":2653:2775   */\n  pop\n  jump\t// out\n    /* \"#utility.yul\":2781:2924   */\ntag_86:\n    /* \"#utility.yul\":2838:2843   */\n  0x00\n    /* \"#utility.yul\":2869:2875   */\n  dup2\n    /* \"#utility.yul\":2863:2876   */\n  mload\n    /* \"#utility.yul\":2854:2876   */\n  swap1\n  pop\n    /* \"#utility.yul\":2885:2918   */\n  tag_143\n    /* \"#utility.yul\":2912:2917   */\n  dup2\n    /* \"#utility.yul\":2885:2918   */\n  tag_85\n  jump\t// in\ntag_143:\n    /* \"#utility.yul\":2781:2924   */\n  swap3\n  swap2\n  pop\n  pop\n  jump\t// out\n    /* \"#utility.yul\":2930:3610   */\ntag_3:\n    /* \"#utility.yul\":3019:3025   */\n  0x00\n    /* \"#utility.yul\":3027:3033   */\n  0x00\n    /* \"#utility.yul\":3076:3078   */\n  0x40\n    /* \"#utility.yul\":3064:3073   */\n  dup4\n    /* \"#utility.yul\":3055:3062   */\n  dup6\n    /* \"#utility.yul\":3051:3074   */\n  sub\n    /* \"#utility.yul\":3047:3079   */\n  slt\n    /* \"#utility.yul\":3044:3163   */\n  iszero\n  tag_145\n  jumpi\n    /* \"#utility.yul\":3082:3161   */\n  tag_146\n  tag_72\n  jump\t// in\ntag_146:\n    /* \"#utility.yul\":3044:3163   */\ntag_145:\n    /* \"#utility.yul\":3223:3224   */\n  0x00\n    /* \"#utility.yul\":3212:3221   */\n  dup4\n    /* \"#utility.yul\":3208:3225   */\n  add\n    /* \"#utility.yul\":3202:3226   */\n  mload\n    /* \"#utility.yul\":3253:3271   */\n  0xffffffffffffffff\n    /* \"#utility.yul\":3245:3251   */\n  dup2\n    /* \"#utility.yul\":3242:3272   */\n  gt\n    /* \"#utility.yul\":3239:3356   */\n  iszero\n  tag_147\n  jumpi\n    /* \"#utility.yul\":3275:3354   */\n  tag_148\n  tag_73\n  jump\t// in\ntag_148:\n    /* \"#utility.yul\":3239:3356   */\ntag_147:\n    /* \"#utility.yul\":3380:3454   */\n  tag_149\n    /* \"#utility.yul\":3446:3453   */\n  dup6\n    /* \"#utility.yul\":3437:3443   */\n  dup3\n    /* \"#utility.yul\":3426:3435   */\n  dup7\n    /* \"#utility.yul\":3422:3444   */\n  add\n    /* \"#utility.yul\":3380:3454   */\n  tag_83\n  jump\t// in\ntag_149:\n    /* \"#utility.yul\":3370:3454   */\n  swap3\n  pop\n    /* \"#utility.yul\":3173:3464   */\n  pop\n    /* \"#utility.yul\":3503:3505   */\n  0x20\n    /* \"#utility.yul\":3529:3593   */\n  tag_150\n    /* \"#utility.yul\":3585:3592   */\n  dup6\n    /* \"#utility.yul\":3576:3582   */\n  dup3\n    /* \"#utility.yul\":3565:3574   */\n  dup7\n    /* \"#utility.yul\":3561:3583   */\n  add\n    /* \"#utility.yul\":3529:3593   */\n  tag_86\n  jump\t// in\ntag_150:\n    /* \"#utility.yul\":3519:3593   */\n  swap2\n  pop\n    /* \"#utility.yul\":3474:3603   */\n  pop\n    /* \"#utility.yul\":2930:3610   */\n  swap3\n  pop\n  swap3\n  swap1\n  pop\n  jump\t// out\n    /* \"#utility.yul\":3616:3715   */\ntag_87:\n    /* \"#utility.yul\":3668:3674   */\n  0x00\n    /* \"#utility.yul\":3702:3707   */\n  dup2\n    /* \"#utility.yul\":3696:3708   */\n  mload\n    /* \"#utility.yul\":3686:3708   */\n  swap1\n  pop\n    /* \"#utility.yul\":3616:3715   */\n  swap2\n  swap1\n  pop\n  jump\t// out\n    /* \"#utility.yul\":3721:3901   */\ntag_88:\n    /* \"#utility.yul\":3769:3846   */\n  0x4e487b7100000000000000000000000000000000000000000000000000000000\n    /* \"#utility.yul\":3766:3767   */\n  0x00\n    /* \"#utility.yul\":3759:3847   */\n  mstore\n    /* \"#utility.yul\":3866:3870   */\n  0x22\n    /* \"#utility.yul\":3863:3864   */\n  0x04\n    /* \"#utility.yul\":3856:3871   */\n  mstore\n    /* \"#utility.yul\":3890:3894   */\n  0x24\n    /* \"#utility.yul\":3887:3888   */\n  0x00\n    /* \"#utility.yul\":3880:3895   */\n  revert\n    /* \"#utility.yul\":3907:4227   */\ntag_89:\n    /* \"#utility.yul\":3951:3957   */\n  0x00\n    /* \"#utility.yul\":3988:3989   */\n  0x02\n    /* \"#utility.yul\":3982:3986   */\n  dup3\n    /* \"#utility.yul\":3978:3990   */\n  div\n    /* \"#utility.yul\":3968:3990   */\n  swap1\n  pop\n    /* \"#utility.yul\":4035:4036   */\n  0x01\n    /* \"#utility.yul\":4029:4033   */\n  dup3\n    /* \"#utility.yul\":4025:4037   */\n  and\n    /* \"#utility.yul\":4056:4074   */\n  dup1\n    /* \"#utility.yul\":4046:4127   */\n  tag_154\n  jumpi\n    /* \"#utility.yul\":4112:4116   */\n  0x7f\n    /* \"#utility.yul\":4104:4110   */\n  dup3\n    /* \"#utility.yul\":4100:4117   */\n  and\n    /* \"#utility.yul\":4090:4117   */\n  swap2\n  pop\n    /* \"#utility.yul\":4046:4127   */\ntag_154:\n    /* \"#utility.yul\":4174:4176   */\n  0x20\n    /* \"#utility.yul\":4166:4172   */\n  dup3\n    /* \"#utility.yul\":4163:4177   */\n  lt\n    /* \"#utility.yul\":4143:4161   */\n  dup2\n    /* \"#utility.yul\":4140:4178   */\n  sub\n    /* \"#utility.yul\":4137:4221   */\n  tag_155\n  jumpi\n    /* \"#utility.yul\":4193:4211   */\n  tag_156\n  tag_88\n  jump\t// in\ntag_156:\n    /* \"#utility.yul\":4137:4221   */\ntag_155:\n    /* \"#utility.yul\":3958:4227   */\n  pop\n    /* \"#utility.yul\":3907:4227   */\n  swap2\n  swap1\n  pop\n  jump\t// out\n    /* \"#utility.yul\":4233:4374   */\ntag_90:\n    /* \"#utility.yul\":4282:4286   */\n  0x00\n    /* \"#utility.yul\":4305:4308   */\n  dup2\n    /* \"#utility.yul\":4297:4308   */\n  swap1\n  pop\n    /* \"#utility.yul\":4328:4331   */\n  dup2\n    /* \"#utility.yul\":4325:4326   */\n  0x00\n    /* \"#utility.yul\":4318:4332   */\n  mstore\n    /* \"#utility.yul\":4362:4366   */\n  0x20\n    /* \"#utility.yul\":4359:4360   */\n  0x00\n    /* \"#utility.yul\":4349:4367   */\n  keccak256\n    /* \"#utility.yul\":4341:4367   */\n  swap1\n  pop\n    /* \"#utility.yul\":4233:4374   */\n  swap2\n  swap1\n  pop\n  jump\t// out\n    /* \"#utility.yul\":4380:4473   */\ntag_91:\n    /* \"#utility.yul\":4417:4423   */\n  0x00\n    /* \"#utility.yul\":4464:4466   */\n  0x20\n    /* \"#utility.yul\":4459:4461   */\n  0x1f\n    /* \"#utility.yul\":4452:4457   */\n  dup4\n    /* \"#utility.yul\":4448:4462   */\n  add\n    /* \"#utility.yul\":4444:4467   */\n  div\n    /* \"#utility.yul\":4434:4467   */\n  swap1\n  pop\n    /* \"#utility.yul\":4380:4473   */\n  swap2\n  swap1\n  pop\n  jump\t// out\n    /* \"#utility.yul\":4479:4586   */\ntag_92:\n    /* \"#utility.yul\":4523:4531   */\n  0x00\n    /* \"#utility.yul\":4573:4578   */\n  dup3\n    /* \"#utility.yul\":4567:4571   */\n  dup3\n    /* \"#utility.yul\":4563:4579   */\n  shl\n    /* \"#utility.yul\":4542:4579   */\n  swap1\n  pop\n    /* \"#utility.yul\":4479:4586   */\n  swap3\n  swap2\n  pop\n  pop\n  jump\t// out\n    /* \"#utility.yul\":4592:4985   */\ntag_93:\n    /* \"#utility.yul\":4661:4667   */\n  0x00\n    /* \"#utility.yul\":4711:4712   */\n  0x08\n    /* \"#utility.yul\":4699:4709   */\n  dup4\n    /* \"#utility.yul\":4695:4713   */\n  mul\n    /* \"#utility.yul\":4734:4831   */\n  tag_161\n    /* \"#utility.yul\":4764:4830   */\n  0xffffffffffffffffffffffffffffffffffffffffffffffffffffffffffffffff\n    /* \"#utility.yul\":4753:4762   */\n  dup3\n    /* \"#utility.yul\":4734:4831   */\n  tag_92\n  jump\t// in\ntag_161:\n    /* \"#utility.yul\":4852:4891   */\n  tag_162\n    /* \"#utility.yul\":4882:4890   */\n  dup7\n    /* \"#utility.yul\":4871:4880   */\n  dup4\n    /* \"#utility.yul\":4852:4891   */\n  tag_92\n  jump\t// in\ntag_162:\n    /* \"#utility.yul\":4840:4891   */\n  swap6\n  pop\n    /* \"#utility.yul\":4924:4928   */\n  dup1\n    /* \"#utility.yul\":4920:4929   */\n  not\n    /* \"#utility.yul\":4913:4918   */\n  dup5\n    /* \"#utility.yul\":4909:4930   */\n  and\n    /* \"#utility.yul\":4900:4930   */\n  swap4\n  pop\n    /* \"#utility.yul\":4973:4977   */\n  dup1\n    /* \"#utility.yul\":4963:4971   */\n  dup7\n    /* \"#utility.yul\":4959:4978   */\n  and\n    /* \"#utility.yul\":4952:4957   */\n  dup5\n    /* \"#utility.yul\":4949:4979   */\n  or\n    /* \"#utility.yul\":4939:4979   */\n  swap3\n  pop\n    /* \"#utility.yul\":4668:4985   */\n  pop\n  pop\n    /* \"#utility.yul\":4592:4985   */\n  swap4\n  swap3\n  pop\n  pop\n  pop\n  jump\t// out\n    /* \"#utility.yul\":4991:5051   */\ntag_94:\n    /* \"#utility.yul\":5019:5022   */\n  0x00\n    /* \"#utility.yul\":5040:5045   */\n  dup2\n    /* \"#utility.yul\":5033:5045   */\n  swap1\n  pop\n    /* \"#utility.yul\":4991:5051   */\n  swap2\n  swap1\n  pop\n  jump\t// out\n    /* \"#utility.yul\":5057:5199   */\ntag_95:\n    /* \"#utility.yul\":5107:5116   */\n  0x00\n    /* \"#utility.yul\":5140:5193   */\n  tag_165\n    /* \"#utility.yul\":5158:5192   */\n  tag_166\n    /* \"#utility.yul\":5167:5191   */\n  tag_167\n    /* \"#utility.yul\":5185:5190   */\n  dup5\n    /* \"#utility.yul\":5167:5191   */\n  tag_84\n  jump\t// in\ntag_167:\n    /* \"#utility.yul\":5158:5192   */\n  tag_94\n  jump\t// in\ntag_166:\n    /* \"#utility.yul\":5140:5193   */\n  tag_84\n  jump\t// in\ntag_165:\n    /* \"#utility.yul\":5127:5193   */\n  swap1\n  pop\n    /* \"#utility.yul\":5057:5199   */\n  swap2\n  swap1\n  pop\n  jump\t// out\n    /* \"#utility.yul\":5205:5280   */\ntag_96:\n    /* \"#utility.yul\":5248:5251   */\n  0x00\n    /* \"#utility.yul\":5269:5274   */\n  dup2\n    /* \"#utility.yul\":5262:5274   */\n  swap1\n  pop\n    /* \"#utility.yul\":5205:5280   */\n  swap2\n  swap1\n  pop\n  jump\t// out\n    /* \"#utility.yul\":5286:5555   */\ntag_97:\n    /* \"#utility.yul\":5396:5435   */\n  tag_170\n    /* \"#utility.yul\":5427:5434   */\n  dup4\n    /* \"#utility.yul\":5396:5435   */\n  tag_95\n  jump\t// in\ntag_170:\n    /* \"#utility.yul\":5457:5548   */\n  tag_171\n    /* \"#utility.yul\":5506:5547   */\n  tag_172\n    /* \"#utility.yul\":5530:5546   */\n  dup3\n    /* \"#utility.yul\":5506:5547   */\n  tag_96\n  jump\t// in\ntag_172:\n    /* \"#utility.yul\":5498:5504   */\n  dup5\n    /* \"#utility.yul\":5491:5495   */\n  dup5\n    /* \"#utility.yul\":5485:5496   */\n  sload\n    /* \"#utility.yul\":5457:5548   */\n  tag_93\n  jump\t// in\ntag_171:\n    /* \"#utility.yul\":5451:5455   */\n  dup3\n    /* \"#utility.yul\":5444:5549   */\n  sstore\n    /* \"#utility.yul\":5362:5555   */\n  pop\n    /* \"#utility.yul\":5286:5555   */\n  pop\n  pop\n  pop\n  jump\t// out\n    /* \"#utility.yul\":5561:5634   */\ntag_98:\n    /* \"#utility.yul\":5606:5609   */\n  0x00\n    /* \"#utility.yul\":5627:5628   */\n  0x00\n    /* \"#utility.yul\":5620:5628   */\n  swap1\n  pop\n    /* \"#utility.yul\":5561:5634   */\n  swap1\n  jump\t// out\n    /* \"#utility.yul\":5640:5829   */\ntag_99:\n    /* \"#utility.yul\":5717:5749   */\n  tag_175\n  tag_98\n  jump\t// in\ntag_175:\n    /* \"#utility.yul\":5758:5823   */\n  tag_176\n    /* \"#utility.yul\":5816:5822   */\n  dup2\n    /* \"#utility.yul\":5808:5814   */\n  dup5\n    /* \"#utility.yul\":5802:5806   */\n  dup5\n    /* \"#utility.yul\":5758:5823   */\n  tag_97\n  jump\t// in\ntag_176:\n    /* \"#utility.yul\":5693:5829   */\n  pop\n    /* \"#utility.yul\":5640:5829   */\n  pop\n  pop\n  jump\t// out\n    /* \"#utility.yul\":5835:6021   */\ntag_100:\n    /* \"#utility.yul\":5895:6015   */\ntag_178:\n    /* \"#utility.yul\":5912:5915   */\n  dup2\n    /* \"#utility.yul\":5905:5910   */\n  dup2\n    /* \"#utility.yul\":5902:5916   */\n  lt\n    /* \"#utility.yul\":5895:6015   */\n  iszero\n  tag_180\n  jumpi\n    /* \"#utility.yul\":5966:6005   */\n  tag_181\n    /* \"#utility.yul\":6003:6004   */\n  0x00\n    /* \"#utility.yul\":5996:6001   */\n  dup3\n    /* \"#utility.yul\":5966:6005   */\n  tag_99\n  jump\t// in\ntag_181:\n    /* \"#utility.yul\":5939:5940   */\n  0x01\n    /* \"#utility.yul\":5932:5937   */\n  dup2\n    /* \"#utility.yul\":5928:5941   */\n  add\n    /* \"#utility.yul\":5919:5941   */\n  swap1\n  pop\n    /* \"#utility.yul\":5895:6015   */\n  jump(tag_178)\ntag_180:\n    /* \"#utility.yul\":5835:6021   */\n  pop\n  pop\n  jump\t// out\n    /* \"#utility.yul\":6027:6570   */\ntag_101:\n    /* \"#utility.yul\":6128:6130   */\n  0x1f\n    /* \"#utility.yul\":6123:6126   */\n  dup3\n    /* \"#utility.yul\":6120:6131   */\n  gt\n    /* \"#utility.yul\":6117:6563   */\n  iszero\n  tag_183\n  jumpi\n    /* \"#utility.yul\":6162:6200   */\n  tag_184\n    /* \"#utility.yul\":6194:6199   */\n  dup2\n    /* \"#utility.yul\":6162:6200   */\n  tag_90\n  jump\t// in\ntag_184:\n    /* \"#utility.yul\":6246:6275   */\n  tag_185\n    /* \"#utility.yul\":6264:6274   */\n  dup5\n    /* \"#utility.yul\":6246:6275   */\n  tag_91\n  jump\t// in\ntag_185:\n    /* \"#utility.yul\":6236:6244   */\n  dup2\n    /* \"#utility.yul\":6232:6276   */\n  add\n    /* \"#utility.yul\":6429:6431   */\n  0x20\n    /* \"#utility.yul\":6417:6427   */\n  dup6\n    /* \"#utility.yul\":6414:6432   */\n  lt\n    /* \"#utility.yul\":6411:6460   */\n  iszero\n  tag_186\n  jumpi\n    /* \"#utility.yul\":6450:6458   */\n  dup2\n    /* \"#utility.yul\":6435:6458   */\n  swap1\n  pop\n    /* \"#utility.yul\":6411:6460   */\ntag_186:\n    /* \"#utility.yul\":6473:6553   */\n  tag_187\n    /* \"#utility.yul\":6529:6551   */\n  tag_188\n    /* \"#utility.yul\":6547:6550   */\n  dup6\n    /* \"#utility.yul\":6529:6551   */\n  tag_91\n  jump\t// in\ntag_188:\n    /* \"#utility.yul\":6519:6527   */\n  dup4\n    /* \"#utility.yul\":6515:6552   */\n  add\n    /* \"#utility.yul\":6502:6513   */\n  dup3\n    /* \"#utility.yul\":6473:6553   */\n  tag_100\n  jump\t// in\ntag_187:\n    /* \"#utility.yul\":6132:6563   */\n  pop\n  pop\n    /* \"#utility.yul\":6117:6563   */\ntag_183:\n    /* \"#utility.yul\":6027:6570   */\n  pop\n  pop\n  pop\n  jump\t// out\n    /* \"#utility.yul\":6576:6693   */\ntag_102:\n    /* \"#utility.yul\":6630:6638   */\n  0x00\n    /* \"#utility.yul\":6680:6685   */\n  dup3\n    /* \"#utility.yul\":6674:6678   */\n  dup3\n    /* \"#utility.yul\":6670:6686   */\n  shr\n    /* \"#utility.yul\":6649:6686   */\n  swap1\n  pop\n    /* \"#utility.yul\":6576:6693   */\n  swap3\n  swap2\n  pop\n  pop\n  jump\t// out\n    /* \"#utility.yul\":6699:6868   */\ntag_103:\n    /* \"#utility.yul\":6743:6749   */\n  0x00\n    /* \"#utility.yul\":6776:6827   */\n  tag_191\n    /* \"#utility.yul\":6824:6825   */\n  0x00\n    /* \"#utility.yul\":6820:6826   */\n  not\n    /* \"#utility.yul\":6812:6817   */\n  dup5\n    /* \"#utility.yul\":6809:6810   */\n  0x08\n    /* \"#utility.yul\":6805:6818   */\n  mul\n    /* \"#utility.yul\":6776:6827   */\n  tag_102\n  jump\t// in\ntag_191:\n    /* \"#utility.yul\":6772:6828   */\n  not\n    /* \"#utility.yul\":6857:6861   */\n  dup1\n    /* \"#utility.yul\":6851:6855   */\n  dup4\n    /* \"#utility.yul\":6847:6862   */\n  and\n    /* \"#utility.yul\":6837:6862   */\n  swap2\n  pop\n    /* \"#utility.yul\":6750:6868   */\n  pop\n    /* \"#utility.yul\":6699:6868   */\n  swap3\n  swap2\n  pop\n  pop\n  jump\t// out\n    /* \"#utility.yul\":6873:7168   */\ntag_104:\n    /* \"#utility.yul\":6949:6953   */\n  0x00\n    /* \"#utility.yul\":7095:7124   */\n  tag_193\n    /* \"#utility.yul\":7120:7123   */\n  dup4\n    /* \"#utility.yul\":7114:7118   */\n  dup4\n    /* \"#utility.yul\":7095:7124   */\n  tag_103\n  jump\t// in\ntag_193:\n    /* \"#utility.yul\":7087:7124   */\n  swap2\n  pop\n    /* \"#utility.yul\":7157:7160   */\n  dup3\n    /* \"#utility.yul\":7154:7155   */\n  0x02\n    /* \"#utility.yul\":7150:7161   */\n  mul\n    /* \"#utility.yul\":7144:7148   */\n  dup3\n    /* \"#utility.yul\":7141:7162   */\n  or\n    /* \"#utility.yul\":7133:7162   */\n  swap1\n  pop\n    /* \"#utility.yul\":6873:7168   */\n  swap3\n  swap2\n  pop\n  pop\n  jump\t// out\n    /* \"#utility.yul\":7173:8568   */\ntag_8:\n    /* \"#utility.yul\":7290:7327   */\n  tag_195\n    /* \"#utility.yul\":7323:7326   */\n  dup3\n    /* \"#utility.yul\":7290:7327   */\n  tag_87\n  jump\t// in\ntag_195:\n    /* \"#utility.yul\":7392:7410   */\n  0xffffffffffffffff\n    /* \"#utility.yul\":7384:7390   */\n  dup2\n    /* \"#utility.yul\":7381:7411   */\n  gt\n    /* \"#utility.yul\":7378:7434   */\n  iszero\n  tag_196\n  jumpi\n    /* \"#utility.yul\":7414:7432   */\n  tag_197\n  tag_77\n  jump\t// in\ntag_197:\n    /* \"#utility.yul\":7378:7434   */\ntag_196:\n    /* \"#utility.yul\":7458:7496   */\n  tag_198\n    /* \"#utility.yul\":7490:7494   */\n  dup3\n    /* \"#utility.yul\":7484:7495   */\n  sload\n    /* \"#utility.yul\":7458:7496   */\n  tag_89\n  jump\t// in\ntag_198:\n    /* \"#utility.yul\":7543:7610   */\n  tag_199\n    /* \"#utility.yul\":7603:7609   */\n  dup3\n    /* \"#utility.yul\":7595:7601   */\n  dup3\n    /* \"#utility.yul\":7589:7593   */\n  dup6\n    /* \"#utility.yul\":7543:7610   */\n  tag_101\n  jump\t// in\ntag_199:\n    /* \"#utility.yul\":7637:7638   */\n  0x00\n    /* \"#utility.yul\":7661:7665   */\n  0x20\n    /* \"#utility.yul\":7648:7665   */\n  swap1\n  pop\n    /* \"#utility.yul\":7693:7695   */\n  0x1f\n    /* \"#utility.yul\":7685:7691   */\n  dup4\n    /* \"#utility.yul\":7682:7696   */\n  gt\n    /* \"#utility.yul\":7710:7711   */\n  0x01\n    /* \"#utility.yul\":7705:8323   */\n  dup2\n  eq\n  tag_201\n  jumpi\n    /* \"#utility.yul\":8367:8368   */\n  0x00\n    /* \"#utility.yul\":8384:8390   */\n  dup5\n    /* \"#utility.yul\":8381:8458   */\n  iszero\n  tag_202\n  jumpi\n    /* \"#utility.yul\":8433:8442   */\n  dup3\n    /* \"#utility.yul\":8428:8431   */\n  dup8\n    /* \"#utility.yul\":8424:8443   */\n  add\n    /* \"#utility.yul\":8418:8444   */\n  mload\n    /* \"#utility.yul\":8409:8444   */\n  swap1\n  pop\n    /* \"#utility.yul\":8381:8458   */\ntag_202:\n    /* \"#utility.yul\":8484:8551   */\n  tag_203\n    /* \"#utility.yul\":8544:8550   */\n  dup6\n    /* \"#utility.yul\":8537:8542   */\n  dup3\n    /* \"#utility.yul\":8484:8551   */\n  tag_104\n  jump\t// in\ntag_203:\n    /* \"#utility.yul\":8478:8482   */\n  dup7\n    /* \"#utility.yul\":8471:8552   */\n  sstore\n    /* \"#utility.yul\":8340:8562   */\n  pop\n    /* \"#utility.yul\":7675:8562   */\n  jump(tag_200)\n    /* \"#utility.yul\":7705:8323   */\ntag_201:\n    /* \"#utility.yul\":7757:7761   */\n  0x1f\n    /* \"#utility.yul\":7753:7762   */\n  not\n    /* \"#utility.yul\":7745:7751   */\n  dup5\n    /* \"#utility.yul\":7741:7763   */\n  and\n    /* \"#utility.yul\":7791:7828   */\n  tag_204\n    /* \"#utility.yul\":7823:7827   */\n  dup7\n    /* \"#utility.yul\":7791:7828   */\n  tag_90\n  jump\t// in\ntag_204:\n    /* \"#utility.yul\":7850:7851   */\n  0x00\n    /* \"#utility.yul\":7864:8072   */\ntag_205:\n    /* \"#utility.yul\":7878:7885   */\n  dup3\n    /* \"#utility.yul\":7875:7876   */\n  dup2\n    /* \"#utility.yul\":7872:7886   */\n  lt\n    /* \"#utility.yul\":7864:8072   */\n  iszero\n  tag_207\n  jumpi\n    /* \"#utility.yul\":7957:7966   */\n  dup5\n    /* \"#utility.yul\":7952:7955   */\n  dup10\n    /* \"#utility.yul\":7948:7967   */\n  add\n    /* \"#utility.yul\":7942:7968   */\n  mload\n    /* \"#utility.yul\":7934:7940   */\n  dup3\n    /* \"#utility.yul\":7927:7969   */\n  sstore\n    /* \"#utility.yul\":8008:8009   */\n  0x01\n    /* \"#utility.yul\":8000:8006   */\n  dup3\n    /* \"#utility.yul\":7996:8010   */\n  add\n    /* \"#utility.yul\":7986:8010   */\n  swap2\n  pop\n    /* \"#utility.yul\":8055:8057   */\n  0x20\n    /* \"#utility.yul\":8044:8053   */\n  dup6\n    /* \"#utility.yul\":8040:8058   */\n  add\n    /* \"#utility.yul\":8027:8058   */\n  swap5\n  pop\n    /* \"#utility.yul\":7901:7905   */\n  0x20\n    /* \"#utility.yul\":7898:7899   */\n  dup2\n    /* \"#utility.yul\":7894:7906   */\n  add\n    /* \"#utility.yul\":7889:7906   */\n  swap1\n  pop\n    /* \"#utility.yul\":7864:8072   */\n  jump(tag_205)\ntag_207:\n    /* \"#utility.yul\":8100:8106   */\n  dup7\n    /* \"#utility.yul\":8091:8098   */\n  dup4\n    /* \"#utility.yul\":8088:8107   */\n  lt\n    /* \"#utility.yul\":8085:8264   */\n  iszero\n  tag_208\n  jumpi\n    /* \"#utility.yul\":8158:8167   */\n  dup5\n    /* \"#utility.yul\":8153:8156   */\n  dup10\n    /* \"#utility.yul\":8149:8168   */\n  add\n    /* \"#utility.yul\":8143:8169   */\n  mload\n    /* \"#utility.yul\":8201:8249   */\n  tag_209\n    /* \"#utility.yul\":8243:8247   */\n  0x1f\n    /* \"#utility.yul\":8235:8241   */\n  dup10\n    /* \"#utility.yul\":8231:8248   */\n  and\n    /* \"#utility.yul\":8220:8229   */\n  dup3\n    /* \"#utility.yul\":8201:8249   */\n  tag_103\n  jump\t// in\ntag_209:\n    /* \"#utility.yul\":8193:8199   */\n  dup4\n    /* \"#utility.yul\":8186:8250   */\n  sstore\n    /* \"#utility.yul\":8108:8264   */\n  pop\n    /* \"#utility.yul\":8085:8264   */\ntag_208:\n    /* \"#utility.yul\":8310:8311   */\n  0x01\n    /* \"#utility.yul\":8306:8307   */\n  0x02\n    /* \"#utility.yul\":8298:8304   */\n  dup9\n    /* \"#utility.yul\":8294:8308   */\n  mul\n    /* \"#utility.yul\":8290:8312   */\n  add\n    /* \"#utility.yul\":8284:8288   */\n  dup9\n    /* \"#utility.yul\":8277:8313   */\n  sstore\n    /* \"#utility.yul\":7712:8323   */\n  pop\n  pop\n  pop\n    /* \"#utility.yul\":7675:8562   */\ntag_200:\n  pop\n    /* \"#utility.yul\":7265:8568   */\n  pop\n  pop\n  pop\n    /* \"#utility.yul\":7173:8568   */\n  pop\n  pop\n  jump\t// out\n    /* \"#utility.yul\":8574:8722   */\ntag_105:\n    /* \"#utility.yul\":8676:8687   */\n  0x00\n    /* \"#utility.yul\":8713:8716   */\n  dup2\n    /* \"#utility.yul\":8698:8716   */\n  swap1\n  pop\n    /* \"#utility.yul\":8574:8722   */\n  swap3\n  swap2\n  pop\n  pop\n  jump\t// out\n    /* \"#utility.yul\":8728:9118   */\ntag_106:\n    /* \"#utility.yul\":8834:8837   */\n  0x00\n    /* \"#utility.yul\":8862:8901   */\n  tag_212\n    /* \"#utility.yul\":8895:8900   */\n  dup3\n    /* \"#utility.yul\":8862:8901   */\n  tag_87\n  jump\t// in\ntag_212:\n    /* \"#utility.yul\":8917:9006   */\n  tag_213\n    /* \"#utility.yul\":8999:9005   */\n  dup2\n    /* \"#utility.yul\":8994:8997   */\n  dup6\n    /* \"#utility.yul\":8917:9006   */\n  tag_105\n  jump\t// in\ntag_213:\n    /* \"#utility.yul\":8910:9006   */\n  swap4\n  pop\n    /* \"#utility.yul\":9015:9080   */\n  tag_214\n    /* \"#utility.yul\":9073:9079   */\n  dup2\n    /* \"#utility.yul\":9068:9071   */\n  dup6\n    /* \"#utility.yul\":9061:9065   */\n  0x20\n    /* \"#utility.yul\":9054:9059   */\n  dup7\n    /* \"#utility.yul\":9050:9066   */\n  add\n    /* \"#utility.yul\":9015:9080   */\n  tag_81\n  jump\t// in\ntag_214:\n    /* \"#utility.yul\":9105:9111   */\n  dup1\n    /* \"#utility.yul\":9100:9103   */\n  dup5\n    /* \"#utility.yul\":9096:9112   */\n  add\n    /* \"#utility.yul\":9089:9112   */\n  swap2\n  pop\n    /* \"#utility.yul\":8838:9118   */\n  pop\n    /* \"#utility.yul\":8728:9118   */\n  swap3\n  swap2\n  pop\n  pop\n  jump\t// out\n    /* \"#utility.yul\":9124:9399   */\ntag_11:\n    /* \"#utility.yul\":9256:9259   */\n  0x00\n    /* \"#utility.yul\":9278:9373   */\n  tag_216\n    /* \"#utility.yul\":9369:9372   */\n  dup3\n    /* \"#utility.yul\":9360:9366   */\n  dup5\n    /* \"#utility.yul\":9278:9373   */\n  tag_106\n  jump\t// in\ntag_216:\n    /* \"#utility.yul\":9271:9373   */\n  swap2\n  pop\n    /* \"#utility.yul\":9390:9393   */\n  dup2\n    /* \"#utility.yul\":9383:9393   */\n  swap1\n  pop\n    /* \"#utility.yul\":9124:9399   */\n  swap3\n  swap2\n  pop\n  pop\n  jump\t// out\n    /* \"#utility.yul\":9405:9585   */\ntag_16:\n    /* \"#utility.yul\":9453:9530   */\n  0x4e487b7100000000000000000000000000000000000000000000000000000000\n    /* \"#utility.yul\":9450:9451   */\n  0x00\n    /* \"#utility.yul\":9443:9531   */\n  mstore\n    /* \"#utility.yul\":9550:9554   */\n  0x32\n    /* \"#utility.yul\":9547:9548   */\n  0x04\n    /* \"#utility.yul\":9540:9555   */\n  mstore\n    /* \"#utility.yul\":9574:9578   */\n  0x24\n    /* \"#utility.yul\":9571:9572   */\n  0x00\n    /* \"#utility.yul\":9564:9579   */\n  revert\n    /* \"#utility.yul\":9591:9771   */\ntag_107:\n    /* \"#utility.yul\":9639:9716   */\n  0x4e487b7100000000000000000000000000000000000000000000000000000000\n    /* \"#utility.yul\":9636:9637   */\n  0x00\n    /* \"#utility.yul\":9629:9717   */\n  mstore\n    /* \"#utility.yul\":9736:9740   */\n  0x11\n    /* \"#utility.yul\":9733:9734   */\n  0x04\n    /* \"#utility.yul\":9726:9741   */\n  mstore\n    /* \"#utility.yul\":9760:9764   */\n  0x24\n    /* \"#utility.yul\":9757:9758   */\n  0x00\n    /* \"#utility.yul\":9750:9765   */\n  revert\n    /* \"#utility.yul\":9777:10010   */\ntag_70:\n    /* \"#utility.yul\":9816:9819   */\n  0x00\n    /* \"#utility.yul\":9839:9863   */\n  tag_220\n    /* \"#utility.yul\":9857:9862   */\n  dup3\n    /* \"#utility.yul\":9839:9863   */\n  tag_84\n  jump\t// in\ntag_220:\n    /* \"#utility.yul\":9830:9863   */\n  swap2\n  pop\n    /* \"#utility.yul\":9885:9951   */\n  0xffffffffffffffffffffffffffffffffffffffffffffffffffffffffffffffff\n    /* \"#utility.yul\":9878:9883   */\n  dup3\n    /* \"#utility.yul\":9875:9952   */\n  sub\n    /* \"#utility.yul\":9872:9975   */\n  tag_221\n  jumpi\n    /* \"#utility.yul\":9955:9973   */\n  tag_222\n  tag_107\n  jump\t// in\ntag_222:\n    /* \"#utility.yul\":9872:9975   */\ntag_221:\n    /* \"#utility.yul\":10002:10003   */\n  0x01\n    /* \"#utility.yul\":9995:10000   */\n  dup3\n    /* \"#utility.yul\":9991:10004   */\n  add\n    /* \"#utility.yul\":9984:10004   */\n  swap1\n  pop\n    /* \"#utility.yul\":9777:10010   */\n  swap2\n  swap1\n  pop\n  jump\t// out\n    /* \"AirlineManagement.sol\":62:5068  contract AirlineManagement {... */\ntag_60:\n  dataSize(sub_0)\n  dup1\n  dataOffset(sub_0)\n  0x00\n  codecopy\n  0x00\n  return\nstop\n\nsub_0: assembly {\n        /* \"AirlineManagement.sol\":62:5068  contract AirlineManagement {... */\n      mstore(0x40, 0x80)\n      jumpi(tag_1, lt(calldatasize, 0x04))\n      shr(0xe0, calldataload(0x00))\n      dup1\n      0x6031a52f\n      gt\n      tag_15\n      jumpi\n      dup1\n      0x908921fc\n      gt\n      tag_16\n      jumpi\n      dup1\n      0x908921fc\n      eq\n      tag_11\n      jumpi\n      dup1\n      0xad03fe70\n      eq\n      tag_12\n      jumpi\n      dup1\n      0xcb2cc82a\n      eq\n      tag_13\n      jumpi\n      dup1\n      0xea6e358e\n      eq\n      tag_14\n      jumpi\n      jump(tag_1)\n    tag_16:\n      dup1\n      0x6031a52f\n      eq\n      tag_8\n      jumpi\n      dup1\n      0x695dc67e\n      eq\n      tag_9\n      jumpi\n      dup1\n      0x8dd4ba2e\n      eq\n      tag_10\n      jumpi\n      jump(tag_1)\n    tag_15:\n      dup1\n      0x033fab35\n      eq\n      tag_2\n      jumpi\n      dup1\n      0x07819bd6\n      eq\n      tag_3\n      jumpi\n      dup1\n      0x1165e6ab\n      eq\n      tag_4\n      jumpi\n      dup1\n      0x195c1445\n      eq\n      tag_5\n      jumpi\n      dup1\n      0x4afe9f7b\n      eq\n      tag_6\n      jumpi\n      dup1\n      0x5e583e37\n      eq\n      tag_7\n      jumpi\n    tag_1:\n      revert(0x00, 0x00)\n        /* \"AirlineManagement.sol\":824:871  mapping(uint256 => Ticket) public ticketDetails */\n    tag_2:\n      callvalue\n      dup1\n      iszero\n      tag_17\n      jumpi\n      revert(0x00, 0x00)\n    tag_17:\n      pop\n      tag_18\n      0x04\n      dup1\n      calldatasize\n      sub\n      dup2\n      add\n      swap1\n      tag_19\n      swap2\n      swap1\n      tag_20\n      jump\t// in\n    tag_19:\n      tag_21\n      jump\t// in\n    tag_18:\n      mload(0x40)\n      tag_22\n      swap8\n      swap7\n      swap6\n      swap5\n      swap4\n      swap3\n      swap2\n      swap1\n      tag_23\n      jump\t// in\n    tag_22:\n      mload(0x40)\n      dup1\n      swap2\n      sub\n      swap1\n      return\n        /* \"AirlineManagement.sol\":2626:2951  function getPrice (string memory destination, uint month, uint class, bool way) public view returns(uint) {... */\n    tag_3:\n      callvalue\n      dup1\n      iszero\n      tag_24\n      jumpi\n      revert(0x00, 0x00)\n    tag_24:\n      pop\n      tag_25\n      0x04\n      dup1\n      calldatasize\n      sub\n      dup2\n      add\n      swap1\n      tag_26\n      swap2\n      swap1\n      tag_27\n      jump\t// in\n    tag_26:\n      tag_28\n      jump\t// in\n    tag_25:\n      mload(0x40)\n      tag_29\n      swap2\n      swap1\n      tag_30\n      jump\t// in\n    tag_29:\n      mload(0x40)\n      dup1\n      swap2\n      sub\n      swap1\n      return\n        /* \"AirlineManagement.sol\":4030:4120  function isCeo(address user) public view returns(bool) {... */\n    tag_4:\n      callvalue\n      dup1\n      iszero\n      tag_31\n      jumpi\n      revert(0x00, 0x00)\n    tag_31:\n      pop\n      tag_32\n      0x04\n      dup1\n      calldatasize\n      sub\n      dup2\n      add\n      swap1\n      tag_33\n      swap2\n      swap1\n      tag_34\n      jump\t// in\n    tag_33:\n      tag_35\n      jump\t// in\n    tag_32:\n      mload(0x40)\n      tag_36\n      swap2\n      swap1\n      tag_37\n      jump\t// in\n    tag_36:\n      mload(0x40)\n      dup1\n      swap2\n      sub\n      swap1\n      return\n        /* \"AirlineManagement.sol\":412:443  uint[] public destinationPrices */\n    tag_5:\n      callvalue\n      dup1\n      iszero\n      tag_38\n      jumpi\n      revert(0x00, 0x00)\n    tag_38:\n      pop\n      tag_39\n      0x04\n      dup1\n      calldatasize\n      sub\n      dup2\n      add\n      swap1\n      tag_40\n      swap2\n      swap1\n      tag_20\n      jump\t// in\n    tag_40:\n      tag_41\n      jump\t// in\n    tag_39:\n      mload(0x40)\n      tag_42\n      swap2\n      swap1\n      tag_30\n      jump\t// in\n    tag_42:\n      mload(0x40)\n      dup1\n      swap2\n      sub\n      swap1\n      return\n        /* \"AirlineManagement.sol\":2284:2620  function create30Tickets(address owner, string memory destination, uint256 price) public restricted {... */\n    tag_6:\n      callvalue\n      dup1\n      iszero\n      tag_43\n      jumpi\n      revert(0x00, 0x00)\n    tag_43:\n      pop\n      tag_44\n      0x04\n      dup1\n      calldatasize\n      sub\n      dup2\n      add\n      swap1\n      tag_45\n      swap2\n      swap1\n      tag_46\n      jump\t// in\n    tag_45:\n      tag_47\n      jump\t// in\n    tag_44:\n      stop\n        /* \"AirlineManagement.sol\":1935:2235  function createDestination(string memory destination, uint destinationPrice) restricted public {... */\n    tag_7:\n      callvalue\n      dup1\n      iszero\n      tag_48\n      jumpi\n      revert(0x00, 0x00)\n    tag_48:\n      pop\n      tag_49\n      0x04\n      dup1\n      calldatasize\n      sub\n      dup2\n      add\n      swap1\n      tag_50\n      swap2\n      swap1\n      tag_51\n      jump\t// in\n    tag_50:\n      tag_52\n      jump\t// in\n    tag_49:\n      stop\n        /* \"AirlineManagement.sol\":877:904  uint256 public nextTicketId */\n    tag_8:\n      callvalue\n      dup1\n      iszero\n      tag_53\n      jumpi\n      revert(0x00, 0x00)\n    tag_53:\n      pop\n      tag_54\n      tag_55\n      jump\t// in\n    tag_54:\n      mload(0x40)\n      tag_56\n      swap2\n      swap1\n      tag_30\n      jump\t// in\n    tag_56:\n      mload(0x40)\n      dup1\n      swap2\n      sub\n      swap1\n      return\n        /* \"AirlineManagement.sol\":655:685  uint[3] public classMultiplier */\n    tag_9:\n      callvalue\n      dup1\n      iszero\n      tag_57\n      jumpi\n      revert(0x00, 0x00)\n    tag_57:\n      pop\n      tag_58\n      0x04\n      dup1\n      calldatasize\n      sub\n      dup2\n      add\n      swap1\n      tag_59\n      swap2\n      swap1\n      tag_20\n      jump\t// in\n    tag_59:\n      tag_60\n      jump\t// in\n    tag_58:\n      mload(0x40)\n      tag_61\n      swap2\n      swap1\n      tag_30\n      jump\t// in\n    tag_61:\n      mload(0x40)\n      dup1\n      swap2\n      sub\n      swap1\n      return\n        /* \"AirlineManagement.sol\":337:365  string[] public destinations */\n    tag_10:\n      callvalue\n      dup1\n      iszero\n      tag_62\n      jumpi\n      revert(0x00, 0x00)\n    tag_62:\n      pop\n      tag_63\n      0x04\n      dup1\n      calldatasize\n      sub\n      dup2\n      add\n      swap1\n      tag_64\n      swap2\n      swap1\n      tag_20\n      jump\t// in\n    tag_64:\n      tag_65\n      jump\t// in\n    tag_63:\n      mload(0x40)\n      tag_66\n      swap2\n      swap1\n      tag_67\n      jump\t// in\n    tag_66:\n      mload(0x40)\n      dup1\n      swap2\n      sub\n      swap1\n      return\n        /* \"AirlineManagement.sol\":287:305  address public ceo */\n    tag_11:\n      callvalue\n      dup1\n      iszero\n      tag_68\n      jumpi\n      revert(0x00, 0x00)\n    tag_68:\n      pop\n      tag_69\n      tag_70\n      jump\t// in\n    tag_69:\n      mload(0x40)\n      tag_71\n      swap2\n      swap1\n      tag_72\n      jump\t// in\n    tag_71:\n      mload(0x40)\n      dup1\n      swap2\n      sub\n      swap1\n      return\n        /* \"AirlineManagement.sol\":4127:5062  function getBookedFlights(address user) public view returns (Ticket[] memory) {... */\n    tag_12:\n      callvalue\n      dup1\n      iszero\n      tag_73\n      jumpi\n      revert(0x00, 0x00)\n    tag_73:\n      pop\n      tag_74\n      0x04\n      dup1\n      calldatasize\n      sub\n      dup2\n      add\n      swap1\n      tag_75\n      swap2\n      swap1\n      tag_34\n      jump\t// in\n    tag_75:\n      tag_76\n      jump\t// in\n    tag_74:\n      mload(0x40)\n      tag_77\n      swap2\n      swap1\n      tag_78\n      jump\t// in\n    tag_77:\n      mload(0x40)\n      dup1\n      swap2\n      sub\n      swap1\n      return\n        /* \"AirlineManagement.sol\":586:617  uint[12] public monthMultiplier */\n    tag_13:\n      callvalue\n      dup1\n      iszero\n      tag_79\n      jumpi\n      revert(0x00, 0x00)\n    tag_79:\n      pop\n      tag_80\n      0x04\n      dup1\n      calldatasize\n      sub\n      dup2\n      add\n      swap1\n      tag_81\n      swap2\n      swap1\n      tag_20\n      jump\t// in\n    tag_81:\n      tag_82\n      jump\t// in\n    tag_80:\n      mload(0x40)\n      tag_83\n      swap2\n      swap1\n      tag_30\n      jump\t// in\n    tag_83:\n      mload(0x40)\n      dup1\n      swap2\n      sub\n      swap1\n      return\n        /* \"AirlineManagement.sol\":2957:4024  function bookFlight(string memory destination, uint month, uint class, bool way) public payable{... */\n    tag_14:\n      tag_84\n      0x04\n      dup1\n      calldatasize\n      sub\n      dup2\n      add\n      swap1\n      tag_85\n      swap2\n      swap1\n      tag_27\n      jump\t// in\n    tag_85:\n      tag_86\n      jump\t// in\n    tag_84:\n      stop\n        /* \"AirlineManagement.sol\":824:871  mapping(uint256 => Ticket) public ticketDetails */\n    tag_21:\n      mstore(0x20, 0x14)\n      dup1\n      0x00\n      mstore\n      keccak256(0x00, 0x40)\n      0x00\n      swap2\n      pop\n      swap1\n      pop\n      dup1\n      0x00\n      add\n      0x00\n      swap1\n      sload\n      swap1\n      0x0100\n      exp\n      swap1\n      div\n      0xffffffffffffffffffffffffffffffffffffffff\n      and\n      swap1\n      dup1\n      0x01\n      add\n      dup1\n      sload\n      tag_87\n      swap1\n      tag_88\n      jump\t// in\n    tag_87:\n      dup1\n      0x1f\n      add\n      0x20\n      dup1\n      swap2\n      div\n      mul\n      0x20\n      add\n      mload(0x40)\n      swap1\n      dup2\n      add\n      0x40\n      mstore\n      dup1\n      swap3\n      swap2\n      swap1\n      dup2\n      dup2\n      mstore\n      0x20\n      add\n      dup3\n      dup1\n      sload\n      tag_89\n      swap1\n      tag_88\n      jump\t// in\n    tag_89:\n      dup1\n      iszero\n      tag_90\n      jumpi\n      dup1\n      0x1f\n      lt\n      tag_91\n      jumpi\n      0x0100\n      dup1\n      dup4\n      sload\n      div\n      mul\n      dup4\n      mstore\n      swap2\n      0x20\n      add\n      swap2\n      jump(tag_90)\n    tag_91:\n      dup3\n      add\n      swap2\n      swap1\n      0x00\n      mstore\n      keccak256(0x00, 0x20)\n      swap1\n    tag_92:\n      dup2\n      sload\n      dup2\n      mstore\n      swap1\n      0x01\n      add\n      swap1\n      0x20\n      add\n      dup1\n      dup4\n      gt\n      tag_92\n      jumpi\n      dup3\n      swap1\n      sub\n      0x1f\n      and\n      dup3\n      add\n      swap2\n    tag_90:\n      pop\n      pop\n      pop\n      pop\n      pop\n      swap1\n      dup1\n      0x02\n      add\n      sload\n      swap1\n      dup1\n      0x03\n      add\n      sload\n      swap1\n      dup1\n      0x04\n      add\n      dup1\n      sload\n      tag_93\n      swap1\n      tag_88\n      jump\t// in\n    tag_93:\n      dup1\n      0x1f\n      add\n      0x20\n      dup1\n      swap2\n      div\n      mul\n      0x20\n      add\n      mload(0x40)\n      swap1\n      dup2\n      add\n      0x40\n      mstore\n      dup1\n      swap3\n      swap2\n      swap1\n      dup2\n      dup2\n      mstore\n      0x20\n      add\n      dup3\n      dup1\n      sload\n      tag_94\n      swap1\n      tag_88\n      jump\t// in\n    tag_94:\n      dup1\n      iszero\n      tag_95\n      jumpi\n      dup1\n      0x1f\n      lt\n      tag_96\n      jumpi\n      0x0100\n      dup1\n      dup4\n      sload\n      div\n      mul\n      dup4\n      mstore\n      swap2\n      0x20\n      add\n      swap2\n      jump(tag_95)\n    tag_96:\n      dup3\n      add\n      swap2\n      swap1\n      0x00\n      mstore\n      keccak256(0x00, 0x20)\n      swap1\n    tag_97:\n      dup2\n      sload\n      dup2\n      mstore\n      swap1\n      0x01\n      add\n      swap1\n      0x20\n      add\n      dup1\n      dup4\n      gt\n      tag_97\n      jumpi\n      dup3\n      swap1\n      sub\n      0x1f\n      and\n      dup3\n      add\n      swap2\n    tag_95:\n      pop\n      pop\n      pop\n      pop\n      pop\n      swap1\n      dup1\n      0x05\n      add\n      0x00\n      swap1\n      sload\n      swap1\n      0x0100\n      exp\n      swap1\n      div\n      0xff\n      and\n      swap1\n      dup1\n      0x05\n      add\n      0x01\n      swap1\n      sload\n      swap1\n      0x0100\n      exp\n      swap1\n      div\n      0xff\n      and\n      swap1\n      pop\n      dup8\n      jump\t// out\n        /* \"AirlineManagement.sol\":2626:2951  function getPrice (string memory destination, uint month, uint class, bool way) public view returns(uint) {... */\n    tag_28:\n        /* \"AirlineManagement.sol\":2726:2730  uint */\n      0x00\n        /* \"AirlineManagement.sol\":2742:2752  uint price */\n      0x00\n        /* \"AirlineManagement.sol\":2860:2875  classMultiplier */\n      0x10\n        /* \"AirlineManagement.sol\":2884:2885  1 */\n      0x01\n        /* \"AirlineManagement.sol\":2876:2881  class */\n      dup6\n        /* \"AirlineManagement.sol\":2876:2885  class - 1 */\n      tag_99\n      swap2\n      swap1\n      tag_100\n      jump\t// in\n    tag_99:\n        /* \"AirlineManagement.sol\":2860:2886  classMultiplier[class - 1] */\n      0x03\n      dup2\n      lt\n      tag_101\n      jumpi\n      tag_102\n      tag_103\n      jump\t// in\n    tag_102:\n    tag_101:\n      add\n      sload\n        /* \"AirlineManagement.sol\":2814:2829  monthMultiplier */\n      0x04\n        /* \"AirlineManagement.sol\":2838:2839  1 */\n      0x01\n        /* \"AirlineManagement.sol\":2830:2835  month */\n      dup8\n        /* \"AirlineManagement.sol\":2830:2839  month - 1 */\n      tag_105\n      swap2\n      swap1\n      tag_100\n      jump\t// in\n    tag_105:\n        /* \"AirlineManagement.sol\":2814:2840  monthMultiplier[month - 1] */\n      0x0c\n      dup2\n      lt\n      tag_106\n      jumpi\n      tag_107\n      tag_103\n      jump\t// in\n    tag_107:\n    tag_106:\n      add\n      sload\n        /* \"AirlineManagement.sol\":2755:2772  destinationPrices */\n      0x02\n        /* \"AirlineManagement.sol\":2773:2780  indexes */\n      0x03\n        /* \"AirlineManagement.sol\":2781:2792  destination */\n      dup10\n        /* \"AirlineManagement.sol\":2773:2793  indexes[destination] */\n      mload(0x40)\n      tag_109\n      swap2\n      swap1\n      tag_110\n      jump\t// in\n    tag_109:\n      swap1\n      dup2\n      mstore\n      0x20\n      add\n      mload(0x40)\n      dup1\n      swap2\n      sub\n      swap1\n      keccak256\n      sload\n        /* \"AirlineManagement.sol\":2755:2794  destinationPrices[indexes[destination]] */\n      dup2\n      sload\n      dup2\n      lt\n      tag_111\n      jumpi\n      tag_112\n      tag_103\n      jump\t// in\n    tag_112:\n    tag_111:\n      swap1\n      0x00\n      mstore\n      keccak256(0x00, 0x20)\n      add\n      sload\n        /* \"AirlineManagement.sol\":2755:2840  destinationPrices[indexes[destination]] ... */\n      tag_114\n      swap2\n      swap1\n      tag_115\n      jump\t// in\n    tag_114:\n        /* \"AirlineManagement.sol\":2755:2886  destinationPrices[indexes[destination]] ... */\n      tag_116\n      swap2\n      swap1\n      tag_115\n      jump\t// in\n    tag_116:\n        /* \"AirlineManagement.sol\":2742:2886  uint price = destinationPrices[indexes[destination]] ... */\n      swap1\n      pop\n        /* \"AirlineManagement.sol\":2900:2903  way */\n      dup3\n        /* \"AirlineManagement.sol\":2897:2923  if(way){return price * 2;} */\n      iszero\n      tag_117\n      jumpi\n        /* \"AirlineManagement.sol\":2920:2921  2 */\n      0x02\n        /* \"AirlineManagement.sol\":2912:2917  price */\n      dup2\n        /* \"AirlineManagement.sol\":2912:2921  price * 2 */\n      tag_118\n      swap2\n      swap1\n      tag_115\n      jump\t// in\n    tag_118:\n        /* \"AirlineManagement.sol\":2905:2921  return price * 2 */\n      swap2\n      pop\n      pop\n      jump(tag_98)\n        /* \"AirlineManagement.sol\":2897:2923  if(way){return price * 2;} */\n    tag_117:\n        /* \"AirlineManagement.sol\":2939:2944  price */\n      dup1\n        /* \"AirlineManagement.sol\":2932:2944  return price */\n      swap2\n      pop\n      pop\n        /* \"AirlineManagement.sol\":2626:2951  function getPrice (string memory destination, uint month, uint class, bool way) public view returns(uint) {... */\n    tag_98:\n      swap5\n      swap4\n      pop\n      pop\n      pop\n      pop\n      jump\t// out\n        /* \"AirlineManagement.sol\":4030:4120  function isCeo(address user) public view returns(bool) {... */\n    tag_35:\n        /* \"AirlineManagement.sol\":4079:4083  bool */\n      0x00\n        /* \"AirlineManagement.sol\":4110:4113  ceo */\n      0x00\n      0x00\n      swap1\n      sload\n      swap1\n      0x0100\n      exp\n      swap1\n      div\n      0xffffffffffffffffffffffffffffffffffffffff\n      and\n        /* \"AirlineManagement.sol\":4102:4113  user == ceo */\n      0xffffffffffffffffffffffffffffffffffffffff\n      and\n        /* \"AirlineManagement.sol\":4102:4106  user */\n      dup3\n        /* \"AirlineManagement.sol\":4102:4113  user == ceo */\n      0xffffffffffffffffffffffffffffffffffffffff\n      and\n      eq\n        /* \"AirlineManagement.sol\":4095:4113  return user == ceo */\n      swap1\n      pop\n        /* \"AirlineManagement.sol\":4030:4120  function isCeo(address user) public view returns(bool) {... */\n      swap2\n      swap1\n      pop\n      jump\t// out\n        /* \"AirlineManagement.sol\":412:443  uint[] public destinationPrices */\n    tag_41:\n      0x02\n      dup2\n      dup2\n      sload\n      dup2\n      lt\n      tag_120\n      jumpi\n      0x00\n      dup1\n      revert\n    tag_120:\n      swap1\n      0x00\n      mstore\n      keccak256(0x00, 0x20)\n      add\n      0x00\n      swap2\n      pop\n      swap1\n      pop\n      sload\n      dup2\n      jump\t// out\n        /* \"AirlineManagement.sol\":2284:2620  function create30Tickets(address owner, string memory destination, uint256 price) public restricted {... */\n    tag_47:\n        /* \"AirlineManagement.sol\":965:968  ceo */\n      0x00\n      0x00\n      swap1\n      sload\n      swap1\n      0x0100\n      exp\n      swap1\n      div\n      0xffffffffffffffffffffffffffffffffffffffff\n      and\n        /* \"AirlineManagement.sol\":951:968  msg.sender == ceo */\n      0xffffffffffffffffffffffffffffffffffffffff\n      and\n        /* \"AirlineManagement.sol\":951:961  msg.sender */\n      caller\n        /* \"AirlineManagement.sol\":951:968  msg.sender == ceo */\n      0xffffffffffffffffffffffffffffffffffffffff\n      and\n      eq\n        /* \"AirlineManagement.sol\":943:969  require(msg.sender == ceo) */\n      tag_123\n      jumpi\n      revert(0x00, 0x00)\n    tag_123:\n        /* \"AirlineManagement.sol\":2399:2411  uint256 seat */\n      0x00\n        /* \"AirlineManagement.sol\":2414:2415  0 */\n      0x00\n        /* \"AirlineManagement.sol\":2399:2415  uint256 seat = 0 */\n      swap1\n      pop\n        /* \"AirlineManagement.sol\":2394:2614  for (uint256 seat = 0; seat < 30; seat++) {... */\n    tag_125:\n        /* \"AirlineManagement.sol\":2424:2426  30 */\n      0x1e\n        /* \"AirlineManagement.sol\":2417:2421  seat */\n      dup2\n        /* \"AirlineManagement.sol\":2417:2426  seat < 30 */\n      lt\n        /* \"AirlineManagement.sol\":2394:2614  for (uint256 seat = 0; seat < 30; seat++) {... */\n      iszero\n      tag_126\n      jumpi\n        /* \"AirlineManagement.sol\":2450:2465  uint256 tokenId */\n      0x00\n        /* \"AirlineManagement.sol\":2468:2480  nextTicketId */\n      sload(0x15)\n        /* \"AirlineManagement.sol\":2450:2480  uint256 tokenId = nextTicketId */\n      swap1\n      pop\n        /* \"AirlineManagement.sol\":2519:2575  Ticket(owner, destination, price, seat, \"\", false, true) */\n      mload(0x40)\n      dup1\n      0xe0\n      add\n      0x40\n      mstore\n      dup1\n        /* \"AirlineManagement.sol\":2526:2531  owner */\n      dup7\n        /* \"AirlineManagement.sol\":2519:2575  Ticket(owner, destination, price, seat, \"\", false, true) */\n      0xffffffffffffffffffffffffffffffffffffffff\n      and\n      dup2\n      mstore\n      0x20\n      add\n        /* \"AirlineManagement.sol\":2533:2544  destination */\n      dup6\n        /* \"AirlineManagement.sol\":2519:2575  Ticket(owner, destination, price, seat, \"\", false, true) */\n      dup2\n      mstore\n      0x20\n      add\n        /* \"AirlineManagement.sol\":2546:2551  price */\n      dup5\n        /* \"AirlineManagement.sol\":2519:2575  Ticket(owner, destination, price, seat, \"\", false, true) */\n      dup2\n      mstore\n      0x20\n      add\n        /* \"AirlineManagement.sol\":2553:2557  seat */\n      dup4\n        /* \"AirlineManagement.sol\":2519:2575  Ticket(owner, destination, price, seat, \"\", false, true) */\n      dup2\n      mstore\n      0x20\n      add\n      mload(0x40)\n      dup1\n      0x20\n      add\n      0x40\n      mstore\n      dup1\n      0x00\n      dup2\n      mstore\n      pop\n      dup2\n      mstore\n      0x20\n      add\n        /* \"AirlineManagement.sol\":2563:2568  false */\n      0x00\n        /* \"AirlineManagement.sol\":2519:2575  Ticket(owner, destination, price, seat, \"\", false, true) */\n      iszero\n      iszero\n      dup2\n      mstore\n      0x20\n      add\n        /* \"AirlineManagement.sol\":2570:2574  true */\n      0x01\n        /* \"AirlineManagement.sol\":2519:2575  Ticket(owner, destination, price, seat, \"\", false, true) */\n      iszero\n      iszero\n      dup2\n      mstore\n      pop\n        /* \"AirlineManagement.sol\":2494:2507  ticketDetails */\n      0x14\n        /* \"AirlineManagement.sol\":2494:2516  ticketDetails[tokenId] */\n      0x00\n        /* \"AirlineManagement.sol\":2508:2515  tokenId */\n      dup4\n        /* \"AirlineManagement.sol\":2494:2516  ticketDetails[tokenId] */\n      dup2\n      mstore\n      0x20\n      add\n      swap1\n      dup2\n      mstore\n      0x20\n      add\n      0x00\n      keccak256\n        /* \"AirlineManagement.sol\":2494:2575  ticketDetails[tokenId] = Ticket(owner, destination, price, seat, \"\", false, true) */\n      0x00\n      dup3\n      add\n      mload\n      dup2\n      0x00\n      add\n      exp(0x0100, 0x00)\n      dup2\n      sload\n      dup2\n      0xffffffffffffffffffffffffffffffffffffffff\n      mul\n      not\n      and\n      swap1\n      dup4\n      0xffffffffffffffffffffffffffffffffffffffff\n      and\n      mul\n      or\n      swap1\n      sstore\n      pop\n      0x20\n      dup3\n      add\n      mload\n      dup2\n      0x01\n      add\n      swap1\n      dup2\n      tag_128\n      swap2\n      swap1\n      tag_129\n      jump\t// in\n    tag_128:\n      pop\n      0x40\n      dup3\n      add\n      mload\n      dup2\n      0x02\n      add\n      sstore\n      0x60\n      dup3\n      add\n      mload\n      dup2\n      0x03\n      add\n      sstore\n      0x80\n      dup3\n      add\n      mload\n      dup2\n      0x04\n      add\n      swap1\n      dup2\n      tag_130\n      swap2\n      swap1\n      tag_129\n      jump\t// in\n    tag_130:\n      pop\n      0xa0\n      dup3\n      add\n      mload\n      dup2\n      0x05\n      add\n      exp(0x0100, 0x00)\n      dup2\n      sload\n      dup2\n      0xff\n      mul\n      not\n      and\n      swap1\n      dup4\n      iszero\n      iszero\n      mul\n      or\n      swap1\n      sstore\n      pop\n      0xc0\n      dup3\n      add\n      mload\n      dup2\n      0x05\n      add\n      exp(0x0100, 0x01)\n      dup2\n      sload\n      dup2\n      0xff\n      mul\n      not\n      and\n      swap1\n      dup4\n      iszero\n      iszero\n      mul\n      or\n      swap1\n      sstore\n      pop\n      swap1\n      pop\n      pop\n        /* \"AirlineManagement.sol\":2589:2601  nextTicketId */\n      0x15\n      0x00\n        /* \"AirlineManagement.sol\":2589:2603  nextTicketId++ */\n      dup2\n      sload\n      dup1\n      swap3\n      swap2\n      swap1\n      tag_131\n      swap1\n      tag_132\n      jump\t// in\n    tag_131:\n      swap2\n      swap1\n      pop\n      sstore\n      pop\n        /* \"AirlineManagement.sol\":2436:2614  {... */\n      pop\n        /* \"AirlineManagement.sol\":2428:2434  seat++ */\n      dup1\n      dup1\n      0x01\n      add\n      swap2\n      pop\n      pop\n        /* \"AirlineManagement.sol\":2394:2614  for (uint256 seat = 0; seat < 30; seat++) {... */\n      jump(tag_125)\n    tag_126:\n      pop\n        /* \"AirlineManagement.sol\":2284:2620  function create30Tickets(address owner, string memory destination, uint256 price) public restricted {... */\n      pop\n      pop\n      pop\n      jump\t// out\n        /* \"AirlineManagement.sol\":1935:2235  function createDestination(string memory destination, uint destinationPrice) restricted public {... */\n    tag_52:\n        /* \"AirlineManagement.sol\":965:968  ceo */\n      0x00\n      0x00\n      swap1\n      sload\n      swap1\n      0x0100\n      exp\n      swap1\n      div\n      0xffffffffffffffffffffffffffffffffffffffff\n      and\n        /* \"AirlineManagement.sol\":951:968  msg.sender == ceo */\n      0xffffffffffffffffffffffffffffffffffffffff\n      and\n        /* \"AirlineManagement.sol\":951:961  msg.sender */\n      caller\n        /* \"AirlineManagement.sol\":951:968  msg.sender == ceo */\n      0xffffffffffffffffffffffffffffffffffffffff\n      and\n      eq\n        /* \"AirlineManagement.sol\":943:969  require(msg.sender == ceo) */\n      tag_134\n      jumpi\n      revert(0x00, 0x00)\n    tag_134:\n        /* \"AirlineManagement.sol\":2142:2153  destination */\n      dup2\n        /* \"AirlineManagement.sol\":2125:2154  abi.encodePacked(destination) */\n      add(0x20, mload(0x40))\n      tag_136\n      swap2\n      swap1\n      tag_110\n      jump\t// in\n    tag_136:\n      mload(0x40)\n      0x20\n      dup2\n      dup4\n      sub\n      sub\n      dup2\n      mstore\n      swap1\n      0x40\n      mstore\n        /* \"AirlineManagement.sol\":2115:2155  keccak256(abi.encodePacked(destination)) */\n      dup1\n      mload\n      swap1\n      0x20\n      add\n      keccak256\n        /* \"AirlineManagement.sol\":2075:2087  destinations */\n      0x01\n        /* \"AirlineManagement.sol\":2088:2095  indexes */\n      0x03\n        /* \"AirlineManagement.sol\":2096:2107  destination */\n      dup5\n        /* \"AirlineManagement.sol\":2088:2108  indexes[destination] */\n      mload(0x40)\n      tag_137\n      swap2\n      swap1\n      tag_110\n      jump\t// in\n    tag_137:\n      swap1\n      dup2\n      mstore\n      0x20\n      add\n      mload(0x40)\n      dup1\n      swap2\n      sub\n      swap1\n      keccak256\n      sload\n        /* \"AirlineManagement.sol\":2075:2109  destinations[indexes[destination]] */\n      dup2\n      sload\n      dup2\n      lt\n      tag_138\n      jumpi\n      tag_139\n      tag_103\n      jump\t// in\n    tag_139:\n    tag_138:\n      swap1\n      0x00\n      mstore\n      keccak256(0x00, 0x20)\n      add\n        /* \"AirlineManagement.sol\":2058:2110  abi.encodePacked(destinations[indexes[destination]]) */\n      add(0x20, mload(0x40))\n      tag_141\n      swap2\n      swap1\n      tag_142\n      jump\t// in\n    tag_141:\n      mload(0x40)\n      0x20\n      dup2\n      dup4\n      sub\n      sub\n      dup2\n      mstore\n      swap1\n      0x40\n      mstore\n        /* \"AirlineManagement.sol\":2048:2111  keccak256(abi.encodePacked(destinations[indexes[destination]])) */\n      dup1\n      mload\n      swap1\n      0x20\n      add\n      keccak256\n        /* \"AirlineManagement.sol\":2048:2155  keccak256(abi.encodePacked(destinations[indexes[destination]])) != keccak256(abi.encodePacked(destination)) */\n      sub\n        /* \"AirlineManagement.sol\":2040:2156  require(keccak256(abi.encodePacked(destinations[indexes[destination]])) != keccak256(abi.encodePacked(destination))) */\n      tag_143\n      jumpi\n      revert(0x00, 0x00)\n    tag_143:\n        /* \"AirlineManagement.sol\":2166:2224  create30Tickets(msg.sender, destination, destinationPrice) */\n      tag_144\n        /* \"AirlineManagement.sol\":2182:2192  msg.sender */\n      caller\n        /* \"AirlineManagement.sol\":2194:2205  destination */\n      dup4\n        /* \"AirlineManagement.sol\":2207:2223  destinationPrice */\n      dup4\n        /* \"AirlineManagement.sol\":2166:2181  create30Tickets */\n      tag_47\n        /* \"AirlineManagement.sol\":2166:2224  create30Tickets(msg.sender, destination, destinationPrice) */\n      jump\t// in\n    tag_144:\n        /* \"AirlineManagement.sol\":1935:2235  function createDestination(string memory destination, uint destinationPrice) restricted public {... */\n      pop\n      pop\n      jump\t// out\n        /* \"AirlineManagement.sol\":877:904  uint256 public nextTicketId */\n    tag_55:\n      sload(0x15)\n      dup2\n      jump\t// out\n        /* \"AirlineManagement.sol\":655:685  uint[3] public classMultiplier */\n    tag_60:\n      0x10\n      dup2\n      0x03\n      dup2\n      lt\n      tag_145\n      jumpi\n      0x00\n      dup1\n      revert\n    tag_145:\n      add\n      0x00\n      swap2\n      pop\n      swap1\n      pop\n      sload\n      dup2\n      jump\t// out\n        /* \"AirlineManagement.sol\":337:365  string[] public destinations */\n    tag_65:\n      0x01\n      dup2\n      dup2\n      sload\n      dup2\n      lt\n      tag_147\n      jumpi\n      0x00\n      dup1\n      revert\n    tag_147:\n      swap1\n      0x00\n      mstore\n      keccak256(0x00, 0x20)\n      add\n      0x00\n      swap2\n      pop\n      swap1\n      pop\n      dup1\n      sload\n      tag_149\n      swap1\n      tag_88\n      jump\t// in\n    tag_149:\n      dup1\n      0x1f\n      add\n      0x20\n      dup1\n      swap2\n      div\n      mul\n      0x20\n      add\n      mload(0x40)\n      swap1\n      dup2\n      add\n      0x40\n      mstore\n      dup1\n      swap3\n      swap2\n      swap1\n      dup2\n      dup2\n      mstore\n      0x20\n      add\n      dup3\n      dup1\n      sload\n      tag_150\n      swap1\n      tag_88\n      jump\t// in\n    tag_150:\n      dup1\n      iszero\n      tag_151\n      jumpi\n      dup1\n      0x1f\n      lt\n      tag_152\n      jumpi\n      0x0100\n      dup1\n      dup4\n      sload\n      div\n      mul\n      dup4\n      mstore\n      swap2\n      0x20\n      add\n      swap2\n      jump(tag_151)\n    tag_152:\n      dup3\n      add\n      swap2\n      swap1\n      0x00\n      mstore\n      keccak256(0x00, 0x20)\n      swap1\n    tag_153:\n      dup2\n      sload\n      dup2\n      mstore\n      swap1\n      0x01\n      add\n      swap1\n      0x20\n      add\n      dup1\n      dup4\n      gt\n      tag_153\n      jumpi\n      dup3\n      swap1\n      sub\n      0x1f\n      and\n      dup3\n      add\n      swap2\n    tag_151:\n      pop\n      pop\n      pop\n      pop\n      pop\n      dup2\n      jump\t// out\n        /* \"AirlineManagement.sol\":287:305  address public ceo */\n    tag_70:\n      0x00\n      0x00\n      swap1\n      sload\n      swap1\n      0x0100\n      exp\n      swap1\n      div\n      0xffffffffffffffffffffffffffffffffffffffff\n      and\n      dup2\n      jump\t// out\n        /* \"AirlineManagement.sol\":4127:5062  function getBookedFlights(address user) public view returns (Ticket[] memory) {... */\n    tag_76:\n        /* \"AirlineManagement.sol\":4188:4203  Ticket[] memory */\n      0x60\n        /* \"AirlineManagement.sol\":4215:4231  uint bookedCount */\n      0x00\n        /* \"AirlineManagement.sol\":4234:4235  0 */\n      0x00\n        /* \"AirlineManagement.sol\":4215:4235  uint bookedCount = 0 */\n      swap1\n      pop\n        /* \"AirlineManagement.sol\":4338:4350  uint tokenId */\n      0x00\n        /* \"AirlineManagement.sol\":4353:4354  0 */\n      0x00\n        /* \"AirlineManagement.sol\":4338:4354  uint tokenId = 0 */\n      swap1\n      pop\n        /* \"AirlineManagement.sol\":4333:4542  for (uint tokenId = 0; tokenId < nextTicketId; tokenId++) {... */\n    tag_155:\n        /* \"AirlineManagement.sol\":4366:4378  nextTicketId */\n      sload(0x15)\n        /* \"AirlineManagement.sol\":4356:4363  tokenId */\n      dup2\n        /* \"AirlineManagement.sol\":4356:4378  tokenId < nextTicketId */\n      lt\n        /* \"AirlineManagement.sol\":4333:4542  for (uint tokenId = 0; tokenId < nextTicketId; tokenId++) {... */\n      iszero\n      tag_156\n      jumpi\n        /* \"AirlineManagement.sol\":4441:4445  user */\n      dup4\n        /* \"AirlineManagement.sol\":4409:4445  ticketDetails[tokenId].owner == user */\n      0xffffffffffffffffffffffffffffffffffffffff\n      and\n        /* \"AirlineManagement.sol\":4409:4422  ticketDetails */\n      0x14\n        /* \"AirlineManagement.sol\":4409:4431  ticketDetails[tokenId] */\n      0x00\n        /* \"AirlineManagement.sol\":4423:4430  tokenId */\n      dup4\n        /* \"AirlineManagement.sol\":4409:4431  ticketDetails[tokenId] */\n      dup2\n      mstore\n      0x20\n      add\n      swap1\n      dup2\n      mstore\n      0x20\n      add\n      0x00\n      keccak256\n        /* \"AirlineManagement.sol\":4409:4437  ticketDetails[tokenId].owner */\n      0x00\n      add\n      0x00\n      swap1\n      sload\n      swap1\n      0x0100\n      exp\n      swap1\n      div\n      0xffffffffffffffffffffffffffffffffffffffff\n      and\n        /* \"AirlineManagement.sol\":4409:4445  ticketDetails[tokenId].owner == user */\n      0xffffffffffffffffffffffffffffffffffffffff\n      and\n      eq\n        /* \"AirlineManagement.sol\":4409:4484  ticketDetails[tokenId].owner == user && !ticketDetails[tokenId].isAvailable */\n      dup1\n      iszero\n      tag_158\n      jumpi\n      pop\n        /* \"AirlineManagement.sol\":4450:4463  ticketDetails */\n      0x14\n        /* \"AirlineManagement.sol\":4450:4472  ticketDetails[tokenId] */\n      0x00\n        /* \"AirlineManagement.sol\":4464:4471  tokenId */\n      dup3\n        /* \"AirlineManagement.sol\":4450:4472  ticketDetails[tokenId] */\n      dup2\n      mstore\n      0x20\n      add\n      swap1\n      dup2\n      mstore\n      0x20\n      add\n      0x00\n      keccak256\n        /* \"AirlineManagement.sol\":4450:4484  ticketDetails[tokenId].isAvailable */\n      0x05\n      add\n      0x01\n      swap1\n      sload\n      swap1\n      0x0100\n      exp\n      swap1\n      div\n      0xff\n      and\n        /* \"AirlineManagement.sol\":4449:4484  !ticketDetails[tokenId].isAvailable */\n      iszero\n        /* \"AirlineManagement.sol\":4409:4484  ticketDetails[tokenId].owner == user && !ticketDetails[tokenId].isAvailable */\n    tag_158:\n        /* \"AirlineManagement.sol\":4405:4532  if (ticketDetails[tokenId].owner == user && !ticketDetails[tokenId].isAvailable) {... */\n      iszero\n      tag_159\n      jumpi\n        /* \"AirlineManagement.sol\":4504:4517  bookedCount++ */\n      dup2\n      dup1\n      tag_160\n      swap1\n      tag_132\n      jump\t// in\n    tag_160:\n      swap3\n      pop\n      pop\n        /* \"AirlineManagement.sol\":4405:4532  if (ticketDetails[tokenId].owner == user && !ticketDetails[tokenId].isAvailable) {... */\n    tag_159:\n        /* \"AirlineManagement.sol\":4380:4389  tokenId++ */\n      dup1\n      dup1\n      0x01\n      add\n      swap2\n      pop\n      pop\n        /* \"AirlineManagement.sol\":4333:4542  for (uint tokenId = 0; tokenId < nextTicketId; tokenId++) {... */\n      jump(tag_155)\n    tag_156:\n      pop\n        /* \"AirlineManagement.sol\":4613:4642  Ticket[] memory bookedTickets */\n      0x00\n        /* \"AirlineManagement.sol\":4658:4669  bookedCount */\n      dup2\n        /* \"AirlineManagement.sol\":4645:4670  new Ticket[](bookedCount) */\n      0xffffffffffffffff\n      dup2\n      gt\n      iszero\n      tag_161\n      jumpi\n      tag_162\n      tag_163\n      jump\t// in\n    tag_162:\n    tag_161:\n      mload(0x40)\n      swap1\n      dup1\n      dup3\n      mstore\n      dup1\n      0x20\n      mul\n      0x20\n      add\n      dup3\n      add\n      0x40\n      mstore\n      dup1\n      iszero\n      tag_164\n      jumpi\n      dup2\n      0x20\n      add\n    tag_165:\n      tag_166\n      tag_167\n      jump\t// in\n    tag_166:\n      dup2\n      mstore\n      0x20\n      add\n      swap1\n      0x01\n      swap1\n      sub\n      swap1\n      dup2\n      tag_165\n      jumpi\n      swap1\n      pop\n    tag_164:\n      pop\n        /* \"AirlineManagement.sol\":4613:4670  Ticket[] memory bookedTickets = new Ticket[](bookedCount) */\n      swap1\n      pop\n        /* \"AirlineManagement.sol\":4680:4690  uint index */\n      0x00\n        /* \"AirlineManagement.sol\":4693:4694  0 */\n      0x00\n        /* \"AirlineManagement.sol\":4680:4694  uint index = 0 */\n      swap1\n      pop\n        /* \"AirlineManagement.sol\":4764:4776  uint tokenId */\n      0x00\n        /* \"AirlineManagement.sol\":4779:4780  0 */\n      0x00\n        /* \"AirlineManagement.sol\":4764:4780  uint tokenId = 0 */\n      swap1\n      pop\n        /* \"AirlineManagement.sol\":4759:5025  for (uint tokenId = 0; tokenId < nextTicketId; tokenId++) {... */\n    tag_168:\n        /* \"AirlineManagement.sol\":4792:4804  nextTicketId */\n      sload(0x15)\n        /* \"AirlineManagement.sol\":4782:4789  tokenId */\n      dup2\n        /* \"AirlineManagement.sol\":4782:4804  tokenId < nextTicketId */\n      lt\n        /* \"AirlineManagement.sol\":4759:5025  for (uint tokenId = 0; tokenId < nextTicketId; tokenId++) {... */\n      iszero\n      tag_169\n      jumpi\n        /* \"AirlineManagement.sol\":4867:4871  user */\n      dup6\n        /* \"AirlineManagement.sol\":4835:4871  ticketDetails[tokenId].owner == user */\n      0xffffffffffffffffffffffffffffffffffffffff\n      and\n        /* \"AirlineManagement.sol\":4835:4848  ticketDetails */\n      0x14\n        /* \"AirlineManagement.sol\":4835:4857  ticketDetails[tokenId] */\n      0x00\n        /* \"AirlineManagement.sol\":4849:4856  tokenId */\n      dup4\n        /* \"AirlineManagement.sol\":4835:4857  ticketDetails[tokenId] */\n      dup2\n      mstore\n      0x20\n      add\n      swap1\n      dup2\n      mstore\n      0x20\n      add\n      0x00\n      keccak256\n        /* \"AirlineManagement.sol\":4835:4863  ticketDetails[tokenId].owner */\n      0x00\n      add\n      0x00\n      swap1\n      sload\n      swap1\n      0x0100\n      exp\n      swap1\n      div\n      0xffffffffffffffffffffffffffffffffffffffff\n      and\n        /* \"AirlineManagement.sol\":4835:4871  ticketDetails[tokenId].owner == user */\n      0xffffffffffffffffffffffffffffffffffffffff\n      and\n      eq\n        /* \"AirlineManagement.sol\":4835:4910  ticketDetails[tokenId].owner == user && !ticketDetails[tokenId].isAvailable */\n      dup1\n      iszero\n      tag_171\n      jumpi\n      pop\n        /* \"AirlineManagement.sol\":4876:4889  ticketDetails */\n      0x14\n        /* \"AirlineManagement.sol\":4876:4898  ticketDetails[tokenId] */\n      0x00\n        /* \"AirlineManagement.sol\":4890:4897  tokenId */\n      dup3\n        /* \"AirlineManagement.sol\":4876:4898  ticketDetails[tokenId] */\n      dup2\n      mstore\n      0x20\n      add\n      swap1\n      dup2\n      mstore\n      0x20\n      add\n      0x00\n      keccak256\n        /* \"AirlineManagement.sol\":4876:4910  ticketDetails[tokenId].isAvailable */\n      0x05\n      add\n      0x01\n      swap1\n      sload\n      swap1\n      0x0100\n      exp\n      swap1\n      div\n      0xff\n      and\n        /* \"AirlineManagement.sol\":4875:4910  !ticketDetails[tokenId].isAvailable */\n      iszero\n        /* \"AirlineManagement.sol\":4835:4910  ticketDetails[tokenId].owner == user && !ticketDetails[tokenId].isAvailable */\n    tag_171:\n        /* \"AirlineManagement.sol\":4831:5015  if (ticketDetails[tokenId].owner == user && !ticketDetails[tokenId].isAvailable) {... */\n      iszero\n      tag_172\n      jumpi\n        /* \"AirlineManagement.sol\":4953:4966  ticketDetails */\n      0x14\n        /* \"AirlineManagement.sol\":4953:4975  ticketDetails[tokenId] */\n      0x00\n        /* \"AirlineManagement.sol\":4967:4974  tokenId */\n      dup3\n        /* \"AirlineManagement.sol\":4953:4975  ticketDetails[tokenId] */\n      dup2\n      mstore\n      0x20\n      add\n      swap1\n      dup2\n      mstore\n      0x20\n      add\n      0x00\n      keccak256\n        /* \"AirlineManagement.sol\":4930:4975  bookedTickets[index] = ticketDetails[tokenId] */\n      mload(0x40)\n      dup1\n      0xe0\n      add\n      0x40\n      mstore\n      swap1\n      dup2\n      0x00\n      dup3\n      add\n      0x00\n      swap1\n      sload\n      swap1\n      0x0100\n      exp\n      swap1\n      div\n      0xffffffffffffffffffffffffffffffffffffffff\n      and\n      0xffffffffffffffffffffffffffffffffffffffff\n      and\n      0xffffffffffffffffffffffffffffffffffffffff\n      and\n      dup2\n      mstore\n      0x20\n      add\n      0x01\n      dup3\n      add\n      dup1\n      sload\n      tag_173\n      swap1\n      tag_88\n      jump\t// in\n    tag_173:\n      dup1\n      0x1f\n      add\n      0x20\n      dup1\n      swap2\n      div\n      mul\n      0x20\n      add\n      mload(0x40)\n      swap1\n      dup2\n      add\n      0x40\n      mstore\n      dup1\n      swap3\n      swap2\n      swap1\n      dup2\n      dup2\n      mstore\n      0x20\n      add\n      dup3\n      dup1\n      sload\n      tag_174\n      swap1\n      tag_88\n      jump\t// in\n    tag_174:\n      dup1\n      iszero\n      tag_175\n      jumpi\n      dup1\n      0x1f\n      lt\n      tag_176\n      jumpi\n      0x0100\n      dup1\n      dup4\n      sload\n      div\n      mul\n      dup4\n      mstore\n      swap2\n      0x20\n      add\n      swap2\n      jump(tag_175)\n    tag_176:\n      dup3\n      add\n      swap2\n      swap1\n      0x00\n      mstore\n      keccak256(0x00, 0x20)\n      swap1\n    tag_177:\n      dup2\n      sload\n      dup2\n      mstore\n      swap1\n      0x01\n      add\n      swap1\n      0x20\n      add\n      dup1\n      dup4\n      gt\n      tag_177\n      jumpi\n      dup3\n      swap1\n      sub\n      0x1f\n      and\n      dup3\n      add\n      swap2\n    tag_175:\n      pop\n      pop\n      pop\n      pop\n      pop\n      dup2\n      mstore\n      0x20\n      add\n      0x02\n      dup3\n      add\n      sload\n      dup2\n      mstore\n      0x20\n      add\n      0x03\n      dup3\n      add\n      sload\n      dup2\n      mstore\n      0x20\n      add\n      0x04\n      dup3\n      add\n      dup1\n      sload\n      tag_178\n      swap1\n      tag_88\n      jump\t// in\n    tag_178:\n      dup1\n      0x1f\n      add\n      0x20\n      dup1\n      swap2\n      div\n      mul\n      0x20\n      add\n      mload(0x40)\n      swap1\n      dup2\n      add\n      0x40\n      mstore\n      dup1\n      swap3\n      swap2\n      swap1\n      dup2\n      dup2\n      mstore\n      0x20\n      add\n      dup3\n      dup1\n      sload\n      tag_179\n      swap1\n      tag_88\n      jump\t// in\n    tag_179:\n      dup1\n      iszero\n      tag_180\n      jumpi\n      dup1\n      0x1f\n      lt\n      tag_181\n      jumpi\n      0x0100\n      dup1\n      dup4\n      sload\n      div\n      mul\n      dup4\n      mstore\n      swap2\n      0x20\n      add\n      swap2\n      jump(tag_180)\n    tag_181:\n      dup3\n      add\n      swap2\n      swap1\n      0x00\n      mstore\n      keccak256(0x00, 0x20)\n      swap1\n    tag_182:\n      dup2\n      sload\n      dup2\n      mstore\n      swap1\n      0x01\n      add\n      swap1\n      0x20\n      add\n      dup1\n      dup4\n      gt\n      tag_182\n      jumpi\n      dup3\n      swap1\n      sub\n      0x1f\n      and\n      dup3\n      add\n      swap2\n    tag_180:\n      pop\n      pop\n      pop\n      pop\n      pop\n      dup2\n      mstore\n      0x20\n      add\n      0x05\n      dup3\n      add\n      0x00\n      swap1\n      sload\n      swap1\n      0x0100\n      exp\n      swap1\n      div\n      0xff\n      and\n      iszero\n      iszero\n      iszero\n      iszero\n      dup2\n      mstore\n      0x20\n      add\n      0x05\n      dup3\n      add\n      0x01\n      swap1\n      sload\n      swap1\n      0x0100\n      exp\n      swap1\n      div\n      0xff\n      and\n      iszero\n      iszero\n      iszero\n      iszero\n      dup2\n      mstore\n      pop\n      pop\n        /* \"AirlineManagement.sol\":4930:4943  bookedTickets */\n      dup4\n        /* \"AirlineManagement.sol\":4944:4949  index */\n      dup4\n        /* \"AirlineManagement.sol\":4930:4950  bookedTickets[index] */\n      dup2\n      mload\n      dup2\n      lt\n      tag_183\n      jumpi\n      tag_184\n      tag_103\n      jump\t// in\n    tag_184:\n    tag_183:\n      0x20\n      mul\n      0x20\n      add\n      add\n        /* \"AirlineManagement.sol\":4930:4975  bookedTickets[index] = ticketDetails[tokenId] */\n      dup2\n      swap1\n      mstore\n      pop\n        /* \"AirlineManagement.sol\":4993:5000  index++ */\n      dup2\n      dup1\n      tag_185\n      swap1\n      tag_132\n      jump\t// in\n    tag_185:\n      swap3\n      pop\n      pop\n        /* \"AirlineManagement.sol\":4831:5015  if (ticketDetails[tokenId].owner == user && !ticketDetails[tokenId].isAvailable) {... */\n    tag_172:\n        /* \"AirlineManagement.sol\":4806:4815  tokenId++ */\n      dup1\n      dup1\n      0x01\n      add\n      swap2\n      pop\n      pop\n        /* \"AirlineManagement.sol\":4759:5025  for (uint tokenId = 0; tokenId < nextTicketId; tokenId++) {... */\n      jump(tag_168)\n    tag_169:\n      pop\n        /* \"AirlineManagement.sol\":5042:5055  bookedTickets */\n      dup2\n        /* \"AirlineManagement.sol\":5035:5055  return bookedTickets */\n      swap4\n      pop\n      pop\n      pop\n      pop\n        /* \"AirlineManagement.sol\":4127:5062  function getBookedFlights(address user) public view returns (Ticket[] memory) {... */\n      swap2\n      swap1\n      pop\n      jump\t// out\n        /* \"AirlineManagement.sol\":586:617  uint[12] public monthMultiplier */\n    tag_82:\n      0x04\n      dup2\n      0x0c\n      dup2\n      lt\n      tag_186\n      jumpi\n      0x00\n      dup1\n      revert\n    tag_186:\n      add\n      0x00\n      swap2\n      pop\n      swap1\n      pop\n      sload\n      dup2\n      jump\t// out\n        /* \"AirlineManagement.sol\":2957:4024  function bookFlight(string memory destination, uint month, uint class, bool way) public payable{... */\n    tag_86:\n        /* \"AirlineManagement.sol\":3083:3123  getPrice(destination, month, class, way) */\n      tag_189\n        /* \"AirlineManagement.sol\":3092:3103  destination */\n      dup5\n        /* \"AirlineManagement.sol\":3105:3110  month */\n      dup5\n        /* \"AirlineManagement.sol\":3112:3117  class */\n      dup5\n        /* \"AirlineManagement.sol\":3119:3122  way */\n      dup5\n        /* \"AirlineManagement.sol\":3083:3091  getPrice */\n      tag_28\n        /* \"AirlineManagement.sol\":3083:3123  getPrice(destination, month, class, way) */\n      jump\t// in\n    tag_189:\n        /* \"AirlineManagement.sol\":3070:3079  msg.value */\n      callvalue\n        /* \"AirlineManagement.sol\":3070:3123  msg.value == getPrice(destination, month, class, way) */\n      eq\n        /* \"AirlineManagement.sol\":3062:3124  require(msg.value == getPrice(destination, month, class, way)) */\n      tag_190\n      jumpi\n      revert(0x00, 0x00)\n    tag_190:\n        /* \"AirlineManagement.sol\":3192:3203  bool booked */\n      0x00\n        /* \"AirlineManagement.sol\":3206:3211  false */\n      0x00\n        /* \"AirlineManagement.sol\":3192:3211  bool booked = false */\n      swap1\n      pop\n        /* \"AirlineManagement.sol\":3226:3238  uint tokenId */\n      0x00\n        /* \"AirlineManagement.sol\":3241:3242  0 */\n      0x00\n        /* \"AirlineManagement.sol\":3226:3242  uint tokenId = 0 */\n      swap1\n      pop\n        /* \"AirlineManagement.sol\":3221:3897  for (uint tokenId = 0; tokenId < nextTicketId; tokenId++) {... */\n    tag_191:\n        /* \"AirlineManagement.sol\":3254:3266  nextTicketId */\n      sload(0x15)\n        /* \"AirlineManagement.sol\":3244:3251  tokenId */\n      dup2\n        /* \"AirlineManagement.sol\":3244:3266  tokenId < nextTicketId */\n      lt\n        /* \"AirlineManagement.sol\":3221:3897  for (uint tokenId = 0; tokenId < nextTicketId; tokenId++) {... */\n      iszero\n      tag_192\n      jumpi\n        /* \"AirlineManagement.sol\":3293:3314  Ticket storage ticket */\n      0x00\n        /* \"AirlineManagement.sol\":3317:3330  ticketDetails */\n      0x14\n        /* \"AirlineManagement.sol\":3317:3339  ticketDetails[tokenId] */\n      0x00\n        /* \"AirlineManagement.sol\":3331:3338  tokenId */\n      dup4\n        /* \"AirlineManagement.sol\":3317:3339  ticketDetails[tokenId] */\n      dup2\n      mstore\n      0x20\n      add\n      swap1\n      dup2\n      mstore\n      0x20\n      add\n      0x00\n      keccak256\n        /* \"AirlineManagement.sol\":3293:3339  Ticket storage ticket = ticketDetails[tokenId] */\n      swap1\n      pop\n        /* \"AirlineManagement.sol\":3499:3510  destination */\n      dup7\n        /* \"AirlineManagement.sol\":3482:3511  abi.encodePacked(destination) */\n      add(0x20, mload(0x40))\n      tag_194\n      swap2\n      swap1\n      tag_110\n      jump\t// in\n    tag_194:\n      mload(0x40)\n      0x20\n      dup2\n      dup4\n      sub\n      sub\n      dup2\n      mstore\n      swap1\n      0x40\n      mstore\n        /* \"AirlineManagement.sol\":3472:3512  keccak256(abi.encodePacked(destination)) */\n      dup1\n      mload\n      swap1\n      0x20\n      add\n      keccak256\n        /* \"AirlineManagement.sol\":3448:3454  ticket */\n      dup2\n        /* \"AirlineManagement.sol\":3448:3466  ticket.destination */\n      0x01\n      add\n        /* \"AirlineManagement.sol\":3431:3467  abi.encodePacked(ticket.destination) */\n      add(0x20, mload(0x40))\n      tag_195\n      swap2\n      swap1\n      tag_142\n      jump\t// in\n    tag_195:\n      mload(0x40)\n      0x20\n      dup2\n      dup4\n      sub\n      sub\n      dup2\n      mstore\n      swap1\n      0x40\n      mstore\n        /* \"AirlineManagement.sol\":3421:3468  keccak256(abi.encodePacked(ticket.destination)) */\n      dup1\n      mload\n      swap1\n      0x20\n      add\n      keccak256\n        /* \"AirlineManagement.sol\":3421:3512  keccak256(abi.encodePacked(ticket.destination)) == keccak256(abi.encodePacked(destination)) */\n      eq\n        /* \"AirlineManagement.sol\":3421:3534  keccak256(abi.encodePacked(ticket.destination)) == keccak256(abi.encodePacked(destination)) && ticket.isAvailable */\n      dup1\n      iszero\n      tag_196\n      jumpi\n      pop\n        /* \"AirlineManagement.sol\":3516:3522  ticket */\n      dup1\n        /* \"AirlineManagement.sol\":3516:3534  ticket.isAvailable */\n      0x05\n      add\n      0x01\n      swap1\n      sload\n      swap1\n      0x0100\n      exp\n      swap1\n      div\n      0xff\n      and\n        /* \"AirlineManagement.sol\":3421:3534  keccak256(abi.encodePacked(ticket.destination)) == keccak256(abi.encodePacked(destination)) && ticket.isAvailable */\n    tag_196:\n        /* \"AirlineManagement.sol\":3417:3887  if (keccak256(abi.encodePacked(ticket.destination)) == keccak256(abi.encodePacked(destination)) && ticket.isAvailable) {... */\n      iszero\n      tag_197\n      jumpi\n        /* \"AirlineManagement.sol\":3632:3642  msg.sender */\n      caller\n        /* \"AirlineManagement.sol\":3617:3623  ticket */\n      dup2\n        /* \"AirlineManagement.sol\":3617:3629  ticket.owner */\n      0x00\n      add\n      0x00\n        /* \"AirlineManagement.sol\":3617:3642  ticket.owner = msg.sender */\n      0x0100\n      exp\n      dup2\n      sload\n      dup2\n      0xffffffffffffffffffffffffffffffffffffffff\n      mul\n      not\n      and\n      swap1\n      dup4\n      0xffffffffffffffffffffffffffffffffffffffff\n      and\n      mul\n      or\n      swap1\n      sstore\n      pop\n        /* \"AirlineManagement.sol\":3684:3685  1 */\n      0x01\n        /* \"AirlineManagement.sol\":3675:3680  class */\n      dup6\n        /* \"AirlineManagement.sol\":3675:3685  class == 1 */\n      eq\n        /* \"AirlineManagement.sol\":3675:3733  class == 1 ? \"Economy\" : class == 2 ? \"Business\" : \"First\" */\n      tag_198\n      jumpi\n        /* \"AirlineManagement.sol\":3709:3710  2 */\n      0x02\n        /* \"AirlineManagement.sol\":3700:3705  class */\n      dup6\n        /* \"AirlineManagement.sol\":3700:3710  class == 2 */\n      eq\n        /* \"AirlineManagement.sol\":3700:3733  class == 2 ? \"Business\" : \"First\" */\n      tag_199\n      jumpi\n      mload(0x40)\n      dup1\n      0x40\n      add\n      0x40\n      mstore\n      dup1\n      0x05\n      dup2\n      mstore\n      0x20\n      add\n      0x4669727374000000000000000000000000000000000000000000000000000000\n      dup2\n      mstore\n      pop\n      jump(tag_200)\n    tag_199:\n      mload(0x40)\n      dup1\n      0x40\n      add\n      0x40\n      mstore\n      dup1\n      0x08\n      dup2\n      mstore\n      0x20\n      add\n      0x427573696e657373000000000000000000000000000000000000000000000000\n      dup2\n      mstore\n      pop\n    tag_200:\n        /* \"AirlineManagement.sol\":3675:3733  class == 1 ? \"Economy\" : class == 2 ? \"Business\" : \"First\" */\n      jump(tag_201)\n    tag_198:\n      mload(0x40)\n      dup1\n      0x40\n      add\n      0x40\n      mstore\n      dup1\n      0x07\n      dup2\n      mstore\n      0x20\n      add\n      0x45636f6e6f6d7900000000000000000000000000000000000000000000000000\n      dup2\n      mstore\n      pop\n    tag_201:\n        /* \"AirlineManagement.sol\":3660:3666  ticket */\n      dup2\n        /* \"AirlineManagement.sol\":3660:3672  ticket.class */\n      0x04\n      add\n        /* \"AirlineManagement.sol\":3660:3733  ticket.class = class == 1 ? \"Economy\" : class == 2 ? \"Business\" : \"First\" */\n      swap1\n      dup2\n      tag_202\n      swap2\n      swap1\n      tag_129\n      jump\t// in\n    tag_202:\n      pop\n        /* \"AirlineManagement.sol\":3770:3773  way */\n      dup4\n        /* \"AirlineManagement.sol\":3751:3757  ticket */\n      dup2\n        /* \"AirlineManagement.sol\":3751:3767  ticket.roundTrip */\n      0x05\n      add\n      0x00\n        /* \"AirlineManagement.sol\":3751:3773  ticket.roundTrip = way */\n      0x0100\n      exp\n      dup2\n      sload\n      dup2\n      0xff\n      mul\n      not\n      and\n      swap1\n      dup4\n      iszero\n      iszero\n      mul\n      or\n      swap1\n      sstore\n      pop\n        /* \"AirlineManagement.sol\":3812:3817  false */\n      0x00\n        /* \"AirlineManagement.sol\":3791:3797  ticket */\n      dup2\n        /* \"AirlineManagement.sol\":3791:3809  ticket.isAvailable */\n      0x05\n      add\n      0x01\n        /* \"AirlineManagement.sol\":3791:3817  ticket.isAvailable = false */\n      0x0100\n      exp\n      dup2\n      sload\n      dup2\n      0xff\n      mul\n      not\n      and\n      swap1\n      dup4\n      iszero\n      iszero\n      mul\n      or\n      swap1\n      sstore\n      pop\n        /* \"AirlineManagement.sol\":3845:3849  true */\n      0x01\n        /* \"AirlineManagement.sol\":3836:3849  booked = true */\n      swap3\n      pop\n        /* \"AirlineManagement.sol\":3867:3872  break */\n      pop\n      jump(tag_192)\n        /* \"AirlineManagement.sol\":3417:3887  if (keccak256(abi.encodePacked(ticket.destination)) == keccak256(abi.encodePacked(destination)) && ticket.isAvailable) {... */\n    tag_197:\n        /* \"AirlineManagement.sol\":3279:3897  {... */\n      pop\n        /* \"AirlineManagement.sol\":3268:3277  tokenId++ */\n      dup1\n      dup1\n      0x01\n      add\n      swap2\n      pop\n      pop\n        /* \"AirlineManagement.sol\":3221:3897  for (uint tokenId = 0; tokenId < nextTicketId; tokenId++) {... */\n      jump(tag_191)\n    tag_192:\n      pop\n        /* \"AirlineManagement.sol\":3956:3962  booked */\n      dup1\n        /* \"AirlineManagement.sol\":3948:4017  require(booked, \"No available tickets for the specified destination\") */\n      tag_203\n      jumpi\n      mload(0x40)\n      0x08c379a000000000000000000000000000000000000000000000000000000000\n      dup2\n      mstore\n      0x04\n      add\n      tag_204\n      swap1\n      tag_205\n      jump\t// in\n    tag_204:\n      mload(0x40)\n      dup1\n      swap2\n      sub\n      swap1\n      revert\n    tag_203:\n        /* \"AirlineManagement.sol\":3052:4024  {... */\n      pop\n        /* \"AirlineManagement.sol\":2957:4024  function bookFlight(string memory destination, uint month, uint class, bool way) public payable{... */\n      pop\n      pop\n      pop\n      pop\n      jump\t// out\n    tag_167:\n      mload(0x40)\n      dup1\n      0xe0\n      add\n      0x40\n      mstore\n      dup1\n      and(0xffffffffffffffffffffffffffffffffffffffff, 0x00)\n      dup2\n      mstore\n      0x20\n      add\n      0x60\n      dup2\n      mstore\n      0x20\n      add\n      0x00\n      dup2\n      mstore\n      0x20\n      add\n      0x00\n      dup2\n      mstore\n      0x20\n      add\n      0x60\n      dup2\n      mstore\n      0x20\n      add\n      iszero(iszero(0x00))\n      dup2\n      mstore\n      0x20\n      add\n      iszero(iszero(0x00))\n      dup2\n      mstore\n      pop\n      swap1\n      jump\t// out\n        /* \"#utility.yul\":7:82   */\n    tag_206:\n        /* \"#utility.yul\":40:46   */\n      0x00\n        /* \"#utility.yul\":73:75   */\n      0x40\n        /* \"#utility.yul\":67:76   */\n      mload\n        /* \"#utility.yul\":57:76   */\n      swap1\n      pop\n        /* \"#utility.yul\":7:82   */\n      swap1\n      jump\t// out\n        /* \"#utility.yul\":88:205   */\n    tag_207:\n        /* \"#utility.yul\":197:198   */\n      0x00\n        /* \"#utility.yul\":194:195   */\n      0x00\n        /* \"#utility.yul\":187:199   */\n      revert\n        /* \"#utility.yul\":211:328   */\n    tag_208:\n        /* \"#utility.yul\":320:321   */\n      0x00\n        /* \"#utility.yul\":317:318   */\n      0x00\n        /* \"#utility.yul\":310:322   */\n      revert\n        /* \"#utility.yul\":334:411   */\n    tag_209:\n        /* \"#utility.yul\":371:378   */\n      0x00\n        /* \"#utility.yul\":400:405   */\n      dup2\n        /* \"#utility.yul\":389:405   */\n      swap1\n      pop\n        /* \"#utility.yul\":334:411   */\n      swap2\n      swap1\n      pop\n      jump\t// out\n        /* \"#utility.yul\":417:539   */\n    tag_210:\n        /* \"#utility.yul\":490:514   */\n      tag_275\n        /* \"#utility.yul\":508:513   */\n      dup2\n        /* \"#utility.yul\":490:514   */\n      tag_209\n      jump\t// in\n    tag_275:\n        /* \"#utility.yul\":483:488   */\n      dup2\n        /* \"#utility.yul\":480:515   */\n      eq\n        /* \"#utility.yul\":470:533   */\n      tag_276\n      jumpi\n        /* \"#utility.yul\":529:530   */\n      0x00\n        /* \"#utility.yul\":526:527   */\n      0x00\n        /* \"#utility.yul\":519:531   */\n      revert\n        /* \"#utility.yul\":470:533   */\n    tag_276:\n        /* \"#utility.yul\":417:539   */\n      pop\n      jump\t// out\n        /* \"#utility.yul\":545:684   */\n    tag_211:\n        /* \"#utility.yul\":591:596   */\n      0x00\n        /* \"#utility.yul\":629:635   */\n      dup2\n        /* \"#utility.yul\":616:636   */\n      calldataload\n        /* \"#utility.yul\":607:636   */\n      swap1\n      pop\n        /* \"#utility.yul\":645:678   */\n      tag_278\n        /* \"#utility.yul\":672:677   */\n      dup2\n        /* \"#utility.yul\":645:678   */\n      tag_210\n      jump\t// in\n    tag_278:\n        /* \"#utility.yul\":545:684   */\n      swap3\n      swap2\n      pop\n      pop\n      jump\t// out\n        /* \"#utility.yul\":690:1019   */\n    tag_20:\n        /* \"#utility.yul\":749:755   */\n      0x00\n        /* \"#utility.yul\":798:800   */\n      0x20\n        /* \"#utility.yul\":786:795   */\n      dup3\n        /* \"#utility.yul\":777:784   */\n      dup5\n        /* \"#utility.yul\":773:796   */\n      sub\n        /* \"#utility.yul\":769:801   */\n      slt\n        /* \"#utility.yul\":766:885   */\n      iszero\n      tag_280\n      jumpi\n        /* \"#utility.yul\":804:883   */\n      tag_281\n      tag_207\n      jump\t// in\n    tag_281:\n        /* \"#utility.yul\":766:885   */\n    tag_280:\n        /* \"#utility.yul\":924:925   */\n      0x00\n        /* \"#utility.yul\":949:1002   */\n      tag_282\n        /* \"#utility.yul\":994:1001   */\n      dup5\n        /* \"#utility.yul\":985:991   */\n      dup3\n        /* \"#utility.yul\":974:983   */\n      dup6\n        /* \"#utility.yul\":970:992   */\n      add\n        /* \"#utility.yul\":949:1002   */\n      tag_211\n      jump\t// in\n    tag_282:\n        /* \"#utility.yul\":939:1002   */\n      swap2\n      pop\n        /* \"#utility.yul\":895:1012   */\n      pop\n        /* \"#utility.yul\":690:1019   */\n      swap3\n      swap2\n      pop\n      pop\n      jump\t// out\n        /* \"#utility.yul\":1025:1151   */\n    tag_212:\n        /* \"#utility.yul\":1062:1069   */\n      0x00\n        /* \"#utility.yul\":1102:1144   */\n      0xffffffffffffffffffffffffffffffffffffffff\n        /* \"#utility.yul\":1095:1100   */\n      dup3\n        /* \"#utility.yul\":1091:1145   */\n      and\n        /* \"#utility.yul\":1080:1145   */\n      swap1\n      pop\n        /* \"#utility.yul\":1025:1151   */\n      swap2\n      swap1\n      pop\n      jump\t// out\n        /* \"#utility.yul\":1157:1253   */\n    tag_213:\n        /* \"#utility.yul\":1194:1201   */\n      0x00\n        /* \"#utility.yul\":1223:1247   */\n      tag_285\n        /* \"#utility.yul\":1241:1246   */\n      dup3\n        /* \"#utility.yul\":1223:1247   */\n      tag_212\n      jump\t// in\n    tag_285:\n        /* \"#utility.yul\":1212:1247   */\n      swap1\n      pop\n        /* \"#utility.yul\":1157:1253   */\n      swap2\n      swap1\n      pop\n      jump\t// out\n        /* \"#utility.yul\":1259:1377   */\n    tag_214:\n        /* \"#utility.yul\":1346:1370   */\n      tag_287\n        /* \"#utility.yul\":1364:1369   */\n      dup2\n        /* \"#utility.yul\":1346:1370   */\n      tag_213\n      jump\t// in\n    tag_287:\n        /* \"#utility.yul\":1341:1344   */\n      dup3\n        /* \"#utility.yul\":1334:1371   */\n      mstore\n        /* \"#utility.yul\":1259:1377   */\n      pop\n      pop\n      jump\t// out\n        /* \"#utility.yul\":1383:1482   */\n    tag_215:\n        /* \"#utility.yul\":1435:1441   */\n      0x00\n        /* \"#utility.yul\":1469:1474   */\n      dup2\n        /* \"#utility.yul\":1463:1475   */\n      mload\n        /* \"#utility.yul\":1453:1475   */\n      swap1\n      pop\n        /* \"#utility.yul\":1383:1482   */\n      swap2\n      swap1\n      pop\n      jump\t// out\n        /* \"#utility.yul\":1488:1657   */\n    tag_216:\n        /* \"#utility.yul\":1572:1583   */\n      0x00\n        /* \"#utility.yul\":1606:1612   */\n      dup3\n        /* \"#utility.yul\":1601:1604   */\n      dup3\n        /* \"#utility.yul\":1594:1613   */\n      mstore\n        /* \"#utility.yul\":1646:1650   */\n      0x20\n        /* \"#utility.yul\":1641:1644   */\n      dup3\n        /* \"#utility.yul\":1637:1651   */\n      add\n        /* \"#utility.yul\":1622:1651   */\n      swap1\n      pop\n        /* \"#utility.yul\":1488:1657   */\n      swap3\n      swap2\n      pop\n      pop\n      jump\t// out\n        /* \"#utility.yul\":1663:1802   */\n    tag_217:\n        /* \"#utility.yul\":1752:1758   */\n      dup3\n        /* \"#utility.yul\":1747:1750   */\n      dup2\n        /* \"#utility.yul\":1742:1745   */\n      dup4\n        /* \"#utility.yul\":1736:1759   */\n      mcopy\n        /* \"#utility.yul\":1793:1794   */\n      0x00\n        /* \"#utility.yul\":1784:1790   */\n      dup4\n        /* \"#utility.yul\":1779:1782   */\n      dup4\n        /* \"#utility.yul\":1775:1791   */\n      add\n        /* \"#utility.yul\":1768:1795   */\n      mstore\n        /* \"#utility.yul\":1663:1802   */\n      pop\n      pop\n      pop\n      jump\t// out\n        /* \"#utility.yul\":1808:1910   */\n    tag_218:\n        /* \"#utility.yul\":1849:1855   */\n      0x00\n        /* \"#utility.yul\":1900:1902   */\n      0x1f\n        /* \"#utility.yul\":1896:1903   */\n      not\n        /* \"#utility.yul\":1891:1893   */\n      0x1f\n        /* \"#utility.yul\":1884:1889   */\n      dup4\n        /* \"#utility.yul\":1880:1894   */\n      add\n        /* \"#utility.yul\":1876:1904   */\n      and\n        /* \"#utility.yul\":1866:1904   */\n      swap1\n      pop\n        /* \"#utility.yul\":1808:1910   */\n      swap2\n      swap1\n      pop\n      jump\t// out\n        /* \"#utility.yul\":1916:2293   */\n    tag_219:\n        /* \"#utility.yul\":2004:2007   */\n      0x00\n        /* \"#utility.yul\":2032:2071   */\n      tag_293\n        /* \"#utility.yul\":2065:2070   */\n      dup3\n        /* \"#utility.yul\":2032:2071   */\n      tag_215\n      jump\t// in\n    tag_293:\n        /* \"#utility.yul\":2087:2158   */\n      tag_294\n        /* \"#utility.yul\":2151:2157   */\n      dup2\n        /* \"#utility.yul\":2146:2149   */\n      dup6\n        /* \"#utility.yul\":2087:2158   */\n      tag_216\n      jump\t// in\n    tag_294:\n        /* \"#utility.yul\":2080:2158   */\n      swap4\n      pop\n        /* \"#utility.yul\":2167:2232   */\n      tag_295\n        /* \"#utility.yul\":2225:2231   */\n      dup2\n        /* \"#utility.yul\":2220:2223   */\n      dup6\n        /* \"#utility.yul\":2213:2217   */\n      0x20\n        /* \"#utility.yul\":2206:2211   */\n      dup7\n        /* \"#utility.yul\":2202:2218   */\n      add\n        /* \"#utility.yul\":2167:2232   */\n      tag_217\n      jump\t// in\n    tag_295:\n        /* \"#utility.yul\":2257:2286   */\n      tag_296\n        /* \"#utility.yul\":2279:2285   */\n      dup2\n        /* \"#utility.yul\":2257:2286   */\n      tag_218\n      jump\t// in\n    tag_296:\n        /* \"#utility.yul\":2252:2255   */\n      dup5\n        /* \"#utility.yul\":2248:2287   */\n      add\n        /* \"#utility.yul\":2241:2287   */\n      swap2\n      pop\n        /* \"#utility.yul\":2008:2293   */\n      pop\n        /* \"#utility.yul\":1916:2293   */\n      swap3\n      swap2\n      pop\n      pop\n      jump\t// out\n        /* \"#utility.yul\":2299:2417   */\n    tag_220:\n        /* \"#utility.yul\":2386:2410   */\n      tag_298\n        /* \"#utility.yul\":2404:2409   */\n      dup2\n        /* \"#utility.yul\":2386:2410   */\n      tag_209\n      jump\t// in\n    tag_298:\n        /* \"#utility.yul\":2381:2384   */\n      dup3\n        /* \"#utility.yul\":2374:2411   */\n      mstore\n        /* \"#utility.yul\":2299:2417   */\n      pop\n      pop\n      jump\t// out\n        /* \"#utility.yul\":2423:2513   */\n    tag_221:\n        /* \"#utility.yul\":2457:2464   */\n      0x00\n        /* \"#utility.yul\":2500:2505   */\n      dup2\n        /* \"#utility.yul\":2493:2506   */\n      iszero\n        /* \"#utility.yul\":2486:2507   */\n      iszero\n        /* \"#utility.yul\":2475:2507   */\n      swap1\n      pop\n        /* \"#utility.yul\":2423:2513   */\n      swap2\n      swap1\n      pop\n      jump\t// out\n        /* \"#utility.yul\":2519:2628   */\n    tag_222:\n        /* \"#utility.yul\":2600:2621   */\n      tag_301\n        /* \"#utility.yul\":2615:2620   */\n      dup2\n        /* \"#utility.yul\":2600:2621   */\n      tag_221\n      jump\t// in\n    tag_301:\n        /* \"#utility.yul\":2595:2598   */\n      dup3\n        /* \"#utility.yul\":2588:2622   */\n      mstore\n        /* \"#utility.yul\":2519:2628   */\n      pop\n      pop\n      jump\t// out\n        /* \"#utility.yul\":2634:3678   */\n    tag_23:\n        /* \"#utility.yul\":2923:2927   */\n      0x00\n        /* \"#utility.yul\":2961:2964   */\n      0xe0\n        /* \"#utility.yul\":2950:2959   */\n      dup3\n        /* \"#utility.yul\":2946:2965   */\n      add\n        /* \"#utility.yul\":2938:2965   */\n      swap1\n      pop\n        /* \"#utility.yul\":2975:3046   */\n      tag_303\n        /* \"#utility.yul\":3043:3044   */\n      0x00\n        /* \"#utility.yul\":3032:3041   */\n      dup4\n        /* \"#utility.yul\":3028:3045   */\n      add\n        /* \"#utility.yul\":3019:3025   */\n      dup11\n        /* \"#utility.yul\":2975:3046   */\n      tag_214\n      jump\t// in\n    tag_303:\n        /* \"#utility.yul\":3093:3102   */\n      dup2\n        /* \"#utility.yul\":3087:3091   */\n      dup2\n        /* \"#utility.yul\":3083:3103   */\n      sub\n        /* \"#utility.yul\":3078:3080   */\n      0x20\n        /* \"#utility.yul\":3067:3076   */\n      dup4\n        /* \"#utility.yul\":3063:3081   */\n      add\n        /* \"#utility.yul\":3056:3104   */\n      mstore\n        /* \"#utility.yul\":3121:3199   */\n      tag_304\n        /* \"#utility.yul\":3194:3198   */\n      dup2\n        /* \"#utility.yul\":3185:3191   */\n      dup10\n        /* \"#utility.yul\":3121:3199   */\n      tag_219\n      jump\t// in\n    tag_304:\n        /* \"#utility.yul\":3113:3199   */\n      swap1\n      pop\n        /* \"#utility.yul\":3209:3281   */\n      tag_305\n        /* \"#utility.yul\":3277:3279   */\n      0x40\n        /* \"#utility.yul\":3266:3275   */\n      dup4\n        /* \"#utility.yul\":3262:3280   */\n      add\n        /* \"#utility.yul\":3253:3259   */\n      dup9\n        /* \"#utility.yul\":3209:3281   */\n      tag_220\n      jump\t// in\n    tag_305:\n        /* \"#utility.yul\":3291:3363   */\n      tag_306\n        /* \"#utility.yul\":3359:3361   */\n      0x60\n        /* \"#utility.yul\":3348:3357   */\n      dup4\n        /* \"#utility.yul\":3344:3362   */\n      add\n        /* \"#utility.yul\":3335:3341   */\n      dup8\n        /* \"#utility.yul\":3291:3363   */\n      tag_220\n      jump\t// in\n    tag_306:\n        /* \"#utility.yul\":3411:3420   */\n      dup2\n        /* \"#utility.yul\":3405:3409   */\n      dup2\n        /* \"#utility.yul\":3401:3421   */\n      sub\n        /* \"#utility.yul\":3395:3398   */\n      0x80\n        /* \"#utility.yul\":3384:3393   */\n      dup4\n        /* \"#utility.yul\":3380:3399   */\n      add\n        /* \"#utility.yul\":3373:3422   */\n      mstore\n        /* \"#utility.yul\":3439:3517   */\n      tag_307\n        /* \"#utility.yul\":3512:3516   */\n      dup2\n        /* \"#utility.yul\":3503:3509   */\n      dup7\n        /* \"#utility.yul\":3439:3517   */\n      tag_219\n      jump\t// in\n    tag_307:\n        /* \"#utility.yul\":3431:3517   */\n      swap1\n      pop\n        /* \"#utility.yul\":3527:3594   */\n      tag_308\n        /* \"#utility.yul\":3589:3592   */\n      0xa0\n        /* \"#utility.yul\":3578:3587   */\n      dup4\n        /* \"#utility.yul\":3574:3593   */\n      add\n        /* \"#utility.yul\":3565:3571   */\n      dup6\n        /* \"#utility.yul\":3527:3594   */\n      tag_222\n      jump\t// in\n    tag_308:\n        /* \"#utility.yul\":3604:3671   */\n      tag_309\n        /* \"#utility.yul\":3666:3669   */\n      0xc0\n        /* \"#utility.yul\":3655:3664   */\n      dup4\n        /* \"#utility.yul\":3651:3670   */\n      add\n        /* \"#utility.yul\":3642:3648   */\n      dup5\n        /* \"#utility.yul\":3604:3671   */\n      tag_222\n      jump\t// in\n    tag_309:\n        /* \"#utility.yul\":2634:3678   */\n      swap9\n      swap8\n      pop\n      pop\n      pop\n      pop\n      pop\n      pop\n      pop\n      pop\n      jump\t// out\n        /* \"#utility.yul\":3684:3801   */\n    tag_223:\n        /* \"#utility.yul\":3793:3794   */\n      0x00\n        /* \"#utility.yul\":3790:3791   */\n      0x00\n        /* \"#utility.yul\":3783:3795   */\n      revert\n        /* \"#utility.yul\":3807:3924   */\n    tag_224:\n        /* \"#utility.yul\":3916:3917   */\n      0x00\n        /* \"#utility.yul\":3913:3914   */\n      0x00\n        /* \"#utility.yul\":3906:3918   */\n      revert\n        /* \"#utility.yul\":3930:4110   */\n    tag_163:\n        /* \"#utility.yul\":3978:4055   */\n      0x4e487b7100000000000000000000000000000000000000000000000000000000\n        /* \"#utility.yul\":3975:3976   */\n      0x00\n        /* \"#utility.yul\":3968:4056   */\n      mstore\n        /* \"#utility.yul\":4075:4079   */\n      0x41\n        /* \"#utility.yul\":4072:4073   */\n      0x04\n        /* \"#utility.yul\":4065:4080   */\n      mstore\n        /* \"#utility.yul\":4099:4103   */\n      0x24\n        /* \"#utility.yul\":4096:4097   */\n      0x00\n        /* \"#utility.yul\":4089:4104   */\n      revert\n        /* \"#utility.yul\":4116:4397   */\n    tag_225:\n        /* \"#utility.yul\":4199:4226   */\n      tag_314\n        /* \"#utility.yul\":4221:4225   */\n      dup3\n        /* \"#utility.yul\":4199:4226   */\n      tag_218\n      jump\t// in\n    tag_314:\n        /* \"#utility.yul\":4191:4197   */\n      dup2\n        /* \"#utility.yul\":4187:4227   */\n      add\n        /* \"#utility.yul\":4329:4335   */\n      dup2\n        /* \"#utility.yul\":4317:4327   */\n      dup2\n        /* \"#utility.yul\":4314:4336   */\n      lt\n        /* \"#utility.yul\":4293:4311   */\n      0xffffffffffffffff\n        /* \"#utility.yul\":4281:4291   */\n      dup3\n        /* \"#utility.yul\":4278:4312   */\n      gt\n        /* \"#utility.yul\":4275:4337   */\n      or\n        /* \"#utility.yul\":4272:4360   */\n      iszero\n      tag_315\n      jumpi\n        /* \"#utility.yul\":4340:4358   */\n      tag_316\n      tag_163\n      jump\t// in\n    tag_316:\n        /* \"#utility.yul\":4272:4360   */\n    tag_315:\n        /* \"#utility.yul\":4380:4390   */\n      dup1\n        /* \"#utility.yul\":4376:4378   */\n      0x40\n        /* \"#utility.yul\":4369:4391   */\n      mstore\n        /* \"#utility.yul\":4159:4397   */\n      pop\n        /* \"#utility.yul\":4116:4397   */\n      pop\n      pop\n      jump\t// out\n        /* \"#utility.yul\":4403:4532   */\n    tag_226:\n        /* \"#utility.yul\":4437:4443   */\n      0x00\n        /* \"#utility.yul\":4464:4484   */\n      tag_318\n      tag_206\n      jump\t// in\n    tag_318:\n        /* \"#utility.yul\":4454:4484   */\n      swap1\n      pop\n        /* \"#utility.yul\":4493:4526   */\n      tag_319\n        /* \"#utility.yul\":4521:4525   */\n      dup3\n        /* \"#utility.yul\":4513:4519   */\n      dup3\n        /* \"#utility.yul\":4493:4526   */\n      tag_225\n      jump\t// in\n    tag_319:\n        /* \"#utility.yul\":4403:4532   */\n      swap2\n      swap1\n      pop\n      jump\t// out\n        /* \"#utility.yul\":4538:4846   */\n    tag_227:\n        /* \"#utility.yul\":4600:4604   */\n      0x00\n        /* \"#utility.yul\":4690:4708   */\n      0xffffffffffffffff\n        /* \"#utility.yul\":4682:4688   */\n      dup3\n        /* \"#utility.yul\":4679:4709   */\n      gt\n        /* \"#utility.yul\":4676:4732   */\n      iszero\n      tag_321\n      jumpi\n        /* \"#utility.yul\":4712:4730   */\n      tag_322\n      tag_163\n      jump\t// in\n    tag_322:\n        /* \"#utility.yul\":4676:4732   */\n    tag_321:\n        /* \"#utility.yul\":4750:4779   */\n      tag_323\n        /* \"#utility.yul\":4772:4778   */\n      dup3\n        /* \"#utility.yul\":4750:4779   */\n      tag_218\n      jump\t// in\n    tag_323:\n        /* \"#utility.yul\":4742:4779   */\n      swap1\n      pop\n        /* \"#utility.yul\":4834:4838   */\n      0x20\n        /* \"#utility.yul\":4828:4832   */\n      dup2\n        /* \"#utility.yul\":4824:4839   */\n      add\n        /* \"#utility.yul\":4816:4839   */\n      swap1\n      pop\n        /* \"#utility.yul\":4538:4846   */\n      swap2\n      swap1\n      pop\n      jump\t// out\n        /* \"#utility.yul\":4852:5000   */\n    tag_228:\n        /* \"#utility.yul\":4950:4956   */\n      dup3\n        /* \"#utility.yul\":4945:4948   */\n      dup2\n        /* \"#utility.yul\":4940:4943   */\n      dup4\n        /* \"#utility.yul\":4927:4957   */\n      calldatacopy\n        /* \"#utility.yul\":4991:4992   */\n      0x00\n        /* \"#utility.yul\":4982:4988   */\n      dup4\n        /* \"#utility.yul\":4977:4980   */\n      dup4\n        /* \"#utility.yul\":4973:4989   */\n      add\n        /* \"#utility.yul\":4966:4993   */\n      mstore\n        /* \"#utility.yul\":4852:5000   */\n      pop\n      pop\n      pop\n      jump\t// out\n        /* \"#utility.yul\":5006:5431   */\n    tag_229:\n        /* \"#utility.yul\":5084:5089   */\n      0x00\n        /* \"#utility.yul\":5109:5175   */\n      tag_326\n        /* \"#utility.yul\":5125:5174   */\n      tag_327\n        /* \"#utility.yul\":5167:5173   */\n      dup5\n        /* \"#utility.yul\":5125:5174   */\n      tag_227\n      jump\t// in\n    tag_327:\n        /* \"#utility.yul\":5109:5175   */\n      tag_226\n      jump\t// in\n    tag_326:\n        /* \"#utility.yul\":5100:5175   */\n      swap1\n      pop\n        /* \"#utility.yul\":5198:5204   */\n      dup3\n        /* \"#utility.yul\":5191:5196   */\n      dup2\n        /* \"#utility.yul\":5184:5205   */\n      mstore\n        /* \"#utility.yul\":5236:5240   */\n      0x20\n        /* \"#utility.yul\":5229:5234   */\n      dup2\n        /* \"#utility.yul\":5225:5241   */\n      add\n        /* \"#utility.yul\":5274:5277   */\n      dup5\n        /* \"#utility.yul\":5265:5271   */\n      dup5\n        /* \"#utility.yul\":5260:5263   */\n      dup5\n        /* \"#utility.yul\":5256:5272   */\n      add\n        /* \"#utility.yul\":5253:5278   */\n      gt\n        /* \"#utility.yul\":5250:5362   */\n      iszero\n      tag_328\n      jumpi\n        /* \"#utility.yul\":5281:5360   */\n      tag_329\n      tag_224\n      jump\t// in\n    tag_329:\n        /* \"#utility.yul\":5250:5362   */\n    tag_328:\n        /* \"#utility.yul\":5371:5425   */\n      tag_330\n        /* \"#utility.yul\":5418:5424   */\n      dup5\n        /* \"#utility.yul\":5413:5416   */\n      dup3\n        /* \"#utility.yul\":5408:5411   */\n      dup6\n        /* \"#utility.yul\":5371:5425   */\n      tag_228\n      jump\t// in\n    tag_330:\n        /* \"#utility.yul\":5090:5431   */\n      pop\n        /* \"#utility.yul\":5006:5431   */\n      swap4\n      swap3\n      pop\n      pop\n      pop\n      jump\t// out\n        /* \"#utility.yul\":5451:5791   */\n    tag_230:\n        /* \"#utility.yul\":5507:5512   */\n      0x00\n        /* \"#utility.yul\":5556:5559   */\n      dup3\n        /* \"#utility.yul\":5549:5553   */\n      0x1f\n        /* \"#utility.yul\":5541:5547   */\n      dup4\n        /* \"#utility.yul\":5537:5554   */\n      add\n        /* \"#utility.yul\":5533:5560   */\n      slt\n        /* \"#utility.yul\":5523:5645   */\n      tag_332\n      jumpi\n        /* \"#utility.yul\":5564:5643   */\n      tag_333\n      tag_223\n      jump\t// in\n    tag_333:\n        /* \"#utility.yul\":5523:5645   */\n    tag_332:\n        /* \"#utility.yul\":5681:5687   */\n      dup2\n        /* \"#utility.yul\":5668:5688   */\n      calldataload\n        /* \"#utility.yul\":5706:5785   */\n      tag_334\n        /* \"#utility.yul\":5781:5784   */\n      dup5\n        /* \"#utility.yul\":5773:5779   */\n      dup3\n        /* \"#utility.yul\":5766:5770   */\n      0x20\n        /* \"#utility.yul\":5758:5764   */\n      dup7\n        /* \"#utility.yul\":5754:5771   */\n      add\n        /* \"#utility.yul\":5706:5785   */\n      tag_229\n      jump\t// in\n    tag_334:\n        /* \"#utility.yul\":5697:5785   */\n      swap2\n      pop\n        /* \"#utility.yul\":5513:5791   */\n      pop\n        /* \"#utility.yul\":5451:5791   */\n      swap3\n      swap2\n      pop\n      pop\n      jump\t// out\n        /* \"#utility.yul\":5797:5913   */\n    tag_231:\n        /* \"#utility.yul\":5867:5888   */\n      tag_336\n        /* \"#utility.yul\":5882:5887   */\n      dup2\n        /* \"#utility.yul\":5867:5888   */\n      tag_221\n      jump\t// in\n    tag_336:\n        /* \"#utility.yul\":5860:5865   */\n      dup2\n        /* \"#utility.yul\":5857:5889   */\n      eq\n        /* \"#utility.yul\":5847:5907   */\n      tag_337\n      jumpi\n        /* \"#utility.yul\":5903:5904   */\n      0x00\n        /* \"#utility.yul\":5900:5901   */\n      0x00\n        /* \"#utility.yul\":5893:5905   */\n      revert\n        /* \"#utility.yul\":5847:5907   */\n    tag_337:\n        /* \"#utility.yul\":5797:5913   */\n      pop\n      jump\t// out\n        /* \"#utility.yul\":5919:6052   */\n    tag_232:\n        /* \"#utility.yul\":5962:5967   */\n      0x00\n        /* \"#utility.yul\":6000:6006   */\n      dup2\n        /* \"#utility.yul\":5987:6007   */\n      calldataload\n        /* \"#utility.yul\":5978:6007   */\n      swap1\n      pop\n        /* \"#utility.yul\":6016:6046   */\n      tag_339\n        /* \"#utility.yul\":6040:6045   */\n      dup2\n        /* \"#utility.yul\":6016:6046   */\n      tag_231\n      jump\t// in\n    tag_339:\n        /* \"#utility.yul\":5919:6052   */\n      swap3\n      swap2\n      pop\n      pop\n      jump\t// out\n        /* \"#utility.yul\":6058:6997   */\n    tag_27:\n        /* \"#utility.yul\":6151:6157   */\n      0x00\n        /* \"#utility.yul\":6159:6165   */\n      0x00\n        /* \"#utility.yul\":6167:6173   */\n      0x00\n        /* \"#utility.yul\":6175:6181   */\n      0x00\n        /* \"#utility.yul\":6224:6227   */\n      0x80\n        /* \"#utility.yul\":6212:6221   */\n      dup6\n        /* \"#utility.yul\":6203:6210   */\n      dup8\n        /* \"#utility.yul\":6199:6222   */\n      sub\n        /* \"#utility.yul\":6195:6228   */\n      slt\n        /* \"#utility.yul\":6192:6312   */\n      iszero\n      tag_341\n      jumpi\n        /* \"#utility.yul\":6231:6310   */\n      tag_342\n      tag_207\n      jump\t// in\n    tag_342:\n        /* \"#utility.yul\":6192:6312   */\n    tag_341:\n        /* \"#utility.yul\":6379:6380   */\n      0x00\n        /* \"#utility.yul\":6368:6377   */\n      dup6\n        /* \"#utility.yul\":6364:6381   */\n      add\n        /* \"#utility.yul\":6351:6382   */\n      calldataload\n        /* \"#utility.yul\":6409:6427   */\n      0xffffffffffffffff\n        /* \"#utility.yul\":6401:6407   */\n      dup2\n        /* \"#utility.yul\":6398:6428   */\n      gt\n        /* \"#utility.yul\":6395:6512   */\n      iszero\n      tag_343\n      jumpi\n        /* \"#utility.yul\":6431:6510   */\n      tag_344\n      tag_208\n      jump\t// in\n    tag_344:\n        /* \"#utility.yul\":6395:6512   */\n    tag_343:\n        /* \"#utility.yul\":6536:6599   */\n      tag_345\n        /* \"#utility.yul\":6591:6598   */\n      dup8\n        /* \"#utility.yul\":6582:6588   */\n      dup3\n        /* \"#utility.yul\":6571:6580   */\n      dup9\n        /* \"#utility.yul\":6567:6589   */\n      add\n        /* \"#utility.yul\":6536:6599   */\n      tag_230\n      jump\t// in\n    tag_345:\n        /* \"#utility.yul\":6526:6599   */\n      swap5\n      pop\n        /* \"#utility.yul\":6322:6609   */\n      pop\n        /* \"#utility.yul\":6648:6650   */\n      0x20\n        /* \"#utility.yul\":6674:6727   */\n      tag_346\n        /* \"#utility.yul\":6719:6726   */\n      dup8\n        /* \"#utility.yul\":6710:6716   */\n      dup3\n        /* \"#utility.yul\":6699:6708   */\n      dup9\n        /* \"#utility.yul\":6695:6717   */\n      add\n        /* \"#utility.yul\":6674:6727   */\n      tag_211\n      jump\t// in\n    tag_346:\n        /* \"#utility.yul\":6664:6727   */\n      swap4\n      pop\n        /* \"#utility.yul\":6619:6737   */\n      pop\n        /* \"#utility.yul\":6776:6778   */\n      0x40\n        /* \"#utility.yul\":6802:6855   */\n      tag_347\n        /* \"#utility.yul\":6847:6854   */\n      dup8\n        /* \"#utility.yul\":6838:6844   */\n      dup3\n        /* \"#utility.yul\":6827:6836   */\n      dup9\n        /* \"#utility.yul\":6823:6845   */\n      add\n        /* \"#utility.yul\":6802:6855   */\n      tag_211\n      jump\t// in\n    tag_347:\n        /* \"#utility.yul\":6792:6855   */\n      swap3\n      pop\n        /* \"#utility.yul\":6747:6865   */\n      pop\n        /* \"#utility.yul\":6904:6906   */\n      0x60\n        /* \"#utility.yul\":6930:6980   */\n      tag_348\n        /* \"#utility.yul\":6972:6979   */\n      dup8\n        /* \"#utility.yul\":6963:6969   */\n      dup3\n        /* \"#utility.yul\":6952:6961   */\n      dup9\n        /* \"#utility.yul\":6948:6970   */\n      add\n        /* \"#utility.yul\":6930:6980   */\n      tag_232\n      jump\t// in\n    tag_348:\n        /* \"#utility.yul\":6920:6980   */\n      swap2\n      pop\n        /* \"#utility.yul\":6875:6990   */\n      pop\n        /* \"#utility.yul\":6058:6997   */\n      swap3\n      swap6\n      swap2\n      swap5\n      pop\n      swap3\n      pop\n      jump\t// out\n        /* \"#utility.yul\":7003:7225   */\n    tag_30:\n        /* \"#utility.yul\":7096:7100   */\n      0x00\n        /* \"#utility.yul\":7134:7136   */\n      0x20\n        /* \"#utility.yul\":7123:7132   */\n      dup3\n        /* \"#utility.yul\":7119:7137   */\n      add\n        /* \"#utility.yul\":7111:7137   */\n      swap1\n      pop\n        /* \"#utility.yul\":7147:7218   */\n      tag_350\n        /* \"#utility.yul\":7215:7216   */\n      0x00\n        /* \"#utility.yul\":7204:7213   */\n      dup4\n        /* \"#utility.yul\":7200:7217   */\n      add\n        /* \"#utility.yul\":7191:7197   */\n      dup5\n        /* \"#utility.yul\":7147:7218   */\n      tag_220\n      jump\t// in\n    tag_350:\n        /* \"#utility.yul\":7003:7225   */\n      swap3\n      swap2\n      pop\n      pop\n      jump\t// out\n        /* \"#utility.yul\":7231:7353   */\n    tag_233:\n        /* \"#utility.yul\":7304:7328   */\n      tag_352\n        /* \"#utility.yul\":7322:7327   */\n      dup2\n        /* \"#utility.yul\":7304:7328   */\n      tag_213\n      jump\t// in\n    tag_352:\n        /* \"#utility.yul\":7297:7302   */\n      dup2\n        /* \"#utility.yul\":7294:7329   */\n      eq\n        /* \"#utility.yul\":7284:7347   */\n      tag_353\n      jumpi\n        /* \"#utility.yul\":7343:7344   */\n      0x00\n        /* \"#utility.yul\":7340:7341   */\n      0x00\n        /* \"#utility.yul\":7333:7345   */\n      revert\n        /* \"#utility.yul\":7284:7347   */\n    tag_353:\n        /* \"#utility.yul\":7231:7353   */\n      pop\n      jump\t// out\n        /* \"#utility.yul\":7359:7498   */\n    tag_234:\n        /* \"#utility.yul\":7405:7410   */\n      0x00\n        /* \"#utility.yul\":7443:7449   */\n      dup2\n        /* \"#utility.yul\":7430:7450   */\n      calldataload\n        /* \"#utility.yul\":7421:7450   */\n      swap1\n      pop\n        /* \"#utility.yul\":7459:7492   */\n      tag_355\n        /* \"#utility.yul\":7486:7491   */\n      dup2\n        /* \"#utility.yul\":7459:7492   */\n      tag_233\n      jump\t// in\n    tag_355:\n        /* \"#utility.yul\":7359:7498   */\n      swap3\n      swap2\n      pop\n      pop\n      jump\t// out\n        /* \"#utility.yul\":7504:7833   */\n    tag_34:\n        /* \"#utility.yul\":7563:7569   */\n      0x00\n        /* \"#utility.yul\":7612:7614   */\n      0x20\n        /* \"#utility.yul\":7600:7609   */\n      dup3\n        /* \"#utility.yul\":7591:7598   */\n      dup5\n        /* \"#utility.yul\":7587:7610   */\n      sub\n        /* \"#utility.yul\":7583:7615   */\n      slt\n        /* \"#utility.yul\":7580:7699   */\n      iszero\n      tag_357\n      jumpi\n        /* \"#utility.yul\":7618:7697   */\n      tag_358\n      tag_207\n      jump\t// in\n    tag_358:\n        /* \"#utility.yul\":7580:7699   */\n    tag_357:\n        /* \"#utility.yul\":7738:7739   */\n      0x00\n        /* \"#utility.yul\":7763:7816   */\n      tag_359\n        /* \"#utility.yul\":7808:7815   */\n      dup5\n        /* \"#utility.yul\":7799:7805   */\n      dup3\n        /* \"#utility.yul\":7788:7797   */\n      dup6\n        /* \"#utility.yul\":7784:7806   */\n      add\n        /* \"#utility.yul\":7763:7816   */\n      tag_234\n      jump\t// in\n    tag_359:\n        /* \"#utility.yul\":7753:7816   */\n      swap2\n      pop\n        /* \"#utility.yul\":7709:7826   */\n      pop\n        /* \"#utility.yul\":7504:7833   */\n      swap3\n      swap2\n      pop\n      pop\n      jump\t// out\n        /* \"#utility.yul\":7839:8049   */\n    tag_37:\n        /* \"#utility.yul\":7926:7930   */\n      0x00\n        /* \"#utility.yul\":7964:7966   */\n      0x20\n        /* \"#utility.yul\":7953:7962   */\n      dup3\n        /* \"#utility.yul\":7949:7967   */\n      add\n        /* \"#utility.yul\":7941:7967   */\n      swap1\n      pop\n        /* \"#utility.yul\":7977:8042   */\n      tag_361\n        /* \"#utility.yul\":8039:8040   */\n      0x00\n        /* \"#utility.yul\":8028:8037   */\n      dup4\n        /* \"#utility.yul\":8024:8041   */\n      add\n        /* \"#utility.yul\":8015:8021   */\n      dup5\n        /* \"#utility.yul\":7977:8042   */\n      tag_222\n      jump\t// in\n    tag_361:\n        /* \"#utility.yul\":7839:8049   */\n      swap3\n      swap2\n      pop\n      pop\n      jump\t// out\n        /* \"#utility.yul\":8055:8854   */\n    tag_46:\n        /* \"#utility.yul\":8142:8148   */\n      0x00\n        /* \"#utility.yul\":8150:8156   */\n      0x00\n        /* \"#utility.yul\":8158:8164   */\n      0x00\n        /* \"#utility.yul\":8207:8209   */\n      0x60\n        /* \"#utility.yul\":8195:8204   */\n      dup5\n        /* \"#utility.yul\":8186:8193   */\n      dup7\n        /* \"#utility.yul\":8182:8205   */\n      sub\n        /* \"#utility.yul\":8178:8210   */\n      slt\n        /* \"#utility.yul\":8175:8294   */\n      iszero\n      tag_363\n      jumpi\n        /* \"#utility.yul\":8213:8292   */\n      tag_364\n      tag_207\n      jump\t// in\n    tag_364:\n        /* \"#utility.yul\":8175:8294   */\n    tag_363:\n        /* \"#utility.yul\":8333:8334   */\n      0x00\n        /* \"#utility.yul\":8358:8411   */\n      tag_365\n        /* \"#utility.yul\":8403:8410   */\n      dup7\n        /* \"#utility.yul\":8394:8400   */\n      dup3\n        /* \"#utility.yul\":8383:8392   */\n      dup8\n        /* \"#utility.yul\":8379:8401   */\n      add\n        /* \"#utility.yul\":8358:8411   */\n      tag_234\n      jump\t// in\n    tag_365:\n        /* \"#utility.yul\":8348:8411   */\n      swap4\n      pop\n        /* \"#utility.yul\":8304:8421   */\n      pop\n        /* \"#utility.yul\":8488:8490   */\n      0x20\n        /* \"#utility.yul\":8477:8486   */\n      dup5\n        /* \"#utility.yul\":8473:8491   */\n      add\n        /* \"#utility.yul\":8460:8492   */\n      calldataload\n        /* \"#utility.yul\":8519:8537   */\n      0xffffffffffffffff\n        /* \"#utility.yul\":8511:8517   */\n      dup2\n        /* \"#utility.yul\":8508:8538   */\n      gt\n        /* \"#utility.yul\":8505:8622   */\n      iszero\n      tag_366\n      jumpi\n        /* \"#utility.yul\":8541:8620   */\n      tag_367\n      tag_208\n      jump\t// in\n    tag_367:\n        /* \"#utility.yul\":8505:8622   */\n    tag_366:\n        /* \"#utility.yul\":8646:8709   */\n      tag_368\n        /* \"#utility.yul\":8701:8708   */\n      dup7\n        /* \"#utility.yul\":8692:8698   */\n      dup3\n        /* \"#utility.yul\":8681:8690   */\n      dup8\n        /* \"#utility.yul\":8677:8699   */\n      add\n        /* \"#utility.yul\":8646:8709   */\n      tag_230\n      jump\t// in\n    tag_368:\n        /* \"#utility.yul\":8636:8709   */\n      swap3\n      pop\n        /* \"#utility.yul\":8431:8719   */\n      pop\n        /* \"#utility.yul\":8758:8760   */\n      0x40\n        /* \"#utility.yul\":8784:8837   */\n      tag_369\n        /* \"#utility.yul\":8829:8836   */\n      dup7\n        /* \"#utility.yul\":8820:8826   */\n      dup3\n        /* \"#utility.yul\":8809:8818   */\n      dup8\n        /* \"#utility.yul\":8805:8827   */\n      add\n        /* \"#utility.yul\":8784:8837   */\n      tag_211\n      jump\t// in\n    tag_369:\n        /* \"#utility.yul\":8774:8837   */\n      swap2\n      pop\n        /* \"#utility.yul\":8729:8847   */\n      pop\n        /* \"#utility.yul\":8055:8854   */\n      swap3\n      pop\n      swap3\n      pop\n      swap3\n      jump\t// out\n        /* \"#utility.yul\":8860:9514   */\n    tag_51:\n        /* \"#utility.yul\":8938:8944   */\n      0x00\n        /* \"#utility.yul\":8946:8952   */\n      0x00\n        /* \"#utility.yul\":8995:8997   */\n      0x40\n        /* \"#utility.yul\":8983:8992   */\n      dup4\n        /* \"#utility.yul\":8974:8981   */\n      dup6\n        /* \"#utility.yul\":8970:8993   */\n      sub\n        /* \"#utility.yul\":8966:8998   */\n      slt\n        /* \"#utility.yul\":8963:9082   */\n      iszero\n      tag_371\n      jumpi\n        /* \"#utility.yul\":9001:9080   */\n      tag_372\n      tag_207\n      jump\t// in\n    tag_372:\n        /* \"#utility.yul\":8963:9082   */\n    tag_371:\n        /* \"#utility.yul\":9149:9150   */\n      0x00\n        /* \"#utility.yul\":9138:9147   */\n      dup4\n        /* \"#utility.yul\":9134:9151   */\n      add\n        /* \"#utility.yul\":9121:9152   */\n      calldataload\n        /* \"#utility.yul\":9179:9197   */\n      0xffffffffffffffff\n        /* \"#utility.yul\":9171:9177   */\n      dup2\n        /* \"#utility.yul\":9168:9198   */\n      gt\n        /* \"#utility.yul\":9165:9282   */\n      iszero\n      tag_373\n      jumpi\n        /* \"#utility.yul\":9201:9280   */\n      tag_374\n      tag_208\n      jump\t// in\n    tag_374:\n        /* \"#utility.yul\":9165:9282   */\n    tag_373:\n        /* \"#utility.yul\":9306:9369   */\n      tag_375\n        /* \"#utility.yul\":9361:9368   */\n      dup6\n        /* \"#utility.yul\":9352:9358   */\n      dup3\n        /* \"#utility.yul\":9341:9350   */\n      dup7\n        /* \"#utility.yul\":9337:9359   */\n      add\n        /* \"#utility.yul\":9306:9369   */\n      tag_230\n      jump\t// in\n    tag_375:\n        /* \"#utility.yul\":9296:9369   */\n      swap3\n      pop\n        /* \"#utility.yul\":9092:9379   */\n      pop\n        /* \"#utility.yul\":9418:9420   */\n      0x20\n        /* \"#utility.yul\":9444:9497   */\n      tag_376\n        /* \"#utility.yul\":9489:9496   */\n      dup6\n        /* \"#utility.yul\":9480:9486   */\n      dup3\n        /* \"#utility.yul\":9469:9478   */\n      dup7\n        /* \"#utility.yul\":9465:9487   */\n      add\n        /* \"#utility.yul\":9444:9497   */\n      tag_211\n      jump\t// in\n    tag_376:\n        /* \"#utility.yul\":9434:9497   */\n      swap2\n      pop\n        /* \"#utility.yul\":9389:9507   */\n      pop\n        /* \"#utility.yul\":8860:9514   */\n      swap3\n      pop\n      swap3\n      swap1\n      pop\n      jump\t// out\n        /* \"#utility.yul\":9520:9833   */\n    tag_67:\n        /* \"#utility.yul\":9633:9637   */\n      0x00\n        /* \"#utility.yul\":9671:9673   */\n      0x20\n        /* \"#utility.yul\":9660:9669   */\n      dup3\n        /* \"#utility.yul\":9656:9674   */\n      add\n        /* \"#utility.yul\":9648:9674   */\n      swap1\n      pop\n        /* \"#utility.yul\":9720:9729   */\n      dup2\n        /* \"#utility.yul\":9714:9718   */\n      dup2\n        /* \"#utility.yul\":9710:9730   */\n      sub\n        /* \"#utility.yul\":9706:9707   */\n      0x00\n        /* \"#utility.yul\":9695:9704   */\n      dup4\n        /* \"#utility.yul\":9691:9708   */\n      add\n        /* \"#utility.yul\":9684:9731   */\n      mstore\n        /* \"#utility.yul\":9748:9826   */\n      tag_378\n        /* \"#utility.yul\":9821:9825   */\n      dup2\n        /* \"#utility.yul\":9812:9818   */\n      dup5\n        /* \"#utility.yul\":9748:9826   */\n      tag_219\n      jump\t// in\n    tag_378:\n        /* \"#utility.yul\":9740:9826   */\n      swap1\n      pop\n        /* \"#utility.yul\":9520:9833   */\n      swap3\n      swap2\n      pop\n      pop\n      jump\t// out\n        /* \"#utility.yul\":9839:10061   */\n    tag_72:\n        /* \"#utility.yul\":9932:9936   */\n      0x00\n        /* \"#utility.yul\":9970:9972   */\n      0x20\n        /* \"#utility.yul\":9959:9968   */\n      dup3\n        /* \"#utility.yul\":9955:9973   */\n      add\n        /* \"#utility.yul\":9947:9973   */\n      swap1\n      pop\n        /* \"#utility.yul\":9983:10054   */\n      tag_380\n        /* \"#utility.yul\":10051:10052   */\n      0x00\n        /* \"#utility.yul\":10040:10049   */\n      dup4\n        /* \"#utility.yul\":10036:10053   */\n      add\n        /* \"#utility.yul\":10027:10033   */\n      dup5\n        /* \"#utility.yul\":9983:10054   */\n      tag_214\n      jump\t// in\n    tag_380:\n        /* \"#utility.yul\":9839:10061   */\n      swap3\n      swap2\n      pop\n      pop\n      jump\t// out\n        /* \"#utility.yul\":10067:10203   */\n    tag_235:\n        /* \"#utility.yul\":10156:10162   */\n      0x00\n        /* \"#utility.yul\":10190:10195   */\n      dup2\n        /* \"#utility.yul\":10184:10196   */\n      mload\n        /* \"#utility.yul\":10174:10196   */\n      swap1\n      pop\n        /* \"#utility.yul\":10067:10203   */\n      swap2\n      swap1\n      pop\n      jump\t// out\n        /* \"#utility.yul\":10209:10415   */\n    tag_236:\n        /* \"#utility.yul\":10330:10341   */\n      0x00\n        /* \"#utility.yul\":10364:10370   */\n      dup3\n        /* \"#utility.yul\":10359:10362   */\n      dup3\n        /* \"#utility.yul\":10352:10371   */\n      mstore\n        /* \"#utility.yul\":10404:10408   */\n      0x20\n        /* \"#utility.yul\":10399:10402   */\n      dup3\n        /* \"#utility.yul\":10395:10409   */\n      add\n        /* \"#utility.yul\":10380:10409   */\n      swap1\n      pop\n        /* \"#utility.yul\":10209:10415   */\n      swap3\n      swap2\n      pop\n      pop\n      jump\t// out\n        /* \"#utility.yul\":10421:10575   */\n    tag_237:\n        /* \"#utility.yul\":10510:10514   */\n      0x00\n        /* \"#utility.yul\":10533:10536   */\n      dup2\n        /* \"#utility.yul\":10525:10536   */\n      swap1\n      pop\n        /* \"#utility.yul\":10563:10567   */\n      0x20\n        /* \"#utility.yul\":10558:10561   */\n      dup3\n        /* \"#utility.yul\":10554:10568   */\n      add\n        /* \"#utility.yul\":10546:10568   */\n      swap1\n      pop\n        /* \"#utility.yul\":10421:10575   */\n      swap2\n      swap1\n      pop\n      jump\t// out\n        /* \"#utility.yul\":10581:10689   */\n    tag_238:\n        /* \"#utility.yul\":10658:10682   */\n      tag_385\n        /* \"#utility.yul\":10676:10681   */\n      dup2\n        /* \"#utility.yul\":10658:10682   */\n      tag_213\n      jump\t// in\n    tag_385:\n        /* \"#utility.yul\":10653:10656   */\n      dup3\n        /* \"#utility.yul\":10646:10683   */\n      mstore\n        /* \"#utility.yul\":10581:10689   */\n      pop\n      pop\n      jump\t// out\n        /* \"#utility.yul\":10695:10854   */\n    tag_239:\n        /* \"#utility.yul\":10769:10780   */\n      0x00\n        /* \"#utility.yul\":10803:10809   */\n      dup3\n        /* \"#utility.yul\":10798:10801   */\n      dup3\n        /* \"#utility.yul\":10791:10810   */\n      mstore\n        /* \"#utility.yul\":10843:10847   */\n      0x20\n        /* \"#utility.yul\":10838:10841   */\n      dup3\n        /* \"#utility.yul\":10834:10848   */\n      add\n        /* \"#utility.yul\":10819:10848   */\n      swap1\n      pop\n        /* \"#utility.yul\":10695:10854   */\n      swap3\n      swap2\n      pop\n      pop\n      jump\t// out\n        /* \"#utility.yul\":10860:11217   */\n    tag_240:\n        /* \"#utility.yul\":10938:10941   */\n      0x00\n        /* \"#utility.yul\":10966:11005   */\n      tag_388\n        /* \"#utility.yul\":10999:11004   */\n      dup3\n        /* \"#utility.yul\":10966:11005   */\n      tag_215\n      jump\t// in\n    tag_388:\n        /* \"#utility.yul\":11021:11082   */\n      tag_389\n        /* \"#utility.yul\":11075:11081   */\n      dup2\n        /* \"#utility.yul\":11070:11073   */\n      dup6\n        /* \"#utility.yul\":11021:11082   */\n      tag_239\n      jump\t// in\n    tag_389:\n        /* \"#utility.yul\":11014:11082   */\n      swap4\n      pop\n        /* \"#utility.yul\":11091:11156   */\n      tag_390\n        /* \"#utility.yul\":11149:11155   */\n      dup2\n        /* \"#utility.yul\":11144:11147   */\n      dup6\n        /* \"#utility.yul\":11137:11141   */\n      0x20\n        /* \"#utility.yul\":11130:11135   */\n      dup7\n        /* \"#utility.yul\":11126:11142   */\n      add\n        /* \"#utility.yul\":11091:11156   */\n      tag_217\n      jump\t// in\n    tag_390:\n        /* \"#utility.yul\":11181:11210   */\n      tag_391\n        /* \"#utility.yul\":11203:11209   */\n      dup2\n        /* \"#utility.yul\":11181:11210   */\n      tag_218\n      jump\t// in\n    tag_391:\n        /* \"#utility.yul\":11176:11179   */\n      dup5\n        /* \"#utility.yul\":11172:11211   */\n      add\n        /* \"#utility.yul\":11165:11211   */\n      swap2\n      pop\n        /* \"#utility.yul\":10942:11217   */\n      pop\n        /* \"#utility.yul\":10860:11217   */\n      swap3\n      swap2\n      pop\n      pop\n      jump\t// out\n        /* \"#utility.yul\":11223:11331   */\n    tag_241:\n        /* \"#utility.yul\":11300:11324   */\n      tag_393\n        /* \"#utility.yul\":11318:11323   */\n      dup2\n        /* \"#utility.yul\":11300:11324   */\n      tag_209\n      jump\t// in\n    tag_393:\n        /* \"#utility.yul\":11295:11298   */\n      dup3\n        /* \"#utility.yul\":11288:11325   */\n      mstore\n        /* \"#utility.yul\":11223:11331   */\n      pop\n      pop\n      jump\t// out\n        /* \"#utility.yul\":11337:11436   */\n    tag_242:\n        /* \"#utility.yul\":11408:11429   */\n      tag_395\n        /* \"#utility.yul\":11423:11428   */\n      dup2\n        /* \"#utility.yul\":11408:11429   */\n      tag_221\n      jump\t// in\n    tag_395:\n        /* \"#utility.yul\":11403:11406   */\n      dup3\n        /* \"#utility.yul\":11396:11430   */\n      mstore\n        /* \"#utility.yul\":11337:11436   */\n      pop\n      pop\n      jump\t// out\n        /* \"#utility.yul\":11516:13057   */\n    tag_243:\n        /* \"#utility.yul\":11619:11622   */\n      0x00\n        /* \"#utility.yul\":11655:11659   */\n      0xe0\n        /* \"#utility.yul\":11650:11653   */\n      dup4\n        /* \"#utility.yul\":11646:11660   */\n      add\n        /* \"#utility.yul\":11743:11747   */\n      0x00\n        /* \"#utility.yul\":11736:11741   */\n      dup4\n        /* \"#utility.yul\":11732:11748   */\n      add\n        /* \"#utility.yul\":11726:11749   */\n      mload\n        /* \"#utility.yul\":11762:11825   */\n      tag_397\n        /* \"#utility.yul\":11819:11823   */\n      0x00\n        /* \"#utility.yul\":11814:11817   */\n      dup7\n        /* \"#utility.yul\":11810:11824   */\n      add\n        /* \"#utility.yul\":11796:11808   */\n      dup3\n        /* \"#utility.yul\":11762:11825   */\n      tag_238\n      jump\t// in\n    tag_397:\n        /* \"#utility.yul\":11670:11835   */\n      pop\n        /* \"#utility.yul\":11924:11928   */\n      0x20\n        /* \"#utility.yul\":11917:11922   */\n      dup4\n        /* \"#utility.yul\":11913:11929   */\n      add\n        /* \"#utility.yul\":11907:11930   */\n      mload\n        /* \"#utility.yul\":11977:11980   */\n      dup5\n        /* \"#utility.yul\":11971:11975   */\n      dup3\n        /* \"#utility.yul\":11967:11981   */\n      sub\n        /* \"#utility.yul\":11960:11964   */\n      0x20\n        /* \"#utility.yul\":11955:11958   */\n      dup7\n        /* \"#utility.yul\":11951:11965   */\n      add\n        /* \"#utility.yul\":11944:11982   */\n      mstore\n        /* \"#utility.yul\":12003:12076   */\n      tag_398\n        /* \"#utility.yul\":12071:12075   */\n      dup3\n        /* \"#utility.yul\":12057:12069   */\n      dup3\n        /* \"#utility.yul\":12003:12076   */\n      tag_240\n      jump\t// in\n    tag_398:\n        /* \"#utility.yul\":11995:12076   */\n      swap2\n      pop\n        /* \"#utility.yul\":11845:12087   */\n      pop\n        /* \"#utility.yul\":12170:12174   */\n      0x40\n        /* \"#utility.yul\":12163:12168   */\n      dup4\n        /* \"#utility.yul\":12159:12175   */\n      add\n        /* \"#utility.yul\":12153:12176   */\n      mload\n        /* \"#utility.yul\":12189:12252   */\n      tag_399\n        /* \"#utility.yul\":12246:12250   */\n      0x40\n        /* \"#utility.yul\":12241:12244   */\n      dup7\n        /* \"#utility.yul\":12237:12251   */\n      add\n        /* \"#utility.yul\":12223:12235   */\n      dup3\n        /* \"#utility.yul\":12189:12252   */\n      tag_241\n      jump\t// in\n    tag_399:\n        /* \"#utility.yul\":12097:12262   */\n      pop\n        /* \"#utility.yul\":12344:12348   */\n      0x60\n        /* \"#utility.yul\":12337:12342   */\n      dup4\n        /* \"#utility.yul\":12333:12349   */\n      add\n        /* \"#utility.yul\":12327:12350   */\n      mload\n        /* \"#utility.yul\":12363:12426   */\n      tag_400\n        /* \"#utility.yul\":12420:12424   */\n      0x60\n        /* \"#utility.yul\":12415:12418   */\n      dup7\n        /* \"#utility.yul\":12411:12425   */\n      add\n        /* \"#utility.yul\":12397:12409   */\n      dup3\n        /* \"#utility.yul\":12363:12426   */\n      tag_241\n      jump\t// in\n    tag_400:\n        /* \"#utility.yul\":12272:12436   */\n      pop\n        /* \"#utility.yul\":12519:12523   */\n      0x80\n        /* \"#utility.yul\":12512:12517   */\n      dup4\n        /* \"#utility.yul\":12508:12524   */\n      add\n        /* \"#utility.yul\":12502:12525   */\n      mload\n        /* \"#utility.yul\":12572:12575   */\n      dup5\n        /* \"#utility.yul\":12566:12570   */\n      dup3\n        /* \"#utility.yul\":12562:12576   */\n      sub\n        /* \"#utility.yul\":12555:12559   */\n      0x80\n        /* \"#utility.yul\":12550:12553   */\n      dup7\n        /* \"#utility.yul\":12546:12560   */\n      add\n        /* \"#utility.yul\":12539:12577   */\n      mstore\n        /* \"#utility.yul\":12598:12671   */\n      tag_401\n        /* \"#utility.yul\":12666:12670   */\n      dup3\n        /* \"#utility.yul\":12652:12664   */\n      dup3\n        /* \"#utility.yul\":12598:12671   */\n      tag_240\n      jump\t// in\n    tag_401:\n        /* \"#utility.yul\":12590:12671   */\n      swap2\n      pop\n        /* \"#utility.yul\":12446:12682   */\n      pop\n        /* \"#utility.yul\":12769:12773   */\n      0xa0\n        /* \"#utility.yul\":12762:12767   */\n      dup4\n        /* \"#utility.yul\":12758:12774   */\n      add\n        /* \"#utility.yul\":12752:12775   */\n      mload\n        /* \"#utility.yul\":12788:12845   */\n      tag_402\n        /* \"#utility.yul\":12839:12843   */\n      0xa0\n        /* \"#utility.yul\":12834:12837   */\n      dup7\n        /* \"#utility.yul\":12830:12844   */\n      add\n        /* \"#utility.yul\":12816:12828   */\n      dup3\n        /* \"#utility.yul\":12788:12845   */\n      tag_242\n      jump\t// in\n    tag_402:\n        /* \"#utility.yul\":12692:12855   */\n      pop\n        /* \"#utility.yul\":12944:12948   */\n      0xc0\n        /* \"#utility.yul\":12937:12942   */\n      dup4\n        /* \"#utility.yul\":12933:12949   */\n      add\n        /* \"#utility.yul\":12927:12950   */\n      mload\n        /* \"#utility.yul\":12963:13020   */\n      tag_403\n        /* \"#utility.yul\":13014:13018   */\n      0xc0\n        /* \"#utility.yul\":13009:13012   */\n      dup7\n        /* \"#utility.yul\":13005:13019   */\n      add\n        /* \"#utility.yul\":12991:13003   */\n      dup3\n        /* \"#utility.yul\":12963:13020   */\n      tag_242\n      jump\t// in\n    tag_403:\n        /* \"#utility.yul\":12865:13030   */\n      pop\n        /* \"#utility.yul\":13047:13051   */\n      dup1\n        /* \"#utility.yul\":13040:13051   */\n      swap2\n      pop\n        /* \"#utility.yul\":11624:13057   */\n      pop\n        /* \"#utility.yul\":11516:13057   */\n      swap3\n      swap2\n      pop\n      pop\n      jump\t// out\n        /* \"#utility.yul\":13063:13307   */\n    tag_244:\n        /* \"#utility.yul\":13176:13186   */\n      0x00\n        /* \"#utility.yul\":13211:13301   */\n      tag_405\n        /* \"#utility.yul\":13297:13300   */\n      dup4\n        /* \"#utility.yul\":13289:13295   */\n      dup4\n        /* \"#utility.yul\":13211:13301   */\n      tag_243\n      jump\t// in\n    tag_405:\n        /* \"#utility.yul\":13197:13301   */\n      swap1\n      pop\n        /* \"#utility.yul\":13063:13307   */\n      swap3\n      swap2\n      pop\n      pop\n      jump\t// out\n        /* \"#utility.yul\":13313:13448   */\n    tag_245:\n        /* \"#utility.yul\":13405:13409   */\n      0x00\n        /* \"#utility.yul\":13437:13441   */\n      0x20\n        /* \"#utility.yul\":13432:13435   */\n      dup3\n        /* \"#utility.yul\":13428:13442   */\n      add\n        /* \"#utility.yul\":13420:13442   */\n      swap1\n      pop\n        /* \"#utility.yul\":13313:13448   */\n      swap2\n      swap1\n      pop\n      jump\t// out\n        /* \"#utility.yul\":13532:14619   */\n    tag_246:\n        /* \"#utility.yul\":13695:13698   */\n      0x00\n        /* \"#utility.yul\":13724:13800   */\n      tag_408\n        /* \"#utility.yul\":13794:13799   */\n      dup3\n        /* \"#utility.yul\":13724:13800   */\n      tag_235\n      jump\t// in\n    tag_408:\n        /* \"#utility.yul\":13816:13924   */\n      tag_409\n        /* \"#utility.yul\":13917:13923   */\n      dup2\n        /* \"#utility.yul\":13912:13915   */\n      dup6\n        /* \"#utility.yul\":13816:13924   */\n      tag_236\n      jump\t// in\n    tag_409:\n        /* \"#utility.yul\":13809:13924   */\n      swap4\n      pop\n        /* \"#utility.yul\":13950:13953   */\n      dup4\n        /* \"#utility.yul\":13995:13999   */\n      0x20\n        /* \"#utility.yul\":13987:13993   */\n      dup3\n        /* \"#utility.yul\":13983:14000   */\n      mul\n        /* \"#utility.yul\":13978:13981   */\n      dup6\n        /* \"#utility.yul\":13974:14001   */\n      add\n        /* \"#utility.yul\":14025:14103   */\n      tag_410\n        /* \"#utility.yul\":14097:14102   */\n      dup6\n        /* \"#utility.yul\":14025:14103   */\n      tag_237\n      jump\t// in\n    tag_410:\n        /* \"#utility.yul\":14126:14133   */\n      dup1\n        /* \"#utility.yul\":14157:14158   */\n      0x00\n        /* \"#utility.yul\":14142:14574   */\n    tag_411:\n        /* \"#utility.yul\":14167:14173   */\n      dup6\n        /* \"#utility.yul\":14164:14165   */\n      dup2\n        /* \"#utility.yul\":14161:14174   */\n      lt\n        /* \"#utility.yul\":14142:14574   */\n      iszero\n      tag_413\n      jumpi\n        /* \"#utility.yul\":14238:14247   */\n      dup5\n        /* \"#utility.yul\":14232:14236   */\n      dup5\n        /* \"#utility.yul\":14228:14248   */\n      sub\n        /* \"#utility.yul\":14223:14226   */\n      dup10\n        /* \"#utility.yul\":14216:14249   */\n      mstore\n        /* \"#utility.yul\":14289:14295   */\n      dup2\n        /* \"#utility.yul\":14283:14296   */\n      mload\n        /* \"#utility.yul\":14317:14425   */\n      tag_414\n        /* \"#utility.yul\":14420:14424   */\n      dup6\n        /* \"#utility.yul\":14405:14418   */\n      dup3\n        /* \"#utility.yul\":14317:14425   */\n      tag_244\n      jump\t// in\n    tag_414:\n        /* \"#utility.yul\":14309:14425   */\n      swap5\n      pop\n        /* \"#utility.yul\":14448:14530   */\n      tag_415\n        /* \"#utility.yul\":14523:14529   */\n      dup4\n        /* \"#utility.yul\":14448:14530   */\n      tag_245\n      jump\t// in\n    tag_415:\n        /* \"#utility.yul\":14438:14530   */\n      swap3\n      pop\n        /* \"#utility.yul\":14559:14563   */\n      0x20\n        /* \"#utility.yul\":14554:14557   */\n      dup11\n        /* \"#utility.yul\":14550:14564   */\n      add\n        /* \"#utility.yul\":14543:14564   */\n      swap10\n      pop\n        /* \"#utility.yul\":14202:14574   */\n      pop\n        /* \"#utility.yul\":14189:14190   */\n      0x01\n        /* \"#utility.yul\":14186:14187   */\n      dup2\n        /* \"#utility.yul\":14182:14191   */\n      add\n        /* \"#utility.yul\":14177:14191   */\n      swap1\n      pop\n        /* \"#utility.yul\":14142:14574   */\n      jump(tag_411)\n    tag_413:\n        /* \"#utility.yul\":14146:14160   */\n      pop\n        /* \"#utility.yul\":14590:14594   */\n      dup3\n        /* \"#utility.yul\":14583:14594   */\n      swap8\n      pop\n        /* \"#utility.yul\":14610:14613   */\n      dup8\n        /* \"#utility.yul\":14603:14613   */\n      swap6\n      pop\n        /* \"#utility.yul\":13700:14619   */\n      pop\n      pop\n      pop\n      pop\n      pop\n        /* \"#utility.yul\":13532:14619   */\n      swap3\n      swap2\n      pop\n      pop\n      jump\t// out\n        /* \"#utility.yul\":14625:15086   */\n    tag_78:\n        /* \"#utility.yul\":14812:14816   */\n      0x00\n        /* \"#utility.yul\":14850:14852   */\n      0x20\n        /* \"#utility.yul\":14839:14848   */\n      dup3\n        /* \"#utility.yul\":14835:14853   */\n      add\n        /* \"#utility.yul\":14827:14853   */\n      swap1\n      pop\n        /* \"#utility.yul\":14899:14908   */\n      dup2\n        /* \"#utility.yul\":14893:14897   */\n      dup2\n        /* \"#utility.yul\":14889:14909   */\n      sub\n        /* \"#utility.yul\":14885:14886   */\n      0x00\n        /* \"#utility.yul\":14874:14883   */\n      dup4\n        /* \"#utility.yul\":14870:14887   */\n      add\n        /* \"#utility.yul\":14863:14910   */\n      mstore\n        /* \"#utility.yul\":14927:15079   */\n      tag_417\n        /* \"#utility.yul\":15074:15078   */\n      dup2\n        /* \"#utility.yul\":15065:15071   */\n      dup5\n        /* \"#utility.yul\":14927:15079   */\n      tag_246\n      jump\t// in\n    tag_417:\n        /* \"#utility.yul\":14919:15079   */\n      swap1\n      pop\n        /* \"#utility.yul\":14625:15086   */\n      swap3\n      swap2\n      pop\n      pop\n      jump\t// out\n        /* \"#utility.yul\":15092:15272   */\n    tag_247:\n        /* \"#utility.yul\":15140:15217   */\n      0x4e487b7100000000000000000000000000000000000000000000000000000000\n        /* \"#utility.yul\":15137:15138   */\n      0x00\n        /* \"#utility.yul\":15130:15218   */\n      mstore\n        /* \"#utility.yul\":15237:15241   */\n      0x22\n        /* \"#utility.yul\":15234:15235   */\n      0x04\n        /* \"#utility.yul\":15227:15242   */\n      mstore\n        /* \"#utility.yul\":15261:15265   */\n      0x24\n        /* \"#utility.yul\":15258:15259   */\n      0x00\n        /* \"#utility.yul\":15251:15266   */\n      revert\n        /* \"#utility.yul\":15278:15598   */\n    tag_88:\n        /* \"#utility.yul\":15322:15328   */\n      0x00\n        /* \"#utility.yul\":15359:15360   */\n      0x02\n        /* \"#utility.yul\":15353:15357   */\n      dup3\n        /* \"#utility.yul\":15349:15361   */\n      div\n        /* \"#utility.yul\":15339:15361   */\n      swap1\n      pop\n        /* \"#utility.yul\":15406:15407   */\n      0x01\n        /* \"#utility.yul\":15400:15404   */\n      dup3\n        /* \"#utility.yul\":15396:15408   */\n      and\n        /* \"#utility.yul\":15427:15445   */\n      dup1\n        /* \"#utility.yul\":15417:15498   */\n      tag_420\n      jumpi\n        /* \"#utility.yul\":15483:15487   */\n      0x7f\n        /* \"#utility.yul\":15475:15481   */\n      dup3\n        /* \"#utility.yul\":15471:15488   */\n      and\n        /* \"#utility.yul\":15461:15488   */\n      swap2\n      pop\n        /* \"#utility.yul\":15417:15498   */\n    tag_420:\n        /* \"#utility.yul\":15545:15547   */\n      0x20\n        /* \"#utility.yul\":15537:15543   */\n      dup3\n        /* \"#utility.yul\":15534:15548   */\n      lt\n        /* \"#utility.yul\":15514:15532   */\n      dup2\n        /* \"#utility.yul\":15511:15549   */\n      sub\n        /* \"#utility.yul\":15508:15592   */\n      tag_421\n      jumpi\n        /* \"#utility.yul\":15564:15582   */\n      tag_422\n      tag_247\n      jump\t// in\n    tag_422:\n        /* \"#utility.yul\":15508:15592   */\n    tag_421:\n        /* \"#utility.yul\":15329:15598   */\n      pop\n        /* \"#utility.yul\":15278:15598   */\n      swap2\n      swap1\n      pop\n      jump\t// out\n        /* \"#utility.yul\":15604:15784   */\n    tag_248:\n        /* \"#utility.yul\":15652:15729   */\n      0x4e487b7100000000000000000000000000000000000000000000000000000000\n        /* \"#utility.yul\":15649:15650   */\n      0x00\n        /* \"#utility.yul\":15642:15730   */\n      mstore\n        /* \"#utility.yul\":15749:15753   */\n      0x11\n        /* \"#utility.yul\":15746:15747   */\n      0x04\n        /* \"#utility.yul\":15739:15754   */\n      mstore\n        /* \"#utility.yul\":15773:15777   */\n      0x24\n        /* \"#utility.yul\":15770:15771   */\n      0x00\n        /* \"#utility.yul\":15763:15778   */\n      revert\n        /* \"#utility.yul\":15790:15984   */\n    tag_100:\n        /* \"#utility.yul\":15830:15834   */\n      0x00\n        /* \"#utility.yul\":15850:15870   */\n      tag_425\n        /* \"#utility.yul\":15868:15869   */\n      dup3\n        /* \"#utility.yul\":15850:15870   */\n      tag_209\n      jump\t// in\n    tag_425:\n        /* \"#utility.yul\":15845:15870   */\n      swap2\n      pop\n        /* \"#utility.yul\":15884:15904   */\n      tag_426\n        /* \"#utility.yul\":15902:15903   */\n      dup4\n        /* \"#utility.yul\":15884:15904   */\n      tag_209\n      jump\t// in\n    tag_426:\n        /* \"#utility.yul\":15879:15904   */\n      swap3\n      pop\n        /* \"#utility.yul\":15928:15929   */\n      dup3\n        /* \"#utility.yul\":15925:15926   */\n      dup3\n        /* \"#utility.yul\":15921:15930   */\n      sub\n        /* \"#utility.yul\":15913:15930   */\n      swap1\n      pop\n        /* \"#utility.yul\":15952:15953   */\n      dup2\n        /* \"#utility.yul\":15946:15950   */\n      dup2\n        /* \"#utility.yul\":15943:15954   */\n      gt\n        /* \"#utility.yul\":15940:15977   */\n      iszero\n      tag_427\n      jumpi\n        /* \"#utility.yul\":15957:15975   */\n      tag_428\n      tag_248\n      jump\t// in\n    tag_428:\n        /* \"#utility.yul\":15940:15977   */\n    tag_427:\n        /* \"#utility.yul\":15790:15984   */\n      swap3\n      swap2\n      pop\n      pop\n      jump\t// out\n        /* \"#utility.yul\":15990:16170   */\n    tag_103:\n        /* \"#utility.yul\":16038:16115   */\n      0x4e487b7100000000000000000000000000000000000000000000000000000000\n        /* \"#utility.yul\":16035:16036   */\n      0x00\n        /* \"#utility.yul\":16028:16116   */\n      mstore\n        /* \"#utility.yul\":16135:16139   */\n      0x32\n        /* \"#utility.yul\":16132:16133   */\n      0x04\n        /* \"#utility.yul\":16125:16140   */\n      mstore\n        /* \"#utility.yul\":16159:16163   */\n      0x24\n        /* \"#utility.yul\":16156:16157   */\n      0x00\n        /* \"#utility.yul\":16149:16164   */\n      revert\n        /* \"#utility.yul\":16176:16324   */\n    tag_249:\n        /* \"#utility.yul\":16278:16289   */\n      0x00\n        /* \"#utility.yul\":16315:16318   */\n      dup2\n        /* \"#utility.yul\":16300:16318   */\n      swap1\n      pop\n        /* \"#utility.yul\":16176:16324   */\n      swap3\n      swap2\n      pop\n      pop\n      jump\t// out\n        /* \"#utility.yul\":16330:16720   */\n    tag_250:\n        /* \"#utility.yul\":16436:16439   */\n      0x00\n        /* \"#utility.yul\":16464:16503   */\n      tag_432\n        /* \"#utility.yul\":16497:16502   */\n      dup3\n        /* \"#utility.yul\":16464:16503   */\n      tag_215\n      jump\t// in\n    tag_432:\n        /* \"#utility.yul\":16519:16608   */\n      tag_433\n        /* \"#utility.yul\":16601:16607   */\n      dup2\n        /* \"#utility.yul\":16596:16599   */\n      dup6\n        /* \"#utility.yul\":16519:16608   */\n      tag_249\n      jump\t// in\n    tag_433:\n        /* \"#utility.yul\":16512:16608   */\n      swap4\n      pop\n        /* \"#utility.yul\":16617:16682   */\n      tag_434\n        /* \"#utility.yul\":16675:16681   */\n      dup2\n        /* \"#utility.yul\":16670:16673   */\n      dup6\n        /* \"#utility.yul\":16663:16667   */\n      0x20\n        /* \"#utility.yul\":16656:16661   */\n      dup7\n        /* \"#utility.yul\":16652:16668   */\n      add\n        /* \"#utility.yul\":16617:16682   */\n      tag_217\n      jump\t// in\n    tag_434:\n        /* \"#utility.yul\":16707:16713   */\n      dup1\n        /* \"#utility.yul\":16702:16705   */\n      dup5\n        /* \"#utility.yul\":16698:16714   */\n      add\n        /* \"#utility.yul\":16691:16714   */\n      swap2\n      pop\n        /* \"#utility.yul\":16440:16720   */\n      pop\n        /* \"#utility.yul\":16330:16720   */\n      swap3\n      swap2\n      pop\n      pop\n      jump\t// out\n        /* \"#utility.yul\":16726:17001   */\n    tag_110:\n        /* \"#utility.yul\":16858:16861   */\n      0x00\n        /* \"#utility.yul\":16880:16975   */\n      tag_436\n        /* \"#utility.yul\":16971:16974   */\n      dup3\n        /* \"#utility.yul\":16962:16968   */\n      dup5\n        /* \"#utility.yul\":16880:16975   */\n      tag_250\n      jump\t// in\n    tag_436:\n        /* \"#utility.yul\":16873:16975   */\n      swap2\n      pop\n        /* \"#utility.yul\":16992:16995   */\n      dup2\n        /* \"#utility.yul\":16985:16995   */\n      swap1\n      pop\n        /* \"#utility.yul\":16726:17001   */\n      swap3\n      swap2\n      pop\n      pop\n      jump\t// out\n        /* \"#utility.yul\":17007:17417   */\n    tag_115:\n        /* \"#utility.yul\":17047:17054   */\n      0x00\n        /* \"#utility.yul\":17070:17090   */\n      tag_438\n        /* \"#utility.yul\":17088:17089   */\n      dup3\n        /* \"#utility.yul\":17070:17090   */\n      tag_209\n      jump\t// in\n    tag_438:\n        /* \"#utility.yul\":17065:17090   */\n      swap2\n      pop\n        /* \"#utility.yul\":17104:17124   */\n      tag_439\n        /* \"#utility.yul\":17122:17123   */\n      dup4\n        /* \"#utility.yul\":17104:17124   */\n      tag_209\n      jump\t// in\n    tag_439:\n        /* \"#utility.yul\":17099:17124   */\n      swap3\n      pop\n        /* \"#utility.yul\":17159:17160   */\n      dup3\n        /* \"#utility.yul\":17156:17157   */\n      dup3\n        /* \"#utility.yul\":17152:17161   */\n      mul\n        /* \"#utility.yul\":17181:17211   */\n      tag_440\n        /* \"#utility.yul\":17199:17210   */\n      dup2\n        /* \"#utility.yul\":17181:17211   */\n      tag_209\n      jump\t// in\n    tag_440:\n        /* \"#utility.yul\":17170:17211   */\n      swap2\n      pop\n        /* \"#utility.yul\":17360:17361   */\n      dup3\n        /* \"#utility.yul\":17351:17358   */\n      dup3\n        /* \"#utility.yul\":17347:17362   */\n      div\n        /* \"#utility.yul\":17344:17345   */\n      dup5\n        /* \"#utility.yul\":17341:17363   */\n      eq\n        /* \"#utility.yul\":17321:17322   */\n      dup4\n        /* \"#utility.yul\":17314:17323   */\n      iszero\n        /* \"#utility.yul\":17294:17377   */\n      or\n        /* \"#utility.yul\":17271:17410   */\n      tag_441\n      jumpi\n        /* \"#utility.yul\":17390:17408   */\n      tag_442\n      tag_248\n      jump\t// in\n    tag_442:\n        /* \"#utility.yul\":17271:17410   */\n    tag_441:\n        /* \"#utility.yul\":17055:17417   */\n      pop\n        /* \"#utility.yul\":17007:17417   */\n      swap3\n      swap2\n      pop\n      pop\n      jump\t// out\n        /* \"#utility.yul\":17423:17564   */\n    tag_251:\n        /* \"#utility.yul\":17472:17476   */\n      0x00\n        /* \"#utility.yul\":17495:17498   */\n      dup2\n        /* \"#utility.yul\":17487:17498   */\n      swap1\n      pop\n        /* \"#utility.yul\":17518:17521   */\n      dup2\n        /* \"#utility.yul\":17515:17516   */\n      0x00\n        /* \"#utility.yul\":17508:17522   */\n      mstore\n        /* \"#utility.yul\":17552:17556   */\n      0x20\n        /* \"#utility.yul\":17549:17550   */\n      0x00\n        /* \"#utility.yul\":17539:17557   */\n      keccak256\n        /* \"#utility.yul\":17531:17557   */\n      swap1\n      pop\n        /* \"#utility.yul\":17423:17564   */\n      swap2\n      swap1\n      pop\n      jump\t// out\n        /* \"#utility.yul\":17570:17663   */\n    tag_252:\n        /* \"#utility.yul\":17607:17613   */\n      0x00\n        /* \"#utility.yul\":17654:17656   */\n      0x20\n        /* \"#utility.yul\":17649:17651   */\n      0x1f\n        /* \"#utility.yul\":17642:17647   */\n      dup4\n        /* \"#utility.yul\":17638:17652   */\n      add\n        /* \"#utility.yul\":17634:17657   */\n      div\n        /* \"#utility.yul\":17624:17657   */\n      swap1\n      pop\n        /* \"#utility.yul\":17570:17663   */\n      swap2\n      swap1\n      pop\n      jump\t// out\n        /* \"#utility.yul\":17669:17776   */\n    tag_253:\n        /* \"#utility.yul\":17713:17721   */\n      0x00\n        /* \"#utility.yul\":17763:17768   */\n      dup3\n        /* \"#utility.yul\":17757:17761   */\n      dup3\n        /* \"#utility.yul\":17753:17769   */\n      shl\n        /* \"#utility.yul\":17732:17769   */\n      swap1\n      pop\n        /* \"#utility.yul\":17669:17776   */\n      swap3\n      swap2\n      pop\n      pop\n      jump\t// out\n        /* \"#utility.yul\":17782:18175   */\n    tag_254:\n        /* \"#utility.yul\":17851:17857   */\n      0x00\n        /* \"#utility.yul\":17901:17902   */\n      0x08\n        /* \"#utility.yul\":17889:17899   */\n      dup4\n        /* \"#utility.yul\":17885:17903   */\n      mul\n        /* \"#utility.yul\":17924:18021   */\n      tag_447\n        /* \"#utility.yul\":17954:18020   */\n      0xffffffffffffffffffffffffffffffffffffffffffffffffffffffffffffffff\n        /* \"#utility.yul\":17943:17952   */\n      dup3\n        /* \"#utility.yul\":17924:18021   */\n      tag_253\n      jump\t// in\n    tag_447:\n        /* \"#utility.yul\":18042:18081   */\n      tag_448\n        /* \"#utility.yul\":18072:18080   */\n      dup7\n        /* \"#utility.yul\":18061:18070   */\n      dup4\n        /* \"#utility.yul\":18042:18081   */\n      tag_253\n      jump\t// in\n    tag_448:\n        /* \"#utility.yul\":18030:18081   */\n      swap6\n      pop\n        /* \"#utility.yul\":18114:18118   */\n      dup1\n        /* \"#utility.yul\":18110:18119   */\n      not\n        /* \"#utility.yul\":18103:18108   */\n      dup5\n        /* \"#utility.yul\":18099:18120   */\n      and\n        /* \"#utility.yul\":18090:18120   */\n      swap4\n      pop\n        /* \"#utility.yul\":18163:18167   */\n      dup1\n        /* \"#utility.yul\":18153:18161   */\n      dup7\n        /* \"#utility.yul\":18149:18168   */\n      and\n        /* \"#utility.yul\":18142:18147   */\n      dup5\n        /* \"#utility.yul\":18139:18169   */\n      or\n        /* \"#utility.yul\":18129:18169   */\n      swap3\n      pop\n        /* \"#utility.yul\":17858:18175   */\n      pop\n      pop\n        /* \"#utility.yul\":17782:18175   */\n      swap4\n      swap3\n      pop\n      pop\n      pop\n      jump\t// out\n        /* \"#utility.yul\":18181:18241   */\n    tag_255:\n        /* \"#utility.yul\":18209:18212   */\n      0x00\n        /* \"#utility.yul\":18230:18235   */\n      dup2\n        /* \"#utility.yul\":18223:18235   */\n      swap1\n      pop\n        /* \"#utility.yul\":18181:18241   */\n      swap2\n      swap1\n      pop\n      jump\t// out\n        /* \"#utility.yul\":18247:18389   */\n    tag_256:\n        /* \"#utility.yul\":18297:18306   */\n      0x00\n        /* \"#utility.yul\":18330:18383   */\n      tag_451\n        /* \"#utility.yul\":18348:18382   */\n      tag_452\n        /* \"#utility.yul\":18357:18381   */\n      tag_453\n        /* \"#utility.yul\":18375:18380   */\n      dup5\n        /* \"#utility.yul\":18357:18381   */\n      tag_209\n      jump\t// in\n    tag_453:\n        /* \"#utility.yul\":18348:18382   */\n      tag_255\n      jump\t// in\n    tag_452:\n        /* \"#utility.yul\":18330:18383   */\n      tag_209\n      jump\t// in\n    tag_451:\n        /* \"#utility.yul\":18317:18383   */\n      swap1\n      pop\n        /* \"#utility.yul\":18247:18389   */\n      swap2\n      swap1\n      pop\n      jump\t// out\n        /* \"#utility.yul\":18395:18470   */\n    tag_257:\n        /* \"#utility.yul\":18438:18441   */\n      0x00\n        /* \"#utility.yul\":18459:18464   */\n      dup2\n        /* \"#utility.yul\":18452:18464   */\n      swap1\n      pop\n        /* \"#utility.yul\":18395:18470   */\n      swap2\n      swap1\n      pop\n      jump\t// out\n        /* \"#utility.yul\":18476:18745   */\n    tag_258:\n        /* \"#utility.yul\":18586:18625   */\n      tag_456\n        /* \"#utility.yul\":18617:18624   */\n      dup4\n        /* \"#utility.yul\":18586:18625   */\n      tag_256\n      jump\t// in\n    tag_456:\n        /* \"#utility.yul\":18647:18738   */\n      tag_457\n        /* \"#utility.yul\":18696:18737   */\n      tag_458\n        /* \"#utility.yul\":18720:18736   */\n      dup3\n        /* \"#utility.yul\":18696:18737   */\n      tag_257\n      jump\t// in\n    tag_458:\n        /* \"#utility.yul\":18688:18694   */\n      dup5\n        /* \"#utility.yul\":18681:18685   */\n      dup5\n        /* \"#utility.yul\":18675:18686   */\n      sload\n        /* \"#utility.yul\":18647:18738   */\n      tag_254\n      jump\t// in\n    tag_457:\n        /* \"#utility.yul\":18641:18645   */\n      dup3\n        /* \"#utility.yul\":18634:18739   */\n      sstore\n        /* \"#utility.yul\":18552:18745   */\n      pop\n        /* \"#utility.yul\":18476:18745   */\n      pop\n      pop\n      pop\n      jump\t// out\n        /* \"#utility.yul\":18751:18824   */\n    tag_259:\n        /* \"#utility.yul\":18796:18799   */\n      0x00\n        /* \"#utility.yul\":18817:18818   */\n      0x00\n        /* \"#utility.yul\":18810:18818   */\n      swap1\n      pop\n        /* \"#utility.yul\":18751:18824   */\n      swap1\n      jump\t// out\n        /* \"#utility.yul\":18830:19019   */\n    tag_260:\n        /* \"#utility.yul\":18907:18939   */\n      tag_461\n      tag_259\n      jump\t// in\n    tag_461:\n        /* \"#utility.yul\":18948:19013   */\n      tag_462\n        /* \"#utility.yul\":19006:19012   */\n      dup2\n        /* \"#utility.yul\":18998:19004   */\n      dup5\n        /* \"#utility.yul\":18992:18996   */\n      dup5\n        /* \"#utility.yul\":18948:19013   */\n      tag_258\n      jump\t// in\n    tag_462:\n        /* \"#utility.yul\":18883:19019   */\n      pop\n        /* \"#utility.yul\":18830:19019   */\n      pop\n      pop\n      jump\t// out\n        /* \"#utility.yul\":19025:19211   */\n    tag_261:\n        /* \"#utility.yul\":19085:19205   */\n    tag_464:\n        /* \"#utility.yul\":19102:19105   */\n      dup2\n        /* \"#utility.yul\":19095:19100   */\n      dup2\n        /* \"#utility.yul\":19092:19106   */\n      lt\n        /* \"#utility.yul\":19085:19205   */\n      iszero\n      tag_466\n      jumpi\n        /* \"#utility.yul\":19156:19195   */\n      tag_467\n        /* \"#utility.yul\":19193:19194   */\n      0x00\n        /* \"#utility.yul\":19186:19191   */\n      dup3\n        /* \"#utility.yul\":19156:19195   */\n      tag_260\n      jump\t// in\n    tag_467:\n        /* \"#utility.yul\":19129:19130   */\n      0x01\n        /* \"#utility.yul\":19122:19127   */\n      dup2\n        /* \"#utility.yul\":19118:19131   */\n      add\n        /* \"#utility.yul\":19109:19131   */\n      swap1\n      pop\n        /* \"#utility.yul\":19085:19205   */\n      jump(tag_464)\n    tag_466:\n        /* \"#utility.yul\":19025:19211   */\n      pop\n      pop\n      jump\t// out\n        /* \"#utility.yul\":19217:19760   */\n    tag_262:\n        /* \"#utility.yul\":19318:19320   */\n      0x1f\n        /* \"#utility.yul\":19313:19316   */\n      dup3\n        /* \"#utility.yul\":19310:19321   */\n      gt\n        /* \"#utility.yul\":19307:19753   */\n      iszero\n      tag_469\n      jumpi\n        /* \"#utility.yul\":19352:19390   */\n      tag_470\n        /* \"#utility.yul\":19384:19389   */\n      dup2\n        /* \"#utility.yul\":19352:19390   */\n      tag_251\n      jump\t// in\n    tag_470:\n        /* \"#utility.yul\":19436:19465   */\n      tag_471\n        /* \"#utility.yul\":19454:19464   */\n      dup5\n        /* \"#utility.yul\":19436:19465   */\n      tag_252\n      jump\t// in\n    tag_471:\n        /* \"#utility.yul\":19426:19434   */\n      dup2\n        /* \"#utility.yul\":19422:19466   */\n      add\n        /* \"#utility.yul\":19619:19621   */\n      0x20\n        /* \"#utility.yul\":19607:19617   */\n      dup6\n        /* \"#utility.yul\":19604:19622   */\n      lt\n        /* \"#utility.yul\":19601:19650   */\n      iszero\n      tag_472\n      jumpi\n        /* \"#utility.yul\":19640:19648   */\n      dup2\n        /* \"#utility.yul\":19625:19648   */\n      swap1\n      pop\n        /* \"#utility.yul\":19601:19650   */\n    tag_472:\n        /* \"#utility.yul\":19663:19743   */\n      tag_473\n        /* \"#utility.yul\":19719:19741   */\n      tag_474\n        /* \"#utility.yul\":19737:19740   */\n      dup6\n        /* \"#utility.yul\":19719:19741   */\n      tag_252\n      jump\t// in\n    tag_474:\n        /* \"#utility.yul\":19709:19717   */\n      dup4\n        /* \"#utility.yul\":19705:19742   */\n      add\n        /* \"#utility.yul\":19692:19703   */\n      dup3\n        /* \"#utility.yul\":19663:19743   */\n      tag_261\n      jump\t// in\n    tag_473:\n        /* \"#utility.yul\":19322:19753   */\n      pop\n      pop\n        /* \"#utility.yul\":19307:19753   */\n    tag_469:\n        /* \"#utility.yul\":19217:19760   */\n      pop\n      pop\n      pop\n      jump\t// out\n        /* \"#utility.yul\":19766:19883   */\n    tag_263:\n        /* \"#utility.yul\":19820:19828   */\n      0x00\n        /* \"#utility.yul\":19870:19875   */\n      dup3\n        /* \"#utility.yul\":19864:19868   */\n      dup3\n        /* \"#utility.yul\":19860:19876   */\n      shr\n        /* \"#utility.yul\":19839:19876   */\n      swap1\n      pop\n        /* \"#utility.yul\":19766:19883   */\n      swap3\n      swap2\n      pop\n      pop\n      jump\t// out\n        /* \"#utility.yul\":19889:20058   */\n    tag_264:\n        /* \"#utility.yul\":19933:19939   */\n      0x00\n        /* \"#utility.yul\":19966:20017   */\n      tag_477\n        /* \"#utility.yul\":20014:20015   */\n      0x00\n        /* \"#utility.yul\":20010:20016   */\n      not\n        /* \"#utility.yul\":20002:20007   */\n      dup5\n        /* \"#utility.yul\":19999:20000   */\n      0x08\n        /* \"#utility.yul\":19995:20008   */\n      mul\n        /* \"#utility.yul\":19966:20017   */\n      tag_263\n      jump\t// in\n    tag_477:\n        /* \"#utility.yul\":19962:20018   */\n      not\n        /* \"#utility.yul\":20047:20051   */\n      dup1\n        /* \"#utility.yul\":20041:20045   */\n      dup4\n        /* \"#utility.yul\":20037:20052   */\n      and\n        /* \"#utility.yul\":20027:20052   */\n      swap2\n      pop\n        /* \"#utility.yul\":19940:20058   */\n      pop\n        /* \"#utility.yul\":19889:20058   */\n      swap3\n      swap2\n      pop\n      pop\n      jump\t// out\n        /* \"#utility.yul\":20063:20358   */\n    tag_265:\n        /* \"#utility.yul\":20139:20143   */\n      0x00\n        /* \"#utility.yul\":20285:20314   */\n      tag_479\n        /* \"#utility.yul\":20310:20313   */\n      dup4\n        /* \"#utility.yul\":20304:20308   */\n      dup4\n        /* \"#utility.yul\":20285:20314   */\n      tag_264\n      jump\t// in\n    tag_479:\n        /* \"#utility.yul\":20277:20314   */\n      swap2\n      pop\n        /* \"#utility.yul\":20347:20350   */\n      dup3\n        /* \"#utility.yul\":20344:20345   */\n      0x02\n        /* \"#utility.yul\":20340:20351   */\n      mul\n        /* \"#utility.yul\":20334:20338   */\n      dup3\n        /* \"#utility.yul\":20331:20352   */\n      or\n        /* \"#utility.yul\":20323:20352   */\n      swap1\n      pop\n        /* \"#utility.yul\":20063:20358   */\n      swap3\n      swap2\n      pop\n      pop\n      jump\t// out\n        /* \"#utility.yul\":20363:21758   */\n    tag_129:\n        /* \"#utility.yul\":20480:20517   */\n      tag_481\n        /* \"#utility.yul\":20513:20516   */\n      dup3\n        /* \"#utility.yul\":20480:20517   */\n      tag_215\n      jump\t// in\n    tag_481:\n        /* \"#utility.yul\":20582:20600   */\n      0xffffffffffffffff\n        /* \"#utility.yul\":20574:20580   */\n      dup2\n        /* \"#utility.yul\":20571:20601   */\n      gt\n        /* \"#utility.yul\":20568:20624   */\n      iszero\n      tag_482\n      jumpi\n        /* \"#utility.yul\":20604:20622   */\n      tag_483\n      tag_163\n      jump\t// in\n    tag_483:\n        /* \"#utility.yul\":20568:20624   */\n    tag_482:\n        /* \"#utility.yul\":20648:20686   */\n      tag_484\n        /* \"#utility.yul\":20680:20684   */\n      dup3\n        /* \"#utility.yul\":20674:20685   */\n      sload\n        /* \"#utility.yul\":20648:20686   */\n      tag_88\n      jump\t// in\n    tag_484:\n        /* \"#utility.yul\":20733:20800   */\n      tag_485\n        /* \"#utility.yul\":20793:20799   */\n      dup3\n        /* \"#utility.yul\":20785:20791   */\n      dup3\n        /* \"#utility.yul\":20779:20783   */\n      dup6\n        /* \"#utility.yul\":20733:20800   */\n      tag_262\n      jump\t// in\n    tag_485:\n        /* \"#utility.yul\":20827:20828   */\n      0x00\n        /* \"#utility.yul\":20851:20855   */\n      0x20\n        /* \"#utility.yul\":20838:20855   */\n      swap1\n      pop\n        /* \"#utility.yul\":20883:20885   */\n      0x1f\n        /* \"#utility.yul\":20875:20881   */\n      dup4\n        /* \"#utility.yul\":20872:20886   */\n      gt\n        /* \"#utility.yul\":20900:20901   */\n      0x01\n        /* \"#utility.yul\":20895:21513   */\n      dup2\n      eq\n      tag_487\n      jumpi\n        /* \"#utility.yul\":21557:21558   */\n      0x00\n        /* \"#utility.yul\":21574:21580   */\n      dup5\n        /* \"#utility.yul\":21571:21648   */\n      iszero\n      tag_488\n      jumpi\n        /* \"#utility.yul\":21623:21632   */\n      dup3\n        /* \"#utility.yul\":21618:21621   */\n      dup8\n        /* \"#utility.yul\":21614:21633   */\n      add\n        /* \"#utility.yul\":21608:21634   */\n      mload\n        /* \"#utility.yul\":21599:21634   */\n      swap1\n      pop\n        /* \"#utility.yul\":21571:21648   */\n    tag_488:\n        /* \"#utility.yul\":21674:21741   */\n      tag_489\n        /* \"#utility.yul\":21734:21740   */\n      dup6\n        /* \"#utility.yul\":21727:21732   */\n      dup3\n        /* \"#utility.yul\":21674:21741   */\n      tag_265\n      jump\t// in\n    tag_489:\n        /* \"#utility.yul\":21668:21672   */\n      dup7\n        /* \"#utility.yul\":21661:21742   */\n      sstore\n        /* \"#utility.yul\":21530:21752   */\n      pop\n        /* \"#utility.yul\":20865:21752   */\n      jump(tag_486)\n        /* \"#utility.yul\":20895:21513   */\n    tag_487:\n        /* \"#utility.yul\":20947:20951   */\n      0x1f\n        /* \"#utility.yul\":20943:20952   */\n      not\n        /* \"#utility.yul\":20935:20941   */\n      dup5\n        /* \"#utility.yul\":20931:20953   */\n      and\n        /* \"#utility.yul\":20981:21018   */\n      tag_490\n        /* \"#utility.yul\":21013:21017   */\n      dup7\n        /* \"#utility.yul\":20981:21018   */\n      tag_251\n      jump\t// in\n    tag_490:\n        /* \"#utility.yul\":21040:21041   */\n      0x00\n        /* \"#utility.yul\":21054:21262   */\n    tag_491:\n        /* \"#utility.yul\":21068:21075   */\n      dup3\n        /* \"#utility.yul\":21065:21066   */\n      dup2\n        /* \"#utility.yul\":21062:21076   */\n      lt\n        /* \"#utility.yul\":21054:21262   */\n      iszero\n      tag_493\n      jumpi\n        /* \"#utility.yul\":21147:21156   */\n      dup5\n        /* \"#utility.yul\":21142:21145   */\n      dup10\n        /* \"#utility.yul\":21138:21157   */\n      add\n        /* \"#utility.yul\":21132:21158   */\n      mload\n        /* \"#utility.yul\":21124:21130   */\n      dup3\n        /* \"#utility.yul\":21117:21159   */\n      sstore\n        /* \"#utility.yul\":21198:21199   */\n      0x01\n        /* \"#utility.yul\":21190:21196   */\n      dup3\n        /* \"#utility.yul\":21186:21200   */\n      add\n        /* \"#utility.yul\":21176:21200   */\n      swap2\n      pop\n        /* \"#utility.yul\":21245:21247   */\n      0x20\n        /* \"#utility.yul\":21234:21243   */\n      dup6\n        /* \"#utility.yul\":21230:21248   */\n      add\n        /* \"#utility.yul\":21217:21248   */\n      swap5\n      pop\n        /* \"#utility.yul\":21091:21095   */\n      0x20\n        /* \"#utility.yul\":21088:21089   */\n      dup2\n        /* \"#utility.yul\":21084:21096   */\n      add\n        /* \"#utility.yul\":21079:21096   */\n      swap1\n      pop\n        /* \"#utility.yul\":21054:21262   */\n      jump(tag_491)\n    tag_493:\n        /* \"#utility.yul\":21290:21296   */\n      dup7\n        /* \"#utility.yul\":21281:21288   */\n      dup4\n        /* \"#utility.yul\":21278:21297   */\n      lt\n        /* \"#utility.yul\":21275:21454   */\n      iszero\n      tag_494\n      jumpi\n        /* \"#utility.yul\":21348:21357   */\n      dup5\n        /* \"#utility.yul\":21343:21346   */\n      dup10\n        /* \"#utility.yul\":21339:21358   */\n      add\n        /* \"#utility.yul\":21333:21359   */\n      mload\n        /* \"#utility.yul\":21391:21439   */\n      tag_495\n        /* \"#utility.yul\":21433:21437   */\n      0x1f\n        /* \"#utility.yul\":21425:21431   */\n      dup10\n        /* \"#utility.yul\":21421:21438   */\n      and\n        /* \"#utility.yul\":21410:21419   */\n      dup3\n        /* \"#utility.yul\":21391:21439   */\n      tag_264\n      jump\t// in\n    tag_495:\n        /* \"#utility.yul\":21383:21389   */\n      dup4\n        /* \"#utility.yul\":21376:21440   */\n      sstore\n        /* \"#utility.yul\":21298:21454   */\n      pop\n        /* \"#utility.yul\":21275:21454   */\n    tag_494:\n        /* \"#utility.yul\":21500:21501   */\n      0x01\n        /* \"#utility.yul\":21496:21497   */\n      0x02\n        /* \"#utility.yul\":21488:21494   */\n      dup9\n        /* \"#utility.yul\":21484:21498   */\n      mul\n        /* \"#utility.yul\":21480:21502   */\n      add\n        /* \"#utility.yul\":21474:21478   */\n      dup9\n        /* \"#utility.yul\":21467:21503   */\n      sstore\n        /* \"#utility.yul\":20902:21513   */\n      pop\n      pop\n      pop\n        /* \"#utility.yul\":20865:21752   */\n    tag_486:\n      pop\n        /* \"#utility.yul\":20455:21758   */\n      pop\n      pop\n      pop\n        /* \"#utility.yul\":20363:21758   */\n      pop\n      pop\n      jump\t// out\n        /* \"#utility.yul\":21764:21997   */\n    tag_132:\n        /* \"#utility.yul\":21803:21806   */\n      0x00\n        /* \"#utility.yul\":21826:21850   */\n      tag_497\n        /* \"#utility.yul\":21844:21849   */\n      dup3\n        /* \"#utility.yul\":21826:21850   */\n      tag_209\n      jump\t// in\n    tag_497:\n        /* \"#utility.yul\":21817:21850   */\n      swap2\n      pop\n        /* \"#utility.yul\":21872:21938   */\n      0xffffffffffffffffffffffffffffffffffffffffffffffffffffffffffffffff\n        /* \"#utility.yul\":21865:21870   */\n      dup3\n        /* \"#utility.yul\":21862:21939   */\n      sub\n        /* \"#utility.yul\":21859:21962   */\n      tag_498\n      jumpi\n        /* \"#utility.yul\":21942:21960   */\n      tag_499\n      tag_248\n      jump\t// in\n    tag_499:\n        /* \"#utility.yul\":21859:21962   */\n    tag_498:\n        /* \"#utility.yul\":21989:21990   */\n      0x01\n        /* \"#utility.yul\":21982:21987   */\n      dup3\n        /* \"#utility.yul\":21978:21991   */\n      add\n        /* \"#utility.yul\":21971:21991   */\n      swap1\n      pop\n        /* \"#utility.yul\":21764:21997   */\n      swap2\n      swap1\n      pop\n      jump\t// out\n        /* \"#utility.yul\":22027:22901   */\n    tag_266:\n        /* \"#utility.yul\":22130:22133   */\n      0x00\n        /* \"#utility.yul\":22167:22172   */\n      dup2\n        /* \"#utility.yul\":22161:22173   */\n      sload\n        /* \"#utility.yul\":22196:22232   */\n      tag_501\n        /* \"#utility.yul\":22222:22231   */\n      dup2\n        /* \"#utility.yul\":22196:22232   */\n      tag_88\n      jump\t// in\n    tag_501:\n        /* \"#utility.yul\":22248:22337   */\n      tag_502\n        /* \"#utility.yul\":22330:22336   */\n      dup2\n        /* \"#utility.yul\":22325:22328   */\n      dup7\n        /* \"#utility.yul\":22248:22337   */\n      tag_249\n      jump\t// in\n    tag_502:\n        /* \"#utility.yul\":22241:22337   */\n      swap5\n      pop\n        /* \"#utility.yul\":22368:22369   */\n      0x01\n        /* \"#utility.yul\":22357:22366   */\n      dup3\n        /* \"#utility.yul\":22353:22370   */\n      and\n        /* \"#utility.yul\":22384:22385   */\n      0x00\n        /* \"#utility.yul\":22379:22545   */\n      dup2\n      eq\n      tag_504\n      jumpi\n        /* \"#utility.yul\":22559:22560   */\n      0x01\n        /* \"#utility.yul\":22554:22895   */\n      dup2\n      eq\n      tag_505\n      jumpi\n        /* \"#utility.yul\":22346:22895   */\n      jump(tag_503)\n        /* \"#utility.yul\":22379:22545   */\n    tag_504:\n        /* \"#utility.yul\":22463:22467   */\n      0xff\n        /* \"#utility.yul\":22459:22468   */\n      not\n        /* \"#utility.yul\":22448:22457   */\n      dup4\n        /* \"#utility.yul\":22444:22469   */\n      and\n        /* \"#utility.yul\":22439:22442   */\n      dup7\n        /* \"#utility.yul\":22432:22470   */\n      mstore\n        /* \"#utility.yul\":22525:22531   */\n      dup2\n        /* \"#utility.yul\":22518:22532   */\n      iszero\n        /* \"#utility.yul\":22511:22533   */\n      iszero\n        /* \"#utility.yul\":22503:22509   */\n      dup3\n        /* \"#utility.yul\":22499:22534   */\n      mul\n        /* \"#utility.yul\":22494:22497   */\n      dup7\n        /* \"#utility.yul\":22490:22535   */\n      add\n        /* \"#utility.yul\":22483:22535   */\n      swap4\n      pop\n        /* \"#utility.yul\":22379:22545   */\n      jump(tag_503)\n        /* \"#utility.yul\":22554:22895   */\n    tag_505:\n        /* \"#utility.yul\":22621:22659   */\n      tag_506\n        /* \"#utility.yul\":22653:22658   */\n      dup6\n        /* \"#utility.yul\":22621:22659   */\n      tag_251\n      jump\t// in\n    tag_506:\n        /* \"#utility.yul\":22681:22682   */\n      0x00\n        /* \"#utility.yul\":22695:22849   */\n    tag_507:\n        /* \"#utility.yul\":22709:22715   */\n      dup4\n        /* \"#utility.yul\":22706:22707   */\n      dup2\n        /* \"#utility.yul\":22703:22716   */\n      lt\n        /* \"#utility.yul\":22695:22849   */\n      iszero\n      tag_509\n      jumpi\n        /* \"#utility.yul\":22783:22790   */\n      dup2\n        /* \"#utility.yul\":22777:22791   */\n      sload\n        /* \"#utility.yul\":22773:22774   */\n      dup2\n        /* \"#utility.yul\":22768:22771   */\n      dup10\n        /* \"#utility.yul\":22764:22775   */\n      add\n        /* \"#utility.yul\":22757:22792   */\n      mstore\n        /* \"#utility.yul\":22833:22834   */\n      0x01\n        /* \"#utility.yul\":22824:22831   */\n      dup3\n        /* \"#utility.yul\":22820:22835   */\n      add\n        /* \"#utility.yul\":22809:22835   */\n      swap2\n      pop\n        /* \"#utility.yul\":22731:22735   */\n      0x20\n        /* \"#utility.yul\":22728:22729   */\n      dup2\n        /* \"#utility.yul\":22724:22736   */\n      add\n        /* \"#utility.yul\":22719:22736   */\n      swap1\n      pop\n        /* \"#utility.yul\":22695:22849   */\n      jump(tag_507)\n    tag_509:\n        /* \"#utility.yul\":22878:22884   */\n      dup4\n        /* \"#utility.yul\":22873:22876   */\n      dup9\n        /* \"#utility.yul\":22869:22885   */\n      add\n        /* \"#utility.yul\":22862:22885   */\n      swap6\n      pop\n        /* \"#utility.yul\":22561:22895   */\n      pop\n      pop\n        /* \"#utility.yul\":22346:22895   */\n    tag_503:\n      pop\n        /* \"#utility.yul\":22134:22901   */\n      pop\n      pop\n        /* \"#utility.yul\":22027:22901   */\n      swap3\n      swap2\n      pop\n      pop\n      jump\t// out\n        /* \"#utility.yul\":22907:23176   */\n    tag_142:\n        /* \"#utility.yul\":23036:23039   */\n      0x00\n        /* \"#utility.yul\":23058:23150   */\n      tag_511\n        /* \"#utility.yul\":23146:23149   */\n      dup3\n        /* \"#utility.yul\":23137:23143   */\n      dup5\n        /* \"#utility.yul\":23058:23150   */\n      tag_266\n      jump\t// in\n    tag_511:\n        /* \"#utility.yul\":23051:23150   */\n      swap2\n      pop\n        /* \"#utility.yul\":23167:23170   */\n      dup2\n        /* \"#utility.yul\":23160:23170   */\n      swap1\n      pop\n        /* \"#utility.yul\":22907:23176   */\n      swap3\n      swap2\n      pop\n      pop\n      jump\t// out\n        /* \"#utility.yul\":23182:23419   */\n    tag_267:\n        /* \"#utility.yul\":23322:23356   */\n      0x4e6f20617661696c61626c65207469636b65747320666f722074686520737065\n        /* \"#utility.yul\":23318:23319   */\n      0x00\n        /* \"#utility.yul\":23310:23316   */\n      dup3\n        /* \"#utility.yul\":23306:23320   */\n      add\n        /* \"#utility.yul\":23299:23357   */\n      mstore\n        /* \"#utility.yul\":23391:23411   */\n      0x6369666965642064657374696e6174696f6e0000000000000000000000000000\n        /* \"#utility.yul\":23386:23388   */\n      0x20\n        /* \"#utility.yul\":23378:23384   */\n      dup3\n        /* \"#utility.yul\":23374:23389   */\n      add\n        /* \"#utility.yul\":23367:23412   */\n      mstore\n        /* \"#utility.yul\":23182:23419   */\n      pop\n      jump\t// out\n        /* \"#utility.yul\":23425:23791   */\n    tag_268:\n        /* \"#utility.yul\":23567:23570   */\n      0x00\n        /* \"#utility.yul\":23588:23655   */\n      tag_514\n        /* \"#utility.yul\":23652:23654   */\n      0x32\n        /* \"#utility.yul\":23647:23650   */\n      dup4\n        /* \"#utility.yul\":23588:23655   */\n      tag_216\n      jump\t// in\n    tag_514:\n        /* \"#utility.yul\":23581:23655   */\n      swap2\n      pop\n        /* \"#utility.yul\":23664:23757   */\n      tag_515\n        /* \"#utility.yul\":23753:23756   */\n      dup3\n        /* \"#utility.yul\":23664:23757   */\n      tag_267\n      jump\t// in\n    tag_515:\n        /* \"#utility.yul\":23782:23784   */\n      0x40\n        /* \"#utility.yul\":23777:23780   */\n      dup3\n        /* \"#utility.yul\":23773:23785   */\n      add\n        /* \"#utility.yul\":23766:23785   */\n      swap1\n      pop\n        /* \"#utility.yul\":23425:23791   */\n      swap2\n      swap1\n      pop\n      jump\t// out\n        /* \"#utility.yul\":23797:24216   */\n    tag_205:\n        /* \"#utility.yul\":23963:23967   */\n      0x00\n        /* \"#utility.yul\":24001:24003   */\n      0x20\n        /* \"#utility.yul\":23990:23999   */\n      dup3\n        /* \"#utility.yul\":23986:24004   */\n      add\n        /* \"#utility.yul\":23978:24004   */\n      swap1\n      pop\n        /* \"#utility.yul\":24050:24059   */\n      dup2\n        /* \"#utility.yul\":24044:24048   */\n      dup2\n        /* \"#utility.yul\":24040:24060   */\n      sub\n        /* \"#utility.yul\":24036:24037   */\n      0x00\n        /* \"#utility.yul\":24025:24034   */\n      dup4\n        /* \"#utility.yul\":24021:24038   */\n      add\n        /* \"#utility.yul\":24014:24061   */\n      mstore\n        /* \"#utility.yul\":24078:24209   */\n      tag_517\n        /* \"#utility.yul\":24204:24208   */\n      dup2\n        /* \"#utility.yul\":24078:24209   */\n      tag_268\n      jump\t// in\n    tag_517:\n        /* \"#utility.yul\":24070:24209   */\n      swap1\n      pop\n        /* \"#utility.yul\":23797:24216   */\n      swap2\n      swap1\n      pop\n      jump\t// out\n\n    auxdata: 0xa264697066735822122052298632b944513950efc5258c9d8071f9184759f020126b5454d8769e70aa8364736f6c634300081c0033\n}\n","bytecode":{"linkReferences":{},"object":"608060405234801561000f575f5ffd5b50604051612725380380612725833981810160405281019061003191906105f6565b335f5f6101000a81548173ffffffffffffffffffffffffffffffffffffffff021916908373ffffffffffffffffffffffffffffffffffffffff1602179055505f601381905550600182908060018154018082558091505060019003905f5260205f20015f9091909190915090816100a89190610857565b50600281908060018154018082558091505060019003905f5260205f20015f90919091909150556013546003836040516100e29190610960565b9081526020016040518091039020819055506101053383836102ad60201b60201c565b600160045f600c811061011b5761011a610976565b5b0181905550600160046001600c811061013757610136610976565b5b0181905550600160046002600c811061015357610152610976565b5b0181905550600160046003600c811061016f5761016e610976565b5b01819055506001600480600c811061018a57610189610976565b5b0181905550600160046005600c81106101a6576101a5610976565b5b0181905550600160046006600c81106101c2576101c1610976565b5b0181905550600160046007600c81106101de576101dd610976565b5b0181905550600160046008600c81106101fa576101f9610976565b5b0181905550600160046009600c811061021657610215610976565b5b018190555060016004600a600c811061023257610231610976565b5b018190555060016004600b600c811061024e5761024d610976565b5b0181905550600160105f6003811061026957610268610976565b5b01819055506001601060016003811061028557610284610976565b5b0181905550600160106002600381106102a1576102a0610976565b5b01819055505050610a17565b5f5f9054906101000a900473ffffffffffffffffffffffffffffffffffffffff1673ffffffffffffffffffffffffffffffffffffffff163373ffffffffffffffffffffffffffffffffffffffff1614610304575f5ffd5b5f5f90505b601e811015610470575f60155490506040518060e001604052808673ffffffffffffffffffffffffffffffffffffffff16815260200185815260200184815260200183815260200160405180602001604052805f81525081526020015f151581526020016001151581525060145f8381526020019081526020015f205f820151815f015f6101000a81548173ffffffffffffffffffffffffffffffffffffffff021916908373ffffffffffffffffffffffffffffffffffffffff16021790555060208201518160010190816103de9190610857565b50604082015181600201556060820151816003015560808201518160040190816104089190610857565b5060a0820151816005015f6101000a81548160ff02191690831515021790555060c08201518160050160016101000a81548160ff02191690831515021790555090505060155f81548092919061045d906109d0565b9190505550508080600101915050610309565b50505050565b5f604051905090565b5f5ffd5b5f5ffd5b5f5ffd5b5f5ffd5b5f601f19601f8301169050919050565b7f4e487b71000000000000000000000000000000000000000000000000000000005f52604160045260245ffd5b6104d58261048f565b810181811067ffffffffffffffff821117156104f4576104f361049f565b5b80604052505050565b5f610506610476565b905061051282826104cc565b919050565b5f67ffffffffffffffff8211156105315761053061049f565b5b61053a8261048f565b9050602081019050919050565b8281835e5f83830152505050565b5f61056761056284610517565b6104fd565b9050828152602081018484840111156105835761058261048b565b5b61058e848285610547565b509392505050565b5f82601f8301126105aa576105a9610487565b5b81516105ba848260208601610555565b91505092915050565b5f819050919050565b6105d5816105c3565b81146105df575f5ffd5b50565b5f815190506105f0816105cc565b92915050565b5f5f6040838503121561060c5761060b61047f565b5b5f83015167ffffffffffffffff81111561062957610628610483565b5b61063585828601610596565b9250506020610646858286016105e2565b9150509250929050565b5f81519050919050565b7f4e487b71000000000000000000000000000000000000000000000000000000005f52602260045260245ffd5b5f600282049050600182168061069e57607f821691505b6020821081036106b1576106b061065a565b5b50919050565b5f819050815f5260205f209050919050565b5f6020601f8301049050919050565b5f82821b905092915050565b5f600883026107137fffffffffffffffffffffffffffffffffffffffffffffffffffffffffffffffff826106d8565b61071d86836106d8565b95508019841693508086168417925050509392505050565b5f819050919050565b5f61075861075361074e846105c3565b610735565b6105c3565b9050919050565b5f819050919050565b6107718361073e565b61078561077d8261075f565b8484546106e4565b825550505050565b5f5f905090565b61079c61078d565b6107a7818484610768565b505050565b5b818110156107ca576107bf5f82610794565b6001810190506107ad565b5050565b601f82111561080f576107e0816106b7565b6107e9846106c9565b810160208510156107f8578190505b61080c610804856106c9565b8301826107ac565b50505b505050565b5f82821c905092915050565b5f61082f5f1984600802610814565b1980831691505092915050565b5f6108478383610820565b9150826002028217905092915050565b61086082610650565b67ffffffffffffffff8111156108795761087861049f565b5b6108838254610687565b61088e8282856107ce565b5f60209050601f8311600181146108bf575f84156108ad578287015190505b6108b7858261083c565b86555061091e565b601f1984166108cd866106b7565b5f5b828110156108f4578489015182556001820191506020850194506020810190506108cf565b86831015610911578489015161090d601f891682610820565b8355505b6001600288020188555050505b505050505050565b5f81905092915050565b5f61093a82610650565b6109448185610926565b9350610954818560208601610547565b80840191505092915050565b5f61096b8284610930565b915081905092915050565b7f4e487b71000000000000000000000000000000000000000000000000000000005f52603260045260245ffd5b7f4e487b71000000000000000000000000000000000000000000000000000000005f52601160045260245ffd5b5f6109da826105c3565b91507fffffffffffffffffffffffffffffffffffffffffffffffffffffffffffffffff8203610a0c57610a0b6109a3565b5b600182019050919050565b611d0180610a245f395ff3fe6080604052600436106100c1575f3560e01c80636031a52f1161007e578063908921fc11610058578063908921fc146102ad578063ad03fe70146102d7578063cb2cc82a14610313578063ea6e358e1461034f576100c1565b80636031a52f1461020b578063695dc67e146102355780638dd4ba2e14610271576100c1565b8063033fab35146100c557806307819bd6146101075780631165e6ab14610143578063195c14451461017f5780634afe9f7b146101bb5780635e583e37146101e3575b5f5ffd5b3480156100d0575f5ffd5b506100eb60048036038101906100e691906110ac565b61036b565b6040516100fe97969594939291906111af565b60405180910390f35b348015610112575f5ffd5b5061012d60048036038101906101289190611380565b6104ed565b60405161013a9190611400565b60405180910390f35b34801561014e575f5ffd5b5061016960048036038101906101649190611443565b6105ac565b604051610176919061146e565b60405180910390f35b34801561018a575f5ffd5b506101a560048036038101906101a091906110ac565b610603565b6040516101b29190611400565b60405180910390f35b3480156101c6575f5ffd5b506101e160048036038101906101dc9190611487565b610623565b005b3480156101ee575f5ffd5b50610209600480360381019061020491906114f3565b6107ec565b005b348015610216575f5ffd5b5061021f6108e2565b60405161022c9190611400565b60405180910390f35b348015610240575f5ffd5b5061025b600480360381019061025691906110ac565b6108e8565b6040516102689190611400565b60405180910390f35b34801561027c575f5ffd5b50610297600480360381019061029291906110ac565b610901565b6040516102a4919061154d565b60405180910390f35b3480156102b8575f5ffd5b506102c16109a7565b6040516102ce919061156d565b60405180910390f35b3480156102e2575f5ffd5b506102fd60048036038101906102f89190611443565b6109cb565b60405161030a9190611756565b60405180910390f35b34801561031e575f5ffd5b50610339600480360381019061033491906110ac565b610da8565b6040516103469190611400565b60405180910390f35b61036960048036038101906103649190611380565b610dc1565b005b6014602052805f5260405f205f91509050805f015f9054906101000a900473ffffffffffffffffffffffffffffffffffffffff16908060010180546103af906117a3565b80601f01602080910402602001604051908101604052809291908181526020018280546103db906117a3565b80156104265780601f106103fd57610100808354040283529160200191610426565b820191905f5260205f20905b81548152906001019060200180831161040957829003601f168201915b505050505090806002015490806003015490806004018054610447906117a3565b80601f0160208091040260200160405190810160405280929190818152602001828054610473906117a3565b80156104be5780601f10610495576101008083540402835291602001916104be565b820191905f5260205f20905b8154815290600101906020018083116104a157829003601f168201915b505050505090806005015f9054906101000a900460ff16908060050160019054906101000a900460ff16905087565b5f5f60106001856104fe9190611800565b6003811061050f5761050e611833565b5b015460046001876105209190611800565b600c811061053157610530611833565b5b01546002600389604051610545919061189a565b9081526020016040518091039020548154811061056557610564611833565b5b905f5260205f20015461057891906118b0565b61058291906118b0565b9050821561059f5760028161059791906118b0565b9150506105a4565b809150505b949350505050565b5f5f5f9054906101000a900473ffffffffffffffffffffffffffffffffffffffff1673ffffffffffffffffffffffffffffffffffffffff168273ffffffffffffffffffffffffffffffffffffffff16149050919050565b60028181548110610612575f80fd5b905f5260205f20015f915090505481565b5f5f9054906101000a900473ffffffffffffffffffffffffffffffffffffffff1673ffffffffffffffffffffffffffffffffffffffff163373ffffffffffffffffffffffffffffffffffffffff161461067a575f5ffd5b5f5f90505b601e8110156107e6575f60155490506040518060e001604052808673ffffffffffffffffffffffffffffffffffffffff16815260200185815260200184815260200183815260200160405180602001604052805f81525081526020015f151581526020016001151581525060145f8381526020019081526020015f205f820151815f015f6101000a81548173ffffffffffffffffffffffffffffffffffffffff021916908373ffffffffffffffffffffffffffffffffffffffff16021790555060208201518160010190816107549190611a91565b506040820151816002015560608201518160030155608082015181600401908161077e9190611a91565b5060a0820151816005015f6101000a81548160ff02191690831515021790555060c08201518160050160016101000a81548160ff02191690831515021790555090505060155f8154809291906107d390611b60565b919050555050808060010191505061067f565b50505050565b5f5f9054906101000a900473ffffffffffffffffffffffffffffffffffffffff1673ffffffffffffffffffffffffffffffffffffffff163373ffffffffffffffffffffffffffffffffffffffff1614610843575f5ffd5b81604051602001610854919061189a565b60405160208183030381529060405280519060200120600160038460405161087c919061189a565b9081526020016040518091039020548154811061089c5761089b611833565b5b905f5260205f20016040516020016108b49190611c27565b60405160208183030381529060405280519060200120036108d3575f5ffd5b6108de338383610623565b5050565b60155481565b601081600381106108f7575f80fd5b015f915090505481565b60018181548110610910575f80fd5b905f5260205f20015f915090508054610928906117a3565b80601f0160208091040260200160405190810160405280929190818152602001828054610954906117a3565b801561099f5780601f106109765761010080835404028352916020019161099f565b820191905f5260205f20905b81548152906001019060200180831161098257829003601f168201915b505050505081565b5f5f9054906101000a900473ffffffffffffffffffffffffffffffffffffffff1681565b60605f5f90505f5f90505b601554811015610a8d578373ffffffffffffffffffffffffffffffffffffffff1660145f8381526020019081526020015f205f015f9054906101000a900473ffffffffffffffffffffffffffffffffffffffff1673ffffffffffffffffffffffffffffffffffffffff16148015610a6c575060145f8281526020019081526020015f2060050160019054906101000a900460ff16155b15610a80578180610a7c90611b60565b9250505b80806001019150506109d6565b505f8167ffffffffffffffff811115610aa957610aa8611232565b5b604051908082528060200260200182016040528015610ae257816020015b610acf611016565b815260200190600190039081610ac75790505b5090505f5f90505f5f90505b601554811015610d9c578573ffffffffffffffffffffffffffffffffffffffff1660145f8381526020019081526020015f205f015f9054906101000a900473ffffffffffffffffffffffffffffffffffffffff1673ffffffffffffffffffffffffffffffffffffffff16148015610b84575060145f8281526020019081526020015f2060050160019054906101000a900460ff16155b15610d8f5760145f8281526020019081526020015f206040518060e00160405290815f82015f9054906101000a900473ffffffffffffffffffffffffffffffffffffffff1673ffffffffffffffffffffffffffffffffffffffff1673ffffffffffffffffffffffffffffffffffffffff168152602001600182018054610c09906117a3565b80601f0160208091040260200160405190810160405280929190818152602001828054610c35906117a3565b8015610c805780601f10610c5757610100808354040283529160200191610c80565b820191905f5260205f20905b815481529060010190602001808311610c6357829003601f168201915b505050505081526020016002820154815260200160038201548152602001600482018054610cad906117a3565b80601f0160208091040260200160405190810160405280929190818152602001828054610cd9906117a3565b8015610d245780601f10610cfb57610100808354040283529160200191610d24565b820191905f5260205f20905b815481529060010190602001808311610d0757829003601f168201915b50505050508152602001600582015f9054906101000a900460ff161515151581526020016005820160019054906101000a900460ff161515151581525050838381518110610d7557610d74611833565b5b60200260200101819052508180610d8b90611b60565b9250505b8080600101915050610aee565b50819350505050919050565b600481600c8110610db7575f80fd5b015f915090505481565b610dcd848484846104ed565b3414610dd7575f5ffd5b5f5f90505f5f90505b601554811015610fce575f60145f8381526020019081526020015f20905086604051602001610e0f919061189a565b6040516020818303038152906040528051906020012081600101604051602001610e399190611c27565b60405160208183030381529060405280519060200120148015610e6a57508060050160019054906101000a900460ff165b15610fc05733815f015f6101000a81548173ffffffffffffffffffffffffffffffffffffffff021916908373ffffffffffffffffffffffffffffffffffffffff16021790555060018514610f375760028514610efb576040518060400160405280600581526020017f4669727374000000000000000000000000000000000000000000000000000000815250610f32565b6040518060400160405280600881526020017f427573696e6573730000000000000000000000000000000000000000000000008152505b610f6e565b6040518060400160405280600781526020017f45636f6e6f6d79000000000000000000000000000000000000000000000000008152505b816004019081610f7e9190611a91565b5083816005015f6101000a81548160ff0219169083151502179055505f8160050160016101000a81548160ff0219169083151502179055506001925050610fce565b508080600101915050610de0565b508061100f576040517f08c379a000000000000000000000000000000000000000000000000000000000815260040161100690611cad565b60405180910390fd5b5050505050565b6040518060e001604052805f73ffffffffffffffffffffffffffffffffffffffff168152602001606081526020015f81526020015f8152602001606081526020015f151581526020015f151581525090565b5f604051905090565b5f5ffd5b5f5ffd5b5f819050919050565b61108b81611079565b8114611095575f5ffd5b50565b5f813590506110a681611082565b92915050565b5f602082840312156110c1576110c0611071565b5b5f6110ce84828501611098565b91505092915050565b5f73ffffffffffffffffffffffffffffffffffffffff82169050919050565b5f611100826110d7565b9050919050565b611110816110f6565b82525050565b5f81519050919050565b5f82825260208201905092915050565b8281835e5f83830152505050565b5f601f19601f8301169050919050565b5f61115882611116565b6111628185611120565b9350611172818560208601611130565b61117b8161113e565b840191505092915050565b61118f81611079565b82525050565b5f8115159050919050565b6111a981611195565b82525050565b5f60e0820190506111c25f83018a611107565b81810360208301526111d4818961114e565b90506111e36040830188611186565b6111f06060830187611186565b8181036080830152611202818661114e565b905061121160a08301856111a0565b61121e60c08301846111a0565b98975050505050505050565b5f5ffd5b5f5ffd5b7f4e487b71000000000000000000000000000000000000000000000000000000005f52604160045260245ffd5b6112688261113e565b810181811067ffffffffffffffff8211171561128757611286611232565b5b80604052505050565b5f611299611068565b90506112a5828261125f565b919050565b5f67ffffffffffffffff8211156112c4576112c3611232565b5b6112cd8261113e565b9050602081019050919050565b828183375f83830152505050565b5f6112fa6112f5846112aa565b611290565b9050828152602081018484840111156113165761131561122e565b5b6113218482856112da565b509392505050565b5f82601f83011261133d5761133c61122a565b5b813561134d8482602086016112e8565b91505092915050565b61135f81611195565b8114611369575f5ffd5b50565b5f8135905061137a81611356565b92915050565b5f5f5f5f6080858703121561139857611397611071565b5b5f85013567ffffffffffffffff8111156113b5576113b4611075565b5b6113c187828801611329565b94505060206113d287828801611098565b93505060406113e387828801611098565b92505060606113f48782880161136c565b91505092959194509250565b5f6020820190506114135f830184611186565b92915050565b611422816110f6565b811461142c575f5ffd5b50565b5f8135905061143d81611419565b92915050565b5f6020828403121561145857611457611071565b5b5f6114658482850161142f565b91505092915050565b5f6020820190506114815f8301846111a0565b92915050565b5f5f5f6060848603121561149e5761149d611071565b5b5f6114ab8682870161142f565b935050602084013567ffffffffffffffff8111156114cc576114cb611075565b5b6114d886828701611329565b92505060406114e986828701611098565b9150509250925092565b5f5f6040838503121561150957611508611071565b5b5f83013567ffffffffffffffff81111561152657611525611075565b5b61153285828601611329565b925050602061154385828601611098565b9150509250929050565b5f6020820190508181035f830152611565818461114e565b905092915050565b5f6020820190506115805f830184611107565b92915050565b5f81519050919050565b5f82825260208201905092915050565b5f819050602082019050919050565b6115b8816110f6565b82525050565b5f82825260208201905092915050565b5f6115d882611116565b6115e281856115be565b93506115f2818560208601611130565b6115fb8161113e565b840191505092915050565b61160f81611079565b82525050565b61161e81611195565b82525050565b5f60e083015f8301516116395f8601826115af565b506020830151848203602086015261165182826115ce565b91505060408301516116666040860182611606565b5060608301516116796060860182611606565b506080830151848203608086015261169182826115ce565b91505060a08301516116a660a0860182611615565b5060c08301516116b960c0860182611615565b508091505092915050565b5f6116cf8383611624565b905092915050565b5f602082019050919050565b5f6116ed82611586565b6116f78185611590565b935083602082028501611709856115a0565b805f5b85811015611744578484038952815161172585826116c4565b9450611730836116d7565b925060208a0199505060018101905061170c565b50829750879550505050505092915050565b5f6020820190508181035f83015261176e81846116e3565b905092915050565b7f4e487b71000000000000000000000000000000000000000000000000000000005f52602260045260245ffd5b5f60028204905060018216806117ba57607f821691505b6020821081036117cd576117cc611776565b5b50919050565b7f4e487b71000000000000000000000000000000000000000000000000000000005f52601160045260245ffd5b5f61180a82611079565b915061181583611079565b925082820390508181111561182d5761182c6117d3565b5b92915050565b7f4e487b71000000000000000000000000000000000000000000000000000000005f52603260045260245ffd5b5f81905092915050565b5f61187482611116565b61187e8185611860565b935061188e818560208601611130565b80840191505092915050565b5f6118a5828461186a565b915081905092915050565b5f6118ba82611079565b91506118c583611079565b92508282026118d381611079565b915082820484148315176118ea576118e96117d3565b5b5092915050565b5f819050815f5260205f209050919050565b5f6020601f8301049050919050565b5f82821b905092915050565b5f6008830261194d7fffffffffffffffffffffffffffffffffffffffffffffffffffffffffffffffff82611912565b6119578683611912565b95508019841693508086168417925050509392505050565b5f819050919050565b5f61199261198d61198884611079565b61196f565b611079565b9050919050565b5f819050919050565b6119ab83611978565b6119bf6119b782611999565b84845461191e565b825550505050565b5f5f905090565b6119d66119c7565b6119e18184846119a2565b505050565b5b81811015611a04576119f95f826119ce565b6001810190506119e7565b5050565b601f821115611a4957611a1a816118f1565b611a2384611903565b81016020851015611a32578190505b611a46611a3e85611903565b8301826119e6565b50505b505050565b5f82821c905092915050565b5f611a695f1984600802611a4e565b1980831691505092915050565b5f611a818383611a5a565b9150826002028217905092915050565b611a9a82611116565b67ffffffffffffffff811115611ab357611ab2611232565b5b611abd82546117a3565b611ac8828285611a08565b5f60209050601f831160018114611af9575f8415611ae7578287015190505b611af18582611a76565b865550611b58565b601f198416611b07866118f1565b5f5b82811015611b2e57848901518255600182019150602085019450602081019050611b09565b86831015611b4b5784890151611b47601f891682611a5a565b8355505b6001600288020188555050505b505050505050565b5f611b6a82611079565b91507fffffffffffffffffffffffffffffffffffffffffffffffffffffffffffffffff8203611b9c57611b9b6117d3565b5b600182019050919050565b5f8154611bb3816117a3565b611bbd8186611860565b9450600182165f8114611bd75760018114611bec57611c1e565b60ff1983168652811515820286019350611c1e565b611bf5856118f1565b5f5b83811015611c1657815481890152600182019150602081019050611bf7565b838801955050505b50505092915050565b5f611c328284611ba7565b915081905092915050565b7f4e6f20617661696c61626c65207469636b65747320666f7220746865207370655f8201527f6369666965642064657374696e6174696f6e0000000000000000000000000000602082015250565b5f611c97603283611120565b9150611ca282611c3d565b604082019050919050565b5f6020820190508181035f830152611cc481611c8b565b905091905056fea264697066735822122052298632b944513950efc5258c9d8071f9184759f020126b5454d8769e70aa8364736f6c634300081c0033","opcodes":"PUSH1 0x80 PUSH1 0x40 MSTORE CALLVALUE DUP1 ISZERO PUSH2 0xF JUMPI PUSH0 PUSH0 REVERT JUMPDEST POP PUSH1 0x40 MLOAD PUSH2 0x2725 CODESIZE SUB DUP1 PUSH2 0x2725 DUP4 CODECOPY DUP2 DUP2 ADD PUSH1 0x40 MSTORE DUP2 ADD SWAP1 PUSH2 0x31 SWAP2 SWAP1 PUSH2 0x5F6 JUMP JUMPDEST CALLER PUSH0 PUSH0 PUSH2 0x100 EXP DUP2 SLOAD DUP2 PUSH20 0xFFFFFFFFFFFFFFFFFFFFFFFFFFFFFFFFFFFFFFFF MUL NOT AND SWAP1 DUP4 PUSH20 0xFFFFFFFFFFFFFFFFFFFFFFFFFFFFFFFFFFFFFFFF AND MUL OR SWAP1 SSTORE POP PUSH0 PUSH1 0x13 DUP2 SWAP1 SSTORE POP PUSH1 0x1 DUP3 SWAP1 DUP1 PUSH1 0x1 DUP2 SLOAD ADD DUP1 DUP3 SSTORE DUP1 SWAP2 POP POP PUSH1 0x1 SWAP1 SUB SWAP1 PUSH0 MSTORE PUSH1 0x20 PUSH0 KECCAK256 ADD PUSH0 SWAP1 SWAP2 SWAP1 SWAP2 SWAP1 SWAP2 POP SWAP1 DUP2 PUSH2 0xA8 SWAP2 SWAP1 PUSH2 0x857 JUMP JUMPDEST POP PUSH1 0x2 DUP2 SWAP1 DUP1 PUSH1 0x1 DUP2 SLOAD ADD DUP1 DUP3 SSTORE DUP1 SWAP2 POP POP PUSH1 0x1 SWAP1 SUB SWAP1 PUSH0 MSTORE PUSH1 0x20 PUSH0 KECCAK256 ADD PUSH0 SWAP1 SWAP2 SWAP1 SWAP2 SWAP1 SWAP2 POP SSTORE PUSH1 0x13 SLOAD PUSH1 0x3 DUP4 PUSH1 0x40 MLOAD PUSH2 0xE2 SWAP2 SWAP1 PUSH2 0x960 JUMP JUMPDEST SWAP1 DUP2 MSTORE PUSH1 0x20 ADD PUSH1 0x40 MLOAD DUP1 SWAP2 SUB SWAP1 KECCAK256 DUP2 SWAP1 SSTORE POP PUSH2 0x105 CALLER DUP4 DUP4 PUSH2 0x2AD PUSH1 0x20 SHL PUSH1 0x20 SHR JUMP JUMPDEST PUSH1 0x1 PUSH1 0x4 PUSH0 PUSH1 0xC DUP2 LT PUSH2 0x11B JUMPI PUSH2 0x11A PUSH2 0x976 JUMP JUMPDEST JUMPDEST ADD DUP2 SWAP1 SSTORE POP PUSH1 0x1 PUSH1 0x4 PUSH1 0x1 PUSH1 0xC DUP2 LT PUSH2 0x137 JUMPI PUSH2 0x136 PUSH2 0x976 JUMP JUMPDEST JUMPDEST ADD DUP2 SWAP1 SSTORE POP PUSH1 0x1 PUSH1 0x4 PUSH1 0x2 PUSH1 0xC DUP2 LT PUSH2 0x153 JUMPI PUSH2 0x152 PUSH2 0x976 JUMP JUMPDEST JUMPDEST ADD DUP2 SWAP1 SSTORE POP PUSH1 0x1 PUSH1 0x4 PUSH1 0x3 PUSH1 0xC DUP2 LT PUSH2 0x16F JUMPI PUSH2 0x16E PUSH2 0x976 JUMP JUMPDEST JUMPDEST ADD DUP2 SWAP1 SSTORE POP PUSH1 0x1 PUSH1 0x4 DUP1 PUSH1 0xC DUP2 LT PUSH2 0x18A JUMPI PUSH2 0x189 PUSH2 0x976 JUMP JUMPDEST JUMPDEST ADD DUP2 SWAP1 SSTORE POP PUSH1 0x1 PUSH1 0x4 PUSH1 0x5 PUSH1 0xC DUP2 LT PUSH2 0x1A6 JUMPI PUSH2 0x1A5 PUSH2 0x976 JUMP JUMPDEST JUMPDEST ADD DUP2 SWAP1 SSTORE POP PUSH1 0x1 PUSH1 0x4 PUSH1 0x6 PUSH1 0xC DUP2 LT PUSH2 0x1C2 JUMPI PUSH2 0x1C1 PUSH2 0x976 JUMP JUMPDEST JUMPDEST ADD DUP2 SWAP1 SSTORE POP PUSH1 0x1 PUSH1 0x4 PUSH1 0x7 PUSH1 0xC DUP2 LT PUSH2 0x1DE JUMPI PUSH2 0x1DD PUSH2 0x976 JUMP JUMPDEST JUMPDEST ADD DUP2 SWAP1 SSTORE POP PUSH1 0x1 PUSH1 0x4 PUSH1 0x8 PUSH1 0xC DUP2 LT PUSH2 0x1FA JUMPI PUSH2 0x1F9 PUSH2 0x976 JUMP JUMPDEST JUMPDEST ADD DUP2 SWAP1 SSTORE POP PUSH1 0x1 PUSH1 0x4 PUSH1 0x9 PUSH1 0xC DUP2 LT PUSH2 0x216 JUMPI PUSH2 0x215 PUSH2 0x976 JUMP JUMPDEST JUMPDEST ADD DUP2 SWAP1 SSTORE POP PUSH1 0x1 PUSH1 0x4 PUSH1 0xA PUSH1 0xC DUP2 LT PUSH2 0x232 JUMPI PUSH2 0x231 PUSH2 0x976 JUMP JUMPDEST JUMPDEST ADD DUP2 SWAP1 SSTORE POP PUSH1 0x1 PUSH1 0x4 PUSH1 0xB PUSH1 0xC DUP2 LT PUSH2 0x24E JUMPI PUSH2 0x24D PUSH2 0x976 JUMP JUMPDEST JUMPDEST ADD DUP2 SWAP1 SSTORE POP PUSH1 0x1 PUSH1 0x10 PUSH0 PUSH1 0x3 DUP2 LT PUSH2 0x269 JUMPI PUSH2 0x268 PUSH2 0x976 JUMP JUMPDEST JUMPDEST ADD DUP2 SWAP1 SSTORE POP PUSH1 0x1 PUSH1 0x10 PUSH1 0x1 PUSH1 0x3 DUP2 LT PUSH2 0x285 JUMPI PUSH2 0x284 PUSH2 0x976 JUMP JUMPDEST JUMPDEST ADD DUP2 SWAP1 SSTORE POP PUSH1 0x1 PUSH1 0x10 PUSH1 0x2 PUSH1 0x3 DUP2 LT PUSH2 0x2A1 JUMPI PUSH2 0x2A0 PUSH2 0x976 JUMP JUMPDEST JUMPDEST ADD DUP2 SWAP1 SSTORE POP POP POP PUSH2 0xA17 JUMP JUMPDEST PUSH0 PUSH0 SWAP1 SLOAD SWAP1 PUSH2 0x100 EXP SWAP1 DIV PUSH20 0xFFFFFFFFFFFFFFFFFFFFFFFFFFFFFFFFFFFFFFFF AND PUSH20 0xFFFFFFFFFFFFFFFFFFFFFFFFFFFFFFFFFFFFFFFF AND CALLER PUSH20 0xFFFFFFFFFFFFFFFFFFFFFFFFFFFFFFFFFFFFFFFF AND EQ PUSH2 0x304 JUMPI PUSH0 PUSH0 REVERT JUMPDEST PUSH0 PUSH0 SWAP1 POP JUMPDEST PUSH1 0x1E DUP2 LT ISZERO PUSH2 0x470 JUMPI PUSH0 PUSH1 0x15 SLOAD SWAP1 POP PUSH1 0x40 MLOAD DUP1 PUSH1 0xE0 ADD PUSH1 0x40 MSTORE DUP1 DUP7 PUSH20 0xFFFFFFFFFFFFFFFFFFFFFFFFFFFFFFFFFFFFFFFF AND DUP2 MSTORE PUSH1 0x20 ADD DUP6 DUP2 MSTORE PUSH1 0x20 ADD DUP5 DUP2 MSTORE PUSH1 0x20 ADD DUP4 DUP2 MSTORE PUSH1 0x20 ADD PUSH1 0x40 MLOAD DUP1 PUSH1 0x20 ADD PUSH1 0x40 MSTORE DUP1 PUSH0 DUP2 MSTORE POP DUP2 MSTORE PUSH1 0x20 ADD PUSH0 ISZERO ISZERO DUP2 MSTORE PUSH1 0x20 ADD PUSH1 0x1 ISZERO ISZERO DUP2 MSTORE POP PUSH1 0x14 PUSH0 DUP4 DUP2 MSTORE PUSH1 0x20 ADD SWAP1 DUP2 MSTORE PUSH1 0x20 ADD PUSH0 KECCAK256 PUSH0 DUP3 ADD MLOAD DUP2 PUSH0 ADD PUSH0 PUSH2 0x100 EXP DUP2 SLOAD DUP2 PUSH20 0xFFFFFFFFFFFFFFFFFFFFFFFFFFFFFFFFFFFFFFFF MUL NOT AND SWAP1 DUP4 PUSH20 0xFFFFFFFFFFFFFFFFFFFFFFFFFFFFFFFFFFFFFFFF AND MUL OR SWAP1 SSTORE POP PUSH1 0x20 DUP3 ADD MLOAD DUP2 PUSH1 0x1 ADD SWAP1 DUP2 PUSH2 0x3DE SWAP2 SWAP1 PUSH2 0x857 JUMP JUMPDEST POP PUSH1 0x40 DUP3 ADD MLOAD DUP2 PUSH1 0x2 ADD SSTORE PUSH1 0x60 DUP3 ADD MLOAD DUP2 PUSH1 0x3 ADD SSTORE PUSH1 0x80 DUP3 ADD MLOAD DUP2 PUSH1 0x4 ADD SWAP1 DUP2 PUSH2 0x408 SWAP2 SWAP1 PUSH2 0x857 JUMP JUMPDEST POP PUSH1 0xA0 DUP3 ADD MLOAD DUP2 PUSH1 0x5 ADD PUSH0 PUSH2 0x100 EXP DUP2 SLOAD DUP2 PUSH1 0xFF MUL NOT AND SWAP1 DUP4 ISZERO ISZERO MUL OR SWAP1 SSTORE POP PUSH1 0xC0 DUP3 ADD MLOAD DUP2 PUSH1 0x5 ADD PUSH1 0x1 PUSH2 0x100 EXP DUP2 SLOAD DUP2 PUSH1 0xFF MUL NOT AND SWAP1 DUP4 ISZERO ISZERO MUL OR SWAP1 SSTORE POP SWAP1 POP POP PUSH1 0x15 PUSH0 DUP2 SLOAD DUP1 SWAP3 SWAP2 SWAP1 PUSH2 0x45D SWAP1 PUSH2 0x9D0 JUMP JUMPDEST SWAP2 SWAP1 POP SSTORE POP POP DUP1 DUP1 PUSH1 0x1 ADD SWAP2 POP POP PUSH2 0x309 JUMP JUMPDEST POP POP POP POP JUMP JUMPDEST PUSH0 PUSH1 0x40 MLOAD SWAP1 POP SWAP1 JUMP JUMPDEST PUSH0 PUSH0 REVERT JUMPDEST PUSH0 PUSH0 REVERT JUMPDEST PUSH0 PUSH0 REVERT JUMPDEST PUSH0 PUSH0 REVERT JUMPDEST PUSH0 PUSH1 0x1F NOT PUSH1 0x1F DUP4 ADD AND SWAP1 POP SWAP2 SWAP1 POP JUMP JUMPDEST PUSH32 0x4E487B7100000000000000000000000000000000000000000000000000000000 PUSH0 MSTORE PUSH1 0x41 PUSH1 0x4 MSTORE PUSH1 0x24 PUSH0 REVERT JUMPDEST PUSH2 0x4D5 DUP3 PUSH2 0x48F JUMP JUMPDEST DUP2 ADD DUP2 DUP2 LT PUSH8 0xFFFFFFFFFFFFFFFF DUP3 GT OR ISZERO PUSH2 0x4F4 JUMPI PUSH2 0x4F3 PUSH2 0x49F JUMP JUMPDEST JUMPDEST DUP1 PUSH1 0x40 MSTORE POP POP POP JUMP JUMPDEST PUSH0 PUSH2 0x506 PUSH2 0x476 JUMP JUMPDEST SWAP1 POP PUSH2 0x512 DUP3 DUP3 PUSH2 0x4CC JUMP JUMPDEST SWAP2 SWAP1 POP JUMP JUMPDEST PUSH0 PUSH8 0xFFFFFFFFFFFFFFFF DUP3 GT ISZERO PUSH2 0x531 JUMPI PUSH2 0x530 PUSH2 0x49F JUMP JUMPDEST JUMPDEST PUSH2 0x53A DUP3 PUSH2 0x48F JUMP JUMPDEST SWAP1 POP PUSH1 0x20 DUP2 ADD SWAP1 POP SWAP2 SWAP1 POP JUMP JUMPDEST DUP3 DUP2 DUP4 MCOPY PUSH0 DUP4 DUP4 ADD MSTORE POP POP POP JUMP JUMPDEST PUSH0 PUSH2 0x567 PUSH2 0x562 DUP5 PUSH2 0x517 JUMP JUMPDEST PUSH2 0x4FD JUMP JUMPDEST SWAP1 POP DUP3 DUP2 MSTORE PUSH1 0x20 DUP2 ADD DUP5 DUP5 DUP5 ADD GT ISZERO PUSH2 0x583 JUMPI PUSH2 0x582 PUSH2 0x48B JUMP JUMPDEST JUMPDEST PUSH2 0x58E DUP5 DUP3 DUP6 PUSH2 0x547 JUMP JUMPDEST POP SWAP4 SWAP3 POP POP POP JUMP JUMPDEST PUSH0 DUP3 PUSH1 0x1F DUP4 ADD SLT PUSH2 0x5AA JUMPI PUSH2 0x5A9 PUSH2 0x487 JUMP JUMPDEST JUMPDEST DUP2 MLOAD PUSH2 0x5BA DUP5 DUP3 PUSH1 0x20 DUP7 ADD PUSH2 0x555 JUMP JUMPDEST SWAP2 POP POP SWAP3 SWAP2 POP POP JUMP JUMPDEST PUSH0 DUP2 SWAP1 POP SWAP2 SWAP1 POP JUMP JUMPDEST PUSH2 0x5D5 DUP2 PUSH2 0x5C3 JUMP JUMPDEST DUP2 EQ PUSH2 0x5DF JUMPI PUSH0 PUSH0 REVERT JUMPDEST POP JUMP JUMPDEST PUSH0 DUP2 MLOAD SWAP1 POP PUSH2 0x5F0 DUP2 PUSH2 0x5CC JUMP JUMPDEST SWAP3 SWAP2 POP POP JUMP JUMPDEST PUSH0 PUSH0 PUSH1 0x40 DUP4 DUP6 SUB SLT ISZERO PUSH2 0x60C JUMPI PUSH2 0x60B PUSH2 0x47F JUMP JUMPDEST JUMPDEST PUSH0 DUP4 ADD MLOAD PUSH8 0xFFFFFFFFFFFFFFFF DUP2 GT ISZERO PUSH2 0x629 JUMPI PUSH2 0x628 PUSH2 0x483 JUMP JUMPDEST JUMPDEST PUSH2 0x635 DUP6 DUP3 DUP7 ADD PUSH2 0x596 JUMP JUMPDEST SWAP3 POP POP PUSH1 0x20 PUSH2 0x646 DUP6 DUP3 DUP7 ADD PUSH2 0x5E2 JUMP JUMPDEST SWAP2 POP POP SWAP3 POP SWAP3 SWAP1 POP JUMP JUMPDEST PUSH0 DUP2 MLOAD SWAP1 POP SWAP2 SWAP1 POP JUMP JUMPDEST PUSH32 0x4E487B7100000000000000000000000000000000000000000000000000000000 PUSH0 MSTORE PUSH1 0x22 PUSH1 0x4 MSTORE PUSH1 0x24 PUSH0 REVERT JUMPDEST PUSH0 PUSH1 0x2 DUP3 DIV SWAP1 POP PUSH1 0x1 DUP3 AND DUP1 PUSH2 0x69E JUMPI PUSH1 0x7F DUP3 AND SWAP2 POP JUMPDEST PUSH1 0x20 DUP3 LT DUP2 SUB PUSH2 0x6B1 JUMPI PUSH2 0x6B0 PUSH2 0x65A JUMP JUMPDEST JUMPDEST POP SWAP2 SWAP1 POP JUMP JUMPDEST PUSH0 DUP2 SWAP1 POP DUP2 PUSH0 MSTORE PUSH1 0x20 PUSH0 KECCAK256 SWAP1 POP SWAP2 SWAP1 POP JUMP JUMPDEST PUSH0 PUSH1 0x20 PUSH1 0x1F DUP4 ADD DIV SWAP1 POP SWAP2 SWAP1 POP JUMP JUMPDEST PUSH0 DUP3 DUP3 SHL SWAP1 POP SWAP3 SWAP2 POP POP JUMP JUMPDEST PUSH0 PUSH1 0x8 DUP4 MUL PUSH2 0x713 PUSH32 0xFFFFFFFFFFFFFFFFFFFFFFFFFFFFFFFFFFFFFFFFFFFFFFFFFFFFFFFFFFFFFFFF DUP3 PUSH2 0x6D8 JUMP JUMPDEST PUSH2 0x71D DUP7 DUP4 PUSH2 0x6D8 JUMP JUMPDEST SWAP6 POP DUP1 NOT DUP5 AND SWAP4 POP DUP1 DUP7 AND DUP5 OR SWAP3 POP POP POP SWAP4 SWAP3 POP POP POP JUMP JUMPDEST PUSH0 DUP2 SWAP1 POP SWAP2 SWAP1 POP JUMP JUMPDEST PUSH0 PUSH2 0x758 PUSH2 0x753 PUSH2 0x74E DUP5 PUSH2 0x5C3 JUMP JUMPDEST PUSH2 0x735 JUMP JUMPDEST PUSH2 0x5C3 JUMP JUMPDEST SWAP1 POP SWAP2 SWAP1 POP JUMP JUMPDEST PUSH0 DUP2 SWAP1 POP SWAP2 SWAP1 POP JUMP JUMPDEST PUSH2 0x771 DUP4 PUSH2 0x73E JUMP JUMPDEST PUSH2 0x785 PUSH2 0x77D DUP3 PUSH2 0x75F JUMP JUMPDEST DUP5 DUP5 SLOAD PUSH2 0x6E4 JUMP JUMPDEST DUP3 SSTORE POP POP POP POP JUMP JUMPDEST PUSH0 PUSH0 SWAP1 POP SWAP1 JUMP JUMPDEST PUSH2 0x79C PUSH2 0x78D JUMP JUMPDEST PUSH2 0x7A7 DUP2 DUP5 DUP5 PUSH2 0x768 JUMP JUMPDEST POP POP POP JUMP JUMPDEST JUMPDEST DUP2 DUP2 LT ISZERO PUSH2 0x7CA JUMPI PUSH2 0x7BF PUSH0 DUP3 PUSH2 0x794 JUMP JUMPDEST PUSH1 0x1 DUP2 ADD SWAP1 POP PUSH2 0x7AD JUMP JUMPDEST POP POP JUMP JUMPDEST PUSH1 0x1F DUP3 GT ISZERO PUSH2 0x80F JUMPI PUSH2 0x7E0 DUP2 PUSH2 0x6B7 JUMP JUMPDEST PUSH2 0x7E9 DUP5 PUSH2 0x6C9 JUMP JUMPDEST DUP2 ADD PUSH1 0x20 DUP6 LT ISZERO PUSH2 0x7F8 JUMPI DUP2 SWAP1 POP JUMPDEST PUSH2 0x80C PUSH2 0x804 DUP6 PUSH2 0x6C9 JUMP JUMPDEST DUP4 ADD DUP3 PUSH2 0x7AC JUMP JUMPDEST POP POP JUMPDEST POP POP POP JUMP JUMPDEST PUSH0 DUP3 DUP3 SHR SWAP1 POP SWAP3 SWAP2 POP POP JUMP JUMPDEST PUSH0 PUSH2 0x82F PUSH0 NOT DUP5 PUSH1 0x8 MUL PUSH2 0x814 JUMP JUMPDEST NOT DUP1 DUP4 AND SWAP2 POP POP SWAP3 SWAP2 POP POP JUMP JUMPDEST PUSH0 PUSH2 0x847 DUP4 DUP4 PUSH2 0x820 JUMP JUMPDEST SWAP2 POP DUP3 PUSH1 0x2 MUL DUP3 OR SWAP1 POP SWAP3 SWAP2 POP POP JUMP JUMPDEST PUSH2 0x860 DUP3 PUSH2 0x650 JUMP JUMPDEST PUSH8 0xFFFFFFFFFFFFFFFF DUP2 GT ISZERO PUSH2 0x879 JUMPI PUSH2 0x878 PUSH2 0x49F JUMP JUMPDEST JUMPDEST PUSH2 0x883 DUP3 SLOAD PUSH2 0x687 JUMP JUMPDEST PUSH2 0x88E DUP3 DUP3 DUP6 PUSH2 0x7CE JUMP JUMPDEST PUSH0 PUSH1 0x20 SWAP1 POP PUSH1 0x1F DUP4 GT PUSH1 0x1 DUP2 EQ PUSH2 0x8BF JUMPI PUSH0 DUP5 ISZERO PUSH2 0x8AD JUMPI DUP3 DUP8 ADD MLOAD SWAP1 POP JUMPDEST PUSH2 0x8B7 DUP6 DUP3 PUSH2 0x83C JUMP JUMPDEST DUP7 SSTORE POP PUSH2 0x91E JUMP JUMPDEST PUSH1 0x1F NOT DUP5 AND PUSH2 0x8CD DUP7 PUSH2 0x6B7 JUMP JUMPDEST PUSH0 JUMPDEST DUP3 DUP2 LT ISZERO PUSH2 0x8F4 JUMPI DUP5 DUP10 ADD MLOAD DUP3 SSTORE PUSH1 0x1 DUP3 ADD SWAP2 POP PUSH1 0x20 DUP6 ADD SWAP5 POP PUSH1 0x20 DUP2 ADD SWAP1 POP PUSH2 0x8CF JUMP JUMPDEST DUP7 DUP4 LT ISZERO PUSH2 0x911 JUMPI DUP5 DUP10 ADD MLOAD PUSH2 0x90D PUSH1 0x1F DUP10 AND DUP3 PUSH2 0x820 JUMP JUMPDEST DUP4 SSTORE POP JUMPDEST PUSH1 0x1 PUSH1 0x2 DUP9 MUL ADD DUP9 SSTORE POP POP POP JUMPDEST POP POP POP POP POP POP JUMP JUMPDEST PUSH0 DUP2 SWAP1 POP SWAP3 SWAP2 POP POP JUMP JUMPDEST PUSH0 PUSH2 0x93A DUP3 PUSH2 0x650 JUMP JUMPDEST PUSH2 0x944 DUP2 DUP6 PUSH2 0x926 JUMP JUMPDEST SWAP4 POP PUSH2 0x954 DUP2 DUP6 PUSH1 0x20 DUP7 ADD PUSH2 0x547 JUMP JUMPDEST DUP1 DUP5 ADD SWAP2 POP POP SWAP3 SWAP2 POP POP JUMP JUMPDEST PUSH0 PUSH2 0x96B DUP3 DUP5 PUSH2 0x930 JUMP JUMPDEST SWAP2 POP DUP2 SWAP1 POP SWAP3 SWAP2 POP POP JUMP JUMPDEST PUSH32 0x4E487B7100000000000000000000000000000000000000000000000000000000 PUSH0 MSTORE PUSH1 0x32 PUSH1 0x4 MSTORE PUSH1 0x24 PUSH0 REVERT JUMPDEST PUSH32 0x4E487B7100000000000000000000000000000000000000000000000000000000 PUSH0 MSTORE PUSH1 0x11 PUSH1 0x4 MSTORE PUSH1 0x24 PUSH0 REVERT JUMPDEST PUSH0 PUSH2 0x9DA DUP3 PUSH2 0x5C3 JUMP JUMPDEST SWAP2 POP PUSH32 0xFFFFFFFFFFFFFFFFFFFFFFFFFFFFFFFFFFFFFFFFFFFFFFFFFFFFFFFFFFFFFFFF DUP3 SUB PUSH2 0xA0C JUMPI PUSH2 0xA0B PUSH2 0x9A3 JUMP JUMPDEST JUMPDEST PUSH1 0x1 DUP3 ADD SWAP1 POP SWAP2 SWAP1 POP JUMP JUMPDEST PUSH2 0x1D01 DUP1 PUSH2 0xA24 PUSH0 CODECOPY PUSH0 RETURN INVALID PUSH1 0x80 PUSH1 0x40 MSTORE PUSH1 0x4 CALLDATASIZE LT PUSH2 0xC1 JUMPI PUSH0 CALLDATALOAD PUSH1 0xE0 SHR DUP1 PUSH4 0x6031A52F GT PUSH2 0x7E JUMPI DUP1 PUSH4 0x908921FC GT PUSH2 0x58 JUMPI DUP1 PUSH4 0x908921FC EQ PUSH2 0x2AD JUMPI DUP1 PUSH4 0xAD03FE70 EQ PUSH2 0x2D7 JUMPI DUP1 PUSH4 0xCB2CC82A EQ PUSH2 0x313 JUMPI DUP1 PUSH4 0xEA6E358E EQ PUSH2 0x34F JUMPI PUSH2 0xC1 JUMP JUMPDEST DUP1 PUSH4 0x6031A52F EQ PUSH2 0x20B JUMPI DUP1 PUSH4 0x695DC67E EQ PUSH2 0x235 JUMPI DUP1 PUSH4 0x8DD4BA2E EQ PUSH2 0x271 JUMPI PUSH2 0xC1 JUMP JUMPDEST DUP1 PUSH4 0x33FAB35 EQ PUSH2 0xC5 JUMPI DUP1 PUSH4 0x7819BD6 EQ PUSH2 0x107 JUMPI DUP1 PUSH4 0x1165E6AB EQ PUSH2 0x143 JUMPI DUP1 PUSH4 0x195C1445 EQ PUSH2 0x17F JUMPI DUP1 PUSH4 0x4AFE9F7B EQ PUSH2 0x1BB JUMPI DUP1 PUSH4 0x5E583E37 EQ PUSH2 0x1E3 JUMPI JUMPDEST PUSH0 PUSH0 REVERT JUMPDEST CALLVALUE DUP1 ISZERO PUSH2 0xD0 JUMPI PUSH0 PUSH0 REVERT JUMPDEST POP PUSH2 0xEB PUSH1 0x4 DUP1 CALLDATASIZE SUB DUP2 ADD SWAP1 PUSH2 0xE6 SWAP2 SWAP1 PUSH2 0x10AC JUMP JUMPDEST PUSH2 0x36B JUMP JUMPDEST PUSH1 0x40 MLOAD PUSH2 0xFE SWAP8 SWAP7 SWAP6 SWAP5 SWAP4 SWAP3 SWAP2 SWAP1 PUSH2 0x11AF JUMP JUMPDEST PUSH1 0x40 MLOAD DUP1 SWAP2 SUB SWAP1 RETURN JUMPDEST CALLVALUE DUP1 ISZERO PUSH2 0x112 JUMPI PUSH0 PUSH0 REVERT JUMPDEST POP PUSH2 0x12D PUSH1 0x4 DUP1 CALLDATASIZE SUB DUP2 ADD SWAP1 PUSH2 0x128 SWAP2 SWAP1 PUSH2 0x1380 JUMP JUMPDEST PUSH2 0x4ED JUMP JUMPDEST PUSH1 0x40 MLOAD PUSH2 0x13A SWAP2 SWAP1 PUSH2 0x1400 JUMP JUMPDEST PUSH1 0x40 MLOAD DUP1 SWAP2 SUB SWAP1 RETURN JUMPDEST CALLVALUE DUP1 ISZERO PUSH2 0x14E JUMPI PUSH0 PUSH0 REVERT JUMPDEST POP PUSH2 0x169 PUSH1 0x4 DUP1 CALLDATASIZE SUB DUP2 ADD SWAP1 PUSH2 0x164 SWAP2 SWAP1 PUSH2 0x1443 JUMP JUMPDEST PUSH2 0x5AC JUMP JUMPDEST PUSH1 0x40 MLOAD PUSH2 0x176 SWAP2 SWAP1 PUSH2 0x146E JUMP JUMPDEST PUSH1 0x40 MLOAD DUP1 SWAP2 SUB SWAP1 RETURN JUMPDEST CALLVALUE DUP1 ISZERO PUSH2 0x18A JUMPI PUSH0 PUSH0 REVERT JUMPDEST POP PUSH2 0x1A5 PUSH1 0x4 DUP1 CALLDATASIZE SUB DUP2 ADD SWAP1 PUSH2 0x1A0 SWAP2 SWAP1 PUSH2 0x10AC JUMP JUMPDEST PUSH2 0x603 JUMP JUMPDEST PUSH1 0x40 MLOAD PUSH2 0x1B2 SWAP2 SWAP1 PUSH2 0x1400 JUMP JUMPDEST PUSH1 0x40 MLOAD DUP1 SWAP2 SUB SWAP1 RETURN JUMPDEST CALLVALUE DUP1 ISZERO PUSH2 0x1C6 JUMPI PUSH0 PUSH0 REVERT JUMPDEST POP PUSH2 0x1E1 PUSH1 0x4 DUP1 CALLDATASIZE SUB DUP2 ADD SWAP1 PUSH2 0x1DC SWAP2 SWAP1 PUSH2 0x1487 JUMP JUMPDEST PUSH2 0x623 JUMP JUMPDEST STOP JUMPDEST CALLVALUE DUP1 ISZERO PUSH2 0x1EE JUMPI PUSH0 PUSH0 REVERT JUMPDEST POP PUSH2 0x209 PUSH1 0x4 DUP1 CALLDATASIZE SUB DUP2 ADD SWAP1 PUSH2 0x204 SWAP2 SWAP1 PUSH2 0x14F3 JUMP JUMPDEST PUSH2 0x7EC JUMP JUMPDEST STOP JUMPDEST CALLVALUE DUP1 ISZERO PUSH2 0x216 JUMPI PUSH0 PUSH0 REVERT JUMPDEST POP PUSH2 0x21F PUSH2 0x8E2 JUMP JUMPDEST PUSH1 0x40 MLOAD PUSH2 0x22C SWAP2 SWAP1 PUSH2 0x1400 JUMP JUMPDEST PUSH1 0x40 MLOAD DUP1 SWAP2 SUB SWAP1 RETURN JUMPDEST CALLVALUE DUP1 ISZERO PUSH2 0x240 JUMPI PUSH0 PUSH0 REVERT JUMPDEST POP PUSH2 0x25B PUSH1 0x4 DUP1 CALLDATASIZE SUB DUP2 ADD SWAP1 PUSH2 0x256 SWAP2 SWAP1 PUSH2 0x10AC JUMP JUMPDEST PUSH2 0x8E8 JUMP JUMPDEST PUSH1 0x40 MLOAD PUSH2 0x268 SWAP2 SWAP1 PUSH2 0x1400 JUMP JUMPDEST PUSH1 0x40 MLOAD DUP1 SWAP2 SUB SWAP1 RETURN JUMPDEST CALLVALUE DUP1 ISZERO PUSH2 0x27C JUMPI PUSH0 PUSH0 REVERT JUMPDEST POP PUSH2 0x297 PUSH1 0x4 DUP1 CALLDATASIZE SUB DUP2 ADD SWAP1 PUSH2 0x292 SWAP2 SWAP1 PUSH2 0x10AC JUMP JUMPDEST PUSH2 0x901 JUMP JUMPDEST PUSH1 0x40 MLOAD PUSH2 0x2A4 SWAP2 SWAP1 PUSH2 0x154D JUMP JUMPDEST PUSH1 0x40 MLOAD DUP1 SWAP2 SUB SWAP1 RETURN JUMPDEST CALLVALUE DUP1 ISZERO PUSH2 0x2B8 JUMPI PUSH0 PUSH0 REVERT JUMPDEST POP PUSH2 0x2C1 PUSH2 0x9A7 JUMP JUMPDEST PUSH1 0x40 MLOAD PUSH2 0x2CE SWAP2 SWAP1 PUSH2 0x156D JUMP JUMPDEST PUSH1 0x40 MLOAD DUP1 SWAP2 SUB SWAP1 RETURN JUMPDEST CALLVALUE DUP1 ISZERO PUSH2 0x2E2 JUMPI PUSH0 PUSH0 REVERT JUMPDEST POP PUSH2 0x2FD PUSH1 0x4 DUP1 CALLDATASIZE SUB DUP2 ADD SWAP1 PUSH2 0x2F8 SWAP2 SWAP1 PUSH2 0x1443 JUMP JUMPDEST PUSH2 0x9CB JUMP JUMPDEST PUSH1 0x40 MLOAD PUSH2 0x30A SWAP2 SWAP1 PUSH2 0x1756 JUMP JUMPDEST PUSH1 0x40 MLOAD DUP1 SWAP2 SUB SWAP1 RETURN JUMPDEST CALLVALUE DUP1 ISZERO PUSH2 0x31E JUMPI PUSH0 PUSH0 REVERT JUMPDEST POP PUSH2 0x339 PUSH1 0x4 DUP1 CALLDATASIZE SUB DUP2 ADD SWAP1 PUSH2 0x334 SWAP2 SWAP1 PUSH2 0x10AC JUMP JUMPDEST PUSH2 0xDA8 JUMP JUMPDEST PUSH1 0x40 MLOAD PUSH2 0x346 SWAP2 SWAP1 PUSH2 0x1400 JUMP JUMPDEST PUSH1 0x40 MLOAD DUP1 SWAP2 SUB SWAP1 RETURN JUMPDEST PUSH2 0x369 PUSH1 0x4 DUP1 CALLDATASIZE SUB DUP2 ADD SWAP1 PUSH2 0x364 SWAP2 SWAP1 PUSH2 0x1380 JUMP JUMPDEST PUSH2 0xDC1 JUMP JUMPDEST STOP JUMPDEST PUSH1 0x14 PUSH1 0x20 MSTORE DUP1 PUSH0 MSTORE PUSH1 0x40 PUSH0 KECCAK256 PUSH0 SWAP2 POP SWAP1 POP DUP1 PUSH0 ADD PUSH0 SWAP1 SLOAD SWAP1 PUSH2 0x100 EXP SWAP1 DIV PUSH20 0xFFFFFFFFFFFFFFFFFFFFFFFFFFFFFFFFFFFFFFFF AND SWAP1 DUP1 PUSH1 0x1 ADD DUP1 SLOAD PUSH2 0x3AF SWAP1 PUSH2 0x17A3 JUMP JUMPDEST DUP1 PUSH1 0x1F ADD PUSH1 0x20 DUP1 SWAP2 DIV MUL PUSH1 0x20 ADD PUSH1 0x40 MLOAD SWAP1 DUP2 ADD PUSH1 0x40 MSTORE DUP1 SWAP3 SWAP2 SWAP1 DUP2 DUP2 MSTORE PUSH1 0x20 ADD DUP3 DUP1 SLOAD PUSH2 0x3DB SWAP1 PUSH2 0x17A3 JUMP JUMPDEST DUP1 ISZERO PUSH2 0x426 JUMPI DUP1 PUSH1 0x1F LT PUSH2 0x3FD JUMPI PUSH2 0x100 DUP1 DUP4 SLOAD DIV MUL DUP4 MSTORE SWAP2 PUSH1 0x20 ADD SWAP2 PUSH2 0x426 JUMP JUMPDEST DUP3 ADD SWAP2 SWAP1 PUSH0 MSTORE PUSH1 0x20 PUSH0 KECCAK256 SWAP1 JUMPDEST DUP2 SLOAD DUP2 MSTORE SWAP1 PUSH1 0x1 ADD SWAP1 PUSH1 0x20 ADD DUP1 DUP4 GT PUSH2 0x409 JUMPI DUP3 SWAP1 SUB PUSH1 0x1F AND DUP3 ADD SWAP2 JUMPDEST POP POP POP POP POP SWAP1 DUP1 PUSH1 0x2 ADD SLOAD SWAP1 DUP1 PUSH1 0x3 ADD SLOAD SWAP1 DUP1 PUSH1 0x4 ADD DUP1 SLOAD PUSH2 0x447 SWAP1 PUSH2 0x17A3 JUMP JUMPDEST DUP1 PUSH1 0x1F ADD PUSH1 0x20 DUP1 SWAP2 DIV MUL PUSH1 0x20 ADD PUSH1 0x40 MLOAD SWAP1 DUP2 ADD PUSH1 0x40 MSTORE DUP1 SWAP3 SWAP2 SWAP1 DUP2 DUP2 MSTORE PUSH1 0x20 ADD DUP3 DUP1 SLOAD PUSH2 0x473 SWAP1 PUSH2 0x17A3 JUMP JUMPDEST DUP1 ISZERO PUSH2 0x4BE JUMPI DUP1 PUSH1 0x1F LT PUSH2 0x495 JUMPI PUSH2 0x100 DUP1 DUP4 SLOAD DIV MUL DUP4 MSTORE SWAP2 PUSH1 0x20 ADD SWAP2 PUSH2 0x4BE JUMP JUMPDEST DUP3 ADD SWAP2 SWAP1 PUSH0 MSTORE PUSH1 0x20 PUSH0 KECCAK256 SWAP1 JUMPDEST DUP2 SLOAD DUP2 MSTORE SWAP1 PUSH1 0x1 ADD SWAP1 PUSH1 0x20 ADD DUP1 DUP4 GT PUSH2 0x4A1 JUMPI DUP3 SWAP1 SUB PUSH1 0x1F AND DUP3 ADD SWAP2 JUMPDEST POP POP POP POP POP SWAP1 DUP1 PUSH1 0x5 ADD PUSH0 SWAP1 SLOAD SWAP1 PUSH2 0x100 EXP SWAP1 DIV PUSH1 0xFF AND SWAP1 DUP1 PUSH1 0x5 ADD PUSH1 0x1 SWAP1 SLOAD SWAP1 PUSH2 0x100 EXP SWAP1 DIV PUSH1 0xFF AND SWAP1 POP DUP8 JUMP JUMPDEST PUSH0 PUSH0 PUSH1 0x10 PUSH1 0x1 DUP6 PUSH2 0x4FE SWAP2 SWAP1 PUSH2 0x1800 JUMP JUMPDEST PUSH1 0x3 DUP2 LT PUSH2 0x50F JUMPI PUSH2 0x50E PUSH2 0x1833 JUMP JUMPDEST JUMPDEST ADD SLOAD PUSH1 0x4 PUSH1 0x1 DUP8 PUSH2 0x520 SWAP2 SWAP1 PUSH2 0x1800 JUMP JUMPDEST PUSH1 0xC DUP2 LT PUSH2 0x531 JUMPI PUSH2 0x530 PUSH2 0x1833 JUMP JUMPDEST JUMPDEST ADD SLOAD PUSH1 0x2 PUSH1 0x3 DUP10 PUSH1 0x40 MLOAD PUSH2 0x545 SWAP2 SWAP1 PUSH2 0x189A JUMP JUMPDEST SWAP1 DUP2 MSTORE PUSH1 0x20 ADD PUSH1 0x40 MLOAD DUP1 SWAP2 SUB SWAP1 KECCAK256 SLOAD DUP2 SLOAD DUP2 LT PUSH2 0x565 JUMPI PUSH2 0x564 PUSH2 0x1833 JUMP JUMPDEST JUMPDEST SWAP1 PUSH0 MSTORE PUSH1 0x20 PUSH0 KECCAK256 ADD SLOAD PUSH2 0x578 SWAP2 SWAP1 PUSH2 0x18B0 JUMP JUMPDEST PUSH2 0x582 SWAP2 SWAP1 PUSH2 0x18B0 JUMP JUMPDEST SWAP1 POP DUP3 ISZERO PUSH2 0x59F JUMPI PUSH1 0x2 DUP2 PUSH2 0x597 SWAP2 SWAP1 PUSH2 0x18B0 JUMP JUMPDEST SWAP2 POP POP PUSH2 0x5A4 JUMP JUMPDEST DUP1 SWAP2 POP POP JUMPDEST SWAP5 SWAP4 POP POP POP POP JUMP JUMPDEST PUSH0 PUSH0 PUSH0 SWAP1 SLOAD SWAP1 PUSH2 0x100 EXP SWAP1 DIV PUSH20 0xFFFFFFFFFFFFFFFFFFFFFFFFFFFFFFFFFFFFFFFF AND PUSH20 0xFFFFFFFFFFFFFFFFFFFFFFFFFFFFFFFFFFFFFFFF AND DUP3 PUSH20 0xFFFFFFFFFFFFFFFFFFFFFFFFFFFFFFFFFFFFFFFF AND EQ SWAP1 POP SWAP2 SWAP1 POP JUMP JUMPDEST PUSH1 0x2 DUP2 DUP2 SLOAD DUP2 LT PUSH2 0x612 JUMPI PUSH0 DUP1 REVERT JUMPDEST SWAP1 PUSH0 MSTORE PUSH1 0x20 PUSH0 KECCAK256 ADD PUSH0 SWAP2 POP SWAP1 POP SLOAD DUP2 JUMP JUMPDEST PUSH0 PUSH0 SWAP1 SLOAD SWAP1 PUSH2 0x100 EXP SWAP1 DIV PUSH20 0xFFFFFFFFFFFFFFFFFFFFFFFFFFFFFFFFFFFFFFFF AND PUSH20 0xFFFFFFFFFFFFFFFFFFFFFFFFFFFFFFFFFFFFFFFF AND CALLER PUSH20 0xFFFFFFFFFFFFFFFFFFFFFFFFFFFFFFFFFFFFFFFF AND EQ PUSH2 0x67A JUMPI PUSH0 PUSH0 REVERT JUMPDEST PUSH0 PUSH0 SWAP1 POP JUMPDEST PUSH1 0x1E DUP2 LT ISZERO PUSH2 0x7E6 JUMPI PUSH0 PUSH1 0x15 SLOAD SWAP1 POP PUSH1 0x40 MLOAD DUP1 PUSH1 0xE0 ADD PUSH1 0x40 MSTORE DUP1 DUP7 PUSH20 0xFFFFFFFFFFFFFFFFFFFFFFFFFFFFFFFFFFFFFFFF AND DUP2 MSTORE PUSH1 0x20 ADD DUP6 DUP2 MSTORE PUSH1 0x20 ADD DUP5 DUP2 MSTORE PUSH1 0x20 ADD DUP4 DUP2 MSTORE PUSH1 0x20 ADD PUSH1 0x40 MLOAD DUP1 PUSH1 0x20 ADD PUSH1 0x40 MSTORE DUP1 PUSH0 DUP2 MSTORE POP DUP2 MSTORE PUSH1 0x20 ADD PUSH0 ISZERO ISZERO DUP2 MSTORE PUSH1 0x20 ADD PUSH1 0x1 ISZERO ISZERO DUP2 MSTORE POP PUSH1 0x14 PUSH0 DUP4 DUP2 MSTORE PUSH1 0x20 ADD SWAP1 DUP2 MSTORE PUSH1 0x20 ADD PUSH0 KECCAK256 PUSH0 DUP3 ADD MLOAD DUP2 PUSH0 ADD PUSH0 PUSH2 0x100 EXP DUP2 SLOAD DUP2 PUSH20 0xFFFFFFFFFFFFFFFFFFFFFFFFFFFFFFFFFFFFFFFF MUL NOT AND SWAP1 DUP4 PUSH20 0xFFFFFFFFFFFFFFFFFFFFFFFFFFFFFFFFFFFFFFFF AND MUL OR SWAP1 SSTORE POP PUSH1 0x20 DUP3 ADD MLOAD DUP2 PUSH1 0x1 ADD SWAP1 DUP2 PUSH2 0x754 SWAP2 SWAP1 PUSH2 0x1A91 JUMP JUMPDEST POP PUSH1 0x40 DUP3 ADD MLOAD DUP2 PUSH1 0x2 ADD SSTORE PUSH1 0x60 DUP3 ADD MLOAD DUP2 PUSH1 0x3 ADD SSTORE PUSH1 0x80 DUP3 ADD MLOAD DUP2 PUSH1 0x4 ADD SWAP1 DUP2 PUSH2 0x77E SWAP2 SWAP1 PUSH2 0x1A91 JUMP JUMPDEST POP PUSH1 0xA0 DUP3 ADD MLOAD DUP2 PUSH1 0x5 ADD PUSH0 PUSH2 0x100 EXP DUP2 SLOAD DUP2 PUSH1 0xFF MUL NOT AND SWAP1 DUP4 ISZERO ISZERO MUL OR SWAP1 SSTORE POP PUSH1 0xC0 DUP3 ADD MLOAD DUP2 PUSH1 0x5 ADD PUSH1 0x1 PUSH2 0x100 EXP DUP2 SLOAD DUP2 PUSH1 0xFF MUL NOT AND SWAP1 DUP4 ISZERO ISZERO MUL OR SWAP1 SSTORE POP SWAP1 POP POP PUSH1 0x15 PUSH0 DUP2 SLOAD DUP1 SWAP3 SWAP2 SWAP1 PUSH2 0x7D3 SWAP1 PUSH2 0x1B60 JUMP JUMPDEST SWAP2 SWAP1 POP SSTORE POP POP DUP1 DUP1 PUSH1 0x1 ADD SWAP2 POP POP PUSH2 0x67F JUMP JUMPDEST POP POP POP POP JUMP JUMPDEST PUSH0 PUSH0 SWAP1 SLOAD SWAP1 PUSH2 0x100 EXP SWAP1 DIV PUSH20 0xFFFFFFFFFFFFFFFFFFFFFFFFFFFFFFFFFFFFFFFF AND PUSH20 0xFFFFFFFFFFFFFFFFFFFFFFFFFFFFFFFFFFFFFFFF AND CALLER PUSH20 0xFFFFFFFFFFFFFFFFFFFFFFFFFFFFFFFFFFFFFFFF AND EQ PUSH2 0x843 JUMPI PUSH0 PUSH0 REVERT JUMPDEST DUP2 PUSH1 0x40 MLOAD PUSH1 0x20 ADD PUSH2 0x854 SWAP2 SWAP1 PUSH2 0x189A JUMP JUMPDEST PUSH1 0x40 MLOAD PUSH1 0x20 DUP2 DUP4 SUB SUB DUP2 MSTORE SWAP1 PUSH1 0x40 MSTORE DUP1 MLOAD SWAP1 PUSH1 0x20 ADD KECCAK256 PUSH1 0x1 PUSH1 0x3 DUP5 PUSH1 0x40 MLOAD PUSH2 0x87C SWAP2 SWAP1 PUSH2 0x189A JUMP JUMPDEST SWAP1 DUP2 MSTORE PUSH1 0x20 ADD PUSH1 0x40 MLOAD DUP1 SWAP2 SUB SWAP1 KECCAK256 SLOAD DUP2 SLOAD DUP2 LT PUSH2 0x89C JUMPI PUSH2 0x89B PUSH2 0x1833 JUMP JUMPDEST JUMPDEST SWAP1 PUSH0 MSTORE PUSH1 0x20 PUSH0 KECCAK256 ADD PUSH1 0x40 MLOAD PUSH1 0x20 ADD PUSH2 0x8B4 SWAP2 SWAP1 PUSH2 0x1C27 JUMP JUMPDEST PUSH1 0x40 MLOAD PUSH1 0x20 DUP2 DUP4 SUB SUB DUP2 MSTORE SWAP1 PUSH1 0x40 MSTORE DUP1 MLOAD SWAP1 PUSH1 0x20 ADD KECCAK256 SUB PUSH2 0x8D3 JUMPI PUSH0 PUSH0 REVERT JUMPDEST PUSH2 0x8DE CALLER DUP4 DUP4 PUSH2 0x623 JUMP JUMPDEST POP POP JUMP JUMPDEST PUSH1 0x15 SLOAD DUP2 JUMP JUMPDEST PUSH1 0x10 DUP2 PUSH1 0x3 DUP2 LT PUSH2 0x8F7 JUMPI PUSH0 DUP1 REVERT JUMPDEST ADD PUSH0 SWAP2 POP SWAP1 POP SLOAD DUP2 JUMP JUMPDEST PUSH1 0x1 DUP2 DUP2 SLOAD DUP2 LT PUSH2 0x910 JUMPI PUSH0 DUP1 REVERT JUMPDEST SWAP1 PUSH0 MSTORE PUSH1 0x20 PUSH0 KECCAK256 ADD PUSH0 SWAP2 POP SWAP1 POP DUP1 SLOAD PUSH2 0x928 SWAP1 PUSH2 0x17A3 JUMP JUMPDEST DUP1 PUSH1 0x1F ADD PUSH1 0x20 DUP1 SWAP2 DIV MUL PUSH1 0x20 ADD PUSH1 0x40 MLOAD SWAP1 DUP2 ADD PUSH1 0x40 MSTORE DUP1 SWAP3 SWAP2 SWAP1 DUP2 DUP2 MSTORE PUSH1 0x20 ADD DUP3 DUP1 SLOAD PUSH2 0x954 SWAP1 PUSH2 0x17A3 JUMP JUMPDEST DUP1 ISZERO PUSH2 0x99F JUMPI DUP1 PUSH1 0x1F LT PUSH2 0x976 JUMPI PUSH2 0x100 DUP1 DUP4 SLOAD DIV MUL DUP4 MSTORE SWAP2 PUSH1 0x20 ADD SWAP2 PUSH2 0x99F JUMP JUMPDEST DUP3 ADD SWAP2 SWAP1 PUSH0 MSTORE PUSH1 0x20 PUSH0 KECCAK256 SWAP1 JUMPDEST DUP2 SLOAD DUP2 MSTORE SWAP1 PUSH1 0x1 ADD SWAP1 PUSH1 0x20 ADD DUP1 DUP4 GT PUSH2 0x982 JUMPI DUP3 SWAP1 SUB PUSH1 0x1F AND DUP3 ADD SWAP2 JUMPDEST POP POP POP POP POP DUP2 JUMP JUMPDEST PUSH0 PUSH0 SWAP1 SLOAD SWAP1 PUSH2 0x100 EXP SWAP1 DIV PUSH20 0xFFFFFFFFFFFFFFFFFFFFFFFFFFFFFFFFFFFFFFFF AND DUP2 JUMP JUMPDEST PUSH1 0x60 PUSH0 PUSH0 SWAP1 POP PUSH0 PUSH0 SWAP1 POP JUMPDEST PUSH1 0x15 SLOAD DUP2 LT ISZERO PUSH2 0xA8D JUMPI DUP4 PUSH20 0xFFFFFFFFFFFFFFFFFFFFFFFFFFFFFFFFFFFFFFFF AND PUSH1 0x14 PUSH0 DUP4 DUP2 MSTORE PUSH1 0x20 ADD SWAP1 DUP2 MSTORE PUSH1 0x20 ADD PUSH0 KECCAK256 PUSH0 ADD PUSH0 SWAP1 SLOAD SWAP1 PUSH2 0x100 EXP SWAP1 DIV PUSH20 0xFFFFFFFFFFFFFFFFFFFFFFFFFFFFFFFFFFFFFFFF AND PUSH20 0xFFFFFFFFFFFFFFFFFFFFFFFFFFFFFFFFFFFFFFFF AND EQ DUP1 ISZERO PUSH2 0xA6C JUMPI POP PUSH1 0x14 PUSH0 DUP3 DUP2 MSTORE PUSH1 0x20 ADD SWAP1 DUP2 MSTORE PUSH1 0x20 ADD PUSH0 KECCAK256 PUSH1 0x5 ADD PUSH1 0x1 SWAP1 SLOAD SWAP1 PUSH2 0x100 EXP SWAP1 DIV PUSH1 0xFF AND ISZERO JUMPDEST ISZERO PUSH2 0xA80 JUMPI DUP2 DUP1 PUSH2 0xA7C SWAP1 PUSH2 0x1B60 JUMP JUMPDEST SWAP3 POP POP JUMPDEST DUP1 DUP1 PUSH1 0x1 ADD SWAP2 POP POP PUSH2 0x9D6 JUMP JUMPDEST POP PUSH0 DUP2 PUSH8 0xFFFFFFFFFFFFFFFF DUP2 GT ISZERO PUSH2 0xAA9 JUMPI PUSH2 0xAA8 PUSH2 0x1232 JUMP JUMPDEST JUMPDEST PUSH1 0x40 MLOAD SWAP1 DUP1 DUP3 MSTORE DUP1 PUSH1 0x20 MUL PUSH1 0x20 ADD DUP3 ADD PUSH1 0x40 MSTORE DUP1 ISZERO PUSH2 0xAE2 JUMPI DUP2 PUSH1 0x20 ADD JUMPDEST PUSH2 0xACF PUSH2 0x1016 JUMP JUMPDEST DUP2 MSTORE PUSH1 0x20 ADD SWAP1 PUSH1 0x1 SWAP1 SUB SWAP1 DUP2 PUSH2 0xAC7 JUMPI SWAP1 POP JUMPDEST POP SWAP1 POP PUSH0 PUSH0 SWAP1 POP PUSH0 PUSH0 SWAP1 POP JUMPDEST PUSH1 0x15 SLOAD DUP2 LT ISZERO PUSH2 0xD9C JUMPI DUP6 PUSH20 0xFFFFFFFFFFFFFFFFFFFFFFFFFFFFFFFFFFFFFFFF AND PUSH1 0x14 PUSH0 DUP4 DUP2 MSTORE PUSH1 0x20 ADD SWAP1 DUP2 MSTORE PUSH1 0x20 ADD PUSH0 KECCAK256 PUSH0 ADD PUSH0 SWAP1 SLOAD SWAP1 PUSH2 0x100 EXP SWAP1 DIV PUSH20 0xFFFFFFFFFFFFFFFFFFFFFFFFFFFFFFFFFFFFFFFF AND PUSH20 0xFFFFFFFFFFFFFFFFFFFFFFFFFFFFFFFFFFFFFFFF AND EQ DUP1 ISZERO PUSH2 0xB84 JUMPI POP PUSH1 0x14 PUSH0 DUP3 DUP2 MSTORE PUSH1 0x20 ADD SWAP1 DUP2 MSTORE PUSH1 0x20 ADD PUSH0 KECCAK256 PUSH1 0x5 ADD PUSH1 0x1 SWAP1 SLOAD SWAP1 PUSH2 0x100 EXP SWAP1 DIV PUSH1 0xFF AND ISZERO JUMPDEST ISZERO PUSH2 0xD8F JUMPI PUSH1 0x14 PUSH0 DUP3 DUP2 MSTORE PUSH1 0x20 ADD SWAP1 DUP2 MSTORE PUSH1 0x20 ADD PUSH0 KECCAK256 PUSH1 0x40 MLOAD DUP1 PUSH1 0xE0 ADD PUSH1 0x40 MSTORE SWAP1 DUP2 PUSH0 DUP3 ADD PUSH0 SWAP1 SLOAD SWAP1 PUSH2 0x100 EXP SWAP1 DIV PUSH20 0xFFFFFFFFFFFFFFFFFFFFFFFFFFFFFFFFFFFFFFFF AND PUSH20 0xFFFFFFFFFFFFFFFFFFFFFFFFFFFFFFFFFFFFFFFF AND PUSH20 0xFFFFFFFFFFFFFFFFFFFFFFFFFFFFFFFFFFFFFFFF AND DUP2 MSTORE PUSH1 0x20 ADD PUSH1 0x1 DUP3 ADD DUP1 SLOAD PUSH2 0xC09 SWAP1 PUSH2 0x17A3 JUMP JUMPDEST DUP1 PUSH1 0x1F ADD PUSH1 0x20 DUP1 SWAP2 DIV MUL PUSH1 0x20 ADD PUSH1 0x40 MLOAD SWAP1 DUP2 ADD PUSH1 0x40 MSTORE DUP1 SWAP3 SWAP2 SWAP1 DUP2 DUP2 MSTORE PUSH1 0x20 ADD DUP3 DUP1 SLOAD PUSH2 0xC35 SWAP1 PUSH2 0x17A3 JUMP JUMPDEST DUP1 ISZERO PUSH2 0xC80 JUMPI DUP1 PUSH1 0x1F LT PUSH2 0xC57 JUMPI PUSH2 0x100 DUP1 DUP4 SLOAD DIV MUL DUP4 MSTORE SWAP2 PUSH1 0x20 ADD SWAP2 PUSH2 0xC80 JUMP JUMPDEST DUP3 ADD SWAP2 SWAP1 PUSH0 MSTORE PUSH1 0x20 PUSH0 KECCAK256 SWAP1 JUMPDEST DUP2 SLOAD DUP2 MSTORE SWAP1 PUSH1 0x1 ADD SWAP1 PUSH1 0x20 ADD DUP1 DUP4 GT PUSH2 0xC63 JUMPI DUP3 SWAP1 SUB PUSH1 0x1F AND DUP3 ADD SWAP2 JUMPDEST POP POP POP POP POP DUP2 MSTORE PUSH1 0x20 ADD PUSH1 0x2 DUP3 ADD SLOAD DUP2 MSTORE PUSH1 0x20 ADD PUSH1 0x3 DUP3 ADD SLOAD DUP2 MSTORE PUSH1 0x20 ADD PUSH1 0x4 DUP3 ADD DUP1 SLOAD PUSH2 0xCAD SWAP1 PUSH2 0x17A3 JUMP JUMPDEST DUP1 PUSH1 0x1F ADD PUSH1 0x20 DUP1 SWAP2 DIV MUL PUSH1 0x20 ADD PUSH1 0x40 MLOAD SWAP1 DUP2 ADD PUSH1 0x40 MSTORE DUP1 SWAP3 SWAP2 SWAP1 DUP2 DUP2 MSTORE PUSH1 0x20 ADD DUP3 DUP1 SLOAD PUSH2 0xCD9 SWAP1 PUSH2 0x17A3 JUMP JUMPDEST DUP1 ISZERO PUSH2 0xD24 JUMPI DUP1 PUSH1 0x1F LT PUSH2 0xCFB JUMPI PUSH2 0x100 DUP1 DUP4 SLOAD DIV MUL DUP4 MSTORE SWAP2 PUSH1 0x20 ADD SWAP2 PUSH2 0xD24 JUMP JUMPDEST DUP3 ADD SWAP2 SWAP1 PUSH0 MSTORE PUSH1 0x20 PUSH0 KECCAK256 SWAP1 JUMPDEST DUP2 SLOAD DUP2 MSTORE SWAP1 PUSH1 0x1 ADD SWAP1 PUSH1 0x20 ADD DUP1 DUP4 GT PUSH2 0xD07 JUMPI DUP3 SWAP1 SUB PUSH1 0x1F AND DUP3 ADD SWAP2 JUMPDEST POP POP POP POP POP DUP2 MSTORE PUSH1 0x20 ADD PUSH1 0x5 DUP3 ADD PUSH0 SWAP1 SLOAD SWAP1 PUSH2 0x100 EXP SWAP1 DIV PUSH1 0xFF AND ISZERO ISZERO ISZERO ISZERO DUP2 MSTORE PUSH1 0x20 ADD PUSH1 0x5 DUP3 ADD PUSH1 0x1 SWAP1 SLOAD SWAP1 PUSH2 0x100 EXP SWAP1 DIV PUSH1 0xFF AND ISZERO ISZERO ISZERO ISZERO DUP2 MSTORE POP POP DUP4 DUP4 DUP2 MLOAD DUP2 LT PUSH2 0xD75 JUMPI PUSH2 0xD74 PUSH2 0x1833 JUMP JUMPDEST JUMPDEST PUSH1 0x20 MUL PUSH1 0x20 ADD ADD DUP2 SWAP1 MSTORE POP DUP2 DUP1 PUSH2 0xD8B SWAP1 PUSH2 0x1B60 JUMP JUMPDEST SWAP3 POP POP JUMPDEST DUP1 DUP1 PUSH1 0x1 ADD SWAP2 POP POP PUSH2 0xAEE JUMP JUMPDEST POP DUP2 SWAP4 POP POP POP POP SWAP2 SWAP1 POP JUMP JUMPDEST PUSH1 0x4 DUP2 PUSH1 0xC DUP2 LT PUSH2 0xDB7 JUMPI PUSH0 DUP1 REVERT JUMPDEST ADD PUSH0 SWAP2 POP SWAP1 POP SLOAD DUP2 JUMP JUMPDEST PUSH2 0xDCD DUP5 DUP5 DUP5 DUP5 PUSH2 0x4ED JUMP JUMPDEST CALLVALUE EQ PUSH2 0xDD7 JUMPI PUSH0 PUSH0 REVERT JUMPDEST PUSH0 PUSH0 SWAP1 POP PUSH0 PUSH0 SWAP1 POP JUMPDEST PUSH1 0x15 SLOAD DUP2 LT ISZERO PUSH2 0xFCE JUMPI PUSH0 PUSH1 0x14 PUSH0 DUP4 DUP2 MSTORE PUSH1 0x20 ADD SWAP1 DUP2 MSTORE PUSH1 0x20 ADD PUSH0 KECCAK256 SWAP1 POP DUP7 PUSH1 0x40 MLOAD PUSH1 0x20 ADD PUSH2 0xE0F SWAP2 SWAP1 PUSH2 0x189A JUMP JUMPDEST PUSH1 0x40 MLOAD PUSH1 0x20 DUP2 DUP4 SUB SUB DUP2 MSTORE SWAP1 PUSH1 0x40 MSTORE DUP1 MLOAD SWAP1 PUSH1 0x20 ADD KECCAK256 DUP2 PUSH1 0x1 ADD PUSH1 0x40 MLOAD PUSH1 0x20 ADD PUSH2 0xE39 SWAP2 SWAP1 PUSH2 0x1C27 JUMP JUMPDEST PUSH1 0x40 MLOAD PUSH1 0x20 DUP2 DUP4 SUB SUB DUP2 MSTORE SWAP1 PUSH1 0x40 MSTORE DUP1 MLOAD SWAP1 PUSH1 0x20 ADD KECCAK256 EQ DUP1 ISZERO PUSH2 0xE6A JUMPI POP DUP1 PUSH1 0x5 ADD PUSH1 0x1 SWAP1 SLOAD SWAP1 PUSH2 0x100 EXP SWAP1 DIV PUSH1 0xFF AND JUMPDEST ISZERO PUSH2 0xFC0 JUMPI CALLER DUP2 PUSH0 ADD PUSH0 PUSH2 0x100 EXP DUP2 SLOAD DUP2 PUSH20 0xFFFFFFFFFFFFFFFFFFFFFFFFFFFFFFFFFFFFFFFF MUL NOT AND SWAP1 DUP4 PUSH20 0xFFFFFFFFFFFFFFFFFFFFFFFFFFFFFFFFFFFFFFFF AND MUL OR SWAP1 SSTORE POP PUSH1 0x1 DUP6 EQ PUSH2 0xF37 JUMPI PUSH1 0x2 DUP6 EQ PUSH2 0xEFB JUMPI PUSH1 0x40 MLOAD DUP1 PUSH1 0x40 ADD PUSH1 0x40 MSTORE DUP1 PUSH1 0x5 DUP2 MSTORE PUSH1 0x20 ADD PUSH32 0x4669727374000000000000000000000000000000000000000000000000000000 DUP2 MSTORE POP PUSH2 0xF32 JUMP JUMPDEST PUSH1 0x40 MLOAD DUP1 PUSH1 0x40 ADD PUSH1 0x40 MSTORE DUP1 PUSH1 0x8 DUP2 MSTORE PUSH1 0x20 ADD PUSH32 0x427573696E657373000000000000000000000000000000000000000000000000 DUP2 MSTORE POP JUMPDEST PUSH2 0xF6E JUMP JUMPDEST PUSH1 0x40 MLOAD DUP1 PUSH1 0x40 ADD PUSH1 0x40 MSTORE DUP1 PUSH1 0x7 DUP2 MSTORE PUSH1 0x20 ADD PUSH32 0x45636F6E6F6D7900000000000000000000000000000000000000000000000000 DUP2 MSTORE POP JUMPDEST DUP2 PUSH1 0x4 ADD SWAP1 DUP2 PUSH2 0xF7E SWAP2 SWAP1 PUSH2 0x1A91 JUMP JUMPDEST POP DUP4 DUP2 PUSH1 0x5 ADD PUSH0 PUSH2 0x100 EXP DUP2 SLOAD DUP2 PUSH1 0xFF MUL NOT AND SWAP1 DUP4 ISZERO ISZERO MUL OR SWAP1 SSTORE POP PUSH0 DUP2 PUSH1 0x5 ADD PUSH1 0x1 PUSH2 0x100 EXP DUP2 SLOAD DUP2 PUSH1 0xFF MUL NOT AND SWAP1 DUP4 ISZERO ISZERO MUL OR SWAP1 SSTORE POP PUSH1 0x1 SWAP3 POP POP PUSH2 0xFCE JUMP JUMPDEST POP DUP1 DUP1 PUSH1 0x1 ADD SWAP2 POP POP PUSH2 0xDE0 JUMP JUMPDEST POP DUP1 PUSH2 0x100F JUMPI PUSH1 0x40 MLOAD PUSH32 0x8C379A000000000000000000000000000000000000000000000000000000000 DUP2 MSTORE PUSH1 0x4 ADD PUSH2 0x1006 SWAP1 PUSH2 0x1CAD JUMP JUMPDEST PUSH1 0x40 MLOAD DUP1 SWAP2 SUB SWAP1 REVERT JUMPDEST POP POP POP POP POP JUMP JUMPDEST PUSH1 0x40 MLOAD DUP1 PUSH1 0xE0 ADD PUSH1 0x40 MSTORE DUP1 PUSH0 PUSH20 0xFFFFFFFFFFFFFFFFFFFFFFFFFFFFFFFFFFFFFFFF AND DUP2 MSTORE PUSH1 0x20 ADD PUSH1 0x60 DUP2 MSTORE PUSH1 0x20 ADD PUSH0 DUP2 MSTORE PUSH1 0x20 ADD PUSH0 DUP2 MSTORE PUSH1 0x20 ADD PUSH1 0x60 DUP2 MSTORE PUSH1 0x20 ADD PUSH0 ISZERO ISZERO DUP2 MSTORE PUSH1 0x20 ADD PUSH0 ISZERO ISZERO DUP2 MSTORE POP SWAP1 JUMP JUMPDEST PUSH0 PUSH1 0x40 MLOAD SWAP1 POP SWAP1 JUMP JUMPDEST PUSH0 PUSH0 REVERT JUMPDEST PUSH0 PUSH0 REVERT JUMPDEST PUSH0 DUP2 SWAP1 POP SWAP2 SWAP1 POP JUMP JUMPDEST PUSH2 0x108B DUP2 PUSH2 0x1079 JUMP JUMPDEST DUP2 EQ PUSH2 0x1095 JUMPI PUSH0 PUSH0 REVERT JUMPDEST POP JUMP JUMPDEST PUSH0 DUP2 CALLDATALOAD SWAP1 POP PUSH2 0x10A6 DUP2 PUSH2 0x1082 JUMP JUMPDEST SWAP3 SWAP2 POP POP JUMP JUMPDEST PUSH0 PUSH1 0x20 DUP3 DUP5 SUB SLT ISZERO PUSH2 0x10C1 JUMPI PUSH2 0x10C0 PUSH2 0x1071 JUMP JUMPDEST JUMPDEST PUSH0 PUSH2 0x10CE DUP5 DUP3 DUP6 ADD PUSH2 0x1098 JUMP JUMPDEST SWAP2 POP POP SWAP3 SWAP2 POP POP JUMP JUMPDEST PUSH0 PUSH20 0xFFFFFFFFFFFFFFFFFFFFFFFFFFFFFFFFFFFFFFFF DUP3 AND SWAP1 POP SWAP2 SWAP1 POP JUMP JUMPDEST PUSH0 PUSH2 0x1100 DUP3 PUSH2 0x10D7 JUMP JUMPDEST SWAP1 POP SWAP2 SWAP1 POP JUMP JUMPDEST PUSH2 0x1110 DUP2 PUSH2 0x10F6 JUMP JUMPDEST DUP3 MSTORE POP POP JUMP JUMPDEST PUSH0 DUP2 MLOAD SWAP1 POP SWAP2 SWAP1 POP JUMP JUMPDEST PUSH0 DUP3 DUP3 MSTORE PUSH1 0x20 DUP3 ADD SWAP1 POP SWAP3 SWAP2 POP POP JUMP JUMPDEST DUP3 DUP2 DUP4 MCOPY PUSH0 DUP4 DUP4 ADD MSTORE POP POP POP JUMP JUMPDEST PUSH0 PUSH1 0x1F NOT PUSH1 0x1F DUP4 ADD AND SWAP1 POP SWAP2 SWAP1 POP JUMP JUMPDEST PUSH0 PUSH2 0x1158 DUP3 PUSH2 0x1116 JUMP JUMPDEST PUSH2 0x1162 DUP2 DUP6 PUSH2 0x1120 JUMP JUMPDEST SWAP4 POP PUSH2 0x1172 DUP2 DUP6 PUSH1 0x20 DUP7 ADD PUSH2 0x1130 JUMP JUMPDEST PUSH2 0x117B DUP2 PUSH2 0x113E JUMP JUMPDEST DUP5 ADD SWAP2 POP POP SWAP3 SWAP2 POP POP JUMP JUMPDEST PUSH2 0x118F DUP2 PUSH2 0x1079 JUMP JUMPDEST DUP3 MSTORE POP POP JUMP JUMPDEST PUSH0 DUP2 ISZERO ISZERO SWAP1 POP SWAP2 SWAP1 POP JUMP JUMPDEST PUSH2 0x11A9 DUP2 PUSH2 0x1195 JUMP JUMPDEST DUP3 MSTORE POP POP JUMP JUMPDEST PUSH0 PUSH1 0xE0 DUP3 ADD SWAP1 POP PUSH2 0x11C2 PUSH0 DUP4 ADD DUP11 PUSH2 0x1107 JUMP JUMPDEST DUP2 DUP2 SUB PUSH1 0x20 DUP4 ADD MSTORE PUSH2 0x11D4 DUP2 DUP10 PUSH2 0x114E JUMP JUMPDEST SWAP1 POP PUSH2 0x11E3 PUSH1 0x40 DUP4 ADD DUP9 PUSH2 0x1186 JUMP JUMPDEST PUSH2 0x11F0 PUSH1 0x60 DUP4 ADD DUP8 PUSH2 0x1186 JUMP JUMPDEST DUP2 DUP2 SUB PUSH1 0x80 DUP4 ADD MSTORE PUSH2 0x1202 DUP2 DUP7 PUSH2 0x114E JUMP JUMPDEST SWAP1 POP PUSH2 0x1211 PUSH1 0xA0 DUP4 ADD DUP6 PUSH2 0x11A0 JUMP JUMPDEST PUSH2 0x121E PUSH1 0xC0 DUP4 ADD DUP5 PUSH2 0x11A0 JUMP JUMPDEST SWAP9 SWAP8 POP POP POP POP POP POP POP POP JUMP JUMPDEST PUSH0 PUSH0 REVERT JUMPDEST PUSH0 PUSH0 REVERT JUMPDEST PUSH32 0x4E487B7100000000000000000000000000000000000000000000000000000000 PUSH0 MSTORE PUSH1 0x41 PUSH1 0x4 MSTORE PUSH1 0x24 PUSH0 REVERT JUMPDEST PUSH2 0x1268 DUP3 PUSH2 0x113E JUMP JUMPDEST DUP2 ADD DUP2 DUP2 LT PUSH8 0xFFFFFFFFFFFFFFFF DUP3 GT OR ISZERO PUSH2 0x1287 JUMPI PUSH2 0x1286 PUSH2 0x1232 JUMP JUMPDEST JUMPDEST DUP1 PUSH1 0x40 MSTORE POP POP POP JUMP JUMPDEST PUSH0 PUSH2 0x1299 PUSH2 0x1068 JUMP JUMPDEST SWAP1 POP PUSH2 0x12A5 DUP3 DUP3 PUSH2 0x125F JUMP JUMPDEST SWAP2 SWAP1 POP JUMP JUMPDEST PUSH0 PUSH8 0xFFFFFFFFFFFFFFFF DUP3 GT ISZERO PUSH2 0x12C4 JUMPI PUSH2 0x12C3 PUSH2 0x1232 JUMP JUMPDEST JUMPDEST PUSH2 0x12CD DUP3 PUSH2 0x113E JUMP JUMPDEST SWAP1 POP PUSH1 0x20 DUP2 ADD SWAP1 POP SWAP2 SWAP1 POP JUMP JUMPDEST DUP3 DUP2 DUP4 CALLDATACOPY PUSH0 DUP4 DUP4 ADD MSTORE POP POP POP JUMP JUMPDEST PUSH0 PUSH2 0x12FA PUSH2 0x12F5 DUP5 PUSH2 0x12AA JUMP JUMPDEST PUSH2 0x1290 JUMP JUMPDEST SWAP1 POP DUP3 DUP2 MSTORE PUSH1 0x20 DUP2 ADD DUP5 DUP5 DUP5 ADD GT ISZERO PUSH2 0x1316 JUMPI PUSH2 0x1315 PUSH2 0x122E JUMP JUMPDEST JUMPDEST PUSH2 0x1321 DUP5 DUP3 DUP6 PUSH2 0x12DA JUMP JUMPDEST POP SWAP4 SWAP3 POP POP POP JUMP JUMPDEST PUSH0 DUP3 PUSH1 0x1F DUP4 ADD SLT PUSH2 0x133D JUMPI PUSH2 0x133C PUSH2 0x122A JUMP JUMPDEST JUMPDEST DUP2 CALLDATALOAD PUSH2 0x134D DUP5 DUP3 PUSH1 0x20 DUP7 ADD PUSH2 0x12E8 JUMP JUMPDEST SWAP2 POP POP SWAP3 SWAP2 POP POP JUMP JUMPDEST PUSH2 0x135F DUP2 PUSH2 0x1195 JUMP JUMPDEST DUP2 EQ PUSH2 0x1369 JUMPI PUSH0 PUSH0 REVERT JUMPDEST POP JUMP JUMPDEST PUSH0 DUP2 CALLDATALOAD SWAP1 POP PUSH2 0x137A DUP2 PUSH2 0x1356 JUMP JUMPDEST SWAP3 SWAP2 POP POP JUMP JUMPDEST PUSH0 PUSH0 PUSH0 PUSH0 PUSH1 0x80 DUP6 DUP8 SUB SLT ISZERO PUSH2 0x1398 JUMPI PUSH2 0x1397 PUSH2 0x1071 JUMP JUMPDEST JUMPDEST PUSH0 DUP6 ADD CALLDATALOAD PUSH8 0xFFFFFFFFFFFFFFFF DUP2 GT ISZERO PUSH2 0x13B5 JUMPI PUSH2 0x13B4 PUSH2 0x1075 JUMP JUMPDEST JUMPDEST PUSH2 0x13C1 DUP8 DUP3 DUP9 ADD PUSH2 0x1329 JUMP JUMPDEST SWAP5 POP POP PUSH1 0x20 PUSH2 0x13D2 DUP8 DUP3 DUP9 ADD PUSH2 0x1098 JUMP JUMPDEST SWAP4 POP POP PUSH1 0x40 PUSH2 0x13E3 DUP8 DUP3 DUP9 ADD PUSH2 0x1098 JUMP JUMPDEST SWAP3 POP POP PUSH1 0x60 PUSH2 0x13F4 DUP8 DUP3 DUP9 ADD PUSH2 0x136C JUMP JUMPDEST SWAP2 POP POP SWAP3 SWAP6 SWAP2 SWAP5 POP SWAP3 POP JUMP JUMPDEST PUSH0 PUSH1 0x20 DUP3 ADD SWAP1 POP PUSH2 0x1413 PUSH0 DUP4 ADD DUP5 PUSH2 0x1186 JUMP JUMPDEST SWAP3 SWAP2 POP POP JUMP JUMPDEST PUSH2 0x1422 DUP2 PUSH2 0x10F6 JUMP JUMPDEST DUP2 EQ PUSH2 0x142C JUMPI PUSH0 PUSH0 REVERT JUMPDEST POP JUMP JUMPDEST PUSH0 DUP2 CALLDATALOAD SWAP1 POP PUSH2 0x143D DUP2 PUSH2 0x1419 JUMP JUMPDEST SWAP3 SWAP2 POP POP JUMP JUMPDEST PUSH0 PUSH1 0x20 DUP3 DUP5 SUB SLT ISZERO PUSH2 0x1458 JUMPI PUSH2 0x1457 PUSH2 0x1071 JUMP JUMPDEST JUMPDEST PUSH0 PUSH2 0x1465 DUP5 DUP3 DUP6 ADD PUSH2 0x142F JUMP JUMPDEST SWAP2 POP POP SWAP3 SWAP2 POP POP JUMP JUMPDEST PUSH0 PUSH1 0x20 DUP3 ADD SWAP1 POP PUSH2 0x1481 PUSH0 DUP4 ADD DUP5 PUSH2 0x11A0 JUMP JUMPDEST SWAP3 SWAP2 POP POP JUMP JUMPDEST PUSH0 PUSH0 PUSH0 PUSH1 0x60 DUP5 DUP7 SUB SLT ISZERO PUSH2 0x149E JUMPI PUSH2 0x149D PUSH2 0x1071 JUMP JUMPDEST JUMPDEST PUSH0 PUSH2 0x14AB DUP7 DUP3 DUP8 ADD PUSH2 0x142F JUMP JUMPDEST SWAP4 POP POP PUSH1 0x20 DUP5 ADD CALLDATALOAD PUSH8 0xFFFFFFFFFFFFFFFF DUP2 GT ISZERO PUSH2 0x14CC JUMPI PUSH2 0x14CB PUSH2 0x1075 JUMP JUMPDEST JUMPDEST PUSH2 0x14D8 DUP7 DUP3 DUP8 ADD PUSH2 0x1329 JUMP JUMPDEST SWAP3 POP POP PUSH1 0x40 PUSH2 0x14E9 DUP7 DUP3 DUP8 ADD PUSH2 0x1098 JUMP JUMPDEST SWAP2 POP POP SWAP3 POP SWAP3 POP SWAP3 JUMP JUMPDEST PUSH0 PUSH0 PUSH1 0x40 DUP4 DUP6 SUB SLT ISZERO PUSH2 0x1509 JUMPI PUSH2 0x1508 PUSH2 0x1071 JUMP JUMPDEST JUMPDEST PUSH0 DUP4 ADD CALLDATALOAD PUSH8 0xFFFFFFFFFFFFFFFF DUP2 GT ISZERO PUSH2 0x1526 JUMPI PUSH2 0x1525 PUSH2 0x1075 JUMP JUMPDEST JUMPDEST PUSH2 0x1532 DUP6 DUP3 DUP7 ADD PUSH2 0x1329 JUMP JUMPDEST SWAP3 POP POP PUSH1 0x20 PUSH2 0x1543 DUP6 DUP3 DUP7 ADD PUSH2 0x1098 JUMP JUMPDEST SWAP2 POP POP SWAP3 POP SWAP3 SWAP1 POP JUMP JUMPDEST PUSH0 PUSH1 0x20 DUP3 ADD SWAP1 POP DUP2 DUP2 SUB PUSH0 DUP4 ADD MSTORE PUSH2 0x1565 DUP2 DUP5 PUSH2 0x114E JUMP JUMPDEST SWAP1 POP SWAP3 SWAP2 POP POP JUMP JUMPDEST PUSH0 PUSH1 0x20 DUP3 ADD SWAP1 POP PUSH2 0x1580 PUSH0 DUP4 ADD DUP5 PUSH2 0x1107 JUMP JUMPDEST SWAP3 SWAP2 POP POP JUMP JUMPDEST PUSH0 DUP2 MLOAD SWAP1 POP SWAP2 SWAP1 POP JUMP JUMPDEST PUSH0 DUP3 DUP3 MSTORE PUSH1 0x20 DUP3 ADD SWAP1 POP SWAP3 SWAP2 POP POP JUMP JUMPDEST PUSH0 DUP2 SWAP1 POP PUSH1 0x20 DUP3 ADD SWAP1 POP SWAP2 SWAP1 POP JUMP JUMPDEST PUSH2 0x15B8 DUP2 PUSH2 0x10F6 JUMP JUMPDEST DUP3 MSTORE POP POP JUMP JUMPDEST PUSH0 DUP3 DUP3 MSTORE PUSH1 0x20 DUP3 ADD SWAP1 POP SWAP3 SWAP2 POP POP JUMP JUMPDEST PUSH0 PUSH2 0x15D8 DUP3 PUSH2 0x1116 JUMP JUMPDEST PUSH2 0x15E2 DUP2 DUP6 PUSH2 0x15BE JUMP JUMPDEST SWAP4 POP PUSH2 0x15F2 DUP2 DUP6 PUSH1 0x20 DUP7 ADD PUSH2 0x1130 JUMP JUMPDEST PUSH2 0x15FB DUP2 PUSH2 0x113E JUMP JUMPDEST DUP5 ADD SWAP2 POP POP SWAP3 SWAP2 POP POP JUMP JUMPDEST PUSH2 0x160F DUP2 PUSH2 0x1079 JUMP JUMPDEST DUP3 MSTORE POP POP JUMP JUMPDEST PUSH2 0x161E DUP2 PUSH2 0x1195 JUMP JUMPDEST DUP3 MSTORE POP POP JUMP JUMPDEST PUSH0 PUSH1 0xE0 DUP4 ADD PUSH0 DUP4 ADD MLOAD PUSH2 0x1639 PUSH0 DUP7 ADD DUP3 PUSH2 0x15AF JUMP JUMPDEST POP PUSH1 0x20 DUP4 ADD MLOAD DUP5 DUP3 SUB PUSH1 0x20 DUP7 ADD MSTORE PUSH2 0x1651 DUP3 DUP3 PUSH2 0x15CE JUMP JUMPDEST SWAP2 POP POP PUSH1 0x40 DUP4 ADD MLOAD PUSH2 0x1666 PUSH1 0x40 DUP7 ADD DUP3 PUSH2 0x1606 JUMP JUMPDEST POP PUSH1 0x60 DUP4 ADD MLOAD PUSH2 0x1679 PUSH1 0x60 DUP7 ADD DUP3 PUSH2 0x1606 JUMP JUMPDEST POP PUSH1 0x80 DUP4 ADD MLOAD DUP5 DUP3 SUB PUSH1 0x80 DUP7 ADD MSTORE PUSH2 0x1691 DUP3 DUP3 PUSH2 0x15CE JUMP JUMPDEST SWAP2 POP POP PUSH1 0xA0 DUP4 ADD MLOAD PUSH2 0x16A6 PUSH1 0xA0 DUP7 ADD DUP3 PUSH2 0x1615 JUMP JUMPDEST POP PUSH1 0xC0 DUP4 ADD MLOAD PUSH2 0x16B9 PUSH1 0xC0 DUP7 ADD DUP3 PUSH2 0x1615 JUMP JUMPDEST POP DUP1 SWAP2 POP POP SWAP3 SWAP2 POP POP JUMP JUMPDEST PUSH0 PUSH2 0x16CF DUP4 DUP4 PUSH2 0x1624 JUMP JUMPDEST SWAP1 POP SWAP3 SWAP2 POP POP JUMP JUMPDEST PUSH0 PUSH1 0x20 DUP3 ADD SWAP1 POP SWAP2 SWAP1 POP JUMP JUMPDEST PUSH0 PUSH2 0x16ED DUP3 PUSH2 0x1586 JUMP JUMPDEST PUSH2 0x16F7 DUP2 DUP6 PUSH2 0x1590 JUMP JUMPDEST SWAP4 POP DUP4 PUSH1 0x20 DUP3 MUL DUP6 ADD PUSH2 0x1709 DUP6 PUSH2 0x15A0 JUMP JUMPDEST DUP1 PUSH0 JUMPDEST DUP6 DUP2 LT ISZERO PUSH2 0x1744 JUMPI DUP5 DUP5 SUB DUP10 MSTORE DUP2 MLOAD PUSH2 0x1725 DUP6 DUP3 PUSH2 0x16C4 JUMP JUMPDEST SWAP5 POP PUSH2 0x1730 DUP4 PUSH2 0x16D7 JUMP JUMPDEST SWAP3 POP PUSH1 0x20 DUP11 ADD SWAP10 POP POP PUSH1 0x1 DUP2 ADD SWAP1 POP PUSH2 0x170C JUMP JUMPDEST POP DUP3 SWAP8 POP DUP8 SWAP6 POP POP POP POP POP POP SWAP3 SWAP2 POP POP JUMP JUMPDEST PUSH0 PUSH1 0x20 DUP3 ADD SWAP1 POP DUP2 DUP2 SUB PUSH0 DUP4 ADD MSTORE PUSH2 0x176E DUP2 DUP5 PUSH2 0x16E3 JUMP JUMPDEST SWAP1 POP SWAP3 SWAP2 POP POP JUMP JUMPDEST PUSH32 0x4E487B7100000000000000000000000000000000000000000000000000000000 PUSH0 MSTORE PUSH1 0x22 PUSH1 0x4 MSTORE PUSH1 0x24 PUSH0 REVERT JUMPDEST PUSH0 PUSH1 0x2 DUP3 DIV SWAP1 POP PUSH1 0x1 DUP3 AND DUP1 PUSH2 0x17BA JUMPI PUSH1 0x7F DUP3 AND SWAP2 POP JUMPDEST PUSH1 0x20 DUP3 LT DUP2 SUB PUSH2 0x17CD JUMPI PUSH2 0x17CC PUSH2 0x1776 JUMP JUMPDEST JUMPDEST POP SWAP2 SWAP1 POP JUMP JUMPDEST PUSH32 0x4E487B7100000000000000000000000000000000000000000000000000000000 PUSH0 MSTORE PUSH1 0x11 PUSH1 0x4 MSTORE PUSH1 0x24 PUSH0 REVERT JUMPDEST PUSH0 PUSH2 0x180A DUP3 PUSH2 0x1079 JUMP JUMPDEST SWAP2 POP PUSH2 0x1815 DUP4 PUSH2 0x1079 JUMP JUMPDEST SWAP3 POP DUP3 DUP3 SUB SWAP1 POP DUP2 DUP2 GT ISZERO PUSH2 0x182D JUMPI PUSH2 0x182C PUSH2 0x17D3 JUMP JUMPDEST JUMPDEST SWAP3 SWAP2 POP POP JUMP JUMPDEST PUSH32 0x4E487B7100000000000000000000000000000000000000000000000000000000 PUSH0 MSTORE PUSH1 0x32 PUSH1 0x4 MSTORE PUSH1 0x24 PUSH0 REVERT JUMPDEST PUSH0 DUP2 SWAP1 POP SWAP3 SWAP2 POP POP JUMP JUMPDEST PUSH0 PUSH2 0x1874 DUP3 PUSH2 0x1116 JUMP JUMPDEST PUSH2 0x187E DUP2 DUP6 PUSH2 0x1860 JUMP JUMPDEST SWAP4 POP PUSH2 0x188E DUP2 DUP6 PUSH1 0x20 DUP7 ADD PUSH2 0x1130 JUMP JUMPDEST DUP1 DUP5 ADD SWAP2 POP POP SWAP3 SWAP2 POP POP JUMP JUMPDEST PUSH0 PUSH2 0x18A5 DUP3 DUP5 PUSH2 0x186A JUMP JUMPDEST SWAP2 POP DUP2 SWAP1 POP SWAP3 SWAP2 POP POP JUMP JUMPDEST PUSH0 PUSH2 0x18BA DUP3 PUSH2 0x1079 JUMP JUMPDEST SWAP2 POP PUSH2 0x18C5 DUP4 PUSH2 0x1079 JUMP JUMPDEST SWAP3 POP DUP3 DUP3 MUL PUSH2 0x18D3 DUP2 PUSH2 0x1079 JUMP JUMPDEST SWAP2 POP DUP3 DUP3 DIV DUP5 EQ DUP4 ISZERO OR PUSH2 0x18EA JUMPI PUSH2 0x18E9 PUSH2 0x17D3 JUMP JUMPDEST JUMPDEST POP SWAP3 SWAP2 POP POP JUMP JUMPDEST PUSH0 DUP2 SWAP1 POP DUP2 PUSH0 MSTORE PUSH1 0x20 PUSH0 KECCAK256 SWAP1 POP SWAP2 SWAP1 POP JUMP JUMPDEST PUSH0 PUSH1 0x20 PUSH1 0x1F DUP4 ADD DIV SWAP1 POP SWAP2 SWAP1 POP JUMP JUMPDEST PUSH0 DUP3 DUP3 SHL SWAP1 POP SWAP3 SWAP2 POP POP JUMP JUMPDEST PUSH0 PUSH1 0x8 DUP4 MUL PUSH2 0x194D PUSH32 0xFFFFFFFFFFFFFFFFFFFFFFFFFFFFFFFFFFFFFFFFFFFFFFFFFFFFFFFFFFFFFFFF DUP3 PUSH2 0x1912 JUMP JUMPDEST PUSH2 0x1957 DUP7 DUP4 PUSH2 0x1912 JUMP JUMPDEST SWAP6 POP DUP1 NOT DUP5 AND SWAP4 POP DUP1 DUP7 AND DUP5 OR SWAP3 POP POP POP SWAP4 SWAP3 POP POP POP JUMP JUMPDEST PUSH0 DUP2 SWAP1 POP SWAP2 SWAP1 POP JUMP JUMPDEST PUSH0 PUSH2 0x1992 PUSH2 0x198D PUSH2 0x1988 DUP5 PUSH2 0x1079 JUMP JUMPDEST PUSH2 0x196F JUMP JUMPDEST PUSH2 0x1079 JUMP JUMPDEST SWAP1 POP SWAP2 SWAP1 POP JUMP JUMPDEST PUSH0 DUP2 SWAP1 POP SWAP2 SWAP1 POP JUMP JUMPDEST PUSH2 0x19AB DUP4 PUSH2 0x1978 JUMP JUMPDEST PUSH2 0x19BF PUSH2 0x19B7 DUP3 PUSH2 0x1999 JUMP JUMPDEST DUP5 DUP5 SLOAD PUSH2 0x191E JUMP JUMPDEST DUP3 SSTORE POP POP POP POP JUMP JUMPDEST PUSH0 PUSH0 SWAP1 POP SWAP1 JUMP JUMPDEST PUSH2 0x19D6 PUSH2 0x19C7 JUMP JUMPDEST PUSH2 0x19E1 DUP2 DUP5 DUP5 PUSH2 0x19A2 JUMP JUMPDEST POP POP POP JUMP JUMPDEST JUMPDEST DUP2 DUP2 LT ISZERO PUSH2 0x1A04 JUMPI PUSH2 0x19F9 PUSH0 DUP3 PUSH2 0x19CE JUMP JUMPDEST PUSH1 0x1 DUP2 ADD SWAP1 POP PUSH2 0x19E7 JUMP JUMPDEST POP POP JUMP JUMPDEST PUSH1 0x1F DUP3 GT ISZERO PUSH2 0x1A49 JUMPI PUSH2 0x1A1A DUP2 PUSH2 0x18F1 JUMP JUMPDEST PUSH2 0x1A23 DUP5 PUSH2 0x1903 JUMP JUMPDEST DUP2 ADD PUSH1 0x20 DUP6 LT ISZERO PUSH2 0x1A32 JUMPI DUP2 SWAP1 POP JUMPDEST PUSH2 0x1A46 PUSH2 0x1A3E DUP6 PUSH2 0x1903 JUMP JUMPDEST DUP4 ADD DUP3 PUSH2 0x19E6 JUMP JUMPDEST POP POP JUMPDEST POP POP POP JUMP JUMPDEST PUSH0 DUP3 DUP3 SHR SWAP1 POP SWAP3 SWAP2 POP POP JUMP JUMPDEST PUSH0 PUSH2 0x1A69 PUSH0 NOT DUP5 PUSH1 0x8 MUL PUSH2 0x1A4E JUMP JUMPDEST NOT DUP1 DUP4 AND SWAP2 POP POP SWAP3 SWAP2 POP POP JUMP JUMPDEST PUSH0 PUSH2 0x1A81 DUP4 DUP4 PUSH2 0x1A5A JUMP JUMPDEST SWAP2 POP DUP3 PUSH1 0x2 MUL DUP3 OR SWAP1 POP SWAP3 SWAP2 POP POP JUMP JUMPDEST PUSH2 0x1A9A DUP3 PUSH2 0x1116 JUMP JUMPDEST PUSH8 0xFFFFFFFFFFFFFFFF DUP2 GT ISZERO PUSH2 0x1AB3 JUMPI PUSH2 0x1AB2 PUSH2 0x1232 JUMP JUMPDEST JUMPDEST PUSH2 0x1ABD DUP3 SLOAD PUSH2 0x17A3 JUMP JUMPDEST PUSH2 0x1AC8 DUP3 DUP3 DUP6 PUSH2 0x1A08 JUMP JUMPDEST PUSH0 PUSH1 0x20 SWAP1 POP PUSH1 0x1F DUP4 GT PUSH1 0x1 DUP2 EQ PUSH2 0x1AF9 JUMPI PUSH0 DUP5 ISZERO PUSH2 0x1AE7 JUMPI DUP3 DUP8 ADD MLOAD SWAP1 POP JUMPDEST PUSH2 0x1AF1 DUP6 DUP3 PUSH2 0x1A76 JUMP JUMPDEST DUP7 SSTORE POP PUSH2 0x1B58 JUMP JUMPDEST PUSH1 0x1F NOT DUP5 AND PUSH2 0x1B07 DUP7 PUSH2 0x18F1 JUMP JUMPDEST PUSH0 JUMPDEST DUP3 DUP2 LT ISZERO PUSH2 0x1B2E JUMPI DUP5 DUP10 ADD MLOAD DUP3 SSTORE PUSH1 0x1 DUP3 ADD SWAP2 POP PUSH1 0x20 DUP6 ADD SWAP5 POP PUSH1 0x20 DUP2 ADD SWAP1 POP PUSH2 0x1B09 JUMP JUMPDEST DUP7 DUP4 LT ISZERO PUSH2 0x1B4B JUMPI DUP5 DUP10 ADD MLOAD PUSH2 0x1B47 PUSH1 0x1F DUP10 AND DUP3 PUSH2 0x1A5A JUMP JUMPDEST DUP4 SSTORE POP JUMPDEST PUSH1 0x1 PUSH1 0x2 DUP9 MUL ADD DUP9 SSTORE POP POP POP JUMPDEST POP POP POP POP POP POP JUMP JUMPDEST PUSH0 PUSH2 0x1B6A DUP3 PUSH2 0x1079 JUMP JUMPDEST SWAP2 POP PUSH32 0xFFFFFFFFFFFFFFFFFFFFFFFFFFFFFFFFFFFFFFFFFFFFFFFFFFFFFFFFFFFFFFFF DUP3 SUB PUSH2 0x1B9C JUMPI PUSH2 0x1B9B PUSH2 0x17D3 JUMP JUMPDEST JUMPDEST PUSH1 0x1 DUP3 ADD SWAP1 POP SWAP2 SWAP1 POP JUMP JUMPDEST PUSH0 DUP2 SLOAD PUSH2 0x1BB3 DUP2 PUSH2 0x17A3 JUMP JUMPDEST PUSH2 0x1BBD DUP2 DUP7 PUSH2 0x1860 JUMP JUMPDEST SWAP5 POP PUSH1 0x1 DUP3 AND PUSH0 DUP2 EQ PUSH2 0x1BD7 JUMPI PUSH1 0x1 DUP2 EQ PUSH2 0x1BEC JUMPI PUSH2 0x1C1E JUMP JUMPDEST PUSH1 0xFF NOT DUP4 AND DUP7 MSTORE DUP2 ISZERO ISZERO DUP3 MUL DUP7 ADD SWAP4 POP PUSH2 0x1C1E JUMP JUMPDEST PUSH2 0x1BF5 DUP6 PUSH2 0x18F1 JUMP JUMPDEST PUSH0 JUMPDEST DUP4 DUP2 LT ISZERO PUSH2 0x1C16 JUMPI DUP2 SLOAD DUP2 DUP10 ADD MSTORE PUSH1 0x1 DUP3 ADD SWAP2 POP PUSH1 0x20 DUP2 ADD SWAP1 POP PUSH2 0x1BF7 JUMP JUMPDEST DUP4 DUP9 ADD SWAP6 POP POP POP JUMPDEST POP POP POP SWAP3 SWAP2 POP POP JUMP JUMPDEST PUSH0 PUSH2 0x1C32 DUP3 DUP5 PUSH2 0x1BA7 JUMP JUMPDEST SWAP2 POP DUP2 SWAP1 POP SWAP3 SWAP2 POP POP JUMP JUMPDEST PUSH32 0x4E6F20617661696C61626C65207469636B65747320666F722074686520737065 PUSH0 DUP3 ADD MSTORE PUSH32 0x6369666965642064657374696E6174696F6E0000000000000000000000000000 PUSH1 0x20 DUP3 ADD MSTORE POP JUMP JUMPDEST PUSH0 PUSH2 0x1C97 PUSH1 0x32 DUP4 PUSH2 0x1120 JUMP JUMPDEST SWAP2 POP PUSH2 0x1CA2 DUP3 PUSH2 0x1C3D JUMP JUMPDEST PUSH1 0x40 DUP3 ADD SWAP1 POP SWAP2 SWAP1 POP JUMP JUMPDEST PUSH0 PUSH1 0x20 DUP3 ADD SWAP1 POP DUP2 DUP2 SUB PUSH0 DUP4 ADD MSTORE PUSH2 0x1CC4 DUP2 PUSH2 0x1C8B JUMP JUMPDEST SWAP1 POP SWAP2 SWAP1 POP JUMP INVALID LOG2 PUSH5 0x6970667358 0x22 SLT KECCAK256 MSTORE 0x29 DUP7 ORIGIN 0xB9 PREVRANDAO MLOAD CODECOPY POP 0xEF 0xC5 0x25 DUP13 SWAP14 DUP1 PUSH18 0xF9184759F020126B5454D8769E70AA836473 PUSH16 0x6C634300081C00330000000000000000 "},"gasEstimates":{"creation":{"codeDepositCost":"1485000","executionCost":"infinite","totalCost":"infinite"},"external":{"bookFlight(string,uint256,uint256,bool)":"infinite","ceo()":"2529","classMultiplier(uint256)":"infinite","create30Tickets(address,string,uint256)":"infinite","createDestination(string,uint256)":"infinite","destinationPrices(uint256)":"infinite","destinations(uint256)":"infinite","getBookedFlights(address)":"infinite","getPrice(string,uint256,uint256,bool)":"infinite","isCeo(address)":"2844","monthMultiplier(uint256)":"infinite","nextTicketId()":"2448","ticketDetails(uint256)":"infinite"}},"methodIdentifiers":{"bookFlight(string,uint256,uint256,bool)":"ea6e358e","ceo()":"908921fc","classMultiplier(uint256)":"695dc67e","create30Tickets(address,string,uint256)":"4afe9f7b","createDestination(string,uint256)":"5e583e37","destinationPrices(uint256)":"195c1445","destinations(uint256)":"8dd4ba2e","getBookedFlights(address)":"ad03fe70","getPrice(string,uint256,uint256,bool)":"07819bd6","isCeo(address)":"1165e6ab","monthMultiplier(uint256)":"cb2cc82a","nextTicketId()":"6031a52f","ticketDetails(uint256)":"033fab35"}},"storageLayout":{"storage":[{"astId":18,"contract":"AirlineManagement.sol:AirlineManagement","label":"ceo","offset":0,"slot":"0","type":"t_address"},{"astId":21,"contract":"AirlineManagement.sol:AirlineManagement","label":"destinations","offset":0,"slot":"1","type":"t_array(t_string_storage)dyn_storage"},{"astId":24,"contract":"AirlineManagement.sol:AirlineManagement","label":"destinationPrices","offset":0,"slot":"2","type":"t_array(t_uint256)dyn_storage"},{"astId":28,"contract":"AirlineManagement.sol:AirlineManagement","label":"indexes","offset":0,"slot":"3","type":"t_mapping(t_string_memory_ptr,t_uint256)"},{"astId":32,"contract":"AirlineManagement.sol:AirlineManagement","label":"monthMultiplier","offset":0,"slot":"4","type":"t_array(t_uint256)12_storage"},{"astId":36,"contract":"AirlineManagement.sol:AirlineManagement","label":"classMultiplier","offset":0,"slot":"16","type":"t_array(t_uint256)3_storage"},{"astId":38,"contract":"AirlineManagement.sol:AirlineManagement","label":"count","offset":0,"slot":"19","type":"t_uint256"},{"astId":43,"contract":"AirlineManagement.sol:AirlineManagement","label":"ticketDetails","offset":0,"slot":"20","type":"t_mapping(t_uint256,t_struct(Ticket)16_storage)"},{"astId":45,"contract":"AirlineManagement.sol:AirlineManagement","label":"nextTicketId","offset":0,"slot":"21","type":"t_uint256"}],"types":{"t_address":{"encoding":"inplace","label":"address","numberOfBytes":"20"},"t_array(t_string_storage)dyn_storage":{"base":"t_string_storage","encoding":"dynamic_array","label":"string[]","numberOfBytes":"32"},"t_array(t_uint256)12_storage":{"base":"t_uint256","encoding":"inplace","label":"uint256[12]","numberOfBytes":"384"},"t_array(t_uint256)3_storage":{"base":"t_uint256","encoding":"inplace","label":"uint256[3]","numberOfBytes":"96"},"t_array(t_uint256)dyn_storage":{"base":"t_uint256","encoding":"dynamic_array","label":"uint256[]","numberOfBytes":"32"},"t_bool":{"encoding":"inplace","label":"bool","numberOfBytes":"1"},"t_mapping(t_string_memory_ptr,t_uint256)":{"encoding":"mapping","key":"t_string_memory_ptr","label":"mapping(string => uint256)","numberOfBytes":"32","value":"t_uint256"},"t_mapping(t_uint256,t_struct(Ticket)16_storage)":{"encoding":"mapping","key":"t_uint256","label":"mapping(uint256 => struct AirlineManagement.Ticket)","numberOfBytes":"32","value":"t_struct(Ticket)16_storage"},"t_string_memory_ptr":{"encoding":"bytes","label":"string","numberOfBytes":"32"},"t_string_storage":{"encoding":"bytes","label":"string","numberOfBytes":"32"},"t_struct(Ticket)16_storage":{"encoding":"inplace","label":"struct AirlineManagement.Ticket","members":[{"astId":3,"contract":"AirlineManagement.sol:AirlineManagement","label":"owner","offset":0,"slot":"0","type":"t_address"},{"astId":5,"contract":"AirlineManagement.sol:AirlineManagement","label":"destination","offset":0,"slot":"1","type":"t_string_storage"},{"astId":7,"contract":"AirlineManagement.sol:AirlineManagement","label":"price","offset":0,"slot":"2","type":"t_uint256"},{"astId":9,"contract":"AirlineManagement.sol:AirlineManagement","label":"seat","offset":0,"slot":"3","type":"t_uint256"},{"astId":11,"contract":"AirlineManagement.sol:AirlineManagement","label":"class","offset":0,"slot":"4","type":"t_string_storage"},{"astId":13,"contract":"AirlineManagement.sol:AirlineManagement","label":"roundTrip","offset":0,"slot":"5","type":"t_bool"},{"astId":15,"contract":"AirlineManagement.sol:AirlineManagement","label":"isAvailable","offset":1,"slot":"5","type":"t_bool"}],"numberOfBytes":"192"},"t_uint256":{"encoding":"inplace","label":"uint256","numberOfBytes":"32"}}},"transientStorageLayout":{"storage":[],"types":null},"userdoc":{"kind":"user","methods":{},"version":1}}