{"abi":[{"inputs":[{"internalType":"string","name":"destination","type":"string"},{"internalType":"uint256","name":"destinationPrice","type":"uint256"}],"stateMutability":"nonpayable","type":"constructor"},{"inputs":[{"internalType":"string","name":"destination","type":"string"},{"internalType":"uint256","name":"month","type":"uint256"},{"internalType":"uint256","name":"class","type":"uint256"},{"internalType":"bool","name":"way","type":"bool"}],"name":"bookFlight","outputs":[],"stateMutability":"payable","type":"function"},{"inputs":[],"name":"canPayout","outputs":[{"internalType":"bool","name":"","type":"bool"}],"stateMutability":"view","type":"function"},{"inputs":[],"name":"ceo","outputs":[{"internalType":"address","name":"","type":"address"}],"stateMutability":"view","type":"function"},{"inputs":[{"internalType":"uint256","name":"","type":"uint256"}],"name":"classMultiplier","outputs":[{"internalType":"uint256","name":"","type":"uint256"}],"stateMutability":"view","type":"function"},{"inputs":[],"name":"count","outputs":[{"internalType":"uint256","name":"","type":"uint256"}],"stateMutability":"view","type":"function"},{"inputs":[{"internalType":"string","name":"destination","type":"string"},{"internalType":"uint256","name":"destinationPrice","type":"uint256"}],"name":"createDestination","outputs":[],"stateMutability":"nonpayable","type":"function"},{"inputs":[{"internalType":"uint256","name":"","type":"uint256"}],"name":"destinationPrices","outputs":[{"internalType":"uint256","name":"","type":"uint256"}],"stateMutability":"view","type":"function"},{"inputs":[{"internalType":"uint256","name":"","type":"uint256"}],"name":"destinations","outputs":[{"internalType":"string","name":"","type":"string"}],"stateMutability":"view","type":"function"},{"inputs":[{"internalType":"address","name":"user","type":"address"}],"name":"getBookedFlights","outputs":[{"components":[{"internalType":"address","name":"owner","type":"address"},{"internalType":"string","name":"destination","type":"string"},{"internalType":"uint256","name":"price","type":"uint256"},{"internalType":"uint256","name":"seat","type":"uint256"},{"internalType":"string","name":"class","type":"string"},{"internalType":"bool","name":"roundTrip","type":"bool"},{"internalType":"bool","name":"isAvailable","type":"bool"},{"internalType":"uint256","name":"month","type":"uint256"}],"internalType":"struct AirlineManagement.Ticket[]","name":"","type":"tuple[]"}],"stateMutability":"view","type":"function"},{"inputs":[{"internalType":"string","name":"destination","type":"string"},{"internalType":"uint256","name":"month","type":"uint256"},{"internalType":"uint256","name":"class","type":"uint256"},{"internalType":"bool","name":"way","type":"bool"}],"name":"getPrice","outputs":[{"internalType":"uint256","name":"","type":"uint256"}],"stateMutability":"view","type":"function"},{"inputs":[{"internalType":"string","name":"","type":"string"}],"name":"indexes","outputs":[{"internalType":"uint256","name":"","type":"uint256"}],"stateMutability":"view","type":"function"},{"inputs":[{"internalType":"address","name":"user","type":"address"}],"name":"isCeo","outputs":[{"internalType":"bool","name":"","type":"bool"}],"stateMutability":"view","type":"function"},{"inputs":[{"internalType":"uint256","name":"","type":"uint256"}],"name":"monthMultiplier","outputs":[{"internalType":"uint256","name":"","type":"uint256"}],"stateMutability":"view","type":"function"},{"inputs":[],"name":"nextTicketId","outputs":[{"internalType":"uint256","name":"","type":"uint256"}],"stateMutability":"view","type":"function"},{"inputs":[],"name":"payAmount","outputs":[{"internalType":"uint256","name":"","type":"uint256"}],"stateMutability":"view","type":"function"},{"inputs":[],"name":"payCEO","outputs":[],"stateMutability":"nonpayable","type":"function"},{"inputs":[{"internalType":"uint256","name":"","type":"uint256"}],"name":"seats","outputs":[{"internalType":"uint256","name":"","type":"uint256"}],"stateMutability":"view","type":"function"},{"inputs":[{"internalType":"uint256","name":"","type":"uint256"}],"name":"ticketDetails","outputs":[{"internalType":"address","name":"owner","type":"address"},{"internalType":"string","name":"destination","type":"string"},{"internalType":"uint256","name":"price","type":"uint256"},{"internalType":"uint256","name":"seat","type":"uint256"},{"internalType":"string","name":"class","type":"string"},{"internalType":"bool","name":"roundTrip","type":"bool"},{"internalType":"bool","name":"isAvailable","type":"bool"},{"internalType":"uint256","name":"month","type":"uint256"}],"stateMutability":"view","type":"function"}],"devdoc":{"kind":"dev","methods":{},"version":1},"evm":{"assembly":"    /* \"AirlineManagement.sol\":64:6640  contract AirlineManagement {... */\n  mstore(0x40, 0x80)\n    /* \"AirlineManagement.sol\":1244:2247  constructor(string memory destination, uint256 destinationPrice) {... */\n  callvalue\n  dup1\n  iszero\n  tag_1\n  jumpi\n  revert(0x00, 0x00)\ntag_1:\n  pop\n  mload(0x40)\n  sub(codesize, bytecodeSize)\n  dup1\n  bytecodeSize\n  dup4\n  codecopy\n  dup2\n  dup2\n  add\n  0x40\n  mstore\n  dup2\n  add\n  swap1\n  tag_2\n  swap2\n  swap1\n  tag_3\n  jump\t// in\ntag_2:\n    /* \"AirlineManagement.sol\":1326:1336  msg.sender */\n  caller\n    /* \"AirlineManagement.sol\":1320:1323  ceo */\n  0x00\n  0x00\n    /* \"AirlineManagement.sol\":1320:1336  ceo = msg.sender */\n  0x0100\n  exp\n  dup2\n  sload\n  dup2\n  0xffffffffffffffffffffffffffffffffffffffff\n  mul\n  not\n  and\n  swap1\n  dup4\n  0xffffffffffffffffffffffffffffffffffffffff\n  and\n  mul\n  or\n  swap1\n  sstore\n  pop\n    /* \"AirlineManagement.sol\":1359:1364  false */\n  0x00\n    /* \"AirlineManagement.sol\":1347:1356  canPayout */\n  0x15\n  0x00\n    /* \"AirlineManagement.sol\":1347:1364  canPayout = false */\n  0x0100\n  exp\n  dup2\n  sload\n  dup2\n  0xff\n  mul\n  not\n  and\n  swap1\n  dup4\n  iszero\n  iszero\n  mul\n  or\n  swap1\n  sstore\n  pop\n    /* \"AirlineManagement.sol\":1387:1388  0 */\n  0x00\n    /* \"AirlineManagement.sol\":1375:1384  payAmount */\n  0x16\n    /* \"AirlineManagement.sol\":1375:1388  payAmount = 0 */\n  dup2\n  swap1\n  sstore\n  pop\n    /* \"AirlineManagement.sol\":1407:1408  0 */\n  0x00\n    /* \"AirlineManagement.sol\":1399:1404  count */\n  0x14\n    /* \"AirlineManagement.sol\":1399:1408  count = 0 */\n  dup2\n  swap1\n  sstore\n  pop\n    /* \"AirlineManagement.sol\":1419:1431  destinations */\n  0x01\n    /* \"AirlineManagement.sol\":1437:1448  destination */\n  dup3\n    /* \"AirlineManagement.sol\":1419:1449  destinations.push(destination) */\n  swap1\n  dup1\n  0x01\n  dup2\n  sload\n  add\n  dup1\n  dup3\n  sstore\n  dup1\n  swap2\n  pop\n  pop\n  0x01\n  swap1\n  sub\n  swap1\n  0x00\n  mstore\n  keccak256(0x00, 0x20)\n  add\n  0x00\n  swap1\n  swap2\n  swap1\n  swap2\n  swap1\n  swap2\n  pop\n  swap1\n  dup2\n  tag_7\n  swap2\n  swap1\n  tag_8\n  jump\t// in\ntag_7:\n  pop\n    /* \"AirlineManagement.sol\":1460:1477  destinationPrices */\n  0x02\n    /* \"AirlineManagement.sol\":1483:1499  destinationPrice */\n  dup2\n    /* \"AirlineManagement.sol\":1460:1500  destinationPrices.push(destinationPrice) */\n  swap1\n  dup1\n  0x01\n  dup2\n  sload\n  add\n  dup1\n  dup3\n  sstore\n  dup1\n  swap2\n  pop\n  pop\n  0x01\n  swap1\n  sub\n  swap1\n  0x00\n  mstore\n  keccak256(0x00, 0x20)\n  add\n  0x00\n  swap1\n  swap2\n  swap1\n  swap2\n  swap1\n  swap2\n  pop\n  sstore\n    /* \"AirlineManagement.sol\":1511:1516  seats */\n  0x03\n    /* \"AirlineManagement.sol\":1522:1524  30 */\n  0x1e\n    /* \"AirlineManagement.sol\":1511:1525  seats.push(30) */\n  swap1\n  dup1\n  0x01\n  dup2\n  sload\n  add\n  dup1\n  dup3\n  sstore\n  dup1\n  swap2\n  pop\n  pop\n  0x01\n  swap1\n  sub\n  swap1\n  0x00\n  mstore\n  keccak256(0x00, 0x20)\n  add\n  0x00\n  swap1\n  swap2\n  swap1\n  swap2\n  swap1\n  swap2\n  pop\n  sstore\n    /* \"AirlineManagement.sol\":1559:1564  count */\n  sload(0x14)\n    /* \"AirlineManagement.sol\":1536:1543  indexes */\n  0x04\n    /* \"AirlineManagement.sol\":1544:1555  destination */\n  dup4\n    /* \"AirlineManagement.sol\":1536:1556  indexes[destination] */\n  mload(0x40)\n  tag_11\n  swap2\n  swap1\n  tag_12\n  jump\t// in\ntag_11:\n  swap1\n  dup2\n  mstore\n  0x20\n  add\n  mload(0x40)\n  dup1\n  swap2\n  sub\n  swap1\n  keccak256\n    /* \"AirlineManagement.sol\":1536:1564  indexes[destination] = count */\n  dup2\n  swap1\n  sstore\n  pop\n    /* \"AirlineManagement.sol\":1575:1633  create30Tickets(msg.sender, destination, destinationPrice) */\n  tag_13\n    /* \"AirlineManagement.sol\":1591:1601  msg.sender */\n  caller\n    /* \"AirlineManagement.sol\":1603:1614  destination */\n  dup4\n    /* \"AirlineManagement.sol\":1616:1632  destinationPrice */\n  dup4\n    /* \"AirlineManagement.sol\":1575:1590  create30Tickets */\n  shl(0x20, tag_14)\n    /* \"AirlineManagement.sol\":1575:1633  create30Tickets(msg.sender, destination, destinationPrice) */\n  0x20\n  shr\n  jump\t// in\ntag_13:\n    /* \"AirlineManagement.sol\":1706:1707  3 */\n  0x03\n    /* \"AirlineManagement.sol\":1685:1700  monthMultiplier */\n  0x05\n    /* \"AirlineManagement.sol\":1701:1702  0 */\n  0x00\n    /* \"AirlineManagement.sol\":1685:1703  monthMultiplier[0] */\n  0x0c\n  dup2\n  lt\n  tag_15\n  jumpi\n  tag_16\n  tag_17\n  jump\t// in\ntag_16:\ntag_15:\n  add\n    /* \"AirlineManagement.sol\":1685:1707  monthMultiplier[0] = 3 */\n  dup2\n  swap1\n  sstore\n  pop\n    /* \"AirlineManagement.sol\":1739:1740  2 */\n  0x02\n    /* \"AirlineManagement.sol\":1718:1733  monthMultiplier */\n  0x05\n    /* \"AirlineManagement.sol\":1734:1735  1 */\n  0x01\n    /* \"AirlineManagement.sol\":1718:1736  monthMultiplier[1] */\n  0x0c\n  dup2\n  lt\n  tag_19\n  jumpi\n  tag_20\n  tag_17\n  jump\t// in\ntag_20:\ntag_19:\n  add\n    /* \"AirlineManagement.sol\":1718:1740  monthMultiplier[1] = 2 */\n  dup2\n  swap1\n  sstore\n  pop\n    /* \"AirlineManagement.sol\":1772:1773  4 */\n  0x04\n    /* \"AirlineManagement.sol\":1751:1766  monthMultiplier */\n  0x05\n    /* \"AirlineManagement.sol\":1767:1768  2 */\n  0x02\n    /* \"AirlineManagement.sol\":1751:1769  monthMultiplier[2] */\n  0x0c\n  dup2\n  lt\n  tag_22\n  jumpi\n  tag_23\n  tag_17\n  jump\t// in\ntag_23:\ntag_22:\n  add\n    /* \"AirlineManagement.sol\":1751:1773  monthMultiplier[2] = 4 */\n  dup2\n  swap1\n  sstore\n  pop\n    /* \"AirlineManagement.sol\":1805:1806  5 */\n  0x05\n    /* \"AirlineManagement.sol\":1784:1799  monthMultiplier */\n  dup1\n    /* \"AirlineManagement.sol\":1800:1801  3 */\n  0x03\n    /* \"AirlineManagement.sol\":1784:1802  monthMultiplier[3] */\n  0x0c\n  dup2\n  lt\n  tag_25\n  jumpi\n  tag_26\n  tag_17\n  jump\t// in\ntag_26:\ntag_25:\n  add\n    /* \"AirlineManagement.sol\":1784:1806  monthMultiplier[3] = 5 */\n  dup2\n  swap1\n  sstore\n  pop\n    /* \"AirlineManagement.sol\":1838:1839  3 */\n  0x03\n    /* \"AirlineManagement.sol\":1817:1832  monthMultiplier */\n  0x05\n    /* \"AirlineManagement.sol\":1833:1834  4 */\n  0x04\n    /* \"AirlineManagement.sol\":1817:1835  monthMultiplier[4] */\n  0x0c\n  dup2\n  lt\n  tag_28\n  jumpi\n  tag_29\n  tag_17\n  jump\t// in\ntag_29:\ntag_28:\n  add\n    /* \"AirlineManagement.sol\":1817:1839  monthMultiplier[4] = 3 */\n  dup2\n  swap1\n  sstore\n  pop\n    /* \"AirlineManagement.sol\":1871:1873  12 */\n  0x0c\n    /* \"AirlineManagement.sol\":1850:1865  monthMultiplier */\n  0x05\n    /* \"AirlineManagement.sol\":1866:1867  5 */\n  dup1\n    /* \"AirlineManagement.sol\":1850:1868  monthMultiplier[5] */\n  0x0c\n  dup2\n  lt\n  tag_31\n  jumpi\n  tag_32\n  tag_17\n  jump\t// in\ntag_32:\ntag_31:\n  add\n    /* \"AirlineManagement.sol\":1850:1873  monthMultiplier[5] = 12 */\n  dup2\n  swap1\n  sstore\n  pop\n    /* \"AirlineManagement.sol\":1905:1907  11 */\n  0x0b\n    /* \"AirlineManagement.sol\":1884:1899  monthMultiplier */\n  0x05\n    /* \"AirlineManagement.sol\":1900:1901  6 */\n  0x06\n    /* \"AirlineManagement.sol\":1884:1902  monthMultiplier[6] */\n  0x0c\n  dup2\n  lt\n  tag_34\n  jumpi\n  tag_35\n  tag_17\n  jump\t// in\ntag_35:\ntag_34:\n  add\n    /* \"AirlineManagement.sol\":1884:1907  monthMultiplier[6] = 11 */\n  dup2\n  swap1\n  sstore\n  pop\n    /* \"AirlineManagement.sol\":1939:1941  12 */\n  0x0c\n    /* \"AirlineManagement.sol\":1918:1933  monthMultiplier */\n  0x05\n    /* \"AirlineManagement.sol\":1934:1935  7 */\n  0x07\n    /* \"AirlineManagement.sol\":1918:1936  monthMultiplier[7] */\n  0x0c\n  dup2\n  lt\n  tag_37\n  jumpi\n  tag_38\n  tag_17\n  jump\t// in\ntag_38:\ntag_37:\n  add\n    /* \"AirlineManagement.sol\":1918:1941  monthMultiplier[7] = 12 */\n  dup2\n  swap1\n  sstore\n  pop\n    /* \"AirlineManagement.sol\":1973:1975  15 */\n  0x0f\n    /* \"AirlineManagement.sol\":1952:1967  monthMultiplier */\n  0x05\n    /* \"AirlineManagement.sol\":1968:1969  8 */\n  0x08\n    /* \"AirlineManagement.sol\":1952:1970  monthMultiplier[8] */\n  0x0c\n  dup2\n  lt\n  tag_40\n  jumpi\n  tag_41\n  tag_17\n  jump\t// in\ntag_41:\ntag_40:\n  add\n    /* \"AirlineManagement.sol\":1952:1975  monthMultiplier[8] = 15 */\n  dup2\n  swap1\n  sstore\n  pop\n    /* \"AirlineManagement.sol\":2007:2009  14 */\n  0x0e\n    /* \"AirlineManagement.sol\":1986:2001  monthMultiplier */\n  0x05\n    /* \"AirlineManagement.sol\":2002:2003  9 */\n  0x09\n    /* \"AirlineManagement.sol\":1986:2004  monthMultiplier[9] */\n  0x0c\n  dup2\n  lt\n  tag_43\n  jumpi\n  tag_44\n  tag_17\n  jump\t// in\ntag_44:\ntag_43:\n  add\n    /* \"AirlineManagement.sol\":1986:2009  monthMultiplier[9] = 14 */\n  dup2\n  swap1\n  sstore\n  pop\n    /* \"AirlineManagement.sol\":2042:2044  11 */\n  0x0b\n    /* \"AirlineManagement.sol\":2020:2035  monthMultiplier */\n  0x05\n    /* \"AirlineManagement.sol\":2036:2038  10 */\n  0x0a\n    /* \"AirlineManagement.sol\":2020:2039  monthMultiplier[10] */\n  0x0c\n  dup2\n  lt\n  tag_46\n  jumpi\n  tag_47\n  tag_17\n  jump\t// in\ntag_47:\ntag_46:\n  add\n    /* \"AirlineManagement.sol\":2020:2044  monthMultiplier[10] = 11 */\n  dup2\n  swap1\n  sstore\n  pop\n    /* \"AirlineManagement.sol\":2077:2079  13 */\n  0x0d\n    /* \"AirlineManagement.sol\":2055:2070  monthMultiplier */\n  0x05\n    /* \"AirlineManagement.sol\":2071:2073  11 */\n  0x0b\n    /* \"AirlineManagement.sol\":2055:2074  monthMultiplier[11] */\n  0x0c\n  dup2\n  lt\n  tag_49\n  jumpi\n  tag_50\n  tag_17\n  jump\t// in\ntag_50:\ntag_49:\n  add\n    /* \"AirlineManagement.sol\":2055:2079  monthMultiplier[11] = 13 */\n  dup2\n  swap1\n  sstore\n  pop\n    /* \"AirlineManagement.sol\":2152:2153  1 */\n  0x01\n    /* \"AirlineManagement.sol\":2131:2146  classMultiplier */\n  0x11\n    /* \"AirlineManagement.sol\":2147:2148  0 */\n  0x00\n    /* \"AirlineManagement.sol\":2131:2149  classMultiplier[0] */\n  0x03\n  dup2\n  lt\n  tag_52\n  jumpi\n  tag_53\n  tag_17\n  jump\t// in\ntag_53:\ntag_52:\n  add\n    /* \"AirlineManagement.sol\":2131:2153  classMultiplier[0] = 1 */\n  dup2\n  swap1\n  sstore\n  pop\n    /* \"AirlineManagement.sol\":2185:2186  2 */\n  0x02\n    /* \"AirlineManagement.sol\":2164:2179  classMultiplier */\n  0x11\n    /* \"AirlineManagement.sol\":2180:2181  1 */\n  0x01\n    /* \"AirlineManagement.sol\":2164:2182  classMultiplier[1] */\n  0x03\n  dup2\n  lt\n  tag_55\n  jumpi\n  tag_56\n  tag_17\n  jump\t// in\ntag_56:\ntag_55:\n  add\n    /* \"AirlineManagement.sol\":2164:2186  classMultiplier[1] = 2 */\n  dup2\n  swap1\n  sstore\n  pop\n    /* \"AirlineManagement.sol\":2218:2219  3 */\n  0x03\n    /* \"AirlineManagement.sol\":2197:2212  classMultiplier */\n  0x11\n    /* \"AirlineManagement.sol\":2213:2214  2 */\n  0x02\n    /* \"AirlineManagement.sol\":2197:2215  classMultiplier[2] */\n  0x03\n  dup2\n  lt\n  tag_58\n  jumpi\n  tag_59\n  tag_17\n  jump\t// in\ntag_59:\ntag_58:\n  add\n    /* \"AirlineManagement.sol\":2197:2219  classMultiplier[2] = 3 */\n  dup2\n  swap1\n  sstore\n  pop\n    /* \"AirlineManagement.sol\":2232:2237  count */\n  0x14\n  0x00\n    /* \"AirlineManagement.sol\":2232:2239  count++ */\n  dup2\n  sload\n  dup1\n  swap3\n  swap2\n  swap1\n  tag_61\n  swap1\n  tag_62\n  jump\t// in\ntag_61:\n  swap2\n  swap1\n  pop\n  sstore\n  pop\n    /* \"AirlineManagement.sol\":1244:2247  constructor(string memory destination, uint256 destinationPrice) {... */\n  pop\n  pop\n    /* \"AirlineManagement.sol\":64:6640  contract AirlineManagement {... */\n  jump(tag_63)\n    /* \"AirlineManagement.sol\":2940:3286  function create30Tickets(address owner, string memory destination, uint256 price) private restricted {... */\ntag_14:\n    /* \"AirlineManagement.sol\":1176:1179  ceo */\n  0x00\n  0x00\n  swap1\n  sload\n  swap1\n  0x0100\n  exp\n  swap1\n  div\n  0xffffffffffffffffffffffffffffffffffffffff\n  and\n    /* \"AirlineManagement.sol\":1162:1179  msg.sender == ceo */\n  0xffffffffffffffffffffffffffffffffffffffff\n  and\n    /* \"AirlineManagement.sol\":1162:1172  msg.sender */\n  caller\n    /* \"AirlineManagement.sol\":1162:1179  msg.sender == ceo */\n  0xffffffffffffffffffffffffffffffffffffffff\n  and\n  eq\n    /* \"AirlineManagement.sol\":1154:1180  require(msg.sender == ceo) */\n  tag_65\n  jumpi\n  revert(0x00, 0x00)\ntag_65:\n    /* \"AirlineManagement.sol\":3057:3069  uint256 seat */\n  0x00\n    /* \"AirlineManagement.sol\":3072:3073  0 */\n  0x00\n    /* \"AirlineManagement.sol\":3057:3073  uint256 seat = 0 */\n  swap1\n  pop\n    /* \"AirlineManagement.sol\":3052:3279  for (uint256 seat = 0; seat < 30; seat++) {... */\ntag_67:\n    /* \"AirlineManagement.sol\":3082:3084  30 */\n  0x1e\n    /* \"AirlineManagement.sol\":3075:3079  seat */\n  dup2\n    /* \"AirlineManagement.sol\":3075:3084  seat < 30 */\n  lt\n    /* \"AirlineManagement.sol\":3052:3279  for (uint256 seat = 0; seat < 30; seat++) {... */\n  iszero\n  tag_68\n  jumpi\n    /* \"AirlineManagement.sol\":3109:3124  uint256 tokenId */\n  0x00\n    /* \"AirlineManagement.sol\":3127:3139  nextTicketId */\n  sload(0x18)\n    /* \"AirlineManagement.sol\":3109:3139  uint256 tokenId = nextTicketId */\n  swap1\n  pop\n    /* \"AirlineManagement.sol\":3179:3238  Ticket(owner, destination, price, seat, \"\", false, true, 0) */\n  mload(0x40)\n  dup1\n  0x0100\n  add\n  0x40\n  mstore\n  dup1\n    /* \"AirlineManagement.sol\":3186:3191  owner */\n  dup7\n    /* \"AirlineManagement.sol\":3179:3238  Ticket(owner, destination, price, seat, \"\", false, true, 0) */\n  0xffffffffffffffffffffffffffffffffffffffff\n  and\n  dup2\n  mstore\n  0x20\n  add\n    /* \"AirlineManagement.sol\":3193:3204  destination */\n  dup6\n    /* \"AirlineManagement.sol\":3179:3238  Ticket(owner, destination, price, seat, \"\", false, true, 0) */\n  dup2\n  mstore\n  0x20\n  add\n    /* \"AirlineManagement.sol\":3206:3211  price */\n  dup5\n    /* \"AirlineManagement.sol\":3179:3238  Ticket(owner, destination, price, seat, \"\", false, true, 0) */\n  dup2\n  mstore\n  0x20\n  add\n    /* \"AirlineManagement.sol\":3213:3217  seat */\n  dup4\n    /* \"AirlineManagement.sol\":3179:3238  Ticket(owner, destination, price, seat, \"\", false, true, 0) */\n  dup2\n  mstore\n  0x20\n  add\n  mload(0x40)\n  dup1\n  0x20\n  add\n  0x40\n  mstore\n  dup1\n  0x00\n  dup2\n  mstore\n  pop\n  dup2\n  mstore\n  0x20\n  add\n    /* \"AirlineManagement.sol\":3223:3228  false */\n  0x00\n    /* \"AirlineManagement.sol\":3179:3238  Ticket(owner, destination, price, seat, \"\", false, true, 0) */\n  iszero\n  iszero\n  dup2\n  mstore\n  0x20\n  add\n    /* \"AirlineManagement.sol\":3230:3234  true */\n  0x01\n    /* \"AirlineManagement.sol\":3179:3238  Ticket(owner, destination, price, seat, \"\", false, true, 0) */\n  iszero\n  iszero\n  dup2\n  mstore\n  0x20\n  add\n    /* \"AirlineManagement.sol\":3236:3237  0 */\n  0x00\n    /* \"AirlineManagement.sol\":3179:3238  Ticket(owner, destination, price, seat, \"\", false, true, 0) */\n  dup2\n  mstore\n  pop\n    /* \"AirlineManagement.sol\":3154:3167  ticketDetails */\n  0x17\n    /* \"AirlineManagement.sol\":3154:3176  ticketDetails[tokenId] */\n  0x00\n    /* \"AirlineManagement.sol\":3168:3175  tokenId */\n  dup4\n    /* \"AirlineManagement.sol\":3154:3176  ticketDetails[tokenId] */\n  dup2\n  mstore\n  0x20\n  add\n  swap1\n  dup2\n  mstore\n  0x20\n  add\n  0x00\n  keccak256\n    /* \"AirlineManagement.sol\":3154:3238  ticketDetails[tokenId] = Ticket(owner, destination, price, seat, \"\", false, true, 0) */\n  0x00\n  dup3\n  add\n  mload\n  dup2\n  0x00\n  add\n  exp(0x0100, 0x00)\n  dup2\n  sload\n  dup2\n  0xffffffffffffffffffffffffffffffffffffffff\n  mul\n  not\n  and\n  swap1\n  dup4\n  0xffffffffffffffffffffffffffffffffffffffff\n  and\n  mul\n  or\n  swap1\n  sstore\n  pop\n  0x20\n  dup3\n  add\n  mload\n  dup2\n  0x01\n  add\n  swap1\n  dup2\n  tag_70\n  swap2\n  swap1\n  tag_8\n  jump\t// in\ntag_70:\n  pop\n  0x40\n  dup3\n  add\n  mload\n  dup2\n  0x02\n  add\n  sstore\n  0x60\n  dup3\n  add\n  mload\n  dup2\n  0x03\n  add\n  sstore\n  0x80\n  dup3\n  add\n  mload\n  dup2\n  0x04\n  add\n  swap1\n  dup2\n  tag_71\n  swap2\n  swap1\n  tag_8\n  jump\t// in\ntag_71:\n  pop\n  0xa0\n  dup3\n  add\n  mload\n  dup2\n  0x05\n  add\n  exp(0x0100, 0x00)\n  dup2\n  sload\n  dup2\n  0xff\n  mul\n  not\n  and\n  swap1\n  dup4\n  iszero\n  iszero\n  mul\n  or\n  swap1\n  sstore\n  pop\n  0xc0\n  dup3\n  add\n  mload\n  dup2\n  0x05\n  add\n  exp(0x0100, 0x01)\n  dup2\n  sload\n  dup2\n  0xff\n  mul\n  not\n  and\n  swap1\n  dup4\n  iszero\n  iszero\n  mul\n  or\n  swap1\n  sstore\n  pop\n  0xe0\n  dup3\n  add\n  mload\n  dup2\n  0x06\n  add\n  sstore\n  swap1\n  pop\n  pop\n    /* \"AirlineManagement.sol\":3253:3265  nextTicketId */\n  0x18\n  0x00\n    /* \"AirlineManagement.sol\":3253:3267  nextTicketId++ */\n  dup2\n  sload\n  dup1\n  swap3\n  swap2\n  swap1\n  tag_72\n  swap1\n  tag_62\n  jump\t// in\ntag_72:\n  swap2\n  swap1\n  pop\n  sstore\n  pop\n    /* \"AirlineManagement.sol\":3094:3279  {... */\n  pop\n    /* \"AirlineManagement.sol\":3086:3092  seat++ */\n  dup1\n  dup1\n  0x01\n  add\n  swap2\n  pop\n  pop\n    /* \"AirlineManagement.sol\":3052:3279  for (uint256 seat = 0; seat < 30; seat++) {... */\n  jump(tag_67)\ntag_68:\n  pop\n    /* \"AirlineManagement.sol\":2940:3286  function create30Tickets(address owner, string memory destination, uint256 price) private restricted {... */\n  pop\n  pop\n  pop\n  jump\t// out\n    /* \"#utility.yul\":7:82   */\ntag_73:\n    /* \"#utility.yul\":40:46   */\n  0x00\n    /* \"#utility.yul\":73:75   */\n  0x40\n    /* \"#utility.yul\":67:76   */\n  mload\n    /* \"#utility.yul\":57:76   */\n  swap1\n  pop\n    /* \"#utility.yul\":7:82   */\n  swap1\n  jump\t// out\n    /* \"#utility.yul\":88:205   */\ntag_74:\n    /* \"#utility.yul\":197:198   */\n  0x00\n    /* \"#utility.yul\":194:195   */\n  0x00\n    /* \"#utility.yul\":187:199   */\n  revert\n    /* \"#utility.yul\":211:328   */\ntag_75:\n    /* \"#utility.yul\":320:321   */\n  0x00\n    /* \"#utility.yul\":317:318   */\n  0x00\n    /* \"#utility.yul\":310:322   */\n  revert\n    /* \"#utility.yul\":334:451   */\ntag_76:\n    /* \"#utility.yul\":443:444   */\n  0x00\n    /* \"#utility.yul\":440:441   */\n  0x00\n    /* \"#utility.yul\":433:445   */\n  revert\n    /* \"#utility.yul\":457:574   */\ntag_77:\n    /* \"#utility.yul\":566:567   */\n  0x00\n    /* \"#utility.yul\":563:564   */\n  0x00\n    /* \"#utility.yul\":556:568   */\n  revert\n    /* \"#utility.yul\":580:682   */\ntag_78:\n    /* \"#utility.yul\":621:627   */\n  0x00\n    /* \"#utility.yul\":672:674   */\n  0x1f\n    /* \"#utility.yul\":668:675   */\n  not\n    /* \"#utility.yul\":663:665   */\n  0x1f\n    /* \"#utility.yul\":656:661   */\n  dup4\n    /* \"#utility.yul\":652:666   */\n  add\n    /* \"#utility.yul\":648:676   */\n  and\n    /* \"#utility.yul\":638:676   */\n  swap1\n  pop\n    /* \"#utility.yul\":580:682   */\n  swap2\n  swap1\n  pop\n  jump\t// out\n    /* \"#utility.yul\":688:868   */\ntag_79:\n    /* \"#utility.yul\":736:813   */\n  0x4e487b7100000000000000000000000000000000000000000000000000000000\n    /* \"#utility.yul\":733:734   */\n  0x00\n    /* \"#utility.yul\":726:814   */\n  mstore\n    /* \"#utility.yul\":833:837   */\n  0x41\n    /* \"#utility.yul\":830:831   */\n  0x04\n    /* \"#utility.yul\":823:838   */\n  mstore\n    /* \"#utility.yul\":857:861   */\n  0x24\n    /* \"#utility.yul\":854:855   */\n  0x00\n    /* \"#utility.yul\":847:862   */\n  revert\n    /* \"#utility.yul\":874:1155   */\ntag_80:\n    /* \"#utility.yul\":957:984   */\n  tag_119\n    /* \"#utility.yul\":979:983   */\n  dup3\n    /* \"#utility.yul\":957:984   */\n  tag_78\n  jump\t// in\ntag_119:\n    /* \"#utility.yul\":949:955   */\n  dup2\n    /* \"#utility.yul\":945:985   */\n  add\n    /* \"#utility.yul\":1087:1093   */\n  dup2\n    /* \"#utility.yul\":1075:1085   */\n  dup2\n    /* \"#utility.yul\":1072:1094   */\n  lt\n    /* \"#utility.yul\":1051:1069   */\n  0xffffffffffffffff\n    /* \"#utility.yul\":1039:1049   */\n  dup3\n    /* \"#utility.yul\":1036:1070   */\n  gt\n    /* \"#utility.yul\":1033:1095   */\n  or\n    /* \"#utility.yul\":1030:1118   */\n  iszero\n  tag_120\n  jumpi\n    /* \"#utility.yul\":1098:1116   */\n  tag_121\n  tag_79\n  jump\t// in\ntag_121:\n    /* \"#utility.yul\":1030:1118   */\ntag_120:\n    /* \"#utility.yul\":1138:1148   */\n  dup1\n    /* \"#utility.yul\":1134:1136   */\n  0x40\n    /* \"#utility.yul\":1127:1149   */\n  mstore\n    /* \"#utility.yul\":917:1155   */\n  pop\n    /* \"#utility.yul\":874:1155   */\n  pop\n  pop\n  jump\t// out\n    /* \"#utility.yul\":1161:1290   */\ntag_81:\n    /* \"#utility.yul\":1195:1201   */\n  0x00\n    /* \"#utility.yul\":1222:1242   */\n  tag_123\n  tag_73\n  jump\t// in\ntag_123:\n    /* \"#utility.yul\":1212:1242   */\n  swap1\n  pop\n    /* \"#utility.yul\":1251:1284   */\n  tag_124\n    /* \"#utility.yul\":1279:1283   */\n  dup3\n    /* \"#utility.yul\":1271:1277   */\n  dup3\n    /* \"#utility.yul\":1251:1284   */\n  tag_80\n  jump\t// in\ntag_124:\n    /* \"#utility.yul\":1161:1290   */\n  swap2\n  swap1\n  pop\n  jump\t// out\n    /* \"#utility.yul\":1296:1604   */\ntag_82:\n    /* \"#utility.yul\":1358:1362   */\n  0x00\n    /* \"#utility.yul\":1448:1466   */\n  0xffffffffffffffff\n    /* \"#utility.yul\":1440:1446   */\n  dup3\n    /* \"#utility.yul\":1437:1467   */\n  gt\n    /* \"#utility.yul\":1434:1490   */\n  iszero\n  tag_126\n  jumpi\n    /* \"#utility.yul\":1470:1488   */\n  tag_127\n  tag_79\n  jump\t// in\ntag_127:\n    /* \"#utility.yul\":1434:1490   */\ntag_126:\n    /* \"#utility.yul\":1508:1537   */\n  tag_128\n    /* \"#utility.yul\":1530:1536   */\n  dup3\n    /* \"#utility.yul\":1508:1537   */\n  tag_78\n  jump\t// in\ntag_128:\n    /* \"#utility.yul\":1500:1537   */\n  swap1\n  pop\n    /* \"#utility.yul\":1592:1596   */\n  0x20\n    /* \"#utility.yul\":1586:1590   */\n  dup2\n    /* \"#utility.yul\":1582:1597   */\n  add\n    /* \"#utility.yul\":1574:1597   */\n  swap1\n  pop\n    /* \"#utility.yul\":1296:1604   */\n  swap2\n  swap1\n  pop\n  jump\t// out\n    /* \"#utility.yul\":1610:1749   */\ntag_83:\n    /* \"#utility.yul\":1699:1705   */\n  dup3\n    /* \"#utility.yul\":1694:1697   */\n  dup2\n    /* \"#utility.yul\":1689:1692   */\n  dup4\n    /* \"#utility.yul\":1683:1706   */\n  mcopy\n    /* \"#utility.yul\":1740:1741   */\n  0x00\n    /* \"#utility.yul\":1731:1737   */\n  dup4\n    /* \"#utility.yul\":1726:1729   */\n  dup4\n    /* \"#utility.yul\":1722:1738   */\n  add\n    /* \"#utility.yul\":1715:1742   */\n  mstore\n    /* \"#utility.yul\":1610:1749   */\n  pop\n  pop\n  pop\n  jump\t// out\n    /* \"#utility.yul\":1755:2189   */\ntag_84:\n    /* \"#utility.yul\":1844:1849   */\n  0x00\n    /* \"#utility.yul\":1869:1935   */\n  tag_131\n    /* \"#utility.yul\":1885:1934   */\n  tag_132\n    /* \"#utility.yul\":1927:1933   */\n  dup5\n    /* \"#utility.yul\":1885:1934   */\n  tag_82\n  jump\t// in\ntag_132:\n    /* \"#utility.yul\":1869:1935   */\n  tag_81\n  jump\t// in\ntag_131:\n    /* \"#utility.yul\":1860:1935   */\n  swap1\n  pop\n    /* \"#utility.yul\":1958:1964   */\n  dup3\n    /* \"#utility.yul\":1951:1956   */\n  dup2\n    /* \"#utility.yul\":1944:1965   */\n  mstore\n    /* \"#utility.yul\":1996:2000   */\n  0x20\n    /* \"#utility.yul\":1989:1994   */\n  dup2\n    /* \"#utility.yul\":1985:2001   */\n  add\n    /* \"#utility.yul\":2034:2037   */\n  dup5\n    /* \"#utility.yul\":2025:2031   */\n  dup5\n    /* \"#utility.yul\":2020:2023   */\n  dup5\n    /* \"#utility.yul\":2016:2032   */\n  add\n    /* \"#utility.yul\":2013:2038   */\n  gt\n    /* \"#utility.yul\":2010:2122   */\n  iszero\n  tag_133\n  jumpi\n    /* \"#utility.yul\":2041:2120   */\n  tag_134\n  tag_77\n  jump\t// in\ntag_134:\n    /* \"#utility.yul\":2010:2122   */\ntag_133:\n    /* \"#utility.yul\":2131:2183   */\n  tag_135\n    /* \"#utility.yul\":2176:2182   */\n  dup5\n    /* \"#utility.yul\":2171:2174   */\n  dup3\n    /* \"#utility.yul\":2166:2169   */\n  dup6\n    /* \"#utility.yul\":2131:2183   */\n  tag_83\n  jump\t// in\ntag_135:\n    /* \"#utility.yul\":1850:2189   */\n  pop\n    /* \"#utility.yul\":1755:2189   */\n  swap4\n  swap3\n  pop\n  pop\n  pop\n  jump\t// out\n    /* \"#utility.yul\":2209:2564   */\ntag_85:\n    /* \"#utility.yul\":2276:2281   */\n  0x00\n    /* \"#utility.yul\":2325:2328   */\n  dup3\n    /* \"#utility.yul\":2318:2322   */\n  0x1f\n    /* \"#utility.yul\":2310:2316   */\n  dup4\n    /* \"#utility.yul\":2306:2323   */\n  add\n    /* \"#utility.yul\":2302:2329   */\n  slt\n    /* \"#utility.yul\":2292:2414   */\n  tag_137\n  jumpi\n    /* \"#utility.yul\":2333:2412   */\n  tag_138\n  tag_76\n  jump\t// in\ntag_138:\n    /* \"#utility.yul\":2292:2414   */\ntag_137:\n    /* \"#utility.yul\":2443:2449   */\n  dup2\n    /* \"#utility.yul\":2437:2450   */\n  mload\n    /* \"#utility.yul\":2468:2558   */\n  tag_139\n    /* \"#utility.yul\":2554:2557   */\n  dup5\n    /* \"#utility.yul\":2546:2552   */\n  dup3\n    /* \"#utility.yul\":2539:2543   */\n  0x20\n    /* \"#utility.yul\":2531:2537   */\n  dup7\n    /* \"#utility.yul\":2527:2544   */\n  add\n    /* \"#utility.yul\":2468:2558   */\n  tag_84\n  jump\t// in\ntag_139:\n    /* \"#utility.yul\":2459:2558   */\n  swap2\n  pop\n    /* \"#utility.yul\":2282:2564   */\n  pop\n    /* \"#utility.yul\":2209:2564   */\n  swap3\n  swap2\n  pop\n  pop\n  jump\t// out\n    /* \"#utility.yul\":2570:2647   */\ntag_86:\n    /* \"#utility.yul\":2607:2614   */\n  0x00\n    /* \"#utility.yul\":2636:2641   */\n  dup2\n    /* \"#utility.yul\":2625:2641   */\n  swap1\n  pop\n    /* \"#utility.yul\":2570:2647   */\n  swap2\n  swap1\n  pop\n  jump\t// out\n    /* \"#utility.yul\":2653:2775   */\ntag_87:\n    /* \"#utility.yul\":2726:2750   */\n  tag_142\n    /* \"#utility.yul\":2744:2749   */\n  dup2\n    /* \"#utility.yul\":2726:2750   */\n  tag_86\n  jump\t// in\ntag_142:\n    /* \"#utility.yul\":2719:2724   */\n  dup2\n    /* \"#utility.yul\":2716:2751   */\n  eq\n    /* \"#utility.yul\":2706:2769   */\n  tag_143\n  jumpi\n    /* \"#utility.yul\":2765:2766   */\n  0x00\n    /* \"#utility.yul\":2762:2763   */\n  0x00\n    /* \"#utility.yul\":2755:2767   */\n  revert\n    /* \"#utility.yul\":2706:2769   */\ntag_143:\n    /* \"#utility.yul\":2653:2775   */\n  pop\n  jump\t// out\n    /* \"#utility.yul\":2781:2924   */\ntag_88:\n    /* \"#utility.yul\":2838:2843   */\n  0x00\n    /* \"#utility.yul\":2869:2875   */\n  dup2\n    /* \"#utility.yul\":2863:2876   */\n  mload\n    /* \"#utility.yul\":2854:2876   */\n  swap1\n  pop\n    /* \"#utility.yul\":2885:2918   */\n  tag_145\n    /* \"#utility.yul\":2912:2917   */\n  dup2\n    /* \"#utility.yul\":2885:2918   */\n  tag_87\n  jump\t// in\ntag_145:\n    /* \"#utility.yul\":2781:2924   */\n  swap3\n  swap2\n  pop\n  pop\n  jump\t// out\n    /* \"#utility.yul\":2930:3610   */\ntag_3:\n    /* \"#utility.yul\":3019:3025   */\n  0x00\n    /* \"#utility.yul\":3027:3033   */\n  0x00\n    /* \"#utility.yul\":3076:3078   */\n  0x40\n    /* \"#utility.yul\":3064:3073   */\n  dup4\n    /* \"#utility.yul\":3055:3062   */\n  dup6\n    /* \"#utility.yul\":3051:3074   */\n  sub\n    /* \"#utility.yul\":3047:3079   */\n  slt\n    /* \"#utility.yul\":3044:3163   */\n  iszero\n  tag_147\n  jumpi\n    /* \"#utility.yul\":3082:3161   */\n  tag_148\n  tag_74\n  jump\t// in\ntag_148:\n    /* \"#utility.yul\":3044:3163   */\ntag_147:\n    /* \"#utility.yul\":3223:3224   */\n  0x00\n    /* \"#utility.yul\":3212:3221   */\n  dup4\n    /* \"#utility.yul\":3208:3225   */\n  add\n    /* \"#utility.yul\":3202:3226   */\n  mload\n    /* \"#utility.yul\":3253:3271   */\n  0xffffffffffffffff\n    /* \"#utility.yul\":3245:3251   */\n  dup2\n    /* \"#utility.yul\":3242:3272   */\n  gt\n    /* \"#utility.yul\":3239:3356   */\n  iszero\n  tag_149\n  jumpi\n    /* \"#utility.yul\":3275:3354   */\n  tag_150\n  tag_75\n  jump\t// in\ntag_150:\n    /* \"#utility.yul\":3239:3356   */\ntag_149:\n    /* \"#utility.yul\":3380:3454   */\n  tag_151\n    /* \"#utility.yul\":3446:3453   */\n  dup6\n    /* \"#utility.yul\":3437:3443   */\n  dup3\n    /* \"#utility.yul\":3426:3435   */\n  dup7\n    /* \"#utility.yul\":3422:3444   */\n  add\n    /* \"#utility.yul\":3380:3454   */\n  tag_85\n  jump\t// in\ntag_151:\n    /* \"#utility.yul\":3370:3454   */\n  swap3\n  pop\n    /* \"#utility.yul\":3173:3464   */\n  pop\n    /* \"#utility.yul\":3503:3505   */\n  0x20\n    /* \"#utility.yul\":3529:3593   */\n  tag_152\n    /* \"#utility.yul\":3585:3592   */\n  dup6\n    /* \"#utility.yul\":3576:3582   */\n  dup3\n    /* \"#utility.yul\":3565:3574   */\n  dup7\n    /* \"#utility.yul\":3561:3583   */\n  add\n    /* \"#utility.yul\":3529:3593   */\n  tag_88\n  jump\t// in\ntag_152:\n    /* \"#utility.yul\":3519:3593   */\n  swap2\n  pop\n    /* \"#utility.yul\":3474:3603   */\n  pop\n    /* \"#utility.yul\":2930:3610   */\n  swap3\n  pop\n  swap3\n  swap1\n  pop\n  jump\t// out\n    /* \"#utility.yul\":3616:3715   */\ntag_89:\n    /* \"#utility.yul\":3668:3674   */\n  0x00\n    /* \"#utility.yul\":3702:3707   */\n  dup2\n    /* \"#utility.yul\":3696:3708   */\n  mload\n    /* \"#utility.yul\":3686:3708   */\n  swap1\n  pop\n    /* \"#utility.yul\":3616:3715   */\n  swap2\n  swap1\n  pop\n  jump\t// out\n    /* \"#utility.yul\":3721:3901   */\ntag_90:\n    /* \"#utility.yul\":3769:3846   */\n  0x4e487b7100000000000000000000000000000000000000000000000000000000\n    /* \"#utility.yul\":3766:3767   */\n  0x00\n    /* \"#utility.yul\":3759:3847   */\n  mstore\n    /* \"#utility.yul\":3866:3870   */\n  0x22\n    /* \"#utility.yul\":3863:3864   */\n  0x04\n    /* \"#utility.yul\":3856:3871   */\n  mstore\n    /* \"#utility.yul\":3890:3894   */\n  0x24\n    /* \"#utility.yul\":3887:3888   */\n  0x00\n    /* \"#utility.yul\":3880:3895   */\n  revert\n    /* \"#utility.yul\":3907:4227   */\ntag_91:\n    /* \"#utility.yul\":3951:3957   */\n  0x00\n    /* \"#utility.yul\":3988:3989   */\n  0x02\n    /* \"#utility.yul\":3982:3986   */\n  dup3\n    /* \"#utility.yul\":3978:3990   */\n  div\n    /* \"#utility.yul\":3968:3990   */\n  swap1\n  pop\n    /* \"#utility.yul\":4035:4036   */\n  0x01\n    /* \"#utility.yul\":4029:4033   */\n  dup3\n    /* \"#utility.yul\":4025:4037   */\n  and\n    /* \"#utility.yul\":4056:4074   */\n  dup1\n    /* \"#utility.yul\":4046:4127   */\n  tag_156\n  jumpi\n    /* \"#utility.yul\":4112:4116   */\n  0x7f\n    /* \"#utility.yul\":4104:4110   */\n  dup3\n    /* \"#utility.yul\":4100:4117   */\n  and\n    /* \"#utility.yul\":4090:4117   */\n  swap2\n  pop\n    /* \"#utility.yul\":4046:4127   */\ntag_156:\n    /* \"#utility.yul\":4174:4176   */\n  0x20\n    /* \"#utility.yul\":4166:4172   */\n  dup3\n    /* \"#utility.yul\":4163:4177   */\n  lt\n    /* \"#utility.yul\":4143:4161   */\n  dup2\n    /* \"#utility.yul\":4140:4178   */\n  sub\n    /* \"#utility.yul\":4137:4221   */\n  tag_157\n  jumpi\n    /* \"#utility.yul\":4193:4211   */\n  tag_158\n  tag_90\n  jump\t// in\ntag_158:\n    /* \"#utility.yul\":4137:4221   */\ntag_157:\n    /* \"#utility.yul\":3958:4227   */\n  pop\n    /* \"#utility.yul\":3907:4227   */\n  swap2\n  swap1\n  pop\n  jump\t// out\n    /* \"#utility.yul\":4233:4374   */\ntag_92:\n    /* \"#utility.yul\":4282:4286   */\n  0x00\n    /* \"#utility.yul\":4305:4308   */\n  dup2\n    /* \"#utility.yul\":4297:4308   */\n  swap1\n  pop\n    /* \"#utility.yul\":4328:4331   */\n  dup2\n    /* \"#utility.yul\":4325:4326   */\n  0x00\n    /* \"#utility.yul\":4318:4332   */\n  mstore\n    /* \"#utility.yul\":4362:4366   */\n  0x20\n    /* \"#utility.yul\":4359:4360   */\n  0x00\n    /* \"#utility.yul\":4349:4367   */\n  keccak256\n    /* \"#utility.yul\":4341:4367   */\n  swap1\n  pop\n    /* \"#utility.yul\":4233:4374   */\n  swap2\n  swap1\n  pop\n  jump\t// out\n    /* \"#utility.yul\":4380:4473   */\ntag_93:\n    /* \"#utility.yul\":4417:4423   */\n  0x00\n    /* \"#utility.yul\":4464:4466   */\n  0x20\n    /* \"#utility.yul\":4459:4461   */\n  0x1f\n    /* \"#utility.yul\":4452:4457   */\n  dup4\n    /* \"#utility.yul\":4448:4462   */\n  add\n    /* \"#utility.yul\":4444:4467   */\n  div\n    /* \"#utility.yul\":4434:4467   */\n  swap1\n  pop\n    /* \"#utility.yul\":4380:4473   */\n  swap2\n  swap1\n  pop\n  jump\t// out\n    /* \"#utility.yul\":4479:4586   */\ntag_94:\n    /* \"#utility.yul\":4523:4531   */\n  0x00\n    /* \"#utility.yul\":4573:4578   */\n  dup3\n    /* \"#utility.yul\":4567:4571   */\n  dup3\n    /* \"#utility.yul\":4563:4579   */\n  shl\n    /* \"#utility.yul\":4542:4579   */\n  swap1\n  pop\n    /* \"#utility.yul\":4479:4586   */\n  swap3\n  swap2\n  pop\n  pop\n  jump\t// out\n    /* \"#utility.yul\":4592:4985   */\ntag_95:\n    /* \"#utility.yul\":4661:4667   */\n  0x00\n    /* \"#utility.yul\":4711:4712   */\n  0x08\n    /* \"#utility.yul\":4699:4709   */\n  dup4\n    /* \"#utility.yul\":4695:4713   */\n  mul\n    /* \"#utility.yul\":4734:4831   */\n  tag_163\n    /* \"#utility.yul\":4764:4830   */\n  0xffffffffffffffffffffffffffffffffffffffffffffffffffffffffffffffff\n    /* \"#utility.yul\":4753:4762   */\n  dup3\n    /* \"#utility.yul\":4734:4831   */\n  tag_94\n  jump\t// in\ntag_163:\n    /* \"#utility.yul\":4852:4891   */\n  tag_164\n    /* \"#utility.yul\":4882:4890   */\n  dup7\n    /* \"#utility.yul\":4871:4880   */\n  dup4\n    /* \"#utility.yul\":4852:4891   */\n  tag_94\n  jump\t// in\ntag_164:\n    /* \"#utility.yul\":4840:4891   */\n  swap6\n  pop\n    /* \"#utility.yul\":4924:4928   */\n  dup1\n    /* \"#utility.yul\":4920:4929   */\n  not\n    /* \"#utility.yul\":4913:4918   */\n  dup5\n    /* \"#utility.yul\":4909:4930   */\n  and\n    /* \"#utility.yul\":4900:4930   */\n  swap4\n  pop\n    /* \"#utility.yul\":4973:4977   */\n  dup1\n    /* \"#utility.yul\":4963:4971   */\n  dup7\n    /* \"#utility.yul\":4959:4978   */\n  and\n    /* \"#utility.yul\":4952:4957   */\n  dup5\n    /* \"#utility.yul\":4949:4979   */\n  or\n    /* \"#utility.yul\":4939:4979   */\n  swap3\n  pop\n    /* \"#utility.yul\":4668:4985   */\n  pop\n  pop\n    /* \"#utility.yul\":4592:4985   */\n  swap4\n  swap3\n  pop\n  pop\n  pop\n  jump\t// out\n    /* \"#utility.yul\":4991:5051   */\ntag_96:\n    /* \"#utility.yul\":5019:5022   */\n  0x00\n    /* \"#utility.yul\":5040:5045   */\n  dup2\n    /* \"#utility.yul\":5033:5045   */\n  swap1\n  pop\n    /* \"#utility.yul\":4991:5051   */\n  swap2\n  swap1\n  pop\n  jump\t// out\n    /* \"#utility.yul\":5057:5199   */\ntag_97:\n    /* \"#utility.yul\":5107:5116   */\n  0x00\n    /* \"#utility.yul\":5140:5193   */\n  tag_167\n    /* \"#utility.yul\":5158:5192   */\n  tag_168\n    /* \"#utility.yul\":5167:5191   */\n  tag_169\n    /* \"#utility.yul\":5185:5190   */\n  dup5\n    /* \"#utility.yul\":5167:5191   */\n  tag_86\n  jump\t// in\ntag_169:\n    /* \"#utility.yul\":5158:5192   */\n  tag_96\n  jump\t// in\ntag_168:\n    /* \"#utility.yul\":5140:5193   */\n  tag_86\n  jump\t// in\ntag_167:\n    /* \"#utility.yul\":5127:5193   */\n  swap1\n  pop\n    /* \"#utility.yul\":5057:5199   */\n  swap2\n  swap1\n  pop\n  jump\t// out\n    /* \"#utility.yul\":5205:5280   */\ntag_98:\n    /* \"#utility.yul\":5248:5251   */\n  0x00\n    /* \"#utility.yul\":5269:5274   */\n  dup2\n    /* \"#utility.yul\":5262:5274   */\n  swap1\n  pop\n    /* \"#utility.yul\":5205:5280   */\n  swap2\n  swap1\n  pop\n  jump\t// out\n    /* \"#utility.yul\":5286:5555   */\ntag_99:\n    /* \"#utility.yul\":5396:5435   */\n  tag_172\n    /* \"#utility.yul\":5427:5434   */\n  dup4\n    /* \"#utility.yul\":5396:5435   */\n  tag_97\n  jump\t// in\ntag_172:\n    /* \"#utility.yul\":5457:5548   */\n  tag_173\n    /* \"#utility.yul\":5506:5547   */\n  tag_174\n    /* \"#utility.yul\":5530:5546   */\n  dup3\n    /* \"#utility.yul\":5506:5547   */\n  tag_98\n  jump\t// in\ntag_174:\n    /* \"#utility.yul\":5498:5504   */\n  dup5\n    /* \"#utility.yul\":5491:5495   */\n  dup5\n    /* \"#utility.yul\":5485:5496   */\n  sload\n    /* \"#utility.yul\":5457:5548   */\n  tag_95\n  jump\t// in\ntag_173:\n    /* \"#utility.yul\":5451:5455   */\n  dup3\n    /* \"#utility.yul\":5444:5549   */\n  sstore\n    /* \"#utility.yul\":5362:5555   */\n  pop\n    /* \"#utility.yul\":5286:5555   */\n  pop\n  pop\n  pop\n  jump\t// out\n    /* \"#utility.yul\":5561:5634   */\ntag_100:\n    /* \"#utility.yul\":5606:5609   */\n  0x00\n    /* \"#utility.yul\":5627:5628   */\n  0x00\n    /* \"#utility.yul\":5620:5628   */\n  swap1\n  pop\n    /* \"#utility.yul\":5561:5634   */\n  swap1\n  jump\t// out\n    /* \"#utility.yul\":5640:5829   */\ntag_101:\n    /* \"#utility.yul\":5717:5749   */\n  tag_177\n  tag_100\n  jump\t// in\ntag_177:\n    /* \"#utility.yul\":5758:5823   */\n  tag_178\n    /* \"#utility.yul\":5816:5822   */\n  dup2\n    /* \"#utility.yul\":5808:5814   */\n  dup5\n    /* \"#utility.yul\":5802:5806   */\n  dup5\n    /* \"#utility.yul\":5758:5823   */\n  tag_99\n  jump\t// in\ntag_178:\n    /* \"#utility.yul\":5693:5829   */\n  pop\n    /* \"#utility.yul\":5640:5829   */\n  pop\n  pop\n  jump\t// out\n    /* \"#utility.yul\":5835:6021   */\ntag_102:\n    /* \"#utility.yul\":5895:6015   */\ntag_180:\n    /* \"#utility.yul\":5912:5915   */\n  dup2\n    /* \"#utility.yul\":5905:5910   */\n  dup2\n    /* \"#utility.yul\":5902:5916   */\n  lt\n    /* \"#utility.yul\":5895:6015   */\n  iszero\n  tag_182\n  jumpi\n    /* \"#utility.yul\":5966:6005   */\n  tag_183\n    /* \"#utility.yul\":6003:6004   */\n  0x00\n    /* \"#utility.yul\":5996:6001   */\n  dup3\n    /* \"#utility.yul\":5966:6005   */\n  tag_101\n  jump\t// in\ntag_183:\n    /* \"#utility.yul\":5939:5940   */\n  0x01\n    /* \"#utility.yul\":5932:5937   */\n  dup2\n    /* \"#utility.yul\":5928:5941   */\n  add\n    /* \"#utility.yul\":5919:5941   */\n  swap1\n  pop\n    /* \"#utility.yul\":5895:6015   */\n  jump(tag_180)\ntag_182:\n    /* \"#utility.yul\":5835:6021   */\n  pop\n  pop\n  jump\t// out\n    /* \"#utility.yul\":6027:6570   */\ntag_103:\n    /* \"#utility.yul\":6128:6130   */\n  0x1f\n    /* \"#utility.yul\":6123:6126   */\n  dup3\n    /* \"#utility.yul\":6120:6131   */\n  gt\n    /* \"#utility.yul\":6117:6563   */\n  iszero\n  tag_185\n  jumpi\n    /* \"#utility.yul\":6162:6200   */\n  tag_186\n    /* \"#utility.yul\":6194:6199   */\n  dup2\n    /* \"#utility.yul\":6162:6200   */\n  tag_92\n  jump\t// in\ntag_186:\n    /* \"#utility.yul\":6246:6275   */\n  tag_187\n    /* \"#utility.yul\":6264:6274   */\n  dup5\n    /* \"#utility.yul\":6246:6275   */\n  tag_93\n  jump\t// in\ntag_187:\n    /* \"#utility.yul\":6236:6244   */\n  dup2\n    /* \"#utility.yul\":6232:6276   */\n  add\n    /* \"#utility.yul\":6429:6431   */\n  0x20\n    /* \"#utility.yul\":6417:6427   */\n  dup6\n    /* \"#utility.yul\":6414:6432   */\n  lt\n    /* \"#utility.yul\":6411:6460   */\n  iszero\n  tag_188\n  jumpi\n    /* \"#utility.yul\":6450:6458   */\n  dup2\n    /* \"#utility.yul\":6435:6458   */\n  swap1\n  pop\n    /* \"#utility.yul\":6411:6460   */\ntag_188:\n    /* \"#utility.yul\":6473:6553   */\n  tag_189\n    /* \"#utility.yul\":6529:6551   */\n  tag_190\n    /* \"#utility.yul\":6547:6550   */\n  dup6\n    /* \"#utility.yul\":6529:6551   */\n  tag_93\n  jump\t// in\ntag_190:\n    /* \"#utility.yul\":6519:6527   */\n  dup4\n    /* \"#utility.yul\":6515:6552   */\n  add\n    /* \"#utility.yul\":6502:6513   */\n  dup3\n    /* \"#utility.yul\":6473:6553   */\n  tag_102\n  jump\t// in\ntag_189:\n    /* \"#utility.yul\":6132:6563   */\n  pop\n  pop\n    /* \"#utility.yul\":6117:6563   */\ntag_185:\n    /* \"#utility.yul\":6027:6570   */\n  pop\n  pop\n  pop\n  jump\t// out\n    /* \"#utility.yul\":6576:6693   */\ntag_104:\n    /* \"#utility.yul\":6630:6638   */\n  0x00\n    /* \"#utility.yul\":6680:6685   */\n  dup3\n    /* \"#utility.yul\":6674:6678   */\n  dup3\n    /* \"#utility.yul\":6670:6686   */\n  shr\n    /* \"#utility.yul\":6649:6686   */\n  swap1\n  pop\n    /* \"#utility.yul\":6576:6693   */\n  swap3\n  swap2\n  pop\n  pop\n  jump\t// out\n    /* \"#utility.yul\":6699:6868   */\ntag_105:\n    /* \"#utility.yul\":6743:6749   */\n  0x00\n    /* \"#utility.yul\":6776:6827   */\n  tag_193\n    /* \"#utility.yul\":6824:6825   */\n  0x00\n    /* \"#utility.yul\":6820:6826   */\n  not\n    /* \"#utility.yul\":6812:6817   */\n  dup5\n    /* \"#utility.yul\":6809:6810   */\n  0x08\n    /* \"#utility.yul\":6805:6818   */\n  mul\n    /* \"#utility.yul\":6776:6827   */\n  tag_104\n  jump\t// in\ntag_193:\n    /* \"#utility.yul\":6772:6828   */\n  not\n    /* \"#utility.yul\":6857:6861   */\n  dup1\n    /* \"#utility.yul\":6851:6855   */\n  dup4\n    /* \"#utility.yul\":6847:6862   */\n  and\n    /* \"#utility.yul\":6837:6862   */\n  swap2\n  pop\n    /* \"#utility.yul\":6750:6868   */\n  pop\n    /* \"#utility.yul\":6699:6868   */\n  swap3\n  swap2\n  pop\n  pop\n  jump\t// out\n    /* \"#utility.yul\":6873:7168   */\ntag_106:\n    /* \"#utility.yul\":6949:6953   */\n  0x00\n    /* \"#utility.yul\":7095:7124   */\n  tag_195\n    /* \"#utility.yul\":7120:7123   */\n  dup4\n    /* \"#utility.yul\":7114:7118   */\n  dup4\n    /* \"#utility.yul\":7095:7124   */\n  tag_105\n  jump\t// in\ntag_195:\n    /* \"#utility.yul\":7087:7124   */\n  swap2\n  pop\n    /* \"#utility.yul\":7157:7160   */\n  dup3\n    /* \"#utility.yul\":7154:7155   */\n  0x02\n    /* \"#utility.yul\":7150:7161   */\n  mul\n    /* \"#utility.yul\":7144:7148   */\n  dup3\n    /* \"#utility.yul\":7141:7162   */\n  or\n    /* \"#utility.yul\":7133:7162   */\n  swap1\n  pop\n    /* \"#utility.yul\":6873:7168   */\n  swap3\n  swap2\n  pop\n  pop\n  jump\t// out\n    /* \"#utility.yul\":7173:8568   */\ntag_8:\n    /* \"#utility.yul\":7290:7327   */\n  tag_197\n    /* \"#utility.yul\":7323:7326   */\n  dup3\n    /* \"#utility.yul\":7290:7327   */\n  tag_89\n  jump\t// in\ntag_197:\n    /* \"#utility.yul\":7392:7410   */\n  0xffffffffffffffff\n    /* \"#utility.yul\":7384:7390   */\n  dup2\n    /* \"#utility.yul\":7381:7411   */\n  gt\n    /* \"#utility.yul\":7378:7434   */\n  iszero\n  tag_198\n  jumpi\n    /* \"#utility.yul\":7414:7432   */\n  tag_199\n  tag_79\n  jump\t// in\ntag_199:\n    /* \"#utility.yul\":7378:7434   */\ntag_198:\n    /* \"#utility.yul\":7458:7496   */\n  tag_200\n    /* \"#utility.yul\":7490:7494   */\n  dup3\n    /* \"#utility.yul\":7484:7495   */\n  sload\n    /* \"#utility.yul\":7458:7496   */\n  tag_91\n  jump\t// in\ntag_200:\n    /* \"#utility.yul\":7543:7610   */\n  tag_201\n    /* \"#utility.yul\":7603:7609   */\n  dup3\n    /* \"#utility.yul\":7595:7601   */\n  dup3\n    /* \"#utility.yul\":7589:7593   */\n  dup6\n    /* \"#utility.yul\":7543:7610   */\n  tag_103\n  jump\t// in\ntag_201:\n    /* \"#utility.yul\":7637:7638   */\n  0x00\n    /* \"#utility.yul\":7661:7665   */\n  0x20\n    /* \"#utility.yul\":7648:7665   */\n  swap1\n  pop\n    /* \"#utility.yul\":7693:7695   */\n  0x1f\n    /* \"#utility.yul\":7685:7691   */\n  dup4\n    /* \"#utility.yul\":7682:7696   */\n  gt\n    /* \"#utility.yul\":7710:7711   */\n  0x01\n    /* \"#utility.yul\":7705:8323   */\n  dup2\n  eq\n  tag_203\n  jumpi\n    /* \"#utility.yul\":8367:8368   */\n  0x00\n    /* \"#utility.yul\":8384:8390   */\n  dup5\n    /* \"#utility.yul\":8381:8458   */\n  iszero\n  tag_204\n  jumpi\n    /* \"#utility.yul\":8433:8442   */\n  dup3\n    /* \"#utility.yul\":8428:8431   */\n  dup8\n    /* \"#utility.yul\":8424:8443   */\n  add\n    /* \"#utility.yul\":8418:8444   */\n  mload\n    /* \"#utility.yul\":8409:8444   */\n  swap1\n  pop\n    /* \"#utility.yul\":8381:8458   */\ntag_204:\n    /* \"#utility.yul\":8484:8551   */\n  tag_205\n    /* \"#utility.yul\":8544:8550   */\n  dup6\n    /* \"#utility.yul\":8537:8542   */\n  dup3\n    /* \"#utility.yul\":8484:8551   */\n  tag_106\n  jump\t// in\ntag_205:\n    /* \"#utility.yul\":8478:8482   */\n  dup7\n    /* \"#utility.yul\":8471:8552   */\n  sstore\n    /* \"#utility.yul\":8340:8562   */\n  pop\n    /* \"#utility.yul\":7675:8562   */\n  jump(tag_202)\n    /* \"#utility.yul\":7705:8323   */\ntag_203:\n    /* \"#utility.yul\":7757:7761   */\n  0x1f\n    /* \"#utility.yul\":7753:7762   */\n  not\n    /* \"#utility.yul\":7745:7751   */\n  dup5\n    /* \"#utility.yul\":7741:7763   */\n  and\n    /* \"#utility.yul\":7791:7828   */\n  tag_206\n    /* \"#utility.yul\":7823:7827   */\n  dup7\n    /* \"#utility.yul\":7791:7828   */\n  tag_92\n  jump\t// in\ntag_206:\n    /* \"#utility.yul\":7850:7851   */\n  0x00\n    /* \"#utility.yul\":7864:8072   */\ntag_207:\n    /* \"#utility.yul\":7878:7885   */\n  dup3\n    /* \"#utility.yul\":7875:7876   */\n  dup2\n    /* \"#utility.yul\":7872:7886   */\n  lt\n    /* \"#utility.yul\":7864:8072   */\n  iszero\n  tag_209\n  jumpi\n    /* \"#utility.yul\":7957:7966   */\n  dup5\n    /* \"#utility.yul\":7952:7955   */\n  dup10\n    /* \"#utility.yul\":7948:7967   */\n  add\n    /* \"#utility.yul\":7942:7968   */\n  mload\n    /* \"#utility.yul\":7934:7940   */\n  dup3\n    /* \"#utility.yul\":7927:7969   */\n  sstore\n    /* \"#utility.yul\":8008:8009   */\n  0x01\n    /* \"#utility.yul\":8000:8006   */\n  dup3\n    /* \"#utility.yul\":7996:8010   */\n  add\n    /* \"#utility.yul\":7986:8010   */\n  swap2\n  pop\n    /* \"#utility.yul\":8055:8057   */\n  0x20\n    /* \"#utility.yul\":8044:8053   */\n  dup6\n    /* \"#utility.yul\":8040:8058   */\n  add\n    /* \"#utility.yul\":8027:8058   */\n  swap5\n  pop\n    /* \"#utility.yul\":7901:7905   */\n  0x20\n    /* \"#utility.yul\":7898:7899   */\n  dup2\n    /* \"#utility.yul\":7894:7906   */\n  add\n    /* \"#utility.yul\":7889:7906   */\n  swap1\n  pop\n    /* \"#utility.yul\":7864:8072   */\n  jump(tag_207)\ntag_209:\n    /* \"#utility.yul\":8100:8106   */\n  dup7\n    /* \"#utility.yul\":8091:8098   */\n  dup4\n    /* \"#utility.yul\":8088:8107   */\n  lt\n    /* \"#utility.yul\":8085:8264   */\n  iszero\n  tag_210\n  jumpi\n    /* \"#utility.yul\":8158:8167   */\n  dup5\n    /* \"#utility.yul\":8153:8156   */\n  dup10\n    /* \"#utility.yul\":8149:8168   */\n  add\n    /* \"#utility.yul\":8143:8169   */\n  mload\n    /* \"#utility.yul\":8201:8249   */\n  tag_211\n    /* \"#utility.yul\":8243:8247   */\n  0x1f\n    /* \"#utility.yul\":8235:8241   */\n  dup10\n    /* \"#utility.yul\":8231:8248   */\n  and\n    /* \"#utility.yul\":8220:8229   */\n  dup3\n    /* \"#utility.yul\":8201:8249   */\n  tag_105\n  jump\t// in\ntag_211:\n    /* \"#utility.yul\":8193:8199   */\n  dup4\n    /* \"#utility.yul\":8186:8250   */\n  sstore\n    /* \"#utility.yul\":8108:8264   */\n  pop\n    /* \"#utility.yul\":8085:8264   */\ntag_210:\n    /* \"#utility.yul\":8310:8311   */\n  0x01\n    /* \"#utility.yul\":8306:8307   */\n  0x02\n    /* \"#utility.yul\":8298:8304   */\n  dup9\n    /* \"#utility.yul\":8294:8308   */\n  mul\n    /* \"#utility.yul\":8290:8312   */\n  add\n    /* \"#utility.yul\":8284:8288   */\n  dup9\n    /* \"#utility.yul\":8277:8313   */\n  sstore\n    /* \"#utility.yul\":7712:8323   */\n  pop\n  pop\n  pop\n    /* \"#utility.yul\":7675:8562   */\ntag_202:\n  pop\n    /* \"#utility.yul\":7265:8568   */\n  pop\n  pop\n  pop\n    /* \"#utility.yul\":7173:8568   */\n  pop\n  pop\n  jump\t// out\n    /* \"#utility.yul\":8574:8722   */\ntag_107:\n    /* \"#utility.yul\":8676:8687   */\n  0x00\n    /* \"#utility.yul\":8713:8716   */\n  dup2\n    /* \"#utility.yul\":8698:8716   */\n  swap1\n  pop\n    /* \"#utility.yul\":8574:8722   */\n  swap3\n  swap2\n  pop\n  pop\n  jump\t// out\n    /* \"#utility.yul\":8728:9118   */\ntag_108:\n    /* \"#utility.yul\":8834:8837   */\n  0x00\n    /* \"#utility.yul\":8862:8901   */\n  tag_214\n    /* \"#utility.yul\":8895:8900   */\n  dup3\n    /* \"#utility.yul\":8862:8901   */\n  tag_89\n  jump\t// in\ntag_214:\n    /* \"#utility.yul\":8917:9006   */\n  tag_215\n    /* \"#utility.yul\":8999:9005   */\n  dup2\n    /* \"#utility.yul\":8994:8997   */\n  dup6\n    /* \"#utility.yul\":8917:9006   */\n  tag_107\n  jump\t// in\ntag_215:\n    /* \"#utility.yul\":8910:9006   */\n  swap4\n  pop\n    /* \"#utility.yul\":9015:9080   */\n  tag_216\n    /* \"#utility.yul\":9073:9079   */\n  dup2\n    /* \"#utility.yul\":9068:9071   */\n  dup6\n    /* \"#utility.yul\":9061:9065   */\n  0x20\n    /* \"#utility.yul\":9054:9059   */\n  dup7\n    /* \"#utility.yul\":9050:9066   */\n  add\n    /* \"#utility.yul\":9015:9080   */\n  tag_83\n  jump\t// in\ntag_216:\n    /* \"#utility.yul\":9105:9111   */\n  dup1\n    /* \"#utility.yul\":9100:9103   */\n  dup5\n    /* \"#utility.yul\":9096:9112   */\n  add\n    /* \"#utility.yul\":9089:9112   */\n  swap2\n  pop\n    /* \"#utility.yul\":8838:9118   */\n  pop\n    /* \"#utility.yul\":8728:9118   */\n  swap3\n  swap2\n  pop\n  pop\n  jump\t// out\n    /* \"#utility.yul\":9124:9399   */\ntag_12:\n    /* \"#utility.yul\":9256:9259   */\n  0x00\n    /* \"#utility.yul\":9278:9373   */\n  tag_218\n    /* \"#utility.yul\":9369:9372   */\n  dup3\n    /* \"#utility.yul\":9360:9366   */\n  dup5\n    /* \"#utility.yul\":9278:9373   */\n  tag_108\n  jump\t// in\ntag_218:\n    /* \"#utility.yul\":9271:9373   */\n  swap2\n  pop\n    /* \"#utility.yul\":9390:9393   */\n  dup2\n    /* \"#utility.yul\":9383:9393   */\n  swap1\n  pop\n    /* \"#utility.yul\":9124:9399   */\n  swap3\n  swap2\n  pop\n  pop\n  jump\t// out\n    /* \"#utility.yul\":9405:9585   */\ntag_17:\n    /* \"#utility.yul\":9453:9530   */\n  0x4e487b7100000000000000000000000000000000000000000000000000000000\n    /* \"#utility.yul\":9450:9451   */\n  0x00\n    /* \"#utility.yul\":9443:9531   */\n  mstore\n    /* \"#utility.yul\":9550:9554   */\n  0x32\n    /* \"#utility.yul\":9547:9548   */\n  0x04\n    /* \"#utility.yul\":9540:9555   */\n  mstore\n    /* \"#utility.yul\":9574:9578   */\n  0x24\n    /* \"#utility.yul\":9571:9572   */\n  0x00\n    /* \"#utility.yul\":9564:9579   */\n  revert\n    /* \"#utility.yul\":9591:9771   */\ntag_109:\n    /* \"#utility.yul\":9639:9716   */\n  0x4e487b7100000000000000000000000000000000000000000000000000000000\n    /* \"#utility.yul\":9636:9637   */\n  0x00\n    /* \"#utility.yul\":9629:9717   */\n  mstore\n    /* \"#utility.yul\":9736:9740   */\n  0x11\n    /* \"#utility.yul\":9733:9734   */\n  0x04\n    /* \"#utility.yul\":9726:9741   */\n  mstore\n    /* \"#utility.yul\":9760:9764   */\n  0x24\n    /* \"#utility.yul\":9757:9758   */\n  0x00\n    /* \"#utility.yul\":9750:9765   */\n  revert\n    /* \"#utility.yul\":9777:10010   */\ntag_62:\n    /* \"#utility.yul\":9816:9819   */\n  0x00\n    /* \"#utility.yul\":9839:9863   */\n  tag_222\n    /* \"#utility.yul\":9857:9862   */\n  dup3\n    /* \"#utility.yul\":9839:9863   */\n  tag_86\n  jump\t// in\ntag_222:\n    /* \"#utility.yul\":9830:9863   */\n  swap2\n  pop\n    /* \"#utility.yul\":9885:9951   */\n  0xffffffffffffffffffffffffffffffffffffffffffffffffffffffffffffffff\n    /* \"#utility.yul\":9878:9883   */\n  dup3\n    /* \"#utility.yul\":9875:9952   */\n  sub\n    /* \"#utility.yul\":9872:9975   */\n  tag_223\n  jumpi\n    /* \"#utility.yul\":9955:9973   */\n  tag_224\n  tag_109\n  jump\t// in\ntag_224:\n    /* \"#utility.yul\":9872:9975   */\ntag_223:\n    /* \"#utility.yul\":10002:10003   */\n  0x01\n    /* \"#utility.yul\":9995:10000   */\n  dup3\n    /* \"#utility.yul\":9991:10004   */\n  add\n    /* \"#utility.yul\":9984:10004   */\n  swap1\n  pop\n    /* \"#utility.yul\":9777:10010   */\n  swap2\n  swap1\n  pop\n  jump\t// out\n    /* \"AirlineManagement.sol\":64:6640  contract AirlineManagement {... */\ntag_63:\n  dataSize(sub_0)\n  dup1\n  dataOffset(sub_0)\n  0x00\n  codecopy\n  0x00\n  return\nstop\n\nsub_0: assembly {\n        /* \"AirlineManagement.sol\":64:6640  contract AirlineManagement {... */\n      mstore(0x40, 0x80)\n      jumpi(tag_1, lt(calldatasize, 0x04))\n      shr(0xe0, calldataload(0x00))\n      dup1\n      0x695dc67e\n      gt\n      tag_20\n      jumpi\n      dup1\n      0xad03fe70\n      gt\n      tag_21\n      jumpi\n      dup1\n      0xad03fe70\n      eq\n      tag_15\n      jumpi\n      dup1\n      0xc8705544\n      eq\n      tag_16\n      jumpi\n      dup1\n      0xcb2cc82a\n      eq\n      tag_17\n      jumpi\n      dup1\n      0xea6e358e\n      eq\n      tag_18\n      jumpi\n      dup1\n      0xff203bc0\n      eq\n      tag_19\n      jumpi\n      jump(tag_1)\n    tag_21:\n      dup1\n      0x695dc67e\n      eq\n      tag_11\n      jumpi\n      dup1\n      0x8dd4ba2e\n      eq\n      tag_12\n      jumpi\n      dup1\n      0x908921fc\n      eq\n      tag_13\n      jumpi\n      dup1\n      0xaafc8d74\n      eq\n      tag_14\n      jumpi\n      jump(tag_1)\n    tag_20:\n      dup1\n      0x195c1445\n      gt\n      tag_22\n      jumpi\n      dup1\n      0x195c1445\n      eq\n      tag_6\n      jumpi\n      dup1\n      0x2427e59e\n      eq\n      tag_7\n      jumpi\n      dup1\n      0x3b33c702\n      eq\n      tag_8\n      jumpi\n      dup1\n      0x5e583e37\n      eq\n      tag_9\n      jumpi\n      dup1\n      0x6031a52f\n      eq\n      tag_10\n      jumpi\n      jump(tag_1)\n    tag_22:\n      dup1\n      0x033fab35\n      eq\n      tag_2\n      jumpi\n      dup1\n      0x06661abd\n      eq\n      tag_3\n      jumpi\n      dup1\n      0x07819bd6\n      eq\n      tag_4\n      jumpi\n      dup1\n      0x1165e6ab\n      eq\n      tag_5\n      jumpi\n    tag_1:\n      revert(0x00, 0x00)\n        /* \"AirlineManagement.sol\":1031:1078  mapping(uint256 => Ticket) public ticketDetails */\n    tag_2:\n      callvalue\n      dup1\n      iszero\n      tag_23\n      jumpi\n      revert(0x00, 0x00)\n    tag_23:\n      pop\n      tag_24\n      0x04\n      dup1\n      calldatasize\n      sub\n      dup2\n      add\n      swap1\n      tag_25\n      swap2\n      swap1\n      tag_26\n      jump\t// in\n    tag_25:\n      tag_27\n      jump\t// in\n    tag_24:\n      mload(0x40)\n      tag_28\n      swap9\n      swap8\n      swap7\n      swap6\n      swap5\n      swap4\n      swap3\n      swap2\n      swap1\n      tag_29\n      jump\t// in\n    tag_28:\n      mload(0x40)\n      dup1\n      swap2\n      sub\n      swap1\n      return\n        /* \"AirlineManagement.sol\":840:857  uint public count */\n    tag_3:\n      callvalue\n      dup1\n      iszero\n      tag_30\n      jumpi\n      revert(0x00, 0x00)\n    tag_30:\n      pop\n      tag_31\n      tag_32\n      jump\t// in\n    tag_31:\n      mload(0x40)\n      tag_33\n      swap2\n      swap1\n      tag_34\n      jump\t// in\n    tag_33:\n      mload(0x40)\n      dup1\n      swap2\n      sub\n      swap1\n      return\n        /* \"AirlineManagement.sol\":3294:3921  function getPrice (string memory destination, uint month, uint class, bool way) public view returns(uint) {... */\n    tag_4:\n      callvalue\n      dup1\n      iszero\n      tag_35\n      jumpi\n      revert(0x00, 0x00)\n    tag_35:\n      pop\n      tag_36\n      0x04\n      dup1\n      calldatasize\n      sub\n      dup2\n      add\n      swap1\n      tag_37\n      swap2\n      swap1\n      tag_38\n      jump\t// in\n    tag_37:\n      tag_39\n      jump\t// in\n    tag_36:\n      mload(0x40)\n      tag_40\n      swap2\n      swap1\n      tag_34\n      jump\t// in\n    tag_40:\n      mload(0x40)\n      dup1\n      swap2\n      sub\n      swap1\n      return\n        /* \"AirlineManagement.sol\":5383:5523  function isCeo(address user) public view returns(bool) {... */\n    tag_5:\n      callvalue\n      dup1\n      iszero\n      tag_41\n      jumpi\n      revert(0x00, 0x00)\n    tag_41:\n      pop\n      tag_42\n      0x04\n      dup1\n      calldatasize\n      sub\n      dup2\n      add\n      swap1\n      tag_43\n      swap2\n      swap1\n      tag_44\n      jump\t// in\n    tag_43:\n      tag_45\n      jump\t// in\n    tag_42:\n      mload(0x40)\n      tag_46\n      swap2\n      swap1\n      tag_47\n      jump\t// in\n    tag_46:\n      mload(0x40)\n      dup1\n      swap2\n      sub\n      swap1\n      return\n        /* \"AirlineManagement.sol\":448:479  uint[] public destinationPrices */\n    tag_6:\n      callvalue\n      dup1\n      iszero\n      tag_48\n      jumpi\n      revert(0x00, 0x00)\n    tag_48:\n      pop\n      tag_49\n      0x04\n      dup1\n      calldatasize\n      sub\n      dup2\n      add\n      swap1\n      tag_50\n      swap2\n      swap1\n      tag_26\n      jump\t// in\n    tag_50:\n      tag_51\n      jump\t// in\n    tag_49:\n      mload(0x40)\n      tag_52\n      swap2\n      swap1\n      tag_34\n      jump\t// in\n    tag_52:\n      mload(0x40)\n      dup1\n      swap2\n      sub\n      swap1\n      return\n        /* \"AirlineManagement.sol\":594:632  mapping(string => uint) public indexes */\n    tag_7:\n      callvalue\n      dup1\n      iszero\n      tag_53\n      jumpi\n      revert(0x00, 0x00)\n    tag_53:\n      pop\n      tag_54\n      0x04\n      dup1\n      calldatasize\n      sub\n      dup2\n      add\n      swap1\n      tag_55\n      swap2\n      swap1\n      tag_56\n      jump\t// in\n    tag_55:\n      tag_57\n      jump\t// in\n    tag_54:\n      mload(0x40)\n      tag_58\n      swap2\n      swap1\n      tag_34\n      jump\t// in\n    tag_58:\n      mload(0x40)\n      dup1\n      swap2\n      sub\n      swap1\n      return\n        /* \"AirlineManagement.sol\":529:548  uint[] public seats */\n    tag_8:\n      callvalue\n      dup1\n      iszero\n      tag_59\n      jumpi\n      revert(0x00, 0x00)\n    tag_59:\n      pop\n      tag_60\n      0x04\n      dup1\n      calldatasize\n      sub\n      dup2\n      add\n      swap1\n      tag_61\n      swap2\n      swap1\n      tag_26\n      jump\t// in\n    tag_61:\n      tag_62\n      jump\t// in\n    tag_60:\n      mload(0x40)\n      tag_63\n      swap2\n      swap1\n      tag_34\n      jump\t// in\n    tag_63:\n      mload(0x40)\n      dup1\n      swap2\n      sub\n      swap1\n      return\n        /* \"AirlineManagement.sol\":2284:2888  function createDestination(string memory destination, uint destinationPrice) restricted public {... */\n    tag_9:\n      callvalue\n      dup1\n      iszero\n      tag_64\n      jumpi\n      revert(0x00, 0x00)\n    tag_64:\n      pop\n      tag_65\n      0x04\n      dup1\n      calldatasize\n      sub\n      dup2\n      add\n      swap1\n      tag_66\n      swap2\n      swap1\n      tag_67\n      jump\t// in\n    tag_66:\n      tag_68\n      jump\t// in\n    tag_65:\n      stop\n        /* \"AirlineManagement.sol\":1085:1112  uint256 public nextTicketId */\n    tag_10:\n      callvalue\n      dup1\n      iszero\n      tag_69\n      jumpi\n      revert(0x00, 0x00)\n    tag_69:\n      pop\n      tag_70\n      tag_71\n      jump\t// in\n    tag_70:\n      mload(0x40)\n      tag_72\n      swap2\n      swap1\n      tag_34\n      jump\t// in\n    tag_72:\n      mload(0x40)\n      dup1\n      swap2\n      sub\n      swap1\n      return\n        /* \"AirlineManagement.sol\":766:796  uint[3] public classMultiplier */\n    tag_11:\n      callvalue\n      dup1\n      iszero\n      tag_73\n      jumpi\n      revert(0x00, 0x00)\n    tag_73:\n      pop\n      tag_74\n      0x04\n      dup1\n      calldatasize\n      sub\n      dup2\n      add\n      swap1\n      tag_75\n      swap2\n      swap1\n      tag_26\n      jump\t// in\n    tag_75:\n      tag_76\n      jump\t// in\n    tag_74:\n      mload(0x40)\n      tag_77\n      swap2\n      swap1\n      tag_34\n      jump\t// in\n    tag_77:\n      mload(0x40)\n      dup1\n      swap2\n      sub\n      swap1\n      return\n        /* \"AirlineManagement.sol\":372:400  string[] public destinations */\n    tag_12:\n      callvalue\n      dup1\n      iszero\n      tag_78\n      jumpi\n      revert(0x00, 0x00)\n    tag_78:\n      pop\n      tag_79\n      0x04\n      dup1\n      calldatasize\n      sub\n      dup2\n      add\n      swap1\n      tag_80\n      swap2\n      swap1\n      tag_26\n      jump\t// in\n    tag_80:\n      tag_81\n      jump\t// in\n    tag_79:\n      mload(0x40)\n      tag_82\n      swap2\n      swap1\n      tag_83\n      jump\t// in\n    tag_82:\n      mload(0x40)\n      dup1\n      swap2\n      sub\n      swap1\n      return\n        /* \"AirlineManagement.sol\":321:339  address public ceo */\n    tag_13:\n      callvalue\n      dup1\n      iszero\n      tag_84\n      jumpi\n      revert(0x00, 0x00)\n    tag_84:\n      pop\n      tag_85\n      tag_86\n      jump\t// in\n    tag_85:\n      mload(0x40)\n      tag_87\n      swap2\n      swap1\n      tag_88\n      jump\t// in\n    tag_87:\n      mload(0x40)\n      dup1\n      swap2\n      sub\n      swap1\n      return\n        /* \"AirlineManagement.sol\":6489:6637  function payCEO() public restricted {... */\n    tag_14:\n      callvalue\n      dup1\n      iszero\n      tag_89\n      jumpi\n      revert(0x00, 0x00)\n    tag_89:\n      pop\n      tag_90\n      tag_91\n      jump\t// in\n    tag_90:\n      stop\n        /* \"AirlineManagement.sol\":5532:6477  function getBookedFlights(address user) public view returns (Ticket[] memory) {... */\n    tag_15:\n      callvalue\n      dup1\n      iszero\n      tag_92\n      jumpi\n      revert(0x00, 0x00)\n    tag_92:\n      pop\n      tag_93\n      0x04\n      dup1\n      calldatasize\n      sub\n      dup2\n      add\n      swap1\n      tag_94\n      swap2\n      swap1\n      tag_44\n      jump\t// in\n    tag_94:\n      tag_95\n      jump\t// in\n    tag_93:\n      mload(0x40)\n      tag_96\n      swap2\n      swap1\n      tag_97\n      jump\t// in\n    tag_96:\n      mload(0x40)\n      dup1\n      swap2\n      sub\n      swap1\n      return\n        /* \"AirlineManagement.sol\":962:983  uint public payAmount */\n    tag_16:\n      callvalue\n      dup1\n      iszero\n      tag_98\n      jumpi\n      revert(0x00, 0x00)\n    tag_98:\n      pop\n      tag_99\n      tag_100\n      jump\t// in\n    tag_99:\n      mload(0x40)\n      tag_101\n      swap2\n      swap1\n      tag_34\n      jump\t// in\n    tag_101:\n      mload(0x40)\n      dup1\n      swap2\n      sub\n      swap1\n      return\n        /* \"AirlineManagement.sol\":696:727  uint[12] public monthMultiplier */\n    tag_17:\n      callvalue\n      dup1\n      iszero\n      tag_102\n      jumpi\n      revert(0x00, 0x00)\n    tag_102:\n      pop\n      tag_103\n      0x04\n      dup1\n      calldatasize\n      sub\n      dup2\n      add\n      swap1\n      tag_104\n      swap2\n      swap1\n      tag_26\n      jump\t// in\n    tag_104:\n      tag_105\n      jump\t// in\n    tag_103:\n      mload(0x40)\n      tag_106\n      swap2\n      swap1\n      tag_34\n      jump\t// in\n    tag_106:\n      mload(0x40)\n      dup1\n      swap2\n      sub\n      swap1\n      return\n        /* \"AirlineManagement.sol\":3929:5375  function bookFlight(string memory destination, uint month, uint class, bool way) public payable{... */\n    tag_18:\n      tag_107\n      0x04\n      dup1\n      calldatasize\n      sub\n      dup2\n      add\n      swap1\n      tag_108\n      swap2\n      swap1\n      tag_38\n      jump\t// in\n    tag_108:\n      tag_109\n      jump\t// in\n    tag_107:\n      stop\n        /* \"AirlineManagement.sol\":903:924  bool public canPayout */\n    tag_19:\n      callvalue\n      dup1\n      iszero\n      tag_110\n      jumpi\n      revert(0x00, 0x00)\n    tag_110:\n      pop\n      tag_111\n      tag_112\n      jump\t// in\n    tag_111:\n      mload(0x40)\n      tag_113\n      swap2\n      swap1\n      tag_47\n      jump\t// in\n    tag_113:\n      mload(0x40)\n      dup1\n      swap2\n      sub\n      swap1\n      return\n        /* \"AirlineManagement.sol\":1031:1078  mapping(uint256 => Ticket) public ticketDetails */\n    tag_27:\n      mstore(0x20, 0x17)\n      dup1\n      0x00\n      mstore\n      keccak256(0x00, 0x40)\n      0x00\n      swap2\n      pop\n      swap1\n      pop\n      dup1\n      0x00\n      add\n      0x00\n      swap1\n      sload\n      swap1\n      0x0100\n      exp\n      swap1\n      div\n      0xffffffffffffffffffffffffffffffffffffffff\n      and\n      swap1\n      dup1\n      0x01\n      add\n      dup1\n      sload\n      tag_114\n      swap1\n      tag_115\n      jump\t// in\n    tag_114:\n      dup1\n      0x1f\n      add\n      0x20\n      dup1\n      swap2\n      div\n      mul\n      0x20\n      add\n      mload(0x40)\n      swap1\n      dup2\n      add\n      0x40\n      mstore\n      dup1\n      swap3\n      swap2\n      swap1\n      dup2\n      dup2\n      mstore\n      0x20\n      add\n      dup3\n      dup1\n      sload\n      tag_116\n      swap1\n      tag_115\n      jump\t// in\n    tag_116:\n      dup1\n      iszero\n      tag_117\n      jumpi\n      dup1\n      0x1f\n      lt\n      tag_118\n      jumpi\n      0x0100\n      dup1\n      dup4\n      sload\n      div\n      mul\n      dup4\n      mstore\n      swap2\n      0x20\n      add\n      swap2\n      jump(tag_117)\n    tag_118:\n      dup3\n      add\n      swap2\n      swap1\n      0x00\n      mstore\n      keccak256(0x00, 0x20)\n      swap1\n    tag_119:\n      dup2\n      sload\n      dup2\n      mstore\n      swap1\n      0x01\n      add\n      swap1\n      0x20\n      add\n      dup1\n      dup4\n      gt\n      tag_119\n      jumpi\n      dup3\n      swap1\n      sub\n      0x1f\n      and\n      dup3\n      add\n      swap2\n    tag_117:\n      pop\n      pop\n      pop\n      pop\n      pop\n      swap1\n      dup1\n      0x02\n      add\n      sload\n      swap1\n      dup1\n      0x03\n      add\n      sload\n      swap1\n      dup1\n      0x04\n      add\n      dup1\n      sload\n      tag_120\n      swap1\n      tag_115\n      jump\t// in\n    tag_120:\n      dup1\n      0x1f\n      add\n      0x20\n      dup1\n      swap2\n      div\n      mul\n      0x20\n      add\n      mload(0x40)\n      swap1\n      dup2\n      add\n      0x40\n      mstore\n      dup1\n      swap3\n      swap2\n      swap1\n      dup2\n      dup2\n      mstore\n      0x20\n      add\n      dup3\n      dup1\n      sload\n      tag_121\n      swap1\n      tag_115\n      jump\t// in\n    tag_121:\n      dup1\n      iszero\n      tag_122\n      jumpi\n      dup1\n      0x1f\n      lt\n      tag_123\n      jumpi\n      0x0100\n      dup1\n      dup4\n      sload\n      div\n      mul\n      dup4\n      mstore\n      swap2\n      0x20\n      add\n      swap2\n      jump(tag_122)\n    tag_123:\n      dup3\n      add\n      swap2\n      swap1\n      0x00\n      mstore\n      keccak256(0x00, 0x20)\n      swap1\n    tag_124:\n      dup2\n      sload\n      dup2\n      mstore\n      swap1\n      0x01\n      add\n      swap1\n      0x20\n      add\n      dup1\n      dup4\n      gt\n      tag_124\n      jumpi\n      dup3\n      swap1\n      sub\n      0x1f\n      and\n      dup3\n      add\n      swap2\n    tag_122:\n      pop\n      pop\n      pop\n      pop\n      pop\n      swap1\n      dup1\n      0x05\n      add\n      0x00\n      swap1\n      sload\n      swap1\n      0x0100\n      exp\n      swap1\n      div\n      0xff\n      and\n      swap1\n      dup1\n      0x05\n      add\n      0x01\n      swap1\n      sload\n      swap1\n      0x0100\n      exp\n      swap1\n      div\n      0xff\n      and\n      swap1\n      dup1\n      0x06\n      add\n      sload\n      swap1\n      pop\n      dup9\n      jump\t// out\n        /* \"AirlineManagement.sol\":840:857  uint public count */\n    tag_32:\n      sload(0x14)\n      dup2\n      jump\t// out\n        /* \"AirlineManagement.sol\":3294:3921  function getPrice (string memory destination, uint month, uint class, bool way) public view returns(uint) {... */\n    tag_39:\n        /* \"AirlineManagement.sol\":3394:3398  uint */\n      0x00\n        /* \"AirlineManagement.sol\":3513:3524  destination */\n      dup5\n        /* \"AirlineManagement.sol\":3496:3525  abi.encodePacked(destination) */\n      add(0x20, mload(0x40))\n      tag_126\n      swap2\n      swap1\n      tag_127\n      jump\t// in\n    tag_126:\n      mload(0x40)\n      0x20\n      dup2\n      dup4\n      sub\n      sub\n      dup2\n      mstore\n      swap1\n      0x40\n      mstore\n        /* \"AirlineManagement.sol\":3486:3526  keccak256(abi.encodePacked(destination)) */\n      dup1\n      mload\n      swap1\n      0x20\n      add\n      keccak256\n        /* \"AirlineManagement.sol\":3446:3458  destinations */\n      0x01\n        /* \"AirlineManagement.sol\":3459:3466  indexes */\n      0x04\n        /* \"AirlineManagement.sol\":3467:3478  destination */\n      dup8\n        /* \"AirlineManagement.sol\":3459:3479  indexes[destination] */\n      mload(0x40)\n      tag_128\n      swap2\n      swap1\n      tag_127\n      jump\t// in\n    tag_128:\n      swap1\n      dup2\n      mstore\n      0x20\n      add\n      mload(0x40)\n      dup1\n      swap2\n      sub\n      swap1\n      keccak256\n      sload\n        /* \"AirlineManagement.sol\":3446:3480  destinations[indexes[destination]] */\n      dup2\n      sload\n      dup2\n      lt\n      tag_129\n      jumpi\n      tag_130\n      tag_131\n      jump\t// in\n    tag_130:\n    tag_129:\n      swap1\n      0x00\n      mstore\n      keccak256(0x00, 0x20)\n      add\n        /* \"AirlineManagement.sol\":3429:3481  abi.encodePacked(destinations[indexes[destination]]) */\n      add(0x20, mload(0x40))\n      tag_133\n      swap2\n      swap1\n      tag_134\n      jump\t// in\n    tag_133:\n      mload(0x40)\n      0x20\n      dup2\n      dup4\n      sub\n      sub\n      dup2\n      mstore\n      swap1\n      0x40\n      mstore\n        /* \"AirlineManagement.sol\":3419:3482  keccak256(abi.encodePacked(destinations[indexes[destination]])) */\n      dup1\n      mload\n      swap1\n      0x20\n      add\n      keccak256\n        /* \"AirlineManagement.sol\":3419:3526  keccak256(abi.encodePacked(destinations[indexes[destination]])) == keccak256(abi.encodePacked(destination)) */\n      eq\n        /* \"AirlineManagement.sol\":3411:3569  require(keccak256(abi.encodePacked(destinations[indexes[destination]])) == keccak256(abi.encodePacked(destination)), \"Error: This destination doesn't exist!\") */\n      tag_135\n      jumpi\n      mload(0x40)\n      0x08c379a000000000000000000000000000000000000000000000000000000000\n      dup2\n      mstore\n      0x04\n      add\n      tag_136\n      swap1\n      tag_137\n      jump\t// in\n    tag_136:\n      mload(0x40)\n      dup1\n      swap2\n      sub\n      swap1\n      revert\n    tag_135:\n        /* \"AirlineManagement.sol\":3588:3595  uint cm */\n      0x00\n        /* \"AirlineManagement.sol\":3598:3613  classMultiplier */\n      0x11\n        /* \"AirlineManagement.sol\":3622:3623  1 */\n      0x01\n        /* \"AirlineManagement.sol\":3614:3619  class */\n      dup6\n        /* \"AirlineManagement.sol\":3614:3623  class - 1 */\n      tag_138\n      swap2\n      swap1\n      tag_139\n      jump\t// in\n    tag_138:\n        /* \"AirlineManagement.sol\":3598:3624  classMultiplier[class - 1] */\n      0x03\n      dup2\n      lt\n      tag_140\n      jumpi\n      tag_141\n      tag_131\n      jump\t// in\n    tag_141:\n    tag_140:\n      add\n      sload\n        /* \"AirlineManagement.sol\":3588:3624  uint cm = classMultiplier[class - 1] */\n      swap1\n      pop\n        /* \"AirlineManagement.sol\":3654:3661  uint mm */\n      0x00\n        /* \"AirlineManagement.sol\":3664:3679  monthMultiplier */\n      0x05\n        /* \"AirlineManagement.sol\":3688:3689  1 */\n      0x01\n        /* \"AirlineManagement.sol\":3680:3685  month */\n      dup8\n        /* \"AirlineManagement.sol\":3680:3689  month - 1 */\n      tag_143\n      swap2\n      swap1\n      tag_139\n      jump\t// in\n    tag_143:\n        /* \"AirlineManagement.sol\":3664:3690  monthMultiplier[month - 1] */\n      0x0c\n      dup2\n      lt\n      tag_144\n      jumpi\n      tag_145\n      tag_131\n      jump\t// in\n    tag_145:\n    tag_144:\n      add\n      sload\n        /* \"AirlineManagement.sol\":3654:3690  uint mm = monthMultiplier[month - 1] */\n      swap1\n      pop\n        /* \"AirlineManagement.sol\":3722:3732  uint price */\n      0x00\n        /* \"AirlineManagement.sol\":3777:3779  cm */\n      dup3\n        /* \"AirlineManagement.sol\":3735:3752  destinationPrices */\n      0x02\n        /* \"AirlineManagement.sol\":3753:3760  indexes */\n      0x04\n        /* \"AirlineManagement.sol\":3761:3772  destination */\n      dup11\n        /* \"AirlineManagement.sol\":3753:3773  indexes[destination] */\n      mload(0x40)\n      tag_147\n      swap2\n      swap1\n      tag_127\n      jump\t// in\n    tag_147:\n      swap1\n      dup2\n      mstore\n      0x20\n      add\n      mload(0x40)\n      dup1\n      swap2\n      sub\n      swap1\n      keccak256\n      sload\n        /* \"AirlineManagement.sol\":3735:3774  destinationPrices[indexes[destination]] */\n      dup2\n      sload\n      dup2\n      lt\n      tag_148\n      jumpi\n      tag_149\n      tag_131\n      jump\t// in\n    tag_149:\n    tag_148:\n      swap1\n      0x00\n      mstore\n      keccak256(0x00, 0x20)\n      add\n      sload\n        /* \"AirlineManagement.sol\":3735:3779  destinationPrices[indexes[destination]] * cm */\n      tag_151\n      swap2\n      swap1\n      tag_152\n      jump\t// in\n    tag_151:\n        /* \"AirlineManagement.sol\":3722:3779  uint price = destinationPrices[indexes[destination]] * cm */\n      swap1\n      pop\n        /* \"AirlineManagement.sol\":3795:3798  way */\n      dup5\n        /* \"AirlineManagement.sol\":3792:3823  if(way)... */\n      iszero\n      tag_153\n      jumpi\n        /* \"AirlineManagement.sol\":3822:3823  2 */\n      0x02\n        /* \"AirlineManagement.sol\":3813:3823  price *= 2 */\n      dup2\n      tag_154\n      swap2\n      swap1\n      tag_152\n      jump\t// in\n    tag_154:\n      swap1\n      pop\n        /* \"AirlineManagement.sol\":3792:3823  if(way)... */\n    tag_153:\n        /* \"AirlineManagement.sol\":3844:3846  mm */\n      dup2\n        /* \"AirlineManagement.sol\":3839:3841  10 */\n      0x0a\n        /* \"AirlineManagement.sol\":3839:3846  10 > mm */\n      gt\n        /* \"AirlineManagement.sol\":3836:3878  if(10 > mm)... */\n      iszero\n      tag_155\n      jumpi\n        /* \"AirlineManagement.sol\":3876:3878  mm */\n      dup2\n        /* \"AirlineManagement.sol\":3868:3873  price */\n      dup2\n        /* \"AirlineManagement.sol\":3868:3878  price / mm */\n      tag_156\n      swap2\n      swap1\n      tag_157\n      jump\t// in\n    tag_156:\n        /* \"AirlineManagement.sol\":3861:3878  return price / mm */\n      swap4\n      pop\n      pop\n      pop\n      pop\n      jump(tag_125)\n        /* \"AirlineManagement.sol\":3836:3878  if(10 > mm)... */\n    tag_155:\n        /* \"AirlineManagement.sol\":3910:3912  10 */\n      0x0a\n        /* \"AirlineManagement.sol\":3905:3907  mm */\n      dup3\n        /* \"AirlineManagement.sol\":3905:3912  mm - 10 */\n      tag_158\n      swap2\n      swap1\n      tag_139\n      jump\t// in\n    tag_158:\n        /* \"AirlineManagement.sol\":3896:3901  price */\n      dup2\n        /* \"AirlineManagement.sol\":3896:3913  price * (mm - 10) */\n      tag_159\n      swap2\n      swap1\n      tag_152\n      jump\t// in\n    tag_159:\n        /* \"AirlineManagement.sol\":3889:3913  return price * (mm - 10) */\n      swap4\n      pop\n      pop\n      pop\n      pop\n        /* \"AirlineManagement.sol\":3294:3921  function getPrice (string memory destination, uint month, uint class, bool way) public view returns(uint) {... */\n    tag_125:\n      swap5\n      swap4\n      pop\n      pop\n      pop\n      pop\n      jump\t// out\n        /* \"AirlineManagement.sol\":5383:5523  function isCeo(address user) public view returns(bool) {... */\n    tag_45:\n        /* \"AirlineManagement.sol\":5432:5436  bool */\n      0x00\n        /* \"AirlineManagement.sol\":5465:5468  ceo */\n      0x00\n      0x00\n      swap1\n      sload\n      swap1\n      0x0100\n      exp\n      swap1\n      div\n      0xffffffffffffffffffffffffffffffffffffffff\n      and\n        /* \"AirlineManagement.sol\":5457:5468  user == ceo */\n      0xffffffffffffffffffffffffffffffffffffffff\n      and\n        /* \"AirlineManagement.sol\":5457:5461  user */\n      dup3\n        /* \"AirlineManagement.sol\":5457:5468  user == ceo */\n      0xffffffffffffffffffffffffffffffffffffffff\n      and\n      eq\n        /* \"AirlineManagement.sol\":5449:5493  require(user == ceo, \"You are not the CEO!\") */\n      tag_161\n      jumpi\n      mload(0x40)\n      0x08c379a000000000000000000000000000000000000000000000000000000000\n      dup2\n      mstore\n      0x04\n      add\n      tag_162\n      swap1\n      tag_163\n      jump\t// in\n    tag_162:\n      mload(0x40)\n      dup1\n      swap2\n      sub\n      swap1\n      revert\n    tag_161:\n        /* \"AirlineManagement.sol\":5511:5515  true */\n      0x01\n        /* \"AirlineManagement.sol\":5504:5515  return true */\n      swap1\n      pop\n        /* \"AirlineManagement.sol\":5383:5523  function isCeo(address user) public view returns(bool) {... */\n      swap2\n      swap1\n      pop\n      jump\t// out\n        /* \"AirlineManagement.sol\":448:479  uint[] public destinationPrices */\n    tag_51:\n      0x02\n      dup2\n      dup2\n      sload\n      dup2\n      lt\n      tag_164\n      jumpi\n      0x00\n      dup1\n      revert\n    tag_164:\n      swap1\n      0x00\n      mstore\n      keccak256(0x00, 0x20)\n      add\n      0x00\n      swap2\n      pop\n      swap1\n      pop\n      sload\n      dup2\n      jump\t// out\n        /* \"AirlineManagement.sol\":594:632  mapping(string => uint) public indexes */\n    tag_57:\n      0x04\n      dup2\n      dup1\n      mload\n      0x20\n      dup2\n      add\n      dup3\n      add\n      dup1\n      mload\n      dup5\n      dup3\n      mstore\n      0x20\n      dup4\n      add\n      0x20\n      dup6\n      add\n      keccak256\n      dup2\n      dup4\n      mstore\n      dup1\n      swap6\n      pop\n      pop\n      pop\n      pop\n      pop\n      pop\n      0x00\n      swap2\n      pop\n      swap1\n      pop\n      sload\n      dup2\n      jump\t// out\n        /* \"AirlineManagement.sol\":529:548  uint[] public seats */\n    tag_62:\n      0x03\n      dup2\n      dup2\n      sload\n      dup2\n      lt\n      tag_166\n      jumpi\n      0x00\n      dup1\n      revert\n    tag_166:\n      swap1\n      0x00\n      mstore\n      keccak256(0x00, 0x20)\n      add\n      0x00\n      swap2\n      pop\n      swap1\n      pop\n      sload\n      dup2\n      jump\t// out\n        /* \"AirlineManagement.sol\":2284:2888  function createDestination(string memory destination, uint destinationPrice) restricted public {... */\n    tag_68:\n        /* \"AirlineManagement.sol\":1176:1179  ceo */\n      0x00\n      0x00\n      swap1\n      sload\n      swap1\n      0x0100\n      exp\n      swap1\n      div\n      0xffffffffffffffffffffffffffffffffffffffff\n      and\n        /* \"AirlineManagement.sol\":1162:1179  msg.sender == ceo */\n      0xffffffffffffffffffffffffffffffffffffffff\n      and\n        /* \"AirlineManagement.sol\":1162:1172  msg.sender */\n      caller\n        /* \"AirlineManagement.sol\":1162:1179  msg.sender == ceo */\n      0xffffffffffffffffffffffffffffffffffffffff\n      and\n      eq\n        /* \"AirlineManagement.sol\":1154:1180  require(msg.sender == ceo) */\n      tag_169\n      jumpi\n      revert(0x00, 0x00)\n    tag_169:\n        /* \"AirlineManagement.sol\":2492:2503  destination */\n      dup2\n        /* \"AirlineManagement.sol\":2475:2504  abi.encodePacked(destination) */\n      add(0x20, mload(0x40))\n      tag_171\n      swap2\n      swap1\n      tag_127\n      jump\t// in\n    tag_171:\n      mload(0x40)\n      0x20\n      dup2\n      dup4\n      sub\n      sub\n      dup2\n      mstore\n      swap1\n      0x40\n      mstore\n        /* \"AirlineManagement.sol\":2465:2505  keccak256(abi.encodePacked(destination)) */\n      dup1\n      mload\n      swap1\n      0x20\n      add\n      keccak256\n        /* \"AirlineManagement.sol\":2425:2437  destinations */\n      0x01\n        /* \"AirlineManagement.sol\":2438:2445  indexes */\n      0x04\n        /* \"AirlineManagement.sol\":2446:2457  destination */\n      dup5\n        /* \"AirlineManagement.sol\":2438:2458  indexes[destination] */\n      mload(0x40)\n      tag_172\n      swap2\n      swap1\n      tag_127\n      jump\t// in\n    tag_172:\n      swap1\n      dup2\n      mstore\n      0x20\n      add\n      mload(0x40)\n      dup1\n      swap2\n      sub\n      swap1\n      keccak256\n      sload\n        /* \"AirlineManagement.sol\":2425:2459  destinations[indexes[destination]] */\n      dup2\n      sload\n      dup2\n      lt\n      tag_173\n      jumpi\n      tag_174\n      tag_131\n      jump\t// in\n    tag_174:\n    tag_173:\n      swap1\n      0x00\n      mstore\n      keccak256(0x00, 0x20)\n      add\n        /* \"AirlineManagement.sol\":2408:2460  abi.encodePacked(destinations[indexes[destination]]) */\n      add(0x20, mload(0x40))\n      tag_176\n      swap2\n      swap1\n      tag_134\n      jump\t// in\n    tag_176:\n      mload(0x40)\n      0x20\n      dup2\n      dup4\n      sub\n      sub\n      dup2\n      mstore\n      swap1\n      0x40\n      mstore\n        /* \"AirlineManagement.sol\":2398:2461  keccak256(abi.encodePacked(destinations[indexes[destination]])) */\n      dup1\n      mload\n      swap1\n      0x20\n      add\n      keccak256\n        /* \"AirlineManagement.sol\":2398:2505  keccak256(abi.encodePacked(destinations[indexes[destination]])) != keccak256(abi.encodePacked(destination)) */\n      sub\n        /* \"AirlineManagement.sol\":2390:2549  require(keccak256(abi.encodePacked(destinations[indexes[destination]])) != keccak256(abi.encodePacked(destination)), \"Error: This destination already exists!\") */\n      tag_177\n      jumpi\n      mload(0x40)\n      0x08c379a000000000000000000000000000000000000000000000000000000000\n      dup2\n      mstore\n      0x04\n      add\n      tag_178\n      swap1\n      tag_179\n      jump\t// in\n    tag_178:\n      mload(0x40)\n      dup1\n      swap2\n      sub\n      swap1\n      revert\n    tag_177:\n        /* \"AirlineManagement.sol\":2587:2589  30 */\n      0x1e\n        /* \"AirlineManagement.sol\":2568:2584  destinationPrice */\n      dup2\n        /* \"AirlineManagement.sol\":2568:2589  destinationPrice > 30 */\n      gt\n        /* \"AirlineManagement.sol\":2560:2635  require(destinationPrice > 30, \"Error: Base price cannot be below 30 Wei!\") */\n      tag_180\n      jumpi\n      mload(0x40)\n      0x08c379a000000000000000000000000000000000000000000000000000000000\n      dup2\n      mstore\n      0x04\n      add\n      tag_181\n      swap1\n      tag_182\n      jump\t// in\n    tag_181:\n      mload(0x40)\n      dup1\n      swap2\n      sub\n      swap1\n      revert\n    tag_180:\n        /* \"AirlineManagement.sol\":2646:2704  create30Tickets(msg.sender, destination, destinationPrice) */\n      tag_183\n        /* \"AirlineManagement.sol\":2662:2672  msg.sender */\n      caller\n        /* \"AirlineManagement.sol\":2674:2685  destination */\n      dup4\n        /* \"AirlineManagement.sol\":2687:2703  destinationPrice */\n      dup4\n        /* \"AirlineManagement.sol\":2646:2661  create30Tickets */\n      tag_184\n        /* \"AirlineManagement.sol\":2646:2704  create30Tickets(msg.sender, destination, destinationPrice) */\n      jump\t// in\n    tag_183:\n        /* \"AirlineManagement.sol\":2717:2729  destinations */\n      0x01\n        /* \"AirlineManagement.sol\":2735:2746  destination */\n      dup3\n        /* \"AirlineManagement.sol\":2717:2747  destinations.push(destination) */\n      swap1\n      dup1\n      0x01\n      dup2\n      sload\n      add\n      dup1\n      dup3\n      sstore\n      dup1\n      swap2\n      pop\n      pop\n      0x01\n      swap1\n      sub\n      swap1\n      0x00\n      mstore\n      keccak256(0x00, 0x20)\n      add\n      0x00\n      swap1\n      swap2\n      swap1\n      swap2\n      swap1\n      swap2\n      pop\n      swap1\n      dup2\n      tag_186\n      swap2\n      swap1\n      tag_187\n      jump\t// in\n    tag_186:\n      pop\n        /* \"AirlineManagement.sol\":2758:2775  destinationPrices */\n      0x02\n        /* \"AirlineManagement.sol\":2781:2797  destinationPrice */\n      dup2\n        /* \"AirlineManagement.sol\":2758:2798  destinationPrices.push(destinationPrice) */\n      swap1\n      dup1\n      0x01\n      dup2\n      sload\n      add\n      dup1\n      dup3\n      sstore\n      dup1\n      swap2\n      pop\n      pop\n      0x01\n      swap1\n      sub\n      swap1\n      0x00\n      mstore\n      keccak256(0x00, 0x20)\n      add\n      0x00\n      swap1\n      swap2\n      swap1\n      swap2\n      swap1\n      swap2\n      pop\n      sstore\n        /* \"AirlineManagement.sol\":2832:2837  count */\n      sload(0x14)\n        /* \"AirlineManagement.sol\":2809:2816  indexes */\n      0x04\n        /* \"AirlineManagement.sol\":2817:2828  destination */\n      dup4\n        /* \"AirlineManagement.sol\":2809:2829  indexes[destination] */\n      mload(0x40)\n      tag_189\n      swap2\n      swap1\n      tag_127\n      jump\t// in\n    tag_189:\n      swap1\n      dup2\n      mstore\n      0x20\n      add\n      mload(0x40)\n      dup1\n      swap2\n      sub\n      swap1\n      keccak256\n        /* \"AirlineManagement.sol\":2809:2837  indexes[destination] = count */\n      dup2\n      swap1\n      sstore\n      pop\n        /* \"AirlineManagement.sol\":2848:2853  seats */\n      0x03\n        /* \"AirlineManagement.sol\":2859:2861  30 */\n      0x1e\n        /* \"AirlineManagement.sol\":2848:2862  seats.push(30) */\n      swap1\n      dup1\n      0x01\n      dup2\n      sload\n      add\n      dup1\n      dup3\n      sstore\n      dup1\n      swap2\n      pop\n      pop\n      0x01\n      swap1\n      sub\n      swap1\n      0x00\n      mstore\n      keccak256(0x00, 0x20)\n      add\n      0x00\n      swap1\n      swap2\n      swap1\n      swap2\n      swap1\n      swap2\n      pop\n      sstore\n        /* \"AirlineManagement.sol\":2873:2878  count */\n      0x14\n      0x00\n        /* \"AirlineManagement.sol\":2873:2880  count++ */\n      dup2\n      sload\n      dup1\n      swap3\n      swap2\n      swap1\n      tag_191\n      swap1\n      tag_192\n      jump\t// in\n    tag_191:\n      swap2\n      swap1\n      pop\n      sstore\n      pop\n        /* \"AirlineManagement.sol\":2284:2888  function createDestination(string memory destination, uint destinationPrice) restricted public {... */\n      pop\n      pop\n      jump\t// out\n        /* \"AirlineManagement.sol\":1085:1112  uint256 public nextTicketId */\n    tag_71:\n      sload(0x18)\n      dup2\n      jump\t// out\n        /* \"AirlineManagement.sol\":766:796  uint[3] public classMultiplier */\n    tag_76:\n      0x11\n      dup2\n      0x03\n      dup2\n      lt\n      tag_193\n      jumpi\n      0x00\n      dup1\n      revert\n    tag_193:\n      add\n      0x00\n      swap2\n      pop\n      swap1\n      pop\n      sload\n      dup2\n      jump\t// out\n        /* \"AirlineManagement.sol\":372:400  string[] public destinations */\n    tag_81:\n      0x01\n      dup2\n      dup2\n      sload\n      dup2\n      lt\n      tag_195\n      jumpi\n      0x00\n      dup1\n      revert\n    tag_195:\n      swap1\n      0x00\n      mstore\n      keccak256(0x00, 0x20)\n      add\n      0x00\n      swap2\n      pop\n      swap1\n      pop\n      dup1\n      sload\n      tag_197\n      swap1\n      tag_115\n      jump\t// in\n    tag_197:\n      dup1\n      0x1f\n      add\n      0x20\n      dup1\n      swap2\n      div\n      mul\n      0x20\n      add\n      mload(0x40)\n      swap1\n      dup2\n      add\n      0x40\n      mstore\n      dup1\n      swap3\n      swap2\n      swap1\n      dup2\n      dup2\n      mstore\n      0x20\n      add\n      dup3\n      dup1\n      sload\n      tag_198\n      swap1\n      tag_115\n      jump\t// in\n    tag_198:\n      dup1\n      iszero\n      tag_199\n      jumpi\n      dup1\n      0x1f\n      lt\n      tag_200\n      jumpi\n      0x0100\n      dup1\n      dup4\n      sload\n      div\n      mul\n      dup4\n      mstore\n      swap2\n      0x20\n      add\n      swap2\n      jump(tag_199)\n    tag_200:\n      dup3\n      add\n      swap2\n      swap1\n      0x00\n      mstore\n      keccak256(0x00, 0x20)\n      swap1\n    tag_201:\n      dup2\n      sload\n      dup2\n      mstore\n      swap1\n      0x01\n      add\n      swap1\n      0x20\n      add\n      dup1\n      dup4\n      gt\n      tag_201\n      jumpi\n      dup3\n      swap1\n      sub\n      0x1f\n      and\n      dup3\n      add\n      swap2\n    tag_199:\n      pop\n      pop\n      pop\n      pop\n      pop\n      dup2\n      jump\t// out\n        /* \"AirlineManagement.sol\":321:339  address public ceo */\n    tag_86:\n      0x00\n      0x00\n      swap1\n      sload\n      swap1\n      0x0100\n      exp\n      swap1\n      div\n      0xffffffffffffffffffffffffffffffffffffffff\n      and\n      dup2\n      jump\t// out\n        /* \"AirlineManagement.sol\":6489:6637  function payCEO() public restricted {... */\n    tag_91:\n        /* \"AirlineManagement.sol\":1176:1179  ceo */\n      0x00\n      0x00\n      swap1\n      sload\n      swap1\n      0x0100\n      exp\n      swap1\n      div\n      0xffffffffffffffffffffffffffffffffffffffff\n      and\n        /* \"AirlineManagement.sol\":1162:1179  msg.sender == ceo */\n      0xffffffffffffffffffffffffffffffffffffffff\n      and\n        /* \"AirlineManagement.sol\":1162:1172  msg.sender */\n      caller\n        /* \"AirlineManagement.sol\":1162:1179  msg.sender == ceo */\n      0xffffffffffffffffffffffffffffffffffffffff\n      and\n      eq\n        /* \"AirlineManagement.sol\":1154:1180  require(msg.sender == ceo) */\n      tag_203\n      jumpi\n      revert(0x00, 0x00)\n    tag_203:\n        /* \"AirlineManagement.sol\":6544:6547  ceo */\n      0x00\n      0x00\n      swap1\n      sload\n      swap1\n      0x0100\n      exp\n      swap1\n      div\n      0xffffffffffffffffffffffffffffffffffffffff\n      and\n        /* \"AirlineManagement.sol\":6536:6557  payable(ceo).transfer */\n      0xffffffffffffffffffffffffffffffffffffffff\n      and\n        /* \"AirlineManagement.sol\":6536:6577  payable(ceo).transfer(payAmount * 9 / 10) */\n      0x08fc\n        /* \"AirlineManagement.sol\":6574:6576  10 */\n      0x0a\n        /* \"AirlineManagement.sol\":6570:6571  9 */\n      0x09\n        /* \"AirlineManagement.sol\":6558:6567  payAmount */\n      sload(0x16)\n        /* \"AirlineManagement.sol\":6558:6571  payAmount * 9 */\n      tag_205\n      swap2\n      swap1\n      tag_152\n      jump\t// in\n    tag_205:\n        /* \"AirlineManagement.sol\":6558:6576  payAmount * 9 / 10 */\n      tag_206\n      swap2\n      swap1\n      tag_157\n      jump\t// in\n    tag_206:\n        /* \"AirlineManagement.sol\":6536:6577  payable(ceo).transfer(payAmount * 9 / 10) */\n      swap1\n      dup2\n      iszero\n      mul\n      swap1\n      mload(0x40)\n      0x00\n      mload(0x40)\n      dup1\n      dup4\n      sub\n      dup2\n      dup6\n      dup9\n      dup9\n      call\n      swap4\n      pop\n      pop\n      pop\n      pop\n      iszero\n      dup1\n      iszero\n      tag_208\n      jumpi\n      returndatacopy(0x00, 0x00, returndatasize)\n      revert(0x00, returndatasize)\n    tag_208:\n      pop\n        /* \"AirlineManagement.sol\":6600:6605  false */\n      0x00\n        /* \"AirlineManagement.sol\":6588:6597  canPayout */\n      0x15\n      0x00\n        /* \"AirlineManagement.sol\":6588:6605  canPayout = false */\n      0x0100\n      exp\n      dup2\n      sload\n      dup2\n      0xff\n      mul\n      not\n      and\n      swap1\n      dup4\n      iszero\n      iszero\n      mul\n      or\n      swap1\n      sstore\n      pop\n        /* \"AirlineManagement.sol\":6628:6629  0 */\n      0x00\n        /* \"AirlineManagement.sol\":6616:6625  payAmount */\n      0x16\n        /* \"AirlineManagement.sol\":6616:6629  payAmount = 0 */\n      dup2\n      swap1\n      sstore\n      pop\n        /* \"AirlineManagement.sol\":6489:6637  function payCEO() public restricted {... */\n      jump\t// out\n        /* \"AirlineManagement.sol\":5532:6477  function getBookedFlights(address user) public view returns (Ticket[] memory) {... */\n    tag_95:\n        /* \"AirlineManagement.sol\":5593:5608  Ticket[] memory */\n      0x60\n        /* \"AirlineManagement.sol\":5621:5637  uint bookedCount */\n      0x00\n        /* \"AirlineManagement.sol\":5640:5641  0 */\n      0x00\n        /* \"AirlineManagement.sol\":5621:5641  uint bookedCount = 0 */\n      swap1\n      pop\n        /* \"AirlineManagement.sol\":5747:5759  uint tokenId */\n      0x00\n        /* \"AirlineManagement.sol\":5762:5763  0 */\n      0x00\n        /* \"AirlineManagement.sol\":5747:5763  uint tokenId = 0 */\n      swap1\n      pop\n        /* \"AirlineManagement.sol\":5742:5955  for (uint tokenId = 0; tokenId < nextTicketId; tokenId++) {... */\n    tag_210:\n        /* \"AirlineManagement.sol\":5775:5787  nextTicketId */\n      sload(0x18)\n        /* \"AirlineManagement.sol\":5765:5772  tokenId */\n      dup2\n        /* \"AirlineManagement.sol\":5765:5787  tokenId < nextTicketId */\n      lt\n        /* \"AirlineManagement.sol\":5742:5955  for (uint tokenId = 0; tokenId < nextTicketId; tokenId++) {... */\n      iszero\n      tag_211\n      jumpi\n        /* \"AirlineManagement.sol\":5851:5855  user */\n      dup4\n        /* \"AirlineManagement.sol\":5819:5855  ticketDetails[tokenId].owner == user */\n      0xffffffffffffffffffffffffffffffffffffffff\n      and\n        /* \"AirlineManagement.sol\":5819:5832  ticketDetails */\n      0x17\n        /* \"AirlineManagement.sol\":5819:5841  ticketDetails[tokenId] */\n      0x00\n        /* \"AirlineManagement.sol\":5833:5840  tokenId */\n      dup4\n        /* \"AirlineManagement.sol\":5819:5841  ticketDetails[tokenId] */\n      dup2\n      mstore\n      0x20\n      add\n      swap1\n      dup2\n      mstore\n      0x20\n      add\n      0x00\n      keccak256\n        /* \"AirlineManagement.sol\":5819:5847  ticketDetails[tokenId].owner */\n      0x00\n      add\n      0x00\n      swap1\n      sload\n      swap1\n      0x0100\n      exp\n      swap1\n      div\n      0xffffffffffffffffffffffffffffffffffffffff\n      and\n        /* \"AirlineManagement.sol\":5819:5855  ticketDetails[tokenId].owner == user */\n      0xffffffffffffffffffffffffffffffffffffffff\n      and\n      eq\n        /* \"AirlineManagement.sol\":5819:5894  ticketDetails[tokenId].owner == user && !ticketDetails[tokenId].isAvailable */\n      dup1\n      iszero\n      tag_213\n      jumpi\n      pop\n        /* \"AirlineManagement.sol\":5860:5873  ticketDetails */\n      0x17\n        /* \"AirlineManagement.sol\":5860:5882  ticketDetails[tokenId] */\n      0x00\n        /* \"AirlineManagement.sol\":5874:5881  tokenId */\n      dup3\n        /* \"AirlineManagement.sol\":5860:5882  ticketDetails[tokenId] */\n      dup2\n      mstore\n      0x20\n      add\n      swap1\n      dup2\n      mstore\n      0x20\n      add\n      0x00\n      keccak256\n        /* \"AirlineManagement.sol\":5860:5894  ticketDetails[tokenId].isAvailable */\n      0x05\n      add\n      0x01\n      swap1\n      sload\n      swap1\n      0x0100\n      exp\n      swap1\n      div\n      0xff\n      and\n        /* \"AirlineManagement.sol\":5859:5894  !ticketDetails[tokenId].isAvailable */\n      iszero\n        /* \"AirlineManagement.sol\":5819:5894  ticketDetails[tokenId].owner == user && !ticketDetails[tokenId].isAvailable */\n    tag_213:\n        /* \"AirlineManagement.sol\":5815:5944  if (ticketDetails[tokenId].owner == user && !ticketDetails[tokenId].isAvailable) {... */\n      iszero\n      tag_214\n      jumpi\n        /* \"AirlineManagement.sol\":5915:5928  bookedCount++ */\n      dup2\n      dup1\n      tag_215\n      swap1\n      tag_192\n      jump\t// in\n    tag_215:\n      swap3\n      pop\n      pop\n        /* \"AirlineManagement.sol\":5815:5944  if (ticketDetails[tokenId].owner == user && !ticketDetails[tokenId].isAvailable) {... */\n    tag_214:\n        /* \"AirlineManagement.sol\":5789:5798  tokenId++ */\n      dup1\n      dup1\n      0x01\n      add\n      swap2\n      pop\n      pop\n        /* \"AirlineManagement.sol\":5742:5955  for (uint tokenId = 0; tokenId < nextTicketId; tokenId++) {... */\n      jump(tag_210)\n    tag_211:\n      pop\n        /* \"AirlineManagement.sol\":6029:6058  Ticket[] memory bookedTickets */\n      0x00\n        /* \"AirlineManagement.sol\":6074:6085  bookedCount */\n      dup2\n        /* \"AirlineManagement.sol\":6061:6086  new Ticket[](bookedCount) */\n      0xffffffffffffffff\n      dup2\n      gt\n      iszero\n      tag_216\n      jumpi\n      tag_217\n      tag_218\n      jump\t// in\n    tag_217:\n    tag_216:\n      mload(0x40)\n      swap1\n      dup1\n      dup3\n      mstore\n      dup1\n      0x20\n      mul\n      0x20\n      add\n      dup3\n      add\n      0x40\n      mstore\n      dup1\n      iszero\n      tag_219\n      jumpi\n      dup2\n      0x20\n      add\n    tag_220:\n      tag_221\n      tag_222\n      jump\t// in\n    tag_221:\n      dup2\n      mstore\n      0x20\n      add\n      swap1\n      0x01\n      swap1\n      sub\n      swap1\n      dup2\n      tag_220\n      jumpi\n      swap1\n      pop\n    tag_219:\n      pop\n        /* \"AirlineManagement.sol\":6029:6086  Ticket[] memory bookedTickets = new Ticket[](bookedCount) */\n      swap1\n      pop\n        /* \"AirlineManagement.sol\":6097:6107  uint index */\n      0x00\n        /* \"AirlineManagement.sol\":6110:6111  0 */\n      0x00\n        /* \"AirlineManagement.sol\":6097:6111  uint index = 0 */\n      swap1\n      pop\n        /* \"AirlineManagement.sol\":6171:6183  uint tokenId */\n      0x00\n        /* \"AirlineManagement.sol\":6186:6187  0 */\n      0x00\n        /* \"AirlineManagement.sol\":6171:6187  uint tokenId = 0 */\n      swap1\n      pop\n        /* \"AirlineManagement.sol\":6166:6437  for (uint tokenId = 0; tokenId < nextTicketId; tokenId++) {... */\n    tag_223:\n        /* \"AirlineManagement.sol\":6199:6211  nextTicketId */\n      sload(0x18)\n        /* \"AirlineManagement.sol\":6189:6196  tokenId */\n      dup2\n        /* \"AirlineManagement.sol\":6189:6211  tokenId < nextTicketId */\n      lt\n        /* \"AirlineManagement.sol\":6166:6437  for (uint tokenId = 0; tokenId < nextTicketId; tokenId++) {... */\n      iszero\n      tag_224\n      jumpi\n        /* \"AirlineManagement.sol\":6275:6279  user */\n      dup6\n        /* \"AirlineManagement.sol\":6243:6279  ticketDetails[tokenId].owner == user */\n      0xffffffffffffffffffffffffffffffffffffffff\n      and\n        /* \"AirlineManagement.sol\":6243:6256  ticketDetails */\n      0x17\n        /* \"AirlineManagement.sol\":6243:6265  ticketDetails[tokenId] */\n      0x00\n        /* \"AirlineManagement.sol\":6257:6264  tokenId */\n      dup4\n        /* \"AirlineManagement.sol\":6243:6265  ticketDetails[tokenId] */\n      dup2\n      mstore\n      0x20\n      add\n      swap1\n      dup2\n      mstore\n      0x20\n      add\n      0x00\n      keccak256\n        /* \"AirlineManagement.sol\":6243:6271  ticketDetails[tokenId].owner */\n      0x00\n      add\n      0x00\n      swap1\n      sload\n      swap1\n      0x0100\n      exp\n      swap1\n      div\n      0xffffffffffffffffffffffffffffffffffffffff\n      and\n        /* \"AirlineManagement.sol\":6243:6279  ticketDetails[tokenId].owner == user */\n      0xffffffffffffffffffffffffffffffffffffffff\n      and\n      eq\n        /* \"AirlineManagement.sol\":6243:6318  ticketDetails[tokenId].owner == user && !ticketDetails[tokenId].isAvailable */\n      dup1\n      iszero\n      tag_226\n      jumpi\n      pop\n        /* \"AirlineManagement.sol\":6284:6297  ticketDetails */\n      0x17\n        /* \"AirlineManagement.sol\":6284:6306  ticketDetails[tokenId] */\n      0x00\n        /* \"AirlineManagement.sol\":6298:6305  tokenId */\n      dup3\n        /* \"AirlineManagement.sol\":6284:6306  ticketDetails[tokenId] */\n      dup2\n      mstore\n      0x20\n      add\n      swap1\n      dup2\n      mstore\n      0x20\n      add\n      0x00\n      keccak256\n        /* \"AirlineManagement.sol\":6284:6318  ticketDetails[tokenId].isAvailable */\n      0x05\n      add\n      0x01\n      swap1\n      sload\n      swap1\n      0x0100\n      exp\n      swap1\n      div\n      0xff\n      and\n        /* \"AirlineManagement.sol\":6283:6318  !ticketDetails[tokenId].isAvailable */\n      iszero\n        /* \"AirlineManagement.sol\":6243:6318  ticketDetails[tokenId].owner == user && !ticketDetails[tokenId].isAvailable */\n    tag_226:\n        /* \"AirlineManagement.sol\":6239:6426  if (ticketDetails[tokenId].owner == user && !ticketDetails[tokenId].isAvailable) {... */\n      iszero\n      tag_227\n      jumpi\n        /* \"AirlineManagement.sol\":6362:6375  ticketDetails */\n      0x17\n        /* \"AirlineManagement.sol\":6362:6384  ticketDetails[tokenId] */\n      0x00\n        /* \"AirlineManagement.sol\":6376:6383  tokenId */\n      dup3\n        /* \"AirlineManagement.sol\":6362:6384  ticketDetails[tokenId] */\n      dup2\n      mstore\n      0x20\n      add\n      swap1\n      dup2\n      mstore\n      0x20\n      add\n      0x00\n      keccak256\n        /* \"AirlineManagement.sol\":6339:6384  bookedTickets[index] = ticketDetails[tokenId] */\n      mload(0x40)\n      dup1\n      0x0100\n      add\n      0x40\n      mstore\n      swap1\n      dup2\n      0x00\n      dup3\n      add\n      0x00\n      swap1\n      sload\n      swap1\n      0x0100\n      exp\n      swap1\n      div\n      0xffffffffffffffffffffffffffffffffffffffff\n      and\n      0xffffffffffffffffffffffffffffffffffffffff\n      and\n      0xffffffffffffffffffffffffffffffffffffffff\n      and\n      dup2\n      mstore\n      0x20\n      add\n      0x01\n      dup3\n      add\n      dup1\n      sload\n      tag_228\n      swap1\n      tag_115\n      jump\t// in\n    tag_228:\n      dup1\n      0x1f\n      add\n      0x20\n      dup1\n      swap2\n      div\n      mul\n      0x20\n      add\n      mload(0x40)\n      swap1\n      dup2\n      add\n      0x40\n      mstore\n      dup1\n      swap3\n      swap2\n      swap1\n      dup2\n      dup2\n      mstore\n      0x20\n      add\n      dup3\n      dup1\n      sload\n      tag_229\n      swap1\n      tag_115\n      jump\t// in\n    tag_229:\n      dup1\n      iszero\n      tag_230\n      jumpi\n      dup1\n      0x1f\n      lt\n      tag_231\n      jumpi\n      0x0100\n      dup1\n      dup4\n      sload\n      div\n      mul\n      dup4\n      mstore\n      swap2\n      0x20\n      add\n      swap2\n      jump(tag_230)\n    tag_231:\n      dup3\n      add\n      swap2\n      swap1\n      0x00\n      mstore\n      keccak256(0x00, 0x20)\n      swap1\n    tag_232:\n      dup2\n      sload\n      dup2\n      mstore\n      swap1\n      0x01\n      add\n      swap1\n      0x20\n      add\n      dup1\n      dup4\n      gt\n      tag_232\n      jumpi\n      dup3\n      swap1\n      sub\n      0x1f\n      and\n      dup3\n      add\n      swap2\n    tag_230:\n      pop\n      pop\n      pop\n      pop\n      pop\n      dup2\n      mstore\n      0x20\n      add\n      0x02\n      dup3\n      add\n      sload\n      dup2\n      mstore\n      0x20\n      add\n      0x03\n      dup3\n      add\n      sload\n      dup2\n      mstore\n      0x20\n      add\n      0x04\n      dup3\n      add\n      dup1\n      sload\n      tag_233\n      swap1\n      tag_115\n      jump\t// in\n    tag_233:\n      dup1\n      0x1f\n      add\n      0x20\n      dup1\n      swap2\n      div\n      mul\n      0x20\n      add\n      mload(0x40)\n      swap1\n      dup2\n      add\n      0x40\n      mstore\n      dup1\n      swap3\n      swap2\n      swap1\n      dup2\n      dup2\n      mstore\n      0x20\n      add\n      dup3\n      dup1\n      sload\n      tag_234\n      swap1\n      tag_115\n      jump\t// in\n    tag_234:\n      dup1\n      iszero\n      tag_235\n      jumpi\n      dup1\n      0x1f\n      lt\n      tag_236\n      jumpi\n      0x0100\n      dup1\n      dup4\n      sload\n      div\n      mul\n      dup4\n      mstore\n      swap2\n      0x20\n      add\n      swap2\n      jump(tag_235)\n    tag_236:\n      dup3\n      add\n      swap2\n      swap1\n      0x00\n      mstore\n      keccak256(0x00, 0x20)\n      swap1\n    tag_237:\n      dup2\n      sload\n      dup2\n      mstore\n      swap1\n      0x01\n      add\n      swap1\n      0x20\n      add\n      dup1\n      dup4\n      gt\n      tag_237\n      jumpi\n      dup3\n      swap1\n      sub\n      0x1f\n      and\n      dup3\n      add\n      swap2\n    tag_235:\n      pop\n      pop\n      pop\n      pop\n      pop\n      dup2\n      mstore\n      0x20\n      add\n      0x05\n      dup3\n      add\n      0x00\n      swap1\n      sload\n      swap1\n      0x0100\n      exp\n      swap1\n      div\n      0xff\n      and\n      iszero\n      iszero\n      iszero\n      iszero\n      dup2\n      mstore\n      0x20\n      add\n      0x05\n      dup3\n      add\n      0x01\n      swap1\n      sload\n      swap1\n      0x0100\n      exp\n      swap1\n      div\n      0xff\n      and\n      iszero\n      iszero\n      iszero\n      iszero\n      dup2\n      mstore\n      0x20\n      add\n      0x06\n      dup3\n      add\n      sload\n      dup2\n      mstore\n      pop\n      pop\n        /* \"AirlineManagement.sol\":6339:6352  bookedTickets */\n      dup4\n        /* \"AirlineManagement.sol\":6353:6358  index */\n      dup4\n        /* \"AirlineManagement.sol\":6339:6359  bookedTickets[index] */\n      dup2\n      mload\n      dup2\n      lt\n      tag_238\n      jumpi\n      tag_239\n      tag_131\n      jump\t// in\n    tag_239:\n    tag_238:\n      0x20\n      mul\n      0x20\n      add\n      add\n        /* \"AirlineManagement.sol\":6339:6384  bookedTickets[index] = ticketDetails[tokenId] */\n      dup2\n      swap1\n      mstore\n      pop\n        /* \"AirlineManagement.sol\":6403:6410  index++ */\n      dup2\n      dup1\n      tag_240\n      swap1\n      tag_192\n      jump\t// in\n    tag_240:\n      swap3\n      pop\n      pop\n        /* \"AirlineManagement.sol\":6239:6426  if (ticketDetails[tokenId].owner == user && !ticketDetails[tokenId].isAvailable) {... */\n    tag_227:\n        /* \"AirlineManagement.sol\":6213:6222  tokenId++ */\n      dup1\n      dup1\n      0x01\n      add\n      swap2\n      pop\n      pop\n        /* \"AirlineManagement.sol\":6166:6437  for (uint tokenId = 0; tokenId < nextTicketId; tokenId++) {... */\n      jump(tag_223)\n    tag_224:\n      pop\n        /* \"AirlineManagement.sol\":6456:6469  bookedTickets */\n      dup2\n        /* \"AirlineManagement.sol\":6449:6469  return bookedTickets */\n      swap4\n      pop\n      pop\n      pop\n      pop\n        /* \"AirlineManagement.sol\":5532:6477  function getBookedFlights(address user) public view returns (Ticket[] memory) {... */\n      swap2\n      swap1\n      pop\n      jump\t// out\n        /* \"AirlineManagement.sol\":962:983  uint public payAmount */\n    tag_100:\n      sload(0x16)\n      dup2\n      jump\t// out\n        /* \"AirlineManagement.sol\":696:727  uint[12] public monthMultiplier */\n    tag_105:\n      0x05\n      dup2\n      0x0c\n      dup2\n      lt\n      tag_241\n      jumpi\n      0x00\n      dup1\n      revert\n    tag_241:\n      add\n      0x00\n      swap2\n      pop\n      swap1\n      pop\n      sload\n      dup2\n      jump\t// out\n        /* \"AirlineManagement.sol\":3929:5375  function bookFlight(string memory destination, uint month, uint class, bool way) public payable{... */\n    tag_109:\n        /* \"AirlineManagement.sol\":4056:4096  getPrice(destination, month, class, way) */\n      tag_244\n        /* \"AirlineManagement.sol\":4065:4076  destination */\n      dup5\n        /* \"AirlineManagement.sol\":4078:4083  month */\n      dup5\n        /* \"AirlineManagement.sol\":4085:4090  class */\n      dup5\n        /* \"AirlineManagement.sol\":4092:4095  way */\n      dup5\n        /* \"AirlineManagement.sol\":4056:4064  getPrice */\n      tag_39\n        /* \"AirlineManagement.sol\":4056:4096  getPrice(destination, month, class, way) */\n      jump\t// in\n    tag_244:\n        /* \"AirlineManagement.sol\":4043:4052  msg.value */\n      callvalue\n        /* \"AirlineManagement.sol\":4043:4096  msg.value == getPrice(destination, month, class, way) */\n      eq\n        /* \"AirlineManagement.sol\":4035:4097  require(msg.value == getPrice(destination, month, class, way)) */\n      tag_245\n      jumpi\n      revert(0x00, 0x00)\n    tag_245:\n        /* \"AirlineManagement.sol\":4210:4221  destination */\n      dup4\n        /* \"AirlineManagement.sol\":4193:4222  abi.encodePacked(destination) */\n      add(0x20, mload(0x40))\n      tag_246\n      swap2\n      swap1\n      tag_127\n      jump\t// in\n    tag_246:\n      mload(0x40)\n      0x20\n      dup2\n      dup4\n      sub\n      sub\n      dup2\n      mstore\n      swap1\n      0x40\n      mstore\n        /* \"AirlineManagement.sol\":4183:4223  keccak256(abi.encodePacked(destination)) */\n      dup1\n      mload\n      swap1\n      0x20\n      add\n      keccak256\n        /* \"AirlineManagement.sol\":4143:4155  destinations */\n      0x01\n        /* \"AirlineManagement.sol\":4156:4163  indexes */\n      0x04\n        /* \"AirlineManagement.sol\":4164:4175  destination */\n      dup7\n        /* \"AirlineManagement.sol\":4156:4176  indexes[destination] */\n      mload(0x40)\n      tag_247\n      swap2\n      swap1\n      tag_127\n      jump\t// in\n    tag_247:\n      swap1\n      dup2\n      mstore\n      0x20\n      add\n      mload(0x40)\n      dup1\n      swap2\n      sub\n      swap1\n      keccak256\n      sload\n        /* \"AirlineManagement.sol\":4143:4177  destinations[indexes[destination]] */\n      dup2\n      sload\n      dup2\n      lt\n      tag_248\n      jumpi\n      tag_249\n      tag_131\n      jump\t// in\n    tag_249:\n    tag_248:\n      swap1\n      0x00\n      mstore\n      keccak256(0x00, 0x20)\n      add\n        /* \"AirlineManagement.sol\":4126:4178  abi.encodePacked(destinations[indexes[destination]]) */\n      add(0x20, mload(0x40))\n      tag_251\n      swap2\n      swap1\n      tag_134\n      jump\t// in\n    tag_251:\n      mload(0x40)\n      0x20\n      dup2\n      dup4\n      sub\n      sub\n      dup2\n      mstore\n      swap1\n      0x40\n      mstore\n        /* \"AirlineManagement.sol\":4116:4179  keccak256(abi.encodePacked(destinations[indexes[destination]])) */\n      dup1\n      mload\n      swap1\n      0x20\n      add\n      keccak256\n        /* \"AirlineManagement.sol\":4116:4223  keccak256(abi.encodePacked(destinations[indexes[destination]])) == keccak256(abi.encodePacked(destination)) */\n      eq\n        /* \"AirlineManagement.sol\":4108:4266  require(keccak256(abi.encodePacked(destinations[indexes[destination]])) == keccak256(abi.encodePacked(destination)), \"Error: This destination doesn't exist!\") */\n      tag_252\n      jumpi\n      mload(0x40)\n      0x08c379a000000000000000000000000000000000000000000000000000000000\n      dup2\n      mstore\n      0x04\n      add\n      tag_253\n      swap1\n      tag_137\n      jump\t// in\n    tag_253:\n      mload(0x40)\n      dup1\n      swap2\n      sub\n      swap1\n      revert\n    tag_252:\n        /* \"AirlineManagement.sol\":4337:4348  bool booked */\n      0x00\n        /* \"AirlineManagement.sol\":4351:4356  false */\n      0x00\n        /* \"AirlineManagement.sol\":4337:4356  bool booked = false */\n      swap1\n      pop\n        /* \"AirlineManagement.sol\":4372:4384  uint tokenId */\n      0x00\n        /* \"AirlineManagement.sol\":4387:4388  0 */\n      0x00\n        /* \"AirlineManagement.sol\":4372:4388  uint tokenId = 0 */\n      swap1\n      pop\n        /* \"AirlineManagement.sol\":4367:5140  for (uint tokenId = 0; tokenId < nextTicketId; tokenId++) {... */\n    tag_254:\n        /* \"AirlineManagement.sol\":4400:4412  nextTicketId */\n      sload(0x18)\n        /* \"AirlineManagement.sol\":4390:4397  tokenId */\n      dup2\n        /* \"AirlineManagement.sol\":4390:4412  tokenId < nextTicketId */\n      lt\n        /* \"AirlineManagement.sol\":4367:5140  for (uint tokenId = 0; tokenId < nextTicketId; tokenId++) {... */\n      iszero\n      tag_255\n      jumpi\n        /* \"AirlineManagement.sol\":4440:4461  Ticket storage ticket */\n      0x00\n        /* \"AirlineManagement.sol\":4464:4477  ticketDetails */\n      0x17\n        /* \"AirlineManagement.sol\":4464:4486  ticketDetails[tokenId] */\n      0x00\n        /* \"AirlineManagement.sol\":4478:4485  tokenId */\n      dup4\n        /* \"AirlineManagement.sol\":4464:4486  ticketDetails[tokenId] */\n      dup2\n      mstore\n      0x20\n      add\n      swap1\n      dup2\n      mstore\n      0x20\n      add\n      0x00\n      keccak256\n        /* \"AirlineManagement.sol\":4440:4486  Ticket storage ticket = ticketDetails[tokenId] */\n      swap1\n      pop\n        /* \"AirlineManagement.sol\":4649:4660  destination */\n      dup7\n        /* \"AirlineManagement.sol\":4632:4661  abi.encodePacked(destination) */\n      add(0x20, mload(0x40))\n      tag_257\n      swap2\n      swap1\n      tag_127\n      jump\t// in\n    tag_257:\n      mload(0x40)\n      0x20\n      dup2\n      dup4\n      sub\n      sub\n      dup2\n      mstore\n      swap1\n      0x40\n      mstore\n        /* \"AirlineManagement.sol\":4622:4662  keccak256(abi.encodePacked(destination)) */\n      dup1\n      mload\n      swap1\n      0x20\n      add\n      keccak256\n        /* \"AirlineManagement.sol\":4598:4604  ticket */\n      dup2\n        /* \"AirlineManagement.sol\":4598:4616  ticket.destination */\n      0x01\n      add\n        /* \"AirlineManagement.sol\":4581:4617  abi.encodePacked(ticket.destination) */\n      add(0x20, mload(0x40))\n      tag_258\n      swap2\n      swap1\n      tag_134\n      jump\t// in\n    tag_258:\n      mload(0x40)\n      0x20\n      dup2\n      dup4\n      sub\n      sub\n      dup2\n      mstore\n      swap1\n      0x40\n      mstore\n        /* \"AirlineManagement.sol\":4571:4618  keccak256(abi.encodePacked(ticket.destination)) */\n      dup1\n      mload\n      swap1\n      0x20\n      add\n      keccak256\n        /* \"AirlineManagement.sol\":4571:4662  keccak256(abi.encodePacked(ticket.destination)) == keccak256(abi.encodePacked(destination)) */\n      eq\n        /* \"AirlineManagement.sol\":4571:4684  keccak256(abi.encodePacked(ticket.destination)) == keccak256(abi.encodePacked(destination)) && ticket.isAvailable */\n      dup1\n      iszero\n      tag_259\n      jumpi\n      pop\n        /* \"AirlineManagement.sol\":4666:4672  ticket */\n      dup1\n        /* \"AirlineManagement.sol\":4666:4684  ticket.isAvailable */\n      0x05\n      add\n      0x01\n      swap1\n      sload\n      swap1\n      0x0100\n      exp\n      swap1\n      div\n      0xff\n      and\n        /* \"AirlineManagement.sol\":4571:4684  keccak256(abi.encodePacked(ticket.destination)) == keccak256(abi.encodePacked(destination)) && ticket.isAvailable */\n    tag_259:\n        /* \"AirlineManagement.sol\":4567:5129  if (keccak256(abi.encodePacked(ticket.destination)) == keccak256(abi.encodePacked(destination)) && ticket.isAvailable) {... */\n      iszero\n      tag_260\n      jumpi\n        /* \"AirlineManagement.sol\":4785:4795  msg.sender */\n      caller\n        /* \"AirlineManagement.sol\":4770:4776  ticket */\n      dup2\n        /* \"AirlineManagement.sol\":4770:4782  ticket.owner */\n      0x00\n      add\n      0x00\n        /* \"AirlineManagement.sol\":4770:4795  ticket.owner = msg.sender */\n      0x0100\n      exp\n      dup2\n      sload\n      dup2\n      0xffffffffffffffffffffffffffffffffffffffff\n      mul\n      not\n      and\n      swap1\n      dup4\n      0xffffffffffffffffffffffffffffffffffffffff\n      and\n      mul\n      or\n      swap1\n      sstore\n      pop\n        /* \"AirlineManagement.sol\":4838:4839  1 */\n      0x01\n        /* \"AirlineManagement.sol\":4829:4834  class */\n      dup6\n        /* \"AirlineManagement.sol\":4829:4839  class == 1 */\n      eq\n        /* \"AirlineManagement.sol\":4829:4887  class == 1 ? \"Economy\" : class == 2 ? \"Business\" : \"First\" */\n      tag_261\n      jumpi\n        /* \"AirlineManagement.sol\":4863:4864  2 */\n      0x02\n        /* \"AirlineManagement.sol\":4854:4859  class */\n      dup6\n        /* \"AirlineManagement.sol\":4854:4864  class == 2 */\n      eq\n        /* \"AirlineManagement.sol\":4854:4887  class == 2 ? \"Business\" : \"First\" */\n      tag_262\n      jumpi\n      mload(0x40)\n      dup1\n      0x40\n      add\n      0x40\n      mstore\n      dup1\n      0x05\n      dup2\n      mstore\n      0x20\n      add\n      0x4669727374000000000000000000000000000000000000000000000000000000\n      dup2\n      mstore\n      pop\n      jump(tag_263)\n    tag_262:\n      mload(0x40)\n      dup1\n      0x40\n      add\n      0x40\n      mstore\n      dup1\n      0x08\n      dup2\n      mstore\n      0x20\n      add\n      0x427573696e657373000000000000000000000000000000000000000000000000\n      dup2\n      mstore\n      pop\n    tag_263:\n        /* \"AirlineManagement.sol\":4829:4887  class == 1 ? \"Economy\" : class == 2 ? \"Business\" : \"First\" */\n      jump(tag_264)\n    tag_261:\n      mload(0x40)\n      dup1\n      0x40\n      add\n      0x40\n      mstore\n      dup1\n      0x07\n      dup2\n      mstore\n      0x20\n      add\n      0x45636f6e6f6d7900000000000000000000000000000000000000000000000000\n      dup2\n      mstore\n      pop\n    tag_264:\n        /* \"AirlineManagement.sol\":4814:4820  ticket */\n      dup2\n        /* \"AirlineManagement.sol\":4814:4826  ticket.class */\n      0x04\n      add\n        /* \"AirlineManagement.sol\":4814:4887  ticket.class = class == 1 ? \"Economy\" : class == 2 ? \"Business\" : \"First\" */\n      swap1\n      dup2\n      tag_265\n      swap2\n      swap1\n      tag_187\n      jump\t// in\n    tag_265:\n      pop\n        /* \"AirlineManagement.sol\":4925:4928  way */\n      dup4\n        /* \"AirlineManagement.sol\":4906:4912  ticket */\n      dup2\n        /* \"AirlineManagement.sol\":4906:4922  ticket.roundTrip */\n      0x05\n      add\n      0x00\n        /* \"AirlineManagement.sol\":4906:4928  ticket.roundTrip = way */\n      0x0100\n      exp\n      dup2\n      sload\n      dup2\n      0xff\n      mul\n      not\n      and\n      swap1\n      dup4\n      iszero\n      iszero\n      mul\n      or\n      swap1\n      sstore\n      pop\n        /* \"AirlineManagement.sol\":4968:4973  false */\n      0x00\n        /* \"AirlineManagement.sol\":4947:4953  ticket */\n      dup2\n        /* \"AirlineManagement.sol\":4947:4965  ticket.isAvailable */\n      0x05\n      add\n      0x01\n        /* \"AirlineManagement.sol\":4947:4973  ticket.isAvailable = false */\n      0x0100\n      exp\n      dup2\n      sload\n      dup2\n      0xff\n      mul\n      not\n      and\n      swap1\n      dup4\n      iszero\n      iszero\n      mul\n      or\n      swap1\n      sstore\n      pop\n        /* \"AirlineManagement.sol\":5007:5012  month */\n      dup6\n        /* \"AirlineManagement.sol\":4992:4998  ticket */\n      dup2\n        /* \"AirlineManagement.sol\":4992:5004  ticket.month */\n      0x06\n      add\n        /* \"AirlineManagement.sol\":4992:5012  ticket.month = month */\n      dup2\n      swap1\n      sstore\n      pop\n        /* \"AirlineManagement.sol\":5046:5055  msg.value */\n      callvalue\n        /* \"AirlineManagement.sol\":5031:5037  ticket */\n      dup2\n        /* \"AirlineManagement.sol\":5031:5043  ticket.price */\n      0x02\n      add\n        /* \"AirlineManagement.sol\":5031:5055  ticket.price = msg.value */\n      dup2\n      swap1\n      sstore\n      pop\n        /* \"AirlineManagement.sol\":5085:5089  true */\n      0x01\n        /* \"AirlineManagement.sol\":5076:5089  booked = true */\n      swap3\n      pop\n        /* \"AirlineManagement.sol\":5108:5113  break */\n      pop\n      jump(tag_255)\n        /* \"AirlineManagement.sol\":4567:5129  if (keccak256(abi.encodePacked(ticket.destination)) == keccak256(abi.encodePacked(destination)) && ticket.isAvailable) {... */\n    tag_260:\n        /* \"AirlineManagement.sol\":4425:5140  {... */\n      pop\n        /* \"AirlineManagement.sol\":4414:4423  tokenId++ */\n      dup1\n      dup1\n      0x01\n      add\n      swap2\n      pop\n      pop\n        /* \"AirlineManagement.sol\":4367:5140  for (uint tokenId = 0; tokenId < nextTicketId; tokenId++) {... */\n      jump(tag_254)\n    tag_255:\n      pop\n        /* \"AirlineManagement.sol\":5202:5208  booked */\n      dup1\n        /* \"AirlineManagement.sol\":5194:5263  require(booked, \"No available tickets for the specified destination\") */\n      tag_266\n      jumpi\n      mload(0x40)\n      0x08c379a000000000000000000000000000000000000000000000000000000000\n      dup2\n      mstore\n      0x04\n      add\n      tag_267\n      swap1\n      tag_268\n      jump\t// in\n    tag_267:\n      mload(0x40)\n      dup1\n      swap2\n      sub\n      swap1\n      revert\n    tag_266:\n        /* \"AirlineManagement.sol\":5274:5279  seats */\n      0x03\n        /* \"AirlineManagement.sol\":5280:5287  indexes */\n      0x04\n        /* \"AirlineManagement.sol\":5288:5299  destination */\n      dup7\n        /* \"AirlineManagement.sol\":5280:5300  indexes[destination] */\n      mload(0x40)\n      tag_269\n      swap2\n      swap1\n      tag_127\n      jump\t// in\n    tag_269:\n      swap1\n      dup2\n      mstore\n      0x20\n      add\n      mload(0x40)\n      dup1\n      swap2\n      sub\n      swap1\n      keccak256\n      sload\n        /* \"AirlineManagement.sol\":5274:5301  seats[indexes[destination]] */\n      dup2\n      sload\n      dup2\n      lt\n      tag_270\n      jumpi\n      tag_271\n      tag_131\n      jump\t// in\n    tag_271:\n    tag_270:\n      swap1\n      0x00\n      mstore\n      keccak256(0x00, 0x20)\n      add\n      0x00\n        /* \"AirlineManagement.sol\":5274:5303  seats[indexes[destination]]-- */\n      dup2\n      sload\n      dup1\n      swap3\n      swap2\n      swap1\n      tag_273\n      swap1\n      tag_274\n      jump\t// in\n    tag_273:\n      swap2\n      swap1\n      pop\n      sstore\n      pop\n        /* \"AirlineManagement.sol\":5330:5339  msg.value */\n      callvalue\n        /* \"AirlineManagement.sol\":5316:5325  payAmount */\n      0x16\n      0x00\n        /* \"AirlineManagement.sol\":5316:5340  payAmount += (msg.value) */\n      dup3\n      dup3\n      sload\n      tag_275\n      swap2\n      swap1\n      tag_276\n      jump\t// in\n    tag_275:\n      swap3\n      pop\n      pop\n      dup2\n      swap1\n      sstore\n      pop\n        /* \"AirlineManagement.sol\":5363:5367  true */\n      0x01\n        /* \"AirlineManagement.sol\":5351:5360  canPayout */\n      0x15\n      0x00\n        /* \"AirlineManagement.sol\":5351:5367  canPayout = true */\n      0x0100\n      exp\n      dup2\n      sload\n      dup2\n      0xff\n      mul\n      not\n      and\n      swap1\n      dup4\n      iszero\n      iszero\n      mul\n      or\n      swap1\n      sstore\n      pop\n        /* \"AirlineManagement.sol\":4024:5375  {... */\n      pop\n        /* \"AirlineManagement.sol\":3929:5375  function bookFlight(string memory destination, uint month, uint class, bool way) public payable{... */\n      pop\n      pop\n      pop\n      pop\n      jump\t// out\n        /* \"AirlineManagement.sol\":903:924  bool public canPayout */\n    tag_112:\n      0x15\n      0x00\n      swap1\n      sload\n      swap1\n      0x0100\n      exp\n      swap1\n      div\n      0xff\n      and\n      dup2\n      jump\t// out\n        /* \"AirlineManagement.sol\":2940:3286  function create30Tickets(address owner, string memory destination, uint256 price) private restricted {... */\n    tag_184:\n        /* \"AirlineManagement.sol\":1176:1179  ceo */\n      0x00\n      0x00\n      swap1\n      sload\n      swap1\n      0x0100\n      exp\n      swap1\n      div\n      0xffffffffffffffffffffffffffffffffffffffff\n      and\n        /* \"AirlineManagement.sol\":1162:1179  msg.sender == ceo */\n      0xffffffffffffffffffffffffffffffffffffffff\n      and\n        /* \"AirlineManagement.sol\":1162:1172  msg.sender */\n      caller\n        /* \"AirlineManagement.sol\":1162:1179  msg.sender == ceo */\n      0xffffffffffffffffffffffffffffffffffffffff\n      and\n      eq\n        /* \"AirlineManagement.sol\":1154:1180  require(msg.sender == ceo) */\n      tag_278\n      jumpi\n      revert(0x00, 0x00)\n    tag_278:\n        /* \"AirlineManagement.sol\":3057:3069  uint256 seat */\n      0x00\n        /* \"AirlineManagement.sol\":3072:3073  0 */\n      0x00\n        /* \"AirlineManagement.sol\":3057:3073  uint256 seat = 0 */\n      swap1\n      pop\n        /* \"AirlineManagement.sol\":3052:3279  for (uint256 seat = 0; seat < 30; seat++) {... */\n    tag_280:\n        /* \"AirlineManagement.sol\":3082:3084  30 */\n      0x1e\n        /* \"AirlineManagement.sol\":3075:3079  seat */\n      dup2\n        /* \"AirlineManagement.sol\":3075:3084  seat < 30 */\n      lt\n        /* \"AirlineManagement.sol\":3052:3279  for (uint256 seat = 0; seat < 30; seat++) {... */\n      iszero\n      tag_281\n      jumpi\n        /* \"AirlineManagement.sol\":3109:3124  uint256 tokenId */\n      0x00\n        /* \"AirlineManagement.sol\":3127:3139  nextTicketId */\n      sload(0x18)\n        /* \"AirlineManagement.sol\":3109:3139  uint256 tokenId = nextTicketId */\n      swap1\n      pop\n        /* \"AirlineManagement.sol\":3179:3238  Ticket(owner, destination, price, seat, \"\", false, true, 0) */\n      mload(0x40)\n      dup1\n      0x0100\n      add\n      0x40\n      mstore\n      dup1\n        /* \"AirlineManagement.sol\":3186:3191  owner */\n      dup7\n        /* \"AirlineManagement.sol\":3179:3238  Ticket(owner, destination, price, seat, \"\", false, true, 0) */\n      0xffffffffffffffffffffffffffffffffffffffff\n      and\n      dup2\n      mstore\n      0x20\n      add\n        /* \"AirlineManagement.sol\":3193:3204  destination */\n      dup6\n        /* \"AirlineManagement.sol\":3179:3238  Ticket(owner, destination, price, seat, \"\", false, true, 0) */\n      dup2\n      mstore\n      0x20\n      add\n        /* \"AirlineManagement.sol\":3206:3211  price */\n      dup5\n        /* \"AirlineManagement.sol\":3179:3238  Ticket(owner, destination, price, seat, \"\", false, true, 0) */\n      dup2\n      mstore\n      0x20\n      add\n        /* \"AirlineManagement.sol\":3213:3217  seat */\n      dup4\n        /* \"AirlineManagement.sol\":3179:3238  Ticket(owner, destination, price, seat, \"\", false, true, 0) */\n      dup2\n      mstore\n      0x20\n      add\n      mload(0x40)\n      dup1\n      0x20\n      add\n      0x40\n      mstore\n      dup1\n      0x00\n      dup2\n      mstore\n      pop\n      dup2\n      mstore\n      0x20\n      add\n        /* \"AirlineManagement.sol\":3223:3228  false */\n      0x00\n        /* \"AirlineManagement.sol\":3179:3238  Ticket(owner, destination, price, seat, \"\", false, true, 0) */\n      iszero\n      iszero\n      dup2\n      mstore\n      0x20\n      add\n        /* \"AirlineManagement.sol\":3230:3234  true */\n      0x01\n        /* \"AirlineManagement.sol\":3179:3238  Ticket(owner, destination, price, seat, \"\", false, true, 0) */\n      iszero\n      iszero\n      dup2\n      mstore\n      0x20\n      add\n        /* \"AirlineManagement.sol\":3236:3237  0 */\n      0x00\n        /* \"AirlineManagement.sol\":3179:3238  Ticket(owner, destination, price, seat, \"\", false, true, 0) */\n      dup2\n      mstore\n      pop\n        /* \"AirlineManagement.sol\":3154:3167  ticketDetails */\n      0x17\n        /* \"AirlineManagement.sol\":3154:3176  ticketDetails[tokenId] */\n      0x00\n        /* \"AirlineManagement.sol\":3168:3175  tokenId */\n      dup4\n        /* \"AirlineManagement.sol\":3154:3176  ticketDetails[tokenId] */\n      dup2\n      mstore\n      0x20\n      add\n      swap1\n      dup2\n      mstore\n      0x20\n      add\n      0x00\n      keccak256\n        /* \"AirlineManagement.sol\":3154:3238  ticketDetails[tokenId] = Ticket(owner, destination, price, seat, \"\", false, true, 0) */\n      0x00\n      dup3\n      add\n      mload\n      dup2\n      0x00\n      add\n      exp(0x0100, 0x00)\n      dup2\n      sload\n      dup2\n      0xffffffffffffffffffffffffffffffffffffffff\n      mul\n      not\n      and\n      swap1\n      dup4\n      0xffffffffffffffffffffffffffffffffffffffff\n      and\n      mul\n      or\n      swap1\n      sstore\n      pop\n      0x20\n      dup3\n      add\n      mload\n      dup2\n      0x01\n      add\n      swap1\n      dup2\n      tag_283\n      swap2\n      swap1\n      tag_187\n      jump\t// in\n    tag_283:\n      pop\n      0x40\n      dup3\n      add\n      mload\n      dup2\n      0x02\n      add\n      sstore\n      0x60\n      dup3\n      add\n      mload\n      dup2\n      0x03\n      add\n      sstore\n      0x80\n      dup3\n      add\n      mload\n      dup2\n      0x04\n      add\n      swap1\n      dup2\n      tag_284\n      swap2\n      swap1\n      tag_187\n      jump\t// in\n    tag_284:\n      pop\n      0xa0\n      dup3\n      add\n      mload\n      dup2\n      0x05\n      add\n      exp(0x0100, 0x00)\n      dup2\n      sload\n      dup2\n      0xff\n      mul\n      not\n      and\n      swap1\n      dup4\n      iszero\n      iszero\n      mul\n      or\n      swap1\n      sstore\n      pop\n      0xc0\n      dup3\n      add\n      mload\n      dup2\n      0x05\n      add\n      exp(0x0100, 0x01)\n      dup2\n      sload\n      dup2\n      0xff\n      mul\n      not\n      and\n      swap1\n      dup4\n      iszero\n      iszero\n      mul\n      or\n      swap1\n      sstore\n      pop\n      0xe0\n      dup3\n      add\n      mload\n      dup2\n      0x06\n      add\n      sstore\n      swap1\n      pop\n      pop\n        /* \"AirlineManagement.sol\":3253:3265  nextTicketId */\n      0x18\n      0x00\n        /* \"AirlineManagement.sol\":3253:3267  nextTicketId++ */\n      dup2\n      sload\n      dup1\n      swap3\n      swap2\n      swap1\n      tag_285\n      swap1\n      tag_192\n      jump\t// in\n    tag_285:\n      swap2\n      swap1\n      pop\n      sstore\n      pop\n        /* \"AirlineManagement.sol\":3094:3279  {... */\n      pop\n        /* \"AirlineManagement.sol\":3086:3092  seat++ */\n      dup1\n      dup1\n      0x01\n      add\n      swap2\n      pop\n      pop\n        /* \"AirlineManagement.sol\":3052:3279  for (uint256 seat = 0; seat < 30; seat++) {... */\n      jump(tag_280)\n    tag_281:\n      pop\n        /* \"AirlineManagement.sol\":2940:3286  function create30Tickets(address owner, string memory destination, uint256 price) private restricted {... */\n      pop\n      pop\n      pop\n      jump\t// out\n    tag_222:\n      mload(0x40)\n      dup1\n      0x0100\n      add\n      0x40\n      mstore\n      dup1\n      and(0xffffffffffffffffffffffffffffffffffffffff, 0x00)\n      dup2\n      mstore\n      0x20\n      add\n      0x60\n      dup2\n      mstore\n      0x20\n      add\n      0x00\n      dup2\n      mstore\n      0x20\n      add\n      0x00\n      dup2\n      mstore\n      0x20\n      add\n      0x60\n      dup2\n      mstore\n      0x20\n      add\n      iszero(iszero(0x00))\n      dup2\n      mstore\n      0x20\n      add\n      iszero(iszero(0x00))\n      dup2\n      mstore\n      0x20\n      add\n      0x00\n      dup2\n      mstore\n      pop\n      swap1\n      jump\t// out\n        /* \"#utility.yul\":7:82   */\n    tag_286:\n        /* \"#utility.yul\":40:46   */\n      0x00\n        /* \"#utility.yul\":73:75   */\n      0x40\n        /* \"#utility.yul\":67:76   */\n      mload\n        /* \"#utility.yul\":57:76   */\n      swap1\n      pop\n        /* \"#utility.yul\":7:82   */\n      swap1\n      jump\t// out\n        /* \"#utility.yul\":88:205   */\n    tag_287:\n        /* \"#utility.yul\":197:198   */\n      0x00\n        /* \"#utility.yul\":194:195   */\n      0x00\n        /* \"#utility.yul\":187:199   */\n      revert\n        /* \"#utility.yul\":211:328   */\n    tag_288:\n        /* \"#utility.yul\":320:321   */\n      0x00\n        /* \"#utility.yul\":317:318   */\n      0x00\n        /* \"#utility.yul\":310:322   */\n      revert\n        /* \"#utility.yul\":334:411   */\n    tag_289:\n        /* \"#utility.yul\":371:378   */\n      0x00\n        /* \"#utility.yul\":400:405   */\n      dup2\n        /* \"#utility.yul\":389:405   */\n      swap1\n      pop\n        /* \"#utility.yul\":334:411   */\n      swap2\n      swap1\n      pop\n      jump\t// out\n        /* \"#utility.yul\":417:539   */\n    tag_290:\n        /* \"#utility.yul\":490:514   */\n      tag_364\n        /* \"#utility.yul\":508:513   */\n      dup2\n        /* \"#utility.yul\":490:514   */\n      tag_289\n      jump\t// in\n    tag_364:\n        /* \"#utility.yul\":483:488   */\n      dup2\n        /* \"#utility.yul\":480:515   */\n      eq\n        /* \"#utility.yul\":470:533   */\n      tag_365\n      jumpi\n        /* \"#utility.yul\":529:530   */\n      0x00\n        /* \"#utility.yul\":526:527   */\n      0x00\n        /* \"#utility.yul\":519:531   */\n      revert\n        /* \"#utility.yul\":470:533   */\n    tag_365:\n        /* \"#utility.yul\":417:539   */\n      pop\n      jump\t// out\n        /* \"#utility.yul\":545:684   */\n    tag_291:\n        /* \"#utility.yul\":591:596   */\n      0x00\n        /* \"#utility.yul\":629:635   */\n      dup2\n        /* \"#utility.yul\":616:636   */\n      calldataload\n        /* \"#utility.yul\":607:636   */\n      swap1\n      pop\n        /* \"#utility.yul\":645:678   */\n      tag_367\n        /* \"#utility.yul\":672:677   */\n      dup2\n        /* \"#utility.yul\":645:678   */\n      tag_290\n      jump\t// in\n    tag_367:\n        /* \"#utility.yul\":545:684   */\n      swap3\n      swap2\n      pop\n      pop\n      jump\t// out\n        /* \"#utility.yul\":690:1019   */\n    tag_26:\n        /* \"#utility.yul\":749:755   */\n      0x00\n        /* \"#utility.yul\":798:800   */\n      0x20\n        /* \"#utility.yul\":786:795   */\n      dup3\n        /* \"#utility.yul\":777:784   */\n      dup5\n        /* \"#utility.yul\":773:796   */\n      sub\n        /* \"#utility.yul\":769:801   */\n      slt\n        /* \"#utility.yul\":766:885   */\n      iszero\n      tag_369\n      jumpi\n        /* \"#utility.yul\":804:883   */\n      tag_370\n      tag_287\n      jump\t// in\n    tag_370:\n        /* \"#utility.yul\":766:885   */\n    tag_369:\n        /* \"#utility.yul\":924:925   */\n      0x00\n        /* \"#utility.yul\":949:1002   */\n      tag_371\n        /* \"#utility.yul\":994:1001   */\n      dup5\n        /* \"#utility.yul\":985:991   */\n      dup3\n        /* \"#utility.yul\":974:983   */\n      dup6\n        /* \"#utility.yul\":970:992   */\n      add\n        /* \"#utility.yul\":949:1002   */\n      tag_291\n      jump\t// in\n    tag_371:\n        /* \"#utility.yul\":939:1002   */\n      swap2\n      pop\n        /* \"#utility.yul\":895:1012   */\n      pop\n        /* \"#utility.yul\":690:1019   */\n      swap3\n      swap2\n      pop\n      pop\n      jump\t// out\n        /* \"#utility.yul\":1025:1151   */\n    tag_292:\n        /* \"#utility.yul\":1062:1069   */\n      0x00\n        /* \"#utility.yul\":1102:1144   */\n      0xffffffffffffffffffffffffffffffffffffffff\n        /* \"#utility.yul\":1095:1100   */\n      dup3\n        /* \"#utility.yul\":1091:1145   */\n      and\n        /* \"#utility.yul\":1080:1145   */\n      swap1\n      pop\n        /* \"#utility.yul\":1025:1151   */\n      swap2\n      swap1\n      pop\n      jump\t// out\n        /* \"#utility.yul\":1157:1253   */\n    tag_293:\n        /* \"#utility.yul\":1194:1201   */\n      0x00\n        /* \"#utility.yul\":1223:1247   */\n      tag_374\n        /* \"#utility.yul\":1241:1246   */\n      dup3\n        /* \"#utility.yul\":1223:1247   */\n      tag_292\n      jump\t// in\n    tag_374:\n        /* \"#utility.yul\":1212:1247   */\n      swap1\n      pop\n        /* \"#utility.yul\":1157:1253   */\n      swap2\n      swap1\n      pop\n      jump\t// out\n        /* \"#utility.yul\":1259:1377   */\n    tag_294:\n        /* \"#utility.yul\":1346:1370   */\n      tag_376\n        /* \"#utility.yul\":1364:1369   */\n      dup2\n        /* \"#utility.yul\":1346:1370   */\n      tag_293\n      jump\t// in\n    tag_376:\n        /* \"#utility.yul\":1341:1344   */\n      dup3\n        /* \"#utility.yul\":1334:1371   */\n      mstore\n        /* \"#utility.yul\":1259:1377   */\n      pop\n      pop\n      jump\t// out\n        /* \"#utility.yul\":1383:1482   */\n    tag_295:\n        /* \"#utility.yul\":1435:1441   */\n      0x00\n        /* \"#utility.yul\":1469:1474   */\n      dup2\n        /* \"#utility.yul\":1463:1475   */\n      mload\n        /* \"#utility.yul\":1453:1475   */\n      swap1\n      pop\n        /* \"#utility.yul\":1383:1482   */\n      swap2\n      swap1\n      pop\n      jump\t// out\n        /* \"#utility.yul\":1488:1657   */\n    tag_296:\n        /* \"#utility.yul\":1572:1583   */\n      0x00\n        /* \"#utility.yul\":1606:1612   */\n      dup3\n        /* \"#utility.yul\":1601:1604   */\n      dup3\n        /* \"#utility.yul\":1594:1613   */\n      mstore\n        /* \"#utility.yul\":1646:1650   */\n      0x20\n        /* \"#utility.yul\":1641:1644   */\n      dup3\n        /* \"#utility.yul\":1637:1651   */\n      add\n        /* \"#utility.yul\":1622:1651   */\n      swap1\n      pop\n        /* \"#utility.yul\":1488:1657   */\n      swap3\n      swap2\n      pop\n      pop\n      jump\t// out\n        /* \"#utility.yul\":1663:1802   */\n    tag_297:\n        /* \"#utility.yul\":1752:1758   */\n      dup3\n        /* \"#utility.yul\":1747:1750   */\n      dup2\n        /* \"#utility.yul\":1742:1745   */\n      dup4\n        /* \"#utility.yul\":1736:1759   */\n      mcopy\n        /* \"#utility.yul\":1793:1794   */\n      0x00\n        /* \"#utility.yul\":1784:1790   */\n      dup4\n        /* \"#utility.yul\":1779:1782   */\n      dup4\n        /* \"#utility.yul\":1775:1791   */\n      add\n        /* \"#utility.yul\":1768:1795   */\n      mstore\n        /* \"#utility.yul\":1663:1802   */\n      pop\n      pop\n      pop\n      jump\t// out\n        /* \"#utility.yul\":1808:1910   */\n    tag_298:\n        /* \"#utility.yul\":1849:1855   */\n      0x00\n        /* \"#utility.yul\":1900:1902   */\n      0x1f\n        /* \"#utility.yul\":1896:1903   */\n      not\n        /* \"#utility.yul\":1891:1893   */\n      0x1f\n        /* \"#utility.yul\":1884:1889   */\n      dup4\n        /* \"#utility.yul\":1880:1894   */\n      add\n        /* \"#utility.yul\":1876:1904   */\n      and\n        /* \"#utility.yul\":1866:1904   */\n      swap1\n      pop\n        /* \"#utility.yul\":1808:1910   */\n      swap2\n      swap1\n      pop\n      jump\t// out\n        /* \"#utility.yul\":1916:2293   */\n    tag_299:\n        /* \"#utility.yul\":2004:2007   */\n      0x00\n        /* \"#utility.yul\":2032:2071   */\n      tag_382\n        /* \"#utility.yul\":2065:2070   */\n      dup3\n        /* \"#utility.yul\":2032:2071   */\n      tag_295\n      jump\t// in\n    tag_382:\n        /* \"#utility.yul\":2087:2158   */\n      tag_383\n        /* \"#utility.yul\":2151:2157   */\n      dup2\n        /* \"#utility.yul\":2146:2149   */\n      dup6\n        /* \"#utility.yul\":2087:2158   */\n      tag_296\n      jump\t// in\n    tag_383:\n        /* \"#utility.yul\":2080:2158   */\n      swap4\n      pop\n        /* \"#utility.yul\":2167:2232   */\n      tag_384\n        /* \"#utility.yul\":2225:2231   */\n      dup2\n        /* \"#utility.yul\":2220:2223   */\n      dup6\n        /* \"#utility.yul\":2213:2217   */\n      0x20\n        /* \"#utility.yul\":2206:2211   */\n      dup7\n        /* \"#utility.yul\":2202:2218   */\n      add\n        /* \"#utility.yul\":2167:2232   */\n      tag_297\n      jump\t// in\n    tag_384:\n        /* \"#utility.yul\":2257:2286   */\n      tag_385\n        /* \"#utility.yul\":2279:2285   */\n      dup2\n        /* \"#utility.yul\":2257:2286   */\n      tag_298\n      jump\t// in\n    tag_385:\n        /* \"#utility.yul\":2252:2255   */\n      dup5\n        /* \"#utility.yul\":2248:2287   */\n      add\n        /* \"#utility.yul\":2241:2287   */\n      swap2\n      pop\n        /* \"#utility.yul\":2008:2293   */\n      pop\n        /* \"#utility.yul\":1916:2293   */\n      swap3\n      swap2\n      pop\n      pop\n      jump\t// out\n        /* \"#utility.yul\":2299:2417   */\n    tag_300:\n        /* \"#utility.yul\":2386:2410   */\n      tag_387\n        /* \"#utility.yul\":2404:2409   */\n      dup2\n        /* \"#utility.yul\":2386:2410   */\n      tag_289\n      jump\t// in\n    tag_387:\n        /* \"#utility.yul\":2381:2384   */\n      dup3\n        /* \"#utility.yul\":2374:2411   */\n      mstore\n        /* \"#utility.yul\":2299:2417   */\n      pop\n      pop\n      jump\t// out\n        /* \"#utility.yul\":2423:2513   */\n    tag_301:\n        /* \"#utility.yul\":2457:2464   */\n      0x00\n        /* \"#utility.yul\":2500:2505   */\n      dup2\n        /* \"#utility.yul\":2493:2506   */\n      iszero\n        /* \"#utility.yul\":2486:2507   */\n      iszero\n        /* \"#utility.yul\":2475:2507   */\n      swap1\n      pop\n        /* \"#utility.yul\":2423:2513   */\n      swap2\n      swap1\n      pop\n      jump\t// out\n        /* \"#utility.yul\":2519:2628   */\n    tag_302:\n        /* \"#utility.yul\":2600:2621   */\n      tag_390\n        /* \"#utility.yul\":2615:2620   */\n      dup2\n        /* \"#utility.yul\":2600:2621   */\n      tag_301\n      jump\t// in\n    tag_390:\n        /* \"#utility.yul\":2595:2598   */\n      dup3\n        /* \"#utility.yul\":2588:2622   */\n      mstore\n        /* \"#utility.yul\":2519:2628   */\n      pop\n      pop\n      jump\t// out\n        /* \"#utility.yul\":2634:3789   */\n    tag_29:\n        /* \"#utility.yul\":2951:2955   */\n      0x00\n        /* \"#utility.yul\":2989:2992   */\n      0x0100\n        /* \"#utility.yul\":2978:2987   */\n      dup3\n        /* \"#utility.yul\":2974:2993   */\n      add\n        /* \"#utility.yul\":2966:2993   */\n      swap1\n      pop\n        /* \"#utility.yul\":3003:3074   */\n      tag_392\n        /* \"#utility.yul\":3071:3072   */\n      0x00\n        /* \"#utility.yul\":3060:3069   */\n      dup4\n        /* \"#utility.yul\":3056:3073   */\n      add\n        /* \"#utility.yul\":3047:3053   */\n      dup12\n        /* \"#utility.yul\":3003:3074   */\n      tag_294\n      jump\t// in\n    tag_392:\n        /* \"#utility.yul\":3121:3130   */\n      dup2\n        /* \"#utility.yul\":3115:3119   */\n      dup2\n        /* \"#utility.yul\":3111:3131   */\n      sub\n        /* \"#utility.yul\":3106:3108   */\n      0x20\n        /* \"#utility.yul\":3095:3104   */\n      dup4\n        /* \"#utility.yul\":3091:3109   */\n      add\n        /* \"#utility.yul\":3084:3132   */\n      mstore\n        /* \"#utility.yul\":3149:3227   */\n      tag_393\n        /* \"#utility.yul\":3222:3226   */\n      dup2\n        /* \"#utility.yul\":3213:3219   */\n      dup11\n        /* \"#utility.yul\":3149:3227   */\n      tag_299\n      jump\t// in\n    tag_393:\n        /* \"#utility.yul\":3141:3227   */\n      swap1\n      pop\n        /* \"#utility.yul\":3237:3309   */\n      tag_394\n        /* \"#utility.yul\":3305:3307   */\n      0x40\n        /* \"#utility.yul\":3294:3303   */\n      dup4\n        /* \"#utility.yul\":3290:3308   */\n      add\n        /* \"#utility.yul\":3281:3287   */\n      dup10\n        /* \"#utility.yul\":3237:3309   */\n      tag_300\n      jump\t// in\n    tag_394:\n        /* \"#utility.yul\":3319:3391   */\n      tag_395\n        /* \"#utility.yul\":3387:3389   */\n      0x60\n        /* \"#utility.yul\":3376:3385   */\n      dup4\n        /* \"#utility.yul\":3372:3390   */\n      add\n        /* \"#utility.yul\":3363:3369   */\n      dup9\n        /* \"#utility.yul\":3319:3391   */\n      tag_300\n      jump\t// in\n    tag_395:\n        /* \"#utility.yul\":3439:3448   */\n      dup2\n        /* \"#utility.yul\":3433:3437   */\n      dup2\n        /* \"#utility.yul\":3429:3449   */\n      sub\n        /* \"#utility.yul\":3423:3426   */\n      0x80\n        /* \"#utility.yul\":3412:3421   */\n      dup4\n        /* \"#utility.yul\":3408:3427   */\n      add\n        /* \"#utility.yul\":3401:3450   */\n      mstore\n        /* \"#utility.yul\":3467:3545   */\n      tag_396\n        /* \"#utility.yul\":3540:3544   */\n      dup2\n        /* \"#utility.yul\":3531:3537   */\n      dup8\n        /* \"#utility.yul\":3467:3545   */\n      tag_299\n      jump\t// in\n    tag_396:\n        /* \"#utility.yul\":3459:3545   */\n      swap1\n      pop\n        /* \"#utility.yul\":3555:3622   */\n      tag_397\n        /* \"#utility.yul\":3617:3620   */\n      0xa0\n        /* \"#utility.yul\":3606:3615   */\n      dup4\n        /* \"#utility.yul\":3602:3621   */\n      add\n        /* \"#utility.yul\":3593:3599   */\n      dup7\n        /* \"#utility.yul\":3555:3622   */\n      tag_302\n      jump\t// in\n    tag_397:\n        /* \"#utility.yul\":3632:3699   */\n      tag_398\n        /* \"#utility.yul\":3694:3697   */\n      0xc0\n        /* \"#utility.yul\":3683:3692   */\n      dup4\n        /* \"#utility.yul\":3679:3698   */\n      add\n        /* \"#utility.yul\":3670:3676   */\n      dup6\n        /* \"#utility.yul\":3632:3699   */\n      tag_302\n      jump\t// in\n    tag_398:\n        /* \"#utility.yul\":3709:3782   */\n      tag_399\n        /* \"#utility.yul\":3777:3780   */\n      0xe0\n        /* \"#utility.yul\":3766:3775   */\n      dup4\n        /* \"#utility.yul\":3762:3781   */\n      add\n        /* \"#utility.yul\":3753:3759   */\n      dup5\n        /* \"#utility.yul\":3709:3782   */\n      tag_300\n      jump\t// in\n    tag_399:\n        /* \"#utility.yul\":2634:3789   */\n      swap10\n      swap9\n      pop\n      pop\n      pop\n      pop\n      pop\n      pop\n      pop\n      pop\n      pop\n      jump\t// out\n        /* \"#utility.yul\":3795:4017   */\n    tag_34:\n        /* \"#utility.yul\":3888:3892   */\n      0x00\n        /* \"#utility.yul\":3926:3928   */\n      0x20\n        /* \"#utility.yul\":3915:3924   */\n      dup3\n        /* \"#utility.yul\":3911:3929   */\n      add\n        /* \"#utility.yul\":3903:3929   */\n      swap1\n      pop\n        /* \"#utility.yul\":3939:4010   */\n      tag_401\n        /* \"#utility.yul\":4007:4008   */\n      0x00\n        /* \"#utility.yul\":3996:4005   */\n      dup4\n        /* \"#utility.yul\":3992:4009   */\n      add\n        /* \"#utility.yul\":3983:3989   */\n      dup5\n        /* \"#utility.yul\":3939:4010   */\n      tag_300\n      jump\t// in\n    tag_401:\n        /* \"#utility.yul\":3795:4017   */\n      swap3\n      swap2\n      pop\n      pop\n      jump\t// out\n        /* \"#utility.yul\":4023:4140   */\n    tag_303:\n        /* \"#utility.yul\":4132:4133   */\n      0x00\n        /* \"#utility.yul\":4129:4130   */\n      0x00\n        /* \"#utility.yul\":4122:4134   */\n      revert\n        /* \"#utility.yul\":4146:4263   */\n    tag_304:\n        /* \"#utility.yul\":4255:4256   */\n      0x00\n        /* \"#utility.yul\":4252:4253   */\n      0x00\n        /* \"#utility.yul\":4245:4257   */\n      revert\n        /* \"#utility.yul\":4269:4449   */\n    tag_218:\n        /* \"#utility.yul\":4317:4394   */\n      0x4e487b7100000000000000000000000000000000000000000000000000000000\n        /* \"#utility.yul\":4314:4315   */\n      0x00\n        /* \"#utility.yul\":4307:4395   */\n      mstore\n        /* \"#utility.yul\":4414:4418   */\n      0x41\n        /* \"#utility.yul\":4411:4412   */\n      0x04\n        /* \"#utility.yul\":4404:4419   */\n      mstore\n        /* \"#utility.yul\":4438:4442   */\n      0x24\n        /* \"#utility.yul\":4435:4436   */\n      0x00\n        /* \"#utility.yul\":4428:4443   */\n      revert\n        /* \"#utility.yul\":4455:4736   */\n    tag_305:\n        /* \"#utility.yul\":4538:4565   */\n      tag_406\n        /* \"#utility.yul\":4560:4564   */\n      dup3\n        /* \"#utility.yul\":4538:4565   */\n      tag_298\n      jump\t// in\n    tag_406:\n        /* \"#utility.yul\":4530:4536   */\n      dup2\n        /* \"#utility.yul\":4526:4566   */\n      add\n        /* \"#utility.yul\":4668:4674   */\n      dup2\n        /* \"#utility.yul\":4656:4666   */\n      dup2\n        /* \"#utility.yul\":4653:4675   */\n      lt\n        /* \"#utility.yul\":4632:4650   */\n      0xffffffffffffffff\n        /* \"#utility.yul\":4620:4630   */\n      dup3\n        /* \"#utility.yul\":4617:4651   */\n      gt\n        /* \"#utility.yul\":4614:4676   */\n      or\n        /* \"#utility.yul\":4611:4699   */\n      iszero\n      tag_407\n      jumpi\n        /* \"#utility.yul\":4679:4697   */\n      tag_408\n      tag_218\n      jump\t// in\n    tag_408:\n        /* \"#utility.yul\":4611:4699   */\n    tag_407:\n        /* \"#utility.yul\":4719:4729   */\n      dup1\n        /* \"#utility.yul\":4715:4717   */\n      0x40\n        /* \"#utility.yul\":4708:4730   */\n      mstore\n        /* \"#utility.yul\":4498:4736   */\n      pop\n        /* \"#utility.yul\":4455:4736   */\n      pop\n      pop\n      jump\t// out\n        /* \"#utility.yul\":4742:4871   */\n    tag_306:\n        /* \"#utility.yul\":4776:4782   */\n      0x00\n        /* \"#utility.yul\":4803:4823   */\n      tag_410\n      tag_286\n      jump\t// in\n    tag_410:\n        /* \"#utility.yul\":4793:4823   */\n      swap1\n      pop\n        /* \"#utility.yul\":4832:4865   */\n      tag_411\n        /* \"#utility.yul\":4860:4864   */\n      dup3\n        /* \"#utility.yul\":4852:4858   */\n      dup3\n        /* \"#utility.yul\":4832:4865   */\n      tag_305\n      jump\t// in\n    tag_411:\n        /* \"#utility.yul\":4742:4871   */\n      swap2\n      swap1\n      pop\n      jump\t// out\n        /* \"#utility.yul\":4877:5185   */\n    tag_307:\n        /* \"#utility.yul\":4939:4943   */\n      0x00\n        /* \"#utility.yul\":5029:5047   */\n      0xffffffffffffffff\n        /* \"#utility.yul\":5021:5027   */\n      dup3\n        /* \"#utility.yul\":5018:5048   */\n      gt\n        /* \"#utility.yul\":5015:5071   */\n      iszero\n      tag_413\n      jumpi\n        /* \"#utility.yul\":5051:5069   */\n      tag_414\n      tag_218\n      jump\t// in\n    tag_414:\n        /* \"#utility.yul\":5015:5071   */\n    tag_413:\n        /* \"#utility.yul\":5089:5118   */\n      tag_415\n        /* \"#utility.yul\":5111:5117   */\n      dup3\n        /* \"#utility.yul\":5089:5118   */\n      tag_298\n      jump\t// in\n    tag_415:\n        /* \"#utility.yul\":5081:5118   */\n      swap1\n      pop\n        /* \"#utility.yul\":5173:5177   */\n      0x20\n        /* \"#utility.yul\":5167:5171   */\n      dup2\n        /* \"#utility.yul\":5163:5178   */\n      add\n        /* \"#utility.yul\":5155:5178   */\n      swap1\n      pop\n        /* \"#utility.yul\":4877:5185   */\n      swap2\n      swap1\n      pop\n      jump\t// out\n        /* \"#utility.yul\":5191:5339   */\n    tag_308:\n        /* \"#utility.yul\":5289:5295   */\n      dup3\n        /* \"#utility.yul\":5284:5287   */\n      dup2\n        /* \"#utility.yul\":5279:5282   */\n      dup4\n        /* \"#utility.yul\":5266:5296   */\n      calldatacopy\n        /* \"#utility.yul\":5330:5331   */\n      0x00\n        /* \"#utility.yul\":5321:5327   */\n      dup4\n        /* \"#utility.yul\":5316:5319   */\n      dup4\n        /* \"#utility.yul\":5312:5328   */\n      add\n        /* \"#utility.yul\":5305:5332   */\n      mstore\n        /* \"#utility.yul\":5191:5339   */\n      pop\n      pop\n      pop\n      jump\t// out\n        /* \"#utility.yul\":5345:5770   */\n    tag_309:\n        /* \"#utility.yul\":5423:5428   */\n      0x00\n        /* \"#utility.yul\":5448:5514   */\n      tag_418\n        /* \"#utility.yul\":5464:5513   */\n      tag_419\n        /* \"#utility.yul\":5506:5512   */\n      dup5\n        /* \"#utility.yul\":5464:5513   */\n      tag_307\n      jump\t// in\n    tag_419:\n        /* \"#utility.yul\":5448:5514   */\n      tag_306\n      jump\t// in\n    tag_418:\n        /* \"#utility.yul\":5439:5514   */\n      swap1\n      pop\n        /* \"#utility.yul\":5537:5543   */\n      dup3\n        /* \"#utility.yul\":5530:5535   */\n      dup2\n        /* \"#utility.yul\":5523:5544   */\n      mstore\n        /* \"#utility.yul\":5575:5579   */\n      0x20\n        /* \"#utility.yul\":5568:5573   */\n      dup2\n        /* \"#utility.yul\":5564:5580   */\n      add\n        /* \"#utility.yul\":5613:5616   */\n      dup5\n        /* \"#utility.yul\":5604:5610   */\n      dup5\n        /* \"#utility.yul\":5599:5602   */\n      dup5\n        /* \"#utility.yul\":5595:5611   */\n      add\n        /* \"#utility.yul\":5592:5617   */\n      gt\n        /* \"#utility.yul\":5589:5701   */\n      iszero\n      tag_420\n      jumpi\n        /* \"#utility.yul\":5620:5699   */\n      tag_421\n      tag_304\n      jump\t// in\n    tag_421:\n        /* \"#utility.yul\":5589:5701   */\n    tag_420:\n        /* \"#utility.yul\":5710:5764   */\n      tag_422\n        /* \"#utility.yul\":5757:5763   */\n      dup5\n        /* \"#utility.yul\":5752:5755   */\n      dup3\n        /* \"#utility.yul\":5747:5750   */\n      dup6\n        /* \"#utility.yul\":5710:5764   */\n      tag_308\n      jump\t// in\n    tag_422:\n        /* \"#utility.yul\":5429:5770   */\n      pop\n        /* \"#utility.yul\":5345:5770   */\n      swap4\n      swap3\n      pop\n      pop\n      pop\n      jump\t// out\n        /* \"#utility.yul\":5790:6130   */\n    tag_310:\n        /* \"#utility.yul\":5846:5851   */\n      0x00\n        /* \"#utility.yul\":5895:5898   */\n      dup3\n        /* \"#utility.yul\":5888:5892   */\n      0x1f\n        /* \"#utility.yul\":5880:5886   */\n      dup4\n        /* \"#utility.yul\":5876:5893   */\n      add\n        /* \"#utility.yul\":5872:5899   */\n      slt\n        /* \"#utility.yul\":5862:5984   */\n      tag_424\n      jumpi\n        /* \"#utility.yul\":5903:5982   */\n      tag_425\n      tag_303\n      jump\t// in\n    tag_425:\n        /* \"#utility.yul\":5862:5984   */\n    tag_424:\n        /* \"#utility.yul\":6020:6026   */\n      dup2\n        /* \"#utility.yul\":6007:6027   */\n      calldataload\n        /* \"#utility.yul\":6045:6124   */\n      tag_426\n        /* \"#utility.yul\":6120:6123   */\n      dup5\n        /* \"#utility.yul\":6112:6118   */\n      dup3\n        /* \"#utility.yul\":6105:6109   */\n      0x20\n        /* \"#utility.yul\":6097:6103   */\n      dup7\n        /* \"#utility.yul\":6093:6110   */\n      add\n        /* \"#utility.yul\":6045:6124   */\n      tag_309\n      jump\t// in\n    tag_426:\n        /* \"#utility.yul\":6036:6124   */\n      swap2\n      pop\n        /* \"#utility.yul\":5852:6130   */\n      pop\n        /* \"#utility.yul\":5790:6130   */\n      swap3\n      swap2\n      pop\n      pop\n      jump\t// out\n        /* \"#utility.yul\":6136:6252   */\n    tag_311:\n        /* \"#utility.yul\":6206:6227   */\n      tag_428\n        /* \"#utility.yul\":6221:6226   */\n      dup2\n        /* \"#utility.yul\":6206:6227   */\n      tag_301\n      jump\t// in\n    tag_428:\n        /* \"#utility.yul\":6199:6204   */\n      dup2\n        /* \"#utility.yul\":6196:6228   */\n      eq\n        /* \"#utility.yul\":6186:6246   */\n      tag_429\n      jumpi\n        /* \"#utility.yul\":6242:6243   */\n      0x00\n        /* \"#utility.yul\":6239:6240   */\n      0x00\n        /* \"#utility.yul\":6232:6244   */\n      revert\n        /* \"#utility.yul\":6186:6246   */\n    tag_429:\n        /* \"#utility.yul\":6136:6252   */\n      pop\n      jump\t// out\n        /* \"#utility.yul\":6258:6391   */\n    tag_312:\n        /* \"#utility.yul\":6301:6306   */\n      0x00\n        /* \"#utility.yul\":6339:6345   */\n      dup2\n        /* \"#utility.yul\":6326:6346   */\n      calldataload\n        /* \"#utility.yul\":6317:6346   */\n      swap1\n      pop\n        /* \"#utility.yul\":6355:6385   */\n      tag_431\n        /* \"#utility.yul\":6379:6384   */\n      dup2\n        /* \"#utility.yul\":6355:6385   */\n      tag_311\n      jump\t// in\n    tag_431:\n        /* \"#utility.yul\":6258:6391   */\n      swap3\n      swap2\n      pop\n      pop\n      jump\t// out\n        /* \"#utility.yul\":6397:7336   */\n    tag_38:\n        /* \"#utility.yul\":6490:6496   */\n      0x00\n        /* \"#utility.yul\":6498:6504   */\n      0x00\n        /* \"#utility.yul\":6506:6512   */\n      0x00\n        /* \"#utility.yul\":6514:6520   */\n      0x00\n        /* \"#utility.yul\":6563:6566   */\n      0x80\n        /* \"#utility.yul\":6551:6560   */\n      dup6\n        /* \"#utility.yul\":6542:6549   */\n      dup8\n        /* \"#utility.yul\":6538:6561   */\n      sub\n        /* \"#utility.yul\":6534:6567   */\n      slt\n        /* \"#utility.yul\":6531:6651   */\n      iszero\n      tag_433\n      jumpi\n        /* \"#utility.yul\":6570:6649   */\n      tag_434\n      tag_287\n      jump\t// in\n    tag_434:\n        /* \"#utility.yul\":6531:6651   */\n    tag_433:\n        /* \"#utility.yul\":6718:6719   */\n      0x00\n        /* \"#utility.yul\":6707:6716   */\n      dup6\n        /* \"#utility.yul\":6703:6720   */\n      add\n        /* \"#utility.yul\":6690:6721   */\n      calldataload\n        /* \"#utility.yul\":6748:6766   */\n      0xffffffffffffffff\n        /* \"#utility.yul\":6740:6746   */\n      dup2\n        /* \"#utility.yul\":6737:6767   */\n      gt\n        /* \"#utility.yul\":6734:6851   */\n      iszero\n      tag_435\n      jumpi\n        /* \"#utility.yul\":6770:6849   */\n      tag_436\n      tag_288\n      jump\t// in\n    tag_436:\n        /* \"#utility.yul\":6734:6851   */\n    tag_435:\n        /* \"#utility.yul\":6875:6938   */\n      tag_437\n        /* \"#utility.yul\":6930:6937   */\n      dup8\n        /* \"#utility.yul\":6921:6927   */\n      dup3\n        /* \"#utility.yul\":6910:6919   */\n      dup9\n        /* \"#utility.yul\":6906:6928   */\n      add\n        /* \"#utility.yul\":6875:6938   */\n      tag_310\n      jump\t// in\n    tag_437:\n        /* \"#utility.yul\":6865:6938   */\n      swap5\n      pop\n        /* \"#utility.yul\":6661:6948   */\n      pop\n        /* \"#utility.yul\":6987:6989   */\n      0x20\n        /* \"#utility.yul\":7013:7066   */\n      tag_438\n        /* \"#utility.yul\":7058:7065   */\n      dup8\n        /* \"#utility.yul\":7049:7055   */\n      dup3\n        /* \"#utility.yul\":7038:7047   */\n      dup9\n        /* \"#utility.yul\":7034:7056   */\n      add\n        /* \"#utility.yul\":7013:7066   */\n      tag_291\n      jump\t// in\n    tag_438:\n        /* \"#utility.yul\":7003:7066   */\n      swap4\n      pop\n        /* \"#utility.yul\":6958:7076   */\n      pop\n        /* \"#utility.yul\":7115:7117   */\n      0x40\n        /* \"#utility.yul\":7141:7194   */\n      tag_439\n        /* \"#utility.yul\":7186:7193   */\n      dup8\n        /* \"#utility.yul\":7177:7183   */\n      dup3\n        /* \"#utility.yul\":7166:7175   */\n      dup9\n        /* \"#utility.yul\":7162:7184   */\n      add\n        /* \"#utility.yul\":7141:7194   */\n      tag_291\n      jump\t// in\n    tag_439:\n        /* \"#utility.yul\":7131:7194   */\n      swap3\n      pop\n        /* \"#utility.yul\":7086:7204   */\n      pop\n        /* \"#utility.yul\":7243:7245   */\n      0x60\n        /* \"#utility.yul\":7269:7319   */\n      tag_440\n        /* \"#utility.yul\":7311:7318   */\n      dup8\n        /* \"#utility.yul\":7302:7308   */\n      dup3\n        /* \"#utility.yul\":7291:7300   */\n      dup9\n        /* \"#utility.yul\":7287:7309   */\n      add\n        /* \"#utility.yul\":7269:7319   */\n      tag_312\n      jump\t// in\n    tag_440:\n        /* \"#utility.yul\":7259:7319   */\n      swap2\n      pop\n        /* \"#utility.yul\":7214:7329   */\n      pop\n        /* \"#utility.yul\":6397:7336   */\n      swap3\n      swap6\n      swap2\n      swap5\n      pop\n      swap3\n      pop\n      jump\t// out\n        /* \"#utility.yul\":7342:7464   */\n    tag_313:\n        /* \"#utility.yul\":7415:7439   */\n      tag_442\n        /* \"#utility.yul\":7433:7438   */\n      dup2\n        /* \"#utility.yul\":7415:7439   */\n      tag_293\n      jump\t// in\n    tag_442:\n        /* \"#utility.yul\":7408:7413   */\n      dup2\n        /* \"#utility.yul\":7405:7440   */\n      eq\n        /* \"#utility.yul\":7395:7458   */\n      tag_443\n      jumpi\n        /* \"#utility.yul\":7454:7455   */\n      0x00\n        /* \"#utility.yul\":7451:7452   */\n      0x00\n        /* \"#utility.yul\":7444:7456   */\n      revert\n        /* \"#utility.yul\":7395:7458   */\n    tag_443:\n        /* \"#utility.yul\":7342:7464   */\n      pop\n      jump\t// out\n        /* \"#utility.yul\":7470:7609   */\n    tag_314:\n        /* \"#utility.yul\":7516:7521   */\n      0x00\n        /* \"#utility.yul\":7554:7560   */\n      dup2\n        /* \"#utility.yul\":7541:7561   */\n      calldataload\n        /* \"#utility.yul\":7532:7561   */\n      swap1\n      pop\n        /* \"#utility.yul\":7570:7603   */\n      tag_445\n        /* \"#utility.yul\":7597:7602   */\n      dup2\n        /* \"#utility.yul\":7570:7603   */\n      tag_313\n      jump\t// in\n    tag_445:\n        /* \"#utility.yul\":7470:7609   */\n      swap3\n      swap2\n      pop\n      pop\n      jump\t// out\n        /* \"#utility.yul\":7615:7944   */\n    tag_44:\n        /* \"#utility.yul\":7674:7680   */\n      0x00\n        /* \"#utility.yul\":7723:7725   */\n      0x20\n        /* \"#utility.yul\":7711:7720   */\n      dup3\n        /* \"#utility.yul\":7702:7709   */\n      dup5\n        /* \"#utility.yul\":7698:7721   */\n      sub\n        /* \"#utility.yul\":7694:7726   */\n      slt\n        /* \"#utility.yul\":7691:7810   */\n      iszero\n      tag_447\n      jumpi\n        /* \"#utility.yul\":7729:7808   */\n      tag_448\n      tag_287\n      jump\t// in\n    tag_448:\n        /* \"#utility.yul\":7691:7810   */\n    tag_447:\n        /* \"#utility.yul\":7849:7850   */\n      0x00\n        /* \"#utility.yul\":7874:7927   */\n      tag_449\n        /* \"#utility.yul\":7919:7926   */\n      dup5\n        /* \"#utility.yul\":7910:7916   */\n      dup3\n        /* \"#utility.yul\":7899:7908   */\n      dup6\n        /* \"#utility.yul\":7895:7917   */\n      add\n        /* \"#utility.yul\":7874:7927   */\n      tag_314\n      jump\t// in\n    tag_449:\n        /* \"#utility.yul\":7864:7927   */\n      swap2\n      pop\n        /* \"#utility.yul\":7820:7937   */\n      pop\n        /* \"#utility.yul\":7615:7944   */\n      swap3\n      swap2\n      pop\n      pop\n      jump\t// out\n        /* \"#utility.yul\":7950:8160   */\n    tag_47:\n        /* \"#utility.yul\":8037:8041   */\n      0x00\n        /* \"#utility.yul\":8075:8077   */\n      0x20\n        /* \"#utility.yul\":8064:8073   */\n      dup3\n        /* \"#utility.yul\":8060:8078   */\n      add\n        /* \"#utility.yul\":8052:8078   */\n      swap1\n      pop\n        /* \"#utility.yul\":8088:8153   */\n      tag_451\n        /* \"#utility.yul\":8150:8151   */\n      0x00\n        /* \"#utility.yul\":8139:8148   */\n      dup4\n        /* \"#utility.yul\":8135:8152   */\n      add\n        /* \"#utility.yul\":8126:8132   */\n      dup5\n        /* \"#utility.yul\":8088:8153   */\n      tag_302\n      jump\t// in\n    tag_451:\n        /* \"#utility.yul\":7950:8160   */\n      swap3\n      swap2\n      pop\n      pop\n      jump\t// out\n        /* \"#utility.yul\":8166:8675   */\n    tag_56:\n        /* \"#utility.yul\":8235:8241   */\n      0x00\n        /* \"#utility.yul\":8284:8286   */\n      0x20\n        /* \"#utility.yul\":8272:8281   */\n      dup3\n        /* \"#utility.yul\":8263:8270   */\n      dup5\n        /* \"#utility.yul\":8259:8282   */\n      sub\n        /* \"#utility.yul\":8255:8287   */\n      slt\n        /* \"#utility.yul\":8252:8371   */\n      iszero\n      tag_453\n      jumpi\n        /* \"#utility.yul\":8290:8369   */\n      tag_454\n      tag_287\n      jump\t// in\n    tag_454:\n        /* \"#utility.yul\":8252:8371   */\n    tag_453:\n        /* \"#utility.yul\":8438:8439   */\n      0x00\n        /* \"#utility.yul\":8427:8436   */\n      dup3\n        /* \"#utility.yul\":8423:8440   */\n      add\n        /* \"#utility.yul\":8410:8441   */\n      calldataload\n        /* \"#utility.yul\":8468:8486   */\n      0xffffffffffffffff\n        /* \"#utility.yul\":8460:8466   */\n      dup2\n        /* \"#utility.yul\":8457:8487   */\n      gt\n        /* \"#utility.yul\":8454:8571   */\n      iszero\n      tag_455\n      jumpi\n        /* \"#utility.yul\":8490:8569   */\n      tag_456\n      tag_288\n      jump\t// in\n    tag_456:\n        /* \"#utility.yul\":8454:8571   */\n    tag_455:\n        /* \"#utility.yul\":8595:8658   */\n      tag_457\n        /* \"#utility.yul\":8650:8657   */\n      dup5\n        /* \"#utility.yul\":8641:8647   */\n      dup3\n        /* \"#utility.yul\":8630:8639   */\n      dup6\n        /* \"#utility.yul\":8626:8648   */\n      add\n        /* \"#utility.yul\":8595:8658   */\n      tag_310\n      jump\t// in\n    tag_457:\n        /* \"#utility.yul\":8585:8658   */\n      swap2\n      pop\n        /* \"#utility.yul\":8381:8668   */\n      pop\n        /* \"#utility.yul\":8166:8675   */\n      swap3\n      swap2\n      pop\n      pop\n      jump\t// out\n        /* \"#utility.yul\":8681:9335   */\n    tag_67:\n        /* \"#utility.yul\":8759:8765   */\n      0x00\n        /* \"#utility.yul\":8767:8773   */\n      0x00\n        /* \"#utility.yul\":8816:8818   */\n      0x40\n        /* \"#utility.yul\":8804:8813   */\n      dup4\n        /* \"#utility.yul\":8795:8802   */\n      dup6\n        /* \"#utility.yul\":8791:8814   */\n      sub\n        /* \"#utility.yul\":8787:8819   */\n      slt\n        /* \"#utility.yul\":8784:8903   */\n      iszero\n      tag_459\n      jumpi\n        /* \"#utility.yul\":8822:8901   */\n      tag_460\n      tag_287\n      jump\t// in\n    tag_460:\n        /* \"#utility.yul\":8784:8903   */\n    tag_459:\n        /* \"#utility.yul\":8970:8971   */\n      0x00\n        /* \"#utility.yul\":8959:8968   */\n      dup4\n        /* \"#utility.yul\":8955:8972   */\n      add\n        /* \"#utility.yul\":8942:8973   */\n      calldataload\n        /* \"#utility.yul\":9000:9018   */\n      0xffffffffffffffff\n        /* \"#utility.yul\":8992:8998   */\n      dup2\n        /* \"#utility.yul\":8989:9019   */\n      gt\n        /* \"#utility.yul\":8986:9103   */\n      iszero\n      tag_461\n      jumpi\n        /* \"#utility.yul\":9022:9101   */\n      tag_462\n      tag_288\n      jump\t// in\n    tag_462:\n        /* \"#utility.yul\":8986:9103   */\n    tag_461:\n        /* \"#utility.yul\":9127:9190   */\n      tag_463\n        /* \"#utility.yul\":9182:9189   */\n      dup6\n        /* \"#utility.yul\":9173:9179   */\n      dup3\n        /* \"#utility.yul\":9162:9171   */\n      dup7\n        /* \"#utility.yul\":9158:9180   */\n      add\n        /* \"#utility.yul\":9127:9190   */\n      tag_310\n      jump\t// in\n    tag_463:\n        /* \"#utility.yul\":9117:9190   */\n      swap3\n      pop\n        /* \"#utility.yul\":8913:9200   */\n      pop\n        /* \"#utility.yul\":9239:9241   */\n      0x20\n        /* \"#utility.yul\":9265:9318   */\n      tag_464\n        /* \"#utility.yul\":9310:9317   */\n      dup6\n        /* \"#utility.yul\":9301:9307   */\n      dup3\n        /* \"#utility.yul\":9290:9299   */\n      dup7\n        /* \"#utility.yul\":9286:9308   */\n      add\n        /* \"#utility.yul\":9265:9318   */\n      tag_291\n      jump\t// in\n    tag_464:\n        /* \"#utility.yul\":9255:9318   */\n      swap2\n      pop\n        /* \"#utility.yul\":9210:9328   */\n      pop\n        /* \"#utility.yul\":8681:9335   */\n      swap3\n      pop\n      swap3\n      swap1\n      pop\n      jump\t// out\n        /* \"#utility.yul\":9341:9654   */\n    tag_83:\n        /* \"#utility.yul\":9454:9458   */\n      0x00\n        /* \"#utility.yul\":9492:9494   */\n      0x20\n        /* \"#utility.yul\":9481:9490   */\n      dup3\n        /* \"#utility.yul\":9477:9495   */\n      add\n        /* \"#utility.yul\":9469:9495   */\n      swap1\n      pop\n        /* \"#utility.yul\":9541:9550   */\n      dup2\n        /* \"#utility.yul\":9535:9539   */\n      dup2\n        /* \"#utility.yul\":9531:9551   */\n      sub\n        /* \"#utility.yul\":9527:9528   */\n      0x00\n        /* \"#utility.yul\":9516:9525   */\n      dup4\n        /* \"#utility.yul\":9512:9529   */\n      add\n        /* \"#utility.yul\":9505:9552   */\n      mstore\n        /* \"#utility.yul\":9569:9647   */\n      tag_466\n        /* \"#utility.yul\":9642:9646   */\n      dup2\n        /* \"#utility.yul\":9633:9639   */\n      dup5\n        /* \"#utility.yul\":9569:9647   */\n      tag_299\n      jump\t// in\n    tag_466:\n        /* \"#utility.yul\":9561:9647   */\n      swap1\n      pop\n        /* \"#utility.yul\":9341:9654   */\n      swap3\n      swap2\n      pop\n      pop\n      jump\t// out\n        /* \"#utility.yul\":9660:9882   */\n    tag_88:\n        /* \"#utility.yul\":9753:9757   */\n      0x00\n        /* \"#utility.yul\":9791:9793   */\n      0x20\n        /* \"#utility.yul\":9780:9789   */\n      dup3\n        /* \"#utility.yul\":9776:9794   */\n      add\n        /* \"#utility.yul\":9768:9794   */\n      swap1\n      pop\n        /* \"#utility.yul\":9804:9875   */\n      tag_468\n        /* \"#utility.yul\":9872:9873   */\n      0x00\n        /* \"#utility.yul\":9861:9870   */\n      dup4\n        /* \"#utility.yul\":9857:9874   */\n      add\n        /* \"#utility.yul\":9848:9854   */\n      dup5\n        /* \"#utility.yul\":9804:9875   */\n      tag_294\n      jump\t// in\n    tag_468:\n        /* \"#utility.yul\":9660:9882   */\n      swap3\n      swap2\n      pop\n      pop\n      jump\t// out\n        /* \"#utility.yul\":9888:10024   */\n    tag_315:\n        /* \"#utility.yul\":9977:9983   */\n      0x00\n        /* \"#utility.yul\":10011:10016   */\n      dup2\n        /* \"#utility.yul\":10005:10017   */\n      mload\n        /* \"#utility.yul\":9995:10017   */\n      swap1\n      pop\n        /* \"#utility.yul\":9888:10024   */\n      swap2\n      swap1\n      pop\n      jump\t// out\n        /* \"#utility.yul\":10030:10236   */\n    tag_316:\n        /* \"#utility.yul\":10151:10162   */\n      0x00\n        /* \"#utility.yul\":10185:10191   */\n      dup3\n        /* \"#utility.yul\":10180:10183   */\n      dup3\n        /* \"#utility.yul\":10173:10192   */\n      mstore\n        /* \"#utility.yul\":10225:10229   */\n      0x20\n        /* \"#utility.yul\":10220:10223   */\n      dup3\n        /* \"#utility.yul\":10216:10230   */\n      add\n        /* \"#utility.yul\":10201:10230   */\n      swap1\n      pop\n        /* \"#utility.yul\":10030:10236   */\n      swap3\n      swap2\n      pop\n      pop\n      jump\t// out\n        /* \"#utility.yul\":10242:10396   */\n    tag_317:\n        /* \"#utility.yul\":10331:10335   */\n      0x00\n        /* \"#utility.yul\":10354:10357   */\n      dup2\n        /* \"#utility.yul\":10346:10357   */\n      swap1\n      pop\n        /* \"#utility.yul\":10384:10388   */\n      0x20\n        /* \"#utility.yul\":10379:10382   */\n      dup3\n        /* \"#utility.yul\":10375:10389   */\n      add\n        /* \"#utility.yul\":10367:10389   */\n      swap1\n      pop\n        /* \"#utility.yul\":10242:10396   */\n      swap2\n      swap1\n      pop\n      jump\t// out\n        /* \"#utility.yul\":10402:10510   */\n    tag_318:\n        /* \"#utility.yul\":10479:10503   */\n      tag_473\n        /* \"#utility.yul\":10497:10502   */\n      dup2\n        /* \"#utility.yul\":10479:10503   */\n      tag_293\n      jump\t// in\n    tag_473:\n        /* \"#utility.yul\":10474:10477   */\n      dup3\n        /* \"#utility.yul\":10467:10504   */\n      mstore\n        /* \"#utility.yul\":10402:10510   */\n      pop\n      pop\n      jump\t// out\n        /* \"#utility.yul\":10516:10675   */\n    tag_319:\n        /* \"#utility.yul\":10590:10601   */\n      0x00\n        /* \"#utility.yul\":10624:10630   */\n      dup3\n        /* \"#utility.yul\":10619:10622   */\n      dup3\n        /* \"#utility.yul\":10612:10631   */\n      mstore\n        /* \"#utility.yul\":10664:10668   */\n      0x20\n        /* \"#utility.yul\":10659:10662   */\n      dup3\n        /* \"#utility.yul\":10655:10669   */\n      add\n        /* \"#utility.yul\":10640:10669   */\n      swap1\n      pop\n        /* \"#utility.yul\":10516:10675   */\n      swap3\n      swap2\n      pop\n      pop\n      jump\t// out\n        /* \"#utility.yul\":10681:11038   */\n    tag_320:\n        /* \"#utility.yul\":10759:10762   */\n      0x00\n        /* \"#utility.yul\":10787:10826   */\n      tag_476\n        /* \"#utility.yul\":10820:10825   */\n      dup3\n        /* \"#utility.yul\":10787:10826   */\n      tag_295\n      jump\t// in\n    tag_476:\n        /* \"#utility.yul\":10842:10903   */\n      tag_477\n        /* \"#utility.yul\":10896:10902   */\n      dup2\n        /* \"#utility.yul\":10891:10894   */\n      dup6\n        /* \"#utility.yul\":10842:10903   */\n      tag_319\n      jump\t// in\n    tag_477:\n        /* \"#utility.yul\":10835:10903   */\n      swap4\n      pop\n        /* \"#utility.yul\":10912:10977   */\n      tag_478\n        /* \"#utility.yul\":10970:10976   */\n      dup2\n        /* \"#utility.yul\":10965:10968   */\n      dup6\n        /* \"#utility.yul\":10958:10962   */\n      0x20\n        /* \"#utility.yul\":10951:10956   */\n      dup7\n        /* \"#utility.yul\":10947:10963   */\n      add\n        /* \"#utility.yul\":10912:10977   */\n      tag_297\n      jump\t// in\n    tag_478:\n        /* \"#utility.yul\":11002:11031   */\n      tag_479\n        /* \"#utility.yul\":11024:11030   */\n      dup2\n        /* \"#utility.yul\":11002:11031   */\n      tag_298\n      jump\t// in\n    tag_479:\n        /* \"#utility.yul\":10997:11000   */\n      dup5\n        /* \"#utility.yul\":10993:11032   */\n      add\n        /* \"#utility.yul\":10986:11032   */\n      swap2\n      pop\n        /* \"#utility.yul\":10763:11038   */\n      pop\n        /* \"#utility.yul\":10681:11038   */\n      swap3\n      swap2\n      pop\n      pop\n      jump\t// out\n        /* \"#utility.yul\":11044:11152   */\n    tag_321:\n        /* \"#utility.yul\":11121:11145   */\n      tag_481\n        /* \"#utility.yul\":11139:11144   */\n      dup2\n        /* \"#utility.yul\":11121:11145   */\n      tag_289\n      jump\t// in\n    tag_481:\n        /* \"#utility.yul\":11116:11119   */\n      dup3\n        /* \"#utility.yul\":11109:11146   */\n      mstore\n        /* \"#utility.yul\":11044:11152   */\n      pop\n      pop\n      jump\t// out\n        /* \"#utility.yul\":11158:11257   */\n    tag_322:\n        /* \"#utility.yul\":11229:11250   */\n      tag_483\n        /* \"#utility.yul\":11244:11249   */\n      dup2\n        /* \"#utility.yul\":11229:11250   */\n      tag_301\n      jump\t// in\n    tag_483:\n        /* \"#utility.yul\":11224:11227   */\n      dup3\n        /* \"#utility.yul\":11217:11251   */\n      mstore\n        /* \"#utility.yul\":11158:11257   */\n      pop\n      pop\n      jump\t// out\n        /* \"#utility.yul\":11337:13055   */\n    tag_323:\n        /* \"#utility.yul\":11440:11443   */\n      0x00\n        /* \"#utility.yul\":11476:11482   */\n      0x0100\n        /* \"#utility.yul\":11471:11474   */\n      dup4\n        /* \"#utility.yul\":11467:11483   */\n      add\n        /* \"#utility.yul\":11566:11570   */\n      0x00\n        /* \"#utility.yul\":11559:11564   */\n      dup4\n        /* \"#utility.yul\":11555:11571   */\n      add\n        /* \"#utility.yul\":11549:11572   */\n      mload\n        /* \"#utility.yul\":11585:11648   */\n      tag_485\n        /* \"#utility.yul\":11642:11646   */\n      0x00\n        /* \"#utility.yul\":11637:11640   */\n      dup7\n        /* \"#utility.yul\":11633:11647   */\n      add\n        /* \"#utility.yul\":11619:11631   */\n      dup3\n        /* \"#utility.yul\":11585:11648   */\n      tag_318\n      jump\t// in\n    tag_485:\n        /* \"#utility.yul\":11493:11658   */\n      pop\n        /* \"#utility.yul\":11747:11751   */\n      0x20\n        /* \"#utility.yul\":11740:11745   */\n      dup4\n        /* \"#utility.yul\":11736:11752   */\n      add\n        /* \"#utility.yul\":11730:11753   */\n      mload\n        /* \"#utility.yul\":11800:11803   */\n      dup5\n        /* \"#utility.yul\":11794:11798   */\n      dup3\n        /* \"#utility.yul\":11790:11804   */\n      sub\n        /* \"#utility.yul\":11783:11787   */\n      0x20\n        /* \"#utility.yul\":11778:11781   */\n      dup7\n        /* \"#utility.yul\":11774:11788   */\n      add\n        /* \"#utility.yul\":11767:11805   */\n      mstore\n        /* \"#utility.yul\":11826:11899   */\n      tag_486\n        /* \"#utility.yul\":11894:11898   */\n      dup3\n        /* \"#utility.yul\":11880:11892   */\n      dup3\n        /* \"#utility.yul\":11826:11899   */\n      tag_320\n      jump\t// in\n    tag_486:\n        /* \"#utility.yul\":11818:11899   */\n      swap2\n      pop\n        /* \"#utility.yul\":11668:11910   */\n      pop\n        /* \"#utility.yul\":11993:11997   */\n      0x40\n        /* \"#utility.yul\":11986:11991   */\n      dup4\n        /* \"#utility.yul\":11982:11998   */\n      add\n        /* \"#utility.yul\":11976:11999   */\n      mload\n        /* \"#utility.yul\":12012:12075   */\n      tag_487\n        /* \"#utility.yul\":12069:12073   */\n      0x40\n        /* \"#utility.yul\":12064:12067   */\n      dup7\n        /* \"#utility.yul\":12060:12074   */\n      add\n        /* \"#utility.yul\":12046:12058   */\n      dup3\n        /* \"#utility.yul\":12012:12075   */\n      tag_321\n      jump\t// in\n    tag_487:\n        /* \"#utility.yul\":11920:12085   */\n      pop\n        /* \"#utility.yul\":12167:12171   */\n      0x60\n        /* \"#utility.yul\":12160:12165   */\n      dup4\n        /* \"#utility.yul\":12156:12172   */\n      add\n        /* \"#utility.yul\":12150:12173   */\n      mload\n        /* \"#utility.yul\":12186:12249   */\n      tag_488\n        /* \"#utility.yul\":12243:12247   */\n      0x60\n        /* \"#utility.yul\":12238:12241   */\n      dup7\n        /* \"#utility.yul\":12234:12248   */\n      add\n        /* \"#utility.yul\":12220:12232   */\n      dup3\n        /* \"#utility.yul\":12186:12249   */\n      tag_321\n      jump\t// in\n    tag_488:\n        /* \"#utility.yul\":12095:12259   */\n      pop\n        /* \"#utility.yul\":12342:12346   */\n      0x80\n        /* \"#utility.yul\":12335:12340   */\n      dup4\n        /* \"#utility.yul\":12331:12347   */\n      add\n        /* \"#utility.yul\":12325:12348   */\n      mload\n        /* \"#utility.yul\":12395:12398   */\n      dup5\n        /* \"#utility.yul\":12389:12393   */\n      dup3\n        /* \"#utility.yul\":12385:12399   */\n      sub\n        /* \"#utility.yul\":12378:12382   */\n      0x80\n        /* \"#utility.yul\":12373:12376   */\n      dup7\n        /* \"#utility.yul\":12369:12383   */\n      add\n        /* \"#utility.yul\":12362:12400   */\n      mstore\n        /* \"#utility.yul\":12421:12494   */\n      tag_489\n        /* \"#utility.yul\":12489:12493   */\n      dup3\n        /* \"#utility.yul\":12475:12487   */\n      dup3\n        /* \"#utility.yul\":12421:12494   */\n      tag_320\n      jump\t// in\n    tag_489:\n        /* \"#utility.yul\":12413:12494   */\n      swap2\n      pop\n        /* \"#utility.yul\":12269:12505   */\n      pop\n        /* \"#utility.yul\":12592:12596   */\n      0xa0\n        /* \"#utility.yul\":12585:12590   */\n      dup4\n        /* \"#utility.yul\":12581:12597   */\n      add\n        /* \"#utility.yul\":12575:12598   */\n      mload\n        /* \"#utility.yul\":12611:12668   */\n      tag_490\n        /* \"#utility.yul\":12662:12666   */\n      0xa0\n        /* \"#utility.yul\":12657:12660   */\n      dup7\n        /* \"#utility.yul\":12653:12667   */\n      add\n        /* \"#utility.yul\":12639:12651   */\n      dup3\n        /* \"#utility.yul\":12611:12668   */\n      tag_322\n      jump\t// in\n    tag_490:\n        /* \"#utility.yul\":12515:12678   */\n      pop\n        /* \"#utility.yul\":12767:12771   */\n      0xc0\n        /* \"#utility.yul\":12760:12765   */\n      dup4\n        /* \"#utility.yul\":12756:12772   */\n      add\n        /* \"#utility.yul\":12750:12773   */\n      mload\n        /* \"#utility.yul\":12786:12843   */\n      tag_491\n        /* \"#utility.yul\":12837:12841   */\n      0xc0\n        /* \"#utility.yul\":12832:12835   */\n      dup7\n        /* \"#utility.yul\":12828:12842   */\n      add\n        /* \"#utility.yul\":12814:12826   */\n      dup3\n        /* \"#utility.yul\":12786:12843   */\n      tag_322\n      jump\t// in\n    tag_491:\n        /* \"#utility.yul\":12688:12853   */\n      pop\n        /* \"#utility.yul\":12936:12940   */\n      0xe0\n        /* \"#utility.yul\":12929:12934   */\n      dup4\n        /* \"#utility.yul\":12925:12941   */\n      add\n        /* \"#utility.yul\":12919:12942   */\n      mload\n        /* \"#utility.yul\":12955:13018   */\n      tag_492\n        /* \"#utility.yul\":13012:13016   */\n      0xe0\n        /* \"#utility.yul\":13007:13010   */\n      dup7\n        /* \"#utility.yul\":13003:13017   */\n      add\n        /* \"#utility.yul\":12989:13001   */\n      dup3\n        /* \"#utility.yul\":12955:13018   */\n      tag_321\n      jump\t// in\n    tag_492:\n        /* \"#utility.yul\":12863:13028   */\n      pop\n        /* \"#utility.yul\":13045:13049   */\n      dup1\n        /* \"#utility.yul\":13038:13049   */\n      swap2\n      pop\n        /* \"#utility.yul\":11445:13055   */\n      pop\n        /* \"#utility.yul\":11337:13055   */\n      swap3\n      swap2\n      pop\n      pop\n      jump\t// out\n        /* \"#utility.yul\":13061:13305   */\n    tag_324:\n        /* \"#utility.yul\":13174:13184   */\n      0x00\n        /* \"#utility.yul\":13209:13299   */\n      tag_494\n        /* \"#utility.yul\":13295:13298   */\n      dup4\n        /* \"#utility.yul\":13287:13293   */\n      dup4\n        /* \"#utility.yul\":13209:13299   */\n      tag_323\n      jump\t// in\n    tag_494:\n        /* \"#utility.yul\":13195:13299   */\n      swap1\n      pop\n        /* \"#utility.yul\":13061:13305   */\n      swap3\n      swap2\n      pop\n      pop\n      jump\t// out\n        /* \"#utility.yul\":13311:13446   */\n    tag_325:\n        /* \"#utility.yul\":13403:13407   */\n      0x00\n        /* \"#utility.yul\":13435:13439   */\n      0x20\n        /* \"#utility.yul\":13430:13433   */\n      dup3\n        /* \"#utility.yul\":13426:13440   */\n      add\n        /* \"#utility.yul\":13418:13440   */\n      swap1\n      pop\n        /* \"#utility.yul\":13311:13446   */\n      swap2\n      swap1\n      pop\n      jump\t// out\n        /* \"#utility.yul\":13530:14617   */\n    tag_326:\n        /* \"#utility.yul\":13693:13696   */\n      0x00\n        /* \"#utility.yul\":13722:13798   */\n      tag_497\n        /* \"#utility.yul\":13792:13797   */\n      dup3\n        /* \"#utility.yul\":13722:13798   */\n      tag_315\n      jump\t// in\n    tag_497:\n        /* \"#utility.yul\":13814:13922   */\n      tag_498\n        /* \"#utility.yul\":13915:13921   */\n      dup2\n        /* \"#utility.yul\":13910:13913   */\n      dup6\n        /* \"#utility.yul\":13814:13922   */\n      tag_316\n      jump\t// in\n    tag_498:\n        /* \"#utility.yul\":13807:13922   */\n      swap4\n      pop\n        /* \"#utility.yul\":13948:13951   */\n      dup4\n        /* \"#utility.yul\":13993:13997   */\n      0x20\n        /* \"#utility.yul\":13985:13991   */\n      dup3\n        /* \"#utility.yul\":13981:13998   */\n      mul\n        /* \"#utility.yul\":13976:13979   */\n      dup6\n        /* \"#utility.yul\":13972:13999   */\n      add\n        /* \"#utility.yul\":14023:14101   */\n      tag_499\n        /* \"#utility.yul\":14095:14100   */\n      dup6\n        /* \"#utility.yul\":14023:14101   */\n      tag_317\n      jump\t// in\n    tag_499:\n        /* \"#utility.yul\":14124:14131   */\n      dup1\n        /* \"#utility.yul\":14155:14156   */\n      0x00\n        /* \"#utility.yul\":14140:14572   */\n    tag_500:\n        /* \"#utility.yul\":14165:14171   */\n      dup6\n        /* \"#utility.yul\":14162:14163   */\n      dup2\n        /* \"#utility.yul\":14159:14172   */\n      lt\n        /* \"#utility.yul\":14140:14572   */\n      iszero\n      tag_502\n      jumpi\n        /* \"#utility.yul\":14236:14245   */\n      dup5\n        /* \"#utility.yul\":14230:14234   */\n      dup5\n        /* \"#utility.yul\":14226:14246   */\n      sub\n        /* \"#utility.yul\":14221:14224   */\n      dup10\n        /* \"#utility.yul\":14214:14247   */\n      mstore\n        /* \"#utility.yul\":14287:14293   */\n      dup2\n        /* \"#utility.yul\":14281:14294   */\n      mload\n        /* \"#utility.yul\":14315:14423   */\n      tag_503\n        /* \"#utility.yul\":14418:14422   */\n      dup6\n        /* \"#utility.yul\":14403:14416   */\n      dup3\n        /* \"#utility.yul\":14315:14423   */\n      tag_324\n      jump\t// in\n    tag_503:\n        /* \"#utility.yul\":14307:14423   */\n      swap5\n      pop\n        /* \"#utility.yul\":14446:14528   */\n      tag_504\n        /* \"#utility.yul\":14521:14527   */\n      dup4\n        /* \"#utility.yul\":14446:14528   */\n      tag_325\n      jump\t// in\n    tag_504:\n        /* \"#utility.yul\":14436:14528   */\n      swap3\n      pop\n        /* \"#utility.yul\":14557:14561   */\n      0x20\n        /* \"#utility.yul\":14552:14555   */\n      dup11\n        /* \"#utility.yul\":14548:14562   */\n      add\n        /* \"#utility.yul\":14541:14562   */\n      swap10\n      pop\n        /* \"#utility.yul\":14200:14572   */\n      pop\n        /* \"#utility.yul\":14187:14188   */\n      0x01\n        /* \"#utility.yul\":14184:14185   */\n      dup2\n        /* \"#utility.yul\":14180:14189   */\n      add\n        /* \"#utility.yul\":14175:14189   */\n      swap1\n      pop\n        /* \"#utility.yul\":14140:14572   */\n      jump(tag_500)\n    tag_502:\n        /* \"#utility.yul\":14144:14158   */\n      pop\n        /* \"#utility.yul\":14588:14592   */\n      dup3\n        /* \"#utility.yul\":14581:14592   */\n      swap8\n      pop\n        /* \"#utility.yul\":14608:14611   */\n      dup8\n        /* \"#utility.yul\":14601:14611   */\n      swap6\n      pop\n        /* \"#utility.yul\":13698:14617   */\n      pop\n      pop\n      pop\n      pop\n      pop\n        /* \"#utility.yul\":13530:14617   */\n      swap3\n      swap2\n      pop\n      pop\n      jump\t// out\n        /* \"#utility.yul\":14623:15084   */\n    tag_97:\n        /* \"#utility.yul\":14810:14814   */\n      0x00\n        /* \"#utility.yul\":14848:14850   */\n      0x20\n        /* \"#utility.yul\":14837:14846   */\n      dup3\n        /* \"#utility.yul\":14833:14851   */\n      add\n        /* \"#utility.yul\":14825:14851   */\n      swap1\n      pop\n        /* \"#utility.yul\":14897:14906   */\n      dup2\n        /* \"#utility.yul\":14891:14895   */\n      dup2\n        /* \"#utility.yul\":14887:14907   */\n      sub\n        /* \"#utility.yul\":14883:14884   */\n      0x00\n        /* \"#utility.yul\":14872:14881   */\n      dup4\n        /* \"#utility.yul\":14868:14885   */\n      add\n        /* \"#utility.yul\":14861:14908   */\n      mstore\n        /* \"#utility.yul\":14925:15077   */\n      tag_506\n        /* \"#utility.yul\":15072:15076   */\n      dup2\n        /* \"#utility.yul\":15063:15069   */\n      dup5\n        /* \"#utility.yul\":14925:15077   */\n      tag_326\n      jump\t// in\n    tag_506:\n        /* \"#utility.yul\":14917:15077   */\n      swap1\n      pop\n        /* \"#utility.yul\":14623:15084   */\n      swap3\n      swap2\n      pop\n      pop\n      jump\t// out\n        /* \"#utility.yul\":15090:15270   */\n    tag_327:\n        /* \"#utility.yul\":15138:15215   */\n      0x4e487b7100000000000000000000000000000000000000000000000000000000\n        /* \"#utility.yul\":15135:15136   */\n      0x00\n        /* \"#utility.yul\":15128:15216   */\n      mstore\n        /* \"#utility.yul\":15235:15239   */\n      0x22\n        /* \"#utility.yul\":15232:15233   */\n      0x04\n        /* \"#utility.yul\":15225:15240   */\n      mstore\n        /* \"#utility.yul\":15259:15263   */\n      0x24\n        /* \"#utility.yul\":15256:15257   */\n      0x00\n        /* \"#utility.yul\":15249:15264   */\n      revert\n        /* \"#utility.yul\":15276:15596   */\n    tag_115:\n        /* \"#utility.yul\":15320:15326   */\n      0x00\n        /* \"#utility.yul\":15357:15358   */\n      0x02\n        /* \"#utility.yul\":15351:15355   */\n      dup3\n        /* \"#utility.yul\":15347:15359   */\n      div\n        /* \"#utility.yul\":15337:15359   */\n      swap1\n      pop\n        /* \"#utility.yul\":15404:15405   */\n      0x01\n        /* \"#utility.yul\":15398:15402   */\n      dup3\n        /* \"#utility.yul\":15394:15406   */\n      and\n        /* \"#utility.yul\":15425:15443   */\n      dup1\n        /* \"#utility.yul\":15415:15496   */\n      tag_509\n      jumpi\n        /* \"#utility.yul\":15481:15485   */\n      0x7f\n        /* \"#utility.yul\":15473:15479   */\n      dup3\n        /* \"#utility.yul\":15469:15486   */\n      and\n        /* \"#utility.yul\":15459:15486   */\n      swap2\n      pop\n        /* \"#utility.yul\":15415:15496   */\n    tag_509:\n        /* \"#utility.yul\":15543:15545   */\n      0x20\n        /* \"#utility.yul\":15535:15541   */\n      dup3\n        /* \"#utility.yul\":15532:15546   */\n      lt\n        /* \"#utility.yul\":15512:15530   */\n      dup2\n        /* \"#utility.yul\":15509:15547   */\n      sub\n        /* \"#utility.yul\":15506:15590   */\n      tag_510\n      jumpi\n        /* \"#utility.yul\":15562:15580   */\n      tag_511\n      tag_327\n      jump\t// in\n    tag_511:\n        /* \"#utility.yul\":15506:15590   */\n    tag_510:\n        /* \"#utility.yul\":15327:15596   */\n      pop\n        /* \"#utility.yul\":15276:15596   */\n      swap2\n      swap1\n      pop\n      jump\t// out\n        /* \"#utility.yul\":15602:15750   */\n    tag_328:\n        /* \"#utility.yul\":15704:15715   */\n      0x00\n        /* \"#utility.yul\":15741:15744   */\n      dup2\n        /* \"#utility.yul\":15726:15744   */\n      swap1\n      pop\n        /* \"#utility.yul\":15602:15750   */\n      swap3\n      swap2\n      pop\n      pop\n      jump\t// out\n        /* \"#utility.yul\":15756:16146   */\n    tag_329:\n        /* \"#utility.yul\":15862:15865   */\n      0x00\n        /* \"#utility.yul\":15890:15929   */\n      tag_514\n        /* \"#utility.yul\":15923:15928   */\n      dup3\n        /* \"#utility.yul\":15890:15929   */\n      tag_295\n      jump\t// in\n    tag_514:\n        /* \"#utility.yul\":15945:16034   */\n      tag_515\n        /* \"#utility.yul\":16027:16033   */\n      dup2\n        /* \"#utility.yul\":16022:16025   */\n      dup6\n        /* \"#utility.yul\":15945:16034   */\n      tag_328\n      jump\t// in\n    tag_515:\n        /* \"#utility.yul\":15938:16034   */\n      swap4\n      pop\n        /* \"#utility.yul\":16043:16108   */\n      tag_516\n        /* \"#utility.yul\":16101:16107   */\n      dup2\n        /* \"#utility.yul\":16096:16099   */\n      dup6\n        /* \"#utility.yul\":16089:16093   */\n      0x20\n        /* \"#utility.yul\":16082:16087   */\n      dup7\n        /* \"#utility.yul\":16078:16094   */\n      add\n        /* \"#utility.yul\":16043:16108   */\n      tag_297\n      jump\t// in\n    tag_516:\n        /* \"#utility.yul\":16133:16139   */\n      dup1\n        /* \"#utility.yul\":16128:16131   */\n      dup5\n        /* \"#utility.yul\":16124:16140   */\n      add\n        /* \"#utility.yul\":16117:16140   */\n      swap2\n      pop\n        /* \"#utility.yul\":15866:16146   */\n      pop\n        /* \"#utility.yul\":15756:16146   */\n      swap3\n      swap2\n      pop\n      pop\n      jump\t// out\n        /* \"#utility.yul\":16152:16427   */\n    tag_127:\n        /* \"#utility.yul\":16284:16287   */\n      0x00\n        /* \"#utility.yul\":16306:16401   */\n      tag_518\n        /* \"#utility.yul\":16397:16400   */\n      dup3\n        /* \"#utility.yul\":16388:16394   */\n      dup5\n        /* \"#utility.yul\":16306:16401   */\n      tag_329\n      jump\t// in\n    tag_518:\n        /* \"#utility.yul\":16299:16401   */\n      swap2\n      pop\n        /* \"#utility.yul\":16418:16421   */\n      dup2\n        /* \"#utility.yul\":16411:16421   */\n      swap1\n      pop\n        /* \"#utility.yul\":16152:16427   */\n      swap3\n      swap2\n      pop\n      pop\n      jump\t// out\n        /* \"#utility.yul\":16433:16613   */\n    tag_131:\n        /* \"#utility.yul\":16481:16558   */\n      0x4e487b7100000000000000000000000000000000000000000000000000000000\n        /* \"#utility.yul\":16478:16479   */\n      0x00\n        /* \"#utility.yul\":16471:16559   */\n      mstore\n        /* \"#utility.yul\":16578:16582   */\n      0x32\n        /* \"#utility.yul\":16575:16576   */\n      0x04\n        /* \"#utility.yul\":16568:16583   */\n      mstore\n        /* \"#utility.yul\":16602:16606   */\n      0x24\n        /* \"#utility.yul\":16599:16600   */\n      0x00\n        /* \"#utility.yul\":16592:16607   */\n      revert\n        /* \"#utility.yul\":16619:16760   */\n    tag_330:\n        /* \"#utility.yul\":16668:16672   */\n      0x00\n        /* \"#utility.yul\":16691:16694   */\n      dup2\n        /* \"#utility.yul\":16683:16694   */\n      swap1\n      pop\n        /* \"#utility.yul\":16714:16717   */\n      dup2\n        /* \"#utility.yul\":16711:16712   */\n      0x00\n        /* \"#utility.yul\":16704:16718   */\n      mstore\n        /* \"#utility.yul\":16748:16752   */\n      0x20\n        /* \"#utility.yul\":16745:16746   */\n      0x00\n        /* \"#utility.yul\":16735:16753   */\n      keccak256\n        /* \"#utility.yul\":16727:16753   */\n      swap1\n      pop\n        /* \"#utility.yul\":16619:16760   */\n      swap2\n      swap1\n      pop\n      jump\t// out\n        /* \"#utility.yul\":16790:17664   */\n    tag_331:\n        /* \"#utility.yul\":16893:16896   */\n      0x00\n        /* \"#utility.yul\":16930:16935   */\n      dup2\n        /* \"#utility.yul\":16924:16936   */\n      sload\n        /* \"#utility.yul\":16959:16995   */\n      tag_522\n        /* \"#utility.yul\":16985:16994   */\n      dup2\n        /* \"#utility.yul\":16959:16995   */\n      tag_115\n      jump\t// in\n    tag_522:\n        /* \"#utility.yul\":17011:17100   */\n      tag_523\n        /* \"#utility.yul\":17093:17099   */\n      dup2\n        /* \"#utility.yul\":17088:17091   */\n      dup7\n        /* \"#utility.yul\":17011:17100   */\n      tag_328\n      jump\t// in\n    tag_523:\n        /* \"#utility.yul\":17004:17100   */\n      swap5\n      pop\n        /* \"#utility.yul\":17131:17132   */\n      0x01\n        /* \"#utility.yul\":17120:17129   */\n      dup3\n        /* \"#utility.yul\":17116:17133   */\n      and\n        /* \"#utility.yul\":17147:17148   */\n      0x00\n        /* \"#utility.yul\":17142:17308   */\n      dup2\n      eq\n      tag_525\n      jumpi\n        /* \"#utility.yul\":17322:17323   */\n      0x01\n        /* \"#utility.yul\":17317:17658   */\n      dup2\n      eq\n      tag_526\n      jumpi\n        /* \"#utility.yul\":17109:17658   */\n      jump(tag_524)\n        /* \"#utility.yul\":17142:17308   */\n    tag_525:\n        /* \"#utility.yul\":17226:17230   */\n      0xff\n        /* \"#utility.yul\":17222:17231   */\n      not\n        /* \"#utility.yul\":17211:17220   */\n      dup4\n        /* \"#utility.yul\":17207:17232   */\n      and\n        /* \"#utility.yul\":17202:17205   */\n      dup7\n        /* \"#utility.yul\":17195:17233   */\n      mstore\n        /* \"#utility.yul\":17288:17294   */\n      dup2\n        /* \"#utility.yul\":17281:17295   */\n      iszero\n        /* \"#utility.yul\":17274:17296   */\n      iszero\n        /* \"#utility.yul\":17266:17272   */\n      dup3\n        /* \"#utility.yul\":17262:17297   */\n      mul\n        /* \"#utility.yul\":17257:17260   */\n      dup7\n        /* \"#utility.yul\":17253:17298   */\n      add\n        /* \"#utility.yul\":17246:17298   */\n      swap4\n      pop\n        /* \"#utility.yul\":17142:17308   */\n      jump(tag_524)\n        /* \"#utility.yul\":17317:17658   */\n    tag_526:\n        /* \"#utility.yul\":17384:17422   */\n      tag_527\n        /* \"#utility.yul\":17416:17421   */\n      dup6\n        /* \"#utility.yul\":17384:17422   */\n      tag_330\n      jump\t// in\n    tag_527:\n        /* \"#utility.yul\":17444:17445   */\n      0x00\n        /* \"#utility.yul\":17458:17612   */\n    tag_528:\n        /* \"#utility.yul\":17472:17478   */\n      dup4\n        /* \"#utility.yul\":17469:17470   */\n      dup2\n        /* \"#utility.yul\":17466:17479   */\n      lt\n        /* \"#utility.yul\":17458:17612   */\n      iszero\n      tag_530\n      jumpi\n        /* \"#utility.yul\":17546:17553   */\n      dup2\n        /* \"#utility.yul\":17540:17554   */\n      sload\n        /* \"#utility.yul\":17536:17537   */\n      dup2\n        /* \"#utility.yul\":17531:17534   */\n      dup10\n        /* \"#utility.yul\":17527:17538   */\n      add\n        /* \"#utility.yul\":17520:17555   */\n      mstore\n        /* \"#utility.yul\":17596:17597   */\n      0x01\n        /* \"#utility.yul\":17587:17594   */\n      dup3\n        /* \"#utility.yul\":17583:17598   */\n      add\n        /* \"#utility.yul\":17572:17598   */\n      swap2\n      pop\n        /* \"#utility.yul\":17494:17498   */\n      0x20\n        /* \"#utility.yul\":17491:17492   */\n      dup2\n        /* \"#utility.yul\":17487:17499   */\n      add\n        /* \"#utility.yul\":17482:17499   */\n      swap1\n      pop\n        /* \"#utility.yul\":17458:17612   */\n      jump(tag_528)\n    tag_530:\n        /* \"#utility.yul\":17641:17647   */\n      dup4\n        /* \"#utility.yul\":17636:17639   */\n      dup9\n        /* \"#utility.yul\":17632:17648   */\n      add\n        /* \"#utility.yul\":17625:17648   */\n      swap6\n      pop\n        /* \"#utility.yul\":17324:17658   */\n      pop\n      pop\n        /* \"#utility.yul\":17109:17658   */\n    tag_524:\n      pop\n        /* \"#utility.yul\":16897:17664   */\n      pop\n      pop\n        /* \"#utility.yul\":16790:17664   */\n      swap3\n      swap2\n      pop\n      pop\n      jump\t// out\n        /* \"#utility.yul\":17670:17939   */\n    tag_134:\n        /* \"#utility.yul\":17799:17802   */\n      0x00\n        /* \"#utility.yul\":17821:17913   */\n      tag_532\n        /* \"#utility.yul\":17909:17912   */\n      dup3\n        /* \"#utility.yul\":17900:17906   */\n      dup5\n        /* \"#utility.yul\":17821:17913   */\n      tag_331\n      jump\t// in\n    tag_532:\n        /* \"#utility.yul\":17814:17913   */\n      swap2\n      pop\n        /* \"#utility.yul\":17930:17933   */\n      dup2\n        /* \"#utility.yul\":17923:17933   */\n      swap1\n      pop\n        /* \"#utility.yul\":17670:17939   */\n      swap3\n      swap2\n      pop\n      pop\n      jump\t// out\n        /* \"#utility.yul\":17945:18170   */\n    tag_332:\n        /* \"#utility.yul\":18085:18119   */\n      0x4572726f723a20546869732064657374696e6174696f6e20646f65736e277420\n        /* \"#utility.yul\":18081:18082   */\n      0x00\n        /* \"#utility.yul\":18073:18079   */\n      dup3\n        /* \"#utility.yul\":18069:18083   */\n      add\n        /* \"#utility.yul\":18062:18120   */\n      mstore\n        /* \"#utility.yul\":18154:18162   */\n      0x6578697374210000000000000000000000000000000000000000000000000000\n        /* \"#utility.yul\":18149:18151   */\n      0x20\n        /* \"#utility.yul\":18141:18147   */\n      dup3\n        /* \"#utility.yul\":18137:18152   */\n      add\n        /* \"#utility.yul\":18130:18163   */\n      mstore\n        /* \"#utility.yul\":17945:18170   */\n      pop\n      jump\t// out\n        /* \"#utility.yul\":18176:18542   */\n    tag_333:\n        /* \"#utility.yul\":18318:18321   */\n      0x00\n        /* \"#utility.yul\":18339:18406   */\n      tag_535\n        /* \"#utility.yul\":18403:18405   */\n      0x26\n        /* \"#utility.yul\":18398:18401   */\n      dup4\n        /* \"#utility.yul\":18339:18406   */\n      tag_296\n      jump\t// in\n    tag_535:\n        /* \"#utility.yul\":18332:18406   */\n      swap2\n      pop\n        /* \"#utility.yul\":18415:18508   */\n      tag_536\n        /* \"#utility.yul\":18504:18507   */\n      dup3\n        /* \"#utility.yul\":18415:18508   */\n      tag_332\n      jump\t// in\n    tag_536:\n        /* \"#utility.yul\":18533:18535   */\n      0x40\n        /* \"#utility.yul\":18528:18531   */\n      dup3\n        /* \"#utility.yul\":18524:18536   */\n      add\n        /* \"#utility.yul\":18517:18536   */\n      swap1\n      pop\n        /* \"#utility.yul\":18176:18542   */\n      swap2\n      swap1\n      pop\n      jump\t// out\n        /* \"#utility.yul\":18548:18967   */\n    tag_137:\n        /* \"#utility.yul\":18714:18718   */\n      0x00\n        /* \"#utility.yul\":18752:18754   */\n      0x20\n        /* \"#utility.yul\":18741:18750   */\n      dup3\n        /* \"#utility.yul\":18737:18755   */\n      add\n        /* \"#utility.yul\":18729:18755   */\n      swap1\n      pop\n        /* \"#utility.yul\":18801:18810   */\n      dup2\n        /* \"#utility.yul\":18795:18799   */\n      dup2\n        /* \"#utility.yul\":18791:18811   */\n      sub\n        /* \"#utility.yul\":18787:18788   */\n      0x00\n        /* \"#utility.yul\":18776:18785   */\n      dup4\n        /* \"#utility.yul\":18772:18789   */\n      add\n        /* \"#utility.yul\":18765:18812   */\n      mstore\n        /* \"#utility.yul\":18829:18960   */\n      tag_538\n        /* \"#utility.yul\":18955:18959   */\n      dup2\n        /* \"#utility.yul\":18829:18960   */\n      tag_333\n      jump\t// in\n    tag_538:\n        /* \"#utility.yul\":18821:18960   */\n      swap1\n      pop\n        /* \"#utility.yul\":18548:18967   */\n      swap2\n      swap1\n      pop\n      jump\t// out\n        /* \"#utility.yul\":18973:19153   */\n    tag_334:\n        /* \"#utility.yul\":19021:19098   */\n      0x4e487b7100000000000000000000000000000000000000000000000000000000\n        /* \"#utility.yul\":19018:19019   */\n      0x00\n        /* \"#utility.yul\":19011:19099   */\n      mstore\n        /* \"#utility.yul\":19118:19122   */\n      0x11\n        /* \"#utility.yul\":19115:19116   */\n      0x04\n        /* \"#utility.yul\":19108:19123   */\n      mstore\n        /* \"#utility.yul\":19142:19146   */\n      0x24\n        /* \"#utility.yul\":19139:19140   */\n      0x00\n        /* \"#utility.yul\":19132:19147   */\n      revert\n        /* \"#utility.yul\":19159:19353   */\n    tag_139:\n        /* \"#utility.yul\":19199:19203   */\n      0x00\n        /* \"#utility.yul\":19219:19239   */\n      tag_541\n        /* \"#utility.yul\":19237:19238   */\n      dup3\n        /* \"#utility.yul\":19219:19239   */\n      tag_289\n      jump\t// in\n    tag_541:\n        /* \"#utility.yul\":19214:19239   */\n      swap2\n      pop\n        /* \"#utility.yul\":19253:19273   */\n      tag_542\n        /* \"#utility.yul\":19271:19272   */\n      dup4\n        /* \"#utility.yul\":19253:19273   */\n      tag_289\n      jump\t// in\n    tag_542:\n        /* \"#utility.yul\":19248:19273   */\n      swap3\n      pop\n        /* \"#utility.yul\":19297:19298   */\n      dup3\n        /* \"#utility.yul\":19294:19295   */\n      dup3\n        /* \"#utility.yul\":19290:19299   */\n      sub\n        /* \"#utility.yul\":19282:19299   */\n      swap1\n      pop\n        /* \"#utility.yul\":19321:19322   */\n      dup2\n        /* \"#utility.yul\":19315:19319   */\n      dup2\n        /* \"#utility.yul\":19312:19323   */\n      gt\n        /* \"#utility.yul\":19309:19346   */\n      iszero\n      tag_543\n      jumpi\n        /* \"#utility.yul\":19326:19344   */\n      tag_544\n      tag_334\n      jump\t// in\n    tag_544:\n        /* \"#utility.yul\":19309:19346   */\n    tag_543:\n        /* \"#utility.yul\":19159:19353   */\n      swap3\n      swap2\n      pop\n      pop\n      jump\t// out\n        /* \"#utility.yul\":19359:19769   */\n    tag_152:\n        /* \"#utility.yul\":19399:19406   */\n      0x00\n        /* \"#utility.yul\":19422:19442   */\n      tag_546\n        /* \"#utility.yul\":19440:19441   */\n      dup3\n        /* \"#utility.yul\":19422:19442   */\n      tag_289\n      jump\t// in\n    tag_546:\n        /* \"#utility.yul\":19417:19442   */\n      swap2\n      pop\n        /* \"#utility.yul\":19456:19476   */\n      tag_547\n        /* \"#utility.yul\":19474:19475   */\n      dup4\n        /* \"#utility.yul\":19456:19476   */\n      tag_289\n      jump\t// in\n    tag_547:\n        /* \"#utility.yul\":19451:19476   */\n      swap3\n      pop\n        /* \"#utility.yul\":19511:19512   */\n      dup3\n        /* \"#utility.yul\":19508:19509   */\n      dup3\n        /* \"#utility.yul\":19504:19513   */\n      mul\n        /* \"#utility.yul\":19533:19563   */\n      tag_548\n        /* \"#utility.yul\":19551:19562   */\n      dup2\n        /* \"#utility.yul\":19533:19563   */\n      tag_289\n      jump\t// in\n    tag_548:\n        /* \"#utility.yul\":19522:19563   */\n      swap2\n      pop\n        /* \"#utility.yul\":19712:19713   */\n      dup3\n        /* \"#utility.yul\":19703:19710   */\n      dup3\n        /* \"#utility.yul\":19699:19714   */\n      div\n        /* \"#utility.yul\":19696:19697   */\n      dup5\n        /* \"#utility.yul\":19693:19715   */\n      eq\n        /* \"#utility.yul\":19673:19674   */\n      dup4\n        /* \"#utility.yul\":19666:19675   */\n      iszero\n        /* \"#utility.yul\":19646:19729   */\n      or\n        /* \"#utility.yul\":19623:19762   */\n      tag_549\n      jumpi\n        /* \"#utility.yul\":19742:19760   */\n      tag_550\n      tag_334\n      jump\t// in\n    tag_550:\n        /* \"#utility.yul\":19623:19762   */\n    tag_549:\n        /* \"#utility.yul\":19407:19769   */\n      pop\n        /* \"#utility.yul\":19359:19769   */\n      swap3\n      swap2\n      pop\n      pop\n      jump\t// out\n        /* \"#utility.yul\":19775:19955   */\n    tag_335:\n        /* \"#utility.yul\":19823:19900   */\n      0x4e487b7100000000000000000000000000000000000000000000000000000000\n        /* \"#utility.yul\":19820:19821   */\n      0x00\n        /* \"#utility.yul\":19813:19901   */\n      mstore\n        /* \"#utility.yul\":19920:19924   */\n      0x12\n        /* \"#utility.yul\":19917:19918   */\n      0x04\n        /* \"#utility.yul\":19910:19925   */\n      mstore\n        /* \"#utility.yul\":19944:19948   */\n      0x24\n        /* \"#utility.yul\":19941:19942   */\n      0x00\n        /* \"#utility.yul\":19934:19949   */\n      revert\n        /* \"#utility.yul\":19961:20146   */\n    tag_157:\n        /* \"#utility.yul\":20001:20002   */\n      0x00\n        /* \"#utility.yul\":20018:20038   */\n      tag_553\n        /* \"#utility.yul\":20036:20037   */\n      dup3\n        /* \"#utility.yul\":20018:20038   */\n      tag_289\n      jump\t// in\n    tag_553:\n        /* \"#utility.yul\":20013:20038   */\n      swap2\n      pop\n        /* \"#utility.yul\":20052:20072   */\n      tag_554\n        /* \"#utility.yul\":20070:20071   */\n      dup4\n        /* \"#utility.yul\":20052:20072   */\n      tag_289\n      jump\t// in\n    tag_554:\n        /* \"#utility.yul\":20047:20072   */\n      swap3\n      pop\n        /* \"#utility.yul\":20091:20092   */\n      dup3\n        /* \"#utility.yul\":20081:20116   */\n      tag_555\n      jumpi\n        /* \"#utility.yul\":20096:20114   */\n      tag_556\n      tag_335\n      jump\t// in\n    tag_556:\n        /* \"#utility.yul\":20081:20116   */\n    tag_555:\n        /* \"#utility.yul\":20138:20139   */\n      dup3\n        /* \"#utility.yul\":20135:20136   */\n      dup3\n        /* \"#utility.yul\":20131:20140   */\n      div\n        /* \"#utility.yul\":20126:20140   */\n      swap1\n      pop\n        /* \"#utility.yul\":19961:20146   */\n      swap3\n      swap2\n      pop\n      pop\n      jump\t// out\n        /* \"#utility.yul\":20152:20322   */\n    tag_336:\n        /* \"#utility.yul\":20292:20314   */\n      0x596f7520617265206e6f74207468652043454f21000000000000000000000000\n        /* \"#utility.yul\":20288:20289   */\n      0x00\n        /* \"#utility.yul\":20280:20286   */\n      dup3\n        /* \"#utility.yul\":20276:20290   */\n      add\n        /* \"#utility.yul\":20269:20315   */\n      mstore\n        /* \"#utility.yul\":20152:20322   */\n      pop\n      jump\t// out\n        /* \"#utility.yul\":20328:20694   */\n    tag_337:\n        /* \"#utility.yul\":20470:20473   */\n      0x00\n        /* \"#utility.yul\":20491:20558   */\n      tag_559\n        /* \"#utility.yul\":20555:20557   */\n      0x14\n        /* \"#utility.yul\":20550:20553   */\n      dup4\n        /* \"#utility.yul\":20491:20558   */\n      tag_296\n      jump\t// in\n    tag_559:\n        /* \"#utility.yul\":20484:20558   */\n      swap2\n      pop\n        /* \"#utility.yul\":20567:20660   */\n      tag_560\n        /* \"#utility.yul\":20656:20659   */\n      dup3\n        /* \"#utility.yul\":20567:20660   */\n      tag_336\n      jump\t// in\n    tag_560:\n        /* \"#utility.yul\":20685:20687   */\n      0x20\n        /* \"#utility.yul\":20680:20683   */\n      dup3\n        /* \"#utility.yul\":20676:20688   */\n      add\n        /* \"#utility.yul\":20669:20688   */\n      swap1\n      pop\n        /* \"#utility.yul\":20328:20694   */\n      swap2\n      swap1\n      pop\n      jump\t// out\n        /* \"#utility.yul\":20700:21119   */\n    tag_163:\n        /* \"#utility.yul\":20866:20870   */\n      0x00\n        /* \"#utility.yul\":20904:20906   */\n      0x20\n        /* \"#utility.yul\":20893:20902   */\n      dup3\n        /* \"#utility.yul\":20889:20907   */\n      add\n        /* \"#utility.yul\":20881:20907   */\n      swap1\n      pop\n        /* \"#utility.yul\":20953:20962   */\n      dup2\n        /* \"#utility.yul\":20947:20951   */\n      dup2\n        /* \"#utility.yul\":20943:20963   */\n      sub\n        /* \"#utility.yul\":20939:20940   */\n      0x00\n        /* \"#utility.yul\":20928:20937   */\n      dup4\n        /* \"#utility.yul\":20924:20941   */\n      add\n        /* \"#utility.yul\":20917:20964   */\n      mstore\n        /* \"#utility.yul\":20981:21112   */\n      tag_562\n        /* \"#utility.yul\":21107:21111   */\n      dup2\n        /* \"#utility.yul\":20981:21112   */\n      tag_337\n      jump\t// in\n    tag_562:\n        /* \"#utility.yul\":20973:21112   */\n      swap1\n      pop\n        /* \"#utility.yul\":20700:21119   */\n      swap2\n      swap1\n      pop\n      jump\t// out\n        /* \"#utility.yul\":21125:21351   */\n    tag_338:\n        /* \"#utility.yul\":21265:21299   */\n      0x4572726f723a20546869732064657374696e6174696f6e20616c726561647920\n        /* \"#utility.yul\":21261:21262   */\n      0x00\n        /* \"#utility.yul\":21253:21259   */\n      dup3\n        /* \"#utility.yul\":21249:21263   */\n      add\n        /* \"#utility.yul\":21242:21300   */\n      mstore\n        /* \"#utility.yul\":21334:21343   */\n      0x6578697374732100000000000000000000000000000000000000000000000000\n        /* \"#utility.yul\":21329:21331   */\n      0x20\n        /* \"#utility.yul\":21321:21327   */\n      dup3\n        /* \"#utility.yul\":21317:21332   */\n      add\n        /* \"#utility.yul\":21310:21344   */\n      mstore\n        /* \"#utility.yul\":21125:21351   */\n      pop\n      jump\t// out\n        /* \"#utility.yul\":21357:21723   */\n    tag_339:\n        /* \"#utility.yul\":21499:21502   */\n      0x00\n        /* \"#utility.yul\":21520:21587   */\n      tag_565\n        /* \"#utility.yul\":21584:21586   */\n      0x27\n        /* \"#utility.yul\":21579:21582   */\n      dup4\n        /* \"#utility.yul\":21520:21587   */\n      tag_296\n      jump\t// in\n    tag_565:\n        /* \"#utility.yul\":21513:21587   */\n      swap2\n      pop\n        /* \"#utility.yul\":21596:21689   */\n      tag_566\n        /* \"#utility.yul\":21685:21688   */\n      dup3\n        /* \"#utility.yul\":21596:21689   */\n      tag_338\n      jump\t// in\n    tag_566:\n        /* \"#utility.yul\":21714:21716   */\n      0x40\n        /* \"#utility.yul\":21709:21712   */\n      dup3\n        /* \"#utility.yul\":21705:21717   */\n      add\n        /* \"#utility.yul\":21698:21717   */\n      swap1\n      pop\n        /* \"#utility.yul\":21357:21723   */\n      swap2\n      swap1\n      pop\n      jump\t// out\n        /* \"#utility.yul\":21729:22148   */\n    tag_179:\n        /* \"#utility.yul\":21895:21899   */\n      0x00\n        /* \"#utility.yul\":21933:21935   */\n      0x20\n        /* \"#utility.yul\":21922:21931   */\n      dup3\n        /* \"#utility.yul\":21918:21936   */\n      add\n        /* \"#utility.yul\":21910:21936   */\n      swap1\n      pop\n        /* \"#utility.yul\":21982:21991   */\n      dup2\n        /* \"#utility.yul\":21976:21980   */\n      dup2\n        /* \"#utility.yul\":21972:21992   */\n      sub\n        /* \"#utility.yul\":21968:21969   */\n      0x00\n        /* \"#utility.yul\":21957:21966   */\n      dup4\n        /* \"#utility.yul\":21953:21970   */\n      add\n        /* \"#utility.yul\":21946:21993   */\n      mstore\n        /* \"#utility.yul\":22010:22141   */\n      tag_568\n        /* \"#utility.yul\":22136:22140   */\n      dup2\n        /* \"#utility.yul\":22010:22141   */\n      tag_339\n      jump\t// in\n    tag_568:\n        /* \"#utility.yul\":22002:22141   */\n      swap1\n      pop\n        /* \"#utility.yul\":21729:22148   */\n      swap2\n      swap1\n      pop\n      jump\t// out\n        /* \"#utility.yul\":22154:22382   */\n    tag_340:\n        /* \"#utility.yul\":22294:22328   */\n      0x4572726f723a20426173652070726963652063616e6e6f742062652062656c6f\n        /* \"#utility.yul\":22290:22291   */\n      0x00\n        /* \"#utility.yul\":22282:22288   */\n      dup3\n        /* \"#utility.yul\":22278:22292   */\n      add\n        /* \"#utility.yul\":22271:22329   */\n      mstore\n        /* \"#utility.yul\":22363:22374   */\n      0x7720333020576569210000000000000000000000000000000000000000000000\n        /* \"#utility.yul\":22358:22360   */\n      0x20\n        /* \"#utility.yul\":22350:22356   */\n      dup3\n        /* \"#utility.yul\":22346:22361   */\n      add\n        /* \"#utility.yul\":22339:22375   */\n      mstore\n        /* \"#utility.yul\":22154:22382   */\n      pop\n      jump\t// out\n        /* \"#utility.yul\":22388:22754   */\n    tag_341:\n        /* \"#utility.yul\":22530:22533   */\n      0x00\n        /* \"#utility.yul\":22551:22618   */\n      tag_571\n        /* \"#utility.yul\":22615:22617   */\n      0x29\n        /* \"#utility.yul\":22610:22613   */\n      dup4\n        /* \"#utility.yul\":22551:22618   */\n      tag_296\n      jump\t// in\n    tag_571:\n        /* \"#utility.yul\":22544:22618   */\n      swap2\n      pop\n        /* \"#utility.yul\":22627:22720   */\n      tag_572\n        /* \"#utility.yul\":22716:22719   */\n      dup3\n        /* \"#utility.yul\":22627:22720   */\n      tag_340\n      jump\t// in\n    tag_572:\n        /* \"#utility.yul\":22745:22747   */\n      0x40\n        /* \"#utility.yul\":22740:22743   */\n      dup3\n        /* \"#utility.yul\":22736:22748   */\n      add\n        /* \"#utility.yul\":22729:22748   */\n      swap1\n      pop\n        /* \"#utility.yul\":22388:22754   */\n      swap2\n      swap1\n      pop\n      jump\t// out\n        /* \"#utility.yul\":22760:23179   */\n    tag_182:\n        /* \"#utility.yul\":22926:22930   */\n      0x00\n        /* \"#utility.yul\":22964:22966   */\n      0x20\n        /* \"#utility.yul\":22953:22962   */\n      dup3\n        /* \"#utility.yul\":22949:22967   */\n      add\n        /* \"#utility.yul\":22941:22967   */\n      swap1\n      pop\n        /* \"#utility.yul\":23013:23022   */\n      dup2\n        /* \"#utility.yul\":23007:23011   */\n      dup2\n        /* \"#utility.yul\":23003:23023   */\n      sub\n        /* \"#utility.yul\":22999:23000   */\n      0x00\n        /* \"#utility.yul\":22988:22997   */\n      dup4\n        /* \"#utility.yul\":22984:23001   */\n      add\n        /* \"#utility.yul\":22977:23024   */\n      mstore\n        /* \"#utility.yul\":23041:23172   */\n      tag_574\n        /* \"#utility.yul\":23167:23171   */\n      dup2\n        /* \"#utility.yul\":23041:23172   */\n      tag_341\n      jump\t// in\n    tag_574:\n        /* \"#utility.yul\":23033:23172   */\n      swap1\n      pop\n        /* \"#utility.yul\":22760:23179   */\n      swap2\n      swap1\n      pop\n      jump\t// out\n        /* \"#utility.yul\":23185:23278   */\n    tag_342:\n        /* \"#utility.yul\":23222:23228   */\n      0x00\n        /* \"#utility.yul\":23269:23271   */\n      0x20\n        /* \"#utility.yul\":23264:23266   */\n      0x1f\n        /* \"#utility.yul\":23257:23262   */\n      dup4\n        /* \"#utility.yul\":23253:23267   */\n      add\n        /* \"#utility.yul\":23249:23272   */\n      div\n        /* \"#utility.yul\":23239:23272   */\n      swap1\n      pop\n        /* \"#utility.yul\":23185:23278   */\n      swap2\n      swap1\n      pop\n      jump\t// out\n        /* \"#utility.yul\":23284:23391   */\n    tag_343:\n        /* \"#utility.yul\":23328:23336   */\n      0x00\n        /* \"#utility.yul\":23378:23383   */\n      dup3\n        /* \"#utility.yul\":23372:23376   */\n      dup3\n        /* \"#utility.yul\":23368:23384   */\n      shl\n        /* \"#utility.yul\":23347:23384   */\n      swap1\n      pop\n        /* \"#utility.yul\":23284:23391   */\n      swap3\n      swap2\n      pop\n      pop\n      jump\t// out\n        /* \"#utility.yul\":23397:23790   */\n    tag_344:\n        /* \"#utility.yul\":23466:23472   */\n      0x00\n        /* \"#utility.yul\":23516:23517   */\n      0x08\n        /* \"#utility.yul\":23504:23514   */\n      dup4\n        /* \"#utility.yul\":23500:23518   */\n      mul\n        /* \"#utility.yul\":23539:23636   */\n      tag_578\n        /* \"#utility.yul\":23569:23635   */\n      0xffffffffffffffffffffffffffffffffffffffffffffffffffffffffffffffff\n        /* \"#utility.yul\":23558:23567   */\n      dup3\n        /* \"#utility.yul\":23539:23636   */\n      tag_343\n      jump\t// in\n    tag_578:\n        /* \"#utility.yul\":23657:23696   */\n      tag_579\n        /* \"#utility.yul\":23687:23695   */\n      dup7\n        /* \"#utility.yul\":23676:23685   */\n      dup4\n        /* \"#utility.yul\":23657:23696   */\n      tag_343\n      jump\t// in\n    tag_579:\n        /* \"#utility.yul\":23645:23696   */\n      swap6\n      pop\n        /* \"#utility.yul\":23729:23733   */\n      dup1\n        /* \"#utility.yul\":23725:23734   */\n      not\n        /* \"#utility.yul\":23718:23723   */\n      dup5\n        /* \"#utility.yul\":23714:23735   */\n      and\n        /* \"#utility.yul\":23705:23735   */\n      swap4\n      pop\n        /* \"#utility.yul\":23778:23782   */\n      dup1\n        /* \"#utility.yul\":23768:23776   */\n      dup7\n        /* \"#utility.yul\":23764:23783   */\n      and\n        /* \"#utility.yul\":23757:23762   */\n      dup5\n        /* \"#utility.yul\":23754:23784   */\n      or\n        /* \"#utility.yul\":23744:23784   */\n      swap3\n      pop\n        /* \"#utility.yul\":23473:23790   */\n      pop\n      pop\n        /* \"#utility.yul\":23397:23790   */\n      swap4\n      swap3\n      pop\n      pop\n      pop\n      jump\t// out\n        /* \"#utility.yul\":23796:23856   */\n    tag_345:\n        /* \"#utility.yul\":23824:23827   */\n      0x00\n        /* \"#utility.yul\":23845:23850   */\n      dup2\n        /* \"#utility.yul\":23838:23850   */\n      swap1\n      pop\n        /* \"#utility.yul\":23796:23856   */\n      swap2\n      swap1\n      pop\n      jump\t// out\n        /* \"#utility.yul\":23862:24004   */\n    tag_346:\n        /* \"#utility.yul\":23912:23921   */\n      0x00\n        /* \"#utility.yul\":23945:23998   */\n      tag_582\n        /* \"#utility.yul\":23963:23997   */\n      tag_583\n        /* \"#utility.yul\":23972:23996   */\n      tag_584\n        /* \"#utility.yul\":23990:23995   */\n      dup5\n        /* \"#utility.yul\":23972:23996   */\n      tag_289\n      jump\t// in\n    tag_584:\n        /* \"#utility.yul\":23963:23997   */\n      tag_345\n      jump\t// in\n    tag_583:\n        /* \"#utility.yul\":23945:23998   */\n      tag_289\n      jump\t// in\n    tag_582:\n        /* \"#utility.yul\":23932:23998   */\n      swap1\n      pop\n        /* \"#utility.yul\":23862:24004   */\n      swap2\n      swap1\n      pop\n      jump\t// out\n        /* \"#utility.yul\":24010:24085   */\n    tag_347:\n        /* \"#utility.yul\":24053:24056   */\n      0x00\n        /* \"#utility.yul\":24074:24079   */\n      dup2\n        /* \"#utility.yul\":24067:24079   */\n      swap1\n      pop\n        /* \"#utility.yul\":24010:24085   */\n      swap2\n      swap1\n      pop\n      jump\t// out\n        /* \"#utility.yul\":24091:24360   */\n    tag_348:\n        /* \"#utility.yul\":24201:24240   */\n      tag_587\n        /* \"#utility.yul\":24232:24239   */\n      dup4\n        /* \"#utility.yul\":24201:24240   */\n      tag_346\n      jump\t// in\n    tag_587:\n        /* \"#utility.yul\":24262:24353   */\n      tag_588\n        /* \"#utility.yul\":24311:24352   */\n      tag_589\n        /* \"#utility.yul\":24335:24351   */\n      dup3\n        /* \"#utility.yul\":24311:24352   */\n      tag_347\n      jump\t// in\n    tag_589:\n        /* \"#utility.yul\":24303:24309   */\n      dup5\n        /* \"#utility.yul\":24296:24300   */\n      dup5\n        /* \"#utility.yul\":24290:24301   */\n      sload\n        /* \"#utility.yul\":24262:24353   */\n      tag_344\n      jump\t// in\n    tag_588:\n        /* \"#utility.yul\":24256:24260   */\n      dup3\n        /* \"#utility.yul\":24249:24354   */\n      sstore\n        /* \"#utility.yul\":24167:24360   */\n      pop\n        /* \"#utility.yul\":24091:24360   */\n      pop\n      pop\n      pop\n      jump\t// out\n        /* \"#utility.yul\":24366:24439   */\n    tag_349:\n        /* \"#utility.yul\":24411:24414   */\n      0x00\n        /* \"#utility.yul\":24432:24433   */\n      0x00\n        /* \"#utility.yul\":24425:24433   */\n      swap1\n      pop\n        /* \"#utility.yul\":24366:24439   */\n      swap1\n      jump\t// out\n        /* \"#utility.yul\":24445:24634   */\n    tag_350:\n        /* \"#utility.yul\":24522:24554   */\n      tag_592\n      tag_349\n      jump\t// in\n    tag_592:\n        /* \"#utility.yul\":24563:24628   */\n      tag_593\n        /* \"#utility.yul\":24621:24627   */\n      dup2\n        /* \"#utility.yul\":24613:24619   */\n      dup5\n        /* \"#utility.yul\":24607:24611   */\n      dup5\n        /* \"#utility.yul\":24563:24628   */\n      tag_348\n      jump\t// in\n    tag_593:\n        /* \"#utility.yul\":24498:24634   */\n      pop\n        /* \"#utility.yul\":24445:24634   */\n      pop\n      pop\n      jump\t// out\n        /* \"#utility.yul\":24640:24826   */\n    tag_351:\n        /* \"#utility.yul\":24700:24820   */\n    tag_595:\n        /* \"#utility.yul\":24717:24720   */\n      dup2\n        /* \"#utility.yul\":24710:24715   */\n      dup2\n        /* \"#utility.yul\":24707:24721   */\n      lt\n        /* \"#utility.yul\":24700:24820   */\n      iszero\n      tag_597\n      jumpi\n        /* \"#utility.yul\":24771:24810   */\n      tag_598\n        /* \"#utility.yul\":24808:24809   */\n      0x00\n        /* \"#utility.yul\":24801:24806   */\n      dup3\n        /* \"#utility.yul\":24771:24810   */\n      tag_350\n      jump\t// in\n    tag_598:\n        /* \"#utility.yul\":24744:24745   */\n      0x01\n        /* \"#utility.yul\":24737:24742   */\n      dup2\n        /* \"#utility.yul\":24733:24746   */\n      add\n        /* \"#utility.yul\":24724:24746   */\n      swap1\n      pop\n        /* \"#utility.yul\":24700:24820   */\n      jump(tag_595)\n    tag_597:\n        /* \"#utility.yul\":24640:24826   */\n      pop\n      pop\n      jump\t// out\n        /* \"#utility.yul\":24832:25375   */\n    tag_352:\n        /* \"#utility.yul\":24933:24935   */\n      0x1f\n        /* \"#utility.yul\":24928:24931   */\n      dup3\n        /* \"#utility.yul\":24925:24936   */\n      gt\n        /* \"#utility.yul\":24922:25368   */\n      iszero\n      tag_600\n      jumpi\n        /* \"#utility.yul\":24967:25005   */\n      tag_601\n        /* \"#utility.yul\":24999:25004   */\n      dup2\n        /* \"#utility.yul\":24967:25005   */\n      tag_330\n      jump\t// in\n    tag_601:\n        /* \"#utility.yul\":25051:25080   */\n      tag_602\n        /* \"#utility.yul\":25069:25079   */\n      dup5\n        /* \"#utility.yul\":25051:25080   */\n      tag_342\n      jump\t// in\n    tag_602:\n        /* \"#utility.yul\":25041:25049   */\n      dup2\n        /* \"#utility.yul\":25037:25081   */\n      add\n        /* \"#utility.yul\":25234:25236   */\n      0x20\n        /* \"#utility.yul\":25222:25232   */\n      dup6\n        /* \"#utility.yul\":25219:25237   */\n      lt\n        /* \"#utility.yul\":25216:25265   */\n      iszero\n      tag_603\n      jumpi\n        /* \"#utility.yul\":25255:25263   */\n      dup2\n        /* \"#utility.yul\":25240:25263   */\n      swap1\n      pop\n        /* \"#utility.yul\":25216:25265   */\n    tag_603:\n        /* \"#utility.yul\":25278:25358   */\n      tag_604\n        /* \"#utility.yul\":25334:25356   */\n      tag_605\n        /* \"#utility.yul\":25352:25355   */\n      dup6\n        /* \"#utility.yul\":25334:25356   */\n      tag_342\n      jump\t// in\n    tag_605:\n        /* \"#utility.yul\":25324:25332   */\n      dup4\n        /* \"#utility.yul\":25320:25357   */\n      add\n        /* \"#utility.yul\":25307:25318   */\n      dup3\n        /* \"#utility.yul\":25278:25358   */\n      tag_351\n      jump\t// in\n    tag_604:\n        /* \"#utility.yul\":24937:25368   */\n      pop\n      pop\n        /* \"#utility.yul\":24922:25368   */\n    tag_600:\n        /* \"#utility.yul\":24832:25375   */\n      pop\n      pop\n      pop\n      jump\t// out\n        /* \"#utility.yul\":25381:25498   */\n    tag_353:\n        /* \"#utility.yul\":25435:25443   */\n      0x00\n        /* \"#utility.yul\":25485:25490   */\n      dup3\n        /* \"#utility.yul\":25479:25483   */\n      dup3\n        /* \"#utility.yul\":25475:25491   */\n      shr\n        /* \"#utility.yul\":25454:25491   */\n      swap1\n      pop\n        /* \"#utility.yul\":25381:25498   */\n      swap3\n      swap2\n      pop\n      pop\n      jump\t// out\n        /* \"#utility.yul\":25504:25673   */\n    tag_354:\n        /* \"#utility.yul\":25548:25554   */\n      0x00\n        /* \"#utility.yul\":25581:25632   */\n      tag_608\n        /* \"#utility.yul\":25629:25630   */\n      0x00\n        /* \"#utility.yul\":25625:25631   */\n      not\n        /* \"#utility.yul\":25617:25622   */\n      dup5\n        /* \"#utility.yul\":25614:25615   */\n      0x08\n        /* \"#utility.yul\":25610:25623   */\n      mul\n        /* \"#utility.yul\":25581:25632   */\n      tag_353\n      jump\t// in\n    tag_608:\n        /* \"#utility.yul\":25577:25633   */\n      not\n        /* \"#utility.yul\":25662:25666   */\n      dup1\n        /* \"#utility.yul\":25656:25660   */\n      dup4\n        /* \"#utility.yul\":25652:25667   */\n      and\n        /* \"#utility.yul\":25642:25667   */\n      swap2\n      pop\n        /* \"#utility.yul\":25555:25673   */\n      pop\n        /* \"#utility.yul\":25504:25673   */\n      swap3\n      swap2\n      pop\n      pop\n      jump\t// out\n        /* \"#utility.yul\":25678:25973   */\n    tag_355:\n        /* \"#utility.yul\":25754:25758   */\n      0x00\n        /* \"#utility.yul\":25900:25929   */\n      tag_610\n        /* \"#utility.yul\":25925:25928   */\n      dup4\n        /* \"#utility.yul\":25919:25923   */\n      dup4\n        /* \"#utility.yul\":25900:25929   */\n      tag_354\n      jump\t// in\n    tag_610:\n        /* \"#utility.yul\":25892:25929   */\n      swap2\n      pop\n        /* \"#utility.yul\":25962:25965   */\n      dup3\n        /* \"#utility.yul\":25959:25960   */\n      0x02\n        /* \"#utility.yul\":25955:25966   */\n      mul\n        /* \"#utility.yul\":25949:25953   */\n      dup3\n        /* \"#utility.yul\":25946:25967   */\n      or\n        /* \"#utility.yul\":25938:25967   */\n      swap1\n      pop\n        /* \"#utility.yul\":25678:25973   */\n      swap3\n      swap2\n      pop\n      pop\n      jump\t// out\n        /* \"#utility.yul\":25978:27373   */\n    tag_187:\n        /* \"#utility.yul\":26095:26132   */\n      tag_612\n        /* \"#utility.yul\":26128:26131   */\n      dup3\n        /* \"#utility.yul\":26095:26132   */\n      tag_295\n      jump\t// in\n    tag_612:\n        /* \"#utility.yul\":26197:26215   */\n      0xffffffffffffffff\n        /* \"#utility.yul\":26189:26195   */\n      dup2\n        /* \"#utility.yul\":26186:26216   */\n      gt\n        /* \"#utility.yul\":26183:26239   */\n      iszero\n      tag_613\n      jumpi\n        /* \"#utility.yul\":26219:26237   */\n      tag_614\n      tag_218\n      jump\t// in\n    tag_614:\n        /* \"#utility.yul\":26183:26239   */\n    tag_613:\n        /* \"#utility.yul\":26263:26301   */\n      tag_615\n        /* \"#utility.yul\":26295:26299   */\n      dup3\n        /* \"#utility.yul\":26289:26300   */\n      sload\n        /* \"#utility.yul\":26263:26301   */\n      tag_115\n      jump\t// in\n    tag_615:\n        /* \"#utility.yul\":26348:26415   */\n      tag_616\n        /* \"#utility.yul\":26408:26414   */\n      dup3\n        /* \"#utility.yul\":26400:26406   */\n      dup3\n        /* \"#utility.yul\":26394:26398   */\n      dup6\n        /* \"#utility.yul\":26348:26415   */\n      tag_352\n      jump\t// in\n    tag_616:\n        /* \"#utility.yul\":26442:26443   */\n      0x00\n        /* \"#utility.yul\":26466:26470   */\n      0x20\n        /* \"#utility.yul\":26453:26470   */\n      swap1\n      pop\n        /* \"#utility.yul\":26498:26500   */\n      0x1f\n        /* \"#utility.yul\":26490:26496   */\n      dup4\n        /* \"#utility.yul\":26487:26501   */\n      gt\n        /* \"#utility.yul\":26515:26516   */\n      0x01\n        /* \"#utility.yul\":26510:27128   */\n      dup2\n      eq\n      tag_618\n      jumpi\n        /* \"#utility.yul\":27172:27173   */\n      0x00\n        /* \"#utility.yul\":27189:27195   */\n      dup5\n        /* \"#utility.yul\":27186:27263   */\n      iszero\n      tag_619\n      jumpi\n        /* \"#utility.yul\":27238:27247   */\n      dup3\n        /* \"#utility.yul\":27233:27236   */\n      dup8\n        /* \"#utility.yul\":27229:27248   */\n      add\n        /* \"#utility.yul\":27223:27249   */\n      mload\n        /* \"#utility.yul\":27214:27249   */\n      swap1\n      pop\n        /* \"#utility.yul\":27186:27263   */\n    tag_619:\n        /* \"#utility.yul\":27289:27356   */\n      tag_620\n        /* \"#utility.yul\":27349:27355   */\n      dup6\n        /* \"#utility.yul\":27342:27347   */\n      dup3\n        /* \"#utility.yul\":27289:27356   */\n      tag_355\n      jump\t// in\n    tag_620:\n        /* \"#utility.yul\":27283:27287   */\n      dup7\n        /* \"#utility.yul\":27276:27357   */\n      sstore\n        /* \"#utility.yul\":27145:27367   */\n      pop\n        /* \"#utility.yul\":26480:27367   */\n      jump(tag_617)\n        /* \"#utility.yul\":26510:27128   */\n    tag_618:\n        /* \"#utility.yul\":26562:26566   */\n      0x1f\n        /* \"#utility.yul\":26558:26567   */\n      not\n        /* \"#utility.yul\":26550:26556   */\n      dup5\n        /* \"#utility.yul\":26546:26568   */\n      and\n        /* \"#utility.yul\":26596:26633   */\n      tag_621\n        /* \"#utility.yul\":26628:26632   */\n      dup7\n        /* \"#utility.yul\":26596:26633   */\n      tag_330\n      jump\t// in\n    tag_621:\n        /* \"#utility.yul\":26655:26656   */\n      0x00\n        /* \"#utility.yul\":26669:26877   */\n    tag_622:\n        /* \"#utility.yul\":26683:26690   */\n      dup3\n        /* \"#utility.yul\":26680:26681   */\n      dup2\n        /* \"#utility.yul\":26677:26691   */\n      lt\n        /* \"#utility.yul\":26669:26877   */\n      iszero\n      tag_624\n      jumpi\n        /* \"#utility.yul\":26762:26771   */\n      dup5\n        /* \"#utility.yul\":26757:26760   */\n      dup10\n        /* \"#utility.yul\":26753:26772   */\n      add\n        /* \"#utility.yul\":26747:26773   */\n      mload\n        /* \"#utility.yul\":26739:26745   */\n      dup3\n        /* \"#utility.yul\":26732:26774   */\n      sstore\n        /* \"#utility.yul\":26813:26814   */\n      0x01\n        /* \"#utility.yul\":26805:26811   */\n      dup3\n        /* \"#utility.yul\":26801:26815   */\n      add\n        /* \"#utility.yul\":26791:26815   */\n      swap2\n      pop\n        /* \"#utility.yul\":26860:26862   */\n      0x20\n        /* \"#utility.yul\":26849:26858   */\n      dup6\n        /* \"#utility.yul\":26845:26863   */\n      add\n        /* \"#utility.yul\":26832:26863   */\n      swap5\n      pop\n        /* \"#utility.yul\":26706:26710   */\n      0x20\n        /* \"#utility.yul\":26703:26704   */\n      dup2\n        /* \"#utility.yul\":26699:26711   */\n      add\n        /* \"#utility.yul\":26694:26711   */\n      swap1\n      pop\n        /* \"#utility.yul\":26669:26877   */\n      jump(tag_622)\n    tag_624:\n        /* \"#utility.yul\":26905:26911   */\n      dup7\n        /* \"#utility.yul\":26896:26903   */\n      dup4\n        /* \"#utility.yul\":26893:26912   */\n      lt\n        /* \"#utility.yul\":26890:27069   */\n      iszero\n      tag_625\n      jumpi\n        /* \"#utility.yul\":26963:26972   */\n      dup5\n        /* \"#utility.yul\":26958:26961   */\n      dup10\n        /* \"#utility.yul\":26954:26973   */\n      add\n        /* \"#utility.yul\":26948:26974   */\n      mload\n        /* \"#utility.yul\":27006:27054   */\n      tag_626\n        /* \"#utility.yul\":27048:27052   */\n      0x1f\n        /* \"#utility.yul\":27040:27046   */\n      dup10\n        /* \"#utility.yul\":27036:27053   */\n      and\n        /* \"#utility.yul\":27025:27034   */\n      dup3\n        /* \"#utility.yul\":27006:27054   */\n      tag_354\n      jump\t// in\n    tag_626:\n        /* \"#utility.yul\":26998:27004   */\n      dup4\n        /* \"#utility.yul\":26991:27055   */\n      sstore\n        /* \"#utility.yul\":26913:27069   */\n      pop\n        /* \"#utility.yul\":26890:27069   */\n    tag_625:\n        /* \"#utility.yul\":27115:27116   */\n      0x01\n        /* \"#utility.yul\":27111:27112   */\n      0x02\n        /* \"#utility.yul\":27103:27109   */\n      dup9\n        /* \"#utility.yul\":27099:27113   */\n      mul\n        /* \"#utility.yul\":27095:27117   */\n      add\n        /* \"#utility.yul\":27089:27093   */\n      dup9\n        /* \"#utility.yul\":27082:27118   */\n      sstore\n        /* \"#utility.yul\":26517:27128   */\n      pop\n      pop\n      pop\n        /* \"#utility.yul\":26480:27367   */\n    tag_617:\n      pop\n        /* \"#utility.yul\":26070:27373   */\n      pop\n      pop\n      pop\n        /* \"#utility.yul\":25978:27373   */\n      pop\n      pop\n      jump\t// out\n        /* \"#utility.yul\":27379:27612   */\n    tag_192:\n        /* \"#utility.yul\":27418:27421   */\n      0x00\n        /* \"#utility.yul\":27441:27465   */\n      tag_628\n        /* \"#utility.yul\":27459:27464   */\n      dup3\n        /* \"#utility.yul\":27441:27465   */\n      tag_289\n      jump\t// in\n    tag_628:\n        /* \"#utility.yul\":27432:27465   */\n      swap2\n      pop\n        /* \"#utility.yul\":27487:27553   */\n      0xffffffffffffffffffffffffffffffffffffffffffffffffffffffffffffffff\n        /* \"#utility.yul\":27480:27485   */\n      dup3\n        /* \"#utility.yul\":27477:27554   */\n      sub\n        /* \"#utility.yul\":27474:27577   */\n      tag_629\n      jumpi\n        /* \"#utility.yul\":27557:27575   */\n      tag_630\n      tag_334\n      jump\t// in\n    tag_630:\n        /* \"#utility.yul\":27474:27577   */\n    tag_629:\n        /* \"#utility.yul\":27604:27605   */\n      0x01\n        /* \"#utility.yul\":27597:27602   */\n      dup3\n        /* \"#utility.yul\":27593:27606   */\n      add\n        /* \"#utility.yul\":27586:27606   */\n      swap1\n      pop\n        /* \"#utility.yul\":27379:27612   */\n      swap2\n      swap1\n      pop\n      jump\t// out\n        /* \"#utility.yul\":27618:27855   */\n    tag_356:\n        /* \"#utility.yul\":27758:27792   */\n      0x4e6f20617661696c61626c65207469636b65747320666f722074686520737065\n        /* \"#utility.yul\":27754:27755   */\n      0x00\n        /* \"#utility.yul\":27746:27752   */\n      dup3\n        /* \"#utility.yul\":27742:27756   */\n      add\n        /* \"#utility.yul\":27735:27793   */\n      mstore\n        /* \"#utility.yul\":27827:27847   */\n      0x6369666965642064657374696e6174696f6e0000000000000000000000000000\n        /* \"#utility.yul\":27822:27824   */\n      0x20\n        /* \"#utility.yul\":27814:27820   */\n      dup3\n        /* \"#utility.yul\":27810:27825   */\n      add\n        /* \"#utility.yul\":27803:27848   */\n      mstore\n        /* \"#utility.yul\":27618:27855   */\n      pop\n      jump\t// out\n        /* \"#utility.yul\":27861:28227   */\n    tag_357:\n        /* \"#utility.yul\":28003:28006   */\n      0x00\n        /* \"#utility.yul\":28024:28091   */\n      tag_633\n        /* \"#utility.yul\":28088:28090   */\n      0x32\n        /* \"#utility.yul\":28083:28086   */\n      dup4\n        /* \"#utility.yul\":28024:28091   */\n      tag_296\n      jump\t// in\n    tag_633:\n        /* \"#utility.yul\":28017:28091   */\n      swap2\n      pop\n        /* \"#utility.yul\":28100:28193   */\n      tag_634\n        /* \"#utility.yul\":28189:28192   */\n      dup3\n        /* \"#utility.yul\":28100:28193   */\n      tag_356\n      jump\t// in\n    tag_634:\n        /* \"#utility.yul\":28218:28220   */\n      0x40\n        /* \"#utility.yul\":28213:28216   */\n      dup3\n        /* \"#utility.yul\":28209:28221   */\n      add\n        /* \"#utility.yul\":28202:28221   */\n      swap1\n      pop\n        /* \"#utility.yul\":27861:28227   */\n      swap2\n      swap1\n      pop\n      jump\t// out\n        /* \"#utility.yul\":28233:28652   */\n    tag_268:\n        /* \"#utility.yul\":28399:28403   */\n      0x00\n        /* \"#utility.yul\":28437:28439   */\n      0x20\n        /* \"#utility.yul\":28426:28435   */\n      dup3\n        /* \"#utility.yul\":28422:28440   */\n      add\n        /* \"#utility.yul\":28414:28440   */\n      swap1\n      pop\n        /* \"#utility.yul\":28486:28495   */\n      dup2\n        /* \"#utility.yul\":28480:28484   */\n      dup2\n        /* \"#utility.yul\":28476:28496   */\n      sub\n        /* \"#utility.yul\":28472:28473   */\n      0x00\n        /* \"#utility.yul\":28461:28470   */\n      dup4\n        /* \"#utility.yul\":28457:28474   */\n      add\n        /* \"#utility.yul\":28450:28497   */\n      mstore\n        /* \"#utility.yul\":28514:28645   */\n      tag_636\n        /* \"#utility.yul\":28640:28644   */\n      dup2\n        /* \"#utility.yul\":28514:28645   */\n      tag_357\n      jump\t// in\n    tag_636:\n        /* \"#utility.yul\":28506:28645   */\n      swap1\n      pop\n        /* \"#utility.yul\":28233:28652   */\n      swap2\n      swap1\n      pop\n      jump\t// out\n        /* \"#utility.yul\":28658:28829   */\n    tag_274:\n        /* \"#utility.yul\":28697:28700   */\n      0x00\n        /* \"#utility.yul\":28720:28744   */\n      tag_638\n        /* \"#utility.yul\":28738:28743   */\n      dup3\n        /* \"#utility.yul\":28720:28744   */\n      tag_289\n      jump\t// in\n    tag_638:\n        /* \"#utility.yul\":28711:28744   */\n      swap2\n      pop\n        /* \"#utility.yul\":28766:28770   */\n      0x00\n        /* \"#utility.yul\":28759:28764   */\n      dup3\n        /* \"#utility.yul\":28756:28771   */\n      sub\n        /* \"#utility.yul\":28753:28794   */\n      tag_639\n      jumpi\n        /* \"#utility.yul\":28774:28792   */\n      tag_640\n      tag_334\n      jump\t// in\n    tag_640:\n        /* \"#utility.yul\":28753:28794   */\n    tag_639:\n        /* \"#utility.yul\":28821:28822   */\n      0x01\n        /* \"#utility.yul\":28814:28819   */\n      dup3\n        /* \"#utility.yul\":28810:28823   */\n      sub\n        /* \"#utility.yul\":28803:28823   */\n      swap1\n      pop\n        /* \"#utility.yul\":28658:28829   */\n      swap2\n      swap1\n      pop\n      jump\t// out\n        /* \"#utility.yul\":28835:29026   */\n    tag_276:\n        /* \"#utility.yul\":28875:28878   */\n      0x00\n        /* \"#utility.yul\":28894:28914   */\n      tag_642\n        /* \"#utility.yul\":28912:28913   */\n      dup3\n        /* \"#utility.yul\":28894:28914   */\n      tag_289\n      jump\t// in\n    tag_642:\n        /* \"#utility.yul\":28889:28914   */\n      swap2\n      pop\n        /* \"#utility.yul\":28928:28948   */\n      tag_643\n        /* \"#utility.yul\":28946:28947   */\n      dup4\n        /* \"#utility.yul\":28928:28948   */\n      tag_289\n      jump\t// in\n    tag_643:\n        /* \"#utility.yul\":28923:28948   */\n      swap3\n      pop\n        /* \"#utility.yul\":28971:28972   */\n      dup3\n        /* \"#utility.yul\":28968:28969   */\n      dup3\n        /* \"#utility.yul\":28964:28973   */\n      add\n        /* \"#utility.yul\":28957:28973   */\n      swap1\n      pop\n        /* \"#utility.yul\":28992:28995   */\n      dup1\n        /* \"#utility.yul\":28989:28990   */\n      dup3\n        /* \"#utility.yul\":28986:28996   */\n      gt\n        /* \"#utility.yul\":28983:29019   */\n      iszero\n      tag_644\n      jumpi\n        /* \"#utility.yul\":28999:29017   */\n      tag_645\n      tag_334\n      jump\t// in\n    tag_645:\n        /* \"#utility.yul\":28983:29019   */\n    tag_644:\n        /* \"#utility.yul\":28835:29026   */\n      swap3\n      swap2\n      pop\n      pop\n      jump\t// out\n\n    auxdata: 0xa26469706673582212205f6ef018c02294bdc3d6aaa73fc1056a6f81113652baea10cdd0e94486a6224664736f6c634300081c0033\n}\n","bytecode":{"linkReferences":{},"object":"608060405234801561000f575f5ffd5b506040516130d83803806130d883398181016040528101906100319190610664565b335f5f6101000a81548173ffffffffffffffffffffffffffffffffffffffff021916908373ffffffffffffffffffffffffffffffffffffffff1602179055505f60155f6101000a81548160ff0219169083151502179055505f6016819055505f601481905550600182908060018154018082558091505060019003905f5260205f20015f9091909190915090816100c891906108c5565b50600281908060018154018082558091505060019003905f5260205f20015f90919091909150556003601e908060018154018082558091505060019003905f5260205f20015f909190919091505560145460048360405161012991906109ce565b90815260200160405180910390208190555061014c33838361030a60201b60201c565b600360055f600c8110610162576101616109e4565b5b0181905550600260056001600c811061017e5761017d6109e4565b5b0181905550600460056002600c811061019a576101996109e4565b5b01819055506005806003600c81106101b5576101b46109e4565b5b0181905550600360056004600c81106101d1576101d06109e4565b5b0181905550600c600580600c81106101ec576101eb6109e4565b5b0181905550600b60056006600c8110610208576102076109e4565b5b0181905550600c60056007600c8110610224576102236109e4565b5b0181905550600f60056008600c81106102405761023f6109e4565b5b0181905550600e60056009600c811061025c5761025b6109e4565b5b0181905550600b6005600a600c8110610278576102776109e4565b5b0181905550600d6005600b600c8110610294576102936109e4565b5b0181905550600160115f600381106102af576102ae6109e4565b5b0181905550600260116001600381106102cb576102ca6109e4565b5b0181905550600360116002600381106102e7576102e66109e4565b5b018190555060145f8154809291906102fe90610a3e565b91905055505050610a85565b5f5f9054906101000a900473ffffffffffffffffffffffffffffffffffffffff1673ffffffffffffffffffffffffffffffffffffffff163373ffffffffffffffffffffffffffffffffffffffff1614610361575f5ffd5b5f5f90505b601e8110156104de575f60185490506040518061010001604052808673ffffffffffffffffffffffffffffffffffffffff16815260200185815260200184815260200183815260200160405180602001604052805f81525081526020015f151581526020016001151581526020015f81525060175f8381526020019081526020015f205f820151815f015f6101000a81548173ffffffffffffffffffffffffffffffffffffffff021916908373ffffffffffffffffffffffffffffffffffffffff160217905550602082015181600101908161044291906108c5565b506040820151816002015560608201518160030155608082015181600401908161046c91906108c5565b5060a0820151816005015f6101000a81548160ff02191690831515021790555060c08201518160050160016101000a81548160ff02191690831515021790555060e0820151816006015590505060185f8154809291906104cb90610a3e565b9190505550508080600101915050610366565b50505050565b5f604051905090565b5f5ffd5b5f5ffd5b5f5ffd5b5f5ffd5b5f601f19601f8301169050919050565b7f4e487b71000000000000000000000000000000000000000000000000000000005f52604160045260245ffd5b610543826104fd565b810181811067ffffffffffffffff821117156105625761056161050d565b5b80604052505050565b5f6105746104e4565b9050610580828261053a565b919050565b5f67ffffffffffffffff82111561059f5761059e61050d565b5b6105a8826104fd565b9050602081019050919050565b8281835e5f83830152505050565b5f6105d56105d084610585565b61056b565b9050828152602081018484840111156105f1576105f06104f9565b5b6105fc8482856105b5565b509392505050565b5f82601f830112610618576106176104f5565b5b81516106288482602086016105c3565b91505092915050565b5f819050919050565b61064381610631565b811461064d575f5ffd5b50565b5f8151905061065e8161063a565b92915050565b5f5f6040838503121561067a576106796104ed565b5b5f83015167ffffffffffffffff811115610697576106966104f1565b5b6106a385828601610604565b92505060206106b485828601610650565b9150509250929050565b5f81519050919050565b7f4e487b71000000000000000000000000000000000000000000000000000000005f52602260045260245ffd5b5f600282049050600182168061070c57607f821691505b60208210810361071f5761071e6106c8565b5b50919050565b5f819050815f5260205f209050919050565b5f6020601f8301049050919050565b5f82821b905092915050565b5f600883026107817fffffffffffffffffffffffffffffffffffffffffffffffffffffffffffffffff82610746565b61078b8683610746565b95508019841693508086168417925050509392505050565b5f819050919050565b5f6107c66107c16107bc84610631565b6107a3565b610631565b9050919050565b5f819050919050565b6107df836107ac565b6107f36107eb826107cd565b848454610752565b825550505050565b5f5f905090565b61080a6107fb565b6108158184846107d6565b505050565b5b818110156108385761082d5f82610802565b60018101905061081b565b5050565b601f82111561087d5761084e81610725565b61085784610737565b81016020851015610866578190505b61087a61087285610737565b83018261081a565b50505b505050565b5f82821c905092915050565b5f61089d5f1984600802610882565b1980831691505092915050565b5f6108b5838361088e565b9150826002028217905092915050565b6108ce826106be565b67ffffffffffffffff8111156108e7576108e661050d565b5b6108f182546106f5565b6108fc82828561083c565b5f60209050601f83116001811461092d575f841561091b578287015190505b61092585826108aa565b86555061098c565b601f19841661093b86610725565b5f5b828110156109625784890151825560018201915060208501945060208101905061093d565b8683101561097f578489015161097b601f89168261088e565b8355505b6001600288020188555050505b505050505050565b5f81905092915050565b5f6109a8826106be565b6109b28185610994565b93506109c28185602086016105b5565b80840191505092915050565b5f6109d9828461099e565b915081905092915050565b7f4e487b71000000000000000000000000000000000000000000000000000000005f52603260045260245ffd5b7f4e487b71000000000000000000000000000000000000000000000000000000005f52601160045260245ffd5b5f610a4882610631565b91507fffffffffffffffffffffffffffffffffffffffffffffffffffffffffffffffff8203610a7a57610a79610a11565b5b600182019050919050565b61264680610a925f395ff3fe608060405260043610610108575f3560e01c8063695dc67e11610094578063ad03fe7011610063578063ad03fe70146103af578063c8705544146103eb578063cb2cc82a14610415578063ea6e358e14610451578063ff203bc01461046d57610108565b8063695dc67e146102f75780638dd4ba2e14610333578063908921fc1461036f578063aafc8d741461039957610108565b8063195c1445116100db578063195c1445146101f15780632427e59e1461022d5780633b33c702146102695780635e583e37146102a55780636031a52f146102cd57610108565b8063033fab351461010c57806306661abd1461014f57806307819bd6146101795780631165e6ab146101b5575b5f5ffd5b348015610117575f5ffd5b50610132600480360381019061012d919061172a565b610497565b60405161014698979695949392919061182d565b60405180910390f35b34801561015a575f5ffd5b5061016361061f565b60405161017091906118b7565b60405180910390f35b348015610184575f5ffd5b5061019f600480360381019061019a9190611a26565b610625565b6040516101ac91906118b7565b60405180910390f35b3480156101c0575f5ffd5b506101db60048036038101906101d69190611ad0565b6107db565b6040516101e89190611afb565b60405180910390f35b3480156101fc575f5ffd5b506102176004803603810190610212919061172a565b610873565b60405161022491906118b7565b60405180910390f35b348015610238575f5ffd5b50610253600480360381019061024e9190611b14565b610893565b60405161026091906118b7565b60405180910390f35b348015610274575f5ffd5b5061028f600480360381019061028a919061172a565b6108c0565b60405161029c91906118b7565b60405180910390f35b3480156102b0575f5ffd5b506102cb60048036038101906102c69190611b5b565b6108e0565b005b3480156102d8575f5ffd5b506102e1610b0b565b6040516102ee91906118b7565b60405180910390f35b348015610302575f5ffd5b5061031d6004803603810190610318919061172a565b610b11565b60405161032a91906118b7565b60405180910390f35b34801561033e575f5ffd5b506103596004803603810190610354919061172a565b610b2a565b6040516103669190611bb5565b60405180910390f35b34801561037a575f5ffd5b50610383610bd0565b6040516103909190611bd5565b60405180910390f35b3480156103a4575f5ffd5b506103ad610bf4565b005b3480156103ba575f5ffd5b506103d560048036038101906103d09190611ad0565b610ceb565b6040516103e29190611dd2565b60405180910390f35b3480156103f6575f5ffd5b506103ff6110d3565b60405161040c91906118b7565b60405180910390f35b348015610420575f5ffd5b5061043b6004803603810190610436919061172a565b6110d9565b60405161044891906118b7565b60405180910390f35b61046b60048036038101906104669190611a26565b6110f2565b005b348015610478575f5ffd5b506104816114a1565b60405161048e9190611afb565b60405180910390f35b6017602052805f5260405f205f91509050805f015f9054906101000a900473ffffffffffffffffffffffffffffffffffffffff16908060010180546104db90611e1f565b80601f016020809104026020016040519081016040528092919081815260200182805461050790611e1f565b80156105525780601f1061052957610100808354040283529160200191610552565b820191905f5260205f20905b81548152906001019060200180831161053557829003601f168201915b50505050509080600201549080600301549080600401805461057390611e1f565b80601f016020809104026020016040519081016040528092919081815260200182805461059f90611e1f565b80156105ea5780601f106105c1576101008083540402835291602001916105ea565b820191905f5260205f20905b8154815290600101906020018083116105cd57829003601f168201915b505050505090806005015f9054906101000a900460ff16908060050160019054906101000a900460ff16908060060154905088565b60145481565b5f846040516020016106379190611e89565b60405160208183030381529060405280519060200120600160048760405161065f9190611e89565b9081526020016040518091039020548154811061067f5761067e611e9f565b5b905f5260205f20016040516020016106979190611f5e565b60405160208183030381529060405280519060200120146106ed576040517f08c379a00000000000000000000000000000000000000000000000000000000081526004016106e490611fe4565b60405180910390fd5b5f60116001856106fd919061202f565b6003811061070e5761070d611e9f565b5b015490505f6005600187610722919061202f565b600c811061073357610732611e9f565b5b015490505f82600260048a60405161074b9190611e89565b9081526020016040518091039020548154811061076b5761076a611e9f565b5b905f5260205f20015461077e9190612062565b90508415610796576002816107939190612062565b90505b81600a11156107b55781816107ab91906120d0565b93505050506107d3565b600a826107c2919061202f565b816107cd9190612062565b93505050505b949350505050565b5f5f5f9054906101000a900473ffffffffffffffffffffffffffffffffffffffff1673ffffffffffffffffffffffffffffffffffffffff168273ffffffffffffffffffffffffffffffffffffffff161461086a576040517f08c379a00000000000000000000000000000000000000000000000000000000081526004016108619061214a565b60405180910390fd5b60019050919050565b60028181548110610882575f80fd5b905f5260205f20015f915090505481565b6004818051602081018201805184825260208301602085012081835280955050505050505f915090505481565b600381815481106108cf575f80fd5b905f5260205f20015f915090505481565b5f5f9054906101000a900473ffffffffffffffffffffffffffffffffffffffff1673ffffffffffffffffffffffffffffffffffffffff163373ffffffffffffffffffffffffffffffffffffffff1614610937575f5ffd5b816040516020016109489190611e89565b6040516020818303038152906040528051906020012060016004846040516109709190611e89565b908152602001604051809103902054815481106109905761098f611e9f565b5b905f5260205f20016040516020016109a89190611f5e565b60405160208183030381529060405280519060200120036109fe576040517f08c379a00000000000000000000000000000000000000000000000000000000081526004016109f5906121d8565b60405180910390fd5b601e8111610a41576040517f08c379a0000000000000000000000000000000000000000000000000000000008152600401610a3890612266565b60405180910390fd5b610a4c3383836114b3565b600182908060018154018082558091505060019003905f5260205f20015f909190919091509081610a7d9190612412565b50600281908060018154018082558091505060019003905f5260205f20015f9091909190915055601454600483604051610ab79190611e89565b9081526020016040518091039020819055506003601e908060018154018082558091505060019003905f5260205f20015f909190919091505560145f815480929190610b02906124e1565b91905055505050565b60185481565b60118160038110610b20575f80fd5b015f915090505481565b60018181548110610b39575f80fd5b905f5260205f20015f915090508054610b5190611e1f565b80601f0160208091040260200160405190810160405280929190818152602001828054610b7d90611e1f565b8015610bc85780601f10610b9f57610100808354040283529160200191610bc8565b820191905f5260205f20905b815481529060010190602001808311610bab57829003601f168201915b505050505081565b5f5f9054906101000a900473ffffffffffffffffffffffffffffffffffffffff1681565b5f5f9054906101000a900473ffffffffffffffffffffffffffffffffffffffff1673ffffffffffffffffffffffffffffffffffffffff163373ffffffffffffffffffffffffffffffffffffffff1614610c4b575f5ffd5b5f5f9054906101000a900473ffffffffffffffffffffffffffffffffffffffff1673ffffffffffffffffffffffffffffffffffffffff166108fc600a6009601654610c969190612062565b610ca091906120d0565b90811502906040515f60405180830381858888f19350505050158015610cc8573d5f5f3e3d5ffd5b505f60155f6101000a81548160ff0219169083151502179055505f601681905550565b60605f5f90505f5f90505b601854811015610dad578373ffffffffffffffffffffffffffffffffffffffff1660175f8381526020019081526020015f205f015f9054906101000a900473ffffffffffffffffffffffffffffffffffffffff1673ffffffffffffffffffffffffffffffffffffffff16148015610d8c575060175f8281526020019081526020015f2060050160019054906101000a900460ff16155b15610da0578180610d9c906124e1565b9250505b8080600101915050610cf6565b505f8167ffffffffffffffff811115610dc957610dc86118d8565b5b604051908082528060200260200182016040528015610e0257816020015b610def61168d565b815260200190600190039081610de75790505b5090505f5f90505f5f90505b6018548110156110c7578573ffffffffffffffffffffffffffffffffffffffff1660175f8381526020019081526020015f205f015f9054906101000a900473ffffffffffffffffffffffffffffffffffffffff1673ffffffffffffffffffffffffffffffffffffffff16148015610ea4575060175f8281526020019081526020015f2060050160019054906101000a900460ff16155b156110ba5760175f8281526020019081526020015f20604051806101000160405290815f82015f9054906101000a900473ffffffffffffffffffffffffffffffffffffffff1673ffffffffffffffffffffffffffffffffffffffff1673ffffffffffffffffffffffffffffffffffffffff168152602001600182018054610f2a90611e1f565b80601f0160208091040260200160405190810160405280929190818152602001828054610f5690611e1f565b8015610fa15780601f10610f7857610100808354040283529160200191610fa1565b820191905f5260205f20905b815481529060010190602001808311610f8457829003601f168201915b505050505081526020016002820154815260200160038201548152602001600482018054610fce90611e1f565b80601f0160208091040260200160405190810160405280929190818152602001828054610ffa90611e1f565b80156110455780601f1061101c57610100808354040283529160200191611045565b820191905f5260205f20905b81548152906001019060200180831161102857829003601f168201915b50505050508152602001600582015f9054906101000a900460ff161515151581526020016005820160019054906101000a900460ff161515151581526020016006820154815250508383815181106110a05761109f611e9f565b5b602002602001018190525081806110b6906124e1565b9250505b8080600101915050610e0e565b50819350505050919050565b60165481565b600581600c81106110e8575f80fd5b015f915090505481565b6110fe84848484610625565b3414611108575f5ffd5b836040516020016111199190611e89565b6040516020818303038152906040528051906020012060016004866040516111419190611e89565b9081526020016040518091039020548154811061116157611160611e9f565b5b905f5260205f20016040516020016111799190611f5e565b60405160208183030381529060405280519060200120146111cf576040517f08c379a00000000000000000000000000000000000000000000000000000000081526004016111c690611fe4565b60405180910390fd5b5f5f90505f5f90505b6018548110156113d8575f60175f8381526020019081526020015f209050866040516020016112079190611e89565b60405160208183030381529060405280519060200120816001016040516020016112319190611f5e565b6040516020818303038152906040528051906020012014801561126257508060050160019054906101000a900460ff165b156113ca5733815f015f6101000a81548173ffffffffffffffffffffffffffffffffffffffff021916908373ffffffffffffffffffffffffffffffffffffffff1602179055506001851461132f57600285146112f3576040518060400160405280600581526020017f466972737400000000000000000000000000000000000000000000000000000081525061132a565b6040518060400160405280600881526020017f427573696e6573730000000000000000000000000000000000000000000000008152505b611366565b6040518060400160405280600781526020017f45636f6e6f6d79000000000000000000000000000000000000000000000000008152505b8160040190816113769190612412565b5083816005015f6101000a81548160ff0219169083151502179055505f8160050160016101000a81548160ff02191690831515021790555085816006018190555034816002018190555060019250506113d8565b5080806001019150506111d8565b5080611419576040517f08c379a000000000000000000000000000000000000000000000000000000000815260040161141090612598565b60405180910390fd5b600360048660405161142b9190611e89565b9081526020016040518091039020548154811061144b5761144a611e9f565b5b905f5260205f20015f815480929190611463906125b6565b91905055503460165f82825461147991906125dd565b92505081905550600160155f6101000a81548160ff0219169083151502179055505050505050565b60155f9054906101000a900460ff1681565b5f5f9054906101000a900473ffffffffffffffffffffffffffffffffffffffff1673ffffffffffffffffffffffffffffffffffffffff163373ffffffffffffffffffffffffffffffffffffffff161461150a575f5ffd5b5f5f90505b601e811015611687575f60185490506040518061010001604052808673ffffffffffffffffffffffffffffffffffffffff16815260200185815260200184815260200183815260200160405180602001604052805f81525081526020015f151581526020016001151581526020015f81525060175f8381526020019081526020015f205f820151815f015f6101000a81548173ffffffffffffffffffffffffffffffffffffffff021916908373ffffffffffffffffffffffffffffffffffffffff16021790555060208201518160010190816115eb9190612412565b50604082015181600201556060820151816003015560808201518160040190816116159190612412565b5060a0820151816005015f6101000a81548160ff02191690831515021790555060c08201518160050160016101000a81548160ff02191690831515021790555060e0820151816006015590505060185f815480929190611674906124e1565b919050555050808060010191505061150f565b50505050565b6040518061010001604052805f73ffffffffffffffffffffffffffffffffffffffff168152602001606081526020015f81526020015f8152602001606081526020015f151581526020015f151581526020015f81525090565b5f604051905090565b5f5ffd5b5f5ffd5b5f819050919050565b611709816116f7565b8114611713575f5ffd5b50565b5f8135905061172481611700565b92915050565b5f6020828403121561173f5761173e6116ef565b5b5f61174c84828501611716565b91505092915050565b5f73ffffffffffffffffffffffffffffffffffffffff82169050919050565b5f61177e82611755565b9050919050565b61178e81611774565b82525050565b5f81519050919050565b5f82825260208201905092915050565b8281835e5f83830152505050565b5f601f19601f8301169050919050565b5f6117d682611794565b6117e0818561179e565b93506117f08185602086016117ae565b6117f9816117bc565b840191505092915050565b61180d816116f7565b82525050565b5f8115159050919050565b61182781611813565b82525050565b5f610100820190506118415f83018b611785565b8181036020830152611853818a6117cc565b90506118626040830189611804565b61186f6060830188611804565b818103608083015261188181876117cc565b905061189060a083018661181e565b61189d60c083018561181e565b6118aa60e0830184611804565b9998505050505050505050565b5f6020820190506118ca5f830184611804565b92915050565b5f5ffd5b5f5ffd5b7f4e487b71000000000000000000000000000000000000000000000000000000005f52604160045260245ffd5b61190e826117bc565b810181811067ffffffffffffffff8211171561192d5761192c6118d8565b5b80604052505050565b5f61193f6116e6565b905061194b8282611905565b919050565b5f67ffffffffffffffff82111561196a576119696118d8565b5b611973826117bc565b9050602081019050919050565b828183375f83830152505050565b5f6119a061199b84611950565b611936565b9050828152602081018484840111156119bc576119bb6118d4565b5b6119c7848285611980565b509392505050565b5f82601f8301126119e3576119e26118d0565b5b81356119f384826020860161198e565b91505092915050565b611a0581611813565b8114611a0f575f5ffd5b50565b5f81359050611a20816119fc565b92915050565b5f5f5f5f60808587031215611a3e57611a3d6116ef565b5b5f85013567ffffffffffffffff811115611a5b57611a5a6116f3565b5b611a67878288016119cf565b9450506020611a7887828801611716565b9350506040611a8987828801611716565b9250506060611a9a87828801611a12565b91505092959194509250565b611aaf81611774565b8114611ab9575f5ffd5b50565b5f81359050611aca81611aa6565b92915050565b5f60208284031215611ae557611ae46116ef565b5b5f611af284828501611abc565b91505092915050565b5f602082019050611b0e5f83018461181e565b92915050565b5f60208284031215611b2957611b286116ef565b5b5f82013567ffffffffffffffff811115611b4657611b456116f3565b5b611b52848285016119cf565b91505092915050565b5f5f60408385031215611b7157611b706116ef565b5b5f83013567ffffffffffffffff811115611b8e57611b8d6116f3565b5b611b9a858286016119cf565b9250506020611bab85828601611716565b9150509250929050565b5f6020820190508181035f830152611bcd81846117cc565b905092915050565b5f602082019050611be85f830184611785565b92915050565b5f81519050919050565b5f82825260208201905092915050565b5f819050602082019050919050565b611c2081611774565b82525050565b5f82825260208201905092915050565b5f611c4082611794565b611c4a8185611c26565b9350611c5a8185602086016117ae565b611c63816117bc565b840191505092915050565b611c77816116f7565b82525050565b611c8681611813565b82525050565b5f61010083015f830151611ca25f860182611c17565b5060208301518482036020860152611cba8282611c36565b9150506040830151611ccf6040860182611c6e565b506060830151611ce26060860182611c6e565b5060808301518482036080860152611cfa8282611c36565b91505060a0830151611d0f60a0860182611c7d565b5060c0830151611d2260c0860182611c7d565b5060e0830151611d3560e0860182611c6e565b508091505092915050565b5f611d4b8383611c8c565b905092915050565b5f602082019050919050565b5f611d6982611bee565b611d738185611bf8565b935083602082028501611d8585611c08565b805f5b85811015611dc05784840389528151611da18582611d40565b9450611dac83611d53565b925060208a01995050600181019050611d88565b50829750879550505050505092915050565b5f6020820190508181035f830152611dea8184611d5f565b905092915050565b7f4e487b71000000000000000000000000000000000000000000000000000000005f52602260045260245ffd5b5f6002820490506001821680611e3657607f821691505b602082108103611e4957611e48611df2565b5b50919050565b5f81905092915050565b5f611e6382611794565b611e6d8185611e4f565b9350611e7d8185602086016117ae565b80840191505092915050565b5f611e948284611e59565b915081905092915050565b7f4e487b71000000000000000000000000000000000000000000000000000000005f52603260045260245ffd5b5f819050815f5260205f209050919050565b5f8154611eea81611e1f565b611ef48186611e4f565b9450600182165f8114611f0e5760018114611f2357611f55565b60ff1983168652811515820286019350611f55565b611f2c85611ecc565b5f5b83811015611f4d57815481890152600182019150602081019050611f2e565b838801955050505b50505092915050565b5f611f698284611ede565b915081905092915050565b7f4572726f723a20546869732064657374696e6174696f6e20646f65736e2774205f8201527f6578697374210000000000000000000000000000000000000000000000000000602082015250565b5f611fce60268361179e565b9150611fd982611f74565b604082019050919050565b5f6020820190508181035f830152611ffb81611fc2565b9050919050565b7f4e487b71000000000000000000000000000000000000000000000000000000005f52601160045260245ffd5b5f612039826116f7565b9150612044836116f7565b925082820390508181111561205c5761205b612002565b5b92915050565b5f61206c826116f7565b9150612077836116f7565b9250828202612085816116f7565b9150828204841483151761209c5761209b612002565b5b5092915050565b7f4e487b71000000000000000000000000000000000000000000000000000000005f52601260045260245ffd5b5f6120da826116f7565b91506120e5836116f7565b9250826120f5576120f46120a3565b5b828204905092915050565b7f596f7520617265206e6f74207468652043454f210000000000000000000000005f82015250565b5f61213460148361179e565b915061213f82612100565b602082019050919050565b5f6020820190508181035f83015261216181612128565b9050919050565b7f4572726f723a20546869732064657374696e6174696f6e20616c7265616479205f8201527f6578697374732100000000000000000000000000000000000000000000000000602082015250565b5f6121c260278361179e565b91506121cd82612168565b604082019050919050565b5f6020820190508181035f8301526121ef816121b6565b9050919050565b7f4572726f723a20426173652070726963652063616e6e6f742062652062656c6f5f8201527f7720333020576569210000000000000000000000000000000000000000000000602082015250565b5f61225060298361179e565b915061225b826121f6565b604082019050919050565b5f6020820190508181035f83015261227d81612244565b9050919050565b5f6020601f8301049050919050565b5f82821b905092915050565b5f600883026122ce7fffffffffffffffffffffffffffffffffffffffffffffffffffffffffffffffff82612293565b6122d88683612293565b95508019841693508086168417925050509392505050565b5f819050919050565b5f61231361230e612309846116f7565b6122f0565b6116f7565b9050919050565b5f819050919050565b61232c836122f9565b6123406123388261231a565b84845461229f565b825550505050565b5f5f905090565b612357612348565b612362818484612323565b505050565b5b818110156123855761237a5f8261234f565b600181019050612368565b5050565b601f8211156123ca5761239b81611ecc565b6123a484612284565b810160208510156123b3578190505b6123c76123bf85612284565b830182612367565b50505b505050565b5f82821c905092915050565b5f6123ea5f19846008026123cf565b1980831691505092915050565b5f61240283836123db565b9150826002028217905092915050565b61241b82611794565b67ffffffffffffffff811115612434576124336118d8565b5b61243e8254611e1f565b612449828285612389565b5f60209050601f83116001811461247a575f8415612468578287015190505b61247285826123f7565b8655506124d9565b601f19841661248886611ecc565b5f5b828110156124af5784890151825560018201915060208501945060208101905061248a565b868310156124cc57848901516124c8601f8916826123db565b8355505b6001600288020188555050505b505050505050565b5f6124eb826116f7565b91507fffffffffffffffffffffffffffffffffffffffffffffffffffffffffffffffff820361251d5761251c612002565b5b600182019050919050565b7f4e6f20617661696c61626c65207469636b65747320666f7220746865207370655f8201527f6369666965642064657374696e6174696f6e0000000000000000000000000000602082015250565b5f61258260328361179e565b915061258d82612528565b604082019050919050565b5f6020820190508181035f8301526125af81612576565b9050919050565b5f6125c0826116f7565b91505f82036125d2576125d1612002565b5b600182039050919050565b5f6125e7826116f7565b91506125f2836116f7565b925082820190508082111561260a57612609612002565b5b9291505056fea26469706673582212205f6ef018c02294bdc3d6aaa73fc1056a6f81113652baea10cdd0e94486a6224664736f6c634300081c0033","opcodes":"PUSH1 0x80 PUSH1 0x40 MSTORE CALLVALUE DUP1 ISZERO PUSH2 0xF JUMPI PUSH0 PUSH0 REVERT JUMPDEST POP PUSH1 0x40 MLOAD PUSH2 0x30D8 CODESIZE SUB DUP1 PUSH2 0x30D8 DUP4 CODECOPY DUP2 DUP2 ADD PUSH1 0x40 MSTORE DUP2 ADD SWAP1 PUSH2 0x31 SWAP2 SWAP1 PUSH2 0x664 JUMP JUMPDEST CALLER PUSH0 PUSH0 PUSH2 0x100 EXP DUP2 SLOAD DUP2 PUSH20 0xFFFFFFFFFFFFFFFFFFFFFFFFFFFFFFFFFFFFFFFF MUL NOT AND SWAP1 DUP4 PUSH20 0xFFFFFFFFFFFFFFFFFFFFFFFFFFFFFFFFFFFFFFFF AND MUL OR SWAP1 SSTORE POP PUSH0 PUSH1 0x15 PUSH0 PUSH2 0x100 EXP DUP2 SLOAD DUP2 PUSH1 0xFF MUL NOT AND SWAP1 DUP4 ISZERO ISZERO MUL OR SWAP1 SSTORE POP PUSH0 PUSH1 0x16 DUP2 SWAP1 SSTORE POP PUSH0 PUSH1 0x14 DUP2 SWAP1 SSTORE POP PUSH1 0x1 DUP3 SWAP1 DUP1 PUSH1 0x1 DUP2 SLOAD ADD DUP1 DUP3 SSTORE DUP1 SWAP2 POP POP PUSH1 0x1 SWAP1 SUB SWAP1 PUSH0 MSTORE PUSH1 0x20 PUSH0 KECCAK256 ADD PUSH0 SWAP1 SWAP2 SWAP1 SWAP2 SWAP1 SWAP2 POP SWAP1 DUP2 PUSH2 0xC8 SWAP2 SWAP1 PUSH2 0x8C5 JUMP JUMPDEST POP PUSH1 0x2 DUP2 SWAP1 DUP1 PUSH1 0x1 DUP2 SLOAD ADD DUP1 DUP3 SSTORE DUP1 SWAP2 POP POP PUSH1 0x1 SWAP1 SUB SWAP1 PUSH0 MSTORE PUSH1 0x20 PUSH0 KECCAK256 ADD PUSH0 SWAP1 SWAP2 SWAP1 SWAP2 SWAP1 SWAP2 POP SSTORE PUSH1 0x3 PUSH1 0x1E SWAP1 DUP1 PUSH1 0x1 DUP2 SLOAD ADD DUP1 DUP3 SSTORE DUP1 SWAP2 POP POP PUSH1 0x1 SWAP1 SUB SWAP1 PUSH0 MSTORE PUSH1 0x20 PUSH0 KECCAK256 ADD PUSH0 SWAP1 SWAP2 SWAP1 SWAP2 SWAP1 SWAP2 POP SSTORE PUSH1 0x14 SLOAD PUSH1 0x4 DUP4 PUSH1 0x40 MLOAD PUSH2 0x129 SWAP2 SWAP1 PUSH2 0x9CE JUMP JUMPDEST SWAP1 DUP2 MSTORE PUSH1 0x20 ADD PUSH1 0x40 MLOAD DUP1 SWAP2 SUB SWAP1 KECCAK256 DUP2 SWAP1 SSTORE POP PUSH2 0x14C CALLER DUP4 DUP4 PUSH2 0x30A PUSH1 0x20 SHL PUSH1 0x20 SHR JUMP JUMPDEST PUSH1 0x3 PUSH1 0x5 PUSH0 PUSH1 0xC DUP2 LT PUSH2 0x162 JUMPI PUSH2 0x161 PUSH2 0x9E4 JUMP JUMPDEST JUMPDEST ADD DUP2 SWAP1 SSTORE POP PUSH1 0x2 PUSH1 0x5 PUSH1 0x1 PUSH1 0xC DUP2 LT PUSH2 0x17E JUMPI PUSH2 0x17D PUSH2 0x9E4 JUMP JUMPDEST JUMPDEST ADD DUP2 SWAP1 SSTORE POP PUSH1 0x4 PUSH1 0x5 PUSH1 0x2 PUSH1 0xC DUP2 LT PUSH2 0x19A JUMPI PUSH2 0x199 PUSH2 0x9E4 JUMP JUMPDEST JUMPDEST ADD DUP2 SWAP1 SSTORE POP PUSH1 0x5 DUP1 PUSH1 0x3 PUSH1 0xC DUP2 LT PUSH2 0x1B5 JUMPI PUSH2 0x1B4 PUSH2 0x9E4 JUMP JUMPDEST JUMPDEST ADD DUP2 SWAP1 SSTORE POP PUSH1 0x3 PUSH1 0x5 PUSH1 0x4 PUSH1 0xC DUP2 LT PUSH2 0x1D1 JUMPI PUSH2 0x1D0 PUSH2 0x9E4 JUMP JUMPDEST JUMPDEST ADD DUP2 SWAP1 SSTORE POP PUSH1 0xC PUSH1 0x5 DUP1 PUSH1 0xC DUP2 LT PUSH2 0x1EC JUMPI PUSH2 0x1EB PUSH2 0x9E4 JUMP JUMPDEST JUMPDEST ADD DUP2 SWAP1 SSTORE POP PUSH1 0xB PUSH1 0x5 PUSH1 0x6 PUSH1 0xC DUP2 LT PUSH2 0x208 JUMPI PUSH2 0x207 PUSH2 0x9E4 JUMP JUMPDEST JUMPDEST ADD DUP2 SWAP1 SSTORE POP PUSH1 0xC PUSH1 0x5 PUSH1 0x7 PUSH1 0xC DUP2 LT PUSH2 0x224 JUMPI PUSH2 0x223 PUSH2 0x9E4 JUMP JUMPDEST JUMPDEST ADD DUP2 SWAP1 SSTORE POP PUSH1 0xF PUSH1 0x5 PUSH1 0x8 PUSH1 0xC DUP2 LT PUSH2 0x240 JUMPI PUSH2 0x23F PUSH2 0x9E4 JUMP JUMPDEST JUMPDEST ADD DUP2 SWAP1 SSTORE POP PUSH1 0xE PUSH1 0x5 PUSH1 0x9 PUSH1 0xC DUP2 LT PUSH2 0x25C JUMPI PUSH2 0x25B PUSH2 0x9E4 JUMP JUMPDEST JUMPDEST ADD DUP2 SWAP1 SSTORE POP PUSH1 0xB PUSH1 0x5 PUSH1 0xA PUSH1 0xC DUP2 LT PUSH2 0x278 JUMPI PUSH2 0x277 PUSH2 0x9E4 JUMP JUMPDEST JUMPDEST ADD DUP2 SWAP1 SSTORE POP PUSH1 0xD PUSH1 0x5 PUSH1 0xB PUSH1 0xC DUP2 LT PUSH2 0x294 JUMPI PUSH2 0x293 PUSH2 0x9E4 JUMP JUMPDEST JUMPDEST ADD DUP2 SWAP1 SSTORE POP PUSH1 0x1 PUSH1 0x11 PUSH0 PUSH1 0x3 DUP2 LT PUSH2 0x2AF JUMPI PUSH2 0x2AE PUSH2 0x9E4 JUMP JUMPDEST JUMPDEST ADD DUP2 SWAP1 SSTORE POP PUSH1 0x2 PUSH1 0x11 PUSH1 0x1 PUSH1 0x3 DUP2 LT PUSH2 0x2CB JUMPI PUSH2 0x2CA PUSH2 0x9E4 JUMP JUMPDEST JUMPDEST ADD DUP2 SWAP1 SSTORE POP PUSH1 0x3 PUSH1 0x11 PUSH1 0x2 PUSH1 0x3 DUP2 LT PUSH2 0x2E7 JUMPI PUSH2 0x2E6 PUSH2 0x9E4 JUMP JUMPDEST JUMPDEST ADD DUP2 SWAP1 SSTORE POP PUSH1 0x14 PUSH0 DUP2 SLOAD DUP1 SWAP3 SWAP2 SWAP1 PUSH2 0x2FE SWAP1 PUSH2 0xA3E JUMP JUMPDEST SWAP2 SWAP1 POP SSTORE POP POP POP PUSH2 0xA85 JUMP JUMPDEST PUSH0 PUSH0 SWAP1 SLOAD SWAP1 PUSH2 0x100 EXP SWAP1 DIV PUSH20 0xFFFFFFFFFFFFFFFFFFFFFFFFFFFFFFFFFFFFFFFF AND PUSH20 0xFFFFFFFFFFFFFFFFFFFFFFFFFFFFFFFFFFFFFFFF AND CALLER PUSH20 0xFFFFFFFFFFFFFFFFFFFFFFFFFFFFFFFFFFFFFFFF AND EQ PUSH2 0x361 JUMPI PUSH0 PUSH0 REVERT JUMPDEST PUSH0 PUSH0 SWAP1 POP JUMPDEST PUSH1 0x1E DUP2 LT ISZERO PUSH2 0x4DE JUMPI PUSH0 PUSH1 0x18 SLOAD SWAP1 POP PUSH1 0x40 MLOAD DUP1 PUSH2 0x100 ADD PUSH1 0x40 MSTORE DUP1 DUP7 PUSH20 0xFFFFFFFFFFFFFFFFFFFFFFFFFFFFFFFFFFFFFFFF AND DUP2 MSTORE PUSH1 0x20 ADD DUP6 DUP2 MSTORE PUSH1 0x20 ADD DUP5 DUP2 MSTORE PUSH1 0x20 ADD DUP4 DUP2 MSTORE PUSH1 0x20 ADD PUSH1 0x40 MLOAD DUP1 PUSH1 0x20 ADD PUSH1 0x40 MSTORE DUP1 PUSH0 DUP2 MSTORE POP DUP2 MSTORE PUSH1 0x20 ADD PUSH0 ISZERO ISZERO DUP2 MSTORE PUSH1 0x20 ADD PUSH1 0x1 ISZERO ISZERO DUP2 MSTORE PUSH1 0x20 ADD PUSH0 DUP2 MSTORE POP PUSH1 0x17 PUSH0 DUP4 DUP2 MSTORE PUSH1 0x20 ADD SWAP1 DUP2 MSTORE PUSH1 0x20 ADD PUSH0 KECCAK256 PUSH0 DUP3 ADD MLOAD DUP2 PUSH0 ADD PUSH0 PUSH2 0x100 EXP DUP2 SLOAD DUP2 PUSH20 0xFFFFFFFFFFFFFFFFFFFFFFFFFFFFFFFFFFFFFFFF MUL NOT AND SWAP1 DUP4 PUSH20 0xFFFFFFFFFFFFFFFFFFFFFFFFFFFFFFFFFFFFFFFF AND MUL OR SWAP1 SSTORE POP PUSH1 0x20 DUP3 ADD MLOAD DUP2 PUSH1 0x1 ADD SWAP1 DUP2 PUSH2 0x442 SWAP2 SWAP1 PUSH2 0x8C5 JUMP JUMPDEST POP PUSH1 0x40 DUP3 ADD MLOAD DUP2 PUSH1 0x2 ADD SSTORE PUSH1 0x60 DUP3 ADD MLOAD DUP2 PUSH1 0x3 ADD SSTORE PUSH1 0x80 DUP3 ADD MLOAD DUP2 PUSH1 0x4 ADD SWAP1 DUP2 PUSH2 0x46C SWAP2 SWAP1 PUSH2 0x8C5 JUMP JUMPDEST POP PUSH1 0xA0 DUP3 ADD MLOAD DUP2 PUSH1 0x5 ADD PUSH0 PUSH2 0x100 EXP DUP2 SLOAD DUP2 PUSH1 0xFF MUL NOT AND SWAP1 DUP4 ISZERO ISZERO MUL OR SWAP1 SSTORE POP PUSH1 0xC0 DUP3 ADD MLOAD DUP2 PUSH1 0x5 ADD PUSH1 0x1 PUSH2 0x100 EXP DUP2 SLOAD DUP2 PUSH1 0xFF MUL NOT AND SWAP1 DUP4 ISZERO ISZERO MUL OR SWAP1 SSTORE POP PUSH1 0xE0 DUP3 ADD MLOAD DUP2 PUSH1 0x6 ADD SSTORE SWAP1 POP POP PUSH1 0x18 PUSH0 DUP2 SLOAD DUP1 SWAP3 SWAP2 SWAP1 PUSH2 0x4CB SWAP1 PUSH2 0xA3E JUMP JUMPDEST SWAP2 SWAP1 POP SSTORE POP POP DUP1 DUP1 PUSH1 0x1 ADD SWAP2 POP POP PUSH2 0x366 JUMP JUMPDEST POP POP POP POP JUMP JUMPDEST PUSH0 PUSH1 0x40 MLOAD SWAP1 POP SWAP1 JUMP JUMPDEST PUSH0 PUSH0 REVERT JUMPDEST PUSH0 PUSH0 REVERT JUMPDEST PUSH0 PUSH0 REVERT JUMPDEST PUSH0 PUSH0 REVERT JUMPDEST PUSH0 PUSH1 0x1F NOT PUSH1 0x1F DUP4 ADD AND SWAP1 POP SWAP2 SWAP1 POP JUMP JUMPDEST PUSH32 0x4E487B7100000000000000000000000000000000000000000000000000000000 PUSH0 MSTORE PUSH1 0x41 PUSH1 0x4 MSTORE PUSH1 0x24 PUSH0 REVERT JUMPDEST PUSH2 0x543 DUP3 PUSH2 0x4FD JUMP JUMPDEST DUP2 ADD DUP2 DUP2 LT PUSH8 0xFFFFFFFFFFFFFFFF DUP3 GT OR ISZERO PUSH2 0x562 JUMPI PUSH2 0x561 PUSH2 0x50D JUMP JUMPDEST JUMPDEST DUP1 PUSH1 0x40 MSTORE POP POP POP JUMP JUMPDEST PUSH0 PUSH2 0x574 PUSH2 0x4E4 JUMP JUMPDEST SWAP1 POP PUSH2 0x580 DUP3 DUP3 PUSH2 0x53A JUMP JUMPDEST SWAP2 SWAP1 POP JUMP JUMPDEST PUSH0 PUSH8 0xFFFFFFFFFFFFFFFF DUP3 GT ISZERO PUSH2 0x59F JUMPI PUSH2 0x59E PUSH2 0x50D JUMP JUMPDEST JUMPDEST PUSH2 0x5A8 DUP3 PUSH2 0x4FD JUMP JUMPDEST SWAP1 POP PUSH1 0x20 DUP2 ADD SWAP1 POP SWAP2 SWAP1 POP JUMP JUMPDEST DUP3 DUP2 DUP4 MCOPY PUSH0 DUP4 DUP4 ADD MSTORE POP POP POP JUMP JUMPDEST PUSH0 PUSH2 0x5D5 PUSH2 0x5D0 DUP5 PUSH2 0x585 JUMP JUMPDEST PUSH2 0x56B JUMP JUMPDEST SWAP1 POP DUP3 DUP2 MSTORE PUSH1 0x20 DUP2 ADD DUP5 DUP5 DUP5 ADD GT ISZERO PUSH2 0x5F1 JUMPI PUSH2 0x5F0 PUSH2 0x4F9 JUMP JUMPDEST JUMPDEST PUSH2 0x5FC DUP5 DUP3 DUP6 PUSH2 0x5B5 JUMP JUMPDEST POP SWAP4 SWAP3 POP POP POP JUMP JUMPDEST PUSH0 DUP3 PUSH1 0x1F DUP4 ADD SLT PUSH2 0x618 JUMPI PUSH2 0x617 PUSH2 0x4F5 JUMP JUMPDEST JUMPDEST DUP2 MLOAD PUSH2 0x628 DUP5 DUP3 PUSH1 0x20 DUP7 ADD PUSH2 0x5C3 JUMP JUMPDEST SWAP2 POP POP SWAP3 SWAP2 POP POP JUMP JUMPDEST PUSH0 DUP2 SWAP1 POP SWAP2 SWAP1 POP JUMP JUMPDEST PUSH2 0x643 DUP2 PUSH2 0x631 JUMP JUMPDEST DUP2 EQ PUSH2 0x64D JUMPI PUSH0 PUSH0 REVERT JUMPDEST POP JUMP JUMPDEST PUSH0 DUP2 MLOAD SWAP1 POP PUSH2 0x65E DUP2 PUSH2 0x63A JUMP JUMPDEST SWAP3 SWAP2 POP POP JUMP JUMPDEST PUSH0 PUSH0 PUSH1 0x40 DUP4 DUP6 SUB SLT ISZERO PUSH2 0x67A JUMPI PUSH2 0x679 PUSH2 0x4ED JUMP JUMPDEST JUMPDEST PUSH0 DUP4 ADD MLOAD PUSH8 0xFFFFFFFFFFFFFFFF DUP2 GT ISZERO PUSH2 0x697 JUMPI PUSH2 0x696 PUSH2 0x4F1 JUMP JUMPDEST JUMPDEST PUSH2 0x6A3 DUP6 DUP3 DUP7 ADD PUSH2 0x604 JUMP JUMPDEST SWAP3 POP POP PUSH1 0x20 PUSH2 0x6B4 DUP6 DUP3 DUP7 ADD PUSH2 0x650 JUMP JUMPDEST SWAP2 POP POP SWAP3 POP SWAP3 SWAP1 POP JUMP JUMPDEST PUSH0 DUP2 MLOAD SWAP1 POP SWAP2 SWAP1 POP JUMP JUMPDEST PUSH32 0x4E487B7100000000000000000000000000000000000000000000000000000000 PUSH0 MSTORE PUSH1 0x22 PUSH1 0x4 MSTORE PUSH1 0x24 PUSH0 REVERT JUMPDEST PUSH0 PUSH1 0x2 DUP3 DIV SWAP1 POP PUSH1 0x1 DUP3 AND DUP1 PUSH2 0x70C JUMPI PUSH1 0x7F DUP3 AND SWAP2 POP JUMPDEST PUSH1 0x20 DUP3 LT DUP2 SUB PUSH2 0x71F JUMPI PUSH2 0x71E PUSH2 0x6C8 JUMP JUMPDEST JUMPDEST POP SWAP2 SWAP1 POP JUMP JUMPDEST PUSH0 DUP2 SWAP1 POP DUP2 PUSH0 MSTORE PUSH1 0x20 PUSH0 KECCAK256 SWAP1 POP SWAP2 SWAP1 POP JUMP JUMPDEST PUSH0 PUSH1 0x20 PUSH1 0x1F DUP4 ADD DIV SWAP1 POP SWAP2 SWAP1 POP JUMP JUMPDEST PUSH0 DUP3 DUP3 SHL SWAP1 POP SWAP3 SWAP2 POP POP JUMP JUMPDEST PUSH0 PUSH1 0x8 DUP4 MUL PUSH2 0x781 PUSH32 0xFFFFFFFFFFFFFFFFFFFFFFFFFFFFFFFFFFFFFFFFFFFFFFFFFFFFFFFFFFFFFFFF DUP3 PUSH2 0x746 JUMP JUMPDEST PUSH2 0x78B DUP7 DUP4 PUSH2 0x746 JUMP JUMPDEST SWAP6 POP DUP1 NOT DUP5 AND SWAP4 POP DUP1 DUP7 AND DUP5 OR SWAP3 POP POP POP SWAP4 SWAP3 POP POP POP JUMP JUMPDEST PUSH0 DUP2 SWAP1 POP SWAP2 SWAP1 POP JUMP JUMPDEST PUSH0 PUSH2 0x7C6 PUSH2 0x7C1 PUSH2 0x7BC DUP5 PUSH2 0x631 JUMP JUMPDEST PUSH2 0x7A3 JUMP JUMPDEST PUSH2 0x631 JUMP JUMPDEST SWAP1 POP SWAP2 SWAP1 POP JUMP JUMPDEST PUSH0 DUP2 SWAP1 POP SWAP2 SWAP1 POP JUMP JUMPDEST PUSH2 0x7DF DUP4 PUSH2 0x7AC JUMP JUMPDEST PUSH2 0x7F3 PUSH2 0x7EB DUP3 PUSH2 0x7CD JUMP JUMPDEST DUP5 DUP5 SLOAD PUSH2 0x752 JUMP JUMPDEST DUP3 SSTORE POP POP POP POP JUMP JUMPDEST PUSH0 PUSH0 SWAP1 POP SWAP1 JUMP JUMPDEST PUSH2 0x80A PUSH2 0x7FB JUMP JUMPDEST PUSH2 0x815 DUP2 DUP5 DUP5 PUSH2 0x7D6 JUMP JUMPDEST POP POP POP JUMP JUMPDEST JUMPDEST DUP2 DUP2 LT ISZERO PUSH2 0x838 JUMPI PUSH2 0x82D PUSH0 DUP3 PUSH2 0x802 JUMP JUMPDEST PUSH1 0x1 DUP2 ADD SWAP1 POP PUSH2 0x81B JUMP JUMPDEST POP POP JUMP JUMPDEST PUSH1 0x1F DUP3 GT ISZERO PUSH2 0x87D JUMPI PUSH2 0x84E DUP2 PUSH2 0x725 JUMP JUMPDEST PUSH2 0x857 DUP5 PUSH2 0x737 JUMP JUMPDEST DUP2 ADD PUSH1 0x20 DUP6 LT ISZERO PUSH2 0x866 JUMPI DUP2 SWAP1 POP JUMPDEST PUSH2 0x87A PUSH2 0x872 DUP6 PUSH2 0x737 JUMP JUMPDEST DUP4 ADD DUP3 PUSH2 0x81A JUMP JUMPDEST POP POP JUMPDEST POP POP POP JUMP JUMPDEST PUSH0 DUP3 DUP3 SHR SWAP1 POP SWAP3 SWAP2 POP POP JUMP JUMPDEST PUSH0 PUSH2 0x89D PUSH0 NOT DUP5 PUSH1 0x8 MUL PUSH2 0x882 JUMP JUMPDEST NOT DUP1 DUP4 AND SWAP2 POP POP SWAP3 SWAP2 POP POP JUMP JUMPDEST PUSH0 PUSH2 0x8B5 DUP4 DUP4 PUSH2 0x88E JUMP JUMPDEST SWAP2 POP DUP3 PUSH1 0x2 MUL DUP3 OR SWAP1 POP SWAP3 SWAP2 POP POP JUMP JUMPDEST PUSH2 0x8CE DUP3 PUSH2 0x6BE JUMP JUMPDEST PUSH8 0xFFFFFFFFFFFFFFFF DUP2 GT ISZERO PUSH2 0x8E7 JUMPI PUSH2 0x8E6 PUSH2 0x50D JUMP JUMPDEST JUMPDEST PUSH2 0x8F1 DUP3 SLOAD PUSH2 0x6F5 JUMP JUMPDEST PUSH2 0x8FC DUP3 DUP3 DUP6 PUSH2 0x83C JUMP JUMPDEST PUSH0 PUSH1 0x20 SWAP1 POP PUSH1 0x1F DUP4 GT PUSH1 0x1 DUP2 EQ PUSH2 0x92D JUMPI PUSH0 DUP5 ISZERO PUSH2 0x91B JUMPI DUP3 DUP8 ADD MLOAD SWAP1 POP JUMPDEST PUSH2 0x925 DUP6 DUP3 PUSH2 0x8AA JUMP JUMPDEST DUP7 SSTORE POP PUSH2 0x98C JUMP JUMPDEST PUSH1 0x1F NOT DUP5 AND PUSH2 0x93B DUP7 PUSH2 0x725 JUMP JUMPDEST PUSH0 JUMPDEST DUP3 DUP2 LT ISZERO PUSH2 0x962 JUMPI DUP5 DUP10 ADD MLOAD DUP3 SSTORE PUSH1 0x1 DUP3 ADD SWAP2 POP PUSH1 0x20 DUP6 ADD SWAP5 POP PUSH1 0x20 DUP2 ADD SWAP1 POP PUSH2 0x93D JUMP JUMPDEST DUP7 DUP4 LT ISZERO PUSH2 0x97F JUMPI DUP5 DUP10 ADD MLOAD PUSH2 0x97B PUSH1 0x1F DUP10 AND DUP3 PUSH2 0x88E JUMP JUMPDEST DUP4 SSTORE POP JUMPDEST PUSH1 0x1 PUSH1 0x2 DUP9 MUL ADD DUP9 SSTORE POP POP POP JUMPDEST POP POP POP POP POP POP JUMP JUMPDEST PUSH0 DUP2 SWAP1 POP SWAP3 SWAP2 POP POP JUMP JUMPDEST PUSH0 PUSH2 0x9A8 DUP3 PUSH2 0x6BE JUMP JUMPDEST PUSH2 0x9B2 DUP2 DUP6 PUSH2 0x994 JUMP JUMPDEST SWAP4 POP PUSH2 0x9C2 DUP2 DUP6 PUSH1 0x20 DUP7 ADD PUSH2 0x5B5 JUMP JUMPDEST DUP1 DUP5 ADD SWAP2 POP POP SWAP3 SWAP2 POP POP JUMP JUMPDEST PUSH0 PUSH2 0x9D9 DUP3 DUP5 PUSH2 0x99E JUMP JUMPDEST SWAP2 POP DUP2 SWAP1 POP SWAP3 SWAP2 POP POP JUMP JUMPDEST PUSH32 0x4E487B7100000000000000000000000000000000000000000000000000000000 PUSH0 MSTORE PUSH1 0x32 PUSH1 0x4 MSTORE PUSH1 0x24 PUSH0 REVERT JUMPDEST PUSH32 0x4E487B7100000000000000000000000000000000000000000000000000000000 PUSH0 MSTORE PUSH1 0x11 PUSH1 0x4 MSTORE PUSH1 0x24 PUSH0 REVERT JUMPDEST PUSH0 PUSH2 0xA48 DUP3 PUSH2 0x631 JUMP JUMPDEST SWAP2 POP PUSH32 0xFFFFFFFFFFFFFFFFFFFFFFFFFFFFFFFFFFFFFFFFFFFFFFFFFFFFFFFFFFFFFFFF DUP3 SUB PUSH2 0xA7A JUMPI PUSH2 0xA79 PUSH2 0xA11 JUMP JUMPDEST JUMPDEST PUSH1 0x1 DUP3 ADD SWAP1 POP SWAP2 SWAP1 POP JUMP JUMPDEST PUSH2 0x2646 DUP1 PUSH2 0xA92 PUSH0 CODECOPY PUSH0 RETURN INVALID PUSH1 0x80 PUSH1 0x40 MSTORE PUSH1 0x4 CALLDATASIZE LT PUSH2 0x108 JUMPI PUSH0 CALLDATALOAD PUSH1 0xE0 SHR DUP1 PUSH4 0x695DC67E GT PUSH2 0x94 JUMPI DUP1 PUSH4 0xAD03FE70 GT PUSH2 0x63 JUMPI DUP1 PUSH4 0xAD03FE70 EQ PUSH2 0x3AF JUMPI DUP1 PUSH4 0xC8705544 EQ PUSH2 0x3EB JUMPI DUP1 PUSH4 0xCB2CC82A EQ PUSH2 0x415 JUMPI DUP1 PUSH4 0xEA6E358E EQ PUSH2 0x451 JUMPI DUP1 PUSH4 0xFF203BC0 EQ PUSH2 0x46D JUMPI PUSH2 0x108 JUMP JUMPDEST DUP1 PUSH4 0x695DC67E EQ PUSH2 0x2F7 JUMPI DUP1 PUSH4 0x8DD4BA2E EQ PUSH2 0x333 JUMPI DUP1 PUSH4 0x908921FC EQ PUSH2 0x36F JUMPI DUP1 PUSH4 0xAAFC8D74 EQ PUSH2 0x399 JUMPI PUSH2 0x108 JUMP JUMPDEST DUP1 PUSH4 0x195C1445 GT PUSH2 0xDB JUMPI DUP1 PUSH4 0x195C1445 EQ PUSH2 0x1F1 JUMPI DUP1 PUSH4 0x2427E59E EQ PUSH2 0x22D JUMPI DUP1 PUSH4 0x3B33C702 EQ PUSH2 0x269 JUMPI DUP1 PUSH4 0x5E583E37 EQ PUSH2 0x2A5 JUMPI DUP1 PUSH4 0x6031A52F EQ PUSH2 0x2CD JUMPI PUSH2 0x108 JUMP JUMPDEST DUP1 PUSH4 0x33FAB35 EQ PUSH2 0x10C JUMPI DUP1 PUSH4 0x6661ABD EQ PUSH2 0x14F JUMPI DUP1 PUSH4 0x7819BD6 EQ PUSH2 0x179 JUMPI DUP1 PUSH4 0x1165E6AB EQ PUSH2 0x1B5 JUMPI JUMPDEST PUSH0 PUSH0 REVERT JUMPDEST CALLVALUE DUP1 ISZERO PUSH2 0x117 JUMPI PUSH0 PUSH0 REVERT JUMPDEST POP PUSH2 0x132 PUSH1 0x4 DUP1 CALLDATASIZE SUB DUP2 ADD SWAP1 PUSH2 0x12D SWAP2 SWAP1 PUSH2 0x172A JUMP JUMPDEST PUSH2 0x497 JUMP JUMPDEST PUSH1 0x40 MLOAD PUSH2 0x146 SWAP9 SWAP8 SWAP7 SWAP6 SWAP5 SWAP4 SWAP3 SWAP2 SWAP1 PUSH2 0x182D JUMP JUMPDEST PUSH1 0x40 MLOAD DUP1 SWAP2 SUB SWAP1 RETURN JUMPDEST CALLVALUE DUP1 ISZERO PUSH2 0x15A JUMPI PUSH0 PUSH0 REVERT JUMPDEST POP PUSH2 0x163 PUSH2 0x61F JUMP JUMPDEST PUSH1 0x40 MLOAD PUSH2 0x170 SWAP2 SWAP1 PUSH2 0x18B7 JUMP JUMPDEST PUSH1 0x40 MLOAD DUP1 SWAP2 SUB SWAP1 RETURN JUMPDEST CALLVALUE DUP1 ISZERO PUSH2 0x184 JUMPI PUSH0 PUSH0 REVERT JUMPDEST POP PUSH2 0x19F PUSH1 0x4 DUP1 CALLDATASIZE SUB DUP2 ADD SWAP1 PUSH2 0x19A SWAP2 SWAP1 PUSH2 0x1A26 JUMP JUMPDEST PUSH2 0x625 JUMP JUMPDEST PUSH1 0x40 MLOAD PUSH2 0x1AC SWAP2 SWAP1 PUSH2 0x18B7 JUMP JUMPDEST PUSH1 0x40 MLOAD DUP1 SWAP2 SUB SWAP1 RETURN JUMPDEST CALLVALUE DUP1 ISZERO PUSH2 0x1C0 JUMPI PUSH0 PUSH0 REVERT JUMPDEST POP PUSH2 0x1DB PUSH1 0x4 DUP1 CALLDATASIZE SUB DUP2 ADD SWAP1 PUSH2 0x1D6 SWAP2 SWAP1 PUSH2 0x1AD0 JUMP JUMPDEST PUSH2 0x7DB JUMP JUMPDEST PUSH1 0x40 MLOAD PUSH2 0x1E8 SWAP2 SWAP1 PUSH2 0x1AFB JUMP JUMPDEST PUSH1 0x40 MLOAD DUP1 SWAP2 SUB SWAP1 RETURN JUMPDEST CALLVALUE DUP1 ISZERO PUSH2 0x1FC JUMPI PUSH0 PUSH0 REVERT JUMPDEST POP PUSH2 0x217 PUSH1 0x4 DUP1 CALLDATASIZE SUB DUP2 ADD SWAP1 PUSH2 0x212 SWAP2 SWAP1 PUSH2 0x172A JUMP JUMPDEST PUSH2 0x873 JUMP JUMPDEST PUSH1 0x40 MLOAD PUSH2 0x224 SWAP2 SWAP1 PUSH2 0x18B7 JUMP JUMPDEST PUSH1 0x40 MLOAD DUP1 SWAP2 SUB SWAP1 RETURN JUMPDEST CALLVALUE DUP1 ISZERO PUSH2 0x238 JUMPI PUSH0 PUSH0 REVERT JUMPDEST POP PUSH2 0x253 PUSH1 0x4 DUP1 CALLDATASIZE SUB DUP2 ADD SWAP1 PUSH2 0x24E SWAP2 SWAP1 PUSH2 0x1B14 JUMP JUMPDEST PUSH2 0x893 JUMP JUMPDEST PUSH1 0x40 MLOAD PUSH2 0x260 SWAP2 SWAP1 PUSH2 0x18B7 JUMP JUMPDEST PUSH1 0x40 MLOAD DUP1 SWAP2 SUB SWAP1 RETURN JUMPDEST CALLVALUE DUP1 ISZERO PUSH2 0x274 JUMPI PUSH0 PUSH0 REVERT JUMPDEST POP PUSH2 0x28F PUSH1 0x4 DUP1 CALLDATASIZE SUB DUP2 ADD SWAP1 PUSH2 0x28A SWAP2 SWAP1 PUSH2 0x172A JUMP JUMPDEST PUSH2 0x8C0 JUMP JUMPDEST PUSH1 0x40 MLOAD PUSH2 0x29C SWAP2 SWAP1 PUSH2 0x18B7 JUMP JUMPDEST PUSH1 0x40 MLOAD DUP1 SWAP2 SUB SWAP1 RETURN JUMPDEST CALLVALUE DUP1 ISZERO PUSH2 0x2B0 JUMPI PUSH0 PUSH0 REVERT JUMPDEST POP PUSH2 0x2CB PUSH1 0x4 DUP1 CALLDATASIZE SUB DUP2 ADD SWAP1 PUSH2 0x2C6 SWAP2 SWAP1 PUSH2 0x1B5B JUMP JUMPDEST PUSH2 0x8E0 JUMP JUMPDEST STOP JUMPDEST CALLVALUE DUP1 ISZERO PUSH2 0x2D8 JUMPI PUSH0 PUSH0 REVERT JUMPDEST POP PUSH2 0x2E1 PUSH2 0xB0B JUMP JUMPDEST PUSH1 0x40 MLOAD PUSH2 0x2EE SWAP2 SWAP1 PUSH2 0x18B7 JUMP JUMPDEST PUSH1 0x40 MLOAD DUP1 SWAP2 SUB SWAP1 RETURN JUMPDEST CALLVALUE DUP1 ISZERO PUSH2 0x302 JUMPI PUSH0 PUSH0 REVERT JUMPDEST POP PUSH2 0x31D PUSH1 0x4 DUP1 CALLDATASIZE SUB DUP2 ADD SWAP1 PUSH2 0x318 SWAP2 SWAP1 PUSH2 0x172A JUMP JUMPDEST PUSH2 0xB11 JUMP JUMPDEST PUSH1 0x40 MLOAD PUSH2 0x32A SWAP2 SWAP1 PUSH2 0x18B7 JUMP JUMPDEST PUSH1 0x40 MLOAD DUP1 SWAP2 SUB SWAP1 RETURN JUMPDEST CALLVALUE DUP1 ISZERO PUSH2 0x33E JUMPI PUSH0 PUSH0 REVERT JUMPDEST POP PUSH2 0x359 PUSH1 0x4 DUP1 CALLDATASIZE SUB DUP2 ADD SWAP1 PUSH2 0x354 SWAP2 SWAP1 PUSH2 0x172A JUMP JUMPDEST PUSH2 0xB2A JUMP JUMPDEST PUSH1 0x40 MLOAD PUSH2 0x366 SWAP2 SWAP1 PUSH2 0x1BB5 JUMP JUMPDEST PUSH1 0x40 MLOAD DUP1 SWAP2 SUB SWAP1 RETURN JUMPDEST CALLVALUE DUP1 ISZERO PUSH2 0x37A JUMPI PUSH0 PUSH0 REVERT JUMPDEST POP PUSH2 0x383 PUSH2 0xBD0 JUMP JUMPDEST PUSH1 0x40 MLOAD PUSH2 0x390 SWAP2 SWAP1 PUSH2 0x1BD5 JUMP JUMPDEST PUSH1 0x40 MLOAD DUP1 SWAP2 SUB SWAP1 RETURN JUMPDEST CALLVALUE DUP1 ISZERO PUSH2 0x3A4 JUMPI PUSH0 PUSH0 REVERT JUMPDEST POP PUSH2 0x3AD PUSH2 0xBF4 JUMP JUMPDEST STOP JUMPDEST CALLVALUE DUP1 ISZERO PUSH2 0x3BA JUMPI PUSH0 PUSH0 REVERT JUMPDEST POP PUSH2 0x3D5 PUSH1 0x4 DUP1 CALLDATASIZE SUB DUP2 ADD SWAP1 PUSH2 0x3D0 SWAP2 SWAP1 PUSH2 0x1AD0 JUMP JUMPDEST PUSH2 0xCEB JUMP JUMPDEST PUSH1 0x40 MLOAD PUSH2 0x3E2 SWAP2 SWAP1 PUSH2 0x1DD2 JUMP JUMPDEST PUSH1 0x40 MLOAD DUP1 SWAP2 SUB SWAP1 RETURN JUMPDEST CALLVALUE DUP1 ISZERO PUSH2 0x3F6 JUMPI PUSH0 PUSH0 REVERT JUMPDEST POP PUSH2 0x3FF PUSH2 0x10D3 JUMP JUMPDEST PUSH1 0x40 MLOAD PUSH2 0x40C SWAP2 SWAP1 PUSH2 0x18B7 JUMP JUMPDEST PUSH1 0x40 MLOAD DUP1 SWAP2 SUB SWAP1 RETURN JUMPDEST CALLVALUE DUP1 ISZERO PUSH2 0x420 JUMPI PUSH0 PUSH0 REVERT JUMPDEST POP PUSH2 0x43B PUSH1 0x4 DUP1 CALLDATASIZE SUB DUP2 ADD SWAP1 PUSH2 0x436 SWAP2 SWAP1 PUSH2 0x172A JUMP JUMPDEST PUSH2 0x10D9 JUMP JUMPDEST PUSH1 0x40 MLOAD PUSH2 0x448 SWAP2 SWAP1 PUSH2 0x18B7 JUMP JUMPDEST PUSH1 0x40 MLOAD DUP1 SWAP2 SUB SWAP1 RETURN JUMPDEST PUSH2 0x46B PUSH1 0x4 DUP1 CALLDATASIZE SUB DUP2 ADD SWAP1 PUSH2 0x466 SWAP2 SWAP1 PUSH2 0x1A26 JUMP JUMPDEST PUSH2 0x10F2 JUMP JUMPDEST STOP JUMPDEST CALLVALUE DUP1 ISZERO PUSH2 0x478 JUMPI PUSH0 PUSH0 REVERT JUMPDEST POP PUSH2 0x481 PUSH2 0x14A1 JUMP JUMPDEST PUSH1 0x40 MLOAD PUSH2 0x48E SWAP2 SWAP1 PUSH2 0x1AFB JUMP JUMPDEST PUSH1 0x40 MLOAD DUP1 SWAP2 SUB SWAP1 RETURN JUMPDEST PUSH1 0x17 PUSH1 0x20 MSTORE DUP1 PUSH0 MSTORE PUSH1 0x40 PUSH0 KECCAK256 PUSH0 SWAP2 POP SWAP1 POP DUP1 PUSH0 ADD PUSH0 SWAP1 SLOAD SWAP1 PUSH2 0x100 EXP SWAP1 DIV PUSH20 0xFFFFFFFFFFFFFFFFFFFFFFFFFFFFFFFFFFFFFFFF AND SWAP1 DUP1 PUSH1 0x1 ADD DUP1 SLOAD PUSH2 0x4DB SWAP1 PUSH2 0x1E1F JUMP JUMPDEST DUP1 PUSH1 0x1F ADD PUSH1 0x20 DUP1 SWAP2 DIV MUL PUSH1 0x20 ADD PUSH1 0x40 MLOAD SWAP1 DUP2 ADD PUSH1 0x40 MSTORE DUP1 SWAP3 SWAP2 SWAP1 DUP2 DUP2 MSTORE PUSH1 0x20 ADD DUP3 DUP1 SLOAD PUSH2 0x507 SWAP1 PUSH2 0x1E1F JUMP JUMPDEST DUP1 ISZERO PUSH2 0x552 JUMPI DUP1 PUSH1 0x1F LT PUSH2 0x529 JUMPI PUSH2 0x100 DUP1 DUP4 SLOAD DIV MUL DUP4 MSTORE SWAP2 PUSH1 0x20 ADD SWAP2 PUSH2 0x552 JUMP JUMPDEST DUP3 ADD SWAP2 SWAP1 PUSH0 MSTORE PUSH1 0x20 PUSH0 KECCAK256 SWAP1 JUMPDEST DUP2 SLOAD DUP2 MSTORE SWAP1 PUSH1 0x1 ADD SWAP1 PUSH1 0x20 ADD DUP1 DUP4 GT PUSH2 0x535 JUMPI DUP3 SWAP1 SUB PUSH1 0x1F AND DUP3 ADD SWAP2 JUMPDEST POP POP POP POP POP SWAP1 DUP1 PUSH1 0x2 ADD SLOAD SWAP1 DUP1 PUSH1 0x3 ADD SLOAD SWAP1 DUP1 PUSH1 0x4 ADD DUP1 SLOAD PUSH2 0x573 SWAP1 PUSH2 0x1E1F JUMP JUMPDEST DUP1 PUSH1 0x1F ADD PUSH1 0x20 DUP1 SWAP2 DIV MUL PUSH1 0x20 ADD PUSH1 0x40 MLOAD SWAP1 DUP2 ADD PUSH1 0x40 MSTORE DUP1 SWAP3 SWAP2 SWAP1 DUP2 DUP2 MSTORE PUSH1 0x20 ADD DUP3 DUP1 SLOAD PUSH2 0x59F SWAP1 PUSH2 0x1E1F JUMP JUMPDEST DUP1 ISZERO PUSH2 0x5EA JUMPI DUP1 PUSH1 0x1F LT PUSH2 0x5C1 JUMPI PUSH2 0x100 DUP1 DUP4 SLOAD DIV MUL DUP4 MSTORE SWAP2 PUSH1 0x20 ADD SWAP2 PUSH2 0x5EA JUMP JUMPDEST DUP3 ADD SWAP2 SWAP1 PUSH0 MSTORE PUSH1 0x20 PUSH0 KECCAK256 SWAP1 JUMPDEST DUP2 SLOAD DUP2 MSTORE SWAP1 PUSH1 0x1 ADD SWAP1 PUSH1 0x20 ADD DUP1 DUP4 GT PUSH2 0x5CD JUMPI DUP3 SWAP1 SUB PUSH1 0x1F AND DUP3 ADD SWAP2 JUMPDEST POP POP POP POP POP SWAP1 DUP1 PUSH1 0x5 ADD PUSH0 SWAP1 SLOAD SWAP1 PUSH2 0x100 EXP SWAP1 DIV PUSH1 0xFF AND SWAP1 DUP1 PUSH1 0x5 ADD PUSH1 0x1 SWAP1 SLOAD SWAP1 PUSH2 0x100 EXP SWAP1 DIV PUSH1 0xFF AND SWAP1 DUP1 PUSH1 0x6 ADD SLOAD SWAP1 POP DUP9 JUMP JUMPDEST PUSH1 0x14 SLOAD DUP2 JUMP JUMPDEST PUSH0 DUP5 PUSH1 0x40 MLOAD PUSH1 0x20 ADD PUSH2 0x637 SWAP2 SWAP1 PUSH2 0x1E89 JUMP JUMPDEST PUSH1 0x40 MLOAD PUSH1 0x20 DUP2 DUP4 SUB SUB DUP2 MSTORE SWAP1 PUSH1 0x40 MSTORE DUP1 MLOAD SWAP1 PUSH1 0x20 ADD KECCAK256 PUSH1 0x1 PUSH1 0x4 DUP8 PUSH1 0x40 MLOAD PUSH2 0x65F SWAP2 SWAP1 PUSH2 0x1E89 JUMP JUMPDEST SWAP1 DUP2 MSTORE PUSH1 0x20 ADD PUSH1 0x40 MLOAD DUP1 SWAP2 SUB SWAP1 KECCAK256 SLOAD DUP2 SLOAD DUP2 LT PUSH2 0x67F JUMPI PUSH2 0x67E PUSH2 0x1E9F JUMP JUMPDEST JUMPDEST SWAP1 PUSH0 MSTORE PUSH1 0x20 PUSH0 KECCAK256 ADD PUSH1 0x40 MLOAD PUSH1 0x20 ADD PUSH2 0x697 SWAP2 SWAP1 PUSH2 0x1F5E JUMP JUMPDEST PUSH1 0x40 MLOAD PUSH1 0x20 DUP2 DUP4 SUB SUB DUP2 MSTORE SWAP1 PUSH1 0x40 MSTORE DUP1 MLOAD SWAP1 PUSH1 0x20 ADD KECCAK256 EQ PUSH2 0x6ED JUMPI PUSH1 0x40 MLOAD PUSH32 0x8C379A000000000000000000000000000000000000000000000000000000000 DUP2 MSTORE PUSH1 0x4 ADD PUSH2 0x6E4 SWAP1 PUSH2 0x1FE4 JUMP JUMPDEST PUSH1 0x40 MLOAD DUP1 SWAP2 SUB SWAP1 REVERT JUMPDEST PUSH0 PUSH1 0x11 PUSH1 0x1 DUP6 PUSH2 0x6FD SWAP2 SWAP1 PUSH2 0x202F JUMP JUMPDEST PUSH1 0x3 DUP2 LT PUSH2 0x70E JUMPI PUSH2 0x70D PUSH2 0x1E9F JUMP JUMPDEST JUMPDEST ADD SLOAD SWAP1 POP PUSH0 PUSH1 0x5 PUSH1 0x1 DUP8 PUSH2 0x722 SWAP2 SWAP1 PUSH2 0x202F JUMP JUMPDEST PUSH1 0xC DUP2 LT PUSH2 0x733 JUMPI PUSH2 0x732 PUSH2 0x1E9F JUMP JUMPDEST JUMPDEST ADD SLOAD SWAP1 POP PUSH0 DUP3 PUSH1 0x2 PUSH1 0x4 DUP11 PUSH1 0x40 MLOAD PUSH2 0x74B SWAP2 SWAP1 PUSH2 0x1E89 JUMP JUMPDEST SWAP1 DUP2 MSTORE PUSH1 0x20 ADD PUSH1 0x40 MLOAD DUP1 SWAP2 SUB SWAP1 KECCAK256 SLOAD DUP2 SLOAD DUP2 LT PUSH2 0x76B JUMPI PUSH2 0x76A PUSH2 0x1E9F JUMP JUMPDEST JUMPDEST SWAP1 PUSH0 MSTORE PUSH1 0x20 PUSH0 KECCAK256 ADD SLOAD PUSH2 0x77E SWAP2 SWAP1 PUSH2 0x2062 JUMP JUMPDEST SWAP1 POP DUP5 ISZERO PUSH2 0x796 JUMPI PUSH1 0x2 DUP2 PUSH2 0x793 SWAP2 SWAP1 PUSH2 0x2062 JUMP JUMPDEST SWAP1 POP JUMPDEST DUP2 PUSH1 0xA GT ISZERO PUSH2 0x7B5 JUMPI DUP2 DUP2 PUSH2 0x7AB SWAP2 SWAP1 PUSH2 0x20D0 JUMP JUMPDEST SWAP4 POP POP POP POP PUSH2 0x7D3 JUMP JUMPDEST PUSH1 0xA DUP3 PUSH2 0x7C2 SWAP2 SWAP1 PUSH2 0x202F JUMP JUMPDEST DUP2 PUSH2 0x7CD SWAP2 SWAP1 PUSH2 0x2062 JUMP JUMPDEST SWAP4 POP POP POP POP JUMPDEST SWAP5 SWAP4 POP POP POP POP JUMP JUMPDEST PUSH0 PUSH0 PUSH0 SWAP1 SLOAD SWAP1 PUSH2 0x100 EXP SWAP1 DIV PUSH20 0xFFFFFFFFFFFFFFFFFFFFFFFFFFFFFFFFFFFFFFFF AND PUSH20 0xFFFFFFFFFFFFFFFFFFFFFFFFFFFFFFFFFFFFFFFF AND DUP3 PUSH20 0xFFFFFFFFFFFFFFFFFFFFFFFFFFFFFFFFFFFFFFFF AND EQ PUSH2 0x86A JUMPI PUSH1 0x40 MLOAD PUSH32 0x8C379A000000000000000000000000000000000000000000000000000000000 DUP2 MSTORE PUSH1 0x4 ADD PUSH2 0x861 SWAP1 PUSH2 0x214A JUMP JUMPDEST PUSH1 0x40 MLOAD DUP1 SWAP2 SUB SWAP1 REVERT JUMPDEST PUSH1 0x1 SWAP1 POP SWAP2 SWAP1 POP JUMP JUMPDEST PUSH1 0x2 DUP2 DUP2 SLOAD DUP2 LT PUSH2 0x882 JUMPI PUSH0 DUP1 REVERT JUMPDEST SWAP1 PUSH0 MSTORE PUSH1 0x20 PUSH0 KECCAK256 ADD PUSH0 SWAP2 POP SWAP1 POP SLOAD DUP2 JUMP JUMPDEST PUSH1 0x4 DUP2 DUP1 MLOAD PUSH1 0x20 DUP2 ADD DUP3 ADD DUP1 MLOAD DUP5 DUP3 MSTORE PUSH1 0x20 DUP4 ADD PUSH1 0x20 DUP6 ADD KECCAK256 DUP2 DUP4 MSTORE DUP1 SWAP6 POP POP POP POP POP POP PUSH0 SWAP2 POP SWAP1 POP SLOAD DUP2 JUMP JUMPDEST PUSH1 0x3 DUP2 DUP2 SLOAD DUP2 LT PUSH2 0x8CF JUMPI PUSH0 DUP1 REVERT JUMPDEST SWAP1 PUSH0 MSTORE PUSH1 0x20 PUSH0 KECCAK256 ADD PUSH0 SWAP2 POP SWAP1 POP SLOAD DUP2 JUMP JUMPDEST PUSH0 PUSH0 SWAP1 SLOAD SWAP1 PUSH2 0x100 EXP SWAP1 DIV PUSH20 0xFFFFFFFFFFFFFFFFFFFFFFFFFFFFFFFFFFFFFFFF AND PUSH20 0xFFFFFFFFFFFFFFFFFFFFFFFFFFFFFFFFFFFFFFFF AND CALLER PUSH20 0xFFFFFFFFFFFFFFFFFFFFFFFFFFFFFFFFFFFFFFFF AND EQ PUSH2 0x937 JUMPI PUSH0 PUSH0 REVERT JUMPDEST DUP2 PUSH1 0x40 MLOAD PUSH1 0x20 ADD PUSH2 0x948 SWAP2 SWAP1 PUSH2 0x1E89 JUMP JUMPDEST PUSH1 0x40 MLOAD PUSH1 0x20 DUP2 DUP4 SUB SUB DUP2 MSTORE SWAP1 PUSH1 0x40 MSTORE DUP1 MLOAD SWAP1 PUSH1 0x20 ADD KECCAK256 PUSH1 0x1 PUSH1 0x4 DUP5 PUSH1 0x40 MLOAD PUSH2 0x970 SWAP2 SWAP1 PUSH2 0x1E89 JUMP JUMPDEST SWAP1 DUP2 MSTORE PUSH1 0x20 ADD PUSH1 0x40 MLOAD DUP1 SWAP2 SUB SWAP1 KECCAK256 SLOAD DUP2 SLOAD DUP2 LT PUSH2 0x990 JUMPI PUSH2 0x98F PUSH2 0x1E9F JUMP JUMPDEST JUMPDEST SWAP1 PUSH0 MSTORE PUSH1 0x20 PUSH0 KECCAK256 ADD PUSH1 0x40 MLOAD PUSH1 0x20 ADD PUSH2 0x9A8 SWAP2 SWAP1 PUSH2 0x1F5E JUMP JUMPDEST PUSH1 0x40 MLOAD PUSH1 0x20 DUP2 DUP4 SUB SUB DUP2 MSTORE SWAP1 PUSH1 0x40 MSTORE DUP1 MLOAD SWAP1 PUSH1 0x20 ADD KECCAK256 SUB PUSH2 0x9FE JUMPI PUSH1 0x40 MLOAD PUSH32 0x8C379A000000000000000000000000000000000000000000000000000000000 DUP2 MSTORE PUSH1 0x4 ADD PUSH2 0x9F5 SWAP1 PUSH2 0x21D8 JUMP JUMPDEST PUSH1 0x40 MLOAD DUP1 SWAP2 SUB SWAP1 REVERT JUMPDEST PUSH1 0x1E DUP2 GT PUSH2 0xA41 JUMPI PUSH1 0x40 MLOAD PUSH32 0x8C379A000000000000000000000000000000000000000000000000000000000 DUP2 MSTORE PUSH1 0x4 ADD PUSH2 0xA38 SWAP1 PUSH2 0x2266 JUMP JUMPDEST PUSH1 0x40 MLOAD DUP1 SWAP2 SUB SWAP1 REVERT JUMPDEST PUSH2 0xA4C CALLER DUP4 DUP4 PUSH2 0x14B3 JUMP JUMPDEST PUSH1 0x1 DUP3 SWAP1 DUP1 PUSH1 0x1 DUP2 SLOAD ADD DUP1 DUP3 SSTORE DUP1 SWAP2 POP POP PUSH1 0x1 SWAP1 SUB SWAP1 PUSH0 MSTORE PUSH1 0x20 PUSH0 KECCAK256 ADD PUSH0 SWAP1 SWAP2 SWAP1 SWAP2 SWAP1 SWAP2 POP SWAP1 DUP2 PUSH2 0xA7D SWAP2 SWAP1 PUSH2 0x2412 JUMP JUMPDEST POP PUSH1 0x2 DUP2 SWAP1 DUP1 PUSH1 0x1 DUP2 SLOAD ADD DUP1 DUP3 SSTORE DUP1 SWAP2 POP POP PUSH1 0x1 SWAP1 SUB SWAP1 PUSH0 MSTORE PUSH1 0x20 PUSH0 KECCAK256 ADD PUSH0 SWAP1 SWAP2 SWAP1 SWAP2 SWAP1 SWAP2 POP SSTORE PUSH1 0x14 SLOAD PUSH1 0x4 DUP4 PUSH1 0x40 MLOAD PUSH2 0xAB7 SWAP2 SWAP1 PUSH2 0x1E89 JUMP JUMPDEST SWAP1 DUP2 MSTORE PUSH1 0x20 ADD PUSH1 0x40 MLOAD DUP1 SWAP2 SUB SWAP1 KECCAK256 DUP2 SWAP1 SSTORE POP PUSH1 0x3 PUSH1 0x1E SWAP1 DUP1 PUSH1 0x1 DUP2 SLOAD ADD DUP1 DUP3 SSTORE DUP1 SWAP2 POP POP PUSH1 0x1 SWAP1 SUB SWAP1 PUSH0 MSTORE PUSH1 0x20 PUSH0 KECCAK256 ADD PUSH0 SWAP1 SWAP2 SWAP1 SWAP2 SWAP1 SWAP2 POP SSTORE PUSH1 0x14 PUSH0 DUP2 SLOAD DUP1 SWAP3 SWAP2 SWAP1 PUSH2 0xB02 SWAP1 PUSH2 0x24E1 JUMP JUMPDEST SWAP2 SWAP1 POP SSTORE POP POP POP JUMP JUMPDEST PUSH1 0x18 SLOAD DUP2 JUMP JUMPDEST PUSH1 0x11 DUP2 PUSH1 0x3 DUP2 LT PUSH2 0xB20 JUMPI PUSH0 DUP1 REVERT JUMPDEST ADD PUSH0 SWAP2 POP SWAP1 POP SLOAD DUP2 JUMP JUMPDEST PUSH1 0x1 DUP2 DUP2 SLOAD DUP2 LT PUSH2 0xB39 JUMPI PUSH0 DUP1 REVERT JUMPDEST SWAP1 PUSH0 MSTORE PUSH1 0x20 PUSH0 KECCAK256 ADD PUSH0 SWAP2 POP SWAP1 POP DUP1 SLOAD PUSH2 0xB51 SWAP1 PUSH2 0x1E1F JUMP JUMPDEST DUP1 PUSH1 0x1F ADD PUSH1 0x20 DUP1 SWAP2 DIV MUL PUSH1 0x20 ADD PUSH1 0x40 MLOAD SWAP1 DUP2 ADD PUSH1 0x40 MSTORE DUP1 SWAP3 SWAP2 SWAP1 DUP2 DUP2 MSTORE PUSH1 0x20 ADD DUP3 DUP1 SLOAD PUSH2 0xB7D SWAP1 PUSH2 0x1E1F JUMP JUMPDEST DUP1 ISZERO PUSH2 0xBC8 JUMPI DUP1 PUSH1 0x1F LT PUSH2 0xB9F JUMPI PUSH2 0x100 DUP1 DUP4 SLOAD DIV MUL DUP4 MSTORE SWAP2 PUSH1 0x20 ADD SWAP2 PUSH2 0xBC8 JUMP JUMPDEST DUP3 ADD SWAP2 SWAP1 PUSH0 MSTORE PUSH1 0x20 PUSH0 KECCAK256 SWAP1 JUMPDEST DUP2 SLOAD DUP2 MSTORE SWAP1 PUSH1 0x1 ADD SWAP1 PUSH1 0x20 ADD DUP1 DUP4 GT PUSH2 0xBAB JUMPI DUP3 SWAP1 SUB PUSH1 0x1F AND DUP3 ADD SWAP2 JUMPDEST POP POP POP POP POP DUP2 JUMP JUMPDEST PUSH0 PUSH0 SWAP1 SLOAD SWAP1 PUSH2 0x100 EXP SWAP1 DIV PUSH20 0xFFFFFFFFFFFFFFFFFFFFFFFFFFFFFFFFFFFFFFFF AND DUP2 JUMP JUMPDEST PUSH0 PUSH0 SWAP1 SLOAD SWAP1 PUSH2 0x100 EXP SWAP1 DIV PUSH20 0xFFFFFFFFFFFFFFFFFFFFFFFFFFFFFFFFFFFFFFFF AND PUSH20 0xFFFFFFFFFFFFFFFFFFFFFFFFFFFFFFFFFFFFFFFF AND CALLER PUSH20 0xFFFFFFFFFFFFFFFFFFFFFFFFFFFFFFFFFFFFFFFF AND EQ PUSH2 0xC4B JUMPI PUSH0 PUSH0 REVERT JUMPDEST PUSH0 PUSH0 SWAP1 SLOAD SWAP1 PUSH2 0x100 EXP SWAP1 DIV PUSH20 0xFFFFFFFFFFFFFFFFFFFFFFFFFFFFFFFFFFFFFFFF AND PUSH20 0xFFFFFFFFFFFFFFFFFFFFFFFFFFFFFFFFFFFFFFFF AND PUSH2 0x8FC PUSH1 0xA PUSH1 0x9 PUSH1 0x16 SLOAD PUSH2 0xC96 SWAP2 SWAP1 PUSH2 0x2062 JUMP JUMPDEST PUSH2 0xCA0 SWAP2 SWAP1 PUSH2 0x20D0 JUMP JUMPDEST SWAP1 DUP2 ISZERO MUL SWAP1 PUSH1 0x40 MLOAD PUSH0 PUSH1 0x40 MLOAD DUP1 DUP4 SUB DUP2 DUP6 DUP9 DUP9 CALL SWAP4 POP POP POP POP ISZERO DUP1 ISZERO PUSH2 0xCC8 JUMPI RETURNDATASIZE PUSH0 PUSH0 RETURNDATACOPY RETURNDATASIZE PUSH0 REVERT JUMPDEST POP PUSH0 PUSH1 0x15 PUSH0 PUSH2 0x100 EXP DUP2 SLOAD DUP2 PUSH1 0xFF MUL NOT AND SWAP1 DUP4 ISZERO ISZERO MUL OR SWAP1 SSTORE POP PUSH0 PUSH1 0x16 DUP2 SWAP1 SSTORE POP JUMP JUMPDEST PUSH1 0x60 PUSH0 PUSH0 SWAP1 POP PUSH0 PUSH0 SWAP1 POP JUMPDEST PUSH1 0x18 SLOAD DUP2 LT ISZERO PUSH2 0xDAD JUMPI DUP4 PUSH20 0xFFFFFFFFFFFFFFFFFFFFFFFFFFFFFFFFFFFFFFFF AND PUSH1 0x17 PUSH0 DUP4 DUP2 MSTORE PUSH1 0x20 ADD SWAP1 DUP2 MSTORE PUSH1 0x20 ADD PUSH0 KECCAK256 PUSH0 ADD PUSH0 SWAP1 SLOAD SWAP1 PUSH2 0x100 EXP SWAP1 DIV PUSH20 0xFFFFFFFFFFFFFFFFFFFFFFFFFFFFFFFFFFFFFFFF AND PUSH20 0xFFFFFFFFFFFFFFFFFFFFFFFFFFFFFFFFFFFFFFFF AND EQ DUP1 ISZERO PUSH2 0xD8C JUMPI POP PUSH1 0x17 PUSH0 DUP3 DUP2 MSTORE PUSH1 0x20 ADD SWAP1 DUP2 MSTORE PUSH1 0x20 ADD PUSH0 KECCAK256 PUSH1 0x5 ADD PUSH1 0x1 SWAP1 SLOAD SWAP1 PUSH2 0x100 EXP SWAP1 DIV PUSH1 0xFF AND ISZERO JUMPDEST ISZERO PUSH2 0xDA0 JUMPI DUP2 DUP1 PUSH2 0xD9C SWAP1 PUSH2 0x24E1 JUMP JUMPDEST SWAP3 POP POP JUMPDEST DUP1 DUP1 PUSH1 0x1 ADD SWAP2 POP POP PUSH2 0xCF6 JUMP JUMPDEST POP PUSH0 DUP2 PUSH8 0xFFFFFFFFFFFFFFFF DUP2 GT ISZERO PUSH2 0xDC9 JUMPI PUSH2 0xDC8 PUSH2 0x18D8 JUMP JUMPDEST JUMPDEST PUSH1 0x40 MLOAD SWAP1 DUP1 DUP3 MSTORE DUP1 PUSH1 0x20 MUL PUSH1 0x20 ADD DUP3 ADD PUSH1 0x40 MSTORE DUP1 ISZERO PUSH2 0xE02 JUMPI DUP2 PUSH1 0x20 ADD JUMPDEST PUSH2 0xDEF PUSH2 0x168D JUMP JUMPDEST DUP2 MSTORE PUSH1 0x20 ADD SWAP1 PUSH1 0x1 SWAP1 SUB SWAP1 DUP2 PUSH2 0xDE7 JUMPI SWAP1 POP JUMPDEST POP SWAP1 POP PUSH0 PUSH0 SWAP1 POP PUSH0 PUSH0 SWAP1 POP JUMPDEST PUSH1 0x18 SLOAD DUP2 LT ISZERO PUSH2 0x10C7 JUMPI DUP6 PUSH20 0xFFFFFFFFFFFFFFFFFFFFFFFFFFFFFFFFFFFFFFFF AND PUSH1 0x17 PUSH0 DUP4 DUP2 MSTORE PUSH1 0x20 ADD SWAP1 DUP2 MSTORE PUSH1 0x20 ADD PUSH0 KECCAK256 PUSH0 ADD PUSH0 SWAP1 SLOAD SWAP1 PUSH2 0x100 EXP SWAP1 DIV PUSH20 0xFFFFFFFFFFFFFFFFFFFFFFFFFFFFFFFFFFFFFFFF AND PUSH20 0xFFFFFFFFFFFFFFFFFFFFFFFFFFFFFFFFFFFFFFFF AND EQ DUP1 ISZERO PUSH2 0xEA4 JUMPI POP PUSH1 0x17 PUSH0 DUP3 DUP2 MSTORE PUSH1 0x20 ADD SWAP1 DUP2 MSTORE PUSH1 0x20 ADD PUSH0 KECCAK256 PUSH1 0x5 ADD PUSH1 0x1 SWAP1 SLOAD SWAP1 PUSH2 0x100 EXP SWAP1 DIV PUSH1 0xFF AND ISZERO JUMPDEST ISZERO PUSH2 0x10BA JUMPI PUSH1 0x17 PUSH0 DUP3 DUP2 MSTORE PUSH1 0x20 ADD SWAP1 DUP2 MSTORE PUSH1 0x20 ADD PUSH0 KECCAK256 PUSH1 0x40 MLOAD DUP1 PUSH2 0x100 ADD PUSH1 0x40 MSTORE SWAP1 DUP2 PUSH0 DUP3 ADD PUSH0 SWAP1 SLOAD SWAP1 PUSH2 0x100 EXP SWAP1 DIV PUSH20 0xFFFFFFFFFFFFFFFFFFFFFFFFFFFFFFFFFFFFFFFF AND PUSH20 0xFFFFFFFFFFFFFFFFFFFFFFFFFFFFFFFFFFFFFFFF AND PUSH20 0xFFFFFFFFFFFFFFFFFFFFFFFFFFFFFFFFFFFFFFFF AND DUP2 MSTORE PUSH1 0x20 ADD PUSH1 0x1 DUP3 ADD DUP1 SLOAD PUSH2 0xF2A SWAP1 PUSH2 0x1E1F JUMP JUMPDEST DUP1 PUSH1 0x1F ADD PUSH1 0x20 DUP1 SWAP2 DIV MUL PUSH1 0x20 ADD PUSH1 0x40 MLOAD SWAP1 DUP2 ADD PUSH1 0x40 MSTORE DUP1 SWAP3 SWAP2 SWAP1 DUP2 DUP2 MSTORE PUSH1 0x20 ADD DUP3 DUP1 SLOAD PUSH2 0xF56 SWAP1 PUSH2 0x1E1F JUMP JUMPDEST DUP1 ISZERO PUSH2 0xFA1 JUMPI DUP1 PUSH1 0x1F LT PUSH2 0xF78 JUMPI PUSH2 0x100 DUP1 DUP4 SLOAD DIV MUL DUP4 MSTORE SWAP2 PUSH1 0x20 ADD SWAP2 PUSH2 0xFA1 JUMP JUMPDEST DUP3 ADD SWAP2 SWAP1 PUSH0 MSTORE PUSH1 0x20 PUSH0 KECCAK256 SWAP1 JUMPDEST DUP2 SLOAD DUP2 MSTORE SWAP1 PUSH1 0x1 ADD SWAP1 PUSH1 0x20 ADD DUP1 DUP4 GT PUSH2 0xF84 JUMPI DUP3 SWAP1 SUB PUSH1 0x1F AND DUP3 ADD SWAP2 JUMPDEST POP POP POP POP POP DUP2 MSTORE PUSH1 0x20 ADD PUSH1 0x2 DUP3 ADD SLOAD DUP2 MSTORE PUSH1 0x20 ADD PUSH1 0x3 DUP3 ADD SLOAD DUP2 MSTORE PUSH1 0x20 ADD PUSH1 0x4 DUP3 ADD DUP1 SLOAD PUSH2 0xFCE SWAP1 PUSH2 0x1E1F JUMP JUMPDEST DUP1 PUSH1 0x1F ADD PUSH1 0x20 DUP1 SWAP2 DIV MUL PUSH1 0x20 ADD PUSH1 0x40 MLOAD SWAP1 DUP2 ADD PUSH1 0x40 MSTORE DUP1 SWAP3 SWAP2 SWAP1 DUP2 DUP2 MSTORE PUSH1 0x20 ADD DUP3 DUP1 SLOAD PUSH2 0xFFA SWAP1 PUSH2 0x1E1F JUMP JUMPDEST DUP1 ISZERO PUSH2 0x1045 JUMPI DUP1 PUSH1 0x1F LT PUSH2 0x101C JUMPI PUSH2 0x100 DUP1 DUP4 SLOAD DIV MUL DUP4 MSTORE SWAP2 PUSH1 0x20 ADD SWAP2 PUSH2 0x1045 JUMP JUMPDEST DUP3 ADD SWAP2 SWAP1 PUSH0 MSTORE PUSH1 0x20 PUSH0 KECCAK256 SWAP1 JUMPDEST DUP2 SLOAD DUP2 MSTORE SWAP1 PUSH1 0x1 ADD SWAP1 PUSH1 0x20 ADD DUP1 DUP4 GT PUSH2 0x1028 JUMPI DUP3 SWAP1 SUB PUSH1 0x1F AND DUP3 ADD SWAP2 JUMPDEST POP POP POP POP POP DUP2 MSTORE PUSH1 0x20 ADD PUSH1 0x5 DUP3 ADD PUSH0 SWAP1 SLOAD SWAP1 PUSH2 0x100 EXP SWAP1 DIV PUSH1 0xFF AND ISZERO ISZERO ISZERO ISZERO DUP2 MSTORE PUSH1 0x20 ADD PUSH1 0x5 DUP3 ADD PUSH1 0x1 SWAP1 SLOAD SWAP1 PUSH2 0x100 EXP SWAP1 DIV PUSH1 0xFF AND ISZERO ISZERO ISZERO ISZERO DUP2 MSTORE PUSH1 0x20 ADD PUSH1 0x6 DUP3 ADD SLOAD DUP2 MSTORE POP POP DUP4 DUP4 DUP2 MLOAD DUP2 LT PUSH2 0x10A0 JUMPI PUSH2 0x109F PUSH2 0x1E9F JUMP JUMPDEST JUMPDEST PUSH1 0x20 MUL PUSH1 0x20 ADD ADD DUP2 SWAP1 MSTORE POP DUP2 DUP1 PUSH2 0x10B6 SWAP1 PUSH2 0x24E1 JUMP JUMPDEST SWAP3 POP POP JUMPDEST DUP1 DUP1 PUSH1 0x1 ADD SWAP2 POP POP PUSH2 0xE0E JUMP JUMPDEST POP DUP2 SWAP4 POP POP POP POP SWAP2 SWAP1 POP JUMP JUMPDEST PUSH1 0x16 SLOAD DUP2 JUMP JUMPDEST PUSH1 0x5 DUP2 PUSH1 0xC DUP2 LT PUSH2 0x10E8 JUMPI PUSH0 DUP1 REVERT JUMPDEST ADD PUSH0 SWAP2 POP SWAP1 POP SLOAD DUP2 JUMP JUMPDEST PUSH2 0x10FE DUP5 DUP5 DUP5 DUP5 PUSH2 0x625 JUMP JUMPDEST CALLVALUE EQ PUSH2 0x1108 JUMPI PUSH0 PUSH0 REVERT JUMPDEST DUP4 PUSH1 0x40 MLOAD PUSH1 0x20 ADD PUSH2 0x1119 SWAP2 SWAP1 PUSH2 0x1E89 JUMP JUMPDEST PUSH1 0x40 MLOAD PUSH1 0x20 DUP2 DUP4 SUB SUB DUP2 MSTORE SWAP1 PUSH1 0x40 MSTORE DUP1 MLOAD SWAP1 PUSH1 0x20 ADD KECCAK256 PUSH1 0x1 PUSH1 0x4 DUP7 PUSH1 0x40 MLOAD PUSH2 0x1141 SWAP2 SWAP1 PUSH2 0x1E89 JUMP JUMPDEST SWAP1 DUP2 MSTORE PUSH1 0x20 ADD PUSH1 0x40 MLOAD DUP1 SWAP2 SUB SWAP1 KECCAK256 SLOAD DUP2 SLOAD DUP2 LT PUSH2 0x1161 JUMPI PUSH2 0x1160 PUSH2 0x1E9F JUMP JUMPDEST JUMPDEST SWAP1 PUSH0 MSTORE PUSH1 0x20 PUSH0 KECCAK256 ADD PUSH1 0x40 MLOAD PUSH1 0x20 ADD PUSH2 0x1179 SWAP2 SWAP1 PUSH2 0x1F5E JUMP JUMPDEST PUSH1 0x40 MLOAD PUSH1 0x20 DUP2 DUP4 SUB SUB DUP2 MSTORE SWAP1 PUSH1 0x40 MSTORE DUP1 MLOAD SWAP1 PUSH1 0x20 ADD KECCAK256 EQ PUSH2 0x11CF JUMPI PUSH1 0x40 MLOAD PUSH32 0x8C379A000000000000000000000000000000000000000000000000000000000 DUP2 MSTORE PUSH1 0x4 ADD PUSH2 0x11C6 SWAP1 PUSH2 0x1FE4 JUMP JUMPDEST PUSH1 0x40 MLOAD DUP1 SWAP2 SUB SWAP1 REVERT JUMPDEST PUSH0 PUSH0 SWAP1 POP PUSH0 PUSH0 SWAP1 POP JUMPDEST PUSH1 0x18 SLOAD DUP2 LT ISZERO PUSH2 0x13D8 JUMPI PUSH0 PUSH1 0x17 PUSH0 DUP4 DUP2 MSTORE PUSH1 0x20 ADD SWAP1 DUP2 MSTORE PUSH1 0x20 ADD PUSH0 KECCAK256 SWAP1 POP DUP7 PUSH1 0x40 MLOAD PUSH1 0x20 ADD PUSH2 0x1207 SWAP2 SWAP1 PUSH2 0x1E89 JUMP JUMPDEST PUSH1 0x40 MLOAD PUSH1 0x20 DUP2 DUP4 SUB SUB DUP2 MSTORE SWAP1 PUSH1 0x40 MSTORE DUP1 MLOAD SWAP1 PUSH1 0x20 ADD KECCAK256 DUP2 PUSH1 0x1 ADD PUSH1 0x40 MLOAD PUSH1 0x20 ADD PUSH2 0x1231 SWAP2 SWAP1 PUSH2 0x1F5E JUMP JUMPDEST PUSH1 0x40 MLOAD PUSH1 0x20 DUP2 DUP4 SUB SUB DUP2 MSTORE SWAP1 PUSH1 0x40 MSTORE DUP1 MLOAD SWAP1 PUSH1 0x20 ADD KECCAK256 EQ DUP1 ISZERO PUSH2 0x1262 JUMPI POP DUP1 PUSH1 0x5 ADD PUSH1 0x1 SWAP1 SLOAD SWAP1 PUSH2 0x100 EXP SWAP1 DIV PUSH1 0xFF AND JUMPDEST ISZERO PUSH2 0x13CA JUMPI CALLER DUP2 PUSH0 ADD PUSH0 PUSH2 0x100 EXP DUP2 SLOAD DUP2 PUSH20 0xFFFFFFFFFFFFFFFFFFFFFFFFFFFFFFFFFFFFFFFF MUL NOT AND SWAP1 DUP4 PUSH20 0xFFFFFFFFFFFFFFFFFFFFFFFFFFFFFFFFFFFFFFFF AND MUL OR SWAP1 SSTORE POP PUSH1 0x1 DUP6 EQ PUSH2 0x132F JUMPI PUSH1 0x2 DUP6 EQ PUSH2 0x12F3 JUMPI PUSH1 0x40 MLOAD DUP1 PUSH1 0x40 ADD PUSH1 0x40 MSTORE DUP1 PUSH1 0x5 DUP2 MSTORE PUSH1 0x20 ADD PUSH32 0x4669727374000000000000000000000000000000000000000000000000000000 DUP2 MSTORE POP PUSH2 0x132A JUMP JUMPDEST PUSH1 0x40 MLOAD DUP1 PUSH1 0x40 ADD PUSH1 0x40 MSTORE DUP1 PUSH1 0x8 DUP2 MSTORE PUSH1 0x20 ADD PUSH32 0x427573696E657373000000000000000000000000000000000000000000000000 DUP2 MSTORE POP JUMPDEST PUSH2 0x1366 JUMP JUMPDEST PUSH1 0x40 MLOAD DUP1 PUSH1 0x40 ADD PUSH1 0x40 MSTORE DUP1 PUSH1 0x7 DUP2 MSTORE PUSH1 0x20 ADD PUSH32 0x45636F6E6F6D7900000000000000000000000000000000000000000000000000 DUP2 MSTORE POP JUMPDEST DUP2 PUSH1 0x4 ADD SWAP1 DUP2 PUSH2 0x1376 SWAP2 SWAP1 PUSH2 0x2412 JUMP JUMPDEST POP DUP4 DUP2 PUSH1 0x5 ADD PUSH0 PUSH2 0x100 EXP DUP2 SLOAD DUP2 PUSH1 0xFF MUL NOT AND SWAP1 DUP4 ISZERO ISZERO MUL OR SWAP1 SSTORE POP PUSH0 DUP2 PUSH1 0x5 ADD PUSH1 0x1 PUSH2 0x100 EXP DUP2 SLOAD DUP2 PUSH1 0xFF MUL NOT AND SWAP1 DUP4 ISZERO ISZERO MUL OR SWAP1 SSTORE POP DUP6 DUP2 PUSH1 0x6 ADD DUP2 SWAP1 SSTORE POP CALLVALUE DUP2 PUSH1 0x2 ADD DUP2 SWAP1 SSTORE POP PUSH1 0x1 SWAP3 POP POP PUSH2 0x13D8 JUMP JUMPDEST POP DUP1 DUP1 PUSH1 0x1 ADD SWAP2 POP POP PUSH2 0x11D8 JUMP JUMPDEST POP DUP1 PUSH2 0x1419 JUMPI PUSH1 0x40 MLOAD PUSH32 0x8C379A000000000000000000000000000000000000000000000000000000000 DUP2 MSTORE PUSH1 0x4 ADD PUSH2 0x1410 SWAP1 PUSH2 0x2598 JUMP JUMPDEST PUSH1 0x40 MLOAD DUP1 SWAP2 SUB SWAP1 REVERT JUMPDEST PUSH1 0x3 PUSH1 0x4 DUP7 PUSH1 0x40 MLOAD PUSH2 0x142B SWAP2 SWAP1 PUSH2 0x1E89 JUMP JUMPDEST SWAP1 DUP2 MSTORE PUSH1 0x20 ADD PUSH1 0x40 MLOAD DUP1 SWAP2 SUB SWAP1 KECCAK256 SLOAD DUP2 SLOAD DUP2 LT PUSH2 0x144B JUMPI PUSH2 0x144A PUSH2 0x1E9F JUMP JUMPDEST JUMPDEST SWAP1 PUSH0 MSTORE PUSH1 0x20 PUSH0 KECCAK256 ADD PUSH0 DUP2 SLOAD DUP1 SWAP3 SWAP2 SWAP1 PUSH2 0x1463 SWAP1 PUSH2 0x25B6 JUMP JUMPDEST SWAP2 SWAP1 POP SSTORE POP CALLVALUE PUSH1 0x16 PUSH0 DUP3 DUP3 SLOAD PUSH2 0x1479 SWAP2 SWAP1 PUSH2 0x25DD JUMP JUMPDEST SWAP3 POP POP DUP2 SWAP1 SSTORE POP PUSH1 0x1 PUSH1 0x15 PUSH0 PUSH2 0x100 EXP DUP2 SLOAD DUP2 PUSH1 0xFF MUL NOT AND SWAP1 DUP4 ISZERO ISZERO MUL OR SWAP1 SSTORE POP POP POP POP POP POP JUMP JUMPDEST PUSH1 0x15 PUSH0 SWAP1 SLOAD SWAP1 PUSH2 0x100 EXP SWAP1 DIV PUSH1 0xFF AND DUP2 JUMP JUMPDEST PUSH0 PUSH0 SWAP1 SLOAD SWAP1 PUSH2 0x100 EXP SWAP1 DIV PUSH20 0xFFFFFFFFFFFFFFFFFFFFFFFFFFFFFFFFFFFFFFFF AND PUSH20 0xFFFFFFFFFFFFFFFFFFFFFFFFFFFFFFFFFFFFFFFF AND CALLER PUSH20 0xFFFFFFFFFFFFFFFFFFFFFFFFFFFFFFFFFFFFFFFF AND EQ PUSH2 0x150A JUMPI PUSH0 PUSH0 REVERT JUMPDEST PUSH0 PUSH0 SWAP1 POP JUMPDEST PUSH1 0x1E DUP2 LT ISZERO PUSH2 0x1687 JUMPI PUSH0 PUSH1 0x18 SLOAD SWAP1 POP PUSH1 0x40 MLOAD DUP1 PUSH2 0x100 ADD PUSH1 0x40 MSTORE DUP1 DUP7 PUSH20 0xFFFFFFFFFFFFFFFFFFFFFFFFFFFFFFFFFFFFFFFF AND DUP2 MSTORE PUSH1 0x20 ADD DUP6 DUP2 MSTORE PUSH1 0x20 ADD DUP5 DUP2 MSTORE PUSH1 0x20 ADD DUP4 DUP2 MSTORE PUSH1 0x20 ADD PUSH1 0x40 MLOAD DUP1 PUSH1 0x20 ADD PUSH1 0x40 MSTORE DUP1 PUSH0 DUP2 MSTORE POP DUP2 MSTORE PUSH1 0x20 ADD PUSH0 ISZERO ISZERO DUP2 MSTORE PUSH1 0x20 ADD PUSH1 0x1 ISZERO ISZERO DUP2 MSTORE PUSH1 0x20 ADD PUSH0 DUP2 MSTORE POP PUSH1 0x17 PUSH0 DUP4 DUP2 MSTORE PUSH1 0x20 ADD SWAP1 DUP2 MSTORE PUSH1 0x20 ADD PUSH0 KECCAK256 PUSH0 DUP3 ADD MLOAD DUP2 PUSH0 ADD PUSH0 PUSH2 0x100 EXP DUP2 SLOAD DUP2 PUSH20 0xFFFFFFFFFFFFFFFFFFFFFFFFFFFFFFFFFFFFFFFF MUL NOT AND SWAP1 DUP4 PUSH20 0xFFFFFFFFFFFFFFFFFFFFFFFFFFFFFFFFFFFFFFFF AND MUL OR SWAP1 SSTORE POP PUSH1 0x20 DUP3 ADD MLOAD DUP2 PUSH1 0x1 ADD SWAP1 DUP2 PUSH2 0x15EB SWAP2 SWAP1 PUSH2 0x2412 JUMP JUMPDEST POP PUSH1 0x40 DUP3 ADD MLOAD DUP2 PUSH1 0x2 ADD SSTORE PUSH1 0x60 DUP3 ADD MLOAD DUP2 PUSH1 0x3 ADD SSTORE PUSH1 0x80 DUP3 ADD MLOAD DUP2 PUSH1 0x4 ADD SWAP1 DUP2 PUSH2 0x1615 SWAP2 SWAP1 PUSH2 0x2412 JUMP JUMPDEST POP PUSH1 0xA0 DUP3 ADD MLOAD DUP2 PUSH1 0x5 ADD PUSH0 PUSH2 0x100 EXP DUP2 SLOAD DUP2 PUSH1 0xFF MUL NOT AND SWAP1 DUP4 ISZERO ISZERO MUL OR SWAP1 SSTORE POP PUSH1 0xC0 DUP3 ADD MLOAD DUP2 PUSH1 0x5 ADD PUSH1 0x1 PUSH2 0x100 EXP DUP2 SLOAD DUP2 PUSH1 0xFF MUL NOT AND SWAP1 DUP4 ISZERO ISZERO MUL OR SWAP1 SSTORE POP PUSH1 0xE0 DUP3 ADD MLOAD DUP2 PUSH1 0x6 ADD SSTORE SWAP1 POP POP PUSH1 0x18 PUSH0 DUP2 SLOAD DUP1 SWAP3 SWAP2 SWAP1 PUSH2 0x1674 SWAP1 PUSH2 0x24E1 JUMP JUMPDEST SWAP2 SWAP1 POP SSTORE POP POP DUP1 DUP1 PUSH1 0x1 ADD SWAP2 POP POP PUSH2 0x150F JUMP JUMPDEST POP POP POP POP JUMP JUMPDEST PUSH1 0x40 MLOAD DUP1 PUSH2 0x100 ADD PUSH1 0x40 MSTORE DUP1 PUSH0 PUSH20 0xFFFFFFFFFFFFFFFFFFFFFFFFFFFFFFFFFFFFFFFF AND DUP2 MSTORE PUSH1 0x20 ADD PUSH1 0x60 DUP2 MSTORE PUSH1 0x20 ADD PUSH0 DUP2 MSTORE PUSH1 0x20 ADD PUSH0 DUP2 MSTORE PUSH1 0x20 ADD PUSH1 0x60 DUP2 MSTORE PUSH1 0x20 ADD PUSH0 ISZERO ISZERO DUP2 MSTORE PUSH1 0x20 ADD PUSH0 ISZERO ISZERO DUP2 MSTORE PUSH1 0x20 ADD PUSH0 DUP2 MSTORE POP SWAP1 JUMP JUMPDEST PUSH0 PUSH1 0x40 MLOAD SWAP1 POP SWAP1 JUMP JUMPDEST PUSH0 PUSH0 REVERT JUMPDEST PUSH0 PUSH0 REVERT JUMPDEST PUSH0 DUP2 SWAP1 POP SWAP2 SWAP1 POP JUMP JUMPDEST PUSH2 0x1709 DUP2 PUSH2 0x16F7 JUMP JUMPDEST DUP2 EQ PUSH2 0x1713 JUMPI PUSH0 PUSH0 REVERT JUMPDEST POP JUMP JUMPDEST PUSH0 DUP2 CALLDATALOAD SWAP1 POP PUSH2 0x1724 DUP2 PUSH2 0x1700 JUMP JUMPDEST SWAP3 SWAP2 POP POP JUMP JUMPDEST PUSH0 PUSH1 0x20 DUP3 DUP5 SUB SLT ISZERO PUSH2 0x173F JUMPI PUSH2 0x173E PUSH2 0x16EF JUMP JUMPDEST JUMPDEST PUSH0 PUSH2 0x174C DUP5 DUP3 DUP6 ADD PUSH2 0x1716 JUMP JUMPDEST SWAP2 POP POP SWAP3 SWAP2 POP POP JUMP JUMPDEST PUSH0 PUSH20 0xFFFFFFFFFFFFFFFFFFFFFFFFFFFFFFFFFFFFFFFF DUP3 AND SWAP1 POP SWAP2 SWAP1 POP JUMP JUMPDEST PUSH0 PUSH2 0x177E DUP3 PUSH2 0x1755 JUMP JUMPDEST SWAP1 POP SWAP2 SWAP1 POP JUMP JUMPDEST PUSH2 0x178E DUP2 PUSH2 0x1774 JUMP JUMPDEST DUP3 MSTORE POP POP JUMP JUMPDEST PUSH0 DUP2 MLOAD SWAP1 POP SWAP2 SWAP1 POP JUMP JUMPDEST PUSH0 DUP3 DUP3 MSTORE PUSH1 0x20 DUP3 ADD SWAP1 POP SWAP3 SWAP2 POP POP JUMP JUMPDEST DUP3 DUP2 DUP4 MCOPY PUSH0 DUP4 DUP4 ADD MSTORE POP POP POP JUMP JUMPDEST PUSH0 PUSH1 0x1F NOT PUSH1 0x1F DUP4 ADD AND SWAP1 POP SWAP2 SWAP1 POP JUMP JUMPDEST PUSH0 PUSH2 0x17D6 DUP3 PUSH2 0x1794 JUMP JUMPDEST PUSH2 0x17E0 DUP2 DUP6 PUSH2 0x179E JUMP JUMPDEST SWAP4 POP PUSH2 0x17F0 DUP2 DUP6 PUSH1 0x20 DUP7 ADD PUSH2 0x17AE JUMP JUMPDEST PUSH2 0x17F9 DUP2 PUSH2 0x17BC JUMP JUMPDEST DUP5 ADD SWAP2 POP POP SWAP3 SWAP2 POP POP JUMP JUMPDEST PUSH2 0x180D DUP2 PUSH2 0x16F7 JUMP JUMPDEST DUP3 MSTORE POP POP JUMP JUMPDEST PUSH0 DUP2 ISZERO ISZERO SWAP1 POP SWAP2 SWAP1 POP JUMP JUMPDEST PUSH2 0x1827 DUP2 PUSH2 0x1813 JUMP JUMPDEST DUP3 MSTORE POP POP JUMP JUMPDEST PUSH0 PUSH2 0x100 DUP3 ADD SWAP1 POP PUSH2 0x1841 PUSH0 DUP4 ADD DUP12 PUSH2 0x1785 JUMP JUMPDEST DUP2 DUP2 SUB PUSH1 0x20 DUP4 ADD MSTORE PUSH2 0x1853 DUP2 DUP11 PUSH2 0x17CC JUMP JUMPDEST SWAP1 POP PUSH2 0x1862 PUSH1 0x40 DUP4 ADD DUP10 PUSH2 0x1804 JUMP JUMPDEST PUSH2 0x186F PUSH1 0x60 DUP4 ADD DUP9 PUSH2 0x1804 JUMP JUMPDEST DUP2 DUP2 SUB PUSH1 0x80 DUP4 ADD MSTORE PUSH2 0x1881 DUP2 DUP8 PUSH2 0x17CC JUMP JUMPDEST SWAP1 POP PUSH2 0x1890 PUSH1 0xA0 DUP4 ADD DUP7 PUSH2 0x181E JUMP JUMPDEST PUSH2 0x189D PUSH1 0xC0 DUP4 ADD DUP6 PUSH2 0x181E JUMP JUMPDEST PUSH2 0x18AA PUSH1 0xE0 DUP4 ADD DUP5 PUSH2 0x1804 JUMP JUMPDEST SWAP10 SWAP9 POP POP POP POP POP POP POP POP POP JUMP JUMPDEST PUSH0 PUSH1 0x20 DUP3 ADD SWAP1 POP PUSH2 0x18CA PUSH0 DUP4 ADD DUP5 PUSH2 0x1804 JUMP JUMPDEST SWAP3 SWAP2 POP POP JUMP JUMPDEST PUSH0 PUSH0 REVERT JUMPDEST PUSH0 PUSH0 REVERT JUMPDEST PUSH32 0x4E487B7100000000000000000000000000000000000000000000000000000000 PUSH0 MSTORE PUSH1 0x41 PUSH1 0x4 MSTORE PUSH1 0x24 PUSH0 REVERT JUMPDEST PUSH2 0x190E DUP3 PUSH2 0x17BC JUMP JUMPDEST DUP2 ADD DUP2 DUP2 LT PUSH8 0xFFFFFFFFFFFFFFFF DUP3 GT OR ISZERO PUSH2 0x192D JUMPI PUSH2 0x192C PUSH2 0x18D8 JUMP JUMPDEST JUMPDEST DUP1 PUSH1 0x40 MSTORE POP POP POP JUMP JUMPDEST PUSH0 PUSH2 0x193F PUSH2 0x16E6 JUMP JUMPDEST SWAP1 POP PUSH2 0x194B DUP3 DUP3 PUSH2 0x1905 JUMP JUMPDEST SWAP2 SWAP1 POP JUMP JUMPDEST PUSH0 PUSH8 0xFFFFFFFFFFFFFFFF DUP3 GT ISZERO PUSH2 0x196A JUMPI PUSH2 0x1969 PUSH2 0x18D8 JUMP JUMPDEST JUMPDEST PUSH2 0x1973 DUP3 PUSH2 0x17BC JUMP JUMPDEST SWAP1 POP PUSH1 0x20 DUP2 ADD SWAP1 POP SWAP2 SWAP1 POP JUMP JUMPDEST DUP3 DUP2 DUP4 CALLDATACOPY PUSH0 DUP4 DUP4 ADD MSTORE POP POP POP JUMP JUMPDEST PUSH0 PUSH2 0x19A0 PUSH2 0x199B DUP5 PUSH2 0x1950 JUMP JUMPDEST PUSH2 0x1936 JUMP JUMPDEST SWAP1 POP DUP3 DUP2 MSTORE PUSH1 0x20 DUP2 ADD DUP5 DUP5 DUP5 ADD GT ISZERO PUSH2 0x19BC JUMPI PUSH2 0x19BB PUSH2 0x18D4 JUMP JUMPDEST JUMPDEST PUSH2 0x19C7 DUP5 DUP3 DUP6 PUSH2 0x1980 JUMP JUMPDEST POP SWAP4 SWAP3 POP POP POP JUMP JUMPDEST PUSH0 DUP3 PUSH1 0x1F DUP4 ADD SLT PUSH2 0x19E3 JUMPI PUSH2 0x19E2 PUSH2 0x18D0 JUMP JUMPDEST JUMPDEST DUP2 CALLDATALOAD PUSH2 0x19F3 DUP5 DUP3 PUSH1 0x20 DUP7 ADD PUSH2 0x198E JUMP JUMPDEST SWAP2 POP POP SWAP3 SWAP2 POP POP JUMP JUMPDEST PUSH2 0x1A05 DUP2 PUSH2 0x1813 JUMP JUMPDEST DUP2 EQ PUSH2 0x1A0F JUMPI PUSH0 PUSH0 REVERT JUMPDEST POP JUMP JUMPDEST PUSH0 DUP2 CALLDATALOAD SWAP1 POP PUSH2 0x1A20 DUP2 PUSH2 0x19FC JUMP JUMPDEST SWAP3 SWAP2 POP POP JUMP JUMPDEST PUSH0 PUSH0 PUSH0 PUSH0 PUSH1 0x80 DUP6 DUP8 SUB SLT ISZERO PUSH2 0x1A3E JUMPI PUSH2 0x1A3D PUSH2 0x16EF JUMP JUMPDEST JUMPDEST PUSH0 DUP6 ADD CALLDATALOAD PUSH8 0xFFFFFFFFFFFFFFFF DUP2 GT ISZERO PUSH2 0x1A5B JUMPI PUSH2 0x1A5A PUSH2 0x16F3 JUMP JUMPDEST JUMPDEST PUSH2 0x1A67 DUP8 DUP3 DUP9 ADD PUSH2 0x19CF JUMP JUMPDEST SWAP5 POP POP PUSH1 0x20 PUSH2 0x1A78 DUP8 DUP3 DUP9 ADD PUSH2 0x1716 JUMP JUMPDEST SWAP4 POP POP PUSH1 0x40 PUSH2 0x1A89 DUP8 DUP3 DUP9 ADD PUSH2 0x1716 JUMP JUMPDEST SWAP3 POP POP PUSH1 0x60 PUSH2 0x1A9A DUP8 DUP3 DUP9 ADD PUSH2 0x1A12 JUMP JUMPDEST SWAP2 POP POP SWAP3 SWAP6 SWAP2 SWAP5 POP SWAP3 POP JUMP JUMPDEST PUSH2 0x1AAF DUP2 PUSH2 0x1774 JUMP JUMPDEST DUP2 EQ PUSH2 0x1AB9 JUMPI PUSH0 PUSH0 REVERT JUMPDEST POP JUMP JUMPDEST PUSH0 DUP2 CALLDATALOAD SWAP1 POP PUSH2 0x1ACA DUP2 PUSH2 0x1AA6 JUMP JUMPDEST SWAP3 SWAP2 POP POP JUMP JUMPDEST PUSH0 PUSH1 0x20 DUP3 DUP5 SUB SLT ISZERO PUSH2 0x1AE5 JUMPI PUSH2 0x1AE4 PUSH2 0x16EF JUMP JUMPDEST JUMPDEST PUSH0 PUSH2 0x1AF2 DUP5 DUP3 DUP6 ADD PUSH2 0x1ABC JUMP JUMPDEST SWAP2 POP POP SWAP3 SWAP2 POP POP JUMP JUMPDEST PUSH0 PUSH1 0x20 DUP3 ADD SWAP1 POP PUSH2 0x1B0E PUSH0 DUP4 ADD DUP5 PUSH2 0x181E JUMP JUMPDEST SWAP3 SWAP2 POP POP JUMP JUMPDEST PUSH0 PUSH1 0x20 DUP3 DUP5 SUB SLT ISZERO PUSH2 0x1B29 JUMPI PUSH2 0x1B28 PUSH2 0x16EF JUMP JUMPDEST JUMPDEST PUSH0 DUP3 ADD CALLDATALOAD PUSH8 0xFFFFFFFFFFFFFFFF DUP2 GT ISZERO PUSH2 0x1B46 JUMPI PUSH2 0x1B45 PUSH2 0x16F3 JUMP JUMPDEST JUMPDEST PUSH2 0x1B52 DUP5 DUP3 DUP6 ADD PUSH2 0x19CF JUMP JUMPDEST SWAP2 POP POP SWAP3 SWAP2 POP POP JUMP JUMPDEST PUSH0 PUSH0 PUSH1 0x40 DUP4 DUP6 SUB SLT ISZERO PUSH2 0x1B71 JUMPI PUSH2 0x1B70 PUSH2 0x16EF JUMP JUMPDEST JUMPDEST PUSH0 DUP4 ADD CALLDATALOAD PUSH8 0xFFFFFFFFFFFFFFFF DUP2 GT ISZERO PUSH2 0x1B8E JUMPI PUSH2 0x1B8D PUSH2 0x16F3 JUMP JUMPDEST JUMPDEST PUSH2 0x1B9A DUP6 DUP3 DUP7 ADD PUSH2 0x19CF JUMP JUMPDEST SWAP3 POP POP PUSH1 0x20 PUSH2 0x1BAB DUP6 DUP3 DUP7 ADD PUSH2 0x1716 JUMP JUMPDEST SWAP2 POP POP SWAP3 POP SWAP3 SWAP1 POP JUMP JUMPDEST PUSH0 PUSH1 0x20 DUP3 ADD SWAP1 POP DUP2 DUP2 SUB PUSH0 DUP4 ADD MSTORE PUSH2 0x1BCD DUP2 DUP5 PUSH2 0x17CC JUMP JUMPDEST SWAP1 POP SWAP3 SWAP2 POP POP JUMP JUMPDEST PUSH0 PUSH1 0x20 DUP3 ADD SWAP1 POP PUSH2 0x1BE8 PUSH0 DUP4 ADD DUP5 PUSH2 0x1785 JUMP JUMPDEST SWAP3 SWAP2 POP POP JUMP JUMPDEST PUSH0 DUP2 MLOAD SWAP1 POP SWAP2 SWAP1 POP JUMP JUMPDEST PUSH0 DUP3 DUP3 MSTORE PUSH1 0x20 DUP3 ADD SWAP1 POP SWAP3 SWAP2 POP POP JUMP JUMPDEST PUSH0 DUP2 SWAP1 POP PUSH1 0x20 DUP3 ADD SWAP1 POP SWAP2 SWAP1 POP JUMP JUMPDEST PUSH2 0x1C20 DUP2 PUSH2 0x1774 JUMP JUMPDEST DUP3 MSTORE POP POP JUMP JUMPDEST PUSH0 DUP3 DUP3 MSTORE PUSH1 0x20 DUP3 ADD SWAP1 POP SWAP3 SWAP2 POP POP JUMP JUMPDEST PUSH0 PUSH2 0x1C40 DUP3 PUSH2 0x1794 JUMP JUMPDEST PUSH2 0x1C4A DUP2 DUP6 PUSH2 0x1C26 JUMP JUMPDEST SWAP4 POP PUSH2 0x1C5A DUP2 DUP6 PUSH1 0x20 DUP7 ADD PUSH2 0x17AE JUMP JUMPDEST PUSH2 0x1C63 DUP2 PUSH2 0x17BC JUMP JUMPDEST DUP5 ADD SWAP2 POP POP SWAP3 SWAP2 POP POP JUMP JUMPDEST PUSH2 0x1C77 DUP2 PUSH2 0x16F7 JUMP JUMPDEST DUP3 MSTORE POP POP JUMP JUMPDEST PUSH2 0x1C86 DUP2 PUSH2 0x1813 JUMP JUMPDEST DUP3 MSTORE POP POP JUMP JUMPDEST PUSH0 PUSH2 0x100 DUP4 ADD PUSH0 DUP4 ADD MLOAD PUSH2 0x1CA2 PUSH0 DUP7 ADD DUP3 PUSH2 0x1C17 JUMP JUMPDEST POP PUSH1 0x20 DUP4 ADD MLOAD DUP5 DUP3 SUB PUSH1 0x20 DUP7 ADD MSTORE PUSH2 0x1CBA DUP3 DUP3 PUSH2 0x1C36 JUMP JUMPDEST SWAP2 POP POP PUSH1 0x40 DUP4 ADD MLOAD PUSH2 0x1CCF PUSH1 0x40 DUP7 ADD DUP3 PUSH2 0x1C6E JUMP JUMPDEST POP PUSH1 0x60 DUP4 ADD MLOAD PUSH2 0x1CE2 PUSH1 0x60 DUP7 ADD DUP3 PUSH2 0x1C6E JUMP JUMPDEST POP PUSH1 0x80 DUP4 ADD MLOAD DUP5 DUP3 SUB PUSH1 0x80 DUP7 ADD MSTORE PUSH2 0x1CFA DUP3 DUP3 PUSH2 0x1C36 JUMP JUMPDEST SWAP2 POP POP PUSH1 0xA0 DUP4 ADD MLOAD PUSH2 0x1D0F PUSH1 0xA0 DUP7 ADD DUP3 PUSH2 0x1C7D JUMP JUMPDEST POP PUSH1 0xC0 DUP4 ADD MLOAD PUSH2 0x1D22 PUSH1 0xC0 DUP7 ADD DUP3 PUSH2 0x1C7D JUMP JUMPDEST POP PUSH1 0xE0 DUP4 ADD MLOAD PUSH2 0x1D35 PUSH1 0xE0 DUP7 ADD DUP3 PUSH2 0x1C6E JUMP JUMPDEST POP DUP1 SWAP2 POP POP SWAP3 SWAP2 POP POP JUMP JUMPDEST PUSH0 PUSH2 0x1D4B DUP4 DUP4 PUSH2 0x1C8C JUMP JUMPDEST SWAP1 POP SWAP3 SWAP2 POP POP JUMP JUMPDEST PUSH0 PUSH1 0x20 DUP3 ADD SWAP1 POP SWAP2 SWAP1 POP JUMP JUMPDEST PUSH0 PUSH2 0x1D69 DUP3 PUSH2 0x1BEE JUMP JUMPDEST PUSH2 0x1D73 DUP2 DUP6 PUSH2 0x1BF8 JUMP JUMPDEST SWAP4 POP DUP4 PUSH1 0x20 DUP3 MUL DUP6 ADD PUSH2 0x1D85 DUP6 PUSH2 0x1C08 JUMP JUMPDEST DUP1 PUSH0 JUMPDEST DUP6 DUP2 LT ISZERO PUSH2 0x1DC0 JUMPI DUP5 DUP5 SUB DUP10 MSTORE DUP2 MLOAD PUSH2 0x1DA1 DUP6 DUP3 PUSH2 0x1D40 JUMP JUMPDEST SWAP5 POP PUSH2 0x1DAC DUP4 PUSH2 0x1D53 JUMP JUMPDEST SWAP3 POP PUSH1 0x20 DUP11 ADD SWAP10 POP POP PUSH1 0x1 DUP2 ADD SWAP1 POP PUSH2 0x1D88 JUMP JUMPDEST POP DUP3 SWAP8 POP DUP8 SWAP6 POP POP POP POP POP POP SWAP3 SWAP2 POP POP JUMP JUMPDEST PUSH0 PUSH1 0x20 DUP3 ADD SWAP1 POP DUP2 DUP2 SUB PUSH0 DUP4 ADD MSTORE PUSH2 0x1DEA DUP2 DUP5 PUSH2 0x1D5F JUMP JUMPDEST SWAP1 POP SWAP3 SWAP2 POP POP JUMP JUMPDEST PUSH32 0x4E487B7100000000000000000000000000000000000000000000000000000000 PUSH0 MSTORE PUSH1 0x22 PUSH1 0x4 MSTORE PUSH1 0x24 PUSH0 REVERT JUMPDEST PUSH0 PUSH1 0x2 DUP3 DIV SWAP1 POP PUSH1 0x1 DUP3 AND DUP1 PUSH2 0x1E36 JUMPI PUSH1 0x7F DUP3 AND SWAP2 POP JUMPDEST PUSH1 0x20 DUP3 LT DUP2 SUB PUSH2 0x1E49 JUMPI PUSH2 0x1E48 PUSH2 0x1DF2 JUMP JUMPDEST JUMPDEST POP SWAP2 SWAP1 POP JUMP JUMPDEST PUSH0 DUP2 SWAP1 POP SWAP3 SWAP2 POP POP JUMP JUMPDEST PUSH0 PUSH2 0x1E63 DUP3 PUSH2 0x1794 JUMP JUMPDEST PUSH2 0x1E6D DUP2 DUP6 PUSH2 0x1E4F JUMP JUMPDEST SWAP4 POP PUSH2 0x1E7D DUP2 DUP6 PUSH1 0x20 DUP7 ADD PUSH2 0x17AE JUMP JUMPDEST DUP1 DUP5 ADD SWAP2 POP POP SWAP3 SWAP2 POP POP JUMP JUMPDEST PUSH0 PUSH2 0x1E94 DUP3 DUP5 PUSH2 0x1E59 JUMP JUMPDEST SWAP2 POP DUP2 SWAP1 POP SWAP3 SWAP2 POP POP JUMP JUMPDEST PUSH32 0x4E487B7100000000000000000000000000000000000000000000000000000000 PUSH0 MSTORE PUSH1 0x32 PUSH1 0x4 MSTORE PUSH1 0x24 PUSH0 REVERT JUMPDEST PUSH0 DUP2 SWAP1 POP DUP2 PUSH0 MSTORE PUSH1 0x20 PUSH0 KECCAK256 SWAP1 POP SWAP2 SWAP1 POP JUMP JUMPDEST PUSH0 DUP2 SLOAD PUSH2 0x1EEA DUP2 PUSH2 0x1E1F JUMP JUMPDEST PUSH2 0x1EF4 DUP2 DUP7 PUSH2 0x1E4F JUMP JUMPDEST SWAP5 POP PUSH1 0x1 DUP3 AND PUSH0 DUP2 EQ PUSH2 0x1F0E JUMPI PUSH1 0x1 DUP2 EQ PUSH2 0x1F23 JUMPI PUSH2 0x1F55 JUMP JUMPDEST PUSH1 0xFF NOT DUP4 AND DUP7 MSTORE DUP2 ISZERO ISZERO DUP3 MUL DUP7 ADD SWAP4 POP PUSH2 0x1F55 JUMP JUMPDEST PUSH2 0x1F2C DUP6 PUSH2 0x1ECC JUMP JUMPDEST PUSH0 JUMPDEST DUP4 DUP2 LT ISZERO PUSH2 0x1F4D JUMPI DUP2 SLOAD DUP2 DUP10 ADD MSTORE PUSH1 0x1 DUP3 ADD SWAP2 POP PUSH1 0x20 DUP2 ADD SWAP1 POP PUSH2 0x1F2E JUMP JUMPDEST DUP4 DUP9 ADD SWAP6 POP POP POP JUMPDEST POP POP POP SWAP3 SWAP2 POP POP JUMP JUMPDEST PUSH0 PUSH2 0x1F69 DUP3 DUP5 PUSH2 0x1EDE JUMP JUMPDEST SWAP2 POP DUP2 SWAP1 POP SWAP3 SWAP2 POP POP JUMP JUMPDEST PUSH32 0x4572726F723A20546869732064657374696E6174696F6E20646F65736E277420 PUSH0 DUP3 ADD MSTORE PUSH32 0x6578697374210000000000000000000000000000000000000000000000000000 PUSH1 0x20 DUP3 ADD MSTORE POP JUMP JUMPDEST PUSH0 PUSH2 0x1FCE PUSH1 0x26 DUP4 PUSH2 0x179E JUMP JUMPDEST SWAP2 POP PUSH2 0x1FD9 DUP3 PUSH2 0x1F74 JUMP JUMPDEST PUSH1 0x40 DUP3 ADD SWAP1 POP SWAP2 SWAP1 POP JUMP JUMPDEST PUSH0 PUSH1 0x20 DUP3 ADD SWAP1 POP DUP2 DUP2 SUB PUSH0 DUP4 ADD MSTORE PUSH2 0x1FFB DUP2 PUSH2 0x1FC2 JUMP JUMPDEST SWAP1 POP SWAP2 SWAP1 POP JUMP JUMPDEST PUSH32 0x4E487B7100000000000000000000000000000000000000000000000000000000 PUSH0 MSTORE PUSH1 0x11 PUSH1 0x4 MSTORE PUSH1 0x24 PUSH0 REVERT JUMPDEST PUSH0 PUSH2 0x2039 DUP3 PUSH2 0x16F7 JUMP JUMPDEST SWAP2 POP PUSH2 0x2044 DUP4 PUSH2 0x16F7 JUMP JUMPDEST SWAP3 POP DUP3 DUP3 SUB SWAP1 POP DUP2 DUP2 GT ISZERO PUSH2 0x205C JUMPI PUSH2 0x205B PUSH2 0x2002 JUMP JUMPDEST JUMPDEST SWAP3 SWAP2 POP POP JUMP JUMPDEST PUSH0 PUSH2 0x206C DUP3 PUSH2 0x16F7 JUMP JUMPDEST SWAP2 POP PUSH2 0x2077 DUP4 PUSH2 0x16F7 JUMP JUMPDEST SWAP3 POP DUP3 DUP3 MUL PUSH2 0x2085 DUP2 PUSH2 0x16F7 JUMP JUMPDEST SWAP2 POP DUP3 DUP3 DIV DUP5 EQ DUP4 ISZERO OR PUSH2 0x209C JUMPI PUSH2 0x209B PUSH2 0x2002 JUMP JUMPDEST JUMPDEST POP SWAP3 SWAP2 POP POP JUMP JUMPDEST PUSH32 0x4E487B7100000000000000000000000000000000000000000000000000000000 PUSH0 MSTORE PUSH1 0x12 PUSH1 0x4 MSTORE PUSH1 0x24 PUSH0 REVERT JUMPDEST PUSH0 PUSH2 0x20DA DUP3 PUSH2 0x16F7 JUMP JUMPDEST SWAP2 POP PUSH2 0x20E5 DUP4 PUSH2 0x16F7 JUMP JUMPDEST SWAP3 POP DUP3 PUSH2 0x20F5 JUMPI PUSH2 0x20F4 PUSH2 0x20A3 JUMP JUMPDEST JUMPDEST DUP3 DUP3 DIV SWAP1 POP SWAP3 SWAP2 POP POP JUMP JUMPDEST PUSH32 0x596F7520617265206E6F74207468652043454F21000000000000000000000000 PUSH0 DUP3 ADD MSTORE POP JUMP JUMPDEST PUSH0 PUSH2 0x2134 PUSH1 0x14 DUP4 PUSH2 0x179E JUMP JUMPDEST SWAP2 POP PUSH2 0x213F DUP3 PUSH2 0x2100 JUMP JUMPDEST PUSH1 0x20 DUP3 ADD SWAP1 POP SWAP2 SWAP1 POP JUMP JUMPDEST PUSH0 PUSH1 0x20 DUP3 ADD SWAP1 POP DUP2 DUP2 SUB PUSH0 DUP4 ADD MSTORE PUSH2 0x2161 DUP2 PUSH2 0x2128 JUMP JUMPDEST SWAP1 POP SWAP2 SWAP1 POP JUMP JUMPDEST PUSH32 0x4572726F723A20546869732064657374696E6174696F6E20616C726561647920 PUSH0 DUP3 ADD MSTORE PUSH32 0x6578697374732100000000000000000000000000000000000000000000000000 PUSH1 0x20 DUP3 ADD MSTORE POP JUMP JUMPDEST PUSH0 PUSH2 0x21C2 PUSH1 0x27 DUP4 PUSH2 0x179E JUMP JUMPDEST SWAP2 POP PUSH2 0x21CD DUP3 PUSH2 0x2168 JUMP JUMPDEST PUSH1 0x40 DUP3 ADD SWAP1 POP SWAP2 SWAP1 POP JUMP JUMPDEST PUSH0 PUSH1 0x20 DUP3 ADD SWAP1 POP DUP2 DUP2 SUB PUSH0 DUP4 ADD MSTORE PUSH2 0x21EF DUP2 PUSH2 0x21B6 JUMP JUMPDEST SWAP1 POP SWAP2 SWAP1 POP JUMP JUMPDEST PUSH32 0x4572726F723A20426173652070726963652063616E6E6F742062652062656C6F PUSH0 DUP3 ADD MSTORE PUSH32 0x7720333020576569210000000000000000000000000000000000000000000000 PUSH1 0x20 DUP3 ADD MSTORE POP JUMP JUMPDEST PUSH0 PUSH2 0x2250 PUSH1 0x29 DUP4 PUSH2 0x179E JUMP JUMPDEST SWAP2 POP PUSH2 0x225B DUP3 PUSH2 0x21F6 JUMP JUMPDEST PUSH1 0x40 DUP3 ADD SWAP1 POP SWAP2 SWAP1 POP JUMP JUMPDEST PUSH0 PUSH1 0x20 DUP3 ADD SWAP1 POP DUP2 DUP2 SUB PUSH0 DUP4 ADD MSTORE PUSH2 0x227D DUP2 PUSH2 0x2244 JUMP JUMPDEST SWAP1 POP SWAP2 SWAP1 POP JUMP JUMPDEST PUSH0 PUSH1 0x20 PUSH1 0x1F DUP4 ADD DIV SWAP1 POP SWAP2 SWAP1 POP JUMP JUMPDEST PUSH0 DUP3 DUP3 SHL SWAP1 POP SWAP3 SWAP2 POP POP JUMP JUMPDEST PUSH0 PUSH1 0x8 DUP4 MUL PUSH2 0x22CE PUSH32 0xFFFFFFFFFFFFFFFFFFFFFFFFFFFFFFFFFFFFFFFFFFFFFFFFFFFFFFFFFFFFFFFF DUP3 PUSH2 0x2293 JUMP JUMPDEST PUSH2 0x22D8 DUP7 DUP4 PUSH2 0x2293 JUMP JUMPDEST SWAP6 POP DUP1 NOT DUP5 AND SWAP4 POP DUP1 DUP7 AND DUP5 OR SWAP3 POP POP POP SWAP4 SWAP3 POP POP POP JUMP JUMPDEST PUSH0 DUP2 SWAP1 POP SWAP2 SWAP1 POP JUMP JUMPDEST PUSH0 PUSH2 0x2313 PUSH2 0x230E PUSH2 0x2309 DUP5 PUSH2 0x16F7 JUMP JUMPDEST PUSH2 0x22F0 JUMP JUMPDEST PUSH2 0x16F7 JUMP JUMPDEST SWAP1 POP SWAP2 SWAP1 POP JUMP JUMPDEST PUSH0 DUP2 SWAP1 POP SWAP2 SWAP1 POP JUMP JUMPDEST PUSH2 0x232C DUP4 PUSH2 0x22F9 JUMP JUMPDEST PUSH2 0x2340 PUSH2 0x2338 DUP3 PUSH2 0x231A JUMP JUMPDEST DUP5 DUP5 SLOAD PUSH2 0x229F JUMP JUMPDEST DUP3 SSTORE POP POP POP POP JUMP JUMPDEST PUSH0 PUSH0 SWAP1 POP SWAP1 JUMP JUMPDEST PUSH2 0x2357 PUSH2 0x2348 JUMP JUMPDEST PUSH2 0x2362 DUP2 DUP5 DUP5 PUSH2 0x2323 JUMP JUMPDEST POP POP POP JUMP JUMPDEST JUMPDEST DUP2 DUP2 LT ISZERO PUSH2 0x2385 JUMPI PUSH2 0x237A PUSH0 DUP3 PUSH2 0x234F JUMP JUMPDEST PUSH1 0x1 DUP2 ADD SWAP1 POP PUSH2 0x2368 JUMP JUMPDEST POP POP JUMP JUMPDEST PUSH1 0x1F DUP3 GT ISZERO PUSH2 0x23CA JUMPI PUSH2 0x239B DUP2 PUSH2 0x1ECC JUMP JUMPDEST PUSH2 0x23A4 DUP5 PUSH2 0x2284 JUMP JUMPDEST DUP2 ADD PUSH1 0x20 DUP6 LT ISZERO PUSH2 0x23B3 JUMPI DUP2 SWAP1 POP JUMPDEST PUSH2 0x23C7 PUSH2 0x23BF DUP6 PUSH2 0x2284 JUMP JUMPDEST DUP4 ADD DUP3 PUSH2 0x2367 JUMP JUMPDEST POP POP JUMPDEST POP POP POP JUMP JUMPDEST PUSH0 DUP3 DUP3 SHR SWAP1 POP SWAP3 SWAP2 POP POP JUMP JUMPDEST PUSH0 PUSH2 0x23EA PUSH0 NOT DUP5 PUSH1 0x8 MUL PUSH2 0x23CF JUMP JUMPDEST NOT DUP1 DUP4 AND SWAP2 POP POP SWAP3 SWAP2 POP POP JUMP JUMPDEST PUSH0 PUSH2 0x2402 DUP4 DUP4 PUSH2 0x23DB JUMP JUMPDEST SWAP2 POP DUP3 PUSH1 0x2 MUL DUP3 OR SWAP1 POP SWAP3 SWAP2 POP POP JUMP JUMPDEST PUSH2 0x241B DUP3 PUSH2 0x1794 JUMP JUMPDEST PUSH8 0xFFFFFFFFFFFFFFFF DUP2 GT ISZERO PUSH2 0x2434 JUMPI PUSH2 0x2433 PUSH2 0x18D8 JUMP JUMPDEST JUMPDEST PUSH2 0x243E DUP3 SLOAD PUSH2 0x1E1F JUMP JUMPDEST PUSH2 0x2449 DUP3 DUP3 DUP6 PUSH2 0x2389 JUMP JUMPDEST PUSH0 PUSH1 0x20 SWAP1 POP PUSH1 0x1F DUP4 GT PUSH1 0x1 DUP2 EQ PUSH2 0x247A JUMPI PUSH0 DUP5 ISZERO PUSH2 0x2468 JUMPI DUP3 DUP8 ADD MLOAD SWAP1 POP JUMPDEST PUSH2 0x2472 DUP6 DUP3 PUSH2 0x23F7 JUMP JUMPDEST DUP7 SSTORE POP PUSH2 0x24D9 JUMP JUMPDEST PUSH1 0x1F NOT DUP5 AND PUSH2 0x2488 DUP7 PUSH2 0x1ECC JUMP JUMPDEST PUSH0 JUMPDEST DUP3 DUP2 LT ISZERO PUSH2 0x24AF JUMPI DUP5 DUP10 ADD MLOAD DUP3 SSTORE PUSH1 0x1 DUP3 ADD SWAP2 POP PUSH1 0x20 DUP6 ADD SWAP5 POP PUSH1 0x20 DUP2 ADD SWAP1 POP PUSH2 0x248A JUMP JUMPDEST DUP7 DUP4 LT ISZERO PUSH2 0x24CC JUMPI DUP5 DUP10 ADD MLOAD PUSH2 0x24C8 PUSH1 0x1F DUP10 AND DUP3 PUSH2 0x23DB JUMP JUMPDEST DUP4 SSTORE POP JUMPDEST PUSH1 0x1 PUSH1 0x2 DUP9 MUL ADD DUP9 SSTORE POP POP POP JUMPDEST POP POP POP POP POP POP JUMP JUMPDEST PUSH0 PUSH2 0x24EB DUP3 PUSH2 0x16F7 JUMP JUMPDEST SWAP2 POP PUSH32 0xFFFFFFFFFFFFFFFFFFFFFFFFFFFFFFFFFFFFFFFFFFFFFFFFFFFFFFFFFFFFFFFF DUP3 SUB PUSH2 0x251D JUMPI PUSH2 0x251C PUSH2 0x2002 JUMP JUMPDEST JUMPDEST PUSH1 0x1 DUP3 ADD SWAP1 POP SWAP2 SWAP1 POP JUMP JUMPDEST PUSH32 0x4E6F20617661696C61626C65207469636B65747320666F722074686520737065 PUSH0 DUP3 ADD MSTORE PUSH32 0x6369666965642064657374696E6174696F6E0000000000000000000000000000 PUSH1 0x20 DUP3 ADD MSTORE POP JUMP JUMPDEST PUSH0 PUSH2 0x2582 PUSH1 0x32 DUP4 PUSH2 0x179E JUMP JUMPDEST SWAP2 POP PUSH2 0x258D DUP3 PUSH2 0x2528 JUMP JUMPDEST PUSH1 0x40 DUP3 ADD SWAP1 POP SWAP2 SWAP1 POP JUMP JUMPDEST PUSH0 PUSH1 0x20 DUP3 ADD SWAP1 POP DUP2 DUP2 SUB PUSH0 DUP4 ADD MSTORE PUSH2 0x25AF DUP2 PUSH2 0x2576 JUMP JUMPDEST SWAP1 POP SWAP2 SWAP1 POP JUMP JUMPDEST PUSH0 PUSH2 0x25C0 DUP3 PUSH2 0x16F7 JUMP JUMPDEST SWAP2 POP PUSH0 DUP3 SUB PUSH2 0x25D2 JUMPI PUSH2 0x25D1 PUSH2 0x2002 JUMP JUMPDEST JUMPDEST PUSH1 0x1 DUP3 SUB SWAP1 POP SWAP2 SWAP1 POP JUMP JUMPDEST PUSH0 PUSH2 0x25E7 DUP3 PUSH2 0x16F7 JUMP JUMPDEST SWAP2 POP PUSH2 0x25F2 DUP4 PUSH2 0x16F7 JUMP JUMPDEST SWAP3 POP DUP3 DUP3 ADD SWAP1 POP DUP1 DUP3 GT ISZERO PUSH2 0x260A JUMPI PUSH2 0x2609 PUSH2 0x2002 JUMP JUMPDEST JUMPDEST SWAP3 SWAP2 POP POP JUMP INVALID LOG2 PUSH5 0x6970667358 0x22 SLT KECCAK256 PUSH0 PUSH15 0xF018C02294BDC3D6AAA73FC1056A6F DUP2 GT CALLDATASIZE MSTORE 0xBA 0xEA LT 0xCD 0xD0 0xE9 PREVRANDAO DUP7 0xA6 0x22 CHAINID PUSH5 0x736F6C6343 STOP ADDMOD SHR STOP CALLER "},"gasEstimates":{"creation":{"codeDepositCost":"1959600","executionCost":"infinite","totalCost":"infinite"},"external":{"bookFlight(string,uint256,uint256,bool)":"infinite","canPayout()":"2576","ceo()":"2574","classMultiplier(uint256)":"infinite","count()":"2471","createDestination(string,uint256)":"infinite","destinationPrices(uint256)":"infinite","destinations(uint256)":"infinite","getBookedFlights(address)":"infinite","getPrice(string,uint256,uint256,bool)":"infinite","indexes(string)":"infinite","isCeo(address)":"2992","monthMultiplier(uint256)":"infinite","nextTicketId()":"2536","payAmount()":"2469","payCEO()":"infinite","seats(uint256)":"infinite","ticketDetails(uint256)":"infinite"},"internal":{"create30Tickets(address,string memory,uint256)":"infinite"}},"methodIdentifiers":{"bookFlight(string,uint256,uint256,bool)":"ea6e358e","canPayout()":"ff203bc0","ceo()":"908921fc","classMultiplier(uint256)":"695dc67e","count()":"06661abd","createDestination(string,uint256)":"5e583e37","destinationPrices(uint256)":"195c1445","destinations(uint256)":"8dd4ba2e","getBookedFlights(address)":"ad03fe70","getPrice(string,uint256,uint256,bool)":"07819bd6","indexes(string)":"2427e59e","isCeo(address)":"1165e6ab","monthMultiplier(uint256)":"cb2cc82a","nextTicketId()":"6031a52f","payAmount()":"c8705544","payCEO()":"aafc8d74","seats(uint256)":"3b33c702","ticketDetails(uint256)":"033fab35"}},"storageLayout":{"storage":[{"astId":20,"contract":"AirlineManagement.sol:AirlineManagement","label":"ceo","offset":0,"slot":"0","type":"t_address"},{"astId":23,"contract":"AirlineManagement.sol:AirlineManagement","label":"destinations","offset":0,"slot":"1","type":"t_array(t_string_storage)dyn_storage"},{"astId":26,"contract":"AirlineManagement.sol:AirlineManagement","label":"destinationPrices","offset":0,"slot":"2","type":"t_array(t_uint256)dyn_storage"},{"astId":29,"contract":"AirlineManagement.sol:AirlineManagement","label":"seats","offset":0,"slot":"3","type":"t_array(t_uint256)dyn_storage"},{"astId":33,"contract":"AirlineManagement.sol:AirlineManagement","label":"indexes","offset":0,"slot":"4","type":"t_mapping(t_string_memory_ptr,t_uint256)"},{"astId":37,"contract":"AirlineManagement.sol:AirlineManagement","label":"monthMultiplier","offset":0,"slot":"5","type":"t_array(t_uint256)12_storage"},{"astId":41,"contract":"AirlineManagement.sol:AirlineManagement","label":"classMultiplier","offset":0,"slot":"17","type":"t_array(t_uint256)3_storage"},{"astId":43,"contract":"AirlineManagement.sol:AirlineManagement","label":"count","offset":0,"slot":"20","type":"t_uint256"},{"astId":45,"contract":"AirlineManagement.sol:AirlineManagement","label":"canPayout","offset":0,"slot":"21","type":"t_bool"},{"astId":47,"contract":"AirlineManagement.sol:AirlineManagement","label":"payAmount","offset":0,"slot":"22","type":"t_uint256"},{"astId":52,"contract":"AirlineManagement.sol:AirlineManagement","label":"ticketDetails","offset":0,"slot":"23","type":"t_mapping(t_uint256,t_struct(Ticket)18_storage)"},{"astId":54,"contract":"AirlineManagement.sol:AirlineManagement","label":"nextTicketId","offset":0,"slot":"24","type":"t_uint256"}],"types":{"t_address":{"encoding":"inplace","label":"address","numberOfBytes":"20"},"t_array(t_string_storage)dyn_storage":{"base":"t_string_storage","encoding":"dynamic_array","label":"string[]","numberOfBytes":"32"},"t_array(t_uint256)12_storage":{"base":"t_uint256","encoding":"inplace","label":"uint256[12]","numberOfBytes":"384"},"t_array(t_uint256)3_storage":{"base":"t_uint256","encoding":"inplace","label":"uint256[3]","numberOfBytes":"96"},"t_array(t_uint256)dyn_storage":{"base":"t_uint256","encoding":"dynamic_array","label":"uint256[]","numberOfBytes":"32"},"t_bool":{"encoding":"inplace","label":"bool","numberOfBytes":"1"},"t_mapping(t_string_memory_ptr,t_uint256)":{"encoding":"mapping","key":"t_string_memory_ptr","label":"mapping(string => uint256)","numberOfBytes":"32","value":"t_uint256"},"t_mapping(t_uint256,t_struct(Ticket)18_storage)":{"encoding":"mapping","key":"t_uint256","label":"mapping(uint256 => struct AirlineManagement.Ticket)","numberOfBytes":"32","value":"t_struct(Ticket)18_storage"},"t_string_memory_ptr":{"encoding":"bytes","label":"string","numberOfBytes":"32"},"t_string_storage":{"encoding":"bytes","label":"string","numberOfBytes":"32"},"t_struct(Ticket)18_storage":{"encoding":"inplace","label":"struct AirlineManagement.Ticket","members":[{"astId":3,"contract":"AirlineManagement.sol:AirlineManagement","label":"owner","offset":0,"slot":"0","type":"t_address"},{"astId":5,"contract":"AirlineManagement.sol:AirlineManagement","label":"destination","offset":0,"slot":"1","type":"t_string_storage"},{"astId":7,"contract":"AirlineManagement.sol:AirlineManagement","label":"price","offset":0,"slot":"2","type":"t_uint256"},{"astId":9,"contract":"AirlineManagement.sol:AirlineManagement","label":"seat","offset":0,"slot":"3","type":"t_uint256"},{"astId":11,"contract":"AirlineManagement.sol:AirlineManagement","label":"class","offset":0,"slot":"4","type":"t_string_storage"},{"astId":13,"contract":"AirlineManagement.sol:AirlineManagement","label":"roundTrip","offset":0,"slot":"5","type":"t_bool"},{"astId":15,"contract":"AirlineManagement.sol:AirlineManagement","label":"isAvailable","offset":1,"slot":"5","type":"t_bool"},{"astId":17,"contract":"AirlineManagement.sol:AirlineManagement","label":"month","offset":0,"slot":"6","type":"t_uint256"}],"numberOfBytes":"224"},"t_uint256":{"encoding":"inplace","label":"uint256","numberOfBytes":"32"}}},"transientStorageLayout":{"storage":[],"types":null},"userdoc":{"kind":"user","methods":{},"version":1}}