{"abi":[{"inputs":[{"internalType":"string","name":"destination","type":"string"},{"internalType":"uint256","name":"destinationPrice","type":"uint256"}],"stateMutability":"nonpayable","type":"constructor"},{"inputs":[{"internalType":"string","name":"destination","type":"string"},{"internalType":"uint256","name":"month","type":"uint256"},{"internalType":"uint256","name":"class","type":"uint256"},{"internalType":"bool","name":"way","type":"bool"}],"name":"bookFlight","outputs":[],"stateMutability":"payable","type":"function"},{"inputs":[],"name":"ceo","outputs":[{"internalType":"address","name":"","type":"address"}],"stateMutability":"view","type":"function"},{"inputs":[{"internalType":"uint256","name":"","type":"uint256"}],"name":"classMultiplier","outputs":[{"internalType":"uint256","name":"","type":"uint256"}],"stateMutability":"view","type":"function"},{"inputs":[],"name":"count","outputs":[{"internalType":"uint256","name":"","type":"uint256"}],"stateMutability":"view","type":"function"},{"inputs":[{"internalType":"address","name":"owner","type":"address"},{"internalType":"string","name":"destination","type":"string"},{"internalType":"uint256","name":"price","type":"uint256"}],"name":"create30Tickets","outputs":[],"stateMutability":"nonpayable","type":"function"},{"inputs":[{"internalType":"string","name":"destination","type":"string"},{"internalType":"uint256","name":"destinationPrice","type":"uint256"}],"name":"createDestination","outputs":[],"stateMutability":"nonpayable","type":"function"},{"inputs":[{"internalType":"uint256","name":"","type":"uint256"}],"name":"destinationPrices","outputs":[{"internalType":"uint256","name":"","type":"uint256"}],"stateMutability":"view","type":"function"},{"inputs":[{"internalType":"uint256","name":"","type":"uint256"}],"name":"destinations","outputs":[{"internalType":"string","name":"","type":"string"}],"stateMutability":"view","type":"function"},{"inputs":[{"internalType":"address","name":"user","type":"address"}],"name":"getBookedFlights","outputs":[{"components":[{"internalType":"address","name":"owner","type":"address"},{"internalType":"string","name":"destination","type":"string"},{"internalType":"uint256","name":"price","type":"uint256"},{"internalType":"uint256","name":"seat","type":"uint256"},{"internalType":"string","name":"class","type":"string"},{"internalType":"bool","name":"roundTrip","type":"bool"},{"internalType":"bool","name":"isAvailable","type":"bool"}],"internalType":"struct AirlineManagement.Ticket[]","name":"","type":"tuple[]"}],"stateMutability":"view","type":"function"},{"inputs":[{"internalType":"string","name":"destination","type":"string"},{"internalType":"uint256","name":"month","type":"uint256"},{"internalType":"uint256","name":"class","type":"uint256"},{"internalType":"bool","name":"way","type":"bool"}],"name":"getPrice","outputs":[{"internalType":"uint256","name":"","type":"uint256"}],"stateMutability":"view","type":"function"},{"inputs":[{"internalType":"string","name":"","type":"string"}],"name":"indexes","outputs":[{"internalType":"uint256","name":"","type":"uint256"}],"stateMutability":"view","type":"function"},{"inputs":[{"internalType":"address","name":"user","type":"address"}],"name":"isCeo","outputs":[{"internalType":"bool","name":"","type":"bool"}],"stateMutability":"view","type":"function"},{"inputs":[{"internalType":"uint256","name":"","type":"uint256"}],"name":"monthMultiplier","outputs":[{"internalType":"uint256","name":"","type":"uint256"}],"stateMutability":"view","type":"function"},{"inputs":[],"name":"nextTicketId","outputs":[{"internalType":"uint256","name":"","type":"uint256"}],"stateMutability":"view","type":"function"},{"inputs":[{"internalType":"uint256","name":"","type":"uint256"}],"name":"ticketDetails","outputs":[{"internalType":"address","name":"owner","type":"address"},{"internalType":"string","name":"destination","type":"string"},{"internalType":"uint256","name":"price","type":"uint256"},{"internalType":"uint256","name":"seat","type":"uint256"},{"internalType":"string","name":"class","type":"string"},{"internalType":"bool","name":"roundTrip","type":"bool"},{"internalType":"bool","name":"isAvailable","type":"bool"}],"stateMutability":"view","type":"function"}],"devdoc":{"kind":"dev","methods":{},"version":1},"evm":{"assembly":"    /* \"AirlineManagement.sol\":66:5348  contract AirlineManagement {... */\n  mstore(0x40, 0x80)\n    /* \"AirlineManagement.sol\":1075:1981  constructor(string memory destination, uint256 destinationPrice) {... */\n  callvalue\n  dup1\n  iszero\n  tag_1\n  jumpi\n  revert(0x00, 0x00)\ntag_1:\n  pop\n  mload(0x40)\n  sub(codesize, bytecodeSize)\n  dup1\n  bytecodeSize\n  dup4\n  codecopy\n  dup2\n  dup2\n  add\n  0x40\n  mstore\n  dup2\n  add\n  swap1\n  tag_2\n  swap2\n  swap1\n  tag_3\n  jump\t// in\ntag_2:\n    /* \"AirlineManagement.sol\":1157:1167  msg.sender */\n  caller\n    /* \"AirlineManagement.sol\":1151:1154  ceo */\n  0x00\n  0x00\n    /* \"AirlineManagement.sol\":1151:1167  ceo = msg.sender */\n  0x0100\n  exp\n  dup2\n  sload\n  dup2\n  0xffffffffffffffffffffffffffffffffffffffff\n  mul\n  not\n  and\n  swap1\n  dup4\n  0xffffffffffffffffffffffffffffffffffffffff\n  and\n  mul\n  or\n  swap1\n  sstore\n  pop\n    /* \"AirlineManagement.sol\":1186:1187  0 */\n  0x00\n    /* \"AirlineManagement.sol\":1178:1183  count */\n  0x13\n    /* \"AirlineManagement.sol\":1178:1187  count = 0 */\n  dup2\n  swap1\n  sstore\n  pop\n    /* \"AirlineManagement.sol\":1198:1210  destinations */\n  0x01\n    /* \"AirlineManagement.sol\":1216:1227  destination */\n  dup3\n    /* \"AirlineManagement.sol\":1198:1228  destinations.push(destination) */\n  swap1\n  dup1\n  0x01\n  dup2\n  sload\n  add\n  dup1\n  dup3\n  sstore\n  dup1\n  swap2\n  pop\n  pop\n  0x01\n  swap1\n  sub\n  swap1\n  0x00\n  mstore\n  keccak256(0x00, 0x20)\n  add\n  0x00\n  swap1\n  swap2\n  swap1\n  swap2\n  swap1\n  swap2\n  pop\n  swap1\n  dup2\n  tag_7\n  swap2\n  swap1\n  tag_8\n  jump\t// in\ntag_7:\n  pop\n    /* \"AirlineManagement.sol\":1239:1256  destinationPrices */\n  0x02\n    /* \"AirlineManagement.sol\":1262:1278  destinationPrice */\n  dup2\n    /* \"AirlineManagement.sol\":1239:1279  destinationPrices.push(destinationPrice) */\n  swap1\n  dup1\n  0x01\n  dup2\n  sload\n  add\n  dup1\n  dup3\n  sstore\n  dup1\n  swap2\n  pop\n  pop\n  0x01\n  swap1\n  sub\n  swap1\n  0x00\n  mstore\n  keccak256(0x00, 0x20)\n  add\n  0x00\n  swap1\n  swap2\n  swap1\n  swap2\n  swap1\n  swap2\n  pop\n  sstore\n    /* \"AirlineManagement.sol\":1313:1318  count */\n  sload(0x13)\n    /* \"AirlineManagement.sol\":1290:1297  indexes */\n  0x03\n    /* \"AirlineManagement.sol\":1298:1309  destination */\n  dup4\n    /* \"AirlineManagement.sol\":1290:1310  indexes[destination] */\n  mload(0x40)\n  tag_10\n  swap2\n  swap1\n  tag_11\n  jump\t// in\ntag_10:\n  swap1\n  dup2\n  mstore\n  0x20\n  add\n  mload(0x40)\n  dup1\n  swap2\n  sub\n  swap1\n  keccak256\n    /* \"AirlineManagement.sol\":1290:1318  indexes[destination] = count */\n  dup2\n  swap1\n  sstore\n  pop\n    /* \"AirlineManagement.sol\":1329:1387  create30Tickets(msg.sender, destination, destinationPrice) */\n  tag_12\n    /* \"AirlineManagement.sol\":1345:1355  msg.sender */\n  caller\n    /* \"AirlineManagement.sol\":1357:1368  destination */\n  dup4\n    /* \"AirlineManagement.sol\":1370:1386  destinationPrice */\n  dup4\n    /* \"AirlineManagement.sol\":1329:1344  create30Tickets */\n  shl(0x20, tag_13)\n    /* \"AirlineManagement.sol\":1329:1387  create30Tickets(msg.sender, destination, destinationPrice) */\n  0x20\n  shr\n  jump\t// in\ntag_12:\n    /* \"AirlineManagement.sol\":1460:1461  3 */\n  0x03\n    /* \"AirlineManagement.sol\":1439:1454  monthMultiplier */\n  0x04\n    /* \"AirlineManagement.sol\":1455:1456  0 */\n  0x00\n    /* \"AirlineManagement.sol\":1439:1457  monthMultiplier[0] */\n  0x0c\n  dup2\n  lt\n  tag_14\n  jumpi\n  tag_15\n  tag_16\n  jump\t// in\ntag_15:\ntag_14:\n  add\n    /* \"AirlineManagement.sol\":1439:1461  monthMultiplier[0] = 3 */\n  dup2\n  swap1\n  sstore\n  pop\n    /* \"AirlineManagement.sol\":1493:1494  2 */\n  0x02\n    /* \"AirlineManagement.sol\":1472:1487  monthMultiplier */\n  0x04\n    /* \"AirlineManagement.sol\":1488:1489  1 */\n  0x01\n    /* \"AirlineManagement.sol\":1472:1490  monthMultiplier[1] */\n  0x0c\n  dup2\n  lt\n  tag_18\n  jumpi\n  tag_19\n  tag_16\n  jump\t// in\ntag_19:\ntag_18:\n  add\n    /* \"AirlineManagement.sol\":1472:1494  monthMultiplier[1] = 2 */\n  dup2\n  swap1\n  sstore\n  pop\n    /* \"AirlineManagement.sol\":1526:1527  4 */\n  0x04\n    /* \"AirlineManagement.sol\":1505:1520  monthMultiplier */\n  dup1\n    /* \"AirlineManagement.sol\":1521:1522  2 */\n  0x02\n    /* \"AirlineManagement.sol\":1505:1523  monthMultiplier[2] */\n  0x0c\n  dup2\n  lt\n  tag_21\n  jumpi\n  tag_22\n  tag_16\n  jump\t// in\ntag_22:\ntag_21:\n  add\n    /* \"AirlineManagement.sol\":1505:1527  monthMultiplier[2] = 4 */\n  dup2\n  swap1\n  sstore\n  pop\n    /* \"AirlineManagement.sol\":1559:1560  5 */\n  0x05\n    /* \"AirlineManagement.sol\":1538:1553  monthMultiplier */\n  0x04\n    /* \"AirlineManagement.sol\":1554:1555  3 */\n  0x03\n    /* \"AirlineManagement.sol\":1538:1556  monthMultiplier[3] */\n  0x0c\n  dup2\n  lt\n  tag_24\n  jumpi\n  tag_25\n  tag_16\n  jump\t// in\ntag_25:\ntag_24:\n  add\n    /* \"AirlineManagement.sol\":1538:1560  monthMultiplier[3] = 5 */\n  dup2\n  swap1\n  sstore\n  pop\n    /* \"AirlineManagement.sol\":1592:1593  3 */\n  0x03\n    /* \"AirlineManagement.sol\":1571:1586  monthMultiplier */\n  0x04\n    /* \"AirlineManagement.sol\":1587:1588  4 */\n  dup1\n    /* \"AirlineManagement.sol\":1571:1589  monthMultiplier[4] */\n  0x0c\n  dup2\n  lt\n  tag_27\n  jumpi\n  tag_28\n  tag_16\n  jump\t// in\ntag_28:\ntag_27:\n  add\n    /* \"AirlineManagement.sol\":1571:1593  monthMultiplier[4] = 3 */\n  dup2\n  swap1\n  sstore\n  pop\n    /* \"AirlineManagement.sol\":1625:1627  12 */\n  0x0c\n    /* \"AirlineManagement.sol\":1604:1619  monthMultiplier */\n  0x04\n    /* \"AirlineManagement.sol\":1620:1621  5 */\n  0x05\n    /* \"AirlineManagement.sol\":1604:1622  monthMultiplier[5] */\n  0x0c\n  dup2\n  lt\n  tag_30\n  jumpi\n  tag_31\n  tag_16\n  jump\t// in\ntag_31:\ntag_30:\n  add\n    /* \"AirlineManagement.sol\":1604:1627  monthMultiplier[5] = 12 */\n  dup2\n  swap1\n  sstore\n  pop\n    /* \"AirlineManagement.sol\":1659:1661  11 */\n  0x0b\n    /* \"AirlineManagement.sol\":1638:1653  monthMultiplier */\n  0x04\n    /* \"AirlineManagement.sol\":1654:1655  6 */\n  0x06\n    /* \"AirlineManagement.sol\":1638:1656  monthMultiplier[6] */\n  0x0c\n  dup2\n  lt\n  tag_33\n  jumpi\n  tag_34\n  tag_16\n  jump\t// in\ntag_34:\ntag_33:\n  add\n    /* \"AirlineManagement.sol\":1638:1661  monthMultiplier[6] = 11 */\n  dup2\n  swap1\n  sstore\n  pop\n    /* \"AirlineManagement.sol\":1693:1695  12 */\n  0x0c\n    /* \"AirlineManagement.sol\":1672:1687  monthMultiplier */\n  0x04\n    /* \"AirlineManagement.sol\":1688:1689  7 */\n  0x07\n    /* \"AirlineManagement.sol\":1672:1690  monthMultiplier[7] */\n  0x0c\n  dup2\n  lt\n  tag_36\n  jumpi\n  tag_37\n  tag_16\n  jump\t// in\ntag_37:\ntag_36:\n  add\n    /* \"AirlineManagement.sol\":1672:1695  monthMultiplier[7] = 12 */\n  dup2\n  swap1\n  sstore\n  pop\n    /* \"AirlineManagement.sol\":1727:1729  15 */\n  0x0f\n    /* \"AirlineManagement.sol\":1706:1721  monthMultiplier */\n  0x04\n    /* \"AirlineManagement.sol\":1722:1723  8 */\n  0x08\n    /* \"AirlineManagement.sol\":1706:1724  monthMultiplier[8] */\n  0x0c\n  dup2\n  lt\n  tag_39\n  jumpi\n  tag_40\n  tag_16\n  jump\t// in\ntag_40:\ntag_39:\n  add\n    /* \"AirlineManagement.sol\":1706:1729  monthMultiplier[8] = 15 */\n  dup2\n  swap1\n  sstore\n  pop\n    /* \"AirlineManagement.sol\":1761:1763  14 */\n  0x0e\n    /* \"AirlineManagement.sol\":1740:1755  monthMultiplier */\n  0x04\n    /* \"AirlineManagement.sol\":1756:1757  9 */\n  0x09\n    /* \"AirlineManagement.sol\":1740:1758  monthMultiplier[9] */\n  0x0c\n  dup2\n  lt\n  tag_42\n  jumpi\n  tag_43\n  tag_16\n  jump\t// in\ntag_43:\ntag_42:\n  add\n    /* \"AirlineManagement.sol\":1740:1763  monthMultiplier[9] = 14 */\n  dup2\n  swap1\n  sstore\n  pop\n    /* \"AirlineManagement.sol\":1796:1798  11 */\n  0x0b\n    /* \"AirlineManagement.sol\":1774:1789  monthMultiplier */\n  0x04\n    /* \"AirlineManagement.sol\":1790:1792  10 */\n  0x0a\n    /* \"AirlineManagement.sol\":1774:1793  monthMultiplier[10] */\n  0x0c\n  dup2\n  lt\n  tag_45\n  jumpi\n  tag_46\n  tag_16\n  jump\t// in\ntag_46:\ntag_45:\n  add\n    /* \"AirlineManagement.sol\":1774:1798  monthMultiplier[10] = 11 */\n  dup2\n  swap1\n  sstore\n  pop\n    /* \"AirlineManagement.sol\":1831:1833  13 */\n  0x0d\n    /* \"AirlineManagement.sol\":1809:1824  monthMultiplier */\n  0x04\n    /* \"AirlineManagement.sol\":1825:1827  11 */\n  0x0b\n    /* \"AirlineManagement.sol\":1809:1828  monthMultiplier[11] */\n  0x0c\n  dup2\n  lt\n  tag_48\n  jumpi\n  tag_49\n  tag_16\n  jump\t// in\ntag_49:\ntag_48:\n  add\n    /* \"AirlineManagement.sol\":1809:1833  monthMultiplier[11] = 13 */\n  dup2\n  swap1\n  sstore\n  pop\n    /* \"AirlineManagement.sol\":1906:1907  1 */\n  0x01\n    /* \"AirlineManagement.sol\":1885:1900  classMultiplier */\n  0x10\n    /* \"AirlineManagement.sol\":1901:1902  0 */\n  0x00\n    /* \"AirlineManagement.sol\":1885:1903  classMultiplier[0] */\n  0x03\n  dup2\n  lt\n  tag_51\n  jumpi\n  tag_52\n  tag_16\n  jump\t// in\ntag_52:\ntag_51:\n  add\n    /* \"AirlineManagement.sol\":1885:1907  classMultiplier[0] = 1 */\n  dup2\n  swap1\n  sstore\n  pop\n    /* \"AirlineManagement.sol\":1939:1940  2 */\n  0x02\n    /* \"AirlineManagement.sol\":1918:1933  classMultiplier */\n  0x10\n    /* \"AirlineManagement.sol\":1934:1935  1 */\n  0x01\n    /* \"AirlineManagement.sol\":1918:1936  classMultiplier[1] */\n  0x03\n  dup2\n  lt\n  tag_54\n  jumpi\n  tag_55\n  tag_16\n  jump\t// in\ntag_55:\ntag_54:\n  add\n    /* \"AirlineManagement.sol\":1918:1940  classMultiplier[1] = 2 */\n  dup2\n  swap1\n  sstore\n  pop\n    /* \"AirlineManagement.sol\":1972:1973  3 */\n  0x03\n    /* \"AirlineManagement.sol\":1951:1966  classMultiplier */\n  0x10\n    /* \"AirlineManagement.sol\":1967:1968  2 */\n  0x02\n    /* \"AirlineManagement.sol\":1951:1969  classMultiplier[2] */\n  0x03\n  dup2\n  lt\n  tag_57\n  jumpi\n  tag_58\n  tag_16\n  jump\t// in\ntag_58:\ntag_57:\n  add\n    /* \"AirlineManagement.sol\":1951:1973  classMultiplier[2] = 3 */\n  dup2\n  swap1\n  sstore\n  pop\n    /* \"AirlineManagement.sol\":1075:1981  constructor(string memory destination, uint256 destinationPrice) {... */\n  pop\n  pop\n    /* \"AirlineManagement.sol\":66:5348  contract AirlineManagement {... */\n  jump(tag_60)\n    /* \"AirlineManagement.sol\":2373:2715  function create30Tickets(address owner, string memory destination, uint256 price) public restricted {... */\ntag_13:\n    /* \"AirlineManagement.sol\":1007:1010  ceo */\n  0x00\n  0x00\n  swap1\n  sload\n  swap1\n  0x0100\n  exp\n  swap1\n  div\n  0xffffffffffffffffffffffffffffffffffffffff\n  and\n    /* \"AirlineManagement.sol\":993:1010  msg.sender == ceo */\n  0xffffffffffffffffffffffffffffffffffffffff\n  and\n    /* \"AirlineManagement.sol\":993:1003  msg.sender */\n  caller\n    /* \"AirlineManagement.sol\":993:1010  msg.sender == ceo */\n  0xffffffffffffffffffffffffffffffffffffffff\n  and\n  eq\n    /* \"AirlineManagement.sol\":985:1011  require(msg.sender == ceo) */\n  tag_62\n  jumpi\n  revert(0x00, 0x00)\ntag_62:\n    /* \"AirlineManagement.sol\":2489:2501  uint256 seat */\n  0x00\n    /* \"AirlineManagement.sol\":2504:2505  0 */\n  0x00\n    /* \"AirlineManagement.sol\":2489:2505  uint256 seat = 0 */\n  swap1\n  pop\n    /* \"AirlineManagement.sol\":2484:2708  for (uint256 seat = 0; seat < 30; seat++) {... */\ntag_64:\n    /* \"AirlineManagement.sol\":2514:2516  30 */\n  0x1e\n    /* \"AirlineManagement.sol\":2507:2511  seat */\n  dup2\n    /* \"AirlineManagement.sol\":2507:2516  seat < 30 */\n  lt\n    /* \"AirlineManagement.sol\":2484:2708  for (uint256 seat = 0; seat < 30; seat++) {... */\n  iszero\n  tag_65\n  jumpi\n    /* \"AirlineManagement.sol\":2541:2556  uint256 tokenId */\n  0x00\n    /* \"AirlineManagement.sol\":2559:2571  nextTicketId */\n  sload(0x15)\n    /* \"AirlineManagement.sol\":2541:2571  uint256 tokenId = nextTicketId */\n  swap1\n  pop\n    /* \"AirlineManagement.sol\":2611:2667  Ticket(owner, destination, price, seat, \"\", false, true) */\n  mload(0x40)\n  dup1\n  0xe0\n  add\n  0x40\n  mstore\n  dup1\n    /* \"AirlineManagement.sol\":2618:2623  owner */\n  dup7\n    /* \"AirlineManagement.sol\":2611:2667  Ticket(owner, destination, price, seat, \"\", false, true) */\n  0xffffffffffffffffffffffffffffffffffffffff\n  and\n  dup2\n  mstore\n  0x20\n  add\n    /* \"AirlineManagement.sol\":2625:2636  destination */\n  dup6\n    /* \"AirlineManagement.sol\":2611:2667  Ticket(owner, destination, price, seat, \"\", false, true) */\n  dup2\n  mstore\n  0x20\n  add\n    /* \"AirlineManagement.sol\":2638:2643  price */\n  dup5\n    /* \"AirlineManagement.sol\":2611:2667  Ticket(owner, destination, price, seat, \"\", false, true) */\n  dup2\n  mstore\n  0x20\n  add\n    /* \"AirlineManagement.sol\":2645:2649  seat */\n  dup4\n    /* \"AirlineManagement.sol\":2611:2667  Ticket(owner, destination, price, seat, \"\", false, true) */\n  dup2\n  mstore\n  0x20\n  add\n  mload(0x40)\n  dup1\n  0x20\n  add\n  0x40\n  mstore\n  dup1\n  0x00\n  dup2\n  mstore\n  pop\n  dup2\n  mstore\n  0x20\n  add\n    /* \"AirlineManagement.sol\":2655:2660  false */\n  0x00\n    /* \"AirlineManagement.sol\":2611:2667  Ticket(owner, destination, price, seat, \"\", false, true) */\n  iszero\n  iszero\n  dup2\n  mstore\n  0x20\n  add\n    /* \"AirlineManagement.sol\":2662:2666  true */\n  0x01\n    /* \"AirlineManagement.sol\":2611:2667  Ticket(owner, destination, price, seat, \"\", false, true) */\n  iszero\n  iszero\n  dup2\n  mstore\n  pop\n    /* \"AirlineManagement.sol\":2586:2599  ticketDetails */\n  0x14\n    /* \"AirlineManagement.sol\":2586:2608  ticketDetails[tokenId] */\n  0x00\n    /* \"AirlineManagement.sol\":2600:2607  tokenId */\n  dup4\n    /* \"AirlineManagement.sol\":2586:2608  ticketDetails[tokenId] */\n  dup2\n  mstore\n  0x20\n  add\n  swap1\n  dup2\n  mstore\n  0x20\n  add\n  0x00\n  keccak256\n    /* \"AirlineManagement.sol\":2586:2667  ticketDetails[tokenId] = Ticket(owner, destination, price, seat, \"\", false, true) */\n  0x00\n  dup3\n  add\n  mload\n  dup2\n  0x00\n  add\n  exp(0x0100, 0x00)\n  dup2\n  sload\n  dup2\n  0xffffffffffffffffffffffffffffffffffffffff\n  mul\n  not\n  and\n  swap1\n  dup4\n  0xffffffffffffffffffffffffffffffffffffffff\n  and\n  mul\n  or\n  swap1\n  sstore\n  pop\n  0x20\n  dup3\n  add\n  mload\n  dup2\n  0x01\n  add\n  swap1\n  dup2\n  tag_67\n  swap2\n  swap1\n  tag_8\n  jump\t// in\ntag_67:\n  pop\n  0x40\n  dup3\n  add\n  mload\n  dup2\n  0x02\n  add\n  sstore\n  0x60\n  dup3\n  add\n  mload\n  dup2\n  0x03\n  add\n  sstore\n  0x80\n  dup3\n  add\n  mload\n  dup2\n  0x04\n  add\n  swap1\n  dup2\n  tag_68\n  swap2\n  swap1\n  tag_8\n  jump\t// in\ntag_68:\n  pop\n  0xa0\n  dup3\n  add\n  mload\n  dup2\n  0x05\n  add\n  exp(0x0100, 0x00)\n  dup2\n  sload\n  dup2\n  0xff\n  mul\n  not\n  and\n  swap1\n  dup4\n  iszero\n  iszero\n  mul\n  or\n  swap1\n  sstore\n  pop\n  0xc0\n  dup3\n  add\n  mload\n  dup2\n  0x05\n  add\n  exp(0x0100, 0x01)\n  dup2\n  sload\n  dup2\n  0xff\n  mul\n  not\n  and\n  swap1\n  dup4\n  iszero\n  iszero\n  mul\n  or\n  swap1\n  sstore\n  pop\n  swap1\n  pop\n  pop\n    /* \"AirlineManagement.sol\":2682:2694  nextTicketId */\n  0x15\n  0x00\n    /* \"AirlineManagement.sol\":2682:2696  nextTicketId++ */\n  dup2\n  sload\n  dup1\n  swap3\n  swap2\n  swap1\n  tag_69\n  swap1\n  tag_70\n  jump\t// in\ntag_69:\n  swap2\n  swap1\n  pop\n  sstore\n  pop\n    /* \"AirlineManagement.sol\":2526:2708  {... */\n  pop\n    /* \"AirlineManagement.sol\":2518:2524  seat++ */\n  dup1\n  dup1\n  0x01\n  add\n  swap2\n  pop\n  pop\n    /* \"AirlineManagement.sol\":2484:2708  for (uint256 seat = 0; seat < 30; seat++) {... */\n  jump(tag_64)\ntag_65:\n  pop\n    /* \"AirlineManagement.sol\":2373:2715  function create30Tickets(address owner, string memory destination, uint256 price) public restricted {... */\n  pop\n  pop\n  pop\n  jump\t// out\n    /* \"#utility.yul\":7:82   */\ntag_71:\n    /* \"#utility.yul\":40:46   */\n  0x00\n    /* \"#utility.yul\":73:75   */\n  0x40\n    /* \"#utility.yul\":67:76   */\n  mload\n    /* \"#utility.yul\":57:76   */\n  swap1\n  pop\n    /* \"#utility.yul\":7:82   */\n  swap1\n  jump\t// out\n    /* \"#utility.yul\":88:205   */\ntag_72:\n    /* \"#utility.yul\":197:198   */\n  0x00\n    /* \"#utility.yul\":194:195   */\n  0x00\n    /* \"#utility.yul\":187:199   */\n  revert\n    /* \"#utility.yul\":211:328   */\ntag_73:\n    /* \"#utility.yul\":320:321   */\n  0x00\n    /* \"#utility.yul\":317:318   */\n  0x00\n    /* \"#utility.yul\":310:322   */\n  revert\n    /* \"#utility.yul\":334:451   */\ntag_74:\n    /* \"#utility.yul\":443:444   */\n  0x00\n    /* \"#utility.yul\":440:441   */\n  0x00\n    /* \"#utility.yul\":433:445   */\n  revert\n    /* \"#utility.yul\":457:574   */\ntag_75:\n    /* \"#utility.yul\":566:567   */\n  0x00\n    /* \"#utility.yul\":563:564   */\n  0x00\n    /* \"#utility.yul\":556:568   */\n  revert\n    /* \"#utility.yul\":580:682   */\ntag_76:\n    /* \"#utility.yul\":621:627   */\n  0x00\n    /* \"#utility.yul\":672:674   */\n  0x1f\n    /* \"#utility.yul\":668:675   */\n  not\n    /* \"#utility.yul\":663:665   */\n  0x1f\n    /* \"#utility.yul\":656:661   */\n  dup4\n    /* \"#utility.yul\":652:666   */\n  add\n    /* \"#utility.yul\":648:676   */\n  and\n    /* \"#utility.yul\":638:676   */\n  swap1\n  pop\n    /* \"#utility.yul\":580:682   */\n  swap2\n  swap1\n  pop\n  jump\t// out\n    /* \"#utility.yul\":688:868   */\ntag_77:\n    /* \"#utility.yul\":736:813   */\n  0x4e487b7100000000000000000000000000000000000000000000000000000000\n    /* \"#utility.yul\":733:734   */\n  0x00\n    /* \"#utility.yul\":726:814   */\n  mstore\n    /* \"#utility.yul\":833:837   */\n  0x41\n    /* \"#utility.yul\":830:831   */\n  0x04\n    /* \"#utility.yul\":823:838   */\n  mstore\n    /* \"#utility.yul\":857:861   */\n  0x24\n    /* \"#utility.yul\":854:855   */\n  0x00\n    /* \"#utility.yul\":847:862   */\n  revert\n    /* \"#utility.yul\":874:1155   */\ntag_78:\n    /* \"#utility.yul\":957:984   */\n  tag_117\n    /* \"#utility.yul\":979:983   */\n  dup3\n    /* \"#utility.yul\":957:984   */\n  tag_76\n  jump\t// in\ntag_117:\n    /* \"#utility.yul\":949:955   */\n  dup2\n    /* \"#utility.yul\":945:985   */\n  add\n    /* \"#utility.yul\":1087:1093   */\n  dup2\n    /* \"#utility.yul\":1075:1085   */\n  dup2\n    /* \"#utility.yul\":1072:1094   */\n  lt\n    /* \"#utility.yul\":1051:1069   */\n  0xffffffffffffffff\n    /* \"#utility.yul\":1039:1049   */\n  dup3\n    /* \"#utility.yul\":1036:1070   */\n  gt\n    /* \"#utility.yul\":1033:1095   */\n  or\n    /* \"#utility.yul\":1030:1118   */\n  iszero\n  tag_118\n  jumpi\n    /* \"#utility.yul\":1098:1116   */\n  tag_119\n  tag_77\n  jump\t// in\ntag_119:\n    /* \"#utility.yul\":1030:1118   */\ntag_118:\n    /* \"#utility.yul\":1138:1148   */\n  dup1\n    /* \"#utility.yul\":1134:1136   */\n  0x40\n    /* \"#utility.yul\":1127:1149   */\n  mstore\n    /* \"#utility.yul\":917:1155   */\n  pop\n    /* \"#utility.yul\":874:1155   */\n  pop\n  pop\n  jump\t// out\n    /* \"#utility.yul\":1161:1290   */\ntag_79:\n    /* \"#utility.yul\":1195:1201   */\n  0x00\n    /* \"#utility.yul\":1222:1242   */\n  tag_121\n  tag_71\n  jump\t// in\ntag_121:\n    /* \"#utility.yul\":1212:1242   */\n  swap1\n  pop\n    /* \"#utility.yul\":1251:1284   */\n  tag_122\n    /* \"#utility.yul\":1279:1283   */\n  dup3\n    /* \"#utility.yul\":1271:1277   */\n  dup3\n    /* \"#utility.yul\":1251:1284   */\n  tag_78\n  jump\t// in\ntag_122:\n    /* \"#utility.yul\":1161:1290   */\n  swap2\n  swap1\n  pop\n  jump\t// out\n    /* \"#utility.yul\":1296:1604   */\ntag_80:\n    /* \"#utility.yul\":1358:1362   */\n  0x00\n    /* \"#utility.yul\":1448:1466   */\n  0xffffffffffffffff\n    /* \"#utility.yul\":1440:1446   */\n  dup3\n    /* \"#utility.yul\":1437:1467   */\n  gt\n    /* \"#utility.yul\":1434:1490   */\n  iszero\n  tag_124\n  jumpi\n    /* \"#utility.yul\":1470:1488   */\n  tag_125\n  tag_77\n  jump\t// in\ntag_125:\n    /* \"#utility.yul\":1434:1490   */\ntag_124:\n    /* \"#utility.yul\":1508:1537   */\n  tag_126\n    /* \"#utility.yul\":1530:1536   */\n  dup3\n    /* \"#utility.yul\":1508:1537   */\n  tag_76\n  jump\t// in\ntag_126:\n    /* \"#utility.yul\":1500:1537   */\n  swap1\n  pop\n    /* \"#utility.yul\":1592:1596   */\n  0x20\n    /* \"#utility.yul\":1586:1590   */\n  dup2\n    /* \"#utility.yul\":1582:1597   */\n  add\n    /* \"#utility.yul\":1574:1597   */\n  swap1\n  pop\n    /* \"#utility.yul\":1296:1604   */\n  swap2\n  swap1\n  pop\n  jump\t// out\n    /* \"#utility.yul\":1610:1749   */\ntag_81:\n    /* \"#utility.yul\":1699:1705   */\n  dup3\n    /* \"#utility.yul\":1694:1697   */\n  dup2\n    /* \"#utility.yul\":1689:1692   */\n  dup4\n    /* \"#utility.yul\":1683:1706   */\n  mcopy\n    /* \"#utility.yul\":1740:1741   */\n  0x00\n    /* \"#utility.yul\":1731:1737   */\n  dup4\n    /* \"#utility.yul\":1726:1729   */\n  dup4\n    /* \"#utility.yul\":1722:1738   */\n  add\n    /* \"#utility.yul\":1715:1742   */\n  mstore\n    /* \"#utility.yul\":1610:1749   */\n  pop\n  pop\n  pop\n  jump\t// out\n    /* \"#utility.yul\":1755:2189   */\ntag_82:\n    /* \"#utility.yul\":1844:1849   */\n  0x00\n    /* \"#utility.yul\":1869:1935   */\n  tag_129\n    /* \"#utility.yul\":1885:1934   */\n  tag_130\n    /* \"#utility.yul\":1927:1933   */\n  dup5\n    /* \"#utility.yul\":1885:1934   */\n  tag_80\n  jump\t// in\ntag_130:\n    /* \"#utility.yul\":1869:1935   */\n  tag_79\n  jump\t// in\ntag_129:\n    /* \"#utility.yul\":1860:1935   */\n  swap1\n  pop\n    /* \"#utility.yul\":1958:1964   */\n  dup3\n    /* \"#utility.yul\":1951:1956   */\n  dup2\n    /* \"#utility.yul\":1944:1965   */\n  mstore\n    /* \"#utility.yul\":1996:2000   */\n  0x20\n    /* \"#utility.yul\":1989:1994   */\n  dup2\n    /* \"#utility.yul\":1985:2001   */\n  add\n    /* \"#utility.yul\":2034:2037   */\n  dup5\n    /* \"#utility.yul\":2025:2031   */\n  dup5\n    /* \"#utility.yul\":2020:2023   */\n  dup5\n    /* \"#utility.yul\":2016:2032   */\n  add\n    /* \"#utility.yul\":2013:2038   */\n  gt\n    /* \"#utility.yul\":2010:2122   */\n  iszero\n  tag_131\n  jumpi\n    /* \"#utility.yul\":2041:2120   */\n  tag_132\n  tag_75\n  jump\t// in\ntag_132:\n    /* \"#utility.yul\":2010:2122   */\ntag_131:\n    /* \"#utility.yul\":2131:2183   */\n  tag_133\n    /* \"#utility.yul\":2176:2182   */\n  dup5\n    /* \"#utility.yul\":2171:2174   */\n  dup3\n    /* \"#utility.yul\":2166:2169   */\n  dup6\n    /* \"#utility.yul\":2131:2183   */\n  tag_81\n  jump\t// in\ntag_133:\n    /* \"#utility.yul\":1850:2189   */\n  pop\n    /* \"#utility.yul\":1755:2189   */\n  swap4\n  swap3\n  pop\n  pop\n  pop\n  jump\t// out\n    /* \"#utility.yul\":2209:2564   */\ntag_83:\n    /* \"#utility.yul\":2276:2281   */\n  0x00\n    /* \"#utility.yul\":2325:2328   */\n  dup3\n    /* \"#utility.yul\":2318:2322   */\n  0x1f\n    /* \"#utility.yul\":2310:2316   */\n  dup4\n    /* \"#utility.yul\":2306:2323   */\n  add\n    /* \"#utility.yul\":2302:2329   */\n  slt\n    /* \"#utility.yul\":2292:2414   */\n  tag_135\n  jumpi\n    /* \"#utility.yul\":2333:2412   */\n  tag_136\n  tag_74\n  jump\t// in\ntag_136:\n    /* \"#utility.yul\":2292:2414   */\ntag_135:\n    /* \"#utility.yul\":2443:2449   */\n  dup2\n    /* \"#utility.yul\":2437:2450   */\n  mload\n    /* \"#utility.yul\":2468:2558   */\n  tag_137\n    /* \"#utility.yul\":2554:2557   */\n  dup5\n    /* \"#utility.yul\":2546:2552   */\n  dup3\n    /* \"#utility.yul\":2539:2543   */\n  0x20\n    /* \"#utility.yul\":2531:2537   */\n  dup7\n    /* \"#utility.yul\":2527:2544   */\n  add\n    /* \"#utility.yul\":2468:2558   */\n  tag_82\n  jump\t// in\ntag_137:\n    /* \"#utility.yul\":2459:2558   */\n  swap2\n  pop\n    /* \"#utility.yul\":2282:2564   */\n  pop\n    /* \"#utility.yul\":2209:2564   */\n  swap3\n  swap2\n  pop\n  pop\n  jump\t// out\n    /* \"#utility.yul\":2570:2647   */\ntag_84:\n    /* \"#utility.yul\":2607:2614   */\n  0x00\n    /* \"#utility.yul\":2636:2641   */\n  dup2\n    /* \"#utility.yul\":2625:2641   */\n  swap1\n  pop\n    /* \"#utility.yul\":2570:2647   */\n  swap2\n  swap1\n  pop\n  jump\t// out\n    /* \"#utility.yul\":2653:2775   */\ntag_85:\n    /* \"#utility.yul\":2726:2750   */\n  tag_140\n    /* \"#utility.yul\":2744:2749   */\n  dup2\n    /* \"#utility.yul\":2726:2750   */\n  tag_84\n  jump\t// in\ntag_140:\n    /* \"#utility.yul\":2719:2724   */\n  dup2\n    /* \"#utility.yul\":2716:2751   */\n  eq\n    /* \"#utility.yul\":2706:2769   */\n  tag_141\n  jumpi\n    /* \"#utility.yul\":2765:2766   */\n  0x00\n    /* \"#utility.yul\":2762:2763   */\n  0x00\n    /* \"#utility.yul\":2755:2767   */\n  revert\n    /* \"#utility.yul\":2706:2769   */\ntag_141:\n    /* \"#utility.yul\":2653:2775   */\n  pop\n  jump\t// out\n    /* \"#utility.yul\":2781:2924   */\ntag_86:\n    /* \"#utility.yul\":2838:2843   */\n  0x00\n    /* \"#utility.yul\":2869:2875   */\n  dup2\n    /* \"#utility.yul\":2863:2876   */\n  mload\n    /* \"#utility.yul\":2854:2876   */\n  swap1\n  pop\n    /* \"#utility.yul\":2885:2918   */\n  tag_143\n    /* \"#utility.yul\":2912:2917   */\n  dup2\n    /* \"#utility.yul\":2885:2918   */\n  tag_85\n  jump\t// in\ntag_143:\n    /* \"#utility.yul\":2781:2924   */\n  swap3\n  swap2\n  pop\n  pop\n  jump\t// out\n    /* \"#utility.yul\":2930:3610   */\ntag_3:\n    /* \"#utility.yul\":3019:3025   */\n  0x00\n    /* \"#utility.yul\":3027:3033   */\n  0x00\n    /* \"#utility.yul\":3076:3078   */\n  0x40\n    /* \"#utility.yul\":3064:3073   */\n  dup4\n    /* \"#utility.yul\":3055:3062   */\n  dup6\n    /* \"#utility.yul\":3051:3074   */\n  sub\n    /* \"#utility.yul\":3047:3079   */\n  slt\n    /* \"#utility.yul\":3044:3163   */\n  iszero\n  tag_145\n  jumpi\n    /* \"#utility.yul\":3082:3161   */\n  tag_146\n  tag_72\n  jump\t// in\ntag_146:\n    /* \"#utility.yul\":3044:3163   */\ntag_145:\n    /* \"#utility.yul\":3223:3224   */\n  0x00\n    /* \"#utility.yul\":3212:3221   */\n  dup4\n    /* \"#utility.yul\":3208:3225   */\n  add\n    /* \"#utility.yul\":3202:3226   */\n  mload\n    /* \"#utility.yul\":3253:3271   */\n  0xffffffffffffffff\n    /* \"#utility.yul\":3245:3251   */\n  dup2\n    /* \"#utility.yul\":3242:3272   */\n  gt\n    /* \"#utility.yul\":3239:3356   */\n  iszero\n  tag_147\n  jumpi\n    /* \"#utility.yul\":3275:3354   */\n  tag_148\n  tag_73\n  jump\t// in\ntag_148:\n    /* \"#utility.yul\":3239:3356   */\ntag_147:\n    /* \"#utility.yul\":3380:3454   */\n  tag_149\n    /* \"#utility.yul\":3446:3453   */\n  dup6\n    /* \"#utility.yul\":3437:3443   */\n  dup3\n    /* \"#utility.yul\":3426:3435   */\n  dup7\n    /* \"#utility.yul\":3422:3444   */\n  add\n    /* \"#utility.yul\":3380:3454   */\n  tag_83\n  jump\t// in\ntag_149:\n    /* \"#utility.yul\":3370:3454   */\n  swap3\n  pop\n    /* \"#utility.yul\":3173:3464   */\n  pop\n    /* \"#utility.yul\":3503:3505   */\n  0x20\n    /* \"#utility.yul\":3529:3593   */\n  tag_150\n    /* \"#utility.yul\":3585:3592   */\n  dup6\n    /* \"#utility.yul\":3576:3582   */\n  dup3\n    /* \"#utility.yul\":3565:3574   */\n  dup7\n    /* \"#utility.yul\":3561:3583   */\n  add\n    /* \"#utility.yul\":3529:3593   */\n  tag_86\n  jump\t// in\ntag_150:\n    /* \"#utility.yul\":3519:3593   */\n  swap2\n  pop\n    /* \"#utility.yul\":3474:3603   */\n  pop\n    /* \"#utility.yul\":2930:3610   */\n  swap3\n  pop\n  swap3\n  swap1\n  pop\n  jump\t// out\n    /* \"#utility.yul\":3616:3715   */\ntag_87:\n    /* \"#utility.yul\":3668:3674   */\n  0x00\n    /* \"#utility.yul\":3702:3707   */\n  dup2\n    /* \"#utility.yul\":3696:3708   */\n  mload\n    /* \"#utility.yul\":3686:3708   */\n  swap1\n  pop\n    /* \"#utility.yul\":3616:3715   */\n  swap2\n  swap1\n  pop\n  jump\t// out\n    /* \"#utility.yul\":3721:3901   */\ntag_88:\n    /* \"#utility.yul\":3769:3846   */\n  0x4e487b7100000000000000000000000000000000000000000000000000000000\n    /* \"#utility.yul\":3766:3767   */\n  0x00\n    /* \"#utility.yul\":3759:3847   */\n  mstore\n    /* \"#utility.yul\":3866:3870   */\n  0x22\n    /* \"#utility.yul\":3863:3864   */\n  0x04\n    /* \"#utility.yul\":3856:3871   */\n  mstore\n    /* \"#utility.yul\":3890:3894   */\n  0x24\n    /* \"#utility.yul\":3887:3888   */\n  0x00\n    /* \"#utility.yul\":3880:3895   */\n  revert\n    /* \"#utility.yul\":3907:4227   */\ntag_89:\n    /* \"#utility.yul\":3951:3957   */\n  0x00\n    /* \"#utility.yul\":3988:3989   */\n  0x02\n    /* \"#utility.yul\":3982:3986   */\n  dup3\n    /* \"#utility.yul\":3978:3990   */\n  div\n    /* \"#utility.yul\":3968:3990   */\n  swap1\n  pop\n    /* \"#utility.yul\":4035:4036   */\n  0x01\n    /* \"#utility.yul\":4029:4033   */\n  dup3\n    /* \"#utility.yul\":4025:4037   */\n  and\n    /* \"#utility.yul\":4056:4074   */\n  dup1\n    /* \"#utility.yul\":4046:4127   */\n  tag_154\n  jumpi\n    /* \"#utility.yul\":4112:4116   */\n  0x7f\n    /* \"#utility.yul\":4104:4110   */\n  dup3\n    /* \"#utility.yul\":4100:4117   */\n  and\n    /* \"#utility.yul\":4090:4117   */\n  swap2\n  pop\n    /* \"#utility.yul\":4046:4127   */\ntag_154:\n    /* \"#utility.yul\":4174:4176   */\n  0x20\n    /* \"#utility.yul\":4166:4172   */\n  dup3\n    /* \"#utility.yul\":4163:4177   */\n  lt\n    /* \"#utility.yul\":4143:4161   */\n  dup2\n    /* \"#utility.yul\":4140:4178   */\n  sub\n    /* \"#utility.yul\":4137:4221   */\n  tag_155\n  jumpi\n    /* \"#utility.yul\":4193:4211   */\n  tag_156\n  tag_88\n  jump\t// in\ntag_156:\n    /* \"#utility.yul\":4137:4221   */\ntag_155:\n    /* \"#utility.yul\":3958:4227   */\n  pop\n    /* \"#utility.yul\":3907:4227   */\n  swap2\n  swap1\n  pop\n  jump\t// out\n    /* \"#utility.yul\":4233:4374   */\ntag_90:\n    /* \"#utility.yul\":4282:4286   */\n  0x00\n    /* \"#utility.yul\":4305:4308   */\n  dup2\n    /* \"#utility.yul\":4297:4308   */\n  swap1\n  pop\n    /* \"#utility.yul\":4328:4331   */\n  dup2\n    /* \"#utility.yul\":4325:4326   */\n  0x00\n    /* \"#utility.yul\":4318:4332   */\n  mstore\n    /* \"#utility.yul\":4362:4366   */\n  0x20\n    /* \"#utility.yul\":4359:4360   */\n  0x00\n    /* \"#utility.yul\":4349:4367   */\n  keccak256\n    /* \"#utility.yul\":4341:4367   */\n  swap1\n  pop\n    /* \"#utility.yul\":4233:4374   */\n  swap2\n  swap1\n  pop\n  jump\t// out\n    /* \"#utility.yul\":4380:4473   */\ntag_91:\n    /* \"#utility.yul\":4417:4423   */\n  0x00\n    /* \"#utility.yul\":4464:4466   */\n  0x20\n    /* \"#utility.yul\":4459:4461   */\n  0x1f\n    /* \"#utility.yul\":4452:4457   */\n  dup4\n    /* \"#utility.yul\":4448:4462   */\n  add\n    /* \"#utility.yul\":4444:4467   */\n  div\n    /* \"#utility.yul\":4434:4467   */\n  swap1\n  pop\n    /* \"#utility.yul\":4380:4473   */\n  swap2\n  swap1\n  pop\n  jump\t// out\n    /* \"#utility.yul\":4479:4586   */\ntag_92:\n    /* \"#utility.yul\":4523:4531   */\n  0x00\n    /* \"#utility.yul\":4573:4578   */\n  dup3\n    /* \"#utility.yul\":4567:4571   */\n  dup3\n    /* \"#utility.yul\":4563:4579   */\n  shl\n    /* \"#utility.yul\":4542:4579   */\n  swap1\n  pop\n    /* \"#utility.yul\":4479:4586   */\n  swap3\n  swap2\n  pop\n  pop\n  jump\t// out\n    /* \"#utility.yul\":4592:4985   */\ntag_93:\n    /* \"#utility.yul\":4661:4667   */\n  0x00\n    /* \"#utility.yul\":4711:4712   */\n  0x08\n    /* \"#utility.yul\":4699:4709   */\n  dup4\n    /* \"#utility.yul\":4695:4713   */\n  mul\n    /* \"#utility.yul\":4734:4831   */\n  tag_161\n    /* \"#utility.yul\":4764:4830   */\n  0xffffffffffffffffffffffffffffffffffffffffffffffffffffffffffffffff\n    /* \"#utility.yul\":4753:4762   */\n  dup3\n    /* \"#utility.yul\":4734:4831   */\n  tag_92\n  jump\t// in\ntag_161:\n    /* \"#utility.yul\":4852:4891   */\n  tag_162\n    /* \"#utility.yul\":4882:4890   */\n  dup7\n    /* \"#utility.yul\":4871:4880   */\n  dup4\n    /* \"#utility.yul\":4852:4891   */\n  tag_92\n  jump\t// in\ntag_162:\n    /* \"#utility.yul\":4840:4891   */\n  swap6\n  pop\n    /* \"#utility.yul\":4924:4928   */\n  dup1\n    /* \"#utility.yul\":4920:4929   */\n  not\n    /* \"#utility.yul\":4913:4918   */\n  dup5\n    /* \"#utility.yul\":4909:4930   */\n  and\n    /* \"#utility.yul\":4900:4930   */\n  swap4\n  pop\n    /* \"#utility.yul\":4973:4977   */\n  dup1\n    /* \"#utility.yul\":4963:4971   */\n  dup7\n    /* \"#utility.yul\":4959:4978   */\n  and\n    /* \"#utility.yul\":4952:4957   */\n  dup5\n    /* \"#utility.yul\":4949:4979   */\n  or\n    /* \"#utility.yul\":4939:4979   */\n  swap3\n  pop\n    /* \"#utility.yul\":4668:4985   */\n  pop\n  pop\n    /* \"#utility.yul\":4592:4985   */\n  swap4\n  swap3\n  pop\n  pop\n  pop\n  jump\t// out\n    /* \"#utility.yul\":4991:5051   */\ntag_94:\n    /* \"#utility.yul\":5019:5022   */\n  0x00\n    /* \"#utility.yul\":5040:5045   */\n  dup2\n    /* \"#utility.yul\":5033:5045   */\n  swap1\n  pop\n    /* \"#utility.yul\":4991:5051   */\n  swap2\n  swap1\n  pop\n  jump\t// out\n    /* \"#utility.yul\":5057:5199   */\ntag_95:\n    /* \"#utility.yul\":5107:5116   */\n  0x00\n    /* \"#utility.yul\":5140:5193   */\n  tag_165\n    /* \"#utility.yul\":5158:5192   */\n  tag_166\n    /* \"#utility.yul\":5167:5191   */\n  tag_167\n    /* \"#utility.yul\":5185:5190   */\n  dup5\n    /* \"#utility.yul\":5167:5191   */\n  tag_84\n  jump\t// in\ntag_167:\n    /* \"#utility.yul\":5158:5192   */\n  tag_94\n  jump\t// in\ntag_166:\n    /* \"#utility.yul\":5140:5193   */\n  tag_84\n  jump\t// in\ntag_165:\n    /* \"#utility.yul\":5127:5193   */\n  swap1\n  pop\n    /* \"#utility.yul\":5057:5199   */\n  swap2\n  swap1\n  pop\n  jump\t// out\n    /* \"#utility.yul\":5205:5280   */\ntag_96:\n    /* \"#utility.yul\":5248:5251   */\n  0x00\n    /* \"#utility.yul\":5269:5274   */\n  dup2\n    /* \"#utility.yul\":5262:5274   */\n  swap1\n  pop\n    /* \"#utility.yul\":5205:5280   */\n  swap2\n  swap1\n  pop\n  jump\t// out\n    /* \"#utility.yul\":5286:5555   */\ntag_97:\n    /* \"#utility.yul\":5396:5435   */\n  tag_170\n    /* \"#utility.yul\":5427:5434   */\n  dup4\n    /* \"#utility.yul\":5396:5435   */\n  tag_95\n  jump\t// in\ntag_170:\n    /* \"#utility.yul\":5457:5548   */\n  tag_171\n    /* \"#utility.yul\":5506:5547   */\n  tag_172\n    /* \"#utility.yul\":5530:5546   */\n  dup3\n    /* \"#utility.yul\":5506:5547   */\n  tag_96\n  jump\t// in\ntag_172:\n    /* \"#utility.yul\":5498:5504   */\n  dup5\n    /* \"#utility.yul\":5491:5495   */\n  dup5\n    /* \"#utility.yul\":5485:5496   */\n  sload\n    /* \"#utility.yul\":5457:5548   */\n  tag_93\n  jump\t// in\ntag_171:\n    /* \"#utility.yul\":5451:5455   */\n  dup3\n    /* \"#utility.yul\":5444:5549   */\n  sstore\n    /* \"#utility.yul\":5362:5555   */\n  pop\n    /* \"#utility.yul\":5286:5555   */\n  pop\n  pop\n  pop\n  jump\t// out\n    /* \"#utility.yul\":5561:5634   */\ntag_98:\n    /* \"#utility.yul\":5606:5609   */\n  0x00\n    /* \"#utility.yul\":5627:5628   */\n  0x00\n    /* \"#utility.yul\":5620:5628   */\n  swap1\n  pop\n    /* \"#utility.yul\":5561:5634   */\n  swap1\n  jump\t// out\n    /* \"#utility.yul\":5640:5829   */\ntag_99:\n    /* \"#utility.yul\":5717:5749   */\n  tag_175\n  tag_98\n  jump\t// in\ntag_175:\n    /* \"#utility.yul\":5758:5823   */\n  tag_176\n    /* \"#utility.yul\":5816:5822   */\n  dup2\n    /* \"#utility.yul\":5808:5814   */\n  dup5\n    /* \"#utility.yul\":5802:5806   */\n  dup5\n    /* \"#utility.yul\":5758:5823   */\n  tag_97\n  jump\t// in\ntag_176:\n    /* \"#utility.yul\":5693:5829   */\n  pop\n    /* \"#utility.yul\":5640:5829   */\n  pop\n  pop\n  jump\t// out\n    /* \"#utility.yul\":5835:6021   */\ntag_100:\n    /* \"#utility.yul\":5895:6015   */\ntag_178:\n    /* \"#utility.yul\":5912:5915   */\n  dup2\n    /* \"#utility.yul\":5905:5910   */\n  dup2\n    /* \"#utility.yul\":5902:5916   */\n  lt\n    /* \"#utility.yul\":5895:6015   */\n  iszero\n  tag_180\n  jumpi\n    /* \"#utility.yul\":5966:6005   */\n  tag_181\n    /* \"#utility.yul\":6003:6004   */\n  0x00\n    /* \"#utility.yul\":5996:6001   */\n  dup3\n    /* \"#utility.yul\":5966:6005   */\n  tag_99\n  jump\t// in\ntag_181:\n    /* \"#utility.yul\":5939:5940   */\n  0x01\n    /* \"#utility.yul\":5932:5937   */\n  dup2\n    /* \"#utility.yul\":5928:5941   */\n  add\n    /* \"#utility.yul\":5919:5941   */\n  swap1\n  pop\n    /* \"#utility.yul\":5895:6015   */\n  jump(tag_178)\ntag_180:\n    /* \"#utility.yul\":5835:6021   */\n  pop\n  pop\n  jump\t// out\n    /* \"#utility.yul\":6027:6570   */\ntag_101:\n    /* \"#utility.yul\":6128:6130   */\n  0x1f\n    /* \"#utility.yul\":6123:6126   */\n  dup3\n    /* \"#utility.yul\":6120:6131   */\n  gt\n    /* \"#utility.yul\":6117:6563   */\n  iszero\n  tag_183\n  jumpi\n    /* \"#utility.yul\":6162:6200   */\n  tag_184\n    /* \"#utility.yul\":6194:6199   */\n  dup2\n    /* \"#utility.yul\":6162:6200   */\n  tag_90\n  jump\t// in\ntag_184:\n    /* \"#utility.yul\":6246:6275   */\n  tag_185\n    /* \"#utility.yul\":6264:6274   */\n  dup5\n    /* \"#utility.yul\":6246:6275   */\n  tag_91\n  jump\t// in\ntag_185:\n    /* \"#utility.yul\":6236:6244   */\n  dup2\n    /* \"#utility.yul\":6232:6276   */\n  add\n    /* \"#utility.yul\":6429:6431   */\n  0x20\n    /* \"#utility.yul\":6417:6427   */\n  dup6\n    /* \"#utility.yul\":6414:6432   */\n  lt\n    /* \"#utility.yul\":6411:6460   */\n  iszero\n  tag_186\n  jumpi\n    /* \"#utility.yul\":6450:6458   */\n  dup2\n    /* \"#utility.yul\":6435:6458   */\n  swap1\n  pop\n    /* \"#utility.yul\":6411:6460   */\ntag_186:\n    /* \"#utility.yul\":6473:6553   */\n  tag_187\n    /* \"#utility.yul\":6529:6551   */\n  tag_188\n    /* \"#utility.yul\":6547:6550   */\n  dup6\n    /* \"#utility.yul\":6529:6551   */\n  tag_91\n  jump\t// in\ntag_188:\n    /* \"#utility.yul\":6519:6527   */\n  dup4\n    /* \"#utility.yul\":6515:6552   */\n  add\n    /* \"#utility.yul\":6502:6513   */\n  dup3\n    /* \"#utility.yul\":6473:6553   */\n  tag_100\n  jump\t// in\ntag_187:\n    /* \"#utility.yul\":6132:6563   */\n  pop\n  pop\n    /* \"#utility.yul\":6117:6563   */\ntag_183:\n    /* \"#utility.yul\":6027:6570   */\n  pop\n  pop\n  pop\n  jump\t// out\n    /* \"#utility.yul\":6576:6693   */\ntag_102:\n    /* \"#utility.yul\":6630:6638   */\n  0x00\n    /* \"#utility.yul\":6680:6685   */\n  dup3\n    /* \"#utility.yul\":6674:6678   */\n  dup3\n    /* \"#utility.yul\":6670:6686   */\n  shr\n    /* \"#utility.yul\":6649:6686   */\n  swap1\n  pop\n    /* \"#utility.yul\":6576:6693   */\n  swap3\n  swap2\n  pop\n  pop\n  jump\t// out\n    /* \"#utility.yul\":6699:6868   */\ntag_103:\n    /* \"#utility.yul\":6743:6749   */\n  0x00\n    /* \"#utility.yul\":6776:6827   */\n  tag_191\n    /* \"#utility.yul\":6824:6825   */\n  0x00\n    /* \"#utility.yul\":6820:6826   */\n  not\n    /* \"#utility.yul\":6812:6817   */\n  dup5\n    /* \"#utility.yul\":6809:6810   */\n  0x08\n    /* \"#utility.yul\":6805:6818   */\n  mul\n    /* \"#utility.yul\":6776:6827   */\n  tag_102\n  jump\t// in\ntag_191:\n    /* \"#utility.yul\":6772:6828   */\n  not\n    /* \"#utility.yul\":6857:6861   */\n  dup1\n    /* \"#utility.yul\":6851:6855   */\n  dup4\n    /* \"#utility.yul\":6847:6862   */\n  and\n    /* \"#utility.yul\":6837:6862   */\n  swap2\n  pop\n    /* \"#utility.yul\":6750:6868   */\n  pop\n    /* \"#utility.yul\":6699:6868   */\n  swap3\n  swap2\n  pop\n  pop\n  jump\t// out\n    /* \"#utility.yul\":6873:7168   */\ntag_104:\n    /* \"#utility.yul\":6949:6953   */\n  0x00\n    /* \"#utility.yul\":7095:7124   */\n  tag_193\n    /* \"#utility.yul\":7120:7123   */\n  dup4\n    /* \"#utility.yul\":7114:7118   */\n  dup4\n    /* \"#utility.yul\":7095:7124   */\n  tag_103\n  jump\t// in\ntag_193:\n    /* \"#utility.yul\":7087:7124   */\n  swap2\n  pop\n    /* \"#utility.yul\":7157:7160   */\n  dup3\n    /* \"#utility.yul\":7154:7155   */\n  0x02\n    /* \"#utility.yul\":7150:7161   */\n  mul\n    /* \"#utility.yul\":7144:7148   */\n  dup3\n    /* \"#utility.yul\":7141:7162   */\n  or\n    /* \"#utility.yul\":7133:7162   */\n  swap1\n  pop\n    /* \"#utility.yul\":6873:7168   */\n  swap3\n  swap2\n  pop\n  pop\n  jump\t// out\n    /* \"#utility.yul\":7173:8568   */\ntag_8:\n    /* \"#utility.yul\":7290:7327   */\n  tag_195\n    /* \"#utility.yul\":7323:7326   */\n  dup3\n    /* \"#utility.yul\":7290:7327   */\n  tag_87\n  jump\t// in\ntag_195:\n    /* \"#utility.yul\":7392:7410   */\n  0xffffffffffffffff\n    /* \"#utility.yul\":7384:7390   */\n  dup2\n    /* \"#utility.yul\":7381:7411   */\n  gt\n    /* \"#utility.yul\":7378:7434   */\n  iszero\n  tag_196\n  jumpi\n    /* \"#utility.yul\":7414:7432   */\n  tag_197\n  tag_77\n  jump\t// in\ntag_197:\n    /* \"#utility.yul\":7378:7434   */\ntag_196:\n    /* \"#utility.yul\":7458:7496   */\n  tag_198\n    /* \"#utility.yul\":7490:7494   */\n  dup3\n    /* \"#utility.yul\":7484:7495   */\n  sload\n    /* \"#utility.yul\":7458:7496   */\n  tag_89\n  jump\t// in\ntag_198:\n    /* \"#utility.yul\":7543:7610   */\n  tag_199\n    /* \"#utility.yul\":7603:7609   */\n  dup3\n    /* \"#utility.yul\":7595:7601   */\n  dup3\n    /* \"#utility.yul\":7589:7593   */\n  dup6\n    /* \"#utility.yul\":7543:7610   */\n  tag_101\n  jump\t// in\ntag_199:\n    /* \"#utility.yul\":7637:7638   */\n  0x00\n    /* \"#utility.yul\":7661:7665   */\n  0x20\n    /* \"#utility.yul\":7648:7665   */\n  swap1\n  pop\n    /* \"#utility.yul\":7693:7695   */\n  0x1f\n    /* \"#utility.yul\":7685:7691   */\n  dup4\n    /* \"#utility.yul\":7682:7696   */\n  gt\n    /* \"#utility.yul\":7710:7711   */\n  0x01\n    /* \"#utility.yul\":7705:8323   */\n  dup2\n  eq\n  tag_201\n  jumpi\n    /* \"#utility.yul\":8367:8368   */\n  0x00\n    /* \"#utility.yul\":8384:8390   */\n  dup5\n    /* \"#utility.yul\":8381:8458   */\n  iszero\n  tag_202\n  jumpi\n    /* \"#utility.yul\":8433:8442   */\n  dup3\n    /* \"#utility.yul\":8428:8431   */\n  dup8\n    /* \"#utility.yul\":8424:8443   */\n  add\n    /* \"#utility.yul\":8418:8444   */\n  mload\n    /* \"#utility.yul\":8409:8444   */\n  swap1\n  pop\n    /* \"#utility.yul\":8381:8458   */\ntag_202:\n    /* \"#utility.yul\":8484:8551   */\n  tag_203\n    /* \"#utility.yul\":8544:8550   */\n  dup6\n    /* \"#utility.yul\":8537:8542   */\n  dup3\n    /* \"#utility.yul\":8484:8551   */\n  tag_104\n  jump\t// in\ntag_203:\n    /* \"#utility.yul\":8478:8482   */\n  dup7\n    /* \"#utility.yul\":8471:8552   */\n  sstore\n    /* \"#utility.yul\":8340:8562   */\n  pop\n    /* \"#utility.yul\":7675:8562   */\n  jump(tag_200)\n    /* \"#utility.yul\":7705:8323   */\ntag_201:\n    /* \"#utility.yul\":7757:7761   */\n  0x1f\n    /* \"#utility.yul\":7753:7762   */\n  not\n    /* \"#utility.yul\":7745:7751   */\n  dup5\n    /* \"#utility.yul\":7741:7763   */\n  and\n    /* \"#utility.yul\":7791:7828   */\n  tag_204\n    /* \"#utility.yul\":7823:7827   */\n  dup7\n    /* \"#utility.yul\":7791:7828   */\n  tag_90\n  jump\t// in\ntag_204:\n    /* \"#utility.yul\":7850:7851   */\n  0x00\n    /* \"#utility.yul\":7864:8072   */\ntag_205:\n    /* \"#utility.yul\":7878:7885   */\n  dup3\n    /* \"#utility.yul\":7875:7876   */\n  dup2\n    /* \"#utility.yul\":7872:7886   */\n  lt\n    /* \"#utility.yul\":7864:8072   */\n  iszero\n  tag_207\n  jumpi\n    /* \"#utility.yul\":7957:7966   */\n  dup5\n    /* \"#utility.yul\":7952:7955   */\n  dup10\n    /* \"#utility.yul\":7948:7967   */\n  add\n    /* \"#utility.yul\":7942:7968   */\n  mload\n    /* \"#utility.yul\":7934:7940   */\n  dup3\n    /* \"#utility.yul\":7927:7969   */\n  sstore\n    /* \"#utility.yul\":8008:8009   */\n  0x01\n    /* \"#utility.yul\":8000:8006   */\n  dup3\n    /* \"#utility.yul\":7996:8010   */\n  add\n    /* \"#utility.yul\":7986:8010   */\n  swap2\n  pop\n    /* \"#utility.yul\":8055:8057   */\n  0x20\n    /* \"#utility.yul\":8044:8053   */\n  dup6\n    /* \"#utility.yul\":8040:8058   */\n  add\n    /* \"#utility.yul\":8027:8058   */\n  swap5\n  pop\n    /* \"#utility.yul\":7901:7905   */\n  0x20\n    /* \"#utility.yul\":7898:7899   */\n  dup2\n    /* \"#utility.yul\":7894:7906   */\n  add\n    /* \"#utility.yul\":7889:7906   */\n  swap1\n  pop\n    /* \"#utility.yul\":7864:8072   */\n  jump(tag_205)\ntag_207:\n    /* \"#utility.yul\":8100:8106   */\n  dup7\n    /* \"#utility.yul\":8091:8098   */\n  dup4\n    /* \"#utility.yul\":8088:8107   */\n  lt\n    /* \"#utility.yul\":8085:8264   */\n  iszero\n  tag_208\n  jumpi\n    /* \"#utility.yul\":8158:8167   */\n  dup5\n    /* \"#utility.yul\":8153:8156   */\n  dup10\n    /* \"#utility.yul\":8149:8168   */\n  add\n    /* \"#utility.yul\":8143:8169   */\n  mload\n    /* \"#utility.yul\":8201:8249   */\n  tag_209\n    /* \"#utility.yul\":8243:8247   */\n  0x1f\n    /* \"#utility.yul\":8235:8241   */\n  dup10\n    /* \"#utility.yul\":8231:8248   */\n  and\n    /* \"#utility.yul\":8220:8229   */\n  dup3\n    /* \"#utility.yul\":8201:8249   */\n  tag_103\n  jump\t// in\ntag_209:\n    /* \"#utility.yul\":8193:8199   */\n  dup4\n    /* \"#utility.yul\":8186:8250   */\n  sstore\n    /* \"#utility.yul\":8108:8264   */\n  pop\n    /* \"#utility.yul\":8085:8264   */\ntag_208:\n    /* \"#utility.yul\":8310:8311   */\n  0x01\n    /* \"#utility.yul\":8306:8307   */\n  0x02\n    /* \"#utility.yul\":8298:8304   */\n  dup9\n    /* \"#utility.yul\":8294:8308   */\n  mul\n    /* \"#utility.yul\":8290:8312   */\n  add\n    /* \"#utility.yul\":8284:8288   */\n  dup9\n    /* \"#utility.yul\":8277:8313   */\n  sstore\n    /* \"#utility.yul\":7712:8323   */\n  pop\n  pop\n  pop\n    /* \"#utility.yul\":7675:8562   */\ntag_200:\n  pop\n    /* \"#utility.yul\":7265:8568   */\n  pop\n  pop\n  pop\n    /* \"#utility.yul\":7173:8568   */\n  pop\n  pop\n  jump\t// out\n    /* \"#utility.yul\":8574:8722   */\ntag_105:\n    /* \"#utility.yul\":8676:8687   */\n  0x00\n    /* \"#utility.yul\":8713:8716   */\n  dup2\n    /* \"#utility.yul\":8698:8716   */\n  swap1\n  pop\n    /* \"#utility.yul\":8574:8722   */\n  swap3\n  swap2\n  pop\n  pop\n  jump\t// out\n    /* \"#utility.yul\":8728:9118   */\ntag_106:\n    /* \"#utility.yul\":8834:8837   */\n  0x00\n    /* \"#utility.yul\":8862:8901   */\n  tag_212\n    /* \"#utility.yul\":8895:8900   */\n  dup3\n    /* \"#utility.yul\":8862:8901   */\n  tag_87\n  jump\t// in\ntag_212:\n    /* \"#utility.yul\":8917:9006   */\n  tag_213\n    /* \"#utility.yul\":8999:9005   */\n  dup2\n    /* \"#utility.yul\":8994:8997   */\n  dup6\n    /* \"#utility.yul\":8917:9006   */\n  tag_105\n  jump\t// in\ntag_213:\n    /* \"#utility.yul\":8910:9006   */\n  swap4\n  pop\n    /* \"#utility.yul\":9015:9080   */\n  tag_214\n    /* \"#utility.yul\":9073:9079   */\n  dup2\n    /* \"#utility.yul\":9068:9071   */\n  dup6\n    /* \"#utility.yul\":9061:9065   */\n  0x20\n    /* \"#utility.yul\":9054:9059   */\n  dup7\n    /* \"#utility.yul\":9050:9066   */\n  add\n    /* \"#utility.yul\":9015:9080   */\n  tag_81\n  jump\t// in\ntag_214:\n    /* \"#utility.yul\":9105:9111   */\n  dup1\n    /* \"#utility.yul\":9100:9103   */\n  dup5\n    /* \"#utility.yul\":9096:9112   */\n  add\n    /* \"#utility.yul\":9089:9112   */\n  swap2\n  pop\n    /* \"#utility.yul\":8838:9118   */\n  pop\n    /* \"#utility.yul\":8728:9118   */\n  swap3\n  swap2\n  pop\n  pop\n  jump\t// out\n    /* \"#utility.yul\":9124:9399   */\ntag_11:\n    /* \"#utility.yul\":9256:9259   */\n  0x00\n    /* \"#utility.yul\":9278:9373   */\n  tag_216\n    /* \"#utility.yul\":9369:9372   */\n  dup3\n    /* \"#utility.yul\":9360:9366   */\n  dup5\n    /* \"#utility.yul\":9278:9373   */\n  tag_106\n  jump\t// in\ntag_216:\n    /* \"#utility.yul\":9271:9373   */\n  swap2\n  pop\n    /* \"#utility.yul\":9390:9393   */\n  dup2\n    /* \"#utility.yul\":9383:9393   */\n  swap1\n  pop\n    /* \"#utility.yul\":9124:9399   */\n  swap3\n  swap2\n  pop\n  pop\n  jump\t// out\n    /* \"#utility.yul\":9405:9585   */\ntag_16:\n    /* \"#utility.yul\":9453:9530   */\n  0x4e487b7100000000000000000000000000000000000000000000000000000000\n    /* \"#utility.yul\":9450:9451   */\n  0x00\n    /* \"#utility.yul\":9443:9531   */\n  mstore\n    /* \"#utility.yul\":9550:9554   */\n  0x32\n    /* \"#utility.yul\":9547:9548   */\n  0x04\n    /* \"#utility.yul\":9540:9555   */\n  mstore\n    /* \"#utility.yul\":9574:9578   */\n  0x24\n    /* \"#utility.yul\":9571:9572   */\n  0x00\n    /* \"#utility.yul\":9564:9579   */\n  revert\n    /* \"#utility.yul\":9591:9771   */\ntag_107:\n    /* \"#utility.yul\":9639:9716   */\n  0x4e487b7100000000000000000000000000000000000000000000000000000000\n    /* \"#utility.yul\":9636:9637   */\n  0x00\n    /* \"#utility.yul\":9629:9717   */\n  mstore\n    /* \"#utility.yul\":9736:9740   */\n  0x11\n    /* \"#utility.yul\":9733:9734   */\n  0x04\n    /* \"#utility.yul\":9726:9741   */\n  mstore\n    /* \"#utility.yul\":9760:9764   */\n  0x24\n    /* \"#utility.yul\":9757:9758   */\n  0x00\n    /* \"#utility.yul\":9750:9765   */\n  revert\n    /* \"#utility.yul\":9777:10010   */\ntag_70:\n    /* \"#utility.yul\":9816:9819   */\n  0x00\n    /* \"#utility.yul\":9839:9863   */\n  tag_220\n    /* \"#utility.yul\":9857:9862   */\n  dup3\n    /* \"#utility.yul\":9839:9863   */\n  tag_84\n  jump\t// in\ntag_220:\n    /* \"#utility.yul\":9830:9863   */\n  swap2\n  pop\n    /* \"#utility.yul\":9885:9951   */\n  0xffffffffffffffffffffffffffffffffffffffffffffffffffffffffffffffff\n    /* \"#utility.yul\":9878:9883   */\n  dup3\n    /* \"#utility.yul\":9875:9952   */\n  sub\n    /* \"#utility.yul\":9872:9975   */\n  tag_221\n  jumpi\n    /* \"#utility.yul\":9955:9973   */\n  tag_222\n  tag_107\n  jump\t// in\ntag_222:\n    /* \"#utility.yul\":9872:9975   */\ntag_221:\n    /* \"#utility.yul\":10002:10003   */\n  0x01\n    /* \"#utility.yul\":9995:10000   */\n  dup3\n    /* \"#utility.yul\":9991:10004   */\n  add\n    /* \"#utility.yul\":9984:10004   */\n  swap1\n  pop\n    /* \"#utility.yul\":9777:10010   */\n  swap2\n  swap1\n  pop\n  jump\t// out\n    /* \"AirlineManagement.sol\":66:5348  contract AirlineManagement {... */\ntag_60:\n  dataSize(sub_0)\n  dup1\n  dataOffset(sub_0)\n  0x00\n  codecopy\n  0x00\n  return\nstop\n\nsub_0: assembly {\n        /* \"AirlineManagement.sol\":66:5348  contract AirlineManagement {... */\n      mstore(0x40, 0x80)\n      jumpi(tag_1, lt(calldatasize, 0x04))\n      shr(0xe0, calldataload(0x00))\n      dup1\n      0x5e583e37\n      gt\n      tag_17\n      jumpi\n      dup1\n      0x908921fc\n      gt\n      tag_18\n      jumpi\n      dup1\n      0x908921fc\n      eq\n      tag_13\n      jumpi\n      dup1\n      0xad03fe70\n      eq\n      tag_14\n      jumpi\n      dup1\n      0xcb2cc82a\n      eq\n      tag_15\n      jumpi\n      dup1\n      0xea6e358e\n      eq\n      tag_16\n      jumpi\n      jump(tag_1)\n    tag_18:\n      dup1\n      0x5e583e37\n      eq\n      tag_9\n      jumpi\n      dup1\n      0x6031a52f\n      eq\n      tag_10\n      jumpi\n      dup1\n      0x695dc67e\n      eq\n      tag_11\n      jumpi\n      dup1\n      0x8dd4ba2e\n      eq\n      tag_12\n      jumpi\n      jump(tag_1)\n    tag_17:\n      dup1\n      0x1165e6ab\n      gt\n      tag_19\n      jumpi\n      dup1\n      0x1165e6ab\n      eq\n      tag_5\n      jumpi\n      dup1\n      0x195c1445\n      eq\n      tag_6\n      jumpi\n      dup1\n      0x2427e59e\n      eq\n      tag_7\n      jumpi\n      dup1\n      0x4afe9f7b\n      eq\n      tag_8\n      jumpi\n      jump(tag_1)\n    tag_19:\n      dup1\n      0x033fab35\n      eq\n      tag_2\n      jumpi\n      dup1\n      0x06661abd\n      eq\n      tag_3\n      jumpi\n      dup1\n      0x07819bd6\n      eq\n      tag_4\n      jumpi\n    tag_1:\n      revert(0x00, 0x00)\n        /* \"AirlineManagement.sol\":862:909  mapping(uint256 => Ticket) public ticketDetails */\n    tag_2:\n      callvalue\n      dup1\n      iszero\n      tag_20\n      jumpi\n      revert(0x00, 0x00)\n    tag_20:\n      pop\n      tag_21\n      0x04\n      dup1\n      calldatasize\n      sub\n      dup2\n      add\n      swap1\n      tag_22\n      swap2\n      swap1\n      tag_23\n      jump\t// in\n    tag_22:\n      tag_24\n      jump\t// in\n    tag_21:\n      mload(0x40)\n      tag_25\n      swap8\n      swap7\n      swap6\n      swap5\n      swap4\n      swap3\n      swap2\n      swap1\n      tag_26\n      jump\t// in\n    tag_25:\n      mload(0x40)\n      dup1\n      swap2\n      sub\n      swap1\n      return\n        /* \"AirlineManagement.sol\":756:773  uint public count */\n    tag_3:\n      callvalue\n      dup1\n      iszero\n      tag_27\n      jumpi\n      revert(0x00, 0x00)\n    tag_27:\n      pop\n      tag_28\n      tag_29\n      jump\t// in\n    tag_28:\n      mload(0x40)\n      tag_30\n      swap2\n      swap1\n      tag_31\n      jump\t// in\n    tag_30:\n      mload(0x40)\n      dup1\n      swap2\n      sub\n      swap1\n      return\n        /* \"AirlineManagement.sol\":2723:3175  function getPrice (string memory destination, uint month, uint class, bool way) public view returns(uint) {... */\n    tag_4:\n      callvalue\n      dup1\n      iszero\n      tag_32\n      jumpi\n      revert(0x00, 0x00)\n    tag_32:\n      pop\n      tag_33\n      0x04\n      dup1\n      calldatasize\n      sub\n      dup2\n      add\n      swap1\n      tag_34\n      swap2\n      swap1\n      tag_35\n      jump\t// in\n    tag_34:\n      tag_36\n      jump\t// in\n    tag_33:\n      mload(0x40)\n      tag_37\n      swap2\n      swap1\n      tag_31\n      jump\t// in\n    tag_37:\n      mload(0x40)\n      dup1\n      swap2\n      sub\n      swap1\n      return\n        /* \"AirlineManagement.sol\":4282:4374  function isCeo(address user) public view returns(bool) {... */\n    tag_5:\n      callvalue\n      dup1\n      iszero\n      tag_38\n      jumpi\n      revert(0x00, 0x00)\n    tag_38:\n      pop\n      tag_39\n      0x04\n      dup1\n      calldatasize\n      sub\n      dup2\n      add\n      swap1\n      tag_40\n      swap2\n      swap1\n      tag_41\n      jump\t// in\n    tag_40:\n      tag_42\n      jump\t// in\n    tag_39:\n      mload(0x40)\n      tag_43\n      swap2\n      swap1\n      tag_44\n      jump\t// in\n    tag_43:\n      mload(0x40)\n      dup1\n      swap2\n      sub\n      swap1\n      return\n        /* \"AirlineManagement.sol\":429:460  uint[] public destinationPrices */\n    tag_6:\n      callvalue\n      dup1\n      iszero\n      tag_45\n      jumpi\n      revert(0x00, 0x00)\n    tag_45:\n      pop\n      tag_46\n      0x04\n      dup1\n      calldatasize\n      sub\n      dup2\n      add\n      swap1\n      tag_47\n      swap2\n      swap1\n      tag_23\n      jump\t// in\n    tag_47:\n      tag_48\n      jump\t// in\n    tag_46:\n      mload(0x40)\n      tag_49\n      swap2\n      swap1\n      tag_31\n      jump\t// in\n    tag_49:\n      mload(0x40)\n      dup1\n      swap2\n      sub\n      swap1\n      return\n        /* \"AirlineManagement.sol\":510:548  mapping(string => uint) public indexes */\n    tag_7:\n      callvalue\n      dup1\n      iszero\n      tag_50\n      jumpi\n      revert(0x00, 0x00)\n    tag_50:\n      pop\n      tag_51\n      0x04\n      dup1\n      calldatasize\n      sub\n      dup2\n      add\n      swap1\n      tag_52\n      swap2\n      swap1\n      tag_53\n      jump\t// in\n    tag_52:\n      tag_54\n      jump\t// in\n    tag_51:\n      mload(0x40)\n      tag_55\n      swap2\n      swap1\n      tag_31\n      jump\t// in\n    tag_55:\n      mload(0x40)\n      dup1\n      swap2\n      sub\n      swap1\n      return\n        /* \"AirlineManagement.sol\":2373:2715  function create30Tickets(address owner, string memory destination, uint256 price) public restricted {... */\n    tag_8:\n      callvalue\n      dup1\n      iszero\n      tag_56\n      jumpi\n      revert(0x00, 0x00)\n    tag_56:\n      pop\n      tag_57\n      0x04\n      dup1\n      calldatasize\n      sub\n      dup2\n      add\n      swap1\n      tag_58\n      swap2\n      swap1\n      tag_59\n      jump\t// in\n    tag_58:\n      tag_60\n      jump\t// in\n    tag_57:\n      stop\n        /* \"AirlineManagement.sol\":2018:2321  function createDestination(string memory destination, uint destinationPrice) restricted public {... */\n    tag_9:\n      callvalue\n      dup1\n      iszero\n      tag_61\n      jumpi\n      revert(0x00, 0x00)\n    tag_61:\n      pop\n      tag_62\n      0x04\n      dup1\n      calldatasize\n      sub\n      dup2\n      add\n      swap1\n      tag_63\n      swap2\n      swap1\n      tag_64\n      jump\t// in\n    tag_63:\n      tag_65\n      jump\t// in\n    tag_62:\n      stop\n        /* \"AirlineManagement.sol\":916:943  uint256 public nextTicketId */\n    tag_10:\n      callvalue\n      dup1\n      iszero\n      tag_66\n      jumpi\n      revert(0x00, 0x00)\n    tag_66:\n      pop\n      tag_67\n      tag_68\n      jump\t// in\n    tag_67:\n      mload(0x40)\n      tag_69\n      swap2\n      swap1\n      tag_31\n      jump\t// in\n    tag_69:\n      mload(0x40)\n      dup1\n      swap2\n      sub\n      swap1\n      return\n        /* \"AirlineManagement.sol\":682:712  uint[3] public classMultiplier */\n    tag_11:\n      callvalue\n      dup1\n      iszero\n      tag_70\n      jumpi\n      revert(0x00, 0x00)\n    tag_70:\n      pop\n      tag_71\n      0x04\n      dup1\n      calldatasize\n      sub\n      dup2\n      add\n      swap1\n      tag_72\n      swap2\n      swap1\n      tag_23\n      jump\t// in\n    tag_72:\n      tag_73\n      jump\t// in\n    tag_71:\n      mload(0x40)\n      tag_74\n      swap2\n      swap1\n      tag_31\n      jump\t// in\n    tag_74:\n      mload(0x40)\n      dup1\n      swap2\n      sub\n      swap1\n      return\n        /* \"AirlineManagement.sol\":353:381  string[] public destinations */\n    tag_12:\n      callvalue\n      dup1\n      iszero\n      tag_75\n      jumpi\n      revert(0x00, 0x00)\n    tag_75:\n      pop\n      tag_76\n      0x04\n      dup1\n      calldatasize\n      sub\n      dup2\n      add\n      swap1\n      tag_77\n      swap2\n      swap1\n      tag_23\n      jump\t// in\n    tag_77:\n      tag_78\n      jump\t// in\n    tag_76:\n      mload(0x40)\n      tag_79\n      swap2\n      swap1\n      tag_80\n      jump\t// in\n    tag_79:\n      mload(0x40)\n      dup1\n      swap2\n      sub\n      swap1\n      return\n        /* \"AirlineManagement.sol\":302:320  address public ceo */\n    tag_13:\n      callvalue\n      dup1\n      iszero\n      tag_81\n      jumpi\n      revert(0x00, 0x00)\n    tag_81:\n      pop\n      tag_82\n      tag_83\n      jump\t// in\n    tag_82:\n      mload(0x40)\n      tag_84\n      swap2\n      swap1\n      tag_85\n      jump\t// in\n    tag_84:\n      mload(0x40)\n      dup1\n      swap2\n      sub\n      swap1\n      return\n        /* \"AirlineManagement.sol\":4383:5341  function getBookedFlights(address user) public view returns (Ticket[] memory) {... */\n    tag_14:\n      callvalue\n      dup1\n      iszero\n      tag_86\n      jumpi\n      revert(0x00, 0x00)\n    tag_86:\n      pop\n      tag_87\n      0x04\n      dup1\n      calldatasize\n      sub\n      dup2\n      add\n      swap1\n      tag_88\n      swap2\n      swap1\n      tag_41\n      jump\t// in\n    tag_88:\n      tag_89\n      jump\t// in\n    tag_87:\n      mload(0x40)\n      tag_90\n      swap2\n      swap1\n      tag_91\n      jump\t// in\n    tag_90:\n      mload(0x40)\n      dup1\n      swap2\n      sub\n      swap1\n      return\n        /* \"AirlineManagement.sol\":612:643  uint[12] public monthMultiplier */\n    tag_15:\n      callvalue\n      dup1\n      iszero\n      tag_92\n      jumpi\n      revert(0x00, 0x00)\n    tag_92:\n      pop\n      tag_93\n      0x04\n      dup1\n      calldatasize\n      sub\n      dup2\n      add\n      swap1\n      tag_94\n      swap2\n      swap1\n      tag_23\n      jump\t// in\n    tag_94:\n      tag_95\n      jump\t// in\n    tag_93:\n      mload(0x40)\n      tag_96\n      swap2\n      swap1\n      tag_31\n      jump\t// in\n    tag_96:\n      mload(0x40)\n      dup1\n      swap2\n      sub\n      swap1\n      return\n        /* \"AirlineManagement.sol\":3183:4274  function bookFlight(string memory destination, uint month, uint class, bool way) public payable{... */\n    tag_16:\n      tag_97\n      0x04\n      dup1\n      calldatasize\n      sub\n      dup2\n      add\n      swap1\n      tag_98\n      swap2\n      swap1\n      tag_35\n      jump\t// in\n    tag_98:\n      tag_99\n      jump\t// in\n    tag_97:\n      stop\n        /* \"AirlineManagement.sol\":862:909  mapping(uint256 => Ticket) public ticketDetails */\n    tag_24:\n      mstore(0x20, 0x14)\n      dup1\n      0x00\n      mstore\n      keccak256(0x00, 0x40)\n      0x00\n      swap2\n      pop\n      swap1\n      pop\n      dup1\n      0x00\n      add\n      0x00\n      swap1\n      sload\n      swap1\n      0x0100\n      exp\n      swap1\n      div\n      0xffffffffffffffffffffffffffffffffffffffff\n      and\n      swap1\n      dup1\n      0x01\n      add\n      dup1\n      sload\n      tag_100\n      swap1\n      tag_101\n      jump\t// in\n    tag_100:\n      dup1\n      0x1f\n      add\n      0x20\n      dup1\n      swap2\n      div\n      mul\n      0x20\n      add\n      mload(0x40)\n      swap1\n      dup2\n      add\n      0x40\n      mstore\n      dup1\n      swap3\n      swap2\n      swap1\n      dup2\n      dup2\n      mstore\n      0x20\n      add\n      dup3\n      dup1\n      sload\n      tag_102\n      swap1\n      tag_101\n      jump\t// in\n    tag_102:\n      dup1\n      iszero\n      tag_103\n      jumpi\n      dup1\n      0x1f\n      lt\n      tag_104\n      jumpi\n      0x0100\n      dup1\n      dup4\n      sload\n      div\n      mul\n      dup4\n      mstore\n      swap2\n      0x20\n      add\n      swap2\n      jump(tag_103)\n    tag_104:\n      dup3\n      add\n      swap2\n      swap1\n      0x00\n      mstore\n      keccak256(0x00, 0x20)\n      swap1\n    tag_105:\n      dup2\n      sload\n      dup2\n      mstore\n      swap1\n      0x01\n      add\n      swap1\n      0x20\n      add\n      dup1\n      dup4\n      gt\n      tag_105\n      jumpi\n      dup3\n      swap1\n      sub\n      0x1f\n      and\n      dup3\n      add\n      swap2\n    tag_103:\n      pop\n      pop\n      pop\n      pop\n      pop\n      swap1\n      dup1\n      0x02\n      add\n      sload\n      swap1\n      dup1\n      0x03\n      add\n      sload\n      swap1\n      dup1\n      0x04\n      add\n      dup1\n      sload\n      tag_106\n      swap1\n      tag_101\n      jump\t// in\n    tag_106:\n      dup1\n      0x1f\n      add\n      0x20\n      dup1\n      swap2\n      div\n      mul\n      0x20\n      add\n      mload(0x40)\n      swap1\n      dup2\n      add\n      0x40\n      mstore\n      dup1\n      swap3\n      swap2\n      swap1\n      dup2\n      dup2\n      mstore\n      0x20\n      add\n      dup3\n      dup1\n      sload\n      tag_107\n      swap1\n      tag_101\n      jump\t// in\n    tag_107:\n      dup1\n      iszero\n      tag_108\n      jumpi\n      dup1\n      0x1f\n      lt\n      tag_109\n      jumpi\n      0x0100\n      dup1\n      dup4\n      sload\n      div\n      mul\n      dup4\n      mstore\n      swap2\n      0x20\n      add\n      swap2\n      jump(tag_108)\n    tag_109:\n      dup3\n      add\n      swap2\n      swap1\n      0x00\n      mstore\n      keccak256(0x00, 0x20)\n      swap1\n    tag_110:\n      dup2\n      sload\n      dup2\n      mstore\n      swap1\n      0x01\n      add\n      swap1\n      0x20\n      add\n      dup1\n      dup4\n      gt\n      tag_110\n      jumpi\n      dup3\n      swap1\n      sub\n      0x1f\n      and\n      dup3\n      add\n      swap2\n    tag_108:\n      pop\n      pop\n      pop\n      pop\n      pop\n      swap1\n      dup1\n      0x05\n      add\n      0x00\n      swap1\n      sload\n      swap1\n      0x0100\n      exp\n      swap1\n      div\n      0xff\n      and\n      swap1\n      dup1\n      0x05\n      add\n      0x01\n      swap1\n      sload\n      swap1\n      0x0100\n      exp\n      swap1\n      div\n      0xff\n      and\n      swap1\n      pop\n      dup8\n      jump\t// out\n        /* \"AirlineManagement.sol\":756:773  uint public count */\n    tag_29:\n      sload(0x13)\n      dup2\n      jump\t// out\n        /* \"AirlineManagement.sol\":2723:3175  function getPrice (string memory destination, uint month, uint class, bool way) public view returns(uint) {... */\n    tag_36:\n        /* \"AirlineManagement.sol\":2823:2827  uint */\n      0x00\n        /* \"AirlineManagement.sol\":2840:2847  uint cm */\n      0x00\n        /* \"AirlineManagement.sol\":2850:2865  classMultiplier */\n      0x10\n        /* \"AirlineManagement.sol\":2874:2875  1 */\n      0x01\n        /* \"AirlineManagement.sol\":2866:2871  class */\n      dup6\n        /* \"AirlineManagement.sol\":2866:2875  class - 1 */\n      tag_112\n      swap2\n      swap1\n      tag_113\n      jump\t// in\n    tag_112:\n        /* \"AirlineManagement.sol\":2850:2876  classMultiplier[class - 1] */\n      0x03\n      dup2\n      lt\n      tag_114\n      jumpi\n      tag_115\n      tag_116\n      jump\t// in\n    tag_115:\n    tag_114:\n      add\n      sload\n        /* \"AirlineManagement.sol\":2840:2876  uint cm = classMultiplier[class - 1] */\n      swap1\n      pop\n        /* \"AirlineManagement.sol\":2906:2913  uint mm */\n      0x00\n        /* \"AirlineManagement.sol\":2916:2931  monthMultiplier */\n      0x04\n        /* \"AirlineManagement.sol\":2940:2941  1 */\n      0x01\n        /* \"AirlineManagement.sol\":2932:2937  month */\n      dup8\n        /* \"AirlineManagement.sol\":2932:2941  month - 1 */\n      tag_118\n      swap2\n      swap1\n      tag_113\n      jump\t// in\n    tag_118:\n        /* \"AirlineManagement.sol\":2916:2942  monthMultiplier[month - 1] */\n      0x0c\n      dup2\n      lt\n      tag_119\n      jumpi\n      tag_120\n      tag_116\n      jump\t// in\n    tag_120:\n    tag_119:\n      add\n      sload\n        /* \"AirlineManagement.sol\":2906:2942  uint mm = monthMultiplier[month - 1] */\n      swap1\n      pop\n        /* \"AirlineManagement.sol\":2974:2984  uint price */\n      0x00\n        /* \"AirlineManagement.sol\":3029:3031  cm */\n      dup3\n        /* \"AirlineManagement.sol\":2987:3004  destinationPrices */\n      0x02\n        /* \"AirlineManagement.sol\":3005:3012  indexes */\n      0x03\n        /* \"AirlineManagement.sol\":3013:3024  destination */\n      dup11\n        /* \"AirlineManagement.sol\":3005:3025  indexes[destination] */\n      mload(0x40)\n      tag_122\n      swap2\n      swap1\n      tag_123\n      jump\t// in\n    tag_122:\n      swap1\n      dup2\n      mstore\n      0x20\n      add\n      mload(0x40)\n      dup1\n      swap2\n      sub\n      swap1\n      keccak256\n      sload\n        /* \"AirlineManagement.sol\":2987:3026  destinationPrices[indexes[destination]] */\n      dup2\n      sload\n      dup2\n      lt\n      tag_124\n      jumpi\n      tag_125\n      tag_116\n      jump\t// in\n    tag_125:\n    tag_124:\n      swap1\n      0x00\n      mstore\n      keccak256(0x00, 0x20)\n      add\n      sload\n        /* \"AirlineManagement.sol\":2987:3031  destinationPrices[indexes[destination]] * cm */\n      tag_127\n      swap2\n      swap1\n      tag_128\n      jump\t// in\n    tag_127:\n        /* \"AirlineManagement.sol\":2974:3031  uint price = destinationPrices[indexes[destination]] * cm */\n      swap1\n      pop\n        /* \"AirlineManagement.sol\":3047:3050  way */\n      dup5\n        /* \"AirlineManagement.sol\":3044:3075  if(way)... */\n      iszero\n      tag_129\n      jumpi\n        /* \"AirlineManagement.sol\":3074:3075  2 */\n      0x02\n        /* \"AirlineManagement.sol\":3065:3075  price *= 2 */\n      dup2\n      tag_130\n      swap2\n      swap1\n      tag_128\n      jump\t// in\n    tag_130:\n      swap1\n      pop\n        /* \"AirlineManagement.sol\":3044:3075  if(way)... */\n    tag_129:\n        /* \"AirlineManagement.sol\":3096:3098  mm */\n      dup2\n        /* \"AirlineManagement.sol\":3091:3093  10 */\n      0x0a\n        /* \"AirlineManagement.sol\":3091:3098  10 > mm */\n      gt\n        /* \"AirlineManagement.sol\":3088:3130  if(10 > mm)... */\n      iszero\n      tag_131\n      jumpi\n        /* \"AirlineManagement.sol\":3128:3130  mm */\n      dup2\n        /* \"AirlineManagement.sol\":3120:3125  price */\n      dup2\n        /* \"AirlineManagement.sol\":3120:3130  price / mm */\n      tag_132\n      swap2\n      swap1\n      tag_133\n      jump\t// in\n    tag_132:\n        /* \"AirlineManagement.sol\":3113:3130  return price / mm */\n      swap4\n      pop\n      pop\n      pop\n      pop\n      jump(tag_111)\n        /* \"AirlineManagement.sol\":3088:3130  if(10 > mm)... */\n    tag_131:\n        /* \"AirlineManagement.sol\":3162:3164  10 */\n      0x0a\n        /* \"AirlineManagement.sol\":3157:3159  mm */\n      dup3\n        /* \"AirlineManagement.sol\":3157:3164  mm - 10 */\n      tag_134\n      swap2\n      swap1\n      tag_113\n      jump\t// in\n    tag_134:\n        /* \"AirlineManagement.sol\":3148:3153  price */\n      dup2\n        /* \"AirlineManagement.sol\":3148:3165  price * (mm - 10) */\n      tag_135\n      swap2\n      swap1\n      tag_128\n      jump\t// in\n    tag_135:\n        /* \"AirlineManagement.sol\":3141:3165  return price * (mm - 10) */\n      swap4\n      pop\n      pop\n      pop\n      pop\n        /* \"AirlineManagement.sol\":2723:3175  function getPrice (string memory destination, uint month, uint class, bool way) public view returns(uint) {... */\n    tag_111:\n      swap5\n      swap4\n      pop\n      pop\n      pop\n      pop\n      jump\t// out\n        /* \"AirlineManagement.sol\":4282:4374  function isCeo(address user) public view returns(bool) {... */\n    tag_42:\n        /* \"AirlineManagement.sol\":4331:4335  bool */\n      0x00\n        /* \"AirlineManagement.sol\":4363:4366  ceo */\n      0x00\n      0x00\n      swap1\n      sload\n      swap1\n      0x0100\n      exp\n      swap1\n      div\n      0xffffffffffffffffffffffffffffffffffffffff\n      and\n        /* \"AirlineManagement.sol\":4355:4366  user == ceo */\n      0xffffffffffffffffffffffffffffffffffffffff\n      and\n        /* \"AirlineManagement.sol\":4355:4359  user */\n      dup3\n        /* \"AirlineManagement.sol\":4355:4366  user == ceo */\n      0xffffffffffffffffffffffffffffffffffffffff\n      and\n      eq\n        /* \"AirlineManagement.sol\":4348:4366  return user == ceo */\n      swap1\n      pop\n        /* \"AirlineManagement.sol\":4282:4374  function isCeo(address user) public view returns(bool) {... */\n      swap2\n      swap1\n      pop\n      jump\t// out\n        /* \"AirlineManagement.sol\":429:460  uint[] public destinationPrices */\n    tag_48:\n      0x02\n      dup2\n      dup2\n      sload\n      dup2\n      lt\n      tag_137\n      jumpi\n      0x00\n      dup1\n      revert\n    tag_137:\n      swap1\n      0x00\n      mstore\n      keccak256(0x00, 0x20)\n      add\n      0x00\n      swap2\n      pop\n      swap1\n      pop\n      sload\n      dup2\n      jump\t// out\n        /* \"AirlineManagement.sol\":510:548  mapping(string => uint) public indexes */\n    tag_54:\n      0x03\n      dup2\n      dup1\n      mload\n      0x20\n      dup2\n      add\n      dup3\n      add\n      dup1\n      mload\n      dup5\n      dup3\n      mstore\n      0x20\n      dup4\n      add\n      0x20\n      dup6\n      add\n      keccak256\n      dup2\n      dup4\n      mstore\n      dup1\n      swap6\n      pop\n      pop\n      pop\n      pop\n      pop\n      pop\n      0x00\n      swap2\n      pop\n      swap1\n      pop\n      sload\n      dup2\n      jump\t// out\n        /* \"AirlineManagement.sol\":2373:2715  function create30Tickets(address owner, string memory destination, uint256 price) public restricted {... */\n    tag_60:\n        /* \"AirlineManagement.sol\":1007:1010  ceo */\n      0x00\n      0x00\n      swap1\n      sload\n      swap1\n      0x0100\n      exp\n      swap1\n      div\n      0xffffffffffffffffffffffffffffffffffffffff\n      and\n        /* \"AirlineManagement.sol\":993:1010  msg.sender == ceo */\n      0xffffffffffffffffffffffffffffffffffffffff\n      and\n        /* \"AirlineManagement.sol\":993:1003  msg.sender */\n      caller\n        /* \"AirlineManagement.sol\":993:1010  msg.sender == ceo */\n      0xffffffffffffffffffffffffffffffffffffffff\n      and\n      eq\n        /* \"AirlineManagement.sol\":985:1011  require(msg.sender == ceo) */\n      tag_140\n      jumpi\n      revert(0x00, 0x00)\n    tag_140:\n        /* \"AirlineManagement.sol\":2489:2501  uint256 seat */\n      0x00\n        /* \"AirlineManagement.sol\":2504:2505  0 */\n      0x00\n        /* \"AirlineManagement.sol\":2489:2505  uint256 seat = 0 */\n      swap1\n      pop\n        /* \"AirlineManagement.sol\":2484:2708  for (uint256 seat = 0; seat < 30; seat++) {... */\n    tag_142:\n        /* \"AirlineManagement.sol\":2514:2516  30 */\n      0x1e\n        /* \"AirlineManagement.sol\":2507:2511  seat */\n      dup2\n        /* \"AirlineManagement.sol\":2507:2516  seat < 30 */\n      lt\n        /* \"AirlineManagement.sol\":2484:2708  for (uint256 seat = 0; seat < 30; seat++) {... */\n      iszero\n      tag_143\n      jumpi\n        /* \"AirlineManagement.sol\":2541:2556  uint256 tokenId */\n      0x00\n        /* \"AirlineManagement.sol\":2559:2571  nextTicketId */\n      sload(0x15)\n        /* \"AirlineManagement.sol\":2541:2571  uint256 tokenId = nextTicketId */\n      swap1\n      pop\n        /* \"AirlineManagement.sol\":2611:2667  Ticket(owner, destination, price, seat, \"\", false, true) */\n      mload(0x40)\n      dup1\n      0xe0\n      add\n      0x40\n      mstore\n      dup1\n        /* \"AirlineManagement.sol\":2618:2623  owner */\n      dup7\n        /* \"AirlineManagement.sol\":2611:2667  Ticket(owner, destination, price, seat, \"\", false, true) */\n      0xffffffffffffffffffffffffffffffffffffffff\n      and\n      dup2\n      mstore\n      0x20\n      add\n        /* \"AirlineManagement.sol\":2625:2636  destination */\n      dup6\n        /* \"AirlineManagement.sol\":2611:2667  Ticket(owner, destination, price, seat, \"\", false, true) */\n      dup2\n      mstore\n      0x20\n      add\n        /* \"AirlineManagement.sol\":2638:2643  price */\n      dup5\n        /* \"AirlineManagement.sol\":2611:2667  Ticket(owner, destination, price, seat, \"\", false, true) */\n      dup2\n      mstore\n      0x20\n      add\n        /* \"AirlineManagement.sol\":2645:2649  seat */\n      dup4\n        /* \"AirlineManagement.sol\":2611:2667  Ticket(owner, destination, price, seat, \"\", false, true) */\n      dup2\n      mstore\n      0x20\n      add\n      mload(0x40)\n      dup1\n      0x20\n      add\n      0x40\n      mstore\n      dup1\n      0x00\n      dup2\n      mstore\n      pop\n      dup2\n      mstore\n      0x20\n      add\n        /* \"AirlineManagement.sol\":2655:2660  false */\n      0x00\n        /* \"AirlineManagement.sol\":2611:2667  Ticket(owner, destination, price, seat, \"\", false, true) */\n      iszero\n      iszero\n      dup2\n      mstore\n      0x20\n      add\n        /* \"AirlineManagement.sol\":2662:2666  true */\n      0x01\n        /* \"AirlineManagement.sol\":2611:2667  Ticket(owner, destination, price, seat, \"\", false, true) */\n      iszero\n      iszero\n      dup2\n      mstore\n      pop\n        /* \"AirlineManagement.sol\":2586:2599  ticketDetails */\n      0x14\n        /* \"AirlineManagement.sol\":2586:2608  ticketDetails[tokenId] */\n      0x00\n        /* \"AirlineManagement.sol\":2600:2607  tokenId */\n      dup4\n        /* \"AirlineManagement.sol\":2586:2608  ticketDetails[tokenId] */\n      dup2\n      mstore\n      0x20\n      add\n      swap1\n      dup2\n      mstore\n      0x20\n      add\n      0x00\n      keccak256\n        /* \"AirlineManagement.sol\":2586:2667  ticketDetails[tokenId] = Ticket(owner, destination, price, seat, \"\", false, true) */\n      0x00\n      dup3\n      add\n      mload\n      dup2\n      0x00\n      add\n      exp(0x0100, 0x00)\n      dup2\n      sload\n      dup2\n      0xffffffffffffffffffffffffffffffffffffffff\n      mul\n      not\n      and\n      swap1\n      dup4\n      0xffffffffffffffffffffffffffffffffffffffff\n      and\n      mul\n      or\n      swap1\n      sstore\n      pop\n      0x20\n      dup3\n      add\n      mload\n      dup2\n      0x01\n      add\n      swap1\n      dup2\n      tag_145\n      swap2\n      swap1\n      tag_146\n      jump\t// in\n    tag_145:\n      pop\n      0x40\n      dup3\n      add\n      mload\n      dup2\n      0x02\n      add\n      sstore\n      0x60\n      dup3\n      add\n      mload\n      dup2\n      0x03\n      add\n      sstore\n      0x80\n      dup3\n      add\n      mload\n      dup2\n      0x04\n      add\n      swap1\n      dup2\n      tag_147\n      swap2\n      swap1\n      tag_146\n      jump\t// in\n    tag_147:\n      pop\n      0xa0\n      dup3\n      add\n      mload\n      dup2\n      0x05\n      add\n      exp(0x0100, 0x00)\n      dup2\n      sload\n      dup2\n      0xff\n      mul\n      not\n      and\n      swap1\n      dup4\n      iszero\n      iszero\n      mul\n      or\n      swap1\n      sstore\n      pop\n      0xc0\n      dup3\n      add\n      mload\n      dup2\n      0x05\n      add\n      exp(0x0100, 0x01)\n      dup2\n      sload\n      dup2\n      0xff\n      mul\n      not\n      and\n      swap1\n      dup4\n      iszero\n      iszero\n      mul\n      or\n      swap1\n      sstore\n      pop\n      swap1\n      pop\n      pop\n        /* \"AirlineManagement.sol\":2682:2694  nextTicketId */\n      0x15\n      0x00\n        /* \"AirlineManagement.sol\":2682:2696  nextTicketId++ */\n      dup2\n      sload\n      dup1\n      swap3\n      swap2\n      swap1\n      tag_148\n      swap1\n      tag_149\n      jump\t// in\n    tag_148:\n      swap2\n      swap1\n      pop\n      sstore\n      pop\n        /* \"AirlineManagement.sol\":2526:2708  {... */\n      pop\n        /* \"AirlineManagement.sol\":2518:2524  seat++ */\n      dup1\n      dup1\n      0x01\n      add\n      swap2\n      pop\n      pop\n        /* \"AirlineManagement.sol\":2484:2708  for (uint256 seat = 0; seat < 30; seat++) {... */\n      jump(tag_142)\n    tag_143:\n      pop\n        /* \"AirlineManagement.sol\":2373:2715  function create30Tickets(address owner, string memory destination, uint256 price) public restricted {... */\n      pop\n      pop\n      pop\n      jump\t// out\n        /* \"AirlineManagement.sol\":2018:2321  function createDestination(string memory destination, uint destinationPrice) restricted public {... */\n    tag_65:\n        /* \"AirlineManagement.sol\":1007:1010  ceo */\n      0x00\n      0x00\n      swap1\n      sload\n      swap1\n      0x0100\n      exp\n      swap1\n      div\n      0xffffffffffffffffffffffffffffffffffffffff\n      and\n        /* \"AirlineManagement.sol\":993:1010  msg.sender == ceo */\n      0xffffffffffffffffffffffffffffffffffffffff\n      and\n        /* \"AirlineManagement.sol\":993:1003  msg.sender */\n      caller\n        /* \"AirlineManagement.sol\":993:1010  msg.sender == ceo */\n      0xffffffffffffffffffffffffffffffffffffffff\n      and\n      eq\n        /* \"AirlineManagement.sol\":985:1011  require(msg.sender == ceo) */\n      tag_151\n      jumpi\n      revert(0x00, 0x00)\n    tag_151:\n        /* \"AirlineManagement.sol\":2226:2237  destination */\n      dup2\n        /* \"AirlineManagement.sol\":2209:2238  abi.encodePacked(destination) */\n      add(0x20, mload(0x40))\n      tag_153\n      swap2\n      swap1\n      tag_123\n      jump\t// in\n    tag_153:\n      mload(0x40)\n      0x20\n      dup2\n      dup4\n      sub\n      sub\n      dup2\n      mstore\n      swap1\n      0x40\n      mstore\n        /* \"AirlineManagement.sol\":2199:2239  keccak256(abi.encodePacked(destination)) */\n      dup1\n      mload\n      swap1\n      0x20\n      add\n      keccak256\n        /* \"AirlineManagement.sol\":2159:2171  destinations */\n      0x01\n        /* \"AirlineManagement.sol\":2172:2179  indexes */\n      0x03\n        /* \"AirlineManagement.sol\":2180:2191  destination */\n      dup5\n        /* \"AirlineManagement.sol\":2172:2192  indexes[destination] */\n      mload(0x40)\n      tag_154\n      swap2\n      swap1\n      tag_123\n      jump\t// in\n    tag_154:\n      swap1\n      dup2\n      mstore\n      0x20\n      add\n      mload(0x40)\n      dup1\n      swap2\n      sub\n      swap1\n      keccak256\n      sload\n        /* \"AirlineManagement.sol\":2159:2193  destinations[indexes[destination]] */\n      dup2\n      sload\n      dup2\n      lt\n      tag_155\n      jumpi\n      tag_156\n      tag_116\n      jump\t// in\n    tag_156:\n    tag_155:\n      swap1\n      0x00\n      mstore\n      keccak256(0x00, 0x20)\n      add\n        /* \"AirlineManagement.sol\":2142:2194  abi.encodePacked(destinations[indexes[destination]]) */\n      add(0x20, mload(0x40))\n      tag_158\n      swap2\n      swap1\n      tag_159\n      jump\t// in\n    tag_158:\n      mload(0x40)\n      0x20\n      dup2\n      dup4\n      sub\n      sub\n      dup2\n      mstore\n      swap1\n      0x40\n      mstore\n        /* \"AirlineManagement.sol\":2132:2195  keccak256(abi.encodePacked(destinations[indexes[destination]])) */\n      dup1\n      mload\n      swap1\n      0x20\n      add\n      keccak256\n        /* \"AirlineManagement.sol\":2132:2239  keccak256(abi.encodePacked(destinations[indexes[destination]])) != keccak256(abi.encodePacked(destination)) */\n      sub\n        /* \"AirlineManagement.sol\":2124:2240  require(keccak256(abi.encodePacked(destinations[indexes[destination]])) != keccak256(abi.encodePacked(destination))) */\n      tag_160\n      jumpi\n      revert(0x00, 0x00)\n    tag_160:\n        /* \"AirlineManagement.sol\":2251:2309  create30Tickets(msg.sender, destination, destinationPrice) */\n      tag_161\n        /* \"AirlineManagement.sol\":2267:2277  msg.sender */\n      caller\n        /* \"AirlineManagement.sol\":2279:2290  destination */\n      dup4\n        /* \"AirlineManagement.sol\":2292:2308  destinationPrice */\n      dup4\n        /* \"AirlineManagement.sol\":2251:2266  create30Tickets */\n      tag_60\n        /* \"AirlineManagement.sol\":2251:2309  create30Tickets(msg.sender, destination, destinationPrice) */\n      jump\t// in\n    tag_161:\n        /* \"AirlineManagement.sol\":2018:2321  function createDestination(string memory destination, uint destinationPrice) restricted public {... */\n      pop\n      pop\n      jump\t// out\n        /* \"AirlineManagement.sol\":916:943  uint256 public nextTicketId */\n    tag_68:\n      sload(0x15)\n      dup2\n      jump\t// out\n        /* \"AirlineManagement.sol\":682:712  uint[3] public classMultiplier */\n    tag_73:\n      0x10\n      dup2\n      0x03\n      dup2\n      lt\n      tag_162\n      jumpi\n      0x00\n      dup1\n      revert\n    tag_162:\n      add\n      0x00\n      swap2\n      pop\n      swap1\n      pop\n      sload\n      dup2\n      jump\t// out\n        /* \"AirlineManagement.sol\":353:381  string[] public destinations */\n    tag_78:\n      0x01\n      dup2\n      dup2\n      sload\n      dup2\n      lt\n      tag_164\n      jumpi\n      0x00\n      dup1\n      revert\n    tag_164:\n      swap1\n      0x00\n      mstore\n      keccak256(0x00, 0x20)\n      add\n      0x00\n      swap2\n      pop\n      swap1\n      pop\n      dup1\n      sload\n      tag_166\n      swap1\n      tag_101\n      jump\t// in\n    tag_166:\n      dup1\n      0x1f\n      add\n      0x20\n      dup1\n      swap2\n      div\n      mul\n      0x20\n      add\n      mload(0x40)\n      swap1\n      dup2\n      add\n      0x40\n      mstore\n      dup1\n      swap3\n      swap2\n      swap1\n      dup2\n      dup2\n      mstore\n      0x20\n      add\n      dup3\n      dup1\n      sload\n      tag_167\n      swap1\n      tag_101\n      jump\t// in\n    tag_167:\n      dup1\n      iszero\n      tag_168\n      jumpi\n      dup1\n      0x1f\n      lt\n      tag_169\n      jumpi\n      0x0100\n      dup1\n      dup4\n      sload\n      div\n      mul\n      dup4\n      mstore\n      swap2\n      0x20\n      add\n      swap2\n      jump(tag_168)\n    tag_169:\n      dup3\n      add\n      swap2\n      swap1\n      0x00\n      mstore\n      keccak256(0x00, 0x20)\n      swap1\n    tag_170:\n      dup2\n      sload\n      dup2\n      mstore\n      swap1\n      0x01\n      add\n      swap1\n      0x20\n      add\n      dup1\n      dup4\n      gt\n      tag_170\n      jumpi\n      dup3\n      swap1\n      sub\n      0x1f\n      and\n      dup3\n      add\n      swap2\n    tag_168:\n      pop\n      pop\n      pop\n      pop\n      pop\n      dup2\n      jump\t// out\n        /* \"AirlineManagement.sol\":302:320  address public ceo */\n    tag_83:\n      0x00\n      0x00\n      swap1\n      sload\n      swap1\n      0x0100\n      exp\n      swap1\n      div\n      0xffffffffffffffffffffffffffffffffffffffff\n      and\n      dup2\n      jump\t// out\n        /* \"AirlineManagement.sol\":4383:5341  function getBookedFlights(address user) public view returns (Ticket[] memory) {... */\n    tag_89:\n        /* \"AirlineManagement.sol\":4444:4459  Ticket[] memory */\n      0x60\n        /* \"AirlineManagement.sol\":4472:4488  uint bookedCount */\n      0x00\n        /* \"AirlineManagement.sol\":4491:4492  0 */\n      0x00\n        /* \"AirlineManagement.sol\":4472:4492  uint bookedCount = 0 */\n      swap1\n      pop\n        /* \"AirlineManagement.sol\":4598:4610  uint tokenId */\n      0x00\n        /* \"AirlineManagement.sol\":4613:4614  0 */\n      0x00\n        /* \"AirlineManagement.sol\":4598:4614  uint tokenId = 0 */\n      swap1\n      pop\n        /* \"AirlineManagement.sol\":4593:4806  for (uint tokenId = 0; tokenId < nextTicketId; tokenId++) {... */\n    tag_172:\n        /* \"AirlineManagement.sol\":4626:4638  nextTicketId */\n      sload(0x15)\n        /* \"AirlineManagement.sol\":4616:4623  tokenId */\n      dup2\n        /* \"AirlineManagement.sol\":4616:4638  tokenId < nextTicketId */\n      lt\n        /* \"AirlineManagement.sol\":4593:4806  for (uint tokenId = 0; tokenId < nextTicketId; tokenId++) {... */\n      iszero\n      tag_173\n      jumpi\n        /* \"AirlineManagement.sol\":4702:4706  user */\n      dup4\n        /* \"AirlineManagement.sol\":4670:4706  ticketDetails[tokenId].owner == user */\n      0xffffffffffffffffffffffffffffffffffffffff\n      and\n        /* \"AirlineManagement.sol\":4670:4683  ticketDetails */\n      0x14\n        /* \"AirlineManagement.sol\":4670:4692  ticketDetails[tokenId] */\n      0x00\n        /* \"AirlineManagement.sol\":4684:4691  tokenId */\n      dup4\n        /* \"AirlineManagement.sol\":4670:4692  ticketDetails[tokenId] */\n      dup2\n      mstore\n      0x20\n      add\n      swap1\n      dup2\n      mstore\n      0x20\n      add\n      0x00\n      keccak256\n        /* \"AirlineManagement.sol\":4670:4698  ticketDetails[tokenId].owner */\n      0x00\n      add\n      0x00\n      swap1\n      sload\n      swap1\n      0x0100\n      exp\n      swap1\n      div\n      0xffffffffffffffffffffffffffffffffffffffff\n      and\n        /* \"AirlineManagement.sol\":4670:4706  ticketDetails[tokenId].owner == user */\n      0xffffffffffffffffffffffffffffffffffffffff\n      and\n      eq\n        /* \"AirlineManagement.sol\":4670:4745  ticketDetails[tokenId].owner == user && !ticketDetails[tokenId].isAvailable */\n      dup1\n      iszero\n      tag_175\n      jumpi\n      pop\n        /* \"AirlineManagement.sol\":4711:4724  ticketDetails */\n      0x14\n        /* \"AirlineManagement.sol\":4711:4733  ticketDetails[tokenId] */\n      0x00\n        /* \"AirlineManagement.sol\":4725:4732  tokenId */\n      dup3\n        /* \"AirlineManagement.sol\":4711:4733  ticketDetails[tokenId] */\n      dup2\n      mstore\n      0x20\n      add\n      swap1\n      dup2\n      mstore\n      0x20\n      add\n      0x00\n      keccak256\n        /* \"AirlineManagement.sol\":4711:4745  ticketDetails[tokenId].isAvailable */\n      0x05\n      add\n      0x01\n      swap1\n      sload\n      swap1\n      0x0100\n      exp\n      swap1\n      div\n      0xff\n      and\n        /* \"AirlineManagement.sol\":4710:4745  !ticketDetails[tokenId].isAvailable */\n      iszero\n        /* \"AirlineManagement.sol\":4670:4745  ticketDetails[tokenId].owner == user && !ticketDetails[tokenId].isAvailable */\n    tag_175:\n        /* \"AirlineManagement.sol\":4666:4795  if (ticketDetails[tokenId].owner == user && !ticketDetails[tokenId].isAvailable) {... */\n      iszero\n      tag_176\n      jumpi\n        /* \"AirlineManagement.sol\":4766:4779  bookedCount++ */\n      dup2\n      dup1\n      tag_177\n      swap1\n      tag_149\n      jump\t// in\n    tag_177:\n      swap3\n      pop\n      pop\n        /* \"AirlineManagement.sol\":4666:4795  if (ticketDetails[tokenId].owner == user && !ticketDetails[tokenId].isAvailable) {... */\n    tag_176:\n        /* \"AirlineManagement.sol\":4640:4649  tokenId++ */\n      dup1\n      dup1\n      0x01\n      add\n      swap2\n      pop\n      pop\n        /* \"AirlineManagement.sol\":4593:4806  for (uint tokenId = 0; tokenId < nextTicketId; tokenId++) {... */\n      jump(tag_172)\n    tag_173:\n      pop\n        /* \"AirlineManagement.sol\":4880:4909  Ticket[] memory bookedTickets */\n      0x00\n        /* \"AirlineManagement.sol\":4925:4936  bookedCount */\n      dup2\n        /* \"AirlineManagement.sol\":4912:4937  new Ticket[](bookedCount) */\n      0xffffffffffffffff\n      dup2\n      gt\n      iszero\n      tag_178\n      jumpi\n      tag_179\n      tag_180\n      jump\t// in\n    tag_179:\n    tag_178:\n      mload(0x40)\n      swap1\n      dup1\n      dup3\n      mstore\n      dup1\n      0x20\n      mul\n      0x20\n      add\n      dup3\n      add\n      0x40\n      mstore\n      dup1\n      iszero\n      tag_181\n      jumpi\n      dup2\n      0x20\n      add\n    tag_182:\n      tag_183\n      tag_184\n      jump\t// in\n    tag_183:\n      dup2\n      mstore\n      0x20\n      add\n      swap1\n      0x01\n      swap1\n      sub\n      swap1\n      dup2\n      tag_182\n      jumpi\n      swap1\n      pop\n    tag_181:\n      pop\n        /* \"AirlineManagement.sol\":4880:4937  Ticket[] memory bookedTickets = new Ticket[](bookedCount) */\n      swap1\n      pop\n        /* \"AirlineManagement.sol\":4948:4958  uint index */\n      0x00\n        /* \"AirlineManagement.sol\":4961:4962  0 */\n      0x00\n        /* \"AirlineManagement.sol\":4948:4962  uint index = 0 */\n      swap1\n      pop\n        /* \"AirlineManagement.sol\":5035:5047  uint tokenId */\n      0x00\n        /* \"AirlineManagement.sol\":5050:5051  0 */\n      0x00\n        /* \"AirlineManagement.sol\":5035:5051  uint tokenId = 0 */\n      swap1\n      pop\n        /* \"AirlineManagement.sol\":5030:5301  for (uint tokenId = 0; tokenId < nextTicketId; tokenId++) {... */\n    tag_185:\n        /* \"AirlineManagement.sol\":5063:5075  nextTicketId */\n      sload(0x15)\n        /* \"AirlineManagement.sol\":5053:5060  tokenId */\n      dup2\n        /* \"AirlineManagement.sol\":5053:5075  tokenId < nextTicketId */\n      lt\n        /* \"AirlineManagement.sol\":5030:5301  for (uint tokenId = 0; tokenId < nextTicketId; tokenId++) {... */\n      iszero\n      tag_186\n      jumpi\n        /* \"AirlineManagement.sol\":5139:5143  user */\n      dup6\n        /* \"AirlineManagement.sol\":5107:5143  ticketDetails[tokenId].owner == user */\n      0xffffffffffffffffffffffffffffffffffffffff\n      and\n        /* \"AirlineManagement.sol\":5107:5120  ticketDetails */\n      0x14\n        /* \"AirlineManagement.sol\":5107:5129  ticketDetails[tokenId] */\n      0x00\n        /* \"AirlineManagement.sol\":5121:5128  tokenId */\n      dup4\n        /* \"AirlineManagement.sol\":5107:5129  ticketDetails[tokenId] */\n      dup2\n      mstore\n      0x20\n      add\n      swap1\n      dup2\n      mstore\n      0x20\n      add\n      0x00\n      keccak256\n        /* \"AirlineManagement.sol\":5107:5135  ticketDetails[tokenId].owner */\n      0x00\n      add\n      0x00\n      swap1\n      sload\n      swap1\n      0x0100\n      exp\n      swap1\n      div\n      0xffffffffffffffffffffffffffffffffffffffff\n      and\n        /* \"AirlineManagement.sol\":5107:5143  ticketDetails[tokenId].owner == user */\n      0xffffffffffffffffffffffffffffffffffffffff\n      and\n      eq\n        /* \"AirlineManagement.sol\":5107:5182  ticketDetails[tokenId].owner == user && !ticketDetails[tokenId].isAvailable */\n      dup1\n      iszero\n      tag_188\n      jumpi\n      pop\n        /* \"AirlineManagement.sol\":5148:5161  ticketDetails */\n      0x14\n        /* \"AirlineManagement.sol\":5148:5170  ticketDetails[tokenId] */\n      0x00\n        /* \"AirlineManagement.sol\":5162:5169  tokenId */\n      dup3\n        /* \"AirlineManagement.sol\":5148:5170  ticketDetails[tokenId] */\n      dup2\n      mstore\n      0x20\n      add\n      swap1\n      dup2\n      mstore\n      0x20\n      add\n      0x00\n      keccak256\n        /* \"AirlineManagement.sol\":5148:5182  ticketDetails[tokenId].isAvailable */\n      0x05\n      add\n      0x01\n      swap1\n      sload\n      swap1\n      0x0100\n      exp\n      swap1\n      div\n      0xff\n      and\n        /* \"AirlineManagement.sol\":5147:5182  !ticketDetails[tokenId].isAvailable */\n      iszero\n        /* \"AirlineManagement.sol\":5107:5182  ticketDetails[tokenId].owner == user && !ticketDetails[tokenId].isAvailable */\n    tag_188:\n        /* \"AirlineManagement.sol\":5103:5290  if (ticketDetails[tokenId].owner == user && !ticketDetails[tokenId].isAvailable) {... */\n      iszero\n      tag_189\n      jumpi\n        /* \"AirlineManagement.sol\":5226:5239  ticketDetails */\n      0x14\n        /* \"AirlineManagement.sol\":5226:5248  ticketDetails[tokenId] */\n      0x00\n        /* \"AirlineManagement.sol\":5240:5247  tokenId */\n      dup3\n        /* \"AirlineManagement.sol\":5226:5248  ticketDetails[tokenId] */\n      dup2\n      mstore\n      0x20\n      add\n      swap1\n      dup2\n      mstore\n      0x20\n      add\n      0x00\n      keccak256\n        /* \"AirlineManagement.sol\":5203:5248  bookedTickets[index] = ticketDetails[tokenId] */\n      mload(0x40)\n      dup1\n      0xe0\n      add\n      0x40\n      mstore\n      swap1\n      dup2\n      0x00\n      dup3\n      add\n      0x00\n      swap1\n      sload\n      swap1\n      0x0100\n      exp\n      swap1\n      div\n      0xffffffffffffffffffffffffffffffffffffffff\n      and\n      0xffffffffffffffffffffffffffffffffffffffff\n      and\n      0xffffffffffffffffffffffffffffffffffffffff\n      and\n      dup2\n      mstore\n      0x20\n      add\n      0x01\n      dup3\n      add\n      dup1\n      sload\n      tag_190\n      swap1\n      tag_101\n      jump\t// in\n    tag_190:\n      dup1\n      0x1f\n      add\n      0x20\n      dup1\n      swap2\n      div\n      mul\n      0x20\n      add\n      mload(0x40)\n      swap1\n      dup2\n      add\n      0x40\n      mstore\n      dup1\n      swap3\n      swap2\n      swap1\n      dup2\n      dup2\n      mstore\n      0x20\n      add\n      dup3\n      dup1\n      sload\n      tag_191\n      swap1\n      tag_101\n      jump\t// in\n    tag_191:\n      dup1\n      iszero\n      tag_192\n      jumpi\n      dup1\n      0x1f\n      lt\n      tag_193\n      jumpi\n      0x0100\n      dup1\n      dup4\n      sload\n      div\n      mul\n      dup4\n      mstore\n      swap2\n      0x20\n      add\n      swap2\n      jump(tag_192)\n    tag_193:\n      dup3\n      add\n      swap2\n      swap1\n      0x00\n      mstore\n      keccak256(0x00, 0x20)\n      swap1\n    tag_194:\n      dup2\n      sload\n      dup2\n      mstore\n      swap1\n      0x01\n      add\n      swap1\n      0x20\n      add\n      dup1\n      dup4\n      gt\n      tag_194\n      jumpi\n      dup3\n      swap1\n      sub\n      0x1f\n      and\n      dup3\n      add\n      swap2\n    tag_192:\n      pop\n      pop\n      pop\n      pop\n      pop\n      dup2\n      mstore\n      0x20\n      add\n      0x02\n      dup3\n      add\n      sload\n      dup2\n      mstore\n      0x20\n      add\n      0x03\n      dup3\n      add\n      sload\n      dup2\n      mstore\n      0x20\n      add\n      0x04\n      dup3\n      add\n      dup1\n      sload\n      tag_195\n      swap1\n      tag_101\n      jump\t// in\n    tag_195:\n      dup1\n      0x1f\n      add\n      0x20\n      dup1\n      swap2\n      div\n      mul\n      0x20\n      add\n      mload(0x40)\n      swap1\n      dup2\n      add\n      0x40\n      mstore\n      dup1\n      swap3\n      swap2\n      swap1\n      dup2\n      dup2\n      mstore\n      0x20\n      add\n      dup3\n      dup1\n      sload\n      tag_196\n      swap1\n      tag_101\n      jump\t// in\n    tag_196:\n      dup1\n      iszero\n      tag_197\n      jumpi\n      dup1\n      0x1f\n      lt\n      tag_198\n      jumpi\n      0x0100\n      dup1\n      dup4\n      sload\n      div\n      mul\n      dup4\n      mstore\n      swap2\n      0x20\n      add\n      swap2\n      jump(tag_197)\n    tag_198:\n      dup3\n      add\n      swap2\n      swap1\n      0x00\n      mstore\n      keccak256(0x00, 0x20)\n      swap1\n    tag_199:\n      dup2\n      sload\n      dup2\n      mstore\n      swap1\n      0x01\n      add\n      swap1\n      0x20\n      add\n      dup1\n      dup4\n      gt\n      tag_199\n      jumpi\n      dup3\n      swap1\n      sub\n      0x1f\n      and\n      dup3\n      add\n      swap2\n    tag_197:\n      pop\n      pop\n      pop\n      pop\n      pop\n      dup2\n      mstore\n      0x20\n      add\n      0x05\n      dup3\n      add\n      0x00\n      swap1\n      sload\n      swap1\n      0x0100\n      exp\n      swap1\n      div\n      0xff\n      and\n      iszero\n      iszero\n      iszero\n      iszero\n      dup2\n      mstore\n      0x20\n      add\n      0x05\n      dup3\n      add\n      0x01\n      swap1\n      sload\n      swap1\n      0x0100\n      exp\n      swap1\n      div\n      0xff\n      and\n      iszero\n      iszero\n      iszero\n      iszero\n      dup2\n      mstore\n      pop\n      pop\n        /* \"AirlineManagement.sol\":5203:5216  bookedTickets */\n      dup4\n        /* \"AirlineManagement.sol\":5217:5222  index */\n      dup4\n        /* \"AirlineManagement.sol\":5203:5223  bookedTickets[index] */\n      dup2\n      mload\n      dup2\n      lt\n      tag_200\n      jumpi\n      tag_201\n      tag_116\n      jump\t// in\n    tag_201:\n    tag_200:\n      0x20\n      mul\n      0x20\n      add\n      add\n        /* \"AirlineManagement.sol\":5203:5248  bookedTickets[index] = ticketDetails[tokenId] */\n      dup2\n      swap1\n      mstore\n      pop\n        /* \"AirlineManagement.sol\":5267:5274  index++ */\n      dup2\n      dup1\n      tag_202\n      swap1\n      tag_149\n      jump\t// in\n    tag_202:\n      swap3\n      pop\n      pop\n        /* \"AirlineManagement.sol\":5103:5290  if (ticketDetails[tokenId].owner == user && !ticketDetails[tokenId].isAvailable) {... */\n    tag_189:\n        /* \"AirlineManagement.sol\":5077:5086  tokenId++ */\n      dup1\n      dup1\n      0x01\n      add\n      swap2\n      pop\n      pop\n        /* \"AirlineManagement.sol\":5030:5301  for (uint tokenId = 0; tokenId < nextTicketId; tokenId++) {... */\n      jump(tag_185)\n    tag_186:\n      pop\n        /* \"AirlineManagement.sol\":5320:5333  bookedTickets */\n      dup2\n        /* \"AirlineManagement.sol\":5313:5333  return bookedTickets */\n      swap4\n      pop\n      pop\n      pop\n      pop\n        /* \"AirlineManagement.sol\":4383:5341  function getBookedFlights(address user) public view returns (Ticket[] memory) {... */\n      swap2\n      swap1\n      pop\n      jump\t// out\n        /* \"AirlineManagement.sol\":612:643  uint[12] public monthMultiplier */\n    tag_95:\n      0x04\n      dup2\n      0x0c\n      dup2\n      lt\n      tag_203\n      jumpi\n      0x00\n      dup1\n      revert\n    tag_203:\n      add\n      0x00\n      swap2\n      pop\n      swap1\n      pop\n      sload\n      dup2\n      jump\t// out\n        /* \"AirlineManagement.sol\":3183:4274  function bookFlight(string memory destination, uint month, uint class, bool way) public payable{... */\n    tag_99:\n        /* \"AirlineManagement.sol\":3310:3350  getPrice(destination, month, class, way) */\n      tag_206\n        /* \"AirlineManagement.sol\":3319:3330  destination */\n      dup5\n        /* \"AirlineManagement.sol\":3332:3337  month */\n      dup5\n        /* \"AirlineManagement.sol\":3339:3344  class */\n      dup5\n        /* \"AirlineManagement.sol\":3346:3349  way */\n      dup5\n        /* \"AirlineManagement.sol\":3310:3318  getPrice */\n      tag_36\n        /* \"AirlineManagement.sol\":3310:3350  getPrice(destination, month, class, way) */\n      jump\t// in\n    tag_206:\n        /* \"AirlineManagement.sol\":3297:3306  msg.value */\n      callvalue\n        /* \"AirlineManagement.sol\":3297:3350  msg.value == getPrice(destination, month, class, way) */\n      eq\n        /* \"AirlineManagement.sol\":3289:3351  require(msg.value == getPrice(destination, month, class, way)) */\n      tag_207\n      jumpi\n      revert(0x00, 0x00)\n    tag_207:\n        /* \"AirlineManagement.sol\":3422:3433  bool booked */\n      0x00\n        /* \"AirlineManagement.sol\":3436:3441  false */\n      0x00\n        /* \"AirlineManagement.sol\":3422:3441  bool booked = false */\n      swap1\n      pop\n        /* \"AirlineManagement.sol\":3457:3469  uint tokenId */\n      0x00\n        /* \"AirlineManagement.sol\":3472:3473  0 */\n      0x00\n        /* \"AirlineManagement.sol\":3457:3473  uint tokenId = 0 */\n      swap1\n      pop\n        /* \"AirlineManagement.sol\":3452:4143  for (uint tokenId = 0; tokenId < nextTicketId; tokenId++) {... */\n    tag_208:\n        /* \"AirlineManagement.sol\":3485:3497  nextTicketId */\n      sload(0x15)\n        /* \"AirlineManagement.sol\":3475:3482  tokenId */\n      dup2\n        /* \"AirlineManagement.sol\":3475:3497  tokenId < nextTicketId */\n      lt\n        /* \"AirlineManagement.sol\":3452:4143  for (uint tokenId = 0; tokenId < nextTicketId; tokenId++) {... */\n      iszero\n      tag_209\n      jumpi\n        /* \"AirlineManagement.sol\":3525:3546  Ticket storage ticket */\n      0x00\n        /* \"AirlineManagement.sol\":3549:3562  ticketDetails */\n      0x14\n        /* \"AirlineManagement.sol\":3549:3571  ticketDetails[tokenId] */\n      0x00\n        /* \"AirlineManagement.sol\":3563:3570  tokenId */\n      dup4\n        /* \"AirlineManagement.sol\":3549:3571  ticketDetails[tokenId] */\n      dup2\n      mstore\n      0x20\n      add\n      swap1\n      dup2\n      mstore\n      0x20\n      add\n      0x00\n      keccak256\n        /* \"AirlineManagement.sol\":3525:3571  Ticket storage ticket = ticketDetails[tokenId] */\n      swap1\n      pop\n        /* \"AirlineManagement.sol\":3734:3745  destination */\n      dup7\n        /* \"AirlineManagement.sol\":3717:3746  abi.encodePacked(destination) */\n      add(0x20, mload(0x40))\n      tag_211\n      swap2\n      swap1\n      tag_123\n      jump\t// in\n    tag_211:\n      mload(0x40)\n      0x20\n      dup2\n      dup4\n      sub\n      sub\n      dup2\n      mstore\n      swap1\n      0x40\n      mstore\n        /* \"AirlineManagement.sol\":3707:3747  keccak256(abi.encodePacked(destination)) */\n      dup1\n      mload\n      swap1\n      0x20\n      add\n      keccak256\n        /* \"AirlineManagement.sol\":3683:3689  ticket */\n      dup2\n        /* \"AirlineManagement.sol\":3683:3701  ticket.destination */\n      0x01\n      add\n        /* \"AirlineManagement.sol\":3666:3702  abi.encodePacked(ticket.destination) */\n      add(0x20, mload(0x40))\n      tag_212\n      swap2\n      swap1\n      tag_159\n      jump\t// in\n    tag_212:\n      mload(0x40)\n      0x20\n      dup2\n      dup4\n      sub\n      sub\n      dup2\n      mstore\n      swap1\n      0x40\n      mstore\n        /* \"AirlineManagement.sol\":3656:3703  keccak256(abi.encodePacked(ticket.destination)) */\n      dup1\n      mload\n      swap1\n      0x20\n      add\n      keccak256\n        /* \"AirlineManagement.sol\":3656:3747  keccak256(abi.encodePacked(ticket.destination)) == keccak256(abi.encodePacked(destination)) */\n      eq\n        /* \"AirlineManagement.sol\":3656:3769  keccak256(abi.encodePacked(ticket.destination)) == keccak256(abi.encodePacked(destination)) && ticket.isAvailable */\n      dup1\n      iszero\n      tag_213\n      jumpi\n      pop\n        /* \"AirlineManagement.sol\":3751:3757  ticket */\n      dup1\n        /* \"AirlineManagement.sol\":3751:3769  ticket.isAvailable */\n      0x05\n      add\n      0x01\n      swap1\n      sload\n      swap1\n      0x0100\n      exp\n      swap1\n      div\n      0xff\n      and\n        /* \"AirlineManagement.sol\":3656:3769  keccak256(abi.encodePacked(ticket.destination)) == keccak256(abi.encodePacked(destination)) && ticket.isAvailable */\n    tag_213:\n        /* \"AirlineManagement.sol\":3652:4132  if (keccak256(abi.encodePacked(ticket.destination)) == keccak256(abi.encodePacked(destination)) && ticket.isAvailable) {... */\n      iszero\n      tag_214\n      jumpi\n        /* \"AirlineManagement.sol\":3870:3880  msg.sender */\n      caller\n        /* \"AirlineManagement.sol\":3855:3861  ticket */\n      dup2\n        /* \"AirlineManagement.sol\":3855:3867  ticket.owner */\n      0x00\n      add\n      0x00\n        /* \"AirlineManagement.sol\":3855:3880  ticket.owner = msg.sender */\n      0x0100\n      exp\n      dup2\n      sload\n      dup2\n      0xffffffffffffffffffffffffffffffffffffffff\n      mul\n      not\n      and\n      swap1\n      dup4\n      0xffffffffffffffffffffffffffffffffffffffff\n      and\n      mul\n      or\n      swap1\n      sstore\n      pop\n        /* \"AirlineManagement.sol\":3923:3924  1 */\n      0x01\n        /* \"AirlineManagement.sol\":3914:3919  class */\n      dup6\n        /* \"AirlineManagement.sol\":3914:3924  class == 1 */\n      eq\n        /* \"AirlineManagement.sol\":3914:3972  class == 1 ? \"Economy\" : class == 2 ? \"Business\" : \"First\" */\n      tag_215\n      jumpi\n        /* \"AirlineManagement.sol\":3948:3949  2 */\n      0x02\n        /* \"AirlineManagement.sol\":3939:3944  class */\n      dup6\n        /* \"AirlineManagement.sol\":3939:3949  class == 2 */\n      eq\n        /* \"AirlineManagement.sol\":3939:3972  class == 2 ? \"Business\" : \"First\" */\n      tag_216\n      jumpi\n      mload(0x40)\n      dup1\n      0x40\n      add\n      0x40\n      mstore\n      dup1\n      0x05\n      dup2\n      mstore\n      0x20\n      add\n      0x4669727374000000000000000000000000000000000000000000000000000000\n      dup2\n      mstore\n      pop\n      jump(tag_217)\n    tag_216:\n      mload(0x40)\n      dup1\n      0x40\n      add\n      0x40\n      mstore\n      dup1\n      0x08\n      dup2\n      mstore\n      0x20\n      add\n      0x427573696e657373000000000000000000000000000000000000000000000000\n      dup2\n      mstore\n      pop\n    tag_217:\n        /* \"AirlineManagement.sol\":3914:3972  class == 1 ? \"Economy\" : class == 2 ? \"Business\" : \"First\" */\n      jump(tag_218)\n    tag_215:\n      mload(0x40)\n      dup1\n      0x40\n      add\n      0x40\n      mstore\n      dup1\n      0x07\n      dup2\n      mstore\n      0x20\n      add\n      0x45636f6e6f6d7900000000000000000000000000000000000000000000000000\n      dup2\n      mstore\n      pop\n    tag_218:\n        /* \"AirlineManagement.sol\":3899:3905  ticket */\n      dup2\n        /* \"AirlineManagement.sol\":3899:3911  ticket.class */\n      0x04\n      add\n        /* \"AirlineManagement.sol\":3899:3972  ticket.class = class == 1 ? \"Economy\" : class == 2 ? \"Business\" : \"First\" */\n      swap1\n      dup2\n      tag_219\n      swap2\n      swap1\n      tag_146\n      jump\t// in\n    tag_219:\n      pop\n        /* \"AirlineManagement.sol\":4010:4013  way */\n      dup4\n        /* \"AirlineManagement.sol\":3991:3997  ticket */\n      dup2\n        /* \"AirlineManagement.sol\":3991:4007  ticket.roundTrip */\n      0x05\n      add\n      0x00\n        /* \"AirlineManagement.sol\":3991:4013  ticket.roundTrip = way */\n      0x0100\n      exp\n      dup2\n      sload\n      dup2\n      0xff\n      mul\n      not\n      and\n      swap1\n      dup4\n      iszero\n      iszero\n      mul\n      or\n      swap1\n      sstore\n      pop\n        /* \"AirlineManagement.sol\":4053:4058  false */\n      0x00\n        /* \"AirlineManagement.sol\":4032:4038  ticket */\n      dup2\n        /* \"AirlineManagement.sol\":4032:4050  ticket.isAvailable */\n      0x05\n      add\n      0x01\n        /* \"AirlineManagement.sol\":4032:4058  ticket.isAvailable = false */\n      0x0100\n      exp\n      dup2\n      sload\n      dup2\n      0xff\n      mul\n      not\n      and\n      swap1\n      dup4\n      iszero\n      iszero\n      mul\n      or\n      swap1\n      sstore\n      pop\n        /* \"AirlineManagement.sol\":4088:4092  true */\n      0x01\n        /* \"AirlineManagement.sol\":4079:4092  booked = true */\n      swap3\n      pop\n        /* \"AirlineManagement.sol\":4111:4116  break */\n      pop\n      jump(tag_209)\n        /* \"AirlineManagement.sol\":3652:4132  if (keccak256(abi.encodePacked(ticket.destination)) == keccak256(abi.encodePacked(destination)) && ticket.isAvailable) {... */\n    tag_214:\n        /* \"AirlineManagement.sol\":3510:4143  {... */\n      pop\n        /* \"AirlineManagement.sol\":3499:3508  tokenId++ */\n      dup1\n      dup1\n      0x01\n      add\n      swap2\n      pop\n      pop\n        /* \"AirlineManagement.sol\":3452:4143  for (uint tokenId = 0; tokenId < nextTicketId; tokenId++) {... */\n      jump(tag_208)\n    tag_209:\n      pop\n        /* \"AirlineManagement.sol\":4205:4211  booked */\n      dup1\n        /* \"AirlineManagement.sol\":4197:4266  require(booked, \"No available tickets for the specified destination\") */\n      tag_220\n      jumpi\n      mload(0x40)\n      0x08c379a000000000000000000000000000000000000000000000000000000000\n      dup2\n      mstore\n      0x04\n      add\n      tag_221\n      swap1\n      tag_222\n      jump\t// in\n    tag_221:\n      mload(0x40)\n      dup1\n      swap2\n      sub\n      swap1\n      revert\n    tag_220:\n        /* \"AirlineManagement.sol\":3278:4274  {... */\n      pop\n        /* \"AirlineManagement.sol\":3183:4274  function bookFlight(string memory destination, uint month, uint class, bool way) public payable{... */\n      pop\n      pop\n      pop\n      pop\n      jump\t// out\n    tag_184:\n      mload(0x40)\n      dup1\n      0xe0\n      add\n      0x40\n      mstore\n      dup1\n      and(0xffffffffffffffffffffffffffffffffffffffff, 0x00)\n      dup2\n      mstore\n      0x20\n      add\n      0x60\n      dup2\n      mstore\n      0x20\n      add\n      0x00\n      dup2\n      mstore\n      0x20\n      add\n      0x00\n      dup2\n      mstore\n      0x20\n      add\n      0x60\n      dup2\n      mstore\n      0x20\n      add\n      iszero(iszero(0x00))\n      dup2\n      mstore\n      0x20\n      add\n      iszero(iszero(0x00))\n      dup2\n      mstore\n      pop\n      swap1\n      jump\t// out\n        /* \"#utility.yul\":7:82   */\n    tag_223:\n        /* \"#utility.yul\":40:46   */\n      0x00\n        /* \"#utility.yul\":73:75   */\n      0x40\n        /* \"#utility.yul\":67:76   */\n      mload\n        /* \"#utility.yul\":57:76   */\n      swap1\n      pop\n        /* \"#utility.yul\":7:82   */\n      swap1\n      jump\t// out\n        /* \"#utility.yul\":88:205   */\n    tag_224:\n        /* \"#utility.yul\":197:198   */\n      0x00\n        /* \"#utility.yul\":194:195   */\n      0x00\n        /* \"#utility.yul\":187:199   */\n      revert\n        /* \"#utility.yul\":211:328   */\n    tag_225:\n        /* \"#utility.yul\":320:321   */\n      0x00\n        /* \"#utility.yul\":317:318   */\n      0x00\n        /* \"#utility.yul\":310:322   */\n      revert\n        /* \"#utility.yul\":334:411   */\n    tag_226:\n        /* \"#utility.yul\":371:378   */\n      0x00\n        /* \"#utility.yul\":400:405   */\n      dup2\n        /* \"#utility.yul\":389:405   */\n      swap1\n      pop\n        /* \"#utility.yul\":334:411   */\n      swap2\n      swap1\n      pop\n      jump\t// out\n        /* \"#utility.yul\":417:539   */\n    tag_227:\n        /* \"#utility.yul\":490:514   */\n      tag_293\n        /* \"#utility.yul\":508:513   */\n      dup2\n        /* \"#utility.yul\":490:514   */\n      tag_226\n      jump\t// in\n    tag_293:\n        /* \"#utility.yul\":483:488   */\n      dup2\n        /* \"#utility.yul\":480:515   */\n      eq\n        /* \"#utility.yul\":470:533   */\n      tag_294\n      jumpi\n        /* \"#utility.yul\":529:530   */\n      0x00\n        /* \"#utility.yul\":526:527   */\n      0x00\n        /* \"#utility.yul\":519:531   */\n      revert\n        /* \"#utility.yul\":470:533   */\n    tag_294:\n        /* \"#utility.yul\":417:539   */\n      pop\n      jump\t// out\n        /* \"#utility.yul\":545:684   */\n    tag_228:\n        /* \"#utility.yul\":591:596   */\n      0x00\n        /* \"#utility.yul\":629:635   */\n      dup2\n        /* \"#utility.yul\":616:636   */\n      calldataload\n        /* \"#utility.yul\":607:636   */\n      swap1\n      pop\n        /* \"#utility.yul\":645:678   */\n      tag_296\n        /* \"#utility.yul\":672:677   */\n      dup2\n        /* \"#utility.yul\":645:678   */\n      tag_227\n      jump\t// in\n    tag_296:\n        /* \"#utility.yul\":545:684   */\n      swap3\n      swap2\n      pop\n      pop\n      jump\t// out\n        /* \"#utility.yul\":690:1019   */\n    tag_23:\n        /* \"#utility.yul\":749:755   */\n      0x00\n        /* \"#utility.yul\":798:800   */\n      0x20\n        /* \"#utility.yul\":786:795   */\n      dup3\n        /* \"#utility.yul\":777:784   */\n      dup5\n        /* \"#utility.yul\":773:796   */\n      sub\n        /* \"#utility.yul\":769:801   */\n      slt\n        /* \"#utility.yul\":766:885   */\n      iszero\n      tag_298\n      jumpi\n        /* \"#utility.yul\":804:883   */\n      tag_299\n      tag_224\n      jump\t// in\n    tag_299:\n        /* \"#utility.yul\":766:885   */\n    tag_298:\n        /* \"#utility.yul\":924:925   */\n      0x00\n        /* \"#utility.yul\":949:1002   */\n      tag_300\n        /* \"#utility.yul\":994:1001   */\n      dup5\n        /* \"#utility.yul\":985:991   */\n      dup3\n        /* \"#utility.yul\":974:983   */\n      dup6\n        /* \"#utility.yul\":970:992   */\n      add\n        /* \"#utility.yul\":949:1002   */\n      tag_228\n      jump\t// in\n    tag_300:\n        /* \"#utility.yul\":939:1002   */\n      swap2\n      pop\n        /* \"#utility.yul\":895:1012   */\n      pop\n        /* \"#utility.yul\":690:1019   */\n      swap3\n      swap2\n      pop\n      pop\n      jump\t// out\n        /* \"#utility.yul\":1025:1151   */\n    tag_229:\n        /* \"#utility.yul\":1062:1069   */\n      0x00\n        /* \"#utility.yul\":1102:1144   */\n      0xffffffffffffffffffffffffffffffffffffffff\n        /* \"#utility.yul\":1095:1100   */\n      dup3\n        /* \"#utility.yul\":1091:1145   */\n      and\n        /* \"#utility.yul\":1080:1145   */\n      swap1\n      pop\n        /* \"#utility.yul\":1025:1151   */\n      swap2\n      swap1\n      pop\n      jump\t// out\n        /* \"#utility.yul\":1157:1253   */\n    tag_230:\n        /* \"#utility.yul\":1194:1201   */\n      0x00\n        /* \"#utility.yul\":1223:1247   */\n      tag_303\n        /* \"#utility.yul\":1241:1246   */\n      dup3\n        /* \"#utility.yul\":1223:1247   */\n      tag_229\n      jump\t// in\n    tag_303:\n        /* \"#utility.yul\":1212:1247   */\n      swap1\n      pop\n        /* \"#utility.yul\":1157:1253   */\n      swap2\n      swap1\n      pop\n      jump\t// out\n        /* \"#utility.yul\":1259:1377   */\n    tag_231:\n        /* \"#utility.yul\":1346:1370   */\n      tag_305\n        /* \"#utility.yul\":1364:1369   */\n      dup2\n        /* \"#utility.yul\":1346:1370   */\n      tag_230\n      jump\t// in\n    tag_305:\n        /* \"#utility.yul\":1341:1344   */\n      dup3\n        /* \"#utility.yul\":1334:1371   */\n      mstore\n        /* \"#utility.yul\":1259:1377   */\n      pop\n      pop\n      jump\t// out\n        /* \"#utility.yul\":1383:1482   */\n    tag_232:\n        /* \"#utility.yul\":1435:1441   */\n      0x00\n        /* \"#utility.yul\":1469:1474   */\n      dup2\n        /* \"#utility.yul\":1463:1475   */\n      mload\n        /* \"#utility.yul\":1453:1475   */\n      swap1\n      pop\n        /* \"#utility.yul\":1383:1482   */\n      swap2\n      swap1\n      pop\n      jump\t// out\n        /* \"#utility.yul\":1488:1657   */\n    tag_233:\n        /* \"#utility.yul\":1572:1583   */\n      0x00\n        /* \"#utility.yul\":1606:1612   */\n      dup3\n        /* \"#utility.yul\":1601:1604   */\n      dup3\n        /* \"#utility.yul\":1594:1613   */\n      mstore\n        /* \"#utility.yul\":1646:1650   */\n      0x20\n        /* \"#utility.yul\":1641:1644   */\n      dup3\n        /* \"#utility.yul\":1637:1651   */\n      add\n        /* \"#utility.yul\":1622:1651   */\n      swap1\n      pop\n        /* \"#utility.yul\":1488:1657   */\n      swap3\n      swap2\n      pop\n      pop\n      jump\t// out\n        /* \"#utility.yul\":1663:1802   */\n    tag_234:\n        /* \"#utility.yul\":1752:1758   */\n      dup3\n        /* \"#utility.yul\":1747:1750   */\n      dup2\n        /* \"#utility.yul\":1742:1745   */\n      dup4\n        /* \"#utility.yul\":1736:1759   */\n      mcopy\n        /* \"#utility.yul\":1793:1794   */\n      0x00\n        /* \"#utility.yul\":1784:1790   */\n      dup4\n        /* \"#utility.yul\":1779:1782   */\n      dup4\n        /* \"#utility.yul\":1775:1791   */\n      add\n        /* \"#utility.yul\":1768:1795   */\n      mstore\n        /* \"#utility.yul\":1663:1802   */\n      pop\n      pop\n      pop\n      jump\t// out\n        /* \"#utility.yul\":1808:1910   */\n    tag_235:\n        /* \"#utility.yul\":1849:1855   */\n      0x00\n        /* \"#utility.yul\":1900:1902   */\n      0x1f\n        /* \"#utility.yul\":1896:1903   */\n      not\n        /* \"#utility.yul\":1891:1893   */\n      0x1f\n        /* \"#utility.yul\":1884:1889   */\n      dup4\n        /* \"#utility.yul\":1880:1894   */\n      add\n        /* \"#utility.yul\":1876:1904   */\n      and\n        /* \"#utility.yul\":1866:1904   */\n      swap1\n      pop\n        /* \"#utility.yul\":1808:1910   */\n      swap2\n      swap1\n      pop\n      jump\t// out\n        /* \"#utility.yul\":1916:2293   */\n    tag_236:\n        /* \"#utility.yul\":2004:2007   */\n      0x00\n        /* \"#utility.yul\":2032:2071   */\n      tag_311\n        /* \"#utility.yul\":2065:2070   */\n      dup3\n        /* \"#utility.yul\":2032:2071   */\n      tag_232\n      jump\t// in\n    tag_311:\n        /* \"#utility.yul\":2087:2158   */\n      tag_312\n        /* \"#utility.yul\":2151:2157   */\n      dup2\n        /* \"#utility.yul\":2146:2149   */\n      dup6\n        /* \"#utility.yul\":2087:2158   */\n      tag_233\n      jump\t// in\n    tag_312:\n        /* \"#utility.yul\":2080:2158   */\n      swap4\n      pop\n        /* \"#utility.yul\":2167:2232   */\n      tag_313\n        /* \"#utility.yul\":2225:2231   */\n      dup2\n        /* \"#utility.yul\":2220:2223   */\n      dup6\n        /* \"#utility.yul\":2213:2217   */\n      0x20\n        /* \"#utility.yul\":2206:2211   */\n      dup7\n        /* \"#utility.yul\":2202:2218   */\n      add\n        /* \"#utility.yul\":2167:2232   */\n      tag_234\n      jump\t// in\n    tag_313:\n        /* \"#utility.yul\":2257:2286   */\n      tag_314\n        /* \"#utility.yul\":2279:2285   */\n      dup2\n        /* \"#utility.yul\":2257:2286   */\n      tag_235\n      jump\t// in\n    tag_314:\n        /* \"#utility.yul\":2252:2255   */\n      dup5\n        /* \"#utility.yul\":2248:2287   */\n      add\n        /* \"#utility.yul\":2241:2287   */\n      swap2\n      pop\n        /* \"#utility.yul\":2008:2293   */\n      pop\n        /* \"#utility.yul\":1916:2293   */\n      swap3\n      swap2\n      pop\n      pop\n      jump\t// out\n        /* \"#utility.yul\":2299:2417   */\n    tag_237:\n        /* \"#utility.yul\":2386:2410   */\n      tag_316\n        /* \"#utility.yul\":2404:2409   */\n      dup2\n        /* \"#utility.yul\":2386:2410   */\n      tag_226\n      jump\t// in\n    tag_316:\n        /* \"#utility.yul\":2381:2384   */\n      dup3\n        /* \"#utility.yul\":2374:2411   */\n      mstore\n        /* \"#utility.yul\":2299:2417   */\n      pop\n      pop\n      jump\t// out\n        /* \"#utility.yul\":2423:2513   */\n    tag_238:\n        /* \"#utility.yul\":2457:2464   */\n      0x00\n        /* \"#utility.yul\":2500:2505   */\n      dup2\n        /* \"#utility.yul\":2493:2506   */\n      iszero\n        /* \"#utility.yul\":2486:2507   */\n      iszero\n        /* \"#utility.yul\":2475:2507   */\n      swap1\n      pop\n        /* \"#utility.yul\":2423:2513   */\n      swap2\n      swap1\n      pop\n      jump\t// out\n        /* \"#utility.yul\":2519:2628   */\n    tag_239:\n        /* \"#utility.yul\":2600:2621   */\n      tag_319\n        /* \"#utility.yul\":2615:2620   */\n      dup2\n        /* \"#utility.yul\":2600:2621   */\n      tag_238\n      jump\t// in\n    tag_319:\n        /* \"#utility.yul\":2595:2598   */\n      dup3\n        /* \"#utility.yul\":2588:2622   */\n      mstore\n        /* \"#utility.yul\":2519:2628   */\n      pop\n      pop\n      jump\t// out\n        /* \"#utility.yul\":2634:3678   */\n    tag_26:\n        /* \"#utility.yul\":2923:2927   */\n      0x00\n        /* \"#utility.yul\":2961:2964   */\n      0xe0\n        /* \"#utility.yul\":2950:2959   */\n      dup3\n        /* \"#utility.yul\":2946:2965   */\n      add\n        /* \"#utility.yul\":2938:2965   */\n      swap1\n      pop\n        /* \"#utility.yul\":2975:3046   */\n      tag_321\n        /* \"#utility.yul\":3043:3044   */\n      0x00\n        /* \"#utility.yul\":3032:3041   */\n      dup4\n        /* \"#utility.yul\":3028:3045   */\n      add\n        /* \"#utility.yul\":3019:3025   */\n      dup11\n        /* \"#utility.yul\":2975:3046   */\n      tag_231\n      jump\t// in\n    tag_321:\n        /* \"#utility.yul\":3093:3102   */\n      dup2\n        /* \"#utility.yul\":3087:3091   */\n      dup2\n        /* \"#utility.yul\":3083:3103   */\n      sub\n        /* \"#utility.yul\":3078:3080   */\n      0x20\n        /* \"#utility.yul\":3067:3076   */\n      dup4\n        /* \"#utility.yul\":3063:3081   */\n      add\n        /* \"#utility.yul\":3056:3104   */\n      mstore\n        /* \"#utility.yul\":3121:3199   */\n      tag_322\n        /* \"#utility.yul\":3194:3198   */\n      dup2\n        /* \"#utility.yul\":3185:3191   */\n      dup10\n        /* \"#utility.yul\":3121:3199   */\n      tag_236\n      jump\t// in\n    tag_322:\n        /* \"#utility.yul\":3113:3199   */\n      swap1\n      pop\n        /* \"#utility.yul\":3209:3281   */\n      tag_323\n        /* \"#utility.yul\":3277:3279   */\n      0x40\n        /* \"#utility.yul\":3266:3275   */\n      dup4\n        /* \"#utility.yul\":3262:3280   */\n      add\n        /* \"#utility.yul\":3253:3259   */\n      dup9\n        /* \"#utility.yul\":3209:3281   */\n      tag_237\n      jump\t// in\n    tag_323:\n        /* \"#utility.yul\":3291:3363   */\n      tag_324\n        /* \"#utility.yul\":3359:3361   */\n      0x60\n        /* \"#utility.yul\":3348:3357   */\n      dup4\n        /* \"#utility.yul\":3344:3362   */\n      add\n        /* \"#utility.yul\":3335:3341   */\n      dup8\n        /* \"#utility.yul\":3291:3363   */\n      tag_237\n      jump\t// in\n    tag_324:\n        /* \"#utility.yul\":3411:3420   */\n      dup2\n        /* \"#utility.yul\":3405:3409   */\n      dup2\n        /* \"#utility.yul\":3401:3421   */\n      sub\n        /* \"#utility.yul\":3395:3398   */\n      0x80\n        /* \"#utility.yul\":3384:3393   */\n      dup4\n        /* \"#utility.yul\":3380:3399   */\n      add\n        /* \"#utility.yul\":3373:3422   */\n      mstore\n        /* \"#utility.yul\":3439:3517   */\n      tag_325\n        /* \"#utility.yul\":3512:3516   */\n      dup2\n        /* \"#utility.yul\":3503:3509   */\n      dup7\n        /* \"#utility.yul\":3439:3517   */\n      tag_236\n      jump\t// in\n    tag_325:\n        /* \"#utility.yul\":3431:3517   */\n      swap1\n      pop\n        /* \"#utility.yul\":3527:3594   */\n      tag_326\n        /* \"#utility.yul\":3589:3592   */\n      0xa0\n        /* \"#utility.yul\":3578:3587   */\n      dup4\n        /* \"#utility.yul\":3574:3593   */\n      add\n        /* \"#utility.yul\":3565:3571   */\n      dup6\n        /* \"#utility.yul\":3527:3594   */\n      tag_239\n      jump\t// in\n    tag_326:\n        /* \"#utility.yul\":3604:3671   */\n      tag_327\n        /* \"#utility.yul\":3666:3669   */\n      0xc0\n        /* \"#utility.yul\":3655:3664   */\n      dup4\n        /* \"#utility.yul\":3651:3670   */\n      add\n        /* \"#utility.yul\":3642:3648   */\n      dup5\n        /* \"#utility.yul\":3604:3671   */\n      tag_239\n      jump\t// in\n    tag_327:\n        /* \"#utility.yul\":2634:3678   */\n      swap9\n      swap8\n      pop\n      pop\n      pop\n      pop\n      pop\n      pop\n      pop\n      pop\n      jump\t// out\n        /* \"#utility.yul\":3684:3906   */\n    tag_31:\n        /* \"#utility.yul\":3777:3781   */\n      0x00\n        /* \"#utility.yul\":3815:3817   */\n      0x20\n        /* \"#utility.yul\":3804:3813   */\n      dup3\n        /* \"#utility.yul\":3800:3818   */\n      add\n        /* \"#utility.yul\":3792:3818   */\n      swap1\n      pop\n        /* \"#utility.yul\":3828:3899   */\n      tag_329\n        /* \"#utility.yul\":3896:3897   */\n      0x00\n        /* \"#utility.yul\":3885:3894   */\n      dup4\n        /* \"#utility.yul\":3881:3898   */\n      add\n        /* \"#utility.yul\":3872:3878   */\n      dup5\n        /* \"#utility.yul\":3828:3899   */\n      tag_237\n      jump\t// in\n    tag_329:\n        /* \"#utility.yul\":3684:3906   */\n      swap3\n      swap2\n      pop\n      pop\n      jump\t// out\n        /* \"#utility.yul\":3912:4029   */\n    tag_240:\n        /* \"#utility.yul\":4021:4022   */\n      0x00\n        /* \"#utility.yul\":4018:4019   */\n      0x00\n        /* \"#utility.yul\":4011:4023   */\n      revert\n        /* \"#utility.yul\":4035:4152   */\n    tag_241:\n        /* \"#utility.yul\":4144:4145   */\n      0x00\n        /* \"#utility.yul\":4141:4142   */\n      0x00\n        /* \"#utility.yul\":4134:4146   */\n      revert\n        /* \"#utility.yul\":4158:4338   */\n    tag_180:\n        /* \"#utility.yul\":4206:4283   */\n      0x4e487b7100000000000000000000000000000000000000000000000000000000\n        /* \"#utility.yul\":4203:4204   */\n      0x00\n        /* \"#utility.yul\":4196:4284   */\n      mstore\n        /* \"#utility.yul\":4303:4307   */\n      0x41\n        /* \"#utility.yul\":4300:4301   */\n      0x04\n        /* \"#utility.yul\":4293:4308   */\n      mstore\n        /* \"#utility.yul\":4327:4331   */\n      0x24\n        /* \"#utility.yul\":4324:4325   */\n      0x00\n        /* \"#utility.yul\":4317:4332   */\n      revert\n        /* \"#utility.yul\":4344:4625   */\n    tag_242:\n        /* \"#utility.yul\":4427:4454   */\n      tag_334\n        /* \"#utility.yul\":4449:4453   */\n      dup3\n        /* \"#utility.yul\":4427:4454   */\n      tag_235\n      jump\t// in\n    tag_334:\n        /* \"#utility.yul\":4419:4425   */\n      dup2\n        /* \"#utility.yul\":4415:4455   */\n      add\n        /* \"#utility.yul\":4557:4563   */\n      dup2\n        /* \"#utility.yul\":4545:4555   */\n      dup2\n        /* \"#utility.yul\":4542:4564   */\n      lt\n        /* \"#utility.yul\":4521:4539   */\n      0xffffffffffffffff\n        /* \"#utility.yul\":4509:4519   */\n      dup3\n        /* \"#utility.yul\":4506:4540   */\n      gt\n        /* \"#utility.yul\":4503:4565   */\n      or\n        /* \"#utility.yul\":4500:4588   */\n      iszero\n      tag_335\n      jumpi\n        /* \"#utility.yul\":4568:4586   */\n      tag_336\n      tag_180\n      jump\t// in\n    tag_336:\n        /* \"#utility.yul\":4500:4588   */\n    tag_335:\n        /* \"#utility.yul\":4608:4618   */\n      dup1\n        /* \"#utility.yul\":4604:4606   */\n      0x40\n        /* \"#utility.yul\":4597:4619   */\n      mstore\n        /* \"#utility.yul\":4387:4625   */\n      pop\n        /* \"#utility.yul\":4344:4625   */\n      pop\n      pop\n      jump\t// out\n        /* \"#utility.yul\":4631:4760   */\n    tag_243:\n        /* \"#utility.yul\":4665:4671   */\n      0x00\n        /* \"#utility.yul\":4692:4712   */\n      tag_338\n      tag_223\n      jump\t// in\n    tag_338:\n        /* \"#utility.yul\":4682:4712   */\n      swap1\n      pop\n        /* \"#utility.yul\":4721:4754   */\n      tag_339\n        /* \"#utility.yul\":4749:4753   */\n      dup3\n        /* \"#utility.yul\":4741:4747   */\n      dup3\n        /* \"#utility.yul\":4721:4754   */\n      tag_242\n      jump\t// in\n    tag_339:\n        /* \"#utility.yul\":4631:4760   */\n      swap2\n      swap1\n      pop\n      jump\t// out\n        /* \"#utility.yul\":4766:5074   */\n    tag_244:\n        /* \"#utility.yul\":4828:4832   */\n      0x00\n        /* \"#utility.yul\":4918:4936   */\n      0xffffffffffffffff\n        /* \"#utility.yul\":4910:4916   */\n      dup3\n        /* \"#utility.yul\":4907:4937   */\n      gt\n        /* \"#utility.yul\":4904:4960   */\n      iszero\n      tag_341\n      jumpi\n        /* \"#utility.yul\":4940:4958   */\n      tag_342\n      tag_180\n      jump\t// in\n    tag_342:\n        /* \"#utility.yul\":4904:4960   */\n    tag_341:\n        /* \"#utility.yul\":4978:5007   */\n      tag_343\n        /* \"#utility.yul\":5000:5006   */\n      dup3\n        /* \"#utility.yul\":4978:5007   */\n      tag_235\n      jump\t// in\n    tag_343:\n        /* \"#utility.yul\":4970:5007   */\n      swap1\n      pop\n        /* \"#utility.yul\":5062:5066   */\n      0x20\n        /* \"#utility.yul\":5056:5060   */\n      dup2\n        /* \"#utility.yul\":5052:5067   */\n      add\n        /* \"#utility.yul\":5044:5067   */\n      swap1\n      pop\n        /* \"#utility.yul\":4766:5074   */\n      swap2\n      swap1\n      pop\n      jump\t// out\n        /* \"#utility.yul\":5080:5228   */\n    tag_245:\n        /* \"#utility.yul\":5178:5184   */\n      dup3\n        /* \"#utility.yul\":5173:5176   */\n      dup2\n        /* \"#utility.yul\":5168:5171   */\n      dup4\n        /* \"#utility.yul\":5155:5185   */\n      calldatacopy\n        /* \"#utility.yul\":5219:5220   */\n      0x00\n        /* \"#utility.yul\":5210:5216   */\n      dup4\n        /* \"#utility.yul\":5205:5208   */\n      dup4\n        /* \"#utility.yul\":5201:5217   */\n      add\n        /* \"#utility.yul\":5194:5221   */\n      mstore\n        /* \"#utility.yul\":5080:5228   */\n      pop\n      pop\n      pop\n      jump\t// out\n        /* \"#utility.yul\":5234:5659   */\n    tag_246:\n        /* \"#utility.yul\":5312:5317   */\n      0x00\n        /* \"#utility.yul\":5337:5403   */\n      tag_346\n        /* \"#utility.yul\":5353:5402   */\n      tag_347\n        /* \"#utility.yul\":5395:5401   */\n      dup5\n        /* \"#utility.yul\":5353:5402   */\n      tag_244\n      jump\t// in\n    tag_347:\n        /* \"#utility.yul\":5337:5403   */\n      tag_243\n      jump\t// in\n    tag_346:\n        /* \"#utility.yul\":5328:5403   */\n      swap1\n      pop\n        /* \"#utility.yul\":5426:5432   */\n      dup3\n        /* \"#utility.yul\":5419:5424   */\n      dup2\n        /* \"#utility.yul\":5412:5433   */\n      mstore\n        /* \"#utility.yul\":5464:5468   */\n      0x20\n        /* \"#utility.yul\":5457:5462   */\n      dup2\n        /* \"#utility.yul\":5453:5469   */\n      add\n        /* \"#utility.yul\":5502:5505   */\n      dup5\n        /* \"#utility.yul\":5493:5499   */\n      dup5\n        /* \"#utility.yul\":5488:5491   */\n      dup5\n        /* \"#utility.yul\":5484:5500   */\n      add\n        /* \"#utility.yul\":5481:5506   */\n      gt\n        /* \"#utility.yul\":5478:5590   */\n      iszero\n      tag_348\n      jumpi\n        /* \"#utility.yul\":5509:5588   */\n      tag_349\n      tag_241\n      jump\t// in\n    tag_349:\n        /* \"#utility.yul\":5478:5590   */\n    tag_348:\n        /* \"#utility.yul\":5599:5653   */\n      tag_350\n        /* \"#utility.yul\":5646:5652   */\n      dup5\n        /* \"#utility.yul\":5641:5644   */\n      dup3\n        /* \"#utility.yul\":5636:5639   */\n      dup6\n        /* \"#utility.yul\":5599:5653   */\n      tag_245\n      jump\t// in\n    tag_350:\n        /* \"#utility.yul\":5318:5659   */\n      pop\n        /* \"#utility.yul\":5234:5659   */\n      swap4\n      swap3\n      pop\n      pop\n      pop\n      jump\t// out\n        /* \"#utility.yul\":5679:6019   */\n    tag_247:\n        /* \"#utility.yul\":5735:5740   */\n      0x00\n        /* \"#utility.yul\":5784:5787   */\n      dup3\n        /* \"#utility.yul\":5777:5781   */\n      0x1f\n        /* \"#utility.yul\":5769:5775   */\n      dup4\n        /* \"#utility.yul\":5765:5782   */\n      add\n        /* \"#utility.yul\":5761:5788   */\n      slt\n        /* \"#utility.yul\":5751:5873   */\n      tag_352\n      jumpi\n        /* \"#utility.yul\":5792:5871   */\n      tag_353\n      tag_240\n      jump\t// in\n    tag_353:\n        /* \"#utility.yul\":5751:5873   */\n    tag_352:\n        /* \"#utility.yul\":5909:5915   */\n      dup2\n        /* \"#utility.yul\":5896:5916   */\n      calldataload\n        /* \"#utility.yul\":5934:6013   */\n      tag_354\n        /* \"#utility.yul\":6009:6012   */\n      dup5\n        /* \"#utility.yul\":6001:6007   */\n      dup3\n        /* \"#utility.yul\":5994:5998   */\n      0x20\n        /* \"#utility.yul\":5986:5992   */\n      dup7\n        /* \"#utility.yul\":5982:5999   */\n      add\n        /* \"#utility.yul\":5934:6013   */\n      tag_246\n      jump\t// in\n    tag_354:\n        /* \"#utility.yul\":5925:6013   */\n      swap2\n      pop\n        /* \"#utility.yul\":5741:6019   */\n      pop\n        /* \"#utility.yul\":5679:6019   */\n      swap3\n      swap2\n      pop\n      pop\n      jump\t// out\n        /* \"#utility.yul\":6025:6141   */\n    tag_248:\n        /* \"#utility.yul\":6095:6116   */\n      tag_356\n        /* \"#utility.yul\":6110:6115   */\n      dup2\n        /* \"#utility.yul\":6095:6116   */\n      tag_238\n      jump\t// in\n    tag_356:\n        /* \"#utility.yul\":6088:6093   */\n      dup2\n        /* \"#utility.yul\":6085:6117   */\n      eq\n        /* \"#utility.yul\":6075:6135   */\n      tag_357\n      jumpi\n        /* \"#utility.yul\":6131:6132   */\n      0x00\n        /* \"#utility.yul\":6128:6129   */\n      0x00\n        /* \"#utility.yul\":6121:6133   */\n      revert\n        /* \"#utility.yul\":6075:6135   */\n    tag_357:\n        /* \"#utility.yul\":6025:6141   */\n      pop\n      jump\t// out\n        /* \"#utility.yul\":6147:6280   */\n    tag_249:\n        /* \"#utility.yul\":6190:6195   */\n      0x00\n        /* \"#utility.yul\":6228:6234   */\n      dup2\n        /* \"#utility.yul\":6215:6235   */\n      calldataload\n        /* \"#utility.yul\":6206:6235   */\n      swap1\n      pop\n        /* \"#utility.yul\":6244:6274   */\n      tag_359\n        /* \"#utility.yul\":6268:6273   */\n      dup2\n        /* \"#utility.yul\":6244:6274   */\n      tag_248\n      jump\t// in\n    tag_359:\n        /* \"#utility.yul\":6147:6280   */\n      swap3\n      swap2\n      pop\n      pop\n      jump\t// out\n        /* \"#utility.yul\":6286:7225   */\n    tag_35:\n        /* \"#utility.yul\":6379:6385   */\n      0x00\n        /* \"#utility.yul\":6387:6393   */\n      0x00\n        /* \"#utility.yul\":6395:6401   */\n      0x00\n        /* \"#utility.yul\":6403:6409   */\n      0x00\n        /* \"#utility.yul\":6452:6455   */\n      0x80\n        /* \"#utility.yul\":6440:6449   */\n      dup6\n        /* \"#utility.yul\":6431:6438   */\n      dup8\n        /* \"#utility.yul\":6427:6450   */\n      sub\n        /* \"#utility.yul\":6423:6456   */\n      slt\n        /* \"#utility.yul\":6420:6540   */\n      iszero\n      tag_361\n      jumpi\n        /* \"#utility.yul\":6459:6538   */\n      tag_362\n      tag_224\n      jump\t// in\n    tag_362:\n        /* \"#utility.yul\":6420:6540   */\n    tag_361:\n        /* \"#utility.yul\":6607:6608   */\n      0x00\n        /* \"#utility.yul\":6596:6605   */\n      dup6\n        /* \"#utility.yul\":6592:6609   */\n      add\n        /* \"#utility.yul\":6579:6610   */\n      calldataload\n        /* \"#utility.yul\":6637:6655   */\n      0xffffffffffffffff\n        /* \"#utility.yul\":6629:6635   */\n      dup2\n        /* \"#utility.yul\":6626:6656   */\n      gt\n        /* \"#utility.yul\":6623:6740   */\n      iszero\n      tag_363\n      jumpi\n        /* \"#utility.yul\":6659:6738   */\n      tag_364\n      tag_225\n      jump\t// in\n    tag_364:\n        /* \"#utility.yul\":6623:6740   */\n    tag_363:\n        /* \"#utility.yul\":6764:6827   */\n      tag_365\n        /* \"#utility.yul\":6819:6826   */\n      dup8\n        /* \"#utility.yul\":6810:6816   */\n      dup3\n        /* \"#utility.yul\":6799:6808   */\n      dup9\n        /* \"#utility.yul\":6795:6817   */\n      add\n        /* \"#utility.yul\":6764:6827   */\n      tag_247\n      jump\t// in\n    tag_365:\n        /* \"#utility.yul\":6754:6827   */\n      swap5\n      pop\n        /* \"#utility.yul\":6550:6837   */\n      pop\n        /* \"#utility.yul\":6876:6878   */\n      0x20\n        /* \"#utility.yul\":6902:6955   */\n      tag_366\n        /* \"#utility.yul\":6947:6954   */\n      dup8\n        /* \"#utility.yul\":6938:6944   */\n      dup3\n        /* \"#utility.yul\":6927:6936   */\n      dup9\n        /* \"#utility.yul\":6923:6945   */\n      add\n        /* \"#utility.yul\":6902:6955   */\n      tag_228\n      jump\t// in\n    tag_366:\n        /* \"#utility.yul\":6892:6955   */\n      swap4\n      pop\n        /* \"#utility.yul\":6847:6965   */\n      pop\n        /* \"#utility.yul\":7004:7006   */\n      0x40\n        /* \"#utility.yul\":7030:7083   */\n      tag_367\n        /* \"#utility.yul\":7075:7082   */\n      dup8\n        /* \"#utility.yul\":7066:7072   */\n      dup3\n        /* \"#utility.yul\":7055:7064   */\n      dup9\n        /* \"#utility.yul\":7051:7073   */\n      add\n        /* \"#utility.yul\":7030:7083   */\n      tag_228\n      jump\t// in\n    tag_367:\n        /* \"#utility.yul\":7020:7083   */\n      swap3\n      pop\n        /* \"#utility.yul\":6975:7093   */\n      pop\n        /* \"#utility.yul\":7132:7134   */\n      0x60\n        /* \"#utility.yul\":7158:7208   */\n      tag_368\n        /* \"#utility.yul\":7200:7207   */\n      dup8\n        /* \"#utility.yul\":7191:7197   */\n      dup3\n        /* \"#utility.yul\":7180:7189   */\n      dup9\n        /* \"#utility.yul\":7176:7198   */\n      add\n        /* \"#utility.yul\":7158:7208   */\n      tag_249\n      jump\t// in\n    tag_368:\n        /* \"#utility.yul\":7148:7208   */\n      swap2\n      pop\n        /* \"#utility.yul\":7103:7218   */\n      pop\n        /* \"#utility.yul\":6286:7225   */\n      swap3\n      swap6\n      swap2\n      swap5\n      pop\n      swap3\n      pop\n      jump\t// out\n        /* \"#utility.yul\":7231:7353   */\n    tag_250:\n        /* \"#utility.yul\":7304:7328   */\n      tag_370\n        /* \"#utility.yul\":7322:7327   */\n      dup2\n        /* \"#utility.yul\":7304:7328   */\n      tag_230\n      jump\t// in\n    tag_370:\n        /* \"#utility.yul\":7297:7302   */\n      dup2\n        /* \"#utility.yul\":7294:7329   */\n      eq\n        /* \"#utility.yul\":7284:7347   */\n      tag_371\n      jumpi\n        /* \"#utility.yul\":7343:7344   */\n      0x00\n        /* \"#utility.yul\":7340:7341   */\n      0x00\n        /* \"#utility.yul\":7333:7345   */\n      revert\n        /* \"#utility.yul\":7284:7347   */\n    tag_371:\n        /* \"#utility.yul\":7231:7353   */\n      pop\n      jump\t// out\n        /* \"#utility.yul\":7359:7498   */\n    tag_251:\n        /* \"#utility.yul\":7405:7410   */\n      0x00\n        /* \"#utility.yul\":7443:7449   */\n      dup2\n        /* \"#utility.yul\":7430:7450   */\n      calldataload\n        /* \"#utility.yul\":7421:7450   */\n      swap1\n      pop\n        /* \"#utility.yul\":7459:7492   */\n      tag_373\n        /* \"#utility.yul\":7486:7491   */\n      dup2\n        /* \"#utility.yul\":7459:7492   */\n      tag_250\n      jump\t// in\n    tag_373:\n        /* \"#utility.yul\":7359:7498   */\n      swap3\n      swap2\n      pop\n      pop\n      jump\t// out\n        /* \"#utility.yul\":7504:7833   */\n    tag_41:\n        /* \"#utility.yul\":7563:7569   */\n      0x00\n        /* \"#utility.yul\":7612:7614   */\n      0x20\n        /* \"#utility.yul\":7600:7609   */\n      dup3\n        /* \"#utility.yul\":7591:7598   */\n      dup5\n        /* \"#utility.yul\":7587:7610   */\n      sub\n        /* \"#utility.yul\":7583:7615   */\n      slt\n        /* \"#utility.yul\":7580:7699   */\n      iszero\n      tag_375\n      jumpi\n        /* \"#utility.yul\":7618:7697   */\n      tag_376\n      tag_224\n      jump\t// in\n    tag_376:\n        /* \"#utility.yul\":7580:7699   */\n    tag_375:\n        /* \"#utility.yul\":7738:7739   */\n      0x00\n        /* \"#utility.yul\":7763:7816   */\n      tag_377\n        /* \"#utility.yul\":7808:7815   */\n      dup5\n        /* \"#utility.yul\":7799:7805   */\n      dup3\n        /* \"#utility.yul\":7788:7797   */\n      dup6\n        /* \"#utility.yul\":7784:7806   */\n      add\n        /* \"#utility.yul\":7763:7816   */\n      tag_251\n      jump\t// in\n    tag_377:\n        /* \"#utility.yul\":7753:7816   */\n      swap2\n      pop\n        /* \"#utility.yul\":7709:7826   */\n      pop\n        /* \"#utility.yul\":7504:7833   */\n      swap3\n      swap2\n      pop\n      pop\n      jump\t// out\n        /* \"#utility.yul\":7839:8049   */\n    tag_44:\n        /* \"#utility.yul\":7926:7930   */\n      0x00\n        /* \"#utility.yul\":7964:7966   */\n      0x20\n        /* \"#utility.yul\":7953:7962   */\n      dup3\n        /* \"#utility.yul\":7949:7967   */\n      add\n        /* \"#utility.yul\":7941:7967   */\n      swap1\n      pop\n        /* \"#utility.yul\":7977:8042   */\n      tag_379\n        /* \"#utility.yul\":8039:8040   */\n      0x00\n        /* \"#utility.yul\":8028:8037   */\n      dup4\n        /* \"#utility.yul\":8024:8041   */\n      add\n        /* \"#utility.yul\":8015:8021   */\n      dup5\n        /* \"#utility.yul\":7977:8042   */\n      tag_239\n      jump\t// in\n    tag_379:\n        /* \"#utility.yul\":7839:8049   */\n      swap3\n      swap2\n      pop\n      pop\n      jump\t// out\n        /* \"#utility.yul\":8055:8564   */\n    tag_53:\n        /* \"#utility.yul\":8124:8130   */\n      0x00\n        /* \"#utility.yul\":8173:8175   */\n      0x20\n        /* \"#utility.yul\":8161:8170   */\n      dup3\n        /* \"#utility.yul\":8152:8159   */\n      dup5\n        /* \"#utility.yul\":8148:8171   */\n      sub\n        /* \"#utility.yul\":8144:8176   */\n      slt\n        /* \"#utility.yul\":8141:8260   */\n      iszero\n      tag_381\n      jumpi\n        /* \"#utility.yul\":8179:8258   */\n      tag_382\n      tag_224\n      jump\t// in\n    tag_382:\n        /* \"#utility.yul\":8141:8260   */\n    tag_381:\n        /* \"#utility.yul\":8327:8328   */\n      0x00\n        /* \"#utility.yul\":8316:8325   */\n      dup3\n        /* \"#utility.yul\":8312:8329   */\n      add\n        /* \"#utility.yul\":8299:8330   */\n      calldataload\n        /* \"#utility.yul\":8357:8375   */\n      0xffffffffffffffff\n        /* \"#utility.yul\":8349:8355   */\n      dup2\n        /* \"#utility.yul\":8346:8376   */\n      gt\n        /* \"#utility.yul\":8343:8460   */\n      iszero\n      tag_383\n      jumpi\n        /* \"#utility.yul\":8379:8458   */\n      tag_384\n      tag_225\n      jump\t// in\n    tag_384:\n        /* \"#utility.yul\":8343:8460   */\n    tag_383:\n        /* \"#utility.yul\":8484:8547   */\n      tag_385\n        /* \"#utility.yul\":8539:8546   */\n      dup5\n        /* \"#utility.yul\":8530:8536   */\n      dup3\n        /* \"#utility.yul\":8519:8528   */\n      dup6\n        /* \"#utility.yul\":8515:8537   */\n      add\n        /* \"#utility.yul\":8484:8547   */\n      tag_247\n      jump\t// in\n    tag_385:\n        /* \"#utility.yul\":8474:8547   */\n      swap2\n      pop\n        /* \"#utility.yul\":8270:8557   */\n      pop\n        /* \"#utility.yul\":8055:8564   */\n      swap3\n      swap2\n      pop\n      pop\n      jump\t// out\n        /* \"#utility.yul\":8570:9369   */\n    tag_59:\n        /* \"#utility.yul\":8657:8663   */\n      0x00\n        /* \"#utility.yul\":8665:8671   */\n      0x00\n        /* \"#utility.yul\":8673:8679   */\n      0x00\n        /* \"#utility.yul\":8722:8724   */\n      0x60\n        /* \"#utility.yul\":8710:8719   */\n      dup5\n        /* \"#utility.yul\":8701:8708   */\n      dup7\n        /* \"#utility.yul\":8697:8720   */\n      sub\n        /* \"#utility.yul\":8693:8725   */\n      slt\n        /* \"#utility.yul\":8690:8809   */\n      iszero\n      tag_387\n      jumpi\n        /* \"#utility.yul\":8728:8807   */\n      tag_388\n      tag_224\n      jump\t// in\n    tag_388:\n        /* \"#utility.yul\":8690:8809   */\n    tag_387:\n        /* \"#utility.yul\":8848:8849   */\n      0x00\n        /* \"#utility.yul\":8873:8926   */\n      tag_389\n        /* \"#utility.yul\":8918:8925   */\n      dup7\n        /* \"#utility.yul\":8909:8915   */\n      dup3\n        /* \"#utility.yul\":8898:8907   */\n      dup8\n        /* \"#utility.yul\":8894:8916   */\n      add\n        /* \"#utility.yul\":8873:8926   */\n      tag_251\n      jump\t// in\n    tag_389:\n        /* \"#utility.yul\":8863:8926   */\n      swap4\n      pop\n        /* \"#utility.yul\":8819:8936   */\n      pop\n        /* \"#utility.yul\":9003:9005   */\n      0x20\n        /* \"#utility.yul\":8992:9001   */\n      dup5\n        /* \"#utility.yul\":8988:9006   */\n      add\n        /* \"#utility.yul\":8975:9007   */\n      calldataload\n        /* \"#utility.yul\":9034:9052   */\n      0xffffffffffffffff\n        /* \"#utility.yul\":9026:9032   */\n      dup2\n        /* \"#utility.yul\":9023:9053   */\n      gt\n        /* \"#utility.yul\":9020:9137   */\n      iszero\n      tag_390\n      jumpi\n        /* \"#utility.yul\":9056:9135   */\n      tag_391\n      tag_225\n      jump\t// in\n    tag_391:\n        /* \"#utility.yul\":9020:9137   */\n    tag_390:\n        /* \"#utility.yul\":9161:9224   */\n      tag_392\n        /* \"#utility.yul\":9216:9223   */\n      dup7\n        /* \"#utility.yul\":9207:9213   */\n      dup3\n        /* \"#utility.yul\":9196:9205   */\n      dup8\n        /* \"#utility.yul\":9192:9214   */\n      add\n        /* \"#utility.yul\":9161:9224   */\n      tag_247\n      jump\t// in\n    tag_392:\n        /* \"#utility.yul\":9151:9224   */\n      swap3\n      pop\n        /* \"#utility.yul\":8946:9234   */\n      pop\n        /* \"#utility.yul\":9273:9275   */\n      0x40\n        /* \"#utility.yul\":9299:9352   */\n      tag_393\n        /* \"#utility.yul\":9344:9351   */\n      dup7\n        /* \"#utility.yul\":9335:9341   */\n      dup3\n        /* \"#utility.yul\":9324:9333   */\n      dup8\n        /* \"#utility.yul\":9320:9342   */\n      add\n        /* \"#utility.yul\":9299:9352   */\n      tag_228\n      jump\t// in\n    tag_393:\n        /* \"#utility.yul\":9289:9352   */\n      swap2\n      pop\n        /* \"#utility.yul\":9244:9362   */\n      pop\n        /* \"#utility.yul\":8570:9369   */\n      swap3\n      pop\n      swap3\n      pop\n      swap3\n      jump\t// out\n        /* \"#utility.yul\":9375:10029   */\n    tag_64:\n        /* \"#utility.yul\":9453:9459   */\n      0x00\n        /* \"#utility.yul\":9461:9467   */\n      0x00\n        /* \"#utility.yul\":9510:9512   */\n      0x40\n        /* \"#utility.yul\":9498:9507   */\n      dup4\n        /* \"#utility.yul\":9489:9496   */\n      dup6\n        /* \"#utility.yul\":9485:9508   */\n      sub\n        /* \"#utility.yul\":9481:9513   */\n      slt\n        /* \"#utility.yul\":9478:9597   */\n      iszero\n      tag_395\n      jumpi\n        /* \"#utility.yul\":9516:9595   */\n      tag_396\n      tag_224\n      jump\t// in\n    tag_396:\n        /* \"#utility.yul\":9478:9597   */\n    tag_395:\n        /* \"#utility.yul\":9664:9665   */\n      0x00\n        /* \"#utility.yul\":9653:9662   */\n      dup4\n        /* \"#utility.yul\":9649:9666   */\n      add\n        /* \"#utility.yul\":9636:9667   */\n      calldataload\n        /* \"#utility.yul\":9694:9712   */\n      0xffffffffffffffff\n        /* \"#utility.yul\":9686:9692   */\n      dup2\n        /* \"#utility.yul\":9683:9713   */\n      gt\n        /* \"#utility.yul\":9680:9797   */\n      iszero\n      tag_397\n      jumpi\n        /* \"#utility.yul\":9716:9795   */\n      tag_398\n      tag_225\n      jump\t// in\n    tag_398:\n        /* \"#utility.yul\":9680:9797   */\n    tag_397:\n        /* \"#utility.yul\":9821:9884   */\n      tag_399\n        /* \"#utility.yul\":9876:9883   */\n      dup6\n        /* \"#utility.yul\":9867:9873   */\n      dup3\n        /* \"#utility.yul\":9856:9865   */\n      dup7\n        /* \"#utility.yul\":9852:9874   */\n      add\n        /* \"#utility.yul\":9821:9884   */\n      tag_247\n      jump\t// in\n    tag_399:\n        /* \"#utility.yul\":9811:9884   */\n      swap3\n      pop\n        /* \"#utility.yul\":9607:9894   */\n      pop\n        /* \"#utility.yul\":9933:9935   */\n      0x20\n        /* \"#utility.yul\":9959:10012   */\n      tag_400\n        /* \"#utility.yul\":10004:10011   */\n      dup6\n        /* \"#utility.yul\":9995:10001   */\n      dup3\n        /* \"#utility.yul\":9984:9993   */\n      dup7\n        /* \"#utility.yul\":9980:10002   */\n      add\n        /* \"#utility.yul\":9959:10012   */\n      tag_228\n      jump\t// in\n    tag_400:\n        /* \"#utility.yul\":9949:10012   */\n      swap2\n      pop\n        /* \"#utility.yul\":9904:10022   */\n      pop\n        /* \"#utility.yul\":9375:10029   */\n      swap3\n      pop\n      swap3\n      swap1\n      pop\n      jump\t// out\n        /* \"#utility.yul\":10035:10348   */\n    tag_80:\n        /* \"#utility.yul\":10148:10152   */\n      0x00\n        /* \"#utility.yul\":10186:10188   */\n      0x20\n        /* \"#utility.yul\":10175:10184   */\n      dup3\n        /* \"#utility.yul\":10171:10189   */\n      add\n        /* \"#utility.yul\":10163:10189   */\n      swap1\n      pop\n        /* \"#utility.yul\":10235:10244   */\n      dup2\n        /* \"#utility.yul\":10229:10233   */\n      dup2\n        /* \"#utility.yul\":10225:10245   */\n      sub\n        /* \"#utility.yul\":10221:10222   */\n      0x00\n        /* \"#utility.yul\":10210:10219   */\n      dup4\n        /* \"#utility.yul\":10206:10223   */\n      add\n        /* \"#utility.yul\":10199:10246   */\n      mstore\n        /* \"#utility.yul\":10263:10341   */\n      tag_402\n        /* \"#utility.yul\":10336:10340   */\n      dup2\n        /* \"#utility.yul\":10327:10333   */\n      dup5\n        /* \"#utility.yul\":10263:10341   */\n      tag_236\n      jump\t// in\n    tag_402:\n        /* \"#utility.yul\":10255:10341   */\n      swap1\n      pop\n        /* \"#utility.yul\":10035:10348   */\n      swap3\n      swap2\n      pop\n      pop\n      jump\t// out\n        /* \"#utility.yul\":10354:10576   */\n    tag_85:\n        /* \"#utility.yul\":10447:10451   */\n      0x00\n        /* \"#utility.yul\":10485:10487   */\n      0x20\n        /* \"#utility.yul\":10474:10483   */\n      dup3\n        /* \"#utility.yul\":10470:10488   */\n      add\n        /* \"#utility.yul\":10462:10488   */\n      swap1\n      pop\n        /* \"#utility.yul\":10498:10569   */\n      tag_404\n        /* \"#utility.yul\":10566:10567   */\n      0x00\n        /* \"#utility.yul\":10555:10564   */\n      dup4\n        /* \"#utility.yul\":10551:10568   */\n      add\n        /* \"#utility.yul\":10542:10548   */\n      dup5\n        /* \"#utility.yul\":10498:10569   */\n      tag_231\n      jump\t// in\n    tag_404:\n        /* \"#utility.yul\":10354:10576   */\n      swap3\n      swap2\n      pop\n      pop\n      jump\t// out\n        /* \"#utility.yul\":10582:10718   */\n    tag_252:\n        /* \"#utility.yul\":10671:10677   */\n      0x00\n        /* \"#utility.yul\":10705:10710   */\n      dup2\n        /* \"#utility.yul\":10699:10711   */\n      mload\n        /* \"#utility.yul\":10689:10711   */\n      swap1\n      pop\n        /* \"#utility.yul\":10582:10718   */\n      swap2\n      swap1\n      pop\n      jump\t// out\n        /* \"#utility.yul\":10724:10930   */\n    tag_253:\n        /* \"#utility.yul\":10845:10856   */\n      0x00\n        /* \"#utility.yul\":10879:10885   */\n      dup3\n        /* \"#utility.yul\":10874:10877   */\n      dup3\n        /* \"#utility.yul\":10867:10886   */\n      mstore\n        /* \"#utility.yul\":10919:10923   */\n      0x20\n        /* \"#utility.yul\":10914:10917   */\n      dup3\n        /* \"#utility.yul\":10910:10924   */\n      add\n        /* \"#utility.yul\":10895:10924   */\n      swap1\n      pop\n        /* \"#utility.yul\":10724:10930   */\n      swap3\n      swap2\n      pop\n      pop\n      jump\t// out\n        /* \"#utility.yul\":10936:11090   */\n    tag_254:\n        /* \"#utility.yul\":11025:11029   */\n      0x00\n        /* \"#utility.yul\":11048:11051   */\n      dup2\n        /* \"#utility.yul\":11040:11051   */\n      swap1\n      pop\n        /* \"#utility.yul\":11078:11082   */\n      0x20\n        /* \"#utility.yul\":11073:11076   */\n      dup3\n        /* \"#utility.yul\":11069:11083   */\n      add\n        /* \"#utility.yul\":11061:11083   */\n      swap1\n      pop\n        /* \"#utility.yul\":10936:11090   */\n      swap2\n      swap1\n      pop\n      jump\t// out\n        /* \"#utility.yul\":11096:11204   */\n    tag_255:\n        /* \"#utility.yul\":11173:11197   */\n      tag_409\n        /* \"#utility.yul\":11191:11196   */\n      dup2\n        /* \"#utility.yul\":11173:11197   */\n      tag_230\n      jump\t// in\n    tag_409:\n        /* \"#utility.yul\":11168:11171   */\n      dup3\n        /* \"#utility.yul\":11161:11198   */\n      mstore\n        /* \"#utility.yul\":11096:11204   */\n      pop\n      pop\n      jump\t// out\n        /* \"#utility.yul\":11210:11369   */\n    tag_256:\n        /* \"#utility.yul\":11284:11295   */\n      0x00\n        /* \"#utility.yul\":11318:11324   */\n      dup3\n        /* \"#utility.yul\":11313:11316   */\n      dup3\n        /* \"#utility.yul\":11306:11325   */\n      mstore\n        /* \"#utility.yul\":11358:11362   */\n      0x20\n        /* \"#utility.yul\":11353:11356   */\n      dup3\n        /* \"#utility.yul\":11349:11363   */\n      add\n        /* \"#utility.yul\":11334:11363   */\n      swap1\n      pop\n        /* \"#utility.yul\":11210:11369   */\n      swap3\n      swap2\n      pop\n      pop\n      jump\t// out\n        /* \"#utility.yul\":11375:11732   */\n    tag_257:\n        /* \"#utility.yul\":11453:11456   */\n      0x00\n        /* \"#utility.yul\":11481:11520   */\n      tag_412\n        /* \"#utility.yul\":11514:11519   */\n      dup3\n        /* \"#utility.yul\":11481:11520   */\n      tag_232\n      jump\t// in\n    tag_412:\n        /* \"#utility.yul\":11536:11597   */\n      tag_413\n        /* \"#utility.yul\":11590:11596   */\n      dup2\n        /* \"#utility.yul\":11585:11588   */\n      dup6\n        /* \"#utility.yul\":11536:11597   */\n      tag_256\n      jump\t// in\n    tag_413:\n        /* \"#utility.yul\":11529:11597   */\n      swap4\n      pop\n        /* \"#utility.yul\":11606:11671   */\n      tag_414\n        /* \"#utility.yul\":11664:11670   */\n      dup2\n        /* \"#utility.yul\":11659:11662   */\n      dup6\n        /* \"#utility.yul\":11652:11656   */\n      0x20\n        /* \"#utility.yul\":11645:11650   */\n      dup7\n        /* \"#utility.yul\":11641:11657   */\n      add\n        /* \"#utility.yul\":11606:11671   */\n      tag_234\n      jump\t// in\n    tag_414:\n        /* \"#utility.yul\":11696:11725   */\n      tag_415\n        /* \"#utility.yul\":11718:11724   */\n      dup2\n        /* \"#utility.yul\":11696:11725   */\n      tag_235\n      jump\t// in\n    tag_415:\n        /* \"#utility.yul\":11691:11694   */\n      dup5\n        /* \"#utility.yul\":11687:11726   */\n      add\n        /* \"#utility.yul\":11680:11726   */\n      swap2\n      pop\n        /* \"#utility.yul\":11457:11732   */\n      pop\n        /* \"#utility.yul\":11375:11732   */\n      swap3\n      swap2\n      pop\n      pop\n      jump\t// out\n        /* \"#utility.yul\":11738:11846   */\n    tag_258:\n        /* \"#utility.yul\":11815:11839   */\n      tag_417\n        /* \"#utility.yul\":11833:11838   */\n      dup2\n        /* \"#utility.yul\":11815:11839   */\n      tag_226\n      jump\t// in\n    tag_417:\n        /* \"#utility.yul\":11810:11813   */\n      dup3\n        /* \"#utility.yul\":11803:11840   */\n      mstore\n        /* \"#utility.yul\":11738:11846   */\n      pop\n      pop\n      jump\t// out\n        /* \"#utility.yul\":11852:11951   */\n    tag_259:\n        /* \"#utility.yul\":11923:11944   */\n      tag_419\n        /* \"#utility.yul\":11938:11943   */\n      dup2\n        /* \"#utility.yul\":11923:11944   */\n      tag_238\n      jump\t// in\n    tag_419:\n        /* \"#utility.yul\":11918:11921   */\n      dup3\n        /* \"#utility.yul\":11911:11945   */\n      mstore\n        /* \"#utility.yul\":11852:11951   */\n      pop\n      pop\n      jump\t// out\n        /* \"#utility.yul\":12031:13572   */\n    tag_260:\n        /* \"#utility.yul\":12134:12137   */\n      0x00\n        /* \"#utility.yul\":12170:12174   */\n      0xe0\n        /* \"#utility.yul\":12165:12168   */\n      dup4\n        /* \"#utility.yul\":12161:12175   */\n      add\n        /* \"#utility.yul\":12258:12262   */\n      0x00\n        /* \"#utility.yul\":12251:12256   */\n      dup4\n        /* \"#utility.yul\":12247:12263   */\n      add\n        /* \"#utility.yul\":12241:12264   */\n      mload\n        /* \"#utility.yul\":12277:12340   */\n      tag_421\n        /* \"#utility.yul\":12334:12338   */\n      0x00\n        /* \"#utility.yul\":12329:12332   */\n      dup7\n        /* \"#utility.yul\":12325:12339   */\n      add\n        /* \"#utility.yul\":12311:12323   */\n      dup3\n        /* \"#utility.yul\":12277:12340   */\n      tag_255\n      jump\t// in\n    tag_421:\n        /* \"#utility.yul\":12185:12350   */\n      pop\n        /* \"#utility.yul\":12439:12443   */\n      0x20\n        /* \"#utility.yul\":12432:12437   */\n      dup4\n        /* \"#utility.yul\":12428:12444   */\n      add\n        /* \"#utility.yul\":12422:12445   */\n      mload\n        /* \"#utility.yul\":12492:12495   */\n      dup5\n        /* \"#utility.yul\":12486:12490   */\n      dup3\n        /* \"#utility.yul\":12482:12496   */\n      sub\n        /* \"#utility.yul\":12475:12479   */\n      0x20\n        /* \"#utility.yul\":12470:12473   */\n      dup7\n        /* \"#utility.yul\":12466:12480   */\n      add\n        /* \"#utility.yul\":12459:12497   */\n      mstore\n        /* \"#utility.yul\":12518:12591   */\n      tag_422\n        /* \"#utility.yul\":12586:12590   */\n      dup3\n        /* \"#utility.yul\":12572:12584   */\n      dup3\n        /* \"#utility.yul\":12518:12591   */\n      tag_257\n      jump\t// in\n    tag_422:\n        /* \"#utility.yul\":12510:12591   */\n      swap2\n      pop\n        /* \"#utility.yul\":12360:12602   */\n      pop\n        /* \"#utility.yul\":12685:12689   */\n      0x40\n        /* \"#utility.yul\":12678:12683   */\n      dup4\n        /* \"#utility.yul\":12674:12690   */\n      add\n        /* \"#utility.yul\":12668:12691   */\n      mload\n        /* \"#utility.yul\":12704:12767   */\n      tag_423\n        /* \"#utility.yul\":12761:12765   */\n      0x40\n        /* \"#utility.yul\":12756:12759   */\n      dup7\n        /* \"#utility.yul\":12752:12766   */\n      add\n        /* \"#utility.yul\":12738:12750   */\n      dup3\n        /* \"#utility.yul\":12704:12767   */\n      tag_258\n      jump\t// in\n    tag_423:\n        /* \"#utility.yul\":12612:12777   */\n      pop\n        /* \"#utility.yul\":12859:12863   */\n      0x60\n        /* \"#utility.yul\":12852:12857   */\n      dup4\n        /* \"#utility.yul\":12848:12864   */\n      add\n        /* \"#utility.yul\":12842:12865   */\n      mload\n        /* \"#utility.yul\":12878:12941   */\n      tag_424\n        /* \"#utility.yul\":12935:12939   */\n      0x60\n        /* \"#utility.yul\":12930:12933   */\n      dup7\n        /* \"#utility.yul\":12926:12940   */\n      add\n        /* \"#utility.yul\":12912:12924   */\n      dup3\n        /* \"#utility.yul\":12878:12941   */\n      tag_258\n      jump\t// in\n    tag_424:\n        /* \"#utility.yul\":12787:12951   */\n      pop\n        /* \"#utility.yul\":13034:13038   */\n      0x80\n        /* \"#utility.yul\":13027:13032   */\n      dup4\n        /* \"#utility.yul\":13023:13039   */\n      add\n        /* \"#utility.yul\":13017:13040   */\n      mload\n        /* \"#utility.yul\":13087:13090   */\n      dup5\n        /* \"#utility.yul\":13081:13085   */\n      dup3\n        /* \"#utility.yul\":13077:13091   */\n      sub\n        /* \"#utility.yul\":13070:13074   */\n      0x80\n        /* \"#utility.yul\":13065:13068   */\n      dup7\n        /* \"#utility.yul\":13061:13075   */\n      add\n        /* \"#utility.yul\":13054:13092   */\n      mstore\n        /* \"#utility.yul\":13113:13186   */\n      tag_425\n        /* \"#utility.yul\":13181:13185   */\n      dup3\n        /* \"#utility.yul\":13167:13179   */\n      dup3\n        /* \"#utility.yul\":13113:13186   */\n      tag_257\n      jump\t// in\n    tag_425:\n        /* \"#utility.yul\":13105:13186   */\n      swap2\n      pop\n        /* \"#utility.yul\":12961:13197   */\n      pop\n        /* \"#utility.yul\":13284:13288   */\n      0xa0\n        /* \"#utility.yul\":13277:13282   */\n      dup4\n        /* \"#utility.yul\":13273:13289   */\n      add\n        /* \"#utility.yul\":13267:13290   */\n      mload\n        /* \"#utility.yul\":13303:13360   */\n      tag_426\n        /* \"#utility.yul\":13354:13358   */\n      0xa0\n        /* \"#utility.yul\":13349:13352   */\n      dup7\n        /* \"#utility.yul\":13345:13359   */\n      add\n        /* \"#utility.yul\":13331:13343   */\n      dup3\n        /* \"#utility.yul\":13303:13360   */\n      tag_259\n      jump\t// in\n    tag_426:\n        /* \"#utility.yul\":13207:13370   */\n      pop\n        /* \"#utility.yul\":13459:13463   */\n      0xc0\n        /* \"#utility.yul\":13452:13457   */\n      dup4\n        /* \"#utility.yul\":13448:13464   */\n      add\n        /* \"#utility.yul\":13442:13465   */\n      mload\n        /* \"#utility.yul\":13478:13535   */\n      tag_427\n        /* \"#utility.yul\":13529:13533   */\n      0xc0\n        /* \"#utility.yul\":13524:13527   */\n      dup7\n        /* \"#utility.yul\":13520:13534   */\n      add\n        /* \"#utility.yul\":13506:13518   */\n      dup3\n        /* \"#utility.yul\":13478:13535   */\n      tag_259\n      jump\t// in\n    tag_427:\n        /* \"#utility.yul\":13380:13545   */\n      pop\n        /* \"#utility.yul\":13562:13566   */\n      dup1\n        /* \"#utility.yul\":13555:13566   */\n      swap2\n      pop\n        /* \"#utility.yul\":12139:13572   */\n      pop\n        /* \"#utility.yul\":12031:13572   */\n      swap3\n      swap2\n      pop\n      pop\n      jump\t// out\n        /* \"#utility.yul\":13578:13822   */\n    tag_261:\n        /* \"#utility.yul\":13691:13701   */\n      0x00\n        /* \"#utility.yul\":13726:13816   */\n      tag_429\n        /* \"#utility.yul\":13812:13815   */\n      dup4\n        /* \"#utility.yul\":13804:13810   */\n      dup4\n        /* \"#utility.yul\":13726:13816   */\n      tag_260\n      jump\t// in\n    tag_429:\n        /* \"#utility.yul\":13712:13816   */\n      swap1\n      pop\n        /* \"#utility.yul\":13578:13822   */\n      swap3\n      swap2\n      pop\n      pop\n      jump\t// out\n        /* \"#utility.yul\":13828:13963   */\n    tag_262:\n        /* \"#utility.yul\":13920:13924   */\n      0x00\n        /* \"#utility.yul\":13952:13956   */\n      0x20\n        /* \"#utility.yul\":13947:13950   */\n      dup3\n        /* \"#utility.yul\":13943:13957   */\n      add\n        /* \"#utility.yul\":13935:13957   */\n      swap1\n      pop\n        /* \"#utility.yul\":13828:13963   */\n      swap2\n      swap1\n      pop\n      jump\t// out\n        /* \"#utility.yul\":14047:15134   */\n    tag_263:\n        /* \"#utility.yul\":14210:14213   */\n      0x00\n        /* \"#utility.yul\":14239:14315   */\n      tag_432\n        /* \"#utility.yul\":14309:14314   */\n      dup3\n        /* \"#utility.yul\":14239:14315   */\n      tag_252\n      jump\t// in\n    tag_432:\n        /* \"#utility.yul\":14331:14439   */\n      tag_433\n        /* \"#utility.yul\":14432:14438   */\n      dup2\n        /* \"#utility.yul\":14427:14430   */\n      dup6\n        /* \"#utility.yul\":14331:14439   */\n      tag_253\n      jump\t// in\n    tag_433:\n        /* \"#utility.yul\":14324:14439   */\n      swap4\n      pop\n        /* \"#utility.yul\":14465:14468   */\n      dup4\n        /* \"#utility.yul\":14510:14514   */\n      0x20\n        /* \"#utility.yul\":14502:14508   */\n      dup3\n        /* \"#utility.yul\":14498:14515   */\n      mul\n        /* \"#utility.yul\":14493:14496   */\n      dup6\n        /* \"#utility.yul\":14489:14516   */\n      add\n        /* \"#utility.yul\":14540:14618   */\n      tag_434\n        /* \"#utility.yul\":14612:14617   */\n      dup6\n        /* \"#utility.yul\":14540:14618   */\n      tag_254\n      jump\t// in\n    tag_434:\n        /* \"#utility.yul\":14641:14648   */\n      dup1\n        /* \"#utility.yul\":14672:14673   */\n      0x00\n        /* \"#utility.yul\":14657:15089   */\n    tag_435:\n        /* \"#utility.yul\":14682:14688   */\n      dup6\n        /* \"#utility.yul\":14679:14680   */\n      dup2\n        /* \"#utility.yul\":14676:14689   */\n      lt\n        /* \"#utility.yul\":14657:15089   */\n      iszero\n      tag_437\n      jumpi\n        /* \"#utility.yul\":14753:14762   */\n      dup5\n        /* \"#utility.yul\":14747:14751   */\n      dup5\n        /* \"#utility.yul\":14743:14763   */\n      sub\n        /* \"#utility.yul\":14738:14741   */\n      dup10\n        /* \"#utility.yul\":14731:14764   */\n      mstore\n        /* \"#utility.yul\":14804:14810   */\n      dup2\n        /* \"#utility.yul\":14798:14811   */\n      mload\n        /* \"#utility.yul\":14832:14940   */\n      tag_438\n        /* \"#utility.yul\":14935:14939   */\n      dup6\n        /* \"#utility.yul\":14920:14933   */\n      dup3\n        /* \"#utility.yul\":14832:14940   */\n      tag_261\n      jump\t// in\n    tag_438:\n        /* \"#utility.yul\":14824:14940   */\n      swap5\n      pop\n        /* \"#utility.yul\":14963:15045   */\n      tag_439\n        /* \"#utility.yul\":15038:15044   */\n      dup4\n        /* \"#utility.yul\":14963:15045   */\n      tag_262\n      jump\t// in\n    tag_439:\n        /* \"#utility.yul\":14953:15045   */\n      swap3\n      pop\n        /* \"#utility.yul\":15074:15078   */\n      0x20\n        /* \"#utility.yul\":15069:15072   */\n      dup11\n        /* \"#utility.yul\":15065:15079   */\n      add\n        /* \"#utility.yul\":15058:15079   */\n      swap10\n      pop\n        /* \"#utility.yul\":14717:15089   */\n      pop\n        /* \"#utility.yul\":14704:14705   */\n      0x01\n        /* \"#utility.yul\":14701:14702   */\n      dup2\n        /* \"#utility.yul\":14697:14706   */\n      add\n        /* \"#utility.yul\":14692:14706   */\n      swap1\n      pop\n        /* \"#utility.yul\":14657:15089   */\n      jump(tag_435)\n    tag_437:\n        /* \"#utility.yul\":14661:14675   */\n      pop\n        /* \"#utility.yul\":15105:15109   */\n      dup3\n        /* \"#utility.yul\":15098:15109   */\n      swap8\n      pop\n        /* \"#utility.yul\":15125:15128   */\n      dup8\n        /* \"#utility.yul\":15118:15128   */\n      swap6\n      pop\n        /* \"#utility.yul\":14215:15134   */\n      pop\n      pop\n      pop\n      pop\n      pop\n        /* \"#utility.yul\":14047:15134   */\n      swap3\n      swap2\n      pop\n      pop\n      jump\t// out\n        /* \"#utility.yul\":15140:15601   */\n    tag_91:\n        /* \"#utility.yul\":15327:15331   */\n      0x00\n        /* \"#utility.yul\":15365:15367   */\n      0x20\n        /* \"#utility.yul\":15354:15363   */\n      dup3\n        /* \"#utility.yul\":15350:15368   */\n      add\n        /* \"#utility.yul\":15342:15368   */\n      swap1\n      pop\n        /* \"#utility.yul\":15414:15423   */\n      dup2\n        /* \"#utility.yul\":15408:15412   */\n      dup2\n        /* \"#utility.yul\":15404:15424   */\n      sub\n        /* \"#utility.yul\":15400:15401   */\n      0x00\n        /* \"#utility.yul\":15389:15398   */\n      dup4\n        /* \"#utility.yul\":15385:15402   */\n      add\n        /* \"#utility.yul\":15378:15425   */\n      mstore\n        /* \"#utility.yul\":15442:15594   */\n      tag_441\n        /* \"#utility.yul\":15589:15593   */\n      dup2\n        /* \"#utility.yul\":15580:15586   */\n      dup5\n        /* \"#utility.yul\":15442:15594   */\n      tag_263\n      jump\t// in\n    tag_441:\n        /* \"#utility.yul\":15434:15594   */\n      swap1\n      pop\n        /* \"#utility.yul\":15140:15601   */\n      swap3\n      swap2\n      pop\n      pop\n      jump\t// out\n        /* \"#utility.yul\":15607:15787   */\n    tag_264:\n        /* \"#utility.yul\":15655:15732   */\n      0x4e487b7100000000000000000000000000000000000000000000000000000000\n        /* \"#utility.yul\":15652:15653   */\n      0x00\n        /* \"#utility.yul\":15645:15733   */\n      mstore\n        /* \"#utility.yul\":15752:15756   */\n      0x22\n        /* \"#utility.yul\":15749:15750   */\n      0x04\n        /* \"#utility.yul\":15742:15757   */\n      mstore\n        /* \"#utility.yul\":15776:15780   */\n      0x24\n        /* \"#utility.yul\":15773:15774   */\n      0x00\n        /* \"#utility.yul\":15766:15781   */\n      revert\n        /* \"#utility.yul\":15793:16113   */\n    tag_101:\n        /* \"#utility.yul\":15837:15843   */\n      0x00\n        /* \"#utility.yul\":15874:15875   */\n      0x02\n        /* \"#utility.yul\":15868:15872   */\n      dup3\n        /* \"#utility.yul\":15864:15876   */\n      div\n        /* \"#utility.yul\":15854:15876   */\n      swap1\n      pop\n        /* \"#utility.yul\":15921:15922   */\n      0x01\n        /* \"#utility.yul\":15915:15919   */\n      dup3\n        /* \"#utility.yul\":15911:15923   */\n      and\n        /* \"#utility.yul\":15942:15960   */\n      dup1\n        /* \"#utility.yul\":15932:16013   */\n      tag_444\n      jumpi\n        /* \"#utility.yul\":15998:16002   */\n      0x7f\n        /* \"#utility.yul\":15990:15996   */\n      dup3\n        /* \"#utility.yul\":15986:16003   */\n      and\n        /* \"#utility.yul\":15976:16003   */\n      swap2\n      pop\n        /* \"#utility.yul\":15932:16013   */\n    tag_444:\n        /* \"#utility.yul\":16060:16062   */\n      0x20\n        /* \"#utility.yul\":16052:16058   */\n      dup3\n        /* \"#utility.yul\":16049:16063   */\n      lt\n        /* \"#utility.yul\":16029:16047   */\n      dup2\n        /* \"#utility.yul\":16026:16064   */\n      sub\n        /* \"#utility.yul\":16023:16107   */\n      tag_445\n      jumpi\n        /* \"#utility.yul\":16079:16097   */\n      tag_446\n      tag_264\n      jump\t// in\n    tag_446:\n        /* \"#utility.yul\":16023:16107   */\n    tag_445:\n        /* \"#utility.yul\":15844:16113   */\n      pop\n        /* \"#utility.yul\":15793:16113   */\n      swap2\n      swap1\n      pop\n      jump\t// out\n        /* \"#utility.yul\":16119:16299   */\n    tag_265:\n        /* \"#utility.yul\":16167:16244   */\n      0x4e487b7100000000000000000000000000000000000000000000000000000000\n        /* \"#utility.yul\":16164:16165   */\n      0x00\n        /* \"#utility.yul\":16157:16245   */\n      mstore\n        /* \"#utility.yul\":16264:16268   */\n      0x11\n        /* \"#utility.yul\":16261:16262   */\n      0x04\n        /* \"#utility.yul\":16254:16269   */\n      mstore\n        /* \"#utility.yul\":16288:16292   */\n      0x24\n        /* \"#utility.yul\":16285:16286   */\n      0x00\n        /* \"#utility.yul\":16278:16293   */\n      revert\n        /* \"#utility.yul\":16305:16499   */\n    tag_113:\n        /* \"#utility.yul\":16345:16349   */\n      0x00\n        /* \"#utility.yul\":16365:16385   */\n      tag_449\n        /* \"#utility.yul\":16383:16384   */\n      dup3\n        /* \"#utility.yul\":16365:16385   */\n      tag_226\n      jump\t// in\n    tag_449:\n        /* \"#utility.yul\":16360:16385   */\n      swap2\n      pop\n        /* \"#utility.yul\":16399:16419   */\n      tag_450\n        /* \"#utility.yul\":16417:16418   */\n      dup4\n        /* \"#utility.yul\":16399:16419   */\n      tag_226\n      jump\t// in\n    tag_450:\n        /* \"#utility.yul\":16394:16419   */\n      swap3\n      pop\n        /* \"#utility.yul\":16443:16444   */\n      dup3\n        /* \"#utility.yul\":16440:16441   */\n      dup3\n        /* \"#utility.yul\":16436:16445   */\n      sub\n        /* \"#utility.yul\":16428:16445   */\n      swap1\n      pop\n        /* \"#utility.yul\":16467:16468   */\n      dup2\n        /* \"#utility.yul\":16461:16465   */\n      dup2\n        /* \"#utility.yul\":16458:16469   */\n      gt\n        /* \"#utility.yul\":16455:16492   */\n      iszero\n      tag_451\n      jumpi\n        /* \"#utility.yul\":16472:16490   */\n      tag_452\n      tag_265\n      jump\t// in\n    tag_452:\n        /* \"#utility.yul\":16455:16492   */\n    tag_451:\n        /* \"#utility.yul\":16305:16499   */\n      swap3\n      swap2\n      pop\n      pop\n      jump\t// out\n        /* \"#utility.yul\":16505:16685   */\n    tag_116:\n        /* \"#utility.yul\":16553:16630   */\n      0x4e487b7100000000000000000000000000000000000000000000000000000000\n        /* \"#utility.yul\":16550:16551   */\n      0x00\n        /* \"#utility.yul\":16543:16631   */\n      mstore\n        /* \"#utility.yul\":16650:16654   */\n      0x32\n        /* \"#utility.yul\":16647:16648   */\n      0x04\n        /* \"#utility.yul\":16640:16655   */\n      mstore\n        /* \"#utility.yul\":16674:16678   */\n      0x24\n        /* \"#utility.yul\":16671:16672   */\n      0x00\n        /* \"#utility.yul\":16664:16679   */\n      revert\n        /* \"#utility.yul\":16691:16839   */\n    tag_266:\n        /* \"#utility.yul\":16793:16804   */\n      0x00\n        /* \"#utility.yul\":16830:16833   */\n      dup2\n        /* \"#utility.yul\":16815:16833   */\n      swap1\n      pop\n        /* \"#utility.yul\":16691:16839   */\n      swap3\n      swap2\n      pop\n      pop\n      jump\t// out\n        /* \"#utility.yul\":16845:17235   */\n    tag_267:\n        /* \"#utility.yul\":16951:16954   */\n      0x00\n        /* \"#utility.yul\":16979:17018   */\n      tag_456\n        /* \"#utility.yul\":17012:17017   */\n      dup3\n        /* \"#utility.yul\":16979:17018   */\n      tag_232\n      jump\t// in\n    tag_456:\n        /* \"#utility.yul\":17034:17123   */\n      tag_457\n        /* \"#utility.yul\":17116:17122   */\n      dup2\n        /* \"#utility.yul\":17111:17114   */\n      dup6\n        /* \"#utility.yul\":17034:17123   */\n      tag_266\n      jump\t// in\n    tag_457:\n        /* \"#utility.yul\":17027:17123   */\n      swap4\n      pop\n        /* \"#utility.yul\":17132:17197   */\n      tag_458\n        /* \"#utility.yul\":17190:17196   */\n      dup2\n        /* \"#utility.yul\":17185:17188   */\n      dup6\n        /* \"#utility.yul\":17178:17182   */\n      0x20\n        /* \"#utility.yul\":17171:17176   */\n      dup7\n        /* \"#utility.yul\":17167:17183   */\n      add\n        /* \"#utility.yul\":17132:17197   */\n      tag_234\n      jump\t// in\n    tag_458:\n        /* \"#utility.yul\":17222:17228   */\n      dup1\n        /* \"#utility.yul\":17217:17220   */\n      dup5\n        /* \"#utility.yul\":17213:17229   */\n      add\n        /* \"#utility.yul\":17206:17229   */\n      swap2\n      pop\n        /* \"#utility.yul\":16955:17235   */\n      pop\n        /* \"#utility.yul\":16845:17235   */\n      swap3\n      swap2\n      pop\n      pop\n      jump\t// out\n        /* \"#utility.yul\":17241:17516   */\n    tag_123:\n        /* \"#utility.yul\":17373:17376   */\n      0x00\n        /* \"#utility.yul\":17395:17490   */\n      tag_460\n        /* \"#utility.yul\":17486:17489   */\n      dup3\n        /* \"#utility.yul\":17477:17483   */\n      dup5\n        /* \"#utility.yul\":17395:17490   */\n      tag_267\n      jump\t// in\n    tag_460:\n        /* \"#utility.yul\":17388:17490   */\n      swap2\n      pop\n        /* \"#utility.yul\":17507:17510   */\n      dup2\n        /* \"#utility.yul\":17500:17510   */\n      swap1\n      pop\n        /* \"#utility.yul\":17241:17516   */\n      swap3\n      swap2\n      pop\n      pop\n      jump\t// out\n        /* \"#utility.yul\":17522:17932   */\n    tag_128:\n        /* \"#utility.yul\":17562:17569   */\n      0x00\n        /* \"#utility.yul\":17585:17605   */\n      tag_462\n        /* \"#utility.yul\":17603:17604   */\n      dup3\n        /* \"#utility.yul\":17585:17605   */\n      tag_226\n      jump\t// in\n    tag_462:\n        /* \"#utility.yul\":17580:17605   */\n      swap2\n      pop\n        /* \"#utility.yul\":17619:17639   */\n      tag_463\n        /* \"#utility.yul\":17637:17638   */\n      dup4\n        /* \"#utility.yul\":17619:17639   */\n      tag_226\n      jump\t// in\n    tag_463:\n        /* \"#utility.yul\":17614:17639   */\n      swap3\n      pop\n        /* \"#utility.yul\":17674:17675   */\n      dup3\n        /* \"#utility.yul\":17671:17672   */\n      dup3\n        /* \"#utility.yul\":17667:17676   */\n      mul\n        /* \"#utility.yul\":17696:17726   */\n      tag_464\n        /* \"#utility.yul\":17714:17725   */\n      dup2\n        /* \"#utility.yul\":17696:17726   */\n      tag_226\n      jump\t// in\n    tag_464:\n        /* \"#utility.yul\":17685:17726   */\n      swap2\n      pop\n        /* \"#utility.yul\":17875:17876   */\n      dup3\n        /* \"#utility.yul\":17866:17873   */\n      dup3\n        /* \"#utility.yul\":17862:17877   */\n      div\n        /* \"#utility.yul\":17859:17860   */\n      dup5\n        /* \"#utility.yul\":17856:17878   */\n      eq\n        /* \"#utility.yul\":17836:17837   */\n      dup4\n        /* \"#utility.yul\":17829:17838   */\n      iszero\n        /* \"#utility.yul\":17809:17892   */\n      or\n        /* \"#utility.yul\":17786:17925   */\n      tag_465\n      jumpi\n        /* \"#utility.yul\":17905:17923   */\n      tag_466\n      tag_265\n      jump\t// in\n    tag_466:\n        /* \"#utility.yul\":17786:17925   */\n    tag_465:\n        /* \"#utility.yul\":17570:17932   */\n      pop\n        /* \"#utility.yul\":17522:17932   */\n      swap3\n      swap2\n      pop\n      pop\n      jump\t// out\n        /* \"#utility.yul\":17938:18118   */\n    tag_268:\n        /* \"#utility.yul\":17986:18063   */\n      0x4e487b7100000000000000000000000000000000000000000000000000000000\n        /* \"#utility.yul\":17983:17984   */\n      0x00\n        /* \"#utility.yul\":17976:18064   */\n      mstore\n        /* \"#utility.yul\":18083:18087   */\n      0x12\n        /* \"#utility.yul\":18080:18081   */\n      0x04\n        /* \"#utility.yul\":18073:18088   */\n      mstore\n        /* \"#utility.yul\":18107:18111   */\n      0x24\n        /* \"#utility.yul\":18104:18105   */\n      0x00\n        /* \"#utility.yul\":18097:18112   */\n      revert\n        /* \"#utility.yul\":18124:18309   */\n    tag_133:\n        /* \"#utility.yul\":18164:18165   */\n      0x00\n        /* \"#utility.yul\":18181:18201   */\n      tag_469\n        /* \"#utility.yul\":18199:18200   */\n      dup3\n        /* \"#utility.yul\":18181:18201   */\n      tag_226\n      jump\t// in\n    tag_469:\n        /* \"#utility.yul\":18176:18201   */\n      swap2\n      pop\n        /* \"#utility.yul\":18215:18235   */\n      tag_470\n        /* \"#utility.yul\":18233:18234   */\n      dup4\n        /* \"#utility.yul\":18215:18235   */\n      tag_226\n      jump\t// in\n    tag_470:\n        /* \"#utility.yul\":18210:18235   */\n      swap3\n      pop\n        /* \"#utility.yul\":18254:18255   */\n      dup3\n        /* \"#utility.yul\":18244:18279   */\n      tag_471\n      jumpi\n        /* \"#utility.yul\":18259:18277   */\n      tag_472\n      tag_268\n      jump\t// in\n    tag_472:\n        /* \"#utility.yul\":18244:18279   */\n    tag_471:\n        /* \"#utility.yul\":18301:18302   */\n      dup3\n        /* \"#utility.yul\":18298:18299   */\n      dup3\n        /* \"#utility.yul\":18294:18303   */\n      div\n        /* \"#utility.yul\":18289:18303   */\n      swap1\n      pop\n        /* \"#utility.yul\":18124:18309   */\n      swap3\n      swap2\n      pop\n      pop\n      jump\t// out\n        /* \"#utility.yul\":18315:18456   */\n    tag_269:\n        /* \"#utility.yul\":18364:18368   */\n      0x00\n        /* \"#utility.yul\":18387:18390   */\n      dup2\n        /* \"#utility.yul\":18379:18390   */\n      swap1\n      pop\n        /* \"#utility.yul\":18410:18413   */\n      dup2\n        /* \"#utility.yul\":18407:18408   */\n      0x00\n        /* \"#utility.yul\":18400:18414   */\n      mstore\n        /* \"#utility.yul\":18444:18448   */\n      0x20\n        /* \"#utility.yul\":18441:18442   */\n      0x00\n        /* \"#utility.yul\":18431:18449   */\n      keccak256\n        /* \"#utility.yul\":18423:18449   */\n      swap1\n      pop\n        /* \"#utility.yul\":18315:18456   */\n      swap2\n      swap1\n      pop\n      jump\t// out\n        /* \"#utility.yul\":18462:18555   */\n    tag_270:\n        /* \"#utility.yul\":18499:18505   */\n      0x00\n        /* \"#utility.yul\":18546:18548   */\n      0x20\n        /* \"#utility.yul\":18541:18543   */\n      0x1f\n        /* \"#utility.yul\":18534:18539   */\n      dup4\n        /* \"#utility.yul\":18530:18544   */\n      add\n        /* \"#utility.yul\":18526:18549   */\n      div\n        /* \"#utility.yul\":18516:18549   */\n      swap1\n      pop\n        /* \"#utility.yul\":18462:18555   */\n      swap2\n      swap1\n      pop\n      jump\t// out\n        /* \"#utility.yul\":18561:18668   */\n    tag_271:\n        /* \"#utility.yul\":18605:18613   */\n      0x00\n        /* \"#utility.yul\":18655:18660   */\n      dup3\n        /* \"#utility.yul\":18649:18653   */\n      dup3\n        /* \"#utility.yul\":18645:18661   */\n      shl\n        /* \"#utility.yul\":18624:18661   */\n      swap1\n      pop\n        /* \"#utility.yul\":18561:18668   */\n      swap3\n      swap2\n      pop\n      pop\n      jump\t// out\n        /* \"#utility.yul\":18674:19067   */\n    tag_272:\n        /* \"#utility.yul\":18743:18749   */\n      0x00\n        /* \"#utility.yul\":18793:18794   */\n      0x08\n        /* \"#utility.yul\":18781:18791   */\n      dup4\n        /* \"#utility.yul\":18777:18795   */\n      mul\n        /* \"#utility.yul\":18816:18913   */\n      tag_477\n        /* \"#utility.yul\":18846:18912   */\n      0xffffffffffffffffffffffffffffffffffffffffffffffffffffffffffffffff\n        /* \"#utility.yul\":18835:18844   */\n      dup3\n        /* \"#utility.yul\":18816:18913   */\n      tag_271\n      jump\t// in\n    tag_477:\n        /* \"#utility.yul\":18934:18973   */\n      tag_478\n        /* \"#utility.yul\":18964:18972   */\n      dup7\n        /* \"#utility.yul\":18953:18962   */\n      dup4\n        /* \"#utility.yul\":18934:18973   */\n      tag_271\n      jump\t// in\n    tag_478:\n        /* \"#utility.yul\":18922:18973   */\n      swap6\n      pop\n        /* \"#utility.yul\":19006:19010   */\n      dup1\n        /* \"#utility.yul\":19002:19011   */\n      not\n        /* \"#utility.yul\":18995:19000   */\n      dup5\n        /* \"#utility.yul\":18991:19012   */\n      and\n        /* \"#utility.yul\":18982:19012   */\n      swap4\n      pop\n        /* \"#utility.yul\":19055:19059   */\n      dup1\n        /* \"#utility.yul\":19045:19053   */\n      dup7\n        /* \"#utility.yul\":19041:19060   */\n      and\n        /* \"#utility.yul\":19034:19039   */\n      dup5\n        /* \"#utility.yul\":19031:19061   */\n      or\n        /* \"#utility.yul\":19021:19061   */\n      swap3\n      pop\n        /* \"#utility.yul\":18750:19067   */\n      pop\n      pop\n        /* \"#utility.yul\":18674:19067   */\n      swap4\n      swap3\n      pop\n      pop\n      pop\n      jump\t// out\n        /* \"#utility.yul\":19073:19133   */\n    tag_273:\n        /* \"#utility.yul\":19101:19104   */\n      0x00\n        /* \"#utility.yul\":19122:19127   */\n      dup2\n        /* \"#utility.yul\":19115:19127   */\n      swap1\n      pop\n        /* \"#utility.yul\":19073:19133   */\n      swap2\n      swap1\n      pop\n      jump\t// out\n        /* \"#utility.yul\":19139:19281   */\n    tag_274:\n        /* \"#utility.yul\":19189:19198   */\n      0x00\n        /* \"#utility.yul\":19222:19275   */\n      tag_481\n        /* \"#utility.yul\":19240:19274   */\n      tag_482\n        /* \"#utility.yul\":19249:19273   */\n      tag_483\n        /* \"#utility.yul\":19267:19272   */\n      dup5\n        /* \"#utility.yul\":19249:19273   */\n      tag_226\n      jump\t// in\n    tag_483:\n        /* \"#utility.yul\":19240:19274   */\n      tag_273\n      jump\t// in\n    tag_482:\n        /* \"#utility.yul\":19222:19275   */\n      tag_226\n      jump\t// in\n    tag_481:\n        /* \"#utility.yul\":19209:19275   */\n      swap1\n      pop\n        /* \"#utility.yul\":19139:19281   */\n      swap2\n      swap1\n      pop\n      jump\t// out\n        /* \"#utility.yul\":19287:19362   */\n    tag_275:\n        /* \"#utility.yul\":19330:19333   */\n      0x00\n        /* \"#utility.yul\":19351:19356   */\n      dup2\n        /* \"#utility.yul\":19344:19356   */\n      swap1\n      pop\n        /* \"#utility.yul\":19287:19362   */\n      swap2\n      swap1\n      pop\n      jump\t// out\n        /* \"#utility.yul\":19368:19637   */\n    tag_276:\n        /* \"#utility.yul\":19478:19517   */\n      tag_486\n        /* \"#utility.yul\":19509:19516   */\n      dup4\n        /* \"#utility.yul\":19478:19517   */\n      tag_274\n      jump\t// in\n    tag_486:\n        /* \"#utility.yul\":19539:19630   */\n      tag_487\n        /* \"#utility.yul\":19588:19629   */\n      tag_488\n        /* \"#utility.yul\":19612:19628   */\n      dup3\n        /* \"#utility.yul\":19588:19629   */\n      tag_275\n      jump\t// in\n    tag_488:\n        /* \"#utility.yul\":19580:19586   */\n      dup5\n        /* \"#utility.yul\":19573:19577   */\n      dup5\n        /* \"#utility.yul\":19567:19578   */\n      sload\n        /* \"#utility.yul\":19539:19630   */\n      tag_272\n      jump\t// in\n    tag_487:\n        /* \"#utility.yul\":19533:19537   */\n      dup3\n        /* \"#utility.yul\":19526:19631   */\n      sstore\n        /* \"#utility.yul\":19444:19637   */\n      pop\n        /* \"#utility.yul\":19368:19637   */\n      pop\n      pop\n      pop\n      jump\t// out\n        /* \"#utility.yul\":19643:19716   */\n    tag_277:\n        /* \"#utility.yul\":19688:19691   */\n      0x00\n        /* \"#utility.yul\":19709:19710   */\n      0x00\n        /* \"#utility.yul\":19702:19710   */\n      swap1\n      pop\n        /* \"#utility.yul\":19643:19716   */\n      swap1\n      jump\t// out\n        /* \"#utility.yul\":19722:19911   */\n    tag_278:\n        /* \"#utility.yul\":19799:19831   */\n      tag_491\n      tag_277\n      jump\t// in\n    tag_491:\n        /* \"#utility.yul\":19840:19905   */\n      tag_492\n        /* \"#utility.yul\":19898:19904   */\n      dup2\n        /* \"#utility.yul\":19890:19896   */\n      dup5\n        /* \"#utility.yul\":19884:19888   */\n      dup5\n        /* \"#utility.yul\":19840:19905   */\n      tag_276\n      jump\t// in\n    tag_492:\n        /* \"#utility.yul\":19775:19911   */\n      pop\n        /* \"#utility.yul\":19722:19911   */\n      pop\n      pop\n      jump\t// out\n        /* \"#utility.yul\":19917:20103   */\n    tag_279:\n        /* \"#utility.yul\":19977:20097   */\n    tag_494:\n        /* \"#utility.yul\":19994:19997   */\n      dup2\n        /* \"#utility.yul\":19987:19992   */\n      dup2\n        /* \"#utility.yul\":19984:19998   */\n      lt\n        /* \"#utility.yul\":19977:20097   */\n      iszero\n      tag_496\n      jumpi\n        /* \"#utility.yul\":20048:20087   */\n      tag_497\n        /* \"#utility.yul\":20085:20086   */\n      0x00\n        /* \"#utility.yul\":20078:20083   */\n      dup3\n        /* \"#utility.yul\":20048:20087   */\n      tag_278\n      jump\t// in\n    tag_497:\n        /* \"#utility.yul\":20021:20022   */\n      0x01\n        /* \"#utility.yul\":20014:20019   */\n      dup2\n        /* \"#utility.yul\":20010:20023   */\n      add\n        /* \"#utility.yul\":20001:20023   */\n      swap1\n      pop\n        /* \"#utility.yul\":19977:20097   */\n      jump(tag_494)\n    tag_496:\n        /* \"#utility.yul\":19917:20103   */\n      pop\n      pop\n      jump\t// out\n        /* \"#utility.yul\":20109:20652   */\n    tag_280:\n        /* \"#utility.yul\":20210:20212   */\n      0x1f\n        /* \"#utility.yul\":20205:20208   */\n      dup3\n        /* \"#utility.yul\":20202:20213   */\n      gt\n        /* \"#utility.yul\":20199:20645   */\n      iszero\n      tag_499\n      jumpi\n        /* \"#utility.yul\":20244:20282   */\n      tag_500\n        /* \"#utility.yul\":20276:20281   */\n      dup2\n        /* \"#utility.yul\":20244:20282   */\n      tag_269\n      jump\t// in\n    tag_500:\n        /* \"#utility.yul\":20328:20357   */\n      tag_501\n        /* \"#utility.yul\":20346:20356   */\n      dup5\n        /* \"#utility.yul\":20328:20357   */\n      tag_270\n      jump\t// in\n    tag_501:\n        /* \"#utility.yul\":20318:20326   */\n      dup2\n        /* \"#utility.yul\":20314:20358   */\n      add\n        /* \"#utility.yul\":20511:20513   */\n      0x20\n        /* \"#utility.yul\":20499:20509   */\n      dup6\n        /* \"#utility.yul\":20496:20514   */\n      lt\n        /* \"#utility.yul\":20493:20542   */\n      iszero\n      tag_502\n      jumpi\n        /* \"#utility.yul\":20532:20540   */\n      dup2\n        /* \"#utility.yul\":20517:20540   */\n      swap1\n      pop\n        /* \"#utility.yul\":20493:20542   */\n    tag_502:\n        /* \"#utility.yul\":20555:20635   */\n      tag_503\n        /* \"#utility.yul\":20611:20633   */\n      tag_504\n        /* \"#utility.yul\":20629:20632   */\n      dup6\n        /* \"#utility.yul\":20611:20633   */\n      tag_270\n      jump\t// in\n    tag_504:\n        /* \"#utility.yul\":20601:20609   */\n      dup4\n        /* \"#utility.yul\":20597:20634   */\n      add\n        /* \"#utility.yul\":20584:20595   */\n      dup3\n        /* \"#utility.yul\":20555:20635   */\n      tag_279\n      jump\t// in\n    tag_503:\n        /* \"#utility.yul\":20214:20645   */\n      pop\n      pop\n        /* \"#utility.yul\":20199:20645   */\n    tag_499:\n        /* \"#utility.yul\":20109:20652   */\n      pop\n      pop\n      pop\n      jump\t// out\n        /* \"#utility.yul\":20658:20775   */\n    tag_281:\n        /* \"#utility.yul\":20712:20720   */\n      0x00\n        /* \"#utility.yul\":20762:20767   */\n      dup3\n        /* \"#utility.yul\":20756:20760   */\n      dup3\n        /* \"#utility.yul\":20752:20768   */\n      shr\n        /* \"#utility.yul\":20731:20768   */\n      swap1\n      pop\n        /* \"#utility.yul\":20658:20775   */\n      swap3\n      swap2\n      pop\n      pop\n      jump\t// out\n        /* \"#utility.yul\":20781:20950   */\n    tag_282:\n        /* \"#utility.yul\":20825:20831   */\n      0x00\n        /* \"#utility.yul\":20858:20909   */\n      tag_507\n        /* \"#utility.yul\":20906:20907   */\n      0x00\n        /* \"#utility.yul\":20902:20908   */\n      not\n        /* \"#utility.yul\":20894:20899   */\n      dup5\n        /* \"#utility.yul\":20891:20892   */\n      0x08\n        /* \"#utility.yul\":20887:20900   */\n      mul\n        /* \"#utility.yul\":20858:20909   */\n      tag_281\n      jump\t// in\n    tag_507:\n        /* \"#utility.yul\":20854:20910   */\n      not\n        /* \"#utility.yul\":20939:20943   */\n      dup1\n        /* \"#utility.yul\":20933:20937   */\n      dup4\n        /* \"#utility.yul\":20929:20944   */\n      and\n        /* \"#utility.yul\":20919:20944   */\n      swap2\n      pop\n        /* \"#utility.yul\":20832:20950   */\n      pop\n        /* \"#utility.yul\":20781:20950   */\n      swap3\n      swap2\n      pop\n      pop\n      jump\t// out\n        /* \"#utility.yul\":20955:21250   */\n    tag_283:\n        /* \"#utility.yul\":21031:21035   */\n      0x00\n        /* \"#utility.yul\":21177:21206   */\n      tag_509\n        /* \"#utility.yul\":21202:21205   */\n      dup4\n        /* \"#utility.yul\":21196:21200   */\n      dup4\n        /* \"#utility.yul\":21177:21206   */\n      tag_282\n      jump\t// in\n    tag_509:\n        /* \"#utility.yul\":21169:21206   */\n      swap2\n      pop\n        /* \"#utility.yul\":21239:21242   */\n      dup3\n        /* \"#utility.yul\":21236:21237   */\n      0x02\n        /* \"#utility.yul\":21232:21243   */\n      mul\n        /* \"#utility.yul\":21226:21230   */\n      dup3\n        /* \"#utility.yul\":21223:21244   */\n      or\n        /* \"#utility.yul\":21215:21244   */\n      swap1\n      pop\n        /* \"#utility.yul\":20955:21250   */\n      swap3\n      swap2\n      pop\n      pop\n      jump\t// out\n        /* \"#utility.yul\":21255:22650   */\n    tag_146:\n        /* \"#utility.yul\":21372:21409   */\n      tag_511\n        /* \"#utility.yul\":21405:21408   */\n      dup3\n        /* \"#utility.yul\":21372:21409   */\n      tag_232\n      jump\t// in\n    tag_511:\n        /* \"#utility.yul\":21474:21492   */\n      0xffffffffffffffff\n        /* \"#utility.yul\":21466:21472   */\n      dup2\n        /* \"#utility.yul\":21463:21493   */\n      gt\n        /* \"#utility.yul\":21460:21516   */\n      iszero\n      tag_512\n      jumpi\n        /* \"#utility.yul\":21496:21514   */\n      tag_513\n      tag_180\n      jump\t// in\n    tag_513:\n        /* \"#utility.yul\":21460:21516   */\n    tag_512:\n        /* \"#utility.yul\":21540:21578   */\n      tag_514\n        /* \"#utility.yul\":21572:21576   */\n      dup3\n        /* \"#utility.yul\":21566:21577   */\n      sload\n        /* \"#utility.yul\":21540:21578   */\n      tag_101\n      jump\t// in\n    tag_514:\n        /* \"#utility.yul\":21625:21692   */\n      tag_515\n        /* \"#utility.yul\":21685:21691   */\n      dup3\n        /* \"#utility.yul\":21677:21683   */\n      dup3\n        /* \"#utility.yul\":21671:21675   */\n      dup6\n        /* \"#utility.yul\":21625:21692   */\n      tag_280\n      jump\t// in\n    tag_515:\n        /* \"#utility.yul\":21719:21720   */\n      0x00\n        /* \"#utility.yul\":21743:21747   */\n      0x20\n        /* \"#utility.yul\":21730:21747   */\n      swap1\n      pop\n        /* \"#utility.yul\":21775:21777   */\n      0x1f\n        /* \"#utility.yul\":21767:21773   */\n      dup4\n        /* \"#utility.yul\":21764:21778   */\n      gt\n        /* \"#utility.yul\":21792:21793   */\n      0x01\n        /* \"#utility.yul\":21787:22405   */\n      dup2\n      eq\n      tag_517\n      jumpi\n        /* \"#utility.yul\":22449:22450   */\n      0x00\n        /* \"#utility.yul\":22466:22472   */\n      dup5\n        /* \"#utility.yul\":22463:22540   */\n      iszero\n      tag_518\n      jumpi\n        /* \"#utility.yul\":22515:22524   */\n      dup3\n        /* \"#utility.yul\":22510:22513   */\n      dup8\n        /* \"#utility.yul\":22506:22525   */\n      add\n        /* \"#utility.yul\":22500:22526   */\n      mload\n        /* \"#utility.yul\":22491:22526   */\n      swap1\n      pop\n        /* \"#utility.yul\":22463:22540   */\n    tag_518:\n        /* \"#utility.yul\":22566:22633   */\n      tag_519\n        /* \"#utility.yul\":22626:22632   */\n      dup6\n        /* \"#utility.yul\":22619:22624   */\n      dup3\n        /* \"#utility.yul\":22566:22633   */\n      tag_283\n      jump\t// in\n    tag_519:\n        /* \"#utility.yul\":22560:22564   */\n      dup7\n        /* \"#utility.yul\":22553:22634   */\n      sstore\n        /* \"#utility.yul\":22422:22644   */\n      pop\n        /* \"#utility.yul\":21757:22644   */\n      jump(tag_516)\n        /* \"#utility.yul\":21787:22405   */\n    tag_517:\n        /* \"#utility.yul\":21839:21843   */\n      0x1f\n        /* \"#utility.yul\":21835:21844   */\n      not\n        /* \"#utility.yul\":21827:21833   */\n      dup5\n        /* \"#utility.yul\":21823:21845   */\n      and\n        /* \"#utility.yul\":21873:21910   */\n      tag_520\n        /* \"#utility.yul\":21905:21909   */\n      dup7\n        /* \"#utility.yul\":21873:21910   */\n      tag_269\n      jump\t// in\n    tag_520:\n        /* \"#utility.yul\":21932:21933   */\n      0x00\n        /* \"#utility.yul\":21946:22154   */\n    tag_521:\n        /* \"#utility.yul\":21960:21967   */\n      dup3\n        /* \"#utility.yul\":21957:21958   */\n      dup2\n        /* \"#utility.yul\":21954:21968   */\n      lt\n        /* \"#utility.yul\":21946:22154   */\n      iszero\n      tag_523\n      jumpi\n        /* \"#utility.yul\":22039:22048   */\n      dup5\n        /* \"#utility.yul\":22034:22037   */\n      dup10\n        /* \"#utility.yul\":22030:22049   */\n      add\n        /* \"#utility.yul\":22024:22050   */\n      mload\n        /* \"#utility.yul\":22016:22022   */\n      dup3\n        /* \"#utility.yul\":22009:22051   */\n      sstore\n        /* \"#utility.yul\":22090:22091   */\n      0x01\n        /* \"#utility.yul\":22082:22088   */\n      dup3\n        /* \"#utility.yul\":22078:22092   */\n      add\n        /* \"#utility.yul\":22068:22092   */\n      swap2\n      pop\n        /* \"#utility.yul\":22137:22139   */\n      0x20\n        /* \"#utility.yul\":22126:22135   */\n      dup6\n        /* \"#utility.yul\":22122:22140   */\n      add\n        /* \"#utility.yul\":22109:22140   */\n      swap5\n      pop\n        /* \"#utility.yul\":21983:21987   */\n      0x20\n        /* \"#utility.yul\":21980:21981   */\n      dup2\n        /* \"#utility.yul\":21976:21988   */\n      add\n        /* \"#utility.yul\":21971:21988   */\n      swap1\n      pop\n        /* \"#utility.yul\":21946:22154   */\n      jump(tag_521)\n    tag_523:\n        /* \"#utility.yul\":22182:22188   */\n      dup7\n        /* \"#utility.yul\":22173:22180   */\n      dup4\n        /* \"#utility.yul\":22170:22189   */\n      lt\n        /* \"#utility.yul\":22167:22346   */\n      iszero\n      tag_524\n      jumpi\n        /* \"#utility.yul\":22240:22249   */\n      dup5\n        /* \"#utility.yul\":22235:22238   */\n      dup10\n        /* \"#utility.yul\":22231:22250   */\n      add\n        /* \"#utility.yul\":22225:22251   */\n      mload\n        /* \"#utility.yul\":22283:22331   */\n      tag_525\n        /* \"#utility.yul\":22325:22329   */\n      0x1f\n        /* \"#utility.yul\":22317:22323   */\n      dup10\n        /* \"#utility.yul\":22313:22330   */\n      and\n        /* \"#utility.yul\":22302:22311   */\n      dup3\n        /* \"#utility.yul\":22283:22331   */\n      tag_282\n      jump\t// in\n    tag_525:\n        /* \"#utility.yul\":22275:22281   */\n      dup4\n        /* \"#utility.yul\":22268:22332   */\n      sstore\n        /* \"#utility.yul\":22190:22346   */\n      pop\n        /* \"#utility.yul\":22167:22346   */\n    tag_524:\n        /* \"#utility.yul\":22392:22393   */\n      0x01\n        /* \"#utility.yul\":22388:22389   */\n      0x02\n        /* \"#utility.yul\":22380:22386   */\n      dup9\n        /* \"#utility.yul\":22376:22390   */\n      mul\n        /* \"#utility.yul\":22372:22394   */\n      add\n        /* \"#utility.yul\":22366:22370   */\n      dup9\n        /* \"#utility.yul\":22359:22395   */\n      sstore\n        /* \"#utility.yul\":21794:22405   */\n      pop\n      pop\n      pop\n        /* \"#utility.yul\":21757:22644   */\n    tag_516:\n      pop\n        /* \"#utility.yul\":21347:22650   */\n      pop\n      pop\n      pop\n        /* \"#utility.yul\":21255:22650   */\n      pop\n      pop\n      jump\t// out\n        /* \"#utility.yul\":22656:22889   */\n    tag_149:\n        /* \"#utility.yul\":22695:22698   */\n      0x00\n        /* \"#utility.yul\":22718:22742   */\n      tag_527\n        /* \"#utility.yul\":22736:22741   */\n      dup3\n        /* \"#utility.yul\":22718:22742   */\n      tag_226\n      jump\t// in\n    tag_527:\n        /* \"#utility.yul\":22709:22742   */\n      swap2\n      pop\n        /* \"#utility.yul\":22764:22830   */\n      0xffffffffffffffffffffffffffffffffffffffffffffffffffffffffffffffff\n        /* \"#utility.yul\":22757:22762   */\n      dup3\n        /* \"#utility.yul\":22754:22831   */\n      sub\n        /* \"#utility.yul\":22751:22854   */\n      tag_528\n      jumpi\n        /* \"#utility.yul\":22834:22852   */\n      tag_529\n      tag_265\n      jump\t// in\n    tag_529:\n        /* \"#utility.yul\":22751:22854   */\n    tag_528:\n        /* \"#utility.yul\":22881:22882   */\n      0x01\n        /* \"#utility.yul\":22874:22879   */\n      dup3\n        /* \"#utility.yul\":22870:22883   */\n      add\n        /* \"#utility.yul\":22863:22883   */\n      swap1\n      pop\n        /* \"#utility.yul\":22656:22889   */\n      swap2\n      swap1\n      pop\n      jump\t// out\n        /* \"#utility.yul\":22919:23793   */\n    tag_284:\n        /* \"#utility.yul\":23022:23025   */\n      0x00\n        /* \"#utility.yul\":23059:23064   */\n      dup2\n        /* \"#utility.yul\":23053:23065   */\n      sload\n        /* \"#utility.yul\":23088:23124   */\n      tag_531\n        /* \"#utility.yul\":23114:23123   */\n      dup2\n        /* \"#utility.yul\":23088:23124   */\n      tag_101\n      jump\t// in\n    tag_531:\n        /* \"#utility.yul\":23140:23229   */\n      tag_532\n        /* \"#utility.yul\":23222:23228   */\n      dup2\n        /* \"#utility.yul\":23217:23220   */\n      dup7\n        /* \"#utility.yul\":23140:23229   */\n      tag_266\n      jump\t// in\n    tag_532:\n        /* \"#utility.yul\":23133:23229   */\n      swap5\n      pop\n        /* \"#utility.yul\":23260:23261   */\n      0x01\n        /* \"#utility.yul\":23249:23258   */\n      dup3\n        /* \"#utility.yul\":23245:23262   */\n      and\n        /* \"#utility.yul\":23276:23277   */\n      0x00\n        /* \"#utility.yul\":23271:23437   */\n      dup2\n      eq\n      tag_534\n      jumpi\n        /* \"#utility.yul\":23451:23452   */\n      0x01\n        /* \"#utility.yul\":23446:23787   */\n      dup2\n      eq\n      tag_535\n      jumpi\n        /* \"#utility.yul\":23238:23787   */\n      jump(tag_533)\n        /* \"#utility.yul\":23271:23437   */\n    tag_534:\n        /* \"#utility.yul\":23355:23359   */\n      0xff\n        /* \"#utility.yul\":23351:23360   */\n      not\n        /* \"#utility.yul\":23340:23349   */\n      dup4\n        /* \"#utility.yul\":23336:23361   */\n      and\n        /* \"#utility.yul\":23331:23334   */\n      dup7\n        /* \"#utility.yul\":23324:23362   */\n      mstore\n        /* \"#utility.yul\":23417:23423   */\n      dup2\n        /* \"#utility.yul\":23410:23424   */\n      iszero\n        /* \"#utility.yul\":23403:23425   */\n      iszero\n        /* \"#utility.yul\":23395:23401   */\n      dup3\n        /* \"#utility.yul\":23391:23426   */\n      mul\n        /* \"#utility.yul\":23386:23389   */\n      dup7\n        /* \"#utility.yul\":23382:23427   */\n      add\n        /* \"#utility.yul\":23375:23427   */\n      swap4\n      pop\n        /* \"#utility.yul\":23271:23437   */\n      jump(tag_533)\n        /* \"#utility.yul\":23446:23787   */\n    tag_535:\n        /* \"#utility.yul\":23513:23551   */\n      tag_536\n        /* \"#utility.yul\":23545:23550   */\n      dup6\n        /* \"#utility.yul\":23513:23551   */\n      tag_269\n      jump\t// in\n    tag_536:\n        /* \"#utility.yul\":23573:23574   */\n      0x00\n        /* \"#utility.yul\":23587:23741   */\n    tag_537:\n        /* \"#utility.yul\":23601:23607   */\n      dup4\n        /* \"#utility.yul\":23598:23599   */\n      dup2\n        /* \"#utility.yul\":23595:23608   */\n      lt\n        /* \"#utility.yul\":23587:23741   */\n      iszero\n      tag_539\n      jumpi\n        /* \"#utility.yul\":23675:23682   */\n      dup2\n        /* \"#utility.yul\":23669:23683   */\n      sload\n        /* \"#utility.yul\":23665:23666   */\n      dup2\n        /* \"#utility.yul\":23660:23663   */\n      dup10\n        /* \"#utility.yul\":23656:23667   */\n      add\n        /* \"#utility.yul\":23649:23684   */\n      mstore\n        /* \"#utility.yul\":23725:23726   */\n      0x01\n        /* \"#utility.yul\":23716:23723   */\n      dup3\n        /* \"#utility.yul\":23712:23727   */\n      add\n        /* \"#utility.yul\":23701:23727   */\n      swap2\n      pop\n        /* \"#utility.yul\":23623:23627   */\n      0x20\n        /* \"#utility.yul\":23620:23621   */\n      dup2\n        /* \"#utility.yul\":23616:23628   */\n      add\n        /* \"#utility.yul\":23611:23628   */\n      swap1\n      pop\n        /* \"#utility.yul\":23587:23741   */\n      jump(tag_537)\n    tag_539:\n        /* \"#utility.yul\":23770:23776   */\n      dup4\n        /* \"#utility.yul\":23765:23768   */\n      dup9\n        /* \"#utility.yul\":23761:23777   */\n      add\n        /* \"#utility.yul\":23754:23777   */\n      swap6\n      pop\n        /* \"#utility.yul\":23453:23787   */\n      pop\n      pop\n        /* \"#utility.yul\":23238:23787   */\n    tag_533:\n      pop\n        /* \"#utility.yul\":23026:23793   */\n      pop\n      pop\n        /* \"#utility.yul\":22919:23793   */\n      swap3\n      swap2\n      pop\n      pop\n      jump\t// out\n        /* \"#utility.yul\":23799:24068   */\n    tag_159:\n        /* \"#utility.yul\":23928:23931   */\n      0x00\n        /* \"#utility.yul\":23950:24042   */\n      tag_541\n        /* \"#utility.yul\":24038:24041   */\n      dup3\n        /* \"#utility.yul\":24029:24035   */\n      dup5\n        /* \"#utility.yul\":23950:24042   */\n      tag_284\n      jump\t// in\n    tag_541:\n        /* \"#utility.yul\":23943:24042   */\n      swap2\n      pop\n        /* \"#utility.yul\":24059:24062   */\n      dup2\n        /* \"#utility.yul\":24052:24062   */\n      swap1\n      pop\n        /* \"#utility.yul\":23799:24068   */\n      swap3\n      swap2\n      pop\n      pop\n      jump\t// out\n        /* \"#utility.yul\":24074:24311   */\n    tag_285:\n        /* \"#utility.yul\":24214:24248   */\n      0x4e6f20617661696c61626c65207469636b65747320666f722074686520737065\n        /* \"#utility.yul\":24210:24211   */\n      0x00\n        /* \"#utility.yul\":24202:24208   */\n      dup3\n        /* \"#utility.yul\":24198:24212   */\n      add\n        /* \"#utility.yul\":24191:24249   */\n      mstore\n        /* \"#utility.yul\":24283:24303   */\n      0x6369666965642064657374696e6174696f6e0000000000000000000000000000\n        /* \"#utility.yul\":24278:24280   */\n      0x20\n        /* \"#utility.yul\":24270:24276   */\n      dup3\n        /* \"#utility.yul\":24266:24281   */\n      add\n        /* \"#utility.yul\":24259:24304   */\n      mstore\n        /* \"#utility.yul\":24074:24311   */\n      pop\n      jump\t// out\n        /* \"#utility.yul\":24317:24683   */\n    tag_286:\n        /* \"#utility.yul\":24459:24462   */\n      0x00\n        /* \"#utility.yul\":24480:24547   */\n      tag_544\n        /* \"#utility.yul\":24544:24546   */\n      0x32\n        /* \"#utility.yul\":24539:24542   */\n      dup4\n        /* \"#utility.yul\":24480:24547   */\n      tag_233\n      jump\t// in\n    tag_544:\n        /* \"#utility.yul\":24473:24547   */\n      swap2\n      pop\n        /* \"#utility.yul\":24556:24649   */\n      tag_545\n        /* \"#utility.yul\":24645:24648   */\n      dup3\n        /* \"#utility.yul\":24556:24649   */\n      tag_285\n      jump\t// in\n    tag_545:\n        /* \"#utility.yul\":24674:24676   */\n      0x40\n        /* \"#utility.yul\":24669:24672   */\n      dup3\n        /* \"#utility.yul\":24665:24677   */\n      add\n        /* \"#utility.yul\":24658:24677   */\n      swap1\n      pop\n        /* \"#utility.yul\":24317:24683   */\n      swap2\n      swap1\n      pop\n      jump\t// out\n        /* \"#utility.yul\":24689:25108   */\n    tag_222:\n        /* \"#utility.yul\":24855:24859   */\n      0x00\n        /* \"#utility.yul\":24893:24895   */\n      0x20\n        /* \"#utility.yul\":24882:24891   */\n      dup3\n        /* \"#utility.yul\":24878:24896   */\n      add\n        /* \"#utility.yul\":24870:24896   */\n      swap1\n      pop\n        /* \"#utility.yul\":24942:24951   */\n      dup2\n        /* \"#utility.yul\":24936:24940   */\n      dup2\n        /* \"#utility.yul\":24932:24952   */\n      sub\n        /* \"#utility.yul\":24928:24929   */\n      0x00\n        /* \"#utility.yul\":24917:24926   */\n      dup4\n        /* \"#utility.yul\":24913:24930   */\n      add\n        /* \"#utility.yul\":24906:24953   */\n      mstore\n        /* \"#utility.yul\":24970:25101   */\n      tag_547\n        /* \"#utility.yul\":25096:25100   */\n      dup2\n        /* \"#utility.yul\":24970:25101   */\n      tag_286\n      jump\t// in\n    tag_547:\n        /* \"#utility.yul\":24962:25101   */\n      swap1\n      pop\n        /* \"#utility.yul\":24689:25108   */\n      swap2\n      swap1\n      pop\n      jump\t// out\n\n    auxdata: 0xa2646970667358221220b6ac5a4c3e4cb78c55856bc3a887cb8d737aea4056df7c7c8b76c1ec9443486d64736f6c634300081c0033\n}\n","bytecode":{"linkReferences":{},"object":"608060405234801561000f575f5ffd5b506040516128b73803806128b7833981810160405281019061003191906105f5565b335f5f6101000a81548173ffffffffffffffffffffffffffffffffffffffff021916908373ffffffffffffffffffffffffffffffffffffffff1602179055505f601381905550600182908060018154018082558091505060019003905f5260205f20015f9091909190915090816100a89190610856565b50600281908060018154018082558091505060019003905f5260205f20015f90919091909150556013546003836040516100e2919061095f565b9081526020016040518091039020819055506101053383836102ac60201b60201c565b600360045f600c811061011b5761011a610975565b5b0181905550600260046001600c811061013757610136610975565b5b01819055506004806002600c811061015257610151610975565b5b0181905550600560046003600c811061016e5761016d610975565b5b01819055506003600480600c811061018957610188610975565b5b0181905550600c60046005600c81106101a5576101a4610975565b5b0181905550600b60046006600c81106101c1576101c0610975565b5b0181905550600c60046007600c81106101dd576101dc610975565b5b0181905550600f60046008600c81106101f9576101f8610975565b5b0181905550600e60046009600c811061021557610214610975565b5b0181905550600b6004600a600c811061023157610230610975565b5b0181905550600d6004600b600c811061024d5761024c610975565b5b0181905550600160105f6003811061026857610267610975565b5b01819055506002601060016003811061028457610283610975565b5b0181905550600360106002600381106102a05761029f610975565b5b01819055505050610a16565b5f5f9054906101000a900473ffffffffffffffffffffffffffffffffffffffff1673ffffffffffffffffffffffffffffffffffffffff163373ffffffffffffffffffffffffffffffffffffffff1614610303575f5ffd5b5f5f90505b601e81101561046f575f60155490506040518060e001604052808673ffffffffffffffffffffffffffffffffffffffff16815260200185815260200184815260200183815260200160405180602001604052805f81525081526020015f151581526020016001151581525060145f8381526020019081526020015f205f820151815f015f6101000a81548173ffffffffffffffffffffffffffffffffffffffff021916908373ffffffffffffffffffffffffffffffffffffffff16021790555060208201518160010190816103dd9190610856565b50604082015181600201556060820151816003015560808201518160040190816104079190610856565b5060a0820151816005015f6101000a81548160ff02191690831515021790555060c08201518160050160016101000a81548160ff02191690831515021790555090505060155f81548092919061045c906109cf565b9190505550508080600101915050610308565b50505050565b5f604051905090565b5f5ffd5b5f5ffd5b5f5ffd5b5f5ffd5b5f601f19601f8301169050919050565b7f4e487b71000000000000000000000000000000000000000000000000000000005f52604160045260245ffd5b6104d48261048e565b810181811067ffffffffffffffff821117156104f3576104f261049e565b5b80604052505050565b5f610505610475565b905061051182826104cb565b919050565b5f67ffffffffffffffff8211156105305761052f61049e565b5b6105398261048e565b9050602081019050919050565b8281835e5f83830152505050565b5f61056661056184610516565b6104fc565b9050828152602081018484840111156105825761058161048a565b5b61058d848285610546565b509392505050565b5f82601f8301126105a9576105a8610486565b5b81516105b9848260208601610554565b91505092915050565b5f819050919050565b6105d4816105c2565b81146105de575f5ffd5b50565b5f815190506105ef816105cb565b92915050565b5f5f6040838503121561060b5761060a61047e565b5b5f83015167ffffffffffffffff81111561062857610627610482565b5b61063485828601610595565b9250506020610645858286016105e1565b9150509250929050565b5f81519050919050565b7f4e487b71000000000000000000000000000000000000000000000000000000005f52602260045260245ffd5b5f600282049050600182168061069d57607f821691505b6020821081036106b0576106af610659565b5b50919050565b5f819050815f5260205f209050919050565b5f6020601f8301049050919050565b5f82821b905092915050565b5f600883026107127fffffffffffffffffffffffffffffffffffffffffffffffffffffffffffffffff826106d7565b61071c86836106d7565b95508019841693508086168417925050509392505050565b5f819050919050565b5f61075761075261074d846105c2565b610734565b6105c2565b9050919050565b5f819050919050565b6107708361073d565b61078461077c8261075e565b8484546106e3565b825550505050565b5f5f905090565b61079b61078c565b6107a6818484610767565b505050565b5b818110156107c9576107be5f82610793565b6001810190506107ac565b5050565b601f82111561080e576107df816106b6565b6107e8846106c8565b810160208510156107f7578190505b61080b610803856106c8565b8301826107ab565b50505b505050565b5f82821c905092915050565b5f61082e5f1984600802610813565b1980831691505092915050565b5f610846838361081f565b9150826002028217905092915050565b61085f8261064f565b67ffffffffffffffff8111156108785761087761049e565b5b6108828254610686565b61088d8282856107cd565b5f60209050601f8311600181146108be575f84156108ac578287015190505b6108b6858261083b565b86555061091d565b601f1984166108cc866106b6565b5f5b828110156108f3578489015182556001820191506020850194506020810190506108ce565b86831015610910578489015161090c601f89168261081f565b8355505b6001600288020188555050505b505050505050565b5f81905092915050565b5f6109398261064f565b6109438185610925565b9350610953818560208601610546565b80840191505092915050565b5f61096a828461092f565b915081905092915050565b7f4e487b71000000000000000000000000000000000000000000000000000000005f52603260045260245ffd5b7f4e487b71000000000000000000000000000000000000000000000000000000005f52601160045260245ffd5b5f6109d9826105c2565b91507fffffffffffffffffffffffffffffffffffffffffffffffffffffffffffffffff8203610a0b57610a0a6109a2565b5b600182019050919050565b611e9480610a235f395ff3fe6080604052600436106100e7575f3560e01c80635e583e3711610089578063908921fc11610058578063908921fc14610339578063ad03fe7014610363578063cb2cc82a1461039f578063ea6e358e146103db576100e7565b80635e583e371461026f5780636031a52f14610297578063695dc67e146102c15780638dd4ba2e146102fd576100e7565b80631165e6ab116100c55780631165e6ab14610193578063195c1445146101cf5780632427e59e1461020b5780634afe9f7b14610247576100e7565b8063033fab35146100eb57806306661abd1461012d57806307819bd614610157575b5f5ffd5b3480156100f6575f5ffd5b50610111600480360381019061010c919061119b565b6103f7565b604051610124979695949392919061129e565b60405180910390f35b348015610138575f5ffd5b50610141610579565b60405161014e9190611319565b60405180910390f35b348015610162575f5ffd5b5061017d60048036038101906101789190611488565b61057f565b60405161018a9190611319565b60405180910390f35b34801561019e575f5ffd5b506101b960048036038101906101b49190611532565b61066e565b6040516101c6919061155d565b60405180910390f35b3480156101da575f5ffd5b506101f560048036038101906101f0919061119b565b6106c5565b6040516102029190611319565b60405180910390f35b348015610216575f5ffd5b50610231600480360381019061022c9190611576565b6106e5565b60405161023e9190611319565b60405180910390f35b348015610252575f5ffd5b5061026d600480360381019061026891906115bd565b610712565b005b34801561027a575f5ffd5b5061029560048036038101906102909190611629565b6108db565b005b3480156102a2575f5ffd5b506102ab6109d1565b6040516102b89190611319565b60405180910390f35b3480156102cc575f5ffd5b506102e760048036038101906102e2919061119b565b6109d7565b6040516102f49190611319565b60405180910390f35b348015610308575f5ffd5b50610323600480360381019061031e919061119b565b6109f0565b6040516103309190611683565b60405180910390f35b348015610344575f5ffd5b5061034d610a96565b60405161035a91906116a3565b60405180910390f35b34801561036e575f5ffd5b5061038960048036038101906103849190611532565b610aba565b604051610396919061188c565b60405180910390f35b3480156103aa575f5ffd5b506103c560048036038101906103c0919061119b565b610e97565b6040516103d29190611319565b60405180910390f35b6103f560048036038101906103f09190611488565b610eb0565b005b6014602052805f5260405f205f91509050805f015f9054906101000a900473ffffffffffffffffffffffffffffffffffffffff169080600101805461043b906118d9565b80601f0160208091040260200160405190810160405280929190818152602001828054610467906118d9565b80156104b25780601f10610489576101008083540402835291602001916104b2565b820191905f5260205f20905b81548152906001019060200180831161049557829003601f168201915b5050505050908060020154908060030154908060040180546104d3906118d9565b80601f01602080910402602001604051908101604052809291908181526020018280546104ff906118d9565b801561054a5780601f106105215761010080835404028352916020019161054a565b820191905f5260205f20905b81548152906001019060200180831161052d57829003601f168201915b505050505090806005015f9054906101000a900460ff16908060050160019054906101000a900460ff16905087565b60135481565b5f5f60106001856105909190611936565b600381106105a1576105a0611969565b5b015490505f60046001876105b59190611936565b600c81106105c6576105c5611969565b5b015490505f82600260038a6040516105de91906119d0565b908152602001604051809103902054815481106105fe576105fd611969565b5b905f5260205f20015461061191906119e6565b905084156106295760028161062691906119e6565b90505b81600a111561064857818161063e9190611a54565b9350505050610666565b600a826106559190611936565b8161066091906119e6565b93505050505b949350505050565b5f5f5f9054906101000a900473ffffffffffffffffffffffffffffffffffffffff1673ffffffffffffffffffffffffffffffffffffffff168273ffffffffffffffffffffffffffffffffffffffff16149050919050565b600281815481106106d4575f80fd5b905f5260205f20015f915090505481565b6003818051602081018201805184825260208301602085012081835280955050505050505f915090505481565b5f5f9054906101000a900473ffffffffffffffffffffffffffffffffffffffff1673ffffffffffffffffffffffffffffffffffffffff163373ffffffffffffffffffffffffffffffffffffffff1614610769575f5ffd5b5f5f90505b601e8110156108d5575f60155490506040518060e001604052808673ffffffffffffffffffffffffffffffffffffffff16815260200185815260200184815260200183815260200160405180602001604052805f81525081526020015f151581526020016001151581525060145f8381526020019081526020015f205f820151815f015f6101000a81548173ffffffffffffffffffffffffffffffffffffffff021916908373ffffffffffffffffffffffffffffffffffffffff16021790555060208201518160010190816108439190611c24565b506040820151816002015560608201518160030155608082015181600401908161086d9190611c24565b5060a0820151816005015f6101000a81548160ff02191690831515021790555060c08201518160050160016101000a81548160ff02191690831515021790555090505060155f8154809291906108c290611cf3565b919050555050808060010191505061076e565b50505050565b5f5f9054906101000a900473ffffffffffffffffffffffffffffffffffffffff1673ffffffffffffffffffffffffffffffffffffffff163373ffffffffffffffffffffffffffffffffffffffff1614610932575f5ffd5b8160405160200161094391906119d0565b60405160208183030381529060405280519060200120600160038460405161096b91906119d0565b9081526020016040518091039020548154811061098b5761098a611969565b5b905f5260205f20016040516020016109a39190611dba565b60405160208183030381529060405280519060200120036109c2575f5ffd5b6109cd338383610712565b5050565b60155481565b601081600381106109e6575f80fd5b015f915090505481565b600181815481106109ff575f80fd5b905f5260205f20015f915090508054610a17906118d9565b80601f0160208091040260200160405190810160405280929190818152602001828054610a43906118d9565b8015610a8e5780601f10610a6557610100808354040283529160200191610a8e565b820191905f5260205f20905b815481529060010190602001808311610a7157829003601f168201915b505050505081565b5f5f9054906101000a900473ffffffffffffffffffffffffffffffffffffffff1681565b60605f5f90505f5f90505b601554811015610b7c578373ffffffffffffffffffffffffffffffffffffffff1660145f8381526020019081526020015f205f015f9054906101000a900473ffffffffffffffffffffffffffffffffffffffff1673ffffffffffffffffffffffffffffffffffffffff16148015610b5b575060145f8281526020019081526020015f2060050160019054906101000a900460ff16155b15610b6f578180610b6b90611cf3565b9250505b8080600101915050610ac5565b505f8167ffffffffffffffff811115610b9857610b9761133a565b5b604051908082528060200260200182016040528015610bd157816020015b610bbe611105565b815260200190600190039081610bb65790505b5090505f5f90505f5f90505b601554811015610e8b578573ffffffffffffffffffffffffffffffffffffffff1660145f8381526020019081526020015f205f015f9054906101000a900473ffffffffffffffffffffffffffffffffffffffff1673ffffffffffffffffffffffffffffffffffffffff16148015610c73575060145f8281526020019081526020015f2060050160019054906101000a900460ff16155b15610e7e5760145f8281526020019081526020015f206040518060e00160405290815f82015f9054906101000a900473ffffffffffffffffffffffffffffffffffffffff1673ffffffffffffffffffffffffffffffffffffffff1673ffffffffffffffffffffffffffffffffffffffff168152602001600182018054610cf8906118d9565b80601f0160208091040260200160405190810160405280929190818152602001828054610d24906118d9565b8015610d6f5780601f10610d4657610100808354040283529160200191610d6f565b820191905f5260205f20905b815481529060010190602001808311610d5257829003601f168201915b505050505081526020016002820154815260200160038201548152602001600482018054610d9c906118d9565b80601f0160208091040260200160405190810160405280929190818152602001828054610dc8906118d9565b8015610e135780601f10610dea57610100808354040283529160200191610e13565b820191905f5260205f20905b815481529060010190602001808311610df657829003601f168201915b50505050508152602001600582015f9054906101000a900460ff161515151581526020016005820160019054906101000a900460ff161515151581525050838381518110610e6457610e63611969565b5b60200260200101819052508180610e7a90611cf3565b9250505b8080600101915050610bdd565b50819350505050919050565b600481600c8110610ea6575f80fd5b015f915090505481565b610ebc8484848461057f565b3414610ec6575f5ffd5b5f5f90505f5f90505b6015548110156110bd575f60145f8381526020019081526020015f20905086604051602001610efe91906119d0565b6040516020818303038152906040528051906020012081600101604051602001610f289190611dba565b60405160208183030381529060405280519060200120148015610f5957508060050160019054906101000a900460ff165b156110af5733815f015f6101000a81548173ffffffffffffffffffffffffffffffffffffffff021916908373ffffffffffffffffffffffffffffffffffffffff160217905550600185146110265760028514610fea576040518060400160405280600581526020017f4669727374000000000000000000000000000000000000000000000000000000815250611021565b6040518060400160405280600881526020017f427573696e6573730000000000000000000000000000000000000000000000008152505b61105d565b6040518060400160405280600781526020017f45636f6e6f6d79000000000000000000000000000000000000000000000000008152505b81600401908161106d9190611c24565b5083816005015f6101000a81548160ff0219169083151502179055505f8160050160016101000a81548160ff02191690831515021790555060019250506110bd565b508080600101915050610ecf565b50806110fe576040517f08c379a00000000000000000000000000000000000000000000000000000000081526004016110f590611e40565b60405180910390fd5b5050505050565b6040518060e001604052805f73ffffffffffffffffffffffffffffffffffffffff168152602001606081526020015f81526020015f8152602001606081526020015f151581526020015f151581525090565b5f604051905090565b5f5ffd5b5f5ffd5b5f819050919050565b61117a81611168565b8114611184575f5ffd5b50565b5f8135905061119581611171565b92915050565b5f602082840312156111b0576111af611160565b5b5f6111bd84828501611187565b91505092915050565b5f73ffffffffffffffffffffffffffffffffffffffff82169050919050565b5f6111ef826111c6565b9050919050565b6111ff816111e5565b82525050565b5f81519050919050565b5f82825260208201905092915050565b8281835e5f83830152505050565b5f601f19601f8301169050919050565b5f61124782611205565b611251818561120f565b935061126181856020860161121f565b61126a8161122d565b840191505092915050565b61127e81611168565b82525050565b5f8115159050919050565b61129881611284565b82525050565b5f60e0820190506112b15f83018a6111f6565b81810360208301526112c3818961123d565b90506112d26040830188611275565b6112df6060830187611275565b81810360808301526112f1818661123d565b905061130060a083018561128f565b61130d60c083018461128f565b98975050505050505050565b5f60208201905061132c5f830184611275565b92915050565b5f5ffd5b5f5ffd5b7f4e487b71000000000000000000000000000000000000000000000000000000005f52604160045260245ffd5b6113708261122d565b810181811067ffffffffffffffff8211171561138f5761138e61133a565b5b80604052505050565b5f6113a1611157565b90506113ad8282611367565b919050565b5f67ffffffffffffffff8211156113cc576113cb61133a565b5b6113d58261122d565b9050602081019050919050565b828183375f83830152505050565b5f6114026113fd846113b2565b611398565b90508281526020810184848401111561141e5761141d611336565b5b6114298482856113e2565b509392505050565b5f82601f83011261144557611444611332565b5b81356114558482602086016113f0565b91505092915050565b61146781611284565b8114611471575f5ffd5b50565b5f813590506114828161145e565b92915050565b5f5f5f5f608085870312156114a05761149f611160565b5b5f85013567ffffffffffffffff8111156114bd576114bc611164565b5b6114c987828801611431565b94505060206114da87828801611187565b93505060406114eb87828801611187565b92505060606114fc87828801611474565b91505092959194509250565b611511816111e5565b811461151b575f5ffd5b50565b5f8135905061152c81611508565b92915050565b5f6020828403121561154757611546611160565b5b5f6115548482850161151e565b91505092915050565b5f6020820190506115705f83018461128f565b92915050565b5f6020828403121561158b5761158a611160565b5b5f82013567ffffffffffffffff8111156115a8576115a7611164565b5b6115b484828501611431565b91505092915050565b5f5f5f606084860312156115d4576115d3611160565b5b5f6115e18682870161151e565b935050602084013567ffffffffffffffff81111561160257611601611164565b5b61160e86828701611431565b925050604061161f86828701611187565b9150509250925092565b5f5f6040838503121561163f5761163e611160565b5b5f83013567ffffffffffffffff81111561165c5761165b611164565b5b61166885828601611431565b925050602061167985828601611187565b9150509250929050565b5f6020820190508181035f83015261169b818461123d565b905092915050565b5f6020820190506116b65f8301846111f6565b92915050565b5f81519050919050565b5f82825260208201905092915050565b5f819050602082019050919050565b6116ee816111e5565b82525050565b5f82825260208201905092915050565b5f61170e82611205565b61171881856116f4565b935061172881856020860161121f565b6117318161122d565b840191505092915050565b61174581611168565b82525050565b61175481611284565b82525050565b5f60e083015f83015161176f5f8601826116e5565b50602083015184820360208601526117878282611704565b915050604083015161179c604086018261173c565b5060608301516117af606086018261173c565b50608083015184820360808601526117c78282611704565b91505060a08301516117dc60a086018261174b565b5060c08301516117ef60c086018261174b565b508091505092915050565b5f611805838361175a565b905092915050565b5f602082019050919050565b5f611823826116bc565b61182d81856116c6565b93508360208202850161183f856116d6565b805f5b8581101561187a578484038952815161185b85826117fa565b94506118668361180d565b925060208a01995050600181019050611842565b50829750879550505050505092915050565b5f6020820190508181035f8301526118a48184611819565b905092915050565b7f4e487b71000000000000000000000000000000000000000000000000000000005f52602260045260245ffd5b5f60028204905060018216806118f057607f821691505b602082108103611903576119026118ac565b5b50919050565b7f4e487b71000000000000000000000000000000000000000000000000000000005f52601160045260245ffd5b5f61194082611168565b915061194b83611168565b925082820390508181111561196357611962611909565b5b92915050565b7f4e487b71000000000000000000000000000000000000000000000000000000005f52603260045260245ffd5b5f81905092915050565b5f6119aa82611205565b6119b48185611996565b93506119c481856020860161121f565b80840191505092915050565b5f6119db82846119a0565b915081905092915050565b5f6119f082611168565b91506119fb83611168565b9250828202611a0981611168565b91508282048414831517611a2057611a1f611909565b5b5092915050565b7f4e487b71000000000000000000000000000000000000000000000000000000005f52601260045260245ffd5b5f611a5e82611168565b9150611a6983611168565b925082611a7957611a78611a27565b5b828204905092915050565b5f819050815f5260205f209050919050565b5f6020601f8301049050919050565b5f82821b905092915050565b5f60088302611ae07fffffffffffffffffffffffffffffffffffffffffffffffffffffffffffffffff82611aa5565b611aea8683611aa5565b95508019841693508086168417925050509392505050565b5f819050919050565b5f611b25611b20611b1b84611168565b611b02565b611168565b9050919050565b5f819050919050565b611b3e83611b0b565b611b52611b4a82611b2c565b848454611ab1565b825550505050565b5f5f905090565b611b69611b5a565b611b74818484611b35565b505050565b5b81811015611b9757611b8c5f82611b61565b600181019050611b7a565b5050565b601f821115611bdc57611bad81611a84565b611bb684611a96565b81016020851015611bc5578190505b611bd9611bd185611a96565b830182611b79565b50505b505050565b5f82821c905092915050565b5f611bfc5f1984600802611be1565b1980831691505092915050565b5f611c148383611bed565b9150826002028217905092915050565b611c2d82611205565b67ffffffffffffffff811115611c4657611c4561133a565b5b611c5082546118d9565b611c5b828285611b9b565b5f60209050601f831160018114611c8c575f8415611c7a578287015190505b611c848582611c09565b865550611ceb565b601f198416611c9a86611a84565b5f5b82811015611cc157848901518255600182019150602085019450602081019050611c9c565b86831015611cde5784890151611cda601f891682611bed565b8355505b6001600288020188555050505b505050505050565b5f611cfd82611168565b91507fffffffffffffffffffffffffffffffffffffffffffffffffffffffffffffffff8203611d2f57611d2e611909565b5b600182019050919050565b5f8154611d46816118d9565b611d508186611996565b9450600182165f8114611d6a5760018114611d7f57611db1565b60ff1983168652811515820286019350611db1565b611d8885611a84565b5f5b83811015611da957815481890152600182019150602081019050611d8a565b838801955050505b50505092915050565b5f611dc58284611d3a565b915081905092915050565b7f4e6f20617661696c61626c65207469636b65747320666f7220746865207370655f8201527f6369666965642064657374696e6174696f6e0000000000000000000000000000602082015250565b5f611e2a60328361120f565b9150611e3582611dd0565b604082019050919050565b5f6020820190508181035f830152611e5781611e1e565b905091905056fea2646970667358221220b6ac5a4c3e4cb78c55856bc3a887cb8d737aea4056df7c7c8b76c1ec9443486d64736f6c634300081c0033","opcodes":"PUSH1 0x80 PUSH1 0x40 MSTORE CALLVALUE DUP1 ISZERO PUSH2 0xF JUMPI PUSH0 PUSH0 REVERT JUMPDEST POP PUSH1 0x40 MLOAD PUSH2 0x28B7 CODESIZE SUB DUP1 PUSH2 0x28B7 DUP4 CODECOPY DUP2 DUP2 ADD PUSH1 0x40 MSTORE DUP2 ADD SWAP1 PUSH2 0x31 SWAP2 SWAP1 PUSH2 0x5F5 JUMP JUMPDEST CALLER PUSH0 PUSH0 PUSH2 0x100 EXP DUP2 SLOAD DUP2 PUSH20 0xFFFFFFFFFFFFFFFFFFFFFFFFFFFFFFFFFFFFFFFF MUL NOT AND SWAP1 DUP4 PUSH20 0xFFFFFFFFFFFFFFFFFFFFFFFFFFFFFFFFFFFFFFFF AND MUL OR SWAP1 SSTORE POP PUSH0 PUSH1 0x13 DUP2 SWAP1 SSTORE POP PUSH1 0x1 DUP3 SWAP1 DUP1 PUSH1 0x1 DUP2 SLOAD ADD DUP1 DUP3 SSTORE DUP1 SWAP2 POP POP PUSH1 0x1 SWAP1 SUB SWAP1 PUSH0 MSTORE PUSH1 0x20 PUSH0 KECCAK256 ADD PUSH0 SWAP1 SWAP2 SWAP1 SWAP2 SWAP1 SWAP2 POP SWAP1 DUP2 PUSH2 0xA8 SWAP2 SWAP1 PUSH2 0x856 JUMP JUMPDEST POP PUSH1 0x2 DUP2 SWAP1 DUP1 PUSH1 0x1 DUP2 SLOAD ADD DUP1 DUP3 SSTORE DUP1 SWAP2 POP POP PUSH1 0x1 SWAP1 SUB SWAP1 PUSH0 MSTORE PUSH1 0x20 PUSH0 KECCAK256 ADD PUSH0 SWAP1 SWAP2 SWAP1 SWAP2 SWAP1 SWAP2 POP SSTORE PUSH1 0x13 SLOAD PUSH1 0x3 DUP4 PUSH1 0x40 MLOAD PUSH2 0xE2 SWAP2 SWAP1 PUSH2 0x95F JUMP JUMPDEST SWAP1 DUP2 MSTORE PUSH1 0x20 ADD PUSH1 0x40 MLOAD DUP1 SWAP2 SUB SWAP1 KECCAK256 DUP2 SWAP1 SSTORE POP PUSH2 0x105 CALLER DUP4 DUP4 PUSH2 0x2AC PUSH1 0x20 SHL PUSH1 0x20 SHR JUMP JUMPDEST PUSH1 0x3 PUSH1 0x4 PUSH0 PUSH1 0xC DUP2 LT PUSH2 0x11B JUMPI PUSH2 0x11A PUSH2 0x975 JUMP JUMPDEST JUMPDEST ADD DUP2 SWAP1 SSTORE POP PUSH1 0x2 PUSH1 0x4 PUSH1 0x1 PUSH1 0xC DUP2 LT PUSH2 0x137 JUMPI PUSH2 0x136 PUSH2 0x975 JUMP JUMPDEST JUMPDEST ADD DUP2 SWAP1 SSTORE POP PUSH1 0x4 DUP1 PUSH1 0x2 PUSH1 0xC DUP2 LT PUSH2 0x152 JUMPI PUSH2 0x151 PUSH2 0x975 JUMP JUMPDEST JUMPDEST ADD DUP2 SWAP1 SSTORE POP PUSH1 0x5 PUSH1 0x4 PUSH1 0x3 PUSH1 0xC DUP2 LT PUSH2 0x16E JUMPI PUSH2 0x16D PUSH2 0x975 JUMP JUMPDEST JUMPDEST ADD DUP2 SWAP1 SSTORE POP PUSH1 0x3 PUSH1 0x4 DUP1 PUSH1 0xC DUP2 LT PUSH2 0x189 JUMPI PUSH2 0x188 PUSH2 0x975 JUMP JUMPDEST JUMPDEST ADD DUP2 SWAP1 SSTORE POP PUSH1 0xC PUSH1 0x4 PUSH1 0x5 PUSH1 0xC DUP2 LT PUSH2 0x1A5 JUMPI PUSH2 0x1A4 PUSH2 0x975 JUMP JUMPDEST JUMPDEST ADD DUP2 SWAP1 SSTORE POP PUSH1 0xB PUSH1 0x4 PUSH1 0x6 PUSH1 0xC DUP2 LT PUSH2 0x1C1 JUMPI PUSH2 0x1C0 PUSH2 0x975 JUMP JUMPDEST JUMPDEST ADD DUP2 SWAP1 SSTORE POP PUSH1 0xC PUSH1 0x4 PUSH1 0x7 PUSH1 0xC DUP2 LT PUSH2 0x1DD JUMPI PUSH2 0x1DC PUSH2 0x975 JUMP JUMPDEST JUMPDEST ADD DUP2 SWAP1 SSTORE POP PUSH1 0xF PUSH1 0x4 PUSH1 0x8 PUSH1 0xC DUP2 LT PUSH2 0x1F9 JUMPI PUSH2 0x1F8 PUSH2 0x975 JUMP JUMPDEST JUMPDEST ADD DUP2 SWAP1 SSTORE POP PUSH1 0xE PUSH1 0x4 PUSH1 0x9 PUSH1 0xC DUP2 LT PUSH2 0x215 JUMPI PUSH2 0x214 PUSH2 0x975 JUMP JUMPDEST JUMPDEST ADD DUP2 SWAP1 SSTORE POP PUSH1 0xB PUSH1 0x4 PUSH1 0xA PUSH1 0xC DUP2 LT PUSH2 0x231 JUMPI PUSH2 0x230 PUSH2 0x975 JUMP JUMPDEST JUMPDEST ADD DUP2 SWAP1 SSTORE POP PUSH1 0xD PUSH1 0x4 PUSH1 0xB PUSH1 0xC DUP2 LT PUSH2 0x24D JUMPI PUSH2 0x24C PUSH2 0x975 JUMP JUMPDEST JUMPDEST ADD DUP2 SWAP1 SSTORE POP PUSH1 0x1 PUSH1 0x10 PUSH0 PUSH1 0x3 DUP2 LT PUSH2 0x268 JUMPI PUSH2 0x267 PUSH2 0x975 JUMP JUMPDEST JUMPDEST ADD DUP2 SWAP1 SSTORE POP PUSH1 0x2 PUSH1 0x10 PUSH1 0x1 PUSH1 0x3 DUP2 LT PUSH2 0x284 JUMPI PUSH2 0x283 PUSH2 0x975 JUMP JUMPDEST JUMPDEST ADD DUP2 SWAP1 SSTORE POP PUSH1 0x3 PUSH1 0x10 PUSH1 0x2 PUSH1 0x3 DUP2 LT PUSH2 0x2A0 JUMPI PUSH2 0x29F PUSH2 0x975 JUMP JUMPDEST JUMPDEST ADD DUP2 SWAP1 SSTORE POP POP POP PUSH2 0xA16 JUMP JUMPDEST PUSH0 PUSH0 SWAP1 SLOAD SWAP1 PUSH2 0x100 EXP SWAP1 DIV PUSH20 0xFFFFFFFFFFFFFFFFFFFFFFFFFFFFFFFFFFFFFFFF AND PUSH20 0xFFFFFFFFFFFFFFFFFFFFFFFFFFFFFFFFFFFFFFFF AND CALLER PUSH20 0xFFFFFFFFFFFFFFFFFFFFFFFFFFFFFFFFFFFFFFFF AND EQ PUSH2 0x303 JUMPI PUSH0 PUSH0 REVERT JUMPDEST PUSH0 PUSH0 SWAP1 POP JUMPDEST PUSH1 0x1E DUP2 LT ISZERO PUSH2 0x46F JUMPI PUSH0 PUSH1 0x15 SLOAD SWAP1 POP PUSH1 0x40 MLOAD DUP1 PUSH1 0xE0 ADD PUSH1 0x40 MSTORE DUP1 DUP7 PUSH20 0xFFFFFFFFFFFFFFFFFFFFFFFFFFFFFFFFFFFFFFFF AND DUP2 MSTORE PUSH1 0x20 ADD DUP6 DUP2 MSTORE PUSH1 0x20 ADD DUP5 DUP2 MSTORE PUSH1 0x20 ADD DUP4 DUP2 MSTORE PUSH1 0x20 ADD PUSH1 0x40 MLOAD DUP1 PUSH1 0x20 ADD PUSH1 0x40 MSTORE DUP1 PUSH0 DUP2 MSTORE POP DUP2 MSTORE PUSH1 0x20 ADD PUSH0 ISZERO ISZERO DUP2 MSTORE PUSH1 0x20 ADD PUSH1 0x1 ISZERO ISZERO DUP2 MSTORE POP PUSH1 0x14 PUSH0 DUP4 DUP2 MSTORE PUSH1 0x20 ADD SWAP1 DUP2 MSTORE PUSH1 0x20 ADD PUSH0 KECCAK256 PUSH0 DUP3 ADD MLOAD DUP2 PUSH0 ADD PUSH0 PUSH2 0x100 EXP DUP2 SLOAD DUP2 PUSH20 0xFFFFFFFFFFFFFFFFFFFFFFFFFFFFFFFFFFFFFFFF MUL NOT AND SWAP1 DUP4 PUSH20 0xFFFFFFFFFFFFFFFFFFFFFFFFFFFFFFFFFFFFFFFF AND MUL OR SWAP1 SSTORE POP PUSH1 0x20 DUP3 ADD MLOAD DUP2 PUSH1 0x1 ADD SWAP1 DUP2 PUSH2 0x3DD SWAP2 SWAP1 PUSH2 0x856 JUMP JUMPDEST POP PUSH1 0x40 DUP3 ADD MLOAD DUP2 PUSH1 0x2 ADD SSTORE PUSH1 0x60 DUP3 ADD MLOAD DUP2 PUSH1 0x3 ADD SSTORE PUSH1 0x80 DUP3 ADD MLOAD DUP2 PUSH1 0x4 ADD SWAP1 DUP2 PUSH2 0x407 SWAP2 SWAP1 PUSH2 0x856 JUMP JUMPDEST POP PUSH1 0xA0 DUP3 ADD MLOAD DUP2 PUSH1 0x5 ADD PUSH0 PUSH2 0x100 EXP DUP2 SLOAD DUP2 PUSH1 0xFF MUL NOT AND SWAP1 DUP4 ISZERO ISZERO MUL OR SWAP1 SSTORE POP PUSH1 0xC0 DUP3 ADD MLOAD DUP2 PUSH1 0x5 ADD PUSH1 0x1 PUSH2 0x100 EXP DUP2 SLOAD DUP2 PUSH1 0xFF MUL NOT AND SWAP1 DUP4 ISZERO ISZERO MUL OR SWAP1 SSTORE POP SWAP1 POP POP PUSH1 0x15 PUSH0 DUP2 SLOAD DUP1 SWAP3 SWAP2 SWAP1 PUSH2 0x45C SWAP1 PUSH2 0x9CF JUMP JUMPDEST SWAP2 SWAP1 POP SSTORE POP POP DUP1 DUP1 PUSH1 0x1 ADD SWAP2 POP POP PUSH2 0x308 JUMP JUMPDEST POP POP POP POP JUMP JUMPDEST PUSH0 PUSH1 0x40 MLOAD SWAP1 POP SWAP1 JUMP JUMPDEST PUSH0 PUSH0 REVERT JUMPDEST PUSH0 PUSH0 REVERT JUMPDEST PUSH0 PUSH0 REVERT JUMPDEST PUSH0 PUSH0 REVERT JUMPDEST PUSH0 PUSH1 0x1F NOT PUSH1 0x1F DUP4 ADD AND SWAP1 POP SWAP2 SWAP1 POP JUMP JUMPDEST PUSH32 0x4E487B7100000000000000000000000000000000000000000000000000000000 PUSH0 MSTORE PUSH1 0x41 PUSH1 0x4 MSTORE PUSH1 0x24 PUSH0 REVERT JUMPDEST PUSH2 0x4D4 DUP3 PUSH2 0x48E JUMP JUMPDEST DUP2 ADD DUP2 DUP2 LT PUSH8 0xFFFFFFFFFFFFFFFF DUP3 GT OR ISZERO PUSH2 0x4F3 JUMPI PUSH2 0x4F2 PUSH2 0x49E JUMP JUMPDEST JUMPDEST DUP1 PUSH1 0x40 MSTORE POP POP POP JUMP JUMPDEST PUSH0 PUSH2 0x505 PUSH2 0x475 JUMP JUMPDEST SWAP1 POP PUSH2 0x511 DUP3 DUP3 PUSH2 0x4CB JUMP JUMPDEST SWAP2 SWAP1 POP JUMP JUMPDEST PUSH0 PUSH8 0xFFFFFFFFFFFFFFFF DUP3 GT ISZERO PUSH2 0x530 JUMPI PUSH2 0x52F PUSH2 0x49E JUMP JUMPDEST JUMPDEST PUSH2 0x539 DUP3 PUSH2 0x48E JUMP JUMPDEST SWAP1 POP PUSH1 0x20 DUP2 ADD SWAP1 POP SWAP2 SWAP1 POP JUMP JUMPDEST DUP3 DUP2 DUP4 MCOPY PUSH0 DUP4 DUP4 ADD MSTORE POP POP POP JUMP JUMPDEST PUSH0 PUSH2 0x566 PUSH2 0x561 DUP5 PUSH2 0x516 JUMP JUMPDEST PUSH2 0x4FC JUMP JUMPDEST SWAP1 POP DUP3 DUP2 MSTORE PUSH1 0x20 DUP2 ADD DUP5 DUP5 DUP5 ADD GT ISZERO PUSH2 0x582 JUMPI PUSH2 0x581 PUSH2 0x48A JUMP JUMPDEST JUMPDEST PUSH2 0x58D DUP5 DUP3 DUP6 PUSH2 0x546 JUMP JUMPDEST POP SWAP4 SWAP3 POP POP POP JUMP JUMPDEST PUSH0 DUP3 PUSH1 0x1F DUP4 ADD SLT PUSH2 0x5A9 JUMPI PUSH2 0x5A8 PUSH2 0x486 JUMP JUMPDEST JUMPDEST DUP2 MLOAD PUSH2 0x5B9 DUP5 DUP3 PUSH1 0x20 DUP7 ADD PUSH2 0x554 JUMP JUMPDEST SWAP2 POP POP SWAP3 SWAP2 POP POP JUMP JUMPDEST PUSH0 DUP2 SWAP1 POP SWAP2 SWAP1 POP JUMP JUMPDEST PUSH2 0x5D4 DUP2 PUSH2 0x5C2 JUMP JUMPDEST DUP2 EQ PUSH2 0x5DE JUMPI PUSH0 PUSH0 REVERT JUMPDEST POP JUMP JUMPDEST PUSH0 DUP2 MLOAD SWAP1 POP PUSH2 0x5EF DUP2 PUSH2 0x5CB JUMP JUMPDEST SWAP3 SWAP2 POP POP JUMP JUMPDEST PUSH0 PUSH0 PUSH1 0x40 DUP4 DUP6 SUB SLT ISZERO PUSH2 0x60B JUMPI PUSH2 0x60A PUSH2 0x47E JUMP JUMPDEST JUMPDEST PUSH0 DUP4 ADD MLOAD PUSH8 0xFFFFFFFFFFFFFFFF DUP2 GT ISZERO PUSH2 0x628 JUMPI PUSH2 0x627 PUSH2 0x482 JUMP JUMPDEST JUMPDEST PUSH2 0x634 DUP6 DUP3 DUP7 ADD PUSH2 0x595 JUMP JUMPDEST SWAP3 POP POP PUSH1 0x20 PUSH2 0x645 DUP6 DUP3 DUP7 ADD PUSH2 0x5E1 JUMP JUMPDEST SWAP2 POP POP SWAP3 POP SWAP3 SWAP1 POP JUMP JUMPDEST PUSH0 DUP2 MLOAD SWAP1 POP SWAP2 SWAP1 POP JUMP JUMPDEST PUSH32 0x4E487B7100000000000000000000000000000000000000000000000000000000 PUSH0 MSTORE PUSH1 0x22 PUSH1 0x4 MSTORE PUSH1 0x24 PUSH0 REVERT JUMPDEST PUSH0 PUSH1 0x2 DUP3 DIV SWAP1 POP PUSH1 0x1 DUP3 AND DUP1 PUSH2 0x69D JUMPI PUSH1 0x7F DUP3 AND SWAP2 POP JUMPDEST PUSH1 0x20 DUP3 LT DUP2 SUB PUSH2 0x6B0 JUMPI PUSH2 0x6AF PUSH2 0x659 JUMP JUMPDEST JUMPDEST POP SWAP2 SWAP1 POP JUMP JUMPDEST PUSH0 DUP2 SWAP1 POP DUP2 PUSH0 MSTORE PUSH1 0x20 PUSH0 KECCAK256 SWAP1 POP SWAP2 SWAP1 POP JUMP JUMPDEST PUSH0 PUSH1 0x20 PUSH1 0x1F DUP4 ADD DIV SWAP1 POP SWAP2 SWAP1 POP JUMP JUMPDEST PUSH0 DUP3 DUP3 SHL SWAP1 POP SWAP3 SWAP2 POP POP JUMP JUMPDEST PUSH0 PUSH1 0x8 DUP4 MUL PUSH2 0x712 PUSH32 0xFFFFFFFFFFFFFFFFFFFFFFFFFFFFFFFFFFFFFFFFFFFFFFFFFFFFFFFFFFFFFFFF DUP3 PUSH2 0x6D7 JUMP JUMPDEST PUSH2 0x71C DUP7 DUP4 PUSH2 0x6D7 JUMP JUMPDEST SWAP6 POP DUP1 NOT DUP5 AND SWAP4 POP DUP1 DUP7 AND DUP5 OR SWAP3 POP POP POP SWAP4 SWAP3 POP POP POP JUMP JUMPDEST PUSH0 DUP2 SWAP1 POP SWAP2 SWAP1 POP JUMP JUMPDEST PUSH0 PUSH2 0x757 PUSH2 0x752 PUSH2 0x74D DUP5 PUSH2 0x5C2 JUMP JUMPDEST PUSH2 0x734 JUMP JUMPDEST PUSH2 0x5C2 JUMP JUMPDEST SWAP1 POP SWAP2 SWAP1 POP JUMP JUMPDEST PUSH0 DUP2 SWAP1 POP SWAP2 SWAP1 POP JUMP JUMPDEST PUSH2 0x770 DUP4 PUSH2 0x73D JUMP JUMPDEST PUSH2 0x784 PUSH2 0x77C DUP3 PUSH2 0x75E JUMP JUMPDEST DUP5 DUP5 SLOAD PUSH2 0x6E3 JUMP JUMPDEST DUP3 SSTORE POP POP POP POP JUMP JUMPDEST PUSH0 PUSH0 SWAP1 POP SWAP1 JUMP JUMPDEST PUSH2 0x79B PUSH2 0x78C JUMP JUMPDEST PUSH2 0x7A6 DUP2 DUP5 DUP5 PUSH2 0x767 JUMP JUMPDEST POP POP POP JUMP JUMPDEST JUMPDEST DUP2 DUP2 LT ISZERO PUSH2 0x7C9 JUMPI PUSH2 0x7BE PUSH0 DUP3 PUSH2 0x793 JUMP JUMPDEST PUSH1 0x1 DUP2 ADD SWAP1 POP PUSH2 0x7AC JUMP JUMPDEST POP POP JUMP JUMPDEST PUSH1 0x1F DUP3 GT ISZERO PUSH2 0x80E JUMPI PUSH2 0x7DF DUP2 PUSH2 0x6B6 JUMP JUMPDEST PUSH2 0x7E8 DUP5 PUSH2 0x6C8 JUMP JUMPDEST DUP2 ADD PUSH1 0x20 DUP6 LT ISZERO PUSH2 0x7F7 JUMPI DUP2 SWAP1 POP JUMPDEST PUSH2 0x80B PUSH2 0x803 DUP6 PUSH2 0x6C8 JUMP JUMPDEST DUP4 ADD DUP3 PUSH2 0x7AB JUMP JUMPDEST POP POP JUMPDEST POP POP POP JUMP JUMPDEST PUSH0 DUP3 DUP3 SHR SWAP1 POP SWAP3 SWAP2 POP POP JUMP JUMPDEST PUSH0 PUSH2 0x82E PUSH0 NOT DUP5 PUSH1 0x8 MUL PUSH2 0x813 JUMP JUMPDEST NOT DUP1 DUP4 AND SWAP2 POP POP SWAP3 SWAP2 POP POP JUMP JUMPDEST PUSH0 PUSH2 0x846 DUP4 DUP4 PUSH2 0x81F JUMP JUMPDEST SWAP2 POP DUP3 PUSH1 0x2 MUL DUP3 OR SWAP1 POP SWAP3 SWAP2 POP POP JUMP JUMPDEST PUSH2 0x85F DUP3 PUSH2 0x64F JUMP JUMPDEST PUSH8 0xFFFFFFFFFFFFFFFF DUP2 GT ISZERO PUSH2 0x878 JUMPI PUSH2 0x877 PUSH2 0x49E JUMP JUMPDEST JUMPDEST PUSH2 0x882 DUP3 SLOAD PUSH2 0x686 JUMP JUMPDEST PUSH2 0x88D DUP3 DUP3 DUP6 PUSH2 0x7CD JUMP JUMPDEST PUSH0 PUSH1 0x20 SWAP1 POP PUSH1 0x1F DUP4 GT PUSH1 0x1 DUP2 EQ PUSH2 0x8BE JUMPI PUSH0 DUP5 ISZERO PUSH2 0x8AC JUMPI DUP3 DUP8 ADD MLOAD SWAP1 POP JUMPDEST PUSH2 0x8B6 DUP6 DUP3 PUSH2 0x83B JUMP JUMPDEST DUP7 SSTORE POP PUSH2 0x91D JUMP JUMPDEST PUSH1 0x1F NOT DUP5 AND PUSH2 0x8CC DUP7 PUSH2 0x6B6 JUMP JUMPDEST PUSH0 JUMPDEST DUP3 DUP2 LT ISZERO PUSH2 0x8F3 JUMPI DUP5 DUP10 ADD MLOAD DUP3 SSTORE PUSH1 0x1 DUP3 ADD SWAP2 POP PUSH1 0x20 DUP6 ADD SWAP5 POP PUSH1 0x20 DUP2 ADD SWAP1 POP PUSH2 0x8CE JUMP JUMPDEST DUP7 DUP4 LT ISZERO PUSH2 0x910 JUMPI DUP5 DUP10 ADD MLOAD PUSH2 0x90C PUSH1 0x1F DUP10 AND DUP3 PUSH2 0x81F JUMP JUMPDEST DUP4 SSTORE POP JUMPDEST PUSH1 0x1 PUSH1 0x2 DUP9 MUL ADD DUP9 SSTORE POP POP POP JUMPDEST POP POP POP POP POP POP JUMP JUMPDEST PUSH0 DUP2 SWAP1 POP SWAP3 SWAP2 POP POP JUMP JUMPDEST PUSH0 PUSH2 0x939 DUP3 PUSH2 0x64F JUMP JUMPDEST PUSH2 0x943 DUP2 DUP6 PUSH2 0x925 JUMP JUMPDEST SWAP4 POP PUSH2 0x953 DUP2 DUP6 PUSH1 0x20 DUP7 ADD PUSH2 0x546 JUMP JUMPDEST DUP1 DUP5 ADD SWAP2 POP POP SWAP3 SWAP2 POP POP JUMP JUMPDEST PUSH0 PUSH2 0x96A DUP3 DUP5 PUSH2 0x92F JUMP JUMPDEST SWAP2 POP DUP2 SWAP1 POP SWAP3 SWAP2 POP POP JUMP JUMPDEST PUSH32 0x4E487B7100000000000000000000000000000000000000000000000000000000 PUSH0 MSTORE PUSH1 0x32 PUSH1 0x4 MSTORE PUSH1 0x24 PUSH0 REVERT JUMPDEST PUSH32 0x4E487B7100000000000000000000000000000000000000000000000000000000 PUSH0 MSTORE PUSH1 0x11 PUSH1 0x4 MSTORE PUSH1 0x24 PUSH0 REVERT JUMPDEST PUSH0 PUSH2 0x9D9 DUP3 PUSH2 0x5C2 JUMP JUMPDEST SWAP2 POP PUSH32 0xFFFFFFFFFFFFFFFFFFFFFFFFFFFFFFFFFFFFFFFFFFFFFFFFFFFFFFFFFFFFFFFF DUP3 SUB PUSH2 0xA0B JUMPI PUSH2 0xA0A PUSH2 0x9A2 JUMP JUMPDEST JUMPDEST PUSH1 0x1 DUP3 ADD SWAP1 POP SWAP2 SWAP1 POP JUMP JUMPDEST PUSH2 0x1E94 DUP1 PUSH2 0xA23 PUSH0 CODECOPY PUSH0 RETURN INVALID PUSH1 0x80 PUSH1 0x40 MSTORE PUSH1 0x4 CALLDATASIZE LT PUSH2 0xE7 JUMPI PUSH0 CALLDATALOAD PUSH1 0xE0 SHR DUP1 PUSH4 0x5E583E37 GT PUSH2 0x89 JUMPI DUP1 PUSH4 0x908921FC GT PUSH2 0x58 JUMPI DUP1 PUSH4 0x908921FC EQ PUSH2 0x339 JUMPI DUP1 PUSH4 0xAD03FE70 EQ PUSH2 0x363 JUMPI DUP1 PUSH4 0xCB2CC82A EQ PUSH2 0x39F JUMPI DUP1 PUSH4 0xEA6E358E EQ PUSH2 0x3DB JUMPI PUSH2 0xE7 JUMP JUMPDEST DUP1 PUSH4 0x5E583E37 EQ PUSH2 0x26F JUMPI DUP1 PUSH4 0x6031A52F EQ PUSH2 0x297 JUMPI DUP1 PUSH4 0x695DC67E EQ PUSH2 0x2C1 JUMPI DUP1 PUSH4 0x8DD4BA2E EQ PUSH2 0x2FD JUMPI PUSH2 0xE7 JUMP JUMPDEST DUP1 PUSH4 0x1165E6AB GT PUSH2 0xC5 JUMPI DUP1 PUSH4 0x1165E6AB EQ PUSH2 0x193 JUMPI DUP1 PUSH4 0x195C1445 EQ PUSH2 0x1CF JUMPI DUP1 PUSH4 0x2427E59E EQ PUSH2 0x20B JUMPI DUP1 PUSH4 0x4AFE9F7B EQ PUSH2 0x247 JUMPI PUSH2 0xE7 JUMP JUMPDEST DUP1 PUSH4 0x33FAB35 EQ PUSH2 0xEB JUMPI DUP1 PUSH4 0x6661ABD EQ PUSH2 0x12D JUMPI DUP1 PUSH4 0x7819BD6 EQ PUSH2 0x157 JUMPI JUMPDEST PUSH0 PUSH0 REVERT JUMPDEST CALLVALUE DUP1 ISZERO PUSH2 0xF6 JUMPI PUSH0 PUSH0 REVERT JUMPDEST POP PUSH2 0x111 PUSH1 0x4 DUP1 CALLDATASIZE SUB DUP2 ADD SWAP1 PUSH2 0x10C SWAP2 SWAP1 PUSH2 0x119B JUMP JUMPDEST PUSH2 0x3F7 JUMP JUMPDEST PUSH1 0x40 MLOAD PUSH2 0x124 SWAP8 SWAP7 SWAP6 SWAP5 SWAP4 SWAP3 SWAP2 SWAP1 PUSH2 0x129E JUMP JUMPDEST PUSH1 0x40 MLOAD DUP1 SWAP2 SUB SWAP1 RETURN JUMPDEST CALLVALUE DUP1 ISZERO PUSH2 0x138 JUMPI PUSH0 PUSH0 REVERT JUMPDEST POP PUSH2 0x141 PUSH2 0x579 JUMP JUMPDEST PUSH1 0x40 MLOAD PUSH2 0x14E SWAP2 SWAP1 PUSH2 0x1319 JUMP JUMPDEST PUSH1 0x40 MLOAD DUP1 SWAP2 SUB SWAP1 RETURN JUMPDEST CALLVALUE DUP1 ISZERO PUSH2 0x162 JUMPI PUSH0 PUSH0 REVERT JUMPDEST POP PUSH2 0x17D PUSH1 0x4 DUP1 CALLDATASIZE SUB DUP2 ADD SWAP1 PUSH2 0x178 SWAP2 SWAP1 PUSH2 0x1488 JUMP JUMPDEST PUSH2 0x57F JUMP JUMPDEST PUSH1 0x40 MLOAD PUSH2 0x18A SWAP2 SWAP1 PUSH2 0x1319 JUMP JUMPDEST PUSH1 0x40 MLOAD DUP1 SWAP2 SUB SWAP1 RETURN JUMPDEST CALLVALUE DUP1 ISZERO PUSH2 0x19E JUMPI PUSH0 PUSH0 REVERT JUMPDEST POP PUSH2 0x1B9 PUSH1 0x4 DUP1 CALLDATASIZE SUB DUP2 ADD SWAP1 PUSH2 0x1B4 SWAP2 SWAP1 PUSH2 0x1532 JUMP JUMPDEST PUSH2 0x66E JUMP JUMPDEST PUSH1 0x40 MLOAD PUSH2 0x1C6 SWAP2 SWAP1 PUSH2 0x155D JUMP JUMPDEST PUSH1 0x40 MLOAD DUP1 SWAP2 SUB SWAP1 RETURN JUMPDEST CALLVALUE DUP1 ISZERO PUSH2 0x1DA JUMPI PUSH0 PUSH0 REVERT JUMPDEST POP PUSH2 0x1F5 PUSH1 0x4 DUP1 CALLDATASIZE SUB DUP2 ADD SWAP1 PUSH2 0x1F0 SWAP2 SWAP1 PUSH2 0x119B JUMP JUMPDEST PUSH2 0x6C5 JUMP JUMPDEST PUSH1 0x40 MLOAD PUSH2 0x202 SWAP2 SWAP1 PUSH2 0x1319 JUMP JUMPDEST PUSH1 0x40 MLOAD DUP1 SWAP2 SUB SWAP1 RETURN JUMPDEST CALLVALUE DUP1 ISZERO PUSH2 0x216 JUMPI PUSH0 PUSH0 REVERT JUMPDEST POP PUSH2 0x231 PUSH1 0x4 DUP1 CALLDATASIZE SUB DUP2 ADD SWAP1 PUSH2 0x22C SWAP2 SWAP1 PUSH2 0x1576 JUMP JUMPDEST PUSH2 0x6E5 JUMP JUMPDEST PUSH1 0x40 MLOAD PUSH2 0x23E SWAP2 SWAP1 PUSH2 0x1319 JUMP JUMPDEST PUSH1 0x40 MLOAD DUP1 SWAP2 SUB SWAP1 RETURN JUMPDEST CALLVALUE DUP1 ISZERO PUSH2 0x252 JUMPI PUSH0 PUSH0 REVERT JUMPDEST POP PUSH2 0x26D PUSH1 0x4 DUP1 CALLDATASIZE SUB DUP2 ADD SWAP1 PUSH2 0x268 SWAP2 SWAP1 PUSH2 0x15BD JUMP JUMPDEST PUSH2 0x712 JUMP JUMPDEST STOP JUMPDEST CALLVALUE DUP1 ISZERO PUSH2 0x27A JUMPI PUSH0 PUSH0 REVERT JUMPDEST POP PUSH2 0x295 PUSH1 0x4 DUP1 CALLDATASIZE SUB DUP2 ADD SWAP1 PUSH2 0x290 SWAP2 SWAP1 PUSH2 0x1629 JUMP JUMPDEST PUSH2 0x8DB JUMP JUMPDEST STOP JUMPDEST CALLVALUE DUP1 ISZERO PUSH2 0x2A2 JUMPI PUSH0 PUSH0 REVERT JUMPDEST POP PUSH2 0x2AB PUSH2 0x9D1 JUMP JUMPDEST PUSH1 0x40 MLOAD PUSH2 0x2B8 SWAP2 SWAP1 PUSH2 0x1319 JUMP JUMPDEST PUSH1 0x40 MLOAD DUP1 SWAP2 SUB SWAP1 RETURN JUMPDEST CALLVALUE DUP1 ISZERO PUSH2 0x2CC JUMPI PUSH0 PUSH0 REVERT JUMPDEST POP PUSH2 0x2E7 PUSH1 0x4 DUP1 CALLDATASIZE SUB DUP2 ADD SWAP1 PUSH2 0x2E2 SWAP2 SWAP1 PUSH2 0x119B JUMP JUMPDEST PUSH2 0x9D7 JUMP JUMPDEST PUSH1 0x40 MLOAD PUSH2 0x2F4 SWAP2 SWAP1 PUSH2 0x1319 JUMP JUMPDEST PUSH1 0x40 MLOAD DUP1 SWAP2 SUB SWAP1 RETURN JUMPDEST CALLVALUE DUP1 ISZERO PUSH2 0x308 JUMPI PUSH0 PUSH0 REVERT JUMPDEST POP PUSH2 0x323 PUSH1 0x4 DUP1 CALLDATASIZE SUB DUP2 ADD SWAP1 PUSH2 0x31E SWAP2 SWAP1 PUSH2 0x119B JUMP JUMPDEST PUSH2 0x9F0 JUMP JUMPDEST PUSH1 0x40 MLOAD PUSH2 0x330 SWAP2 SWAP1 PUSH2 0x1683 JUMP JUMPDEST PUSH1 0x40 MLOAD DUP1 SWAP2 SUB SWAP1 RETURN JUMPDEST CALLVALUE DUP1 ISZERO PUSH2 0x344 JUMPI PUSH0 PUSH0 REVERT JUMPDEST POP PUSH2 0x34D PUSH2 0xA96 JUMP JUMPDEST PUSH1 0x40 MLOAD PUSH2 0x35A SWAP2 SWAP1 PUSH2 0x16A3 JUMP JUMPDEST PUSH1 0x40 MLOAD DUP1 SWAP2 SUB SWAP1 RETURN JUMPDEST CALLVALUE DUP1 ISZERO PUSH2 0x36E JUMPI PUSH0 PUSH0 REVERT JUMPDEST POP PUSH2 0x389 PUSH1 0x4 DUP1 CALLDATASIZE SUB DUP2 ADD SWAP1 PUSH2 0x384 SWAP2 SWAP1 PUSH2 0x1532 JUMP JUMPDEST PUSH2 0xABA JUMP JUMPDEST PUSH1 0x40 MLOAD PUSH2 0x396 SWAP2 SWAP1 PUSH2 0x188C JUMP JUMPDEST PUSH1 0x40 MLOAD DUP1 SWAP2 SUB SWAP1 RETURN JUMPDEST CALLVALUE DUP1 ISZERO PUSH2 0x3AA JUMPI PUSH0 PUSH0 REVERT JUMPDEST POP PUSH2 0x3C5 PUSH1 0x4 DUP1 CALLDATASIZE SUB DUP2 ADD SWAP1 PUSH2 0x3C0 SWAP2 SWAP1 PUSH2 0x119B JUMP JUMPDEST PUSH2 0xE97 JUMP JUMPDEST PUSH1 0x40 MLOAD PUSH2 0x3D2 SWAP2 SWAP1 PUSH2 0x1319 JUMP JUMPDEST PUSH1 0x40 MLOAD DUP1 SWAP2 SUB SWAP1 RETURN JUMPDEST PUSH2 0x3F5 PUSH1 0x4 DUP1 CALLDATASIZE SUB DUP2 ADD SWAP1 PUSH2 0x3F0 SWAP2 SWAP1 PUSH2 0x1488 JUMP JUMPDEST PUSH2 0xEB0 JUMP JUMPDEST STOP JUMPDEST PUSH1 0x14 PUSH1 0x20 MSTORE DUP1 PUSH0 MSTORE PUSH1 0x40 PUSH0 KECCAK256 PUSH0 SWAP2 POP SWAP1 POP DUP1 PUSH0 ADD PUSH0 SWAP1 SLOAD SWAP1 PUSH2 0x100 EXP SWAP1 DIV PUSH20 0xFFFFFFFFFFFFFFFFFFFFFFFFFFFFFFFFFFFFFFFF AND SWAP1 DUP1 PUSH1 0x1 ADD DUP1 SLOAD PUSH2 0x43B SWAP1 PUSH2 0x18D9 JUMP JUMPDEST DUP1 PUSH1 0x1F ADD PUSH1 0x20 DUP1 SWAP2 DIV MUL PUSH1 0x20 ADD PUSH1 0x40 MLOAD SWAP1 DUP2 ADD PUSH1 0x40 MSTORE DUP1 SWAP3 SWAP2 SWAP1 DUP2 DUP2 MSTORE PUSH1 0x20 ADD DUP3 DUP1 SLOAD PUSH2 0x467 SWAP1 PUSH2 0x18D9 JUMP JUMPDEST DUP1 ISZERO PUSH2 0x4B2 JUMPI DUP1 PUSH1 0x1F LT PUSH2 0x489 JUMPI PUSH2 0x100 DUP1 DUP4 SLOAD DIV MUL DUP4 MSTORE SWAP2 PUSH1 0x20 ADD SWAP2 PUSH2 0x4B2 JUMP JUMPDEST DUP3 ADD SWAP2 SWAP1 PUSH0 MSTORE PUSH1 0x20 PUSH0 KECCAK256 SWAP1 JUMPDEST DUP2 SLOAD DUP2 MSTORE SWAP1 PUSH1 0x1 ADD SWAP1 PUSH1 0x20 ADD DUP1 DUP4 GT PUSH2 0x495 JUMPI DUP3 SWAP1 SUB PUSH1 0x1F AND DUP3 ADD SWAP2 JUMPDEST POP POP POP POP POP SWAP1 DUP1 PUSH1 0x2 ADD SLOAD SWAP1 DUP1 PUSH1 0x3 ADD SLOAD SWAP1 DUP1 PUSH1 0x4 ADD DUP1 SLOAD PUSH2 0x4D3 SWAP1 PUSH2 0x18D9 JUMP JUMPDEST DUP1 PUSH1 0x1F ADD PUSH1 0x20 DUP1 SWAP2 DIV MUL PUSH1 0x20 ADD PUSH1 0x40 MLOAD SWAP1 DUP2 ADD PUSH1 0x40 MSTORE DUP1 SWAP3 SWAP2 SWAP1 DUP2 DUP2 MSTORE PUSH1 0x20 ADD DUP3 DUP1 SLOAD PUSH2 0x4FF SWAP1 PUSH2 0x18D9 JUMP JUMPDEST DUP1 ISZERO PUSH2 0x54A JUMPI DUP1 PUSH1 0x1F LT PUSH2 0x521 JUMPI PUSH2 0x100 DUP1 DUP4 SLOAD DIV MUL DUP4 MSTORE SWAP2 PUSH1 0x20 ADD SWAP2 PUSH2 0x54A JUMP JUMPDEST DUP3 ADD SWAP2 SWAP1 PUSH0 MSTORE PUSH1 0x20 PUSH0 KECCAK256 SWAP1 JUMPDEST DUP2 SLOAD DUP2 MSTORE SWAP1 PUSH1 0x1 ADD SWAP1 PUSH1 0x20 ADD DUP1 DUP4 GT PUSH2 0x52D JUMPI DUP3 SWAP1 SUB PUSH1 0x1F AND DUP3 ADD SWAP2 JUMPDEST POP POP POP POP POP SWAP1 DUP1 PUSH1 0x5 ADD PUSH0 SWAP1 SLOAD SWAP1 PUSH2 0x100 EXP SWAP1 DIV PUSH1 0xFF AND SWAP1 DUP1 PUSH1 0x5 ADD PUSH1 0x1 SWAP1 SLOAD SWAP1 PUSH2 0x100 EXP SWAP1 DIV PUSH1 0xFF AND SWAP1 POP DUP8 JUMP JUMPDEST PUSH1 0x13 SLOAD DUP2 JUMP JUMPDEST PUSH0 PUSH0 PUSH1 0x10 PUSH1 0x1 DUP6 PUSH2 0x590 SWAP2 SWAP1 PUSH2 0x1936 JUMP JUMPDEST PUSH1 0x3 DUP2 LT PUSH2 0x5A1 JUMPI PUSH2 0x5A0 PUSH2 0x1969 JUMP JUMPDEST JUMPDEST ADD SLOAD SWAP1 POP PUSH0 PUSH1 0x4 PUSH1 0x1 DUP8 PUSH2 0x5B5 SWAP2 SWAP1 PUSH2 0x1936 JUMP JUMPDEST PUSH1 0xC DUP2 LT PUSH2 0x5C6 JUMPI PUSH2 0x5C5 PUSH2 0x1969 JUMP JUMPDEST JUMPDEST ADD SLOAD SWAP1 POP PUSH0 DUP3 PUSH1 0x2 PUSH1 0x3 DUP11 PUSH1 0x40 MLOAD PUSH2 0x5DE SWAP2 SWAP1 PUSH2 0x19D0 JUMP JUMPDEST SWAP1 DUP2 MSTORE PUSH1 0x20 ADD PUSH1 0x40 MLOAD DUP1 SWAP2 SUB SWAP1 KECCAK256 SLOAD DUP2 SLOAD DUP2 LT PUSH2 0x5FE JUMPI PUSH2 0x5FD PUSH2 0x1969 JUMP JUMPDEST JUMPDEST SWAP1 PUSH0 MSTORE PUSH1 0x20 PUSH0 KECCAK256 ADD SLOAD PUSH2 0x611 SWAP2 SWAP1 PUSH2 0x19E6 JUMP JUMPDEST SWAP1 POP DUP5 ISZERO PUSH2 0x629 JUMPI PUSH1 0x2 DUP2 PUSH2 0x626 SWAP2 SWAP1 PUSH2 0x19E6 JUMP JUMPDEST SWAP1 POP JUMPDEST DUP2 PUSH1 0xA GT ISZERO PUSH2 0x648 JUMPI DUP2 DUP2 PUSH2 0x63E SWAP2 SWAP1 PUSH2 0x1A54 JUMP JUMPDEST SWAP4 POP POP POP POP PUSH2 0x666 JUMP JUMPDEST PUSH1 0xA DUP3 PUSH2 0x655 SWAP2 SWAP1 PUSH2 0x1936 JUMP JUMPDEST DUP2 PUSH2 0x660 SWAP2 SWAP1 PUSH2 0x19E6 JUMP JUMPDEST SWAP4 POP POP POP POP JUMPDEST SWAP5 SWAP4 POP POP POP POP JUMP JUMPDEST PUSH0 PUSH0 PUSH0 SWAP1 SLOAD SWAP1 PUSH2 0x100 EXP SWAP1 DIV PUSH20 0xFFFFFFFFFFFFFFFFFFFFFFFFFFFFFFFFFFFFFFFF AND PUSH20 0xFFFFFFFFFFFFFFFFFFFFFFFFFFFFFFFFFFFFFFFF AND DUP3 PUSH20 0xFFFFFFFFFFFFFFFFFFFFFFFFFFFFFFFFFFFFFFFF AND EQ SWAP1 POP SWAP2 SWAP1 POP JUMP JUMPDEST PUSH1 0x2 DUP2 DUP2 SLOAD DUP2 LT PUSH2 0x6D4 JUMPI PUSH0 DUP1 REVERT JUMPDEST SWAP1 PUSH0 MSTORE PUSH1 0x20 PUSH0 KECCAK256 ADD PUSH0 SWAP2 POP SWAP1 POP SLOAD DUP2 JUMP JUMPDEST PUSH1 0x3 DUP2 DUP1 MLOAD PUSH1 0x20 DUP2 ADD DUP3 ADD DUP1 MLOAD DUP5 DUP3 MSTORE PUSH1 0x20 DUP4 ADD PUSH1 0x20 DUP6 ADD KECCAK256 DUP2 DUP4 MSTORE DUP1 SWAP6 POP POP POP POP POP POP PUSH0 SWAP2 POP SWAP1 POP SLOAD DUP2 JUMP JUMPDEST PUSH0 PUSH0 SWAP1 SLOAD SWAP1 PUSH2 0x100 EXP SWAP1 DIV PUSH20 0xFFFFFFFFFFFFFFFFFFFFFFFFFFFFFFFFFFFFFFFF AND PUSH20 0xFFFFFFFFFFFFFFFFFFFFFFFFFFFFFFFFFFFFFFFF AND CALLER PUSH20 0xFFFFFFFFFFFFFFFFFFFFFFFFFFFFFFFFFFFFFFFF AND EQ PUSH2 0x769 JUMPI PUSH0 PUSH0 REVERT JUMPDEST PUSH0 PUSH0 SWAP1 POP JUMPDEST PUSH1 0x1E DUP2 LT ISZERO PUSH2 0x8D5 JUMPI PUSH0 PUSH1 0x15 SLOAD SWAP1 POP PUSH1 0x40 MLOAD DUP1 PUSH1 0xE0 ADD PUSH1 0x40 MSTORE DUP1 DUP7 PUSH20 0xFFFFFFFFFFFFFFFFFFFFFFFFFFFFFFFFFFFFFFFF AND DUP2 MSTORE PUSH1 0x20 ADD DUP6 DUP2 MSTORE PUSH1 0x20 ADD DUP5 DUP2 MSTORE PUSH1 0x20 ADD DUP4 DUP2 MSTORE PUSH1 0x20 ADD PUSH1 0x40 MLOAD DUP1 PUSH1 0x20 ADD PUSH1 0x40 MSTORE DUP1 PUSH0 DUP2 MSTORE POP DUP2 MSTORE PUSH1 0x20 ADD PUSH0 ISZERO ISZERO DUP2 MSTORE PUSH1 0x20 ADD PUSH1 0x1 ISZERO ISZERO DUP2 MSTORE POP PUSH1 0x14 PUSH0 DUP4 DUP2 MSTORE PUSH1 0x20 ADD SWAP1 DUP2 MSTORE PUSH1 0x20 ADD PUSH0 KECCAK256 PUSH0 DUP3 ADD MLOAD DUP2 PUSH0 ADD PUSH0 PUSH2 0x100 EXP DUP2 SLOAD DUP2 PUSH20 0xFFFFFFFFFFFFFFFFFFFFFFFFFFFFFFFFFFFFFFFF MUL NOT AND SWAP1 DUP4 PUSH20 0xFFFFFFFFFFFFFFFFFFFFFFFFFFFFFFFFFFFFFFFF AND MUL OR SWAP1 SSTORE POP PUSH1 0x20 DUP3 ADD MLOAD DUP2 PUSH1 0x1 ADD SWAP1 DUP2 PUSH2 0x843 SWAP2 SWAP1 PUSH2 0x1C24 JUMP JUMPDEST POP PUSH1 0x40 DUP3 ADD MLOAD DUP2 PUSH1 0x2 ADD SSTORE PUSH1 0x60 DUP3 ADD MLOAD DUP2 PUSH1 0x3 ADD SSTORE PUSH1 0x80 DUP3 ADD MLOAD DUP2 PUSH1 0x4 ADD SWAP1 DUP2 PUSH2 0x86D SWAP2 SWAP1 PUSH2 0x1C24 JUMP JUMPDEST POP PUSH1 0xA0 DUP3 ADD MLOAD DUP2 PUSH1 0x5 ADD PUSH0 PUSH2 0x100 EXP DUP2 SLOAD DUP2 PUSH1 0xFF MUL NOT AND SWAP1 DUP4 ISZERO ISZERO MUL OR SWAP1 SSTORE POP PUSH1 0xC0 DUP3 ADD MLOAD DUP2 PUSH1 0x5 ADD PUSH1 0x1 PUSH2 0x100 EXP DUP2 SLOAD DUP2 PUSH1 0xFF MUL NOT AND SWAP1 DUP4 ISZERO ISZERO MUL OR SWAP1 SSTORE POP SWAP1 POP POP PUSH1 0x15 PUSH0 DUP2 SLOAD DUP1 SWAP3 SWAP2 SWAP1 PUSH2 0x8C2 SWAP1 PUSH2 0x1CF3 JUMP JUMPDEST SWAP2 SWAP1 POP SSTORE POP POP DUP1 DUP1 PUSH1 0x1 ADD SWAP2 POP POP PUSH2 0x76E JUMP JUMPDEST POP POP POP POP JUMP JUMPDEST PUSH0 PUSH0 SWAP1 SLOAD SWAP1 PUSH2 0x100 EXP SWAP1 DIV PUSH20 0xFFFFFFFFFFFFFFFFFFFFFFFFFFFFFFFFFFFFFFFF AND PUSH20 0xFFFFFFFFFFFFFFFFFFFFFFFFFFFFFFFFFFFFFFFF AND CALLER PUSH20 0xFFFFFFFFFFFFFFFFFFFFFFFFFFFFFFFFFFFFFFFF AND EQ PUSH2 0x932 JUMPI PUSH0 PUSH0 REVERT JUMPDEST DUP2 PUSH1 0x40 MLOAD PUSH1 0x20 ADD PUSH2 0x943 SWAP2 SWAP1 PUSH2 0x19D0 JUMP JUMPDEST PUSH1 0x40 MLOAD PUSH1 0x20 DUP2 DUP4 SUB SUB DUP2 MSTORE SWAP1 PUSH1 0x40 MSTORE DUP1 MLOAD SWAP1 PUSH1 0x20 ADD KECCAK256 PUSH1 0x1 PUSH1 0x3 DUP5 PUSH1 0x40 MLOAD PUSH2 0x96B SWAP2 SWAP1 PUSH2 0x19D0 JUMP JUMPDEST SWAP1 DUP2 MSTORE PUSH1 0x20 ADD PUSH1 0x40 MLOAD DUP1 SWAP2 SUB SWAP1 KECCAK256 SLOAD DUP2 SLOAD DUP2 LT PUSH2 0x98B JUMPI PUSH2 0x98A PUSH2 0x1969 JUMP JUMPDEST JUMPDEST SWAP1 PUSH0 MSTORE PUSH1 0x20 PUSH0 KECCAK256 ADD PUSH1 0x40 MLOAD PUSH1 0x20 ADD PUSH2 0x9A3 SWAP2 SWAP1 PUSH2 0x1DBA JUMP JUMPDEST PUSH1 0x40 MLOAD PUSH1 0x20 DUP2 DUP4 SUB SUB DUP2 MSTORE SWAP1 PUSH1 0x40 MSTORE DUP1 MLOAD SWAP1 PUSH1 0x20 ADD KECCAK256 SUB PUSH2 0x9C2 JUMPI PUSH0 PUSH0 REVERT JUMPDEST PUSH2 0x9CD CALLER DUP4 DUP4 PUSH2 0x712 JUMP JUMPDEST POP POP JUMP JUMPDEST PUSH1 0x15 SLOAD DUP2 JUMP JUMPDEST PUSH1 0x10 DUP2 PUSH1 0x3 DUP2 LT PUSH2 0x9E6 JUMPI PUSH0 DUP1 REVERT JUMPDEST ADD PUSH0 SWAP2 POP SWAP1 POP SLOAD DUP2 JUMP JUMPDEST PUSH1 0x1 DUP2 DUP2 SLOAD DUP2 LT PUSH2 0x9FF JUMPI PUSH0 DUP1 REVERT JUMPDEST SWAP1 PUSH0 MSTORE PUSH1 0x20 PUSH0 KECCAK256 ADD PUSH0 SWAP2 POP SWAP1 POP DUP1 SLOAD PUSH2 0xA17 SWAP1 PUSH2 0x18D9 JUMP JUMPDEST DUP1 PUSH1 0x1F ADD PUSH1 0x20 DUP1 SWAP2 DIV MUL PUSH1 0x20 ADD PUSH1 0x40 MLOAD SWAP1 DUP2 ADD PUSH1 0x40 MSTORE DUP1 SWAP3 SWAP2 SWAP1 DUP2 DUP2 MSTORE PUSH1 0x20 ADD DUP3 DUP1 SLOAD PUSH2 0xA43 SWAP1 PUSH2 0x18D9 JUMP JUMPDEST DUP1 ISZERO PUSH2 0xA8E JUMPI DUP1 PUSH1 0x1F LT PUSH2 0xA65 JUMPI PUSH2 0x100 DUP1 DUP4 SLOAD DIV MUL DUP4 MSTORE SWAP2 PUSH1 0x20 ADD SWAP2 PUSH2 0xA8E JUMP JUMPDEST DUP3 ADD SWAP2 SWAP1 PUSH0 MSTORE PUSH1 0x20 PUSH0 KECCAK256 SWAP1 JUMPDEST DUP2 SLOAD DUP2 MSTORE SWAP1 PUSH1 0x1 ADD SWAP1 PUSH1 0x20 ADD DUP1 DUP4 GT PUSH2 0xA71 JUMPI DUP3 SWAP1 SUB PUSH1 0x1F AND DUP3 ADD SWAP2 JUMPDEST POP POP POP POP POP DUP2 JUMP JUMPDEST PUSH0 PUSH0 SWAP1 SLOAD SWAP1 PUSH2 0x100 EXP SWAP1 DIV PUSH20 0xFFFFFFFFFFFFFFFFFFFFFFFFFFFFFFFFFFFFFFFF AND DUP2 JUMP JUMPDEST PUSH1 0x60 PUSH0 PUSH0 SWAP1 POP PUSH0 PUSH0 SWAP1 POP JUMPDEST PUSH1 0x15 SLOAD DUP2 LT ISZERO PUSH2 0xB7C JUMPI DUP4 PUSH20 0xFFFFFFFFFFFFFFFFFFFFFFFFFFFFFFFFFFFFFFFF AND PUSH1 0x14 PUSH0 DUP4 DUP2 MSTORE PUSH1 0x20 ADD SWAP1 DUP2 MSTORE PUSH1 0x20 ADD PUSH0 KECCAK256 PUSH0 ADD PUSH0 SWAP1 SLOAD SWAP1 PUSH2 0x100 EXP SWAP1 DIV PUSH20 0xFFFFFFFFFFFFFFFFFFFFFFFFFFFFFFFFFFFFFFFF AND PUSH20 0xFFFFFFFFFFFFFFFFFFFFFFFFFFFFFFFFFFFFFFFF AND EQ DUP1 ISZERO PUSH2 0xB5B JUMPI POP PUSH1 0x14 PUSH0 DUP3 DUP2 MSTORE PUSH1 0x20 ADD SWAP1 DUP2 MSTORE PUSH1 0x20 ADD PUSH0 KECCAK256 PUSH1 0x5 ADD PUSH1 0x1 SWAP1 SLOAD SWAP1 PUSH2 0x100 EXP SWAP1 DIV PUSH1 0xFF AND ISZERO JUMPDEST ISZERO PUSH2 0xB6F JUMPI DUP2 DUP1 PUSH2 0xB6B SWAP1 PUSH2 0x1CF3 JUMP JUMPDEST SWAP3 POP POP JUMPDEST DUP1 DUP1 PUSH1 0x1 ADD SWAP2 POP POP PUSH2 0xAC5 JUMP JUMPDEST POP PUSH0 DUP2 PUSH8 0xFFFFFFFFFFFFFFFF DUP2 GT ISZERO PUSH2 0xB98 JUMPI PUSH2 0xB97 PUSH2 0x133A JUMP JUMPDEST JUMPDEST PUSH1 0x40 MLOAD SWAP1 DUP1 DUP3 MSTORE DUP1 PUSH1 0x20 MUL PUSH1 0x20 ADD DUP3 ADD PUSH1 0x40 MSTORE DUP1 ISZERO PUSH2 0xBD1 JUMPI DUP2 PUSH1 0x20 ADD JUMPDEST PUSH2 0xBBE PUSH2 0x1105 JUMP JUMPDEST DUP2 MSTORE PUSH1 0x20 ADD SWAP1 PUSH1 0x1 SWAP1 SUB SWAP1 DUP2 PUSH2 0xBB6 JUMPI SWAP1 POP JUMPDEST POP SWAP1 POP PUSH0 PUSH0 SWAP1 POP PUSH0 PUSH0 SWAP1 POP JUMPDEST PUSH1 0x15 SLOAD DUP2 LT ISZERO PUSH2 0xE8B JUMPI DUP6 PUSH20 0xFFFFFFFFFFFFFFFFFFFFFFFFFFFFFFFFFFFFFFFF AND PUSH1 0x14 PUSH0 DUP4 DUP2 MSTORE PUSH1 0x20 ADD SWAP1 DUP2 MSTORE PUSH1 0x20 ADD PUSH0 KECCAK256 PUSH0 ADD PUSH0 SWAP1 SLOAD SWAP1 PUSH2 0x100 EXP SWAP1 DIV PUSH20 0xFFFFFFFFFFFFFFFFFFFFFFFFFFFFFFFFFFFFFFFF AND PUSH20 0xFFFFFFFFFFFFFFFFFFFFFFFFFFFFFFFFFFFFFFFF AND EQ DUP1 ISZERO PUSH2 0xC73 JUMPI POP PUSH1 0x14 PUSH0 DUP3 DUP2 MSTORE PUSH1 0x20 ADD SWAP1 DUP2 MSTORE PUSH1 0x20 ADD PUSH0 KECCAK256 PUSH1 0x5 ADD PUSH1 0x1 SWAP1 SLOAD SWAP1 PUSH2 0x100 EXP SWAP1 DIV PUSH1 0xFF AND ISZERO JUMPDEST ISZERO PUSH2 0xE7E JUMPI PUSH1 0x14 PUSH0 DUP3 DUP2 MSTORE PUSH1 0x20 ADD SWAP1 DUP2 MSTORE PUSH1 0x20 ADD PUSH0 KECCAK256 PUSH1 0x40 MLOAD DUP1 PUSH1 0xE0 ADD PUSH1 0x40 MSTORE SWAP1 DUP2 PUSH0 DUP3 ADD PUSH0 SWAP1 SLOAD SWAP1 PUSH2 0x100 EXP SWAP1 DIV PUSH20 0xFFFFFFFFFFFFFFFFFFFFFFFFFFFFFFFFFFFFFFFF AND PUSH20 0xFFFFFFFFFFFFFFFFFFFFFFFFFFFFFFFFFFFFFFFF AND PUSH20 0xFFFFFFFFFFFFFFFFFFFFFFFFFFFFFFFFFFFFFFFF AND DUP2 MSTORE PUSH1 0x20 ADD PUSH1 0x1 DUP3 ADD DUP1 SLOAD PUSH2 0xCF8 SWAP1 PUSH2 0x18D9 JUMP JUMPDEST DUP1 PUSH1 0x1F ADD PUSH1 0x20 DUP1 SWAP2 DIV MUL PUSH1 0x20 ADD PUSH1 0x40 MLOAD SWAP1 DUP2 ADD PUSH1 0x40 MSTORE DUP1 SWAP3 SWAP2 SWAP1 DUP2 DUP2 MSTORE PUSH1 0x20 ADD DUP3 DUP1 SLOAD PUSH2 0xD24 SWAP1 PUSH2 0x18D9 JUMP JUMPDEST DUP1 ISZERO PUSH2 0xD6F JUMPI DUP1 PUSH1 0x1F LT PUSH2 0xD46 JUMPI PUSH2 0x100 DUP1 DUP4 SLOAD DIV MUL DUP4 MSTORE SWAP2 PUSH1 0x20 ADD SWAP2 PUSH2 0xD6F JUMP JUMPDEST DUP3 ADD SWAP2 SWAP1 PUSH0 MSTORE PUSH1 0x20 PUSH0 KECCAK256 SWAP1 JUMPDEST DUP2 SLOAD DUP2 MSTORE SWAP1 PUSH1 0x1 ADD SWAP1 PUSH1 0x20 ADD DUP1 DUP4 GT PUSH2 0xD52 JUMPI DUP3 SWAP1 SUB PUSH1 0x1F AND DUP3 ADD SWAP2 JUMPDEST POP POP POP POP POP DUP2 MSTORE PUSH1 0x20 ADD PUSH1 0x2 DUP3 ADD SLOAD DUP2 MSTORE PUSH1 0x20 ADD PUSH1 0x3 DUP3 ADD SLOAD DUP2 MSTORE PUSH1 0x20 ADD PUSH1 0x4 DUP3 ADD DUP1 SLOAD PUSH2 0xD9C SWAP1 PUSH2 0x18D9 JUMP JUMPDEST DUP1 PUSH1 0x1F ADD PUSH1 0x20 DUP1 SWAP2 DIV MUL PUSH1 0x20 ADD PUSH1 0x40 MLOAD SWAP1 DUP2 ADD PUSH1 0x40 MSTORE DUP1 SWAP3 SWAP2 SWAP1 DUP2 DUP2 MSTORE PUSH1 0x20 ADD DUP3 DUP1 SLOAD PUSH2 0xDC8 SWAP1 PUSH2 0x18D9 JUMP JUMPDEST DUP1 ISZERO PUSH2 0xE13 JUMPI DUP1 PUSH1 0x1F LT PUSH2 0xDEA JUMPI PUSH2 0x100 DUP1 DUP4 SLOAD DIV MUL DUP4 MSTORE SWAP2 PUSH1 0x20 ADD SWAP2 PUSH2 0xE13 JUMP JUMPDEST DUP3 ADD SWAP2 SWAP1 PUSH0 MSTORE PUSH1 0x20 PUSH0 KECCAK256 SWAP1 JUMPDEST DUP2 SLOAD DUP2 MSTORE SWAP1 PUSH1 0x1 ADD SWAP1 PUSH1 0x20 ADD DUP1 DUP4 GT PUSH2 0xDF6 JUMPI DUP3 SWAP1 SUB PUSH1 0x1F AND DUP3 ADD SWAP2 JUMPDEST POP POP POP POP POP DUP2 MSTORE PUSH1 0x20 ADD PUSH1 0x5 DUP3 ADD PUSH0 SWAP1 SLOAD SWAP1 PUSH2 0x100 EXP SWAP1 DIV PUSH1 0xFF AND ISZERO ISZERO ISZERO ISZERO DUP2 MSTORE PUSH1 0x20 ADD PUSH1 0x5 DUP3 ADD PUSH1 0x1 SWAP1 SLOAD SWAP1 PUSH2 0x100 EXP SWAP1 DIV PUSH1 0xFF AND ISZERO ISZERO ISZERO ISZERO DUP2 MSTORE POP POP DUP4 DUP4 DUP2 MLOAD DUP2 LT PUSH2 0xE64 JUMPI PUSH2 0xE63 PUSH2 0x1969 JUMP JUMPDEST JUMPDEST PUSH1 0x20 MUL PUSH1 0x20 ADD ADD DUP2 SWAP1 MSTORE POP DUP2 DUP1 PUSH2 0xE7A SWAP1 PUSH2 0x1CF3 JUMP JUMPDEST SWAP3 POP POP JUMPDEST DUP1 DUP1 PUSH1 0x1 ADD SWAP2 POP POP PUSH2 0xBDD JUMP JUMPDEST POP DUP2 SWAP4 POP POP POP POP SWAP2 SWAP1 POP JUMP JUMPDEST PUSH1 0x4 DUP2 PUSH1 0xC DUP2 LT PUSH2 0xEA6 JUMPI PUSH0 DUP1 REVERT JUMPDEST ADD PUSH0 SWAP2 POP SWAP1 POP SLOAD DUP2 JUMP JUMPDEST PUSH2 0xEBC DUP5 DUP5 DUP5 DUP5 PUSH2 0x57F JUMP JUMPDEST CALLVALUE EQ PUSH2 0xEC6 JUMPI PUSH0 PUSH0 REVERT JUMPDEST PUSH0 PUSH0 SWAP1 POP PUSH0 PUSH0 SWAP1 POP JUMPDEST PUSH1 0x15 SLOAD DUP2 LT ISZERO PUSH2 0x10BD JUMPI PUSH0 PUSH1 0x14 PUSH0 DUP4 DUP2 MSTORE PUSH1 0x20 ADD SWAP1 DUP2 MSTORE PUSH1 0x20 ADD PUSH0 KECCAK256 SWAP1 POP DUP7 PUSH1 0x40 MLOAD PUSH1 0x20 ADD PUSH2 0xEFE SWAP2 SWAP1 PUSH2 0x19D0 JUMP JUMPDEST PUSH1 0x40 MLOAD PUSH1 0x20 DUP2 DUP4 SUB SUB DUP2 MSTORE SWAP1 PUSH1 0x40 MSTORE DUP1 MLOAD SWAP1 PUSH1 0x20 ADD KECCAK256 DUP2 PUSH1 0x1 ADD PUSH1 0x40 MLOAD PUSH1 0x20 ADD PUSH2 0xF28 SWAP2 SWAP1 PUSH2 0x1DBA JUMP JUMPDEST PUSH1 0x40 MLOAD PUSH1 0x20 DUP2 DUP4 SUB SUB DUP2 MSTORE SWAP1 PUSH1 0x40 MSTORE DUP1 MLOAD SWAP1 PUSH1 0x20 ADD KECCAK256 EQ DUP1 ISZERO PUSH2 0xF59 JUMPI POP DUP1 PUSH1 0x5 ADD PUSH1 0x1 SWAP1 SLOAD SWAP1 PUSH2 0x100 EXP SWAP1 DIV PUSH1 0xFF AND JUMPDEST ISZERO PUSH2 0x10AF JUMPI CALLER DUP2 PUSH0 ADD PUSH0 PUSH2 0x100 EXP DUP2 SLOAD DUP2 PUSH20 0xFFFFFFFFFFFFFFFFFFFFFFFFFFFFFFFFFFFFFFFF MUL NOT AND SWAP1 DUP4 PUSH20 0xFFFFFFFFFFFFFFFFFFFFFFFFFFFFFFFFFFFFFFFF AND MUL OR SWAP1 SSTORE POP PUSH1 0x1 DUP6 EQ PUSH2 0x1026 JUMPI PUSH1 0x2 DUP6 EQ PUSH2 0xFEA JUMPI PUSH1 0x40 MLOAD DUP1 PUSH1 0x40 ADD PUSH1 0x40 MSTORE DUP1 PUSH1 0x5 DUP2 MSTORE PUSH1 0x20 ADD PUSH32 0x4669727374000000000000000000000000000000000000000000000000000000 DUP2 MSTORE POP PUSH2 0x1021 JUMP JUMPDEST PUSH1 0x40 MLOAD DUP1 PUSH1 0x40 ADD PUSH1 0x40 MSTORE DUP1 PUSH1 0x8 DUP2 MSTORE PUSH1 0x20 ADD PUSH32 0x427573696E657373000000000000000000000000000000000000000000000000 DUP2 MSTORE POP JUMPDEST PUSH2 0x105D JUMP JUMPDEST PUSH1 0x40 MLOAD DUP1 PUSH1 0x40 ADD PUSH1 0x40 MSTORE DUP1 PUSH1 0x7 DUP2 MSTORE PUSH1 0x20 ADD PUSH32 0x45636F6E6F6D7900000000000000000000000000000000000000000000000000 DUP2 MSTORE POP JUMPDEST DUP2 PUSH1 0x4 ADD SWAP1 DUP2 PUSH2 0x106D SWAP2 SWAP1 PUSH2 0x1C24 JUMP JUMPDEST POP DUP4 DUP2 PUSH1 0x5 ADD PUSH0 PUSH2 0x100 EXP DUP2 SLOAD DUP2 PUSH1 0xFF MUL NOT AND SWAP1 DUP4 ISZERO ISZERO MUL OR SWAP1 SSTORE POP PUSH0 DUP2 PUSH1 0x5 ADD PUSH1 0x1 PUSH2 0x100 EXP DUP2 SLOAD DUP2 PUSH1 0xFF MUL NOT AND SWAP1 DUP4 ISZERO ISZERO MUL OR SWAP1 SSTORE POP PUSH1 0x1 SWAP3 POP POP PUSH2 0x10BD JUMP JUMPDEST POP DUP1 DUP1 PUSH1 0x1 ADD SWAP2 POP POP PUSH2 0xECF JUMP JUMPDEST POP DUP1 PUSH2 0x10FE JUMPI PUSH1 0x40 MLOAD PUSH32 0x8C379A000000000000000000000000000000000000000000000000000000000 DUP2 MSTORE PUSH1 0x4 ADD PUSH2 0x10F5 SWAP1 PUSH2 0x1E40 JUMP JUMPDEST PUSH1 0x40 MLOAD DUP1 SWAP2 SUB SWAP1 REVERT JUMPDEST POP POP POP POP POP JUMP JUMPDEST PUSH1 0x40 MLOAD DUP1 PUSH1 0xE0 ADD PUSH1 0x40 MSTORE DUP1 PUSH0 PUSH20 0xFFFFFFFFFFFFFFFFFFFFFFFFFFFFFFFFFFFFFFFF AND DUP2 MSTORE PUSH1 0x20 ADD PUSH1 0x60 DUP2 MSTORE PUSH1 0x20 ADD PUSH0 DUP2 MSTORE PUSH1 0x20 ADD PUSH0 DUP2 MSTORE PUSH1 0x20 ADD PUSH1 0x60 DUP2 MSTORE PUSH1 0x20 ADD PUSH0 ISZERO ISZERO DUP2 MSTORE PUSH1 0x20 ADD PUSH0 ISZERO ISZERO DUP2 MSTORE POP SWAP1 JUMP JUMPDEST PUSH0 PUSH1 0x40 MLOAD SWAP1 POP SWAP1 JUMP JUMPDEST PUSH0 PUSH0 REVERT JUMPDEST PUSH0 PUSH0 REVERT JUMPDEST PUSH0 DUP2 SWAP1 POP SWAP2 SWAP1 POP JUMP JUMPDEST PUSH2 0x117A DUP2 PUSH2 0x1168 JUMP JUMPDEST DUP2 EQ PUSH2 0x1184 JUMPI PUSH0 PUSH0 REVERT JUMPDEST POP JUMP JUMPDEST PUSH0 DUP2 CALLDATALOAD SWAP1 POP PUSH2 0x1195 DUP2 PUSH2 0x1171 JUMP JUMPDEST SWAP3 SWAP2 POP POP JUMP JUMPDEST PUSH0 PUSH1 0x20 DUP3 DUP5 SUB SLT ISZERO PUSH2 0x11B0 JUMPI PUSH2 0x11AF PUSH2 0x1160 JUMP JUMPDEST JUMPDEST PUSH0 PUSH2 0x11BD DUP5 DUP3 DUP6 ADD PUSH2 0x1187 JUMP JUMPDEST SWAP2 POP POP SWAP3 SWAP2 POP POP JUMP JUMPDEST PUSH0 PUSH20 0xFFFFFFFFFFFFFFFFFFFFFFFFFFFFFFFFFFFFFFFF DUP3 AND SWAP1 POP SWAP2 SWAP1 POP JUMP JUMPDEST PUSH0 PUSH2 0x11EF DUP3 PUSH2 0x11C6 JUMP JUMPDEST SWAP1 POP SWAP2 SWAP1 POP JUMP JUMPDEST PUSH2 0x11FF DUP2 PUSH2 0x11E5 JUMP JUMPDEST DUP3 MSTORE POP POP JUMP JUMPDEST PUSH0 DUP2 MLOAD SWAP1 POP SWAP2 SWAP1 POP JUMP JUMPDEST PUSH0 DUP3 DUP3 MSTORE PUSH1 0x20 DUP3 ADD SWAP1 POP SWAP3 SWAP2 POP POP JUMP JUMPDEST DUP3 DUP2 DUP4 MCOPY PUSH0 DUP4 DUP4 ADD MSTORE POP POP POP JUMP JUMPDEST PUSH0 PUSH1 0x1F NOT PUSH1 0x1F DUP4 ADD AND SWAP1 POP SWAP2 SWAP1 POP JUMP JUMPDEST PUSH0 PUSH2 0x1247 DUP3 PUSH2 0x1205 JUMP JUMPDEST PUSH2 0x1251 DUP2 DUP6 PUSH2 0x120F JUMP JUMPDEST SWAP4 POP PUSH2 0x1261 DUP2 DUP6 PUSH1 0x20 DUP7 ADD PUSH2 0x121F JUMP JUMPDEST PUSH2 0x126A DUP2 PUSH2 0x122D JUMP JUMPDEST DUP5 ADD SWAP2 POP POP SWAP3 SWAP2 POP POP JUMP JUMPDEST PUSH2 0x127E DUP2 PUSH2 0x1168 JUMP JUMPDEST DUP3 MSTORE POP POP JUMP JUMPDEST PUSH0 DUP2 ISZERO ISZERO SWAP1 POP SWAP2 SWAP1 POP JUMP JUMPDEST PUSH2 0x1298 DUP2 PUSH2 0x1284 JUMP JUMPDEST DUP3 MSTORE POP POP JUMP JUMPDEST PUSH0 PUSH1 0xE0 DUP3 ADD SWAP1 POP PUSH2 0x12B1 PUSH0 DUP4 ADD DUP11 PUSH2 0x11F6 JUMP JUMPDEST DUP2 DUP2 SUB PUSH1 0x20 DUP4 ADD MSTORE PUSH2 0x12C3 DUP2 DUP10 PUSH2 0x123D JUMP JUMPDEST SWAP1 POP PUSH2 0x12D2 PUSH1 0x40 DUP4 ADD DUP9 PUSH2 0x1275 JUMP JUMPDEST PUSH2 0x12DF PUSH1 0x60 DUP4 ADD DUP8 PUSH2 0x1275 JUMP JUMPDEST DUP2 DUP2 SUB PUSH1 0x80 DUP4 ADD MSTORE PUSH2 0x12F1 DUP2 DUP7 PUSH2 0x123D JUMP JUMPDEST SWAP1 POP PUSH2 0x1300 PUSH1 0xA0 DUP4 ADD DUP6 PUSH2 0x128F JUMP JUMPDEST PUSH2 0x130D PUSH1 0xC0 DUP4 ADD DUP5 PUSH2 0x128F JUMP JUMPDEST SWAP9 SWAP8 POP POP POP POP POP POP POP POP JUMP JUMPDEST PUSH0 PUSH1 0x20 DUP3 ADD SWAP1 POP PUSH2 0x132C PUSH0 DUP4 ADD DUP5 PUSH2 0x1275 JUMP JUMPDEST SWAP3 SWAP2 POP POP JUMP JUMPDEST PUSH0 PUSH0 REVERT JUMPDEST PUSH0 PUSH0 REVERT JUMPDEST PUSH32 0x4E487B7100000000000000000000000000000000000000000000000000000000 PUSH0 MSTORE PUSH1 0x41 PUSH1 0x4 MSTORE PUSH1 0x24 PUSH0 REVERT JUMPDEST PUSH2 0x1370 DUP3 PUSH2 0x122D JUMP JUMPDEST DUP2 ADD DUP2 DUP2 LT PUSH8 0xFFFFFFFFFFFFFFFF DUP3 GT OR ISZERO PUSH2 0x138F JUMPI PUSH2 0x138E PUSH2 0x133A JUMP JUMPDEST JUMPDEST DUP1 PUSH1 0x40 MSTORE POP POP POP JUMP JUMPDEST PUSH0 PUSH2 0x13A1 PUSH2 0x1157 JUMP JUMPDEST SWAP1 POP PUSH2 0x13AD DUP3 DUP3 PUSH2 0x1367 JUMP JUMPDEST SWAP2 SWAP1 POP JUMP JUMPDEST PUSH0 PUSH8 0xFFFFFFFFFFFFFFFF DUP3 GT ISZERO PUSH2 0x13CC JUMPI PUSH2 0x13CB PUSH2 0x133A JUMP JUMPDEST JUMPDEST PUSH2 0x13D5 DUP3 PUSH2 0x122D JUMP JUMPDEST SWAP1 POP PUSH1 0x20 DUP2 ADD SWAP1 POP SWAP2 SWAP1 POP JUMP JUMPDEST DUP3 DUP2 DUP4 CALLDATACOPY PUSH0 DUP4 DUP4 ADD MSTORE POP POP POP JUMP JUMPDEST PUSH0 PUSH2 0x1402 PUSH2 0x13FD DUP5 PUSH2 0x13B2 JUMP JUMPDEST PUSH2 0x1398 JUMP JUMPDEST SWAP1 POP DUP3 DUP2 MSTORE PUSH1 0x20 DUP2 ADD DUP5 DUP5 DUP5 ADD GT ISZERO PUSH2 0x141E JUMPI PUSH2 0x141D PUSH2 0x1336 JUMP JUMPDEST JUMPDEST PUSH2 0x1429 DUP5 DUP3 DUP6 PUSH2 0x13E2 JUMP JUMPDEST POP SWAP4 SWAP3 POP POP POP JUMP JUMPDEST PUSH0 DUP3 PUSH1 0x1F DUP4 ADD SLT PUSH2 0x1445 JUMPI PUSH2 0x1444 PUSH2 0x1332 JUMP JUMPDEST JUMPDEST DUP2 CALLDATALOAD PUSH2 0x1455 DUP5 DUP3 PUSH1 0x20 DUP7 ADD PUSH2 0x13F0 JUMP JUMPDEST SWAP2 POP POP SWAP3 SWAP2 POP POP JUMP JUMPDEST PUSH2 0x1467 DUP2 PUSH2 0x1284 JUMP JUMPDEST DUP2 EQ PUSH2 0x1471 JUMPI PUSH0 PUSH0 REVERT JUMPDEST POP JUMP JUMPDEST PUSH0 DUP2 CALLDATALOAD SWAP1 POP PUSH2 0x1482 DUP2 PUSH2 0x145E JUMP JUMPDEST SWAP3 SWAP2 POP POP JUMP JUMPDEST PUSH0 PUSH0 PUSH0 PUSH0 PUSH1 0x80 DUP6 DUP8 SUB SLT ISZERO PUSH2 0x14A0 JUMPI PUSH2 0x149F PUSH2 0x1160 JUMP JUMPDEST JUMPDEST PUSH0 DUP6 ADD CALLDATALOAD PUSH8 0xFFFFFFFFFFFFFFFF DUP2 GT ISZERO PUSH2 0x14BD JUMPI PUSH2 0x14BC PUSH2 0x1164 JUMP JUMPDEST JUMPDEST PUSH2 0x14C9 DUP8 DUP3 DUP9 ADD PUSH2 0x1431 JUMP JUMPDEST SWAP5 POP POP PUSH1 0x20 PUSH2 0x14DA DUP8 DUP3 DUP9 ADD PUSH2 0x1187 JUMP JUMPDEST SWAP4 POP POP PUSH1 0x40 PUSH2 0x14EB DUP8 DUP3 DUP9 ADD PUSH2 0x1187 JUMP JUMPDEST SWAP3 POP POP PUSH1 0x60 PUSH2 0x14FC DUP8 DUP3 DUP9 ADD PUSH2 0x1474 JUMP JUMPDEST SWAP2 POP POP SWAP3 SWAP6 SWAP2 SWAP5 POP SWAP3 POP JUMP JUMPDEST PUSH2 0x1511 DUP2 PUSH2 0x11E5 JUMP JUMPDEST DUP2 EQ PUSH2 0x151B JUMPI PUSH0 PUSH0 REVERT JUMPDEST POP JUMP JUMPDEST PUSH0 DUP2 CALLDATALOAD SWAP1 POP PUSH2 0x152C DUP2 PUSH2 0x1508 JUMP JUMPDEST SWAP3 SWAP2 POP POP JUMP JUMPDEST PUSH0 PUSH1 0x20 DUP3 DUP5 SUB SLT ISZERO PUSH2 0x1547 JUMPI PUSH2 0x1546 PUSH2 0x1160 JUMP JUMPDEST JUMPDEST PUSH0 PUSH2 0x1554 DUP5 DUP3 DUP6 ADD PUSH2 0x151E JUMP JUMPDEST SWAP2 POP POP SWAP3 SWAP2 POP POP JUMP JUMPDEST PUSH0 PUSH1 0x20 DUP3 ADD SWAP1 POP PUSH2 0x1570 PUSH0 DUP4 ADD DUP5 PUSH2 0x128F JUMP JUMPDEST SWAP3 SWAP2 POP POP JUMP JUMPDEST PUSH0 PUSH1 0x20 DUP3 DUP5 SUB SLT ISZERO PUSH2 0x158B JUMPI PUSH2 0x158A PUSH2 0x1160 JUMP JUMPDEST JUMPDEST PUSH0 DUP3 ADD CALLDATALOAD PUSH8 0xFFFFFFFFFFFFFFFF DUP2 GT ISZERO PUSH2 0x15A8 JUMPI PUSH2 0x15A7 PUSH2 0x1164 JUMP JUMPDEST JUMPDEST PUSH2 0x15B4 DUP5 DUP3 DUP6 ADD PUSH2 0x1431 JUMP JUMPDEST SWAP2 POP POP SWAP3 SWAP2 POP POP JUMP JUMPDEST PUSH0 PUSH0 PUSH0 PUSH1 0x60 DUP5 DUP7 SUB SLT ISZERO PUSH2 0x15D4 JUMPI PUSH2 0x15D3 PUSH2 0x1160 JUMP JUMPDEST JUMPDEST PUSH0 PUSH2 0x15E1 DUP7 DUP3 DUP8 ADD PUSH2 0x151E JUMP JUMPDEST SWAP4 POP POP PUSH1 0x20 DUP5 ADD CALLDATALOAD PUSH8 0xFFFFFFFFFFFFFFFF DUP2 GT ISZERO PUSH2 0x1602 JUMPI PUSH2 0x1601 PUSH2 0x1164 JUMP JUMPDEST JUMPDEST PUSH2 0x160E DUP7 DUP3 DUP8 ADD PUSH2 0x1431 JUMP JUMPDEST SWAP3 POP POP PUSH1 0x40 PUSH2 0x161F DUP7 DUP3 DUP8 ADD PUSH2 0x1187 JUMP JUMPDEST SWAP2 POP POP SWAP3 POP SWAP3 POP SWAP3 JUMP JUMPDEST PUSH0 PUSH0 PUSH1 0x40 DUP4 DUP6 SUB SLT ISZERO PUSH2 0x163F JUMPI PUSH2 0x163E PUSH2 0x1160 JUMP JUMPDEST JUMPDEST PUSH0 DUP4 ADD CALLDATALOAD PUSH8 0xFFFFFFFFFFFFFFFF DUP2 GT ISZERO PUSH2 0x165C JUMPI PUSH2 0x165B PUSH2 0x1164 JUMP JUMPDEST JUMPDEST PUSH2 0x1668 DUP6 DUP3 DUP7 ADD PUSH2 0x1431 JUMP JUMPDEST SWAP3 POP POP PUSH1 0x20 PUSH2 0x1679 DUP6 DUP3 DUP7 ADD PUSH2 0x1187 JUMP JUMPDEST SWAP2 POP POP SWAP3 POP SWAP3 SWAP1 POP JUMP JUMPDEST PUSH0 PUSH1 0x20 DUP3 ADD SWAP1 POP DUP2 DUP2 SUB PUSH0 DUP4 ADD MSTORE PUSH2 0x169B DUP2 DUP5 PUSH2 0x123D JUMP JUMPDEST SWAP1 POP SWAP3 SWAP2 POP POP JUMP JUMPDEST PUSH0 PUSH1 0x20 DUP3 ADD SWAP1 POP PUSH2 0x16B6 PUSH0 DUP4 ADD DUP5 PUSH2 0x11F6 JUMP JUMPDEST SWAP3 SWAP2 POP POP JUMP JUMPDEST PUSH0 DUP2 MLOAD SWAP1 POP SWAP2 SWAP1 POP JUMP JUMPDEST PUSH0 DUP3 DUP3 MSTORE PUSH1 0x20 DUP3 ADD SWAP1 POP SWAP3 SWAP2 POP POP JUMP JUMPDEST PUSH0 DUP2 SWAP1 POP PUSH1 0x20 DUP3 ADD SWAP1 POP SWAP2 SWAP1 POP JUMP JUMPDEST PUSH2 0x16EE DUP2 PUSH2 0x11E5 JUMP JUMPDEST DUP3 MSTORE POP POP JUMP JUMPDEST PUSH0 DUP3 DUP3 MSTORE PUSH1 0x20 DUP3 ADD SWAP1 POP SWAP3 SWAP2 POP POP JUMP JUMPDEST PUSH0 PUSH2 0x170E DUP3 PUSH2 0x1205 JUMP JUMPDEST PUSH2 0x1718 DUP2 DUP6 PUSH2 0x16F4 JUMP JUMPDEST SWAP4 POP PUSH2 0x1728 DUP2 DUP6 PUSH1 0x20 DUP7 ADD PUSH2 0x121F JUMP JUMPDEST PUSH2 0x1731 DUP2 PUSH2 0x122D JUMP JUMPDEST DUP5 ADD SWAP2 POP POP SWAP3 SWAP2 POP POP JUMP JUMPDEST PUSH2 0x1745 DUP2 PUSH2 0x1168 JUMP JUMPDEST DUP3 MSTORE POP POP JUMP JUMPDEST PUSH2 0x1754 DUP2 PUSH2 0x1284 JUMP JUMPDEST DUP3 MSTORE POP POP JUMP JUMPDEST PUSH0 PUSH1 0xE0 DUP4 ADD PUSH0 DUP4 ADD MLOAD PUSH2 0x176F PUSH0 DUP7 ADD DUP3 PUSH2 0x16E5 JUMP JUMPDEST POP PUSH1 0x20 DUP4 ADD MLOAD DUP5 DUP3 SUB PUSH1 0x20 DUP7 ADD MSTORE PUSH2 0x1787 DUP3 DUP3 PUSH2 0x1704 JUMP JUMPDEST SWAP2 POP POP PUSH1 0x40 DUP4 ADD MLOAD PUSH2 0x179C PUSH1 0x40 DUP7 ADD DUP3 PUSH2 0x173C JUMP JUMPDEST POP PUSH1 0x60 DUP4 ADD MLOAD PUSH2 0x17AF PUSH1 0x60 DUP7 ADD DUP3 PUSH2 0x173C JUMP JUMPDEST POP PUSH1 0x80 DUP4 ADD MLOAD DUP5 DUP3 SUB PUSH1 0x80 DUP7 ADD MSTORE PUSH2 0x17C7 DUP3 DUP3 PUSH2 0x1704 JUMP JUMPDEST SWAP2 POP POP PUSH1 0xA0 DUP4 ADD MLOAD PUSH2 0x17DC PUSH1 0xA0 DUP7 ADD DUP3 PUSH2 0x174B JUMP JUMPDEST POP PUSH1 0xC0 DUP4 ADD MLOAD PUSH2 0x17EF PUSH1 0xC0 DUP7 ADD DUP3 PUSH2 0x174B JUMP JUMPDEST POP DUP1 SWAP2 POP POP SWAP3 SWAP2 POP POP JUMP JUMPDEST PUSH0 PUSH2 0x1805 DUP4 DUP4 PUSH2 0x175A JUMP JUMPDEST SWAP1 POP SWAP3 SWAP2 POP POP JUMP JUMPDEST PUSH0 PUSH1 0x20 DUP3 ADD SWAP1 POP SWAP2 SWAP1 POP JUMP JUMPDEST PUSH0 PUSH2 0x1823 DUP3 PUSH2 0x16BC JUMP JUMPDEST PUSH2 0x182D DUP2 DUP6 PUSH2 0x16C6 JUMP JUMPDEST SWAP4 POP DUP4 PUSH1 0x20 DUP3 MUL DUP6 ADD PUSH2 0x183F DUP6 PUSH2 0x16D6 JUMP JUMPDEST DUP1 PUSH0 JUMPDEST DUP6 DUP2 LT ISZERO PUSH2 0x187A JUMPI DUP5 DUP5 SUB DUP10 MSTORE DUP2 MLOAD PUSH2 0x185B DUP6 DUP3 PUSH2 0x17FA JUMP JUMPDEST SWAP5 POP PUSH2 0x1866 DUP4 PUSH2 0x180D JUMP JUMPDEST SWAP3 POP PUSH1 0x20 DUP11 ADD SWAP10 POP POP PUSH1 0x1 DUP2 ADD SWAP1 POP PUSH2 0x1842 JUMP JUMPDEST POP DUP3 SWAP8 POP DUP8 SWAP6 POP POP POP POP POP POP SWAP3 SWAP2 POP POP JUMP JUMPDEST PUSH0 PUSH1 0x20 DUP3 ADD SWAP1 POP DUP2 DUP2 SUB PUSH0 DUP4 ADD MSTORE PUSH2 0x18A4 DUP2 DUP5 PUSH2 0x1819 JUMP JUMPDEST SWAP1 POP SWAP3 SWAP2 POP POP JUMP JUMPDEST PUSH32 0x4E487B7100000000000000000000000000000000000000000000000000000000 PUSH0 MSTORE PUSH1 0x22 PUSH1 0x4 MSTORE PUSH1 0x24 PUSH0 REVERT JUMPDEST PUSH0 PUSH1 0x2 DUP3 DIV SWAP1 POP PUSH1 0x1 DUP3 AND DUP1 PUSH2 0x18F0 JUMPI PUSH1 0x7F DUP3 AND SWAP2 POP JUMPDEST PUSH1 0x20 DUP3 LT DUP2 SUB PUSH2 0x1903 JUMPI PUSH2 0x1902 PUSH2 0x18AC JUMP JUMPDEST JUMPDEST POP SWAP2 SWAP1 POP JUMP JUMPDEST PUSH32 0x4E487B7100000000000000000000000000000000000000000000000000000000 PUSH0 MSTORE PUSH1 0x11 PUSH1 0x4 MSTORE PUSH1 0x24 PUSH0 REVERT JUMPDEST PUSH0 PUSH2 0x1940 DUP3 PUSH2 0x1168 JUMP JUMPDEST SWAP2 POP PUSH2 0x194B DUP4 PUSH2 0x1168 JUMP JUMPDEST SWAP3 POP DUP3 DUP3 SUB SWAP1 POP DUP2 DUP2 GT ISZERO PUSH2 0x1963 JUMPI PUSH2 0x1962 PUSH2 0x1909 JUMP JUMPDEST JUMPDEST SWAP3 SWAP2 POP POP JUMP JUMPDEST PUSH32 0x4E487B7100000000000000000000000000000000000000000000000000000000 PUSH0 MSTORE PUSH1 0x32 PUSH1 0x4 MSTORE PUSH1 0x24 PUSH0 REVERT JUMPDEST PUSH0 DUP2 SWAP1 POP SWAP3 SWAP2 POP POP JUMP JUMPDEST PUSH0 PUSH2 0x19AA DUP3 PUSH2 0x1205 JUMP JUMPDEST PUSH2 0x19B4 DUP2 DUP6 PUSH2 0x1996 JUMP JUMPDEST SWAP4 POP PUSH2 0x19C4 DUP2 DUP6 PUSH1 0x20 DUP7 ADD PUSH2 0x121F JUMP JUMPDEST DUP1 DUP5 ADD SWAP2 POP POP SWAP3 SWAP2 POP POP JUMP JUMPDEST PUSH0 PUSH2 0x19DB DUP3 DUP5 PUSH2 0x19A0 JUMP JUMPDEST SWAP2 POP DUP2 SWAP1 POP SWAP3 SWAP2 POP POP JUMP JUMPDEST PUSH0 PUSH2 0x19F0 DUP3 PUSH2 0x1168 JUMP JUMPDEST SWAP2 POP PUSH2 0x19FB DUP4 PUSH2 0x1168 JUMP JUMPDEST SWAP3 POP DUP3 DUP3 MUL PUSH2 0x1A09 DUP2 PUSH2 0x1168 JUMP JUMPDEST SWAP2 POP DUP3 DUP3 DIV DUP5 EQ DUP4 ISZERO OR PUSH2 0x1A20 JUMPI PUSH2 0x1A1F PUSH2 0x1909 JUMP JUMPDEST JUMPDEST POP SWAP3 SWAP2 POP POP JUMP JUMPDEST PUSH32 0x4E487B7100000000000000000000000000000000000000000000000000000000 PUSH0 MSTORE PUSH1 0x12 PUSH1 0x4 MSTORE PUSH1 0x24 PUSH0 REVERT JUMPDEST PUSH0 PUSH2 0x1A5E DUP3 PUSH2 0x1168 JUMP JUMPDEST SWAP2 POP PUSH2 0x1A69 DUP4 PUSH2 0x1168 JUMP JUMPDEST SWAP3 POP DUP3 PUSH2 0x1A79 JUMPI PUSH2 0x1A78 PUSH2 0x1A27 JUMP JUMPDEST JUMPDEST DUP3 DUP3 DIV SWAP1 POP SWAP3 SWAP2 POP POP JUMP JUMPDEST PUSH0 DUP2 SWAP1 POP DUP2 PUSH0 MSTORE PUSH1 0x20 PUSH0 KECCAK256 SWAP1 POP SWAP2 SWAP1 POP JUMP JUMPDEST PUSH0 PUSH1 0x20 PUSH1 0x1F DUP4 ADD DIV SWAP1 POP SWAP2 SWAP1 POP JUMP JUMPDEST PUSH0 DUP3 DUP3 SHL SWAP1 POP SWAP3 SWAP2 POP POP JUMP JUMPDEST PUSH0 PUSH1 0x8 DUP4 MUL PUSH2 0x1AE0 PUSH32 0xFFFFFFFFFFFFFFFFFFFFFFFFFFFFFFFFFFFFFFFFFFFFFFFFFFFFFFFFFFFFFFFF DUP3 PUSH2 0x1AA5 JUMP JUMPDEST PUSH2 0x1AEA DUP7 DUP4 PUSH2 0x1AA5 JUMP JUMPDEST SWAP6 POP DUP1 NOT DUP5 AND SWAP4 POP DUP1 DUP7 AND DUP5 OR SWAP3 POP POP POP SWAP4 SWAP3 POP POP POP JUMP JUMPDEST PUSH0 DUP2 SWAP1 POP SWAP2 SWAP1 POP JUMP JUMPDEST PUSH0 PUSH2 0x1B25 PUSH2 0x1B20 PUSH2 0x1B1B DUP5 PUSH2 0x1168 JUMP JUMPDEST PUSH2 0x1B02 JUMP JUMPDEST PUSH2 0x1168 JUMP JUMPDEST SWAP1 POP SWAP2 SWAP1 POP JUMP JUMPDEST PUSH0 DUP2 SWAP1 POP SWAP2 SWAP1 POP JUMP JUMPDEST PUSH2 0x1B3E DUP4 PUSH2 0x1B0B JUMP JUMPDEST PUSH2 0x1B52 PUSH2 0x1B4A DUP3 PUSH2 0x1B2C JUMP JUMPDEST DUP5 DUP5 SLOAD PUSH2 0x1AB1 JUMP JUMPDEST DUP3 SSTORE POP POP POP POP JUMP JUMPDEST PUSH0 PUSH0 SWAP1 POP SWAP1 JUMP JUMPDEST PUSH2 0x1B69 PUSH2 0x1B5A JUMP JUMPDEST PUSH2 0x1B74 DUP2 DUP5 DUP5 PUSH2 0x1B35 JUMP JUMPDEST POP POP POP JUMP JUMPDEST JUMPDEST DUP2 DUP2 LT ISZERO PUSH2 0x1B97 JUMPI PUSH2 0x1B8C PUSH0 DUP3 PUSH2 0x1B61 JUMP JUMPDEST PUSH1 0x1 DUP2 ADD SWAP1 POP PUSH2 0x1B7A JUMP JUMPDEST POP POP JUMP JUMPDEST PUSH1 0x1F DUP3 GT ISZERO PUSH2 0x1BDC JUMPI PUSH2 0x1BAD DUP2 PUSH2 0x1A84 JUMP JUMPDEST PUSH2 0x1BB6 DUP5 PUSH2 0x1A96 JUMP JUMPDEST DUP2 ADD PUSH1 0x20 DUP6 LT ISZERO PUSH2 0x1BC5 JUMPI DUP2 SWAP1 POP JUMPDEST PUSH2 0x1BD9 PUSH2 0x1BD1 DUP6 PUSH2 0x1A96 JUMP JUMPDEST DUP4 ADD DUP3 PUSH2 0x1B79 JUMP JUMPDEST POP POP JUMPDEST POP POP POP JUMP JUMPDEST PUSH0 DUP3 DUP3 SHR SWAP1 POP SWAP3 SWAP2 POP POP JUMP JUMPDEST PUSH0 PUSH2 0x1BFC PUSH0 NOT DUP5 PUSH1 0x8 MUL PUSH2 0x1BE1 JUMP JUMPDEST NOT DUP1 DUP4 AND SWAP2 POP POP SWAP3 SWAP2 POP POP JUMP JUMPDEST PUSH0 PUSH2 0x1C14 DUP4 DUP4 PUSH2 0x1BED JUMP JUMPDEST SWAP2 POP DUP3 PUSH1 0x2 MUL DUP3 OR SWAP1 POP SWAP3 SWAP2 POP POP JUMP JUMPDEST PUSH2 0x1C2D DUP3 PUSH2 0x1205 JUMP JUMPDEST PUSH8 0xFFFFFFFFFFFFFFFF DUP2 GT ISZERO PUSH2 0x1C46 JUMPI PUSH2 0x1C45 PUSH2 0x133A JUMP JUMPDEST JUMPDEST PUSH2 0x1C50 DUP3 SLOAD PUSH2 0x18D9 JUMP JUMPDEST PUSH2 0x1C5B DUP3 DUP3 DUP6 PUSH2 0x1B9B JUMP JUMPDEST PUSH0 PUSH1 0x20 SWAP1 POP PUSH1 0x1F DUP4 GT PUSH1 0x1 DUP2 EQ PUSH2 0x1C8C JUMPI PUSH0 DUP5 ISZERO PUSH2 0x1C7A JUMPI DUP3 DUP8 ADD MLOAD SWAP1 POP JUMPDEST PUSH2 0x1C84 DUP6 DUP3 PUSH2 0x1C09 JUMP JUMPDEST DUP7 SSTORE POP PUSH2 0x1CEB JUMP JUMPDEST PUSH1 0x1F NOT DUP5 AND PUSH2 0x1C9A DUP7 PUSH2 0x1A84 JUMP JUMPDEST PUSH0 JUMPDEST DUP3 DUP2 LT ISZERO PUSH2 0x1CC1 JUMPI DUP5 DUP10 ADD MLOAD DUP3 SSTORE PUSH1 0x1 DUP3 ADD SWAP2 POP PUSH1 0x20 DUP6 ADD SWAP5 POP PUSH1 0x20 DUP2 ADD SWAP1 POP PUSH2 0x1C9C JUMP JUMPDEST DUP7 DUP4 LT ISZERO PUSH2 0x1CDE JUMPI DUP5 DUP10 ADD MLOAD PUSH2 0x1CDA PUSH1 0x1F DUP10 AND DUP3 PUSH2 0x1BED JUMP JUMPDEST DUP4 SSTORE POP JUMPDEST PUSH1 0x1 PUSH1 0x2 DUP9 MUL ADD DUP9 SSTORE POP POP POP JUMPDEST POP POP POP POP POP POP JUMP JUMPDEST PUSH0 PUSH2 0x1CFD DUP3 PUSH2 0x1168 JUMP JUMPDEST SWAP2 POP PUSH32 0xFFFFFFFFFFFFFFFFFFFFFFFFFFFFFFFFFFFFFFFFFFFFFFFFFFFFFFFFFFFFFFFF DUP3 SUB PUSH2 0x1D2F JUMPI PUSH2 0x1D2E PUSH2 0x1909 JUMP JUMPDEST JUMPDEST PUSH1 0x1 DUP3 ADD SWAP1 POP SWAP2 SWAP1 POP JUMP JUMPDEST PUSH0 DUP2 SLOAD PUSH2 0x1D46 DUP2 PUSH2 0x18D9 JUMP JUMPDEST PUSH2 0x1D50 DUP2 DUP7 PUSH2 0x1996 JUMP JUMPDEST SWAP5 POP PUSH1 0x1 DUP3 AND PUSH0 DUP2 EQ PUSH2 0x1D6A JUMPI PUSH1 0x1 DUP2 EQ PUSH2 0x1D7F JUMPI PUSH2 0x1DB1 JUMP JUMPDEST PUSH1 0xFF NOT DUP4 AND DUP7 MSTORE DUP2 ISZERO ISZERO DUP3 MUL DUP7 ADD SWAP4 POP PUSH2 0x1DB1 JUMP JUMPDEST PUSH2 0x1D88 DUP6 PUSH2 0x1A84 JUMP JUMPDEST PUSH0 JUMPDEST DUP4 DUP2 LT ISZERO PUSH2 0x1DA9 JUMPI DUP2 SLOAD DUP2 DUP10 ADD MSTORE PUSH1 0x1 DUP3 ADD SWAP2 POP PUSH1 0x20 DUP2 ADD SWAP1 POP PUSH2 0x1D8A JUMP JUMPDEST DUP4 DUP9 ADD SWAP6 POP POP POP JUMPDEST POP POP POP SWAP3 SWAP2 POP POP JUMP JUMPDEST PUSH0 PUSH2 0x1DC5 DUP3 DUP5 PUSH2 0x1D3A JUMP JUMPDEST SWAP2 POP DUP2 SWAP1 POP SWAP3 SWAP2 POP POP JUMP JUMPDEST PUSH32 0x4E6F20617661696C61626C65207469636B65747320666F722074686520737065 PUSH0 DUP3 ADD MSTORE PUSH32 0x6369666965642064657374696E6174696F6E0000000000000000000000000000 PUSH1 0x20 DUP3 ADD MSTORE POP JUMP JUMPDEST PUSH0 PUSH2 0x1E2A PUSH1 0x32 DUP4 PUSH2 0x120F JUMP JUMPDEST SWAP2 POP PUSH2 0x1E35 DUP3 PUSH2 0x1DD0 JUMP JUMPDEST PUSH1 0x40 DUP3 ADD SWAP1 POP SWAP2 SWAP1 POP JUMP JUMPDEST PUSH0 PUSH1 0x20 DUP3 ADD SWAP1 POP DUP2 DUP2 SUB PUSH0 DUP4 ADD MSTORE PUSH2 0x1E57 DUP2 PUSH2 0x1E1E JUMP JUMPDEST SWAP1 POP SWAP2 SWAP1 POP JUMP INVALID LOG2 PUSH5 0x6970667358 0x22 SLT KECCAK256 0xB6 0xAC GAS 0x4C RETURNDATACOPY 0x4C 0xB7 DUP13 SSTORE DUP6 PUSH12 0xC3A887CB8D737AEA4056DF7C PUSH29 0x8B76C1EC9443486D64736F6C634300081C003300000000000000000000 "},"gasEstimates":{"creation":{"codeDepositCost":"1565600","executionCost":"infinite","totalCost":"infinite"},"external":{"bookFlight(string,uint256,uint256,bool)":"infinite","ceo()":"2529","classMultiplier(uint256)":"infinite","count()":"2471","create30Tickets(address,string,uint256)":"infinite","createDestination(string,uint256)":"infinite","destinationPrices(uint256)":"infinite","destinations(uint256)":"infinite","getBookedFlights(address)":"infinite","getPrice(string,uint256,uint256,bool)":"infinite","indexes(string)":"infinite","isCeo(address)":"2822","monthMultiplier(uint256)":"infinite","nextTicketId()":"2470","ticketDetails(uint256)":"infinite"}},"methodIdentifiers":{"bookFlight(string,uint256,uint256,bool)":"ea6e358e","ceo()":"908921fc","classMultiplier(uint256)":"695dc67e","count()":"06661abd","create30Tickets(address,string,uint256)":"4afe9f7b","createDestination(string,uint256)":"5e583e37","destinationPrices(uint256)":"195c1445","destinations(uint256)":"8dd4ba2e","getBookedFlights(address)":"ad03fe70","getPrice(string,uint256,uint256,bool)":"07819bd6","indexes(string)":"2427e59e","isCeo(address)":"1165e6ab","monthMultiplier(uint256)":"cb2cc82a","nextTicketId()":"6031a52f","ticketDetails(uint256)":"033fab35"}},"storageLayout":{"storage":[{"astId":18,"contract":"AirlineManagement.sol:AirlineManagement","label":"ceo","offset":0,"slot":"0","type":"t_address"},{"astId":21,"contract":"AirlineManagement.sol:AirlineManagement","label":"destinations","offset":0,"slot":"1","type":"t_array(t_string_storage)dyn_storage"},{"astId":24,"contract":"AirlineManagement.sol:AirlineManagement","label":"destinationPrices","offset":0,"slot":"2","type":"t_array(t_uint256)dyn_storage"},{"astId":28,"contract":"AirlineManagement.sol:AirlineManagement","label":"indexes","offset":0,"slot":"3","type":"t_mapping(t_string_memory_ptr,t_uint256)"},{"astId":32,"contract":"AirlineManagement.sol:AirlineManagement","label":"monthMultiplier","offset":0,"slot":"4","type":"t_array(t_uint256)12_storage"},{"astId":36,"contract":"AirlineManagement.sol:AirlineManagement","label":"classMultiplier","offset":0,"slot":"16","type":"t_array(t_uint256)3_storage"},{"astId":38,"contract":"AirlineManagement.sol:AirlineManagement","label":"count","offset":0,"slot":"19","type":"t_uint256"},{"astId":43,"contract":"AirlineManagement.sol:AirlineManagement","label":"ticketDetails","offset":0,"slot":"20","type":"t_mapping(t_uint256,t_struct(Ticket)16_storage)"},{"astId":45,"contract":"AirlineManagement.sol:AirlineManagement","label":"nextTicketId","offset":0,"slot":"21","type":"t_uint256"}],"types":{"t_address":{"encoding":"inplace","label":"address","numberOfBytes":"20"},"t_array(t_string_storage)dyn_storage":{"base":"t_string_storage","encoding":"dynamic_array","label":"string[]","numberOfBytes":"32"},"t_array(t_uint256)12_storage":{"base":"t_uint256","encoding":"inplace","label":"uint256[12]","numberOfBytes":"384"},"t_array(t_uint256)3_storage":{"base":"t_uint256","encoding":"inplace","label":"uint256[3]","numberOfBytes":"96"},"t_array(t_uint256)dyn_storage":{"base":"t_uint256","encoding":"dynamic_array","label":"uint256[]","numberOfBytes":"32"},"t_bool":{"encoding":"inplace","label":"bool","numberOfBytes":"1"},"t_mapping(t_string_memory_ptr,t_uint256)":{"encoding":"mapping","key":"t_string_memory_ptr","label":"mapping(string => uint256)","numberOfBytes":"32","value":"t_uint256"},"t_mapping(t_uint256,t_struct(Ticket)16_storage)":{"encoding":"mapping","key":"t_uint256","label":"mapping(uint256 => struct AirlineManagement.Ticket)","numberOfBytes":"32","value":"t_struct(Ticket)16_storage"},"t_string_memory_ptr":{"encoding":"bytes","label":"string","numberOfBytes":"32"},"t_string_storage":{"encoding":"bytes","label":"string","numberOfBytes":"32"},"t_struct(Ticket)16_storage":{"encoding":"inplace","label":"struct AirlineManagement.Ticket","members":[{"astId":3,"contract":"AirlineManagement.sol:AirlineManagement","label":"owner","offset":0,"slot":"0","type":"t_address"},{"astId":5,"contract":"AirlineManagement.sol:AirlineManagement","label":"destination","offset":0,"slot":"1","type":"t_string_storage"},{"astId":7,"contract":"AirlineManagement.sol:AirlineManagement","label":"price","offset":0,"slot":"2","type":"t_uint256"},{"astId":9,"contract":"AirlineManagement.sol:AirlineManagement","label":"seat","offset":0,"slot":"3","type":"t_uint256"},{"astId":11,"contract":"AirlineManagement.sol:AirlineManagement","label":"class","offset":0,"slot":"4","type":"t_string_storage"},{"astId":13,"contract":"AirlineManagement.sol:AirlineManagement","label":"roundTrip","offset":0,"slot":"5","type":"t_bool"},{"astId":15,"contract":"AirlineManagement.sol:AirlineManagement","label":"isAvailable","offset":1,"slot":"5","type":"t_bool"}],"numberOfBytes":"192"},"t_uint256":{"encoding":"inplace","label":"uint256","numberOfBytes":"32"}}},"transientStorageLayout":{"storage":[],"types":null},"userdoc":{"kind":"user","methods":{},"version":1}}