{"abi":[{"inputs":[{"internalType":"string","name":"destination","type":"string"},{"internalType":"uint256","name":"destinationPrice","type":"uint256"}],"stateMutability":"nonpayable","type":"constructor"},{"inputs":[{"internalType":"string","name":"destination","type":"string"},{"internalType":"uint256","name":"month","type":"uint256"},{"internalType":"uint256","name":"class","type":"uint256"},{"internalType":"bool","name":"way","type":"bool"}],"name":"bookFlight","outputs":[],"stateMutability":"payable","type":"function"},{"inputs":[],"name":"canPayout","outputs":[{"internalType":"bool","name":"","type":"bool"}],"stateMutability":"view","type":"function"},{"inputs":[],"name":"ceo","outputs":[{"internalType":"address","name":"","type":"address"}],"stateMutability":"view","type":"function"},{"inputs":[{"internalType":"uint256","name":"","type":"uint256"}],"name":"classMultiplier","outputs":[{"internalType":"uint256","name":"","type":"uint256"}],"stateMutability":"view","type":"function"},{"inputs":[],"name":"count","outputs":[{"internalType":"uint256","name":"","type":"uint256"}],"stateMutability":"view","type":"function"},{"inputs":[{"internalType":"string","name":"destination","type":"string"},{"internalType":"uint256","name":"destinationPrice","type":"uint256"}],"name":"createDestination","outputs":[],"stateMutability":"nonpayable","type":"function"},{"inputs":[{"internalType":"uint256","name":"","type":"uint256"}],"name":"destinationPrices","outputs":[{"internalType":"uint256","name":"","type":"uint256"}],"stateMutability":"view","type":"function"},{"inputs":[{"internalType":"uint256","name":"","type":"uint256"}],"name":"destinations","outputs":[{"internalType":"string","name":"","type":"string"}],"stateMutability":"view","type":"function"},{"inputs":[{"internalType":"address","name":"user","type":"address"}],"name":"getBookedFlights","outputs":[{"components":[{"internalType":"address","name":"owner","type":"address"},{"internalType":"string","name":"destination","type":"string"},{"internalType":"uint256","name":"price","type":"uint256"},{"internalType":"uint256","name":"seat","type":"uint256"},{"internalType":"string","name":"class","type":"string"},{"internalType":"bool","name":"roundTrip","type":"bool"},{"internalType":"bool","name":"isAvailable","type":"bool"},{"internalType":"uint256","name":"month","type":"uint256"}],"internalType":"struct AirlineManagement.Ticket[]","name":"","type":"tuple[]"}],"stateMutability":"view","type":"function"},{"inputs":[{"internalType":"string","name":"destination","type":"string"},{"internalType":"uint256","name":"month","type":"uint256"},{"internalType":"uint256","name":"class","type":"uint256"},{"internalType":"bool","name":"way","type":"bool"}],"name":"getPrice","outputs":[{"internalType":"uint256","name":"","type":"uint256"}],"stateMutability":"view","type":"function"},{"inputs":[{"internalType":"string","name":"","type":"string"}],"name":"indexes","outputs":[{"internalType":"uint256","name":"","type":"uint256"}],"stateMutability":"view","type":"function"},{"inputs":[{"internalType":"address","name":"user","type":"address"}],"name":"isCeo","outputs":[{"internalType":"bool","name":"","type":"bool"}],"stateMutability":"view","type":"function"},{"inputs":[{"internalType":"uint256","name":"","type":"uint256"}],"name":"monthMultiplier","outputs":[{"internalType":"uint256","name":"","type":"uint256"}],"stateMutability":"view","type":"function"},{"inputs":[],"name":"nextTicketId","outputs":[{"internalType":"uint256","name":"","type":"uint256"}],"stateMutability":"view","type":"function"},{"inputs":[],"name":"payAmount","outputs":[{"internalType":"uint256","name":"","type":"uint256"}],"stateMutability":"view","type":"function"},{"inputs":[],"name":"payCEO","outputs":[],"stateMutability":"nonpayable","type":"function"},{"inputs":[{"internalType":"uint256","name":"","type":"uint256"}],"name":"seats","outputs":[{"internalType":"uint256","name":"","type":"uint256"}],"stateMutability":"view","type":"function"},{"inputs":[{"internalType":"uint256","name":"","type":"uint256"}],"name":"ticketDetails","outputs":[{"internalType":"address","name":"owner","type":"address"},{"internalType":"string","name":"destination","type":"string"},{"internalType":"uint256","name":"price","type":"uint256"},{"internalType":"uint256","name":"seat","type":"uint256"},{"internalType":"string","name":"class","type":"string"},{"internalType":"bool","name":"roundTrip","type":"bool"},{"internalType":"bool","name":"isAvailable","type":"bool"},{"internalType":"uint256","name":"month","type":"uint256"}],"stateMutability":"view","type":"function"}],"devdoc":{"kind":"dev","methods":{},"version":1},"evm":{"assembly":"    /* \"AirlineManagement.sol\":64:6556  contract AirlineManagement {... */\n  mstore(0x40, 0x80)\n    /* \"AirlineManagement.sol\":1205:2222  constructor(string memory destination, uint256 destinationPrice) {... */\n  callvalue\n  dup1\n  iszero\n  tag_1\n  jumpi\n  0x00\n  dup1\n  revert\ntag_1:\n  pop\n  mload(0x40)\n  sub(codesize, bytecodeSize)\n  dup1\n  bytecodeSize\n  dup4\n  codecopy\n  dup2\n  dup2\n  add\n  0x40\n  mstore\n  dup2\n  add\n  swap1\n  tag_2\n  swap2\n  swap1\n  tag_3\n  jump\t// in\ntag_2:\n    /* \"AirlineManagement.sol\":1287:1297  msg.sender */\n  caller\n    /* \"AirlineManagement.sol\":1281:1284  ceo */\n  0x00\n  dup1\n    /* \"AirlineManagement.sol\":1281:1297  ceo = msg.sender */\n  0x0100\n  exp\n  dup2\n  sload\n  dup2\n  0xffffffffffffffffffffffffffffffffffffffff\n  mul\n  not\n  and\n  swap1\n  dup4\n  0xffffffffffffffffffffffffffffffffffffffff\n  and\n  mul\n  or\n  swap1\n  sstore\n  pop\n    /* \"AirlineManagement.sol\":1320:1325  false */\n  0x00\n    /* \"AirlineManagement.sol\":1308:1317  canPayout */\n  0x15\n  0x00\n    /* \"AirlineManagement.sol\":1308:1325  canPayout = false */\n  0x0100\n  exp\n  dup2\n  sload\n  dup2\n  0xff\n  mul\n  not\n  and\n  swap1\n  dup4\n  iszero\n  iszero\n  mul\n  or\n  swap1\n  sstore\n  pop\n    /* \"AirlineManagement.sol\":1348:1349  0 */\n  0x00\n    /* \"AirlineManagement.sol\":1336:1345  payAmount */\n  0x16\n    /* \"AirlineManagement.sol\":1336:1349  payAmount = 0 */\n  dup2\n  swap1\n  sstore\n  pop\n    /* \"AirlineManagement.sol\":1368:1369  0 */\n  0x00\n    /* \"AirlineManagement.sol\":1360:1365  count */\n  0x14\n    /* \"AirlineManagement.sol\":1360:1369  count = 0 */\n  dup2\n  swap1\n  sstore\n  pop\n    /* \"AirlineManagement.sol\":1380:1392  destinations */\n  0x01\n    /* \"AirlineManagement.sol\":1398:1409  destination */\n  dup3\n    /* \"AirlineManagement.sol\":1380:1410  destinations.push(destination) */\n  swap1\n  dup1\n  0x01\n  dup2\n  sload\n  add\n  dup1\n  dup3\n  sstore\n  dup1\n  swap2\n  pop\n  pop\n  0x01\n  swap1\n  sub\n  swap1\n  0x00\n  mstore\n  keccak256(0x00, 0x20)\n  add\n  0x00\n  swap1\n  swap2\n  swap1\n  swap2\n  swap1\n  swap2\n  pop\n  swap1\n  dup2\n  tag_7\n  swap2\n  swap1\n  tag_8\n  jump\t// in\ntag_7:\n  pop\n    /* \"AirlineManagement.sol\":1421:1438  destinationPrices */\n  0x02\n    /* \"AirlineManagement.sol\":1444:1460  destinationPrice */\n  dup2\n    /* \"AirlineManagement.sol\":1421:1461  destinationPrices.push(destinationPrice) */\n  swap1\n  dup1\n  0x01\n  dup2\n  sload\n  add\n  dup1\n  dup3\n  sstore\n  dup1\n  swap2\n  pop\n  pop\n  0x01\n  swap1\n  sub\n  swap1\n  0x00\n  mstore\n  keccak256(0x00, 0x20)\n  add\n  0x00\n  swap1\n  swap2\n  swap1\n  swap2\n  swap1\n  swap2\n  pop\n  sstore\n    /* \"AirlineManagement.sol\":1472:1477  seats */\n  0x03\n    /* \"AirlineManagement.sol\":1483:1485  30 */\n  0x1e\n    /* \"AirlineManagement.sol\":1472:1486  seats.push(30) */\n  swap1\n  dup1\n  0x01\n  dup2\n  sload\n  add\n  dup1\n  dup3\n  sstore\n  dup1\n  swap2\n  pop\n  pop\n  0x01\n  swap1\n  sub\n  swap1\n  0x00\n  mstore\n  keccak256(0x00, 0x20)\n  add\n  0x00\n  swap1\n  swap2\n  swap1\n  swap2\n  swap1\n  swap2\n  pop\n  sstore\n    /* \"AirlineManagement.sol\":1520:1525  count */\n  sload(0x14)\n    /* \"AirlineManagement.sol\":1497:1504  indexes */\n  0x04\n    /* \"AirlineManagement.sol\":1505:1516  destination */\n  dup4\n    /* \"AirlineManagement.sol\":1497:1517  indexes[destination] */\n  mload(0x40)\n  tag_11\n  swap2\n  swap1\n  tag_12\n  jump\t// in\ntag_11:\n  swap1\n  dup2\n  mstore\n  0x20\n  add\n  mload(0x40)\n  dup1\n  swap2\n  sub\n  swap1\n  keccak256\n    /* \"AirlineManagement.sol\":1497:1525  indexes[destination] = count */\n  dup2\n  swap1\n  sstore\n  pop\n    /* \"AirlineManagement.sol\":1536:1594  create30Tickets(msg.sender, destination, destinationPrice) */\n  tag_13\n    /* \"AirlineManagement.sol\":1552:1562  msg.sender */\n  caller\n    /* \"AirlineManagement.sol\":1564:1575  destination */\n  dup4\n    /* \"AirlineManagement.sol\":1577:1593  destinationPrice */\n  dup4\n    /* \"AirlineManagement.sol\":1536:1551  create30Tickets */\n  shl(0x20, tag_14)\n    /* \"AirlineManagement.sol\":1536:1594  create30Tickets(msg.sender, destination, destinationPrice) */\n  0x20\n  shr\n  jump\t// in\ntag_13:\n    /* \"AirlineManagement.sol\":1674:1675  3 */\n  0x03\n    /* \"AirlineManagement.sol\":1653:1668  monthMultiplier */\n  0x05\n    /* \"AirlineManagement.sol\":1669:1670  0 */\n  0x00\n    /* \"AirlineManagement.sol\":1653:1671  monthMultiplier[0] */\n  0x0c\n  dup2\n  lt\n  tag_15\n  jumpi\n  tag_16\n  tag_17\n  jump\t// in\ntag_16:\ntag_15:\n  add\n    /* \"AirlineManagement.sol\":1653:1675  monthMultiplier[0] = 3 */\n  dup2\n  swap1\n  sstore\n  pop\n    /* \"AirlineManagement.sol\":1707:1708  2 */\n  0x02\n    /* \"AirlineManagement.sol\":1686:1701  monthMultiplier */\n  0x05\n    /* \"AirlineManagement.sol\":1702:1703  1 */\n  0x01\n    /* \"AirlineManagement.sol\":1686:1704  monthMultiplier[1] */\n  0x0c\n  dup2\n  lt\n  tag_19\n  jumpi\n  tag_20\n  tag_17\n  jump\t// in\ntag_20:\ntag_19:\n  add\n    /* \"AirlineManagement.sol\":1686:1708  monthMultiplier[1] = 2 */\n  dup2\n  swap1\n  sstore\n  pop\n    /* \"AirlineManagement.sol\":1740:1741  4 */\n  0x04\n    /* \"AirlineManagement.sol\":1719:1734  monthMultiplier */\n  0x05\n    /* \"AirlineManagement.sol\":1735:1736  2 */\n  0x02\n    /* \"AirlineManagement.sol\":1719:1737  monthMultiplier[2] */\n  0x0c\n  dup2\n  lt\n  tag_22\n  jumpi\n  tag_23\n  tag_17\n  jump\t// in\ntag_23:\ntag_22:\n  add\n    /* \"AirlineManagement.sol\":1719:1741  monthMultiplier[2] = 4 */\n  dup2\n  swap1\n  sstore\n  pop\n    /* \"AirlineManagement.sol\":1773:1774  5 */\n  0x05\n    /* \"AirlineManagement.sol\":1752:1767  monthMultiplier */\n  dup1\n    /* \"AirlineManagement.sol\":1768:1769  3 */\n  0x03\n    /* \"AirlineManagement.sol\":1752:1770  monthMultiplier[3] */\n  0x0c\n  dup2\n  lt\n  tag_25\n  jumpi\n  tag_26\n  tag_17\n  jump\t// in\ntag_26:\ntag_25:\n  add\n    /* \"AirlineManagement.sol\":1752:1774  monthMultiplier[3] = 5 */\n  dup2\n  swap1\n  sstore\n  pop\n    /* \"AirlineManagement.sol\":1806:1807  3 */\n  0x03\n    /* \"AirlineManagement.sol\":1785:1800  monthMultiplier */\n  0x05\n    /* \"AirlineManagement.sol\":1801:1802  4 */\n  0x04\n    /* \"AirlineManagement.sol\":1785:1803  monthMultiplier[4] */\n  0x0c\n  dup2\n  lt\n  tag_28\n  jumpi\n  tag_29\n  tag_17\n  jump\t// in\ntag_29:\ntag_28:\n  add\n    /* \"AirlineManagement.sol\":1785:1807  monthMultiplier[4] = 3 */\n  dup2\n  swap1\n  sstore\n  pop\n    /* \"AirlineManagement.sol\":1839:1841  12 */\n  0x0c\n    /* \"AirlineManagement.sol\":1818:1833  monthMultiplier */\n  0x05\n    /* \"AirlineManagement.sol\":1834:1835  5 */\n  dup1\n    /* \"AirlineManagement.sol\":1818:1836  monthMultiplier[5] */\n  0x0c\n  dup2\n  lt\n  tag_31\n  jumpi\n  tag_32\n  tag_17\n  jump\t// in\ntag_32:\ntag_31:\n  add\n    /* \"AirlineManagement.sol\":1818:1841  monthMultiplier[5] = 12 */\n  dup2\n  swap1\n  sstore\n  pop\n    /* \"AirlineManagement.sol\":1873:1875  11 */\n  0x0b\n    /* \"AirlineManagement.sol\":1852:1867  monthMultiplier */\n  0x05\n    /* \"AirlineManagement.sol\":1868:1869  6 */\n  0x06\n    /* \"AirlineManagement.sol\":1852:1870  monthMultiplier[6] */\n  0x0c\n  dup2\n  lt\n  tag_34\n  jumpi\n  tag_35\n  tag_17\n  jump\t// in\ntag_35:\ntag_34:\n  add\n    /* \"AirlineManagement.sol\":1852:1875  monthMultiplier[6] = 11 */\n  dup2\n  swap1\n  sstore\n  pop\n    /* \"AirlineManagement.sol\":1907:1909  12 */\n  0x0c\n    /* \"AirlineManagement.sol\":1886:1901  monthMultiplier */\n  0x05\n    /* \"AirlineManagement.sol\":1902:1903  7 */\n  0x07\n    /* \"AirlineManagement.sol\":1886:1904  monthMultiplier[7] */\n  0x0c\n  dup2\n  lt\n  tag_37\n  jumpi\n  tag_38\n  tag_17\n  jump\t// in\ntag_38:\ntag_37:\n  add\n    /* \"AirlineManagement.sol\":1886:1909  monthMultiplier[7] = 12 */\n  dup2\n  swap1\n  sstore\n  pop\n    /* \"AirlineManagement.sol\":1941:1943  15 */\n  0x0f\n    /* \"AirlineManagement.sol\":1920:1935  monthMultiplier */\n  0x05\n    /* \"AirlineManagement.sol\":1936:1937  8 */\n  0x08\n    /* \"AirlineManagement.sol\":1920:1938  monthMultiplier[8] */\n  0x0c\n  dup2\n  lt\n  tag_40\n  jumpi\n  tag_41\n  tag_17\n  jump\t// in\ntag_41:\ntag_40:\n  add\n    /* \"AirlineManagement.sol\":1920:1943  monthMultiplier[8] = 15 */\n  dup2\n  swap1\n  sstore\n  pop\n    /* \"AirlineManagement.sol\":1975:1977  14 */\n  0x0e\n    /* \"AirlineManagement.sol\":1954:1969  monthMultiplier */\n  0x05\n    /* \"AirlineManagement.sol\":1970:1971  9 */\n  0x09\n    /* \"AirlineManagement.sol\":1954:1972  monthMultiplier[9] */\n  0x0c\n  dup2\n  lt\n  tag_43\n  jumpi\n  tag_44\n  tag_17\n  jump\t// in\ntag_44:\ntag_43:\n  add\n    /* \"AirlineManagement.sol\":1954:1977  monthMultiplier[9] = 14 */\n  dup2\n  swap1\n  sstore\n  pop\n    /* \"AirlineManagement.sol\":2010:2012  11 */\n  0x0b\n    /* \"AirlineManagement.sol\":1988:2003  monthMultiplier */\n  0x05\n    /* \"AirlineManagement.sol\":2004:2006  10 */\n  0x0a\n    /* \"AirlineManagement.sol\":1988:2007  monthMultiplier[10] */\n  0x0c\n  dup2\n  lt\n  tag_46\n  jumpi\n  tag_47\n  tag_17\n  jump\t// in\ntag_47:\ntag_46:\n  add\n    /* \"AirlineManagement.sol\":1988:2012  monthMultiplier[10] = 11 */\n  dup2\n  swap1\n  sstore\n  pop\n    /* \"AirlineManagement.sol\":2045:2047  13 */\n  0x0d\n    /* \"AirlineManagement.sol\":2023:2038  monthMultiplier */\n  0x05\n    /* \"AirlineManagement.sol\":2039:2041  11 */\n  0x0b\n    /* \"AirlineManagement.sol\":2023:2042  monthMultiplier[11] */\n  0x0c\n  dup2\n  lt\n  tag_49\n  jumpi\n  tag_50\n  tag_17\n  jump\t// in\ntag_50:\ntag_49:\n  add\n    /* \"AirlineManagement.sol\":2023:2047  monthMultiplier[11] = 13 */\n  dup2\n  swap1\n  sstore\n  pop\n    /* \"AirlineManagement.sol\":2127:2128  1 */\n  0x01\n    /* \"AirlineManagement.sol\":2106:2121  classMultiplier */\n  0x11\n    /* \"AirlineManagement.sol\":2122:2123  0 */\n  0x00\n    /* \"AirlineManagement.sol\":2106:2124  classMultiplier[0] */\n  0x03\n  dup2\n  lt\n  tag_52\n  jumpi\n  tag_53\n  tag_17\n  jump\t// in\ntag_53:\ntag_52:\n  add\n    /* \"AirlineManagement.sol\":2106:2128  classMultiplier[0] = 1 */\n  dup2\n  swap1\n  sstore\n  pop\n    /* \"AirlineManagement.sol\":2160:2161  2 */\n  0x02\n    /* \"AirlineManagement.sol\":2139:2154  classMultiplier */\n  0x11\n    /* \"AirlineManagement.sol\":2155:2156  1 */\n  0x01\n    /* \"AirlineManagement.sol\":2139:2157  classMultiplier[1] */\n  0x03\n  dup2\n  lt\n  tag_55\n  jumpi\n  tag_56\n  tag_17\n  jump\t// in\ntag_56:\ntag_55:\n  add\n    /* \"AirlineManagement.sol\":2139:2161  classMultiplier[1] = 2 */\n  dup2\n  swap1\n  sstore\n  pop\n    /* \"AirlineManagement.sol\":2193:2194  3 */\n  0x03\n    /* \"AirlineManagement.sol\":2172:2187  classMultiplier */\n  0x11\n    /* \"AirlineManagement.sol\":2188:2189  2 */\n  0x02\n    /* \"AirlineManagement.sol\":2172:2190  classMultiplier[2] */\n  0x03\n  dup2\n  lt\n  tag_58\n  jumpi\n  tag_59\n  tag_17\n  jump\t// in\ntag_59:\ntag_58:\n  add\n    /* \"AirlineManagement.sol\":2172:2194  classMultiplier[2] = 3 */\n  dup2\n  swap1\n  sstore\n  pop\n    /* \"AirlineManagement.sol\":2207:2212  count */\n  0x14\n  0x00\n    /* \"AirlineManagement.sol\":2207:2214  count++ */\n  dup2\n  sload\n  dup1\n  swap3\n  swap2\n  swap1\n  tag_61\n  swap1\n  tag_62\n  jump\t// in\ntag_61:\n  swap2\n  swap1\n  pop\n  sstore\n  pop\n    /* \"AirlineManagement.sol\":1205:2222  constructor(string memory destination, uint256 destinationPrice) {... */\n  pop\n  pop\n    /* \"AirlineManagement.sol\":64:6556  contract AirlineManagement {... */\n  jump(tag_63)\n    /* \"AirlineManagement.sol\":2915:3261  function create30Tickets(address owner, string memory destination, uint256 price) private restricted {... */\ntag_14:\n    /* \"AirlineManagement.sol\":1129:1132  ceo */\n  0x00\n  dup1\n  sload\n  swap1\n  0x0100\n  exp\n  swap1\n  div\n  0xffffffffffffffffffffffffffffffffffffffff\n  and\n    /* \"AirlineManagement.sol\":1115:1132  msg.sender == ceo */\n  0xffffffffffffffffffffffffffffffffffffffff\n  and\n    /* \"AirlineManagement.sol\":1115:1125  msg.sender */\n  caller\n    /* \"AirlineManagement.sol\":1115:1132  msg.sender == ceo */\n  0xffffffffffffffffffffffffffffffffffffffff\n  and\n  eq\n    /* \"AirlineManagement.sol\":1107:1133  require(msg.sender == ceo) */\n  tag_65\n  jumpi\n  0x00\n  dup1\n  revert\ntag_65:\n    /* \"AirlineManagement.sol\":3032:3044  uint256 seat */\n  0x00\n    /* \"AirlineManagement.sol\":3027:3254  for (uint256 seat = 0; seat < 30; seat++) {... */\ntag_67:\n    /* \"AirlineManagement.sol\":3057:3059  30 */\n  0x1e\n    /* \"AirlineManagement.sol\":3050:3054  seat */\n  dup2\n    /* \"AirlineManagement.sol\":3050:3059  seat < 30 */\n  lt\n    /* \"AirlineManagement.sol\":3027:3254  for (uint256 seat = 0; seat < 30; seat++) {... */\n  iszero\n  tag_68\n  jumpi\n    /* \"AirlineManagement.sol\":3084:3099  uint256 tokenId */\n  0x00\n    /* \"AirlineManagement.sol\":3102:3114  nextTicketId */\n  sload(0x18)\n    /* \"AirlineManagement.sol\":3084:3114  uint256 tokenId = nextTicketId */\n  swap1\n  pop\n    /* \"AirlineManagement.sol\":3154:3213  Ticket(owner, destination, price, seat, \"\", false, true, 0) */\n  mload(0x40)\n  dup1\n  0x0100\n  add\n  0x40\n  mstore\n  dup1\n    /* \"AirlineManagement.sol\":3161:3166  owner */\n  dup7\n    /* \"AirlineManagement.sol\":3154:3213  Ticket(owner, destination, price, seat, \"\", false, true, 0) */\n  0xffffffffffffffffffffffffffffffffffffffff\n  and\n  dup2\n  mstore\n  0x20\n  add\n    /* \"AirlineManagement.sol\":3168:3179  destination */\n  dup6\n    /* \"AirlineManagement.sol\":3154:3213  Ticket(owner, destination, price, seat, \"\", false, true, 0) */\n  dup2\n  mstore\n  0x20\n  add\n    /* \"AirlineManagement.sol\":3181:3186  price */\n  dup5\n    /* \"AirlineManagement.sol\":3154:3213  Ticket(owner, destination, price, seat, \"\", false, true, 0) */\n  dup2\n  mstore\n  0x20\n  add\n    /* \"AirlineManagement.sol\":3188:3192  seat */\n  dup4\n    /* \"AirlineManagement.sol\":3154:3213  Ticket(owner, destination, price, seat, \"\", false, true, 0) */\n  dup2\n  mstore\n  0x20\n  add\n  mload(0x40)\n  dup1\n  0x20\n  add\n  0x40\n  mstore\n  dup1\n  0x00\n  dup2\n  mstore\n  pop\n  dup2\n  mstore\n  0x20\n  add\n    /* \"AirlineManagement.sol\":3198:3203  false */\n  0x00\n    /* \"AirlineManagement.sol\":3154:3213  Ticket(owner, destination, price, seat, \"\", false, true, 0) */\n  iszero\n  iszero\n  dup2\n  mstore\n  0x20\n  add\n    /* \"AirlineManagement.sol\":3205:3209  true */\n  0x01\n    /* \"AirlineManagement.sol\":3154:3213  Ticket(owner, destination, price, seat, \"\", false, true, 0) */\n  iszero\n  iszero\n  dup2\n  mstore\n  0x20\n  add\n    /* \"AirlineManagement.sol\":3211:3212  0 */\n  0x00\n    /* \"AirlineManagement.sol\":3154:3213  Ticket(owner, destination, price, seat, \"\", false, true, 0) */\n  dup2\n  mstore\n  pop\n    /* \"AirlineManagement.sol\":3129:3142  ticketDetails */\n  0x17\n    /* \"AirlineManagement.sol\":3129:3151  ticketDetails[tokenId] */\n  0x00\n    /* \"AirlineManagement.sol\":3143:3150  tokenId */\n  dup4\n    /* \"AirlineManagement.sol\":3129:3151  ticketDetails[tokenId] */\n  dup2\n  mstore\n  0x20\n  add\n  swap1\n  dup2\n  mstore\n  0x20\n  add\n  0x00\n  keccak256\n    /* \"AirlineManagement.sol\":3129:3213  ticketDetails[tokenId] = Ticket(owner, destination, price, seat, \"\", false, true, 0) */\n  0x00\n  dup3\n  add\n  mload\n  dup2\n  0x00\n  add\n  exp(0x0100, 0x00)\n  dup2\n  sload\n  dup2\n  0xffffffffffffffffffffffffffffffffffffffff\n  mul\n  not\n  and\n  swap1\n  dup4\n  0xffffffffffffffffffffffffffffffffffffffff\n  and\n  mul\n  or\n  swap1\n  sstore\n  pop\n  0x20\n  dup3\n  add\n  mload\n  dup2\n  0x01\n  add\n  swap1\n  dup2\n  tag_70\n  swap2\n  swap1\n  tag_8\n  jump\t// in\ntag_70:\n  pop\n  0x40\n  dup3\n  add\n  mload\n  dup2\n  0x02\n  add\n  sstore\n  0x60\n  dup3\n  add\n  mload\n  dup2\n  0x03\n  add\n  sstore\n  0x80\n  dup3\n  add\n  mload\n  dup2\n  0x04\n  add\n  swap1\n  dup2\n  tag_71\n  swap2\n  swap1\n  tag_8\n  jump\t// in\ntag_71:\n  pop\n  0xa0\n  dup3\n  add\n  mload\n  dup2\n  0x05\n  add\n  exp(0x0100, 0x00)\n  dup2\n  sload\n  dup2\n  0xff\n  mul\n  not\n  and\n  swap1\n  dup4\n  iszero\n  iszero\n  mul\n  or\n  swap1\n  sstore\n  pop\n  0xc0\n  dup3\n  add\n  mload\n  dup2\n  0x05\n  add\n  exp(0x0100, 0x01)\n  dup2\n  sload\n  dup2\n  0xff\n  mul\n  not\n  and\n  swap1\n  dup4\n  iszero\n  iszero\n  mul\n  or\n  swap1\n  sstore\n  pop\n  0xe0\n  dup3\n  add\n  mload\n  dup2\n  0x06\n  add\n  sstore\n  swap1\n  pop\n  pop\n    /* \"AirlineManagement.sol\":3228:3240  nextTicketId */\n  0x18\n  0x00\n    /* \"AirlineManagement.sol\":3228:3242  nextTicketId++ */\n  dup2\n  sload\n  dup1\n  swap3\n  swap2\n  swap1\n  tag_72\n  swap1\n  tag_62\n  jump\t// in\ntag_72:\n  swap2\n  swap1\n  pop\n  sstore\n  pop\n    /* \"AirlineManagement.sol\":3069:3254  {... */\n  pop\n    /* \"AirlineManagement.sol\":3061:3067  seat++ */\n  dup1\n  dup1\n  tag_73\n  swap1\n  tag_62\n  jump\t// in\ntag_73:\n  swap2\n  pop\n  pop\n    /* \"AirlineManagement.sol\":3027:3254  for (uint256 seat = 0; seat < 30; seat++) {... */\n  jump(tag_67)\ntag_68:\n  pop\n    /* \"AirlineManagement.sol\":2915:3261  function create30Tickets(address owner, string memory destination, uint256 price) private restricted {... */\n  pop\n  pop\n  pop\n  jump\t// out\n    /* \"#utility.yul\":7:82   */\ntag_74:\n    /* \"#utility.yul\":40:46   */\n  0x00\n    /* \"#utility.yul\":73:75   */\n  0x40\n    /* \"#utility.yul\":67:76   */\n  mload\n    /* \"#utility.yul\":57:76   */\n  swap1\n  pop\n    /* \"#utility.yul\":7:82   */\n  swap1\n  jump\t// out\n    /* \"#utility.yul\":88:205   */\ntag_75:\n    /* \"#utility.yul\":197:198   */\n  0x00\n    /* \"#utility.yul\":194:195   */\n  dup1\n    /* \"#utility.yul\":187:199   */\n  revert\n    /* \"#utility.yul\":211:328   */\ntag_76:\n    /* \"#utility.yul\":320:321   */\n  0x00\n    /* \"#utility.yul\":317:318   */\n  dup1\n    /* \"#utility.yul\":310:322   */\n  revert\n    /* \"#utility.yul\":334:451   */\ntag_77:\n    /* \"#utility.yul\":443:444   */\n  0x00\n    /* \"#utility.yul\":440:441   */\n  dup1\n    /* \"#utility.yul\":433:445   */\n  revert\n    /* \"#utility.yul\":457:574   */\ntag_78:\n    /* \"#utility.yul\":566:567   */\n  0x00\n    /* \"#utility.yul\":563:564   */\n  dup1\n    /* \"#utility.yul\":556:568   */\n  revert\n    /* \"#utility.yul\":580:682   */\ntag_79:\n    /* \"#utility.yul\":621:627   */\n  0x00\n    /* \"#utility.yul\":672:674   */\n  0x1f\n    /* \"#utility.yul\":668:675   */\n  not\n    /* \"#utility.yul\":663:665   */\n  0x1f\n    /* \"#utility.yul\":656:661   */\n  dup4\n    /* \"#utility.yul\":652:666   */\n  add\n    /* \"#utility.yul\":648:676   */\n  and\n    /* \"#utility.yul\":638:676   */\n  swap1\n  pop\n    /* \"#utility.yul\":580:682   */\n  swap2\n  swap1\n  pop\n  jump\t// out\n    /* \"#utility.yul\":688:868   */\ntag_80:\n    /* \"#utility.yul\":736:813   */\n  0x4e487b7100000000000000000000000000000000000000000000000000000000\n    /* \"#utility.yul\":733:734   */\n  0x00\n    /* \"#utility.yul\":726:814   */\n  mstore\n    /* \"#utility.yul\":833:837   */\n  0x41\n    /* \"#utility.yul\":830:831   */\n  0x04\n    /* \"#utility.yul\":823:838   */\n  mstore\n    /* \"#utility.yul\":857:861   */\n  0x24\n    /* \"#utility.yul\":854:855   */\n  0x00\n    /* \"#utility.yul\":847:862   */\n  revert\n    /* \"#utility.yul\":874:1155   */\ntag_81:\n    /* \"#utility.yul\":957:984   */\n  tag_120\n    /* \"#utility.yul\":979:983   */\n  dup3\n    /* \"#utility.yul\":957:984   */\n  tag_79\n  jump\t// in\ntag_120:\n    /* \"#utility.yul\":949:955   */\n  dup2\n    /* \"#utility.yul\":945:985   */\n  add\n    /* \"#utility.yul\":1087:1093   */\n  dup2\n    /* \"#utility.yul\":1075:1085   */\n  dup2\n    /* \"#utility.yul\":1072:1094   */\n  lt\n    /* \"#utility.yul\":1051:1069   */\n  0xffffffffffffffff\n    /* \"#utility.yul\":1039:1049   */\n  dup3\n    /* \"#utility.yul\":1036:1070   */\n  gt\n    /* \"#utility.yul\":1033:1095   */\n  or\n    /* \"#utility.yul\":1030:1118   */\n  iszero\n  tag_121\n  jumpi\n    /* \"#utility.yul\":1098:1116   */\n  tag_122\n  tag_80\n  jump\t// in\ntag_122:\n    /* \"#utility.yul\":1030:1118   */\ntag_121:\n    /* \"#utility.yul\":1138:1148   */\n  dup1\n    /* \"#utility.yul\":1134:1136   */\n  0x40\n    /* \"#utility.yul\":1127:1149   */\n  mstore\n    /* \"#utility.yul\":917:1155   */\n  pop\n    /* \"#utility.yul\":874:1155   */\n  pop\n  pop\n  jump\t// out\n    /* \"#utility.yul\":1161:1290   */\ntag_82:\n    /* \"#utility.yul\":1195:1201   */\n  0x00\n    /* \"#utility.yul\":1222:1242   */\n  tag_124\n  tag_74\n  jump\t// in\ntag_124:\n    /* \"#utility.yul\":1212:1242   */\n  swap1\n  pop\n    /* \"#utility.yul\":1251:1284   */\n  tag_125\n    /* \"#utility.yul\":1279:1283   */\n  dup3\n    /* \"#utility.yul\":1271:1277   */\n  dup3\n    /* \"#utility.yul\":1251:1284   */\n  tag_81\n  jump\t// in\ntag_125:\n    /* \"#utility.yul\":1161:1290   */\n  swap2\n  swap1\n  pop\n  jump\t// out\n    /* \"#utility.yul\":1296:1604   */\ntag_83:\n    /* \"#utility.yul\":1358:1362   */\n  0x00\n    /* \"#utility.yul\":1448:1466   */\n  0xffffffffffffffff\n    /* \"#utility.yul\":1440:1446   */\n  dup3\n    /* \"#utility.yul\":1437:1467   */\n  gt\n    /* \"#utility.yul\":1434:1490   */\n  iszero\n  tag_127\n  jumpi\n    /* \"#utility.yul\":1470:1488   */\n  tag_128\n  tag_80\n  jump\t// in\ntag_128:\n    /* \"#utility.yul\":1434:1490   */\ntag_127:\n    /* \"#utility.yul\":1508:1537   */\n  tag_129\n    /* \"#utility.yul\":1530:1536   */\n  dup3\n    /* \"#utility.yul\":1508:1537   */\n  tag_79\n  jump\t// in\ntag_129:\n    /* \"#utility.yul\":1500:1537   */\n  swap1\n  pop\n    /* \"#utility.yul\":1592:1596   */\n  0x20\n    /* \"#utility.yul\":1586:1590   */\n  dup2\n    /* \"#utility.yul\":1582:1597   */\n  add\n    /* \"#utility.yul\":1574:1597   */\n  swap1\n  pop\n    /* \"#utility.yul\":1296:1604   */\n  swap2\n  swap1\n  pop\n  jump\t// out\n    /* \"#utility.yul\":1610:1856   */\ntag_84:\n    /* \"#utility.yul\":1691:1692   */\n  0x00\n    /* \"#utility.yul\":1701:1814   */\ntag_131:\n    /* \"#utility.yul\":1715:1721   */\n  dup4\n    /* \"#utility.yul\":1712:1713   */\n  dup2\n    /* \"#utility.yul\":1709:1722   */\n  lt\n    /* \"#utility.yul\":1701:1814   */\n  iszero\n  tag_133\n  jumpi\n    /* \"#utility.yul\":1800:1801   */\n  dup1\n    /* \"#utility.yul\":1795:1798   */\n  dup3\n    /* \"#utility.yul\":1791:1802   */\n  add\n    /* \"#utility.yul\":1785:1803   */\n  mload\n    /* \"#utility.yul\":1781:1782   */\n  dup2\n    /* \"#utility.yul\":1776:1779   */\n  dup5\n    /* \"#utility.yul\":1772:1783   */\n  add\n    /* \"#utility.yul\":1765:1804   */\n  mstore\n    /* \"#utility.yul\":1737:1739   */\n  0x20\n    /* \"#utility.yul\":1734:1735   */\n  dup2\n    /* \"#utility.yul\":1730:1740   */\n  add\n    /* \"#utility.yul\":1725:1740   */\n  swap1\n  pop\n    /* \"#utility.yul\":1701:1814   */\n  jump(tag_131)\ntag_133:\n    /* \"#utility.yul\":1848:1849   */\n  0x00\n    /* \"#utility.yul\":1839:1845   */\n  dup5\n    /* \"#utility.yul\":1834:1837   */\n  dup5\n    /* \"#utility.yul\":1830:1846   */\n  add\n    /* \"#utility.yul\":1823:1850   */\n  mstore\n    /* \"#utility.yul\":1672:1856   */\n  pop\n    /* \"#utility.yul\":1610:1856   */\n  pop\n  pop\n  pop\n  jump\t// out\n    /* \"#utility.yul\":1862:2296   */\ntag_85:\n    /* \"#utility.yul\":1951:1956   */\n  0x00\n    /* \"#utility.yul\":1976:2042   */\n  tag_135\n    /* \"#utility.yul\":1992:2041   */\n  tag_136\n    /* \"#utility.yul\":2034:2040   */\n  dup5\n    /* \"#utility.yul\":1992:2041   */\n  tag_83\n  jump\t// in\ntag_136:\n    /* \"#utility.yul\":1976:2042   */\n  tag_82\n  jump\t// in\ntag_135:\n    /* \"#utility.yul\":1967:2042   */\n  swap1\n  pop\n    /* \"#utility.yul\":2065:2071   */\n  dup3\n    /* \"#utility.yul\":2058:2063   */\n  dup2\n    /* \"#utility.yul\":2051:2072   */\n  mstore\n    /* \"#utility.yul\":2103:2107   */\n  0x20\n    /* \"#utility.yul\":2096:2101   */\n  dup2\n    /* \"#utility.yul\":2092:2108   */\n  add\n    /* \"#utility.yul\":2141:2144   */\n  dup5\n    /* \"#utility.yul\":2132:2138   */\n  dup5\n    /* \"#utility.yul\":2127:2130   */\n  dup5\n    /* \"#utility.yul\":2123:2139   */\n  add\n    /* \"#utility.yul\":2120:2145   */\n  gt\n    /* \"#utility.yul\":2117:2229   */\n  iszero\n  tag_137\n  jumpi\n    /* \"#utility.yul\":2148:2227   */\n  tag_138\n  tag_78\n  jump\t// in\ntag_138:\n    /* \"#utility.yul\":2117:2229   */\ntag_137:\n    /* \"#utility.yul\":2238:2290   */\n  tag_139\n    /* \"#utility.yul\":2283:2289   */\n  dup5\n    /* \"#utility.yul\":2278:2281   */\n  dup3\n    /* \"#utility.yul\":2273:2276   */\n  dup6\n    /* \"#utility.yul\":2238:2290   */\n  tag_84\n  jump\t// in\ntag_139:\n    /* \"#utility.yul\":1957:2296   */\n  pop\n    /* \"#utility.yul\":1862:2296   */\n  swap4\n  swap3\n  pop\n  pop\n  pop\n  jump\t// out\n    /* \"#utility.yul\":2316:2671   */\ntag_86:\n    /* \"#utility.yul\":2383:2388   */\n  0x00\n    /* \"#utility.yul\":2432:2435   */\n  dup3\n    /* \"#utility.yul\":2425:2429   */\n  0x1f\n    /* \"#utility.yul\":2417:2423   */\n  dup4\n    /* \"#utility.yul\":2413:2430   */\n  add\n    /* \"#utility.yul\":2409:2436   */\n  slt\n    /* \"#utility.yul\":2399:2521   */\n  tag_141\n  jumpi\n    /* \"#utility.yul\":2440:2519   */\n  tag_142\n  tag_77\n  jump\t// in\ntag_142:\n    /* \"#utility.yul\":2399:2521   */\ntag_141:\n    /* \"#utility.yul\":2550:2556   */\n  dup2\n    /* \"#utility.yul\":2544:2557   */\n  mload\n    /* \"#utility.yul\":2575:2665   */\n  tag_143\n    /* \"#utility.yul\":2661:2664   */\n  dup5\n    /* \"#utility.yul\":2653:2659   */\n  dup3\n    /* \"#utility.yul\":2646:2650   */\n  0x20\n    /* \"#utility.yul\":2638:2644   */\n  dup7\n    /* \"#utility.yul\":2634:2651   */\n  add\n    /* \"#utility.yul\":2575:2665   */\n  tag_85\n  jump\t// in\ntag_143:\n    /* \"#utility.yul\":2566:2665   */\n  swap2\n  pop\n    /* \"#utility.yul\":2389:2671   */\n  pop\n    /* \"#utility.yul\":2316:2671   */\n  swap3\n  swap2\n  pop\n  pop\n  jump\t// out\n    /* \"#utility.yul\":2677:2754   */\ntag_87:\n    /* \"#utility.yul\":2714:2721   */\n  0x00\n    /* \"#utility.yul\":2743:2748   */\n  dup2\n    /* \"#utility.yul\":2732:2748   */\n  swap1\n  pop\n    /* \"#utility.yul\":2677:2754   */\n  swap2\n  swap1\n  pop\n  jump\t// out\n    /* \"#utility.yul\":2760:2882   */\ntag_88:\n    /* \"#utility.yul\":2833:2857   */\n  tag_146\n    /* \"#utility.yul\":2851:2856   */\n  dup2\n    /* \"#utility.yul\":2833:2857   */\n  tag_87\n  jump\t// in\ntag_146:\n    /* \"#utility.yul\":2826:2831   */\n  dup2\n    /* \"#utility.yul\":2823:2858   */\n  eq\n    /* \"#utility.yul\":2813:2876   */\n  tag_147\n  jumpi\n    /* \"#utility.yul\":2872:2873   */\n  0x00\n    /* \"#utility.yul\":2869:2870   */\n  dup1\n    /* \"#utility.yul\":2862:2874   */\n  revert\n    /* \"#utility.yul\":2813:2876   */\ntag_147:\n    /* \"#utility.yul\":2760:2882   */\n  pop\n  jump\t// out\n    /* \"#utility.yul\":2888:3031   */\ntag_89:\n    /* \"#utility.yul\":2945:2950   */\n  0x00\n    /* \"#utility.yul\":2976:2982   */\n  dup2\n    /* \"#utility.yul\":2970:2983   */\n  mload\n    /* \"#utility.yul\":2961:2983   */\n  swap1\n  pop\n    /* \"#utility.yul\":2992:3025   */\n  tag_149\n    /* \"#utility.yul\":3019:3024   */\n  dup2\n    /* \"#utility.yul\":2992:3025   */\n  tag_88\n  jump\t// in\ntag_149:\n    /* \"#utility.yul\":2888:3031   */\n  swap3\n  swap2\n  pop\n  pop\n  jump\t// out\n    /* \"#utility.yul\":3037:3717   */\ntag_3:\n    /* \"#utility.yul\":3126:3132   */\n  0x00\n    /* \"#utility.yul\":3134:3140   */\n  dup1\n    /* \"#utility.yul\":3183:3185   */\n  0x40\n    /* \"#utility.yul\":3171:3180   */\n  dup4\n    /* \"#utility.yul\":3162:3169   */\n  dup6\n    /* \"#utility.yul\":3158:3181   */\n  sub\n    /* \"#utility.yul\":3154:3186   */\n  slt\n    /* \"#utility.yul\":3151:3270   */\n  iszero\n  tag_151\n  jumpi\n    /* \"#utility.yul\":3189:3268   */\n  tag_152\n  tag_75\n  jump\t// in\ntag_152:\n    /* \"#utility.yul\":3151:3270   */\ntag_151:\n    /* \"#utility.yul\":3330:3331   */\n  0x00\n    /* \"#utility.yul\":3319:3328   */\n  dup4\n    /* \"#utility.yul\":3315:3332   */\n  add\n    /* \"#utility.yul\":3309:3333   */\n  mload\n    /* \"#utility.yul\":3360:3378   */\n  0xffffffffffffffff\n    /* \"#utility.yul\":3352:3358   */\n  dup2\n    /* \"#utility.yul\":3349:3379   */\n  gt\n    /* \"#utility.yul\":3346:3463   */\n  iszero\n  tag_153\n  jumpi\n    /* \"#utility.yul\":3382:3461   */\n  tag_154\n  tag_76\n  jump\t// in\ntag_154:\n    /* \"#utility.yul\":3346:3463   */\ntag_153:\n    /* \"#utility.yul\":3487:3561   */\n  tag_155\n    /* \"#utility.yul\":3553:3560   */\n  dup6\n    /* \"#utility.yul\":3544:3550   */\n  dup3\n    /* \"#utility.yul\":3533:3542   */\n  dup7\n    /* \"#utility.yul\":3529:3551   */\n  add\n    /* \"#utility.yul\":3487:3561   */\n  tag_86\n  jump\t// in\ntag_155:\n    /* \"#utility.yul\":3477:3561   */\n  swap3\n  pop\n    /* \"#utility.yul\":3280:3571   */\n  pop\n    /* \"#utility.yul\":3610:3612   */\n  0x20\n    /* \"#utility.yul\":3636:3700   */\n  tag_156\n    /* \"#utility.yul\":3692:3699   */\n  dup6\n    /* \"#utility.yul\":3683:3689   */\n  dup3\n    /* \"#utility.yul\":3672:3681   */\n  dup7\n    /* \"#utility.yul\":3668:3690   */\n  add\n    /* \"#utility.yul\":3636:3700   */\n  tag_89\n  jump\t// in\ntag_156:\n    /* \"#utility.yul\":3626:3700   */\n  swap2\n  pop\n    /* \"#utility.yul\":3581:3710   */\n  pop\n    /* \"#utility.yul\":3037:3717   */\n  swap3\n  pop\n  swap3\n  swap1\n  pop\n  jump\t// out\n    /* \"#utility.yul\":3723:3822   */\ntag_90:\n    /* \"#utility.yul\":3775:3781   */\n  0x00\n    /* \"#utility.yul\":3809:3814   */\n  dup2\n    /* \"#utility.yul\":3803:3815   */\n  mload\n    /* \"#utility.yul\":3793:3815   */\n  swap1\n  pop\n    /* \"#utility.yul\":3723:3822   */\n  swap2\n  swap1\n  pop\n  jump\t// out\n    /* \"#utility.yul\":3828:4008   */\ntag_91:\n    /* \"#utility.yul\":3876:3953   */\n  0x4e487b7100000000000000000000000000000000000000000000000000000000\n    /* \"#utility.yul\":3873:3874   */\n  0x00\n    /* \"#utility.yul\":3866:3954   */\n  mstore\n    /* \"#utility.yul\":3973:3977   */\n  0x22\n    /* \"#utility.yul\":3970:3971   */\n  0x04\n    /* \"#utility.yul\":3963:3978   */\n  mstore\n    /* \"#utility.yul\":3997:4001   */\n  0x24\n    /* \"#utility.yul\":3994:3995   */\n  0x00\n    /* \"#utility.yul\":3987:4002   */\n  revert\n    /* \"#utility.yul\":4014:4334   */\ntag_92:\n    /* \"#utility.yul\":4058:4064   */\n  0x00\n    /* \"#utility.yul\":4095:4096   */\n  0x02\n    /* \"#utility.yul\":4089:4093   */\n  dup3\n    /* \"#utility.yul\":4085:4097   */\n  div\n    /* \"#utility.yul\":4075:4097   */\n  swap1\n  pop\n    /* \"#utility.yul\":4142:4143   */\n  0x01\n    /* \"#utility.yul\":4136:4140   */\n  dup3\n    /* \"#utility.yul\":4132:4144   */\n  and\n    /* \"#utility.yul\":4163:4181   */\n  dup1\n    /* \"#utility.yul\":4153:4234   */\n  tag_160\n  jumpi\n    /* \"#utility.yul\":4219:4223   */\n  0x7f\n    /* \"#utility.yul\":4211:4217   */\n  dup3\n    /* \"#utility.yul\":4207:4224   */\n  and\n    /* \"#utility.yul\":4197:4224   */\n  swap2\n  pop\n    /* \"#utility.yul\":4153:4234   */\ntag_160:\n    /* \"#utility.yul\":4281:4283   */\n  0x20\n    /* \"#utility.yul\":4273:4279   */\n  dup3\n    /* \"#utility.yul\":4270:4284   */\n  lt\n    /* \"#utility.yul\":4250:4268   */\n  dup2\n    /* \"#utility.yul\":4247:4285   */\n  sub\n    /* \"#utility.yul\":4244:4328   */\n  tag_161\n  jumpi\n    /* \"#utility.yul\":4300:4318   */\n  tag_162\n  tag_91\n  jump\t// in\ntag_162:\n    /* \"#utility.yul\":4244:4328   */\ntag_161:\n    /* \"#utility.yul\":4065:4334   */\n  pop\n    /* \"#utility.yul\":4014:4334   */\n  swap2\n  swap1\n  pop\n  jump\t// out\n    /* \"#utility.yul\":4340:4481   */\ntag_93:\n    /* \"#utility.yul\":4389:4393   */\n  0x00\n    /* \"#utility.yul\":4412:4415   */\n  dup2\n    /* \"#utility.yul\":4404:4415   */\n  swap1\n  pop\n    /* \"#utility.yul\":4435:4438   */\n  dup2\n    /* \"#utility.yul\":4432:4433   */\n  0x00\n    /* \"#utility.yul\":4425:4439   */\n  mstore\n    /* \"#utility.yul\":4469:4473   */\n  0x20\n    /* \"#utility.yul\":4466:4467   */\n  0x00\n    /* \"#utility.yul\":4456:4474   */\n  keccak256\n    /* \"#utility.yul\":4448:4474   */\n  swap1\n  pop\n    /* \"#utility.yul\":4340:4481   */\n  swap2\n  swap1\n  pop\n  jump\t// out\n    /* \"#utility.yul\":4487:4580   */\ntag_94:\n    /* \"#utility.yul\":4524:4530   */\n  0x00\n    /* \"#utility.yul\":4571:4573   */\n  0x20\n    /* \"#utility.yul\":4566:4568   */\n  0x1f\n    /* \"#utility.yul\":4559:4564   */\n  dup4\n    /* \"#utility.yul\":4555:4569   */\n  add\n    /* \"#utility.yul\":4551:4574   */\n  div\n    /* \"#utility.yul\":4541:4574   */\n  swap1\n  pop\n    /* \"#utility.yul\":4487:4580   */\n  swap2\n  swap1\n  pop\n  jump\t// out\n    /* \"#utility.yul\":4586:4693   */\ntag_95:\n    /* \"#utility.yul\":4630:4638   */\n  0x00\n    /* \"#utility.yul\":4680:4685   */\n  dup3\n    /* \"#utility.yul\":4674:4678   */\n  dup3\n    /* \"#utility.yul\":4670:4686   */\n  shl\n    /* \"#utility.yul\":4649:4686   */\n  swap1\n  pop\n    /* \"#utility.yul\":4586:4693   */\n  swap3\n  swap2\n  pop\n  pop\n  jump\t// out\n    /* \"#utility.yul\":4699:5092   */\ntag_96:\n    /* \"#utility.yul\":4768:4774   */\n  0x00\n    /* \"#utility.yul\":4818:4819   */\n  0x08\n    /* \"#utility.yul\":4806:4816   */\n  dup4\n    /* \"#utility.yul\":4802:4820   */\n  mul\n    /* \"#utility.yul\":4841:4938   */\n  tag_167\n    /* \"#utility.yul\":4871:4937   */\n  0xffffffffffffffffffffffffffffffffffffffffffffffffffffffffffffffff\n    /* \"#utility.yul\":4860:4869   */\n  dup3\n    /* \"#utility.yul\":4841:4938   */\n  tag_95\n  jump\t// in\ntag_167:\n    /* \"#utility.yul\":4959:4998   */\n  tag_168\n    /* \"#utility.yul\":4989:4997   */\n  dup7\n    /* \"#utility.yul\":4978:4987   */\n  dup4\n    /* \"#utility.yul\":4959:4998   */\n  tag_95\n  jump\t// in\ntag_168:\n    /* \"#utility.yul\":4947:4998   */\n  swap6\n  pop\n    /* \"#utility.yul\":5031:5035   */\n  dup1\n    /* \"#utility.yul\":5027:5036   */\n  not\n    /* \"#utility.yul\":5020:5025   */\n  dup5\n    /* \"#utility.yul\":5016:5037   */\n  and\n    /* \"#utility.yul\":5007:5037   */\n  swap4\n  pop\n    /* \"#utility.yul\":5080:5084   */\n  dup1\n    /* \"#utility.yul\":5070:5078   */\n  dup7\n    /* \"#utility.yul\":5066:5085   */\n  and\n    /* \"#utility.yul\":5059:5064   */\n  dup5\n    /* \"#utility.yul\":5056:5086   */\n  or\n    /* \"#utility.yul\":5046:5086   */\n  swap3\n  pop\n    /* \"#utility.yul\":4775:5092   */\n  pop\n  pop\n    /* \"#utility.yul\":4699:5092   */\n  swap4\n  swap3\n  pop\n  pop\n  pop\n  jump\t// out\n    /* \"#utility.yul\":5098:5158   */\ntag_97:\n    /* \"#utility.yul\":5126:5129   */\n  0x00\n    /* \"#utility.yul\":5147:5152   */\n  dup2\n    /* \"#utility.yul\":5140:5152   */\n  swap1\n  pop\n    /* \"#utility.yul\":5098:5158   */\n  swap2\n  swap1\n  pop\n  jump\t// out\n    /* \"#utility.yul\":5164:5306   */\ntag_98:\n    /* \"#utility.yul\":5214:5223   */\n  0x00\n    /* \"#utility.yul\":5247:5300   */\n  tag_171\n    /* \"#utility.yul\":5265:5299   */\n  tag_172\n    /* \"#utility.yul\":5274:5298   */\n  tag_173\n    /* \"#utility.yul\":5292:5297   */\n  dup5\n    /* \"#utility.yul\":5274:5298   */\n  tag_87\n  jump\t// in\ntag_173:\n    /* \"#utility.yul\":5265:5299   */\n  tag_97\n  jump\t// in\ntag_172:\n    /* \"#utility.yul\":5247:5300   */\n  tag_87\n  jump\t// in\ntag_171:\n    /* \"#utility.yul\":5234:5300   */\n  swap1\n  pop\n    /* \"#utility.yul\":5164:5306   */\n  swap2\n  swap1\n  pop\n  jump\t// out\n    /* \"#utility.yul\":5312:5387   */\ntag_99:\n    /* \"#utility.yul\":5355:5358   */\n  0x00\n    /* \"#utility.yul\":5376:5381   */\n  dup2\n    /* \"#utility.yul\":5369:5381   */\n  swap1\n  pop\n    /* \"#utility.yul\":5312:5387   */\n  swap2\n  swap1\n  pop\n  jump\t// out\n    /* \"#utility.yul\":5393:5662   */\ntag_100:\n    /* \"#utility.yul\":5503:5542   */\n  tag_176\n    /* \"#utility.yul\":5534:5541   */\n  dup4\n    /* \"#utility.yul\":5503:5542   */\n  tag_98\n  jump\t// in\ntag_176:\n    /* \"#utility.yul\":5564:5655   */\n  tag_177\n    /* \"#utility.yul\":5613:5654   */\n  tag_178\n    /* \"#utility.yul\":5637:5653   */\n  dup3\n    /* \"#utility.yul\":5613:5654   */\n  tag_99\n  jump\t// in\ntag_178:\n    /* \"#utility.yul\":5605:5611   */\n  dup5\n    /* \"#utility.yul\":5598:5602   */\n  dup5\n    /* \"#utility.yul\":5592:5603   */\n  sload\n    /* \"#utility.yul\":5564:5655   */\n  tag_96\n  jump\t// in\ntag_177:\n    /* \"#utility.yul\":5558:5562   */\n  dup3\n    /* \"#utility.yul\":5551:5656   */\n  sstore\n    /* \"#utility.yul\":5469:5662   */\n  pop\n    /* \"#utility.yul\":5393:5662   */\n  pop\n  pop\n  pop\n  jump\t// out\n    /* \"#utility.yul\":5668:5741   */\ntag_101:\n    /* \"#utility.yul\":5713:5716   */\n  0x00\n    /* \"#utility.yul\":5668:5741   */\n  swap1\n  jump\t// out\n    /* \"#utility.yul\":5747:5936   */\ntag_102:\n    /* \"#utility.yul\":5824:5856   */\n  tag_181\n  tag_101\n  jump\t// in\ntag_181:\n    /* \"#utility.yul\":5865:5930   */\n  tag_182\n    /* \"#utility.yul\":5923:5929   */\n  dup2\n    /* \"#utility.yul\":5915:5921   */\n  dup5\n    /* \"#utility.yul\":5909:5913   */\n  dup5\n    /* \"#utility.yul\":5865:5930   */\n  tag_100\n  jump\t// in\ntag_182:\n    /* \"#utility.yul\":5800:5936   */\n  pop\n    /* \"#utility.yul\":5747:5936   */\n  pop\n  pop\n  jump\t// out\n    /* \"#utility.yul\":5942:6128   */\ntag_103:\n    /* \"#utility.yul\":6002:6122   */\ntag_184:\n    /* \"#utility.yul\":6019:6022   */\n  dup2\n    /* \"#utility.yul\":6012:6017   */\n  dup2\n    /* \"#utility.yul\":6009:6023   */\n  lt\n    /* \"#utility.yul\":6002:6122   */\n  iszero\n  tag_186\n  jumpi\n    /* \"#utility.yul\":6073:6112   */\n  tag_187\n    /* \"#utility.yul\":6110:6111   */\n  0x00\n    /* \"#utility.yul\":6103:6108   */\n  dup3\n    /* \"#utility.yul\":6073:6112   */\n  tag_102\n  jump\t// in\ntag_187:\n    /* \"#utility.yul\":6046:6047   */\n  0x01\n    /* \"#utility.yul\":6039:6044   */\n  dup2\n    /* \"#utility.yul\":6035:6048   */\n  add\n    /* \"#utility.yul\":6026:6048   */\n  swap1\n  pop\n    /* \"#utility.yul\":6002:6122   */\n  jump(tag_184)\ntag_186:\n    /* \"#utility.yul\":5942:6128   */\n  pop\n  pop\n  jump\t// out\n    /* \"#utility.yul\":6134:6677   */\ntag_104:\n    /* \"#utility.yul\":6235:6237   */\n  0x1f\n    /* \"#utility.yul\":6230:6233   */\n  dup3\n    /* \"#utility.yul\":6227:6238   */\n  gt\n    /* \"#utility.yul\":6224:6670   */\n  iszero\n  tag_189\n  jumpi\n    /* \"#utility.yul\":6269:6307   */\n  tag_190\n    /* \"#utility.yul\":6301:6306   */\n  dup2\n    /* \"#utility.yul\":6269:6307   */\n  tag_93\n  jump\t// in\ntag_190:\n    /* \"#utility.yul\":6353:6382   */\n  tag_191\n    /* \"#utility.yul\":6371:6381   */\n  dup5\n    /* \"#utility.yul\":6353:6382   */\n  tag_94\n  jump\t// in\ntag_191:\n    /* \"#utility.yul\":6343:6351   */\n  dup2\n    /* \"#utility.yul\":6339:6383   */\n  add\n    /* \"#utility.yul\":6536:6538   */\n  0x20\n    /* \"#utility.yul\":6524:6534   */\n  dup6\n    /* \"#utility.yul\":6521:6539   */\n  lt\n    /* \"#utility.yul\":6518:6567   */\n  iszero\n  tag_192\n  jumpi\n    /* \"#utility.yul\":6557:6565   */\n  dup2\n    /* \"#utility.yul\":6542:6565   */\n  swap1\n  pop\n    /* \"#utility.yul\":6518:6567   */\ntag_192:\n    /* \"#utility.yul\":6580:6660   */\n  tag_193\n    /* \"#utility.yul\":6636:6658   */\n  tag_194\n    /* \"#utility.yul\":6654:6657   */\n  dup6\n    /* \"#utility.yul\":6636:6658   */\n  tag_94\n  jump\t// in\ntag_194:\n    /* \"#utility.yul\":6626:6634   */\n  dup4\n    /* \"#utility.yul\":6622:6659   */\n  add\n    /* \"#utility.yul\":6609:6620   */\n  dup3\n    /* \"#utility.yul\":6580:6660   */\n  tag_103\n  jump\t// in\ntag_193:\n    /* \"#utility.yul\":6239:6670   */\n  pop\n  pop\n    /* \"#utility.yul\":6224:6670   */\ntag_189:\n    /* \"#utility.yul\":6134:6677   */\n  pop\n  pop\n  pop\n  jump\t// out\n    /* \"#utility.yul\":6683:6800   */\ntag_105:\n    /* \"#utility.yul\":6737:6745   */\n  0x00\n    /* \"#utility.yul\":6787:6792   */\n  dup3\n    /* \"#utility.yul\":6781:6785   */\n  dup3\n    /* \"#utility.yul\":6777:6793   */\n  shr\n    /* \"#utility.yul\":6756:6793   */\n  swap1\n  pop\n    /* \"#utility.yul\":6683:6800   */\n  swap3\n  swap2\n  pop\n  pop\n  jump\t// out\n    /* \"#utility.yul\":6806:6975   */\ntag_106:\n    /* \"#utility.yul\":6850:6856   */\n  0x00\n    /* \"#utility.yul\":6883:6934   */\n  tag_197\n    /* \"#utility.yul\":6931:6932   */\n  0x00\n    /* \"#utility.yul\":6927:6933   */\n  not\n    /* \"#utility.yul\":6919:6924   */\n  dup5\n    /* \"#utility.yul\":6916:6917   */\n  0x08\n    /* \"#utility.yul\":6912:6925   */\n  mul\n    /* \"#utility.yul\":6883:6934   */\n  tag_105\n  jump\t// in\ntag_197:\n    /* \"#utility.yul\":6879:6935   */\n  not\n    /* \"#utility.yul\":6964:6968   */\n  dup1\n    /* \"#utility.yul\":6958:6962   */\n  dup4\n    /* \"#utility.yul\":6954:6969   */\n  and\n    /* \"#utility.yul\":6944:6969   */\n  swap2\n  pop\n    /* \"#utility.yul\":6857:6975   */\n  pop\n    /* \"#utility.yul\":6806:6975   */\n  swap3\n  swap2\n  pop\n  pop\n  jump\t// out\n    /* \"#utility.yul\":6980:7275   */\ntag_107:\n    /* \"#utility.yul\":7056:7060   */\n  0x00\n    /* \"#utility.yul\":7202:7231   */\n  tag_199\n    /* \"#utility.yul\":7227:7230   */\n  dup4\n    /* \"#utility.yul\":7221:7225   */\n  dup4\n    /* \"#utility.yul\":7202:7231   */\n  tag_106\n  jump\t// in\ntag_199:\n    /* \"#utility.yul\":7194:7231   */\n  swap2\n  pop\n    /* \"#utility.yul\":7264:7267   */\n  dup3\n    /* \"#utility.yul\":7261:7262   */\n  0x02\n    /* \"#utility.yul\":7257:7268   */\n  mul\n    /* \"#utility.yul\":7251:7255   */\n  dup3\n    /* \"#utility.yul\":7248:7269   */\n  or\n    /* \"#utility.yul\":7240:7269   */\n  swap1\n  pop\n    /* \"#utility.yul\":6980:7275   */\n  swap3\n  swap2\n  pop\n  pop\n  jump\t// out\n    /* \"#utility.yul\":7280:8675   */\ntag_8:\n    /* \"#utility.yul\":7397:7434   */\n  tag_201\n    /* \"#utility.yul\":7430:7433   */\n  dup3\n    /* \"#utility.yul\":7397:7434   */\n  tag_90\n  jump\t// in\ntag_201:\n    /* \"#utility.yul\":7499:7517   */\n  0xffffffffffffffff\n    /* \"#utility.yul\":7491:7497   */\n  dup2\n    /* \"#utility.yul\":7488:7518   */\n  gt\n    /* \"#utility.yul\":7485:7541   */\n  iszero\n  tag_202\n  jumpi\n    /* \"#utility.yul\":7521:7539   */\n  tag_203\n  tag_80\n  jump\t// in\ntag_203:\n    /* \"#utility.yul\":7485:7541   */\ntag_202:\n    /* \"#utility.yul\":7565:7603   */\n  tag_204\n    /* \"#utility.yul\":7597:7601   */\n  dup3\n    /* \"#utility.yul\":7591:7602   */\n  sload\n    /* \"#utility.yul\":7565:7603   */\n  tag_92\n  jump\t// in\ntag_204:\n    /* \"#utility.yul\":7650:7717   */\n  tag_205\n    /* \"#utility.yul\":7710:7716   */\n  dup3\n    /* \"#utility.yul\":7702:7708   */\n  dup3\n    /* \"#utility.yul\":7696:7700   */\n  dup6\n    /* \"#utility.yul\":7650:7717   */\n  tag_104\n  jump\t// in\ntag_205:\n    /* \"#utility.yul\":7744:7745   */\n  0x00\n    /* \"#utility.yul\":7768:7772   */\n  0x20\n    /* \"#utility.yul\":7755:7772   */\n  swap1\n  pop\n    /* \"#utility.yul\":7800:7802   */\n  0x1f\n    /* \"#utility.yul\":7792:7798   */\n  dup4\n    /* \"#utility.yul\":7789:7803   */\n  gt\n    /* \"#utility.yul\":7817:7818   */\n  0x01\n    /* \"#utility.yul\":7812:8430   */\n  dup2\n  eq\n  tag_207\n  jumpi\n    /* \"#utility.yul\":8474:8475   */\n  0x00\n    /* \"#utility.yul\":8491:8497   */\n  dup5\n    /* \"#utility.yul\":8488:8565   */\n  iszero\n  tag_208\n  jumpi\n    /* \"#utility.yul\":8540:8549   */\n  dup3\n    /* \"#utility.yul\":8535:8538   */\n  dup8\n    /* \"#utility.yul\":8531:8550   */\n  add\n    /* \"#utility.yul\":8525:8551   */\n  mload\n    /* \"#utility.yul\":8516:8551   */\n  swap1\n  pop\n    /* \"#utility.yul\":8488:8565   */\ntag_208:\n    /* \"#utility.yul\":8591:8658   */\n  tag_209\n    /* \"#utility.yul\":8651:8657   */\n  dup6\n    /* \"#utility.yul\":8644:8649   */\n  dup3\n    /* \"#utility.yul\":8591:8658   */\n  tag_107\n  jump\t// in\ntag_209:\n    /* \"#utility.yul\":8585:8589   */\n  dup7\n    /* \"#utility.yul\":8578:8659   */\n  sstore\n    /* \"#utility.yul\":8447:8669   */\n  pop\n    /* \"#utility.yul\":7782:8669   */\n  jump(tag_206)\n    /* \"#utility.yul\":7812:8430   */\ntag_207:\n    /* \"#utility.yul\":7864:7868   */\n  0x1f\n    /* \"#utility.yul\":7860:7869   */\n  not\n    /* \"#utility.yul\":7852:7858   */\n  dup5\n    /* \"#utility.yul\":7848:7870   */\n  and\n    /* \"#utility.yul\":7898:7935   */\n  tag_210\n    /* \"#utility.yul\":7930:7934   */\n  dup7\n    /* \"#utility.yul\":7898:7935   */\n  tag_93\n  jump\t// in\ntag_210:\n    /* \"#utility.yul\":7957:7958   */\n  0x00\n    /* \"#utility.yul\":7971:8179   */\ntag_211:\n    /* \"#utility.yul\":7985:7992   */\n  dup3\n    /* \"#utility.yul\":7982:7983   */\n  dup2\n    /* \"#utility.yul\":7979:7993   */\n  lt\n    /* \"#utility.yul\":7971:8179   */\n  iszero\n  tag_213\n  jumpi\n    /* \"#utility.yul\":8064:8073   */\n  dup5\n    /* \"#utility.yul\":8059:8062   */\n  dup10\n    /* \"#utility.yul\":8055:8074   */\n  add\n    /* \"#utility.yul\":8049:8075   */\n  mload\n    /* \"#utility.yul\":8041:8047   */\n  dup3\n    /* \"#utility.yul\":8034:8076   */\n  sstore\n    /* \"#utility.yul\":8115:8116   */\n  0x01\n    /* \"#utility.yul\":8107:8113   */\n  dup3\n    /* \"#utility.yul\":8103:8117   */\n  add\n    /* \"#utility.yul\":8093:8117   */\n  swap2\n  pop\n    /* \"#utility.yul\":8162:8164   */\n  0x20\n    /* \"#utility.yul\":8151:8160   */\n  dup6\n    /* \"#utility.yul\":8147:8165   */\n  add\n    /* \"#utility.yul\":8134:8165   */\n  swap5\n  pop\n    /* \"#utility.yul\":8008:8012   */\n  0x20\n    /* \"#utility.yul\":8005:8006   */\n  dup2\n    /* \"#utility.yul\":8001:8013   */\n  add\n    /* \"#utility.yul\":7996:8013   */\n  swap1\n  pop\n    /* \"#utility.yul\":7971:8179   */\n  jump(tag_211)\ntag_213:\n    /* \"#utility.yul\":8207:8213   */\n  dup7\n    /* \"#utility.yul\":8198:8205   */\n  dup4\n    /* \"#utility.yul\":8195:8214   */\n  lt\n    /* \"#utility.yul\":8192:8371   */\n  iszero\n  tag_214\n  jumpi\n    /* \"#utility.yul\":8265:8274   */\n  dup5\n    /* \"#utility.yul\":8260:8263   */\n  dup10\n    /* \"#utility.yul\":8256:8275   */\n  add\n    /* \"#utility.yul\":8250:8276   */\n  mload\n    /* \"#utility.yul\":8308:8356   */\n  tag_215\n    /* \"#utility.yul\":8350:8354   */\n  0x1f\n    /* \"#utility.yul\":8342:8348   */\n  dup10\n    /* \"#utility.yul\":8338:8355   */\n  and\n    /* \"#utility.yul\":8327:8336   */\n  dup3\n    /* \"#utility.yul\":8308:8356   */\n  tag_106\n  jump\t// in\ntag_215:\n    /* \"#utility.yul\":8300:8306   */\n  dup4\n    /* \"#utility.yul\":8293:8357   */\n  sstore\n    /* \"#utility.yul\":8215:8371   */\n  pop\n    /* \"#utility.yul\":8192:8371   */\ntag_214:\n    /* \"#utility.yul\":8417:8418   */\n  0x01\n    /* \"#utility.yul\":8413:8414   */\n  0x02\n    /* \"#utility.yul\":8405:8411   */\n  dup9\n    /* \"#utility.yul\":8401:8415   */\n  mul\n    /* \"#utility.yul\":8397:8419   */\n  add\n    /* \"#utility.yul\":8391:8395   */\n  dup9\n    /* \"#utility.yul\":8384:8420   */\n  sstore\n    /* \"#utility.yul\":7819:8430   */\n  pop\n  pop\n  pop\n    /* \"#utility.yul\":7782:8669   */\ntag_206:\n  pop\n    /* \"#utility.yul\":7372:8675   */\n  pop\n  pop\n  pop\n    /* \"#utility.yul\":7280:8675   */\n  pop\n  pop\n  jump\t// out\n    /* \"#utility.yul\":8681:8829   */\ntag_108:\n    /* \"#utility.yul\":8783:8794   */\n  0x00\n    /* \"#utility.yul\":8820:8823   */\n  dup2\n    /* \"#utility.yul\":8805:8823   */\n  swap1\n  pop\n    /* \"#utility.yul\":8681:8829   */\n  swap3\n  swap2\n  pop\n  pop\n  jump\t// out\n    /* \"#utility.yul\":8835:9225   */\ntag_109:\n    /* \"#utility.yul\":8941:8944   */\n  0x00\n    /* \"#utility.yul\":8969:9008   */\n  tag_218\n    /* \"#utility.yul\":9002:9007   */\n  dup3\n    /* \"#utility.yul\":8969:9008   */\n  tag_90\n  jump\t// in\ntag_218:\n    /* \"#utility.yul\":9024:9113   */\n  tag_219\n    /* \"#utility.yul\":9106:9112   */\n  dup2\n    /* \"#utility.yul\":9101:9104   */\n  dup6\n    /* \"#utility.yul\":9024:9113   */\n  tag_108\n  jump\t// in\ntag_219:\n    /* \"#utility.yul\":9017:9113   */\n  swap4\n  pop\n    /* \"#utility.yul\":9122:9187   */\n  tag_220\n    /* \"#utility.yul\":9180:9186   */\n  dup2\n    /* \"#utility.yul\":9175:9178   */\n  dup6\n    /* \"#utility.yul\":9168:9172   */\n  0x20\n    /* \"#utility.yul\":9161:9166   */\n  dup7\n    /* \"#utility.yul\":9157:9173   */\n  add\n    /* \"#utility.yul\":9122:9187   */\n  tag_84\n  jump\t// in\ntag_220:\n    /* \"#utility.yul\":9212:9218   */\n  dup1\n    /* \"#utility.yul\":9207:9210   */\n  dup5\n    /* \"#utility.yul\":9203:9219   */\n  add\n    /* \"#utility.yul\":9196:9219   */\n  swap2\n  pop\n    /* \"#utility.yul\":8945:9225   */\n  pop\n    /* \"#utility.yul\":8835:9225   */\n  swap3\n  swap2\n  pop\n  pop\n  jump\t// out\n    /* \"#utility.yul\":9231:9506   */\ntag_12:\n    /* \"#utility.yul\":9363:9366   */\n  0x00\n    /* \"#utility.yul\":9385:9480   */\n  tag_222\n    /* \"#utility.yul\":9476:9479   */\n  dup3\n    /* \"#utility.yul\":9467:9473   */\n  dup5\n    /* \"#utility.yul\":9385:9480   */\n  tag_109\n  jump\t// in\ntag_222:\n    /* \"#utility.yul\":9378:9480   */\n  swap2\n  pop\n    /* \"#utility.yul\":9497:9500   */\n  dup2\n    /* \"#utility.yul\":9490:9500   */\n  swap1\n  pop\n    /* \"#utility.yul\":9231:9506   */\n  swap3\n  swap2\n  pop\n  pop\n  jump\t// out\n    /* \"#utility.yul\":9512:9692   */\ntag_17:\n    /* \"#utility.yul\":9560:9637   */\n  0x4e487b7100000000000000000000000000000000000000000000000000000000\n    /* \"#utility.yul\":9557:9558   */\n  0x00\n    /* \"#utility.yul\":9550:9638   */\n  mstore\n    /* \"#utility.yul\":9657:9661   */\n  0x32\n    /* \"#utility.yul\":9654:9655   */\n  0x04\n    /* \"#utility.yul\":9647:9662   */\n  mstore\n    /* \"#utility.yul\":9681:9685   */\n  0x24\n    /* \"#utility.yul\":9678:9679   */\n  0x00\n    /* \"#utility.yul\":9671:9686   */\n  revert\n    /* \"#utility.yul\":9698:9878   */\ntag_110:\n    /* \"#utility.yul\":9746:9823   */\n  0x4e487b7100000000000000000000000000000000000000000000000000000000\n    /* \"#utility.yul\":9743:9744   */\n  0x00\n    /* \"#utility.yul\":9736:9824   */\n  mstore\n    /* \"#utility.yul\":9843:9847   */\n  0x11\n    /* \"#utility.yul\":9840:9841   */\n  0x04\n    /* \"#utility.yul\":9833:9848   */\n  mstore\n    /* \"#utility.yul\":9867:9871   */\n  0x24\n    /* \"#utility.yul\":9864:9865   */\n  0x00\n    /* \"#utility.yul\":9857:9872   */\n  revert\n    /* \"#utility.yul\":9884:10117   */\ntag_62:\n    /* \"#utility.yul\":9923:9926   */\n  0x00\n    /* \"#utility.yul\":9946:9970   */\n  tag_226\n    /* \"#utility.yul\":9964:9969   */\n  dup3\n    /* \"#utility.yul\":9946:9970   */\n  tag_87\n  jump\t// in\ntag_226:\n    /* \"#utility.yul\":9937:9970   */\n  swap2\n  pop\n    /* \"#utility.yul\":9992:10058   */\n  0xffffffffffffffffffffffffffffffffffffffffffffffffffffffffffffffff\n    /* \"#utility.yul\":9985:9990   */\n  dup3\n    /* \"#utility.yul\":9982:10059   */\n  sub\n    /* \"#utility.yul\":9979:10082   */\n  tag_227\n  jumpi\n    /* \"#utility.yul\":10062:10080   */\n  tag_228\n  tag_110\n  jump\t// in\ntag_228:\n    /* \"#utility.yul\":9979:10082   */\ntag_227:\n    /* \"#utility.yul\":10109:10110   */\n  0x01\n    /* \"#utility.yul\":10102:10107   */\n  dup3\n    /* \"#utility.yul\":10098:10111   */\n  add\n    /* \"#utility.yul\":10091:10111   */\n  swap1\n  pop\n    /* \"#utility.yul\":9884:10117   */\n  swap2\n  swap1\n  pop\n  jump\t// out\n    /* \"AirlineManagement.sol\":64:6556  contract AirlineManagement {... */\ntag_63:\n  dataSize(sub_0)\n  dup1\n  dataOffset(sub_0)\n  0x00\n  codecopy\n  0x00\n  return\nstop\n\nsub_0: assembly {\n        /* \"AirlineManagement.sol\":64:6556  contract AirlineManagement {... */\n      mstore(0x40, 0x80)\n      jumpi(tag_1, lt(calldatasize, 0x04))\n      shr(0xe0, calldataload(0x00))\n      dup1\n      0x695dc67e\n      gt\n      tag_20\n      jumpi\n      dup1\n      0xad03fe70\n      gt\n      tag_21\n      jumpi\n      dup1\n      0xad03fe70\n      eq\n      tag_15\n      jumpi\n      dup1\n      0xc8705544\n      eq\n      tag_16\n      jumpi\n      dup1\n      0xcb2cc82a\n      eq\n      tag_17\n      jumpi\n      dup1\n      0xea6e358e\n      eq\n      tag_18\n      jumpi\n      dup1\n      0xff203bc0\n      eq\n      tag_19\n      jumpi\n      jump(tag_1)\n    tag_21:\n      dup1\n      0x695dc67e\n      eq\n      tag_11\n      jumpi\n      dup1\n      0x8dd4ba2e\n      eq\n      tag_12\n      jumpi\n      dup1\n      0x908921fc\n      eq\n      tag_13\n      jumpi\n      dup1\n      0xaafc8d74\n      eq\n      tag_14\n      jumpi\n      jump(tag_1)\n    tag_20:\n      dup1\n      0x195c1445\n      gt\n      tag_22\n      jumpi\n      dup1\n      0x195c1445\n      eq\n      tag_6\n      jumpi\n      dup1\n      0x2427e59e\n      eq\n      tag_7\n      jumpi\n      dup1\n      0x3b33c702\n      eq\n      tag_8\n      jumpi\n      dup1\n      0x5e583e37\n      eq\n      tag_9\n      jumpi\n      dup1\n      0x6031a52f\n      eq\n      tag_10\n      jumpi\n      jump(tag_1)\n    tag_22:\n      dup1\n      0x033fab35\n      eq\n      tag_2\n      jumpi\n      dup1\n      0x06661abd\n      eq\n      tag_3\n      jumpi\n      dup1\n      0x07819bd6\n      eq\n      tag_4\n      jumpi\n      dup1\n      0x1165e6ab\n      eq\n      tag_5\n      jumpi\n    tag_1:\n      0x00\n      dup1\n      revert\n        /* \"AirlineManagement.sol\":984:1031  mapping(uint256 => Ticket) public ticketDetails */\n    tag_2:\n      callvalue\n      dup1\n      iszero\n      tag_23\n      jumpi\n      0x00\n      dup1\n      revert\n    tag_23:\n      pop\n      tag_24\n      0x04\n      dup1\n      calldatasize\n      sub\n      dup2\n      add\n      swap1\n      tag_25\n      swap2\n      swap1\n      tag_26\n      jump\t// in\n    tag_25:\n      tag_27\n      jump\t// in\n    tag_24:\n      mload(0x40)\n      tag_28\n      swap9\n      swap8\n      swap7\n      swap6\n      swap5\n      swap4\n      swap3\n      swap2\n      swap1\n      tag_29\n      jump\t// in\n    tag_28:\n      mload(0x40)\n      dup1\n      swap2\n      sub\n      swap1\n      return\n        /* \"AirlineManagement.sol\":792:809  uint public count */\n    tag_3:\n      callvalue\n      dup1\n      iszero\n      tag_30\n      jumpi\n      0x00\n      dup1\n      revert\n    tag_30:\n      pop\n      tag_31\n      tag_32\n      jump\t// in\n    tag_31:\n      mload(0x40)\n      tag_33\n      swap2\n      swap1\n      tag_34\n      jump\t// in\n    tag_33:\n      mload(0x40)\n      dup1\n      swap2\n      sub\n      swap1\n      return\n        /* \"AirlineManagement.sol\":3269:3896  function getPrice (string memory destination, uint month, uint class, bool way) public view returns(uint) {... */\n    tag_4:\n      callvalue\n      dup1\n      iszero\n      tag_35\n      jumpi\n      0x00\n      dup1\n      revert\n    tag_35:\n      pop\n      tag_36\n      0x04\n      dup1\n      calldatasize\n      sub\n      dup2\n      add\n      swap1\n      tag_37\n      swap2\n      swap1\n      tag_38\n      jump\t// in\n    tag_37:\n      tag_39\n      jump\t// in\n    tag_36:\n      mload(0x40)\n      tag_40\n      swap2\n      swap1\n      tag_34\n      jump\t// in\n    tag_40:\n      mload(0x40)\n      dup1\n      swap2\n      sub\n      swap1\n      return\n        /* \"AirlineManagement.sol\":5360:5500  function isCeo(address user) public view returns(bool) {... */\n    tag_5:\n      callvalue\n      dup1\n      iszero\n      tag_41\n      jumpi\n      0x00\n      dup1\n      revert\n    tag_41:\n      pop\n      tag_42\n      0x04\n      dup1\n      calldatasize\n      sub\n      dup2\n      add\n      swap1\n      tag_43\n      swap2\n      swap1\n      tag_44\n      jump\t// in\n    tag_43:\n      tag_45\n      jump\t// in\n    tag_42:\n      mload(0x40)\n      tag_46\n      swap2\n      swap1\n      tag_47\n      jump\t// in\n    tag_46:\n      mload(0x40)\n      dup1\n      swap2\n      sub\n      swap1\n      return\n        /* \"AirlineManagement.sol\":434:465  uint[] public destinationPrices */\n    tag_6:\n      callvalue\n      dup1\n      iszero\n      tag_48\n      jumpi\n      0x00\n      dup1\n      revert\n    tag_48:\n      pop\n      tag_49\n      0x04\n      dup1\n      calldatasize\n      sub\n      dup2\n      add\n      swap1\n      tag_50\n      swap2\n      swap1\n      tag_26\n      jump\t// in\n    tag_50:\n      tag_51\n      jump\t// in\n    tag_49:\n      mload(0x40)\n      tag_52\n      swap2\n      swap1\n      tag_34\n      jump\t// in\n    tag_52:\n      mload(0x40)\n      dup1\n      swap2\n      sub\n      swap1\n      return\n        /* \"AirlineManagement.sol\":567:605  mapping(string => uint) public indexes */\n    tag_7:\n      callvalue\n      dup1\n      iszero\n      tag_53\n      jumpi\n      0x00\n      dup1\n      revert\n    tag_53:\n      pop\n      tag_54\n      0x04\n      dup1\n      calldatasize\n      sub\n      dup2\n      add\n      swap1\n      tag_55\n      swap2\n      swap1\n      tag_56\n      jump\t// in\n    tag_55:\n      tag_57\n      jump\t// in\n    tag_54:\n      mload(0x40)\n      tag_58\n      swap2\n      swap1\n      tag_34\n      jump\t// in\n    tag_58:\n      mload(0x40)\n      dup1\n      swap2\n      sub\n      swap1\n      return\n        /* \"AirlineManagement.sol\":512:531  uint[] public seats */\n    tag_8:\n      callvalue\n      dup1\n      iszero\n      tag_59\n      jumpi\n      0x00\n      dup1\n      revert\n    tag_59:\n      pop\n      tag_60\n      0x04\n      dup1\n      calldatasize\n      sub\n      dup2\n      add\n      swap1\n      tag_61\n      swap2\n      swap1\n      tag_26\n      jump\t// in\n    tag_61:\n      tag_62\n      jump\t// in\n    tag_60:\n      mload(0x40)\n      tag_63\n      swap2\n      swap1\n      tag_34\n      jump\t// in\n    tag_63:\n      mload(0x40)\n      dup1\n      swap2\n      sub\n      swap1\n      return\n        /* \"AirlineManagement.sol\":2259:2863  function createDestination(string memory destination, uint destinationPrice) restricted public {... */\n    tag_9:\n      callvalue\n      dup1\n      iszero\n      tag_64\n      jumpi\n      0x00\n      dup1\n      revert\n    tag_64:\n      pop\n      tag_65\n      0x04\n      dup1\n      calldatasize\n      sub\n      dup2\n      add\n      swap1\n      tag_66\n      swap2\n      swap1\n      tag_67\n      jump\t// in\n    tag_66:\n      tag_68\n      jump\t// in\n    tag_65:\n      stop\n        /* \"AirlineManagement.sol\":1038:1065  uint256 public nextTicketId */\n    tag_10:\n      callvalue\n      dup1\n      iszero\n      tag_69\n      jumpi\n      0x00\n      dup1\n      revert\n    tag_69:\n      pop\n      tag_70\n      tag_71\n      jump\t// in\n    tag_70:\n      mload(0x40)\n      tag_72\n      swap2\n      swap1\n      tag_34\n      jump\t// in\n    tag_72:\n      mload(0x40)\n      dup1\n      swap2\n      sub\n      swap1\n      return\n        /* \"AirlineManagement.sol\":722:752  uint[3] public classMultiplier */\n    tag_11:\n      callvalue\n      dup1\n      iszero\n      tag_73\n      jumpi\n      0x00\n      dup1\n      revert\n    tag_73:\n      pop\n      tag_74\n      0x04\n      dup1\n      calldatasize\n      sub\n      dup2\n      add\n      swap1\n      tag_75\n      swap2\n      swap1\n      tag_26\n      jump\t// in\n    tag_75:\n      tag_76\n      jump\t// in\n    tag_74:\n      mload(0x40)\n      tag_77\n      swap2\n      swap1\n      tag_34\n      jump\t// in\n    tag_77:\n      mload(0x40)\n      dup1\n      swap2\n      sub\n      swap1\n      return\n        /* \"AirlineManagement.sol\":371:399  string[] public destinations */\n    tag_12:\n      callvalue\n      dup1\n      iszero\n      tag_78\n      jumpi\n      0x00\n      dup1\n      revert\n    tag_78:\n      pop\n      tag_79\n      0x04\n      dup1\n      calldatasize\n      sub\n      dup2\n      add\n      swap1\n      tag_80\n      swap2\n      swap1\n      tag_26\n      jump\t// in\n    tag_80:\n      tag_81\n      jump\t// in\n    tag_79:\n      mload(0x40)\n      tag_82\n      swap2\n      swap1\n      tag_83\n      jump\t// in\n    tag_82:\n      mload(0x40)\n      dup1\n      swap2\n      sub\n      swap1\n      return\n        /* \"AirlineManagement.sol\":321:339  address public ceo */\n    tag_13:\n      callvalue\n      dup1\n      iszero\n      tag_84\n      jumpi\n      0x00\n      dup1\n      revert\n    tag_84:\n      pop\n      tag_85\n      tag_86\n      jump\t// in\n    tag_85:\n      mload(0x40)\n      tag_87\n      swap2\n      swap1\n      tag_88\n      jump\t// in\n    tag_87:\n      mload(0x40)\n      dup1\n      swap2\n      sub\n      swap1\n      return\n        /* \"AirlineManagement.sol\":6405:6553  function payCEO() public restricted {... */\n    tag_14:\n      callvalue\n      dup1\n      iszero\n      tag_89\n      jumpi\n      0x00\n      dup1\n      revert\n    tag_89:\n      pop\n      tag_90\n      tag_91\n      jump\t// in\n    tag_90:\n      stop\n        /* \"AirlineManagement.sol\":5509:6393  function getBookedFlights(address user) public view returns (Ticket[] memory) {... */\n    tag_15:\n      callvalue\n      dup1\n      iszero\n      tag_92\n      jumpi\n      0x00\n      dup1\n      revert\n    tag_92:\n      pop\n      tag_93\n      0x04\n      dup1\n      calldatasize\n      sub\n      dup2\n      add\n      swap1\n      tag_94\n      swap2\n      swap1\n      tag_44\n      jump\t// in\n    tag_94:\n      tag_95\n      jump\t// in\n    tag_93:\n      mload(0x40)\n      tag_96\n      swap2\n      swap1\n      tag_97\n      jump\t// in\n    tag_96:\n      mload(0x40)\n      dup1\n      swap2\n      sub\n      swap1\n      return\n        /* \"AirlineManagement.sol\":917:938  uint public payAmount */\n    tag_16:\n      callvalue\n      dup1\n      iszero\n      tag_98\n      jumpi\n      0x00\n      dup1\n      revert\n    tag_98:\n      pop\n      tag_99\n      tag_100\n      jump\t// in\n    tag_99:\n      mload(0x40)\n      tag_101\n      swap2\n      swap1\n      tag_34\n      jump\t// in\n    tag_101:\n      mload(0x40)\n      dup1\n      swap2\n      sub\n      swap1\n      return\n        /* \"AirlineManagement.sol\":655:686  uint[12] public monthMultiplier */\n    tag_17:\n      callvalue\n      dup1\n      iszero\n      tag_102\n      jumpi\n      0x00\n      dup1\n      revert\n    tag_102:\n      pop\n      tag_103\n      0x04\n      dup1\n      calldatasize\n      sub\n      dup2\n      add\n      swap1\n      tag_104\n      swap2\n      swap1\n      tag_26\n      jump\t// in\n    tag_104:\n      tag_105\n      jump\t// in\n    tag_103:\n      mload(0x40)\n      tag_106\n      swap2\n      swap1\n      tag_34\n      jump\t// in\n    tag_106:\n      mload(0x40)\n      dup1\n      swap2\n      sub\n      swap1\n      return\n        /* \"AirlineManagement.sol\":3904:5352  function bookFlight(string memory destination, uint month, uint class, bool way) public payable{... */\n    tag_18:\n      tag_107\n      0x04\n      dup1\n      calldatasize\n      sub\n      dup2\n      add\n      swap1\n      tag_108\n      swap2\n      swap1\n      tag_38\n      jump\t// in\n    tag_108:\n      tag_109\n      jump\t// in\n    tag_107:\n      stop\n        /* \"AirlineManagement.sol\":851:872  bool public canPayout */\n    tag_19:\n      callvalue\n      dup1\n      iszero\n      tag_110\n      jumpi\n      0x00\n      dup1\n      revert\n    tag_110:\n      pop\n      tag_111\n      tag_112\n      jump\t// in\n    tag_111:\n      mload(0x40)\n      tag_113\n      swap2\n      swap1\n      tag_47\n      jump\t// in\n    tag_113:\n      mload(0x40)\n      dup1\n      swap2\n      sub\n      swap1\n      return\n        /* \"AirlineManagement.sol\":984:1031  mapping(uint256 => Ticket) public ticketDetails */\n    tag_27:\n      mstore(0x20, 0x17)\n      dup1\n      0x00\n      mstore\n      keccak256(0x00, 0x40)\n      0x00\n      swap2\n      pop\n      swap1\n      pop\n      dup1\n      0x00\n      add\n      0x00\n      swap1\n      sload\n      swap1\n      0x0100\n      exp\n      swap1\n      div\n      0xffffffffffffffffffffffffffffffffffffffff\n      and\n      swap1\n      dup1\n      0x01\n      add\n      dup1\n      sload\n      tag_114\n      swap1\n      tag_115\n      jump\t// in\n    tag_114:\n      dup1\n      0x1f\n      add\n      0x20\n      dup1\n      swap2\n      div\n      mul\n      0x20\n      add\n      mload(0x40)\n      swap1\n      dup2\n      add\n      0x40\n      mstore\n      dup1\n      swap3\n      swap2\n      swap1\n      dup2\n      dup2\n      mstore\n      0x20\n      add\n      dup3\n      dup1\n      sload\n      tag_116\n      swap1\n      tag_115\n      jump\t// in\n    tag_116:\n      dup1\n      iszero\n      tag_117\n      jumpi\n      dup1\n      0x1f\n      lt\n      tag_118\n      jumpi\n      0x0100\n      dup1\n      dup4\n      sload\n      div\n      mul\n      dup4\n      mstore\n      swap2\n      0x20\n      add\n      swap2\n      jump(tag_117)\n    tag_118:\n      dup3\n      add\n      swap2\n      swap1\n      0x00\n      mstore\n      keccak256(0x00, 0x20)\n      swap1\n    tag_119:\n      dup2\n      sload\n      dup2\n      mstore\n      swap1\n      0x01\n      add\n      swap1\n      0x20\n      add\n      dup1\n      dup4\n      gt\n      tag_119\n      jumpi\n      dup3\n      swap1\n      sub\n      0x1f\n      and\n      dup3\n      add\n      swap2\n    tag_117:\n      pop\n      pop\n      pop\n      pop\n      pop\n      swap1\n      dup1\n      0x02\n      add\n      sload\n      swap1\n      dup1\n      0x03\n      add\n      sload\n      swap1\n      dup1\n      0x04\n      add\n      dup1\n      sload\n      tag_120\n      swap1\n      tag_115\n      jump\t// in\n    tag_120:\n      dup1\n      0x1f\n      add\n      0x20\n      dup1\n      swap2\n      div\n      mul\n      0x20\n      add\n      mload(0x40)\n      swap1\n      dup2\n      add\n      0x40\n      mstore\n      dup1\n      swap3\n      swap2\n      swap1\n      dup2\n      dup2\n      mstore\n      0x20\n      add\n      dup3\n      dup1\n      sload\n      tag_121\n      swap1\n      tag_115\n      jump\t// in\n    tag_121:\n      dup1\n      iszero\n      tag_122\n      jumpi\n      dup1\n      0x1f\n      lt\n      tag_123\n      jumpi\n      0x0100\n      dup1\n      dup4\n      sload\n      div\n      mul\n      dup4\n      mstore\n      swap2\n      0x20\n      add\n      swap2\n      jump(tag_122)\n    tag_123:\n      dup3\n      add\n      swap2\n      swap1\n      0x00\n      mstore\n      keccak256(0x00, 0x20)\n      swap1\n    tag_124:\n      dup2\n      sload\n      dup2\n      mstore\n      swap1\n      0x01\n      add\n      swap1\n      0x20\n      add\n      dup1\n      dup4\n      gt\n      tag_124\n      jumpi\n      dup3\n      swap1\n      sub\n      0x1f\n      and\n      dup3\n      add\n      swap2\n    tag_122:\n      pop\n      pop\n      pop\n      pop\n      pop\n      swap1\n      dup1\n      0x05\n      add\n      0x00\n      swap1\n      sload\n      swap1\n      0x0100\n      exp\n      swap1\n      div\n      0xff\n      and\n      swap1\n      dup1\n      0x05\n      add\n      0x01\n      swap1\n      sload\n      swap1\n      0x0100\n      exp\n      swap1\n      div\n      0xff\n      and\n      swap1\n      dup1\n      0x06\n      add\n      sload\n      swap1\n      pop\n      dup9\n      jump\t// out\n        /* \"AirlineManagement.sol\":792:809  uint public count */\n    tag_32:\n      sload(0x14)\n      dup2\n      jump\t// out\n        /* \"AirlineManagement.sol\":3269:3896  function getPrice (string memory destination, uint month, uint class, bool way) public view returns(uint) {... */\n    tag_39:\n        /* \"AirlineManagement.sol\":3369:3373  uint */\n      0x00\n        /* \"AirlineManagement.sol\":3488:3499  destination */\n      dup5\n        /* \"AirlineManagement.sol\":3471:3500  abi.encodePacked(destination) */\n      add(0x20, mload(0x40))\n      tag_126\n      swap2\n      swap1\n      tag_127\n      jump\t// in\n    tag_126:\n      mload(0x40)\n      0x20\n      dup2\n      dup4\n      sub\n      sub\n      dup2\n      mstore\n      swap1\n      0x40\n      mstore\n        /* \"AirlineManagement.sol\":3461:3501  keccak256(abi.encodePacked(destination)) */\n      dup1\n      mload\n      swap1\n      0x20\n      add\n      keccak256\n        /* \"AirlineManagement.sol\":3421:3433  destinations */\n      0x01\n        /* \"AirlineManagement.sol\":3434:3441  indexes */\n      0x04\n        /* \"AirlineManagement.sol\":3442:3453  destination */\n      dup8\n        /* \"AirlineManagement.sol\":3434:3454  indexes[destination] */\n      mload(0x40)\n      tag_128\n      swap2\n      swap1\n      tag_127\n      jump\t// in\n    tag_128:\n      swap1\n      dup2\n      mstore\n      0x20\n      add\n      mload(0x40)\n      dup1\n      swap2\n      sub\n      swap1\n      keccak256\n      sload\n        /* \"AirlineManagement.sol\":3421:3455  destinations[indexes[destination]] */\n      dup2\n      sload\n      dup2\n      lt\n      tag_129\n      jumpi\n      tag_130\n      tag_131\n      jump\t// in\n    tag_130:\n    tag_129:\n      swap1\n      0x00\n      mstore\n      keccak256(0x00, 0x20)\n      add\n        /* \"AirlineManagement.sol\":3404:3456  abi.encodePacked(destinations[indexes[destination]]) */\n      add(0x20, mload(0x40))\n      tag_133\n      swap2\n      swap1\n      tag_134\n      jump\t// in\n    tag_133:\n      mload(0x40)\n      0x20\n      dup2\n      dup4\n      sub\n      sub\n      dup2\n      mstore\n      swap1\n      0x40\n      mstore\n        /* \"AirlineManagement.sol\":3394:3457  keccak256(abi.encodePacked(destinations[indexes[destination]])) */\n      dup1\n      mload\n      swap1\n      0x20\n      add\n      keccak256\n        /* \"AirlineManagement.sol\":3394:3501  keccak256(abi.encodePacked(destinations[indexes[destination]])) == keccak256(abi.encodePacked(destination)) */\n      eq\n        /* \"AirlineManagement.sol\":3386:3544  require(keccak256(abi.encodePacked(destinations[indexes[destination]])) == keccak256(abi.encodePacked(destination)), \"Error: This destination doesn't exist!\") */\n      tag_135\n      jumpi\n      mload(0x40)\n      0x08c379a000000000000000000000000000000000000000000000000000000000\n      dup2\n      mstore\n      0x04\n      add\n      tag_136\n      swap1\n      tag_137\n      jump\t// in\n    tag_136:\n      mload(0x40)\n      dup1\n      swap2\n      sub\n      swap1\n      revert\n    tag_135:\n        /* \"AirlineManagement.sol\":3563:3570  uint cm */\n      0x00\n        /* \"AirlineManagement.sol\":3573:3588  classMultiplier */\n      0x11\n        /* \"AirlineManagement.sol\":3597:3598  1 */\n      0x01\n        /* \"AirlineManagement.sol\":3589:3594  class */\n      dup6\n        /* \"AirlineManagement.sol\":3589:3598  class - 1 */\n      tag_138\n      swap2\n      swap1\n      tag_139\n      jump\t// in\n    tag_138:\n        /* \"AirlineManagement.sol\":3573:3599  classMultiplier[class - 1] */\n      0x03\n      dup2\n      lt\n      tag_140\n      jumpi\n      tag_141\n      tag_131\n      jump\t// in\n    tag_141:\n    tag_140:\n      add\n      sload\n        /* \"AirlineManagement.sol\":3563:3599  uint cm = classMultiplier[class - 1] */\n      swap1\n      pop\n        /* \"AirlineManagement.sol\":3629:3636  uint mm */\n      0x00\n        /* \"AirlineManagement.sol\":3639:3654  monthMultiplier */\n      0x05\n        /* \"AirlineManagement.sol\":3663:3664  1 */\n      0x01\n        /* \"AirlineManagement.sol\":3655:3660  month */\n      dup8\n        /* \"AirlineManagement.sol\":3655:3664  month - 1 */\n      tag_143\n      swap2\n      swap1\n      tag_139\n      jump\t// in\n    tag_143:\n        /* \"AirlineManagement.sol\":3639:3665  monthMultiplier[month - 1] */\n      0x0c\n      dup2\n      lt\n      tag_144\n      jumpi\n      tag_145\n      tag_131\n      jump\t// in\n    tag_145:\n    tag_144:\n      add\n      sload\n        /* \"AirlineManagement.sol\":3629:3665  uint mm = monthMultiplier[month - 1] */\n      swap1\n      pop\n        /* \"AirlineManagement.sol\":3697:3707  uint price */\n      0x00\n        /* \"AirlineManagement.sol\":3752:3754  cm */\n      dup3\n        /* \"AirlineManagement.sol\":3710:3727  destinationPrices */\n      0x02\n        /* \"AirlineManagement.sol\":3728:3735  indexes */\n      0x04\n        /* \"AirlineManagement.sol\":3736:3747  destination */\n      dup11\n        /* \"AirlineManagement.sol\":3728:3748  indexes[destination] */\n      mload(0x40)\n      tag_147\n      swap2\n      swap1\n      tag_127\n      jump\t// in\n    tag_147:\n      swap1\n      dup2\n      mstore\n      0x20\n      add\n      mload(0x40)\n      dup1\n      swap2\n      sub\n      swap1\n      keccak256\n      sload\n        /* \"AirlineManagement.sol\":3710:3749  destinationPrices[indexes[destination]] */\n      dup2\n      sload\n      dup2\n      lt\n      tag_148\n      jumpi\n      tag_149\n      tag_131\n      jump\t// in\n    tag_149:\n    tag_148:\n      swap1\n      0x00\n      mstore\n      keccak256(0x00, 0x20)\n      add\n      sload\n        /* \"AirlineManagement.sol\":3710:3754  destinationPrices[indexes[destination]] * cm */\n      tag_151\n      swap2\n      swap1\n      tag_152\n      jump\t// in\n    tag_151:\n        /* \"AirlineManagement.sol\":3697:3754  uint price = destinationPrices[indexes[destination]] * cm */\n      swap1\n      pop\n        /* \"AirlineManagement.sol\":3770:3773  way */\n      dup5\n        /* \"AirlineManagement.sol\":3767:3798  if(way)... */\n      iszero\n      tag_153\n      jumpi\n        /* \"AirlineManagement.sol\":3797:3798  2 */\n      0x02\n        /* \"AirlineManagement.sol\":3788:3798  price *= 2 */\n      dup2\n      tag_154\n      swap2\n      swap1\n      tag_152\n      jump\t// in\n    tag_154:\n      swap1\n      pop\n        /* \"AirlineManagement.sol\":3767:3798  if(way)... */\n    tag_153:\n        /* \"AirlineManagement.sol\":3819:3821  mm */\n      dup2\n        /* \"AirlineManagement.sol\":3814:3816  10 */\n      0x0a\n        /* \"AirlineManagement.sol\":3814:3821  10 > mm */\n      gt\n        /* \"AirlineManagement.sol\":3811:3853  if(10 > mm)... */\n      iszero\n      tag_155\n      jumpi\n        /* \"AirlineManagement.sol\":3851:3853  mm */\n      dup2\n        /* \"AirlineManagement.sol\":3843:3848  price */\n      dup2\n        /* \"AirlineManagement.sol\":3843:3853  price / mm */\n      tag_156\n      swap2\n      swap1\n      tag_157\n      jump\t// in\n    tag_156:\n        /* \"AirlineManagement.sol\":3836:3853  return price / mm */\n      swap4\n      pop\n      pop\n      pop\n      pop\n      jump(tag_125)\n        /* \"AirlineManagement.sol\":3811:3853  if(10 > mm)... */\n    tag_155:\n        /* \"AirlineManagement.sol\":3885:3887  10 */\n      0x0a\n        /* \"AirlineManagement.sol\":3880:3882  mm */\n      dup3\n        /* \"AirlineManagement.sol\":3880:3887  mm - 10 */\n      tag_158\n      swap2\n      swap1\n      tag_139\n      jump\t// in\n    tag_158:\n        /* \"AirlineManagement.sol\":3871:3876  price */\n      dup2\n        /* \"AirlineManagement.sol\":3871:3888  price * (mm - 10) */\n      tag_159\n      swap2\n      swap1\n      tag_152\n      jump\t// in\n    tag_159:\n        /* \"AirlineManagement.sol\":3864:3888  return price * (mm - 10) */\n      swap4\n      pop\n      pop\n      pop\n      pop\n        /* \"AirlineManagement.sol\":3269:3896  function getPrice (string memory destination, uint month, uint class, bool way) public view returns(uint) {... */\n    tag_125:\n      swap5\n      swap4\n      pop\n      pop\n      pop\n      pop\n      jump\t// out\n        /* \"AirlineManagement.sol\":5360:5500  function isCeo(address user) public view returns(bool) {... */\n    tag_45:\n        /* \"AirlineManagement.sol\":5409:5413  bool */\n      0x00\n        /* \"AirlineManagement.sol\":5442:5445  ceo */\n      dup1\n      0x00\n      swap1\n      sload\n      swap1\n      0x0100\n      exp\n      swap1\n      div\n      0xffffffffffffffffffffffffffffffffffffffff\n      and\n        /* \"AirlineManagement.sol\":5434:5445  user == ceo */\n      0xffffffffffffffffffffffffffffffffffffffff\n      and\n        /* \"AirlineManagement.sol\":5434:5438  user */\n      dup3\n        /* \"AirlineManagement.sol\":5434:5445  user == ceo */\n      0xffffffffffffffffffffffffffffffffffffffff\n      and\n      eq\n        /* \"AirlineManagement.sol\":5426:5470  require(user == ceo, \"You are not the CEO!\") */\n      tag_161\n      jumpi\n      mload(0x40)\n      0x08c379a000000000000000000000000000000000000000000000000000000000\n      dup2\n      mstore\n      0x04\n      add\n      tag_162\n      swap1\n      tag_163\n      jump\t// in\n    tag_162:\n      mload(0x40)\n      dup1\n      swap2\n      sub\n      swap1\n      revert\n    tag_161:\n        /* \"AirlineManagement.sol\":5488:5492  true */\n      0x01\n        /* \"AirlineManagement.sol\":5481:5492  return true */\n      swap1\n      pop\n        /* \"AirlineManagement.sol\":5360:5500  function isCeo(address user) public view returns(bool) {... */\n      swap2\n      swap1\n      pop\n      jump\t// out\n        /* \"AirlineManagement.sol\":434:465  uint[] public destinationPrices */\n    tag_51:\n      0x02\n      dup2\n      dup2\n      sload\n      dup2\n      lt\n      tag_164\n      jumpi\n      0x00\n      dup1\n      revert\n    tag_164:\n      swap1\n      0x00\n      mstore\n      keccak256(0x00, 0x20)\n      add\n      0x00\n      swap2\n      pop\n      swap1\n      pop\n      sload\n      dup2\n      jump\t// out\n        /* \"AirlineManagement.sol\":567:605  mapping(string => uint) public indexes */\n    tag_57:\n      0x04\n      dup2\n      dup1\n      mload\n      0x20\n      dup2\n      add\n      dup3\n      add\n      dup1\n      mload\n      dup5\n      dup3\n      mstore\n      0x20\n      dup4\n      add\n      0x20\n      dup6\n      add\n      keccak256\n      dup2\n      dup4\n      mstore\n      dup1\n      swap6\n      pop\n      pop\n      pop\n      pop\n      pop\n      pop\n      0x00\n      swap2\n      pop\n      swap1\n      pop\n      sload\n      dup2\n      jump\t// out\n        /* \"AirlineManagement.sol\":512:531  uint[] public seats */\n    tag_62:\n      0x03\n      dup2\n      dup2\n      sload\n      dup2\n      lt\n      tag_166\n      jumpi\n      0x00\n      dup1\n      revert\n    tag_166:\n      swap1\n      0x00\n      mstore\n      keccak256(0x00, 0x20)\n      add\n      0x00\n      swap2\n      pop\n      swap1\n      pop\n      sload\n      dup2\n      jump\t// out\n        /* \"AirlineManagement.sol\":2259:2863  function createDestination(string memory destination, uint destinationPrice) restricted public {... */\n    tag_68:\n        /* \"AirlineManagement.sol\":1129:1132  ceo */\n      0x00\n      dup1\n      sload\n      swap1\n      0x0100\n      exp\n      swap1\n      div\n      0xffffffffffffffffffffffffffffffffffffffff\n      and\n        /* \"AirlineManagement.sol\":1115:1132  msg.sender == ceo */\n      0xffffffffffffffffffffffffffffffffffffffff\n      and\n        /* \"AirlineManagement.sol\":1115:1125  msg.sender */\n      caller\n        /* \"AirlineManagement.sol\":1115:1132  msg.sender == ceo */\n      0xffffffffffffffffffffffffffffffffffffffff\n      and\n      eq\n        /* \"AirlineManagement.sol\":1107:1133  require(msg.sender == ceo) */\n      tag_169\n      jumpi\n      0x00\n      dup1\n      revert\n    tag_169:\n        /* \"AirlineManagement.sol\":2467:2478  destination */\n      dup2\n        /* \"AirlineManagement.sol\":2450:2479  abi.encodePacked(destination) */\n      add(0x20, mload(0x40))\n      tag_171\n      swap2\n      swap1\n      tag_127\n      jump\t// in\n    tag_171:\n      mload(0x40)\n      0x20\n      dup2\n      dup4\n      sub\n      sub\n      dup2\n      mstore\n      swap1\n      0x40\n      mstore\n        /* \"AirlineManagement.sol\":2440:2480  keccak256(abi.encodePacked(destination)) */\n      dup1\n      mload\n      swap1\n      0x20\n      add\n      keccak256\n        /* \"AirlineManagement.sol\":2400:2412  destinations */\n      0x01\n        /* \"AirlineManagement.sol\":2413:2420  indexes */\n      0x04\n        /* \"AirlineManagement.sol\":2421:2432  destination */\n      dup5\n        /* \"AirlineManagement.sol\":2413:2433  indexes[destination] */\n      mload(0x40)\n      tag_172\n      swap2\n      swap1\n      tag_127\n      jump\t// in\n    tag_172:\n      swap1\n      dup2\n      mstore\n      0x20\n      add\n      mload(0x40)\n      dup1\n      swap2\n      sub\n      swap1\n      keccak256\n      sload\n        /* \"AirlineManagement.sol\":2400:2434  destinations[indexes[destination]] */\n      dup2\n      sload\n      dup2\n      lt\n      tag_173\n      jumpi\n      tag_174\n      tag_131\n      jump\t// in\n    tag_174:\n    tag_173:\n      swap1\n      0x00\n      mstore\n      keccak256(0x00, 0x20)\n      add\n        /* \"AirlineManagement.sol\":2383:2435  abi.encodePacked(destinations[indexes[destination]]) */\n      add(0x20, mload(0x40))\n      tag_176\n      swap2\n      swap1\n      tag_134\n      jump\t// in\n    tag_176:\n      mload(0x40)\n      0x20\n      dup2\n      dup4\n      sub\n      sub\n      dup2\n      mstore\n      swap1\n      0x40\n      mstore\n        /* \"AirlineManagement.sol\":2373:2436  keccak256(abi.encodePacked(destinations[indexes[destination]])) */\n      dup1\n      mload\n      swap1\n      0x20\n      add\n      keccak256\n        /* \"AirlineManagement.sol\":2373:2480  keccak256(abi.encodePacked(destinations[indexes[destination]])) != keccak256(abi.encodePacked(destination)) */\n      sub\n        /* \"AirlineManagement.sol\":2365:2524  require(keccak256(abi.encodePacked(destinations[indexes[destination]])) != keccak256(abi.encodePacked(destination)), \"Error: This destination already exists!\") */\n      tag_177\n      jumpi\n      mload(0x40)\n      0x08c379a000000000000000000000000000000000000000000000000000000000\n      dup2\n      mstore\n      0x04\n      add\n      tag_178\n      swap1\n      tag_179\n      jump\t// in\n    tag_178:\n      mload(0x40)\n      dup1\n      swap2\n      sub\n      swap1\n      revert\n    tag_177:\n        /* \"AirlineManagement.sol\":2562:2564  30 */\n      0x1e\n        /* \"AirlineManagement.sol\":2543:2559  destinationPrice */\n      dup2\n        /* \"AirlineManagement.sol\":2543:2564  destinationPrice > 30 */\n      gt\n        /* \"AirlineManagement.sol\":2535:2610  require(destinationPrice > 30, \"Error: Base price cannot be below 30 Wei!\") */\n      tag_180\n      jumpi\n      mload(0x40)\n      0x08c379a000000000000000000000000000000000000000000000000000000000\n      dup2\n      mstore\n      0x04\n      add\n      tag_181\n      swap1\n      tag_182\n      jump\t// in\n    tag_181:\n      mload(0x40)\n      dup1\n      swap2\n      sub\n      swap1\n      revert\n    tag_180:\n        /* \"AirlineManagement.sol\":2621:2679  create30Tickets(msg.sender, destination, destinationPrice) */\n      tag_183\n        /* \"AirlineManagement.sol\":2637:2647  msg.sender */\n      caller\n        /* \"AirlineManagement.sol\":2649:2660  destination */\n      dup4\n        /* \"AirlineManagement.sol\":2662:2678  destinationPrice */\n      dup4\n        /* \"AirlineManagement.sol\":2621:2636  create30Tickets */\n      tag_184\n        /* \"AirlineManagement.sol\":2621:2679  create30Tickets(msg.sender, destination, destinationPrice) */\n      jump\t// in\n    tag_183:\n        /* \"AirlineManagement.sol\":2692:2704  destinations */\n      0x01\n        /* \"AirlineManagement.sol\":2710:2721  destination */\n      dup3\n        /* \"AirlineManagement.sol\":2692:2722  destinations.push(destination) */\n      swap1\n      dup1\n      0x01\n      dup2\n      sload\n      add\n      dup1\n      dup3\n      sstore\n      dup1\n      swap2\n      pop\n      pop\n      0x01\n      swap1\n      sub\n      swap1\n      0x00\n      mstore\n      keccak256(0x00, 0x20)\n      add\n      0x00\n      swap1\n      swap2\n      swap1\n      swap2\n      swap1\n      swap2\n      pop\n      swap1\n      dup2\n      tag_186\n      swap2\n      swap1\n      tag_187\n      jump\t// in\n    tag_186:\n      pop\n        /* \"AirlineManagement.sol\":2733:2750  destinationPrices */\n      0x02\n        /* \"AirlineManagement.sol\":2756:2772  destinationPrice */\n      dup2\n        /* \"AirlineManagement.sol\":2733:2773  destinationPrices.push(destinationPrice) */\n      swap1\n      dup1\n      0x01\n      dup2\n      sload\n      add\n      dup1\n      dup3\n      sstore\n      dup1\n      swap2\n      pop\n      pop\n      0x01\n      swap1\n      sub\n      swap1\n      0x00\n      mstore\n      keccak256(0x00, 0x20)\n      add\n      0x00\n      swap1\n      swap2\n      swap1\n      swap2\n      swap1\n      swap2\n      pop\n      sstore\n        /* \"AirlineManagement.sol\":2807:2812  count */\n      sload(0x14)\n        /* \"AirlineManagement.sol\":2784:2791  indexes */\n      0x04\n        /* \"AirlineManagement.sol\":2792:2803  destination */\n      dup4\n        /* \"AirlineManagement.sol\":2784:2804  indexes[destination] */\n      mload(0x40)\n      tag_189\n      swap2\n      swap1\n      tag_127\n      jump\t// in\n    tag_189:\n      swap1\n      dup2\n      mstore\n      0x20\n      add\n      mload(0x40)\n      dup1\n      swap2\n      sub\n      swap1\n      keccak256\n        /* \"AirlineManagement.sol\":2784:2812  indexes[destination] = count */\n      dup2\n      swap1\n      sstore\n      pop\n        /* \"AirlineManagement.sol\":2823:2828  seats */\n      0x03\n        /* \"AirlineManagement.sol\":2834:2836  30 */\n      0x1e\n        /* \"AirlineManagement.sol\":2823:2837  seats.push(30) */\n      swap1\n      dup1\n      0x01\n      dup2\n      sload\n      add\n      dup1\n      dup3\n      sstore\n      dup1\n      swap2\n      pop\n      pop\n      0x01\n      swap1\n      sub\n      swap1\n      0x00\n      mstore\n      keccak256(0x00, 0x20)\n      add\n      0x00\n      swap1\n      swap2\n      swap1\n      swap2\n      swap1\n      swap2\n      pop\n      sstore\n        /* \"AirlineManagement.sol\":2848:2853  count */\n      0x14\n      0x00\n        /* \"AirlineManagement.sol\":2848:2855  count++ */\n      dup2\n      sload\n      dup1\n      swap3\n      swap2\n      swap1\n      tag_191\n      swap1\n      tag_192\n      jump\t// in\n    tag_191:\n      swap2\n      swap1\n      pop\n      sstore\n      pop\n        /* \"AirlineManagement.sol\":2259:2863  function createDestination(string memory destination, uint destinationPrice) restricted public {... */\n      pop\n      pop\n      jump\t// out\n        /* \"AirlineManagement.sol\":1038:1065  uint256 public nextTicketId */\n    tag_71:\n      sload(0x18)\n      dup2\n      jump\t// out\n        /* \"AirlineManagement.sol\":722:752  uint[3] public classMultiplier */\n    tag_76:\n      0x11\n      dup2\n      0x03\n      dup2\n      lt\n      tag_193\n      jumpi\n      0x00\n      dup1\n      revert\n    tag_193:\n      add\n      0x00\n      swap2\n      pop\n      swap1\n      pop\n      sload\n      dup2\n      jump\t// out\n        /* \"AirlineManagement.sol\":371:399  string[] public destinations */\n    tag_81:\n      0x01\n      dup2\n      dup2\n      sload\n      dup2\n      lt\n      tag_195\n      jumpi\n      0x00\n      dup1\n      revert\n    tag_195:\n      swap1\n      0x00\n      mstore\n      keccak256(0x00, 0x20)\n      add\n      0x00\n      swap2\n      pop\n      swap1\n      pop\n      dup1\n      sload\n      tag_197\n      swap1\n      tag_115\n      jump\t// in\n    tag_197:\n      dup1\n      0x1f\n      add\n      0x20\n      dup1\n      swap2\n      div\n      mul\n      0x20\n      add\n      mload(0x40)\n      swap1\n      dup2\n      add\n      0x40\n      mstore\n      dup1\n      swap3\n      swap2\n      swap1\n      dup2\n      dup2\n      mstore\n      0x20\n      add\n      dup3\n      dup1\n      sload\n      tag_198\n      swap1\n      tag_115\n      jump\t// in\n    tag_198:\n      dup1\n      iszero\n      tag_199\n      jumpi\n      dup1\n      0x1f\n      lt\n      tag_200\n      jumpi\n      0x0100\n      dup1\n      dup4\n      sload\n      div\n      mul\n      dup4\n      mstore\n      swap2\n      0x20\n      add\n      swap2\n      jump(tag_199)\n    tag_200:\n      dup3\n      add\n      swap2\n      swap1\n      0x00\n      mstore\n      keccak256(0x00, 0x20)\n      swap1\n    tag_201:\n      dup2\n      sload\n      dup2\n      mstore\n      swap1\n      0x01\n      add\n      swap1\n      0x20\n      add\n      dup1\n      dup4\n      gt\n      tag_201\n      jumpi\n      dup3\n      swap1\n      sub\n      0x1f\n      and\n      dup3\n      add\n      swap2\n    tag_199:\n      pop\n      pop\n      pop\n      pop\n      pop\n      dup2\n      jump\t// out\n        /* \"AirlineManagement.sol\":321:339  address public ceo */\n    tag_86:\n      0x00\n      dup1\n      sload\n      swap1\n      0x0100\n      exp\n      swap1\n      div\n      0xffffffffffffffffffffffffffffffffffffffff\n      and\n      dup2\n      jump\t// out\n        /* \"AirlineManagement.sol\":6405:6553  function payCEO() public restricted {... */\n    tag_91:\n        /* \"AirlineManagement.sol\":1129:1132  ceo */\n      0x00\n      dup1\n      sload\n      swap1\n      0x0100\n      exp\n      swap1\n      div\n      0xffffffffffffffffffffffffffffffffffffffff\n      and\n        /* \"AirlineManagement.sol\":1115:1132  msg.sender == ceo */\n      0xffffffffffffffffffffffffffffffffffffffff\n      and\n        /* \"AirlineManagement.sol\":1115:1125  msg.sender */\n      caller\n        /* \"AirlineManagement.sol\":1115:1132  msg.sender == ceo */\n      0xffffffffffffffffffffffffffffffffffffffff\n      and\n      eq\n        /* \"AirlineManagement.sol\":1107:1133  require(msg.sender == ceo) */\n      tag_203\n      jumpi\n      0x00\n      dup1\n      revert\n    tag_203:\n        /* \"AirlineManagement.sol\":6460:6463  ceo */\n      0x00\n      dup1\n      sload\n      swap1\n      0x0100\n      exp\n      swap1\n      div\n      0xffffffffffffffffffffffffffffffffffffffff\n      and\n        /* \"AirlineManagement.sol\":6452:6473  payable(ceo).transfer */\n      0xffffffffffffffffffffffffffffffffffffffff\n      and\n        /* \"AirlineManagement.sol\":6452:6493  payable(ceo).transfer(payAmount * 9 / 10) */\n      0x08fc\n        /* \"AirlineManagement.sol\":6490:6492  10 */\n      0x0a\n        /* \"AirlineManagement.sol\":6486:6487  9 */\n      0x09\n        /* \"AirlineManagement.sol\":6474:6483  payAmount */\n      sload(0x16)\n        /* \"AirlineManagement.sol\":6474:6487  payAmount * 9 */\n      tag_205\n      swap2\n      swap1\n      tag_152\n      jump\t// in\n    tag_205:\n        /* \"AirlineManagement.sol\":6474:6492  payAmount * 9 / 10 */\n      tag_206\n      swap2\n      swap1\n      tag_157\n      jump\t// in\n    tag_206:\n        /* \"AirlineManagement.sol\":6452:6493  payable(ceo).transfer(payAmount * 9 / 10) */\n      swap1\n      dup2\n      iszero\n      mul\n      swap1\n      mload(0x40)\n      0x00\n      mload(0x40)\n      dup1\n      dup4\n      sub\n      dup2\n      dup6\n      dup9\n      dup9\n      call\n      swap4\n      pop\n      pop\n      pop\n      pop\n      iszero\n      dup1\n      iszero\n      tag_208\n      jumpi\n      returndatasize\n      0x00\n      dup1\n      returndatacopy\n      revert(0x00, returndatasize)\n    tag_208:\n      pop\n        /* \"AirlineManagement.sol\":6516:6521  false */\n      0x00\n        /* \"AirlineManagement.sol\":6504:6513  canPayout */\n      0x15\n      0x00\n        /* \"AirlineManagement.sol\":6504:6521  canPayout = false */\n      0x0100\n      exp\n      dup2\n      sload\n      dup2\n      0xff\n      mul\n      not\n      and\n      swap1\n      dup4\n      iszero\n      iszero\n      mul\n      or\n      swap1\n      sstore\n      pop\n        /* \"AirlineManagement.sol\":6544:6545  0 */\n      0x00\n        /* \"AirlineManagement.sol\":6532:6541  payAmount */\n      0x16\n        /* \"AirlineManagement.sol\":6532:6545  payAmount = 0 */\n      dup2\n      swap1\n      sstore\n      pop\n        /* \"AirlineManagement.sol\":6405:6553  function payCEO() public restricted {... */\n      jump\t// out\n        /* \"AirlineManagement.sol\":5509:6393  function getBookedFlights(address user) public view returns (Ticket[] memory) {... */\n    tag_95:\n        /* \"AirlineManagement.sol\":5570:5585  Ticket[] memory */\n      0x60\n        /* \"AirlineManagement.sol\":5598:5614  uint bookedCount */\n      0x00\n        /* \"AirlineManagement.sol\":5723:5735  uint tokenId */\n      dup1\n        /* \"AirlineManagement.sol\":5718:5931  for (uint tokenId = 0; tokenId < nextTicketId; tokenId++) {... */\n    tag_210:\n        /* \"AirlineManagement.sol\":5751:5763  nextTicketId */\n      sload(0x18)\n        /* \"AirlineManagement.sol\":5741:5748  tokenId */\n      dup2\n        /* \"AirlineManagement.sol\":5741:5763  tokenId < nextTicketId */\n      lt\n        /* \"AirlineManagement.sol\":5718:5931  for (uint tokenId = 0; tokenId < nextTicketId; tokenId++) {... */\n      iszero\n      tag_211\n      jumpi\n        /* \"AirlineManagement.sol\":5827:5831  user */\n      dup4\n        /* \"AirlineManagement.sol\":5795:5831  ticketDetails[tokenId].owner == user */\n      0xffffffffffffffffffffffffffffffffffffffff\n      and\n        /* \"AirlineManagement.sol\":5795:5808  ticketDetails */\n      0x17\n        /* \"AirlineManagement.sol\":5795:5817  ticketDetails[tokenId] */\n      0x00\n        /* \"AirlineManagement.sol\":5809:5816  tokenId */\n      dup4\n        /* \"AirlineManagement.sol\":5795:5817  ticketDetails[tokenId] */\n      dup2\n      mstore\n      0x20\n      add\n      swap1\n      dup2\n      mstore\n      0x20\n      add\n      0x00\n      keccak256\n        /* \"AirlineManagement.sol\":5795:5823  ticketDetails[tokenId].owner */\n      0x00\n      add\n      0x00\n      swap1\n      sload\n      swap1\n      0x0100\n      exp\n      swap1\n      div\n      0xffffffffffffffffffffffffffffffffffffffff\n      and\n        /* \"AirlineManagement.sol\":5795:5831  ticketDetails[tokenId].owner == user */\n      0xffffffffffffffffffffffffffffffffffffffff\n      and\n      eq\n        /* \"AirlineManagement.sol\":5795:5870  ticketDetails[tokenId].owner == user && !ticketDetails[tokenId].isAvailable */\n      dup1\n      iszero\n      tag_213\n      jumpi\n      pop\n        /* \"AirlineManagement.sol\":5836:5849  ticketDetails */\n      0x17\n        /* \"AirlineManagement.sol\":5836:5858  ticketDetails[tokenId] */\n      0x00\n        /* \"AirlineManagement.sol\":5850:5857  tokenId */\n      dup3\n        /* \"AirlineManagement.sol\":5836:5858  ticketDetails[tokenId] */\n      dup2\n      mstore\n      0x20\n      add\n      swap1\n      dup2\n      mstore\n      0x20\n      add\n      0x00\n      keccak256\n        /* \"AirlineManagement.sol\":5836:5870  ticketDetails[tokenId].isAvailable */\n      0x05\n      add\n      0x01\n      swap1\n      sload\n      swap1\n      0x0100\n      exp\n      swap1\n      div\n      0xff\n      and\n        /* \"AirlineManagement.sol\":5835:5870  !ticketDetails[tokenId].isAvailable */\n      iszero\n        /* \"AirlineManagement.sol\":5795:5870  ticketDetails[tokenId].owner == user && !ticketDetails[tokenId].isAvailable */\n    tag_213:\n        /* \"AirlineManagement.sol\":5791:5920  if (ticketDetails[tokenId].owner == user && !ticketDetails[tokenId].isAvailable) {... */\n      iszero\n      tag_214\n      jumpi\n        /* \"AirlineManagement.sol\":5891:5904  bookedCount++ */\n      dup2\n      dup1\n      tag_215\n      swap1\n      tag_192\n      jump\t// in\n    tag_215:\n      swap3\n      pop\n      pop\n        /* \"AirlineManagement.sol\":5791:5920  if (ticketDetails[tokenId].owner == user && !ticketDetails[tokenId].isAvailable) {... */\n    tag_214:\n        /* \"AirlineManagement.sol\":5765:5774  tokenId++ */\n      dup1\n      dup1\n      tag_216\n      swap1\n      tag_192\n      jump\t// in\n    tag_216:\n      swap2\n      pop\n      pop\n        /* \"AirlineManagement.sol\":5718:5931  for (uint tokenId = 0; tokenId < nextTicketId; tokenId++) {... */\n      jump(tag_210)\n    tag_211:\n      pop\n        /* \"AirlineManagement.sol\":5987:6016  Ticket[] memory bookedTickets */\n      0x00\n        /* \"AirlineManagement.sol\":6032:6043  bookedCount */\n      dup2\n        /* \"AirlineManagement.sol\":6019:6044  new Ticket[](bookedCount) */\n      0xffffffffffffffff\n      dup2\n      gt\n      iszero\n      tag_217\n      jumpi\n      tag_218\n      tag_219\n      jump\t// in\n    tag_218:\n    tag_217:\n      mload(0x40)\n      swap1\n      dup1\n      dup3\n      mstore\n      dup1\n      0x20\n      mul\n      0x20\n      add\n      dup3\n      add\n      0x40\n      mstore\n      dup1\n      iszero\n      tag_220\n      jumpi\n      dup2\n      0x20\n      add\n    tag_221:\n      tag_222\n      tag_223\n      jump\t// in\n    tag_222:\n      dup2\n      mstore\n      0x20\n      add\n      swap1\n      0x01\n      swap1\n      sub\n      swap1\n      dup2\n      tag_221\n      jumpi\n      swap1\n      pop\n    tag_220:\n      pop\n        /* \"AirlineManagement.sol\":5987:6044  Ticket[] memory bookedTickets = new Ticket[](bookedCount) */\n      swap1\n      pop\n        /* \"AirlineManagement.sol\":6055:6065  uint index */\n      0x00\n        /* \"AirlineManagement.sol\":6087:6099  uint tokenId */\n      dup1\n        /* \"AirlineManagement.sol\":6082:6353  for (uint tokenId = 0; tokenId < nextTicketId; tokenId++) {... */\n    tag_224:\n        /* \"AirlineManagement.sol\":6115:6127  nextTicketId */\n      sload(0x18)\n        /* \"AirlineManagement.sol\":6105:6112  tokenId */\n      dup2\n        /* \"AirlineManagement.sol\":6105:6127  tokenId < nextTicketId */\n      lt\n        /* \"AirlineManagement.sol\":6082:6353  for (uint tokenId = 0; tokenId < nextTicketId; tokenId++) {... */\n      iszero\n      tag_225\n      jumpi\n        /* \"AirlineManagement.sol\":6191:6195  user */\n      dup6\n        /* \"AirlineManagement.sol\":6159:6195  ticketDetails[tokenId].owner == user */\n      0xffffffffffffffffffffffffffffffffffffffff\n      and\n        /* \"AirlineManagement.sol\":6159:6172  ticketDetails */\n      0x17\n        /* \"AirlineManagement.sol\":6159:6181  ticketDetails[tokenId] */\n      0x00\n        /* \"AirlineManagement.sol\":6173:6180  tokenId */\n      dup4\n        /* \"AirlineManagement.sol\":6159:6181  ticketDetails[tokenId] */\n      dup2\n      mstore\n      0x20\n      add\n      swap1\n      dup2\n      mstore\n      0x20\n      add\n      0x00\n      keccak256\n        /* \"AirlineManagement.sol\":6159:6187  ticketDetails[tokenId].owner */\n      0x00\n      add\n      0x00\n      swap1\n      sload\n      swap1\n      0x0100\n      exp\n      swap1\n      div\n      0xffffffffffffffffffffffffffffffffffffffff\n      and\n        /* \"AirlineManagement.sol\":6159:6195  ticketDetails[tokenId].owner == user */\n      0xffffffffffffffffffffffffffffffffffffffff\n      and\n      eq\n        /* \"AirlineManagement.sol\":6159:6234  ticketDetails[tokenId].owner == user && !ticketDetails[tokenId].isAvailable */\n      dup1\n      iszero\n      tag_227\n      jumpi\n      pop\n        /* \"AirlineManagement.sol\":6200:6213  ticketDetails */\n      0x17\n        /* \"AirlineManagement.sol\":6200:6222  ticketDetails[tokenId] */\n      0x00\n        /* \"AirlineManagement.sol\":6214:6221  tokenId */\n      dup3\n        /* \"AirlineManagement.sol\":6200:6222  ticketDetails[tokenId] */\n      dup2\n      mstore\n      0x20\n      add\n      swap1\n      dup2\n      mstore\n      0x20\n      add\n      0x00\n      keccak256\n        /* \"AirlineManagement.sol\":6200:6234  ticketDetails[tokenId].isAvailable */\n      0x05\n      add\n      0x01\n      swap1\n      sload\n      swap1\n      0x0100\n      exp\n      swap1\n      div\n      0xff\n      and\n        /* \"AirlineManagement.sol\":6199:6234  !ticketDetails[tokenId].isAvailable */\n      iszero\n        /* \"AirlineManagement.sol\":6159:6234  ticketDetails[tokenId].owner == user && !ticketDetails[tokenId].isAvailable */\n    tag_227:\n        /* \"AirlineManagement.sol\":6155:6342  if (ticketDetails[tokenId].owner == user && !ticketDetails[tokenId].isAvailable) {... */\n      iszero\n      tag_228\n      jumpi\n        /* \"AirlineManagement.sol\":6278:6291  ticketDetails */\n      0x17\n        /* \"AirlineManagement.sol\":6278:6300  ticketDetails[tokenId] */\n      0x00\n        /* \"AirlineManagement.sol\":6292:6299  tokenId */\n      dup3\n        /* \"AirlineManagement.sol\":6278:6300  ticketDetails[tokenId] */\n      dup2\n      mstore\n      0x20\n      add\n      swap1\n      dup2\n      mstore\n      0x20\n      add\n      0x00\n      keccak256\n        /* \"AirlineManagement.sol\":6255:6300  bookedTickets[index] = ticketDetails[tokenId] */\n      mload(0x40)\n      dup1\n      0x0100\n      add\n      0x40\n      mstore\n      swap1\n      dup2\n      0x00\n      dup3\n      add\n      0x00\n      swap1\n      sload\n      swap1\n      0x0100\n      exp\n      swap1\n      div\n      0xffffffffffffffffffffffffffffffffffffffff\n      and\n      0xffffffffffffffffffffffffffffffffffffffff\n      and\n      0xffffffffffffffffffffffffffffffffffffffff\n      and\n      dup2\n      mstore\n      0x20\n      add\n      0x01\n      dup3\n      add\n      dup1\n      sload\n      tag_229\n      swap1\n      tag_115\n      jump\t// in\n    tag_229:\n      dup1\n      0x1f\n      add\n      0x20\n      dup1\n      swap2\n      div\n      mul\n      0x20\n      add\n      mload(0x40)\n      swap1\n      dup2\n      add\n      0x40\n      mstore\n      dup1\n      swap3\n      swap2\n      swap1\n      dup2\n      dup2\n      mstore\n      0x20\n      add\n      dup3\n      dup1\n      sload\n      tag_230\n      swap1\n      tag_115\n      jump\t// in\n    tag_230:\n      dup1\n      iszero\n      tag_231\n      jumpi\n      dup1\n      0x1f\n      lt\n      tag_232\n      jumpi\n      0x0100\n      dup1\n      dup4\n      sload\n      div\n      mul\n      dup4\n      mstore\n      swap2\n      0x20\n      add\n      swap2\n      jump(tag_231)\n    tag_232:\n      dup3\n      add\n      swap2\n      swap1\n      0x00\n      mstore\n      keccak256(0x00, 0x20)\n      swap1\n    tag_233:\n      dup2\n      sload\n      dup2\n      mstore\n      swap1\n      0x01\n      add\n      swap1\n      0x20\n      add\n      dup1\n      dup4\n      gt\n      tag_233\n      jumpi\n      dup3\n      swap1\n      sub\n      0x1f\n      and\n      dup3\n      add\n      swap2\n    tag_231:\n      pop\n      pop\n      pop\n      pop\n      pop\n      dup2\n      mstore\n      0x20\n      add\n      0x02\n      dup3\n      add\n      sload\n      dup2\n      mstore\n      0x20\n      add\n      0x03\n      dup3\n      add\n      sload\n      dup2\n      mstore\n      0x20\n      add\n      0x04\n      dup3\n      add\n      dup1\n      sload\n      tag_234\n      swap1\n      tag_115\n      jump\t// in\n    tag_234:\n      dup1\n      0x1f\n      add\n      0x20\n      dup1\n      swap2\n      div\n      mul\n      0x20\n      add\n      mload(0x40)\n      swap1\n      dup2\n      add\n      0x40\n      mstore\n      dup1\n      swap3\n      swap2\n      swap1\n      dup2\n      dup2\n      mstore\n      0x20\n      add\n      dup3\n      dup1\n      sload\n      tag_235\n      swap1\n      tag_115\n      jump\t// in\n    tag_235:\n      dup1\n      iszero\n      tag_236\n      jumpi\n      dup1\n      0x1f\n      lt\n      tag_237\n      jumpi\n      0x0100\n      dup1\n      dup4\n      sload\n      div\n      mul\n      dup4\n      mstore\n      swap2\n      0x20\n      add\n      swap2\n      jump(tag_236)\n    tag_237:\n      dup3\n      add\n      swap2\n      swap1\n      0x00\n      mstore\n      keccak256(0x00, 0x20)\n      swap1\n    tag_238:\n      dup2\n      sload\n      dup2\n      mstore\n      swap1\n      0x01\n      add\n      swap1\n      0x20\n      add\n      dup1\n      dup4\n      gt\n      tag_238\n      jumpi\n      dup3\n      swap1\n      sub\n      0x1f\n      and\n      dup3\n      add\n      swap2\n    tag_236:\n      pop\n      pop\n      pop\n      pop\n      pop\n      dup2\n      mstore\n      0x20\n      add\n      0x05\n      dup3\n      add\n      0x00\n      swap1\n      sload\n      swap1\n      0x0100\n      exp\n      swap1\n      div\n      0xff\n      and\n      iszero\n      iszero\n      iszero\n      iszero\n      dup2\n      mstore\n      0x20\n      add\n      0x05\n      dup3\n      add\n      0x01\n      swap1\n      sload\n      swap1\n      0x0100\n      exp\n      swap1\n      div\n      0xff\n      and\n      iszero\n      iszero\n      iszero\n      iszero\n      dup2\n      mstore\n      0x20\n      add\n      0x06\n      dup3\n      add\n      sload\n      dup2\n      mstore\n      pop\n      pop\n        /* \"AirlineManagement.sol\":6255:6268  bookedTickets */\n      dup4\n        /* \"AirlineManagement.sol\":6269:6274  index */\n      dup4\n        /* \"AirlineManagement.sol\":6255:6275  bookedTickets[index] */\n      dup2\n      mload\n      dup2\n      lt\n      tag_239\n      jumpi\n      tag_240\n      tag_131\n      jump\t// in\n    tag_240:\n    tag_239:\n      0x20\n      mul\n      0x20\n      add\n      add\n        /* \"AirlineManagement.sol\":6255:6300  bookedTickets[index] = ticketDetails[tokenId] */\n      dup2\n      swap1\n      mstore\n      pop\n        /* \"AirlineManagement.sol\":6319:6326  index++ */\n      dup2\n      dup1\n      tag_241\n      swap1\n      tag_192\n      jump\t// in\n    tag_241:\n      swap3\n      pop\n      pop\n        /* \"AirlineManagement.sol\":6155:6342  if (ticketDetails[tokenId].owner == user && !ticketDetails[tokenId].isAvailable) {... */\n    tag_228:\n        /* \"AirlineManagement.sol\":6129:6138  tokenId++ */\n      dup1\n      dup1\n      tag_242\n      swap1\n      tag_192\n      jump\t// in\n    tag_242:\n      swap2\n      pop\n      pop\n        /* \"AirlineManagement.sol\":6082:6353  for (uint tokenId = 0; tokenId < nextTicketId; tokenId++) {... */\n      jump(tag_224)\n    tag_225:\n      pop\n        /* \"AirlineManagement.sol\":6372:6385  bookedTickets */\n      dup2\n        /* \"AirlineManagement.sol\":6365:6385  return bookedTickets */\n      swap4\n      pop\n      pop\n      pop\n      pop\n        /* \"AirlineManagement.sol\":5509:6393  function getBookedFlights(address user) public view returns (Ticket[] memory) {... */\n      swap2\n      swap1\n      pop\n      jump\t// out\n        /* \"AirlineManagement.sol\":917:938  uint public payAmount */\n    tag_100:\n      sload(0x16)\n      dup2\n      jump\t// out\n        /* \"AirlineManagement.sol\":655:686  uint[12] public monthMultiplier */\n    tag_105:\n      0x05\n      dup2\n      0x0c\n      dup2\n      lt\n      tag_243\n      jumpi\n      0x00\n      dup1\n      revert\n    tag_243:\n      add\n      0x00\n      swap2\n      pop\n      swap1\n      pop\n      sload\n      dup2\n      jump\t// out\n        /* \"AirlineManagement.sol\":3904:5352  function bookFlight(string memory destination, uint month, uint class, bool way) public payable{... */\n    tag_109:\n        /* \"AirlineManagement.sol\":4031:4071  getPrice(destination, month, class, way) */\n      tag_246\n        /* \"AirlineManagement.sol\":4040:4051  destination */\n      dup5\n        /* \"AirlineManagement.sol\":4053:4058  month */\n      dup5\n        /* \"AirlineManagement.sol\":4060:4065  class */\n      dup5\n        /* \"AirlineManagement.sol\":4067:4070  way */\n      dup5\n        /* \"AirlineManagement.sol\":4031:4039  getPrice */\n      tag_39\n        /* \"AirlineManagement.sol\":4031:4071  getPrice(destination, month, class, way) */\n      jump\t// in\n    tag_246:\n        /* \"AirlineManagement.sol\":4018:4027  msg.value */\n      callvalue\n        /* \"AirlineManagement.sol\":4018:4071  msg.value == getPrice(destination, month, class, way) */\n      eq\n        /* \"AirlineManagement.sol\":4010:4072  require(msg.value == getPrice(destination, month, class, way)) */\n      tag_247\n      jumpi\n      0x00\n      dup1\n      revert\n    tag_247:\n        /* \"AirlineManagement.sol\":4185:4196  destination */\n      dup4\n        /* \"AirlineManagement.sol\":4168:4197  abi.encodePacked(destination) */\n      add(0x20, mload(0x40))\n      tag_248\n      swap2\n      swap1\n      tag_127\n      jump\t// in\n    tag_248:\n      mload(0x40)\n      0x20\n      dup2\n      dup4\n      sub\n      sub\n      dup2\n      mstore\n      swap1\n      0x40\n      mstore\n        /* \"AirlineManagement.sol\":4158:4198  keccak256(abi.encodePacked(destination)) */\n      dup1\n      mload\n      swap1\n      0x20\n      add\n      keccak256\n        /* \"AirlineManagement.sol\":4118:4130  destinations */\n      0x01\n        /* \"AirlineManagement.sol\":4131:4138  indexes */\n      0x04\n        /* \"AirlineManagement.sol\":4139:4150  destination */\n      dup7\n        /* \"AirlineManagement.sol\":4131:4151  indexes[destination] */\n      mload(0x40)\n      tag_249\n      swap2\n      swap1\n      tag_127\n      jump\t// in\n    tag_249:\n      swap1\n      dup2\n      mstore\n      0x20\n      add\n      mload(0x40)\n      dup1\n      swap2\n      sub\n      swap1\n      keccak256\n      sload\n        /* \"AirlineManagement.sol\":4118:4152  destinations[indexes[destination]] */\n      dup2\n      sload\n      dup2\n      lt\n      tag_250\n      jumpi\n      tag_251\n      tag_131\n      jump\t// in\n    tag_251:\n    tag_250:\n      swap1\n      0x00\n      mstore\n      keccak256(0x00, 0x20)\n      add\n        /* \"AirlineManagement.sol\":4101:4153  abi.encodePacked(destinations[indexes[destination]]) */\n      add(0x20, mload(0x40))\n      tag_253\n      swap2\n      swap1\n      tag_134\n      jump\t// in\n    tag_253:\n      mload(0x40)\n      0x20\n      dup2\n      dup4\n      sub\n      sub\n      dup2\n      mstore\n      swap1\n      0x40\n      mstore\n        /* \"AirlineManagement.sol\":4091:4154  keccak256(abi.encodePacked(destinations[indexes[destination]])) */\n      dup1\n      mload\n      swap1\n      0x20\n      add\n      keccak256\n        /* \"AirlineManagement.sol\":4091:4198  keccak256(abi.encodePacked(destinations[indexes[destination]])) == keccak256(abi.encodePacked(destination)) */\n      eq\n        /* \"AirlineManagement.sol\":4083:4241  require(keccak256(abi.encodePacked(destinations[indexes[destination]])) == keccak256(abi.encodePacked(destination)), \"Error: This destination doesn't exist!\") */\n      tag_254\n      jumpi\n      mload(0x40)\n      0x08c379a000000000000000000000000000000000000000000000000000000000\n      dup2\n      mstore\n      0x04\n      add\n      tag_255\n      swap1\n      tag_137\n      jump\t// in\n    tag_255:\n      mload(0x40)\n      dup1\n      swap2\n      sub\n      swap1\n      revert\n    tag_254:\n        /* \"AirlineManagement.sol\":4298:4309  bool booked */\n      0x00\n        /* \"AirlineManagement.sol\":4333:4345  uint tokenId */\n      dup1\n        /* \"AirlineManagement.sol\":4328:5104  for (uint tokenId = 0; tokenId < nextTicketId; tokenId++) {... */\n    tag_256:\n        /* \"AirlineManagement.sol\":4361:4373  nextTicketId */\n      sload(0x18)\n        /* \"AirlineManagement.sol\":4351:4358  tokenId */\n      dup2\n        /* \"AirlineManagement.sol\":4351:4373  tokenId < nextTicketId */\n      lt\n        /* \"AirlineManagement.sol\":4328:5104  for (uint tokenId = 0; tokenId < nextTicketId; tokenId++) {... */\n      iszero\n      tag_257\n      jumpi\n        /* \"AirlineManagement.sol\":4401:4422  Ticket storage ticket */\n      0x00\n        /* \"AirlineManagement.sol\":4425:4438  ticketDetails */\n      0x17\n        /* \"AirlineManagement.sol\":4425:4447  ticketDetails[tokenId] */\n      0x00\n        /* \"AirlineManagement.sol\":4439:4446  tokenId */\n      dup4\n        /* \"AirlineManagement.sol\":4425:4447  ticketDetails[tokenId] */\n      dup2\n      mstore\n      0x20\n      add\n      swap1\n      dup2\n      mstore\n      0x20\n      add\n      0x00\n      keccak256\n        /* \"AirlineManagement.sol\":4401:4447  Ticket storage ticket = ticketDetails[tokenId] */\n      swap1\n      pop\n        /* \"AirlineManagement.sol\":4601:4612  destination */\n      dup7\n        /* \"AirlineManagement.sol\":4584:4613  abi.encodePacked(destination) */\n      add(0x20, mload(0x40))\n      tag_259\n      swap2\n      swap1\n      tag_127\n      jump\t// in\n    tag_259:\n      mload(0x40)\n      0x20\n      dup2\n      dup4\n      sub\n      sub\n      dup2\n      mstore\n      swap1\n      0x40\n      mstore\n        /* \"AirlineManagement.sol\":4574:4614  keccak256(abi.encodePacked(destination)) */\n      dup1\n      mload\n      swap1\n      0x20\n      add\n      keccak256\n        /* \"AirlineManagement.sol\":4550:4556  ticket */\n      dup2\n        /* \"AirlineManagement.sol\":4550:4568  ticket.destination */\n      0x01\n      add\n        /* \"AirlineManagement.sol\":4533:4569  abi.encodePacked(ticket.destination) */\n      add(0x20, mload(0x40))\n      tag_260\n      swap2\n      swap1\n      tag_134\n      jump\t// in\n    tag_260:\n      mload(0x40)\n      0x20\n      dup2\n      dup4\n      sub\n      sub\n      dup2\n      mstore\n      swap1\n      0x40\n      mstore\n        /* \"AirlineManagement.sol\":4523:4570  keccak256(abi.encodePacked(ticket.destination)) */\n      dup1\n      mload\n      swap1\n      0x20\n      add\n      keccak256\n        /* \"AirlineManagement.sol\":4523:4614  keccak256(abi.encodePacked(ticket.destination)) == keccak256(abi.encodePacked(destination)) */\n      eq\n        /* \"AirlineManagement.sol\":4523:4636  keccak256(abi.encodePacked(ticket.destination)) == keccak256(abi.encodePacked(destination)) && ticket.isAvailable */\n      dup1\n      iszero\n      tag_261\n      jumpi\n      pop\n        /* \"AirlineManagement.sol\":4618:4624  ticket */\n      dup1\n        /* \"AirlineManagement.sol\":4618:4636  ticket.isAvailable */\n      0x05\n      add\n      0x01\n      swap1\n      sload\n      swap1\n      0x0100\n      exp\n      swap1\n      div\n      0xff\n      and\n        /* \"AirlineManagement.sol\":4523:4636  keccak256(abi.encodePacked(ticket.destination)) == keccak256(abi.encodePacked(destination)) && ticket.isAvailable */\n    tag_261:\n        /* \"AirlineManagement.sol\":4519:5093  if (keccak256(abi.encodePacked(ticket.destination)) == keccak256(abi.encodePacked(destination)) && ticket.isAvailable) {... */\n      iszero\n      tag_262\n      jumpi\n        /* \"AirlineManagement.sol\":4749:4759  msg.sender */\n      caller\n        /* \"AirlineManagement.sol\":4734:4740  ticket */\n      dup2\n        /* \"AirlineManagement.sol\":4734:4746  ticket.owner */\n      0x00\n      add\n      0x00\n        /* \"AirlineManagement.sol\":4734:4759  ticket.owner = msg.sender */\n      0x0100\n      exp\n      dup2\n      sload\n      dup2\n      0xffffffffffffffffffffffffffffffffffffffff\n      mul\n      not\n      and\n      swap1\n      dup4\n      0xffffffffffffffffffffffffffffffffffffffff\n      and\n      mul\n      or\n      swap1\n      sstore\n      pop\n        /* \"AirlineManagement.sol\":4802:4803  1 */\n      0x01\n        /* \"AirlineManagement.sol\":4793:4798  class */\n      dup6\n        /* \"AirlineManagement.sol\":4793:4803  class == 1 */\n      eq\n        /* \"AirlineManagement.sol\":4793:4851  class == 1 ? \"Economy\" : class == 2 ? \"Business\" : \"First\" */\n      tag_263\n      jumpi\n        /* \"AirlineManagement.sol\":4827:4828  2 */\n      0x02\n        /* \"AirlineManagement.sol\":4818:4823  class */\n      dup6\n        /* \"AirlineManagement.sol\":4818:4828  class == 2 */\n      eq\n        /* \"AirlineManagement.sol\":4818:4851  class == 2 ? \"Business\" : \"First\" */\n      tag_264\n      jumpi\n      mload(0x40)\n      dup1\n      0x40\n      add\n      0x40\n      mstore\n      dup1\n      0x05\n      dup2\n      mstore\n      0x20\n      add\n      0x4669727374000000000000000000000000000000000000000000000000000000\n      dup2\n      mstore\n      pop\n      jump(tag_265)\n    tag_264:\n      mload(0x40)\n      dup1\n      0x40\n      add\n      0x40\n      mstore\n      dup1\n      0x08\n      dup2\n      mstore\n      0x20\n      add\n      0x427573696e657373000000000000000000000000000000000000000000000000\n      dup2\n      mstore\n      pop\n    tag_265:\n        /* \"AirlineManagement.sol\":4793:4851  class == 1 ? \"Economy\" : class == 2 ? \"Business\" : \"First\" */\n      jump(tag_266)\n    tag_263:\n      mload(0x40)\n      dup1\n      0x40\n      add\n      0x40\n      mstore\n      dup1\n      0x07\n      dup2\n      mstore\n      0x20\n      add\n      0x45636f6e6f6d7900000000000000000000000000000000000000000000000000\n      dup2\n      mstore\n      pop\n    tag_266:\n        /* \"AirlineManagement.sol\":4778:4784  ticket */\n      dup2\n        /* \"AirlineManagement.sol\":4778:4790  ticket.class */\n      0x04\n      add\n        /* \"AirlineManagement.sol\":4778:4851  ticket.class = class == 1 ? \"Economy\" : class == 2 ? \"Business\" : \"First\" */\n      swap1\n      dup2\n      tag_267\n      swap2\n      swap1\n      tag_187\n      jump\t// in\n    tag_267:\n      pop\n        /* \"AirlineManagement.sol\":4889:4892  way */\n      dup4\n        /* \"AirlineManagement.sol\":4870:4876  ticket */\n      dup2\n        /* \"AirlineManagement.sol\":4870:4886  ticket.roundTrip */\n      0x05\n      add\n      0x00\n        /* \"AirlineManagement.sol\":4870:4892  ticket.roundTrip = way */\n      0x0100\n      exp\n      dup2\n      sload\n      dup2\n      0xff\n      mul\n      not\n      and\n      swap1\n      dup4\n      iszero\n      iszero\n      mul\n      or\n      swap1\n      sstore\n      pop\n        /* \"AirlineManagement.sol\":4932:4937  false */\n      0x00\n        /* \"AirlineManagement.sol\":4911:4917  ticket */\n      dup2\n        /* \"AirlineManagement.sol\":4911:4929  ticket.isAvailable */\n      0x05\n      add\n      0x01\n        /* \"AirlineManagement.sol\":4911:4937  ticket.isAvailable = false */\n      0x0100\n      exp\n      dup2\n      sload\n      dup2\n      0xff\n      mul\n      not\n      and\n      swap1\n      dup4\n      iszero\n      iszero\n      mul\n      or\n      swap1\n      sstore\n      pop\n        /* \"AirlineManagement.sol\":4971:4976  month */\n      dup6\n        /* \"AirlineManagement.sol\":4956:4962  ticket */\n      dup2\n        /* \"AirlineManagement.sol\":4956:4968  ticket.month */\n      0x06\n      add\n        /* \"AirlineManagement.sol\":4956:4976  ticket.month = month */\n      dup2\n      swap1\n      sstore\n      pop\n        /* \"AirlineManagement.sol\":5010:5019  msg.value */\n      callvalue\n        /* \"AirlineManagement.sol\":4995:5001  ticket */\n      dup2\n        /* \"AirlineManagement.sol\":4995:5007  ticket.price */\n      0x02\n      add\n        /* \"AirlineManagement.sol\":4995:5019  ticket.price = msg.value */\n      dup2\n      swap1\n      sstore\n      pop\n        /* \"AirlineManagement.sol\":5049:5053  true */\n      0x01\n        /* \"AirlineManagement.sol\":5040:5053  booked = true */\n      swap3\n      pop\n        /* \"AirlineManagement.sol\":5072:5077  break */\n      pop\n      jump(tag_257)\n        /* \"AirlineManagement.sol\":4519:5093  if (keccak256(abi.encodePacked(ticket.destination)) == keccak256(abi.encodePacked(destination)) && ticket.isAvailable) {... */\n    tag_262:\n        /* \"AirlineManagement.sol\":4386:5104  {... */\n      pop\n        /* \"AirlineManagement.sol\":4375:4384  tokenId++ */\n      dup1\n      dup1\n      tag_268\n      swap1\n      tag_192\n      jump\t// in\n    tag_268:\n      swap2\n      pop\n      pop\n        /* \"AirlineManagement.sol\":4328:5104  for (uint tokenId = 0; tokenId < nextTicketId; tokenId++) {... */\n      jump(tag_256)\n    tag_257:\n      pop\n        /* \"AirlineManagement.sol\":5179:5185  booked */\n      dup1\n        /* \"AirlineManagement.sol\":5171:5240  require(booked, \"No available tickets for the specified destination\") */\n      tag_269\n      jumpi\n      mload(0x40)\n      0x08c379a000000000000000000000000000000000000000000000000000000000\n      dup2\n      mstore\n      0x04\n      add\n      tag_270\n      swap1\n      tag_271\n      jump\t// in\n    tag_270:\n      mload(0x40)\n      dup1\n      swap2\n      sub\n      swap1\n      revert\n    tag_269:\n        /* \"AirlineManagement.sol\":5251:5256  seats */\n      0x03\n        /* \"AirlineManagement.sol\":5257:5264  indexes */\n      0x04\n        /* \"AirlineManagement.sol\":5265:5276  destination */\n      dup7\n        /* \"AirlineManagement.sol\":5257:5277  indexes[destination] */\n      mload(0x40)\n      tag_272\n      swap2\n      swap1\n      tag_127\n      jump\t// in\n    tag_272:\n      swap1\n      dup2\n      mstore\n      0x20\n      add\n      mload(0x40)\n      dup1\n      swap2\n      sub\n      swap1\n      keccak256\n      sload\n        /* \"AirlineManagement.sol\":5251:5278  seats[indexes[destination]] */\n      dup2\n      sload\n      dup2\n      lt\n      tag_273\n      jumpi\n      tag_274\n      tag_131\n      jump\t// in\n    tag_274:\n    tag_273:\n      swap1\n      0x00\n      mstore\n      keccak256(0x00, 0x20)\n      add\n      0x00\n        /* \"AirlineManagement.sol\":5251:5280  seats[indexes[destination]]-- */\n      dup2\n      sload\n      dup1\n      swap3\n      swap2\n      swap1\n      tag_276\n      swap1\n      tag_277\n      jump\t// in\n    tag_276:\n      swap2\n      swap1\n      pop\n      sstore\n      pop\n        /* \"AirlineManagement.sol\":5307:5316  msg.value */\n      callvalue\n        /* \"AirlineManagement.sol\":5293:5302  payAmount */\n      0x16\n      0x00\n        /* \"AirlineManagement.sol\":5293:5317  payAmount += (msg.value) */\n      dup3\n      dup3\n      sload\n      tag_278\n      swap2\n      swap1\n      tag_279\n      jump\t// in\n    tag_278:\n      swap3\n      pop\n      pop\n      dup2\n      swap1\n      sstore\n      pop\n        /* \"AirlineManagement.sol\":5340:5344  true */\n      0x01\n        /* \"AirlineManagement.sol\":5328:5337  canPayout */\n      0x15\n      0x00\n        /* \"AirlineManagement.sol\":5328:5344  canPayout = true */\n      0x0100\n      exp\n      dup2\n      sload\n      dup2\n      0xff\n      mul\n      not\n      and\n      swap1\n      dup4\n      iszero\n      iszero\n      mul\n      or\n      swap1\n      sstore\n      pop\n        /* \"AirlineManagement.sol\":3999:5352  {... */\n      pop\n        /* \"AirlineManagement.sol\":3904:5352  function bookFlight(string memory destination, uint month, uint class, bool way) public payable{... */\n      pop\n      pop\n      pop\n      pop\n      jump\t// out\n        /* \"AirlineManagement.sol\":851:872  bool public canPayout */\n    tag_112:\n      0x15\n      0x00\n      swap1\n      sload\n      swap1\n      0x0100\n      exp\n      swap1\n      div\n      0xff\n      and\n      dup2\n      jump\t// out\n        /* \"AirlineManagement.sol\":2915:3261  function create30Tickets(address owner, string memory destination, uint256 price) private restricted {... */\n    tag_184:\n        /* \"AirlineManagement.sol\":1129:1132  ceo */\n      0x00\n      dup1\n      sload\n      swap1\n      0x0100\n      exp\n      swap1\n      div\n      0xffffffffffffffffffffffffffffffffffffffff\n      and\n        /* \"AirlineManagement.sol\":1115:1132  msg.sender == ceo */\n      0xffffffffffffffffffffffffffffffffffffffff\n      and\n        /* \"AirlineManagement.sol\":1115:1125  msg.sender */\n      caller\n        /* \"AirlineManagement.sol\":1115:1132  msg.sender == ceo */\n      0xffffffffffffffffffffffffffffffffffffffff\n      and\n      eq\n        /* \"AirlineManagement.sol\":1107:1133  require(msg.sender == ceo) */\n      tag_281\n      jumpi\n      0x00\n      dup1\n      revert\n    tag_281:\n        /* \"AirlineManagement.sol\":3032:3044  uint256 seat */\n      0x00\n        /* \"AirlineManagement.sol\":3027:3254  for (uint256 seat = 0; seat < 30; seat++) {... */\n    tag_283:\n        /* \"AirlineManagement.sol\":3057:3059  30 */\n      0x1e\n        /* \"AirlineManagement.sol\":3050:3054  seat */\n      dup2\n        /* \"AirlineManagement.sol\":3050:3059  seat < 30 */\n      lt\n        /* \"AirlineManagement.sol\":3027:3254  for (uint256 seat = 0; seat < 30; seat++) {... */\n      iszero\n      tag_284\n      jumpi\n        /* \"AirlineManagement.sol\":3084:3099  uint256 tokenId */\n      0x00\n        /* \"AirlineManagement.sol\":3102:3114  nextTicketId */\n      sload(0x18)\n        /* \"AirlineManagement.sol\":3084:3114  uint256 tokenId = nextTicketId */\n      swap1\n      pop\n        /* \"AirlineManagement.sol\":3154:3213  Ticket(owner, destination, price, seat, \"\", false, true, 0) */\n      mload(0x40)\n      dup1\n      0x0100\n      add\n      0x40\n      mstore\n      dup1\n        /* \"AirlineManagement.sol\":3161:3166  owner */\n      dup7\n        /* \"AirlineManagement.sol\":3154:3213  Ticket(owner, destination, price, seat, \"\", false, true, 0) */\n      0xffffffffffffffffffffffffffffffffffffffff\n      and\n      dup2\n      mstore\n      0x20\n      add\n        /* \"AirlineManagement.sol\":3168:3179  destination */\n      dup6\n        /* \"AirlineManagement.sol\":3154:3213  Ticket(owner, destination, price, seat, \"\", false, true, 0) */\n      dup2\n      mstore\n      0x20\n      add\n        /* \"AirlineManagement.sol\":3181:3186  price */\n      dup5\n        /* \"AirlineManagement.sol\":3154:3213  Ticket(owner, destination, price, seat, \"\", false, true, 0) */\n      dup2\n      mstore\n      0x20\n      add\n        /* \"AirlineManagement.sol\":3188:3192  seat */\n      dup4\n        /* \"AirlineManagement.sol\":3154:3213  Ticket(owner, destination, price, seat, \"\", false, true, 0) */\n      dup2\n      mstore\n      0x20\n      add\n      mload(0x40)\n      dup1\n      0x20\n      add\n      0x40\n      mstore\n      dup1\n      0x00\n      dup2\n      mstore\n      pop\n      dup2\n      mstore\n      0x20\n      add\n        /* \"AirlineManagement.sol\":3198:3203  false */\n      0x00\n        /* \"AirlineManagement.sol\":3154:3213  Ticket(owner, destination, price, seat, \"\", false, true, 0) */\n      iszero\n      iszero\n      dup2\n      mstore\n      0x20\n      add\n        /* \"AirlineManagement.sol\":3205:3209  true */\n      0x01\n        /* \"AirlineManagement.sol\":3154:3213  Ticket(owner, destination, price, seat, \"\", false, true, 0) */\n      iszero\n      iszero\n      dup2\n      mstore\n      0x20\n      add\n        /* \"AirlineManagement.sol\":3211:3212  0 */\n      0x00\n        /* \"AirlineManagement.sol\":3154:3213  Ticket(owner, destination, price, seat, \"\", false, true, 0) */\n      dup2\n      mstore\n      pop\n        /* \"AirlineManagement.sol\":3129:3142  ticketDetails */\n      0x17\n        /* \"AirlineManagement.sol\":3129:3151  ticketDetails[tokenId] */\n      0x00\n        /* \"AirlineManagement.sol\":3143:3150  tokenId */\n      dup4\n        /* \"AirlineManagement.sol\":3129:3151  ticketDetails[tokenId] */\n      dup2\n      mstore\n      0x20\n      add\n      swap1\n      dup2\n      mstore\n      0x20\n      add\n      0x00\n      keccak256\n        /* \"AirlineManagement.sol\":3129:3213  ticketDetails[tokenId] = Ticket(owner, destination, price, seat, \"\", false, true, 0) */\n      0x00\n      dup3\n      add\n      mload\n      dup2\n      0x00\n      add\n      exp(0x0100, 0x00)\n      dup2\n      sload\n      dup2\n      0xffffffffffffffffffffffffffffffffffffffff\n      mul\n      not\n      and\n      swap1\n      dup4\n      0xffffffffffffffffffffffffffffffffffffffff\n      and\n      mul\n      or\n      swap1\n      sstore\n      pop\n      0x20\n      dup3\n      add\n      mload\n      dup2\n      0x01\n      add\n      swap1\n      dup2\n      tag_286\n      swap2\n      swap1\n      tag_187\n      jump\t// in\n    tag_286:\n      pop\n      0x40\n      dup3\n      add\n      mload\n      dup2\n      0x02\n      add\n      sstore\n      0x60\n      dup3\n      add\n      mload\n      dup2\n      0x03\n      add\n      sstore\n      0x80\n      dup3\n      add\n      mload\n      dup2\n      0x04\n      add\n      swap1\n      dup2\n      tag_287\n      swap2\n      swap1\n      tag_187\n      jump\t// in\n    tag_287:\n      pop\n      0xa0\n      dup3\n      add\n      mload\n      dup2\n      0x05\n      add\n      exp(0x0100, 0x00)\n      dup2\n      sload\n      dup2\n      0xff\n      mul\n      not\n      and\n      swap1\n      dup4\n      iszero\n      iszero\n      mul\n      or\n      swap1\n      sstore\n      pop\n      0xc0\n      dup3\n      add\n      mload\n      dup2\n      0x05\n      add\n      exp(0x0100, 0x01)\n      dup2\n      sload\n      dup2\n      0xff\n      mul\n      not\n      and\n      swap1\n      dup4\n      iszero\n      iszero\n      mul\n      or\n      swap1\n      sstore\n      pop\n      0xe0\n      dup3\n      add\n      mload\n      dup2\n      0x06\n      add\n      sstore\n      swap1\n      pop\n      pop\n        /* \"AirlineManagement.sol\":3228:3240  nextTicketId */\n      0x18\n      0x00\n        /* \"AirlineManagement.sol\":3228:3242  nextTicketId++ */\n      dup2\n      sload\n      dup1\n      swap3\n      swap2\n      swap1\n      tag_288\n      swap1\n      tag_192\n      jump\t// in\n    tag_288:\n      swap2\n      swap1\n      pop\n      sstore\n      pop\n        /* \"AirlineManagement.sol\":3069:3254  {... */\n      pop\n        /* \"AirlineManagement.sol\":3061:3067  seat++ */\n      dup1\n      dup1\n      tag_289\n      swap1\n      tag_192\n      jump\t// in\n    tag_289:\n      swap2\n      pop\n      pop\n        /* \"AirlineManagement.sol\":3027:3254  for (uint256 seat = 0; seat < 30; seat++) {... */\n      jump(tag_283)\n    tag_284:\n      pop\n        /* \"AirlineManagement.sol\":2915:3261  function create30Tickets(address owner, string memory destination, uint256 price) private restricted {... */\n      pop\n      pop\n      pop\n      jump\t// out\n    tag_223:\n      mload(0x40)\n      dup1\n      0x0100\n      add\n      0x40\n      mstore\n      dup1\n      and(0xffffffffffffffffffffffffffffffffffffffff, 0x00)\n      dup2\n      mstore\n      0x20\n      add\n      0x60\n      dup2\n      mstore\n      0x20\n      add\n      0x00\n      dup2\n      mstore\n      0x20\n      add\n      0x00\n      dup2\n      mstore\n      0x20\n      add\n      0x60\n      dup2\n      mstore\n      0x20\n      add\n      iszero(iszero(0x00))\n      dup2\n      mstore\n      0x20\n      add\n      iszero(iszero(0x00))\n      dup2\n      mstore\n      0x20\n      add\n      0x00\n      dup2\n      mstore\n      pop\n      swap1\n      jump\t// out\n        /* \"#utility.yul\":7:82   */\n    tag_290:\n        /* \"#utility.yul\":40:46   */\n      0x00\n        /* \"#utility.yul\":73:75   */\n      0x40\n        /* \"#utility.yul\":67:76   */\n      mload\n        /* \"#utility.yul\":57:76   */\n      swap1\n      pop\n        /* \"#utility.yul\":7:82   */\n      swap1\n      jump\t// out\n        /* \"#utility.yul\":88:205   */\n    tag_291:\n        /* \"#utility.yul\":197:198   */\n      0x00\n        /* \"#utility.yul\":194:195   */\n      dup1\n        /* \"#utility.yul\":187:199   */\n      revert\n        /* \"#utility.yul\":211:328   */\n    tag_292:\n        /* \"#utility.yul\":320:321   */\n      0x00\n        /* \"#utility.yul\":317:318   */\n      dup1\n        /* \"#utility.yul\":310:322   */\n      revert\n        /* \"#utility.yul\":334:411   */\n    tag_293:\n        /* \"#utility.yul\":371:378   */\n      0x00\n        /* \"#utility.yul\":400:405   */\n      dup2\n        /* \"#utility.yul\":389:405   */\n      swap1\n      pop\n        /* \"#utility.yul\":334:411   */\n      swap2\n      swap1\n      pop\n      jump\t// out\n        /* \"#utility.yul\":417:539   */\n    tag_294:\n        /* \"#utility.yul\":490:514   */\n      tag_368\n        /* \"#utility.yul\":508:513   */\n      dup2\n        /* \"#utility.yul\":490:514   */\n      tag_293\n      jump\t// in\n    tag_368:\n        /* \"#utility.yul\":483:488   */\n      dup2\n        /* \"#utility.yul\":480:515   */\n      eq\n        /* \"#utility.yul\":470:533   */\n      tag_369\n      jumpi\n        /* \"#utility.yul\":529:530   */\n      0x00\n        /* \"#utility.yul\":526:527   */\n      dup1\n        /* \"#utility.yul\":519:531   */\n      revert\n        /* \"#utility.yul\":470:533   */\n    tag_369:\n        /* \"#utility.yul\":417:539   */\n      pop\n      jump\t// out\n        /* \"#utility.yul\":545:684   */\n    tag_295:\n        /* \"#utility.yul\":591:596   */\n      0x00\n        /* \"#utility.yul\":629:635   */\n      dup2\n        /* \"#utility.yul\":616:636   */\n      calldataload\n        /* \"#utility.yul\":607:636   */\n      swap1\n      pop\n        /* \"#utility.yul\":645:678   */\n      tag_371\n        /* \"#utility.yul\":672:677   */\n      dup2\n        /* \"#utility.yul\":645:678   */\n      tag_294\n      jump\t// in\n    tag_371:\n        /* \"#utility.yul\":545:684   */\n      swap3\n      swap2\n      pop\n      pop\n      jump\t// out\n        /* \"#utility.yul\":690:1019   */\n    tag_26:\n        /* \"#utility.yul\":749:755   */\n      0x00\n        /* \"#utility.yul\":798:800   */\n      0x20\n        /* \"#utility.yul\":786:795   */\n      dup3\n        /* \"#utility.yul\":777:784   */\n      dup5\n        /* \"#utility.yul\":773:796   */\n      sub\n        /* \"#utility.yul\":769:801   */\n      slt\n        /* \"#utility.yul\":766:885   */\n      iszero\n      tag_373\n      jumpi\n        /* \"#utility.yul\":804:883   */\n      tag_374\n      tag_291\n      jump\t// in\n    tag_374:\n        /* \"#utility.yul\":766:885   */\n    tag_373:\n        /* \"#utility.yul\":924:925   */\n      0x00\n        /* \"#utility.yul\":949:1002   */\n      tag_375\n        /* \"#utility.yul\":994:1001   */\n      dup5\n        /* \"#utility.yul\":985:991   */\n      dup3\n        /* \"#utility.yul\":974:983   */\n      dup6\n        /* \"#utility.yul\":970:992   */\n      add\n        /* \"#utility.yul\":949:1002   */\n      tag_295\n      jump\t// in\n    tag_375:\n        /* \"#utility.yul\":939:1002   */\n      swap2\n      pop\n        /* \"#utility.yul\":895:1012   */\n      pop\n        /* \"#utility.yul\":690:1019   */\n      swap3\n      swap2\n      pop\n      pop\n      jump\t// out\n        /* \"#utility.yul\":1025:1151   */\n    tag_296:\n        /* \"#utility.yul\":1062:1069   */\n      0x00\n        /* \"#utility.yul\":1102:1144   */\n      0xffffffffffffffffffffffffffffffffffffffff\n        /* \"#utility.yul\":1095:1100   */\n      dup3\n        /* \"#utility.yul\":1091:1145   */\n      and\n        /* \"#utility.yul\":1080:1145   */\n      swap1\n      pop\n        /* \"#utility.yul\":1025:1151   */\n      swap2\n      swap1\n      pop\n      jump\t// out\n        /* \"#utility.yul\":1157:1253   */\n    tag_297:\n        /* \"#utility.yul\":1194:1201   */\n      0x00\n        /* \"#utility.yul\":1223:1247   */\n      tag_378\n        /* \"#utility.yul\":1241:1246   */\n      dup3\n        /* \"#utility.yul\":1223:1247   */\n      tag_296\n      jump\t// in\n    tag_378:\n        /* \"#utility.yul\":1212:1247   */\n      swap1\n      pop\n        /* \"#utility.yul\":1157:1253   */\n      swap2\n      swap1\n      pop\n      jump\t// out\n        /* \"#utility.yul\":1259:1377   */\n    tag_298:\n        /* \"#utility.yul\":1346:1370   */\n      tag_380\n        /* \"#utility.yul\":1364:1369   */\n      dup2\n        /* \"#utility.yul\":1346:1370   */\n      tag_297\n      jump\t// in\n    tag_380:\n        /* \"#utility.yul\":1341:1344   */\n      dup3\n        /* \"#utility.yul\":1334:1371   */\n      mstore\n        /* \"#utility.yul\":1259:1377   */\n      pop\n      pop\n      jump\t// out\n        /* \"#utility.yul\":1383:1482   */\n    tag_299:\n        /* \"#utility.yul\":1435:1441   */\n      0x00\n        /* \"#utility.yul\":1469:1474   */\n      dup2\n        /* \"#utility.yul\":1463:1475   */\n      mload\n        /* \"#utility.yul\":1453:1475   */\n      swap1\n      pop\n        /* \"#utility.yul\":1383:1482   */\n      swap2\n      swap1\n      pop\n      jump\t// out\n        /* \"#utility.yul\":1488:1657   */\n    tag_300:\n        /* \"#utility.yul\":1572:1583   */\n      0x00\n        /* \"#utility.yul\":1606:1612   */\n      dup3\n        /* \"#utility.yul\":1601:1604   */\n      dup3\n        /* \"#utility.yul\":1594:1613   */\n      mstore\n        /* \"#utility.yul\":1646:1650   */\n      0x20\n        /* \"#utility.yul\":1641:1644   */\n      dup3\n        /* \"#utility.yul\":1637:1651   */\n      add\n        /* \"#utility.yul\":1622:1651   */\n      swap1\n      pop\n        /* \"#utility.yul\":1488:1657   */\n      swap3\n      swap2\n      pop\n      pop\n      jump\t// out\n        /* \"#utility.yul\":1663:1909   */\n    tag_301:\n        /* \"#utility.yul\":1744:1745   */\n      0x00\n        /* \"#utility.yul\":1754:1867   */\n    tag_384:\n        /* \"#utility.yul\":1768:1774   */\n      dup4\n        /* \"#utility.yul\":1765:1766   */\n      dup2\n        /* \"#utility.yul\":1762:1775   */\n      lt\n        /* \"#utility.yul\":1754:1867   */\n      iszero\n      tag_386\n      jumpi\n        /* \"#utility.yul\":1853:1854   */\n      dup1\n        /* \"#utility.yul\":1848:1851   */\n      dup3\n        /* \"#utility.yul\":1844:1855   */\n      add\n        /* \"#utility.yul\":1838:1856   */\n      mload\n        /* \"#utility.yul\":1834:1835   */\n      dup2\n        /* \"#utility.yul\":1829:1832   */\n      dup5\n        /* \"#utility.yul\":1825:1836   */\n      add\n        /* \"#utility.yul\":1818:1857   */\n      mstore\n        /* \"#utility.yul\":1790:1792   */\n      0x20\n        /* \"#utility.yul\":1787:1788   */\n      dup2\n        /* \"#utility.yul\":1783:1793   */\n      add\n        /* \"#utility.yul\":1778:1793   */\n      swap1\n      pop\n        /* \"#utility.yul\":1754:1867   */\n      jump(tag_384)\n    tag_386:\n        /* \"#utility.yul\":1901:1902   */\n      0x00\n        /* \"#utility.yul\":1892:1898   */\n      dup5\n        /* \"#utility.yul\":1887:1890   */\n      dup5\n        /* \"#utility.yul\":1883:1899   */\n      add\n        /* \"#utility.yul\":1876:1903   */\n      mstore\n        /* \"#utility.yul\":1725:1909   */\n      pop\n        /* \"#utility.yul\":1663:1909   */\n      pop\n      pop\n      pop\n      jump\t// out\n        /* \"#utility.yul\":1915:2017   */\n    tag_302:\n        /* \"#utility.yul\":1956:1962   */\n      0x00\n        /* \"#utility.yul\":2007:2009   */\n      0x1f\n        /* \"#utility.yul\":2003:2010   */\n      not\n        /* \"#utility.yul\":1998:2000   */\n      0x1f\n        /* \"#utility.yul\":1991:1996   */\n      dup4\n        /* \"#utility.yul\":1987:2001   */\n      add\n        /* \"#utility.yul\":1983:2011   */\n      and\n        /* \"#utility.yul\":1973:2011   */\n      swap1\n      pop\n        /* \"#utility.yul\":1915:2017   */\n      swap2\n      swap1\n      pop\n      jump\t// out\n        /* \"#utility.yul\":2023:2400   */\n    tag_303:\n        /* \"#utility.yul\":2111:2114   */\n      0x00\n        /* \"#utility.yul\":2139:2178   */\n      tag_389\n        /* \"#utility.yul\":2172:2177   */\n      dup3\n        /* \"#utility.yul\":2139:2178   */\n      tag_299\n      jump\t// in\n    tag_389:\n        /* \"#utility.yul\":2194:2265   */\n      tag_390\n        /* \"#utility.yul\":2258:2264   */\n      dup2\n        /* \"#utility.yul\":2253:2256   */\n      dup6\n        /* \"#utility.yul\":2194:2265   */\n      tag_300\n      jump\t// in\n    tag_390:\n        /* \"#utility.yul\":2187:2265   */\n      swap4\n      pop\n        /* \"#utility.yul\":2274:2339   */\n      tag_391\n        /* \"#utility.yul\":2332:2338   */\n      dup2\n        /* \"#utility.yul\":2327:2330   */\n      dup6\n        /* \"#utility.yul\":2320:2324   */\n      0x20\n        /* \"#utility.yul\":2313:2318   */\n      dup7\n        /* \"#utility.yul\":2309:2325   */\n      add\n        /* \"#utility.yul\":2274:2339   */\n      tag_301\n      jump\t// in\n    tag_391:\n        /* \"#utility.yul\":2364:2393   */\n      tag_392\n        /* \"#utility.yul\":2386:2392   */\n      dup2\n        /* \"#utility.yul\":2364:2393   */\n      tag_302\n      jump\t// in\n    tag_392:\n        /* \"#utility.yul\":2359:2362   */\n      dup5\n        /* \"#utility.yul\":2355:2394   */\n      add\n        /* \"#utility.yul\":2348:2394   */\n      swap2\n      pop\n        /* \"#utility.yul\":2115:2400   */\n      pop\n        /* \"#utility.yul\":2023:2400   */\n      swap3\n      swap2\n      pop\n      pop\n      jump\t// out\n        /* \"#utility.yul\":2406:2524   */\n    tag_304:\n        /* \"#utility.yul\":2493:2517   */\n      tag_394\n        /* \"#utility.yul\":2511:2516   */\n      dup2\n        /* \"#utility.yul\":2493:2517   */\n      tag_293\n      jump\t// in\n    tag_394:\n        /* \"#utility.yul\":2488:2491   */\n      dup3\n        /* \"#utility.yul\":2481:2518   */\n      mstore\n        /* \"#utility.yul\":2406:2524   */\n      pop\n      pop\n      jump\t// out\n        /* \"#utility.yul\":2530:2620   */\n    tag_305:\n        /* \"#utility.yul\":2564:2571   */\n      0x00\n        /* \"#utility.yul\":2607:2612   */\n      dup2\n        /* \"#utility.yul\":2600:2613   */\n      iszero\n        /* \"#utility.yul\":2593:2614   */\n      iszero\n        /* \"#utility.yul\":2582:2614   */\n      swap1\n      pop\n        /* \"#utility.yul\":2530:2620   */\n      swap2\n      swap1\n      pop\n      jump\t// out\n        /* \"#utility.yul\":2626:2735   */\n    tag_306:\n        /* \"#utility.yul\":2707:2728   */\n      tag_397\n        /* \"#utility.yul\":2722:2727   */\n      dup2\n        /* \"#utility.yul\":2707:2728   */\n      tag_305\n      jump\t// in\n    tag_397:\n        /* \"#utility.yul\":2702:2705   */\n      dup3\n        /* \"#utility.yul\":2695:2729   */\n      mstore\n        /* \"#utility.yul\":2626:2735   */\n      pop\n      pop\n      jump\t// out\n        /* \"#utility.yul\":2741:3896   */\n    tag_29:\n        /* \"#utility.yul\":3058:3062   */\n      0x00\n        /* \"#utility.yul\":3096:3099   */\n      0x0100\n        /* \"#utility.yul\":3085:3094   */\n      dup3\n        /* \"#utility.yul\":3081:3100   */\n      add\n        /* \"#utility.yul\":3073:3100   */\n      swap1\n      pop\n        /* \"#utility.yul\":3110:3181   */\n      tag_399\n        /* \"#utility.yul\":3178:3179   */\n      0x00\n        /* \"#utility.yul\":3167:3176   */\n      dup4\n        /* \"#utility.yul\":3163:3180   */\n      add\n        /* \"#utility.yul\":3154:3160   */\n      dup12\n        /* \"#utility.yul\":3110:3181   */\n      tag_298\n      jump\t// in\n    tag_399:\n        /* \"#utility.yul\":3228:3237   */\n      dup2\n        /* \"#utility.yul\":3222:3226   */\n      dup2\n        /* \"#utility.yul\":3218:3238   */\n      sub\n        /* \"#utility.yul\":3213:3215   */\n      0x20\n        /* \"#utility.yul\":3202:3211   */\n      dup4\n        /* \"#utility.yul\":3198:3216   */\n      add\n        /* \"#utility.yul\":3191:3239   */\n      mstore\n        /* \"#utility.yul\":3256:3334   */\n      tag_400\n        /* \"#utility.yul\":3329:3333   */\n      dup2\n        /* \"#utility.yul\":3320:3326   */\n      dup11\n        /* \"#utility.yul\":3256:3334   */\n      tag_303\n      jump\t// in\n    tag_400:\n        /* \"#utility.yul\":3248:3334   */\n      swap1\n      pop\n        /* \"#utility.yul\":3344:3416   */\n      tag_401\n        /* \"#utility.yul\":3412:3414   */\n      0x40\n        /* \"#utility.yul\":3401:3410   */\n      dup4\n        /* \"#utility.yul\":3397:3415   */\n      add\n        /* \"#utility.yul\":3388:3394   */\n      dup10\n        /* \"#utility.yul\":3344:3416   */\n      tag_304\n      jump\t// in\n    tag_401:\n        /* \"#utility.yul\":3426:3498   */\n      tag_402\n        /* \"#utility.yul\":3494:3496   */\n      0x60\n        /* \"#utility.yul\":3483:3492   */\n      dup4\n        /* \"#utility.yul\":3479:3497   */\n      add\n        /* \"#utility.yul\":3470:3476   */\n      dup9\n        /* \"#utility.yul\":3426:3498   */\n      tag_304\n      jump\t// in\n    tag_402:\n        /* \"#utility.yul\":3546:3555   */\n      dup2\n        /* \"#utility.yul\":3540:3544   */\n      dup2\n        /* \"#utility.yul\":3536:3556   */\n      sub\n        /* \"#utility.yul\":3530:3533   */\n      0x80\n        /* \"#utility.yul\":3519:3528   */\n      dup4\n        /* \"#utility.yul\":3515:3534   */\n      add\n        /* \"#utility.yul\":3508:3557   */\n      mstore\n        /* \"#utility.yul\":3574:3652   */\n      tag_403\n        /* \"#utility.yul\":3647:3651   */\n      dup2\n        /* \"#utility.yul\":3638:3644   */\n      dup8\n        /* \"#utility.yul\":3574:3652   */\n      tag_303\n      jump\t// in\n    tag_403:\n        /* \"#utility.yul\":3566:3652   */\n      swap1\n      pop\n        /* \"#utility.yul\":3662:3729   */\n      tag_404\n        /* \"#utility.yul\":3724:3727   */\n      0xa0\n        /* \"#utility.yul\":3713:3722   */\n      dup4\n        /* \"#utility.yul\":3709:3728   */\n      add\n        /* \"#utility.yul\":3700:3706   */\n      dup7\n        /* \"#utility.yul\":3662:3729   */\n      tag_306\n      jump\t// in\n    tag_404:\n        /* \"#utility.yul\":3739:3806   */\n      tag_405\n        /* \"#utility.yul\":3801:3804   */\n      0xc0\n        /* \"#utility.yul\":3790:3799   */\n      dup4\n        /* \"#utility.yul\":3786:3805   */\n      add\n        /* \"#utility.yul\":3777:3783   */\n      dup6\n        /* \"#utility.yul\":3739:3806   */\n      tag_306\n      jump\t// in\n    tag_405:\n        /* \"#utility.yul\":3816:3889   */\n      tag_406\n        /* \"#utility.yul\":3884:3887   */\n      0xe0\n        /* \"#utility.yul\":3873:3882   */\n      dup4\n        /* \"#utility.yul\":3869:3888   */\n      add\n        /* \"#utility.yul\":3860:3866   */\n      dup5\n        /* \"#utility.yul\":3816:3889   */\n      tag_304\n      jump\t// in\n    tag_406:\n        /* \"#utility.yul\":2741:3896   */\n      swap10\n      swap9\n      pop\n      pop\n      pop\n      pop\n      pop\n      pop\n      pop\n      pop\n      pop\n      jump\t// out\n        /* \"#utility.yul\":3902:4124   */\n    tag_34:\n        /* \"#utility.yul\":3995:3999   */\n      0x00\n        /* \"#utility.yul\":4033:4035   */\n      0x20\n        /* \"#utility.yul\":4022:4031   */\n      dup3\n        /* \"#utility.yul\":4018:4036   */\n      add\n        /* \"#utility.yul\":4010:4036   */\n      swap1\n      pop\n        /* \"#utility.yul\":4046:4117   */\n      tag_408\n        /* \"#utility.yul\":4114:4115   */\n      0x00\n        /* \"#utility.yul\":4103:4112   */\n      dup4\n        /* \"#utility.yul\":4099:4116   */\n      add\n        /* \"#utility.yul\":4090:4096   */\n      dup5\n        /* \"#utility.yul\":4046:4117   */\n      tag_304\n      jump\t// in\n    tag_408:\n        /* \"#utility.yul\":3902:4124   */\n      swap3\n      swap2\n      pop\n      pop\n      jump\t// out\n        /* \"#utility.yul\":4130:4247   */\n    tag_307:\n        /* \"#utility.yul\":4239:4240   */\n      0x00\n        /* \"#utility.yul\":4236:4237   */\n      dup1\n        /* \"#utility.yul\":4229:4241   */\n      revert\n        /* \"#utility.yul\":4253:4370   */\n    tag_308:\n        /* \"#utility.yul\":4362:4363   */\n      0x00\n        /* \"#utility.yul\":4359:4360   */\n      dup1\n        /* \"#utility.yul\":4352:4364   */\n      revert\n        /* \"#utility.yul\":4376:4556   */\n    tag_219:\n        /* \"#utility.yul\":4424:4501   */\n      0x4e487b7100000000000000000000000000000000000000000000000000000000\n        /* \"#utility.yul\":4421:4422   */\n      0x00\n        /* \"#utility.yul\":4414:4502   */\n      mstore\n        /* \"#utility.yul\":4521:4525   */\n      0x41\n        /* \"#utility.yul\":4518:4519   */\n      0x04\n        /* \"#utility.yul\":4511:4526   */\n      mstore\n        /* \"#utility.yul\":4545:4549   */\n      0x24\n        /* \"#utility.yul\":4542:4543   */\n      0x00\n        /* \"#utility.yul\":4535:4550   */\n      revert\n        /* \"#utility.yul\":4562:4843   */\n    tag_309:\n        /* \"#utility.yul\":4645:4672   */\n      tag_413\n        /* \"#utility.yul\":4667:4671   */\n      dup3\n        /* \"#utility.yul\":4645:4672   */\n      tag_302\n      jump\t// in\n    tag_413:\n        /* \"#utility.yul\":4637:4643   */\n      dup2\n        /* \"#utility.yul\":4633:4673   */\n      add\n        /* \"#utility.yul\":4775:4781   */\n      dup2\n        /* \"#utility.yul\":4763:4773   */\n      dup2\n        /* \"#utility.yul\":4760:4782   */\n      lt\n        /* \"#utility.yul\":4739:4757   */\n      0xffffffffffffffff\n        /* \"#utility.yul\":4727:4737   */\n      dup3\n        /* \"#utility.yul\":4724:4758   */\n      gt\n        /* \"#utility.yul\":4721:4783   */\n      or\n        /* \"#utility.yul\":4718:4806   */\n      iszero\n      tag_414\n      jumpi\n        /* \"#utility.yul\":4786:4804   */\n      tag_415\n      tag_219\n      jump\t// in\n    tag_415:\n        /* \"#utility.yul\":4718:4806   */\n    tag_414:\n        /* \"#utility.yul\":4826:4836   */\n      dup1\n        /* \"#utility.yul\":4822:4824   */\n      0x40\n        /* \"#utility.yul\":4815:4837   */\n      mstore\n        /* \"#utility.yul\":4605:4843   */\n      pop\n        /* \"#utility.yul\":4562:4843   */\n      pop\n      pop\n      jump\t// out\n        /* \"#utility.yul\":4849:4978   */\n    tag_310:\n        /* \"#utility.yul\":4883:4889   */\n      0x00\n        /* \"#utility.yul\":4910:4930   */\n      tag_417\n      tag_290\n      jump\t// in\n    tag_417:\n        /* \"#utility.yul\":4900:4930   */\n      swap1\n      pop\n        /* \"#utility.yul\":4939:4972   */\n      tag_418\n        /* \"#utility.yul\":4967:4971   */\n      dup3\n        /* \"#utility.yul\":4959:4965   */\n      dup3\n        /* \"#utility.yul\":4939:4972   */\n      tag_309\n      jump\t// in\n    tag_418:\n        /* \"#utility.yul\":4849:4978   */\n      swap2\n      swap1\n      pop\n      jump\t// out\n        /* \"#utility.yul\":4984:5292   */\n    tag_311:\n        /* \"#utility.yul\":5046:5050   */\n      0x00\n        /* \"#utility.yul\":5136:5154   */\n      0xffffffffffffffff\n        /* \"#utility.yul\":5128:5134   */\n      dup3\n        /* \"#utility.yul\":5125:5155   */\n      gt\n        /* \"#utility.yul\":5122:5178   */\n      iszero\n      tag_420\n      jumpi\n        /* \"#utility.yul\":5158:5176   */\n      tag_421\n      tag_219\n      jump\t// in\n    tag_421:\n        /* \"#utility.yul\":5122:5178   */\n    tag_420:\n        /* \"#utility.yul\":5196:5225   */\n      tag_422\n        /* \"#utility.yul\":5218:5224   */\n      dup3\n        /* \"#utility.yul\":5196:5225   */\n      tag_302\n      jump\t// in\n    tag_422:\n        /* \"#utility.yul\":5188:5225   */\n      swap1\n      pop\n        /* \"#utility.yul\":5280:5284   */\n      0x20\n        /* \"#utility.yul\":5274:5278   */\n      dup2\n        /* \"#utility.yul\":5270:5285   */\n      add\n        /* \"#utility.yul\":5262:5285   */\n      swap1\n      pop\n        /* \"#utility.yul\":4984:5292   */\n      swap2\n      swap1\n      pop\n      jump\t// out\n        /* \"#utility.yul\":5298:5444   */\n    tag_312:\n        /* \"#utility.yul\":5395:5401   */\n      dup3\n        /* \"#utility.yul\":5390:5393   */\n      dup2\n        /* \"#utility.yul\":5385:5388   */\n      dup4\n        /* \"#utility.yul\":5372:5402   */\n      calldatacopy\n        /* \"#utility.yul\":5436:5437   */\n      0x00\n        /* \"#utility.yul\":5427:5433   */\n      dup4\n        /* \"#utility.yul\":5422:5425   */\n      dup4\n        /* \"#utility.yul\":5418:5434   */\n      add\n        /* \"#utility.yul\":5411:5438   */\n      mstore\n        /* \"#utility.yul\":5298:5444   */\n      pop\n      pop\n      pop\n      jump\t// out\n        /* \"#utility.yul\":5450:5875   */\n    tag_313:\n        /* \"#utility.yul\":5528:5533   */\n      0x00\n        /* \"#utility.yul\":5553:5619   */\n      tag_425\n        /* \"#utility.yul\":5569:5618   */\n      tag_426\n        /* \"#utility.yul\":5611:5617   */\n      dup5\n        /* \"#utility.yul\":5569:5618   */\n      tag_311\n      jump\t// in\n    tag_426:\n        /* \"#utility.yul\":5553:5619   */\n      tag_310\n      jump\t// in\n    tag_425:\n        /* \"#utility.yul\":5544:5619   */\n      swap1\n      pop\n        /* \"#utility.yul\":5642:5648   */\n      dup3\n        /* \"#utility.yul\":5635:5640   */\n      dup2\n        /* \"#utility.yul\":5628:5649   */\n      mstore\n        /* \"#utility.yul\":5680:5684   */\n      0x20\n        /* \"#utility.yul\":5673:5678   */\n      dup2\n        /* \"#utility.yul\":5669:5685   */\n      add\n        /* \"#utility.yul\":5718:5721   */\n      dup5\n        /* \"#utility.yul\":5709:5715   */\n      dup5\n        /* \"#utility.yul\":5704:5707   */\n      dup5\n        /* \"#utility.yul\":5700:5716   */\n      add\n        /* \"#utility.yul\":5697:5722   */\n      gt\n        /* \"#utility.yul\":5694:5806   */\n      iszero\n      tag_427\n      jumpi\n        /* \"#utility.yul\":5725:5804   */\n      tag_428\n      tag_308\n      jump\t// in\n    tag_428:\n        /* \"#utility.yul\":5694:5806   */\n    tag_427:\n        /* \"#utility.yul\":5815:5869   */\n      tag_429\n        /* \"#utility.yul\":5862:5868   */\n      dup5\n        /* \"#utility.yul\":5857:5860   */\n      dup3\n        /* \"#utility.yul\":5852:5855   */\n      dup6\n        /* \"#utility.yul\":5815:5869   */\n      tag_312\n      jump\t// in\n    tag_429:\n        /* \"#utility.yul\":5534:5875   */\n      pop\n        /* \"#utility.yul\":5450:5875   */\n      swap4\n      swap3\n      pop\n      pop\n      pop\n      jump\t// out\n        /* \"#utility.yul\":5895:6235   */\n    tag_314:\n        /* \"#utility.yul\":5951:5956   */\n      0x00\n        /* \"#utility.yul\":6000:6003   */\n      dup3\n        /* \"#utility.yul\":5993:5997   */\n      0x1f\n        /* \"#utility.yul\":5985:5991   */\n      dup4\n        /* \"#utility.yul\":5981:5998   */\n      add\n        /* \"#utility.yul\":5977:6004   */\n      slt\n        /* \"#utility.yul\":5967:6089   */\n      tag_431\n      jumpi\n        /* \"#utility.yul\":6008:6087   */\n      tag_432\n      tag_307\n      jump\t// in\n    tag_432:\n        /* \"#utility.yul\":5967:6089   */\n    tag_431:\n        /* \"#utility.yul\":6125:6131   */\n      dup2\n        /* \"#utility.yul\":6112:6132   */\n      calldataload\n        /* \"#utility.yul\":6150:6229   */\n      tag_433\n        /* \"#utility.yul\":6225:6228   */\n      dup5\n        /* \"#utility.yul\":6217:6223   */\n      dup3\n        /* \"#utility.yul\":6210:6214   */\n      0x20\n        /* \"#utility.yul\":6202:6208   */\n      dup7\n        /* \"#utility.yul\":6198:6215   */\n      add\n        /* \"#utility.yul\":6150:6229   */\n      tag_313\n      jump\t// in\n    tag_433:\n        /* \"#utility.yul\":6141:6229   */\n      swap2\n      pop\n        /* \"#utility.yul\":5957:6235   */\n      pop\n        /* \"#utility.yul\":5895:6235   */\n      swap3\n      swap2\n      pop\n      pop\n      jump\t// out\n        /* \"#utility.yul\":6241:6357   */\n    tag_315:\n        /* \"#utility.yul\":6311:6332   */\n      tag_435\n        /* \"#utility.yul\":6326:6331   */\n      dup2\n        /* \"#utility.yul\":6311:6332   */\n      tag_305\n      jump\t// in\n    tag_435:\n        /* \"#utility.yul\":6304:6309   */\n      dup2\n        /* \"#utility.yul\":6301:6333   */\n      eq\n        /* \"#utility.yul\":6291:6351   */\n      tag_436\n      jumpi\n        /* \"#utility.yul\":6347:6348   */\n      0x00\n        /* \"#utility.yul\":6344:6345   */\n      dup1\n        /* \"#utility.yul\":6337:6349   */\n      revert\n        /* \"#utility.yul\":6291:6351   */\n    tag_436:\n        /* \"#utility.yul\":6241:6357   */\n      pop\n      jump\t// out\n        /* \"#utility.yul\":6363:6496   */\n    tag_316:\n        /* \"#utility.yul\":6406:6411   */\n      0x00\n        /* \"#utility.yul\":6444:6450   */\n      dup2\n        /* \"#utility.yul\":6431:6451   */\n      calldataload\n        /* \"#utility.yul\":6422:6451   */\n      swap1\n      pop\n        /* \"#utility.yul\":6460:6490   */\n      tag_438\n        /* \"#utility.yul\":6484:6489   */\n      dup2\n        /* \"#utility.yul\":6460:6490   */\n      tag_315\n      jump\t// in\n    tag_438:\n        /* \"#utility.yul\":6363:6496   */\n      swap3\n      swap2\n      pop\n      pop\n      jump\t// out\n        /* \"#utility.yul\":6502:7441   */\n    tag_38:\n        /* \"#utility.yul\":6595:6601   */\n      0x00\n        /* \"#utility.yul\":6603:6609   */\n      dup1\n        /* \"#utility.yul\":6611:6617   */\n      0x00\n        /* \"#utility.yul\":6619:6625   */\n      dup1\n        /* \"#utility.yul\":6668:6671   */\n      0x80\n        /* \"#utility.yul\":6656:6665   */\n      dup6\n        /* \"#utility.yul\":6647:6654   */\n      dup8\n        /* \"#utility.yul\":6643:6666   */\n      sub\n        /* \"#utility.yul\":6639:6672   */\n      slt\n        /* \"#utility.yul\":6636:6756   */\n      iszero\n      tag_440\n      jumpi\n        /* \"#utility.yul\":6675:6754   */\n      tag_441\n      tag_291\n      jump\t// in\n    tag_441:\n        /* \"#utility.yul\":6636:6756   */\n    tag_440:\n        /* \"#utility.yul\":6823:6824   */\n      0x00\n        /* \"#utility.yul\":6812:6821   */\n      dup6\n        /* \"#utility.yul\":6808:6825   */\n      add\n        /* \"#utility.yul\":6795:6826   */\n      calldataload\n        /* \"#utility.yul\":6853:6871   */\n      0xffffffffffffffff\n        /* \"#utility.yul\":6845:6851   */\n      dup2\n        /* \"#utility.yul\":6842:6872   */\n      gt\n        /* \"#utility.yul\":6839:6956   */\n      iszero\n      tag_442\n      jumpi\n        /* \"#utility.yul\":6875:6954   */\n      tag_443\n      tag_292\n      jump\t// in\n    tag_443:\n        /* \"#utility.yul\":6839:6956   */\n    tag_442:\n        /* \"#utility.yul\":6980:7043   */\n      tag_444\n        /* \"#utility.yul\":7035:7042   */\n      dup8\n        /* \"#utility.yul\":7026:7032   */\n      dup3\n        /* \"#utility.yul\":7015:7024   */\n      dup9\n        /* \"#utility.yul\":7011:7033   */\n      add\n        /* \"#utility.yul\":6980:7043   */\n      tag_314\n      jump\t// in\n    tag_444:\n        /* \"#utility.yul\":6970:7043   */\n      swap5\n      pop\n        /* \"#utility.yul\":6766:7053   */\n      pop\n        /* \"#utility.yul\":7092:7094   */\n      0x20\n        /* \"#utility.yul\":7118:7171   */\n      tag_445\n        /* \"#utility.yul\":7163:7170   */\n      dup8\n        /* \"#utility.yul\":7154:7160   */\n      dup3\n        /* \"#utility.yul\":7143:7152   */\n      dup9\n        /* \"#utility.yul\":7139:7161   */\n      add\n        /* \"#utility.yul\":7118:7171   */\n      tag_295\n      jump\t// in\n    tag_445:\n        /* \"#utility.yul\":7108:7171   */\n      swap4\n      pop\n        /* \"#utility.yul\":7063:7181   */\n      pop\n        /* \"#utility.yul\":7220:7222   */\n      0x40\n        /* \"#utility.yul\":7246:7299   */\n      tag_446\n        /* \"#utility.yul\":7291:7298   */\n      dup8\n        /* \"#utility.yul\":7282:7288   */\n      dup3\n        /* \"#utility.yul\":7271:7280   */\n      dup9\n        /* \"#utility.yul\":7267:7289   */\n      add\n        /* \"#utility.yul\":7246:7299   */\n      tag_295\n      jump\t// in\n    tag_446:\n        /* \"#utility.yul\":7236:7299   */\n      swap3\n      pop\n        /* \"#utility.yul\":7191:7309   */\n      pop\n        /* \"#utility.yul\":7348:7350   */\n      0x60\n        /* \"#utility.yul\":7374:7424   */\n      tag_447\n        /* \"#utility.yul\":7416:7423   */\n      dup8\n        /* \"#utility.yul\":7407:7413   */\n      dup3\n        /* \"#utility.yul\":7396:7405   */\n      dup9\n        /* \"#utility.yul\":7392:7414   */\n      add\n        /* \"#utility.yul\":7374:7424   */\n      tag_316\n      jump\t// in\n    tag_447:\n        /* \"#utility.yul\":7364:7424   */\n      swap2\n      pop\n        /* \"#utility.yul\":7319:7434   */\n      pop\n        /* \"#utility.yul\":6502:7441   */\n      swap3\n      swap6\n      swap2\n      swap5\n      pop\n      swap3\n      pop\n      jump\t// out\n        /* \"#utility.yul\":7447:7569   */\n    tag_317:\n        /* \"#utility.yul\":7520:7544   */\n      tag_449\n        /* \"#utility.yul\":7538:7543   */\n      dup2\n        /* \"#utility.yul\":7520:7544   */\n      tag_297\n      jump\t// in\n    tag_449:\n        /* \"#utility.yul\":7513:7518   */\n      dup2\n        /* \"#utility.yul\":7510:7545   */\n      eq\n        /* \"#utility.yul\":7500:7563   */\n      tag_450\n      jumpi\n        /* \"#utility.yul\":7559:7560   */\n      0x00\n        /* \"#utility.yul\":7556:7557   */\n      dup1\n        /* \"#utility.yul\":7549:7561   */\n      revert\n        /* \"#utility.yul\":7500:7563   */\n    tag_450:\n        /* \"#utility.yul\":7447:7569   */\n      pop\n      jump\t// out\n        /* \"#utility.yul\":7575:7714   */\n    tag_318:\n        /* \"#utility.yul\":7621:7626   */\n      0x00\n        /* \"#utility.yul\":7659:7665   */\n      dup2\n        /* \"#utility.yul\":7646:7666   */\n      calldataload\n        /* \"#utility.yul\":7637:7666   */\n      swap1\n      pop\n        /* \"#utility.yul\":7675:7708   */\n      tag_452\n        /* \"#utility.yul\":7702:7707   */\n      dup2\n        /* \"#utility.yul\":7675:7708   */\n      tag_317\n      jump\t// in\n    tag_452:\n        /* \"#utility.yul\":7575:7714   */\n      swap3\n      swap2\n      pop\n      pop\n      jump\t// out\n        /* \"#utility.yul\":7720:8049   */\n    tag_44:\n        /* \"#utility.yul\":7779:7785   */\n      0x00\n        /* \"#utility.yul\":7828:7830   */\n      0x20\n        /* \"#utility.yul\":7816:7825   */\n      dup3\n        /* \"#utility.yul\":7807:7814   */\n      dup5\n        /* \"#utility.yul\":7803:7826   */\n      sub\n        /* \"#utility.yul\":7799:7831   */\n      slt\n        /* \"#utility.yul\":7796:7915   */\n      iszero\n      tag_454\n      jumpi\n        /* \"#utility.yul\":7834:7913   */\n      tag_455\n      tag_291\n      jump\t// in\n    tag_455:\n        /* \"#utility.yul\":7796:7915   */\n    tag_454:\n        /* \"#utility.yul\":7954:7955   */\n      0x00\n        /* \"#utility.yul\":7979:8032   */\n      tag_456\n        /* \"#utility.yul\":8024:8031   */\n      dup5\n        /* \"#utility.yul\":8015:8021   */\n      dup3\n        /* \"#utility.yul\":8004:8013   */\n      dup6\n        /* \"#utility.yul\":8000:8022   */\n      add\n        /* \"#utility.yul\":7979:8032   */\n      tag_318\n      jump\t// in\n    tag_456:\n        /* \"#utility.yul\":7969:8032   */\n      swap2\n      pop\n        /* \"#utility.yul\":7925:8042   */\n      pop\n        /* \"#utility.yul\":7720:8049   */\n      swap3\n      swap2\n      pop\n      pop\n      jump\t// out\n        /* \"#utility.yul\":8055:8265   */\n    tag_47:\n        /* \"#utility.yul\":8142:8146   */\n      0x00\n        /* \"#utility.yul\":8180:8182   */\n      0x20\n        /* \"#utility.yul\":8169:8178   */\n      dup3\n        /* \"#utility.yul\":8165:8183   */\n      add\n        /* \"#utility.yul\":8157:8183   */\n      swap1\n      pop\n        /* \"#utility.yul\":8193:8258   */\n      tag_458\n        /* \"#utility.yul\":8255:8256   */\n      0x00\n        /* \"#utility.yul\":8244:8253   */\n      dup4\n        /* \"#utility.yul\":8240:8257   */\n      add\n        /* \"#utility.yul\":8231:8237   */\n      dup5\n        /* \"#utility.yul\":8193:8258   */\n      tag_306\n      jump\t// in\n    tag_458:\n        /* \"#utility.yul\":8055:8265   */\n      swap3\n      swap2\n      pop\n      pop\n      jump\t// out\n        /* \"#utility.yul\":8271:8780   */\n    tag_56:\n        /* \"#utility.yul\":8340:8346   */\n      0x00\n        /* \"#utility.yul\":8389:8391   */\n      0x20\n        /* \"#utility.yul\":8377:8386   */\n      dup3\n        /* \"#utility.yul\":8368:8375   */\n      dup5\n        /* \"#utility.yul\":8364:8387   */\n      sub\n        /* \"#utility.yul\":8360:8392   */\n      slt\n        /* \"#utility.yul\":8357:8476   */\n      iszero\n      tag_460\n      jumpi\n        /* \"#utility.yul\":8395:8474   */\n      tag_461\n      tag_291\n      jump\t// in\n    tag_461:\n        /* \"#utility.yul\":8357:8476   */\n    tag_460:\n        /* \"#utility.yul\":8543:8544   */\n      0x00\n        /* \"#utility.yul\":8532:8541   */\n      dup3\n        /* \"#utility.yul\":8528:8545   */\n      add\n        /* \"#utility.yul\":8515:8546   */\n      calldataload\n        /* \"#utility.yul\":8573:8591   */\n      0xffffffffffffffff\n        /* \"#utility.yul\":8565:8571   */\n      dup2\n        /* \"#utility.yul\":8562:8592   */\n      gt\n        /* \"#utility.yul\":8559:8676   */\n      iszero\n      tag_462\n      jumpi\n        /* \"#utility.yul\":8595:8674   */\n      tag_463\n      tag_292\n      jump\t// in\n    tag_463:\n        /* \"#utility.yul\":8559:8676   */\n    tag_462:\n        /* \"#utility.yul\":8700:8763   */\n      tag_464\n        /* \"#utility.yul\":8755:8762   */\n      dup5\n        /* \"#utility.yul\":8746:8752   */\n      dup3\n        /* \"#utility.yul\":8735:8744   */\n      dup6\n        /* \"#utility.yul\":8731:8753   */\n      add\n        /* \"#utility.yul\":8700:8763   */\n      tag_314\n      jump\t// in\n    tag_464:\n        /* \"#utility.yul\":8690:8763   */\n      swap2\n      pop\n        /* \"#utility.yul\":8486:8773   */\n      pop\n        /* \"#utility.yul\":8271:8780   */\n      swap3\n      swap2\n      pop\n      pop\n      jump\t// out\n        /* \"#utility.yul\":8786:9440   */\n    tag_67:\n        /* \"#utility.yul\":8864:8870   */\n      0x00\n        /* \"#utility.yul\":8872:8878   */\n      dup1\n        /* \"#utility.yul\":8921:8923   */\n      0x40\n        /* \"#utility.yul\":8909:8918   */\n      dup4\n        /* \"#utility.yul\":8900:8907   */\n      dup6\n        /* \"#utility.yul\":8896:8919   */\n      sub\n        /* \"#utility.yul\":8892:8924   */\n      slt\n        /* \"#utility.yul\":8889:9008   */\n      iszero\n      tag_466\n      jumpi\n        /* \"#utility.yul\":8927:9006   */\n      tag_467\n      tag_291\n      jump\t// in\n    tag_467:\n        /* \"#utility.yul\":8889:9008   */\n    tag_466:\n        /* \"#utility.yul\":9075:9076   */\n      0x00\n        /* \"#utility.yul\":9064:9073   */\n      dup4\n        /* \"#utility.yul\":9060:9077   */\n      add\n        /* \"#utility.yul\":9047:9078   */\n      calldataload\n        /* \"#utility.yul\":9105:9123   */\n      0xffffffffffffffff\n        /* \"#utility.yul\":9097:9103   */\n      dup2\n        /* \"#utility.yul\":9094:9124   */\n      gt\n        /* \"#utility.yul\":9091:9208   */\n      iszero\n      tag_468\n      jumpi\n        /* \"#utility.yul\":9127:9206   */\n      tag_469\n      tag_292\n      jump\t// in\n    tag_469:\n        /* \"#utility.yul\":9091:9208   */\n    tag_468:\n        /* \"#utility.yul\":9232:9295   */\n      tag_470\n        /* \"#utility.yul\":9287:9294   */\n      dup6\n        /* \"#utility.yul\":9278:9284   */\n      dup3\n        /* \"#utility.yul\":9267:9276   */\n      dup7\n        /* \"#utility.yul\":9263:9285   */\n      add\n        /* \"#utility.yul\":9232:9295   */\n      tag_314\n      jump\t// in\n    tag_470:\n        /* \"#utility.yul\":9222:9295   */\n      swap3\n      pop\n        /* \"#utility.yul\":9018:9305   */\n      pop\n        /* \"#utility.yul\":9344:9346   */\n      0x20\n        /* \"#utility.yul\":9370:9423   */\n      tag_471\n        /* \"#utility.yul\":9415:9422   */\n      dup6\n        /* \"#utility.yul\":9406:9412   */\n      dup3\n        /* \"#utility.yul\":9395:9404   */\n      dup7\n        /* \"#utility.yul\":9391:9413   */\n      add\n        /* \"#utility.yul\":9370:9423   */\n      tag_295\n      jump\t// in\n    tag_471:\n        /* \"#utility.yul\":9360:9423   */\n      swap2\n      pop\n        /* \"#utility.yul\":9315:9433   */\n      pop\n        /* \"#utility.yul\":8786:9440   */\n      swap3\n      pop\n      swap3\n      swap1\n      pop\n      jump\t// out\n        /* \"#utility.yul\":9446:9759   */\n    tag_83:\n        /* \"#utility.yul\":9559:9563   */\n      0x00\n        /* \"#utility.yul\":9597:9599   */\n      0x20\n        /* \"#utility.yul\":9586:9595   */\n      dup3\n        /* \"#utility.yul\":9582:9600   */\n      add\n        /* \"#utility.yul\":9574:9600   */\n      swap1\n      pop\n        /* \"#utility.yul\":9646:9655   */\n      dup2\n        /* \"#utility.yul\":9640:9644   */\n      dup2\n        /* \"#utility.yul\":9636:9656   */\n      sub\n        /* \"#utility.yul\":9632:9633   */\n      0x00\n        /* \"#utility.yul\":9621:9630   */\n      dup4\n        /* \"#utility.yul\":9617:9634   */\n      add\n        /* \"#utility.yul\":9610:9657   */\n      mstore\n        /* \"#utility.yul\":9674:9752   */\n      tag_473\n        /* \"#utility.yul\":9747:9751   */\n      dup2\n        /* \"#utility.yul\":9738:9744   */\n      dup5\n        /* \"#utility.yul\":9674:9752   */\n      tag_303\n      jump\t// in\n    tag_473:\n        /* \"#utility.yul\":9666:9752   */\n      swap1\n      pop\n        /* \"#utility.yul\":9446:9759   */\n      swap3\n      swap2\n      pop\n      pop\n      jump\t// out\n        /* \"#utility.yul\":9765:9987   */\n    tag_88:\n        /* \"#utility.yul\":9858:9862   */\n      0x00\n        /* \"#utility.yul\":9896:9898   */\n      0x20\n        /* \"#utility.yul\":9885:9894   */\n      dup3\n        /* \"#utility.yul\":9881:9899   */\n      add\n        /* \"#utility.yul\":9873:9899   */\n      swap1\n      pop\n        /* \"#utility.yul\":9909:9980   */\n      tag_475\n        /* \"#utility.yul\":9977:9978   */\n      0x00\n        /* \"#utility.yul\":9966:9975   */\n      dup4\n        /* \"#utility.yul\":9962:9979   */\n      add\n        /* \"#utility.yul\":9953:9959   */\n      dup5\n        /* \"#utility.yul\":9909:9980   */\n      tag_298\n      jump\t// in\n    tag_475:\n        /* \"#utility.yul\":9765:9987   */\n      swap3\n      swap2\n      pop\n      pop\n      jump\t// out\n        /* \"#utility.yul\":9993:10129   */\n    tag_319:\n        /* \"#utility.yul\":10082:10088   */\n      0x00\n        /* \"#utility.yul\":10116:10121   */\n      dup2\n        /* \"#utility.yul\":10110:10122   */\n      mload\n        /* \"#utility.yul\":10100:10122   */\n      swap1\n      pop\n        /* \"#utility.yul\":9993:10129   */\n      swap2\n      swap1\n      pop\n      jump\t// out\n        /* \"#utility.yul\":10135:10341   */\n    tag_320:\n        /* \"#utility.yul\":10256:10267   */\n      0x00\n        /* \"#utility.yul\":10290:10296   */\n      dup3\n        /* \"#utility.yul\":10285:10288   */\n      dup3\n        /* \"#utility.yul\":10278:10297   */\n      mstore\n        /* \"#utility.yul\":10330:10334   */\n      0x20\n        /* \"#utility.yul\":10325:10328   */\n      dup3\n        /* \"#utility.yul\":10321:10335   */\n      add\n        /* \"#utility.yul\":10306:10335   */\n      swap1\n      pop\n        /* \"#utility.yul\":10135:10341   */\n      swap3\n      swap2\n      pop\n      pop\n      jump\t// out\n        /* \"#utility.yul\":10347:10501   */\n    tag_321:\n        /* \"#utility.yul\":10436:10440   */\n      0x00\n        /* \"#utility.yul\":10459:10462   */\n      dup2\n        /* \"#utility.yul\":10451:10462   */\n      swap1\n      pop\n        /* \"#utility.yul\":10489:10493   */\n      0x20\n        /* \"#utility.yul\":10484:10487   */\n      dup3\n        /* \"#utility.yul\":10480:10494   */\n      add\n        /* \"#utility.yul\":10472:10494   */\n      swap1\n      pop\n        /* \"#utility.yul\":10347:10501   */\n      swap2\n      swap1\n      pop\n      jump\t// out\n        /* \"#utility.yul\":10507:10615   */\n    tag_322:\n        /* \"#utility.yul\":10584:10608   */\n      tag_480\n        /* \"#utility.yul\":10602:10607   */\n      dup2\n        /* \"#utility.yul\":10584:10608   */\n      tag_297\n      jump\t// in\n    tag_480:\n        /* \"#utility.yul\":10579:10582   */\n      dup3\n        /* \"#utility.yul\":10572:10609   */\n      mstore\n        /* \"#utility.yul\":10507:10615   */\n      pop\n      pop\n      jump\t// out\n        /* \"#utility.yul\":10621:10780   */\n    tag_323:\n        /* \"#utility.yul\":10695:10706   */\n      0x00\n        /* \"#utility.yul\":10729:10735   */\n      dup3\n        /* \"#utility.yul\":10724:10727   */\n      dup3\n        /* \"#utility.yul\":10717:10736   */\n      mstore\n        /* \"#utility.yul\":10769:10773   */\n      0x20\n        /* \"#utility.yul\":10764:10767   */\n      dup3\n        /* \"#utility.yul\":10760:10774   */\n      add\n        /* \"#utility.yul\":10745:10774   */\n      swap1\n      pop\n        /* \"#utility.yul\":10621:10780   */\n      swap3\n      swap2\n      pop\n      pop\n      jump\t// out\n        /* \"#utility.yul\":10786:11143   */\n    tag_324:\n        /* \"#utility.yul\":10864:10867   */\n      0x00\n        /* \"#utility.yul\":10892:10931   */\n      tag_483\n        /* \"#utility.yul\":10925:10930   */\n      dup3\n        /* \"#utility.yul\":10892:10931   */\n      tag_299\n      jump\t// in\n    tag_483:\n        /* \"#utility.yul\":10947:11008   */\n      tag_484\n        /* \"#utility.yul\":11001:11007   */\n      dup2\n        /* \"#utility.yul\":10996:10999   */\n      dup6\n        /* \"#utility.yul\":10947:11008   */\n      tag_323\n      jump\t// in\n    tag_484:\n        /* \"#utility.yul\":10940:11008   */\n      swap4\n      pop\n        /* \"#utility.yul\":11017:11082   */\n      tag_485\n        /* \"#utility.yul\":11075:11081   */\n      dup2\n        /* \"#utility.yul\":11070:11073   */\n      dup6\n        /* \"#utility.yul\":11063:11067   */\n      0x20\n        /* \"#utility.yul\":11056:11061   */\n      dup7\n        /* \"#utility.yul\":11052:11068   */\n      add\n        /* \"#utility.yul\":11017:11082   */\n      tag_301\n      jump\t// in\n    tag_485:\n        /* \"#utility.yul\":11107:11136   */\n      tag_486\n        /* \"#utility.yul\":11129:11135   */\n      dup2\n        /* \"#utility.yul\":11107:11136   */\n      tag_302\n      jump\t// in\n    tag_486:\n        /* \"#utility.yul\":11102:11105   */\n      dup5\n        /* \"#utility.yul\":11098:11137   */\n      add\n        /* \"#utility.yul\":11091:11137   */\n      swap2\n      pop\n        /* \"#utility.yul\":10868:11143   */\n      pop\n        /* \"#utility.yul\":10786:11143   */\n      swap3\n      swap2\n      pop\n      pop\n      jump\t// out\n        /* \"#utility.yul\":11149:11257   */\n    tag_325:\n        /* \"#utility.yul\":11226:11250   */\n      tag_488\n        /* \"#utility.yul\":11244:11249   */\n      dup2\n        /* \"#utility.yul\":11226:11250   */\n      tag_293\n      jump\t// in\n    tag_488:\n        /* \"#utility.yul\":11221:11224   */\n      dup3\n        /* \"#utility.yul\":11214:11251   */\n      mstore\n        /* \"#utility.yul\":11149:11257   */\n      pop\n      pop\n      jump\t// out\n        /* \"#utility.yul\":11263:11362   */\n    tag_326:\n        /* \"#utility.yul\":11334:11355   */\n      tag_490\n        /* \"#utility.yul\":11349:11354   */\n      dup2\n        /* \"#utility.yul\":11334:11355   */\n      tag_305\n      jump\t// in\n    tag_490:\n        /* \"#utility.yul\":11329:11332   */\n      dup3\n        /* \"#utility.yul\":11322:11356   */\n      mstore\n        /* \"#utility.yul\":11263:11362   */\n      pop\n      pop\n      jump\t// out\n        /* \"#utility.yul\":11442:13160   */\n    tag_327:\n        /* \"#utility.yul\":11545:11548   */\n      0x00\n        /* \"#utility.yul\":11581:11587   */\n      0x0100\n        /* \"#utility.yul\":11576:11579   */\n      dup4\n        /* \"#utility.yul\":11572:11588   */\n      add\n        /* \"#utility.yul\":11671:11675   */\n      0x00\n        /* \"#utility.yul\":11664:11669   */\n      dup4\n        /* \"#utility.yul\":11660:11676   */\n      add\n        /* \"#utility.yul\":11654:11677   */\n      mload\n        /* \"#utility.yul\":11690:11753   */\n      tag_492\n        /* \"#utility.yul\":11747:11751   */\n      0x00\n        /* \"#utility.yul\":11742:11745   */\n      dup7\n        /* \"#utility.yul\":11738:11752   */\n      add\n        /* \"#utility.yul\":11724:11736   */\n      dup3\n        /* \"#utility.yul\":11690:11753   */\n      tag_322\n      jump\t// in\n    tag_492:\n        /* \"#utility.yul\":11598:11763   */\n      pop\n        /* \"#utility.yul\":11852:11856   */\n      0x20\n        /* \"#utility.yul\":11845:11850   */\n      dup4\n        /* \"#utility.yul\":11841:11857   */\n      add\n        /* \"#utility.yul\":11835:11858   */\n      mload\n        /* \"#utility.yul\":11905:11908   */\n      dup5\n        /* \"#utility.yul\":11899:11903   */\n      dup3\n        /* \"#utility.yul\":11895:11909   */\n      sub\n        /* \"#utility.yul\":11888:11892   */\n      0x20\n        /* \"#utility.yul\":11883:11886   */\n      dup7\n        /* \"#utility.yul\":11879:11893   */\n      add\n        /* \"#utility.yul\":11872:11910   */\n      mstore\n        /* \"#utility.yul\":11931:12004   */\n      tag_493\n        /* \"#utility.yul\":11999:12003   */\n      dup3\n        /* \"#utility.yul\":11985:11997   */\n      dup3\n        /* \"#utility.yul\":11931:12004   */\n      tag_324\n      jump\t// in\n    tag_493:\n        /* \"#utility.yul\":11923:12004   */\n      swap2\n      pop\n        /* \"#utility.yul\":11773:12015   */\n      pop\n        /* \"#utility.yul\":12098:12102   */\n      0x40\n        /* \"#utility.yul\":12091:12096   */\n      dup4\n        /* \"#utility.yul\":12087:12103   */\n      add\n        /* \"#utility.yul\":12081:12104   */\n      mload\n        /* \"#utility.yul\":12117:12180   */\n      tag_494\n        /* \"#utility.yul\":12174:12178   */\n      0x40\n        /* \"#utility.yul\":12169:12172   */\n      dup7\n        /* \"#utility.yul\":12165:12179   */\n      add\n        /* \"#utility.yul\":12151:12163   */\n      dup3\n        /* \"#utility.yul\":12117:12180   */\n      tag_325\n      jump\t// in\n    tag_494:\n        /* \"#utility.yul\":12025:12190   */\n      pop\n        /* \"#utility.yul\":12272:12276   */\n      0x60\n        /* \"#utility.yul\":12265:12270   */\n      dup4\n        /* \"#utility.yul\":12261:12277   */\n      add\n        /* \"#utility.yul\":12255:12278   */\n      mload\n        /* \"#utility.yul\":12291:12354   */\n      tag_495\n        /* \"#utility.yul\":12348:12352   */\n      0x60\n        /* \"#utility.yul\":12343:12346   */\n      dup7\n        /* \"#utility.yul\":12339:12353   */\n      add\n        /* \"#utility.yul\":12325:12337   */\n      dup3\n        /* \"#utility.yul\":12291:12354   */\n      tag_325\n      jump\t// in\n    tag_495:\n        /* \"#utility.yul\":12200:12364   */\n      pop\n        /* \"#utility.yul\":12447:12451   */\n      0x80\n        /* \"#utility.yul\":12440:12445   */\n      dup4\n        /* \"#utility.yul\":12436:12452   */\n      add\n        /* \"#utility.yul\":12430:12453   */\n      mload\n        /* \"#utility.yul\":12500:12503   */\n      dup5\n        /* \"#utility.yul\":12494:12498   */\n      dup3\n        /* \"#utility.yul\":12490:12504   */\n      sub\n        /* \"#utility.yul\":12483:12487   */\n      0x80\n        /* \"#utility.yul\":12478:12481   */\n      dup7\n        /* \"#utility.yul\":12474:12488   */\n      add\n        /* \"#utility.yul\":12467:12505   */\n      mstore\n        /* \"#utility.yul\":12526:12599   */\n      tag_496\n        /* \"#utility.yul\":12594:12598   */\n      dup3\n        /* \"#utility.yul\":12580:12592   */\n      dup3\n        /* \"#utility.yul\":12526:12599   */\n      tag_324\n      jump\t// in\n    tag_496:\n        /* \"#utility.yul\":12518:12599   */\n      swap2\n      pop\n        /* \"#utility.yul\":12374:12610   */\n      pop\n        /* \"#utility.yul\":12697:12701   */\n      0xa0\n        /* \"#utility.yul\":12690:12695   */\n      dup4\n        /* \"#utility.yul\":12686:12702   */\n      add\n        /* \"#utility.yul\":12680:12703   */\n      mload\n        /* \"#utility.yul\":12716:12773   */\n      tag_497\n        /* \"#utility.yul\":12767:12771   */\n      0xa0\n        /* \"#utility.yul\":12762:12765   */\n      dup7\n        /* \"#utility.yul\":12758:12772   */\n      add\n        /* \"#utility.yul\":12744:12756   */\n      dup3\n        /* \"#utility.yul\":12716:12773   */\n      tag_326\n      jump\t// in\n    tag_497:\n        /* \"#utility.yul\":12620:12783   */\n      pop\n        /* \"#utility.yul\":12872:12876   */\n      0xc0\n        /* \"#utility.yul\":12865:12870   */\n      dup4\n        /* \"#utility.yul\":12861:12877   */\n      add\n        /* \"#utility.yul\":12855:12878   */\n      mload\n        /* \"#utility.yul\":12891:12948   */\n      tag_498\n        /* \"#utility.yul\":12942:12946   */\n      0xc0\n        /* \"#utility.yul\":12937:12940   */\n      dup7\n        /* \"#utility.yul\":12933:12947   */\n      add\n        /* \"#utility.yul\":12919:12931   */\n      dup3\n        /* \"#utility.yul\":12891:12948   */\n      tag_326\n      jump\t// in\n    tag_498:\n        /* \"#utility.yul\":12793:12958   */\n      pop\n        /* \"#utility.yul\":13041:13045   */\n      0xe0\n        /* \"#utility.yul\":13034:13039   */\n      dup4\n        /* \"#utility.yul\":13030:13046   */\n      add\n        /* \"#utility.yul\":13024:13047   */\n      mload\n        /* \"#utility.yul\":13060:13123   */\n      tag_499\n        /* \"#utility.yul\":13117:13121   */\n      0xe0\n        /* \"#utility.yul\":13112:13115   */\n      dup7\n        /* \"#utility.yul\":13108:13122   */\n      add\n        /* \"#utility.yul\":13094:13106   */\n      dup3\n        /* \"#utility.yul\":13060:13123   */\n      tag_325\n      jump\t// in\n    tag_499:\n        /* \"#utility.yul\":12968:13133   */\n      pop\n        /* \"#utility.yul\":13150:13154   */\n      dup1\n        /* \"#utility.yul\":13143:13154   */\n      swap2\n      pop\n        /* \"#utility.yul\":11550:13160   */\n      pop\n        /* \"#utility.yul\":11442:13160   */\n      swap3\n      swap2\n      pop\n      pop\n      jump\t// out\n        /* \"#utility.yul\":13166:13410   */\n    tag_328:\n        /* \"#utility.yul\":13279:13289   */\n      0x00\n        /* \"#utility.yul\":13314:13404   */\n      tag_501\n        /* \"#utility.yul\":13400:13403   */\n      dup4\n        /* \"#utility.yul\":13392:13398   */\n      dup4\n        /* \"#utility.yul\":13314:13404   */\n      tag_327\n      jump\t// in\n    tag_501:\n        /* \"#utility.yul\":13300:13404   */\n      swap1\n      pop\n        /* \"#utility.yul\":13166:13410   */\n      swap3\n      swap2\n      pop\n      pop\n      jump\t// out\n        /* \"#utility.yul\":13416:13551   */\n    tag_329:\n        /* \"#utility.yul\":13508:13512   */\n      0x00\n        /* \"#utility.yul\":13540:13544   */\n      0x20\n        /* \"#utility.yul\":13535:13538   */\n      dup3\n        /* \"#utility.yul\":13531:13545   */\n      add\n        /* \"#utility.yul\":13523:13545   */\n      swap1\n      pop\n        /* \"#utility.yul\":13416:13551   */\n      swap2\n      swap1\n      pop\n      jump\t// out\n        /* \"#utility.yul\":13635:14722   */\n    tag_330:\n        /* \"#utility.yul\":13798:13801   */\n      0x00\n        /* \"#utility.yul\":13827:13903   */\n      tag_504\n        /* \"#utility.yul\":13897:13902   */\n      dup3\n        /* \"#utility.yul\":13827:13903   */\n      tag_319\n      jump\t// in\n    tag_504:\n        /* \"#utility.yul\":13919:14027   */\n      tag_505\n        /* \"#utility.yul\":14020:14026   */\n      dup2\n        /* \"#utility.yul\":14015:14018   */\n      dup6\n        /* \"#utility.yul\":13919:14027   */\n      tag_320\n      jump\t// in\n    tag_505:\n        /* \"#utility.yul\":13912:14027   */\n      swap4\n      pop\n        /* \"#utility.yul\":14053:14056   */\n      dup4\n        /* \"#utility.yul\":14098:14102   */\n      0x20\n        /* \"#utility.yul\":14090:14096   */\n      dup3\n        /* \"#utility.yul\":14086:14103   */\n      mul\n        /* \"#utility.yul\":14081:14084   */\n      dup6\n        /* \"#utility.yul\":14077:14104   */\n      add\n        /* \"#utility.yul\":14128:14206   */\n      tag_506\n        /* \"#utility.yul\":14200:14205   */\n      dup6\n        /* \"#utility.yul\":14128:14206   */\n      tag_321\n      jump\t// in\n    tag_506:\n        /* \"#utility.yul\":14229:14236   */\n      dup1\n        /* \"#utility.yul\":14260:14261   */\n      0x00\n        /* \"#utility.yul\":14245:14677   */\n    tag_507:\n        /* \"#utility.yul\":14270:14276   */\n      dup6\n        /* \"#utility.yul\":14267:14268   */\n      dup2\n        /* \"#utility.yul\":14264:14277   */\n      lt\n        /* \"#utility.yul\":14245:14677   */\n      iszero\n      tag_509\n      jumpi\n        /* \"#utility.yul\":14341:14350   */\n      dup5\n        /* \"#utility.yul\":14335:14339   */\n      dup5\n        /* \"#utility.yul\":14331:14351   */\n      sub\n        /* \"#utility.yul\":14326:14329   */\n      dup10\n        /* \"#utility.yul\":14319:14352   */\n      mstore\n        /* \"#utility.yul\":14392:14398   */\n      dup2\n        /* \"#utility.yul\":14386:14399   */\n      mload\n        /* \"#utility.yul\":14420:14528   */\n      tag_510\n        /* \"#utility.yul\":14523:14527   */\n      dup6\n        /* \"#utility.yul\":14508:14521   */\n      dup3\n        /* \"#utility.yul\":14420:14528   */\n      tag_328\n      jump\t// in\n    tag_510:\n        /* \"#utility.yul\":14412:14528   */\n      swap5\n      pop\n        /* \"#utility.yul\":14551:14633   */\n      tag_511\n        /* \"#utility.yul\":14626:14632   */\n      dup4\n        /* \"#utility.yul\":14551:14633   */\n      tag_329\n      jump\t// in\n    tag_511:\n        /* \"#utility.yul\":14541:14633   */\n      swap3\n      pop\n        /* \"#utility.yul\":14662:14666   */\n      0x20\n        /* \"#utility.yul\":14657:14660   */\n      dup11\n        /* \"#utility.yul\":14653:14667   */\n      add\n        /* \"#utility.yul\":14646:14667   */\n      swap10\n      pop\n        /* \"#utility.yul\":14305:14677   */\n      pop\n        /* \"#utility.yul\":14292:14293   */\n      0x01\n        /* \"#utility.yul\":14289:14290   */\n      dup2\n        /* \"#utility.yul\":14285:14294   */\n      add\n        /* \"#utility.yul\":14280:14294   */\n      swap1\n      pop\n        /* \"#utility.yul\":14245:14677   */\n      jump(tag_507)\n    tag_509:\n        /* \"#utility.yul\":14249:14263   */\n      pop\n        /* \"#utility.yul\":14693:14697   */\n      dup3\n        /* \"#utility.yul\":14686:14697   */\n      swap8\n      pop\n        /* \"#utility.yul\":14713:14716   */\n      dup8\n        /* \"#utility.yul\":14706:14716   */\n      swap6\n      pop\n        /* \"#utility.yul\":13803:14722   */\n      pop\n      pop\n      pop\n      pop\n      pop\n        /* \"#utility.yul\":13635:14722   */\n      swap3\n      swap2\n      pop\n      pop\n      jump\t// out\n        /* \"#utility.yul\":14728:15189   */\n    tag_97:\n        /* \"#utility.yul\":14915:14919   */\n      0x00\n        /* \"#utility.yul\":14953:14955   */\n      0x20\n        /* \"#utility.yul\":14942:14951   */\n      dup3\n        /* \"#utility.yul\":14938:14956   */\n      add\n        /* \"#utility.yul\":14930:14956   */\n      swap1\n      pop\n        /* \"#utility.yul\":15002:15011   */\n      dup2\n        /* \"#utility.yul\":14996:15000   */\n      dup2\n        /* \"#utility.yul\":14992:15012   */\n      sub\n        /* \"#utility.yul\":14988:14989   */\n      0x00\n        /* \"#utility.yul\":14977:14986   */\n      dup4\n        /* \"#utility.yul\":14973:14990   */\n      add\n        /* \"#utility.yul\":14966:15013   */\n      mstore\n        /* \"#utility.yul\":15030:15182   */\n      tag_513\n        /* \"#utility.yul\":15177:15181   */\n      dup2\n        /* \"#utility.yul\":15168:15174   */\n      dup5\n        /* \"#utility.yul\":15030:15182   */\n      tag_330\n      jump\t// in\n    tag_513:\n        /* \"#utility.yul\":15022:15182   */\n      swap1\n      pop\n        /* \"#utility.yul\":14728:15189   */\n      swap3\n      swap2\n      pop\n      pop\n      jump\t// out\n        /* \"#utility.yul\":15195:15375   */\n    tag_331:\n        /* \"#utility.yul\":15243:15320   */\n      0x4e487b7100000000000000000000000000000000000000000000000000000000\n        /* \"#utility.yul\":15240:15241   */\n      0x00\n        /* \"#utility.yul\":15233:15321   */\n      mstore\n        /* \"#utility.yul\":15340:15344   */\n      0x22\n        /* \"#utility.yul\":15337:15338   */\n      0x04\n        /* \"#utility.yul\":15330:15345   */\n      mstore\n        /* \"#utility.yul\":15364:15368   */\n      0x24\n        /* \"#utility.yul\":15361:15362   */\n      0x00\n        /* \"#utility.yul\":15354:15369   */\n      revert\n        /* \"#utility.yul\":15381:15701   */\n    tag_115:\n        /* \"#utility.yul\":15425:15431   */\n      0x00\n        /* \"#utility.yul\":15462:15463   */\n      0x02\n        /* \"#utility.yul\":15456:15460   */\n      dup3\n        /* \"#utility.yul\":15452:15464   */\n      div\n        /* \"#utility.yul\":15442:15464   */\n      swap1\n      pop\n        /* \"#utility.yul\":15509:15510   */\n      0x01\n        /* \"#utility.yul\":15503:15507   */\n      dup3\n        /* \"#utility.yul\":15499:15511   */\n      and\n        /* \"#utility.yul\":15530:15548   */\n      dup1\n        /* \"#utility.yul\":15520:15601   */\n      tag_516\n      jumpi\n        /* \"#utility.yul\":15586:15590   */\n      0x7f\n        /* \"#utility.yul\":15578:15584   */\n      dup3\n        /* \"#utility.yul\":15574:15591   */\n      and\n        /* \"#utility.yul\":15564:15591   */\n      swap2\n      pop\n        /* \"#utility.yul\":15520:15601   */\n    tag_516:\n        /* \"#utility.yul\":15648:15650   */\n      0x20\n        /* \"#utility.yul\":15640:15646   */\n      dup3\n        /* \"#utility.yul\":15637:15651   */\n      lt\n        /* \"#utility.yul\":15617:15635   */\n      dup2\n        /* \"#utility.yul\":15614:15652   */\n      sub\n        /* \"#utility.yul\":15611:15695   */\n      tag_517\n      jumpi\n        /* \"#utility.yul\":15667:15685   */\n      tag_518\n      tag_331\n      jump\t// in\n    tag_518:\n        /* \"#utility.yul\":15611:15695   */\n    tag_517:\n        /* \"#utility.yul\":15432:15701   */\n      pop\n        /* \"#utility.yul\":15381:15701   */\n      swap2\n      swap1\n      pop\n      jump\t// out\n        /* \"#utility.yul\":15707:15855   */\n    tag_332:\n        /* \"#utility.yul\":15809:15820   */\n      0x00\n        /* \"#utility.yul\":15846:15849   */\n      dup2\n        /* \"#utility.yul\":15831:15849   */\n      swap1\n      pop\n        /* \"#utility.yul\":15707:15855   */\n      swap3\n      swap2\n      pop\n      pop\n      jump\t// out\n        /* \"#utility.yul\":15861:16251   */\n    tag_333:\n        /* \"#utility.yul\":15967:15970   */\n      0x00\n        /* \"#utility.yul\":15995:16034   */\n      tag_521\n        /* \"#utility.yul\":16028:16033   */\n      dup3\n        /* \"#utility.yul\":15995:16034   */\n      tag_299\n      jump\t// in\n    tag_521:\n        /* \"#utility.yul\":16050:16139   */\n      tag_522\n        /* \"#utility.yul\":16132:16138   */\n      dup2\n        /* \"#utility.yul\":16127:16130   */\n      dup6\n        /* \"#utility.yul\":16050:16139   */\n      tag_332\n      jump\t// in\n    tag_522:\n        /* \"#utility.yul\":16043:16139   */\n      swap4\n      pop\n        /* \"#utility.yul\":16148:16213   */\n      tag_523\n        /* \"#utility.yul\":16206:16212   */\n      dup2\n        /* \"#utility.yul\":16201:16204   */\n      dup6\n        /* \"#utility.yul\":16194:16198   */\n      0x20\n        /* \"#utility.yul\":16187:16192   */\n      dup7\n        /* \"#utility.yul\":16183:16199   */\n      add\n        /* \"#utility.yul\":16148:16213   */\n      tag_301\n      jump\t// in\n    tag_523:\n        /* \"#utility.yul\":16238:16244   */\n      dup1\n        /* \"#utility.yul\":16233:16236   */\n      dup5\n        /* \"#utility.yul\":16229:16245   */\n      add\n        /* \"#utility.yul\":16222:16245   */\n      swap2\n      pop\n        /* \"#utility.yul\":15971:16251   */\n      pop\n        /* \"#utility.yul\":15861:16251   */\n      swap3\n      swap2\n      pop\n      pop\n      jump\t// out\n        /* \"#utility.yul\":16257:16532   */\n    tag_127:\n        /* \"#utility.yul\":16389:16392   */\n      0x00\n        /* \"#utility.yul\":16411:16506   */\n      tag_525\n        /* \"#utility.yul\":16502:16505   */\n      dup3\n        /* \"#utility.yul\":16493:16499   */\n      dup5\n        /* \"#utility.yul\":16411:16506   */\n      tag_333\n      jump\t// in\n    tag_525:\n        /* \"#utility.yul\":16404:16506   */\n      swap2\n      pop\n        /* \"#utility.yul\":16523:16526   */\n      dup2\n        /* \"#utility.yul\":16516:16526   */\n      swap1\n      pop\n        /* \"#utility.yul\":16257:16532   */\n      swap3\n      swap2\n      pop\n      pop\n      jump\t// out\n        /* \"#utility.yul\":16538:16718   */\n    tag_131:\n        /* \"#utility.yul\":16586:16663   */\n      0x4e487b7100000000000000000000000000000000000000000000000000000000\n        /* \"#utility.yul\":16583:16584   */\n      0x00\n        /* \"#utility.yul\":16576:16664   */\n      mstore\n        /* \"#utility.yul\":16683:16687   */\n      0x32\n        /* \"#utility.yul\":16680:16681   */\n      0x04\n        /* \"#utility.yul\":16673:16688   */\n      mstore\n        /* \"#utility.yul\":16707:16711   */\n      0x24\n        /* \"#utility.yul\":16704:16705   */\n      0x00\n        /* \"#utility.yul\":16697:16712   */\n      revert\n        /* \"#utility.yul\":16724:16865   */\n    tag_334:\n        /* \"#utility.yul\":16773:16777   */\n      0x00\n        /* \"#utility.yul\":16796:16799   */\n      dup2\n        /* \"#utility.yul\":16788:16799   */\n      swap1\n      pop\n        /* \"#utility.yul\":16819:16822   */\n      dup2\n        /* \"#utility.yul\":16816:16817   */\n      0x00\n        /* \"#utility.yul\":16809:16823   */\n      mstore\n        /* \"#utility.yul\":16853:16857   */\n      0x20\n        /* \"#utility.yul\":16850:16851   */\n      0x00\n        /* \"#utility.yul\":16840:16858   */\n      keccak256\n        /* \"#utility.yul\":16832:16858   */\n      swap1\n      pop\n        /* \"#utility.yul\":16724:16865   */\n      swap2\n      swap1\n      pop\n      jump\t// out\n        /* \"#utility.yul\":16895:17769   */\n    tag_335:\n        /* \"#utility.yul\":16998:17001   */\n      0x00\n        /* \"#utility.yul\":17035:17040   */\n      dup2\n        /* \"#utility.yul\":17029:17041   */\n      sload\n        /* \"#utility.yul\":17064:17100   */\n      tag_529\n        /* \"#utility.yul\":17090:17099   */\n      dup2\n        /* \"#utility.yul\":17064:17100   */\n      tag_115\n      jump\t// in\n    tag_529:\n        /* \"#utility.yul\":17116:17205   */\n      tag_530\n        /* \"#utility.yul\":17198:17204   */\n      dup2\n        /* \"#utility.yul\":17193:17196   */\n      dup7\n        /* \"#utility.yul\":17116:17205   */\n      tag_332\n      jump\t// in\n    tag_530:\n        /* \"#utility.yul\":17109:17205   */\n      swap5\n      pop\n        /* \"#utility.yul\":17236:17237   */\n      0x01\n        /* \"#utility.yul\":17225:17234   */\n      dup3\n        /* \"#utility.yul\":17221:17238   */\n      and\n        /* \"#utility.yul\":17252:17253   */\n      0x00\n        /* \"#utility.yul\":17247:17413   */\n      dup2\n      eq\n      tag_532\n      jumpi\n        /* \"#utility.yul\":17427:17428   */\n      0x01\n        /* \"#utility.yul\":17422:17763   */\n      dup2\n      eq\n      tag_533\n      jumpi\n        /* \"#utility.yul\":17214:17763   */\n      jump(tag_531)\n        /* \"#utility.yul\":17247:17413   */\n    tag_532:\n        /* \"#utility.yul\":17331:17335   */\n      0xff\n        /* \"#utility.yul\":17327:17336   */\n      not\n        /* \"#utility.yul\":17316:17325   */\n      dup4\n        /* \"#utility.yul\":17312:17337   */\n      and\n        /* \"#utility.yul\":17307:17310   */\n      dup7\n        /* \"#utility.yul\":17300:17338   */\n      mstore\n        /* \"#utility.yul\":17393:17399   */\n      dup2\n        /* \"#utility.yul\":17386:17400   */\n      iszero\n        /* \"#utility.yul\":17379:17401   */\n      iszero\n        /* \"#utility.yul\":17371:17377   */\n      dup3\n        /* \"#utility.yul\":17367:17402   */\n      mul\n        /* \"#utility.yul\":17362:17365   */\n      dup7\n        /* \"#utility.yul\":17358:17403   */\n      add\n        /* \"#utility.yul\":17351:17403   */\n      swap4\n      pop\n        /* \"#utility.yul\":17247:17413   */\n      jump(tag_531)\n        /* \"#utility.yul\":17422:17763   */\n    tag_533:\n        /* \"#utility.yul\":17489:17527   */\n      tag_534\n        /* \"#utility.yul\":17521:17526   */\n      dup6\n        /* \"#utility.yul\":17489:17527   */\n      tag_334\n      jump\t// in\n    tag_534:\n        /* \"#utility.yul\":17549:17550   */\n      0x00\n        /* \"#utility.yul\":17563:17717   */\n    tag_535:\n        /* \"#utility.yul\":17577:17583   */\n      dup4\n        /* \"#utility.yul\":17574:17575   */\n      dup2\n        /* \"#utility.yul\":17571:17584   */\n      lt\n        /* \"#utility.yul\":17563:17717   */\n      iszero\n      tag_537\n      jumpi\n        /* \"#utility.yul\":17651:17658   */\n      dup2\n        /* \"#utility.yul\":17645:17659   */\n      sload\n        /* \"#utility.yul\":17641:17642   */\n      dup2\n        /* \"#utility.yul\":17636:17639   */\n      dup10\n        /* \"#utility.yul\":17632:17643   */\n      add\n        /* \"#utility.yul\":17625:17660   */\n      mstore\n        /* \"#utility.yul\":17701:17702   */\n      0x01\n        /* \"#utility.yul\":17692:17699   */\n      dup3\n        /* \"#utility.yul\":17688:17703   */\n      add\n        /* \"#utility.yul\":17677:17703   */\n      swap2\n      pop\n        /* \"#utility.yul\":17599:17603   */\n      0x20\n        /* \"#utility.yul\":17596:17597   */\n      dup2\n        /* \"#utility.yul\":17592:17604   */\n      add\n        /* \"#utility.yul\":17587:17604   */\n      swap1\n      pop\n        /* \"#utility.yul\":17563:17717   */\n      jump(tag_535)\n    tag_537:\n        /* \"#utility.yul\":17746:17752   */\n      dup4\n        /* \"#utility.yul\":17741:17744   */\n      dup9\n        /* \"#utility.yul\":17737:17753   */\n      add\n        /* \"#utility.yul\":17730:17753   */\n      swap6\n      pop\n        /* \"#utility.yul\":17429:17763   */\n      pop\n      pop\n        /* \"#utility.yul\":17214:17763   */\n    tag_531:\n      pop\n        /* \"#utility.yul\":17002:17769   */\n      pop\n      pop\n        /* \"#utility.yul\":16895:17769   */\n      swap3\n      swap2\n      pop\n      pop\n      jump\t// out\n        /* \"#utility.yul\":17775:18044   */\n    tag_134:\n        /* \"#utility.yul\":17904:17907   */\n      0x00\n        /* \"#utility.yul\":17926:18018   */\n      tag_539\n        /* \"#utility.yul\":18014:18017   */\n      dup3\n        /* \"#utility.yul\":18005:18011   */\n      dup5\n        /* \"#utility.yul\":17926:18018   */\n      tag_335\n      jump\t// in\n    tag_539:\n        /* \"#utility.yul\":17919:18018   */\n      swap2\n      pop\n        /* \"#utility.yul\":18035:18038   */\n      dup2\n        /* \"#utility.yul\":18028:18038   */\n      swap1\n      pop\n        /* \"#utility.yul\":17775:18044   */\n      swap3\n      swap2\n      pop\n      pop\n      jump\t// out\n        /* \"#utility.yul\":18050:18275   */\n    tag_336:\n        /* \"#utility.yul\":18190:18224   */\n      0x4572726f723a20546869732064657374696e6174696f6e20646f65736e277420\n        /* \"#utility.yul\":18186:18187   */\n      0x00\n        /* \"#utility.yul\":18178:18184   */\n      dup3\n        /* \"#utility.yul\":18174:18188   */\n      add\n        /* \"#utility.yul\":18167:18225   */\n      mstore\n        /* \"#utility.yul\":18259:18267   */\n      0x6578697374210000000000000000000000000000000000000000000000000000\n        /* \"#utility.yul\":18254:18256   */\n      0x20\n        /* \"#utility.yul\":18246:18252   */\n      dup3\n        /* \"#utility.yul\":18242:18257   */\n      add\n        /* \"#utility.yul\":18235:18268   */\n      mstore\n        /* \"#utility.yul\":18050:18275   */\n      pop\n      jump\t// out\n        /* \"#utility.yul\":18281:18647   */\n    tag_337:\n        /* \"#utility.yul\":18423:18426   */\n      0x00\n        /* \"#utility.yul\":18444:18511   */\n      tag_542\n        /* \"#utility.yul\":18508:18510   */\n      0x26\n        /* \"#utility.yul\":18503:18506   */\n      dup4\n        /* \"#utility.yul\":18444:18511   */\n      tag_300\n      jump\t// in\n    tag_542:\n        /* \"#utility.yul\":18437:18511   */\n      swap2\n      pop\n        /* \"#utility.yul\":18520:18613   */\n      tag_543\n        /* \"#utility.yul\":18609:18612   */\n      dup3\n        /* \"#utility.yul\":18520:18613   */\n      tag_336\n      jump\t// in\n    tag_543:\n        /* \"#utility.yul\":18638:18640   */\n      0x40\n        /* \"#utility.yul\":18633:18636   */\n      dup3\n        /* \"#utility.yul\":18629:18641   */\n      add\n        /* \"#utility.yul\":18622:18641   */\n      swap1\n      pop\n        /* \"#utility.yul\":18281:18647   */\n      swap2\n      swap1\n      pop\n      jump\t// out\n        /* \"#utility.yul\":18653:19072   */\n    tag_137:\n        /* \"#utility.yul\":18819:18823   */\n      0x00\n        /* \"#utility.yul\":18857:18859   */\n      0x20\n        /* \"#utility.yul\":18846:18855   */\n      dup3\n        /* \"#utility.yul\":18842:18860   */\n      add\n        /* \"#utility.yul\":18834:18860   */\n      swap1\n      pop\n        /* \"#utility.yul\":18906:18915   */\n      dup2\n        /* \"#utility.yul\":18900:18904   */\n      dup2\n        /* \"#utility.yul\":18896:18916   */\n      sub\n        /* \"#utility.yul\":18892:18893   */\n      0x00\n        /* \"#utility.yul\":18881:18890   */\n      dup4\n        /* \"#utility.yul\":18877:18894   */\n      add\n        /* \"#utility.yul\":18870:18917   */\n      mstore\n        /* \"#utility.yul\":18934:19065   */\n      tag_545\n        /* \"#utility.yul\":19060:19064   */\n      dup2\n        /* \"#utility.yul\":18934:19065   */\n      tag_337\n      jump\t// in\n    tag_545:\n        /* \"#utility.yul\":18926:19065   */\n      swap1\n      pop\n        /* \"#utility.yul\":18653:19072   */\n      swap2\n      swap1\n      pop\n      jump\t// out\n        /* \"#utility.yul\":19078:19258   */\n    tag_338:\n        /* \"#utility.yul\":19126:19203   */\n      0x4e487b7100000000000000000000000000000000000000000000000000000000\n        /* \"#utility.yul\":19123:19124   */\n      0x00\n        /* \"#utility.yul\":19116:19204   */\n      mstore\n        /* \"#utility.yul\":19223:19227   */\n      0x11\n        /* \"#utility.yul\":19220:19221   */\n      0x04\n        /* \"#utility.yul\":19213:19228   */\n      mstore\n        /* \"#utility.yul\":19247:19251   */\n      0x24\n        /* \"#utility.yul\":19244:19245   */\n      0x00\n        /* \"#utility.yul\":19237:19252   */\n      revert\n        /* \"#utility.yul\":19264:19458   */\n    tag_139:\n        /* \"#utility.yul\":19304:19308   */\n      0x00\n        /* \"#utility.yul\":19324:19344   */\n      tag_548\n        /* \"#utility.yul\":19342:19343   */\n      dup3\n        /* \"#utility.yul\":19324:19344   */\n      tag_293\n      jump\t// in\n    tag_548:\n        /* \"#utility.yul\":19319:19344   */\n      swap2\n      pop\n        /* \"#utility.yul\":19358:19378   */\n      tag_549\n        /* \"#utility.yul\":19376:19377   */\n      dup4\n        /* \"#utility.yul\":19358:19378   */\n      tag_293\n      jump\t// in\n    tag_549:\n        /* \"#utility.yul\":19353:19378   */\n      swap3\n      pop\n        /* \"#utility.yul\":19402:19403   */\n      dup3\n        /* \"#utility.yul\":19399:19400   */\n      dup3\n        /* \"#utility.yul\":19395:19404   */\n      sub\n        /* \"#utility.yul\":19387:19404   */\n      swap1\n      pop\n        /* \"#utility.yul\":19426:19427   */\n      dup2\n        /* \"#utility.yul\":19420:19424   */\n      dup2\n        /* \"#utility.yul\":19417:19428   */\n      gt\n        /* \"#utility.yul\":19414:19451   */\n      iszero\n      tag_550\n      jumpi\n        /* \"#utility.yul\":19431:19449   */\n      tag_551\n      tag_338\n      jump\t// in\n    tag_551:\n        /* \"#utility.yul\":19414:19451   */\n    tag_550:\n        /* \"#utility.yul\":19264:19458   */\n      swap3\n      swap2\n      pop\n      pop\n      jump\t// out\n        /* \"#utility.yul\":19464:19874   */\n    tag_152:\n        /* \"#utility.yul\":19504:19511   */\n      0x00\n        /* \"#utility.yul\":19527:19547   */\n      tag_553\n        /* \"#utility.yul\":19545:19546   */\n      dup3\n        /* \"#utility.yul\":19527:19547   */\n      tag_293\n      jump\t// in\n    tag_553:\n        /* \"#utility.yul\":19522:19547   */\n      swap2\n      pop\n        /* \"#utility.yul\":19561:19581   */\n      tag_554\n        /* \"#utility.yul\":19579:19580   */\n      dup4\n        /* \"#utility.yul\":19561:19581   */\n      tag_293\n      jump\t// in\n    tag_554:\n        /* \"#utility.yul\":19556:19581   */\n      swap3\n      pop\n        /* \"#utility.yul\":19616:19617   */\n      dup3\n        /* \"#utility.yul\":19613:19614   */\n      dup3\n        /* \"#utility.yul\":19609:19618   */\n      mul\n        /* \"#utility.yul\":19638:19668   */\n      tag_555\n        /* \"#utility.yul\":19656:19667   */\n      dup2\n        /* \"#utility.yul\":19638:19668   */\n      tag_293\n      jump\t// in\n    tag_555:\n        /* \"#utility.yul\":19627:19668   */\n      swap2\n      pop\n        /* \"#utility.yul\":19817:19818   */\n      dup3\n        /* \"#utility.yul\":19808:19815   */\n      dup3\n        /* \"#utility.yul\":19804:19819   */\n      div\n        /* \"#utility.yul\":19801:19802   */\n      dup5\n        /* \"#utility.yul\":19798:19820   */\n      eq\n        /* \"#utility.yul\":19778:19779   */\n      dup4\n        /* \"#utility.yul\":19771:19780   */\n      iszero\n        /* \"#utility.yul\":19751:19834   */\n      or\n        /* \"#utility.yul\":19728:19867   */\n      tag_556\n      jumpi\n        /* \"#utility.yul\":19847:19865   */\n      tag_557\n      tag_338\n      jump\t// in\n    tag_557:\n        /* \"#utility.yul\":19728:19867   */\n    tag_556:\n        /* \"#utility.yul\":19512:19874   */\n      pop\n        /* \"#utility.yul\":19464:19874   */\n      swap3\n      swap2\n      pop\n      pop\n      jump\t// out\n        /* \"#utility.yul\":19880:20060   */\n    tag_339:\n        /* \"#utility.yul\":19928:20005   */\n      0x4e487b7100000000000000000000000000000000000000000000000000000000\n        /* \"#utility.yul\":19925:19926   */\n      0x00\n        /* \"#utility.yul\":19918:20006   */\n      mstore\n        /* \"#utility.yul\":20025:20029   */\n      0x12\n        /* \"#utility.yul\":20022:20023   */\n      0x04\n        /* \"#utility.yul\":20015:20030   */\n      mstore\n        /* \"#utility.yul\":20049:20053   */\n      0x24\n        /* \"#utility.yul\":20046:20047   */\n      0x00\n        /* \"#utility.yul\":20039:20054   */\n      revert\n        /* \"#utility.yul\":20066:20251   */\n    tag_157:\n        /* \"#utility.yul\":20106:20107   */\n      0x00\n        /* \"#utility.yul\":20123:20143   */\n      tag_560\n        /* \"#utility.yul\":20141:20142   */\n      dup3\n        /* \"#utility.yul\":20123:20143   */\n      tag_293\n      jump\t// in\n    tag_560:\n        /* \"#utility.yul\":20118:20143   */\n      swap2\n      pop\n        /* \"#utility.yul\":20157:20177   */\n      tag_561\n        /* \"#utility.yul\":20175:20176   */\n      dup4\n        /* \"#utility.yul\":20157:20177   */\n      tag_293\n      jump\t// in\n    tag_561:\n        /* \"#utility.yul\":20152:20177   */\n      swap3\n      pop\n        /* \"#utility.yul\":20196:20197   */\n      dup3\n        /* \"#utility.yul\":20186:20221   */\n      tag_562\n      jumpi\n        /* \"#utility.yul\":20201:20219   */\n      tag_563\n      tag_339\n      jump\t// in\n    tag_563:\n        /* \"#utility.yul\":20186:20221   */\n    tag_562:\n        /* \"#utility.yul\":20243:20244   */\n      dup3\n        /* \"#utility.yul\":20240:20241   */\n      dup3\n        /* \"#utility.yul\":20236:20245   */\n      div\n        /* \"#utility.yul\":20231:20245   */\n      swap1\n      pop\n        /* \"#utility.yul\":20066:20251   */\n      swap3\n      swap2\n      pop\n      pop\n      jump\t// out\n        /* \"#utility.yul\":20257:20427   */\n    tag_340:\n        /* \"#utility.yul\":20397:20419   */\n      0x596f7520617265206e6f74207468652043454f21000000000000000000000000\n        /* \"#utility.yul\":20393:20394   */\n      0x00\n        /* \"#utility.yul\":20385:20391   */\n      dup3\n        /* \"#utility.yul\":20381:20395   */\n      add\n        /* \"#utility.yul\":20374:20420   */\n      mstore\n        /* \"#utility.yul\":20257:20427   */\n      pop\n      jump\t// out\n        /* \"#utility.yul\":20433:20799   */\n    tag_341:\n        /* \"#utility.yul\":20575:20578   */\n      0x00\n        /* \"#utility.yul\":20596:20663   */\n      tag_566\n        /* \"#utility.yul\":20660:20662   */\n      0x14\n        /* \"#utility.yul\":20655:20658   */\n      dup4\n        /* \"#utility.yul\":20596:20663   */\n      tag_300\n      jump\t// in\n    tag_566:\n        /* \"#utility.yul\":20589:20663   */\n      swap2\n      pop\n        /* \"#utility.yul\":20672:20765   */\n      tag_567\n        /* \"#utility.yul\":20761:20764   */\n      dup3\n        /* \"#utility.yul\":20672:20765   */\n      tag_340\n      jump\t// in\n    tag_567:\n        /* \"#utility.yul\":20790:20792   */\n      0x20\n        /* \"#utility.yul\":20785:20788   */\n      dup3\n        /* \"#utility.yul\":20781:20793   */\n      add\n        /* \"#utility.yul\":20774:20793   */\n      swap1\n      pop\n        /* \"#utility.yul\":20433:20799   */\n      swap2\n      swap1\n      pop\n      jump\t// out\n        /* \"#utility.yul\":20805:21224   */\n    tag_163:\n        /* \"#utility.yul\":20971:20975   */\n      0x00\n        /* \"#utility.yul\":21009:21011   */\n      0x20\n        /* \"#utility.yul\":20998:21007   */\n      dup3\n        /* \"#utility.yul\":20994:21012   */\n      add\n        /* \"#utility.yul\":20986:21012   */\n      swap1\n      pop\n        /* \"#utility.yul\":21058:21067   */\n      dup2\n        /* \"#utility.yul\":21052:21056   */\n      dup2\n        /* \"#utility.yul\":21048:21068   */\n      sub\n        /* \"#utility.yul\":21044:21045   */\n      0x00\n        /* \"#utility.yul\":21033:21042   */\n      dup4\n        /* \"#utility.yul\":21029:21046   */\n      add\n        /* \"#utility.yul\":21022:21069   */\n      mstore\n        /* \"#utility.yul\":21086:21217   */\n      tag_569\n        /* \"#utility.yul\":21212:21216   */\n      dup2\n        /* \"#utility.yul\":21086:21217   */\n      tag_341\n      jump\t// in\n    tag_569:\n        /* \"#utility.yul\":21078:21217   */\n      swap1\n      pop\n        /* \"#utility.yul\":20805:21224   */\n      swap2\n      swap1\n      pop\n      jump\t// out\n        /* \"#utility.yul\":21230:21456   */\n    tag_342:\n        /* \"#utility.yul\":21370:21404   */\n      0x4572726f723a20546869732064657374696e6174696f6e20616c726561647920\n        /* \"#utility.yul\":21366:21367   */\n      0x00\n        /* \"#utility.yul\":21358:21364   */\n      dup3\n        /* \"#utility.yul\":21354:21368   */\n      add\n        /* \"#utility.yul\":21347:21405   */\n      mstore\n        /* \"#utility.yul\":21439:21448   */\n      0x6578697374732100000000000000000000000000000000000000000000000000\n        /* \"#utility.yul\":21434:21436   */\n      0x20\n        /* \"#utility.yul\":21426:21432   */\n      dup3\n        /* \"#utility.yul\":21422:21437   */\n      add\n        /* \"#utility.yul\":21415:21449   */\n      mstore\n        /* \"#utility.yul\":21230:21456   */\n      pop\n      jump\t// out\n        /* \"#utility.yul\":21462:21828   */\n    tag_343:\n        /* \"#utility.yul\":21604:21607   */\n      0x00\n        /* \"#utility.yul\":21625:21692   */\n      tag_572\n        /* \"#utility.yul\":21689:21691   */\n      0x27\n        /* \"#utility.yul\":21684:21687   */\n      dup4\n        /* \"#utility.yul\":21625:21692   */\n      tag_300\n      jump\t// in\n    tag_572:\n        /* \"#utility.yul\":21618:21692   */\n      swap2\n      pop\n        /* \"#utility.yul\":21701:21794   */\n      tag_573\n        /* \"#utility.yul\":21790:21793   */\n      dup3\n        /* \"#utility.yul\":21701:21794   */\n      tag_342\n      jump\t// in\n    tag_573:\n        /* \"#utility.yul\":21819:21821   */\n      0x40\n        /* \"#utility.yul\":21814:21817   */\n      dup3\n        /* \"#utility.yul\":21810:21822   */\n      add\n        /* \"#utility.yul\":21803:21822   */\n      swap1\n      pop\n        /* \"#utility.yul\":21462:21828   */\n      swap2\n      swap1\n      pop\n      jump\t// out\n        /* \"#utility.yul\":21834:22253   */\n    tag_179:\n        /* \"#utility.yul\":22000:22004   */\n      0x00\n        /* \"#utility.yul\":22038:22040   */\n      0x20\n        /* \"#utility.yul\":22027:22036   */\n      dup3\n        /* \"#utility.yul\":22023:22041   */\n      add\n        /* \"#utility.yul\":22015:22041   */\n      swap1\n      pop\n        /* \"#utility.yul\":22087:22096   */\n      dup2\n        /* \"#utility.yul\":22081:22085   */\n      dup2\n        /* \"#utility.yul\":22077:22097   */\n      sub\n        /* \"#utility.yul\":22073:22074   */\n      0x00\n        /* \"#utility.yul\":22062:22071   */\n      dup4\n        /* \"#utility.yul\":22058:22075   */\n      add\n        /* \"#utility.yul\":22051:22098   */\n      mstore\n        /* \"#utility.yul\":22115:22246   */\n      tag_575\n        /* \"#utility.yul\":22241:22245   */\n      dup2\n        /* \"#utility.yul\":22115:22246   */\n      tag_343\n      jump\t// in\n    tag_575:\n        /* \"#utility.yul\":22107:22246   */\n      swap1\n      pop\n        /* \"#utility.yul\":21834:22253   */\n      swap2\n      swap1\n      pop\n      jump\t// out\n        /* \"#utility.yul\":22259:22487   */\n    tag_344:\n        /* \"#utility.yul\":22399:22433   */\n      0x4572726f723a20426173652070726963652063616e6e6f742062652062656c6f\n        /* \"#utility.yul\":22395:22396   */\n      0x00\n        /* \"#utility.yul\":22387:22393   */\n      dup3\n        /* \"#utility.yul\":22383:22397   */\n      add\n        /* \"#utility.yul\":22376:22434   */\n      mstore\n        /* \"#utility.yul\":22468:22479   */\n      0x7720333020576569210000000000000000000000000000000000000000000000\n        /* \"#utility.yul\":22463:22465   */\n      0x20\n        /* \"#utility.yul\":22455:22461   */\n      dup3\n        /* \"#utility.yul\":22451:22466   */\n      add\n        /* \"#utility.yul\":22444:22480   */\n      mstore\n        /* \"#utility.yul\":22259:22487   */\n      pop\n      jump\t// out\n        /* \"#utility.yul\":22493:22859   */\n    tag_345:\n        /* \"#utility.yul\":22635:22638   */\n      0x00\n        /* \"#utility.yul\":22656:22723   */\n      tag_578\n        /* \"#utility.yul\":22720:22722   */\n      0x29\n        /* \"#utility.yul\":22715:22718   */\n      dup4\n        /* \"#utility.yul\":22656:22723   */\n      tag_300\n      jump\t// in\n    tag_578:\n        /* \"#utility.yul\":22649:22723   */\n      swap2\n      pop\n        /* \"#utility.yul\":22732:22825   */\n      tag_579\n        /* \"#utility.yul\":22821:22824   */\n      dup3\n        /* \"#utility.yul\":22732:22825   */\n      tag_344\n      jump\t// in\n    tag_579:\n        /* \"#utility.yul\":22850:22852   */\n      0x40\n        /* \"#utility.yul\":22845:22848   */\n      dup3\n        /* \"#utility.yul\":22841:22853   */\n      add\n        /* \"#utility.yul\":22834:22853   */\n      swap1\n      pop\n        /* \"#utility.yul\":22493:22859   */\n      swap2\n      swap1\n      pop\n      jump\t// out\n        /* \"#utility.yul\":22865:23284   */\n    tag_182:\n        /* \"#utility.yul\":23031:23035   */\n      0x00\n        /* \"#utility.yul\":23069:23071   */\n      0x20\n        /* \"#utility.yul\":23058:23067   */\n      dup3\n        /* \"#utility.yul\":23054:23072   */\n      add\n        /* \"#utility.yul\":23046:23072   */\n      swap1\n      pop\n        /* \"#utility.yul\":23118:23127   */\n      dup2\n        /* \"#utility.yul\":23112:23116   */\n      dup2\n        /* \"#utility.yul\":23108:23128   */\n      sub\n        /* \"#utility.yul\":23104:23105   */\n      0x00\n        /* \"#utility.yul\":23093:23102   */\n      dup4\n        /* \"#utility.yul\":23089:23106   */\n      add\n        /* \"#utility.yul\":23082:23129   */\n      mstore\n        /* \"#utility.yul\":23146:23277   */\n      tag_581\n        /* \"#utility.yul\":23272:23276   */\n      dup2\n        /* \"#utility.yul\":23146:23277   */\n      tag_345\n      jump\t// in\n    tag_581:\n        /* \"#utility.yul\":23138:23277   */\n      swap1\n      pop\n        /* \"#utility.yul\":22865:23284   */\n      swap2\n      swap1\n      pop\n      jump\t// out\n        /* \"#utility.yul\":23290:23383   */\n    tag_346:\n        /* \"#utility.yul\":23327:23333   */\n      0x00\n        /* \"#utility.yul\":23374:23376   */\n      0x20\n        /* \"#utility.yul\":23369:23371   */\n      0x1f\n        /* \"#utility.yul\":23362:23367   */\n      dup4\n        /* \"#utility.yul\":23358:23372   */\n      add\n        /* \"#utility.yul\":23354:23377   */\n      div\n        /* \"#utility.yul\":23344:23377   */\n      swap1\n      pop\n        /* \"#utility.yul\":23290:23383   */\n      swap2\n      swap1\n      pop\n      jump\t// out\n        /* \"#utility.yul\":23389:23496   */\n    tag_347:\n        /* \"#utility.yul\":23433:23441   */\n      0x00\n        /* \"#utility.yul\":23483:23488   */\n      dup3\n        /* \"#utility.yul\":23477:23481   */\n      dup3\n        /* \"#utility.yul\":23473:23489   */\n      shl\n        /* \"#utility.yul\":23452:23489   */\n      swap1\n      pop\n        /* \"#utility.yul\":23389:23496   */\n      swap3\n      swap2\n      pop\n      pop\n      jump\t// out\n        /* \"#utility.yul\":23502:23895   */\n    tag_348:\n        /* \"#utility.yul\":23571:23577   */\n      0x00\n        /* \"#utility.yul\":23621:23622   */\n      0x08\n        /* \"#utility.yul\":23609:23619   */\n      dup4\n        /* \"#utility.yul\":23605:23623   */\n      mul\n        /* \"#utility.yul\":23644:23741   */\n      tag_585\n        /* \"#utility.yul\":23674:23740   */\n      0xffffffffffffffffffffffffffffffffffffffffffffffffffffffffffffffff\n        /* \"#utility.yul\":23663:23672   */\n      dup3\n        /* \"#utility.yul\":23644:23741   */\n      tag_347\n      jump\t// in\n    tag_585:\n        /* \"#utility.yul\":23762:23801   */\n      tag_586\n        /* \"#utility.yul\":23792:23800   */\n      dup7\n        /* \"#utility.yul\":23781:23790   */\n      dup4\n        /* \"#utility.yul\":23762:23801   */\n      tag_347\n      jump\t// in\n    tag_586:\n        /* \"#utility.yul\":23750:23801   */\n      swap6\n      pop\n        /* \"#utility.yul\":23834:23838   */\n      dup1\n        /* \"#utility.yul\":23830:23839   */\n      not\n        /* \"#utility.yul\":23823:23828   */\n      dup5\n        /* \"#utility.yul\":23819:23840   */\n      and\n        /* \"#utility.yul\":23810:23840   */\n      swap4\n      pop\n        /* \"#utility.yul\":23883:23887   */\n      dup1\n        /* \"#utility.yul\":23873:23881   */\n      dup7\n        /* \"#utility.yul\":23869:23888   */\n      and\n        /* \"#utility.yul\":23862:23867   */\n      dup5\n        /* \"#utility.yul\":23859:23889   */\n      or\n        /* \"#utility.yul\":23849:23889   */\n      swap3\n      pop\n        /* \"#utility.yul\":23578:23895   */\n      pop\n      pop\n        /* \"#utility.yul\":23502:23895   */\n      swap4\n      swap3\n      pop\n      pop\n      pop\n      jump\t// out\n        /* \"#utility.yul\":23901:23961   */\n    tag_349:\n        /* \"#utility.yul\":23929:23932   */\n      0x00\n        /* \"#utility.yul\":23950:23955   */\n      dup2\n        /* \"#utility.yul\":23943:23955   */\n      swap1\n      pop\n        /* \"#utility.yul\":23901:23961   */\n      swap2\n      swap1\n      pop\n      jump\t// out\n        /* \"#utility.yul\":23967:24109   */\n    tag_350:\n        /* \"#utility.yul\":24017:24026   */\n      0x00\n        /* \"#utility.yul\":24050:24103   */\n      tag_589\n        /* \"#utility.yul\":24068:24102   */\n      tag_590\n        /* \"#utility.yul\":24077:24101   */\n      tag_591\n        /* \"#utility.yul\":24095:24100   */\n      dup5\n        /* \"#utility.yul\":24077:24101   */\n      tag_293\n      jump\t// in\n    tag_591:\n        /* \"#utility.yul\":24068:24102   */\n      tag_349\n      jump\t// in\n    tag_590:\n        /* \"#utility.yul\":24050:24103   */\n      tag_293\n      jump\t// in\n    tag_589:\n        /* \"#utility.yul\":24037:24103   */\n      swap1\n      pop\n        /* \"#utility.yul\":23967:24109   */\n      swap2\n      swap1\n      pop\n      jump\t// out\n        /* \"#utility.yul\":24115:24190   */\n    tag_351:\n        /* \"#utility.yul\":24158:24161   */\n      0x00\n        /* \"#utility.yul\":24179:24184   */\n      dup2\n        /* \"#utility.yul\":24172:24184   */\n      swap1\n      pop\n        /* \"#utility.yul\":24115:24190   */\n      swap2\n      swap1\n      pop\n      jump\t// out\n        /* \"#utility.yul\":24196:24465   */\n    tag_352:\n        /* \"#utility.yul\":24306:24345   */\n      tag_594\n        /* \"#utility.yul\":24337:24344   */\n      dup4\n        /* \"#utility.yul\":24306:24345   */\n      tag_350\n      jump\t// in\n    tag_594:\n        /* \"#utility.yul\":24367:24458   */\n      tag_595\n        /* \"#utility.yul\":24416:24457   */\n      tag_596\n        /* \"#utility.yul\":24440:24456   */\n      dup3\n        /* \"#utility.yul\":24416:24457   */\n      tag_351\n      jump\t// in\n    tag_596:\n        /* \"#utility.yul\":24408:24414   */\n      dup5\n        /* \"#utility.yul\":24401:24405   */\n      dup5\n        /* \"#utility.yul\":24395:24406   */\n      sload\n        /* \"#utility.yul\":24367:24458   */\n      tag_348\n      jump\t// in\n    tag_595:\n        /* \"#utility.yul\":24361:24365   */\n      dup3\n        /* \"#utility.yul\":24354:24459   */\n      sstore\n        /* \"#utility.yul\":24272:24465   */\n      pop\n        /* \"#utility.yul\":24196:24465   */\n      pop\n      pop\n      pop\n      jump\t// out\n        /* \"#utility.yul\":24471:24544   */\n    tag_353:\n        /* \"#utility.yul\":24516:24519   */\n      0x00\n        /* \"#utility.yul\":24471:24544   */\n      swap1\n      jump\t// out\n        /* \"#utility.yul\":24550:24739   */\n    tag_354:\n        /* \"#utility.yul\":24627:24659   */\n      tag_599\n      tag_353\n      jump\t// in\n    tag_599:\n        /* \"#utility.yul\":24668:24733   */\n      tag_600\n        /* \"#utility.yul\":24726:24732   */\n      dup2\n        /* \"#utility.yul\":24718:24724   */\n      dup5\n        /* \"#utility.yul\":24712:24716   */\n      dup5\n        /* \"#utility.yul\":24668:24733   */\n      tag_352\n      jump\t// in\n    tag_600:\n        /* \"#utility.yul\":24603:24739   */\n      pop\n        /* \"#utility.yul\":24550:24739   */\n      pop\n      pop\n      jump\t// out\n        /* \"#utility.yul\":24745:24931   */\n    tag_355:\n        /* \"#utility.yul\":24805:24925   */\n    tag_602:\n        /* \"#utility.yul\":24822:24825   */\n      dup2\n        /* \"#utility.yul\":24815:24820   */\n      dup2\n        /* \"#utility.yul\":24812:24826   */\n      lt\n        /* \"#utility.yul\":24805:24925   */\n      iszero\n      tag_604\n      jumpi\n        /* \"#utility.yul\":24876:24915   */\n      tag_605\n        /* \"#utility.yul\":24913:24914   */\n      0x00\n        /* \"#utility.yul\":24906:24911   */\n      dup3\n        /* \"#utility.yul\":24876:24915   */\n      tag_354\n      jump\t// in\n    tag_605:\n        /* \"#utility.yul\":24849:24850   */\n      0x01\n        /* \"#utility.yul\":24842:24847   */\n      dup2\n        /* \"#utility.yul\":24838:24851   */\n      add\n        /* \"#utility.yul\":24829:24851   */\n      swap1\n      pop\n        /* \"#utility.yul\":24805:24925   */\n      jump(tag_602)\n    tag_604:\n        /* \"#utility.yul\":24745:24931   */\n      pop\n      pop\n      jump\t// out\n        /* \"#utility.yul\":24937:25480   */\n    tag_356:\n        /* \"#utility.yul\":25038:25040   */\n      0x1f\n        /* \"#utility.yul\":25033:25036   */\n      dup3\n        /* \"#utility.yul\":25030:25041   */\n      gt\n        /* \"#utility.yul\":25027:25473   */\n      iszero\n      tag_607\n      jumpi\n        /* \"#utility.yul\":25072:25110   */\n      tag_608\n        /* \"#utility.yul\":25104:25109   */\n      dup2\n        /* \"#utility.yul\":25072:25110   */\n      tag_334\n      jump\t// in\n    tag_608:\n        /* \"#utility.yul\":25156:25185   */\n      tag_609\n        /* \"#utility.yul\":25174:25184   */\n      dup5\n        /* \"#utility.yul\":25156:25185   */\n      tag_346\n      jump\t// in\n    tag_609:\n        /* \"#utility.yul\":25146:25154   */\n      dup2\n        /* \"#utility.yul\":25142:25186   */\n      add\n        /* \"#utility.yul\":25339:25341   */\n      0x20\n        /* \"#utility.yul\":25327:25337   */\n      dup6\n        /* \"#utility.yul\":25324:25342   */\n      lt\n        /* \"#utility.yul\":25321:25370   */\n      iszero\n      tag_610\n      jumpi\n        /* \"#utility.yul\":25360:25368   */\n      dup2\n        /* \"#utility.yul\":25345:25368   */\n      swap1\n      pop\n        /* \"#utility.yul\":25321:25370   */\n    tag_610:\n        /* \"#utility.yul\":25383:25463   */\n      tag_611\n        /* \"#utility.yul\":25439:25461   */\n      tag_612\n        /* \"#utility.yul\":25457:25460   */\n      dup6\n        /* \"#utility.yul\":25439:25461   */\n      tag_346\n      jump\t// in\n    tag_612:\n        /* \"#utility.yul\":25429:25437   */\n      dup4\n        /* \"#utility.yul\":25425:25462   */\n      add\n        /* \"#utility.yul\":25412:25423   */\n      dup3\n        /* \"#utility.yul\":25383:25463   */\n      tag_355\n      jump\t// in\n    tag_611:\n        /* \"#utility.yul\":25042:25473   */\n      pop\n      pop\n        /* \"#utility.yul\":25027:25473   */\n    tag_607:\n        /* \"#utility.yul\":24937:25480   */\n      pop\n      pop\n      pop\n      jump\t// out\n        /* \"#utility.yul\":25486:25603   */\n    tag_357:\n        /* \"#utility.yul\":25540:25548   */\n      0x00\n        /* \"#utility.yul\":25590:25595   */\n      dup3\n        /* \"#utility.yul\":25584:25588   */\n      dup3\n        /* \"#utility.yul\":25580:25596   */\n      shr\n        /* \"#utility.yul\":25559:25596   */\n      swap1\n      pop\n        /* \"#utility.yul\":25486:25603   */\n      swap3\n      swap2\n      pop\n      pop\n      jump\t// out\n        /* \"#utility.yul\":25609:25778   */\n    tag_358:\n        /* \"#utility.yul\":25653:25659   */\n      0x00\n        /* \"#utility.yul\":25686:25737   */\n      tag_615\n        /* \"#utility.yul\":25734:25735   */\n      0x00\n        /* \"#utility.yul\":25730:25736   */\n      not\n        /* \"#utility.yul\":25722:25727   */\n      dup5\n        /* \"#utility.yul\":25719:25720   */\n      0x08\n        /* \"#utility.yul\":25715:25728   */\n      mul\n        /* \"#utility.yul\":25686:25737   */\n      tag_357\n      jump\t// in\n    tag_615:\n        /* \"#utility.yul\":25682:25738   */\n      not\n        /* \"#utility.yul\":25767:25771   */\n      dup1\n        /* \"#utility.yul\":25761:25765   */\n      dup4\n        /* \"#utility.yul\":25757:25772   */\n      and\n        /* \"#utility.yul\":25747:25772   */\n      swap2\n      pop\n        /* \"#utility.yul\":25660:25778   */\n      pop\n        /* \"#utility.yul\":25609:25778   */\n      swap3\n      swap2\n      pop\n      pop\n      jump\t// out\n        /* \"#utility.yul\":25783:26078   */\n    tag_359:\n        /* \"#utility.yul\":25859:25863   */\n      0x00\n        /* \"#utility.yul\":26005:26034   */\n      tag_617\n        /* \"#utility.yul\":26030:26033   */\n      dup4\n        /* \"#utility.yul\":26024:26028   */\n      dup4\n        /* \"#utility.yul\":26005:26034   */\n      tag_358\n      jump\t// in\n    tag_617:\n        /* \"#utility.yul\":25997:26034   */\n      swap2\n      pop\n        /* \"#utility.yul\":26067:26070   */\n      dup3\n        /* \"#utility.yul\":26064:26065   */\n      0x02\n        /* \"#utility.yul\":26060:26071   */\n      mul\n        /* \"#utility.yul\":26054:26058   */\n      dup3\n        /* \"#utility.yul\":26051:26072   */\n      or\n        /* \"#utility.yul\":26043:26072   */\n      swap1\n      pop\n        /* \"#utility.yul\":25783:26078   */\n      swap3\n      swap2\n      pop\n      pop\n      jump\t// out\n        /* \"#utility.yul\":26083:27478   */\n    tag_187:\n        /* \"#utility.yul\":26200:26237   */\n      tag_619\n        /* \"#utility.yul\":26233:26236   */\n      dup3\n        /* \"#utility.yul\":26200:26237   */\n      tag_299\n      jump\t// in\n    tag_619:\n        /* \"#utility.yul\":26302:26320   */\n      0xffffffffffffffff\n        /* \"#utility.yul\":26294:26300   */\n      dup2\n        /* \"#utility.yul\":26291:26321   */\n      gt\n        /* \"#utility.yul\":26288:26344   */\n      iszero\n      tag_620\n      jumpi\n        /* \"#utility.yul\":26324:26342   */\n      tag_621\n      tag_219\n      jump\t// in\n    tag_621:\n        /* \"#utility.yul\":26288:26344   */\n    tag_620:\n        /* \"#utility.yul\":26368:26406   */\n      tag_622\n        /* \"#utility.yul\":26400:26404   */\n      dup3\n        /* \"#utility.yul\":26394:26405   */\n      sload\n        /* \"#utility.yul\":26368:26406   */\n      tag_115\n      jump\t// in\n    tag_622:\n        /* \"#utility.yul\":26453:26520   */\n      tag_623\n        /* \"#utility.yul\":26513:26519   */\n      dup3\n        /* \"#utility.yul\":26505:26511   */\n      dup3\n        /* \"#utility.yul\":26499:26503   */\n      dup6\n        /* \"#utility.yul\":26453:26520   */\n      tag_356\n      jump\t// in\n    tag_623:\n        /* \"#utility.yul\":26547:26548   */\n      0x00\n        /* \"#utility.yul\":26571:26575   */\n      0x20\n        /* \"#utility.yul\":26558:26575   */\n      swap1\n      pop\n        /* \"#utility.yul\":26603:26605   */\n      0x1f\n        /* \"#utility.yul\":26595:26601   */\n      dup4\n        /* \"#utility.yul\":26592:26606   */\n      gt\n        /* \"#utility.yul\":26620:26621   */\n      0x01\n        /* \"#utility.yul\":26615:27233   */\n      dup2\n      eq\n      tag_625\n      jumpi\n        /* \"#utility.yul\":27277:27278   */\n      0x00\n        /* \"#utility.yul\":27294:27300   */\n      dup5\n        /* \"#utility.yul\":27291:27368   */\n      iszero\n      tag_626\n      jumpi\n        /* \"#utility.yul\":27343:27352   */\n      dup3\n        /* \"#utility.yul\":27338:27341   */\n      dup8\n        /* \"#utility.yul\":27334:27353   */\n      add\n        /* \"#utility.yul\":27328:27354   */\n      mload\n        /* \"#utility.yul\":27319:27354   */\n      swap1\n      pop\n        /* \"#utility.yul\":27291:27368   */\n    tag_626:\n        /* \"#utility.yul\":27394:27461   */\n      tag_627\n        /* \"#utility.yul\":27454:27460   */\n      dup6\n        /* \"#utility.yul\":27447:27452   */\n      dup3\n        /* \"#utility.yul\":27394:27461   */\n      tag_359\n      jump\t// in\n    tag_627:\n        /* \"#utility.yul\":27388:27392   */\n      dup7\n        /* \"#utility.yul\":27381:27462   */\n      sstore\n        /* \"#utility.yul\":27250:27472   */\n      pop\n        /* \"#utility.yul\":26585:27472   */\n      jump(tag_624)\n        /* \"#utility.yul\":26615:27233   */\n    tag_625:\n        /* \"#utility.yul\":26667:26671   */\n      0x1f\n        /* \"#utility.yul\":26663:26672   */\n      not\n        /* \"#utility.yul\":26655:26661   */\n      dup5\n        /* \"#utility.yul\":26651:26673   */\n      and\n        /* \"#utility.yul\":26701:26738   */\n      tag_628\n        /* \"#utility.yul\":26733:26737   */\n      dup7\n        /* \"#utility.yul\":26701:26738   */\n      tag_334\n      jump\t// in\n    tag_628:\n        /* \"#utility.yul\":26760:26761   */\n      0x00\n        /* \"#utility.yul\":26774:26982   */\n    tag_629:\n        /* \"#utility.yul\":26788:26795   */\n      dup3\n        /* \"#utility.yul\":26785:26786   */\n      dup2\n        /* \"#utility.yul\":26782:26796   */\n      lt\n        /* \"#utility.yul\":26774:26982   */\n      iszero\n      tag_631\n      jumpi\n        /* \"#utility.yul\":26867:26876   */\n      dup5\n        /* \"#utility.yul\":26862:26865   */\n      dup10\n        /* \"#utility.yul\":26858:26877   */\n      add\n        /* \"#utility.yul\":26852:26878   */\n      mload\n        /* \"#utility.yul\":26844:26850   */\n      dup3\n        /* \"#utility.yul\":26837:26879   */\n      sstore\n        /* \"#utility.yul\":26918:26919   */\n      0x01\n        /* \"#utility.yul\":26910:26916   */\n      dup3\n        /* \"#utility.yul\":26906:26920   */\n      add\n        /* \"#utility.yul\":26896:26920   */\n      swap2\n      pop\n        /* \"#utility.yul\":26965:26967   */\n      0x20\n        /* \"#utility.yul\":26954:26963   */\n      dup6\n        /* \"#utility.yul\":26950:26968   */\n      add\n        /* \"#utility.yul\":26937:26968   */\n      swap5\n      pop\n        /* \"#utility.yul\":26811:26815   */\n      0x20\n        /* \"#utility.yul\":26808:26809   */\n      dup2\n        /* \"#utility.yul\":26804:26816   */\n      add\n        /* \"#utility.yul\":26799:26816   */\n      swap1\n      pop\n        /* \"#utility.yul\":26774:26982   */\n      jump(tag_629)\n    tag_631:\n        /* \"#utility.yul\":27010:27016   */\n      dup7\n        /* \"#utility.yul\":27001:27008   */\n      dup4\n        /* \"#utility.yul\":26998:27017   */\n      lt\n        /* \"#utility.yul\":26995:27174   */\n      iszero\n      tag_632\n      jumpi\n        /* \"#utility.yul\":27068:27077   */\n      dup5\n        /* \"#utility.yul\":27063:27066   */\n      dup10\n        /* \"#utility.yul\":27059:27078   */\n      add\n        /* \"#utility.yul\":27053:27079   */\n      mload\n        /* \"#utility.yul\":27111:27159   */\n      tag_633\n        /* \"#utility.yul\":27153:27157   */\n      0x1f\n        /* \"#utility.yul\":27145:27151   */\n      dup10\n        /* \"#utility.yul\":27141:27158   */\n      and\n        /* \"#utility.yul\":27130:27139   */\n      dup3\n        /* \"#utility.yul\":27111:27159   */\n      tag_358\n      jump\t// in\n    tag_633:\n        /* \"#utility.yul\":27103:27109   */\n      dup4\n        /* \"#utility.yul\":27096:27160   */\n      sstore\n        /* \"#utility.yul\":27018:27174   */\n      pop\n        /* \"#utility.yul\":26995:27174   */\n    tag_632:\n        /* \"#utility.yul\":27220:27221   */\n      0x01\n        /* \"#utility.yul\":27216:27217   */\n      0x02\n        /* \"#utility.yul\":27208:27214   */\n      dup9\n        /* \"#utility.yul\":27204:27218   */\n      mul\n        /* \"#utility.yul\":27200:27222   */\n      add\n        /* \"#utility.yul\":27194:27198   */\n      dup9\n        /* \"#utility.yul\":27187:27223   */\n      sstore\n        /* \"#utility.yul\":26622:27233   */\n      pop\n      pop\n      pop\n        /* \"#utility.yul\":26585:27472   */\n    tag_624:\n      pop\n        /* \"#utility.yul\":26175:27478   */\n      pop\n      pop\n      pop\n        /* \"#utility.yul\":26083:27478   */\n      pop\n      pop\n      jump\t// out\n        /* \"#utility.yul\":27484:27717   */\n    tag_192:\n        /* \"#utility.yul\":27523:27526   */\n      0x00\n        /* \"#utility.yul\":27546:27570   */\n      tag_635\n        /* \"#utility.yul\":27564:27569   */\n      dup3\n        /* \"#utility.yul\":27546:27570   */\n      tag_293\n      jump\t// in\n    tag_635:\n        /* \"#utility.yul\":27537:27570   */\n      swap2\n      pop\n        /* \"#utility.yul\":27592:27658   */\n      0xffffffffffffffffffffffffffffffffffffffffffffffffffffffffffffffff\n        /* \"#utility.yul\":27585:27590   */\n      dup3\n        /* \"#utility.yul\":27582:27659   */\n      sub\n        /* \"#utility.yul\":27579:27682   */\n      tag_636\n      jumpi\n        /* \"#utility.yul\":27662:27680   */\n      tag_637\n      tag_338\n      jump\t// in\n    tag_637:\n        /* \"#utility.yul\":27579:27682   */\n    tag_636:\n        /* \"#utility.yul\":27709:27710   */\n      0x01\n        /* \"#utility.yul\":27702:27707   */\n      dup3\n        /* \"#utility.yul\":27698:27711   */\n      add\n        /* \"#utility.yul\":27691:27711   */\n      swap1\n      pop\n        /* \"#utility.yul\":27484:27717   */\n      swap2\n      swap1\n      pop\n      jump\t// out\n        /* \"#utility.yul\":27723:27960   */\n    tag_360:\n        /* \"#utility.yul\":27863:27897   */\n      0x4e6f20617661696c61626c65207469636b65747320666f722074686520737065\n        /* \"#utility.yul\":27859:27860   */\n      0x00\n        /* \"#utility.yul\":27851:27857   */\n      dup3\n        /* \"#utility.yul\":27847:27861   */\n      add\n        /* \"#utility.yul\":27840:27898   */\n      mstore\n        /* \"#utility.yul\":27932:27952   */\n      0x6369666965642064657374696e6174696f6e0000000000000000000000000000\n        /* \"#utility.yul\":27927:27929   */\n      0x20\n        /* \"#utility.yul\":27919:27925   */\n      dup3\n        /* \"#utility.yul\":27915:27930   */\n      add\n        /* \"#utility.yul\":27908:27953   */\n      mstore\n        /* \"#utility.yul\":27723:27960   */\n      pop\n      jump\t// out\n        /* \"#utility.yul\":27966:28332   */\n    tag_361:\n        /* \"#utility.yul\":28108:28111   */\n      0x00\n        /* \"#utility.yul\":28129:28196   */\n      tag_640\n        /* \"#utility.yul\":28193:28195   */\n      0x32\n        /* \"#utility.yul\":28188:28191   */\n      dup4\n        /* \"#utility.yul\":28129:28196   */\n      tag_300\n      jump\t// in\n    tag_640:\n        /* \"#utility.yul\":28122:28196   */\n      swap2\n      pop\n        /* \"#utility.yul\":28205:28298   */\n      tag_641\n        /* \"#utility.yul\":28294:28297   */\n      dup3\n        /* \"#utility.yul\":28205:28298   */\n      tag_360\n      jump\t// in\n    tag_641:\n        /* \"#utility.yul\":28323:28325   */\n      0x40\n        /* \"#utility.yul\":28318:28321   */\n      dup3\n        /* \"#utility.yul\":28314:28326   */\n      add\n        /* \"#utility.yul\":28307:28326   */\n      swap1\n      pop\n        /* \"#utility.yul\":27966:28332   */\n      swap2\n      swap1\n      pop\n      jump\t// out\n        /* \"#utility.yul\":28338:28757   */\n    tag_271:\n        /* \"#utility.yul\":28504:28508   */\n      0x00\n        /* \"#utility.yul\":28542:28544   */\n      0x20\n        /* \"#utility.yul\":28531:28540   */\n      dup3\n        /* \"#utility.yul\":28527:28545   */\n      add\n        /* \"#utility.yul\":28519:28545   */\n      swap1\n      pop\n        /* \"#utility.yul\":28591:28600   */\n      dup2\n        /* \"#utility.yul\":28585:28589   */\n      dup2\n        /* \"#utility.yul\":28581:28601   */\n      sub\n        /* \"#utility.yul\":28577:28578   */\n      0x00\n        /* \"#utility.yul\":28566:28575   */\n      dup4\n        /* \"#utility.yul\":28562:28579   */\n      add\n        /* \"#utility.yul\":28555:28602   */\n      mstore\n        /* \"#utility.yul\":28619:28750   */\n      tag_643\n        /* \"#utility.yul\":28745:28749   */\n      dup2\n        /* \"#utility.yul\":28619:28750   */\n      tag_361\n      jump\t// in\n    tag_643:\n        /* \"#utility.yul\":28611:28750   */\n      swap1\n      pop\n        /* \"#utility.yul\":28338:28757   */\n      swap2\n      swap1\n      pop\n      jump\t// out\n        /* \"#utility.yul\":28763:28934   */\n    tag_277:\n        /* \"#utility.yul\":28802:28805   */\n      0x00\n        /* \"#utility.yul\":28825:28849   */\n      tag_645\n        /* \"#utility.yul\":28843:28848   */\n      dup3\n        /* \"#utility.yul\":28825:28849   */\n      tag_293\n      jump\t// in\n    tag_645:\n        /* \"#utility.yul\":28816:28849   */\n      swap2\n      pop\n        /* \"#utility.yul\":28871:28875   */\n      0x00\n        /* \"#utility.yul\":28864:28869   */\n      dup3\n        /* \"#utility.yul\":28861:28876   */\n      sub\n        /* \"#utility.yul\":28858:28899   */\n      tag_646\n      jumpi\n        /* \"#utility.yul\":28879:28897   */\n      tag_647\n      tag_338\n      jump\t// in\n    tag_647:\n        /* \"#utility.yul\":28858:28899   */\n    tag_646:\n        /* \"#utility.yul\":28926:28927   */\n      0x01\n        /* \"#utility.yul\":28919:28924   */\n      dup3\n        /* \"#utility.yul\":28915:28928   */\n      sub\n        /* \"#utility.yul\":28908:28928   */\n      swap1\n      pop\n        /* \"#utility.yul\":28763:28934   */\n      swap2\n      swap1\n      pop\n      jump\t// out\n        /* \"#utility.yul\":28940:29131   */\n    tag_279:\n        /* \"#utility.yul\":28980:28983   */\n      0x00\n        /* \"#utility.yul\":28999:29019   */\n      tag_649\n        /* \"#utility.yul\":29017:29018   */\n      dup3\n        /* \"#utility.yul\":28999:29019   */\n      tag_293\n      jump\t// in\n    tag_649:\n        /* \"#utility.yul\":28994:29019   */\n      swap2\n      pop\n        /* \"#utility.yul\":29033:29053   */\n      tag_650\n        /* \"#utility.yul\":29051:29052   */\n      dup4\n        /* \"#utility.yul\":29033:29053   */\n      tag_293\n      jump\t// in\n    tag_650:\n        /* \"#utility.yul\":29028:29053   */\n      swap3\n      pop\n        /* \"#utility.yul\":29076:29077   */\n      dup3\n        /* \"#utility.yul\":29073:29074   */\n      dup3\n        /* \"#utility.yul\":29069:29078   */\n      add\n        /* \"#utility.yul\":29062:29078   */\n      swap1\n      pop\n        /* \"#utility.yul\":29097:29100   */\n      dup1\n        /* \"#utility.yul\":29094:29095   */\n      dup3\n        /* \"#utility.yul\":29091:29101   */\n      gt\n        /* \"#utility.yul\":29088:29124   */\n      iszero\n      tag_651\n      jumpi\n        /* \"#utility.yul\":29104:29122   */\n      tag_652\n      tag_338\n      jump\t// in\n    tag_652:\n        /* \"#utility.yul\":29088:29124   */\n    tag_651:\n        /* \"#utility.yul\":28940:29131   */\n      swap3\n      swap2\n      pop\n      pop\n      jump\t// out\n\n    auxdata: 0xa2646970667358221220e8d566dec65bb1b025dd0884c6fa7f9b924020a74028564d9ef71fc30a8f00ee64736f6c63430008130033\n}\n","bytecode":{"linkReferences":{},"object":"60806040523480156200001157600080fd5b50604051620033243803806200332483398181016040528101906200003791906200071a565b336000806101000a81548173ffffffffffffffffffffffffffffffffffffffff021916908373ffffffffffffffffffffffffffffffffffffffff1602179055506000601560006101000a81548160ff02191690831515021790555060006016819055506000601481905550600182908060018154018082558091505060019003906000526020600020016000909190919091509081620000d89190620009c1565b5060028190806001815401808255809150506001900390600052602060002001600090919091909150556003601e908060018154018082558091505060019003906000526020600020016000909190919091505560145460048360405162000141919062000aea565b908152602001604051809103902081905550620001663383836200035760201b60201c565b600360056000600c811062000180576200017f62000b03565b5b0181905550600260056001600c81106200019f576200019e62000b03565b5b0181905550600460056002600c8110620001be57620001bd62000b03565b5b01819055506005806003600c8110620001dc57620001db62000b03565b5b0181905550600360056004600c8110620001fb57620001fa62000b03565b5b0181905550600c600580600c811062000219576200021862000b03565b5b0181905550600b60056006600c811062000238576200023762000b03565b5b0181905550600c60056007600c811062000257576200025662000b03565b5b0181905550600f60056008600c811062000276576200027562000b03565b5b0181905550600e60056009600c811062000295576200029462000b03565b5b0181905550600b6005600a600c8110620002b457620002b362000b03565b5b0181905550600d6005600b600c8110620002d357620002d262000b03565b5b018190555060016011600060038110620002f257620002f162000b03565b5b01819055506002601160016003811062000311576200031062000b03565b5b01819055506003601160026003811062000330576200032f62000b03565b5b0181905550601460008154809291906200034a9062000b61565b9190505550505062000bae565b60008054906101000a900473ffffffffffffffffffffffffffffffffffffffff1673ffffffffffffffffffffffffffffffffffffffff163373ffffffffffffffffffffffffffffffffffffffff1614620003b057600080fd5b60005b601e8110156200054657600060185490506040518061010001604052808673ffffffffffffffffffffffffffffffffffffffff16815260200185815260200184815260200183815260200160405180602001604052806000815250815260200160001515815260200160011515815260200160008152506017600083815260200190815260200160002060008201518160000160006101000a81548173ffffffffffffffffffffffffffffffffffffffff021916908373ffffffffffffffffffffffffffffffffffffffff16021790555060208201518160010190816200049b9190620009c1565b5060408201518160020155606082015181600301556080820151816004019081620004c79190620009c1565b5060a08201518160050160006101000a81548160ff02191690831515021790555060c08201518160050160016101000a81548160ff02191690831515021790555060e08201518160060155905050601860008154809291906200052a9062000b61565b91905055505080806200053d9062000b61565b915050620003b3565b50505050565b6000604051905090565b600080fd5b600080fd5b600080fd5b600080fd5b6000601f19601f8301169050919050565b7f4e487b7100000000000000000000000000000000000000000000000000000000600052604160045260246000fd5b620005b5826200056a565b810181811067ffffffffffffffff82111715620005d757620005d66200057b565b5b80604052505050565b6000620005ec6200054c565b9050620005fa8282620005aa565b919050565b600067ffffffffffffffff8211156200061d576200061c6200057b565b5b62000628826200056a565b9050602081019050919050565b60005b838110156200065557808201518184015260208101905062000638565b60008484015250505050565b6000620006786200067284620005ff565b620005e0565b90508281526020810184848401111562000697576200069662000565565b5b620006a484828562000635565b509392505050565b600082601f830112620006c457620006c362000560565b5b8151620006d684826020860162000661565b91505092915050565b6000819050919050565b620006f481620006df565b81146200070057600080fd5b50565b6000815190506200071481620006e9565b92915050565b6000806040838503121562000734576200073362000556565b5b600083015167ffffffffffffffff8111156200075557620007546200055b565b5b6200076385828601620006ac565b9250506020620007768582860162000703565b9150509250929050565b600081519050919050565b7f4e487b7100000000000000000000000000000000000000000000000000000000600052602260045260246000fd5b60006002820490506001821680620007d357607f821691505b602082108103620007e957620007e86200078b565b5b50919050565b60008190508160005260206000209050919050565b60006020601f8301049050919050565b600082821b905092915050565b600060088302620008537fffffffffffffffffffffffffffffffffffffffffffffffffffffffffffffffff8262000814565b6200085f868362000814565b95508019841693508086168417925050509392505050565b6000819050919050565b6000620008a26200089c6200089684620006df565b62000877565b620006df565b9050919050565b6000819050919050565b620008be8362000881565b620008d6620008cd82620008a9565b84845462000821565b825550505050565b600090565b620008ed620008de565b620008fa818484620008b3565b505050565b5b81811015620009225762000916600082620008e3565b60018101905062000900565b5050565b601f82111562000971576200093b81620007ef565b620009468462000804565b8101602085101562000956578190505b6200096e620009658562000804565b830182620008ff565b50505b505050565b600082821c905092915050565b6000620009966000198460080262000976565b1980831691505092915050565b6000620009b1838362000983565b9150826002028217905092915050565b620009cc8262000780565b67ffffffffffffffff811115620009e857620009e76200057b565b5b620009f48254620007ba565b62000a0182828562000926565b600060209050601f83116001811462000a39576000841562000a24578287015190505b62000a308582620009a3565b86555062000aa0565b601f19841662000a4986620007ef565b60005b8281101562000a735784890151825560018201915060208501945060208101905062000a4c565b8683101562000a93578489015162000a8f601f89168262000983565b8355505b6001600288020188555050505b505050505050565b600081905092915050565b600062000ac08262000780565b62000acc818562000aa8565b935062000ade81856020860162000635565b80840191505092915050565b600062000af8828462000ab3565b915081905092915050565b7f4e487b7100000000000000000000000000000000000000000000000000000000600052603260045260246000fd5b7f4e487b7100000000000000000000000000000000000000000000000000000000600052601160045260246000fd5b600062000b6e82620006df565b91507fffffffffffffffffffffffffffffffffffffffffffffffffffffffffffffffff820362000ba35762000ba262000b32565b5b600182019050919050565b6127668062000bbe6000396000f3fe6080604052600436106101095760003560e01c8063695dc67e11610095578063ad03fe7011610064578063ad03fe70146103be578063c8705544146103fb578063cb2cc82a14610426578063ea6e358e14610463578063ff203bc01461047f57610109565b8063695dc67e146103025780638dd4ba2e1461033f578063908921fc1461037c578063aafc8d74146103a757610109565b8063195c1445116100dc578063195c1445146101f75780632427e59e146102345780633b33c702146102715780635e583e37146102ae5780636031a52f146102d757610109565b8063033fab351461010e57806306661abd1461015257806307819bd61461017d5780631165e6ab146101ba575b600080fd5b34801561011a57600080fd5b50610135600480360381019061013091906117bd565b6104aa565b6040516101499897969594939291906118e5565b60405180910390f35b34801561015e57600080fd5b5061016761063c565b6040516101749190611971565b60405180910390f35b34801561018957600080fd5b506101a4600480360381019061019f9190611aed565b610642565b6040516101b19190611971565b60405180910390f35b3480156101c657600080fd5b506101e160048036038101906101dc9190611b9c565b610800565b6040516101ee9190611bc9565b60405180910390f35b34801561020357600080fd5b5061021e600480360381019061021991906117bd565b61089a565b60405161022b9190611971565b60405180910390f35b34801561024057600080fd5b5061025b60048036038101906102569190611be4565b6108be565b6040516102689190611971565b60405180910390f35b34801561027d57600080fd5b50610298600480360381019061029391906117bd565b6108ec565b6040516102a59190611971565b60405180910390f35b3480156102ba57600080fd5b506102d560048036038101906102d09190611c2d565b610910565b005b3480156102e357600080fd5b506102ec610b48565b6040516102f99190611971565b60405180910390f35b34801561030e57600080fd5b50610329600480360381019061032491906117bd565b610b4e565b6040516103369190611971565b60405180910390f35b34801561034b57600080fd5b50610366600480360381019061036191906117bd565b610b69565b6040516103739190611c89565b60405180910390f35b34801561038857600080fd5b50610391610c15565b60405161039e9190611cab565b60405180910390f35b3480156103b357600080fd5b506103bc610c39565b005b3480156103ca57600080fd5b506103e560048036038101906103e09190611b9c565b610d37565b6040516103f29190611eb6565b60405180910390f35b34801561040757600080fd5b50610410611137565b60405161041d9190611971565b60405180910390f35b34801561043257600080fd5b5061044d600480360381019061044891906117bd565b61113d565b60405161045a9190611971565b60405180910390f35b61047d60048036038101906104789190611aed565b611158565b005b34801561048b57600080fd5b50610494611517565b6040516104a19190611bc9565b60405180910390f35b60176020528060005260406000206000915090508060000160009054906101000a900473ffffffffffffffffffffffffffffffffffffffff16908060010180546104f390611f07565b80601f016020809104026020016040519081016040528092919081815260200182805461051f90611f07565b801561056c5780601f106105415761010080835404028352916020019161056c565b820191906000526020600020905b81548152906001019060200180831161054f57829003601f168201915b50505050509080600201549080600301549080600401805461058d90611f07565b80601f01602080910402602001604051908101604052809291908181526020018280546105b990611f07565b80156106065780601f106105db57610100808354040283529160200191610606565b820191906000526020600020905b8154815290600101906020018083116105e957829003601f168201915b5050505050908060050160009054906101000a900460ff16908060050160019054906101000a900460ff16908060060154905088565b60145481565b6000846040516020016106559190611f74565b60405160208183030381529060405280519060200120600160048760405161067d9190611f74565b9081526020016040518091039020548154811061069d5761069c611f8b565b5b906000526020600020016040516020016106b79190612052565b604051602081830303815290604052805190602001201461070d576040517f08c379a0000000000000000000000000000000000000000000000000000000008152600401610704906120db565b60405180910390fd5b6000601160018561071e919061212a565b6003811061072f5761072e611f8b565b5b0154905060006005600187610744919061212a565b600c811061075557610754611f8b565b5b01549050600082600260048a60405161076e9190611f74565b9081526020016040518091039020548154811061078e5761078d611f8b565b5b90600052602060002001546107a3919061215e565b905084156107bb576002816107b8919061215e565b90505b81600a11156107da5781816107d091906121cf565b93505050506107f8565b600a826107e7919061212a565b816107f2919061215e565b93505050505b949350505050565b60008060009054906101000a900473ffffffffffffffffffffffffffffffffffffffff1673ffffffffffffffffffffffffffffffffffffffff168273ffffffffffffffffffffffffffffffffffffffff1614610891576040517f08c379a00000000000000000000000000000000000000000000000000000000081526004016108889061224c565b60405180910390fd5b60019050919050565b600281815481106108aa57600080fd5b906000526020600020016000915090505481565b6004818051602081018201805184825260208301602085012081835280955050505050506000915090505481565b600381815481106108fc57600080fd5b906000526020600020016000915090505481565b60008054906101000a900473ffffffffffffffffffffffffffffffffffffffff1673ffffffffffffffffffffffffffffffffffffffff163373ffffffffffffffffffffffffffffffffffffffff161461096857600080fd5b816040516020016109799190611f74565b6040516020818303038152906040528051906020012060016004846040516109a19190611f74565b908152602001604051809103902054815481106109c1576109c0611f8b565b5b906000526020600020016040516020016109db9190612052565b6040516020818303038152906040528051906020012003610a31576040517f08c379a0000000000000000000000000000000000000000000000000000000008152600401610a28906122de565b60405180910390fd5b601e8111610a74576040517f08c379a0000000000000000000000000000000000000000000000000000000008152600401610a6b90612370565b60405180910390fd5b610a7f33838361152a565b600182908060018154018082558091505060019003906000526020600020016000909190919091509081610ab39190612527565b506002819080600181540180825580915050600190039060005260206000200160009091909190915055601454600483604051610af09190611f74565b9081526020016040518091039020819055506003601e908060018154018082558091505060019003906000526020600020016000909190919091505560146000815480929190610b3f906125f9565b91905055505050565b60185481565b60118160038110610b5e57600080fd5b016000915090505481565b60018181548110610b7957600080fd5b906000526020600020016000915090508054610b9490611f07565b80601f0160208091040260200160405190810160405280929190818152602001828054610bc090611f07565b8015610c0d5780601f10610be257610100808354040283529160200191610c0d565b820191906000526020600020905b815481529060010190602001808311610bf057829003601f168201915b505050505081565b60008054906101000a900473ffffffffffffffffffffffffffffffffffffffff1681565b60008054906101000a900473ffffffffffffffffffffffffffffffffffffffff1673ffffffffffffffffffffffffffffffffffffffff163373ffffffffffffffffffffffffffffffffffffffff1614610c9157600080fd5b60008054906101000a900473ffffffffffffffffffffffffffffffffffffffff1673ffffffffffffffffffffffffffffffffffffffff166108fc600a6009601654610cdc919061215e565b610ce691906121cf565b9081150290604051600060405180830381858888f19350505050158015610d11573d6000803e3d6000fd5b506000601560006101000a81548160ff0219169083151502179055506000601681905550565b60606000805b601854811015610e00578373ffffffffffffffffffffffffffffffffffffffff166017600083815260200190815260200160002060000160009054906101000a900473ffffffffffffffffffffffffffffffffffffffff1673ffffffffffffffffffffffffffffffffffffffff16148015610dd957506017600082815260200190815260200160002060050160019054906101000a900460ff16155b15610ded578180610de9906125f9565b9250505b8080610df8906125f9565b915050610d3d565b5060008167ffffffffffffffff811115610e1d57610e1c611996565b5b604051908082528060200260200182016040528015610e5657816020015b610e43611714565b815260200190600190039081610e3b5790505b5090506000805b60185481101561112b578573ffffffffffffffffffffffffffffffffffffffff166017600083815260200190815260200160002060000160009054906101000a900473ffffffffffffffffffffffffffffffffffffffff1673ffffffffffffffffffffffffffffffffffffffff16148015610ef957506017600082815260200190815260200160002060050160019054906101000a900460ff16155b156111185760176000828152602001908152602001600020604051806101000160405290816000820160009054906101000a900473ffffffffffffffffffffffffffffffffffffffff1673ffffffffffffffffffffffffffffffffffffffff1673ffffffffffffffffffffffffffffffffffffffff168152602001600182018054610f8390611f07565b80601f0160208091040260200160405190810160405280929190818152602001828054610faf90611f07565b8015610ffc5780601f10610fd157610100808354040283529160200191610ffc565b820191906000526020600020905b815481529060010190602001808311610fdf57829003601f168201915b50505050508152602001600282015481526020016003820154815260200160048201805461102990611f07565b80601f016020809104026020016040519081016040528092919081815260200182805461105590611f07565b80156110a25780601f10611077576101008083540402835291602001916110a2565b820191906000526020600020905b81548152906001019060200180831161108557829003601f168201915b505050505081526020016005820160009054906101000a900460ff161515151581526020016005820160019054906101000a900460ff161515151581526020016006820154815250508383815181106110fe576110fd611f8b565b5b60200260200101819052508180611114906125f9565b9250505b8080611123906125f9565b915050610e5d565b50819350505050919050565b60165481565b600581600c811061114d57600080fd5b016000915090505481565b61116484848484610642565b341461116f57600080fd5b836040516020016111809190611f74565b6040516020818303038152906040528051906020012060016004866040516111a89190611f74565b908152602001604051809103902054815481106111c8576111c7611f8b565b5b906000526020600020016040516020016111e29190612052565b6040516020818303038152906040528051906020012014611238576040517f08c379a000000000000000000000000000000000000000000000000000000000815260040161122f906120db565b60405180910390fd5b6000805b6018548110156114495760006017600083815260200190815260200160002090508660405160200161126e9190611f74565b60405160208183030381529060405280519060200120816001016040516020016112989190612052565b604051602081830303815290604052805190602001201480156112c957508060050160019054906101000a900460ff165b1561143557338160000160006101000a81548173ffffffffffffffffffffffffffffffffffffffff021916908373ffffffffffffffffffffffffffffffffffffffff16021790555060018514611398576002851461135c576040518060400160405280600581526020017f4669727374000000000000000000000000000000000000000000000000000000815250611393565b6040518060400160405280600881526020017f427573696e6573730000000000000000000000000000000000000000000000008152505b6113cf565b6040518060400160405280600781526020017f45636f6e6f6d79000000000000000000000000000000000000000000000000008152505b8160040190816113df9190612527565b50838160050160006101000a81548160ff02191690831515021790555060008160050160016101000a81548160ff0219169083151502179055508581600601819055503481600201819055506001925050611449565b508080611441906125f9565b91505061123c565b508061148a576040517f08c379a0000000000000000000000000000000000000000000000000000000008152600401611481906126b3565b60405180910390fd5b600360048660405161149c9190611f74565b908152602001604051809103902054815481106114bc576114bb611f8b565b5b9060005260206000200160008154809291906114d7906126d3565b919050555034601660008282546114ee91906126fc565b925050819055506001601560006101000a81548160ff0219169083151502179055505050505050565b601560009054906101000a900460ff1681565b60008054906101000a900473ffffffffffffffffffffffffffffffffffffffff1673ffffffffffffffffffffffffffffffffffffffff163373ffffffffffffffffffffffffffffffffffffffff161461158257600080fd5b60005b601e81101561170e57600060185490506040518061010001604052808673ffffffffffffffffffffffffffffffffffffffff16815260200185815260200184815260200183815260200160405180602001604052806000815250815260200160001515815260200160011515815260200160008152506017600083815260200190815260200160002060008201518160000160006101000a81548173ffffffffffffffffffffffffffffffffffffffff021916908373ffffffffffffffffffffffffffffffffffffffff160217905550602082015181600101908161166a9190612527565b50604082015181600201556060820151816003015560808201518160040190816116949190612527565b5060a08201518160050160006101000a81548160ff02191690831515021790555060c08201518160050160016101000a81548160ff02191690831515021790555060e08201518160060155905050601860008154809291906116f5906125f9565b9190505550508080611706906125f9565b915050611585565b50505050565b604051806101000160405280600073ffffffffffffffffffffffffffffffffffffffff16815260200160608152602001600081526020016000815260200160608152602001600015158152602001600015158152602001600081525090565b6000604051905090565b600080fd5b600080fd5b6000819050919050565b61179a81611787565b81146117a557600080fd5b50565b6000813590506117b781611791565b92915050565b6000602082840312156117d3576117d261177d565b5b60006117e1848285016117a8565b91505092915050565b600073ffffffffffffffffffffffffffffffffffffffff82169050919050565b6000611815826117ea565b9050919050565b6118258161180a565b82525050565b600081519050919050565b600082825260208201905092915050565b60005b8381101561186557808201518184015260208101905061184a565b60008484015250505050565b6000601f19601f8301169050919050565b600061188d8261182b565b6118978185611836565b93506118a7818560208601611847565b6118b081611871565b840191505092915050565b6118c481611787565b82525050565b60008115159050919050565b6118df816118ca565b82525050565b6000610100820190506118fb600083018b61181c565b818103602083015261190d818a611882565b905061191c60408301896118bb565b61192960608301886118bb565b818103608083015261193b8187611882565b905061194a60a08301866118d6565b61195760c08301856118d6565b61196460e08301846118bb565b9998505050505050505050565b600060208201905061198660008301846118bb565b92915050565b600080fd5b600080fd5b7f4e487b7100000000000000000000000000000000000000000000000000000000600052604160045260246000fd5b6119ce82611871565b810181811067ffffffffffffffff821117156119ed576119ec611996565b5b80604052505050565b6000611a00611773565b9050611a0c82826119c5565b919050565b600067ffffffffffffffff821115611a2c57611a2b611996565b5b611a3582611871565b9050602081019050919050565b82818337600083830152505050565b6000611a64611a5f84611a11565b6119f6565b905082815260208101848484011115611a8057611a7f611991565b5b611a8b848285611a42565b509392505050565b600082601f830112611aa857611aa761198c565b5b8135611ab8848260208601611a51565b91505092915050565b611aca816118ca565b8114611ad557600080fd5b50565b600081359050611ae781611ac1565b92915050565b60008060008060808587031215611b0757611b0661177d565b5b600085013567ffffffffffffffff811115611b2557611b24611782565b5b611b3187828801611a93565b9450506020611b42878288016117a8565b9350506040611b53878288016117a8565b9250506060611b6487828801611ad8565b91505092959194509250565b611b798161180a565b8114611b8457600080fd5b50565b600081359050611b9681611b70565b92915050565b600060208284031215611bb257611bb161177d565b5b6000611bc084828501611b87565b91505092915050565b6000602082019050611bde60008301846118d6565b92915050565b600060208284031215611bfa57611bf961177d565b5b600082013567ffffffffffffffff811115611c1857611c17611782565b5b611c2484828501611a93565b91505092915050565b60008060408385031215611c4457611c4361177d565b5b600083013567ffffffffffffffff811115611c6257611c61611782565b5b611c6e85828601611a93565b9250506020611c7f858286016117a8565b9150509250929050565b60006020820190508181036000830152611ca38184611882565b905092915050565b6000602082019050611cc0600083018461181c565b92915050565b600081519050919050565b600082825260208201905092915050565b6000819050602082019050919050565b611cfb8161180a565b82525050565b600082825260208201905092915050565b6000611d1d8261182b565b611d278185611d01565b9350611d37818560208601611847565b611d4081611871565b840191505092915050565b611d5481611787565b82525050565b611d63816118ca565b82525050565b600061010083016000830151611d826000860182611cf2565b5060208301518482036020860152611d9a8282611d12565b9150506040830151611daf6040860182611d4b565b506060830151611dc26060860182611d4b565b5060808301518482036080860152611dda8282611d12565b91505060a0830151611def60a0860182611d5a565b5060c0830151611e0260c0860182611d5a565b5060e0830151611e1560e0860182611d4b565b508091505092915050565b6000611e2c8383611d69565b905092915050565b6000602082019050919050565b6000611e4c82611cc6565b611e568185611cd1565b935083602082028501611e6885611ce2565b8060005b85811015611ea45784840389528151611e858582611e20565b9450611e9083611e34565b925060208a01995050600181019050611e6c565b50829750879550505050505092915050565b60006020820190508181036000830152611ed08184611e41565b905092915050565b7f4e487b7100000000000000000000000000000000000000000000000000000000600052602260045260246000fd5b60006002820490506001821680611f1f57607f821691505b602082108103611f3257611f31611ed8565b5b50919050565b600081905092915050565b6000611f4e8261182b565b611f588185611f38565b9350611f68818560208601611847565b80840191505092915050565b6000611f808284611f43565b915081905092915050565b7f4e487b7100000000000000000000000000000000000000000000000000000000600052603260045260246000fd5b60008190508160005260206000209050919050565b60008154611fdc81611f07565b611fe68186611f38565b94506001821660008114612001576001811461201657612049565b60ff1983168652811515820286019350612049565b61201f85611fba565b60005b8381101561204157815481890152600182019150602081019050612022565b838801955050505b50505092915050565b600061205e8284611fcf565b915081905092915050565b7f4572726f723a20546869732064657374696e6174696f6e20646f65736e27742060008201527f6578697374210000000000000000000000000000000000000000000000000000602082015250565b60006120c5602683611836565b91506120d082612069565b604082019050919050565b600060208201905081810360008301526120f4816120b8565b9050919050565b7f4e487b7100000000000000000000000000000000000000000000000000000000600052601160045260246000fd5b600061213582611787565b915061214083611787565b9250828203905081811115612158576121576120fb565b5b92915050565b600061216982611787565b915061217483611787565b925082820261218281611787565b91508282048414831517612199576121986120fb565b5b5092915050565b7f4e487b7100000000000000000000000000000000000000000000000000000000600052601260045260246000fd5b60006121da82611787565b91506121e583611787565b9250826121f5576121f46121a0565b5b828204905092915050565b7f596f7520617265206e6f74207468652043454f21000000000000000000000000600082015250565b6000612236601483611836565b915061224182612200565b602082019050919050565b6000602082019050818103600083015261226581612229565b9050919050565b7f4572726f723a20546869732064657374696e6174696f6e20616c72656164792060008201527f6578697374732100000000000000000000000000000000000000000000000000602082015250565b60006122c8602783611836565b91506122d38261226c565b604082019050919050565b600060208201905081810360008301526122f7816122bb565b9050919050565b7f4572726f723a20426173652070726963652063616e6e6f742062652062656c6f60008201527f7720333020576569210000000000000000000000000000000000000000000000602082015250565b600061235a602983611836565b9150612365826122fe565b604082019050919050565b600060208201905081810360008301526123898161234d565b9050919050565b60006020601f8301049050919050565b600082821b905092915050565b6000600883026123dd7fffffffffffffffffffffffffffffffffffffffffffffffffffffffffffffffff826123a0565b6123e786836123a0565b95508019841693508086168417925050509392505050565b6000819050919050565b600061242461241f61241a84611787565b6123ff565b611787565b9050919050565b6000819050919050565b61243e83612409565b61245261244a8261242b565b8484546123ad565b825550505050565b600090565b61246761245a565b612472818484612435565b505050565b5b818110156124965761248b60008261245f565b600181019050612478565b5050565b601f8211156124db576124ac81611fba565b6124b584612390565b810160208510156124c4578190505b6124d86124d085612390565b830182612477565b50505b505050565b600082821c905092915050565b60006124fe600019846008026124e0565b1980831691505092915050565b600061251783836124ed565b9150826002028217905092915050565b6125308261182b565b67ffffffffffffffff81111561254957612548611996565b5b6125538254611f07565b61255e82828561249a565b600060209050601f831160018114612591576000841561257f578287015190505b612589858261250b565b8655506125f1565b601f19841661259f86611fba565b60005b828110156125c7578489015182556001820191506020850194506020810190506125a2565b868310156125e457848901516125e0601f8916826124ed565b8355505b6001600288020188555050505b505050505050565b600061260482611787565b91507fffffffffffffffffffffffffffffffffffffffffffffffffffffffffffffffff8203612636576126356120fb565b5b600182019050919050565b7f4e6f20617661696c61626c65207469636b65747320666f72207468652073706560008201527f6369666965642064657374696e6174696f6e0000000000000000000000000000602082015250565b600061269d603283611836565b91506126a882612641565b604082019050919050565b600060208201905081810360008301526126cc81612690565b9050919050565b60006126de82611787565b9150600082036126f1576126f06120fb565b5b600182039050919050565b600061270782611787565b915061271283611787565b925082820190508082111561272a576127296120fb565b5b9291505056fea2646970667358221220e8d566dec65bb1b025dd0884c6fa7f9b924020a74028564d9ef71fc30a8f00ee64736f6c63430008130033","opcodes":"PUSH1 0x80 PUSH1 0x40 MSTORE CALLVALUE DUP1 ISZERO PUSH3 0x11 JUMPI PUSH1 0x0 DUP1 REVERT JUMPDEST POP PUSH1 0x40 MLOAD PUSH3 0x3324 CODESIZE SUB DUP1 PUSH3 0x3324 DUP4 CODECOPY DUP2 DUP2 ADD PUSH1 0x40 MSTORE DUP2 ADD SWAP1 PUSH3 0x37 SWAP2 SWAP1 PUSH3 0x71A JUMP JUMPDEST CALLER PUSH1 0x0 DUP1 PUSH2 0x100 EXP DUP2 SLOAD DUP2 PUSH20 0xFFFFFFFFFFFFFFFFFFFFFFFFFFFFFFFFFFFFFFFF MUL NOT AND SWAP1 DUP4 PUSH20 0xFFFFFFFFFFFFFFFFFFFFFFFFFFFFFFFFFFFFFFFF AND MUL OR SWAP1 SSTORE POP PUSH1 0x0 PUSH1 0x15 PUSH1 0x0 PUSH2 0x100 EXP DUP2 SLOAD DUP2 PUSH1 0xFF MUL NOT AND SWAP1 DUP4 ISZERO ISZERO MUL OR SWAP1 SSTORE POP PUSH1 0x0 PUSH1 0x16 DUP2 SWAP1 SSTORE POP PUSH1 0x0 PUSH1 0x14 DUP2 SWAP1 SSTORE POP PUSH1 0x1 DUP3 SWAP1 DUP1 PUSH1 0x1 DUP2 SLOAD ADD DUP1 DUP3 SSTORE DUP1 SWAP2 POP POP PUSH1 0x1 SWAP1 SUB SWAP1 PUSH1 0x0 MSTORE PUSH1 0x20 PUSH1 0x0 KECCAK256 ADD PUSH1 0x0 SWAP1 SWAP2 SWAP1 SWAP2 SWAP1 SWAP2 POP SWAP1 DUP2 PUSH3 0xD8 SWAP2 SWAP1 PUSH3 0x9C1 JUMP JUMPDEST POP PUSH1 0x2 DUP2 SWAP1 DUP1 PUSH1 0x1 DUP2 SLOAD ADD DUP1 DUP3 SSTORE DUP1 SWAP2 POP POP PUSH1 0x1 SWAP1 SUB SWAP1 PUSH1 0x0 MSTORE PUSH1 0x20 PUSH1 0x0 KECCAK256 ADD PUSH1 0x0 SWAP1 SWAP2 SWAP1 SWAP2 SWAP1 SWAP2 POP SSTORE PUSH1 0x3 PUSH1 0x1E SWAP1 DUP1 PUSH1 0x1 DUP2 SLOAD ADD DUP1 DUP3 SSTORE DUP1 SWAP2 POP POP PUSH1 0x1 SWAP1 SUB SWAP1 PUSH1 0x0 MSTORE PUSH1 0x20 PUSH1 0x0 KECCAK256 ADD PUSH1 0x0 SWAP1 SWAP2 SWAP1 SWAP2 SWAP1 SWAP2 POP SSTORE PUSH1 0x14 SLOAD PUSH1 0x4 DUP4 PUSH1 0x40 MLOAD PUSH3 0x141 SWAP2 SWAP1 PUSH3 0xAEA JUMP JUMPDEST SWAP1 DUP2 MSTORE PUSH1 0x20 ADD PUSH1 0x40 MLOAD DUP1 SWAP2 SUB SWAP1 KECCAK256 DUP2 SWAP1 SSTORE POP PUSH3 0x166 CALLER DUP4 DUP4 PUSH3 0x357 PUSH1 0x20 SHL PUSH1 0x20 SHR JUMP JUMPDEST PUSH1 0x3 PUSH1 0x5 PUSH1 0x0 PUSH1 0xC DUP2 LT PUSH3 0x180 JUMPI PUSH3 0x17F PUSH3 0xB03 JUMP JUMPDEST JUMPDEST ADD DUP2 SWAP1 SSTORE POP PUSH1 0x2 PUSH1 0x5 PUSH1 0x1 PUSH1 0xC DUP2 LT PUSH3 0x19F JUMPI PUSH3 0x19E PUSH3 0xB03 JUMP JUMPDEST JUMPDEST ADD DUP2 SWAP1 SSTORE POP PUSH1 0x4 PUSH1 0x5 PUSH1 0x2 PUSH1 0xC DUP2 LT PUSH3 0x1BE JUMPI PUSH3 0x1BD PUSH3 0xB03 JUMP JUMPDEST JUMPDEST ADD DUP2 SWAP1 SSTORE POP PUSH1 0x5 DUP1 PUSH1 0x3 PUSH1 0xC DUP2 LT PUSH3 0x1DC JUMPI PUSH3 0x1DB PUSH3 0xB03 JUMP JUMPDEST JUMPDEST ADD DUP2 SWAP1 SSTORE POP PUSH1 0x3 PUSH1 0x5 PUSH1 0x4 PUSH1 0xC DUP2 LT PUSH3 0x1FB JUMPI PUSH3 0x1FA PUSH3 0xB03 JUMP JUMPDEST JUMPDEST ADD DUP2 SWAP1 SSTORE POP PUSH1 0xC PUSH1 0x5 DUP1 PUSH1 0xC DUP2 LT PUSH3 0x219 JUMPI PUSH3 0x218 PUSH3 0xB03 JUMP JUMPDEST JUMPDEST ADD DUP2 SWAP1 SSTORE POP PUSH1 0xB PUSH1 0x5 PUSH1 0x6 PUSH1 0xC DUP2 LT PUSH3 0x238 JUMPI PUSH3 0x237 PUSH3 0xB03 JUMP JUMPDEST JUMPDEST ADD DUP2 SWAP1 SSTORE POP PUSH1 0xC PUSH1 0x5 PUSH1 0x7 PUSH1 0xC DUP2 LT PUSH3 0x257 JUMPI PUSH3 0x256 PUSH3 0xB03 JUMP JUMPDEST JUMPDEST ADD DUP2 SWAP1 SSTORE POP PUSH1 0xF PUSH1 0x5 PUSH1 0x8 PUSH1 0xC DUP2 LT PUSH3 0x276 JUMPI PUSH3 0x275 PUSH3 0xB03 JUMP JUMPDEST JUMPDEST ADD DUP2 SWAP1 SSTORE POP PUSH1 0xE PUSH1 0x5 PUSH1 0x9 PUSH1 0xC DUP2 LT PUSH3 0x295 JUMPI PUSH3 0x294 PUSH3 0xB03 JUMP JUMPDEST JUMPDEST ADD DUP2 SWAP1 SSTORE POP PUSH1 0xB PUSH1 0x5 PUSH1 0xA PUSH1 0xC DUP2 LT PUSH3 0x2B4 JUMPI PUSH3 0x2B3 PUSH3 0xB03 JUMP JUMPDEST JUMPDEST ADD DUP2 SWAP1 SSTORE POP PUSH1 0xD PUSH1 0x5 PUSH1 0xB PUSH1 0xC DUP2 LT PUSH3 0x2D3 JUMPI PUSH3 0x2D2 PUSH3 0xB03 JUMP JUMPDEST JUMPDEST ADD DUP2 SWAP1 SSTORE POP PUSH1 0x1 PUSH1 0x11 PUSH1 0x0 PUSH1 0x3 DUP2 LT PUSH3 0x2F2 JUMPI PUSH3 0x2F1 PUSH3 0xB03 JUMP JUMPDEST JUMPDEST ADD DUP2 SWAP1 SSTORE POP PUSH1 0x2 PUSH1 0x11 PUSH1 0x1 PUSH1 0x3 DUP2 LT PUSH3 0x311 JUMPI PUSH3 0x310 PUSH3 0xB03 JUMP JUMPDEST JUMPDEST ADD DUP2 SWAP1 SSTORE POP PUSH1 0x3 PUSH1 0x11 PUSH1 0x2 PUSH1 0x3 DUP2 LT PUSH3 0x330 JUMPI PUSH3 0x32F PUSH3 0xB03 JUMP JUMPDEST JUMPDEST ADD DUP2 SWAP1 SSTORE POP PUSH1 0x14 PUSH1 0x0 DUP2 SLOAD DUP1 SWAP3 SWAP2 SWAP1 PUSH3 0x34A SWAP1 PUSH3 0xB61 JUMP JUMPDEST SWAP2 SWAP1 POP SSTORE POP POP POP PUSH3 0xBAE JUMP JUMPDEST PUSH1 0x0 DUP1 SLOAD SWAP1 PUSH2 0x100 EXP SWAP1 DIV PUSH20 0xFFFFFFFFFFFFFFFFFFFFFFFFFFFFFFFFFFFFFFFF AND PUSH20 0xFFFFFFFFFFFFFFFFFFFFFFFFFFFFFFFFFFFFFFFF AND CALLER PUSH20 0xFFFFFFFFFFFFFFFFFFFFFFFFFFFFFFFFFFFFFFFF AND EQ PUSH3 0x3B0 JUMPI PUSH1 0x0 DUP1 REVERT JUMPDEST PUSH1 0x0 JUMPDEST PUSH1 0x1E DUP2 LT ISZERO PUSH3 0x546 JUMPI PUSH1 0x0 PUSH1 0x18 SLOAD SWAP1 POP PUSH1 0x40 MLOAD DUP1 PUSH2 0x100 ADD PUSH1 0x40 MSTORE DUP1 DUP7 PUSH20 0xFFFFFFFFFFFFFFFFFFFFFFFFFFFFFFFFFFFFFFFF AND DUP2 MSTORE PUSH1 0x20 ADD DUP6 DUP2 MSTORE PUSH1 0x20 ADD DUP5 DUP2 MSTORE PUSH1 0x20 ADD DUP4 DUP2 MSTORE PUSH1 0x20 ADD PUSH1 0x40 MLOAD DUP1 PUSH1 0x20 ADD PUSH1 0x40 MSTORE DUP1 PUSH1 0x0 DUP2 MSTORE POP DUP2 MSTORE PUSH1 0x20 ADD PUSH1 0x0 ISZERO ISZERO DUP2 MSTORE PUSH1 0x20 ADD PUSH1 0x1 ISZERO ISZERO DUP2 MSTORE PUSH1 0x20 ADD PUSH1 0x0 DUP2 MSTORE POP PUSH1 0x17 PUSH1 0x0 DUP4 DUP2 MSTORE PUSH1 0x20 ADD SWAP1 DUP2 MSTORE PUSH1 0x20 ADD PUSH1 0x0 KECCAK256 PUSH1 0x0 DUP3 ADD MLOAD DUP2 PUSH1 0x0 ADD PUSH1 0x0 PUSH2 0x100 EXP DUP2 SLOAD DUP2 PUSH20 0xFFFFFFFFFFFFFFFFFFFFFFFFFFFFFFFFFFFFFFFF MUL NOT AND SWAP1 DUP4 PUSH20 0xFFFFFFFFFFFFFFFFFFFFFFFFFFFFFFFFFFFFFFFF AND MUL OR SWAP1 SSTORE POP PUSH1 0x20 DUP3 ADD MLOAD DUP2 PUSH1 0x1 ADD SWAP1 DUP2 PUSH3 0x49B SWAP2 SWAP1 PUSH3 0x9C1 JUMP JUMPDEST POP PUSH1 0x40 DUP3 ADD MLOAD DUP2 PUSH1 0x2 ADD SSTORE PUSH1 0x60 DUP3 ADD MLOAD DUP2 PUSH1 0x3 ADD SSTORE PUSH1 0x80 DUP3 ADD MLOAD DUP2 PUSH1 0x4 ADD SWAP1 DUP2 PUSH3 0x4C7 SWAP2 SWAP1 PUSH3 0x9C1 JUMP JUMPDEST POP PUSH1 0xA0 DUP3 ADD MLOAD DUP2 PUSH1 0x5 ADD PUSH1 0x0 PUSH2 0x100 EXP DUP2 SLOAD DUP2 PUSH1 0xFF MUL NOT AND SWAP1 DUP4 ISZERO ISZERO MUL OR SWAP1 SSTORE POP PUSH1 0xC0 DUP3 ADD MLOAD DUP2 PUSH1 0x5 ADD PUSH1 0x1 PUSH2 0x100 EXP DUP2 SLOAD DUP2 PUSH1 0xFF MUL NOT AND SWAP1 DUP4 ISZERO ISZERO MUL OR SWAP1 SSTORE POP PUSH1 0xE0 DUP3 ADD MLOAD DUP2 PUSH1 0x6 ADD SSTORE SWAP1 POP POP PUSH1 0x18 PUSH1 0x0 DUP2 SLOAD DUP1 SWAP3 SWAP2 SWAP1 PUSH3 0x52A SWAP1 PUSH3 0xB61 JUMP JUMPDEST SWAP2 SWAP1 POP SSTORE POP POP DUP1 DUP1 PUSH3 0x53D SWAP1 PUSH3 0xB61 JUMP JUMPDEST SWAP2 POP POP PUSH3 0x3B3 JUMP JUMPDEST POP POP POP POP JUMP JUMPDEST PUSH1 0x0 PUSH1 0x40 MLOAD SWAP1 POP SWAP1 JUMP JUMPDEST PUSH1 0x0 DUP1 REVERT JUMPDEST PUSH1 0x0 DUP1 REVERT JUMPDEST PUSH1 0x0 DUP1 REVERT JUMPDEST PUSH1 0x0 DUP1 REVERT JUMPDEST PUSH1 0x0 PUSH1 0x1F NOT PUSH1 0x1F DUP4 ADD AND SWAP1 POP SWAP2 SWAP1 POP JUMP JUMPDEST PUSH32 0x4E487B7100000000000000000000000000000000000000000000000000000000 PUSH1 0x0 MSTORE PUSH1 0x41 PUSH1 0x4 MSTORE PUSH1 0x24 PUSH1 0x0 REVERT JUMPDEST PUSH3 0x5B5 DUP3 PUSH3 0x56A JUMP JUMPDEST DUP2 ADD DUP2 DUP2 LT PUSH8 0xFFFFFFFFFFFFFFFF DUP3 GT OR ISZERO PUSH3 0x5D7 JUMPI PUSH3 0x5D6 PUSH3 0x57B JUMP JUMPDEST JUMPDEST DUP1 PUSH1 0x40 MSTORE POP POP POP JUMP JUMPDEST PUSH1 0x0 PUSH3 0x5EC PUSH3 0x54C JUMP JUMPDEST SWAP1 POP PUSH3 0x5FA DUP3 DUP3 PUSH3 0x5AA JUMP JUMPDEST SWAP2 SWAP1 POP JUMP JUMPDEST PUSH1 0x0 PUSH8 0xFFFFFFFFFFFFFFFF DUP3 GT ISZERO PUSH3 0x61D JUMPI PUSH3 0x61C PUSH3 0x57B JUMP JUMPDEST JUMPDEST PUSH3 0x628 DUP3 PUSH3 0x56A JUMP JUMPDEST SWAP1 POP PUSH1 0x20 DUP2 ADD SWAP1 POP SWAP2 SWAP1 POP JUMP JUMPDEST PUSH1 0x0 JUMPDEST DUP4 DUP2 LT ISZERO PUSH3 0x655 JUMPI DUP1 DUP3 ADD MLOAD DUP2 DUP5 ADD MSTORE PUSH1 0x20 DUP2 ADD SWAP1 POP PUSH3 0x638 JUMP JUMPDEST PUSH1 0x0 DUP5 DUP5 ADD MSTORE POP POP POP POP JUMP JUMPDEST PUSH1 0x0 PUSH3 0x678 PUSH3 0x672 DUP5 PUSH3 0x5FF JUMP JUMPDEST PUSH3 0x5E0 JUMP JUMPDEST SWAP1 POP DUP3 DUP2 MSTORE PUSH1 0x20 DUP2 ADD DUP5 DUP5 DUP5 ADD GT ISZERO PUSH3 0x697 JUMPI PUSH3 0x696 PUSH3 0x565 JUMP JUMPDEST JUMPDEST PUSH3 0x6A4 DUP5 DUP3 DUP6 PUSH3 0x635 JUMP JUMPDEST POP SWAP4 SWAP3 POP POP POP JUMP JUMPDEST PUSH1 0x0 DUP3 PUSH1 0x1F DUP4 ADD SLT PUSH3 0x6C4 JUMPI PUSH3 0x6C3 PUSH3 0x560 JUMP JUMPDEST JUMPDEST DUP2 MLOAD PUSH3 0x6D6 DUP5 DUP3 PUSH1 0x20 DUP7 ADD PUSH3 0x661 JUMP JUMPDEST SWAP2 POP POP SWAP3 SWAP2 POP POP JUMP JUMPDEST PUSH1 0x0 DUP2 SWAP1 POP SWAP2 SWAP1 POP JUMP JUMPDEST PUSH3 0x6F4 DUP2 PUSH3 0x6DF JUMP JUMPDEST DUP2 EQ PUSH3 0x700 JUMPI PUSH1 0x0 DUP1 REVERT JUMPDEST POP JUMP JUMPDEST PUSH1 0x0 DUP2 MLOAD SWAP1 POP PUSH3 0x714 DUP2 PUSH3 0x6E9 JUMP JUMPDEST SWAP3 SWAP2 POP POP JUMP JUMPDEST PUSH1 0x0 DUP1 PUSH1 0x40 DUP4 DUP6 SUB SLT ISZERO PUSH3 0x734 JUMPI PUSH3 0x733 PUSH3 0x556 JUMP JUMPDEST JUMPDEST PUSH1 0x0 DUP4 ADD MLOAD PUSH8 0xFFFFFFFFFFFFFFFF DUP2 GT ISZERO PUSH3 0x755 JUMPI PUSH3 0x754 PUSH3 0x55B JUMP JUMPDEST JUMPDEST PUSH3 0x763 DUP6 DUP3 DUP7 ADD PUSH3 0x6AC JUMP JUMPDEST SWAP3 POP POP PUSH1 0x20 PUSH3 0x776 DUP6 DUP3 DUP7 ADD PUSH3 0x703 JUMP JUMPDEST SWAP2 POP POP SWAP3 POP SWAP3 SWAP1 POP JUMP JUMPDEST PUSH1 0x0 DUP2 MLOAD SWAP1 POP SWAP2 SWAP1 POP JUMP JUMPDEST PUSH32 0x4E487B7100000000000000000000000000000000000000000000000000000000 PUSH1 0x0 MSTORE PUSH1 0x22 PUSH1 0x4 MSTORE PUSH1 0x24 PUSH1 0x0 REVERT JUMPDEST PUSH1 0x0 PUSH1 0x2 DUP3 DIV SWAP1 POP PUSH1 0x1 DUP3 AND DUP1 PUSH3 0x7D3 JUMPI PUSH1 0x7F DUP3 AND SWAP2 POP JUMPDEST PUSH1 0x20 DUP3 LT DUP2 SUB PUSH3 0x7E9 JUMPI PUSH3 0x7E8 PUSH3 0x78B JUMP JUMPDEST JUMPDEST POP SWAP2 SWAP1 POP JUMP JUMPDEST PUSH1 0x0 DUP2 SWAP1 POP DUP2 PUSH1 0x0 MSTORE PUSH1 0x20 PUSH1 0x0 KECCAK256 SWAP1 POP SWAP2 SWAP1 POP JUMP JUMPDEST PUSH1 0x0 PUSH1 0x20 PUSH1 0x1F DUP4 ADD DIV SWAP1 POP SWAP2 SWAP1 POP JUMP JUMPDEST PUSH1 0x0 DUP3 DUP3 SHL SWAP1 POP SWAP3 SWAP2 POP POP JUMP JUMPDEST PUSH1 0x0 PUSH1 0x8 DUP4 MUL PUSH3 0x853 PUSH32 0xFFFFFFFFFFFFFFFFFFFFFFFFFFFFFFFFFFFFFFFFFFFFFFFFFFFFFFFFFFFFFFFF DUP3 PUSH3 0x814 JUMP JUMPDEST PUSH3 0x85F DUP7 DUP4 PUSH3 0x814 JUMP JUMPDEST SWAP6 POP DUP1 NOT DUP5 AND SWAP4 POP DUP1 DUP7 AND DUP5 OR SWAP3 POP POP POP SWAP4 SWAP3 POP POP POP JUMP JUMPDEST PUSH1 0x0 DUP2 SWAP1 POP SWAP2 SWAP1 POP JUMP JUMPDEST PUSH1 0x0 PUSH3 0x8A2 PUSH3 0x89C PUSH3 0x896 DUP5 PUSH3 0x6DF JUMP JUMPDEST PUSH3 0x877 JUMP JUMPDEST PUSH3 0x6DF JUMP JUMPDEST SWAP1 POP SWAP2 SWAP1 POP JUMP JUMPDEST PUSH1 0x0 DUP2 SWAP1 POP SWAP2 SWAP1 POP JUMP JUMPDEST PUSH3 0x8BE DUP4 PUSH3 0x881 JUMP JUMPDEST PUSH3 0x8D6 PUSH3 0x8CD DUP3 PUSH3 0x8A9 JUMP JUMPDEST DUP5 DUP5 SLOAD PUSH3 0x821 JUMP JUMPDEST DUP3 SSTORE POP POP POP POP JUMP JUMPDEST PUSH1 0x0 SWAP1 JUMP JUMPDEST PUSH3 0x8ED PUSH3 0x8DE JUMP JUMPDEST PUSH3 0x8FA DUP2 DUP5 DUP5 PUSH3 0x8B3 JUMP JUMPDEST POP POP POP JUMP JUMPDEST JUMPDEST DUP2 DUP2 LT ISZERO PUSH3 0x922 JUMPI PUSH3 0x916 PUSH1 0x0 DUP3 PUSH3 0x8E3 JUMP JUMPDEST PUSH1 0x1 DUP2 ADD SWAP1 POP PUSH3 0x900 JUMP JUMPDEST POP POP JUMP JUMPDEST PUSH1 0x1F DUP3 GT ISZERO PUSH3 0x971 JUMPI PUSH3 0x93B DUP2 PUSH3 0x7EF JUMP JUMPDEST PUSH3 0x946 DUP5 PUSH3 0x804 JUMP JUMPDEST DUP2 ADD PUSH1 0x20 DUP6 LT ISZERO PUSH3 0x956 JUMPI DUP2 SWAP1 POP JUMPDEST PUSH3 0x96E PUSH3 0x965 DUP6 PUSH3 0x804 JUMP JUMPDEST DUP4 ADD DUP3 PUSH3 0x8FF JUMP JUMPDEST POP POP JUMPDEST POP POP POP JUMP JUMPDEST PUSH1 0x0 DUP3 DUP3 SHR SWAP1 POP SWAP3 SWAP2 POP POP JUMP JUMPDEST PUSH1 0x0 PUSH3 0x996 PUSH1 0x0 NOT DUP5 PUSH1 0x8 MUL PUSH3 0x976 JUMP JUMPDEST NOT DUP1 DUP4 AND SWAP2 POP POP SWAP3 SWAP2 POP POP JUMP JUMPDEST PUSH1 0x0 PUSH3 0x9B1 DUP4 DUP4 PUSH3 0x983 JUMP JUMPDEST SWAP2 POP DUP3 PUSH1 0x2 MUL DUP3 OR SWAP1 POP SWAP3 SWAP2 POP POP JUMP JUMPDEST PUSH3 0x9CC DUP3 PUSH3 0x780 JUMP JUMPDEST PUSH8 0xFFFFFFFFFFFFFFFF DUP2 GT ISZERO PUSH3 0x9E8 JUMPI PUSH3 0x9E7 PUSH3 0x57B JUMP JUMPDEST JUMPDEST PUSH3 0x9F4 DUP3 SLOAD PUSH3 0x7BA JUMP JUMPDEST PUSH3 0xA01 DUP3 DUP3 DUP6 PUSH3 0x926 JUMP JUMPDEST PUSH1 0x0 PUSH1 0x20 SWAP1 POP PUSH1 0x1F DUP4 GT PUSH1 0x1 DUP2 EQ PUSH3 0xA39 JUMPI PUSH1 0x0 DUP5 ISZERO PUSH3 0xA24 JUMPI DUP3 DUP8 ADD MLOAD SWAP1 POP JUMPDEST PUSH3 0xA30 DUP6 DUP3 PUSH3 0x9A3 JUMP JUMPDEST DUP7 SSTORE POP PUSH3 0xAA0 JUMP JUMPDEST PUSH1 0x1F NOT DUP5 AND PUSH3 0xA49 DUP7 PUSH3 0x7EF JUMP JUMPDEST PUSH1 0x0 JUMPDEST DUP3 DUP2 LT ISZERO PUSH3 0xA73 JUMPI DUP5 DUP10 ADD MLOAD DUP3 SSTORE PUSH1 0x1 DUP3 ADD SWAP2 POP PUSH1 0x20 DUP6 ADD SWAP5 POP PUSH1 0x20 DUP2 ADD SWAP1 POP PUSH3 0xA4C JUMP JUMPDEST DUP7 DUP4 LT ISZERO PUSH3 0xA93 JUMPI DUP5 DUP10 ADD MLOAD PUSH3 0xA8F PUSH1 0x1F DUP10 AND DUP3 PUSH3 0x983 JUMP JUMPDEST DUP4 SSTORE POP JUMPDEST PUSH1 0x1 PUSH1 0x2 DUP9 MUL ADD DUP9 SSTORE POP POP POP JUMPDEST POP POP POP POP POP POP JUMP JUMPDEST PUSH1 0x0 DUP2 SWAP1 POP SWAP3 SWAP2 POP POP JUMP JUMPDEST PUSH1 0x0 PUSH3 0xAC0 DUP3 PUSH3 0x780 JUMP JUMPDEST PUSH3 0xACC DUP2 DUP6 PUSH3 0xAA8 JUMP JUMPDEST SWAP4 POP PUSH3 0xADE DUP2 DUP6 PUSH1 0x20 DUP7 ADD PUSH3 0x635 JUMP JUMPDEST DUP1 DUP5 ADD SWAP2 POP POP SWAP3 SWAP2 POP POP JUMP JUMPDEST PUSH1 0x0 PUSH3 0xAF8 DUP3 DUP5 PUSH3 0xAB3 JUMP JUMPDEST SWAP2 POP DUP2 SWAP1 POP SWAP3 SWAP2 POP POP JUMP JUMPDEST PUSH32 0x4E487B7100000000000000000000000000000000000000000000000000000000 PUSH1 0x0 MSTORE PUSH1 0x32 PUSH1 0x4 MSTORE PUSH1 0x24 PUSH1 0x0 REVERT JUMPDEST PUSH32 0x4E487B7100000000000000000000000000000000000000000000000000000000 PUSH1 0x0 MSTORE PUSH1 0x11 PUSH1 0x4 MSTORE PUSH1 0x24 PUSH1 0x0 REVERT JUMPDEST PUSH1 0x0 PUSH3 0xB6E DUP3 PUSH3 0x6DF JUMP JUMPDEST SWAP2 POP PUSH32 0xFFFFFFFFFFFFFFFFFFFFFFFFFFFFFFFFFFFFFFFFFFFFFFFFFFFFFFFFFFFFFFFF DUP3 SUB PUSH3 0xBA3 JUMPI PUSH3 0xBA2 PUSH3 0xB32 JUMP JUMPDEST JUMPDEST PUSH1 0x1 DUP3 ADD SWAP1 POP SWAP2 SWAP1 POP JUMP JUMPDEST PUSH2 0x2766 DUP1 PUSH3 0xBBE PUSH1 0x0 CODECOPY PUSH1 0x0 RETURN INVALID PUSH1 0x80 PUSH1 0x40 MSTORE PUSH1 0x4 CALLDATASIZE LT PUSH2 0x109 JUMPI PUSH1 0x0 CALLDATALOAD PUSH1 0xE0 SHR DUP1 PUSH4 0x695DC67E GT PUSH2 0x95 JUMPI DUP1 PUSH4 0xAD03FE70 GT PUSH2 0x64 JUMPI DUP1 PUSH4 0xAD03FE70 EQ PUSH2 0x3BE JUMPI DUP1 PUSH4 0xC8705544 EQ PUSH2 0x3FB JUMPI DUP1 PUSH4 0xCB2CC82A EQ PUSH2 0x426 JUMPI DUP1 PUSH4 0xEA6E358E EQ PUSH2 0x463 JUMPI DUP1 PUSH4 0xFF203BC0 EQ PUSH2 0x47F JUMPI PUSH2 0x109 JUMP JUMPDEST DUP1 PUSH4 0x695DC67E EQ PUSH2 0x302 JUMPI DUP1 PUSH4 0x8DD4BA2E EQ PUSH2 0x33F JUMPI DUP1 PUSH4 0x908921FC EQ PUSH2 0x37C JUMPI DUP1 PUSH4 0xAAFC8D74 EQ PUSH2 0x3A7 JUMPI PUSH2 0x109 JUMP JUMPDEST DUP1 PUSH4 0x195C1445 GT PUSH2 0xDC JUMPI DUP1 PUSH4 0x195C1445 EQ PUSH2 0x1F7 JUMPI DUP1 PUSH4 0x2427E59E EQ PUSH2 0x234 JUMPI DUP1 PUSH4 0x3B33C702 EQ PUSH2 0x271 JUMPI DUP1 PUSH4 0x5E583E37 EQ PUSH2 0x2AE JUMPI DUP1 PUSH4 0x6031A52F EQ PUSH2 0x2D7 JUMPI PUSH2 0x109 JUMP JUMPDEST DUP1 PUSH4 0x33FAB35 EQ PUSH2 0x10E JUMPI DUP1 PUSH4 0x6661ABD EQ PUSH2 0x152 JUMPI DUP1 PUSH4 0x7819BD6 EQ PUSH2 0x17D JUMPI DUP1 PUSH4 0x1165E6AB EQ PUSH2 0x1BA JUMPI JUMPDEST PUSH1 0x0 DUP1 REVERT JUMPDEST CALLVALUE DUP1 ISZERO PUSH2 0x11A JUMPI PUSH1 0x0 DUP1 REVERT JUMPDEST POP PUSH2 0x135 PUSH1 0x4 DUP1 CALLDATASIZE SUB DUP2 ADD SWAP1 PUSH2 0x130 SWAP2 SWAP1 PUSH2 0x17BD JUMP JUMPDEST PUSH2 0x4AA JUMP JUMPDEST PUSH1 0x40 MLOAD PUSH2 0x149 SWAP9 SWAP8 SWAP7 SWAP6 SWAP5 SWAP4 SWAP3 SWAP2 SWAP1 PUSH2 0x18E5 JUMP JUMPDEST PUSH1 0x40 MLOAD DUP1 SWAP2 SUB SWAP1 RETURN JUMPDEST CALLVALUE DUP1 ISZERO PUSH2 0x15E JUMPI PUSH1 0x0 DUP1 REVERT JUMPDEST POP PUSH2 0x167 PUSH2 0x63C JUMP JUMPDEST PUSH1 0x40 MLOAD PUSH2 0x174 SWAP2 SWAP1 PUSH2 0x1971 JUMP JUMPDEST PUSH1 0x40 MLOAD DUP1 SWAP2 SUB SWAP1 RETURN JUMPDEST CALLVALUE DUP1 ISZERO PUSH2 0x189 JUMPI PUSH1 0x0 DUP1 REVERT JUMPDEST POP PUSH2 0x1A4 PUSH1 0x4 DUP1 CALLDATASIZE SUB DUP2 ADD SWAP1 PUSH2 0x19F SWAP2 SWAP1 PUSH2 0x1AED JUMP JUMPDEST PUSH2 0x642 JUMP JUMPDEST PUSH1 0x40 MLOAD PUSH2 0x1B1 SWAP2 SWAP1 PUSH2 0x1971 JUMP JUMPDEST PUSH1 0x40 MLOAD DUP1 SWAP2 SUB SWAP1 RETURN JUMPDEST CALLVALUE DUP1 ISZERO PUSH2 0x1C6 JUMPI PUSH1 0x0 DUP1 REVERT JUMPDEST POP PUSH2 0x1E1 PUSH1 0x4 DUP1 CALLDATASIZE SUB DUP2 ADD SWAP1 PUSH2 0x1DC SWAP2 SWAP1 PUSH2 0x1B9C JUMP JUMPDEST PUSH2 0x800 JUMP JUMPDEST PUSH1 0x40 MLOAD PUSH2 0x1EE SWAP2 SWAP1 PUSH2 0x1BC9 JUMP JUMPDEST PUSH1 0x40 MLOAD DUP1 SWAP2 SUB SWAP1 RETURN JUMPDEST CALLVALUE DUP1 ISZERO PUSH2 0x203 JUMPI PUSH1 0x0 DUP1 REVERT JUMPDEST POP PUSH2 0x21E PUSH1 0x4 DUP1 CALLDATASIZE SUB DUP2 ADD SWAP1 PUSH2 0x219 SWAP2 SWAP1 PUSH2 0x17BD JUMP JUMPDEST PUSH2 0x89A JUMP JUMPDEST PUSH1 0x40 MLOAD PUSH2 0x22B SWAP2 SWAP1 PUSH2 0x1971 JUMP JUMPDEST PUSH1 0x40 MLOAD DUP1 SWAP2 SUB SWAP1 RETURN JUMPDEST CALLVALUE DUP1 ISZERO PUSH2 0x240 JUMPI PUSH1 0x0 DUP1 REVERT JUMPDEST POP PUSH2 0x25B PUSH1 0x4 DUP1 CALLDATASIZE SUB DUP2 ADD SWAP1 PUSH2 0x256 SWAP2 SWAP1 PUSH2 0x1BE4 JUMP JUMPDEST PUSH2 0x8BE JUMP JUMPDEST PUSH1 0x40 MLOAD PUSH2 0x268 SWAP2 SWAP1 PUSH2 0x1971 JUMP JUMPDEST PUSH1 0x40 MLOAD DUP1 SWAP2 SUB SWAP1 RETURN JUMPDEST CALLVALUE DUP1 ISZERO PUSH2 0x27D JUMPI PUSH1 0x0 DUP1 REVERT JUMPDEST POP PUSH2 0x298 PUSH1 0x4 DUP1 CALLDATASIZE SUB DUP2 ADD SWAP1 PUSH2 0x293 SWAP2 SWAP1 PUSH2 0x17BD JUMP JUMPDEST PUSH2 0x8EC JUMP JUMPDEST PUSH1 0x40 MLOAD PUSH2 0x2A5 SWAP2 SWAP1 PUSH2 0x1971 JUMP JUMPDEST PUSH1 0x40 MLOAD DUP1 SWAP2 SUB SWAP1 RETURN JUMPDEST CALLVALUE DUP1 ISZERO PUSH2 0x2BA JUMPI PUSH1 0x0 DUP1 REVERT JUMPDEST POP PUSH2 0x2D5 PUSH1 0x4 DUP1 CALLDATASIZE SUB DUP2 ADD SWAP1 PUSH2 0x2D0 SWAP2 SWAP1 PUSH2 0x1C2D JUMP JUMPDEST PUSH2 0x910 JUMP JUMPDEST STOP JUMPDEST CALLVALUE DUP1 ISZERO PUSH2 0x2E3 JUMPI PUSH1 0x0 DUP1 REVERT JUMPDEST POP PUSH2 0x2EC PUSH2 0xB48 JUMP JUMPDEST PUSH1 0x40 MLOAD PUSH2 0x2F9 SWAP2 SWAP1 PUSH2 0x1971 JUMP JUMPDEST PUSH1 0x40 MLOAD DUP1 SWAP2 SUB SWAP1 RETURN JUMPDEST CALLVALUE DUP1 ISZERO PUSH2 0x30E JUMPI PUSH1 0x0 DUP1 REVERT JUMPDEST POP PUSH2 0x329 PUSH1 0x4 DUP1 CALLDATASIZE SUB DUP2 ADD SWAP1 PUSH2 0x324 SWAP2 SWAP1 PUSH2 0x17BD JUMP JUMPDEST PUSH2 0xB4E JUMP JUMPDEST PUSH1 0x40 MLOAD PUSH2 0x336 SWAP2 SWAP1 PUSH2 0x1971 JUMP JUMPDEST PUSH1 0x40 MLOAD DUP1 SWAP2 SUB SWAP1 RETURN JUMPDEST CALLVALUE DUP1 ISZERO PUSH2 0x34B JUMPI PUSH1 0x0 DUP1 REVERT JUMPDEST POP PUSH2 0x366 PUSH1 0x4 DUP1 CALLDATASIZE SUB DUP2 ADD SWAP1 PUSH2 0x361 SWAP2 SWAP1 PUSH2 0x17BD JUMP JUMPDEST PUSH2 0xB69 JUMP JUMPDEST PUSH1 0x40 MLOAD PUSH2 0x373 SWAP2 SWAP1 PUSH2 0x1C89 JUMP JUMPDEST PUSH1 0x40 MLOAD DUP1 SWAP2 SUB SWAP1 RETURN JUMPDEST CALLVALUE DUP1 ISZERO PUSH2 0x388 JUMPI PUSH1 0x0 DUP1 REVERT JUMPDEST POP PUSH2 0x391 PUSH2 0xC15 JUMP JUMPDEST PUSH1 0x40 MLOAD PUSH2 0x39E SWAP2 SWAP1 PUSH2 0x1CAB JUMP JUMPDEST PUSH1 0x40 MLOAD DUP1 SWAP2 SUB SWAP1 RETURN JUMPDEST CALLVALUE DUP1 ISZERO PUSH2 0x3B3 JUMPI PUSH1 0x0 DUP1 REVERT JUMPDEST POP PUSH2 0x3BC PUSH2 0xC39 JUMP JUMPDEST STOP JUMPDEST CALLVALUE DUP1 ISZERO PUSH2 0x3CA JUMPI PUSH1 0x0 DUP1 REVERT JUMPDEST POP PUSH2 0x3E5 PUSH1 0x4 DUP1 CALLDATASIZE SUB DUP2 ADD SWAP1 PUSH2 0x3E0 SWAP2 SWAP1 PUSH2 0x1B9C JUMP JUMPDEST PUSH2 0xD37 JUMP JUMPDEST PUSH1 0x40 MLOAD PUSH2 0x3F2 SWAP2 SWAP1 PUSH2 0x1EB6 JUMP JUMPDEST PUSH1 0x40 MLOAD DUP1 SWAP2 SUB SWAP1 RETURN JUMPDEST CALLVALUE DUP1 ISZERO PUSH2 0x407 JUMPI PUSH1 0x0 DUP1 REVERT JUMPDEST POP PUSH2 0x410 PUSH2 0x1137 JUMP JUMPDEST PUSH1 0x40 MLOAD PUSH2 0x41D SWAP2 SWAP1 PUSH2 0x1971 JUMP JUMPDEST PUSH1 0x40 MLOAD DUP1 SWAP2 SUB SWAP1 RETURN JUMPDEST CALLVALUE DUP1 ISZERO PUSH2 0x432 JUMPI PUSH1 0x0 DUP1 REVERT JUMPDEST POP PUSH2 0x44D PUSH1 0x4 DUP1 CALLDATASIZE SUB DUP2 ADD SWAP1 PUSH2 0x448 SWAP2 SWAP1 PUSH2 0x17BD JUMP JUMPDEST PUSH2 0x113D JUMP JUMPDEST PUSH1 0x40 MLOAD PUSH2 0x45A SWAP2 SWAP1 PUSH2 0x1971 JUMP JUMPDEST PUSH1 0x40 MLOAD DUP1 SWAP2 SUB SWAP1 RETURN JUMPDEST PUSH2 0x47D PUSH1 0x4 DUP1 CALLDATASIZE SUB DUP2 ADD SWAP1 PUSH2 0x478 SWAP2 SWAP1 PUSH2 0x1AED JUMP JUMPDEST PUSH2 0x1158 JUMP JUMPDEST STOP JUMPDEST CALLVALUE DUP1 ISZERO PUSH2 0x48B JUMPI PUSH1 0x0 DUP1 REVERT JUMPDEST POP PUSH2 0x494 PUSH2 0x1517 JUMP JUMPDEST PUSH1 0x40 MLOAD PUSH2 0x4A1 SWAP2 SWAP1 PUSH2 0x1BC9 JUMP JUMPDEST PUSH1 0x40 MLOAD DUP1 SWAP2 SUB SWAP1 RETURN JUMPDEST PUSH1 0x17 PUSH1 0x20 MSTORE DUP1 PUSH1 0x0 MSTORE PUSH1 0x40 PUSH1 0x0 KECCAK256 PUSH1 0x0 SWAP2 POP SWAP1 POP DUP1 PUSH1 0x0 ADD PUSH1 0x0 SWAP1 SLOAD SWAP1 PUSH2 0x100 EXP SWAP1 DIV PUSH20 0xFFFFFFFFFFFFFFFFFFFFFFFFFFFFFFFFFFFFFFFF AND SWAP1 DUP1 PUSH1 0x1 ADD DUP1 SLOAD PUSH2 0x4F3 SWAP1 PUSH2 0x1F07 JUMP JUMPDEST DUP1 PUSH1 0x1F ADD PUSH1 0x20 DUP1 SWAP2 DIV MUL PUSH1 0x20 ADD PUSH1 0x40 MLOAD SWAP1 DUP2 ADD PUSH1 0x40 MSTORE DUP1 SWAP3 SWAP2 SWAP1 DUP2 DUP2 MSTORE PUSH1 0x20 ADD DUP3 DUP1 SLOAD PUSH2 0x51F SWAP1 PUSH2 0x1F07 JUMP JUMPDEST DUP1 ISZERO PUSH2 0x56C JUMPI DUP1 PUSH1 0x1F LT PUSH2 0x541 JUMPI PUSH2 0x100 DUP1 DUP4 SLOAD DIV MUL DUP4 MSTORE SWAP2 PUSH1 0x20 ADD SWAP2 PUSH2 0x56C JUMP JUMPDEST DUP3 ADD SWAP2 SWAP1 PUSH1 0x0 MSTORE PUSH1 0x20 PUSH1 0x0 KECCAK256 SWAP1 JUMPDEST DUP2 SLOAD DUP2 MSTORE SWAP1 PUSH1 0x1 ADD SWAP1 PUSH1 0x20 ADD DUP1 DUP4 GT PUSH2 0x54F JUMPI DUP3 SWAP1 SUB PUSH1 0x1F AND DUP3 ADD SWAP2 JUMPDEST POP POP POP POP POP SWAP1 DUP1 PUSH1 0x2 ADD SLOAD SWAP1 DUP1 PUSH1 0x3 ADD SLOAD SWAP1 DUP1 PUSH1 0x4 ADD DUP1 SLOAD PUSH2 0x58D SWAP1 PUSH2 0x1F07 JUMP JUMPDEST DUP1 PUSH1 0x1F ADD PUSH1 0x20 DUP1 SWAP2 DIV MUL PUSH1 0x20 ADD PUSH1 0x40 MLOAD SWAP1 DUP2 ADD PUSH1 0x40 MSTORE DUP1 SWAP3 SWAP2 SWAP1 DUP2 DUP2 MSTORE PUSH1 0x20 ADD DUP3 DUP1 SLOAD PUSH2 0x5B9 SWAP1 PUSH2 0x1F07 JUMP JUMPDEST DUP1 ISZERO PUSH2 0x606 JUMPI DUP1 PUSH1 0x1F LT PUSH2 0x5DB JUMPI PUSH2 0x100 DUP1 DUP4 SLOAD DIV MUL DUP4 MSTORE SWAP2 PUSH1 0x20 ADD SWAP2 PUSH2 0x606 JUMP JUMPDEST DUP3 ADD SWAP2 SWAP1 PUSH1 0x0 MSTORE PUSH1 0x20 PUSH1 0x0 KECCAK256 SWAP1 JUMPDEST DUP2 SLOAD DUP2 MSTORE SWAP1 PUSH1 0x1 ADD SWAP1 PUSH1 0x20 ADD DUP1 DUP4 GT PUSH2 0x5E9 JUMPI DUP3 SWAP1 SUB PUSH1 0x1F AND DUP3 ADD SWAP2 JUMPDEST POP POP POP POP POP SWAP1 DUP1 PUSH1 0x5 ADD PUSH1 0x0 SWAP1 SLOAD SWAP1 PUSH2 0x100 EXP SWAP1 DIV PUSH1 0xFF AND SWAP1 DUP1 PUSH1 0x5 ADD PUSH1 0x1 SWAP1 SLOAD SWAP1 PUSH2 0x100 EXP SWAP1 DIV PUSH1 0xFF AND SWAP1 DUP1 PUSH1 0x6 ADD SLOAD SWAP1 POP DUP9 JUMP JUMPDEST PUSH1 0x14 SLOAD DUP2 JUMP JUMPDEST PUSH1 0x0 DUP5 PUSH1 0x40 MLOAD PUSH1 0x20 ADD PUSH2 0x655 SWAP2 SWAP1 PUSH2 0x1F74 JUMP JUMPDEST PUSH1 0x40 MLOAD PUSH1 0x20 DUP2 DUP4 SUB SUB DUP2 MSTORE SWAP1 PUSH1 0x40 MSTORE DUP1 MLOAD SWAP1 PUSH1 0x20 ADD KECCAK256 PUSH1 0x1 PUSH1 0x4 DUP8 PUSH1 0x40 MLOAD PUSH2 0x67D SWAP2 SWAP1 PUSH2 0x1F74 JUMP JUMPDEST SWAP1 DUP2 MSTORE PUSH1 0x20 ADD PUSH1 0x40 MLOAD DUP1 SWAP2 SUB SWAP1 KECCAK256 SLOAD DUP2 SLOAD DUP2 LT PUSH2 0x69D JUMPI PUSH2 0x69C PUSH2 0x1F8B JUMP JUMPDEST JUMPDEST SWAP1 PUSH1 0x0 MSTORE PUSH1 0x20 PUSH1 0x0 KECCAK256 ADD PUSH1 0x40 MLOAD PUSH1 0x20 ADD PUSH2 0x6B7 SWAP2 SWAP1 PUSH2 0x2052 JUMP JUMPDEST PUSH1 0x40 MLOAD PUSH1 0x20 DUP2 DUP4 SUB SUB DUP2 MSTORE SWAP1 PUSH1 0x40 MSTORE DUP1 MLOAD SWAP1 PUSH1 0x20 ADD KECCAK256 EQ PUSH2 0x70D JUMPI PUSH1 0x40 MLOAD PUSH32 0x8C379A000000000000000000000000000000000000000000000000000000000 DUP2 MSTORE PUSH1 0x4 ADD PUSH2 0x704 SWAP1 PUSH2 0x20DB JUMP JUMPDEST PUSH1 0x40 MLOAD DUP1 SWAP2 SUB SWAP1 REVERT JUMPDEST PUSH1 0x0 PUSH1 0x11 PUSH1 0x1 DUP6 PUSH2 0x71E SWAP2 SWAP1 PUSH2 0x212A JUMP JUMPDEST PUSH1 0x3 DUP2 LT PUSH2 0x72F JUMPI PUSH2 0x72E PUSH2 0x1F8B JUMP JUMPDEST JUMPDEST ADD SLOAD SWAP1 POP PUSH1 0x0 PUSH1 0x5 PUSH1 0x1 DUP8 PUSH2 0x744 SWAP2 SWAP1 PUSH2 0x212A JUMP JUMPDEST PUSH1 0xC DUP2 LT PUSH2 0x755 JUMPI PUSH2 0x754 PUSH2 0x1F8B JUMP JUMPDEST JUMPDEST ADD SLOAD SWAP1 POP PUSH1 0x0 DUP3 PUSH1 0x2 PUSH1 0x4 DUP11 PUSH1 0x40 MLOAD PUSH2 0x76E SWAP2 SWAP1 PUSH2 0x1F74 JUMP JUMPDEST SWAP1 DUP2 MSTORE PUSH1 0x20 ADD PUSH1 0x40 MLOAD DUP1 SWAP2 SUB SWAP1 KECCAK256 SLOAD DUP2 SLOAD DUP2 LT PUSH2 0x78E JUMPI PUSH2 0x78D PUSH2 0x1F8B JUMP JUMPDEST JUMPDEST SWAP1 PUSH1 0x0 MSTORE PUSH1 0x20 PUSH1 0x0 KECCAK256 ADD SLOAD PUSH2 0x7A3 SWAP2 SWAP1 PUSH2 0x215E JUMP JUMPDEST SWAP1 POP DUP5 ISZERO PUSH2 0x7BB JUMPI PUSH1 0x2 DUP2 PUSH2 0x7B8 SWAP2 SWAP1 PUSH2 0x215E JUMP JUMPDEST SWAP1 POP JUMPDEST DUP2 PUSH1 0xA GT ISZERO PUSH2 0x7DA JUMPI DUP2 DUP2 PUSH2 0x7D0 SWAP2 SWAP1 PUSH2 0x21CF JUMP JUMPDEST SWAP4 POP POP POP POP PUSH2 0x7F8 JUMP JUMPDEST PUSH1 0xA DUP3 PUSH2 0x7E7 SWAP2 SWAP1 PUSH2 0x212A JUMP JUMPDEST DUP2 PUSH2 0x7F2 SWAP2 SWAP1 PUSH2 0x215E JUMP JUMPDEST SWAP4 POP POP POP POP JUMPDEST SWAP5 SWAP4 POP POP POP POP JUMP JUMPDEST PUSH1 0x0 DUP1 PUSH1 0x0 SWAP1 SLOAD SWAP1 PUSH2 0x100 EXP SWAP1 DIV PUSH20 0xFFFFFFFFFFFFFFFFFFFFFFFFFFFFFFFFFFFFFFFF AND PUSH20 0xFFFFFFFFFFFFFFFFFFFFFFFFFFFFFFFFFFFFFFFF AND DUP3 PUSH20 0xFFFFFFFFFFFFFFFFFFFFFFFFFFFFFFFFFFFFFFFF AND EQ PUSH2 0x891 JUMPI PUSH1 0x40 MLOAD PUSH32 0x8C379A000000000000000000000000000000000000000000000000000000000 DUP2 MSTORE PUSH1 0x4 ADD PUSH2 0x888 SWAP1 PUSH2 0x224C JUMP JUMPDEST PUSH1 0x40 MLOAD DUP1 SWAP2 SUB SWAP1 REVERT JUMPDEST PUSH1 0x1 SWAP1 POP SWAP2 SWAP1 POP JUMP JUMPDEST PUSH1 0x2 DUP2 DUP2 SLOAD DUP2 LT PUSH2 0x8AA JUMPI PUSH1 0x0 DUP1 REVERT JUMPDEST SWAP1 PUSH1 0x0 MSTORE PUSH1 0x20 PUSH1 0x0 KECCAK256 ADD PUSH1 0x0 SWAP2 POP SWAP1 POP SLOAD DUP2 JUMP JUMPDEST PUSH1 0x4 DUP2 DUP1 MLOAD PUSH1 0x20 DUP2 ADD DUP3 ADD DUP1 MLOAD DUP5 DUP3 MSTORE PUSH1 0x20 DUP4 ADD PUSH1 0x20 DUP6 ADD KECCAK256 DUP2 DUP4 MSTORE DUP1 SWAP6 POP POP POP POP POP POP PUSH1 0x0 SWAP2 POP SWAP1 POP SLOAD DUP2 JUMP JUMPDEST PUSH1 0x3 DUP2 DUP2 SLOAD DUP2 LT PUSH2 0x8FC JUMPI PUSH1 0x0 DUP1 REVERT JUMPDEST SWAP1 PUSH1 0x0 MSTORE PUSH1 0x20 PUSH1 0x0 KECCAK256 ADD PUSH1 0x0 SWAP2 POP SWAP1 POP SLOAD DUP2 JUMP JUMPDEST PUSH1 0x0 DUP1 SLOAD SWAP1 PUSH2 0x100 EXP SWAP1 DIV PUSH20 0xFFFFFFFFFFFFFFFFFFFFFFFFFFFFFFFFFFFFFFFF AND PUSH20 0xFFFFFFFFFFFFFFFFFFFFFFFFFFFFFFFFFFFFFFFF AND CALLER PUSH20 0xFFFFFFFFFFFFFFFFFFFFFFFFFFFFFFFFFFFFFFFF AND EQ PUSH2 0x968 JUMPI PUSH1 0x0 DUP1 REVERT JUMPDEST DUP2 PUSH1 0x40 MLOAD PUSH1 0x20 ADD PUSH2 0x979 SWAP2 SWAP1 PUSH2 0x1F74 JUMP JUMPDEST PUSH1 0x40 MLOAD PUSH1 0x20 DUP2 DUP4 SUB SUB DUP2 MSTORE SWAP1 PUSH1 0x40 MSTORE DUP1 MLOAD SWAP1 PUSH1 0x20 ADD KECCAK256 PUSH1 0x1 PUSH1 0x4 DUP5 PUSH1 0x40 MLOAD PUSH2 0x9A1 SWAP2 SWAP1 PUSH2 0x1F74 JUMP JUMPDEST SWAP1 DUP2 MSTORE PUSH1 0x20 ADD PUSH1 0x40 MLOAD DUP1 SWAP2 SUB SWAP1 KECCAK256 SLOAD DUP2 SLOAD DUP2 LT PUSH2 0x9C1 JUMPI PUSH2 0x9C0 PUSH2 0x1F8B JUMP JUMPDEST JUMPDEST SWAP1 PUSH1 0x0 MSTORE PUSH1 0x20 PUSH1 0x0 KECCAK256 ADD PUSH1 0x40 MLOAD PUSH1 0x20 ADD PUSH2 0x9DB SWAP2 SWAP1 PUSH2 0x2052 JUMP JUMPDEST PUSH1 0x40 MLOAD PUSH1 0x20 DUP2 DUP4 SUB SUB DUP2 MSTORE SWAP1 PUSH1 0x40 MSTORE DUP1 MLOAD SWAP1 PUSH1 0x20 ADD KECCAK256 SUB PUSH2 0xA31 JUMPI PUSH1 0x40 MLOAD PUSH32 0x8C379A000000000000000000000000000000000000000000000000000000000 DUP2 MSTORE PUSH1 0x4 ADD PUSH2 0xA28 SWAP1 PUSH2 0x22DE JUMP JUMPDEST PUSH1 0x40 MLOAD DUP1 SWAP2 SUB SWAP1 REVERT JUMPDEST PUSH1 0x1E DUP2 GT PUSH2 0xA74 JUMPI PUSH1 0x40 MLOAD PUSH32 0x8C379A000000000000000000000000000000000000000000000000000000000 DUP2 MSTORE PUSH1 0x4 ADD PUSH2 0xA6B SWAP1 PUSH2 0x2370 JUMP JUMPDEST PUSH1 0x40 MLOAD DUP1 SWAP2 SUB SWAP1 REVERT JUMPDEST PUSH2 0xA7F CALLER DUP4 DUP4 PUSH2 0x152A JUMP JUMPDEST PUSH1 0x1 DUP3 SWAP1 DUP1 PUSH1 0x1 DUP2 SLOAD ADD DUP1 DUP3 SSTORE DUP1 SWAP2 POP POP PUSH1 0x1 SWAP1 SUB SWAP1 PUSH1 0x0 MSTORE PUSH1 0x20 PUSH1 0x0 KECCAK256 ADD PUSH1 0x0 SWAP1 SWAP2 SWAP1 SWAP2 SWAP1 SWAP2 POP SWAP1 DUP2 PUSH2 0xAB3 SWAP2 SWAP1 PUSH2 0x2527 JUMP JUMPDEST POP PUSH1 0x2 DUP2 SWAP1 DUP1 PUSH1 0x1 DUP2 SLOAD ADD DUP1 DUP3 SSTORE DUP1 SWAP2 POP POP PUSH1 0x1 SWAP1 SUB SWAP1 PUSH1 0x0 MSTORE PUSH1 0x20 PUSH1 0x0 KECCAK256 ADD PUSH1 0x0 SWAP1 SWAP2 SWAP1 SWAP2 SWAP1 SWAP2 POP SSTORE PUSH1 0x14 SLOAD PUSH1 0x4 DUP4 PUSH1 0x40 MLOAD PUSH2 0xAF0 SWAP2 SWAP1 PUSH2 0x1F74 JUMP JUMPDEST SWAP1 DUP2 MSTORE PUSH1 0x20 ADD PUSH1 0x40 MLOAD DUP1 SWAP2 SUB SWAP1 KECCAK256 DUP2 SWAP1 SSTORE POP PUSH1 0x3 PUSH1 0x1E SWAP1 DUP1 PUSH1 0x1 DUP2 SLOAD ADD DUP1 DUP3 SSTORE DUP1 SWAP2 POP POP PUSH1 0x1 SWAP1 SUB SWAP1 PUSH1 0x0 MSTORE PUSH1 0x20 PUSH1 0x0 KECCAK256 ADD PUSH1 0x0 SWAP1 SWAP2 SWAP1 SWAP2 SWAP1 SWAP2 POP SSTORE PUSH1 0x14 PUSH1 0x0 DUP2 SLOAD DUP1 SWAP3 SWAP2 SWAP1 PUSH2 0xB3F SWAP1 PUSH2 0x25F9 JUMP JUMPDEST SWAP2 SWAP1 POP SSTORE POP POP POP JUMP JUMPDEST PUSH1 0x18 SLOAD DUP2 JUMP JUMPDEST PUSH1 0x11 DUP2 PUSH1 0x3 DUP2 LT PUSH2 0xB5E JUMPI PUSH1 0x0 DUP1 REVERT JUMPDEST ADD PUSH1 0x0 SWAP2 POP SWAP1 POP SLOAD DUP2 JUMP JUMPDEST PUSH1 0x1 DUP2 DUP2 SLOAD DUP2 LT PUSH2 0xB79 JUMPI PUSH1 0x0 DUP1 REVERT JUMPDEST SWAP1 PUSH1 0x0 MSTORE PUSH1 0x20 PUSH1 0x0 KECCAK256 ADD PUSH1 0x0 SWAP2 POP SWAP1 POP DUP1 SLOAD PUSH2 0xB94 SWAP1 PUSH2 0x1F07 JUMP JUMPDEST DUP1 PUSH1 0x1F ADD PUSH1 0x20 DUP1 SWAP2 DIV MUL PUSH1 0x20 ADD PUSH1 0x40 MLOAD SWAP1 DUP2 ADD PUSH1 0x40 MSTORE DUP1 SWAP3 SWAP2 SWAP1 DUP2 DUP2 MSTORE PUSH1 0x20 ADD DUP3 DUP1 SLOAD PUSH2 0xBC0 SWAP1 PUSH2 0x1F07 JUMP JUMPDEST DUP1 ISZERO PUSH2 0xC0D JUMPI DUP1 PUSH1 0x1F LT PUSH2 0xBE2 JUMPI PUSH2 0x100 DUP1 DUP4 SLOAD DIV MUL DUP4 MSTORE SWAP2 PUSH1 0x20 ADD SWAP2 PUSH2 0xC0D JUMP JUMPDEST DUP3 ADD SWAP2 SWAP1 PUSH1 0x0 MSTORE PUSH1 0x20 PUSH1 0x0 KECCAK256 SWAP1 JUMPDEST DUP2 SLOAD DUP2 MSTORE SWAP1 PUSH1 0x1 ADD SWAP1 PUSH1 0x20 ADD DUP1 DUP4 GT PUSH2 0xBF0 JUMPI DUP3 SWAP1 SUB PUSH1 0x1F AND DUP3 ADD SWAP2 JUMPDEST POP POP POP POP POP DUP2 JUMP JUMPDEST PUSH1 0x0 DUP1 SLOAD SWAP1 PUSH2 0x100 EXP SWAP1 DIV PUSH20 0xFFFFFFFFFFFFFFFFFFFFFFFFFFFFFFFFFFFFFFFF AND DUP2 JUMP JUMPDEST PUSH1 0x0 DUP1 SLOAD SWAP1 PUSH2 0x100 EXP SWAP1 DIV PUSH20 0xFFFFFFFFFFFFFFFFFFFFFFFFFFFFFFFFFFFFFFFF AND PUSH20 0xFFFFFFFFFFFFFFFFFFFFFFFFFFFFFFFFFFFFFFFF AND CALLER PUSH20 0xFFFFFFFFFFFFFFFFFFFFFFFFFFFFFFFFFFFFFFFF AND EQ PUSH2 0xC91 JUMPI PUSH1 0x0 DUP1 REVERT JUMPDEST PUSH1 0x0 DUP1 SLOAD SWAP1 PUSH2 0x100 EXP SWAP1 DIV PUSH20 0xFFFFFFFFFFFFFFFFFFFFFFFFFFFFFFFFFFFFFFFF AND PUSH20 0xFFFFFFFFFFFFFFFFFFFFFFFFFFFFFFFFFFFFFFFF AND PUSH2 0x8FC PUSH1 0xA PUSH1 0x9 PUSH1 0x16 SLOAD PUSH2 0xCDC SWAP2 SWAP1 PUSH2 0x215E JUMP JUMPDEST PUSH2 0xCE6 SWAP2 SWAP1 PUSH2 0x21CF JUMP JUMPDEST SWAP1 DUP2 ISZERO MUL SWAP1 PUSH1 0x40 MLOAD PUSH1 0x0 PUSH1 0x40 MLOAD DUP1 DUP4 SUB DUP2 DUP6 DUP9 DUP9 CALL SWAP4 POP POP POP POP ISZERO DUP1 ISZERO PUSH2 0xD11 JUMPI RETURNDATASIZE PUSH1 0x0 DUP1 RETURNDATACOPY RETURNDATASIZE PUSH1 0x0 REVERT JUMPDEST POP PUSH1 0x0 PUSH1 0x15 PUSH1 0x0 PUSH2 0x100 EXP DUP2 SLOAD DUP2 PUSH1 0xFF MUL NOT AND SWAP1 DUP4 ISZERO ISZERO MUL OR SWAP1 SSTORE POP PUSH1 0x0 PUSH1 0x16 DUP2 SWAP1 SSTORE POP JUMP JUMPDEST PUSH1 0x60 PUSH1 0x0 DUP1 JUMPDEST PUSH1 0x18 SLOAD DUP2 LT ISZERO PUSH2 0xE00 JUMPI DUP4 PUSH20 0xFFFFFFFFFFFFFFFFFFFFFFFFFFFFFFFFFFFFFFFF AND PUSH1 0x17 PUSH1 0x0 DUP4 DUP2 MSTORE PUSH1 0x20 ADD SWAP1 DUP2 MSTORE PUSH1 0x20 ADD PUSH1 0x0 KECCAK256 PUSH1 0x0 ADD PUSH1 0x0 SWAP1 SLOAD SWAP1 PUSH2 0x100 EXP SWAP1 DIV PUSH20 0xFFFFFFFFFFFFFFFFFFFFFFFFFFFFFFFFFFFFFFFF AND PUSH20 0xFFFFFFFFFFFFFFFFFFFFFFFFFFFFFFFFFFFFFFFF AND EQ DUP1 ISZERO PUSH2 0xDD9 JUMPI POP PUSH1 0x17 PUSH1 0x0 DUP3 DUP2 MSTORE PUSH1 0x20 ADD SWAP1 DUP2 MSTORE PUSH1 0x20 ADD PUSH1 0x0 KECCAK256 PUSH1 0x5 ADD PUSH1 0x1 SWAP1 SLOAD SWAP1 PUSH2 0x100 EXP SWAP1 DIV PUSH1 0xFF AND ISZERO JUMPDEST ISZERO PUSH2 0xDED JUMPI DUP2 DUP1 PUSH2 0xDE9 SWAP1 PUSH2 0x25F9 JUMP JUMPDEST SWAP3 POP POP JUMPDEST DUP1 DUP1 PUSH2 0xDF8 SWAP1 PUSH2 0x25F9 JUMP JUMPDEST SWAP2 POP POP PUSH2 0xD3D JUMP JUMPDEST POP PUSH1 0x0 DUP2 PUSH8 0xFFFFFFFFFFFFFFFF DUP2 GT ISZERO PUSH2 0xE1D JUMPI PUSH2 0xE1C PUSH2 0x1996 JUMP JUMPDEST JUMPDEST PUSH1 0x40 MLOAD SWAP1 DUP1 DUP3 MSTORE DUP1 PUSH1 0x20 MUL PUSH1 0x20 ADD DUP3 ADD PUSH1 0x40 MSTORE DUP1 ISZERO PUSH2 0xE56 JUMPI DUP2 PUSH1 0x20 ADD JUMPDEST PUSH2 0xE43 PUSH2 0x1714 JUMP JUMPDEST DUP2 MSTORE PUSH1 0x20 ADD SWAP1 PUSH1 0x1 SWAP1 SUB SWAP1 DUP2 PUSH2 0xE3B JUMPI SWAP1 POP JUMPDEST POP SWAP1 POP PUSH1 0x0 DUP1 JUMPDEST PUSH1 0x18 SLOAD DUP2 LT ISZERO PUSH2 0x112B JUMPI DUP6 PUSH20 0xFFFFFFFFFFFFFFFFFFFFFFFFFFFFFFFFFFFFFFFF AND PUSH1 0x17 PUSH1 0x0 DUP4 DUP2 MSTORE PUSH1 0x20 ADD SWAP1 DUP2 MSTORE PUSH1 0x20 ADD PUSH1 0x0 KECCAK256 PUSH1 0x0 ADD PUSH1 0x0 SWAP1 SLOAD SWAP1 PUSH2 0x100 EXP SWAP1 DIV PUSH20 0xFFFFFFFFFFFFFFFFFFFFFFFFFFFFFFFFFFFFFFFF AND PUSH20 0xFFFFFFFFFFFFFFFFFFFFFFFFFFFFFFFFFFFFFFFF AND EQ DUP1 ISZERO PUSH2 0xEF9 JUMPI POP PUSH1 0x17 PUSH1 0x0 DUP3 DUP2 MSTORE PUSH1 0x20 ADD SWAP1 DUP2 MSTORE PUSH1 0x20 ADD PUSH1 0x0 KECCAK256 PUSH1 0x5 ADD PUSH1 0x1 SWAP1 SLOAD SWAP1 PUSH2 0x100 EXP SWAP1 DIV PUSH1 0xFF AND ISZERO JUMPDEST ISZERO PUSH2 0x1118 JUMPI PUSH1 0x17 PUSH1 0x0 DUP3 DUP2 MSTORE PUSH1 0x20 ADD SWAP1 DUP2 MSTORE PUSH1 0x20 ADD PUSH1 0x0 KECCAK256 PUSH1 0x40 MLOAD DUP1 PUSH2 0x100 ADD PUSH1 0x40 MSTORE SWAP1 DUP2 PUSH1 0x0 DUP3 ADD PUSH1 0x0 SWAP1 SLOAD SWAP1 PUSH2 0x100 EXP SWAP1 DIV PUSH20 0xFFFFFFFFFFFFFFFFFFFFFFFFFFFFFFFFFFFFFFFF AND PUSH20 0xFFFFFFFFFFFFFFFFFFFFFFFFFFFFFFFFFFFFFFFF AND PUSH20 0xFFFFFFFFFFFFFFFFFFFFFFFFFFFFFFFFFFFFFFFF AND DUP2 MSTORE PUSH1 0x20 ADD PUSH1 0x1 DUP3 ADD DUP1 SLOAD PUSH2 0xF83 SWAP1 PUSH2 0x1F07 JUMP JUMPDEST DUP1 PUSH1 0x1F ADD PUSH1 0x20 DUP1 SWAP2 DIV MUL PUSH1 0x20 ADD PUSH1 0x40 MLOAD SWAP1 DUP2 ADD PUSH1 0x40 MSTORE DUP1 SWAP3 SWAP2 SWAP1 DUP2 DUP2 MSTORE PUSH1 0x20 ADD DUP3 DUP1 SLOAD PUSH2 0xFAF SWAP1 PUSH2 0x1F07 JUMP JUMPDEST DUP1 ISZERO PUSH2 0xFFC JUMPI DUP1 PUSH1 0x1F LT PUSH2 0xFD1 JUMPI PUSH2 0x100 DUP1 DUP4 SLOAD DIV MUL DUP4 MSTORE SWAP2 PUSH1 0x20 ADD SWAP2 PUSH2 0xFFC JUMP JUMPDEST DUP3 ADD SWAP2 SWAP1 PUSH1 0x0 MSTORE PUSH1 0x20 PUSH1 0x0 KECCAK256 SWAP1 JUMPDEST DUP2 SLOAD DUP2 MSTORE SWAP1 PUSH1 0x1 ADD SWAP1 PUSH1 0x20 ADD DUP1 DUP4 GT PUSH2 0xFDF JUMPI DUP3 SWAP1 SUB PUSH1 0x1F AND DUP3 ADD SWAP2 JUMPDEST POP POP POP POP POP DUP2 MSTORE PUSH1 0x20 ADD PUSH1 0x2 DUP3 ADD SLOAD DUP2 MSTORE PUSH1 0x20 ADD PUSH1 0x3 DUP3 ADD SLOAD DUP2 MSTORE PUSH1 0x20 ADD PUSH1 0x4 DUP3 ADD DUP1 SLOAD PUSH2 0x1029 SWAP1 PUSH2 0x1F07 JUMP JUMPDEST DUP1 PUSH1 0x1F ADD PUSH1 0x20 DUP1 SWAP2 DIV MUL PUSH1 0x20 ADD PUSH1 0x40 MLOAD SWAP1 DUP2 ADD PUSH1 0x40 MSTORE DUP1 SWAP3 SWAP2 SWAP1 DUP2 DUP2 MSTORE PUSH1 0x20 ADD DUP3 DUP1 SLOAD PUSH2 0x1055 SWAP1 PUSH2 0x1F07 JUMP JUMPDEST DUP1 ISZERO PUSH2 0x10A2 JUMPI DUP1 PUSH1 0x1F LT PUSH2 0x1077 JUMPI PUSH2 0x100 DUP1 DUP4 SLOAD DIV MUL DUP4 MSTORE SWAP2 PUSH1 0x20 ADD SWAP2 PUSH2 0x10A2 JUMP JUMPDEST DUP3 ADD SWAP2 SWAP1 PUSH1 0x0 MSTORE PUSH1 0x20 PUSH1 0x0 KECCAK256 SWAP1 JUMPDEST DUP2 SLOAD DUP2 MSTORE SWAP1 PUSH1 0x1 ADD SWAP1 PUSH1 0x20 ADD DUP1 DUP4 GT PUSH2 0x1085 JUMPI DUP3 SWAP1 SUB PUSH1 0x1F AND DUP3 ADD SWAP2 JUMPDEST POP POP POP POP POP DUP2 MSTORE PUSH1 0x20 ADD PUSH1 0x5 DUP3 ADD PUSH1 0x0 SWAP1 SLOAD SWAP1 PUSH2 0x100 EXP SWAP1 DIV PUSH1 0xFF AND ISZERO ISZERO ISZERO ISZERO DUP2 MSTORE PUSH1 0x20 ADD PUSH1 0x5 DUP3 ADD PUSH1 0x1 SWAP1 SLOAD SWAP1 PUSH2 0x100 EXP SWAP1 DIV PUSH1 0xFF AND ISZERO ISZERO ISZERO ISZERO DUP2 MSTORE PUSH1 0x20 ADD PUSH1 0x6 DUP3 ADD SLOAD DUP2 MSTORE POP POP DUP4 DUP4 DUP2 MLOAD DUP2 LT PUSH2 0x10FE JUMPI PUSH2 0x10FD PUSH2 0x1F8B JUMP JUMPDEST JUMPDEST PUSH1 0x20 MUL PUSH1 0x20 ADD ADD DUP2 SWAP1 MSTORE POP DUP2 DUP1 PUSH2 0x1114 SWAP1 PUSH2 0x25F9 JUMP JUMPDEST SWAP3 POP POP JUMPDEST DUP1 DUP1 PUSH2 0x1123 SWAP1 PUSH2 0x25F9 JUMP JUMPDEST SWAP2 POP POP PUSH2 0xE5D JUMP JUMPDEST POP DUP2 SWAP4 POP POP POP POP SWAP2 SWAP1 POP JUMP JUMPDEST PUSH1 0x16 SLOAD DUP2 JUMP JUMPDEST PUSH1 0x5 DUP2 PUSH1 0xC DUP2 LT PUSH2 0x114D JUMPI PUSH1 0x0 DUP1 REVERT JUMPDEST ADD PUSH1 0x0 SWAP2 POP SWAP1 POP SLOAD DUP2 JUMP JUMPDEST PUSH2 0x1164 DUP5 DUP5 DUP5 DUP5 PUSH2 0x642 JUMP JUMPDEST CALLVALUE EQ PUSH2 0x116F JUMPI PUSH1 0x0 DUP1 REVERT JUMPDEST DUP4 PUSH1 0x40 MLOAD PUSH1 0x20 ADD PUSH2 0x1180 SWAP2 SWAP1 PUSH2 0x1F74 JUMP JUMPDEST PUSH1 0x40 MLOAD PUSH1 0x20 DUP2 DUP4 SUB SUB DUP2 MSTORE SWAP1 PUSH1 0x40 MSTORE DUP1 MLOAD SWAP1 PUSH1 0x20 ADD KECCAK256 PUSH1 0x1 PUSH1 0x4 DUP7 PUSH1 0x40 MLOAD PUSH2 0x11A8 SWAP2 SWAP1 PUSH2 0x1F74 JUMP JUMPDEST SWAP1 DUP2 MSTORE PUSH1 0x20 ADD PUSH1 0x40 MLOAD DUP1 SWAP2 SUB SWAP1 KECCAK256 SLOAD DUP2 SLOAD DUP2 LT PUSH2 0x11C8 JUMPI PUSH2 0x11C7 PUSH2 0x1F8B JUMP JUMPDEST JUMPDEST SWAP1 PUSH1 0x0 MSTORE PUSH1 0x20 PUSH1 0x0 KECCAK256 ADD PUSH1 0x40 MLOAD PUSH1 0x20 ADD PUSH2 0x11E2 SWAP2 SWAP1 PUSH2 0x2052 JUMP JUMPDEST PUSH1 0x40 MLOAD PUSH1 0x20 DUP2 DUP4 SUB SUB DUP2 MSTORE SWAP1 PUSH1 0x40 MSTORE DUP1 MLOAD SWAP1 PUSH1 0x20 ADD KECCAK256 EQ PUSH2 0x1238 JUMPI PUSH1 0x40 MLOAD PUSH32 0x8C379A000000000000000000000000000000000000000000000000000000000 DUP2 MSTORE PUSH1 0x4 ADD PUSH2 0x122F SWAP1 PUSH2 0x20DB JUMP JUMPDEST PUSH1 0x40 MLOAD DUP1 SWAP2 SUB SWAP1 REVERT JUMPDEST PUSH1 0x0 DUP1 JUMPDEST PUSH1 0x18 SLOAD DUP2 LT ISZERO PUSH2 0x1449 JUMPI PUSH1 0x0 PUSH1 0x17 PUSH1 0x0 DUP4 DUP2 MSTORE PUSH1 0x20 ADD SWAP1 DUP2 MSTORE PUSH1 0x20 ADD PUSH1 0x0 KECCAK256 SWAP1 POP DUP7 PUSH1 0x40 MLOAD PUSH1 0x20 ADD PUSH2 0x126E SWAP2 SWAP1 PUSH2 0x1F74 JUMP JUMPDEST PUSH1 0x40 MLOAD PUSH1 0x20 DUP2 DUP4 SUB SUB DUP2 MSTORE SWAP1 PUSH1 0x40 MSTORE DUP1 MLOAD SWAP1 PUSH1 0x20 ADD KECCAK256 DUP2 PUSH1 0x1 ADD PUSH1 0x40 MLOAD PUSH1 0x20 ADD PUSH2 0x1298 SWAP2 SWAP1 PUSH2 0x2052 JUMP JUMPDEST PUSH1 0x40 MLOAD PUSH1 0x20 DUP2 DUP4 SUB SUB DUP2 MSTORE SWAP1 PUSH1 0x40 MSTORE DUP1 MLOAD SWAP1 PUSH1 0x20 ADD KECCAK256 EQ DUP1 ISZERO PUSH2 0x12C9 JUMPI POP DUP1 PUSH1 0x5 ADD PUSH1 0x1 SWAP1 SLOAD SWAP1 PUSH2 0x100 EXP SWAP1 DIV PUSH1 0xFF AND JUMPDEST ISZERO PUSH2 0x1435 JUMPI CALLER DUP2 PUSH1 0x0 ADD PUSH1 0x0 PUSH2 0x100 EXP DUP2 SLOAD DUP2 PUSH20 0xFFFFFFFFFFFFFFFFFFFFFFFFFFFFFFFFFFFFFFFF MUL NOT AND SWAP1 DUP4 PUSH20 0xFFFFFFFFFFFFFFFFFFFFFFFFFFFFFFFFFFFFFFFF AND MUL OR SWAP1 SSTORE POP PUSH1 0x1 DUP6 EQ PUSH2 0x1398 JUMPI PUSH1 0x2 DUP6 EQ PUSH2 0x135C JUMPI PUSH1 0x40 MLOAD DUP1 PUSH1 0x40 ADD PUSH1 0x40 MSTORE DUP1 PUSH1 0x5 DUP2 MSTORE PUSH1 0x20 ADD PUSH32 0x4669727374000000000000000000000000000000000000000000000000000000 DUP2 MSTORE POP PUSH2 0x1393 JUMP JUMPDEST PUSH1 0x40 MLOAD DUP1 PUSH1 0x40 ADD PUSH1 0x40 MSTORE DUP1 PUSH1 0x8 DUP2 MSTORE PUSH1 0x20 ADD PUSH32 0x427573696E657373000000000000000000000000000000000000000000000000 DUP2 MSTORE POP JUMPDEST PUSH2 0x13CF JUMP JUMPDEST PUSH1 0x40 MLOAD DUP1 PUSH1 0x40 ADD PUSH1 0x40 MSTORE DUP1 PUSH1 0x7 DUP2 MSTORE PUSH1 0x20 ADD PUSH32 0x45636F6E6F6D7900000000000000000000000000000000000000000000000000 DUP2 MSTORE POP JUMPDEST DUP2 PUSH1 0x4 ADD SWAP1 DUP2 PUSH2 0x13DF SWAP2 SWAP1 PUSH2 0x2527 JUMP JUMPDEST POP DUP4 DUP2 PUSH1 0x5 ADD PUSH1 0x0 PUSH2 0x100 EXP DUP2 SLOAD DUP2 PUSH1 0xFF MUL NOT AND SWAP1 DUP4 ISZERO ISZERO MUL OR SWAP1 SSTORE POP PUSH1 0x0 DUP2 PUSH1 0x5 ADD PUSH1 0x1 PUSH2 0x100 EXP DUP2 SLOAD DUP2 PUSH1 0xFF MUL NOT AND SWAP1 DUP4 ISZERO ISZERO MUL OR SWAP1 SSTORE POP DUP6 DUP2 PUSH1 0x6 ADD DUP2 SWAP1 SSTORE POP CALLVALUE DUP2 PUSH1 0x2 ADD DUP2 SWAP1 SSTORE POP PUSH1 0x1 SWAP3 POP POP PUSH2 0x1449 JUMP JUMPDEST POP DUP1 DUP1 PUSH2 0x1441 SWAP1 PUSH2 0x25F9 JUMP JUMPDEST SWAP2 POP POP PUSH2 0x123C JUMP JUMPDEST POP DUP1 PUSH2 0x148A JUMPI PUSH1 0x40 MLOAD PUSH32 0x8C379A000000000000000000000000000000000000000000000000000000000 DUP2 MSTORE PUSH1 0x4 ADD PUSH2 0x1481 SWAP1 PUSH2 0x26B3 JUMP JUMPDEST PUSH1 0x40 MLOAD DUP1 SWAP2 SUB SWAP1 REVERT JUMPDEST PUSH1 0x3 PUSH1 0x4 DUP7 PUSH1 0x40 MLOAD PUSH2 0x149C SWAP2 SWAP1 PUSH2 0x1F74 JUMP JUMPDEST SWAP1 DUP2 MSTORE PUSH1 0x20 ADD PUSH1 0x40 MLOAD DUP1 SWAP2 SUB SWAP1 KECCAK256 SLOAD DUP2 SLOAD DUP2 LT PUSH2 0x14BC JUMPI PUSH2 0x14BB PUSH2 0x1F8B JUMP JUMPDEST JUMPDEST SWAP1 PUSH1 0x0 MSTORE PUSH1 0x20 PUSH1 0x0 KECCAK256 ADD PUSH1 0x0 DUP2 SLOAD DUP1 SWAP3 SWAP2 SWAP1 PUSH2 0x14D7 SWAP1 PUSH2 0x26D3 JUMP JUMPDEST SWAP2 SWAP1 POP SSTORE POP CALLVALUE PUSH1 0x16 PUSH1 0x0 DUP3 DUP3 SLOAD PUSH2 0x14EE SWAP2 SWAP1 PUSH2 0x26FC JUMP JUMPDEST SWAP3 POP POP DUP2 SWAP1 SSTORE POP PUSH1 0x1 PUSH1 0x15 PUSH1 0x0 PUSH2 0x100 EXP DUP2 SLOAD DUP2 PUSH1 0xFF MUL NOT AND SWAP1 DUP4 ISZERO ISZERO MUL OR SWAP1 SSTORE POP POP POP POP POP POP JUMP JUMPDEST PUSH1 0x15 PUSH1 0x0 SWAP1 SLOAD SWAP1 PUSH2 0x100 EXP SWAP1 DIV PUSH1 0xFF AND DUP2 JUMP JUMPDEST PUSH1 0x0 DUP1 SLOAD SWAP1 PUSH2 0x100 EXP SWAP1 DIV PUSH20 0xFFFFFFFFFFFFFFFFFFFFFFFFFFFFFFFFFFFFFFFF AND PUSH20 0xFFFFFFFFFFFFFFFFFFFFFFFFFFFFFFFFFFFFFFFF AND CALLER PUSH20 0xFFFFFFFFFFFFFFFFFFFFFFFFFFFFFFFFFFFFFFFF AND EQ PUSH2 0x1582 JUMPI PUSH1 0x0 DUP1 REVERT JUMPDEST PUSH1 0x0 JUMPDEST PUSH1 0x1E DUP2 LT ISZERO PUSH2 0x170E JUMPI PUSH1 0x0 PUSH1 0x18 SLOAD SWAP1 POP PUSH1 0x40 MLOAD DUP1 PUSH2 0x100 ADD PUSH1 0x40 MSTORE DUP1 DUP7 PUSH20 0xFFFFFFFFFFFFFFFFFFFFFFFFFFFFFFFFFFFFFFFF AND DUP2 MSTORE PUSH1 0x20 ADD DUP6 DUP2 MSTORE PUSH1 0x20 ADD DUP5 DUP2 MSTORE PUSH1 0x20 ADD DUP4 DUP2 MSTORE PUSH1 0x20 ADD PUSH1 0x40 MLOAD DUP1 PUSH1 0x20 ADD PUSH1 0x40 MSTORE DUP1 PUSH1 0x0 DUP2 MSTORE POP DUP2 MSTORE PUSH1 0x20 ADD PUSH1 0x0 ISZERO ISZERO DUP2 MSTORE PUSH1 0x20 ADD PUSH1 0x1 ISZERO ISZERO DUP2 MSTORE PUSH1 0x20 ADD PUSH1 0x0 DUP2 MSTORE POP PUSH1 0x17 PUSH1 0x0 DUP4 DUP2 MSTORE PUSH1 0x20 ADD SWAP1 DUP2 MSTORE PUSH1 0x20 ADD PUSH1 0x0 KECCAK256 PUSH1 0x0 DUP3 ADD MLOAD DUP2 PUSH1 0x0 ADD PUSH1 0x0 PUSH2 0x100 EXP DUP2 SLOAD DUP2 PUSH20 0xFFFFFFFFFFFFFFFFFFFFFFFFFFFFFFFFFFFFFFFF MUL NOT AND SWAP1 DUP4 PUSH20 0xFFFFFFFFFFFFFFFFFFFFFFFFFFFFFFFFFFFFFFFF AND MUL OR SWAP1 SSTORE POP PUSH1 0x20 DUP3 ADD MLOAD DUP2 PUSH1 0x1 ADD SWAP1 DUP2 PUSH2 0x166A SWAP2 SWAP1 PUSH2 0x2527 JUMP JUMPDEST POP PUSH1 0x40 DUP3 ADD MLOAD DUP2 PUSH1 0x2 ADD SSTORE PUSH1 0x60 DUP3 ADD MLOAD DUP2 PUSH1 0x3 ADD SSTORE PUSH1 0x80 DUP3 ADD MLOAD DUP2 PUSH1 0x4 ADD SWAP1 DUP2 PUSH2 0x1694 SWAP2 SWAP1 PUSH2 0x2527 JUMP JUMPDEST POP PUSH1 0xA0 DUP3 ADD MLOAD DUP2 PUSH1 0x5 ADD PUSH1 0x0 PUSH2 0x100 EXP DUP2 SLOAD DUP2 PUSH1 0xFF MUL NOT AND SWAP1 DUP4 ISZERO ISZERO MUL OR SWAP1 SSTORE POP PUSH1 0xC0 DUP3 ADD MLOAD DUP2 PUSH1 0x5 ADD PUSH1 0x1 PUSH2 0x100 EXP DUP2 SLOAD DUP2 PUSH1 0xFF MUL NOT AND SWAP1 DUP4 ISZERO ISZERO MUL OR SWAP1 SSTORE POP PUSH1 0xE0 DUP3 ADD MLOAD DUP2 PUSH1 0x6 ADD SSTORE SWAP1 POP POP PUSH1 0x18 PUSH1 0x0 DUP2 SLOAD DUP1 SWAP3 SWAP2 SWAP1 PUSH2 0x16F5 SWAP1 PUSH2 0x25F9 JUMP JUMPDEST SWAP2 SWAP1 POP SSTORE POP POP DUP1 DUP1 PUSH2 0x1706 SWAP1 PUSH2 0x25F9 JUMP JUMPDEST SWAP2 POP POP PUSH2 0x1585 JUMP JUMPDEST POP POP POP POP JUMP JUMPDEST PUSH1 0x40 MLOAD DUP1 PUSH2 0x100 ADD PUSH1 0x40 MSTORE DUP1 PUSH1 0x0 PUSH20 0xFFFFFFFFFFFFFFFFFFFFFFFFFFFFFFFFFFFFFFFF AND DUP2 MSTORE PUSH1 0x20 ADD PUSH1 0x60 DUP2 MSTORE PUSH1 0x20 ADD PUSH1 0x0 DUP2 MSTORE PUSH1 0x20 ADD PUSH1 0x0 DUP2 MSTORE PUSH1 0x20 ADD PUSH1 0x60 DUP2 MSTORE PUSH1 0x20 ADD PUSH1 0x0 ISZERO ISZERO DUP2 MSTORE PUSH1 0x20 ADD PUSH1 0x0 ISZERO ISZERO DUP2 MSTORE PUSH1 0x20 ADD PUSH1 0x0 DUP2 MSTORE POP SWAP1 JUMP JUMPDEST PUSH1 0x0 PUSH1 0x40 MLOAD SWAP1 POP SWAP1 JUMP JUMPDEST PUSH1 0x0 DUP1 REVERT JUMPDEST PUSH1 0x0 DUP1 REVERT JUMPDEST PUSH1 0x0 DUP2 SWAP1 POP SWAP2 SWAP1 POP JUMP JUMPDEST PUSH2 0x179A DUP2 PUSH2 0x1787 JUMP JUMPDEST DUP2 EQ PUSH2 0x17A5 JUMPI PUSH1 0x0 DUP1 REVERT JUMPDEST POP JUMP JUMPDEST PUSH1 0x0 DUP2 CALLDATALOAD SWAP1 POP PUSH2 0x17B7 DUP2 PUSH2 0x1791 JUMP JUMPDEST SWAP3 SWAP2 POP POP JUMP JUMPDEST PUSH1 0x0 PUSH1 0x20 DUP3 DUP5 SUB SLT ISZERO PUSH2 0x17D3 JUMPI PUSH2 0x17D2 PUSH2 0x177D JUMP JUMPDEST JUMPDEST PUSH1 0x0 PUSH2 0x17E1 DUP5 DUP3 DUP6 ADD PUSH2 0x17A8 JUMP JUMPDEST SWAP2 POP POP SWAP3 SWAP2 POP POP JUMP JUMPDEST PUSH1 0x0 PUSH20 0xFFFFFFFFFFFFFFFFFFFFFFFFFFFFFFFFFFFFFFFF DUP3 AND SWAP1 POP SWAP2 SWAP1 POP JUMP JUMPDEST PUSH1 0x0 PUSH2 0x1815 DUP3 PUSH2 0x17EA JUMP JUMPDEST SWAP1 POP SWAP2 SWAP1 POP JUMP JUMPDEST PUSH2 0x1825 DUP2 PUSH2 0x180A JUMP JUMPDEST DUP3 MSTORE POP POP JUMP JUMPDEST PUSH1 0x0 DUP2 MLOAD SWAP1 POP SWAP2 SWAP1 POP JUMP JUMPDEST PUSH1 0x0 DUP3 DUP3 MSTORE PUSH1 0x20 DUP3 ADD SWAP1 POP SWAP3 SWAP2 POP POP JUMP JUMPDEST PUSH1 0x0 JUMPDEST DUP4 DUP2 LT ISZERO PUSH2 0x1865 JUMPI DUP1 DUP3 ADD MLOAD DUP2 DUP5 ADD MSTORE PUSH1 0x20 DUP2 ADD SWAP1 POP PUSH2 0x184A JUMP JUMPDEST PUSH1 0x0 DUP5 DUP5 ADD MSTORE POP POP POP POP JUMP JUMPDEST PUSH1 0x0 PUSH1 0x1F NOT PUSH1 0x1F DUP4 ADD AND SWAP1 POP SWAP2 SWAP1 POP JUMP JUMPDEST PUSH1 0x0 PUSH2 0x188D DUP3 PUSH2 0x182B JUMP JUMPDEST PUSH2 0x1897 DUP2 DUP6 PUSH2 0x1836 JUMP JUMPDEST SWAP4 POP PUSH2 0x18A7 DUP2 DUP6 PUSH1 0x20 DUP7 ADD PUSH2 0x1847 JUMP JUMPDEST PUSH2 0x18B0 DUP2 PUSH2 0x1871 JUMP JUMPDEST DUP5 ADD SWAP2 POP POP SWAP3 SWAP2 POP POP JUMP JUMPDEST PUSH2 0x18C4 DUP2 PUSH2 0x1787 JUMP JUMPDEST DUP3 MSTORE POP POP JUMP JUMPDEST PUSH1 0x0 DUP2 ISZERO ISZERO SWAP1 POP SWAP2 SWAP1 POP JUMP JUMPDEST PUSH2 0x18DF DUP2 PUSH2 0x18CA JUMP JUMPDEST DUP3 MSTORE POP POP JUMP JUMPDEST PUSH1 0x0 PUSH2 0x100 DUP3 ADD SWAP1 POP PUSH2 0x18FB PUSH1 0x0 DUP4 ADD DUP12 PUSH2 0x181C JUMP JUMPDEST DUP2 DUP2 SUB PUSH1 0x20 DUP4 ADD MSTORE PUSH2 0x190D DUP2 DUP11 PUSH2 0x1882 JUMP JUMPDEST SWAP1 POP PUSH2 0x191C PUSH1 0x40 DUP4 ADD DUP10 PUSH2 0x18BB JUMP JUMPDEST PUSH2 0x1929 PUSH1 0x60 DUP4 ADD DUP9 PUSH2 0x18BB JUMP JUMPDEST DUP2 DUP2 SUB PUSH1 0x80 DUP4 ADD MSTORE PUSH2 0x193B DUP2 DUP8 PUSH2 0x1882 JUMP JUMPDEST SWAP1 POP PUSH2 0x194A PUSH1 0xA0 DUP4 ADD DUP7 PUSH2 0x18D6 JUMP JUMPDEST PUSH2 0x1957 PUSH1 0xC0 DUP4 ADD DUP6 PUSH2 0x18D6 JUMP JUMPDEST PUSH2 0x1964 PUSH1 0xE0 DUP4 ADD DUP5 PUSH2 0x18BB JUMP JUMPDEST SWAP10 SWAP9 POP POP POP POP POP POP POP POP POP JUMP JUMPDEST PUSH1 0x0 PUSH1 0x20 DUP3 ADD SWAP1 POP PUSH2 0x1986 PUSH1 0x0 DUP4 ADD DUP5 PUSH2 0x18BB JUMP JUMPDEST SWAP3 SWAP2 POP POP JUMP JUMPDEST PUSH1 0x0 DUP1 REVERT JUMPDEST PUSH1 0x0 DUP1 REVERT JUMPDEST PUSH32 0x4E487B7100000000000000000000000000000000000000000000000000000000 PUSH1 0x0 MSTORE PUSH1 0x41 PUSH1 0x4 MSTORE PUSH1 0x24 PUSH1 0x0 REVERT JUMPDEST PUSH2 0x19CE DUP3 PUSH2 0x1871 JUMP JUMPDEST DUP2 ADD DUP2 DUP2 LT PUSH8 0xFFFFFFFFFFFFFFFF DUP3 GT OR ISZERO PUSH2 0x19ED JUMPI PUSH2 0x19EC PUSH2 0x1996 JUMP JUMPDEST JUMPDEST DUP1 PUSH1 0x40 MSTORE POP POP POP JUMP JUMPDEST PUSH1 0x0 PUSH2 0x1A00 PUSH2 0x1773 JUMP JUMPDEST SWAP1 POP PUSH2 0x1A0C DUP3 DUP3 PUSH2 0x19C5 JUMP JUMPDEST SWAP2 SWAP1 POP JUMP JUMPDEST PUSH1 0x0 PUSH8 0xFFFFFFFFFFFFFFFF DUP3 GT ISZERO PUSH2 0x1A2C JUMPI PUSH2 0x1A2B PUSH2 0x1996 JUMP JUMPDEST JUMPDEST PUSH2 0x1A35 DUP3 PUSH2 0x1871 JUMP JUMPDEST SWAP1 POP PUSH1 0x20 DUP2 ADD SWAP1 POP SWAP2 SWAP1 POP JUMP JUMPDEST DUP3 DUP2 DUP4 CALLDATACOPY PUSH1 0x0 DUP4 DUP4 ADD MSTORE POP POP POP JUMP JUMPDEST PUSH1 0x0 PUSH2 0x1A64 PUSH2 0x1A5F DUP5 PUSH2 0x1A11 JUMP JUMPDEST PUSH2 0x19F6 JUMP JUMPDEST SWAP1 POP DUP3 DUP2 MSTORE PUSH1 0x20 DUP2 ADD DUP5 DUP5 DUP5 ADD GT ISZERO PUSH2 0x1A80 JUMPI PUSH2 0x1A7F PUSH2 0x1991 JUMP JUMPDEST JUMPDEST PUSH2 0x1A8B DUP5 DUP3 DUP6 PUSH2 0x1A42 JUMP JUMPDEST POP SWAP4 SWAP3 POP POP POP JUMP JUMPDEST PUSH1 0x0 DUP3 PUSH1 0x1F DUP4 ADD SLT PUSH2 0x1AA8 JUMPI PUSH2 0x1AA7 PUSH2 0x198C JUMP JUMPDEST JUMPDEST DUP2 CALLDATALOAD PUSH2 0x1AB8 DUP5 DUP3 PUSH1 0x20 DUP7 ADD PUSH2 0x1A51 JUMP JUMPDEST SWAP2 POP POP SWAP3 SWAP2 POP POP JUMP JUMPDEST PUSH2 0x1ACA DUP2 PUSH2 0x18CA JUMP JUMPDEST DUP2 EQ PUSH2 0x1AD5 JUMPI PUSH1 0x0 DUP1 REVERT JUMPDEST POP JUMP JUMPDEST PUSH1 0x0 DUP2 CALLDATALOAD SWAP1 POP PUSH2 0x1AE7 DUP2 PUSH2 0x1AC1 JUMP JUMPDEST SWAP3 SWAP2 POP POP JUMP JUMPDEST PUSH1 0x0 DUP1 PUSH1 0x0 DUP1 PUSH1 0x80 DUP6 DUP8 SUB SLT ISZERO PUSH2 0x1B07 JUMPI PUSH2 0x1B06 PUSH2 0x177D JUMP JUMPDEST JUMPDEST PUSH1 0x0 DUP6 ADD CALLDATALOAD PUSH8 0xFFFFFFFFFFFFFFFF DUP2 GT ISZERO PUSH2 0x1B25 JUMPI PUSH2 0x1B24 PUSH2 0x1782 JUMP JUMPDEST JUMPDEST PUSH2 0x1B31 DUP8 DUP3 DUP9 ADD PUSH2 0x1A93 JUMP JUMPDEST SWAP5 POP POP PUSH1 0x20 PUSH2 0x1B42 DUP8 DUP3 DUP9 ADD PUSH2 0x17A8 JUMP JUMPDEST SWAP4 POP POP PUSH1 0x40 PUSH2 0x1B53 DUP8 DUP3 DUP9 ADD PUSH2 0x17A8 JUMP JUMPDEST SWAP3 POP POP PUSH1 0x60 PUSH2 0x1B64 DUP8 DUP3 DUP9 ADD PUSH2 0x1AD8 JUMP JUMPDEST SWAP2 POP POP SWAP3 SWAP6 SWAP2 SWAP5 POP SWAP3 POP JUMP JUMPDEST PUSH2 0x1B79 DUP2 PUSH2 0x180A JUMP JUMPDEST DUP2 EQ PUSH2 0x1B84 JUMPI PUSH1 0x0 DUP1 REVERT JUMPDEST POP JUMP JUMPDEST PUSH1 0x0 DUP2 CALLDATALOAD SWAP1 POP PUSH2 0x1B96 DUP2 PUSH2 0x1B70 JUMP JUMPDEST SWAP3 SWAP2 POP POP JUMP JUMPDEST PUSH1 0x0 PUSH1 0x20 DUP3 DUP5 SUB SLT ISZERO PUSH2 0x1BB2 JUMPI PUSH2 0x1BB1 PUSH2 0x177D JUMP JUMPDEST JUMPDEST PUSH1 0x0 PUSH2 0x1BC0 DUP5 DUP3 DUP6 ADD PUSH2 0x1B87 JUMP JUMPDEST SWAP2 POP POP SWAP3 SWAP2 POP POP JUMP JUMPDEST PUSH1 0x0 PUSH1 0x20 DUP3 ADD SWAP1 POP PUSH2 0x1BDE PUSH1 0x0 DUP4 ADD DUP5 PUSH2 0x18D6 JUMP JUMPDEST SWAP3 SWAP2 POP POP JUMP JUMPDEST PUSH1 0x0 PUSH1 0x20 DUP3 DUP5 SUB SLT ISZERO PUSH2 0x1BFA JUMPI PUSH2 0x1BF9 PUSH2 0x177D JUMP JUMPDEST JUMPDEST PUSH1 0x0 DUP3 ADD CALLDATALOAD PUSH8 0xFFFFFFFFFFFFFFFF DUP2 GT ISZERO PUSH2 0x1C18 JUMPI PUSH2 0x1C17 PUSH2 0x1782 JUMP JUMPDEST JUMPDEST PUSH2 0x1C24 DUP5 DUP3 DUP6 ADD PUSH2 0x1A93 JUMP JUMPDEST SWAP2 POP POP SWAP3 SWAP2 POP POP JUMP JUMPDEST PUSH1 0x0 DUP1 PUSH1 0x40 DUP4 DUP6 SUB SLT ISZERO PUSH2 0x1C44 JUMPI PUSH2 0x1C43 PUSH2 0x177D JUMP JUMPDEST JUMPDEST PUSH1 0x0 DUP4 ADD CALLDATALOAD PUSH8 0xFFFFFFFFFFFFFFFF DUP2 GT ISZERO PUSH2 0x1C62 JUMPI PUSH2 0x1C61 PUSH2 0x1782 JUMP JUMPDEST JUMPDEST PUSH2 0x1C6E DUP6 DUP3 DUP7 ADD PUSH2 0x1A93 JUMP JUMPDEST SWAP3 POP POP PUSH1 0x20 PUSH2 0x1C7F DUP6 DUP3 DUP7 ADD PUSH2 0x17A8 JUMP JUMPDEST SWAP2 POP POP SWAP3 POP SWAP3 SWAP1 POP JUMP JUMPDEST PUSH1 0x0 PUSH1 0x20 DUP3 ADD SWAP1 POP DUP2 DUP2 SUB PUSH1 0x0 DUP4 ADD MSTORE PUSH2 0x1CA3 DUP2 DUP5 PUSH2 0x1882 JUMP JUMPDEST SWAP1 POP SWAP3 SWAP2 POP POP JUMP JUMPDEST PUSH1 0x0 PUSH1 0x20 DUP3 ADD SWAP1 POP PUSH2 0x1CC0 PUSH1 0x0 DUP4 ADD DUP5 PUSH2 0x181C JUMP JUMPDEST SWAP3 SWAP2 POP POP JUMP JUMPDEST PUSH1 0x0 DUP2 MLOAD SWAP1 POP SWAP2 SWAP1 POP JUMP JUMPDEST PUSH1 0x0 DUP3 DUP3 MSTORE PUSH1 0x20 DUP3 ADD SWAP1 POP SWAP3 SWAP2 POP POP JUMP JUMPDEST PUSH1 0x0 DUP2 SWAP1 POP PUSH1 0x20 DUP3 ADD SWAP1 POP SWAP2 SWAP1 POP JUMP JUMPDEST PUSH2 0x1CFB DUP2 PUSH2 0x180A JUMP JUMPDEST DUP3 MSTORE POP POP JUMP JUMPDEST PUSH1 0x0 DUP3 DUP3 MSTORE PUSH1 0x20 DUP3 ADD SWAP1 POP SWAP3 SWAP2 POP POP JUMP JUMPDEST PUSH1 0x0 PUSH2 0x1D1D DUP3 PUSH2 0x182B JUMP JUMPDEST PUSH2 0x1D27 DUP2 DUP6 PUSH2 0x1D01 JUMP JUMPDEST SWAP4 POP PUSH2 0x1D37 DUP2 DUP6 PUSH1 0x20 DUP7 ADD PUSH2 0x1847 JUMP JUMPDEST PUSH2 0x1D40 DUP2 PUSH2 0x1871 JUMP JUMPDEST DUP5 ADD SWAP2 POP POP SWAP3 SWAP2 POP POP JUMP JUMPDEST PUSH2 0x1D54 DUP2 PUSH2 0x1787 JUMP JUMPDEST DUP3 MSTORE POP POP JUMP JUMPDEST PUSH2 0x1D63 DUP2 PUSH2 0x18CA JUMP JUMPDEST DUP3 MSTORE POP POP JUMP JUMPDEST PUSH1 0x0 PUSH2 0x100 DUP4 ADD PUSH1 0x0 DUP4 ADD MLOAD PUSH2 0x1D82 PUSH1 0x0 DUP7 ADD DUP3 PUSH2 0x1CF2 JUMP JUMPDEST POP PUSH1 0x20 DUP4 ADD MLOAD DUP5 DUP3 SUB PUSH1 0x20 DUP7 ADD MSTORE PUSH2 0x1D9A DUP3 DUP3 PUSH2 0x1D12 JUMP JUMPDEST SWAP2 POP POP PUSH1 0x40 DUP4 ADD MLOAD PUSH2 0x1DAF PUSH1 0x40 DUP7 ADD DUP3 PUSH2 0x1D4B JUMP JUMPDEST POP PUSH1 0x60 DUP4 ADD MLOAD PUSH2 0x1DC2 PUSH1 0x60 DUP7 ADD DUP3 PUSH2 0x1D4B JUMP JUMPDEST POP PUSH1 0x80 DUP4 ADD MLOAD DUP5 DUP3 SUB PUSH1 0x80 DUP7 ADD MSTORE PUSH2 0x1DDA DUP3 DUP3 PUSH2 0x1D12 JUMP JUMPDEST SWAP2 POP POP PUSH1 0xA0 DUP4 ADD MLOAD PUSH2 0x1DEF PUSH1 0xA0 DUP7 ADD DUP3 PUSH2 0x1D5A JUMP JUMPDEST POP PUSH1 0xC0 DUP4 ADD MLOAD PUSH2 0x1E02 PUSH1 0xC0 DUP7 ADD DUP3 PUSH2 0x1D5A JUMP JUMPDEST POP PUSH1 0xE0 DUP4 ADD MLOAD PUSH2 0x1E15 PUSH1 0xE0 DUP7 ADD DUP3 PUSH2 0x1D4B JUMP JUMPDEST POP DUP1 SWAP2 POP POP SWAP3 SWAP2 POP POP JUMP JUMPDEST PUSH1 0x0 PUSH2 0x1E2C DUP4 DUP4 PUSH2 0x1D69 JUMP JUMPDEST SWAP1 POP SWAP3 SWAP2 POP POP JUMP JUMPDEST PUSH1 0x0 PUSH1 0x20 DUP3 ADD SWAP1 POP SWAP2 SWAP1 POP JUMP JUMPDEST PUSH1 0x0 PUSH2 0x1E4C DUP3 PUSH2 0x1CC6 JUMP JUMPDEST PUSH2 0x1E56 DUP2 DUP6 PUSH2 0x1CD1 JUMP JUMPDEST SWAP4 POP DUP4 PUSH1 0x20 DUP3 MUL DUP6 ADD PUSH2 0x1E68 DUP6 PUSH2 0x1CE2 JUMP JUMPDEST DUP1 PUSH1 0x0 JUMPDEST DUP6 DUP2 LT ISZERO PUSH2 0x1EA4 JUMPI DUP5 DUP5 SUB DUP10 MSTORE DUP2 MLOAD PUSH2 0x1E85 DUP6 DUP3 PUSH2 0x1E20 JUMP JUMPDEST SWAP5 POP PUSH2 0x1E90 DUP4 PUSH2 0x1E34 JUMP JUMPDEST SWAP3 POP PUSH1 0x20 DUP11 ADD SWAP10 POP POP PUSH1 0x1 DUP2 ADD SWAP1 POP PUSH2 0x1E6C JUMP JUMPDEST POP DUP3 SWAP8 POP DUP8 SWAP6 POP POP POP POP POP POP SWAP3 SWAP2 POP POP JUMP JUMPDEST PUSH1 0x0 PUSH1 0x20 DUP3 ADD SWAP1 POP DUP2 DUP2 SUB PUSH1 0x0 DUP4 ADD MSTORE PUSH2 0x1ED0 DUP2 DUP5 PUSH2 0x1E41 JUMP JUMPDEST SWAP1 POP SWAP3 SWAP2 POP POP JUMP JUMPDEST PUSH32 0x4E487B7100000000000000000000000000000000000000000000000000000000 PUSH1 0x0 MSTORE PUSH1 0x22 PUSH1 0x4 MSTORE PUSH1 0x24 PUSH1 0x0 REVERT JUMPDEST PUSH1 0x0 PUSH1 0x2 DUP3 DIV SWAP1 POP PUSH1 0x1 DUP3 AND DUP1 PUSH2 0x1F1F JUMPI PUSH1 0x7F DUP3 AND SWAP2 POP JUMPDEST PUSH1 0x20 DUP3 LT DUP2 SUB PUSH2 0x1F32 JUMPI PUSH2 0x1F31 PUSH2 0x1ED8 JUMP JUMPDEST JUMPDEST POP SWAP2 SWAP1 POP JUMP JUMPDEST PUSH1 0x0 DUP2 SWAP1 POP SWAP3 SWAP2 POP POP JUMP JUMPDEST PUSH1 0x0 PUSH2 0x1F4E DUP3 PUSH2 0x182B JUMP JUMPDEST PUSH2 0x1F58 DUP2 DUP6 PUSH2 0x1F38 JUMP JUMPDEST SWAP4 POP PUSH2 0x1F68 DUP2 DUP6 PUSH1 0x20 DUP7 ADD PUSH2 0x1847 JUMP JUMPDEST DUP1 DUP5 ADD SWAP2 POP POP SWAP3 SWAP2 POP POP JUMP JUMPDEST PUSH1 0x0 PUSH2 0x1F80 DUP3 DUP5 PUSH2 0x1F43 JUMP JUMPDEST SWAP2 POP DUP2 SWAP1 POP SWAP3 SWAP2 POP POP JUMP JUMPDEST PUSH32 0x4E487B7100000000000000000000000000000000000000000000000000000000 PUSH1 0x0 MSTORE PUSH1 0x32 PUSH1 0x4 MSTORE PUSH1 0x24 PUSH1 0x0 REVERT JUMPDEST PUSH1 0x0 DUP2 SWAP1 POP DUP2 PUSH1 0x0 MSTORE PUSH1 0x20 PUSH1 0x0 KECCAK256 SWAP1 POP SWAP2 SWAP1 POP JUMP JUMPDEST PUSH1 0x0 DUP2 SLOAD PUSH2 0x1FDC DUP2 PUSH2 0x1F07 JUMP JUMPDEST PUSH2 0x1FE6 DUP2 DUP7 PUSH2 0x1F38 JUMP JUMPDEST SWAP5 POP PUSH1 0x1 DUP3 AND PUSH1 0x0 DUP2 EQ PUSH2 0x2001 JUMPI PUSH1 0x1 DUP2 EQ PUSH2 0x2016 JUMPI PUSH2 0x2049 JUMP JUMPDEST PUSH1 0xFF NOT DUP4 AND DUP7 MSTORE DUP2 ISZERO ISZERO DUP3 MUL DUP7 ADD SWAP4 POP PUSH2 0x2049 JUMP JUMPDEST PUSH2 0x201F DUP6 PUSH2 0x1FBA JUMP JUMPDEST PUSH1 0x0 JUMPDEST DUP4 DUP2 LT ISZERO PUSH2 0x2041 JUMPI DUP2 SLOAD DUP2 DUP10 ADD MSTORE PUSH1 0x1 DUP3 ADD SWAP2 POP PUSH1 0x20 DUP2 ADD SWAP1 POP PUSH2 0x2022 JUMP JUMPDEST DUP4 DUP9 ADD SWAP6 POP POP POP JUMPDEST POP POP POP SWAP3 SWAP2 POP POP JUMP JUMPDEST PUSH1 0x0 PUSH2 0x205E DUP3 DUP5 PUSH2 0x1FCF JUMP JUMPDEST SWAP2 POP DUP2 SWAP1 POP SWAP3 SWAP2 POP POP JUMP JUMPDEST PUSH32 0x4572726F723A20546869732064657374696E6174696F6E20646F65736E277420 PUSH1 0x0 DUP3 ADD MSTORE PUSH32 0x6578697374210000000000000000000000000000000000000000000000000000 PUSH1 0x20 DUP3 ADD MSTORE POP JUMP JUMPDEST PUSH1 0x0 PUSH2 0x20C5 PUSH1 0x26 DUP4 PUSH2 0x1836 JUMP JUMPDEST SWAP2 POP PUSH2 0x20D0 DUP3 PUSH2 0x2069 JUMP JUMPDEST PUSH1 0x40 DUP3 ADD SWAP1 POP SWAP2 SWAP1 POP JUMP JUMPDEST PUSH1 0x0 PUSH1 0x20 DUP3 ADD SWAP1 POP DUP2 DUP2 SUB PUSH1 0x0 DUP4 ADD MSTORE PUSH2 0x20F4 DUP2 PUSH2 0x20B8 JUMP JUMPDEST SWAP1 POP SWAP2 SWAP1 POP JUMP JUMPDEST PUSH32 0x4E487B7100000000000000000000000000000000000000000000000000000000 PUSH1 0x0 MSTORE PUSH1 0x11 PUSH1 0x4 MSTORE PUSH1 0x24 PUSH1 0x0 REVERT JUMPDEST PUSH1 0x0 PUSH2 0x2135 DUP3 PUSH2 0x1787 JUMP JUMPDEST SWAP2 POP PUSH2 0x2140 DUP4 PUSH2 0x1787 JUMP JUMPDEST SWAP3 POP DUP3 DUP3 SUB SWAP1 POP DUP2 DUP2 GT ISZERO PUSH2 0x2158 JUMPI PUSH2 0x2157 PUSH2 0x20FB JUMP JUMPDEST JUMPDEST SWAP3 SWAP2 POP POP JUMP JUMPDEST PUSH1 0x0 PUSH2 0x2169 DUP3 PUSH2 0x1787 JUMP JUMPDEST SWAP2 POP PUSH2 0x2174 DUP4 PUSH2 0x1787 JUMP JUMPDEST SWAP3 POP DUP3 DUP3 MUL PUSH2 0x2182 DUP2 PUSH2 0x1787 JUMP JUMPDEST SWAP2 POP DUP3 DUP3 DIV DUP5 EQ DUP4 ISZERO OR PUSH2 0x2199 JUMPI PUSH2 0x2198 PUSH2 0x20FB JUMP JUMPDEST JUMPDEST POP SWAP3 SWAP2 POP POP JUMP JUMPDEST PUSH32 0x4E487B7100000000000000000000000000000000000000000000000000000000 PUSH1 0x0 MSTORE PUSH1 0x12 PUSH1 0x4 MSTORE PUSH1 0x24 PUSH1 0x0 REVERT JUMPDEST PUSH1 0x0 PUSH2 0x21DA DUP3 PUSH2 0x1787 JUMP JUMPDEST SWAP2 POP PUSH2 0x21E5 DUP4 PUSH2 0x1787 JUMP JUMPDEST SWAP3 POP DUP3 PUSH2 0x21F5 JUMPI PUSH2 0x21F4 PUSH2 0x21A0 JUMP JUMPDEST JUMPDEST DUP3 DUP3 DIV SWAP1 POP SWAP3 SWAP2 POP POP JUMP JUMPDEST PUSH32 0x596F7520617265206E6F74207468652043454F21000000000000000000000000 PUSH1 0x0 DUP3 ADD MSTORE POP JUMP JUMPDEST PUSH1 0x0 PUSH2 0x2236 PUSH1 0x14 DUP4 PUSH2 0x1836 JUMP JUMPDEST SWAP2 POP PUSH2 0x2241 DUP3 PUSH2 0x2200 JUMP JUMPDEST PUSH1 0x20 DUP3 ADD SWAP1 POP SWAP2 SWAP1 POP JUMP JUMPDEST PUSH1 0x0 PUSH1 0x20 DUP3 ADD SWAP1 POP DUP2 DUP2 SUB PUSH1 0x0 DUP4 ADD MSTORE PUSH2 0x2265 DUP2 PUSH2 0x2229 JUMP JUMPDEST SWAP1 POP SWAP2 SWAP1 POP JUMP JUMPDEST PUSH32 0x4572726F723A20546869732064657374696E6174696F6E20616C726561647920 PUSH1 0x0 DUP3 ADD MSTORE PUSH32 0x6578697374732100000000000000000000000000000000000000000000000000 PUSH1 0x20 DUP3 ADD MSTORE POP JUMP JUMPDEST PUSH1 0x0 PUSH2 0x22C8 PUSH1 0x27 DUP4 PUSH2 0x1836 JUMP JUMPDEST SWAP2 POP PUSH2 0x22D3 DUP3 PUSH2 0x226C JUMP JUMPDEST PUSH1 0x40 DUP3 ADD SWAP1 POP SWAP2 SWAP1 POP JUMP JUMPDEST PUSH1 0x0 PUSH1 0x20 DUP3 ADD SWAP1 POP DUP2 DUP2 SUB PUSH1 0x0 DUP4 ADD MSTORE PUSH2 0x22F7 DUP2 PUSH2 0x22BB JUMP JUMPDEST SWAP1 POP SWAP2 SWAP1 POP JUMP JUMPDEST PUSH32 0x4572726F723A20426173652070726963652063616E6E6F742062652062656C6F PUSH1 0x0 DUP3 ADD MSTORE PUSH32 0x7720333020576569210000000000000000000000000000000000000000000000 PUSH1 0x20 DUP3 ADD MSTORE POP JUMP JUMPDEST PUSH1 0x0 PUSH2 0x235A PUSH1 0x29 DUP4 PUSH2 0x1836 JUMP JUMPDEST SWAP2 POP PUSH2 0x2365 DUP3 PUSH2 0x22FE JUMP JUMPDEST PUSH1 0x40 DUP3 ADD SWAP1 POP SWAP2 SWAP1 POP JUMP JUMPDEST PUSH1 0x0 PUSH1 0x20 DUP3 ADD SWAP1 POP DUP2 DUP2 SUB PUSH1 0x0 DUP4 ADD MSTORE PUSH2 0x2389 DUP2 PUSH2 0x234D JUMP JUMPDEST SWAP1 POP SWAP2 SWAP1 POP JUMP JUMPDEST PUSH1 0x0 PUSH1 0x20 PUSH1 0x1F DUP4 ADD DIV SWAP1 POP SWAP2 SWAP1 POP JUMP JUMPDEST PUSH1 0x0 DUP3 DUP3 SHL SWAP1 POP SWAP3 SWAP2 POP POP JUMP JUMPDEST PUSH1 0x0 PUSH1 0x8 DUP4 MUL PUSH2 0x23DD PUSH32 0xFFFFFFFFFFFFFFFFFFFFFFFFFFFFFFFFFFFFFFFFFFFFFFFFFFFFFFFFFFFFFFFF DUP3 PUSH2 0x23A0 JUMP JUMPDEST PUSH2 0x23E7 DUP7 DUP4 PUSH2 0x23A0 JUMP JUMPDEST SWAP6 POP DUP1 NOT DUP5 AND SWAP4 POP DUP1 DUP7 AND DUP5 OR SWAP3 POP POP POP SWAP4 SWAP3 POP POP POP JUMP JUMPDEST PUSH1 0x0 DUP2 SWAP1 POP SWAP2 SWAP1 POP JUMP JUMPDEST PUSH1 0x0 PUSH2 0x2424 PUSH2 0x241F PUSH2 0x241A DUP5 PUSH2 0x1787 JUMP JUMPDEST PUSH2 0x23FF JUMP JUMPDEST PUSH2 0x1787 JUMP JUMPDEST SWAP1 POP SWAP2 SWAP1 POP JUMP JUMPDEST PUSH1 0x0 DUP2 SWAP1 POP SWAP2 SWAP1 POP JUMP JUMPDEST PUSH2 0x243E DUP4 PUSH2 0x2409 JUMP JUMPDEST PUSH2 0x2452 PUSH2 0x244A DUP3 PUSH2 0x242B JUMP JUMPDEST DUP5 DUP5 SLOAD PUSH2 0x23AD JUMP JUMPDEST DUP3 SSTORE POP POP POP POP JUMP JUMPDEST PUSH1 0x0 SWAP1 JUMP JUMPDEST PUSH2 0x2467 PUSH2 0x245A JUMP JUMPDEST PUSH2 0x2472 DUP2 DUP5 DUP5 PUSH2 0x2435 JUMP JUMPDEST POP POP POP JUMP JUMPDEST JUMPDEST DUP2 DUP2 LT ISZERO PUSH2 0x2496 JUMPI PUSH2 0x248B PUSH1 0x0 DUP3 PUSH2 0x245F JUMP JUMPDEST PUSH1 0x1 DUP2 ADD SWAP1 POP PUSH2 0x2478 JUMP JUMPDEST POP POP JUMP JUMPDEST PUSH1 0x1F DUP3 GT ISZERO PUSH2 0x24DB JUMPI PUSH2 0x24AC DUP2 PUSH2 0x1FBA JUMP JUMPDEST PUSH2 0x24B5 DUP5 PUSH2 0x2390 JUMP JUMPDEST DUP2 ADD PUSH1 0x20 DUP6 LT ISZERO PUSH2 0x24C4 JUMPI DUP2 SWAP1 POP JUMPDEST PUSH2 0x24D8 PUSH2 0x24D0 DUP6 PUSH2 0x2390 JUMP JUMPDEST DUP4 ADD DUP3 PUSH2 0x2477 JUMP JUMPDEST POP POP JUMPDEST POP POP POP JUMP JUMPDEST PUSH1 0x0 DUP3 DUP3 SHR SWAP1 POP SWAP3 SWAP2 POP POP JUMP JUMPDEST PUSH1 0x0 PUSH2 0x24FE PUSH1 0x0 NOT DUP5 PUSH1 0x8 MUL PUSH2 0x24E0 JUMP JUMPDEST NOT DUP1 DUP4 AND SWAP2 POP POP SWAP3 SWAP2 POP POP JUMP JUMPDEST PUSH1 0x0 PUSH2 0x2517 DUP4 DUP4 PUSH2 0x24ED JUMP JUMPDEST SWAP2 POP DUP3 PUSH1 0x2 MUL DUP3 OR SWAP1 POP SWAP3 SWAP2 POP POP JUMP JUMPDEST PUSH2 0x2530 DUP3 PUSH2 0x182B JUMP JUMPDEST PUSH8 0xFFFFFFFFFFFFFFFF DUP2 GT ISZERO PUSH2 0x2549 JUMPI PUSH2 0x2548 PUSH2 0x1996 JUMP JUMPDEST JUMPDEST PUSH2 0x2553 DUP3 SLOAD PUSH2 0x1F07 JUMP JUMPDEST PUSH2 0x255E DUP3 DUP3 DUP6 PUSH2 0x249A JUMP JUMPDEST PUSH1 0x0 PUSH1 0x20 SWAP1 POP PUSH1 0x1F DUP4 GT PUSH1 0x1 DUP2 EQ PUSH2 0x2591 JUMPI PUSH1 0x0 DUP5 ISZERO PUSH2 0x257F JUMPI DUP3 DUP8 ADD MLOAD SWAP1 POP JUMPDEST PUSH2 0x2589 DUP6 DUP3 PUSH2 0x250B JUMP JUMPDEST DUP7 SSTORE POP PUSH2 0x25F1 JUMP JUMPDEST PUSH1 0x1F NOT DUP5 AND PUSH2 0x259F DUP7 PUSH2 0x1FBA JUMP JUMPDEST PUSH1 0x0 JUMPDEST DUP3 DUP2 LT ISZERO PUSH2 0x25C7 JUMPI DUP5 DUP10 ADD MLOAD DUP3 SSTORE PUSH1 0x1 DUP3 ADD SWAP2 POP PUSH1 0x20 DUP6 ADD SWAP5 POP PUSH1 0x20 DUP2 ADD SWAP1 POP PUSH2 0x25A2 JUMP JUMPDEST DUP7 DUP4 LT ISZERO PUSH2 0x25E4 JUMPI DUP5 DUP10 ADD MLOAD PUSH2 0x25E0 PUSH1 0x1F DUP10 AND DUP3 PUSH2 0x24ED JUMP JUMPDEST DUP4 SSTORE POP JUMPDEST PUSH1 0x1 PUSH1 0x2 DUP9 MUL ADD DUP9 SSTORE POP POP POP JUMPDEST POP POP POP POP POP POP JUMP JUMPDEST PUSH1 0x0 PUSH2 0x2604 DUP3 PUSH2 0x1787 JUMP JUMPDEST SWAP2 POP PUSH32 0xFFFFFFFFFFFFFFFFFFFFFFFFFFFFFFFFFFFFFFFFFFFFFFFFFFFFFFFFFFFFFFFF DUP3 SUB PUSH2 0x2636 JUMPI PUSH2 0x2635 PUSH2 0x20FB JUMP JUMPDEST JUMPDEST PUSH1 0x1 DUP3 ADD SWAP1 POP SWAP2 SWAP1 POP JUMP JUMPDEST PUSH32 0x4E6F20617661696C61626C65207469636B65747320666F722074686520737065 PUSH1 0x0 DUP3 ADD MSTORE PUSH32 0x6369666965642064657374696E6174696F6E0000000000000000000000000000 PUSH1 0x20 DUP3 ADD MSTORE POP JUMP JUMPDEST PUSH1 0x0 PUSH2 0x269D PUSH1 0x32 DUP4 PUSH2 0x1836 JUMP JUMPDEST SWAP2 POP PUSH2 0x26A8 DUP3 PUSH2 0x2641 JUMP JUMPDEST PUSH1 0x40 DUP3 ADD SWAP1 POP SWAP2 SWAP1 POP JUMP JUMPDEST PUSH1 0x0 PUSH1 0x20 DUP3 ADD SWAP1 POP DUP2 DUP2 SUB PUSH1 0x0 DUP4 ADD MSTORE PUSH2 0x26CC DUP2 PUSH2 0x2690 JUMP JUMPDEST SWAP1 POP SWAP2 SWAP1 POP JUMP JUMPDEST PUSH1 0x0 PUSH2 0x26DE DUP3 PUSH2 0x1787 JUMP JUMPDEST SWAP2 POP PUSH1 0x0 DUP3 SUB PUSH2 0x26F1 JUMPI PUSH2 0x26F0 PUSH2 0x20FB JUMP JUMPDEST JUMPDEST PUSH1 0x1 DUP3 SUB SWAP1 POP SWAP2 SWAP1 POP JUMP JUMPDEST PUSH1 0x0 PUSH2 0x2707 DUP3 PUSH2 0x1787 JUMP JUMPDEST SWAP2 POP PUSH2 0x2712 DUP4 PUSH2 0x1787 JUMP JUMPDEST SWAP3 POP DUP3 DUP3 ADD SWAP1 POP DUP1 DUP3 GT ISZERO PUSH2 0x272A JUMPI PUSH2 0x2729 PUSH2 0x20FB JUMP JUMPDEST JUMPDEST SWAP3 SWAP2 POP POP JUMP INVALID LOG2 PUSH5 0x6970667358 0x22 SLT KECCAK256 0xE8 0xD5 PUSH7 0xDEC65BB1B025DD ADDMOD DUP5 0xC6 STATICCALL PUSH32 0x9B924020A74028564D9EF71FC30A8F00EE64736F6C6343000813003300000000 "},"gasEstimates":{"creation":{"codeDepositCost":"2017200","executionCost":"infinite","totalCost":"infinite"},"external":{"bookFlight(string,uint256,uint256,bool)":"infinite","canPayout()":"2581","ceo()":"2578","classMultiplier(uint256)":"infinite","count()":"2475","createDestination(string,uint256)":"infinite","destinationPrices(uint256)":"infinite","destinations(uint256)":"infinite","getBookedFlights(address)":"infinite","getPrice(string,uint256,uint256,bool)":"infinite","indexes(string)":"infinite","isCeo(address)":"3006","monthMultiplier(uint256)":"infinite","nextTicketId()":"2540","payAmount()":"2473","payCEO()":"infinite","seats(uint256)":"infinite","ticketDetails(uint256)":"infinite"},"internal":{"create30Tickets(address,string memory,uint256)":"infinite"}},"methodIdentifiers":{"bookFlight(string,uint256,uint256,bool)":"ea6e358e","canPayout()":"ff203bc0","ceo()":"908921fc","classMultiplier(uint256)":"695dc67e","count()":"06661abd","createDestination(string,uint256)":"5e583e37","destinationPrices(uint256)":"195c1445","destinations(uint256)":"8dd4ba2e","getBookedFlights(address)":"ad03fe70","getPrice(string,uint256,uint256,bool)":"07819bd6","indexes(string)":"2427e59e","isCeo(address)":"1165e6ab","monthMultiplier(uint256)":"cb2cc82a","nextTicketId()":"6031a52f","payAmount()":"c8705544","payCEO()":"aafc8d74","seats(uint256)":"3b33c702","ticketDetails(uint256)":"033fab35"}},"storageLayout":{"storage":[{"astId":20,"contract":"AirlineManagement.sol:AirlineManagement","label":"ceo","offset":0,"slot":"0","type":"t_address"},{"astId":23,"contract":"AirlineManagement.sol:AirlineManagement","label":"destinations","offset":0,"slot":"1","type":"t_array(t_string_storage)dyn_storage"},{"astId":26,"contract":"AirlineManagement.sol:AirlineManagement","label":"destinationPrices","offset":0,"slot":"2","type":"t_array(t_uint256)dyn_storage"},{"astId":29,"contract":"AirlineManagement.sol:AirlineManagement","label":"seats","offset":0,"slot":"3","type":"t_array(t_uint256)dyn_storage"},{"astId":33,"contract":"AirlineManagement.sol:AirlineManagement","label":"indexes","offset":0,"slot":"4","type":"t_mapping(t_string_memory_ptr,t_uint256)"},{"astId":37,"contract":"AirlineManagement.sol:AirlineManagement","label":"monthMultiplier","offset":0,"slot":"5","type":"t_array(t_uint256)12_storage"},{"astId":41,"contract":"AirlineManagement.sol:AirlineManagement","label":"classMultiplier","offset":0,"slot":"17","type":"t_array(t_uint256)3_storage"},{"astId":43,"contract":"AirlineManagement.sol:AirlineManagement","label":"count","offset":0,"slot":"20","type":"t_uint256"},{"astId":45,"contract":"AirlineManagement.sol:AirlineManagement","label":"canPayout","offset":0,"slot":"21","type":"t_bool"},{"astId":47,"contract":"AirlineManagement.sol:AirlineManagement","label":"payAmount","offset":0,"slot":"22","type":"t_uint256"},{"astId":52,"contract":"AirlineManagement.sol:AirlineManagement","label":"ticketDetails","offset":0,"slot":"23","type":"t_mapping(t_uint256,t_struct(Ticket)18_storage)"},{"astId":54,"contract":"AirlineManagement.sol:AirlineManagement","label":"nextTicketId","offset":0,"slot":"24","type":"t_uint256"}],"types":{"t_address":{"encoding":"inplace","label":"address","numberOfBytes":"20"},"t_array(t_string_storage)dyn_storage":{"base":"t_string_storage","encoding":"dynamic_array","label":"string[]","numberOfBytes":"32"},"t_array(t_uint256)12_storage":{"base":"t_uint256","encoding":"inplace","label":"uint256[12]","numberOfBytes":"384"},"t_array(t_uint256)3_storage":{"base":"t_uint256","encoding":"inplace","label":"uint256[3]","numberOfBytes":"96"},"t_array(t_uint256)dyn_storage":{"base":"t_uint256","encoding":"dynamic_array","label":"uint256[]","numberOfBytes":"32"},"t_bool":{"encoding":"inplace","label":"bool","numberOfBytes":"1"},"t_mapping(t_string_memory_ptr,t_uint256)":{"encoding":"mapping","key":"t_string_memory_ptr","label":"mapping(string => uint256)","numberOfBytes":"32","value":"t_uint256"},"t_mapping(t_uint256,t_struct(Ticket)18_storage)":{"encoding":"mapping","key":"t_uint256","label":"mapping(uint256 => struct AirlineManagement.Ticket)","numberOfBytes":"32","value":"t_struct(Ticket)18_storage"},"t_string_memory_ptr":{"encoding":"bytes","label":"string","numberOfBytes":"32"},"t_string_storage":{"encoding":"bytes","label":"string","numberOfBytes":"32"},"t_struct(Ticket)18_storage":{"encoding":"inplace","label":"struct AirlineManagement.Ticket","members":[{"astId":3,"contract":"AirlineManagement.sol:AirlineManagement","label":"owner","offset":0,"slot":"0","type":"t_address"},{"astId":5,"contract":"AirlineManagement.sol:AirlineManagement","label":"destination","offset":0,"slot":"1","type":"t_string_storage"},{"astId":7,"contract":"AirlineManagement.sol:AirlineManagement","label":"price","offset":0,"slot":"2","type":"t_uint256"},{"astId":9,"contract":"AirlineManagement.sol:AirlineManagement","label":"seat","offset":0,"slot":"3","type":"t_uint256"},{"astId":11,"contract":"AirlineManagement.sol:AirlineManagement","label":"class","offset":0,"slot":"4","type":"t_string_storage"},{"astId":13,"contract":"AirlineManagement.sol:AirlineManagement","label":"roundTrip","offset":0,"slot":"5","type":"t_bool"},{"astId":15,"contract":"AirlineManagement.sol:AirlineManagement","label":"isAvailable","offset":1,"slot":"5","type":"t_bool"},{"astId":17,"contract":"AirlineManagement.sol:AirlineManagement","label":"month","offset":0,"slot":"6","type":"t_uint256"}],"numberOfBytes":"224"},"t_uint256":{"encoding":"inplace","label":"uint256","numberOfBytes":"32"}}},"userdoc":{"kind":"user","methods":{},"version":1}}